{
	"data": {
		"bytecode": {
			"linkReferences": {},
			"object": "6080604052348015600e575f80fd5b50610c598061001c5f395ff3fe608060405234801561000f575f80fd5b5060043610610029575f3560e01c80632edd10461461002d575b5f80fd5b6100476004803603810190610042919061055e565b61005d565b60405161005491906105b4565b60405180910390f35b5f60405160200161006d90610621565b604051602081830303815290604052805190602001208260200151604051602001610098919061067d565b60405160208183030381529060405280519060200120036100cd578160400151825f01516100c691906106c0565b9050610354565b6040516020016100dc9061073d565b604051602081830303815290604052805190602001208260200151604051602001610107919061067d565b6040516020818303038152906040528051906020012003610186578160400151825f0151101561016c576040517f08c379a0000000000000000000000000000000000000000000000000000000008152600401610163906107ab565b60405180910390fd5b8160400151825f015161017f91906107c9565b9050610354565b60405160200161019590610846565b6040516020818303038152906040528051906020012082602001516040516020016101c0919061067d565b60405160208183030381529060405280519060200120036101f5578160400151825f01516101ee919061085a565b9050610354565b604051602001610204906108e5565b60405160208183030381529060405280519060200120826020015160405160200161022f919061067d565b60405160208183030381529060405280519060200120036102aa575f826040015103610290576040517f08c379a000000000000000000000000000000000000000000000000000000000815260040161028790610943565b60405180910390fd5b8160400151825f01516102a3919061098e565b9050610354565b6040516020016102b990610a08565b6040516020818303038152906040528051906020012082602001516040516020016102e4919061067d565b6040516020818303038152906040528051906020012003610319578160400151825f01516103129190610b4b565b9050610354565b6040517f08c379a000000000000000000000000000000000000000000000000000000000815260040161034b90610c05565b60405180910390fd5b919050565b5f604051905090565b5f80fd5b5f80fd5b5f80fd5b5f601f19601f8301169050919050565b7f4e487b71000000000000000000000000000000000000000000000000000000005f52604160045260245ffd5b6103b48261036e565b810181811067ffffffffffffffff821117156103d3576103d261037e565b5b80604052505050565b5f6103e5610359565b90506103f182826103ab565b919050565b5f80fd5b5f819050919050565b61040c816103fa565b8114610416575f80fd5b50565b5f8135905061042781610403565b92915050565b5f80fd5b5f80fd5b5f67ffffffffffffffff82111561044f5761044e61037e565b5b6104588261036e565b9050602081019050919050565b828183375f83830152505050565b5f61048561048084610435565b6103dc565b9050828152602081018484840111156104a1576104a0610431565b5b6104ac848285610465565b509392505050565b5f82601f8301126104c8576104c761042d565b5b81356104d8848260208601610473565b91505092915050565b5f606082840312156104f6576104f561036a565b5b61050060606103dc565b90505f61050f84828501610419565b5f83015250602082013567ffffffffffffffff811115610532576105316103f6565b5b61053e848285016104b4565b602083015250604061055284828501610419565b60408301525092915050565b5f6020828403121561057357610572610362565b5b5f82013567ffffffffffffffff8111156105905761058f610366565b5b61059c848285016104e1565b91505092915050565b6105ae816103fa565b82525050565b5f6020820190506105c75f8301846105a5565b92915050565b5f81905092915050565b7f2b000000000000000000000000000000000000000000000000000000000000005f82015250565b5f61060b6001836105cd565b9150610616826105d7565b600182019050919050565b5f61062b826105ff565b9150819050919050565b5f81519050919050565b8281835e5f83830152505050565b5f61065782610635565b61066181856105cd565b935061067181856020860161063f565b80840191505092915050565b5f610688828461064d565b915081905092915050565b7f4e487b71000000000000000000000000000000000000000000000000000000005f52601160045260245ffd5b5f6106ca826103fa565b91506106d5836103fa565b92508282019050808211156106ed576106ec610693565b5b92915050565b7f2d000000000000000000000000000000000000000000000000000000000000005f82015250565b5f6107276001836105cd565b9150610732826106f3565b600182019050919050565b5f6107478261071b565b9150819050919050565b5f82825260208201905092915050565b7f43616e206e6f742073756273747261637420756e646572207a65726f000000005f82015250565b5f610795601c83610751565b91506107a082610761565b602082019050919050565b5f6020820190508181035f8301526107c281610789565b9050919050565b5f6107d3826103fa565b91506107de836103fa565b92508282039050818111156107f6576107f5610693565b5b92915050565b7f2a000000000000000000000000000000000000000000000000000000000000005f82015250565b5f6108306001836105cd565b915061083b826107fc565b600182019050919050565b5f61085082610824565b9150819050919050565b5f610864826103fa565b915061086f836103fa565b925082820261087d816103fa565b9150828204841483151761089457610893610693565b5b5092915050565b7f2f000000000000000000000000000000000000000000000000000000000000005f82015250565b5f6108cf6001836105cd565b91506108da8261089b565b600182019050919050565b5f6108ef826108c3565b9150819050919050565b7f43616e206e6f7420646976696465206279207a65726f000000000000000000005f82015250565b5f61092d601683610751565b9150610938826108f9565b602082019050919050565b5f6020820190508181035f83015261095a81610921565b9050919050565b7f4e487b71000000000000000000000000000000000000000000000000000000005f52601260045260245ffd5b5f610998826103fa565b91506109a3836103fa565b9250826109b3576109b2610961565b5b828204905092915050565b7f5e000000000000000000000000000000000000000000000000000000000000005f82015250565b5f6109f26001836105cd565b91506109fd826109be565b600182019050919050565b5f610a12826109e6565b9150819050919050565b5f8160011c9050919050565b5f808291508390505b6001851115610a7157808604811115610a4d57610a4c610693565b5b6001851615610a5c5780820291505b8081029050610a6a85610a1c565b9450610a31565b94509492505050565b5f82610a895760019050610b44565b81610a96575f9050610b44565b8160018114610aac5760028114610ab657610ae5565b6001915050610b44565b60ff841115610ac857610ac7610693565b5b8360020a915084821115610adf57610ade610693565b5b50610b44565b5060208310610133831016604e8410600b8410161715610b1a5782820a905083811115610b1557610b14610693565b5b610b44565b610b278484846001610a28565b92509050818404811115610b3e57610b3d610693565b5b81810290505b9392505050565b5f610b55826103fa565b9150610b60836103fa565b9250610b8d7fffffffffffffffffffffffffffffffffffffffffffffffffffffffffffffffff8484610a7a565b905092915050565b7f506c6561736520696e7075742076616c6964206f7065726174696f6e206578295f8201527f20272b272c272d27202e2e2e2000000000000000000000000000000000000000602082015250565b5f610bef602d83610751565b9150610bfa82610b95565b604082019050919050565b5f6020820190508181035f830152610c1c81610be3565b905091905056fea2646970667358221220d3cfd6bbe0cdc9316f1fda9c449092556a7f07fdde69cff83bc38b8089be04c664736f6c634300081a0033",
			"opcodes": "PUSH1 0x80 PUSH1 0x40 MSTORE CALLVALUE DUP1 ISZERO PUSH1 0xE JUMPI PUSH0 DUP1 REVERT JUMPDEST POP PUSH2 0xC59 DUP1 PUSH2 0x1C PUSH0 CODECOPY PUSH0 RETURN INVALID PUSH1 0x80 PUSH1 0x40 MSTORE CALLVALUE DUP1 ISZERO PUSH2 0xF JUMPI PUSH0 DUP1 REVERT JUMPDEST POP PUSH1 0x4 CALLDATASIZE LT PUSH2 0x29 JUMPI PUSH0 CALLDATALOAD PUSH1 0xE0 SHR DUP1 PUSH4 0x2EDD1046 EQ PUSH2 0x2D JUMPI JUMPDEST PUSH0 DUP1 REVERT JUMPDEST PUSH2 0x47 PUSH1 0x4 DUP1 CALLDATASIZE SUB DUP2 ADD SWAP1 PUSH2 0x42 SWAP2 SWAP1 PUSH2 0x55E JUMP JUMPDEST PUSH2 0x5D JUMP JUMPDEST PUSH1 0x40 MLOAD PUSH2 0x54 SWAP2 SWAP1 PUSH2 0x5B4 JUMP JUMPDEST PUSH1 0x40 MLOAD DUP1 SWAP2 SUB SWAP1 RETURN JUMPDEST PUSH0 PUSH1 0x40 MLOAD PUSH1 0x20 ADD PUSH2 0x6D SWAP1 PUSH2 0x621 JUMP JUMPDEST PUSH1 0x40 MLOAD PUSH1 0x20 DUP2 DUP4 SUB SUB DUP2 MSTORE SWAP1 PUSH1 0x40 MSTORE DUP1 MLOAD SWAP1 PUSH1 0x20 ADD KECCAK256 DUP3 PUSH1 0x20 ADD MLOAD PUSH1 0x40 MLOAD PUSH1 0x20 ADD PUSH2 0x98 SWAP2 SWAP1 PUSH2 0x67D JUMP JUMPDEST PUSH1 0x40 MLOAD PUSH1 0x20 DUP2 DUP4 SUB SUB DUP2 MSTORE SWAP1 PUSH1 0x40 MSTORE DUP1 MLOAD SWAP1 PUSH1 0x20 ADD KECCAK256 SUB PUSH2 0xCD JUMPI DUP2 PUSH1 0x40 ADD MLOAD DUP3 PUSH0 ADD MLOAD PUSH2 0xC6 SWAP2 SWAP1 PUSH2 0x6C0 JUMP JUMPDEST SWAP1 POP PUSH2 0x354 JUMP JUMPDEST PUSH1 0x40 MLOAD PUSH1 0x20 ADD PUSH2 0xDC SWAP1 PUSH2 0x73D JUMP JUMPDEST PUSH1 0x40 MLOAD PUSH1 0x20 DUP2 DUP4 SUB SUB DUP2 MSTORE SWAP1 PUSH1 0x40 MSTORE DUP1 MLOAD SWAP1 PUSH1 0x20 ADD KECCAK256 DUP3 PUSH1 0x20 ADD MLOAD PUSH1 0x40 MLOAD PUSH1 0x20 ADD PUSH2 0x107 SWAP2 SWAP1 PUSH2 0x67D JUMP JUMPDEST PUSH1 0x40 MLOAD PUSH1 0x20 DUP2 DUP4 SUB SUB DUP2 MSTORE SWAP1 PUSH1 0x40 MSTORE DUP1 MLOAD SWAP1 PUSH1 0x20 ADD KECCAK256 SUB PUSH2 0x186 JUMPI DUP2 PUSH1 0x40 ADD MLOAD DUP3 PUSH0 ADD MLOAD LT ISZERO PUSH2 0x16C JUMPI PUSH1 0x40 MLOAD PUSH32 0x8C379A000000000000000000000000000000000000000000000000000000000 DUP2 MSTORE PUSH1 0x4 ADD PUSH2 0x163 SWAP1 PUSH2 0x7AB JUMP JUMPDEST PUSH1 0x40 MLOAD DUP1 SWAP2 SUB SWAP1 REVERT JUMPDEST DUP2 PUSH1 0x40 ADD MLOAD DUP3 PUSH0 ADD MLOAD PUSH2 0x17F SWAP2 SWAP1 PUSH2 0x7C9 JUMP JUMPDEST SWAP1 POP PUSH2 0x354 JUMP JUMPDEST PUSH1 0x40 MLOAD PUSH1 0x20 ADD PUSH2 0x195 SWAP1 PUSH2 0x846 JUMP JUMPDEST PUSH1 0x40 MLOAD PUSH1 0x20 DUP2 DUP4 SUB SUB DUP2 MSTORE SWAP1 PUSH1 0x40 MSTORE DUP1 MLOAD SWAP1 PUSH1 0x20 ADD KECCAK256 DUP3 PUSH1 0x20 ADD MLOAD PUSH1 0x40 MLOAD PUSH1 0x20 ADD PUSH2 0x1C0 SWAP2 SWAP1 PUSH2 0x67D JUMP JUMPDEST PUSH1 0x40 MLOAD PUSH1 0x20 DUP2 DUP4 SUB SUB DUP2 MSTORE SWAP1 PUSH1 0x40 MSTORE DUP1 MLOAD SWAP1 PUSH1 0x20 ADD KECCAK256 SUB PUSH2 0x1F5 JUMPI DUP2 PUSH1 0x40 ADD MLOAD DUP3 PUSH0 ADD MLOAD PUSH2 0x1EE SWAP2 SWAP1 PUSH2 0x85A JUMP JUMPDEST SWAP1 POP PUSH2 0x354 JUMP JUMPDEST PUSH1 0x40 MLOAD PUSH1 0x20 ADD PUSH2 0x204 SWAP1 PUSH2 0x8E5 JUMP JUMPDEST PUSH1 0x40 MLOAD PUSH1 0x20 DUP2 DUP4 SUB SUB DUP2 MSTORE SWAP1 PUSH1 0x40 MSTORE DUP1 MLOAD SWAP1 PUSH1 0x20 ADD KECCAK256 DUP3 PUSH1 0x20 ADD MLOAD PUSH1 0x40 MLOAD PUSH1 0x20 ADD PUSH2 0x22F SWAP2 SWAP1 PUSH2 0x67D JUMP JUMPDEST PUSH1 0x40 MLOAD PUSH1 0x20 DUP2 DUP4 SUB SUB DUP2 MSTORE SWAP1 PUSH1 0x40 MSTORE DUP1 MLOAD SWAP1 PUSH1 0x20 ADD KECCAK256 SUB PUSH2 0x2AA JUMPI PUSH0 DUP3 PUSH1 0x40 ADD MLOAD SUB PUSH2 0x290 JUMPI PUSH1 0x40 MLOAD PUSH32 0x8C379A000000000000000000000000000000000000000000000000000000000 DUP2 MSTORE PUSH1 0x4 ADD PUSH2 0x287 SWAP1 PUSH2 0x943 JUMP JUMPDEST PUSH1 0x40 MLOAD DUP1 SWAP2 SUB SWAP1 REVERT JUMPDEST DUP2 PUSH1 0x40 ADD MLOAD DUP3 PUSH0 ADD MLOAD PUSH2 0x2A3 SWAP2 SWAP1 PUSH2 0x98E JUMP JUMPDEST SWAP1 POP PUSH2 0x354 JUMP JUMPDEST PUSH1 0x40 MLOAD PUSH1 0x20 ADD PUSH2 0x2B9 SWAP1 PUSH2 0xA08 JUMP JUMPDEST PUSH1 0x40 MLOAD PUSH1 0x20 DUP2 DUP4 SUB SUB DUP2 MSTORE SWAP1 PUSH1 0x40 MSTORE DUP1 MLOAD SWAP1 PUSH1 0x20 ADD KECCAK256 DUP3 PUSH1 0x20 ADD MLOAD PUSH1 0x40 MLOAD PUSH1 0x20 ADD PUSH2 0x2E4 SWAP2 SWAP1 PUSH2 0x67D JUMP JUMPDEST PUSH1 0x40 MLOAD PUSH1 0x20 DUP2 DUP4 SUB SUB DUP2 MSTORE SWAP1 PUSH1 0x40 MSTORE DUP1 MLOAD SWAP1 PUSH1 0x20 ADD KECCAK256 SUB PUSH2 0x319 JUMPI DUP2 PUSH1 0x40 ADD MLOAD DUP3 PUSH0 ADD MLOAD PUSH2 0x312 SWAP2 SWAP1 PUSH2 0xB4B JUMP JUMPDEST SWAP1 POP PUSH2 0x354 JUMP JUMPDEST PUSH1 0x40 MLOAD PUSH32 0x8C379A000000000000000000000000000000000000000000000000000000000 DUP2 MSTORE PUSH1 0x4 ADD PUSH2 0x34B SWAP1 PUSH2 0xC05 JUMP JUMPDEST PUSH1 0x40 MLOAD DUP1 SWAP2 SUB SWAP1 REVERT JUMPDEST SWAP2 SWAP1 POP JUMP JUMPDEST PUSH0 PUSH1 0x40 MLOAD SWAP1 POP SWAP1 JUMP JUMPDEST PUSH0 DUP1 REVERT JUMPDEST PUSH0 DUP1 REVERT JUMPDEST PUSH0 DUP1 REVERT JUMPDEST PUSH0 PUSH1 0x1F NOT PUSH1 0x1F DUP4 ADD AND SWAP1 POP SWAP2 SWAP1 POP JUMP JUMPDEST PUSH32 0x4E487B7100000000000000000000000000000000000000000000000000000000 PUSH0 MSTORE PUSH1 0x41 PUSH1 0x4 MSTORE PUSH1 0x24 PUSH0 REVERT JUMPDEST PUSH2 0x3B4 DUP3 PUSH2 0x36E JUMP JUMPDEST DUP2 ADD DUP2 DUP2 LT PUSH8 0xFFFFFFFFFFFFFFFF DUP3 GT OR ISZERO PUSH2 0x3D3 JUMPI PUSH2 0x3D2 PUSH2 0x37E JUMP JUMPDEST JUMPDEST DUP1 PUSH1 0x40 MSTORE POP POP POP JUMP JUMPDEST PUSH0 PUSH2 0x3E5 PUSH2 0x359 JUMP JUMPDEST SWAP1 POP PUSH2 0x3F1 DUP3 DUP3 PUSH2 0x3AB JUMP JUMPDEST SWAP2 SWAP1 POP JUMP JUMPDEST PUSH0 DUP1 REVERT JUMPDEST PUSH0 DUP2 SWAP1 POP SWAP2 SWAP1 POP JUMP JUMPDEST PUSH2 0x40C DUP2 PUSH2 0x3FA JUMP JUMPDEST DUP2 EQ PUSH2 0x416 JUMPI PUSH0 DUP1 REVERT JUMPDEST POP JUMP JUMPDEST PUSH0 DUP2 CALLDATALOAD SWAP1 POP PUSH2 0x427 DUP2 PUSH2 0x403 JUMP JUMPDEST SWAP3 SWAP2 POP POP JUMP JUMPDEST PUSH0 DUP1 REVERT JUMPDEST PUSH0 DUP1 REVERT JUMPDEST PUSH0 PUSH8 0xFFFFFFFFFFFFFFFF DUP3 GT ISZERO PUSH2 0x44F JUMPI PUSH2 0x44E PUSH2 0x37E JUMP JUMPDEST JUMPDEST PUSH2 0x458 DUP3 PUSH2 0x36E JUMP JUMPDEST SWAP1 POP PUSH1 0x20 DUP2 ADD SWAP1 POP SWAP2 SWAP1 POP JUMP JUMPDEST DUP3 DUP2 DUP4 CALLDATACOPY PUSH0 DUP4 DUP4 ADD MSTORE POP POP POP JUMP JUMPDEST PUSH0 PUSH2 0x485 PUSH2 0x480 DUP5 PUSH2 0x435 JUMP JUMPDEST PUSH2 0x3DC JUMP JUMPDEST SWAP1 POP DUP3 DUP2 MSTORE PUSH1 0x20 DUP2 ADD DUP5 DUP5 DUP5 ADD GT ISZERO PUSH2 0x4A1 JUMPI PUSH2 0x4A0 PUSH2 0x431 JUMP JUMPDEST JUMPDEST PUSH2 0x4AC DUP5 DUP3 DUP6 PUSH2 0x465 JUMP JUMPDEST POP SWAP4 SWAP3 POP POP POP JUMP JUMPDEST PUSH0 DUP3 PUSH1 0x1F DUP4 ADD SLT PUSH2 0x4C8 JUMPI PUSH2 0x4C7 PUSH2 0x42D JUMP JUMPDEST JUMPDEST DUP2 CALLDATALOAD PUSH2 0x4D8 DUP5 DUP3 PUSH1 0x20 DUP7 ADD PUSH2 0x473 JUMP JUMPDEST SWAP2 POP POP SWAP3 SWAP2 POP POP JUMP JUMPDEST PUSH0 PUSH1 0x60 DUP3 DUP5 SUB SLT ISZERO PUSH2 0x4F6 JUMPI PUSH2 0x4F5 PUSH2 0x36A JUMP JUMPDEST JUMPDEST PUSH2 0x500 PUSH1 0x60 PUSH2 0x3DC JUMP JUMPDEST SWAP1 POP PUSH0 PUSH2 0x50F DUP5 DUP3 DUP6 ADD PUSH2 0x419 JUMP JUMPDEST PUSH0 DUP4 ADD MSTORE POP PUSH1 0x20 DUP3 ADD CALLDATALOAD PUSH8 0xFFFFFFFFFFFFFFFF DUP2 GT ISZERO PUSH2 0x532 JUMPI PUSH2 0x531 PUSH2 0x3F6 JUMP JUMPDEST JUMPDEST PUSH2 0x53E DUP5 DUP3 DUP6 ADD PUSH2 0x4B4 JUMP JUMPDEST PUSH1 0x20 DUP4 ADD MSTORE POP PUSH1 0x40 PUSH2 0x552 DUP5 DUP3 DUP6 ADD PUSH2 0x419 JUMP JUMPDEST PUSH1 0x40 DUP4 ADD MSTORE POP SWAP3 SWAP2 POP POP JUMP JUMPDEST PUSH0 PUSH1 0x20 DUP3 DUP5 SUB SLT ISZERO PUSH2 0x573 JUMPI PUSH2 0x572 PUSH2 0x362 JUMP JUMPDEST JUMPDEST PUSH0 DUP3 ADD CALLDATALOAD PUSH8 0xFFFFFFFFFFFFFFFF DUP2 GT ISZERO PUSH2 0x590 JUMPI PUSH2 0x58F PUSH2 0x366 JUMP JUMPDEST JUMPDEST PUSH2 0x59C DUP5 DUP3 DUP6 ADD PUSH2 0x4E1 JUMP JUMPDEST SWAP2 POP POP SWAP3 SWAP2 POP POP JUMP JUMPDEST PUSH2 0x5AE DUP2 PUSH2 0x3FA JUMP JUMPDEST DUP3 MSTORE POP POP JUMP JUMPDEST PUSH0 PUSH1 0x20 DUP3 ADD SWAP1 POP PUSH2 0x5C7 PUSH0 DUP4 ADD DUP5 PUSH2 0x5A5 JUMP JUMPDEST SWAP3 SWAP2 POP POP JUMP JUMPDEST PUSH0 DUP2 SWAP1 POP SWAP3 SWAP2 POP POP JUMP JUMPDEST PUSH32 0x2B00000000000000000000000000000000000000000000000000000000000000 PUSH0 DUP3 ADD MSTORE POP JUMP JUMPDEST PUSH0 PUSH2 0x60B PUSH1 0x1 DUP4 PUSH2 0x5CD JUMP JUMPDEST SWAP2 POP PUSH2 0x616 DUP3 PUSH2 0x5D7 JUMP JUMPDEST PUSH1 0x1 DUP3 ADD SWAP1 POP SWAP2 SWAP1 POP JUMP JUMPDEST PUSH0 PUSH2 0x62B DUP3 PUSH2 0x5FF JUMP JUMPDEST SWAP2 POP DUP2 SWAP1 POP SWAP2 SWAP1 POP JUMP JUMPDEST PUSH0 DUP2 MLOAD SWAP1 POP SWAP2 SWAP1 POP JUMP JUMPDEST DUP3 DUP2 DUP4 MCOPY PUSH0 DUP4 DUP4 ADD MSTORE POP POP POP JUMP JUMPDEST PUSH0 PUSH2 0x657 DUP3 PUSH2 0x635 JUMP JUMPDEST PUSH2 0x661 DUP2 DUP6 PUSH2 0x5CD JUMP JUMPDEST SWAP4 POP PUSH2 0x671 DUP2 DUP6 PUSH1 0x20 DUP7 ADD PUSH2 0x63F JUMP JUMPDEST DUP1 DUP5 ADD SWAP2 POP POP SWAP3 SWAP2 POP POP JUMP JUMPDEST PUSH0 PUSH2 0x688 DUP3 DUP5 PUSH2 0x64D JUMP JUMPDEST SWAP2 POP DUP2 SWAP1 POP SWAP3 SWAP2 POP POP JUMP JUMPDEST PUSH32 0x4E487B7100000000000000000000000000000000000000000000000000000000 PUSH0 MSTORE PUSH1 0x11 PUSH1 0x4 MSTORE PUSH1 0x24 PUSH0 REVERT JUMPDEST PUSH0 PUSH2 0x6CA DUP3 PUSH2 0x3FA JUMP JUMPDEST SWAP2 POP PUSH2 0x6D5 DUP4 PUSH2 0x3FA JUMP JUMPDEST SWAP3 POP DUP3 DUP3 ADD SWAP1 POP DUP1 DUP3 GT ISZERO PUSH2 0x6ED JUMPI PUSH2 0x6EC PUSH2 0x693 JUMP JUMPDEST JUMPDEST SWAP3 SWAP2 POP POP JUMP JUMPDEST PUSH32 0x2D00000000000000000000000000000000000000000000000000000000000000 PUSH0 DUP3 ADD MSTORE POP JUMP JUMPDEST PUSH0 PUSH2 0x727 PUSH1 0x1 DUP4 PUSH2 0x5CD JUMP JUMPDEST SWAP2 POP PUSH2 0x732 DUP3 PUSH2 0x6F3 JUMP JUMPDEST PUSH1 0x1 DUP3 ADD SWAP1 POP SWAP2 SWAP1 POP JUMP JUMPDEST PUSH0 PUSH2 0x747 DUP3 PUSH2 0x71B JUMP JUMPDEST SWAP2 POP DUP2 SWAP1 POP SWAP2 SWAP1 POP JUMP JUMPDEST PUSH0 DUP3 DUP3 MSTORE PUSH1 0x20 DUP3 ADD SWAP1 POP SWAP3 SWAP2 POP POP JUMP JUMPDEST PUSH32 0x43616E206E6F742073756273747261637420756E646572207A65726F00000000 PUSH0 DUP3 ADD MSTORE POP JUMP JUMPDEST PUSH0 PUSH2 0x795 PUSH1 0x1C DUP4 PUSH2 0x751 JUMP JUMPDEST SWAP2 POP PUSH2 0x7A0 DUP3 PUSH2 0x761 JUMP JUMPDEST PUSH1 0x20 DUP3 ADD SWAP1 POP SWAP2 SWAP1 POP JUMP JUMPDEST PUSH0 PUSH1 0x20 DUP3 ADD SWAP1 POP DUP2 DUP2 SUB PUSH0 DUP4 ADD MSTORE PUSH2 0x7C2 DUP2 PUSH2 0x789 JUMP JUMPDEST SWAP1 POP SWAP2 SWAP1 POP JUMP JUMPDEST PUSH0 PUSH2 0x7D3 DUP3 PUSH2 0x3FA JUMP JUMPDEST SWAP2 POP PUSH2 0x7DE DUP4 PUSH2 0x3FA JUMP JUMPDEST SWAP3 POP DUP3 DUP3 SUB SWAP1 POP DUP2 DUP2 GT ISZERO PUSH2 0x7F6 JUMPI PUSH2 0x7F5 PUSH2 0x693 JUMP JUMPDEST JUMPDEST SWAP3 SWAP2 POP POP JUMP JUMPDEST PUSH32 0x2A00000000000000000000000000000000000000000000000000000000000000 PUSH0 DUP3 ADD MSTORE POP JUMP JUMPDEST PUSH0 PUSH2 0x830 PUSH1 0x1 DUP4 PUSH2 0x5CD JUMP JUMPDEST SWAP2 POP PUSH2 0x83B DUP3 PUSH2 0x7FC JUMP JUMPDEST PUSH1 0x1 DUP3 ADD SWAP1 POP SWAP2 SWAP1 POP JUMP JUMPDEST PUSH0 PUSH2 0x850 DUP3 PUSH2 0x824 JUMP JUMPDEST SWAP2 POP DUP2 SWAP1 POP SWAP2 SWAP1 POP JUMP JUMPDEST PUSH0 PUSH2 0x864 DUP3 PUSH2 0x3FA JUMP JUMPDEST SWAP2 POP PUSH2 0x86F DUP4 PUSH2 0x3FA JUMP JUMPDEST SWAP3 POP DUP3 DUP3 MUL PUSH2 0x87D DUP2 PUSH2 0x3FA JUMP JUMPDEST SWAP2 POP DUP3 DUP3 DIV DUP5 EQ DUP4 ISZERO OR PUSH2 0x894 JUMPI PUSH2 0x893 PUSH2 0x693 JUMP JUMPDEST JUMPDEST POP SWAP3 SWAP2 POP POP JUMP JUMPDEST PUSH32 0x2F00000000000000000000000000000000000000000000000000000000000000 PUSH0 DUP3 ADD MSTORE POP JUMP JUMPDEST PUSH0 PUSH2 0x8CF PUSH1 0x1 DUP4 PUSH2 0x5CD JUMP JUMPDEST SWAP2 POP PUSH2 0x8DA DUP3 PUSH2 0x89B JUMP JUMPDEST PUSH1 0x1 DUP3 ADD SWAP1 POP SWAP2 SWAP1 POP JUMP JUMPDEST PUSH0 PUSH2 0x8EF DUP3 PUSH2 0x8C3 JUMP JUMPDEST SWAP2 POP DUP2 SWAP1 POP SWAP2 SWAP1 POP JUMP JUMPDEST PUSH32 0x43616E206E6F7420646976696465206279207A65726F00000000000000000000 PUSH0 DUP3 ADD MSTORE POP JUMP JUMPDEST PUSH0 PUSH2 0x92D PUSH1 0x16 DUP4 PUSH2 0x751 JUMP JUMPDEST SWAP2 POP PUSH2 0x938 DUP3 PUSH2 0x8F9 JUMP JUMPDEST PUSH1 0x20 DUP3 ADD SWAP1 POP SWAP2 SWAP1 POP JUMP JUMPDEST PUSH0 PUSH1 0x20 DUP3 ADD SWAP1 POP DUP2 DUP2 SUB PUSH0 DUP4 ADD MSTORE PUSH2 0x95A DUP2 PUSH2 0x921 JUMP JUMPDEST SWAP1 POP SWAP2 SWAP1 POP JUMP JUMPDEST PUSH32 0x4E487B7100000000000000000000000000000000000000000000000000000000 PUSH0 MSTORE PUSH1 0x12 PUSH1 0x4 MSTORE PUSH1 0x24 PUSH0 REVERT JUMPDEST PUSH0 PUSH2 0x998 DUP3 PUSH2 0x3FA JUMP JUMPDEST SWAP2 POP PUSH2 0x9A3 DUP4 PUSH2 0x3FA JUMP JUMPDEST SWAP3 POP DUP3 PUSH2 0x9B3 JUMPI PUSH2 0x9B2 PUSH2 0x961 JUMP JUMPDEST JUMPDEST DUP3 DUP3 DIV SWAP1 POP SWAP3 SWAP2 POP POP JUMP JUMPDEST PUSH32 0x5E00000000000000000000000000000000000000000000000000000000000000 PUSH0 DUP3 ADD MSTORE POP JUMP JUMPDEST PUSH0 PUSH2 0x9F2 PUSH1 0x1 DUP4 PUSH2 0x5CD JUMP JUMPDEST SWAP2 POP PUSH2 0x9FD DUP3 PUSH2 0x9BE JUMP JUMPDEST PUSH1 0x1 DUP3 ADD SWAP1 POP SWAP2 SWAP1 POP JUMP JUMPDEST PUSH0 PUSH2 0xA12 DUP3 PUSH2 0x9E6 JUMP JUMPDEST SWAP2 POP DUP2 SWAP1 POP SWAP2 SWAP1 POP JUMP JUMPDEST PUSH0 DUP2 PUSH1 0x1 SHR SWAP1 POP SWAP2 SWAP1 POP JUMP JUMPDEST PUSH0 DUP1 DUP3 SWAP2 POP DUP4 SWAP1 POP JUMPDEST PUSH1 0x1 DUP6 GT ISZERO PUSH2 0xA71 JUMPI DUP1 DUP7 DIV DUP2 GT ISZERO PUSH2 0xA4D JUMPI PUSH2 0xA4C PUSH2 0x693 JUMP JUMPDEST JUMPDEST PUSH1 0x1 DUP6 AND ISZERO PUSH2 0xA5C JUMPI DUP1 DUP3 MUL SWAP2 POP JUMPDEST DUP1 DUP2 MUL SWAP1 POP PUSH2 0xA6A DUP6 PUSH2 0xA1C JUMP JUMPDEST SWAP5 POP PUSH2 0xA31 JUMP JUMPDEST SWAP5 POP SWAP5 SWAP3 POP POP POP JUMP JUMPDEST PUSH0 DUP3 PUSH2 0xA89 JUMPI PUSH1 0x1 SWAP1 POP PUSH2 0xB44 JUMP JUMPDEST DUP2 PUSH2 0xA96 JUMPI PUSH0 SWAP1 POP PUSH2 0xB44 JUMP JUMPDEST DUP2 PUSH1 0x1 DUP2 EQ PUSH2 0xAAC JUMPI PUSH1 0x2 DUP2 EQ PUSH2 0xAB6 JUMPI PUSH2 0xAE5 JUMP JUMPDEST PUSH1 0x1 SWAP2 POP POP PUSH2 0xB44 JUMP JUMPDEST PUSH1 0xFF DUP5 GT ISZERO PUSH2 0xAC8 JUMPI PUSH2 0xAC7 PUSH2 0x693 JUMP JUMPDEST JUMPDEST DUP4 PUSH1 0x2 EXP SWAP2 POP DUP5 DUP3 GT ISZERO PUSH2 0xADF JUMPI PUSH2 0xADE PUSH2 0x693 JUMP JUMPDEST JUMPDEST POP PUSH2 0xB44 JUMP JUMPDEST POP PUSH1 0x20 DUP4 LT PUSH2 0x133 DUP4 LT AND PUSH1 0x4E DUP5 LT PUSH1 0xB DUP5 LT AND OR ISZERO PUSH2 0xB1A JUMPI DUP3 DUP3 EXP SWAP1 POP DUP4 DUP2 GT ISZERO PUSH2 0xB15 JUMPI PUSH2 0xB14 PUSH2 0x693 JUMP JUMPDEST JUMPDEST PUSH2 0xB44 JUMP JUMPDEST PUSH2 0xB27 DUP5 DUP5 DUP5 PUSH1 0x1 PUSH2 0xA28 JUMP JUMPDEST SWAP3 POP SWAP1 POP DUP2 DUP5 DIV DUP2 GT ISZERO PUSH2 0xB3E JUMPI PUSH2 0xB3D PUSH2 0x693 JUMP JUMPDEST JUMPDEST DUP2 DUP2 MUL SWAP1 POP JUMPDEST SWAP4 SWAP3 POP POP POP JUMP JUMPDEST PUSH0 PUSH2 0xB55 DUP3 PUSH2 0x3FA JUMP JUMPDEST SWAP2 POP PUSH2 0xB60 DUP4 PUSH2 0x3FA JUMP JUMPDEST SWAP3 POP PUSH2 0xB8D PUSH32 0xFFFFFFFFFFFFFFFFFFFFFFFFFFFFFFFFFFFFFFFFFFFFFFFFFFFFFFFFFFFFFFFF DUP5 DUP5 PUSH2 0xA7A JUMP JUMPDEST SWAP1 POP SWAP3 SWAP2 POP POP JUMP JUMPDEST PUSH32 0x506C6561736520696E7075742076616C6964206F7065726174696F6E20657829 PUSH0 DUP3 ADD MSTORE PUSH32 0x20272B272C272D27202E2E2E2000000000000000000000000000000000000000 PUSH1 0x20 DUP3 ADD MSTORE POP JUMP JUMPDEST PUSH0 PUSH2 0xBEF PUSH1 0x2D DUP4 PUSH2 0x751 JUMP JUMPDEST SWAP2 POP PUSH2 0xBFA DUP3 PUSH2 0xB95 JUMP JUMPDEST PUSH1 0x40 DUP3 ADD SWAP1 POP SWAP2 SWAP1 POP JUMP JUMPDEST PUSH0 PUSH1 0x20 DUP3 ADD SWAP1 POP DUP2 DUP2 SUB PUSH0 DUP4 ADD MSTORE PUSH2 0xC1C DUP2 PUSH2 0xBE3 JUMP JUMPDEST SWAP1 POP SWAP2 SWAP1 POP JUMP INVALID LOG2 PUSH5 0x6970667358 0x22 SLT KECCAK256 0xD3 0xCF 0xD6 0xBB 0xE0 0xCD 0xC9 BALANCE PUSH16 0x1FDA9C449092556A7F07FDDE69CFF83B 0xC3 DUP12 DUP1 DUP10 0xBE DIV 0xC6 PUSH5 0x736F6C6343 STOP ADDMOD BYTE STOP CALLER "
		},
		"gasEstimates": {
			"creation": {
				"codeDepositCost": "632200",
				"executionCost": "662",
				"totalCost": "632862"
			},
			"external": {
				"calculator((uint256,string,uint256))": "infinite"
			}
		},
		"methodIdentifiers": {
			"calculator((uint256,string,uint256))": "2edd1046"
		}
	},
	"abi": [
		{
			"inputs": [
				{
					"components": [
						{
							"internalType": "uint256",
							"name": "a",
							"type": "uint256"
						},
						{
							"internalType": "string",
							"name": "operation",
							"type": "string"
						},
						{
							"internalType": "uint256",
							"name": "b",
							"type": "uint256"
						}
					],
					"internalType": "struct Q1.Cal",
					"name": "_cal",
					"type": "tuple"
				}
			],
			"name": "calculator",
			"outputs": [
				{
					"internalType": "uint256",
					"name": "result",
					"type": "uint256"
				}
			],
			"stateMutability": "pure",
			"type": "function"
		}
	]
}