{
	"data": {
		"bytecode": {
			"linkReferences": {},
			"object": "6080604052348015600e575f80fd5b506102918061001c5f395ff3fe608060405234801561000f575f80fd5b506004361061003f575f3560e01c806316cdf82514610043578063671a967b1461005f578063ae713d2a1461008f575b5f80fd5b61005d6004803603810190610058919061014e565b610099565b005b6100796004803603810190610074919061014e565b6100c1565b6040516100869190610188565b60405180910390f35b6100976100f1565b005b5f81908060018154018082558091505060019003905f5260205f20015f909190919091505550565b5f806001836100d091906101ce565b815481106100e1576100e0610201565b5b905f5260205f2001549050919050565b5f8054806101025761010161022e565b5b600190038181905f5260205f20015f90559055565b5f80fd5b5f819050919050565b61012d8161011b565b8114610137575f80fd5b50565b5f8135905061014881610124565b92915050565b5f6020828403121561016357610162610117565b5b5f6101708482850161013a565b91505092915050565b6101828161011b565b82525050565b5f60208201905061019b5f830184610179565b92915050565b7f4e487b71000000000000000000000000000000000000000000000000000000005f52601160045260245ffd5b5f6101d88261011b565b91506101e38361011b565b92508282039050818111156101fb576101fa6101a1565b5b92915050565b7f4e487b71000000000000000000000000000000000000000000000000000000005f52603260045260245ffd5b7f4e487b71000000000000000000000000000000000000000000000000000000005f52603160045260245ffdfea264697066735822122077a7d845fe5fa66acdf6109ab3cd43397e57711c3517215a1a1afe51dd8fa51a64736f6c634300081a0033",
			"opcodes": "PUSH1 0x80 PUSH1 0x40 MSTORE CALLVALUE DUP1 ISZERO PUSH1 0xE JUMPI PUSH0 DUP1 REVERT JUMPDEST POP PUSH2 0x291 DUP1 PUSH2 0x1C PUSH0 CODECOPY PUSH0 RETURN INVALID PUSH1 0x80 PUSH1 0x40 MSTORE CALLVALUE DUP1 ISZERO PUSH2 0xF JUMPI PUSH0 DUP1 REVERT JUMPDEST POP PUSH1 0x4 CALLDATASIZE LT PUSH2 0x3F JUMPI PUSH0 CALLDATALOAD PUSH1 0xE0 SHR DUP1 PUSH4 0x16CDF825 EQ PUSH2 0x43 JUMPI DUP1 PUSH4 0x671A967B EQ PUSH2 0x5F JUMPI DUP1 PUSH4 0xAE713D2A EQ PUSH2 0x8F JUMPI JUMPDEST PUSH0 DUP1 REVERT JUMPDEST PUSH2 0x5D PUSH1 0x4 DUP1 CALLDATASIZE SUB DUP2 ADD SWAP1 PUSH2 0x58 SWAP2 SWAP1 PUSH2 0x14E JUMP JUMPDEST PUSH2 0x99 JUMP JUMPDEST STOP JUMPDEST PUSH2 0x79 PUSH1 0x4 DUP1 CALLDATASIZE SUB DUP2 ADD SWAP1 PUSH2 0x74 SWAP2 SWAP1 PUSH2 0x14E JUMP JUMPDEST PUSH2 0xC1 JUMP JUMPDEST PUSH1 0x40 MLOAD PUSH2 0x86 SWAP2 SWAP1 PUSH2 0x188 JUMP JUMPDEST PUSH1 0x40 MLOAD DUP1 SWAP2 SUB SWAP1 RETURN JUMPDEST PUSH2 0x97 PUSH2 0xF1 JUMP JUMPDEST STOP JUMPDEST PUSH0 DUP2 SWAP1 DUP1 PUSH1 0x1 DUP2 SLOAD ADD DUP1 DUP3 SSTORE DUP1 SWAP2 POP POP PUSH1 0x1 SWAP1 SUB SWAP1 PUSH0 MSTORE PUSH1 0x20 PUSH0 KECCAK256 ADD PUSH0 SWAP1 SWAP2 SWAP1 SWAP2 SWAP1 SWAP2 POP SSTORE POP JUMP JUMPDEST PUSH0 DUP1 PUSH1 0x1 DUP4 PUSH2 0xD0 SWAP2 SWAP1 PUSH2 0x1CE JUMP JUMPDEST DUP2 SLOAD DUP2 LT PUSH2 0xE1 JUMPI PUSH2 0xE0 PUSH2 0x201 JUMP JUMPDEST JUMPDEST SWAP1 PUSH0 MSTORE PUSH1 0x20 PUSH0 KECCAK256 ADD SLOAD SWAP1 POP SWAP2 SWAP1 POP JUMP JUMPDEST PUSH0 DUP1 SLOAD DUP1 PUSH2 0x102 JUMPI PUSH2 0x101 PUSH2 0x22E JUMP JUMPDEST JUMPDEST PUSH1 0x1 SWAP1 SUB DUP2 DUP2 SWAP1 PUSH0 MSTORE PUSH1 0x20 PUSH0 KECCAK256 ADD PUSH0 SWAP1 SSTORE SWAP1 SSTORE JUMP JUMPDEST PUSH0 DUP1 REVERT JUMPDEST PUSH0 DUP2 SWAP1 POP SWAP2 SWAP1 POP JUMP JUMPDEST PUSH2 0x12D DUP2 PUSH2 0x11B JUMP JUMPDEST DUP2 EQ PUSH2 0x137 JUMPI PUSH0 DUP1 REVERT JUMPDEST POP JUMP JUMPDEST PUSH0 DUP2 CALLDATALOAD SWAP1 POP PUSH2 0x148 DUP2 PUSH2 0x124 JUMP JUMPDEST SWAP3 SWAP2 POP POP JUMP JUMPDEST PUSH0 PUSH1 0x20 DUP3 DUP5 SUB SLT ISZERO PUSH2 0x163 JUMPI PUSH2 0x162 PUSH2 0x117 JUMP JUMPDEST JUMPDEST PUSH0 PUSH2 0x170 DUP5 DUP3 DUP6 ADD PUSH2 0x13A JUMP JUMPDEST SWAP2 POP POP SWAP3 SWAP2 POP POP JUMP JUMPDEST PUSH2 0x182 DUP2 PUSH2 0x11B JUMP JUMPDEST DUP3 MSTORE POP POP JUMP JUMPDEST PUSH0 PUSH1 0x20 DUP3 ADD SWAP1 POP PUSH2 0x19B PUSH0 DUP4 ADD DUP5 PUSH2 0x179 JUMP JUMPDEST SWAP3 SWAP2 POP POP JUMP JUMPDEST PUSH32 0x4E487B7100000000000000000000000000000000000000000000000000000000 PUSH0 MSTORE PUSH1 0x11 PUSH1 0x4 MSTORE PUSH1 0x24 PUSH0 REVERT JUMPDEST PUSH0 PUSH2 0x1D8 DUP3 PUSH2 0x11B JUMP JUMPDEST SWAP2 POP PUSH2 0x1E3 DUP4 PUSH2 0x11B JUMP JUMPDEST SWAP3 POP DUP3 DUP3 SUB SWAP1 POP DUP2 DUP2 GT ISZERO PUSH2 0x1FB JUMPI PUSH2 0x1FA PUSH2 0x1A1 JUMP JUMPDEST JUMPDEST SWAP3 SWAP2 POP POP JUMP JUMPDEST PUSH32 0x4E487B7100000000000000000000000000000000000000000000000000000000 PUSH0 MSTORE PUSH1 0x32 PUSH1 0x4 MSTORE PUSH1 0x24 PUSH0 REVERT JUMPDEST PUSH32 0x4E487B7100000000000000000000000000000000000000000000000000000000 PUSH0 MSTORE PUSH1 0x31 PUSH1 0x4 MSTORE PUSH1 0x24 PUSH0 REVERT INVALID LOG2 PUSH5 0x6970667358 0x22 SLT KECCAK256 PUSH24 0xA7D845FE5FA66ACDF6109AB3CD43397E57711C3517215A1A BYTE INVALID MLOAD 0xDD DUP16 0xA5 BYTE PUSH5 0x736F6C6343 STOP ADDMOD BYTE STOP CALLER "
		},
		"gasEstimates": {
			"creation": {
				"codeDepositCost": "131400",
				"executionCost": "175",
				"totalCost": "131575"
			},
			"external": {
				"getArrayByIndex(uint256)": "infinite",
				"popArray()": "29462",
				"pushArray(uint256)": "46798"
			}
		},
		"methodIdentifiers": {
			"getArrayByIndex(uint256)": "671a967b",
			"popArray()": "ae713d2a",
			"pushArray(uint256)": "16cdf825"
		}
	},
	"abi": [
		{
			"inputs": [
				{
					"internalType": "uint256",
					"name": "_n",
					"type": "uint256"
				}
			],
			"name": "getArrayByIndex",
			"outputs": [
				{
					"internalType": "uint256",
					"name": "result",
					"type": "uint256"
				}
			],
			"stateMutability": "view",
			"type": "function"
		},
		{
			"inputs": [],
			"name": "popArray",
			"outputs": [],
			"stateMutability": "nonpayable",
			"type": "function"
		},
		{
			"inputs": [
				{
					"internalType": "uint256",
					"name": "_n",
					"type": "uint256"
				}
			],
			"name": "pushArray",
			"outputs": [],
			"stateMutability": "nonpayable",
			"type": "function"
		}
	]
}