{
	"data": {
		"bytecode": {
			"linkReferences": {},
			"object": "6080604052348015600e575f80fd5b5061032e8061001c5f395ff3fe608060405234801561000f575f80fd5b5060043610610029575f3560e01c8063a9ba21851461002d575b5f80fd5b610047600480360381019061004291906101dc565b61005d565b604051610054919061026a565b60405180910390f35b5f82826040516020016100719291906102d5565b60405160208183030381529060405280519060200120905092915050565b5f604051905090565b5f80fd5b5f80fd5b5f80fd5b5f80fd5b5f601f19601f8301169050919050565b7f4e487b71000000000000000000000000000000000000000000000000000000005f52604160045260245ffd5b6100ee826100a8565b810181811067ffffffffffffffff8211171561010d5761010c6100b8565b5b80604052505050565b5f61011f61008f565b905061012b82826100e5565b919050565b5f67ffffffffffffffff82111561014a576101496100b8565b5b610153826100a8565b9050602081019050919050565b828183375f83830152505050565b5f61018061017b84610130565b610116565b90508281526020810184848401111561019c5761019b6100a4565b5b6101a7848285610160565b509392505050565b5f82601f8301126101c3576101c26100a0565b5b81356101d384826020860161016e565b91505092915050565b5f80604083850312156101f2576101f1610098565b5b5f83013567ffffffffffffffff81111561020f5761020e61009c565b5b61021b858286016101af565b925050602083013567ffffffffffffffff81111561023c5761023b61009c565b5b610248858286016101af565b9150509250929050565b5f819050919050565b61026481610252565b82525050565b5f60208201905061027d5f83018461025b565b92915050565b5f81519050919050565b5f81905092915050565b8281835e5f83830152505050565b5f6102af82610283565b6102b9818561028d565b93506102c9818560208601610297565b80840191505092915050565b5f6102e082856102a5565b91506102ec82846102a5565b9150819050939250505056fea264697066735822122074c869e6199c58d5e928666e9471b1e6d70ec56c6a77d67f93e25aaac0130cf764736f6c634300081a0033",
			"opcodes": "PUSH1 0x80 PUSH1 0x40 MSTORE CALLVALUE DUP1 ISZERO PUSH1 0xE JUMPI PUSH0 DUP1 REVERT JUMPDEST POP PUSH2 0x32E DUP1 PUSH2 0x1C PUSH0 CODECOPY PUSH0 RETURN INVALID PUSH1 0x80 PUSH1 0x40 MSTORE CALLVALUE DUP1 ISZERO PUSH2 0xF JUMPI PUSH0 DUP1 REVERT JUMPDEST POP PUSH1 0x4 CALLDATASIZE LT PUSH2 0x29 JUMPI PUSH0 CALLDATALOAD PUSH1 0xE0 SHR DUP1 PUSH4 0xA9BA2185 EQ PUSH2 0x2D JUMPI JUMPDEST PUSH0 DUP1 REVERT JUMPDEST PUSH2 0x47 PUSH1 0x4 DUP1 CALLDATASIZE SUB DUP2 ADD SWAP1 PUSH2 0x42 SWAP2 SWAP1 PUSH2 0x1DC JUMP JUMPDEST PUSH2 0x5D JUMP JUMPDEST PUSH1 0x40 MLOAD PUSH2 0x54 SWAP2 SWAP1 PUSH2 0x26A JUMP JUMPDEST PUSH1 0x40 MLOAD DUP1 SWAP2 SUB SWAP1 RETURN JUMPDEST PUSH0 DUP3 DUP3 PUSH1 0x40 MLOAD PUSH1 0x20 ADD PUSH2 0x71 SWAP3 SWAP2 SWAP1 PUSH2 0x2D5 JUMP JUMPDEST PUSH1 0x40 MLOAD PUSH1 0x20 DUP2 DUP4 SUB SUB DUP2 MSTORE SWAP1 PUSH1 0x40 MSTORE DUP1 MLOAD SWAP1 PUSH1 0x20 ADD KECCAK256 SWAP1 POP SWAP3 SWAP2 POP POP JUMP JUMPDEST PUSH0 PUSH1 0x40 MLOAD SWAP1 POP SWAP1 JUMP JUMPDEST PUSH0 DUP1 REVERT JUMPDEST PUSH0 DUP1 REVERT JUMPDEST PUSH0 DUP1 REVERT JUMPDEST PUSH0 DUP1 REVERT JUMPDEST PUSH0 PUSH1 0x1F NOT PUSH1 0x1F DUP4 ADD AND SWAP1 POP SWAP2 SWAP1 POP JUMP JUMPDEST PUSH32 0x4E487B7100000000000000000000000000000000000000000000000000000000 PUSH0 MSTORE PUSH1 0x41 PUSH1 0x4 MSTORE PUSH1 0x24 PUSH0 REVERT JUMPDEST PUSH2 0xEE DUP3 PUSH2 0xA8 JUMP JUMPDEST DUP2 ADD DUP2 DUP2 LT PUSH8 0xFFFFFFFFFFFFFFFF DUP3 GT OR ISZERO PUSH2 0x10D JUMPI PUSH2 0x10C PUSH2 0xB8 JUMP JUMPDEST JUMPDEST DUP1 PUSH1 0x40 MSTORE POP POP POP JUMP JUMPDEST PUSH0 PUSH2 0x11F PUSH2 0x8F JUMP JUMPDEST SWAP1 POP PUSH2 0x12B DUP3 DUP3 PUSH2 0xE5 JUMP JUMPDEST SWAP2 SWAP1 POP JUMP JUMPDEST PUSH0 PUSH8 0xFFFFFFFFFFFFFFFF DUP3 GT ISZERO PUSH2 0x14A JUMPI PUSH2 0x149 PUSH2 0xB8 JUMP JUMPDEST JUMPDEST PUSH2 0x153 DUP3 PUSH2 0xA8 JUMP JUMPDEST SWAP1 POP PUSH1 0x20 DUP2 ADD SWAP1 POP SWAP2 SWAP1 POP JUMP JUMPDEST DUP3 DUP2 DUP4 CALLDATACOPY PUSH0 DUP4 DUP4 ADD MSTORE POP POP POP JUMP JUMPDEST PUSH0 PUSH2 0x180 PUSH2 0x17B DUP5 PUSH2 0x130 JUMP JUMPDEST PUSH2 0x116 JUMP JUMPDEST SWAP1 POP DUP3 DUP2 MSTORE PUSH1 0x20 DUP2 ADD DUP5 DUP5 DUP5 ADD GT ISZERO PUSH2 0x19C JUMPI PUSH2 0x19B PUSH2 0xA4 JUMP JUMPDEST JUMPDEST PUSH2 0x1A7 DUP5 DUP3 DUP6 PUSH2 0x160 JUMP JUMPDEST POP SWAP4 SWAP3 POP POP POP JUMP JUMPDEST PUSH0 DUP3 PUSH1 0x1F DUP4 ADD SLT PUSH2 0x1C3 JUMPI PUSH2 0x1C2 PUSH2 0xA0 JUMP JUMPDEST JUMPDEST DUP2 CALLDATALOAD PUSH2 0x1D3 DUP5 DUP3 PUSH1 0x20 DUP7 ADD PUSH2 0x16E JUMP JUMPDEST SWAP2 POP POP SWAP3 SWAP2 POP POP JUMP JUMPDEST PUSH0 DUP1 PUSH1 0x40 DUP4 DUP6 SUB SLT ISZERO PUSH2 0x1F2 JUMPI PUSH2 0x1F1 PUSH2 0x98 JUMP JUMPDEST JUMPDEST PUSH0 DUP4 ADD CALLDATALOAD PUSH8 0xFFFFFFFFFFFFFFFF DUP2 GT ISZERO PUSH2 0x20F JUMPI PUSH2 0x20E PUSH2 0x9C JUMP JUMPDEST JUMPDEST PUSH2 0x21B DUP6 DUP3 DUP7 ADD PUSH2 0x1AF JUMP JUMPDEST SWAP3 POP POP PUSH1 0x20 DUP4 ADD CALLDATALOAD PUSH8 0xFFFFFFFFFFFFFFFF DUP2 GT ISZERO PUSH2 0x23C JUMPI PUSH2 0x23B PUSH2 0x9C JUMP JUMPDEST JUMPDEST PUSH2 0x248 DUP6 DUP3 DUP7 ADD PUSH2 0x1AF JUMP JUMPDEST SWAP2 POP POP SWAP3 POP SWAP3 SWAP1 POP JUMP JUMPDEST PUSH0 DUP2 SWAP1 POP SWAP2 SWAP1 POP JUMP JUMPDEST PUSH2 0x264 DUP2 PUSH2 0x252 JUMP JUMPDEST DUP3 MSTORE POP POP JUMP JUMPDEST PUSH0 PUSH1 0x20 DUP3 ADD SWAP1 POP PUSH2 0x27D PUSH0 DUP4 ADD DUP5 PUSH2 0x25B JUMP JUMPDEST SWAP3 SWAP2 POP POP JUMP JUMPDEST PUSH0 DUP2 MLOAD SWAP1 POP SWAP2 SWAP1 POP JUMP JUMPDEST PUSH0 DUP2 SWAP1 POP SWAP3 SWAP2 POP POP JUMP JUMPDEST DUP3 DUP2 DUP4 MCOPY PUSH0 DUP4 DUP4 ADD MSTORE POP POP POP JUMP JUMPDEST PUSH0 PUSH2 0x2AF DUP3 PUSH2 0x283 JUMP JUMPDEST PUSH2 0x2B9 DUP2 DUP6 PUSH2 0x28D JUMP JUMPDEST SWAP4 POP PUSH2 0x2C9 DUP2 DUP6 PUSH1 0x20 DUP7 ADD PUSH2 0x297 JUMP JUMPDEST DUP1 DUP5 ADD SWAP2 POP POP SWAP3 SWAP2 POP POP JUMP JUMPDEST PUSH0 PUSH2 0x2E0 DUP3 DUP6 PUSH2 0x2A5 JUMP JUMPDEST SWAP2 POP PUSH2 0x2EC DUP3 DUP5 PUSH2 0x2A5 JUMP JUMPDEST SWAP2 POP DUP2 SWAP1 POP SWAP4 SWAP3 POP POP POP JUMP INVALID LOG2 PUSH5 0x6970667358 0x22 SLT KECCAK256 PUSH21 0xC869E6199C58D5E928666E9471B1E6D70EC56C6A77 0xD6 PUSH32 0x93E25AAAC0130CF764736F6C634300081A003300000000000000000000000000 "
		},
		"gasEstimates": {
			"creation": {
				"codeDepositCost": "162800",
				"executionCost": "206",
				"totalCost": "163006"
			},
			"external": {
				"userHash(string,string)": "infinite"
			}
		},
		"methodIdentifiers": {
			"userHash(string,string)": "a9ba2185"
		}
	},
	"abi": [
		{
			"inputs": [
				{
					"internalType": "string",
					"name": "_id",
					"type": "string"
				},
				{
					"internalType": "string",
					"name": "_pw",
					"type": "string"
				}
			],
			"name": "userHash",
			"outputs": [
				{
					"internalType": "bytes32",
					"name": "",
					"type": "bytes32"
				}
			],
			"stateMutability": "pure",
			"type": "function"
		}
	]
}