{
	"data": {
		"bytecode": {
			"linkReferences": {},
			"object": "6080604052348015600e575f80fd5b506106ee8061001c5f395ff3fe608060405234801561000f575f80fd5b506004361061004a575f3560e01c806316cdf8251461004e57806338d941931461006a578063b6287f311461009a578063d504ea1d146100ca575b5f80fd5b61006860048036038101906100639190610337565b6100e8565b005b610084600480360381019061007f9190610337565b610167565b6040516100919190610371565b60405180910390f35b6100b460048036038101906100af91906104da565b610186565b6040516100c191906105d8565b60405180910390f35b6100d261029e565b6040516100df91906105d8565b60405180910390f35b5f81908060018154018082558091505060019003905f5260205f20015f90919091909150556101635f80548060200260200160405190810160405280929190818152602001828054801561015957602002820191905f5260205f20905b815481526020019060010190808311610145575b5050505050610186565b5050565b5f8181548110610175575f80fd5b905f5260205f20015f915090505481565b6060600182511115610296575f5b600183516101a29190610625565b811015610294575f6001826101b79190610658565b90505b8351811015610286578381815181106101d6576101d561068b565b5b60200260200101518483815181106101f1576101f061068b565b5b60200260200101511015610279575f8483815181106102135761021261068b565b5b602002602001015190508482815181106102305761022f61068b565b5b602002602001015185848151811061024b5761024a61068b565b5b6020026020010181815250508085838151811061026b5761026a61068b565b5b602002602001018181525050505b80806001019150506101ba565b508080600101915050610194565b505b819050919050565b60605f8054806020026020016040519081016040528092919081815260200182805480156102e957602002820191905f5260205f20905b8154815260200190600101908083116102d5575b5050505050905090565b5f604051905090565b5f80fd5b5f80fd5b5f819050919050565b61031681610304565b8114610320575f80fd5b50565b5f813590506103318161030d565b92915050565b5f6020828403121561034c5761034b6102fc565b5b5f61035984828501610323565b91505092915050565b61036b81610304565b82525050565b5f6020820190506103845f830184610362565b92915050565b5f80fd5b5f601f19601f8301169050919050565b7f4e487b71000000000000000000000000000000000000000000000000000000005f52604160045260245ffd5b6103d48261038e565b810181811067ffffffffffffffff821117156103f3576103f261039e565b5b80604052505050565b5f6104056102f3565b905061041182826103cb565b919050565b5f67ffffffffffffffff8211156104305761042f61039e565b5b602082029050602081019050919050565b5f80fd5b5f61045761045284610416565b6103fc565b9050808382526020820190506020840283018581111561047a57610479610441565b5b835b818110156104a3578061048f8882610323565b84526020840193505060208101905061047c565b5050509392505050565b5f82601f8301126104c1576104c061038a565b5b81356104d1848260208601610445565b91505092915050565b5f602082840312156104ef576104ee6102fc565b5b5f82013567ffffffffffffffff81111561050c5761050b610300565b5b610518848285016104ad565b91505092915050565b5f81519050919050565b5f82825260208201905092915050565b5f819050602082019050919050565b61055381610304565b82525050565b5f610564838361054a565b60208301905092915050565b5f602082019050919050565b5f61058682610521565b610590818561052b565b935061059b8361053b565b805f5b838110156105cb5781516105b28882610559565b97506105bd83610570565b92505060018101905061059e565b5085935050505092915050565b5f6020820190508181035f8301526105f0818461057c565b905092915050565b7f4e487b71000000000000000000000000000000000000000000000000000000005f52601160045260245ffd5b5f61062f82610304565b915061063a83610304565b9250828203905081811115610652576106516105f8565b5b92915050565b5f61066282610304565b915061066d83610304565b9250828201905080821115610685576106846105f8565b5b92915050565b7f4e487b71000000000000000000000000000000000000000000000000000000005f52603260045260245ffdfea2646970667358221220e0f402d0bdc7acbeb73a4192d56df847984ed698a11c8db635ce09ae954fb70364736f6c634300081a0033",
			"opcodes": "PUSH1 0x80 PUSH1 0x40 MSTORE CALLVALUE DUP1 ISZERO PUSH1 0xE JUMPI PUSH0 DUP1 REVERT JUMPDEST POP PUSH2 0x6EE DUP1 PUSH2 0x1C PUSH0 CODECOPY PUSH0 RETURN INVALID PUSH1 0x80 PUSH1 0x40 MSTORE CALLVALUE DUP1 ISZERO PUSH2 0xF JUMPI PUSH0 DUP1 REVERT JUMPDEST POP PUSH1 0x4 CALLDATASIZE LT PUSH2 0x4A JUMPI PUSH0 CALLDATALOAD PUSH1 0xE0 SHR DUP1 PUSH4 0x16CDF825 EQ PUSH2 0x4E JUMPI DUP1 PUSH4 0x38D94193 EQ PUSH2 0x6A JUMPI DUP1 PUSH4 0xB6287F31 EQ PUSH2 0x9A JUMPI DUP1 PUSH4 0xD504EA1D EQ PUSH2 0xCA JUMPI JUMPDEST PUSH0 DUP1 REVERT JUMPDEST PUSH2 0x68 PUSH1 0x4 DUP1 CALLDATASIZE SUB DUP2 ADD SWAP1 PUSH2 0x63 SWAP2 SWAP1 PUSH2 0x337 JUMP JUMPDEST PUSH2 0xE8 JUMP JUMPDEST STOP JUMPDEST PUSH2 0x84 PUSH1 0x4 DUP1 CALLDATASIZE SUB DUP2 ADD SWAP1 PUSH2 0x7F SWAP2 SWAP1 PUSH2 0x337 JUMP JUMPDEST PUSH2 0x167 JUMP JUMPDEST PUSH1 0x40 MLOAD PUSH2 0x91 SWAP2 SWAP1 PUSH2 0x371 JUMP JUMPDEST PUSH1 0x40 MLOAD DUP1 SWAP2 SUB SWAP1 RETURN JUMPDEST PUSH2 0xB4 PUSH1 0x4 DUP1 CALLDATASIZE SUB DUP2 ADD SWAP1 PUSH2 0xAF SWAP2 SWAP1 PUSH2 0x4DA JUMP JUMPDEST PUSH2 0x186 JUMP JUMPDEST PUSH1 0x40 MLOAD PUSH2 0xC1 SWAP2 SWAP1 PUSH2 0x5D8 JUMP JUMPDEST PUSH1 0x40 MLOAD DUP1 SWAP2 SUB SWAP1 RETURN JUMPDEST PUSH2 0xD2 PUSH2 0x29E JUMP JUMPDEST PUSH1 0x40 MLOAD PUSH2 0xDF SWAP2 SWAP1 PUSH2 0x5D8 JUMP JUMPDEST PUSH1 0x40 MLOAD DUP1 SWAP2 SUB SWAP1 RETURN JUMPDEST PUSH0 DUP2 SWAP1 DUP1 PUSH1 0x1 DUP2 SLOAD ADD DUP1 DUP3 SSTORE DUP1 SWAP2 POP POP PUSH1 0x1 SWAP1 SUB SWAP1 PUSH0 MSTORE PUSH1 0x20 PUSH0 KECCAK256 ADD PUSH0 SWAP1 SWAP2 SWAP1 SWAP2 SWAP1 SWAP2 POP SSTORE PUSH2 0x163 PUSH0 DUP1 SLOAD DUP1 PUSH1 0x20 MUL PUSH1 0x20 ADD PUSH1 0x40 MLOAD SWAP1 DUP2 ADD PUSH1 0x40 MSTORE DUP1 SWAP3 SWAP2 SWAP1 DUP2 DUP2 MSTORE PUSH1 0x20 ADD DUP3 DUP1 SLOAD DUP1 ISZERO PUSH2 0x159 JUMPI PUSH1 0x20 MUL DUP3 ADD SWAP2 SWAP1 PUSH0 MSTORE PUSH1 0x20 PUSH0 KECCAK256 SWAP1 JUMPDEST DUP2 SLOAD DUP2 MSTORE PUSH1 0x20 ADD SWAP1 PUSH1 0x1 ADD SWAP1 DUP1 DUP4 GT PUSH2 0x145 JUMPI JUMPDEST POP POP POP POP POP PUSH2 0x186 JUMP JUMPDEST POP POP JUMP JUMPDEST PUSH0 DUP2 DUP2 SLOAD DUP2 LT PUSH2 0x175 JUMPI PUSH0 DUP1 REVERT JUMPDEST SWAP1 PUSH0 MSTORE PUSH1 0x20 PUSH0 KECCAK256 ADD PUSH0 SWAP2 POP SWAP1 POP SLOAD DUP2 JUMP JUMPDEST PUSH1 0x60 PUSH1 0x1 DUP3 MLOAD GT ISZERO PUSH2 0x296 JUMPI PUSH0 JUMPDEST PUSH1 0x1 DUP4 MLOAD PUSH2 0x1A2 SWAP2 SWAP1 PUSH2 0x625 JUMP JUMPDEST DUP2 LT ISZERO PUSH2 0x294 JUMPI PUSH0 PUSH1 0x1 DUP3 PUSH2 0x1B7 SWAP2 SWAP1 PUSH2 0x658 JUMP JUMPDEST SWAP1 POP JUMPDEST DUP4 MLOAD DUP2 LT ISZERO PUSH2 0x286 JUMPI DUP4 DUP2 DUP2 MLOAD DUP2 LT PUSH2 0x1D6 JUMPI PUSH2 0x1D5 PUSH2 0x68B JUMP JUMPDEST JUMPDEST PUSH1 0x20 MUL PUSH1 0x20 ADD ADD MLOAD DUP5 DUP4 DUP2 MLOAD DUP2 LT PUSH2 0x1F1 JUMPI PUSH2 0x1F0 PUSH2 0x68B JUMP JUMPDEST JUMPDEST PUSH1 0x20 MUL PUSH1 0x20 ADD ADD MLOAD LT ISZERO PUSH2 0x279 JUMPI PUSH0 DUP5 DUP4 DUP2 MLOAD DUP2 LT PUSH2 0x213 JUMPI PUSH2 0x212 PUSH2 0x68B JUMP JUMPDEST JUMPDEST PUSH1 0x20 MUL PUSH1 0x20 ADD ADD MLOAD SWAP1 POP DUP5 DUP3 DUP2 MLOAD DUP2 LT PUSH2 0x230 JUMPI PUSH2 0x22F PUSH2 0x68B JUMP JUMPDEST JUMPDEST PUSH1 0x20 MUL PUSH1 0x20 ADD ADD MLOAD DUP6 DUP5 DUP2 MLOAD DUP2 LT PUSH2 0x24B JUMPI PUSH2 0x24A PUSH2 0x68B JUMP JUMPDEST JUMPDEST PUSH1 0x20 MUL PUSH1 0x20 ADD ADD DUP2 DUP2 MSTORE POP POP DUP1 DUP6 DUP4 DUP2 MLOAD DUP2 LT PUSH2 0x26B JUMPI PUSH2 0x26A PUSH2 0x68B JUMP JUMPDEST JUMPDEST PUSH1 0x20 MUL PUSH1 0x20 ADD ADD DUP2 DUP2 MSTORE POP POP POP JUMPDEST DUP1 DUP1 PUSH1 0x1 ADD SWAP2 POP POP PUSH2 0x1BA JUMP JUMPDEST POP DUP1 DUP1 PUSH1 0x1 ADD SWAP2 POP POP PUSH2 0x194 JUMP JUMPDEST POP JUMPDEST DUP2 SWAP1 POP SWAP2 SWAP1 POP JUMP JUMPDEST PUSH1 0x60 PUSH0 DUP1 SLOAD DUP1 PUSH1 0x20 MUL PUSH1 0x20 ADD PUSH1 0x40 MLOAD SWAP1 DUP2 ADD PUSH1 0x40 MSTORE DUP1 SWAP3 SWAP2 SWAP1 DUP2 DUP2 MSTORE PUSH1 0x20 ADD DUP3 DUP1 SLOAD DUP1 ISZERO PUSH2 0x2E9 JUMPI PUSH1 0x20 MUL DUP3 ADD SWAP2 SWAP1 PUSH0 MSTORE PUSH1 0x20 PUSH0 KECCAK256 SWAP1 JUMPDEST DUP2 SLOAD DUP2 MSTORE PUSH1 0x20 ADD SWAP1 PUSH1 0x1 ADD SWAP1 DUP1 DUP4 GT PUSH2 0x2D5 JUMPI JUMPDEST POP POP POP POP POP SWAP1 POP SWAP1 JUMP JUMPDEST PUSH0 PUSH1 0x40 MLOAD SWAP1 POP SWAP1 JUMP JUMPDEST PUSH0 DUP1 REVERT JUMPDEST PUSH0 DUP1 REVERT JUMPDEST PUSH0 DUP2 SWAP1 POP SWAP2 SWAP1 POP JUMP JUMPDEST PUSH2 0x316 DUP2 PUSH2 0x304 JUMP JUMPDEST DUP2 EQ PUSH2 0x320 JUMPI PUSH0 DUP1 REVERT JUMPDEST POP JUMP JUMPDEST PUSH0 DUP2 CALLDATALOAD SWAP1 POP PUSH2 0x331 DUP2 PUSH2 0x30D JUMP JUMPDEST SWAP3 SWAP2 POP POP JUMP JUMPDEST PUSH0 PUSH1 0x20 DUP3 DUP5 SUB SLT ISZERO PUSH2 0x34C JUMPI PUSH2 0x34B PUSH2 0x2FC JUMP JUMPDEST JUMPDEST PUSH0 PUSH2 0x359 DUP5 DUP3 DUP6 ADD PUSH2 0x323 JUMP JUMPDEST SWAP2 POP POP SWAP3 SWAP2 POP POP JUMP JUMPDEST PUSH2 0x36B DUP2 PUSH2 0x304 JUMP JUMPDEST DUP3 MSTORE POP POP JUMP JUMPDEST PUSH0 PUSH1 0x20 DUP3 ADD SWAP1 POP PUSH2 0x384 PUSH0 DUP4 ADD DUP5 PUSH2 0x362 JUMP JUMPDEST SWAP3 SWAP2 POP POP JUMP JUMPDEST PUSH0 DUP1 REVERT JUMPDEST PUSH0 PUSH1 0x1F NOT PUSH1 0x1F DUP4 ADD AND SWAP1 POP SWAP2 SWAP1 POP JUMP JUMPDEST PUSH32 0x4E487B7100000000000000000000000000000000000000000000000000000000 PUSH0 MSTORE PUSH1 0x41 PUSH1 0x4 MSTORE PUSH1 0x24 PUSH0 REVERT JUMPDEST PUSH2 0x3D4 DUP3 PUSH2 0x38E JUMP JUMPDEST DUP2 ADD DUP2 DUP2 LT PUSH8 0xFFFFFFFFFFFFFFFF DUP3 GT OR ISZERO PUSH2 0x3F3 JUMPI PUSH2 0x3F2 PUSH2 0x39E JUMP JUMPDEST JUMPDEST DUP1 PUSH1 0x40 MSTORE POP POP POP JUMP JUMPDEST PUSH0 PUSH2 0x405 PUSH2 0x2F3 JUMP JUMPDEST SWAP1 POP PUSH2 0x411 DUP3 DUP3 PUSH2 0x3CB JUMP JUMPDEST SWAP2 SWAP1 POP JUMP JUMPDEST PUSH0 PUSH8 0xFFFFFFFFFFFFFFFF DUP3 GT ISZERO PUSH2 0x430 JUMPI PUSH2 0x42F PUSH2 0x39E JUMP JUMPDEST JUMPDEST PUSH1 0x20 DUP3 MUL SWAP1 POP PUSH1 0x20 DUP2 ADD SWAP1 POP SWAP2 SWAP1 POP JUMP JUMPDEST PUSH0 DUP1 REVERT JUMPDEST PUSH0 PUSH2 0x457 PUSH2 0x452 DUP5 PUSH2 0x416 JUMP JUMPDEST PUSH2 0x3FC JUMP JUMPDEST SWAP1 POP DUP1 DUP4 DUP3 MSTORE PUSH1 0x20 DUP3 ADD SWAP1 POP PUSH1 0x20 DUP5 MUL DUP4 ADD DUP6 DUP2 GT ISZERO PUSH2 0x47A JUMPI PUSH2 0x479 PUSH2 0x441 JUMP JUMPDEST JUMPDEST DUP4 JUMPDEST DUP2 DUP2 LT ISZERO PUSH2 0x4A3 JUMPI DUP1 PUSH2 0x48F DUP9 DUP3 PUSH2 0x323 JUMP JUMPDEST DUP5 MSTORE PUSH1 0x20 DUP5 ADD SWAP4 POP POP PUSH1 0x20 DUP2 ADD SWAP1 POP PUSH2 0x47C JUMP JUMPDEST POP POP POP SWAP4 SWAP3 POP POP POP JUMP JUMPDEST PUSH0 DUP3 PUSH1 0x1F DUP4 ADD SLT PUSH2 0x4C1 JUMPI PUSH2 0x4C0 PUSH2 0x38A JUMP JUMPDEST JUMPDEST DUP2 CALLDATALOAD PUSH2 0x4D1 DUP5 DUP3 PUSH1 0x20 DUP7 ADD PUSH2 0x445 JUMP JUMPDEST SWAP2 POP POP SWAP3 SWAP2 POP POP JUMP JUMPDEST PUSH0 PUSH1 0x20 DUP3 DUP5 SUB SLT ISZERO PUSH2 0x4EF JUMPI PUSH2 0x4EE PUSH2 0x2FC JUMP JUMPDEST JUMPDEST PUSH0 DUP3 ADD CALLDATALOAD PUSH8 0xFFFFFFFFFFFFFFFF DUP2 GT ISZERO PUSH2 0x50C JUMPI PUSH2 0x50B PUSH2 0x300 JUMP JUMPDEST JUMPDEST PUSH2 0x518 DUP5 DUP3 DUP6 ADD PUSH2 0x4AD JUMP JUMPDEST SWAP2 POP POP SWAP3 SWAP2 POP POP JUMP JUMPDEST PUSH0 DUP2 MLOAD SWAP1 POP SWAP2 SWAP1 POP JUMP JUMPDEST PUSH0 DUP3 DUP3 MSTORE PUSH1 0x20 DUP3 ADD SWAP1 POP SWAP3 SWAP2 POP POP JUMP JUMPDEST PUSH0 DUP2 SWAP1 POP PUSH1 0x20 DUP3 ADD SWAP1 POP SWAP2 SWAP1 POP JUMP JUMPDEST PUSH2 0x553 DUP2 PUSH2 0x304 JUMP JUMPDEST DUP3 MSTORE POP POP JUMP JUMPDEST PUSH0 PUSH2 0x564 DUP4 DUP4 PUSH2 0x54A JUMP JUMPDEST PUSH1 0x20 DUP4 ADD SWAP1 POP SWAP3 SWAP2 POP POP JUMP JUMPDEST PUSH0 PUSH1 0x20 DUP3 ADD SWAP1 POP SWAP2 SWAP1 POP JUMP JUMPDEST PUSH0 PUSH2 0x586 DUP3 PUSH2 0x521 JUMP JUMPDEST PUSH2 0x590 DUP2 DUP6 PUSH2 0x52B JUMP JUMPDEST SWAP4 POP PUSH2 0x59B DUP4 PUSH2 0x53B JUMP JUMPDEST DUP1 PUSH0 JUMPDEST DUP4 DUP2 LT ISZERO PUSH2 0x5CB JUMPI DUP2 MLOAD PUSH2 0x5B2 DUP9 DUP3 PUSH2 0x559 JUMP JUMPDEST SWAP8 POP PUSH2 0x5BD DUP4 PUSH2 0x570 JUMP JUMPDEST SWAP3 POP POP PUSH1 0x1 DUP2 ADD SWAP1 POP PUSH2 0x59E JUMP JUMPDEST POP DUP6 SWAP4 POP POP POP POP SWAP3 SWAP2 POP POP JUMP JUMPDEST PUSH0 PUSH1 0x20 DUP3 ADD SWAP1 POP DUP2 DUP2 SUB PUSH0 DUP4 ADD MSTORE PUSH2 0x5F0 DUP2 DUP5 PUSH2 0x57C JUMP JUMPDEST SWAP1 POP SWAP3 SWAP2 POP POP JUMP JUMPDEST PUSH32 0x4E487B7100000000000000000000000000000000000000000000000000000000 PUSH0 MSTORE PUSH1 0x11 PUSH1 0x4 MSTORE PUSH1 0x24 PUSH0 REVERT JUMPDEST PUSH0 PUSH2 0x62F DUP3 PUSH2 0x304 JUMP JUMPDEST SWAP2 POP PUSH2 0x63A DUP4 PUSH2 0x304 JUMP JUMPDEST SWAP3 POP DUP3 DUP3 SUB SWAP1 POP DUP2 DUP2 GT ISZERO PUSH2 0x652 JUMPI PUSH2 0x651 PUSH2 0x5F8 JUMP JUMPDEST JUMPDEST SWAP3 SWAP2 POP POP JUMP JUMPDEST PUSH0 PUSH2 0x662 DUP3 PUSH2 0x304 JUMP JUMPDEST SWAP2 POP PUSH2 0x66D DUP4 PUSH2 0x304 JUMP JUMPDEST SWAP3 POP DUP3 DUP3 ADD SWAP1 POP DUP1 DUP3 GT ISZERO PUSH2 0x685 JUMPI PUSH2 0x684 PUSH2 0x5F8 JUMP JUMPDEST JUMPDEST SWAP3 SWAP2 POP POP JUMP JUMPDEST PUSH32 0x4E487B7100000000000000000000000000000000000000000000000000000000 PUSH0 MSTORE PUSH1 0x32 PUSH1 0x4 MSTORE PUSH1 0x24 PUSH0 REVERT INVALID LOG2 PUSH5 0x6970667358 0x22 SLT KECCAK256 0xE0 DELEGATECALL MUL 0xD0 0xBD 0xC7 0xAC 0xBE 0xB7 GASPRICE COINBASE SWAP3 0xD5 PUSH14 0xF847984ED698A11C8DB635CE09AE SWAP6 0x4F 0xB7 SUB PUSH5 0x736F6C6343 STOP ADDMOD BYTE STOP CALLER "
		},
		"gasEstimates": {
			"creation": {
				"codeDepositCost": "354800",
				"executionCost": "391",
				"totalCost": "355191"
			},
			"external": {
				"array(uint256)": "infinite",
				"getArray()": "infinite",
				"pushArray(uint256)": "infinite",
				"sortingArray(uint256[])": "infinite"
			}
		},
		"methodIdentifiers": {
			"array(uint256)": "38d94193",
			"getArray()": "d504ea1d",
			"pushArray(uint256)": "16cdf825",
			"sortingArray(uint256[])": "b6287f31"
		}
	},
	"abi": [
		{
			"inputs": [
				{
					"internalType": "uint256",
					"name": "",
					"type": "uint256"
				}
			],
			"name": "array",
			"outputs": [
				{
					"internalType": "uint256",
					"name": "",
					"type": "uint256"
				}
			],
			"stateMutability": "view",
			"type": "function"
		},
		{
			"inputs": [],
			"name": "getArray",
			"outputs": [
				{
					"internalType": "uint256[]",
					"name": "",
					"type": "uint256[]"
				}
			],
			"stateMutability": "view",
			"type": "function"
		},
		{
			"inputs": [
				{
					"internalType": "uint256",
					"name": "_n",
					"type": "uint256"
				}
			],
			"name": "pushArray",
			"outputs": [],
			"stateMutability": "nonpayable",
			"type": "function"
		},
		{
			"inputs": [
				{
					"internalType": "uint256[]",
					"name": "_array",
					"type": "uint256[]"
				}
			],
			"name": "sortingArray",
			"outputs": [
				{
					"internalType": "uint256[]",
					"name": "",
					"type": "uint256[]"
				}
			],
			"stateMutability": "pure",
			"type": "function"
		}
	]
}