{
	"data": {
		"bytecode": {
			"linkReferences": {},
			"object": "6080604052348015600e575f80fd5b5061077c8061001c5f395ff3fe608060405234801561000f575f80fd5b5060043610610034575f3560e01c8063281e4186146100385780638b3c8a6514610054575b5f80fd5b610052600480360381019061004d91906102f0565b610084565b005b61006e6004803603810190610069919061036a565b6100fe565b60405161007b91906103f5565b60405180910390f35b8060038151116100c9576040517f08c379a00000000000000000000000000000000000000000000000000000000081526004016100c09061045f565b60405180910390fd5b5f82908060018154018082558091505060019003905f5260205f20015f9091909190915090816100f99190610677565b505050565b5f818154811061010c575f80fd5b905f5260205f20015f915090508054610124906104aa565b80601f0160208091040260200160405190810160405280929190818152602001828054610150906104aa565b801561019b5780601f106101725761010080835404028352916020019161019b565b820191905f5260205f20905b81548152906001019060200180831161017e57829003601f168201915b505050505081565b5f604051905090565b5f80fd5b5f80fd5b5f80fd5b5f80fd5b5f601f19601f8301169050919050565b7f4e487b71000000000000000000000000000000000000000000000000000000005f52604160045260245ffd5b610202826101bc565b810181811067ffffffffffffffff82111715610221576102206101cc565b5b80604052505050565b5f6102336101a3565b905061023f82826101f9565b919050565b5f67ffffffffffffffff82111561025e5761025d6101cc565b5b610267826101bc565b9050602081019050919050565b828183375f83830152505050565b5f61029461028f84610244565b61022a565b9050828152602081018484840111156102b0576102af6101b8565b5b6102bb848285610274565b509392505050565b5f82601f8301126102d7576102d66101b4565b5b81356102e7848260208601610282565b91505092915050565b5f60208284031215610305576103046101ac565b5b5f82013567ffffffffffffffff811115610322576103216101b0565b5b61032e848285016102c3565b91505092915050565b5f819050919050565b61034981610337565b8114610353575f80fd5b50565b5f8135905061036481610340565b92915050565b5f6020828403121561037f5761037e6101ac565b5b5f61038c84828501610356565b91505092915050565b5f81519050919050565b5f82825260208201905092915050565b8281835e5f83830152505050565b5f6103c782610395565b6103d1818561039f565b93506103e18185602086016103af565b6103ea816101bc565b840191505092915050565b5f6020820190508181035f83015261040d81846103bd565b905092915050565b7f43616e2774207075736820756e6465722034206c656e67746820737472696e675f82015250565b5f61044960208361039f565b915061045482610415565b602082019050919050565b5f6020820190508181035f8301526104768161043d565b9050919050565b7f4e487b71000000000000000000000000000000000000000000000000000000005f52602260045260245ffd5b5f60028204905060018216806104c157607f821691505b6020821081036104d4576104d361047d565b5b50919050565b5f819050815f5260205f209050919050565b5f6020601f8301049050919050565b5f82821b905092915050565b5f600883026105367fffffffffffffffffffffffffffffffffffffffffffffffffffffffffffffffff826104fb565b61054086836104fb565b95508019841693508086168417925050509392505050565b5f819050919050565b5f61057b61057661057184610337565b610558565b610337565b9050919050565b5f819050919050565b61059483610561565b6105a86105a082610582565b848454610507565b825550505050565b5f90565b6105bc6105b0565b6105c781848461058b565b505050565b5b818110156105ea576105df5f826105b4565b6001810190506105cd565b5050565b601f82111561062f57610600816104da565b610609846104ec565b81016020851015610618578190505b61062c610624856104ec565b8301826105cc565b50505b505050565b5f82821c905092915050565b5f61064f5f1984600802610634565b1980831691505092915050565b5f6106678383610640565b9150826002028217905092915050565b61068082610395565b67ffffffffffffffff811115610699576106986101cc565b5b6106a382546104aa565b6106ae8282856105ee565b5f60209050601f8311600181146106df575f84156106cd578287015190505b6106d7858261065c565b86555061073e565b601f1984166106ed866104da565b5f5b82811015610714578489015182556001820191506020850194506020810190506106ef565b86831015610731578489015161072d601f891682610640565b8355505b6001600288020188555050505b50505050505056fea264697066735822122008478fb38a3c5d4556cf30f68d59e159513036fa154bbd9a2f305c94bbc4906764736f6c634300081a0033",
			"opcodes": "PUSH1 0x80 PUSH1 0x40 MSTORE CALLVALUE DUP1 ISZERO PUSH1 0xE JUMPI PUSH0 DUP1 REVERT JUMPDEST POP PUSH2 0x77C DUP1 PUSH2 0x1C PUSH0 CODECOPY PUSH0 RETURN INVALID PUSH1 0x80 PUSH1 0x40 MSTORE CALLVALUE DUP1 ISZERO PUSH2 0xF JUMPI PUSH0 DUP1 REVERT JUMPDEST POP PUSH1 0x4 CALLDATASIZE LT PUSH2 0x34 JUMPI PUSH0 CALLDATALOAD PUSH1 0xE0 SHR DUP1 PUSH4 0x281E4186 EQ PUSH2 0x38 JUMPI DUP1 PUSH4 0x8B3C8A65 EQ PUSH2 0x54 JUMPI JUMPDEST PUSH0 DUP1 REVERT JUMPDEST PUSH2 0x52 PUSH1 0x4 DUP1 CALLDATASIZE SUB DUP2 ADD SWAP1 PUSH2 0x4D SWAP2 SWAP1 PUSH2 0x2F0 JUMP JUMPDEST PUSH2 0x84 JUMP JUMPDEST STOP JUMPDEST PUSH2 0x6E PUSH1 0x4 DUP1 CALLDATASIZE SUB DUP2 ADD SWAP1 PUSH2 0x69 SWAP2 SWAP1 PUSH2 0x36A JUMP JUMPDEST PUSH2 0xFE JUMP JUMPDEST PUSH1 0x40 MLOAD PUSH2 0x7B SWAP2 SWAP1 PUSH2 0x3F5 JUMP JUMPDEST PUSH1 0x40 MLOAD DUP1 SWAP2 SUB SWAP1 RETURN JUMPDEST DUP1 PUSH1 0x3 DUP2 MLOAD GT PUSH2 0xC9 JUMPI PUSH1 0x40 MLOAD PUSH32 0x8C379A000000000000000000000000000000000000000000000000000000000 DUP2 MSTORE PUSH1 0x4 ADD PUSH2 0xC0 SWAP1 PUSH2 0x45F JUMP JUMPDEST PUSH1 0x40 MLOAD DUP1 SWAP2 SUB SWAP1 REVERT JUMPDEST PUSH0 DUP3 SWAP1 DUP1 PUSH1 0x1 DUP2 SLOAD ADD DUP1 DUP3 SSTORE DUP1 SWAP2 POP POP PUSH1 0x1 SWAP1 SUB SWAP1 PUSH0 MSTORE PUSH1 0x20 PUSH0 KECCAK256 ADD PUSH0 SWAP1 SWAP2 SWAP1 SWAP2 SWAP1 SWAP2 POP SWAP1 DUP2 PUSH2 0xF9 SWAP2 SWAP1 PUSH2 0x677 JUMP JUMPDEST POP POP POP JUMP JUMPDEST PUSH0 DUP2 DUP2 SLOAD DUP2 LT PUSH2 0x10C JUMPI PUSH0 DUP1 REVERT JUMPDEST SWAP1 PUSH0 MSTORE PUSH1 0x20 PUSH0 KECCAK256 ADD PUSH0 SWAP2 POP SWAP1 POP DUP1 SLOAD PUSH2 0x124 SWAP1 PUSH2 0x4AA JUMP JUMPDEST DUP1 PUSH1 0x1F ADD PUSH1 0x20 DUP1 SWAP2 DIV MUL PUSH1 0x20 ADD PUSH1 0x40 MLOAD SWAP1 DUP2 ADD PUSH1 0x40 MSTORE DUP1 SWAP3 SWAP2 SWAP1 DUP2 DUP2 MSTORE PUSH1 0x20 ADD DUP3 DUP1 SLOAD PUSH2 0x150 SWAP1 PUSH2 0x4AA JUMP JUMPDEST DUP1 ISZERO PUSH2 0x19B JUMPI DUP1 PUSH1 0x1F LT PUSH2 0x172 JUMPI PUSH2 0x100 DUP1 DUP4 SLOAD DIV MUL DUP4 MSTORE SWAP2 PUSH1 0x20 ADD SWAP2 PUSH2 0x19B JUMP JUMPDEST DUP3 ADD SWAP2 SWAP1 PUSH0 MSTORE PUSH1 0x20 PUSH0 KECCAK256 SWAP1 JUMPDEST DUP2 SLOAD DUP2 MSTORE SWAP1 PUSH1 0x1 ADD SWAP1 PUSH1 0x20 ADD DUP1 DUP4 GT PUSH2 0x17E JUMPI DUP3 SWAP1 SUB PUSH1 0x1F AND DUP3 ADD SWAP2 JUMPDEST POP POP POP POP POP DUP2 JUMP JUMPDEST PUSH0 PUSH1 0x40 MLOAD SWAP1 POP SWAP1 JUMP JUMPDEST PUSH0 DUP1 REVERT JUMPDEST PUSH0 DUP1 REVERT JUMPDEST PUSH0 DUP1 REVERT JUMPDEST PUSH0 DUP1 REVERT JUMPDEST PUSH0 PUSH1 0x1F NOT PUSH1 0x1F DUP4 ADD AND SWAP1 POP SWAP2 SWAP1 POP JUMP JUMPDEST PUSH32 0x4E487B7100000000000000000000000000000000000000000000000000000000 PUSH0 MSTORE PUSH1 0x41 PUSH1 0x4 MSTORE PUSH1 0x24 PUSH0 REVERT JUMPDEST PUSH2 0x202 DUP3 PUSH2 0x1BC JUMP JUMPDEST DUP2 ADD DUP2 DUP2 LT PUSH8 0xFFFFFFFFFFFFFFFF DUP3 GT OR ISZERO PUSH2 0x221 JUMPI PUSH2 0x220 PUSH2 0x1CC JUMP JUMPDEST JUMPDEST DUP1 PUSH1 0x40 MSTORE POP POP POP JUMP JUMPDEST PUSH0 PUSH2 0x233 PUSH2 0x1A3 JUMP JUMPDEST SWAP1 POP PUSH2 0x23F DUP3 DUP3 PUSH2 0x1F9 JUMP JUMPDEST SWAP2 SWAP1 POP JUMP JUMPDEST PUSH0 PUSH8 0xFFFFFFFFFFFFFFFF DUP3 GT ISZERO PUSH2 0x25E JUMPI PUSH2 0x25D PUSH2 0x1CC JUMP JUMPDEST JUMPDEST PUSH2 0x267 DUP3 PUSH2 0x1BC JUMP JUMPDEST SWAP1 POP PUSH1 0x20 DUP2 ADD SWAP1 POP SWAP2 SWAP1 POP JUMP JUMPDEST DUP3 DUP2 DUP4 CALLDATACOPY PUSH0 DUP4 DUP4 ADD MSTORE POP POP POP JUMP JUMPDEST PUSH0 PUSH2 0x294 PUSH2 0x28F DUP5 PUSH2 0x244 JUMP JUMPDEST PUSH2 0x22A JUMP JUMPDEST SWAP1 POP DUP3 DUP2 MSTORE PUSH1 0x20 DUP2 ADD DUP5 DUP5 DUP5 ADD GT ISZERO PUSH2 0x2B0 JUMPI PUSH2 0x2AF PUSH2 0x1B8 JUMP JUMPDEST JUMPDEST PUSH2 0x2BB DUP5 DUP3 DUP6 PUSH2 0x274 JUMP JUMPDEST POP SWAP4 SWAP3 POP POP POP JUMP JUMPDEST PUSH0 DUP3 PUSH1 0x1F DUP4 ADD SLT PUSH2 0x2D7 JUMPI PUSH2 0x2D6 PUSH2 0x1B4 JUMP JUMPDEST JUMPDEST DUP2 CALLDATALOAD PUSH2 0x2E7 DUP5 DUP3 PUSH1 0x20 DUP7 ADD PUSH2 0x282 JUMP JUMPDEST SWAP2 POP POP SWAP3 SWAP2 POP POP JUMP JUMPDEST PUSH0 PUSH1 0x20 DUP3 DUP5 SUB SLT ISZERO PUSH2 0x305 JUMPI PUSH2 0x304 PUSH2 0x1AC JUMP JUMPDEST JUMPDEST PUSH0 DUP3 ADD CALLDATALOAD PUSH8 0xFFFFFFFFFFFFFFFF DUP2 GT ISZERO PUSH2 0x322 JUMPI PUSH2 0x321 PUSH2 0x1B0 JUMP JUMPDEST JUMPDEST PUSH2 0x32E DUP5 DUP3 DUP6 ADD PUSH2 0x2C3 JUMP JUMPDEST SWAP2 POP POP SWAP3 SWAP2 POP POP JUMP JUMPDEST PUSH0 DUP2 SWAP1 POP SWAP2 SWAP1 POP JUMP JUMPDEST PUSH2 0x349 DUP2 PUSH2 0x337 JUMP JUMPDEST DUP2 EQ PUSH2 0x353 JUMPI PUSH0 DUP1 REVERT JUMPDEST POP JUMP JUMPDEST PUSH0 DUP2 CALLDATALOAD SWAP1 POP PUSH2 0x364 DUP2 PUSH2 0x340 JUMP JUMPDEST SWAP3 SWAP2 POP POP JUMP JUMPDEST PUSH0 PUSH1 0x20 DUP3 DUP5 SUB SLT ISZERO PUSH2 0x37F JUMPI PUSH2 0x37E PUSH2 0x1AC JUMP JUMPDEST JUMPDEST PUSH0 PUSH2 0x38C DUP5 DUP3 DUP6 ADD PUSH2 0x356 JUMP JUMPDEST SWAP2 POP POP SWAP3 SWAP2 POP POP JUMP JUMPDEST PUSH0 DUP2 MLOAD SWAP1 POP SWAP2 SWAP1 POP JUMP JUMPDEST PUSH0 DUP3 DUP3 MSTORE PUSH1 0x20 DUP3 ADD SWAP1 POP SWAP3 SWAP2 POP POP JUMP JUMPDEST DUP3 DUP2 DUP4 MCOPY PUSH0 DUP4 DUP4 ADD MSTORE POP POP POP JUMP JUMPDEST PUSH0 PUSH2 0x3C7 DUP3 PUSH2 0x395 JUMP JUMPDEST PUSH2 0x3D1 DUP2 DUP6 PUSH2 0x39F JUMP JUMPDEST SWAP4 POP PUSH2 0x3E1 DUP2 DUP6 PUSH1 0x20 DUP7 ADD PUSH2 0x3AF JUMP JUMPDEST PUSH2 0x3EA DUP2 PUSH2 0x1BC JUMP JUMPDEST DUP5 ADD SWAP2 POP POP SWAP3 SWAP2 POP POP JUMP JUMPDEST PUSH0 PUSH1 0x20 DUP3 ADD SWAP1 POP DUP2 DUP2 SUB PUSH0 DUP4 ADD MSTORE PUSH2 0x40D DUP2 DUP5 PUSH2 0x3BD JUMP JUMPDEST SWAP1 POP SWAP3 SWAP2 POP POP JUMP JUMPDEST PUSH32 0x43616E2774207075736820756E6465722034206C656E67746820737472696E67 PUSH0 DUP3 ADD MSTORE POP JUMP JUMPDEST PUSH0 PUSH2 0x449 PUSH1 0x20 DUP4 PUSH2 0x39F JUMP JUMPDEST SWAP2 POP PUSH2 0x454 DUP3 PUSH2 0x415 JUMP JUMPDEST PUSH1 0x20 DUP3 ADD SWAP1 POP SWAP2 SWAP1 POP JUMP JUMPDEST PUSH0 PUSH1 0x20 DUP3 ADD SWAP1 POP DUP2 DUP2 SUB PUSH0 DUP4 ADD MSTORE PUSH2 0x476 DUP2 PUSH2 0x43D JUMP JUMPDEST SWAP1 POP SWAP2 SWAP1 POP JUMP JUMPDEST PUSH32 0x4E487B7100000000000000000000000000000000000000000000000000000000 PUSH0 MSTORE PUSH1 0x22 PUSH1 0x4 MSTORE PUSH1 0x24 PUSH0 REVERT JUMPDEST PUSH0 PUSH1 0x2 DUP3 DIV SWAP1 POP PUSH1 0x1 DUP3 AND DUP1 PUSH2 0x4C1 JUMPI PUSH1 0x7F DUP3 AND SWAP2 POP JUMPDEST PUSH1 0x20 DUP3 LT DUP2 SUB PUSH2 0x4D4 JUMPI PUSH2 0x4D3 PUSH2 0x47D JUMP JUMPDEST JUMPDEST POP SWAP2 SWAP1 POP JUMP JUMPDEST PUSH0 DUP2 SWAP1 POP DUP2 PUSH0 MSTORE PUSH1 0x20 PUSH0 KECCAK256 SWAP1 POP SWAP2 SWAP1 POP JUMP JUMPDEST PUSH0 PUSH1 0x20 PUSH1 0x1F DUP4 ADD DIV SWAP1 POP SWAP2 SWAP1 POP JUMP JUMPDEST PUSH0 DUP3 DUP3 SHL SWAP1 POP SWAP3 SWAP2 POP POP JUMP JUMPDEST PUSH0 PUSH1 0x8 DUP4 MUL PUSH2 0x536 PUSH32 0xFFFFFFFFFFFFFFFFFFFFFFFFFFFFFFFFFFFFFFFFFFFFFFFFFFFFFFFFFFFFFFFF DUP3 PUSH2 0x4FB JUMP JUMPDEST PUSH2 0x540 DUP7 DUP4 PUSH2 0x4FB JUMP JUMPDEST SWAP6 POP DUP1 NOT DUP5 AND SWAP4 POP DUP1 DUP7 AND DUP5 OR SWAP3 POP POP POP SWAP4 SWAP3 POP POP POP JUMP JUMPDEST PUSH0 DUP2 SWAP1 POP SWAP2 SWAP1 POP JUMP JUMPDEST PUSH0 PUSH2 0x57B PUSH2 0x576 PUSH2 0x571 DUP5 PUSH2 0x337 JUMP JUMPDEST PUSH2 0x558 JUMP JUMPDEST PUSH2 0x337 JUMP JUMPDEST SWAP1 POP SWAP2 SWAP1 POP JUMP JUMPDEST PUSH0 DUP2 SWAP1 POP SWAP2 SWAP1 POP JUMP JUMPDEST PUSH2 0x594 DUP4 PUSH2 0x561 JUMP JUMPDEST PUSH2 0x5A8 PUSH2 0x5A0 DUP3 PUSH2 0x582 JUMP JUMPDEST DUP5 DUP5 SLOAD PUSH2 0x507 JUMP JUMPDEST DUP3 SSTORE POP POP POP POP JUMP JUMPDEST PUSH0 SWAP1 JUMP JUMPDEST PUSH2 0x5BC PUSH2 0x5B0 JUMP JUMPDEST PUSH2 0x5C7 DUP2 DUP5 DUP5 PUSH2 0x58B JUMP JUMPDEST POP POP POP JUMP JUMPDEST JUMPDEST DUP2 DUP2 LT ISZERO PUSH2 0x5EA JUMPI PUSH2 0x5DF PUSH0 DUP3 PUSH2 0x5B4 JUMP JUMPDEST PUSH1 0x1 DUP2 ADD SWAP1 POP PUSH2 0x5CD JUMP JUMPDEST POP POP JUMP JUMPDEST PUSH1 0x1F DUP3 GT ISZERO PUSH2 0x62F JUMPI PUSH2 0x600 DUP2 PUSH2 0x4DA JUMP JUMPDEST PUSH2 0x609 DUP5 PUSH2 0x4EC JUMP JUMPDEST DUP2 ADD PUSH1 0x20 DUP6 LT ISZERO PUSH2 0x618 JUMPI DUP2 SWAP1 POP JUMPDEST PUSH2 0x62C PUSH2 0x624 DUP6 PUSH2 0x4EC JUMP JUMPDEST DUP4 ADD DUP3 PUSH2 0x5CC JUMP JUMPDEST POP POP JUMPDEST POP POP POP JUMP JUMPDEST PUSH0 DUP3 DUP3 SHR SWAP1 POP SWAP3 SWAP2 POP POP JUMP JUMPDEST PUSH0 PUSH2 0x64F PUSH0 NOT DUP5 PUSH1 0x8 MUL PUSH2 0x634 JUMP JUMPDEST NOT DUP1 DUP4 AND SWAP2 POP POP SWAP3 SWAP2 POP POP JUMP JUMPDEST PUSH0 PUSH2 0x667 DUP4 DUP4 PUSH2 0x640 JUMP JUMPDEST SWAP2 POP DUP3 PUSH1 0x2 MUL DUP3 OR SWAP1 POP SWAP3 SWAP2 POP POP JUMP JUMPDEST PUSH2 0x680 DUP3 PUSH2 0x395 JUMP JUMPDEST PUSH8 0xFFFFFFFFFFFFFFFF DUP2 GT ISZERO PUSH2 0x699 JUMPI PUSH2 0x698 PUSH2 0x1CC JUMP JUMPDEST JUMPDEST PUSH2 0x6A3 DUP3 SLOAD PUSH2 0x4AA JUMP JUMPDEST PUSH2 0x6AE DUP3 DUP3 DUP6 PUSH2 0x5EE JUMP JUMPDEST PUSH0 PUSH1 0x20 SWAP1 POP PUSH1 0x1F DUP4 GT PUSH1 0x1 DUP2 EQ PUSH2 0x6DF JUMPI PUSH0 DUP5 ISZERO PUSH2 0x6CD JUMPI DUP3 DUP8 ADD MLOAD SWAP1 POP JUMPDEST PUSH2 0x6D7 DUP6 DUP3 PUSH2 0x65C JUMP JUMPDEST DUP7 SSTORE POP PUSH2 0x73E JUMP JUMPDEST PUSH1 0x1F NOT DUP5 AND PUSH2 0x6ED DUP7 PUSH2 0x4DA JUMP JUMPDEST PUSH0 JUMPDEST DUP3 DUP2 LT ISZERO PUSH2 0x714 JUMPI DUP5 DUP10 ADD MLOAD DUP3 SSTORE PUSH1 0x1 DUP3 ADD SWAP2 POP PUSH1 0x20 DUP6 ADD SWAP5 POP PUSH1 0x20 DUP2 ADD SWAP1 POP PUSH2 0x6EF JUMP JUMPDEST DUP7 DUP4 LT ISZERO PUSH2 0x731 JUMPI DUP5 DUP10 ADD MLOAD PUSH2 0x72D PUSH1 0x1F DUP10 AND DUP3 PUSH2 0x640 JUMP JUMPDEST DUP4 SSTORE POP JUMPDEST PUSH1 0x1 PUSH1 0x2 DUP9 MUL ADD DUP9 SSTORE POP POP POP JUMPDEST POP POP POP POP POP POP JUMP INVALID LOG2 PUSH5 0x6970667358 0x22 SLT KECCAK256 ADDMOD SELFBALANCE DUP16 0xB3 DUP11 EXTCODECOPY TSTORE GASLIMIT JUMP 0xCF ADDRESS 0xF6 DUP14 MSIZE 0xE1 MSIZE MLOAD ADDRESS CALLDATASIZE STATICCALL ISZERO 0x4B 0xBD SWAP11 0x2F ADDRESS TLOAD SWAP5 0xBB 0xC4 SWAP1 PUSH8 0x64736F6C63430008 BYTE STOP CALLER "
		},
		"gasEstimates": {
			"creation": {
				"codeDepositCost": "383200",
				"executionCost": "416",
				"totalCost": "383616"
			},
			"external": {
				"strings(uint256)": "infinite",
				"stringsPush(string)": "infinite"
			}
		},
		"methodIdentifiers": {
			"strings(uint256)": "8b3c8a65",
			"stringsPush(string)": "281e4186"
		}
	},
	"abi": [
		{
			"inputs": [
				{
					"internalType": "uint256",
					"name": "",
					"type": "uint256"
				}
			],
			"name": "strings",
			"outputs": [
				{
					"internalType": "string",
					"name": "",
					"type": "string"
				}
			],
			"stateMutability": "view",
			"type": "function"
		},
		{
			"inputs": [
				{
					"internalType": "string",
					"name": "_s",
					"type": "string"
				}
			],
			"name": "stringsPush",
			"outputs": [],
			"stateMutability": "nonpayable",
			"type": "function"
		}
	]
}