{
	"data": {
		"bytecode": {
			"linkReferences": {},
			"object": "6080604052348015600e575f80fd5b506104bb8061001c5f395ff3fe608060405234801561000f575f80fd5b5060043610610029575f3560e01c806352cb5f281461002d575b5f80fd5b6100476004803603810190610042919061014f565b61005d565b60405161005491906101ae565b60405180910390f35b5f80610068846100d1565b90505f610074846100d1565b90508381600a6100849190610323565b8661008f919061036d565b828461009b91906103ae565b600a6100a79190610323565b886100b2919061036d565b6100bc91906103ae565b6100c691906103ae565b925050509392505050565b5f805f90505b5f83146101005780806100e9906103e1565b915050600a836100f99190610455565b92506100d7565b5f811161010e576001610110565b805b915050919050565b5f80fd5b5f819050919050565b61012e8161011c565b8114610138575f80fd5b50565b5f8135905061014981610125565b92915050565b5f805f6060848603121561016657610165610118565b5b5f6101738682870161013b565b93505060206101848682870161013b565b92505060406101958682870161013b565b9150509250925092565b6101a88161011c565b82525050565b5f6020820190506101c15f83018461019f565b92915050565b7f4e487b71000000000000000000000000000000000000000000000000000000005f52601160045260245ffd5b5f8160011c9050919050565b5f808291508390505b600185111561024957808604811115610225576102246101c7565b5b60018516156102345780820291505b8081029050610242856101f4565b9450610209565b94509492505050565b5f82610261576001905061031c565b8161026e575f905061031c565b8160018114610284576002811461028e576102bd565b600191505061031c565b60ff8411156102a05761029f6101c7565b5b8360020a9150848211156102b7576102b66101c7565b5b5061031c565b5060208310610133831016604e8410600b84101617156102f25782820a9050838111156102ed576102ec6101c7565b5b61031c565b6102ff8484846001610200565b92509050818404811115610316576103156101c7565b5b81810290505b9392505050565b5f61032d8261011c565b91506103388361011c565b92506103657fffffffffffffffffffffffffffffffffffffffffffffffffffffffffffffffff8484610252565b905092915050565b5f6103778261011c565b91506103828361011c565b92508282026103908161011c565b915082820484148315176103a7576103a66101c7565b5b5092915050565b5f6103b88261011c565b91506103c38361011c565b92508282019050808211156103db576103da6101c7565b5b92915050565b5f6103eb8261011c565b91507fffffffffffffffffffffffffffffffffffffffffffffffffffffffffffffffff820361041d5761041c6101c7565b5b600182019050919050565b7f4e487b71000000000000000000000000000000000000000000000000000000005f52601260045260245ffd5b5f61045f8261011c565b915061046a8361011c565b92508261047a57610479610428565b5b82820490509291505056fea2646970667358221220e6ff54c4e3ef2ddef2381b29d47064f052696fcd43414530d2c345c9d4413d4e64736f6c634300081a0033",
			"opcodes": "PUSH1 0x80 PUSH1 0x40 MSTORE CALLVALUE DUP1 ISZERO PUSH1 0xE JUMPI PUSH0 DUP1 REVERT JUMPDEST POP PUSH2 0x4BB DUP1 PUSH2 0x1C PUSH0 CODECOPY PUSH0 RETURN INVALID PUSH1 0x80 PUSH1 0x40 MSTORE CALLVALUE DUP1 ISZERO PUSH2 0xF JUMPI PUSH0 DUP1 REVERT JUMPDEST POP PUSH1 0x4 CALLDATASIZE LT PUSH2 0x29 JUMPI PUSH0 CALLDATALOAD PUSH1 0xE0 SHR DUP1 PUSH4 0x52CB5F28 EQ PUSH2 0x2D JUMPI JUMPDEST PUSH0 DUP1 REVERT JUMPDEST PUSH2 0x47 PUSH1 0x4 DUP1 CALLDATASIZE SUB DUP2 ADD SWAP1 PUSH2 0x42 SWAP2 SWAP1 PUSH2 0x14F JUMP JUMPDEST PUSH2 0x5D JUMP JUMPDEST PUSH1 0x40 MLOAD PUSH2 0x54 SWAP2 SWAP1 PUSH2 0x1AE JUMP JUMPDEST PUSH1 0x40 MLOAD DUP1 SWAP2 SUB SWAP1 RETURN JUMPDEST PUSH0 DUP1 PUSH2 0x68 DUP5 PUSH2 0xD1 JUMP JUMPDEST SWAP1 POP PUSH0 PUSH2 0x74 DUP5 PUSH2 0xD1 JUMP JUMPDEST SWAP1 POP DUP4 DUP2 PUSH1 0xA PUSH2 0x84 SWAP2 SWAP1 PUSH2 0x323 JUMP JUMPDEST DUP7 PUSH2 0x8F SWAP2 SWAP1 PUSH2 0x36D JUMP JUMPDEST DUP3 DUP5 PUSH2 0x9B SWAP2 SWAP1 PUSH2 0x3AE JUMP JUMPDEST PUSH1 0xA PUSH2 0xA7 SWAP2 SWAP1 PUSH2 0x323 JUMP JUMPDEST DUP9 PUSH2 0xB2 SWAP2 SWAP1 PUSH2 0x36D JUMP JUMPDEST PUSH2 0xBC SWAP2 SWAP1 PUSH2 0x3AE JUMP JUMPDEST PUSH2 0xC6 SWAP2 SWAP1 PUSH2 0x3AE JUMP JUMPDEST SWAP3 POP POP POP SWAP4 SWAP3 POP POP POP JUMP JUMPDEST PUSH0 DUP1 PUSH0 SWAP1 POP JUMPDEST PUSH0 DUP4 EQ PUSH2 0x100 JUMPI DUP1 DUP1 PUSH2 0xE9 SWAP1 PUSH2 0x3E1 JUMP JUMPDEST SWAP2 POP POP PUSH1 0xA DUP4 PUSH2 0xF9 SWAP2 SWAP1 PUSH2 0x455 JUMP JUMPDEST SWAP3 POP PUSH2 0xD7 JUMP JUMPDEST PUSH0 DUP2 GT PUSH2 0x10E JUMPI PUSH1 0x1 PUSH2 0x110 JUMP JUMPDEST DUP1 JUMPDEST SWAP2 POP POP SWAP2 SWAP1 POP JUMP JUMPDEST PUSH0 DUP1 REVERT JUMPDEST PUSH0 DUP2 SWAP1 POP SWAP2 SWAP1 POP JUMP JUMPDEST PUSH2 0x12E DUP2 PUSH2 0x11C JUMP JUMPDEST DUP2 EQ PUSH2 0x138 JUMPI PUSH0 DUP1 REVERT JUMPDEST POP JUMP JUMPDEST PUSH0 DUP2 CALLDATALOAD SWAP1 POP PUSH2 0x149 DUP2 PUSH2 0x125 JUMP JUMPDEST SWAP3 SWAP2 POP POP JUMP JUMPDEST PUSH0 DUP1 PUSH0 PUSH1 0x60 DUP5 DUP7 SUB SLT ISZERO PUSH2 0x166 JUMPI PUSH2 0x165 PUSH2 0x118 JUMP JUMPDEST JUMPDEST PUSH0 PUSH2 0x173 DUP7 DUP3 DUP8 ADD PUSH2 0x13B JUMP JUMPDEST SWAP4 POP POP PUSH1 0x20 PUSH2 0x184 DUP7 DUP3 DUP8 ADD PUSH2 0x13B JUMP JUMPDEST SWAP3 POP POP PUSH1 0x40 PUSH2 0x195 DUP7 DUP3 DUP8 ADD PUSH2 0x13B JUMP JUMPDEST SWAP2 POP POP SWAP3 POP SWAP3 POP SWAP3 JUMP JUMPDEST PUSH2 0x1A8 DUP2 PUSH2 0x11C JUMP JUMPDEST DUP3 MSTORE POP POP JUMP JUMPDEST PUSH0 PUSH1 0x20 DUP3 ADD SWAP1 POP PUSH2 0x1C1 PUSH0 DUP4 ADD DUP5 PUSH2 0x19F JUMP JUMPDEST SWAP3 SWAP2 POP POP JUMP JUMPDEST PUSH32 0x4E487B7100000000000000000000000000000000000000000000000000000000 PUSH0 MSTORE PUSH1 0x11 PUSH1 0x4 MSTORE PUSH1 0x24 PUSH0 REVERT JUMPDEST PUSH0 DUP2 PUSH1 0x1 SHR SWAP1 POP SWAP2 SWAP1 POP JUMP JUMPDEST PUSH0 DUP1 DUP3 SWAP2 POP DUP4 SWAP1 POP JUMPDEST PUSH1 0x1 DUP6 GT ISZERO PUSH2 0x249 JUMPI DUP1 DUP7 DIV DUP2 GT ISZERO PUSH2 0x225 JUMPI PUSH2 0x224 PUSH2 0x1C7 JUMP JUMPDEST JUMPDEST PUSH1 0x1 DUP6 AND ISZERO PUSH2 0x234 JUMPI DUP1 DUP3 MUL SWAP2 POP JUMPDEST DUP1 DUP2 MUL SWAP1 POP PUSH2 0x242 DUP6 PUSH2 0x1F4 JUMP JUMPDEST SWAP5 POP PUSH2 0x209 JUMP JUMPDEST SWAP5 POP SWAP5 SWAP3 POP POP POP JUMP JUMPDEST PUSH0 DUP3 PUSH2 0x261 JUMPI PUSH1 0x1 SWAP1 POP PUSH2 0x31C JUMP JUMPDEST DUP2 PUSH2 0x26E JUMPI PUSH0 SWAP1 POP PUSH2 0x31C JUMP JUMPDEST DUP2 PUSH1 0x1 DUP2 EQ PUSH2 0x284 JUMPI PUSH1 0x2 DUP2 EQ PUSH2 0x28E JUMPI PUSH2 0x2BD JUMP JUMPDEST PUSH1 0x1 SWAP2 POP POP PUSH2 0x31C JUMP JUMPDEST PUSH1 0xFF DUP5 GT ISZERO PUSH2 0x2A0 JUMPI PUSH2 0x29F PUSH2 0x1C7 JUMP JUMPDEST JUMPDEST DUP4 PUSH1 0x2 EXP SWAP2 POP DUP5 DUP3 GT ISZERO PUSH2 0x2B7 JUMPI PUSH2 0x2B6 PUSH2 0x1C7 JUMP JUMPDEST JUMPDEST POP PUSH2 0x31C JUMP JUMPDEST POP PUSH1 0x20 DUP4 LT PUSH2 0x133 DUP4 LT AND PUSH1 0x4E DUP5 LT PUSH1 0xB DUP5 LT AND OR ISZERO PUSH2 0x2F2 JUMPI DUP3 DUP3 EXP SWAP1 POP DUP4 DUP2 GT ISZERO PUSH2 0x2ED JUMPI PUSH2 0x2EC PUSH2 0x1C7 JUMP JUMPDEST JUMPDEST PUSH2 0x31C JUMP JUMPDEST PUSH2 0x2FF DUP5 DUP5 DUP5 PUSH1 0x1 PUSH2 0x200 JUMP JUMPDEST SWAP3 POP SWAP1 POP DUP2 DUP5 DIV DUP2 GT ISZERO PUSH2 0x316 JUMPI PUSH2 0x315 PUSH2 0x1C7 JUMP JUMPDEST JUMPDEST DUP2 DUP2 MUL SWAP1 POP JUMPDEST SWAP4 SWAP3 POP POP POP JUMP JUMPDEST PUSH0 PUSH2 0x32D DUP3 PUSH2 0x11C JUMP JUMPDEST SWAP2 POP PUSH2 0x338 DUP4 PUSH2 0x11C JUMP JUMPDEST SWAP3 POP PUSH2 0x365 PUSH32 0xFFFFFFFFFFFFFFFFFFFFFFFFFFFFFFFFFFFFFFFFFFFFFFFFFFFFFFFFFFFFFFFF DUP5 DUP5 PUSH2 0x252 JUMP JUMPDEST SWAP1 POP SWAP3 SWAP2 POP POP JUMP JUMPDEST PUSH0 PUSH2 0x377 DUP3 PUSH2 0x11C JUMP JUMPDEST SWAP2 POP PUSH2 0x382 DUP4 PUSH2 0x11C JUMP JUMPDEST SWAP3 POP DUP3 DUP3 MUL PUSH2 0x390 DUP2 PUSH2 0x11C JUMP JUMPDEST SWAP2 POP DUP3 DUP3 DIV DUP5 EQ DUP4 ISZERO OR PUSH2 0x3A7 JUMPI PUSH2 0x3A6 PUSH2 0x1C7 JUMP JUMPDEST JUMPDEST POP SWAP3 SWAP2 POP POP JUMP JUMPDEST PUSH0 PUSH2 0x3B8 DUP3 PUSH2 0x11C JUMP JUMPDEST SWAP2 POP PUSH2 0x3C3 DUP4 PUSH2 0x11C JUMP JUMPDEST SWAP3 POP DUP3 DUP3 ADD SWAP1 POP DUP1 DUP3 GT ISZERO PUSH2 0x3DB JUMPI PUSH2 0x3DA PUSH2 0x1C7 JUMP JUMPDEST JUMPDEST SWAP3 SWAP2 POP POP JUMP JUMPDEST PUSH0 PUSH2 0x3EB DUP3 PUSH2 0x11C JUMP JUMPDEST SWAP2 POP PUSH32 0xFFFFFFFFFFFFFFFFFFFFFFFFFFFFFFFFFFFFFFFFFFFFFFFFFFFFFFFFFFFFFFFF DUP3 SUB PUSH2 0x41D JUMPI PUSH2 0x41C PUSH2 0x1C7 JUMP JUMPDEST JUMPDEST PUSH1 0x1 DUP3 ADD SWAP1 POP SWAP2 SWAP1 POP JUMP JUMPDEST PUSH32 0x4E487B7100000000000000000000000000000000000000000000000000000000 PUSH0 MSTORE PUSH1 0x12 PUSH1 0x4 MSTORE PUSH1 0x24 PUSH0 REVERT JUMPDEST PUSH0 PUSH2 0x45F DUP3 PUSH2 0x11C JUMP JUMPDEST SWAP2 POP PUSH2 0x46A DUP4 PUSH2 0x11C JUMP JUMPDEST SWAP3 POP DUP3 PUSH2 0x47A JUMPI PUSH2 0x479 PUSH2 0x428 JUMP JUMPDEST JUMPDEST DUP3 DUP3 DIV SWAP1 POP SWAP3 SWAP2 POP POP JUMP INVALID LOG2 PUSH5 0x6970667358 0x22 SLT KECCAK256 0xE6 SELFDESTRUCT SLOAD 0xC4 0xE3 0xEF 0x2D 0xDE CALLCODE CODESIZE SHL 0x29 0xD4 PUSH17 0x64F052696FCD43414530D2C345C9D4413D 0x4E PUSH5 0x736F6C6343 STOP ADDMOD BYTE STOP CALLER "
		},
		"gasEstimates": {
			"creation": {
				"codeDepositCost": "242200",
				"executionCost": "279",
				"totalCost": "242479"
			},
			"external": {
				"concatUint(uint256,uint256,uint256)": "infinite"
			},
			"internal": {
				"digitsCount(uint256)": "infinite"
			}
		},
		"methodIdentifiers": {
			"concatUint(uint256,uint256,uint256)": "52cb5f28"
		}
	},
	"abi": [
		{
			"inputs": [
				{
					"internalType": "uint256",
					"name": "_n1",
					"type": "uint256"
				},
				{
					"internalType": "uint256",
					"name": "_n2",
					"type": "uint256"
				},
				{
					"internalType": "uint256",
					"name": "_n3",
					"type": "uint256"
				}
			],
			"name": "concatUint",
			"outputs": [
				{
					"internalType": "uint256",
					"name": "",
					"type": "uint256"
				}
			],
			"stateMutability": "pure",
			"type": "function"
		}
	]
}