{
	"data": {
		"bytecode": {
			"linkReferences": {},
			"object": "6080604052348015600e575f80fd5b50610a308061001c5f395ff3fe608060405234801561000f575f80fd5b5060043610610034575f3560e01c80637c216809146100385780638bf709cf14610069575b5f80fd5b610052600480360381019061004d9190610618565b61009a565b6040516100609291906106d7565b60405180910390f35b610083600480360381019061007e919061072f565b6100b8565b604051610091929190610811565b60405180910390f35b5f60605f8390506100aa816100de565b508051819250925050915091565b5f60605f6100c5846102a3565b90506100d08161036f565b508051819250925050915091565b60605f825190505f5b81811015610299575f5b816001846100ff919061086c565b610109919061086c565b81101561028b578460018261011e919061089f565b8151811061012f5761012e6108d2565b5b602001015160f81c60f81b7effffffffffffffffffffffffffffffffffffffffffffffffffffffffffffff191685828151811061016f5761016e6108d2565b5b602001015160f81c60f81b7effffffffffffffffffffffffffffffffffffffffffffffffffffffffffffff1916111561027e575f8582815181106101b6576101b56108d2565b5b602001015160f81c60f81b9050856001836101d1919061089f565b815181106101e2576101e16108d2565b5b602001015160f81c60f81b868381518110610200576101ff6108d2565b5b60200101907effffffffffffffffffffffffffffffffffffffffffffffffffffffffffffff191690815f1a905350808660018461023d919061089f565b8151811061024e5761024d6108d2565b5b60200101907effffffffffffffffffffffffffffffffffffffffffffffffffffffffffffff191690815f1a905350505b80806001019150506100f1565b5080806001019150506100e7565b5082915050919050565b60605f6102af836104a0565b90505f8167ffffffffffffffff8111156102cc576102cb6104f4565b5b6040519080825280602002602001820160405280156102fa5781602001602082028036833780820191505090505b5090505f8290505b5f81111561036457600a85610317919061092c565b82600183610325919061086c565b81518110610336576103356108d2565b5b602002602001018181525050600a8561034f919061095c565b9450808061035c9061098c565b915050610302565b508092505050919050565b60605f825190505f5b81811015610496575f5b81600184610390919061086c565b61039a919061086c565b81101561048857846001826103af919061089f565b815181106103c0576103bf6108d2565b5b60200260200101518582815181106103db576103da6108d2565b5b6020026020010151111561047b575f8582815181106103fd576103fc6108d2565b5b6020026020010151905085600183610415919061089f565b81518110610426576104256108d2565b5b6020026020010151868381518110610441576104406108d2565b5b602002602001018181525050808660018461045c919061089f565b8151811061046d5761046c6108d2565b5b602002602001018181525050505b8080600101915050610382565b508080600101915050610378565b5082915050919050565b5f5b80806104ad906109b3565b915050600a826104bd919061095c565b91505f82116104a257919050565b5f604051905090565b5f80fd5b5f80fd5b5f80fd5b5f80fd5b5f601f19601f8301169050919050565b7f4e487b71000000000000000000000000000000000000000000000000000000005f52604160045260245ffd5b61052a826104e4565b810181811067ffffffffffffffff82111715610549576105486104f4565b5b80604052505050565b5f61055b6104cb565b90506105678282610521565b919050565b5f67ffffffffffffffff821115610586576105856104f4565b5b61058f826104e4565b9050602081019050919050565b828183375f83830152505050565b5f6105bc6105b78461056c565b610552565b9050828152602081018484840111156105d8576105d76104e0565b5b6105e384828561059c565b509392505050565b5f82601f8301126105ff576105fe6104dc565b5b813561060f8482602086016105aa565b91505092915050565b5f6020828403121561062d5761062c6104d4565b5b5f82013567ffffffffffffffff81111561064a576106496104d8565b5b610656848285016105eb565b91505092915050565b5f819050919050565b6106718161065f565b82525050565b5f81519050919050565b5f82825260208201905092915050565b8281835e5f83830152505050565b5f6106a982610677565b6106b38185610681565b93506106c3818560208601610691565b6106cc816104e4565b840191505092915050565b5f6040820190506106ea5f830185610668565b81810360208301526106fc818461069f565b90509392505050565b61070e8161065f565b8114610718575f80fd5b50565b5f8135905061072981610705565b92915050565b5f60208284031215610744576107436104d4565b5b5f6107518482850161071b565b91505092915050565b5f81519050919050565b5f82825260208201905092915050565b5f819050602082019050919050565b61078c8161065f565b82525050565b5f61079d8383610783565b60208301905092915050565b5f602082019050919050565b5f6107bf8261075a565b6107c98185610764565b93506107d483610774565b805f5b838110156108045781516107eb8882610792565b97506107f6836107a9565b9250506001810190506107d7565b5085935050505092915050565b5f6040820190506108245f830185610668565b818103602083015261083681846107b5565b90509392505050565b7f4e487b71000000000000000000000000000000000000000000000000000000005f52601160045260245ffd5b5f6108768261065f565b91506108818361065f565b92508282039050818111156108995761089861083f565b5b92915050565b5f6108a98261065f565b91506108b48361065f565b92508282019050808211156108cc576108cb61083f565b5b92915050565b7f4e487b71000000000000000000000000000000000000000000000000000000005f52603260045260245ffd5b7f4e487b71000000000000000000000000000000000000000000000000000000005f52601260045260245ffd5b5f6109368261065f565b91506109418361065f565b925082610951576109506108ff565b5b828206905092915050565b5f6109668261065f565b91506109718361065f565b925082610981576109806108ff565b5b828204905092915050565b5f6109968261065f565b91505f82036109a8576109a761083f565b5b600182039050919050565b5f6109bd8261065f565b91507fffffffffffffffffffffffffffffffffffffffffffffffffffffffffffffffff82036109ef576109ee61083f565b5b60018201905091905056fea264697066735822122088f4003ef003c67e50aeae8704e78f62364fc6e5ed519380ad9baddf2363e75764736f6c634300081a0033",
			"opcodes": "PUSH1 0x80 PUSH1 0x40 MSTORE CALLVALUE DUP1 ISZERO PUSH1 0xE JUMPI PUSH0 DUP1 REVERT JUMPDEST POP PUSH2 0xA30 DUP1 PUSH2 0x1C PUSH0 CODECOPY PUSH0 RETURN INVALID PUSH1 0x80 PUSH1 0x40 MSTORE CALLVALUE DUP1 ISZERO PUSH2 0xF JUMPI PUSH0 DUP1 REVERT JUMPDEST POP PUSH1 0x4 CALLDATASIZE LT PUSH2 0x34 JUMPI PUSH0 CALLDATALOAD PUSH1 0xE0 SHR DUP1 PUSH4 0x7C216809 EQ PUSH2 0x38 JUMPI DUP1 PUSH4 0x8BF709CF EQ PUSH2 0x69 JUMPI JUMPDEST PUSH0 DUP1 REVERT JUMPDEST PUSH2 0x52 PUSH1 0x4 DUP1 CALLDATASIZE SUB DUP2 ADD SWAP1 PUSH2 0x4D SWAP2 SWAP1 PUSH2 0x618 JUMP JUMPDEST PUSH2 0x9A JUMP JUMPDEST PUSH1 0x40 MLOAD PUSH2 0x60 SWAP3 SWAP2 SWAP1 PUSH2 0x6D7 JUMP JUMPDEST PUSH1 0x40 MLOAD DUP1 SWAP2 SUB SWAP1 RETURN JUMPDEST PUSH2 0x83 PUSH1 0x4 DUP1 CALLDATASIZE SUB DUP2 ADD SWAP1 PUSH2 0x7E SWAP2 SWAP1 PUSH2 0x72F JUMP JUMPDEST PUSH2 0xB8 JUMP JUMPDEST PUSH1 0x40 MLOAD PUSH2 0x91 SWAP3 SWAP2 SWAP1 PUSH2 0x811 JUMP JUMPDEST PUSH1 0x40 MLOAD DUP1 SWAP2 SUB SWAP1 RETURN JUMPDEST PUSH0 PUSH1 0x60 PUSH0 DUP4 SWAP1 POP PUSH2 0xAA DUP2 PUSH2 0xDE JUMP JUMPDEST POP DUP1 MLOAD DUP2 SWAP3 POP SWAP3 POP POP SWAP2 POP SWAP2 JUMP JUMPDEST PUSH0 PUSH1 0x60 PUSH0 PUSH2 0xC5 DUP5 PUSH2 0x2A3 JUMP JUMPDEST SWAP1 POP PUSH2 0xD0 DUP2 PUSH2 0x36F JUMP JUMPDEST POP DUP1 MLOAD DUP2 SWAP3 POP SWAP3 POP POP SWAP2 POP SWAP2 JUMP JUMPDEST PUSH1 0x60 PUSH0 DUP3 MLOAD SWAP1 POP PUSH0 JUMPDEST DUP2 DUP2 LT ISZERO PUSH2 0x299 JUMPI PUSH0 JUMPDEST DUP2 PUSH1 0x1 DUP5 PUSH2 0xFF SWAP2 SWAP1 PUSH2 0x86C JUMP JUMPDEST PUSH2 0x109 SWAP2 SWAP1 PUSH2 0x86C JUMP JUMPDEST DUP2 LT ISZERO PUSH2 0x28B JUMPI DUP5 PUSH1 0x1 DUP3 PUSH2 0x11E SWAP2 SWAP1 PUSH2 0x89F JUMP JUMPDEST DUP2 MLOAD DUP2 LT PUSH2 0x12F JUMPI PUSH2 0x12E PUSH2 0x8D2 JUMP JUMPDEST JUMPDEST PUSH1 0x20 ADD ADD MLOAD PUSH1 0xF8 SHR PUSH1 0xF8 SHL PUSH31 0xFFFFFFFFFFFFFFFFFFFFFFFFFFFFFFFFFFFFFFFFFFFFFFFFFFFFFFFFFFFFFF NOT AND DUP6 DUP3 DUP2 MLOAD DUP2 LT PUSH2 0x16F JUMPI PUSH2 0x16E PUSH2 0x8D2 JUMP JUMPDEST JUMPDEST PUSH1 0x20 ADD ADD MLOAD PUSH1 0xF8 SHR PUSH1 0xF8 SHL PUSH31 0xFFFFFFFFFFFFFFFFFFFFFFFFFFFFFFFFFFFFFFFFFFFFFFFFFFFFFFFFFFFFFF NOT AND GT ISZERO PUSH2 0x27E JUMPI PUSH0 DUP6 DUP3 DUP2 MLOAD DUP2 LT PUSH2 0x1B6 JUMPI PUSH2 0x1B5 PUSH2 0x8D2 JUMP JUMPDEST JUMPDEST PUSH1 0x20 ADD ADD MLOAD PUSH1 0xF8 SHR PUSH1 0xF8 SHL SWAP1 POP DUP6 PUSH1 0x1 DUP4 PUSH2 0x1D1 SWAP2 SWAP1 PUSH2 0x89F JUMP JUMPDEST DUP2 MLOAD DUP2 LT PUSH2 0x1E2 JUMPI PUSH2 0x1E1 PUSH2 0x8D2 JUMP JUMPDEST JUMPDEST PUSH1 0x20 ADD ADD MLOAD PUSH1 0xF8 SHR PUSH1 0xF8 SHL DUP7 DUP4 DUP2 MLOAD DUP2 LT PUSH2 0x200 JUMPI PUSH2 0x1FF PUSH2 0x8D2 JUMP JUMPDEST JUMPDEST PUSH1 0x20 ADD ADD SWAP1 PUSH31 0xFFFFFFFFFFFFFFFFFFFFFFFFFFFFFFFFFFFFFFFFFFFFFFFFFFFFFFFFFFFFFF NOT AND SWAP1 DUP2 PUSH0 BYTE SWAP1 MSTORE8 POP DUP1 DUP7 PUSH1 0x1 DUP5 PUSH2 0x23D SWAP2 SWAP1 PUSH2 0x89F JUMP JUMPDEST DUP2 MLOAD DUP2 LT PUSH2 0x24E JUMPI PUSH2 0x24D PUSH2 0x8D2 JUMP JUMPDEST JUMPDEST PUSH1 0x20 ADD ADD SWAP1 PUSH31 0xFFFFFFFFFFFFFFFFFFFFFFFFFFFFFFFFFFFFFFFFFFFFFFFFFFFFFFFFFFFFFF NOT AND SWAP1 DUP2 PUSH0 BYTE SWAP1 MSTORE8 POP POP JUMPDEST DUP1 DUP1 PUSH1 0x1 ADD SWAP2 POP POP PUSH2 0xF1 JUMP JUMPDEST POP DUP1 DUP1 PUSH1 0x1 ADD SWAP2 POP POP PUSH2 0xE7 JUMP JUMPDEST POP DUP3 SWAP2 POP POP SWAP2 SWAP1 POP JUMP JUMPDEST PUSH1 0x60 PUSH0 PUSH2 0x2AF DUP4 PUSH2 0x4A0 JUMP JUMPDEST SWAP1 POP PUSH0 DUP2 PUSH8 0xFFFFFFFFFFFFFFFF DUP2 GT ISZERO PUSH2 0x2CC JUMPI PUSH2 0x2CB PUSH2 0x4F4 JUMP JUMPDEST JUMPDEST PUSH1 0x40 MLOAD SWAP1 DUP1 DUP3 MSTORE DUP1 PUSH1 0x20 MUL PUSH1 0x20 ADD DUP3 ADD PUSH1 0x40 MSTORE DUP1 ISZERO PUSH2 0x2FA JUMPI DUP2 PUSH1 0x20 ADD PUSH1 0x20 DUP3 MUL DUP1 CALLDATASIZE DUP4 CALLDATACOPY DUP1 DUP3 ADD SWAP2 POP POP SWAP1 POP JUMPDEST POP SWAP1 POP PUSH0 DUP3 SWAP1 POP JUMPDEST PUSH0 DUP2 GT ISZERO PUSH2 0x364 JUMPI PUSH1 0xA DUP6 PUSH2 0x317 SWAP2 SWAP1 PUSH2 0x92C JUMP JUMPDEST DUP3 PUSH1 0x1 DUP4 PUSH2 0x325 SWAP2 SWAP1 PUSH2 0x86C JUMP JUMPDEST DUP2 MLOAD DUP2 LT PUSH2 0x336 JUMPI PUSH2 0x335 PUSH2 0x8D2 JUMP JUMPDEST JUMPDEST PUSH1 0x20 MUL PUSH1 0x20 ADD ADD DUP2 DUP2 MSTORE POP POP PUSH1 0xA DUP6 PUSH2 0x34F SWAP2 SWAP1 PUSH2 0x95C JUMP JUMPDEST SWAP5 POP DUP1 DUP1 PUSH2 0x35C SWAP1 PUSH2 0x98C JUMP JUMPDEST SWAP2 POP POP PUSH2 0x302 JUMP JUMPDEST POP DUP1 SWAP3 POP POP POP SWAP2 SWAP1 POP JUMP JUMPDEST PUSH1 0x60 PUSH0 DUP3 MLOAD SWAP1 POP PUSH0 JUMPDEST DUP2 DUP2 LT ISZERO PUSH2 0x496 JUMPI PUSH0 JUMPDEST DUP2 PUSH1 0x1 DUP5 PUSH2 0x390 SWAP2 SWAP1 PUSH2 0x86C JUMP JUMPDEST PUSH2 0x39A SWAP2 SWAP1 PUSH2 0x86C JUMP JUMPDEST DUP2 LT ISZERO PUSH2 0x488 JUMPI DUP5 PUSH1 0x1 DUP3 PUSH2 0x3AF SWAP2 SWAP1 PUSH2 0x89F JUMP JUMPDEST DUP2 MLOAD DUP2 LT PUSH2 0x3C0 JUMPI PUSH2 0x3BF PUSH2 0x8D2 JUMP JUMPDEST JUMPDEST PUSH1 0x20 MUL PUSH1 0x20 ADD ADD MLOAD DUP6 DUP3 DUP2 MLOAD DUP2 LT PUSH2 0x3DB JUMPI PUSH2 0x3DA PUSH2 0x8D2 JUMP JUMPDEST JUMPDEST PUSH1 0x20 MUL PUSH1 0x20 ADD ADD MLOAD GT ISZERO PUSH2 0x47B JUMPI PUSH0 DUP6 DUP3 DUP2 MLOAD DUP2 LT PUSH2 0x3FD JUMPI PUSH2 0x3FC PUSH2 0x8D2 JUMP JUMPDEST JUMPDEST PUSH1 0x20 MUL PUSH1 0x20 ADD ADD MLOAD SWAP1 POP DUP6 PUSH1 0x1 DUP4 PUSH2 0x415 SWAP2 SWAP1 PUSH2 0x89F JUMP JUMPDEST DUP2 MLOAD DUP2 LT PUSH2 0x426 JUMPI PUSH2 0x425 PUSH2 0x8D2 JUMP JUMPDEST JUMPDEST PUSH1 0x20 MUL PUSH1 0x20 ADD ADD MLOAD DUP7 DUP4 DUP2 MLOAD DUP2 LT PUSH2 0x441 JUMPI PUSH2 0x440 PUSH2 0x8D2 JUMP JUMPDEST JUMPDEST PUSH1 0x20 MUL PUSH1 0x20 ADD ADD DUP2 DUP2 MSTORE POP POP DUP1 DUP7 PUSH1 0x1 DUP5 PUSH2 0x45C SWAP2 SWAP1 PUSH2 0x89F JUMP JUMPDEST DUP2 MLOAD DUP2 LT PUSH2 0x46D JUMPI PUSH2 0x46C PUSH2 0x8D2 JUMP JUMPDEST JUMPDEST PUSH1 0x20 MUL PUSH1 0x20 ADD ADD DUP2 DUP2 MSTORE POP POP POP JUMPDEST DUP1 DUP1 PUSH1 0x1 ADD SWAP2 POP POP PUSH2 0x382 JUMP JUMPDEST POP DUP1 DUP1 PUSH1 0x1 ADD SWAP2 POP POP PUSH2 0x378 JUMP JUMPDEST POP DUP3 SWAP2 POP POP SWAP2 SWAP1 POP JUMP JUMPDEST PUSH0 JUMPDEST DUP1 DUP1 PUSH2 0x4AD SWAP1 PUSH2 0x9B3 JUMP JUMPDEST SWAP2 POP POP PUSH1 0xA DUP3 PUSH2 0x4BD SWAP2 SWAP1 PUSH2 0x95C JUMP JUMPDEST SWAP2 POP PUSH0 DUP3 GT PUSH2 0x4A2 JUMPI SWAP2 SWAP1 POP JUMP JUMPDEST PUSH0 PUSH1 0x40 MLOAD SWAP1 POP SWAP1 JUMP JUMPDEST PUSH0 DUP1 REVERT JUMPDEST PUSH0 DUP1 REVERT JUMPDEST PUSH0 DUP1 REVERT JUMPDEST PUSH0 DUP1 REVERT JUMPDEST PUSH0 PUSH1 0x1F NOT PUSH1 0x1F DUP4 ADD AND SWAP1 POP SWAP2 SWAP1 POP JUMP JUMPDEST PUSH32 0x4E487B7100000000000000000000000000000000000000000000000000000000 PUSH0 MSTORE PUSH1 0x41 PUSH1 0x4 MSTORE PUSH1 0x24 PUSH0 REVERT JUMPDEST PUSH2 0x52A DUP3 PUSH2 0x4E4 JUMP JUMPDEST DUP2 ADD DUP2 DUP2 LT PUSH8 0xFFFFFFFFFFFFFFFF DUP3 GT OR ISZERO PUSH2 0x549 JUMPI PUSH2 0x548 PUSH2 0x4F4 JUMP JUMPDEST JUMPDEST DUP1 PUSH1 0x40 MSTORE POP POP POP JUMP JUMPDEST PUSH0 PUSH2 0x55B PUSH2 0x4CB JUMP JUMPDEST SWAP1 POP PUSH2 0x567 DUP3 DUP3 PUSH2 0x521 JUMP JUMPDEST SWAP2 SWAP1 POP JUMP JUMPDEST PUSH0 PUSH8 0xFFFFFFFFFFFFFFFF DUP3 GT ISZERO PUSH2 0x586 JUMPI PUSH2 0x585 PUSH2 0x4F4 JUMP JUMPDEST JUMPDEST PUSH2 0x58F DUP3 PUSH2 0x4E4 JUMP JUMPDEST SWAP1 POP PUSH1 0x20 DUP2 ADD SWAP1 POP SWAP2 SWAP1 POP JUMP JUMPDEST DUP3 DUP2 DUP4 CALLDATACOPY PUSH0 DUP4 DUP4 ADD MSTORE POP POP POP JUMP JUMPDEST PUSH0 PUSH2 0x5BC PUSH2 0x5B7 DUP5 PUSH2 0x56C JUMP JUMPDEST PUSH2 0x552 JUMP JUMPDEST SWAP1 POP DUP3 DUP2 MSTORE PUSH1 0x20 DUP2 ADD DUP5 DUP5 DUP5 ADD GT ISZERO PUSH2 0x5D8 JUMPI PUSH2 0x5D7 PUSH2 0x4E0 JUMP JUMPDEST JUMPDEST PUSH2 0x5E3 DUP5 DUP3 DUP6 PUSH2 0x59C JUMP JUMPDEST POP SWAP4 SWAP3 POP POP POP JUMP JUMPDEST PUSH0 DUP3 PUSH1 0x1F DUP4 ADD SLT PUSH2 0x5FF JUMPI PUSH2 0x5FE PUSH2 0x4DC JUMP JUMPDEST JUMPDEST DUP2 CALLDATALOAD PUSH2 0x60F DUP5 DUP3 PUSH1 0x20 DUP7 ADD PUSH2 0x5AA JUMP JUMPDEST SWAP2 POP POP SWAP3 SWAP2 POP POP JUMP JUMPDEST PUSH0 PUSH1 0x20 DUP3 DUP5 SUB SLT ISZERO PUSH2 0x62D JUMPI PUSH2 0x62C PUSH2 0x4D4 JUMP JUMPDEST JUMPDEST PUSH0 DUP3 ADD CALLDATALOAD PUSH8 0xFFFFFFFFFFFFFFFF DUP2 GT ISZERO PUSH2 0x64A JUMPI PUSH2 0x649 PUSH2 0x4D8 JUMP JUMPDEST JUMPDEST PUSH2 0x656 DUP5 DUP3 DUP6 ADD PUSH2 0x5EB JUMP JUMPDEST SWAP2 POP POP SWAP3 SWAP2 POP POP JUMP JUMPDEST PUSH0 DUP2 SWAP1 POP SWAP2 SWAP1 POP JUMP JUMPDEST PUSH2 0x671 DUP2 PUSH2 0x65F JUMP JUMPDEST DUP3 MSTORE POP POP JUMP JUMPDEST PUSH0 DUP2 MLOAD SWAP1 POP SWAP2 SWAP1 POP JUMP JUMPDEST PUSH0 DUP3 DUP3 MSTORE PUSH1 0x20 DUP3 ADD SWAP1 POP SWAP3 SWAP2 POP POP JUMP JUMPDEST DUP3 DUP2 DUP4 MCOPY PUSH0 DUP4 DUP4 ADD MSTORE POP POP POP JUMP JUMPDEST PUSH0 PUSH2 0x6A9 DUP3 PUSH2 0x677 JUMP JUMPDEST PUSH2 0x6B3 DUP2 DUP6 PUSH2 0x681 JUMP JUMPDEST SWAP4 POP PUSH2 0x6C3 DUP2 DUP6 PUSH1 0x20 DUP7 ADD PUSH2 0x691 JUMP JUMPDEST PUSH2 0x6CC DUP2 PUSH2 0x4E4 JUMP JUMPDEST DUP5 ADD SWAP2 POP POP SWAP3 SWAP2 POP POP JUMP JUMPDEST PUSH0 PUSH1 0x40 DUP3 ADD SWAP1 POP PUSH2 0x6EA PUSH0 DUP4 ADD DUP6 PUSH2 0x668 JUMP JUMPDEST DUP2 DUP2 SUB PUSH1 0x20 DUP4 ADD MSTORE PUSH2 0x6FC DUP2 DUP5 PUSH2 0x69F JUMP JUMPDEST SWAP1 POP SWAP4 SWAP3 POP POP POP JUMP JUMPDEST PUSH2 0x70E DUP2 PUSH2 0x65F JUMP JUMPDEST DUP2 EQ PUSH2 0x718 JUMPI PUSH0 DUP1 REVERT JUMPDEST POP JUMP JUMPDEST PUSH0 DUP2 CALLDATALOAD SWAP1 POP PUSH2 0x729 DUP2 PUSH2 0x705 JUMP JUMPDEST SWAP3 SWAP2 POP POP JUMP JUMPDEST PUSH0 PUSH1 0x20 DUP3 DUP5 SUB SLT ISZERO PUSH2 0x744 JUMPI PUSH2 0x743 PUSH2 0x4D4 JUMP JUMPDEST JUMPDEST PUSH0 PUSH2 0x751 DUP5 DUP3 DUP6 ADD PUSH2 0x71B JUMP JUMPDEST SWAP2 POP POP SWAP3 SWAP2 POP POP JUMP JUMPDEST PUSH0 DUP2 MLOAD SWAP1 POP SWAP2 SWAP1 POP JUMP JUMPDEST PUSH0 DUP3 DUP3 MSTORE PUSH1 0x20 DUP3 ADD SWAP1 POP SWAP3 SWAP2 POP POP JUMP JUMPDEST PUSH0 DUP2 SWAP1 POP PUSH1 0x20 DUP3 ADD SWAP1 POP SWAP2 SWAP1 POP JUMP JUMPDEST PUSH2 0x78C DUP2 PUSH2 0x65F JUMP JUMPDEST DUP3 MSTORE POP POP JUMP JUMPDEST PUSH0 PUSH2 0x79D DUP4 DUP4 PUSH2 0x783 JUMP JUMPDEST PUSH1 0x20 DUP4 ADD SWAP1 POP SWAP3 SWAP2 POP POP JUMP JUMPDEST PUSH0 PUSH1 0x20 DUP3 ADD SWAP1 POP SWAP2 SWAP1 POP JUMP JUMPDEST PUSH0 PUSH2 0x7BF DUP3 PUSH2 0x75A JUMP JUMPDEST PUSH2 0x7C9 DUP2 DUP6 PUSH2 0x764 JUMP JUMPDEST SWAP4 POP PUSH2 0x7D4 DUP4 PUSH2 0x774 JUMP JUMPDEST DUP1 PUSH0 JUMPDEST DUP4 DUP2 LT ISZERO PUSH2 0x804 JUMPI DUP2 MLOAD PUSH2 0x7EB DUP9 DUP3 PUSH2 0x792 JUMP JUMPDEST SWAP8 POP PUSH2 0x7F6 DUP4 PUSH2 0x7A9 JUMP JUMPDEST SWAP3 POP POP PUSH1 0x1 DUP2 ADD SWAP1 POP PUSH2 0x7D7 JUMP JUMPDEST POP DUP6 SWAP4 POP POP POP POP SWAP3 SWAP2 POP POP JUMP JUMPDEST PUSH0 PUSH1 0x40 DUP3 ADD SWAP1 POP PUSH2 0x824 PUSH0 DUP4 ADD DUP6 PUSH2 0x668 JUMP JUMPDEST DUP2 DUP2 SUB PUSH1 0x20 DUP4 ADD MSTORE PUSH2 0x836 DUP2 DUP5 PUSH2 0x7B5 JUMP JUMPDEST SWAP1 POP SWAP4 SWAP3 POP POP POP JUMP JUMPDEST PUSH32 0x4E487B7100000000000000000000000000000000000000000000000000000000 PUSH0 MSTORE PUSH1 0x11 PUSH1 0x4 MSTORE PUSH1 0x24 PUSH0 REVERT JUMPDEST PUSH0 PUSH2 0x876 DUP3 PUSH2 0x65F JUMP JUMPDEST SWAP2 POP PUSH2 0x881 DUP4 PUSH2 0x65F JUMP JUMPDEST SWAP3 POP DUP3 DUP3 SUB SWAP1 POP DUP2 DUP2 GT ISZERO PUSH2 0x899 JUMPI PUSH2 0x898 PUSH2 0x83F JUMP JUMPDEST JUMPDEST SWAP3 SWAP2 POP POP JUMP JUMPDEST PUSH0 PUSH2 0x8A9 DUP3 PUSH2 0x65F JUMP JUMPDEST SWAP2 POP PUSH2 0x8B4 DUP4 PUSH2 0x65F JUMP JUMPDEST SWAP3 POP DUP3 DUP3 ADD SWAP1 POP DUP1 DUP3 GT ISZERO PUSH2 0x8CC JUMPI PUSH2 0x8CB PUSH2 0x83F JUMP JUMPDEST JUMPDEST SWAP3 SWAP2 POP POP JUMP JUMPDEST PUSH32 0x4E487B7100000000000000000000000000000000000000000000000000000000 PUSH0 MSTORE PUSH1 0x32 PUSH1 0x4 MSTORE PUSH1 0x24 PUSH0 REVERT JUMPDEST PUSH32 0x4E487B7100000000000000000000000000000000000000000000000000000000 PUSH0 MSTORE PUSH1 0x12 PUSH1 0x4 MSTORE PUSH1 0x24 PUSH0 REVERT JUMPDEST PUSH0 PUSH2 0x936 DUP3 PUSH2 0x65F JUMP JUMPDEST SWAP2 POP PUSH2 0x941 DUP4 PUSH2 0x65F JUMP JUMPDEST SWAP3 POP DUP3 PUSH2 0x951 JUMPI PUSH2 0x950 PUSH2 0x8FF JUMP JUMPDEST JUMPDEST DUP3 DUP3 MOD SWAP1 POP SWAP3 SWAP2 POP POP JUMP JUMPDEST PUSH0 PUSH2 0x966 DUP3 PUSH2 0x65F JUMP JUMPDEST SWAP2 POP PUSH2 0x971 DUP4 PUSH2 0x65F JUMP JUMPDEST SWAP3 POP DUP3 PUSH2 0x981 JUMPI PUSH2 0x980 PUSH2 0x8FF JUMP JUMPDEST JUMPDEST DUP3 DUP3 DIV SWAP1 POP SWAP3 SWAP2 POP POP JUMP JUMPDEST PUSH0 PUSH2 0x996 DUP3 PUSH2 0x65F JUMP JUMPDEST SWAP2 POP PUSH0 DUP3 SUB PUSH2 0x9A8 JUMPI PUSH2 0x9A7 PUSH2 0x83F JUMP JUMPDEST JUMPDEST PUSH1 0x1 DUP3 SUB SWAP1 POP SWAP2 SWAP1 POP JUMP JUMPDEST PUSH0 PUSH2 0x9BD DUP3 PUSH2 0x65F JUMP JUMPDEST SWAP2 POP PUSH32 0xFFFFFFFFFFFFFFFFFFFFFFFFFFFFFFFFFFFFFFFFFFFFFFFFFFFFFFFFFFFFFFFF DUP3 SUB PUSH2 0x9EF JUMPI PUSH2 0x9EE PUSH2 0x83F JUMP JUMPDEST JUMPDEST PUSH1 0x1 DUP3 ADD SWAP1 POP SWAP2 SWAP1 POP JUMP INVALID LOG2 PUSH5 0x6970667358 0x22 SLT KECCAK256 DUP9 DELEGATECALL STOP RETURNDATACOPY CREATE SUB 0xC6 PUSH31 0x50AEAE8704E78F62364FC6E5ED519380AD9BADDF2363E75764736F6C634300 ADDMOD BYTE STOP CALLER "
		},
		"gasEstimates": {
			"creation": {
				"codeDepositCost": "521600",
				"executionCost": "554",
				"totalCost": "522154"
			},
			"external": {
				"processNumber(uint256)": "infinite",
				"processString(string)": "infinite"
			},
			"internal": {
				"countDigits(uint256)": "infinite",
				"sortCharArray(bytes memory)": "infinite",
				"sortUintArray(uint256[] memory)": "infinite",
				"stringToCharArray(string memory)": "infinite",
				"uintToArray(uint256)": "infinite"
			}
		},
		"methodIdentifiers": {
			"processNumber(uint256)": "8bf709cf",
			"processString(string)": "7c216809"
		}
	},
	"abi": [
		{
			"inputs": [
				{
					"internalType": "uint256",
					"name": "_n",
					"type": "uint256"
				}
			],
			"name": "processNumber",
			"outputs": [
				{
					"internalType": "uint256",
					"name": "",
					"type": "uint256"
				},
				{
					"internalType": "uint256[]",
					"name": "",
					"type": "uint256[]"
				}
			],
			"stateMutability": "pure",
			"type": "function"
		},
		{
			"inputs": [
				{
					"internalType": "string",
					"name": "_str",
					"type": "string"
				}
			],
			"name": "processString",
			"outputs": [
				{
					"internalType": "uint256",
					"name": "",
					"type": "uint256"
				},
				{
					"internalType": "bytes",
					"name": "",
					"type": "bytes"
				}
			],
			"stateMutability": "pure",
			"type": "function"
		}
	]
}