{
	"data": {
		"bytecode": {
			"linkReferences": {},
			"object": "6080604052348015600e575f80fd5b506105008061001c5f395ff3fe608060405234801561000f575f80fd5b5060043610610029575f3560e01c80638e41bcac1461002d575b5f80fd5b61004760048036038101906100429190610423565b61005d565b6040516100549190610484565b60405180910390f35b5f610067826100a1565b8015610078575061007782610117565b5b801561008957506100888261018d565b5b801561009a575061009982610203565b5b9050919050565b5f808290505f5b815181101561010c575f8282815181106100c5576100c461049d565b5b602001015160f81c60f81b60f81c905060418160ff16101580156100ed5750605a8160ff1611155b156100fe5760019350505050610112565b5080806001019150506100a8565b505f9150505b919050565b5f808290505f5b8151811015610182575f82828151811061013b5761013a61049d565b5b602001015160f81c60f81b60f81c905060618160ff16101580156101635750607a8160ff1611155b156101745760019350505050610188565b50808060010191505061011e565b505f9150505b919050565b5f808290505f5b81518110156101f8575f8282815181106101b1576101b061049d565b5b602001015160f81c60f81b60f81c905060308160ff16101580156101d9575060398160ff1611155b156101ea57600193505050506101fe565b508080600101915050610194565b505f9150505b919050565b5f808290505f5b81518110156102cb575f8282815181106102275761022661049d565b5b602001015160f81c60f81b60f81c905060218160ff161015801561024f5750602f8160ff1611155b8061026e5750603a8160ff161015801561026d575060408160ff1611155b5b8061028d5750605b8160ff161015801561028c575060608160ff1611155b5b806102ac5750607b8160ff16101580156102ab5750607e8160ff1611155b5b156102bd57600193505050506102d1565b50808060010191505061020a565b505f9150505b919050565b5f604051905090565b5f80fd5b5f80fd5b5f80fd5b5f80fd5b5f601f19601f8301169050919050565b7f4e487b71000000000000000000000000000000000000000000000000000000005f52604160045260245ffd5b610335826102ef565b810181811067ffffffffffffffff82111715610354576103536102ff565b5b80604052505050565b5f6103666102d6565b9050610372828261032c565b919050565b5f67ffffffffffffffff821115610391576103906102ff565b5b61039a826102ef565b9050602081019050919050565b828183375f83830152505050565b5f6103c76103c284610377565b61035d565b9050828152602081018484840111156103e3576103e26102eb565b5b6103ee8482856103a7565b509392505050565b5f82601f83011261040a576104096102e7565b5b813561041a8482602086016103b5565b91505092915050565b5f60208284031215610438576104376102df565b5b5f82013567ffffffffffffffff811115610455576104546102e3565b5b610461848285016103f6565b91505092915050565b5f8115159050919050565b61047e8161046a565b82525050565b5f6020820190506104975f830184610475565b92915050565b7f4e487b71000000000000000000000000000000000000000000000000000000005f52603260045260245ffdfea264697066735822122060bbaabe1ecec46cc67621fb233b41963f1c32989935697cebfd8b5cd0dad83364736f6c634300081a0033",
			"opcodes": "PUSH1 0x80 PUSH1 0x40 MSTORE CALLVALUE DUP1 ISZERO PUSH1 0xE JUMPI PUSH0 DUP1 REVERT JUMPDEST POP PUSH2 0x500 DUP1 PUSH2 0x1C PUSH0 CODECOPY PUSH0 RETURN INVALID PUSH1 0x80 PUSH1 0x40 MSTORE CALLVALUE DUP1 ISZERO PUSH2 0xF JUMPI PUSH0 DUP1 REVERT JUMPDEST POP PUSH1 0x4 CALLDATASIZE LT PUSH2 0x29 JUMPI PUSH0 CALLDATALOAD PUSH1 0xE0 SHR DUP1 PUSH4 0x8E41BCAC EQ PUSH2 0x2D JUMPI JUMPDEST PUSH0 DUP1 REVERT JUMPDEST PUSH2 0x47 PUSH1 0x4 DUP1 CALLDATASIZE SUB DUP2 ADD SWAP1 PUSH2 0x42 SWAP2 SWAP1 PUSH2 0x423 JUMP JUMPDEST PUSH2 0x5D JUMP JUMPDEST PUSH1 0x40 MLOAD PUSH2 0x54 SWAP2 SWAP1 PUSH2 0x484 JUMP JUMPDEST PUSH1 0x40 MLOAD DUP1 SWAP2 SUB SWAP1 RETURN JUMPDEST PUSH0 PUSH2 0x67 DUP3 PUSH2 0xA1 JUMP JUMPDEST DUP1 ISZERO PUSH2 0x78 JUMPI POP PUSH2 0x77 DUP3 PUSH2 0x117 JUMP JUMPDEST JUMPDEST DUP1 ISZERO PUSH2 0x89 JUMPI POP PUSH2 0x88 DUP3 PUSH2 0x18D JUMP JUMPDEST JUMPDEST DUP1 ISZERO PUSH2 0x9A JUMPI POP PUSH2 0x99 DUP3 PUSH2 0x203 JUMP JUMPDEST JUMPDEST SWAP1 POP SWAP2 SWAP1 POP JUMP JUMPDEST PUSH0 DUP1 DUP3 SWAP1 POP PUSH0 JUMPDEST DUP2 MLOAD DUP2 LT ISZERO PUSH2 0x10C JUMPI PUSH0 DUP3 DUP3 DUP2 MLOAD DUP2 LT PUSH2 0xC5 JUMPI PUSH2 0xC4 PUSH2 0x49D JUMP JUMPDEST JUMPDEST PUSH1 0x20 ADD ADD MLOAD PUSH1 0xF8 SHR PUSH1 0xF8 SHL PUSH1 0xF8 SHR SWAP1 POP PUSH1 0x41 DUP2 PUSH1 0xFF AND LT ISZERO DUP1 ISZERO PUSH2 0xED JUMPI POP PUSH1 0x5A DUP2 PUSH1 0xFF AND GT ISZERO JUMPDEST ISZERO PUSH2 0xFE JUMPI PUSH1 0x1 SWAP4 POP POP POP POP PUSH2 0x112 JUMP JUMPDEST POP DUP1 DUP1 PUSH1 0x1 ADD SWAP2 POP POP PUSH2 0xA8 JUMP JUMPDEST POP PUSH0 SWAP2 POP POP JUMPDEST SWAP2 SWAP1 POP JUMP JUMPDEST PUSH0 DUP1 DUP3 SWAP1 POP PUSH0 JUMPDEST DUP2 MLOAD DUP2 LT ISZERO PUSH2 0x182 JUMPI PUSH0 DUP3 DUP3 DUP2 MLOAD DUP2 LT PUSH2 0x13B JUMPI PUSH2 0x13A PUSH2 0x49D JUMP JUMPDEST JUMPDEST PUSH1 0x20 ADD ADD MLOAD PUSH1 0xF8 SHR PUSH1 0xF8 SHL PUSH1 0xF8 SHR SWAP1 POP PUSH1 0x61 DUP2 PUSH1 0xFF AND LT ISZERO DUP1 ISZERO PUSH2 0x163 JUMPI POP PUSH1 0x7A DUP2 PUSH1 0xFF AND GT ISZERO JUMPDEST ISZERO PUSH2 0x174 JUMPI PUSH1 0x1 SWAP4 POP POP POP POP PUSH2 0x188 JUMP JUMPDEST POP DUP1 DUP1 PUSH1 0x1 ADD SWAP2 POP POP PUSH2 0x11E JUMP JUMPDEST POP PUSH0 SWAP2 POP POP JUMPDEST SWAP2 SWAP1 POP JUMP JUMPDEST PUSH0 DUP1 DUP3 SWAP1 POP PUSH0 JUMPDEST DUP2 MLOAD DUP2 LT ISZERO PUSH2 0x1F8 JUMPI PUSH0 DUP3 DUP3 DUP2 MLOAD DUP2 LT PUSH2 0x1B1 JUMPI PUSH2 0x1B0 PUSH2 0x49D JUMP JUMPDEST JUMPDEST PUSH1 0x20 ADD ADD MLOAD PUSH1 0xF8 SHR PUSH1 0xF8 SHL PUSH1 0xF8 SHR SWAP1 POP PUSH1 0x30 DUP2 PUSH1 0xFF AND LT ISZERO DUP1 ISZERO PUSH2 0x1D9 JUMPI POP PUSH1 0x39 DUP2 PUSH1 0xFF AND GT ISZERO JUMPDEST ISZERO PUSH2 0x1EA JUMPI PUSH1 0x1 SWAP4 POP POP POP POP PUSH2 0x1FE JUMP JUMPDEST POP DUP1 DUP1 PUSH1 0x1 ADD SWAP2 POP POP PUSH2 0x194 JUMP JUMPDEST POP PUSH0 SWAP2 POP POP JUMPDEST SWAP2 SWAP1 POP JUMP JUMPDEST PUSH0 DUP1 DUP3 SWAP1 POP PUSH0 JUMPDEST DUP2 MLOAD DUP2 LT ISZERO PUSH2 0x2CB JUMPI PUSH0 DUP3 DUP3 DUP2 MLOAD DUP2 LT PUSH2 0x227 JUMPI PUSH2 0x226 PUSH2 0x49D JUMP JUMPDEST JUMPDEST PUSH1 0x20 ADD ADD MLOAD PUSH1 0xF8 SHR PUSH1 0xF8 SHL PUSH1 0xF8 SHR SWAP1 POP PUSH1 0x21 DUP2 PUSH1 0xFF AND LT ISZERO DUP1 ISZERO PUSH2 0x24F JUMPI POP PUSH1 0x2F DUP2 PUSH1 0xFF AND GT ISZERO JUMPDEST DUP1 PUSH2 0x26E JUMPI POP PUSH1 0x3A DUP2 PUSH1 0xFF AND LT ISZERO DUP1 ISZERO PUSH2 0x26D JUMPI POP PUSH1 0x40 DUP2 PUSH1 0xFF AND GT ISZERO JUMPDEST JUMPDEST DUP1 PUSH2 0x28D JUMPI POP PUSH1 0x5B DUP2 PUSH1 0xFF AND LT ISZERO DUP1 ISZERO PUSH2 0x28C JUMPI POP PUSH1 0x60 DUP2 PUSH1 0xFF AND GT ISZERO JUMPDEST JUMPDEST DUP1 PUSH2 0x2AC JUMPI POP PUSH1 0x7B DUP2 PUSH1 0xFF AND LT ISZERO DUP1 ISZERO PUSH2 0x2AB JUMPI POP PUSH1 0x7E DUP2 PUSH1 0xFF AND GT ISZERO JUMPDEST JUMPDEST ISZERO PUSH2 0x2BD JUMPI PUSH1 0x1 SWAP4 POP POP POP POP PUSH2 0x2D1 JUMP JUMPDEST POP DUP1 DUP1 PUSH1 0x1 ADD SWAP2 POP POP PUSH2 0x20A JUMP JUMPDEST POP PUSH0 SWAP2 POP POP JUMPDEST SWAP2 SWAP1 POP JUMP JUMPDEST PUSH0 PUSH1 0x40 MLOAD SWAP1 POP SWAP1 JUMP JUMPDEST PUSH0 DUP1 REVERT JUMPDEST PUSH0 DUP1 REVERT JUMPDEST PUSH0 DUP1 REVERT JUMPDEST PUSH0 DUP1 REVERT JUMPDEST PUSH0 PUSH1 0x1F NOT PUSH1 0x1F DUP4 ADD AND SWAP1 POP SWAP2 SWAP1 POP JUMP JUMPDEST PUSH32 0x4E487B7100000000000000000000000000000000000000000000000000000000 PUSH0 MSTORE PUSH1 0x41 PUSH1 0x4 MSTORE PUSH1 0x24 PUSH0 REVERT JUMPDEST PUSH2 0x335 DUP3 PUSH2 0x2EF JUMP JUMPDEST DUP2 ADD DUP2 DUP2 LT PUSH8 0xFFFFFFFFFFFFFFFF DUP3 GT OR ISZERO PUSH2 0x354 JUMPI PUSH2 0x353 PUSH2 0x2FF JUMP JUMPDEST JUMPDEST DUP1 PUSH1 0x40 MSTORE POP POP POP JUMP JUMPDEST PUSH0 PUSH2 0x366 PUSH2 0x2D6 JUMP JUMPDEST SWAP1 POP PUSH2 0x372 DUP3 DUP3 PUSH2 0x32C JUMP JUMPDEST SWAP2 SWAP1 POP JUMP JUMPDEST PUSH0 PUSH8 0xFFFFFFFFFFFFFFFF DUP3 GT ISZERO PUSH2 0x391 JUMPI PUSH2 0x390 PUSH2 0x2FF JUMP JUMPDEST JUMPDEST PUSH2 0x39A DUP3 PUSH2 0x2EF JUMP JUMPDEST SWAP1 POP PUSH1 0x20 DUP2 ADD SWAP1 POP SWAP2 SWAP1 POP JUMP JUMPDEST DUP3 DUP2 DUP4 CALLDATACOPY PUSH0 DUP4 DUP4 ADD MSTORE POP POP POP JUMP JUMPDEST PUSH0 PUSH2 0x3C7 PUSH2 0x3C2 DUP5 PUSH2 0x377 JUMP JUMPDEST PUSH2 0x35D JUMP JUMPDEST SWAP1 POP DUP3 DUP2 MSTORE PUSH1 0x20 DUP2 ADD DUP5 DUP5 DUP5 ADD GT ISZERO PUSH2 0x3E3 JUMPI PUSH2 0x3E2 PUSH2 0x2EB JUMP JUMPDEST JUMPDEST PUSH2 0x3EE DUP5 DUP3 DUP6 PUSH2 0x3A7 JUMP JUMPDEST POP SWAP4 SWAP3 POP POP POP JUMP JUMPDEST PUSH0 DUP3 PUSH1 0x1F DUP4 ADD SLT PUSH2 0x40A JUMPI PUSH2 0x409 PUSH2 0x2E7 JUMP JUMPDEST JUMPDEST DUP2 CALLDATALOAD PUSH2 0x41A DUP5 DUP3 PUSH1 0x20 DUP7 ADD PUSH2 0x3B5 JUMP JUMPDEST SWAP2 POP POP SWAP3 SWAP2 POP POP JUMP JUMPDEST PUSH0 PUSH1 0x20 DUP3 DUP5 SUB SLT ISZERO PUSH2 0x438 JUMPI PUSH2 0x437 PUSH2 0x2DF JUMP JUMPDEST JUMPDEST PUSH0 DUP3 ADD CALLDATALOAD PUSH8 0xFFFFFFFFFFFFFFFF DUP2 GT ISZERO PUSH2 0x455 JUMPI PUSH2 0x454 PUSH2 0x2E3 JUMP JUMPDEST JUMPDEST PUSH2 0x461 DUP5 DUP3 DUP6 ADD PUSH2 0x3F6 JUMP JUMPDEST SWAP2 POP POP SWAP3 SWAP2 POP POP JUMP JUMPDEST PUSH0 DUP2 ISZERO ISZERO SWAP1 POP SWAP2 SWAP1 POP JUMP JUMPDEST PUSH2 0x47E DUP2 PUSH2 0x46A JUMP JUMPDEST DUP3 MSTORE POP POP JUMP JUMPDEST PUSH0 PUSH1 0x20 DUP3 ADD SWAP1 POP PUSH2 0x497 PUSH0 DUP4 ADD DUP5 PUSH2 0x475 JUMP JUMPDEST SWAP3 SWAP2 POP POP JUMP JUMPDEST PUSH32 0x4E487B7100000000000000000000000000000000000000000000000000000000 PUSH0 MSTORE PUSH1 0x32 PUSH1 0x4 MSTORE PUSH1 0x24 PUSH0 REVERT INVALID LOG2 PUSH5 0x6970667358 0x22 SLT KECCAK256 PUSH1 0xBB 0xAA 0xBE 0x1E 0xCE 0xC4 PUSH13 0xC67621FB233B41963F1C329899 CALLDATALOAD PUSH10 0x7CEBFD8B5CD0DAD83364 PUSH20 0x6F6C634300081A00330000000000000000000000 "
		},
		"gasEstimates": {
			"creation": {
				"codeDepositCost": "256000",
				"executionCost": "292",
				"totalCost": "256292"
			},
			"external": {
				"isValidPassword(string)": "infinite"
			},
			"internal": {
				"_lowerCase(string memory)": "infinite",
				"_number(string memory)": "infinite",
				"_special(string memory)": "infinite",
				"_upperCase(string memory)": "infinite"
			}
		},
		"methodIdentifiers": {
			"isValidPassword(string)": "8e41bcac"
		}
	},
	"abi": [
		{
			"inputs": [
				{
					"internalType": "string",
					"name": "_password",
					"type": "string"
				}
			],
			"name": "isValidPassword",
			"outputs": [
				{
					"internalType": "bool",
					"name": "",
					"type": "bool"
				}
			],
			"stateMutability": "pure",
			"type": "function"
		}
	]
}