{
	"data": {
		"bytecode": {
			"linkReferences": {},
			"object": "6080604052348015600e575f80fd5b5061073a8061001c5f395ff3fe608060405234801561000f575f80fd5b5060043610610029575f3560e01c8063c27fbc5b1461002d575b5f80fd5b610047600480360381019061004291906102e6565b61005d565b6040516100549190610381565b60405180910390f35b60605f610e108361006e91906103fb565b90505f610e108461007f919061042b565b90505f603c8261008f91906103fb565b90505f603c8361009f919061042b565b90505f60405180602001604052805f81525090505f8511156100e857806100c586610156565b6040516020016100d69291906104df565b60405160208183030381529060405290505b5f83111561011d57806100fa84610156565b60405160200161010b929190610557565b60405160208183030381529060405290505b8061012783610156565b6040516020016101389291906105cf565b60405160208183030381529060405290508095505050505050919050565b60605f820361019c576040518060400160405280600181526020017f300000000000000000000000000000000000000000000000000000000000000081525090506102aa565b5f8290505f5b5f82146101cb5780806101b4906105fd565b915050600a826101c491906103fb565b91506101a2565b5f8167ffffffffffffffff8111156101e6576101e5610644565b5b6040519080825280601f01601f1916602001820160405280156102185781602001600182028036833780820191505090505b5090505b5f85146102a3576001826102309190610671565b9150600a8561023f919061042b565b603061024b91906106a4565b60f81b818381518110610261576102606106d7565b5b60200101907effffffffffffffffffffffffffffffffffffffffffffffffffffffffffffff191690815f1a905350600a8561029c91906103fb565b945061021c565b8093505050505b919050565b5f80fd5b5f819050919050565b6102c5816102b3565b81146102cf575f80fd5b50565b5f813590506102e0816102bc565b92915050565b5f602082840312156102fb576102fa6102af565b5b5f610308848285016102d2565b91505092915050565b5f81519050919050565b5f82825260208201905092915050565b8281835e5f83830152505050565b5f601f19601f8301169050919050565b5f61035382610311565b61035d818561031b565b935061036d81856020860161032b565b61037681610339565b840191505092915050565b5f6020820190508181035f8301526103998184610349565b905092915050565b7f4e487b71000000000000000000000000000000000000000000000000000000005f52601260045260245ffd5b7f4e487b71000000000000000000000000000000000000000000000000000000005f52601160045260245ffd5b5f610405826102b3565b9150610410836102b3565b9250826104205761041f6103a1565b5b828204905092915050565b5f610435826102b3565b9150610440836102b3565b9250826104505761044f6103a1565b5b828206905092915050565b5f81905092915050565b5f61046f82610311565b610479818561045b565b935061048981856020860161032b565b80840191505092915050565b7fec8b9ceab08420000000000000000000000000000000000000000000000000005f82015250565b5f6104c960078361045b565b91506104d482610495565b600782019050919050565b5f6104ea8285610465565b91506104f68284610465565b9150610501826104bd565b91508190509392505050565b7febb68420000000000000000000000000000000000000000000000000000000005f82015250565b5f61054160048361045b565b915061054c8261050d565b600482019050919050565b5f6105628285610465565b915061056e8284610465565b915061057982610535565b91508190509392505050565b7fecb48800000000000000000000000000000000000000000000000000000000005f82015250565b5f6105b960038361045b565b91506105c482610585565b600382019050919050565b5f6105da8285610465565b91506105e68284610465565b91506105f1826105ad565b91508190509392505050565b5f610607826102b3565b91507fffffffffffffffffffffffffffffffffffffffffffffffffffffffffffffffff8203610639576106386103ce565b5b600182019050919050565b7f4e487b71000000000000000000000000000000000000000000000000000000005f52604160045260245ffd5b5f61067b826102b3565b9150610686836102b3565b925082820390508181111561069e5761069d6103ce565b5b92915050565b5f6106ae826102b3565b91506106b9836102b3565b92508282019050808211156106d1576106d06103ce565b5b92915050565b7f4e487b71000000000000000000000000000000000000000000000000000000005f52603260045260245ffdfea264697066735822122001f35812c27cace96a2f53e4956ff2eb4e062158b69cc1dfbfda527b4947a6c764736f6c634300081a0033",
			"opcodes": "PUSH1 0x80 PUSH1 0x40 MSTORE CALLVALUE DUP1 ISZERO PUSH1 0xE JUMPI PUSH0 DUP1 REVERT JUMPDEST POP PUSH2 0x73A DUP1 PUSH2 0x1C PUSH0 CODECOPY PUSH0 RETURN INVALID PUSH1 0x80 PUSH1 0x40 MSTORE CALLVALUE DUP1 ISZERO PUSH2 0xF JUMPI PUSH0 DUP1 REVERT JUMPDEST POP PUSH1 0x4 CALLDATASIZE LT PUSH2 0x29 JUMPI PUSH0 CALLDATALOAD PUSH1 0xE0 SHR DUP1 PUSH4 0xC27FBC5B EQ PUSH2 0x2D JUMPI JUMPDEST PUSH0 DUP1 REVERT JUMPDEST PUSH2 0x47 PUSH1 0x4 DUP1 CALLDATASIZE SUB DUP2 ADD SWAP1 PUSH2 0x42 SWAP2 SWAP1 PUSH2 0x2E6 JUMP JUMPDEST PUSH2 0x5D JUMP JUMPDEST PUSH1 0x40 MLOAD PUSH2 0x54 SWAP2 SWAP1 PUSH2 0x381 JUMP JUMPDEST PUSH1 0x40 MLOAD DUP1 SWAP2 SUB SWAP1 RETURN JUMPDEST PUSH1 0x60 PUSH0 PUSH2 0xE10 DUP4 PUSH2 0x6E SWAP2 SWAP1 PUSH2 0x3FB JUMP JUMPDEST SWAP1 POP PUSH0 PUSH2 0xE10 DUP5 PUSH2 0x7F SWAP2 SWAP1 PUSH2 0x42B JUMP JUMPDEST SWAP1 POP PUSH0 PUSH1 0x3C DUP3 PUSH2 0x8F SWAP2 SWAP1 PUSH2 0x3FB JUMP JUMPDEST SWAP1 POP PUSH0 PUSH1 0x3C DUP4 PUSH2 0x9F SWAP2 SWAP1 PUSH2 0x42B JUMP JUMPDEST SWAP1 POP PUSH0 PUSH1 0x40 MLOAD DUP1 PUSH1 0x20 ADD PUSH1 0x40 MSTORE DUP1 PUSH0 DUP2 MSTORE POP SWAP1 POP PUSH0 DUP6 GT ISZERO PUSH2 0xE8 JUMPI DUP1 PUSH2 0xC5 DUP7 PUSH2 0x156 JUMP JUMPDEST PUSH1 0x40 MLOAD PUSH1 0x20 ADD PUSH2 0xD6 SWAP3 SWAP2 SWAP1 PUSH2 0x4DF JUMP JUMPDEST PUSH1 0x40 MLOAD PUSH1 0x20 DUP2 DUP4 SUB SUB DUP2 MSTORE SWAP1 PUSH1 0x40 MSTORE SWAP1 POP JUMPDEST PUSH0 DUP4 GT ISZERO PUSH2 0x11D JUMPI DUP1 PUSH2 0xFA DUP5 PUSH2 0x156 JUMP JUMPDEST PUSH1 0x40 MLOAD PUSH1 0x20 ADD PUSH2 0x10B SWAP3 SWAP2 SWAP1 PUSH2 0x557 JUMP JUMPDEST PUSH1 0x40 MLOAD PUSH1 0x20 DUP2 DUP4 SUB SUB DUP2 MSTORE SWAP1 PUSH1 0x40 MSTORE SWAP1 POP JUMPDEST DUP1 PUSH2 0x127 DUP4 PUSH2 0x156 JUMP JUMPDEST PUSH1 0x40 MLOAD PUSH1 0x20 ADD PUSH2 0x138 SWAP3 SWAP2 SWAP1 PUSH2 0x5CF JUMP JUMPDEST PUSH1 0x40 MLOAD PUSH1 0x20 DUP2 DUP4 SUB SUB DUP2 MSTORE SWAP1 PUSH1 0x40 MSTORE SWAP1 POP DUP1 SWAP6 POP POP POP POP POP POP SWAP2 SWAP1 POP JUMP JUMPDEST PUSH1 0x60 PUSH0 DUP3 SUB PUSH2 0x19C JUMPI PUSH1 0x40 MLOAD DUP1 PUSH1 0x40 ADD PUSH1 0x40 MSTORE DUP1 PUSH1 0x1 DUP2 MSTORE PUSH1 0x20 ADD PUSH32 0x3000000000000000000000000000000000000000000000000000000000000000 DUP2 MSTORE POP SWAP1 POP PUSH2 0x2AA JUMP JUMPDEST PUSH0 DUP3 SWAP1 POP PUSH0 JUMPDEST PUSH0 DUP3 EQ PUSH2 0x1CB JUMPI DUP1 DUP1 PUSH2 0x1B4 SWAP1 PUSH2 0x5FD JUMP JUMPDEST SWAP2 POP POP PUSH1 0xA DUP3 PUSH2 0x1C4 SWAP2 SWAP1 PUSH2 0x3FB JUMP JUMPDEST SWAP2 POP PUSH2 0x1A2 JUMP JUMPDEST PUSH0 DUP2 PUSH8 0xFFFFFFFFFFFFFFFF DUP2 GT ISZERO PUSH2 0x1E6 JUMPI PUSH2 0x1E5 PUSH2 0x644 JUMP JUMPDEST JUMPDEST PUSH1 0x40 MLOAD SWAP1 DUP1 DUP3 MSTORE DUP1 PUSH1 0x1F ADD PUSH1 0x1F NOT AND PUSH1 0x20 ADD DUP3 ADD PUSH1 0x40 MSTORE DUP1 ISZERO PUSH2 0x218 JUMPI DUP2 PUSH1 0x20 ADD PUSH1 0x1 DUP3 MUL DUP1 CALLDATASIZE DUP4 CALLDATACOPY DUP1 DUP3 ADD SWAP2 POP POP SWAP1 POP JUMPDEST POP SWAP1 POP JUMPDEST PUSH0 DUP6 EQ PUSH2 0x2A3 JUMPI PUSH1 0x1 DUP3 PUSH2 0x230 SWAP2 SWAP1 PUSH2 0x671 JUMP JUMPDEST SWAP2 POP PUSH1 0xA DUP6 PUSH2 0x23F SWAP2 SWAP1 PUSH2 0x42B JUMP JUMPDEST PUSH1 0x30 PUSH2 0x24B SWAP2 SWAP1 PUSH2 0x6A4 JUMP JUMPDEST PUSH1 0xF8 SHL DUP2 DUP4 DUP2 MLOAD DUP2 LT PUSH2 0x261 JUMPI PUSH2 0x260 PUSH2 0x6D7 JUMP JUMPDEST JUMPDEST PUSH1 0x20 ADD ADD SWAP1 PUSH31 0xFFFFFFFFFFFFFFFFFFFFFFFFFFFFFFFFFFFFFFFFFFFFFFFFFFFFFFFFFFFFFF NOT AND SWAP1 DUP2 PUSH0 BYTE SWAP1 MSTORE8 POP PUSH1 0xA DUP6 PUSH2 0x29C SWAP2 SWAP1 PUSH2 0x3FB JUMP JUMPDEST SWAP5 POP PUSH2 0x21C JUMP JUMPDEST DUP1 SWAP4 POP POP POP POP JUMPDEST SWAP2 SWAP1 POP JUMP JUMPDEST PUSH0 DUP1 REVERT JUMPDEST PUSH0 DUP2 SWAP1 POP SWAP2 SWAP1 POP JUMP JUMPDEST PUSH2 0x2C5 DUP2 PUSH2 0x2B3 JUMP JUMPDEST DUP2 EQ PUSH2 0x2CF JUMPI PUSH0 DUP1 REVERT JUMPDEST POP JUMP JUMPDEST PUSH0 DUP2 CALLDATALOAD SWAP1 POP PUSH2 0x2E0 DUP2 PUSH2 0x2BC JUMP JUMPDEST SWAP3 SWAP2 POP POP JUMP JUMPDEST PUSH0 PUSH1 0x20 DUP3 DUP5 SUB SLT ISZERO PUSH2 0x2FB JUMPI PUSH2 0x2FA PUSH2 0x2AF JUMP JUMPDEST JUMPDEST PUSH0 PUSH2 0x308 DUP5 DUP3 DUP6 ADD PUSH2 0x2D2 JUMP JUMPDEST SWAP2 POP POP SWAP3 SWAP2 POP POP JUMP JUMPDEST PUSH0 DUP2 MLOAD SWAP1 POP SWAP2 SWAP1 POP JUMP JUMPDEST PUSH0 DUP3 DUP3 MSTORE PUSH1 0x20 DUP3 ADD SWAP1 POP SWAP3 SWAP2 POP POP JUMP JUMPDEST DUP3 DUP2 DUP4 MCOPY PUSH0 DUP4 DUP4 ADD MSTORE POP POP POP JUMP JUMPDEST PUSH0 PUSH1 0x1F NOT PUSH1 0x1F DUP4 ADD AND SWAP1 POP SWAP2 SWAP1 POP JUMP JUMPDEST PUSH0 PUSH2 0x353 DUP3 PUSH2 0x311 JUMP JUMPDEST PUSH2 0x35D DUP2 DUP6 PUSH2 0x31B JUMP JUMPDEST SWAP4 POP PUSH2 0x36D DUP2 DUP6 PUSH1 0x20 DUP7 ADD PUSH2 0x32B JUMP JUMPDEST PUSH2 0x376 DUP2 PUSH2 0x339 JUMP JUMPDEST DUP5 ADD SWAP2 POP POP SWAP3 SWAP2 POP POP JUMP JUMPDEST PUSH0 PUSH1 0x20 DUP3 ADD SWAP1 POP DUP2 DUP2 SUB PUSH0 DUP4 ADD MSTORE PUSH2 0x399 DUP2 DUP5 PUSH2 0x349 JUMP JUMPDEST SWAP1 POP SWAP3 SWAP2 POP POP JUMP JUMPDEST PUSH32 0x4E487B7100000000000000000000000000000000000000000000000000000000 PUSH0 MSTORE PUSH1 0x12 PUSH1 0x4 MSTORE PUSH1 0x24 PUSH0 REVERT JUMPDEST PUSH32 0x4E487B7100000000000000000000000000000000000000000000000000000000 PUSH0 MSTORE PUSH1 0x11 PUSH1 0x4 MSTORE PUSH1 0x24 PUSH0 REVERT JUMPDEST PUSH0 PUSH2 0x405 DUP3 PUSH2 0x2B3 JUMP JUMPDEST SWAP2 POP PUSH2 0x410 DUP4 PUSH2 0x2B3 JUMP JUMPDEST SWAP3 POP DUP3 PUSH2 0x420 JUMPI PUSH2 0x41F PUSH2 0x3A1 JUMP JUMPDEST JUMPDEST DUP3 DUP3 DIV SWAP1 POP SWAP3 SWAP2 POP POP JUMP JUMPDEST PUSH0 PUSH2 0x435 DUP3 PUSH2 0x2B3 JUMP JUMPDEST SWAP2 POP PUSH2 0x440 DUP4 PUSH2 0x2B3 JUMP JUMPDEST SWAP3 POP DUP3 PUSH2 0x450 JUMPI PUSH2 0x44F PUSH2 0x3A1 JUMP JUMPDEST JUMPDEST DUP3 DUP3 MOD SWAP1 POP SWAP3 SWAP2 POP POP JUMP JUMPDEST PUSH0 DUP2 SWAP1 POP SWAP3 SWAP2 POP POP JUMP JUMPDEST PUSH0 PUSH2 0x46F DUP3 PUSH2 0x311 JUMP JUMPDEST PUSH2 0x479 DUP2 DUP6 PUSH2 0x45B JUMP JUMPDEST SWAP4 POP PUSH2 0x489 DUP2 DUP6 PUSH1 0x20 DUP7 ADD PUSH2 0x32B JUMP JUMPDEST DUP1 DUP5 ADD SWAP2 POP POP SWAP3 SWAP2 POP POP JUMP JUMPDEST PUSH32 0xEC8B9CEAB0842000000000000000000000000000000000000000000000000000 PUSH0 DUP3 ADD MSTORE POP JUMP JUMPDEST PUSH0 PUSH2 0x4C9 PUSH1 0x7 DUP4 PUSH2 0x45B JUMP JUMPDEST SWAP2 POP PUSH2 0x4D4 DUP3 PUSH2 0x495 JUMP JUMPDEST PUSH1 0x7 DUP3 ADD SWAP1 POP SWAP2 SWAP1 POP JUMP JUMPDEST PUSH0 PUSH2 0x4EA DUP3 DUP6 PUSH2 0x465 JUMP JUMPDEST SWAP2 POP PUSH2 0x4F6 DUP3 DUP5 PUSH2 0x465 JUMP JUMPDEST SWAP2 POP PUSH2 0x501 DUP3 PUSH2 0x4BD JUMP JUMPDEST SWAP2 POP DUP2 SWAP1 POP SWAP4 SWAP3 POP POP POP JUMP JUMPDEST PUSH32 0xEBB6842000000000000000000000000000000000000000000000000000000000 PUSH0 DUP3 ADD MSTORE POP JUMP JUMPDEST PUSH0 PUSH2 0x541 PUSH1 0x4 DUP4 PUSH2 0x45B JUMP JUMPDEST SWAP2 POP PUSH2 0x54C DUP3 PUSH2 0x50D JUMP JUMPDEST PUSH1 0x4 DUP3 ADD SWAP1 POP SWAP2 SWAP1 POP JUMP JUMPDEST PUSH0 PUSH2 0x562 DUP3 DUP6 PUSH2 0x465 JUMP JUMPDEST SWAP2 POP PUSH2 0x56E DUP3 DUP5 PUSH2 0x465 JUMP JUMPDEST SWAP2 POP PUSH2 0x579 DUP3 PUSH2 0x535 JUMP JUMPDEST SWAP2 POP DUP2 SWAP1 POP SWAP4 SWAP3 POP POP POP JUMP JUMPDEST PUSH32 0xECB4880000000000000000000000000000000000000000000000000000000000 PUSH0 DUP3 ADD MSTORE POP JUMP JUMPDEST PUSH0 PUSH2 0x5B9 PUSH1 0x3 DUP4 PUSH2 0x45B JUMP JUMPDEST SWAP2 POP PUSH2 0x5C4 DUP3 PUSH2 0x585 JUMP JUMPDEST PUSH1 0x3 DUP3 ADD SWAP1 POP SWAP2 SWAP1 POP JUMP JUMPDEST PUSH0 PUSH2 0x5DA DUP3 DUP6 PUSH2 0x465 JUMP JUMPDEST SWAP2 POP PUSH2 0x5E6 DUP3 DUP5 PUSH2 0x465 JUMP JUMPDEST SWAP2 POP PUSH2 0x5F1 DUP3 PUSH2 0x5AD JUMP JUMPDEST SWAP2 POP DUP2 SWAP1 POP SWAP4 SWAP3 POP POP POP JUMP JUMPDEST PUSH0 PUSH2 0x607 DUP3 PUSH2 0x2B3 JUMP JUMPDEST SWAP2 POP PUSH32 0xFFFFFFFFFFFFFFFFFFFFFFFFFFFFFFFFFFFFFFFFFFFFFFFFFFFFFFFFFFFFFFFF DUP3 SUB PUSH2 0x639 JUMPI PUSH2 0x638 PUSH2 0x3CE JUMP JUMPDEST JUMPDEST PUSH1 0x1 DUP3 ADD SWAP1 POP SWAP2 SWAP1 POP JUMP JUMPDEST PUSH32 0x4E487B7100000000000000000000000000000000000000000000000000000000 PUSH0 MSTORE PUSH1 0x41 PUSH1 0x4 MSTORE PUSH1 0x24 PUSH0 REVERT JUMPDEST PUSH0 PUSH2 0x67B DUP3 PUSH2 0x2B3 JUMP JUMPDEST SWAP2 POP PUSH2 0x686 DUP4 PUSH2 0x2B3 JUMP JUMPDEST SWAP3 POP DUP3 DUP3 SUB SWAP1 POP DUP2 DUP2 GT ISZERO PUSH2 0x69E JUMPI PUSH2 0x69D PUSH2 0x3CE JUMP JUMPDEST JUMPDEST SWAP3 SWAP2 POP POP JUMP JUMPDEST PUSH0 PUSH2 0x6AE DUP3 PUSH2 0x2B3 JUMP JUMPDEST SWAP2 POP PUSH2 0x6B9 DUP4 PUSH2 0x2B3 JUMP JUMPDEST SWAP3 POP DUP3 DUP3 ADD SWAP1 POP DUP1 DUP3 GT ISZERO PUSH2 0x6D1 JUMPI PUSH2 0x6D0 PUSH2 0x3CE JUMP JUMPDEST JUMPDEST SWAP3 SWAP2 POP POP JUMP JUMPDEST PUSH32 0x4E487B7100000000000000000000000000000000000000000000000000000000 PUSH0 MSTORE PUSH1 0x32 PUSH1 0x4 MSTORE PUSH1 0x24 PUSH0 REVERT INVALID LOG2 PUSH5 0x6970667358 0x22 SLT KECCAK256 ADD RETURN PC SLT 0xC2 PUSH29 0xACE96A2F53E4956FF2EB4E062158B69CC1DFBFDA527B4947A6C764736F PUSH13 0x634300081A0033000000000000 "
		},
		"gasEstimates": {
			"creation": {
				"codeDepositCost": "370000",
				"executionCost": "403",
				"totalCost": "370403"
			},
			"external": {
				"timeConvert(uint256)": "infinite"
			},
			"internal": {
				"uintToString(uint256)": "infinite"
			}
		},
		"methodIdentifiers": {
			"timeConvert(uint256)": "c27fbc5b"
		}
	},
	"abi": [
		{
			"inputs": [
				{
					"internalType": "uint256",
					"name": "_n",
					"type": "uint256"
				}
			],
			"name": "timeConvert",
			"outputs": [
				{
					"internalType": "string",
					"name": "",
					"type": "string"
				}
			],
			"stateMutability": "pure",
			"type": "function"
		}
	]
}