{
	"codingtest/refactor_codingtest/codingtest_241231.sol": {
		"TEACHER": {
			"abi": [
				{
					"inputs": [
						{
							"internalType": "string",
							"name": "name",
							"type": "string"
						},
						{
							"internalType": "uint256",
							"name": "number",
							"type": "uint256"
						},
						{
							"internalType": "uint256",
							"name": "score",
							"type": "uint256"
						},
						{
							"internalType": "string[]",
							"name": "classes",
							"type": "string[]"
						}
					],
					"name": "addStudent",
					"outputs": [],
					"stateMutability": "nonpayable",
					"type": "function"
				},
				{
					"inputs": [],
					"name": "evaluateTeacher",
					"outputs": [
						{
							"internalType": "bool",
							"name": "",
							"type": "bool"
						}
					],
					"stateMutability": "view",
					"type": "function"
				},
				{
					"inputs": [
						{
							"internalType": "string",
							"name": "_name",
							"type": "string"
						}
					],
					"name": "findStudentByName",
					"outputs": [
						{
							"components": [
								{
									"internalType": "string",
									"name": "name",
									"type": "string"
								},
								{
									"internalType": "uint256",
									"name": "number",
									"type": "uint256"
								},
								{
									"internalType": "uint256",
									"name": "score",
									"type": "uint256"
								},
								{
									"internalType": "string",
									"name": "grade",
									"type": "string"
								},
								{
									"internalType": "string[]",
									"name": "classes",
									"type": "string[]"
								}
							],
							"internalType": "struct TEACHER.STUDENT",
							"name": "",
							"type": "tuple"
						}
					],
					"stateMutability": "view",
					"type": "function"
				},
				{
					"inputs": [
						{
							"internalType": "uint256",
							"name": "_number",
							"type": "uint256"
						}
					],
					"name": "findStudentByNumber",
					"outputs": [
						{
							"components": [
								{
									"internalType": "string",
									"name": "name",
									"type": "string"
								},
								{
									"internalType": "uint256",
									"name": "number",
									"type": "uint256"
								},
								{
									"internalType": "uint256",
									"name": "score",
									"type": "uint256"
								},
								{
									"internalType": "string",
									"name": "grade",
									"type": "string"
								},
								{
									"internalType": "string[]",
									"name": "classes",
									"type": "string[]"
								}
							],
							"internalType": "struct TEACHER.STUDENT",
							"name": "",
							"type": "tuple"
						}
					],
					"stateMutability": "view",
					"type": "function"
				},
				{
					"inputs": [
						{
							"internalType": "string",
							"name": "_name",
							"type": "string"
						}
					],
					"name": "findStudentScoreByName",
					"outputs": [
						{
							"internalType": "uint256",
							"name": "",
							"type": "uint256"
						}
					],
					"stateMutability": "view",
					"type": "function"
				},
				{
					"inputs": [],
					"name": "getAllStudents",
					"outputs": [
						{
							"components": [
								{
									"internalType": "string",
									"name": "name",
									"type": "string"
								},
								{
									"internalType": "uint256",
									"name": "number",
									"type": "uint256"
								},
								{
									"internalType": "uint256",
									"name": "score",
									"type": "uint256"
								},
								{
									"internalType": "string",
									"name": "grade",
									"type": "string"
								},
								{
									"internalType": "string[]",
									"name": "classes",
									"type": "string[]"
								}
							],
							"internalType": "struct TEACHER.STUDENT[]",
							"name": "",
							"type": "tuple[]"
						}
					],
					"stateMutability": "view",
					"type": "function"
				},
				{
					"inputs": [],
					"name": "getAllStudentsNumber",
					"outputs": [
						{
							"internalType": "uint256[]",
							"name": "",
							"type": "uint256[]"
						}
					],
					"stateMutability": "view",
					"type": "function"
				},
				{
					"inputs": [],
					"name": "getFStudents",
					"outputs": [
						{
							"components": [
								{
									"internalType": "string",
									"name": "name",
									"type": "string"
								},
								{
									"internalType": "uint256",
									"name": "number",
									"type": "uint256"
								},
								{
									"internalType": "uint256",
									"name": "score",
									"type": "uint256"
								},
								{
									"internalType": "string",
									"name": "grade",
									"type": "string"
								},
								{
									"internalType": "string[]",
									"name": "classes",
									"type": "string[]"
								}
							],
							"internalType": "struct TEACHER.STUDENT[]",
							"name": "",
							"type": "tuple[]"
						}
					],
					"stateMutability": "view",
					"type": "function"
				},
				{
					"inputs": [],
					"name": "getSStudents",
					"outputs": [
						{
							"components": [
								{
									"internalType": "string",
									"name": "name",
									"type": "string"
								},
								{
									"internalType": "uint256",
									"name": "number",
									"type": "uint256"
								},
								{
									"internalType": "uint256",
									"name": "score",
									"type": "uint256"
								},
								{
									"internalType": "string",
									"name": "grade",
									"type": "string"
								},
								{
									"internalType": "string[]",
									"name": "classes",
									"type": "string[]"
								}
							],
							"internalType": "struct TEACHER.STUDENT[]",
							"name": "",
							"type": "tuple[]"
						}
					],
					"stateMutability": "view",
					"type": "function"
				},
				{
					"inputs": [],
					"name": "getScoreAVG",
					"outputs": [
						{
							"internalType": "uint256",
							"name": "",
							"type": "uint256"
						}
					],
					"stateMutability": "view",
					"type": "function"
				},
				{
					"inputs": [
						{
							"internalType": "uint256",
							"name": "",
							"type": "uint256"
						}
					],
					"name": "students",
					"outputs": [
						{
							"internalType": "string",
							"name": "name",
							"type": "string"
						},
						{
							"internalType": "uint256",
							"name": "number",
							"type": "uint256"
						},
						{
							"internalType": "uint256",
							"name": "score",
							"type": "uint256"
						},
						{
							"internalType": "string",
							"name": "grade",
							"type": "string"
						}
					],
					"stateMutability": "view",
					"type": "function"
				}
			],
			"devdoc": {
				"kind": "dev",
				"methods": {},
				"version": 1
			},
			"evm": {
				"assembly": "    /* \"codingtest/refactor_codingtest/codingtest_241231.sol\":1906:5938  contract TEACHER {... */\n  mstore(0x40, 0x80)\n  callvalue\n  dup1\n  iszero\n  tag_1\n  jumpi\n  0x00\n  dup1\n  revert\ntag_1:\n  pop\n  dataSize(sub_0)\n  dup1\n  dataOffset(sub_0)\n  0x00\n  codecopy\n  0x00\n  return\nstop\n\nsub_0: assembly {\n        /* \"codingtest/refactor_codingtest/codingtest_241231.sol\":1906:5938  contract TEACHER {... */\n      mstore(0x40, 0x80)\n      callvalue\n      dup1\n      iszero\n      tag_1\n      jumpi\n      0x00\n      dup1\n      revert\n    tag_1:\n      pop\n      jumpi(tag_2, lt(calldatasize, 0x04))\n      shr(0xe0, calldataload(0x00))\n      dup1\n      0xa13a1c13\n      gt\n      tag_14\n      jumpi\n      dup1\n      0xa13a1c13\n      eq\n      tag_8\n      jumpi\n      dup1\n      0xa4545c0d\n      eq\n      tag_9\n      jumpi\n      dup1\n      0xd73ce6c1\n      eq\n      tag_10\n      jumpi\n      dup1\n      0xe9e30927\n      eq\n      tag_11\n      jumpi\n      dup1\n      0xec08df36\n      eq\n      tag_12\n      jumpi\n      dup1\n      0xf8c8dee8\n      eq\n      tag_13\n      jumpi\n      jump(tag_2)\n    tag_14:\n      dup1\n      0x06ead22e\n      eq\n      tag_3\n      jumpi\n      dup1\n      0x27f7c259\n      eq\n      tag_4\n      jumpi\n      dup1\n      0x3c51cdca\n      eq\n      tag_5\n      jumpi\n      dup1\n      0x416c632b\n      eq\n      tag_6\n      jumpi\n      dup1\n      0x98463c74\n      eq\n      tag_7\n      jumpi\n    tag_2:\n      0x00\n      dup1\n      revert\n        /* \"codingtest/refactor_codingtest/codingtest_241231.sol\":2073:2098  STUDENT[] public students */\n    tag_3:\n      tag_15\n      0x04\n      dup1\n      calldatasize\n      sub\n      dup2\n      add\n      swap1\n      tag_16\n      swap2\n      swap1\n      tag_17\n      jump\t// in\n    tag_16:\n      tag_18\n      jump\t// in\n    tag_15:\n      mload(0x40)\n      tag_19\n      swap5\n      swap4\n      swap3\n      swap2\n      swap1\n      tag_20\n      jump\t// in\n    tag_19:\n      mload(0x40)\n      dup1\n      swap2\n      sub\n      swap1\n      return\n        /* \"codingtest/refactor_codingtest/codingtest_241231.sol\":4417:4514  function evaluateTeacher() public view returns (bool) {... */\n    tag_4:\n      tag_21\n      tag_22\n      jump\t// in\n    tag_21:\n      mload(0x40)\n      tag_23\n      swap2\n      swap1\n      tag_24\n      jump\t// in\n    tag_23:\n      mload(0x40)\n      dup1\n      swap2\n      sub\n      swap1\n      return\n        /* \"codingtest/refactor_codingtest/codingtest_241231.sol\":5144:5936  function getSStudents() public view returns (STUDENT[] memory) {... */\n    tag_5:\n      tag_25\n      tag_26\n      jump\t// in\n    tag_25:\n      mload(0x40)\n      tag_27\n      swap2\n      swap1\n      tag_28\n      jump\t// in\n    tag_27:\n      mload(0x40)\n      dup1\n      swap2\n      sub\n      swap1\n      return\n        /* \"codingtest/refactor_codingtest/codingtest_241231.sol\":3484:3727  function findStudentScoreByName(string memory _name) public view returns (uint256) {... */\n    tag_6:\n      tag_29\n      0x04\n      dup1\n      calldatasize\n      sub\n      dup2\n      add\n      swap1\n      tag_30\n      swap2\n      swap1\n      tag_31\n      jump\t// in\n    tag_30:\n      tag_32\n      jump\t// in\n    tag_29:\n      mload(0x40)\n      tag_33\n      swap2\n      swap1\n      tag_34\n      jump\t// in\n    tag_33:\n      mload(0x40)\n      dup1\n      swap2\n      sub\n      swap1\n      return\n        /* \"codingtest/refactor_codingtest/codingtest_241231.sol\":4520:5138  function getFStudents() public view returns (STUDENT[] memory) {... */\n    tag_7:\n      tag_35\n      tag_36\n      jump\t// in\n    tag_35:\n      mload(0x40)\n      tag_37\n      swap2\n      swap1\n      tag_28\n      jump\t// in\n    tag_37:\n      mload(0x40)\n      dup1\n      swap2\n      sub\n      swap1\n      return\n        /* \"codingtest/refactor_codingtest/codingtest_241231.sol\":2926:3233  function findStudentByNumber(uint256 _number) public view returns (STUDENT memory) {... */\n    tag_8:\n      tag_38\n      0x04\n      dup1\n      calldatasize\n      sub\n      dup2\n      add\n      swap1\n      tag_39\n      swap2\n      swap1\n      tag_17\n      jump\t// in\n    tag_39:\n      tag_40\n      jump\t// in\n    tag_38:\n      mload(0x40)\n      tag_41\n      swap2\n      swap1\n      tag_42\n      jump\t// in\n    tag_41:\n      mload(0x40)\n      dup1\n      swap2\n      sub\n      swap1\n      return\n        /* \"codingtest/refactor_codingtest/codingtest_241231.sol\":2528:2920  function addStudent(... */\n    tag_9:\n      tag_43\n      0x04\n      dup1\n      calldatasize\n      sub\n      dup2\n      add\n      swap1\n      tag_44\n      swap2\n      swap1\n      tag_45\n      jump\t// in\n    tag_44:\n      tag_46\n      jump\t// in\n    tag_43:\n      stop\n        /* \"codingtest/refactor_codingtest/codingtest_241231.sol\":3239:3478  function findStudentByName(string memory _name) public view returns (STUDENT memory) {... */\n    tag_10:\n      tag_47\n      0x04\n      dup1\n      calldatasize\n      sub\n      dup2\n      add\n      swap1\n      tag_48\n      swap2\n      swap1\n      tag_31\n      jump\t// in\n    tag_48:\n      tag_49\n      jump\t// in\n    tag_47:\n      mload(0x40)\n      tag_50\n      swap2\n      swap1\n      tag_42\n      jump\t// in\n    tag_50:\n      mload(0x40)\n      dup1\n      swap2\n      sub\n      swap1\n      return\n        /* \"codingtest/refactor_codingtest/codingtest_241231.sol\":4016:4113  function getAllStudents() public view returns (STUDENT[] memory) {... */\n    tag_11:\n      tag_51\n      tag_52\n      jump\t// in\n    tag_51:\n      mload(0x40)\n      tag_53\n      swap2\n      swap1\n      tag_28\n      jump\t// in\n    tag_53:\n      mload(0x40)\n      dup1\n      swap2\n      sub\n      swap1\n      return\n        /* \"codingtest/refactor_codingtest/codingtest_241231.sol\":3733:4010  function getAllStudentsNumber() public view returns (uint256[] memory) {... */\n    tag_12:\n      tag_54\n      tag_55\n      jump\t// in\n    tag_54:\n      mload(0x40)\n      tag_56\n      swap2\n      swap1\n      tag_57\n      jump\t// in\n    tag_56:\n      mload(0x40)\n      dup1\n      swap2\n      sub\n      swap1\n      return\n        /* \"codingtest/refactor_codingtest/codingtest_241231.sol\":4119:4411  function getScoreAVG() public view returns (uint256) {... */\n    tag_13:\n      tag_58\n      tag_59\n      jump\t// in\n    tag_58:\n      mload(0x40)\n      tag_60\n      swap2\n      swap1\n      tag_34\n      jump\t// in\n    tag_60:\n      mload(0x40)\n      dup1\n      swap2\n      sub\n      swap1\n      return\n        /* \"codingtest/refactor_codingtest/codingtest_241231.sol\":2073:2098  STUDENT[] public students */\n    tag_18:\n      0x00\n      dup2\n      dup2\n      sload\n      dup2\n      lt\n      tag_61\n      jumpi\n      0x00\n      dup1\n      revert\n    tag_61:\n      swap1\n      0x00\n      mstore\n      keccak256(0x00, 0x20)\n      swap1\n      0x05\n      mul\n      add\n      0x00\n      swap2\n      pop\n      swap1\n      pop\n      dup1\n      0x00\n      add\n      dup1\n      sload\n      tag_63\n      swap1\n      tag_64\n      jump\t// in\n    tag_63:\n      dup1\n      0x1f\n      add\n      0x20\n      dup1\n      swap2\n      div\n      mul\n      0x20\n      add\n      mload(0x40)\n      swap1\n      dup2\n      add\n      0x40\n      mstore\n      dup1\n      swap3\n      swap2\n      swap1\n      dup2\n      dup2\n      mstore\n      0x20\n      add\n      dup3\n      dup1\n      sload\n      tag_65\n      swap1\n      tag_64\n      jump\t// in\n    tag_65:\n      dup1\n      iszero\n      tag_66\n      jumpi\n      dup1\n      0x1f\n      lt\n      tag_67\n      jumpi\n      0x0100\n      dup1\n      dup4\n      sload\n      div\n      mul\n      dup4\n      mstore\n      swap2\n      0x20\n      add\n      swap2\n      jump(tag_66)\n    tag_67:\n      dup3\n      add\n      swap2\n      swap1\n      0x00\n      mstore\n      keccak256(0x00, 0x20)\n      swap1\n    tag_68:\n      dup2\n      sload\n      dup2\n      mstore\n      swap1\n      0x01\n      add\n      swap1\n      0x20\n      add\n      dup1\n      dup4\n      gt\n      tag_68\n      jumpi\n      dup3\n      swap1\n      sub\n      0x1f\n      and\n      dup3\n      add\n      swap2\n    tag_66:\n      pop\n      pop\n      pop\n      pop\n      pop\n      swap1\n      dup1\n      0x01\n      add\n      sload\n      swap1\n      dup1\n      0x02\n      add\n      sload\n      swap1\n      dup1\n      0x03\n      add\n      dup1\n      sload\n      tag_69\n      swap1\n      tag_64\n      jump\t// in\n    tag_69:\n      dup1\n      0x1f\n      add\n      0x20\n      dup1\n      swap2\n      div\n      mul\n      0x20\n      add\n      mload(0x40)\n      swap1\n      dup2\n      add\n      0x40\n      mstore\n      dup1\n      swap3\n      swap2\n      swap1\n      dup2\n      dup2\n      mstore\n      0x20\n      add\n      dup3\n      dup1\n      sload\n      tag_70\n      swap1\n      tag_64\n      jump\t// in\n    tag_70:\n      dup1\n      iszero\n      tag_71\n      jumpi\n      dup1\n      0x1f\n      lt\n      tag_72\n      jumpi\n      0x0100\n      dup1\n      dup4\n      sload\n      div\n      mul\n      dup4\n      mstore\n      swap2\n      0x20\n      add\n      swap2\n      jump(tag_71)\n    tag_72:\n      dup3\n      add\n      swap2\n      swap1\n      0x00\n      mstore\n      keccak256(0x00, 0x20)\n      swap1\n    tag_73:\n      dup2\n      sload\n      dup2\n      mstore\n      swap1\n      0x01\n      add\n      swap1\n      0x20\n      add\n      dup1\n      dup4\n      gt\n      tag_73\n      jumpi\n      dup3\n      swap1\n      sub\n      0x1f\n      and\n      dup3\n      add\n      swap2\n    tag_71:\n      pop\n      pop\n      pop\n      pop\n      pop\n      swap1\n      pop\n      dup5\n      jump\t// out\n        /* \"codingtest/refactor_codingtest/codingtest_241231.sol\":4417:4514  function evaluateTeacher() public view returns (bool) {... */\n    tag_22:\n        /* \"codingtest/refactor_codingtest/codingtest_241231.sol\":4465:4469  bool */\n      0x00\n        /* \"codingtest/refactor_codingtest/codingtest_241231.sol\":4505:4507  70 */\n      0x46\n        /* \"codingtest/refactor_codingtest/codingtest_241231.sol\":4488:4501  getScoreAVG() */\n      tag_75\n        /* \"codingtest/refactor_codingtest/codingtest_241231.sol\":4488:4499  getScoreAVG */\n      tag_59\n        /* \"codingtest/refactor_codingtest/codingtest_241231.sol\":4488:4501  getScoreAVG() */\n      jump\t// in\n    tag_75:\n        /* \"codingtest/refactor_codingtest/codingtest_241231.sol\":4488:4507  getScoreAVG() >= 70 */\n      lt\n      iszero\n        /* \"codingtest/refactor_codingtest/codingtest_241231.sol\":4481:4507  return getScoreAVG() >= 70 */\n      swap1\n      pop\n        /* \"codingtest/refactor_codingtest/codingtest_241231.sol\":4417:4514  function evaluateTeacher() public view returns (bool) {... */\n      swap1\n      jump\t// out\n        /* \"codingtest/refactor_codingtest/codingtest_241231.sol\":5144:5936  function getSStudents() public view returns (STUDENT[] memory) {... */\n    tag_26:\n        /* \"codingtest/refactor_codingtest/codingtest_241231.sol\":5189:5205  STUDENT[] memory */\n      0x60\n        /* \"codingtest/refactor_codingtest/codingtest_241231.sol\":5217:5233  uint256 topCount */\n      0x00\n        /* \"codingtest/refactor_codingtest/codingtest_241231.sol\":5254:5255  4 */\n      0x04\n        /* \"codingtest/refactor_codingtest/codingtest_241231.sol\":5236:5244  students */\n      0x00\n        /* \"codingtest/refactor_codingtest/codingtest_241231.sol\":5236:5251  students.length */\n      dup1\n      sload\n      swap1\n      pop\n        /* \"codingtest/refactor_codingtest/codingtest_241231.sol\":5236:5255  students.length < 4 */\n      lt\n        /* \"codingtest/refactor_codingtest/codingtest_241231.sol\":5236:5277  students.length < 4 ? students.length : 4 */\n      tag_77\n      jumpi\n        /* \"codingtest/refactor_codingtest/codingtest_241231.sol\":5276:5277  4 */\n      0x04\n        /* \"codingtest/refactor_codingtest/codingtest_241231.sol\":5236:5277  students.length < 4 ? students.length : 4 */\n      jump(tag_78)\n    tag_77:\n        /* \"codingtest/refactor_codingtest/codingtest_241231.sol\":5258:5266  students */\n      0x00\n        /* \"codingtest/refactor_codingtest/codingtest_241231.sol\":5258:5273  students.length */\n      dup1\n      sload\n      swap1\n      pop\n        /* \"codingtest/refactor_codingtest/codingtest_241231.sol\":5236:5277  students.length < 4 ? students.length : 4 */\n    tag_78:\n        /* \"codingtest/refactor_codingtest/codingtest_241231.sol\":5217:5277  uint256 topCount = students.length < 4 ? students.length : 4 */\n      swap1\n      pop\n        /* \"codingtest/refactor_codingtest/codingtest_241231.sol\":5288:5319  STUDENT[] memory sortedStudents */\n      0x00\n        /* \"codingtest/refactor_codingtest/codingtest_241231.sol\":5322:5330  students */\n      dup1\n        /* \"codingtest/refactor_codingtest/codingtest_241231.sol\":5288:5330  STUDENT[] memory sortedStudents = students */\n      dup1\n      sload\n      dup1\n      0x20\n      mul\n      0x20\n      add\n      mload(0x40)\n      swap1\n      dup2\n      add\n      0x40\n      mstore\n      dup1\n      swap3\n      swap2\n      swap1\n      dup2\n      dup2\n      mstore\n      0x20\n      add\n      0x00\n      swap1\n    tag_79:\n      dup3\n      dup3\n      lt\n      iszero\n      tag_80\n      jumpi\n      dup4\n      dup3\n      swap1\n      0x00\n      mstore\n      keccak256(0x00, 0x20)\n      swap1\n      0x05\n      mul\n      add\n      mload(0x40)\n      dup1\n      0xa0\n      add\n      0x40\n      mstore\n      swap1\n      dup2\n      0x00\n      dup3\n      add\n      dup1\n      sload\n      tag_82\n      swap1\n      tag_64\n      jump\t// in\n    tag_82:\n      dup1\n      0x1f\n      add\n      0x20\n      dup1\n      swap2\n      div\n      mul\n      0x20\n      add\n      mload(0x40)\n      swap1\n      dup2\n      add\n      0x40\n      mstore\n      dup1\n      swap3\n      swap2\n      swap1\n      dup2\n      dup2\n      mstore\n      0x20\n      add\n      dup3\n      dup1\n      sload\n      tag_83\n      swap1\n      tag_64\n      jump\t// in\n    tag_83:\n      dup1\n      iszero\n      tag_84\n      jumpi\n      dup1\n      0x1f\n      lt\n      tag_85\n      jumpi\n      0x0100\n      dup1\n      dup4\n      sload\n      div\n      mul\n      dup4\n      mstore\n      swap2\n      0x20\n      add\n      swap2\n      jump(tag_84)\n    tag_85:\n      dup3\n      add\n      swap2\n      swap1\n      0x00\n      mstore\n      keccak256(0x00, 0x20)\n      swap1\n    tag_86:\n      dup2\n      sload\n      dup2\n      mstore\n      swap1\n      0x01\n      add\n      swap1\n      0x20\n      add\n      dup1\n      dup4\n      gt\n      tag_86\n      jumpi\n      dup3\n      swap1\n      sub\n      0x1f\n      and\n      dup3\n      add\n      swap2\n    tag_84:\n      pop\n      pop\n      pop\n      pop\n      pop\n      dup2\n      mstore\n      0x20\n      add\n      0x01\n      dup3\n      add\n      sload\n      dup2\n      mstore\n      0x20\n      add\n      0x02\n      dup3\n      add\n      sload\n      dup2\n      mstore\n      0x20\n      add\n      0x03\n      dup3\n      add\n      dup1\n      sload\n      tag_87\n      swap1\n      tag_64\n      jump\t// in\n    tag_87:\n      dup1\n      0x1f\n      add\n      0x20\n      dup1\n      swap2\n      div\n      mul\n      0x20\n      add\n      mload(0x40)\n      swap1\n      dup2\n      add\n      0x40\n      mstore\n      dup1\n      swap3\n      swap2\n      swap1\n      dup2\n      dup2\n      mstore\n      0x20\n      add\n      dup3\n      dup1\n      sload\n      tag_88\n      swap1\n      tag_64\n      jump\t// in\n    tag_88:\n      dup1\n      iszero\n      tag_89\n      jumpi\n      dup1\n      0x1f\n      lt\n      tag_90\n      jumpi\n      0x0100\n      dup1\n      dup4\n      sload\n      div\n      mul\n      dup4\n      mstore\n      swap2\n      0x20\n      add\n      swap2\n      jump(tag_89)\n    tag_90:\n      dup3\n      add\n      swap2\n      swap1\n      0x00\n      mstore\n      keccak256(0x00, 0x20)\n      swap1\n    tag_91:\n      dup2\n      sload\n      dup2\n      mstore\n      swap1\n      0x01\n      add\n      swap1\n      0x20\n      add\n      dup1\n      dup4\n      gt\n      tag_91\n      jumpi\n      dup3\n      swap1\n      sub\n      0x1f\n      and\n      dup3\n      add\n      swap2\n    tag_89:\n      pop\n      pop\n      pop\n      pop\n      pop\n      dup2\n      mstore\n      0x20\n      add\n      0x04\n      dup3\n      add\n      dup1\n      sload\n      dup1\n      0x20\n      mul\n      0x20\n      add\n      mload(0x40)\n      swap1\n      dup2\n      add\n      0x40\n      mstore\n      dup1\n      swap3\n      swap2\n      swap1\n      dup2\n      dup2\n      mstore\n      0x20\n      add\n      0x00\n      swap1\n    tag_92:\n      dup3\n      dup3\n      lt\n      iszero\n      tag_93\n      jumpi\n      dup4\n      dup3\n      swap1\n      0x00\n      mstore\n      keccak256(0x00, 0x20)\n      add\n      dup1\n      sload\n      tag_95\n      swap1\n      tag_64\n      jump\t// in\n    tag_95:\n      dup1\n      0x1f\n      add\n      0x20\n      dup1\n      swap2\n      div\n      mul\n      0x20\n      add\n      mload(0x40)\n      swap1\n      dup2\n      add\n      0x40\n      mstore\n      dup1\n      swap3\n      swap2\n      swap1\n      dup2\n      dup2\n      mstore\n      0x20\n      add\n      dup3\n      dup1\n      sload\n      tag_96\n      swap1\n      tag_64\n      jump\t// in\n    tag_96:\n      dup1\n      iszero\n      tag_97\n      jumpi\n      dup1\n      0x1f\n      lt\n      tag_98\n      jumpi\n      0x0100\n      dup1\n      dup4\n      sload\n      div\n      mul\n      dup4\n      mstore\n      swap2\n      0x20\n      add\n      swap2\n      jump(tag_97)\n    tag_98:\n      dup3\n      add\n      swap2\n      swap1\n      0x00\n      mstore\n      keccak256(0x00, 0x20)\n      swap1\n    tag_99:\n      dup2\n      sload\n      dup2\n      mstore\n      swap1\n      0x01\n      add\n      swap1\n      0x20\n      add\n      dup1\n      dup4\n      gt\n      tag_99\n      jumpi\n      dup3\n      swap1\n      sub\n      0x1f\n      and\n      dup3\n      add\n      swap2\n    tag_97:\n      pop\n      pop\n      pop\n      pop\n      pop\n      dup2\n      mstore\n      0x20\n      add\n      swap1\n      0x01\n      add\n      swap1\n      jump(tag_92)\n    tag_93:\n      pop\n      pop\n      pop\n      pop\n      dup2\n      mstore\n      pop\n      pop\n      dup2\n      mstore\n      0x20\n      add\n      swap1\n      0x01\n      add\n      swap1\n      jump(tag_79)\n    tag_80:\n      pop\n      pop\n      pop\n      pop\n      swap1\n      pop\n        /* \"codingtest/refactor_codingtest/codingtest_241231.sol\":5345:5354  uint256 i */\n      0x00\n        /* \"codingtest/refactor_codingtest/codingtest_241231.sol\":5340:5744  for (uint256 i = 0; i < sortedStudents.length; i++) {... */\n    tag_100:\n        /* \"codingtest/refactor_codingtest/codingtest_241231.sol\":5364:5378  sortedStudents */\n      dup2\n        /* \"codingtest/refactor_codingtest/codingtest_241231.sol\":5364:5385  sortedStudents.length */\n      mload\n        /* \"codingtest/refactor_codingtest/codingtest_241231.sol\":5360:5361  i */\n      dup2\n        /* \"codingtest/refactor_codingtest/codingtest_241231.sol\":5360:5385  i < sortedStudents.length */\n      lt\n        /* \"codingtest/refactor_codingtest/codingtest_241231.sol\":5340:5744  for (uint256 i = 0; i < sortedStudents.length; i++) {... */\n      iszero\n      tag_101\n      jumpi\n        /* \"codingtest/refactor_codingtest/codingtest_241231.sol\":5411:5420  uint256 j */\n      0x00\n        /* \"codingtest/refactor_codingtest/codingtest_241231.sol\":5427:5428  1 */\n      0x01\n        /* \"codingtest/refactor_codingtest/codingtest_241231.sol\":5423:5424  i */\n      dup3\n        /* \"codingtest/refactor_codingtest/codingtest_241231.sol\":5423:5428  i + 1 */\n      tag_106\n      swap2\n      swap1\n      tag_107\n      jump\t// in\n    tag_106:\n        /* \"codingtest/refactor_codingtest/codingtest_241231.sol\":5411:5428  uint256 j = i + 1 */\n      swap1\n      pop\n        /* \"codingtest/refactor_codingtest/codingtest_241231.sol\":5406:5734  for (uint256 j = i + 1; j < sortedStudents.length; j++) {... */\n    tag_103:\n        /* \"codingtest/refactor_codingtest/codingtest_241231.sol\":5434:5448  sortedStudents */\n      dup3\n        /* \"codingtest/refactor_codingtest/codingtest_241231.sol\":5434:5455  sortedStudents.length */\n      mload\n        /* \"codingtest/refactor_codingtest/codingtest_241231.sol\":5430:5431  j */\n      dup2\n        /* \"codingtest/refactor_codingtest/codingtest_241231.sol\":5430:5455  j < sortedStudents.length */\n      lt\n        /* \"codingtest/refactor_codingtest/codingtest_241231.sol\":5406:5734  for (uint256 j = i + 1; j < sortedStudents.length; j++) {... */\n      iszero\n      tag_104\n      jumpi\n        /* \"codingtest/refactor_codingtest/codingtest_241231.sol\":5510:5524  sortedStudents */\n      dup3\n        /* \"codingtest/refactor_codingtest/codingtest_241231.sol\":5525:5526  j */\n      dup2\n        /* \"codingtest/refactor_codingtest/codingtest_241231.sol\":5510:5527  sortedStudents[j] */\n      dup2\n      mload\n      dup2\n      lt\n      tag_108\n      jumpi\n      tag_109\n      tag_110\n      jump\t// in\n    tag_109:\n    tag_108:\n      0x20\n      mul\n      0x20\n      add\n      add\n      mload\n        /* \"codingtest/refactor_codingtest/codingtest_241231.sol\":5510:5533  sortedStudents[j].score */\n      0x40\n      add\n      mload\n        /* \"codingtest/refactor_codingtest/codingtest_241231.sol\":5484:5498  sortedStudents */\n      dup4\n        /* \"codingtest/refactor_codingtest/codingtest_241231.sol\":5499:5500  i */\n      dup4\n        /* \"codingtest/refactor_codingtest/codingtest_241231.sol\":5484:5501  sortedStudents[i] */\n      dup2\n      mload\n      dup2\n      lt\n      tag_111\n      jumpi\n      tag_112\n      tag_110\n      jump\t// in\n    tag_112:\n    tag_111:\n      0x20\n      mul\n      0x20\n      add\n      add\n      mload\n        /* \"codingtest/refactor_codingtest/codingtest_241231.sol\":5484:5507  sortedStudents[i].score */\n      0x40\n      add\n      mload\n        /* \"codingtest/refactor_codingtest/codingtest_241231.sol\":5484:5533  sortedStudents[i].score < sortedStudents[j].score */\n      lt\n        /* \"codingtest/refactor_codingtest/codingtest_241231.sol\":5480:5720  if (sortedStudents[i].score < sortedStudents[j].score) {... */\n      iszero\n      tag_113\n      jumpi\n        /* \"codingtest/refactor_codingtest/codingtest_241231.sol\":5557:5576  STUDENT memory temp */\n      0x00\n        /* \"codingtest/refactor_codingtest/codingtest_241231.sol\":5579:5593  sortedStudents */\n      dup4\n        /* \"codingtest/refactor_codingtest/codingtest_241231.sol\":5594:5595  i */\n      dup4\n        /* \"codingtest/refactor_codingtest/codingtest_241231.sol\":5579:5596  sortedStudents[i] */\n      dup2\n      mload\n      dup2\n      lt\n      tag_114\n      jumpi\n      tag_115\n      tag_110\n      jump\t// in\n    tag_115:\n    tag_114:\n      0x20\n      mul\n      0x20\n      add\n      add\n      mload\n        /* \"codingtest/refactor_codingtest/codingtest_241231.sol\":5557:5596  STUDENT memory temp = sortedStudents[i] */\n      swap1\n      pop\n        /* \"codingtest/refactor_codingtest/codingtest_241231.sol\":5638:5652  sortedStudents */\n      dup4\n        /* \"codingtest/refactor_codingtest/codingtest_241231.sol\":5653:5654  j */\n      dup3\n        /* \"codingtest/refactor_codingtest/codingtest_241231.sol\":5638:5655  sortedStudents[j] */\n      dup2\n      mload\n      dup2\n      lt\n      tag_116\n      jumpi\n      tag_117\n      tag_110\n      jump\t// in\n    tag_117:\n    tag_116:\n      0x20\n      mul\n      0x20\n      add\n      add\n      mload\n        /* \"codingtest/refactor_codingtest/codingtest_241231.sol\":5618:5632  sortedStudents */\n      dup5\n        /* \"codingtest/refactor_codingtest/codingtest_241231.sol\":5633:5634  i */\n      dup5\n        /* \"codingtest/refactor_codingtest/codingtest_241231.sol\":5618:5635  sortedStudents[i] */\n      dup2\n      mload\n      dup2\n      lt\n      tag_118\n      jumpi\n      tag_119\n      tag_110\n      jump\t// in\n    tag_119:\n    tag_118:\n      0x20\n      mul\n      0x20\n      add\n      add\n        /* \"codingtest/refactor_codingtest/codingtest_241231.sol\":5618:5655  sortedStudents[i] = sortedStudents[j] */\n      dup2\n      swap1\n      mstore\n      pop\n        /* \"codingtest/refactor_codingtest/codingtest_241231.sol\":5697:5701  temp */\n      dup1\n        /* \"codingtest/refactor_codingtest/codingtest_241231.sol\":5677:5691  sortedStudents */\n      dup5\n        /* \"codingtest/refactor_codingtest/codingtest_241231.sol\":5692:5693  j */\n      dup4\n        /* \"codingtest/refactor_codingtest/codingtest_241231.sol\":5677:5694  sortedStudents[j] */\n      dup2\n      mload\n      dup2\n      lt\n      tag_120\n      jumpi\n      tag_121\n      tag_110\n      jump\t// in\n    tag_121:\n    tag_120:\n      0x20\n      mul\n      0x20\n      add\n      add\n        /* \"codingtest/refactor_codingtest/codingtest_241231.sol\":5677:5701  sortedStudents[j] = temp */\n      dup2\n      swap1\n      mstore\n      pop\n        /* \"codingtest/refactor_codingtest/codingtest_241231.sol\":5535:5720  {... */\n      pop\n        /* \"codingtest/refactor_codingtest/codingtest_241231.sol\":5480:5720  if (sortedStudents[i].score < sortedStudents[j].score) {... */\n    tag_113:\n        /* \"codingtest/refactor_codingtest/codingtest_241231.sol\":5457:5460  j++ */\n      dup1\n      dup1\n      0x01\n      add\n      swap2\n      pop\n      pop\n        /* \"codingtest/refactor_codingtest/codingtest_241231.sol\":5406:5734  for (uint256 j = i + 1; j < sortedStudents.length; j++) {... */\n      jump(tag_103)\n    tag_104:\n      pop\n        /* \"codingtest/refactor_codingtest/codingtest_241231.sol\":5387:5390  i++ */\n      dup1\n      dup1\n      0x01\n      add\n      swap2\n      pop\n      pop\n        /* \"codingtest/refactor_codingtest/codingtest_241231.sol\":5340:5744  for (uint256 i = 0; i < sortedStudents.length; i++) {... */\n      jump(tag_100)\n    tag_101:\n      pop\n        /* \"codingtest/refactor_codingtest/codingtest_241231.sol\":5754:5777  STUDENT[] memory result */\n      0x00\n        /* \"codingtest/refactor_codingtest/codingtest_241231.sol\":5794:5802  topCount */\n      dup3\n        /* \"codingtest/refactor_codingtest/codingtest_241231.sol\":5780:5803  new STUDENT[](topCount) */\n      0xffffffffffffffff\n      dup2\n      gt\n      iszero\n      tag_122\n      jumpi\n      tag_123\n      tag_124\n      jump\t// in\n    tag_123:\n    tag_122:\n      mload(0x40)\n      swap1\n      dup1\n      dup3\n      mstore\n      dup1\n      0x20\n      mul\n      0x20\n      add\n      dup3\n      add\n      0x40\n      mstore\n      dup1\n      iszero\n      tag_125\n      jumpi\n      dup2\n      0x20\n      add\n    tag_126:\n      tag_127\n      tag_128\n      jump\t// in\n    tag_127:\n      dup2\n      mstore\n      0x20\n      add\n      swap1\n      0x01\n      swap1\n      sub\n      swap1\n      dup2\n      tag_126\n      jumpi\n      swap1\n      pop\n    tag_125:\n      pop\n        /* \"codingtest/refactor_codingtest/codingtest_241231.sol\":5754:5803  STUDENT[] memory result = new STUDENT[](topCount) */\n      swap1\n      pop\n        /* \"codingtest/refactor_codingtest/codingtest_241231.sol\":5818:5827  uint256 i */\n      0x00\n        /* \"codingtest/refactor_codingtest/codingtest_241231.sol\":5813:5906  for (uint256 i = 0; i < topCount; i++) {... */\n    tag_129:\n        /* \"codingtest/refactor_codingtest/codingtest_241231.sol\":5837:5845  topCount */\n      dup4\n        /* \"codingtest/refactor_codingtest/codingtest_241231.sol\":5833:5834  i */\n      dup2\n        /* \"codingtest/refactor_codingtest/codingtest_241231.sol\":5833:5845  i < topCount */\n      lt\n        /* \"codingtest/refactor_codingtest/codingtest_241231.sol\":5813:5906  for (uint256 i = 0; i < topCount; i++) {... */\n      iszero\n      tag_130\n      jumpi\n        /* \"codingtest/refactor_codingtest/codingtest_241231.sol\":5878:5892  sortedStudents */\n      dup3\n        /* \"codingtest/refactor_codingtest/codingtest_241231.sol\":5893:5894  i */\n      dup2\n        /* \"codingtest/refactor_codingtest/codingtest_241231.sol\":5878:5895  sortedStudents[i] */\n      dup2\n      mload\n      dup2\n      lt\n      tag_132\n      jumpi\n      tag_133\n      tag_110\n      jump\t// in\n    tag_133:\n    tag_132:\n      0x20\n      mul\n      0x20\n      add\n      add\n      mload\n        /* \"codingtest/refactor_codingtest/codingtest_241231.sol\":5866:5872  result */\n      dup3\n        /* \"codingtest/refactor_codingtest/codingtest_241231.sol\":5873:5874  i */\n      dup3\n        /* \"codingtest/refactor_codingtest/codingtest_241231.sol\":5866:5875  result[i] */\n      dup2\n      mload\n      dup2\n      lt\n      tag_134\n      jumpi\n      tag_135\n      tag_110\n      jump\t// in\n    tag_135:\n    tag_134:\n      0x20\n      mul\n      0x20\n      add\n      add\n        /* \"codingtest/refactor_codingtest/codingtest_241231.sol\":5866:5895  result[i] = sortedStudents[i] */\n      dup2\n      swap1\n      mstore\n      pop\n        /* \"codingtest/refactor_codingtest/codingtest_241231.sol\":5847:5850  i++ */\n      dup1\n      dup1\n      0x01\n      add\n      swap2\n      pop\n      pop\n        /* \"codingtest/refactor_codingtest/codingtest_241231.sol\":5813:5906  for (uint256 i = 0; i < topCount; i++) {... */\n      jump(tag_129)\n    tag_130:\n      pop\n        /* \"codingtest/refactor_codingtest/codingtest_241231.sol\":5923:5929  result */\n      dup1\n        /* \"codingtest/refactor_codingtest/codingtest_241231.sol\":5916:5929  return result */\n      swap4\n      pop\n      pop\n      pop\n      pop\n        /* \"codingtest/refactor_codingtest/codingtest_241231.sol\":5144:5936  function getSStudents() public view returns (STUDENT[] memory) {... */\n      swap1\n      jump\t// out\n        /* \"codingtest/refactor_codingtest/codingtest_241231.sol\":3484:3727  function findStudentScoreByName(string memory _name) public view returns (uint256) {... */\n    tag_32:\n        /* \"codingtest/refactor_codingtest/codingtest_241231.sol\":3558:3565  uint256 */\n      0x00\n        /* \"codingtest/refactor_codingtest/codingtest_241231.sol\":3577:3590  uint256 index */\n      dup1\n        /* \"codingtest/refactor_codingtest/codingtest_241231.sol\":3593:3609  studentNameIndex */\n      0x01\n        /* \"codingtest/refactor_codingtest/codingtest_241231.sol\":3610:3615  _name */\n      dup4\n        /* \"codingtest/refactor_codingtest/codingtest_241231.sol\":3593:3616  studentNameIndex[_name] */\n      mload(0x40)\n      tag_137\n      swap2\n      swap1\n      tag_138\n      jump\t// in\n    tag_137:\n      swap1\n      dup2\n      mstore\n      0x20\n      add\n      mload(0x40)\n      dup1\n      swap2\n      sub\n      swap1\n      keccak256\n      sload\n        /* \"codingtest/refactor_codingtest/codingtest_241231.sol\":3577:3616  uint256 index = studentNameIndex[_name] */\n      swap1\n      pop\n        /* \"codingtest/refactor_codingtest/codingtest_241231.sol\":3642:3643  0 */\n      0x00\n        /* \"codingtest/refactor_codingtest/codingtest_241231.sol\":3634:3639  index */\n      dup2\n        /* \"codingtest/refactor_codingtest/codingtest_241231.sol\":3634:3643  index > 0 */\n      gt\n        /* \"codingtest/refactor_codingtest/codingtest_241231.sol\":3626:3678  require(index > 0, \"No student with the given name\") */\n      tag_139\n      jumpi\n      mload(0x40)\n      0x08c379a000000000000000000000000000000000000000000000000000000000\n      dup2\n      mstore\n      0x04\n      add\n      tag_140\n      swap1\n      tag_141\n      jump\t// in\n    tag_140:\n      mload(0x40)\n      dup1\n      swap2\n      sub\n      swap1\n      revert\n    tag_139:\n        /* \"codingtest/refactor_codingtest/codingtest_241231.sol\":3695:3703  students */\n      0x00\n        /* \"codingtest/refactor_codingtest/codingtest_241231.sol\":3712:3713  1 */\n      0x01\n        /* \"codingtest/refactor_codingtest/codingtest_241231.sol\":3704:3709  index */\n      dup3\n        /* \"codingtest/refactor_codingtest/codingtest_241231.sol\":3704:3713  index - 1 */\n      tag_142\n      swap2\n      swap1\n      tag_143\n      jump\t// in\n    tag_142:\n        /* \"codingtest/refactor_codingtest/codingtest_241231.sol\":3695:3714  students[index - 1] */\n      dup2\n      sload\n      dup2\n      lt\n      tag_144\n      jumpi\n      tag_145\n      tag_110\n      jump\t// in\n    tag_145:\n    tag_144:\n      swap1\n      0x00\n      mstore\n      keccak256(0x00, 0x20)\n      swap1\n      0x05\n      mul\n      add\n        /* \"codingtest/refactor_codingtest/codingtest_241231.sol\":3695:3720  students[index - 1].score */\n      0x02\n      add\n      sload\n        /* \"codingtest/refactor_codingtest/codingtest_241231.sol\":3688:3720  return students[index - 1].score */\n      swap2\n      pop\n      pop\n        /* \"codingtest/refactor_codingtest/codingtest_241231.sol\":3484:3727  function findStudentScoreByName(string memory _name) public view returns (uint256) {... */\n      swap2\n      swap1\n      pop\n      jump\t// out\n        /* \"codingtest/refactor_codingtest/codingtest_241231.sol\":4520:5138  function getFStudents() public view returns (STUDENT[] memory) {... */\n    tag_36:\n        /* \"codingtest/refactor_codingtest/codingtest_241231.sol\":4565:4581  STUDENT[] memory */\n      0x60\n        /* \"codingtest/refactor_codingtest/codingtest_241231.sol\":4593:4606  uint256 count */\n      0x00\n        /* \"codingtest/refactor_codingtest/codingtest_241231.sol\":4625:4634  uint256 i */\n      dup1\n        /* \"codingtest/refactor_codingtest/codingtest_241231.sol\":4620:4796  for (uint256 i = 0; i < students.length; i++) {... */\n    tag_148:\n        /* \"codingtest/refactor_codingtest/codingtest_241231.sol\":4644:4652  students */\n      0x00\n        /* \"codingtest/refactor_codingtest/codingtest_241231.sol\":4644:4659  students.length */\n      dup1\n      sload\n      swap1\n      pop\n        /* \"codingtest/refactor_codingtest/codingtest_241231.sol\":4640:4641  i */\n      dup2\n        /* \"codingtest/refactor_codingtest/codingtest_241231.sol\":4640:4659  i < students.length */\n      lt\n        /* \"codingtest/refactor_codingtest/codingtest_241231.sol\":4620:4796  for (uint256 i = 0; i < students.length; i++) {... */\n      iszero\n      tag_149\n      jumpi\n        /* \"codingtest/refactor_codingtest/codingtest_241231.sol\":4733:4743  bytes(\"F\") */\n      mload(0x40)\n      dup1\n      0x40\n      add\n      0x40\n      mstore\n      dup1\n      0x01\n      dup2\n      mstore\n      0x20\n      add\n      0x4600000000000000000000000000000000000000000000000000000000000000\n      dup2\n      mstore\n      pop\n        /* \"codingtest/refactor_codingtest/codingtest_241231.sol\":4723:4744  keccak256(bytes(\"F\")) */\n      dup1\n      mload\n      swap1\n      0x20\n      add\n      keccak256\n        /* \"codingtest/refactor_codingtest/codingtest_241231.sol\":4700:4708  students */\n      0x00\n        /* \"codingtest/refactor_codingtest/codingtest_241231.sol\":4709:4710  i */\n      dup3\n        /* \"codingtest/refactor_codingtest/codingtest_241231.sol\":4700:4711  students[i] */\n      dup2\n      sload\n      dup2\n      lt\n      tag_151\n      jumpi\n      tag_152\n      tag_110\n      jump\t// in\n    tag_152:\n    tag_151:\n      swap1\n      0x00\n      mstore\n      keccak256(0x00, 0x20)\n      swap1\n      0x05\n      mul\n      add\n        /* \"codingtest/refactor_codingtest/codingtest_241231.sol\":4700:4717  students[i].grade */\n      0x03\n      add\n        /* \"codingtest/refactor_codingtest/codingtest_241231.sol\":4684:4719  keccak256(bytes(students[i].grade)) */\n      mload(0x40)\n      tag_154\n      swap2\n      swap1\n      tag_155\n      jump\t// in\n    tag_154:\n      mload(0x40)\n      dup1\n      swap2\n      sub\n      swap1\n      keccak256\n        /* \"codingtest/refactor_codingtest/codingtest_241231.sol\":4684:4744  keccak256(bytes(students[i].grade)) == keccak256(bytes(\"F\")) */\n      sub\n        /* \"codingtest/refactor_codingtest/codingtest_241231.sol\":4680:4786  if (keccak256(bytes(students[i].grade)) == keccak256(bytes(\"F\"))) {... */\n      tag_156\n      jumpi\n        /* \"codingtest/refactor_codingtest/codingtest_241231.sol\":4764:4771  count++ */\n      dup2\n      dup1\n      tag_157\n      swap1\n      tag_158\n      jump\t// in\n    tag_157:\n      swap3\n      pop\n      pop\n        /* \"codingtest/refactor_codingtest/codingtest_241231.sol\":4680:4786  if (keccak256(bytes(students[i].grade)) == keccak256(bytes(\"F\"))) {... */\n    tag_156:\n        /* \"codingtest/refactor_codingtest/codingtest_241231.sol\":4661:4664  i++ */\n      dup1\n      dup1\n      0x01\n      add\n      swap2\n      pop\n      pop\n        /* \"codingtest/refactor_codingtest/codingtest_241231.sol\":4620:4796  for (uint256 i = 0; i < students.length; i++) {... */\n      jump(tag_148)\n    tag_149:\n      pop\n        /* \"codingtest/refactor_codingtest/codingtest_241231.sol\":4805:4828  STUDENT[] memory result */\n      0x00\n        /* \"codingtest/refactor_codingtest/codingtest_241231.sol\":4845:4850  count */\n      dup2\n        /* \"codingtest/refactor_codingtest/codingtest_241231.sol\":4831:4851  new STUDENT[](count) */\n      0xffffffffffffffff\n      dup2\n      gt\n      iszero\n      tag_159\n      jumpi\n      tag_160\n      tag_124\n      jump\t// in\n    tag_160:\n    tag_159:\n      mload(0x40)\n      swap1\n      dup1\n      dup3\n      mstore\n      dup1\n      0x20\n      mul\n      0x20\n      add\n      dup3\n      add\n      0x40\n      mstore\n      dup1\n      iszero\n      tag_161\n      jumpi\n      dup2\n      0x20\n      add\n    tag_162:\n      tag_163\n      tag_128\n      jump\t// in\n    tag_163:\n      dup2\n      mstore\n      0x20\n      add\n      swap1\n      0x01\n      swap1\n      sub\n      swap1\n      dup2\n      tag_162\n      jumpi\n      swap1\n      pop\n    tag_161:\n      pop\n        /* \"codingtest/refactor_codingtest/codingtest_241231.sol\":4805:4851  STUDENT[] memory result = new STUDENT[](count) */\n      swap1\n      pop\n        /* \"codingtest/refactor_codingtest/codingtest_241231.sol\":4861:4874  uint256 index */\n      0x00\n        /* \"codingtest/refactor_codingtest/codingtest_241231.sol\":4893:4902  uint256 i */\n      dup1\n        /* \"codingtest/refactor_codingtest/codingtest_241231.sol\":4888:5109  for (uint256 i = 0; i < students.length; i++) {... */\n    tag_164:\n        /* \"codingtest/refactor_codingtest/codingtest_241231.sol\":4912:4920  students */\n      0x00\n        /* \"codingtest/refactor_codingtest/codingtest_241231.sol\":4912:4927  students.length */\n      dup1\n      sload\n      swap1\n      pop\n        /* \"codingtest/refactor_codingtest/codingtest_241231.sol\":4908:4909  i */\n      dup2\n        /* \"codingtest/refactor_codingtest/codingtest_241231.sol\":4908:4927  i < students.length */\n      lt\n        /* \"codingtest/refactor_codingtest/codingtest_241231.sol\":4888:5109  for (uint256 i = 0; i < students.length; i++) {... */\n      iszero\n      tag_165\n      jumpi\n        /* \"codingtest/refactor_codingtest/codingtest_241231.sol\":5001:5011  bytes(\"F\") */\n      mload(0x40)\n      dup1\n      0x40\n      add\n      0x40\n      mstore\n      dup1\n      0x01\n      dup2\n      mstore\n      0x20\n      add\n      0x4600000000000000000000000000000000000000000000000000000000000000\n      dup2\n      mstore\n      pop\n        /* \"codingtest/refactor_codingtest/codingtest_241231.sol\":4991:5012  keccak256(bytes(\"F\")) */\n      dup1\n      mload\n      swap1\n      0x20\n      add\n      keccak256\n        /* \"codingtest/refactor_codingtest/codingtest_241231.sol\":4968:4976  students */\n      0x00\n        /* \"codingtest/refactor_codingtest/codingtest_241231.sol\":4977:4978  i */\n      dup3\n        /* \"codingtest/refactor_codingtest/codingtest_241231.sol\":4968:4979  students[i] */\n      dup2\n      sload\n      dup2\n      lt\n      tag_167\n      jumpi\n      tag_168\n      tag_110\n      jump\t// in\n    tag_168:\n    tag_167:\n      swap1\n      0x00\n      mstore\n      keccak256(0x00, 0x20)\n      swap1\n      0x05\n      mul\n      add\n        /* \"codingtest/refactor_codingtest/codingtest_241231.sol\":4968:4985  students[i].grade */\n      0x03\n      add\n        /* \"codingtest/refactor_codingtest/codingtest_241231.sol\":4952:4987  keccak256(bytes(students[i].grade)) */\n      mload(0x40)\n      tag_170\n      swap2\n      swap1\n      tag_155\n      jump\t// in\n    tag_170:\n      mload(0x40)\n      dup1\n      swap2\n      sub\n      swap1\n      keccak256\n        /* \"codingtest/refactor_codingtest/codingtest_241231.sol\":4952:5012  keccak256(bytes(students[i].grade)) == keccak256(bytes(\"F\")) */\n      sub\n        /* \"codingtest/refactor_codingtest/codingtest_241231.sol\":4948:5099  if (keccak256(bytes(students[i].grade)) == keccak256(bytes(\"F\"))) {... */\n      tag_171\n      jumpi\n        /* \"codingtest/refactor_codingtest/codingtest_241231.sol\":5048:5056  students */\n      0x00\n        /* \"codingtest/refactor_codingtest/codingtest_241231.sol\":5057:5058  i */\n      dup2\n        /* \"codingtest/refactor_codingtest/codingtest_241231.sol\":5048:5059  students[i] */\n      dup2\n      sload\n      dup2\n      lt\n      tag_172\n      jumpi\n      tag_173\n      tag_110\n      jump\t// in\n    tag_173:\n    tag_172:\n      swap1\n      0x00\n      mstore\n      keccak256(0x00, 0x20)\n      swap1\n      0x05\n      mul\n      add\n        /* \"codingtest/refactor_codingtest/codingtest_241231.sol\":5032:5059  result[index] = students[i] */\n      mload(0x40)\n      dup1\n      0xa0\n      add\n      0x40\n      mstore\n      swap1\n      dup2\n      0x00\n      dup3\n      add\n      dup1\n      sload\n      tag_175\n      swap1\n      tag_64\n      jump\t// in\n    tag_175:\n      dup1\n      0x1f\n      add\n      0x20\n      dup1\n      swap2\n      div\n      mul\n      0x20\n      add\n      mload(0x40)\n      swap1\n      dup2\n      add\n      0x40\n      mstore\n      dup1\n      swap3\n      swap2\n      swap1\n      dup2\n      dup2\n      mstore\n      0x20\n      add\n      dup3\n      dup1\n      sload\n      tag_176\n      swap1\n      tag_64\n      jump\t// in\n    tag_176:\n      dup1\n      iszero\n      tag_177\n      jumpi\n      dup1\n      0x1f\n      lt\n      tag_178\n      jumpi\n      0x0100\n      dup1\n      dup4\n      sload\n      div\n      mul\n      dup4\n      mstore\n      swap2\n      0x20\n      add\n      swap2\n      jump(tag_177)\n    tag_178:\n      dup3\n      add\n      swap2\n      swap1\n      0x00\n      mstore\n      keccak256(0x00, 0x20)\n      swap1\n    tag_179:\n      dup2\n      sload\n      dup2\n      mstore\n      swap1\n      0x01\n      add\n      swap1\n      0x20\n      add\n      dup1\n      dup4\n      gt\n      tag_179\n      jumpi\n      dup3\n      swap1\n      sub\n      0x1f\n      and\n      dup3\n      add\n      swap2\n    tag_177:\n      pop\n      pop\n      pop\n      pop\n      pop\n      dup2\n      mstore\n      0x20\n      add\n      0x01\n      dup3\n      add\n      sload\n      dup2\n      mstore\n      0x20\n      add\n      0x02\n      dup3\n      add\n      sload\n      dup2\n      mstore\n      0x20\n      add\n      0x03\n      dup3\n      add\n      dup1\n      sload\n      tag_180\n      swap1\n      tag_64\n      jump\t// in\n    tag_180:\n      dup1\n      0x1f\n      add\n      0x20\n      dup1\n      swap2\n      div\n      mul\n      0x20\n      add\n      mload(0x40)\n      swap1\n      dup2\n      add\n      0x40\n      mstore\n      dup1\n      swap3\n      swap2\n      swap1\n      dup2\n      dup2\n      mstore\n      0x20\n      add\n      dup3\n      dup1\n      sload\n      tag_181\n      swap1\n      tag_64\n      jump\t// in\n    tag_181:\n      dup1\n      iszero\n      tag_182\n      jumpi\n      dup1\n      0x1f\n      lt\n      tag_183\n      jumpi\n      0x0100\n      dup1\n      dup4\n      sload\n      div\n      mul\n      dup4\n      mstore\n      swap2\n      0x20\n      add\n      swap2\n      jump(tag_182)\n    tag_183:\n      dup3\n      add\n      swap2\n      swap1\n      0x00\n      mstore\n      keccak256(0x00, 0x20)\n      swap1\n    tag_184:\n      dup2\n      sload\n      dup2\n      mstore\n      swap1\n      0x01\n      add\n      swap1\n      0x20\n      add\n      dup1\n      dup4\n      gt\n      tag_184\n      jumpi\n      dup3\n      swap1\n      sub\n      0x1f\n      and\n      dup3\n      add\n      swap2\n    tag_182:\n      pop\n      pop\n      pop\n      pop\n      pop\n      dup2\n      mstore\n      0x20\n      add\n      0x04\n      dup3\n      add\n      dup1\n      sload\n      dup1\n      0x20\n      mul\n      0x20\n      add\n      mload(0x40)\n      swap1\n      dup2\n      add\n      0x40\n      mstore\n      dup1\n      swap3\n      swap2\n      swap1\n      dup2\n      dup2\n      mstore\n      0x20\n      add\n      0x00\n      swap1\n    tag_185:\n      dup3\n      dup3\n      lt\n      iszero\n      tag_186\n      jumpi\n      dup4\n      dup3\n      swap1\n      0x00\n      mstore\n      keccak256(0x00, 0x20)\n      add\n      dup1\n      sload\n      tag_188\n      swap1\n      tag_64\n      jump\t// in\n    tag_188:\n      dup1\n      0x1f\n      add\n      0x20\n      dup1\n      swap2\n      div\n      mul\n      0x20\n      add\n      mload(0x40)\n      swap1\n      dup2\n      add\n      0x40\n      mstore\n      dup1\n      swap3\n      swap2\n      swap1\n      dup2\n      dup2\n      mstore\n      0x20\n      add\n      dup3\n      dup1\n      sload\n      tag_189\n      swap1\n      tag_64\n      jump\t// in\n    tag_189:\n      dup1\n      iszero\n      tag_190\n      jumpi\n      dup1\n      0x1f\n      lt\n      tag_191\n      jumpi\n      0x0100\n      dup1\n      dup4\n      sload\n      div\n      mul\n      dup4\n      mstore\n      swap2\n      0x20\n      add\n      swap2\n      jump(tag_190)\n    tag_191:\n      dup3\n      add\n      swap2\n      swap1\n      0x00\n      mstore\n      keccak256(0x00, 0x20)\n      swap1\n    tag_192:\n      dup2\n      sload\n      dup2\n      mstore\n      swap1\n      0x01\n      add\n      swap1\n      0x20\n      add\n      dup1\n      dup4\n      gt\n      tag_192\n      jumpi\n      dup3\n      swap1\n      sub\n      0x1f\n      and\n      dup3\n      add\n      swap2\n    tag_190:\n      pop\n      pop\n      pop\n      pop\n      pop\n      dup2\n      mstore\n      0x20\n      add\n      swap1\n      0x01\n      add\n      swap1\n      jump(tag_185)\n    tag_186:\n      pop\n      pop\n      pop\n      pop\n      dup2\n      mstore\n      pop\n      pop\n        /* \"codingtest/refactor_codingtest/codingtest_241231.sol\":5032:5038  result */\n      dup4\n        /* \"codingtest/refactor_codingtest/codingtest_241231.sol\":5039:5044  index */\n      dup4\n        /* \"codingtest/refactor_codingtest/codingtest_241231.sol\":5032:5045  result[index] */\n      dup2\n      mload\n      dup2\n      lt\n      tag_193\n      jumpi\n      tag_194\n      tag_110\n      jump\t// in\n    tag_194:\n    tag_193:\n      0x20\n      mul\n      0x20\n      add\n      add\n        /* \"codingtest/refactor_codingtest/codingtest_241231.sol\":5032:5059  result[index] = students[i] */\n      dup2\n      swap1\n      mstore\n      pop\n        /* \"codingtest/refactor_codingtest/codingtest_241231.sol\":5077:5084  index++ */\n      dup2\n      dup1\n      tag_195\n      swap1\n      tag_158\n      jump\t// in\n    tag_195:\n      swap3\n      pop\n      pop\n        /* \"codingtest/refactor_codingtest/codingtest_241231.sol\":4948:5099  if (keccak256(bytes(students[i].grade)) == keccak256(bytes(\"F\"))) {... */\n    tag_171:\n        /* \"codingtest/refactor_codingtest/codingtest_241231.sol\":4929:4932  i++ */\n      dup1\n      dup1\n      0x01\n      add\n      swap2\n      pop\n      pop\n        /* \"codingtest/refactor_codingtest/codingtest_241231.sol\":4888:5109  for (uint256 i = 0; i < students.length; i++) {... */\n      jump(tag_164)\n    tag_165:\n      pop\n        /* \"codingtest/refactor_codingtest/codingtest_241231.sol\":5125:5131  result */\n      dup2\n        /* \"codingtest/refactor_codingtest/codingtest_241231.sol\":5118:5131  return result */\n      swap4\n      pop\n      pop\n      pop\n      pop\n        /* \"codingtest/refactor_codingtest/codingtest_241231.sol\":4520:5138  function getFStudents() public view returns (STUDENT[] memory) {... */\n      swap1\n      jump\t// out\n        /* \"codingtest/refactor_codingtest/codingtest_241231.sol\":2926:3233  function findStudentByNumber(uint256 _number) public view returns (STUDENT memory) {... */\n    tag_40:\n        /* \"codingtest/refactor_codingtest/codingtest_241231.sol\":2993:3007  STUDENT memory */\n      tag_196\n      tag_128\n      jump\t// in\n    tag_196:\n        /* \"codingtest/refactor_codingtest/codingtest_241231.sol\":3024:3033  uint256 i */\n      0x00\n        /* \"codingtest/refactor_codingtest/codingtest_241231.sol\":3019:3175  for (uint256 i = 0; i < students.length; i++) {... */\n    tag_198:\n        /* \"codingtest/refactor_codingtest/codingtest_241231.sol\":3043:3051  students */\n      0x00\n        /* \"codingtest/refactor_codingtest/codingtest_241231.sol\":3043:3058  students.length */\n      dup1\n      sload\n      swap1\n      pop\n        /* \"codingtest/refactor_codingtest/codingtest_241231.sol\":3039:3040  i */\n      dup2\n        /* \"codingtest/refactor_codingtest/codingtest_241231.sol\":3039:3058  i < students.length */\n      lt\n        /* \"codingtest/refactor_codingtest/codingtest_241231.sol\":3019:3175  for (uint256 i = 0; i < students.length; i++) {... */\n      iszero\n      tag_199\n      jumpi\n        /* \"codingtest/refactor_codingtest/codingtest_241231.sol\":3105:3112  _number */\n      dup3\n        /* \"codingtest/refactor_codingtest/codingtest_241231.sol\":3083:3091  students */\n      0x00\n        /* \"codingtest/refactor_codingtest/codingtest_241231.sol\":3092:3093  i */\n      dup3\n        /* \"codingtest/refactor_codingtest/codingtest_241231.sol\":3083:3094  students[i] */\n      dup2\n      sload\n      dup2\n      lt\n      tag_201\n      jumpi\n      tag_202\n      tag_110\n      jump\t// in\n    tag_202:\n    tag_201:\n      swap1\n      0x00\n      mstore\n      keccak256(0x00, 0x20)\n      swap1\n      0x05\n      mul\n      add\n        /* \"codingtest/refactor_codingtest/codingtest_241231.sol\":3083:3101  students[i].number */\n      0x01\n      add\n      sload\n        /* \"codingtest/refactor_codingtest/codingtest_241231.sol\":3083:3112  students[i].number == _number */\n      sub\n        /* \"codingtest/refactor_codingtest/codingtest_241231.sol\":3079:3165  if (students[i].number == _number) {... */\n      tag_204\n      jumpi\n        /* \"codingtest/refactor_codingtest/codingtest_241231.sol\":3139:3147  students */\n      0x00\n        /* \"codingtest/refactor_codingtest/codingtest_241231.sol\":3148:3149  i */\n      dup2\n        /* \"codingtest/refactor_codingtest/codingtest_241231.sol\":3139:3150  students[i] */\n      dup2\n      sload\n      dup2\n      lt\n      tag_205\n      jumpi\n      tag_206\n      tag_110\n      jump\t// in\n    tag_206:\n    tag_205:\n      swap1\n      0x00\n      mstore\n      keccak256(0x00, 0x20)\n      swap1\n      0x05\n      mul\n      add\n        /* \"codingtest/refactor_codingtest/codingtest_241231.sol\":3132:3150  return students[i] */\n      mload(0x40)\n      dup1\n      0xa0\n      add\n      0x40\n      mstore\n      swap1\n      dup2\n      0x00\n      dup3\n      add\n      dup1\n      sload\n      tag_208\n      swap1\n      tag_64\n      jump\t// in\n    tag_208:\n      dup1\n      0x1f\n      add\n      0x20\n      dup1\n      swap2\n      div\n      mul\n      0x20\n      add\n      mload(0x40)\n      swap1\n      dup2\n      add\n      0x40\n      mstore\n      dup1\n      swap3\n      swap2\n      swap1\n      dup2\n      dup2\n      mstore\n      0x20\n      add\n      dup3\n      dup1\n      sload\n      tag_209\n      swap1\n      tag_64\n      jump\t// in\n    tag_209:\n      dup1\n      iszero\n      tag_210\n      jumpi\n      dup1\n      0x1f\n      lt\n      tag_211\n      jumpi\n      0x0100\n      dup1\n      dup4\n      sload\n      div\n      mul\n      dup4\n      mstore\n      swap2\n      0x20\n      add\n      swap2\n      jump(tag_210)\n    tag_211:\n      dup3\n      add\n      swap2\n      swap1\n      0x00\n      mstore\n      keccak256(0x00, 0x20)\n      swap1\n    tag_212:\n      dup2\n      sload\n      dup2\n      mstore\n      swap1\n      0x01\n      add\n      swap1\n      0x20\n      add\n      dup1\n      dup4\n      gt\n      tag_212\n      jumpi\n      dup3\n      swap1\n      sub\n      0x1f\n      and\n      dup3\n      add\n      swap2\n    tag_210:\n      pop\n      pop\n      pop\n      pop\n      pop\n      dup2\n      mstore\n      0x20\n      add\n      0x01\n      dup3\n      add\n      sload\n      dup2\n      mstore\n      0x20\n      add\n      0x02\n      dup3\n      add\n      sload\n      dup2\n      mstore\n      0x20\n      add\n      0x03\n      dup3\n      add\n      dup1\n      sload\n      tag_213\n      swap1\n      tag_64\n      jump\t// in\n    tag_213:\n      dup1\n      0x1f\n      add\n      0x20\n      dup1\n      swap2\n      div\n      mul\n      0x20\n      add\n      mload(0x40)\n      swap1\n      dup2\n      add\n      0x40\n      mstore\n      dup1\n      swap3\n      swap2\n      swap1\n      dup2\n      dup2\n      mstore\n      0x20\n      add\n      dup3\n      dup1\n      sload\n      tag_214\n      swap1\n      tag_64\n      jump\t// in\n    tag_214:\n      dup1\n      iszero\n      tag_215\n      jumpi\n      dup1\n      0x1f\n      lt\n      tag_216\n      jumpi\n      0x0100\n      dup1\n      dup4\n      sload\n      div\n      mul\n      dup4\n      mstore\n      swap2\n      0x20\n      add\n      swap2\n      jump(tag_215)\n    tag_216:\n      dup3\n      add\n      swap2\n      swap1\n      0x00\n      mstore\n      keccak256(0x00, 0x20)\n      swap1\n    tag_217:\n      dup2\n      sload\n      dup2\n      mstore\n      swap1\n      0x01\n      add\n      swap1\n      0x20\n      add\n      dup1\n      dup4\n      gt\n      tag_217\n      jumpi\n      dup3\n      swap1\n      sub\n      0x1f\n      and\n      dup3\n      add\n      swap2\n    tag_215:\n      pop\n      pop\n      pop\n      pop\n      pop\n      dup2\n      mstore\n      0x20\n      add\n      0x04\n      dup3\n      add\n      dup1\n      sload\n      dup1\n      0x20\n      mul\n      0x20\n      add\n      mload(0x40)\n      swap1\n      dup2\n      add\n      0x40\n      mstore\n      dup1\n      swap3\n      swap2\n      swap1\n      dup2\n      dup2\n      mstore\n      0x20\n      add\n      0x00\n      swap1\n    tag_218:\n      dup3\n      dup3\n      lt\n      iszero\n      tag_219\n      jumpi\n      dup4\n      dup3\n      swap1\n      0x00\n      mstore\n      keccak256(0x00, 0x20)\n      add\n      dup1\n      sload\n      tag_221\n      swap1\n      tag_64\n      jump\t// in\n    tag_221:\n      dup1\n      0x1f\n      add\n      0x20\n      dup1\n      swap2\n      div\n      mul\n      0x20\n      add\n      mload(0x40)\n      swap1\n      dup2\n      add\n      0x40\n      mstore\n      dup1\n      swap3\n      swap2\n      swap1\n      dup2\n      dup2\n      mstore\n      0x20\n      add\n      dup3\n      dup1\n      sload\n      tag_222\n      swap1\n      tag_64\n      jump\t// in\n    tag_222:\n      dup1\n      iszero\n      tag_223\n      jumpi\n      dup1\n      0x1f\n      lt\n      tag_224\n      jumpi\n      0x0100\n      dup1\n      dup4\n      sload\n      div\n      mul\n      dup4\n      mstore\n      swap2\n      0x20\n      add\n      swap2\n      jump(tag_223)\n    tag_224:\n      dup3\n      add\n      swap2\n      swap1\n      0x00\n      mstore\n      keccak256(0x00, 0x20)\n      swap1\n    tag_225:\n      dup2\n      sload\n      dup2\n      mstore\n      swap1\n      0x01\n      add\n      swap1\n      0x20\n      add\n      dup1\n      dup4\n      gt\n      tag_225\n      jumpi\n      dup3\n      swap1\n      sub\n      0x1f\n      and\n      dup3\n      add\n      swap2\n    tag_223:\n      pop\n      pop\n      pop\n      pop\n      pop\n      dup2\n      mstore\n      0x20\n      add\n      swap1\n      0x01\n      add\n      swap1\n      jump(tag_218)\n    tag_219:\n      pop\n      pop\n      pop\n      pop\n      dup2\n      mstore\n      pop\n      pop\n      swap2\n      pop\n      pop\n      jump(tag_197)\n        /* \"codingtest/refactor_codingtest/codingtest_241231.sol\":3079:3165  if (students[i].number == _number) {... */\n    tag_204:\n        /* \"codingtest/refactor_codingtest/codingtest_241231.sol\":3060:3063  i++ */\n      dup1\n      dup1\n      0x01\n      add\n      swap2\n      pop\n      pop\n        /* \"codingtest/refactor_codingtest/codingtest_241231.sol\":3019:3175  for (uint256 i = 0; i < students.length; i++) {... */\n      jump(tag_198)\n    tag_199:\n      pop\n        /* \"codingtest/refactor_codingtest/codingtest_241231.sol\":3184:3226  revert(\"No student with the given number\") */\n      mload(0x40)\n      0x08c379a000000000000000000000000000000000000000000000000000000000\n      dup2\n      mstore\n      0x04\n      add\n      tag_226\n      swap1\n      tag_227\n      jump\t// in\n    tag_226:\n      mload(0x40)\n      dup1\n      swap2\n      sub\n      swap1\n      revert\n        /* \"codingtest/refactor_codingtest/codingtest_241231.sol\":2926:3233  function findStudentByNumber(uint256 _number) public view returns (STUDENT memory) {... */\n    tag_197:\n      swap2\n      swap1\n      pop\n      jump\t// out\n        /* \"codingtest/refactor_codingtest/codingtest_241231.sol\":2528:2920  function addStudent(... */\n    tag_46:\n        /* \"codingtest/refactor_codingtest/codingtest_241231.sol\":2713:2714  0 */\n      0x00\n        /* \"codingtest/refactor_codingtest/codingtest_241231.sol\":2687:2703  studentNameIndex */\n      0x01\n        /* \"codingtest/refactor_codingtest/codingtest_241231.sol\":2704:2708  name */\n      dup6\n        /* \"codingtest/refactor_codingtest/codingtest_241231.sol\":2687:2709  studentNameIndex[name] */\n      mload(0x40)\n      tag_229\n      swap2\n      swap1\n      tag_138\n      jump\t// in\n    tag_229:\n      swap1\n      dup2\n      mstore\n      0x20\n      add\n      mload(0x40)\n      dup1\n      swap2\n      sub\n      swap1\n      keccak256\n      sload\n        /* \"codingtest/refactor_codingtest/codingtest_241231.sol\":2687:2714  studentNameIndex[name] == 0 */\n      eq\n        /* \"codingtest/refactor_codingtest/codingtest_241231.sol\":2679:2741  require(studentNameIndex[name] == 0, \"Student already exists\") */\n      tag_230\n      jumpi\n      mload(0x40)\n      0x08c379a000000000000000000000000000000000000000000000000000000000\n      dup2\n      mstore\n      0x04\n      add\n      tag_231\n      swap1\n      tag_232\n      jump\t// in\n    tag_231:\n      mload(0x40)\n      dup1\n      swap2\n      sub\n      swap1\n      revert\n    tag_230:\n        /* \"codingtest/refactor_codingtest/codingtest_241231.sol\":2751:2770  string memory grade */\n      0x00\n        /* \"codingtest/refactor_codingtest/codingtest_241231.sol\":2773:2794  calculateGrade(score) */\n      tag_233\n        /* \"codingtest/refactor_codingtest/codingtest_241231.sol\":2788:2793  score */\n      dup4\n        /* \"codingtest/refactor_codingtest/codingtest_241231.sol\":2773:2787  calculateGrade */\n      tag_234\n        /* \"codingtest/refactor_codingtest/codingtest_241231.sol\":2773:2794  calculateGrade(score) */\n      jump\t// in\n    tag_233:\n        /* \"codingtest/refactor_codingtest/codingtest_241231.sol\":2751:2794  string memory grade = calculateGrade(score) */\n      swap1\n      pop\n        /* \"codingtest/refactor_codingtest/codingtest_241231.sol\":2804:2812  students */\n      0x00\n        /* \"codingtest/refactor_codingtest/codingtest_241231.sol\":2818:2862  STUDENT(name, number, score, grade, classes) */\n      mload(0x40)\n      dup1\n      0xa0\n      add\n      0x40\n      mstore\n      dup1\n        /* \"codingtest/refactor_codingtest/codingtest_241231.sol\":2826:2830  name */\n      dup8\n        /* \"codingtest/refactor_codingtest/codingtest_241231.sol\":2818:2862  STUDENT(name, number, score, grade, classes) */\n      dup2\n      mstore\n      0x20\n      add\n        /* \"codingtest/refactor_codingtest/codingtest_241231.sol\":2832:2838  number */\n      dup7\n        /* \"codingtest/refactor_codingtest/codingtest_241231.sol\":2818:2862  STUDENT(name, number, score, grade, classes) */\n      dup2\n      mstore\n      0x20\n      add\n        /* \"codingtest/refactor_codingtest/codingtest_241231.sol\":2840:2845  score */\n      dup6\n        /* \"codingtest/refactor_codingtest/codingtest_241231.sol\":2818:2862  STUDENT(name, number, score, grade, classes) */\n      dup2\n      mstore\n      0x20\n      add\n        /* \"codingtest/refactor_codingtest/codingtest_241231.sol\":2847:2852  grade */\n      dup4\n        /* \"codingtest/refactor_codingtest/codingtest_241231.sol\":2818:2862  STUDENT(name, number, score, grade, classes) */\n      dup2\n      mstore\n      0x20\n      add\n        /* \"codingtest/refactor_codingtest/codingtest_241231.sol\":2854:2861  classes */\n      dup5\n        /* \"codingtest/refactor_codingtest/codingtest_241231.sol\":2818:2862  STUDENT(name, number, score, grade, classes) */\n      dup2\n      mstore\n      pop\n        /* \"codingtest/refactor_codingtest/codingtest_241231.sol\":2804:2863  students.push(STUDENT(name, number, score, grade, classes)) */\n      swap1\n      dup1\n      0x01\n      dup2\n      sload\n      add\n      dup1\n      dup3\n      sstore\n      dup1\n      swap2\n      pop\n      pop\n      0x01\n      swap1\n      sub\n      swap1\n      0x00\n      mstore\n      keccak256(0x00, 0x20)\n      swap1\n      0x05\n      mul\n      add\n      0x00\n      swap1\n      swap2\n      swap1\n      swap2\n      swap1\n      swap2\n      pop\n      0x00\n      dup3\n      add\n      mload\n      dup2\n      0x00\n      add\n      swap1\n      dup2\n      tag_236\n      swap2\n      swap1\n      tag_237\n      jump\t// in\n    tag_236:\n      pop\n      0x20\n      dup3\n      add\n      mload\n      dup2\n      0x01\n      add\n      sstore\n      0x40\n      dup3\n      add\n      mload\n      dup2\n      0x02\n      add\n      sstore\n      0x60\n      dup3\n      add\n      mload\n      dup2\n      0x03\n      add\n      swap1\n      dup2\n      tag_238\n      swap2\n      swap1\n      tag_237\n      jump\t// in\n    tag_238:\n      pop\n      0x80\n      dup3\n      add\n      mload\n      dup2\n      0x04\n      add\n      swap1\n      dup1\n      mload\n      swap1\n      0x20\n      add\n      swap1\n      tag_239\n      swap3\n      swap2\n      swap1\n      tag_240\n      jump\t// in\n    tag_239:\n      pop\n      pop\n      pop\n        /* \"codingtest/refactor_codingtest/codingtest_241231.sol\":2898:2906  students */\n      0x00\n        /* \"codingtest/refactor_codingtest/codingtest_241231.sol\":2898:2913  students.length */\n      dup1\n      sload\n      swap1\n      pop\n        /* \"codingtest/refactor_codingtest/codingtest_241231.sol\":2873:2889  studentNameIndex */\n      0x01\n        /* \"codingtest/refactor_codingtest/codingtest_241231.sol\":2890:2894  name */\n      dup7\n        /* \"codingtest/refactor_codingtest/codingtest_241231.sol\":2873:2895  studentNameIndex[name] */\n      mload(0x40)\n      tag_241\n      swap2\n      swap1\n      tag_138\n      jump\t// in\n    tag_241:\n      swap1\n      dup2\n      mstore\n      0x20\n      add\n      mload(0x40)\n      dup1\n      swap2\n      sub\n      swap1\n      keccak256\n        /* \"codingtest/refactor_codingtest/codingtest_241231.sol\":2873:2913  studentNameIndex[name] = students.length */\n      dup2\n      swap1\n      sstore\n      pop\n        /* \"codingtest/refactor_codingtest/codingtest_241231.sol\":2669:2920  {... */\n      pop\n        /* \"codingtest/refactor_codingtest/codingtest_241231.sol\":2528:2920  function addStudent(... */\n      pop\n      pop\n      pop\n      pop\n      jump\t// out\n        /* \"codingtest/refactor_codingtest/codingtest_241231.sol\":3239:3478  function findStudentByName(string memory _name) public view returns (STUDENT memory) {... */\n    tag_49:\n        /* \"codingtest/refactor_codingtest/codingtest_241231.sol\":3308:3322  STUDENT memory */\n      tag_242\n      tag_128\n      jump\t// in\n    tag_242:\n        /* \"codingtest/refactor_codingtest/codingtest_241231.sol\":3334:3347  uint256 index */\n      0x00\n        /* \"codingtest/refactor_codingtest/codingtest_241231.sol\":3350:3366  studentNameIndex */\n      0x01\n        /* \"codingtest/refactor_codingtest/codingtest_241231.sol\":3367:3372  _name */\n      dup4\n        /* \"codingtest/refactor_codingtest/codingtest_241231.sol\":3350:3373  studentNameIndex[_name] */\n      mload(0x40)\n      tag_244\n      swap2\n      swap1\n      tag_138\n      jump\t// in\n    tag_244:\n      swap1\n      dup2\n      mstore\n      0x20\n      add\n      mload(0x40)\n      dup1\n      swap2\n      sub\n      swap1\n      keccak256\n      sload\n        /* \"codingtest/refactor_codingtest/codingtest_241231.sol\":3334:3373  uint256 index = studentNameIndex[_name] */\n      swap1\n      pop\n        /* \"codingtest/refactor_codingtest/codingtest_241231.sol\":3399:3400  0 */\n      0x00\n        /* \"codingtest/refactor_codingtest/codingtest_241231.sol\":3391:3396  index */\n      dup2\n        /* \"codingtest/refactor_codingtest/codingtest_241231.sol\":3391:3400  index > 0 */\n      gt\n        /* \"codingtest/refactor_codingtest/codingtest_241231.sol\":3383:3435  require(index > 0, \"No student with the given name\") */\n      tag_245\n      jumpi\n      mload(0x40)\n      0x08c379a000000000000000000000000000000000000000000000000000000000\n      dup2\n      mstore\n      0x04\n      add\n      tag_246\n      swap1\n      tag_141\n      jump\t// in\n    tag_246:\n      mload(0x40)\n      dup1\n      swap2\n      sub\n      swap1\n      revert\n    tag_245:\n        /* \"codingtest/refactor_codingtest/codingtest_241231.sol\":3452:3460  students */\n      0x00\n        /* \"codingtest/refactor_codingtest/codingtest_241231.sol\":3469:3470  1 */\n      0x01\n        /* \"codingtest/refactor_codingtest/codingtest_241231.sol\":3461:3466  index */\n      dup3\n        /* \"codingtest/refactor_codingtest/codingtest_241231.sol\":3461:3470  index - 1 */\n      tag_247\n      swap2\n      swap1\n      tag_143\n      jump\t// in\n    tag_247:\n        /* \"codingtest/refactor_codingtest/codingtest_241231.sol\":3452:3471  students[index - 1] */\n      dup2\n      sload\n      dup2\n      lt\n      tag_248\n      jumpi\n      tag_249\n      tag_110\n      jump\t// in\n    tag_249:\n    tag_248:\n      swap1\n      0x00\n      mstore\n      keccak256(0x00, 0x20)\n      swap1\n      0x05\n      mul\n      add\n        /* \"codingtest/refactor_codingtest/codingtest_241231.sol\":3445:3471  return students[index - 1] */\n      mload(0x40)\n      dup1\n      0xa0\n      add\n      0x40\n      mstore\n      swap1\n      dup2\n      0x00\n      dup3\n      add\n      dup1\n      sload\n      tag_251\n      swap1\n      tag_64\n      jump\t// in\n    tag_251:\n      dup1\n      0x1f\n      add\n      0x20\n      dup1\n      swap2\n      div\n      mul\n      0x20\n      add\n      mload(0x40)\n      swap1\n      dup2\n      add\n      0x40\n      mstore\n      dup1\n      swap3\n      swap2\n      swap1\n      dup2\n      dup2\n      mstore\n      0x20\n      add\n      dup3\n      dup1\n      sload\n      tag_252\n      swap1\n      tag_64\n      jump\t// in\n    tag_252:\n      dup1\n      iszero\n      tag_253\n      jumpi\n      dup1\n      0x1f\n      lt\n      tag_254\n      jumpi\n      0x0100\n      dup1\n      dup4\n      sload\n      div\n      mul\n      dup4\n      mstore\n      swap2\n      0x20\n      add\n      swap2\n      jump(tag_253)\n    tag_254:\n      dup3\n      add\n      swap2\n      swap1\n      0x00\n      mstore\n      keccak256(0x00, 0x20)\n      swap1\n    tag_255:\n      dup2\n      sload\n      dup2\n      mstore\n      swap1\n      0x01\n      add\n      swap1\n      0x20\n      add\n      dup1\n      dup4\n      gt\n      tag_255\n      jumpi\n      dup3\n      swap1\n      sub\n      0x1f\n      and\n      dup3\n      add\n      swap2\n    tag_253:\n      pop\n      pop\n      pop\n      pop\n      pop\n      dup2\n      mstore\n      0x20\n      add\n      0x01\n      dup3\n      add\n      sload\n      dup2\n      mstore\n      0x20\n      add\n      0x02\n      dup3\n      add\n      sload\n      dup2\n      mstore\n      0x20\n      add\n      0x03\n      dup3\n      add\n      dup1\n      sload\n      tag_256\n      swap1\n      tag_64\n      jump\t// in\n    tag_256:\n      dup1\n      0x1f\n      add\n      0x20\n      dup1\n      swap2\n      div\n      mul\n      0x20\n      add\n      mload(0x40)\n      swap1\n      dup2\n      add\n      0x40\n      mstore\n      dup1\n      swap3\n      swap2\n      swap1\n      dup2\n      dup2\n      mstore\n      0x20\n      add\n      dup3\n      dup1\n      sload\n      tag_257\n      swap1\n      tag_64\n      jump\t// in\n    tag_257:\n      dup1\n      iszero\n      tag_258\n      jumpi\n      dup1\n      0x1f\n      lt\n      tag_259\n      jumpi\n      0x0100\n      dup1\n      dup4\n      sload\n      div\n      mul\n      dup4\n      mstore\n      swap2\n      0x20\n      add\n      swap2\n      jump(tag_258)\n    tag_259:\n      dup3\n      add\n      swap2\n      swap1\n      0x00\n      mstore\n      keccak256(0x00, 0x20)\n      swap1\n    tag_260:\n      dup2\n      sload\n      dup2\n      mstore\n      swap1\n      0x01\n      add\n      swap1\n      0x20\n      add\n      dup1\n      dup4\n      gt\n      tag_260\n      jumpi\n      dup3\n      swap1\n      sub\n      0x1f\n      and\n      dup3\n      add\n      swap2\n    tag_258:\n      pop\n      pop\n      pop\n      pop\n      pop\n      dup2\n      mstore\n      0x20\n      add\n      0x04\n      dup3\n      add\n      dup1\n      sload\n      dup1\n      0x20\n      mul\n      0x20\n      add\n      mload(0x40)\n      swap1\n      dup2\n      add\n      0x40\n      mstore\n      dup1\n      swap3\n      swap2\n      swap1\n      dup2\n      dup2\n      mstore\n      0x20\n      add\n      0x00\n      swap1\n    tag_261:\n      dup3\n      dup3\n      lt\n      iszero\n      tag_262\n      jumpi\n      dup4\n      dup3\n      swap1\n      0x00\n      mstore\n      keccak256(0x00, 0x20)\n      add\n      dup1\n      sload\n      tag_264\n      swap1\n      tag_64\n      jump\t// in\n    tag_264:\n      dup1\n      0x1f\n      add\n      0x20\n      dup1\n      swap2\n      div\n      mul\n      0x20\n      add\n      mload(0x40)\n      swap1\n      dup2\n      add\n      0x40\n      mstore\n      dup1\n      swap3\n      swap2\n      swap1\n      dup2\n      dup2\n      mstore\n      0x20\n      add\n      dup3\n      dup1\n      sload\n      tag_265\n      swap1\n      tag_64\n      jump\t// in\n    tag_265:\n      dup1\n      iszero\n      tag_266\n      jumpi\n      dup1\n      0x1f\n      lt\n      tag_267\n      jumpi\n      0x0100\n      dup1\n      dup4\n      sload\n      div\n      mul\n      dup4\n      mstore\n      swap2\n      0x20\n      add\n      swap2\n      jump(tag_266)\n    tag_267:\n      dup3\n      add\n      swap2\n      swap1\n      0x00\n      mstore\n      keccak256(0x00, 0x20)\n      swap1\n    tag_268:\n      dup2\n      sload\n      dup2\n      mstore\n      swap1\n      0x01\n      add\n      swap1\n      0x20\n      add\n      dup1\n      dup4\n      gt\n      tag_268\n      jumpi\n      dup3\n      swap1\n      sub\n      0x1f\n      and\n      dup3\n      add\n      swap2\n    tag_266:\n      pop\n      pop\n      pop\n      pop\n      pop\n      dup2\n      mstore\n      0x20\n      add\n      swap1\n      0x01\n      add\n      swap1\n      jump(tag_261)\n    tag_262:\n      pop\n      pop\n      pop\n      pop\n      dup2\n      mstore\n      pop\n      pop\n      swap2\n      pop\n      pop\n        /* \"codingtest/refactor_codingtest/codingtest_241231.sol\":3239:3478  function findStudentByName(string memory _name) public view returns (STUDENT memory) {... */\n      swap2\n      swap1\n      pop\n      jump\t// out\n        /* \"codingtest/refactor_codingtest/codingtest_241231.sol\":4016:4113  function getAllStudents() public view returns (STUDENT[] memory) {... */\n    tag_52:\n        /* \"codingtest/refactor_codingtest/codingtest_241231.sol\":4063:4079  STUDENT[] memory */\n      0x60\n        /* \"codingtest/refactor_codingtest/codingtest_241231.sol\":4098:4106  students */\n      0x00\n        /* \"codingtest/refactor_codingtest/codingtest_241231.sol\":4091:4106  return students */\n      dup1\n      sload\n      dup1\n      0x20\n      mul\n      0x20\n      add\n      mload(0x40)\n      swap1\n      dup2\n      add\n      0x40\n      mstore\n      dup1\n      swap3\n      swap2\n      swap1\n      dup2\n      dup2\n      mstore\n      0x20\n      add\n      0x00\n      swap1\n    tag_270:\n      dup3\n      dup3\n      lt\n      iszero\n      tag_271\n      jumpi\n      dup4\n      dup3\n      swap1\n      0x00\n      mstore\n      keccak256(0x00, 0x20)\n      swap1\n      0x05\n      mul\n      add\n      mload(0x40)\n      dup1\n      0xa0\n      add\n      0x40\n      mstore\n      swap1\n      dup2\n      0x00\n      dup3\n      add\n      dup1\n      sload\n      tag_273\n      swap1\n      tag_64\n      jump\t// in\n    tag_273:\n      dup1\n      0x1f\n      add\n      0x20\n      dup1\n      swap2\n      div\n      mul\n      0x20\n      add\n      mload(0x40)\n      swap1\n      dup2\n      add\n      0x40\n      mstore\n      dup1\n      swap3\n      swap2\n      swap1\n      dup2\n      dup2\n      mstore\n      0x20\n      add\n      dup3\n      dup1\n      sload\n      tag_274\n      swap1\n      tag_64\n      jump\t// in\n    tag_274:\n      dup1\n      iszero\n      tag_275\n      jumpi\n      dup1\n      0x1f\n      lt\n      tag_276\n      jumpi\n      0x0100\n      dup1\n      dup4\n      sload\n      div\n      mul\n      dup4\n      mstore\n      swap2\n      0x20\n      add\n      swap2\n      jump(tag_275)\n    tag_276:\n      dup3\n      add\n      swap2\n      swap1\n      0x00\n      mstore\n      keccak256(0x00, 0x20)\n      swap1\n    tag_277:\n      dup2\n      sload\n      dup2\n      mstore\n      swap1\n      0x01\n      add\n      swap1\n      0x20\n      add\n      dup1\n      dup4\n      gt\n      tag_277\n      jumpi\n      dup3\n      swap1\n      sub\n      0x1f\n      and\n      dup3\n      add\n      swap2\n    tag_275:\n      pop\n      pop\n      pop\n      pop\n      pop\n      dup2\n      mstore\n      0x20\n      add\n      0x01\n      dup3\n      add\n      sload\n      dup2\n      mstore\n      0x20\n      add\n      0x02\n      dup3\n      add\n      sload\n      dup2\n      mstore\n      0x20\n      add\n      0x03\n      dup3\n      add\n      dup1\n      sload\n      tag_278\n      swap1\n      tag_64\n      jump\t// in\n    tag_278:\n      dup1\n      0x1f\n      add\n      0x20\n      dup1\n      swap2\n      div\n      mul\n      0x20\n      add\n      mload(0x40)\n      swap1\n      dup2\n      add\n      0x40\n      mstore\n      dup1\n      swap3\n      swap2\n      swap1\n      dup2\n      dup2\n      mstore\n      0x20\n      add\n      dup3\n      dup1\n      sload\n      tag_279\n      swap1\n      tag_64\n      jump\t// in\n    tag_279:\n      dup1\n      iszero\n      tag_280\n      jumpi\n      dup1\n      0x1f\n      lt\n      tag_281\n      jumpi\n      0x0100\n      dup1\n      dup4\n      sload\n      div\n      mul\n      dup4\n      mstore\n      swap2\n      0x20\n      add\n      swap2\n      jump(tag_280)\n    tag_281:\n      dup3\n      add\n      swap2\n      swap1\n      0x00\n      mstore\n      keccak256(0x00, 0x20)\n      swap1\n    tag_282:\n      dup2\n      sload\n      dup2\n      mstore\n      swap1\n      0x01\n      add\n      swap1\n      0x20\n      add\n      dup1\n      dup4\n      gt\n      tag_282\n      jumpi\n      dup3\n      swap1\n      sub\n      0x1f\n      and\n      dup3\n      add\n      swap2\n    tag_280:\n      pop\n      pop\n      pop\n      pop\n      pop\n      dup2\n      mstore\n      0x20\n      add\n      0x04\n      dup3\n      add\n      dup1\n      sload\n      dup1\n      0x20\n      mul\n      0x20\n      add\n      mload(0x40)\n      swap1\n      dup2\n      add\n      0x40\n      mstore\n      dup1\n      swap3\n      swap2\n      swap1\n      dup2\n      dup2\n      mstore\n      0x20\n      add\n      0x00\n      swap1\n    tag_283:\n      dup3\n      dup3\n      lt\n      iszero\n      tag_284\n      jumpi\n      dup4\n      dup3\n      swap1\n      0x00\n      mstore\n      keccak256(0x00, 0x20)\n      add\n      dup1\n      sload\n      tag_286\n      swap1\n      tag_64\n      jump\t// in\n    tag_286:\n      dup1\n      0x1f\n      add\n      0x20\n      dup1\n      swap2\n      div\n      mul\n      0x20\n      add\n      mload(0x40)\n      swap1\n      dup2\n      add\n      0x40\n      mstore\n      dup1\n      swap3\n      swap2\n      swap1\n      dup2\n      dup2\n      mstore\n      0x20\n      add\n      dup3\n      dup1\n      sload\n      tag_287\n      swap1\n      tag_64\n      jump\t// in\n    tag_287:\n      dup1\n      iszero\n      tag_288\n      jumpi\n      dup1\n      0x1f\n      lt\n      tag_289\n      jumpi\n      0x0100\n      dup1\n      dup4\n      sload\n      div\n      mul\n      dup4\n      mstore\n      swap2\n      0x20\n      add\n      swap2\n      jump(tag_288)\n    tag_289:\n      dup3\n      add\n      swap2\n      swap1\n      0x00\n      mstore\n      keccak256(0x00, 0x20)\n      swap1\n    tag_290:\n      dup2\n      sload\n      dup2\n      mstore\n      swap1\n      0x01\n      add\n      swap1\n      0x20\n      add\n      dup1\n      dup4\n      gt\n      tag_290\n      jumpi\n      dup3\n      swap1\n      sub\n      0x1f\n      and\n      dup3\n      add\n      swap2\n    tag_288:\n      pop\n      pop\n      pop\n      pop\n      pop\n      dup2\n      mstore\n      0x20\n      add\n      swap1\n      0x01\n      add\n      swap1\n      jump(tag_283)\n    tag_284:\n      pop\n      pop\n      pop\n      pop\n      dup2\n      mstore\n      pop\n      pop\n      dup2\n      mstore\n      0x20\n      add\n      swap1\n      0x01\n      add\n      swap1\n      jump(tag_270)\n    tag_271:\n      pop\n      pop\n      pop\n      pop\n      swap1\n      pop\n        /* \"codingtest/refactor_codingtest/codingtest_241231.sol\":4016:4113  function getAllStudents() public view returns (STUDENT[] memory) {... */\n      swap1\n      jump\t// out\n        /* \"codingtest/refactor_codingtest/codingtest_241231.sol\":3733:4010  function getAllStudentsNumber() public view returns (uint256[] memory) {... */\n    tag_55:\n        /* \"codingtest/refactor_codingtest/codingtest_241231.sol\":3786:3802  uint256[] memory */\n      0x60\n        /* \"codingtest/refactor_codingtest/codingtest_241231.sol\":3814:3837  uint256[] memory result */\n      0x00\n        /* \"codingtest/refactor_codingtest/codingtest_241231.sol\":3854:3862  students */\n      dup1\n        /* \"codingtest/refactor_codingtest/codingtest_241231.sol\":3854:3869  students.length */\n      dup1\n      sload\n      swap1\n      pop\n        /* \"codingtest/refactor_codingtest/codingtest_241231.sol\":3840:3870  new uint256[](students.length) */\n      0xffffffffffffffff\n      dup2\n      gt\n      iszero\n      tag_292\n      jumpi\n      tag_293\n      tag_124\n      jump\t// in\n    tag_293:\n    tag_292:\n      mload(0x40)\n      swap1\n      dup1\n      dup3\n      mstore\n      dup1\n      0x20\n      mul\n      0x20\n      add\n      dup3\n      add\n      0x40\n      mstore\n      dup1\n      iszero\n      tag_294\n      jumpi\n      dup2\n      0x20\n      add\n      0x20\n      dup3\n      mul\n      dup1\n      calldatasize\n      dup4\n      calldatacopy\n      dup1\n      dup3\n      add\n      swap2\n      pop\n      pop\n      swap1\n      pop\n    tag_294:\n      pop\n        /* \"codingtest/refactor_codingtest/codingtest_241231.sol\":3814:3870  uint256[] memory result = new uint256[](students.length) */\n      swap1\n      pop\n        /* \"codingtest/refactor_codingtest/codingtest_241231.sol\":3885:3894  uint256 i */\n      0x00\n        /* \"codingtest/refactor_codingtest/codingtest_241231.sol\":3880:3981  for (uint256 i = 0; i < students.length; i++) {... */\n    tag_295:\n        /* \"codingtest/refactor_codingtest/codingtest_241231.sol\":3904:3912  students */\n      0x00\n        /* \"codingtest/refactor_codingtest/codingtest_241231.sol\":3904:3919  students.length */\n      dup1\n      sload\n      swap1\n      pop\n        /* \"codingtest/refactor_codingtest/codingtest_241231.sol\":3900:3901  i */\n      dup2\n        /* \"codingtest/refactor_codingtest/codingtest_241231.sol\":3900:3919  i < students.length */\n      lt\n        /* \"codingtest/refactor_codingtest/codingtest_241231.sol\":3880:3981  for (uint256 i = 0; i < students.length; i++) {... */\n      iszero\n      tag_296\n      jumpi\n        /* \"codingtest/refactor_codingtest/codingtest_241231.sol\":3952:3960  students */\n      0x00\n        /* \"codingtest/refactor_codingtest/codingtest_241231.sol\":3961:3962  i */\n      dup2\n        /* \"codingtest/refactor_codingtest/codingtest_241231.sol\":3952:3963  students[i] */\n      dup2\n      sload\n      dup2\n      lt\n      tag_298\n      jumpi\n      tag_299\n      tag_110\n      jump\t// in\n    tag_299:\n    tag_298:\n      swap1\n      0x00\n      mstore\n      keccak256(0x00, 0x20)\n      swap1\n      0x05\n      mul\n      add\n        /* \"codingtest/refactor_codingtest/codingtest_241231.sol\":3952:3970  students[i].number */\n      0x01\n      add\n      sload\n        /* \"codingtest/refactor_codingtest/codingtest_241231.sol\":3940:3946  result */\n      dup3\n        /* \"codingtest/refactor_codingtest/codingtest_241231.sol\":3947:3948  i */\n      dup3\n        /* \"codingtest/refactor_codingtest/codingtest_241231.sol\":3940:3949  result[i] */\n      dup2\n      mload\n      dup2\n      lt\n      tag_301\n      jumpi\n      tag_302\n      tag_110\n      jump\t// in\n    tag_302:\n    tag_301:\n      0x20\n      mul\n      0x20\n      add\n      add\n        /* \"codingtest/refactor_codingtest/codingtest_241231.sol\":3940:3970  result[i] = students[i].number */\n      dup2\n      dup2\n      mstore\n      pop\n      pop\n        /* \"codingtest/refactor_codingtest/codingtest_241231.sol\":3921:3924  i++ */\n      dup1\n      dup1\n      0x01\n      add\n      swap2\n      pop\n      pop\n        /* \"codingtest/refactor_codingtest/codingtest_241231.sol\":3880:3981  for (uint256 i = 0; i < students.length; i++) {... */\n      jump(tag_295)\n    tag_296:\n      pop\n        /* \"codingtest/refactor_codingtest/codingtest_241231.sol\":3997:4003  result */\n      dup1\n        /* \"codingtest/refactor_codingtest/codingtest_241231.sol\":3990:4003  return result */\n      swap2\n      pop\n      pop\n        /* \"codingtest/refactor_codingtest/codingtest_241231.sol\":3733:4010  function getAllStudentsNumber() public view returns (uint256[] memory) {... */\n      swap1\n      jump\t// out\n        /* \"codingtest/refactor_codingtest/codingtest_241231.sol\":4119:4411  function getScoreAVG() public view returns (uint256) {... */\n    tag_59:\n        /* \"codingtest/refactor_codingtest/codingtest_241231.sol\":4163:4170  uint256 */\n      0x00\n        /* \"codingtest/refactor_codingtest/codingtest_241231.sol\":4208:4209  0 */\n      dup1\n        /* \"codingtest/refactor_codingtest/codingtest_241231.sol\":4190:4198  students */\n      0x00\n        /* \"codingtest/refactor_codingtest/codingtest_241231.sol\":4190:4205  students.length */\n      dup1\n      sload\n      swap1\n      pop\n        /* \"codingtest/refactor_codingtest/codingtest_241231.sol\":4190:4209  students.length > 0 */\n      gt\n        /* \"codingtest/refactor_codingtest/codingtest_241231.sol\":4182:4235  require(students.length > 0, \"No students available\") */\n      tag_304\n      jumpi\n      mload(0x40)\n      0x08c379a000000000000000000000000000000000000000000000000000000000\n      dup2\n      mstore\n      0x04\n      add\n      tag_305\n      swap1\n      tag_306\n      jump\t// in\n    tag_305:\n      mload(0x40)\n      dup1\n      swap2\n      sub\n      swap1\n      revert\n    tag_304:\n        /* \"codingtest/refactor_codingtest/codingtest_241231.sol\":4245:4258  uint256 total */\n      0x00\n        /* \"codingtest/refactor_codingtest/codingtest_241231.sol\":4273:4282  uint256 i */\n      dup1\n        /* \"codingtest/refactor_codingtest/codingtest_241231.sol\":4285:4286  0 */\n      0x00\n        /* \"codingtest/refactor_codingtest/codingtest_241231.sol\":4273:4286  uint256 i = 0 */\n      swap1\n      pop\n        /* \"codingtest/refactor_codingtest/codingtest_241231.sol\":4268:4365  for (uint256 i = 0; i < students.length; i++) {... */\n    tag_307:\n        /* \"codingtest/refactor_codingtest/codingtest_241231.sol\":4292:4300  students */\n      0x00\n        /* \"codingtest/refactor_codingtest/codingtest_241231.sol\":4292:4307  students.length */\n      dup1\n      sload\n      swap1\n      pop\n        /* \"codingtest/refactor_codingtest/codingtest_241231.sol\":4288:4289  i */\n      dup2\n        /* \"codingtest/refactor_codingtest/codingtest_241231.sol\":4288:4307  i < students.length */\n      lt\n        /* \"codingtest/refactor_codingtest/codingtest_241231.sol\":4268:4365  for (uint256 i = 0; i < students.length; i++) {... */\n      iszero\n      tag_308\n      jumpi\n        /* \"codingtest/refactor_codingtest/codingtest_241231.sol\":4337:4345  students */\n      0x00\n        /* \"codingtest/refactor_codingtest/codingtest_241231.sol\":4346:4347  i */\n      dup2\n        /* \"codingtest/refactor_codingtest/codingtest_241231.sol\":4337:4348  students[i] */\n      dup2\n      sload\n      dup2\n      lt\n      tag_310\n      jumpi\n      tag_311\n      tag_110\n      jump\t// in\n    tag_311:\n    tag_310:\n      swap1\n      0x00\n      mstore\n      keccak256(0x00, 0x20)\n      swap1\n      0x05\n      mul\n      add\n        /* \"codingtest/refactor_codingtest/codingtest_241231.sol\":4337:4354  students[i].score */\n      0x02\n      add\n      sload\n        /* \"codingtest/refactor_codingtest/codingtest_241231.sol\":4328:4354  total += students[i].score */\n      dup3\n      tag_313\n      swap2\n      swap1\n      tag_107\n      jump\t// in\n    tag_313:\n      swap2\n      pop\n        /* \"codingtest/refactor_codingtest/codingtest_241231.sol\":4309:4312  i++ */\n      dup1\n      dup1\n      0x01\n      add\n      swap2\n      pop\n      pop\n        /* \"codingtest/refactor_codingtest/codingtest_241231.sol\":4268:4365  for (uint256 i = 0; i < students.length; i++) {... */\n      jump(tag_307)\n    tag_308:\n      pop\n        /* \"codingtest/refactor_codingtest/codingtest_241231.sol\":4389:4397  students */\n      0x00\n        /* \"codingtest/refactor_codingtest/codingtest_241231.sol\":4389:4404  students.length */\n      dup1\n      sload\n      swap1\n      pop\n        /* \"codingtest/refactor_codingtest/codingtest_241231.sol\":4381:4386  total */\n      dup2\n        /* \"codingtest/refactor_codingtest/codingtest_241231.sol\":4381:4404  total / students.length */\n      tag_314\n      swap2\n      swap1\n      tag_315\n      jump\t// in\n    tag_314:\n        /* \"codingtest/refactor_codingtest/codingtest_241231.sol\":4374:4404  return total / students.length */\n      swap2\n      pop\n      pop\n        /* \"codingtest/refactor_codingtest/codingtest_241231.sol\":4119:4411  function getScoreAVG() public view returns (uint256) {... */\n      swap1\n      jump\t// out\n        /* \"codingtest/refactor_codingtest/codingtest_241231.sol\":2162:2522  function calculateGrade(uint256 score) internal pure returns (string memory) {... */\n    tag_234:\n        /* \"codingtest/refactor_codingtest/codingtest_241231.sol\":2224:2237  string memory */\n      0x60\n        /* \"codingtest/refactor_codingtest/codingtest_241231.sol\":2262:2264  90 */\n      0x5a\n        /* \"codingtest/refactor_codingtest/codingtest_241231.sol\":2253:2258  score */\n      dup3\n        /* \"codingtest/refactor_codingtest/codingtest_241231.sol\":2253:2264  score >= 90 */\n      lt\n        /* \"codingtest/refactor_codingtest/codingtest_241231.sol\":2249:2516  if (score >= 90) {... */\n      tag_317\n      jumpi\n        /* \"codingtest/refactor_codingtest/codingtest_241231.sol\":2280:2290  return \"A\" */\n      mload(0x40)\n      dup1\n      0x40\n      add\n      0x40\n      mstore\n      dup1\n      0x01\n      dup2\n      mstore\n      0x20\n      add\n      0x4100000000000000000000000000000000000000000000000000000000000000\n      dup2\n      mstore\n      pop\n      swap1\n      pop\n      jump(tag_316)\n        /* \"codingtest/refactor_codingtest/codingtest_241231.sol\":2249:2516  if (score >= 90) {... */\n    tag_317:\n        /* \"codingtest/refactor_codingtest/codingtest_241231.sol\":2320:2322  80 */\n      0x50\n        /* \"codingtest/refactor_codingtest/codingtest_241231.sol\":2311:2316  score */\n      dup3\n        /* \"codingtest/refactor_codingtest/codingtest_241231.sol\":2311:2322  score >= 80 */\n      lt\n        /* \"codingtest/refactor_codingtest/codingtest_241231.sol\":2307:2516  if (score >= 80) {... */\n      tag_319\n      jumpi\n        /* \"codingtest/refactor_codingtest/codingtest_241231.sol\":2338:2348  return \"B\" */\n      mload(0x40)\n      dup1\n      0x40\n      add\n      0x40\n      mstore\n      dup1\n      0x01\n      dup2\n      mstore\n      0x20\n      add\n      0x4200000000000000000000000000000000000000000000000000000000000000\n      dup2\n      mstore\n      pop\n      swap1\n      pop\n      jump(tag_316)\n        /* \"codingtest/refactor_codingtest/codingtest_241231.sol\":2307:2516  if (score >= 80) {... */\n    tag_319:\n        /* \"codingtest/refactor_codingtest/codingtest_241231.sol\":2378:2380  70 */\n      0x46\n        /* \"codingtest/refactor_codingtest/codingtest_241231.sol\":2369:2374  score */\n      dup3\n        /* \"codingtest/refactor_codingtest/codingtest_241231.sol\":2369:2380  score >= 70 */\n      lt\n        /* \"codingtest/refactor_codingtest/codingtest_241231.sol\":2365:2516  if (score >= 70) {... */\n      tag_321\n      jumpi\n        /* \"codingtest/refactor_codingtest/codingtest_241231.sol\":2396:2406  return \"C\" */\n      mload(0x40)\n      dup1\n      0x40\n      add\n      0x40\n      mstore\n      dup1\n      0x01\n      dup2\n      mstore\n      0x20\n      add\n      0x4300000000000000000000000000000000000000000000000000000000000000\n      dup2\n      mstore\n      pop\n      swap1\n      pop\n      jump(tag_316)\n        /* \"codingtest/refactor_codingtest/codingtest_241231.sol\":2365:2516  if (score >= 70) {... */\n    tag_321:\n        /* \"codingtest/refactor_codingtest/codingtest_241231.sol\":2436:2438  60 */\n      0x3c\n        /* \"codingtest/refactor_codingtest/codingtest_241231.sol\":2427:2432  score */\n      dup3\n        /* \"codingtest/refactor_codingtest/codingtest_241231.sol\":2427:2438  score >= 60 */\n      lt\n        /* \"codingtest/refactor_codingtest/codingtest_241231.sol\":2423:2516  if (score >= 60) {... */\n      tag_323\n      jumpi\n        /* \"codingtest/refactor_codingtest/codingtest_241231.sol\":2454:2464  return \"D\" */\n      mload(0x40)\n      dup1\n      0x40\n      add\n      0x40\n      mstore\n      dup1\n      0x01\n      dup2\n      mstore\n      0x20\n      add\n      0x4400000000000000000000000000000000000000000000000000000000000000\n      dup2\n      mstore\n      pop\n      swap1\n      pop\n      jump(tag_316)\n        /* \"codingtest/refactor_codingtest/codingtest_241231.sol\":2423:2516  if (score >= 60) {... */\n    tag_323:\n        /* \"codingtest/refactor_codingtest/codingtest_241231.sol\":2495:2505  return \"F\" */\n      mload(0x40)\n      dup1\n      0x40\n      add\n      0x40\n      mstore\n      dup1\n      0x01\n      dup2\n      mstore\n      0x20\n      add\n      0x4600000000000000000000000000000000000000000000000000000000000000\n      dup2\n      mstore\n      pop\n      swap1\n      pop\n        /* \"codingtest/refactor_codingtest/codingtest_241231.sol\":2162:2522  function calculateGrade(uint256 score) internal pure returns (string memory) {... */\n    tag_316:\n      swap2\n      swap1\n      pop\n      jump\t// out\n    tag_128:\n      mload(0x40)\n      dup1\n      0xa0\n      add\n      0x40\n      mstore\n      dup1\n      0x60\n      dup2\n      mstore\n      0x20\n      add\n      0x00\n      dup2\n      mstore\n      0x20\n      add\n      0x00\n      dup2\n      mstore\n      0x20\n      add\n      0x60\n      dup2\n      mstore\n      0x20\n      add\n      0x60\n      dup2\n      mstore\n      pop\n      swap1\n      jump\t// out\n    tag_240:\n      dup3\n      dup1\n      sload\n      dup3\n      dup3\n      sstore\n      swap1\n      0x00\n      mstore\n      keccak256(0x00, 0x20)\n      swap1\n      dup2\n      add\n      swap3\n      dup3\n      iszero\n      tag_325\n      jumpi\n      swap2\n      0x20\n      mul\n      dup3\n      add\n    tag_326:\n      dup3\n      dup2\n      gt\n      iszero\n      tag_327\n      jumpi\n      dup3\n      mload\n      dup3\n      swap1\n      dup2\n      tag_328\n      swap2\n      swap1\n      tag_237\n      jump\t// in\n    tag_328:\n      pop\n      swap2\n      0x20\n      add\n      swap2\n      swap1\n      0x01\n      add\n      swap1\n      jump(tag_326)\n    tag_327:\n    tag_325:\n      pop\n      swap1\n      pop\n      tag_329\n      swap2\n      swap1\n      tag_330\n      jump\t// in\n    tag_329:\n      pop\n      swap1\n      jump\t// out\n    tag_330:\n    tag_331:\n      dup1\n      dup3\n      gt\n      iszero\n      tag_332\n      jumpi\n      0x00\n      dup2\n      dup2\n      tag_333\n      swap2\n      swap1\n      tag_334\n      jump\t// in\n    tag_333:\n      pop\n      0x01\n      add\n      jump(tag_331)\n    tag_332:\n      pop\n      swap1\n      jump\t// out\n    tag_334:\n      pop\n      dup1\n      sload\n      tag_335\n      swap1\n      tag_64\n      jump\t// in\n    tag_335:\n      0x00\n      dup3\n      sstore\n      dup1\n      0x1f\n      lt\n      tag_337\n      jumpi\n      pop\n      jump(tag_336)\n    tag_337:\n      0x1f\n      add\n      0x20\n      swap1\n      div\n      swap1\n      0x00\n      mstore\n      keccak256(0x00, 0x20)\n      swap1\n      dup2\n      add\n      swap1\n      tag_338\n      swap2\n      swap1\n      tag_339\n      jump\t// in\n    tag_338:\n    tag_336:\n      pop\n      jump\t// out\n    tag_339:\n    tag_340:\n      dup1\n      dup3\n      gt\n      iszero\n      tag_341\n      jumpi\n      0x00\n      dup2\n      0x00\n      swap1\n      sstore\n      pop\n      0x01\n      add\n      jump(tag_340)\n    tag_341:\n      pop\n      swap1\n      jump\t// out\n        /* \"#utility.yul\":7:82   */\n    tag_342:\n        /* \"#utility.yul\":40:46   */\n      0x00\n        /* \"#utility.yul\":73:75   */\n      0x40\n        /* \"#utility.yul\":67:76   */\n      mload\n        /* \"#utility.yul\":57:76   */\n      swap1\n      pop\n        /* \"#utility.yul\":7:82   */\n      swap1\n      jump\t// out\n        /* \"#utility.yul\":88:205   */\n    tag_343:\n        /* \"#utility.yul\":197:198   */\n      0x00\n        /* \"#utility.yul\":194:195   */\n      dup1\n        /* \"#utility.yul\":187:199   */\n      revert\n        /* \"#utility.yul\":211:328   */\n    tag_344:\n        /* \"#utility.yul\":320:321   */\n      0x00\n        /* \"#utility.yul\":317:318   */\n      dup1\n        /* \"#utility.yul\":310:322   */\n      revert\n        /* \"#utility.yul\":334:411   */\n    tag_345:\n        /* \"#utility.yul\":371:378   */\n      0x00\n        /* \"#utility.yul\":400:405   */\n      dup2\n        /* \"#utility.yul\":389:405   */\n      swap1\n      pop\n        /* \"#utility.yul\":334:411   */\n      swap2\n      swap1\n      pop\n      jump\t// out\n        /* \"#utility.yul\":417:539   */\n    tag_346:\n        /* \"#utility.yul\":490:514   */\n      tag_428\n        /* \"#utility.yul\":508:513   */\n      dup2\n        /* \"#utility.yul\":490:514   */\n      tag_345\n      jump\t// in\n    tag_428:\n        /* \"#utility.yul\":483:488   */\n      dup2\n        /* \"#utility.yul\":480:515   */\n      eq\n        /* \"#utility.yul\":470:533   */\n      tag_429\n      jumpi\n        /* \"#utility.yul\":529:530   */\n      0x00\n        /* \"#utility.yul\":526:527   */\n      dup1\n        /* \"#utility.yul\":519:531   */\n      revert\n        /* \"#utility.yul\":470:533   */\n    tag_429:\n        /* \"#utility.yul\":417:539   */\n      pop\n      jump\t// out\n        /* \"#utility.yul\":545:684   */\n    tag_347:\n        /* \"#utility.yul\":591:596   */\n      0x00\n        /* \"#utility.yul\":629:635   */\n      dup2\n        /* \"#utility.yul\":616:636   */\n      calldataload\n        /* \"#utility.yul\":607:636   */\n      swap1\n      pop\n        /* \"#utility.yul\":645:678   */\n      tag_431\n        /* \"#utility.yul\":672:677   */\n      dup2\n        /* \"#utility.yul\":645:678   */\n      tag_346\n      jump\t// in\n    tag_431:\n        /* \"#utility.yul\":545:684   */\n      swap3\n      swap2\n      pop\n      pop\n      jump\t// out\n        /* \"#utility.yul\":690:1019   */\n    tag_17:\n        /* \"#utility.yul\":749:755   */\n      0x00\n        /* \"#utility.yul\":798:800   */\n      0x20\n        /* \"#utility.yul\":786:795   */\n      dup3\n        /* \"#utility.yul\":777:784   */\n      dup5\n        /* \"#utility.yul\":773:796   */\n      sub\n        /* \"#utility.yul\":769:801   */\n      slt\n        /* \"#utility.yul\":766:885   */\n      iszero\n      tag_433\n      jumpi\n        /* \"#utility.yul\":804:883   */\n      tag_434\n      tag_343\n      jump\t// in\n    tag_434:\n        /* \"#utility.yul\":766:885   */\n    tag_433:\n        /* \"#utility.yul\":924:925   */\n      0x00\n        /* \"#utility.yul\":949:1002   */\n      tag_435\n        /* \"#utility.yul\":994:1001   */\n      dup5\n        /* \"#utility.yul\":985:991   */\n      dup3\n        /* \"#utility.yul\":974:983   */\n      dup6\n        /* \"#utility.yul\":970:992   */\n      add\n        /* \"#utility.yul\":949:1002   */\n      tag_347\n      jump\t// in\n    tag_435:\n        /* \"#utility.yul\":939:1002   */\n      swap2\n      pop\n        /* \"#utility.yul\":895:1012   */\n      pop\n        /* \"#utility.yul\":690:1019   */\n      swap3\n      swap2\n      pop\n      pop\n      jump\t// out\n        /* \"#utility.yul\":1025:1124   */\n    tag_348:\n        /* \"#utility.yul\":1077:1083   */\n      0x00\n        /* \"#utility.yul\":1111:1116   */\n      dup2\n        /* \"#utility.yul\":1105:1117   */\n      mload\n        /* \"#utility.yul\":1095:1117   */\n      swap1\n      pop\n        /* \"#utility.yul\":1025:1124   */\n      swap2\n      swap1\n      pop\n      jump\t// out\n        /* \"#utility.yul\":1130:1299   */\n    tag_349:\n        /* \"#utility.yul\":1214:1225   */\n      0x00\n        /* \"#utility.yul\":1248:1254   */\n      dup3\n        /* \"#utility.yul\":1243:1246   */\n      dup3\n        /* \"#utility.yul\":1236:1255   */\n      mstore\n        /* \"#utility.yul\":1288:1292   */\n      0x20\n        /* \"#utility.yul\":1283:1286   */\n      dup3\n        /* \"#utility.yul\":1279:1293   */\n      add\n        /* \"#utility.yul\":1264:1293   */\n      swap1\n      pop\n        /* \"#utility.yul\":1130:1299   */\n      swap3\n      swap2\n      pop\n      pop\n      jump\t// out\n        /* \"#utility.yul\":1305:1444   */\n    tag_350:\n        /* \"#utility.yul\":1394:1400   */\n      dup3\n        /* \"#utility.yul\":1389:1392   */\n      dup2\n        /* \"#utility.yul\":1384:1387   */\n      dup4\n        /* \"#utility.yul\":1378:1401   */\n      mcopy\n        /* \"#utility.yul\":1435:1436   */\n      0x00\n        /* \"#utility.yul\":1426:1432   */\n      dup4\n        /* \"#utility.yul\":1421:1424   */\n      dup4\n        /* \"#utility.yul\":1417:1433   */\n      add\n        /* \"#utility.yul\":1410:1437   */\n      mstore\n        /* \"#utility.yul\":1305:1444   */\n      pop\n      pop\n      pop\n      jump\t// out\n        /* \"#utility.yul\":1450:1552   */\n    tag_351:\n        /* \"#utility.yul\":1491:1497   */\n      0x00\n        /* \"#utility.yul\":1542:1544   */\n      0x1f\n        /* \"#utility.yul\":1538:1545   */\n      not\n        /* \"#utility.yul\":1533:1535   */\n      0x1f\n        /* \"#utility.yul\":1526:1531   */\n      dup4\n        /* \"#utility.yul\":1522:1536   */\n      add\n        /* \"#utility.yul\":1518:1546   */\n      and\n        /* \"#utility.yul\":1508:1546   */\n      swap1\n      pop\n        /* \"#utility.yul\":1450:1552   */\n      swap2\n      swap1\n      pop\n      jump\t// out\n        /* \"#utility.yul\":1558:1935   */\n    tag_352:\n        /* \"#utility.yul\":1646:1649   */\n      0x00\n        /* \"#utility.yul\":1674:1713   */\n      tag_441\n        /* \"#utility.yul\":1707:1712   */\n      dup3\n        /* \"#utility.yul\":1674:1713   */\n      tag_348\n      jump\t// in\n    tag_441:\n        /* \"#utility.yul\":1729:1800   */\n      tag_442\n        /* \"#utility.yul\":1793:1799   */\n      dup2\n        /* \"#utility.yul\":1788:1791   */\n      dup6\n        /* \"#utility.yul\":1729:1800   */\n      tag_349\n      jump\t// in\n    tag_442:\n        /* \"#utility.yul\":1722:1800   */\n      swap4\n      pop\n        /* \"#utility.yul\":1809:1874   */\n      tag_443\n        /* \"#utility.yul\":1867:1873   */\n      dup2\n        /* \"#utility.yul\":1862:1865   */\n      dup6\n        /* \"#utility.yul\":1855:1859   */\n      0x20\n        /* \"#utility.yul\":1848:1853   */\n      dup7\n        /* \"#utility.yul\":1844:1860   */\n      add\n        /* \"#utility.yul\":1809:1874   */\n      tag_350\n      jump\t// in\n    tag_443:\n        /* \"#utility.yul\":1899:1928   */\n      tag_444\n        /* \"#utility.yul\":1921:1927   */\n      dup2\n        /* \"#utility.yul\":1899:1928   */\n      tag_351\n      jump\t// in\n    tag_444:\n        /* \"#utility.yul\":1894:1897   */\n      dup5\n        /* \"#utility.yul\":1890:1929   */\n      add\n        /* \"#utility.yul\":1883:1929   */\n      swap2\n      pop\n        /* \"#utility.yul\":1650:1935   */\n      pop\n        /* \"#utility.yul\":1558:1935   */\n      swap3\n      swap2\n      pop\n      pop\n      jump\t// out\n        /* \"#utility.yul\":1941:2059   */\n    tag_353:\n        /* \"#utility.yul\":2028:2052   */\n      tag_446\n        /* \"#utility.yul\":2046:2051   */\n      dup2\n        /* \"#utility.yul\":2028:2052   */\n      tag_345\n      jump\t// in\n    tag_446:\n        /* \"#utility.yul\":2023:2026   */\n      dup3\n        /* \"#utility.yul\":2016:2053   */\n      mstore\n        /* \"#utility.yul\":1941:2059   */\n      pop\n      pop\n      jump\t// out\n        /* \"#utility.yul\":2065:2800   */\n    tag_20:\n        /* \"#utility.yul\":2282:2286   */\n      0x00\n        /* \"#utility.yul\":2320:2323   */\n      0x80\n        /* \"#utility.yul\":2309:2318   */\n      dup3\n        /* \"#utility.yul\":2305:2324   */\n      add\n        /* \"#utility.yul\":2297:2324   */\n      swap1\n      pop\n        /* \"#utility.yul\":2370:2379   */\n      dup2\n        /* \"#utility.yul\":2364:2368   */\n      dup2\n        /* \"#utility.yul\":2360:2380   */\n      sub\n        /* \"#utility.yul\":2356:2357   */\n      0x00\n        /* \"#utility.yul\":2345:2354   */\n      dup4\n        /* \"#utility.yul\":2341:2358   */\n      add\n        /* \"#utility.yul\":2334:2381   */\n      mstore\n        /* \"#utility.yul\":2398:2476   */\n      tag_448\n        /* \"#utility.yul\":2471:2475   */\n      dup2\n        /* \"#utility.yul\":2462:2468   */\n      dup8\n        /* \"#utility.yul\":2398:2476   */\n      tag_352\n      jump\t// in\n    tag_448:\n        /* \"#utility.yul\":2390:2476   */\n      swap1\n      pop\n        /* \"#utility.yul\":2486:2558   */\n      tag_449\n        /* \"#utility.yul\":2554:2556   */\n      0x20\n        /* \"#utility.yul\":2543:2552   */\n      dup4\n        /* \"#utility.yul\":2539:2557   */\n      add\n        /* \"#utility.yul\":2530:2536   */\n      dup7\n        /* \"#utility.yul\":2486:2558   */\n      tag_353\n      jump\t// in\n    tag_449:\n        /* \"#utility.yul\":2568:2640   */\n      tag_450\n        /* \"#utility.yul\":2636:2638   */\n      0x40\n        /* \"#utility.yul\":2625:2634   */\n      dup4\n        /* \"#utility.yul\":2621:2639   */\n      add\n        /* \"#utility.yul\":2612:2618   */\n      dup6\n        /* \"#utility.yul\":2568:2640   */\n      tag_353\n      jump\t// in\n    tag_450:\n        /* \"#utility.yul\":2687:2696   */\n      dup2\n        /* \"#utility.yul\":2681:2685   */\n      dup2\n        /* \"#utility.yul\":2677:2697   */\n      sub\n        /* \"#utility.yul\":2672:2674   */\n      0x60\n        /* \"#utility.yul\":2661:2670   */\n      dup4\n        /* \"#utility.yul\":2657:2675   */\n      add\n        /* \"#utility.yul\":2650:2698   */\n      mstore\n        /* \"#utility.yul\":2715:2793   */\n      tag_451\n        /* \"#utility.yul\":2788:2792   */\n      dup2\n        /* \"#utility.yul\":2779:2785   */\n      dup5\n        /* \"#utility.yul\":2715:2793   */\n      tag_352\n      jump\t// in\n    tag_451:\n        /* \"#utility.yul\":2707:2793   */\n      swap1\n      pop\n        /* \"#utility.yul\":2065:2800   */\n      swap6\n      swap5\n      pop\n      pop\n      pop\n      pop\n      pop\n      jump\t// out\n        /* \"#utility.yul\":2806:2896   */\n    tag_354:\n        /* \"#utility.yul\":2840:2847   */\n      0x00\n        /* \"#utility.yul\":2883:2888   */\n      dup2\n        /* \"#utility.yul\":2876:2889   */\n      iszero\n        /* \"#utility.yul\":2869:2890   */\n      iszero\n        /* \"#utility.yul\":2858:2890   */\n      swap1\n      pop\n        /* \"#utility.yul\":2806:2896   */\n      swap2\n      swap1\n      pop\n      jump\t// out\n        /* \"#utility.yul\":2902:3011   */\n    tag_355:\n        /* \"#utility.yul\":2983:3004   */\n      tag_454\n        /* \"#utility.yul\":2998:3003   */\n      dup2\n        /* \"#utility.yul\":2983:3004   */\n      tag_354\n      jump\t// in\n    tag_454:\n        /* \"#utility.yul\":2978:2981   */\n      dup3\n        /* \"#utility.yul\":2971:3005   */\n      mstore\n        /* \"#utility.yul\":2902:3011   */\n      pop\n      pop\n      jump\t// out\n        /* \"#utility.yul\":3017:3227   */\n    tag_24:\n        /* \"#utility.yul\":3104:3108   */\n      0x00\n        /* \"#utility.yul\":3142:3144   */\n      0x20\n        /* \"#utility.yul\":3131:3140   */\n      dup3\n        /* \"#utility.yul\":3127:3145   */\n      add\n        /* \"#utility.yul\":3119:3145   */\n      swap1\n      pop\n        /* \"#utility.yul\":3155:3220   */\n      tag_456\n        /* \"#utility.yul\":3217:3218   */\n      0x00\n        /* \"#utility.yul\":3206:3215   */\n      dup4\n        /* \"#utility.yul\":3202:3219   */\n      add\n        /* \"#utility.yul\":3193:3199   */\n      dup5\n        /* \"#utility.yul\":3155:3220   */\n      tag_355\n      jump\t// in\n    tag_456:\n        /* \"#utility.yul\":3017:3227   */\n      swap3\n      swap2\n      pop\n      pop\n      jump\t// out\n        /* \"#utility.yul\":3233:3370   */\n    tag_356:\n        /* \"#utility.yul\":3323:3329   */\n      0x00\n        /* \"#utility.yul\":3357:3362   */\n      dup2\n        /* \"#utility.yul\":3351:3363   */\n      mload\n        /* \"#utility.yul\":3341:3363   */\n      swap1\n      pop\n        /* \"#utility.yul\":3233:3370   */\n      swap2\n      swap1\n      pop\n      jump\t// out\n        /* \"#utility.yul\":3376:3583   */\n    tag_357:\n        /* \"#utility.yul\":3498:3509   */\n      0x00\n        /* \"#utility.yul\":3532:3538   */\n      dup3\n        /* \"#utility.yul\":3527:3530   */\n      dup3\n        /* \"#utility.yul\":3520:3539   */\n      mstore\n        /* \"#utility.yul\":3572:3576   */\n      0x20\n        /* \"#utility.yul\":3567:3570   */\n      dup3\n        /* \"#utility.yul\":3563:3577   */\n      add\n        /* \"#utility.yul\":3548:3577   */\n      swap1\n      pop\n        /* \"#utility.yul\":3376:3583   */\n      swap3\n      swap2\n      pop\n      pop\n      jump\t// out\n        /* \"#utility.yul\":3589:3744   */\n    tag_358:\n        /* \"#utility.yul\":3679:3683   */\n      0x00\n        /* \"#utility.yul\":3702:3705   */\n      dup2\n        /* \"#utility.yul\":3694:3705   */\n      swap1\n      pop\n        /* \"#utility.yul\":3732:3736   */\n      0x20\n        /* \"#utility.yul\":3727:3730   */\n      dup3\n        /* \"#utility.yul\":3723:3737   */\n      add\n        /* \"#utility.yul\":3715:3737   */\n      swap1\n      pop\n        /* \"#utility.yul\":3589:3744   */\n      swap2\n      swap1\n      pop\n      jump\t// out\n        /* \"#utility.yul\":3750:3909   */\n    tag_359:\n        /* \"#utility.yul\":3824:3835   */\n      0x00\n        /* \"#utility.yul\":3858:3864   */\n      dup3\n        /* \"#utility.yul\":3853:3856   */\n      dup3\n        /* \"#utility.yul\":3846:3865   */\n      mstore\n        /* \"#utility.yul\":3898:3902   */\n      0x20\n        /* \"#utility.yul\":3893:3896   */\n      dup3\n        /* \"#utility.yul\":3889:3903   */\n      add\n        /* \"#utility.yul\":3874:3903   */\n      swap1\n      pop\n        /* \"#utility.yul\":3750:3909   */\n      swap3\n      swap2\n      pop\n      pop\n      jump\t// out\n        /* \"#utility.yul\":3915:4272   */\n    tag_360:\n        /* \"#utility.yul\":3993:3996   */\n      0x00\n        /* \"#utility.yul\":4021:4060   */\n      tag_462\n        /* \"#utility.yul\":4054:4059   */\n      dup3\n        /* \"#utility.yul\":4021:4060   */\n      tag_348\n      jump\t// in\n    tag_462:\n        /* \"#utility.yul\":4076:4137   */\n      tag_463\n        /* \"#utility.yul\":4130:4136   */\n      dup2\n        /* \"#utility.yul\":4125:4128   */\n      dup6\n        /* \"#utility.yul\":4076:4137   */\n      tag_359\n      jump\t// in\n    tag_463:\n        /* \"#utility.yul\":4069:4137   */\n      swap4\n      pop\n        /* \"#utility.yul\":4146:4211   */\n      tag_464\n        /* \"#utility.yul\":4204:4210   */\n      dup2\n        /* \"#utility.yul\":4199:4202   */\n      dup6\n        /* \"#utility.yul\":4192:4196   */\n      0x20\n        /* \"#utility.yul\":4185:4190   */\n      dup7\n        /* \"#utility.yul\":4181:4197   */\n      add\n        /* \"#utility.yul\":4146:4211   */\n      tag_350\n      jump\t// in\n    tag_464:\n        /* \"#utility.yul\":4236:4265   */\n      tag_465\n        /* \"#utility.yul\":4258:4264   */\n      dup2\n        /* \"#utility.yul\":4236:4265   */\n      tag_351\n      jump\t// in\n    tag_465:\n        /* \"#utility.yul\":4231:4234   */\n      dup5\n        /* \"#utility.yul\":4227:4266   */\n      add\n        /* \"#utility.yul\":4220:4266   */\n      swap2\n      pop\n        /* \"#utility.yul\":3997:4272   */\n      pop\n        /* \"#utility.yul\":3915:4272   */\n      swap3\n      swap2\n      pop\n      pop\n      jump\t// out\n        /* \"#utility.yul\":4278:4386   */\n    tag_361:\n        /* \"#utility.yul\":4355:4379   */\n      tag_467\n        /* \"#utility.yul\":4373:4378   */\n      dup2\n        /* \"#utility.yul\":4355:4379   */\n      tag_345\n      jump\t// in\n    tag_467:\n        /* \"#utility.yul\":4350:4353   */\n      dup3\n        /* \"#utility.yul\":4343:4380   */\n      mstore\n        /* \"#utility.yul\":4278:4386   */\n      pop\n      pop\n      jump\t// out\n        /* \"#utility.yul\":4392:4516   */\n    tag_362:\n        /* \"#utility.yul\":4469:4475   */\n      0x00\n        /* \"#utility.yul\":4503:4508   */\n      dup2\n        /* \"#utility.yul\":4497:4509   */\n      mload\n        /* \"#utility.yul\":4487:4509   */\n      swap1\n      pop\n        /* \"#utility.yul\":4392:4516   */\n      swap2\n      swap1\n      pop\n      jump\t// out\n        /* \"#utility.yul\":4522:4706   */\n    tag_363:\n        /* \"#utility.yul\":4621:4632   */\n      0x00\n        /* \"#utility.yul\":4655:4661   */\n      dup3\n        /* \"#utility.yul\":4650:4653   */\n      dup3\n        /* \"#utility.yul\":4643:4662   */\n      mstore\n        /* \"#utility.yul\":4695:4699   */\n      0x20\n        /* \"#utility.yul\":4690:4693   */\n      dup3\n        /* \"#utility.yul\":4686:4700   */\n      add\n        /* \"#utility.yul\":4671:4700   */\n      swap1\n      pop\n        /* \"#utility.yul\":4522:4706   */\n      swap3\n      swap2\n      pop\n      pop\n      jump\t// out\n        /* \"#utility.yul\":4712:4854   */\n    tag_364:\n        /* \"#utility.yul\":4789:4793   */\n      0x00\n        /* \"#utility.yul\":4812:4815   */\n      dup2\n        /* \"#utility.yul\":4804:4815   */\n      swap1\n      pop\n        /* \"#utility.yul\":4842:4846   */\n      0x20\n        /* \"#utility.yul\":4837:4840   */\n      dup3\n        /* \"#utility.yul\":4833:4847   */\n      add\n        /* \"#utility.yul\":4825:4847   */\n      swap1\n      pop\n        /* \"#utility.yul\":4712:4854   */\n      swap2\n      swap1\n      pop\n      jump\t// out\n        /* \"#utility.yul\":4860:5056   */\n    tag_365:\n        /* \"#utility.yul\":4949:4959   */\n      0x00\n        /* \"#utility.yul\":4984:5050   */\n      tag_472\n        /* \"#utility.yul\":5046:5049   */\n      dup4\n        /* \"#utility.yul\":5038:5044   */\n      dup4\n        /* \"#utility.yul\":4984:5050   */\n      tag_360\n      jump\t// in\n    tag_472:\n        /* \"#utility.yul\":4970:5050   */\n      swap1\n      pop\n        /* \"#utility.yul\":4860:5056   */\n      swap3\n      swap2\n      pop\n      pop\n      jump\t// out\n        /* \"#utility.yul\":5062:5185   */\n    tag_366:\n        /* \"#utility.yul\":5142:5146   */\n      0x00\n        /* \"#utility.yul\":5174:5178   */\n      0x20\n        /* \"#utility.yul\":5169:5172   */\n      dup3\n        /* \"#utility.yul\":5165:5179   */\n      add\n        /* \"#utility.yul\":5157:5179   */\n      swap1\n      pop\n        /* \"#utility.yul\":5062:5185   */\n      swap2\n      swap1\n      pop\n      jump\t// out\n        /* \"#utility.yul\":5219:6190   */\n    tag_367:\n        /* \"#utility.yul\":5348:5351   */\n      0x00\n        /* \"#utility.yul\":5377:5441   */\n      tag_475\n        /* \"#utility.yul\":5435:5440   */\n      dup3\n        /* \"#utility.yul\":5377:5441   */\n      tag_362\n      jump\t// in\n    tag_475:\n        /* \"#utility.yul\":5457:5543   */\n      tag_476\n        /* \"#utility.yul\":5536:5542   */\n      dup2\n        /* \"#utility.yul\":5531:5534   */\n      dup6\n        /* \"#utility.yul\":5457:5543   */\n      tag_363\n      jump\t// in\n    tag_476:\n        /* \"#utility.yul\":5450:5543   */\n      swap4\n      pop\n        /* \"#utility.yul\":5569:5572   */\n      dup4\n        /* \"#utility.yul\":5614:5618   */\n      0x20\n        /* \"#utility.yul\":5606:5612   */\n      dup3\n        /* \"#utility.yul\":5602:5619   */\n      mul\n        /* \"#utility.yul\":5597:5600   */\n      dup6\n        /* \"#utility.yul\":5593:5620   */\n      add\n        /* \"#utility.yul\":5644:5710   */\n      tag_477\n        /* \"#utility.yul\":5704:5709   */\n      dup6\n        /* \"#utility.yul\":5644:5710   */\n      tag_364\n      jump\t// in\n    tag_477:\n        /* \"#utility.yul\":5733:5740   */\n      dup1\n        /* \"#utility.yul\":5764:5765   */\n      0x00\n        /* \"#utility.yul\":5749:6145   */\n    tag_478:\n        /* \"#utility.yul\":5774:5780   */\n      dup6\n        /* \"#utility.yul\":5771:5772   */\n      dup2\n        /* \"#utility.yul\":5768:5781   */\n      lt\n        /* \"#utility.yul\":5749:6145   */\n      iszero\n      tag_480\n      jumpi\n        /* \"#utility.yul\":5845:5854   */\n      dup5\n        /* \"#utility.yul\":5839:5843   */\n      dup5\n        /* \"#utility.yul\":5835:5855   */\n      sub\n        /* \"#utility.yul\":5830:5833   */\n      dup10\n        /* \"#utility.yul\":5823:5856   */\n      mstore\n        /* \"#utility.yul\":5896:5902   */\n      dup2\n        /* \"#utility.yul\":5890:5903   */\n      mload\n        /* \"#utility.yul\":5924:6008   */\n      tag_481\n        /* \"#utility.yul\":6003:6007   */\n      dup6\n        /* \"#utility.yul\":5988:6001   */\n      dup3\n        /* \"#utility.yul\":5924:6008   */\n      tag_365\n      jump\t// in\n    tag_481:\n        /* \"#utility.yul\":5916:6008   */\n      swap5\n      pop\n        /* \"#utility.yul\":6031:6101   */\n      tag_482\n        /* \"#utility.yul\":6094:6100   */\n      dup4\n        /* \"#utility.yul\":6031:6101   */\n      tag_366\n      jump\t// in\n    tag_482:\n        /* \"#utility.yul\":6021:6101   */\n      swap3\n      pop\n        /* \"#utility.yul\":6130:6134   */\n      0x20\n        /* \"#utility.yul\":6125:6128   */\n      dup11\n        /* \"#utility.yul\":6121:6135   */\n      add\n        /* \"#utility.yul\":6114:6135   */\n      swap10\n      pop\n        /* \"#utility.yul\":5809:6145   */\n      pop\n        /* \"#utility.yul\":5796:5797   */\n      0x01\n        /* \"#utility.yul\":5793:5794   */\n      dup2\n        /* \"#utility.yul\":5789:5798   */\n      add\n        /* \"#utility.yul\":5784:5798   */\n      swap1\n      pop\n        /* \"#utility.yul\":5749:6145   */\n      jump(tag_478)\n    tag_480:\n        /* \"#utility.yul\":5753:5767   */\n      pop\n        /* \"#utility.yul\":6161:6165   */\n      dup3\n        /* \"#utility.yul\":6154:6165   */\n      swap8\n      pop\n        /* \"#utility.yul\":6181:6184   */\n      dup8\n        /* \"#utility.yul\":6174:6184   */\n      swap6\n      pop\n        /* \"#utility.yul\":5353:6190   */\n      pop\n      pop\n      pop\n      pop\n      pop\n        /* \"#utility.yul\":5219:6190   */\n      swap3\n      swap2\n      pop\n      pop\n      jump\t// out\n        /* \"#utility.yul\":6252:7565   */\n    tag_368:\n        /* \"#utility.yul\":6357:6360   */\n      0x00\n        /* \"#utility.yul\":6393:6397   */\n      0xa0\n        /* \"#utility.yul\":6388:6391   */\n      dup4\n        /* \"#utility.yul\":6384:6398   */\n      add\n        /* \"#utility.yul\":6480:6484   */\n      0x00\n        /* \"#utility.yul\":6473:6478   */\n      dup4\n        /* \"#utility.yul\":6469:6485   */\n      add\n        /* \"#utility.yul\":6463:6486   */\n      mload\n        /* \"#utility.yul\":6533:6536   */\n      dup5\n        /* \"#utility.yul\":6527:6531   */\n      dup3\n        /* \"#utility.yul\":6523:6537   */\n      sub\n        /* \"#utility.yul\":6516:6520   */\n      0x00\n        /* \"#utility.yul\":6511:6514   */\n      dup7\n        /* \"#utility.yul\":6507:6521   */\n      add\n        /* \"#utility.yul\":6500:6538   */\n      mstore\n        /* \"#utility.yul\":6559:6632   */\n      tag_484\n        /* \"#utility.yul\":6627:6631   */\n      dup3\n        /* \"#utility.yul\":6613:6625   */\n      dup3\n        /* \"#utility.yul\":6559:6632   */\n      tag_360\n      jump\t// in\n    tag_484:\n        /* \"#utility.yul\":6551:6632   */\n      swap2\n      pop\n        /* \"#utility.yul\":6408:6643   */\n      pop\n        /* \"#utility.yul\":6727:6731   */\n      0x20\n        /* \"#utility.yul\":6720:6725   */\n      dup4\n        /* \"#utility.yul\":6716:6732   */\n      add\n        /* \"#utility.yul\":6710:6733   */\n      mload\n        /* \"#utility.yul\":6746:6809   */\n      tag_485\n        /* \"#utility.yul\":6803:6807   */\n      0x20\n        /* \"#utility.yul\":6798:6801   */\n      dup7\n        /* \"#utility.yul\":6794:6808   */\n      add\n        /* \"#utility.yul\":6780:6792   */\n      dup3\n        /* \"#utility.yul\":6746:6809   */\n      tag_361\n      jump\t// in\n    tag_485:\n        /* \"#utility.yul\":6653:6819   */\n      pop\n        /* \"#utility.yul\":6902:6906   */\n      0x40\n        /* \"#utility.yul\":6895:6900   */\n      dup4\n        /* \"#utility.yul\":6891:6907   */\n      add\n        /* \"#utility.yul\":6885:6908   */\n      mload\n        /* \"#utility.yul\":6921:6984   */\n      tag_486\n        /* \"#utility.yul\":6978:6982   */\n      0x40\n        /* \"#utility.yul\":6973:6976   */\n      dup7\n        /* \"#utility.yul\":6969:6983   */\n      add\n        /* \"#utility.yul\":6955:6967   */\n      dup3\n        /* \"#utility.yul\":6921:6984   */\n      tag_361\n      jump\t// in\n    tag_486:\n        /* \"#utility.yul\":6829:6994   */\n      pop\n        /* \"#utility.yul\":7077:7081   */\n      0x60\n        /* \"#utility.yul\":7070:7075   */\n      dup4\n        /* \"#utility.yul\":7066:7082   */\n      add\n        /* \"#utility.yul\":7060:7083   */\n      mload\n        /* \"#utility.yul\":7130:7133   */\n      dup5\n        /* \"#utility.yul\":7124:7128   */\n      dup3\n        /* \"#utility.yul\":7120:7134   */\n      sub\n        /* \"#utility.yul\":7113:7117   */\n      0x60\n        /* \"#utility.yul\":7108:7111   */\n      dup7\n        /* \"#utility.yul\":7104:7118   */\n      add\n        /* \"#utility.yul\":7097:7135   */\n      mstore\n        /* \"#utility.yul\":7156:7229   */\n      tag_487\n        /* \"#utility.yul\":7224:7228   */\n      dup3\n        /* \"#utility.yul\":7210:7222   */\n      dup3\n        /* \"#utility.yul\":7156:7229   */\n      tag_360\n      jump\t// in\n    tag_487:\n        /* \"#utility.yul\":7148:7229   */\n      swap2\n      pop\n        /* \"#utility.yul\":7004:7240   */\n      pop\n        /* \"#utility.yul\":7325:7329   */\n      0x80\n        /* \"#utility.yul\":7318:7323   */\n      dup4\n        /* \"#utility.yul\":7314:7330   */\n      add\n        /* \"#utility.yul\":7308:7331   */\n      mload\n        /* \"#utility.yul\":7378:7381   */\n      dup5\n        /* \"#utility.yul\":7372:7376   */\n      dup3\n        /* \"#utility.yul\":7368:7382   */\n      sub\n        /* \"#utility.yul\":7361:7365   */\n      0x80\n        /* \"#utility.yul\":7356:7359   */\n      dup7\n        /* \"#utility.yul\":7352:7366   */\n      add\n        /* \"#utility.yul\":7345:7383   */\n      mstore\n        /* \"#utility.yul\":7404:7527   */\n      tag_488\n        /* \"#utility.yul\":7522:7526   */\n      dup3\n        /* \"#utility.yul\":7508:7520   */\n      dup3\n        /* \"#utility.yul\":7404:7527   */\n      tag_367\n      jump\t// in\n    tag_488:\n        /* \"#utility.yul\":7396:7527   */\n      swap2\n      pop\n        /* \"#utility.yul\":7250:7538   */\n      pop\n        /* \"#utility.yul\":7555:7559   */\n      dup1\n        /* \"#utility.yul\":7548:7559   */\n      swap2\n      pop\n        /* \"#utility.yul\":6362:7565   */\n      pop\n        /* \"#utility.yul\":6252:7565   */\n      swap3\n      swap2\n      pop\n      pop\n      jump\t// out\n        /* \"#utility.yul\":7571:7819   */\n    tag_369:\n        /* \"#utility.yul\":7686:7696   */\n      0x00\n        /* \"#utility.yul\":7721:7813   */\n      tag_490\n        /* \"#utility.yul\":7809:7812   */\n      dup4\n        /* \"#utility.yul\":7801:7807   */\n      dup4\n        /* \"#utility.yul\":7721:7813   */\n      tag_368\n      jump\t// in\n    tag_490:\n        /* \"#utility.yul\":7707:7813   */\n      swap1\n      pop\n        /* \"#utility.yul\":7571:7819   */\n      swap3\n      swap2\n      pop\n      pop\n      jump\t// out\n        /* \"#utility.yul\":7825:7961   */\n    tag_370:\n        /* \"#utility.yul\":7918:7922   */\n      0x00\n        /* \"#utility.yul\":7950:7954   */\n      0x20\n        /* \"#utility.yul\":7945:7948   */\n      dup3\n        /* \"#utility.yul\":7941:7955   */\n      add\n        /* \"#utility.yul\":7933:7955   */\n      swap1\n      pop\n        /* \"#utility.yul\":7825:7961   */\n      swap2\n      swap1\n      pop\n      jump\t// out\n        /* \"#utility.yul\":8027:9122   */\n    tag_371:\n        /* \"#utility.yul\":8192:8195   */\n      0x00\n        /* \"#utility.yul\":8221:8298   */\n      tag_493\n        /* \"#utility.yul\":8292:8297   */\n      dup3\n        /* \"#utility.yul\":8221:8298   */\n      tag_356\n      jump\t// in\n    tag_493:\n        /* \"#utility.yul\":8314:8423   */\n      tag_494\n        /* \"#utility.yul\":8416:8422   */\n      dup2\n        /* \"#utility.yul\":8411:8414   */\n      dup6\n        /* \"#utility.yul\":8314:8423   */\n      tag_357\n      jump\t// in\n    tag_494:\n        /* \"#utility.yul\":8307:8423   */\n      swap4\n      pop\n        /* \"#utility.yul\":8449:8452   */\n      dup4\n        /* \"#utility.yul\":8494:8498   */\n      0x20\n        /* \"#utility.yul\":8486:8492   */\n      dup3\n        /* \"#utility.yul\":8482:8499   */\n      mul\n        /* \"#utility.yul\":8477:8480   */\n      dup6\n        /* \"#utility.yul\":8473:8500   */\n      add\n        /* \"#utility.yul\":8524:8603   */\n      tag_495\n        /* \"#utility.yul\":8597:8602   */\n      dup6\n        /* \"#utility.yul\":8524:8603   */\n      tag_358\n      jump\t// in\n    tag_495:\n        /* \"#utility.yul\":8626:8633   */\n      dup1\n        /* \"#utility.yul\":8657:8658   */\n      0x00\n        /* \"#utility.yul\":8642:9077   */\n    tag_496:\n        /* \"#utility.yul\":8667:8673   */\n      dup6\n        /* \"#utility.yul\":8664:8665   */\n      dup2\n        /* \"#utility.yul\":8661:8674   */\n      lt\n        /* \"#utility.yul\":8642:9077   */\n      iszero\n      tag_498\n      jumpi\n        /* \"#utility.yul\":8738:8747   */\n      dup5\n        /* \"#utility.yul\":8732:8736   */\n      dup5\n        /* \"#utility.yul\":8728:8748   */\n      sub\n        /* \"#utility.yul\":8723:8726   */\n      dup10\n        /* \"#utility.yul\":8716:8749   */\n      mstore\n        /* \"#utility.yul\":8789:8795   */\n      dup2\n        /* \"#utility.yul\":8783:8796   */\n      mload\n        /* \"#utility.yul\":8817:8927   */\n      tag_499\n        /* \"#utility.yul\":8922:8926   */\n      dup6\n        /* \"#utility.yul\":8907:8920   */\n      dup3\n        /* \"#utility.yul\":8817:8927   */\n      tag_369\n      jump\t// in\n    tag_499:\n        /* \"#utility.yul\":8809:8927   */\n      swap5\n      pop\n        /* \"#utility.yul\":8950:9033   */\n      tag_500\n        /* \"#utility.yul\":9026:9032   */\n      dup4\n        /* \"#utility.yul\":8950:9033   */\n      tag_370\n      jump\t// in\n    tag_500:\n        /* \"#utility.yul\":8940:9033   */\n      swap3\n      pop\n        /* \"#utility.yul\":9062:9066   */\n      0x20\n        /* \"#utility.yul\":9057:9060   */\n      dup11\n        /* \"#utility.yul\":9053:9067   */\n      add\n        /* \"#utility.yul\":9046:9067   */\n      swap10\n      pop\n        /* \"#utility.yul\":8702:9077   */\n      pop\n        /* \"#utility.yul\":8689:8690   */\n      0x01\n        /* \"#utility.yul\":8686:8687   */\n      dup2\n        /* \"#utility.yul\":8682:8691   */\n      add\n        /* \"#utility.yul\":8677:8691   */\n      swap1\n      pop\n        /* \"#utility.yul\":8642:9077   */\n      jump(tag_496)\n    tag_498:\n        /* \"#utility.yul\":8646:8660   */\n      pop\n        /* \"#utility.yul\":9093:9097   */\n      dup3\n        /* \"#utility.yul\":9086:9097   */\n      swap8\n      pop\n        /* \"#utility.yul\":9113:9116   */\n      dup8\n        /* \"#utility.yul\":9106:9116   */\n      swap6\n      pop\n        /* \"#utility.yul\":8197:9122   */\n      pop\n      pop\n      pop\n      pop\n      pop\n        /* \"#utility.yul\":8027:9122   */\n      swap3\n      swap2\n      pop\n      pop\n      jump\t// out\n        /* \"#utility.yul\":9128:9593   */\n    tag_28:\n        /* \"#utility.yul\":9317:9321   */\n      0x00\n        /* \"#utility.yul\":9355:9357   */\n      0x20\n        /* \"#utility.yul\":9344:9353   */\n      dup3\n        /* \"#utility.yul\":9340:9358   */\n      add\n        /* \"#utility.yul\":9332:9358   */\n      swap1\n      pop\n        /* \"#utility.yul\":9404:9413   */\n      dup2\n        /* \"#utility.yul\":9398:9402   */\n      dup2\n        /* \"#utility.yul\":9394:9414   */\n      sub\n        /* \"#utility.yul\":9390:9391   */\n      0x00\n        /* \"#utility.yul\":9379:9388   */\n      dup4\n        /* \"#utility.yul\":9375:9392   */\n      add\n        /* \"#utility.yul\":9368:9415   */\n      mstore\n        /* \"#utility.yul\":9432:9586   */\n      tag_502\n        /* \"#utility.yul\":9581:9585   */\n      dup2\n        /* \"#utility.yul\":9572:9578   */\n      dup5\n        /* \"#utility.yul\":9432:9586   */\n      tag_371\n      jump\t// in\n    tag_502:\n        /* \"#utility.yul\":9424:9586   */\n      swap1\n      pop\n        /* \"#utility.yul\":9128:9593   */\n      swap3\n      swap2\n      pop\n      pop\n      jump\t// out\n        /* \"#utility.yul\":9599:9716   */\n    tag_372:\n        /* \"#utility.yul\":9708:9709   */\n      0x00\n        /* \"#utility.yul\":9705:9706   */\n      dup1\n        /* \"#utility.yul\":9698:9710   */\n      revert\n        /* \"#utility.yul\":9722:9839   */\n    tag_373:\n        /* \"#utility.yul\":9831:9832   */\n      0x00\n        /* \"#utility.yul\":9828:9829   */\n      dup1\n        /* \"#utility.yul\":9821:9833   */\n      revert\n        /* \"#utility.yul\":9845:10025   */\n    tag_124:\n        /* \"#utility.yul\":9893:9970   */\n      0x4e487b7100000000000000000000000000000000000000000000000000000000\n        /* \"#utility.yul\":9890:9891   */\n      0x00\n        /* \"#utility.yul\":9883:9971   */\n      mstore\n        /* \"#utility.yul\":9990:9994   */\n      0x41\n        /* \"#utility.yul\":9987:9988   */\n      0x04\n        /* \"#utility.yul\":9980:9995   */\n      mstore\n        /* \"#utility.yul\":10014:10018   */\n      0x24\n        /* \"#utility.yul\":10011:10012   */\n      0x00\n        /* \"#utility.yul\":10004:10019   */\n      revert\n        /* \"#utility.yul\":10031:10312   */\n    tag_374:\n        /* \"#utility.yul\":10114:10141   */\n      tag_507\n        /* \"#utility.yul\":10136:10140   */\n      dup3\n        /* \"#utility.yul\":10114:10141   */\n      tag_351\n      jump\t// in\n    tag_507:\n        /* \"#utility.yul\":10106:10112   */\n      dup2\n        /* \"#utility.yul\":10102:10142   */\n      add\n        /* \"#utility.yul\":10244:10250   */\n      dup2\n        /* \"#utility.yul\":10232:10242   */\n      dup2\n        /* \"#utility.yul\":10229:10251   */\n      lt\n        /* \"#utility.yul\":10208:10226   */\n      0xffffffffffffffff\n        /* \"#utility.yul\":10196:10206   */\n      dup3\n        /* \"#utility.yul\":10193:10227   */\n      gt\n        /* \"#utility.yul\":10190:10252   */\n      or\n        /* \"#utility.yul\":10187:10275   */\n      iszero\n      tag_508\n      jumpi\n        /* \"#utility.yul\":10255:10273   */\n      tag_509\n      tag_124\n      jump\t// in\n    tag_509:\n        /* \"#utility.yul\":10187:10275   */\n    tag_508:\n        /* \"#utility.yul\":10295:10305   */\n      dup1\n        /* \"#utility.yul\":10291:10293   */\n      0x40\n        /* \"#utility.yul\":10284:10306   */\n      mstore\n        /* \"#utility.yul\":10074:10312   */\n      pop\n        /* \"#utility.yul\":10031:10312   */\n      pop\n      pop\n      jump\t// out\n        /* \"#utility.yul\":10318:10447   */\n    tag_375:\n        /* \"#utility.yul\":10352:10358   */\n      0x00\n        /* \"#utility.yul\":10379:10399   */\n      tag_511\n      tag_342\n      jump\t// in\n    tag_511:\n        /* \"#utility.yul\":10369:10399   */\n      swap1\n      pop\n        /* \"#utility.yul\":10408:10441   */\n      tag_512\n        /* \"#utility.yul\":10436:10440   */\n      dup3\n        /* \"#utility.yul\":10428:10434   */\n      dup3\n        /* \"#utility.yul\":10408:10441   */\n      tag_374\n      jump\t// in\n    tag_512:\n        /* \"#utility.yul\":10318:10447   */\n      swap2\n      swap1\n      pop\n      jump\t// out\n        /* \"#utility.yul\":10453:10761   */\n    tag_376:\n        /* \"#utility.yul\":10515:10519   */\n      0x00\n        /* \"#utility.yul\":10605:10623   */\n      0xffffffffffffffff\n        /* \"#utility.yul\":10597:10603   */\n      dup3\n        /* \"#utility.yul\":10594:10624   */\n      gt\n        /* \"#utility.yul\":10591:10647   */\n      iszero\n      tag_514\n      jumpi\n        /* \"#utility.yul\":10627:10645   */\n      tag_515\n      tag_124\n      jump\t// in\n    tag_515:\n        /* \"#utility.yul\":10591:10647   */\n    tag_514:\n        /* \"#utility.yul\":10665:10694   */\n      tag_516\n        /* \"#utility.yul\":10687:10693   */\n      dup3\n        /* \"#utility.yul\":10665:10694   */\n      tag_351\n      jump\t// in\n    tag_516:\n        /* \"#utility.yul\":10657:10694   */\n      swap1\n      pop\n        /* \"#utility.yul\":10749:10753   */\n      0x20\n        /* \"#utility.yul\":10743:10747   */\n      dup2\n        /* \"#utility.yul\":10739:10754   */\n      add\n        /* \"#utility.yul\":10731:10754   */\n      swap1\n      pop\n        /* \"#utility.yul\":10453:10761   */\n      swap2\n      swap1\n      pop\n      jump\t// out\n        /* \"#utility.yul\":10767:10915   */\n    tag_377:\n        /* \"#utility.yul\":10865:10871   */\n      dup3\n        /* \"#utility.yul\":10860:10863   */\n      dup2\n        /* \"#utility.yul\":10855:10858   */\n      dup4\n        /* \"#utility.yul\":10842:10872   */\n      calldatacopy\n        /* \"#utility.yul\":10906:10907   */\n      0x00\n        /* \"#utility.yul\":10897:10903   */\n      dup4\n        /* \"#utility.yul\":10892:10895   */\n      dup4\n        /* \"#utility.yul\":10888:10904   */\n      add\n        /* \"#utility.yul\":10881:10908   */\n      mstore\n        /* \"#utility.yul\":10767:10915   */\n      pop\n      pop\n      pop\n      jump\t// out\n        /* \"#utility.yul\":10921:11346   */\n    tag_378:\n        /* \"#utility.yul\":10999:11004   */\n      0x00\n        /* \"#utility.yul\":11024:11090   */\n      tag_519\n        /* \"#utility.yul\":11040:11089   */\n      tag_520\n        /* \"#utility.yul\":11082:11088   */\n      dup5\n        /* \"#utility.yul\":11040:11089   */\n      tag_376\n      jump\t// in\n    tag_520:\n        /* \"#utility.yul\":11024:11090   */\n      tag_375\n      jump\t// in\n    tag_519:\n        /* \"#utility.yul\":11015:11090   */\n      swap1\n      pop\n        /* \"#utility.yul\":11113:11119   */\n      dup3\n        /* \"#utility.yul\":11106:11111   */\n      dup2\n        /* \"#utility.yul\":11099:11120   */\n      mstore\n        /* \"#utility.yul\":11151:11155   */\n      0x20\n        /* \"#utility.yul\":11144:11149   */\n      dup2\n        /* \"#utility.yul\":11140:11156   */\n      add\n        /* \"#utility.yul\":11189:11192   */\n      dup5\n        /* \"#utility.yul\":11180:11186   */\n      dup5\n        /* \"#utility.yul\":11175:11178   */\n      dup5\n        /* \"#utility.yul\":11171:11187   */\n      add\n        /* \"#utility.yul\":11168:11193   */\n      gt\n        /* \"#utility.yul\":11165:11277   */\n      iszero\n      tag_521\n      jumpi\n        /* \"#utility.yul\":11196:11275   */\n      tag_522\n      tag_373\n      jump\t// in\n    tag_522:\n        /* \"#utility.yul\":11165:11277   */\n    tag_521:\n        /* \"#utility.yul\":11286:11340   */\n      tag_523\n        /* \"#utility.yul\":11333:11339   */\n      dup5\n        /* \"#utility.yul\":11328:11331   */\n      dup3\n        /* \"#utility.yul\":11323:11326   */\n      dup6\n        /* \"#utility.yul\":11286:11340   */\n      tag_377\n      jump\t// in\n    tag_523:\n        /* \"#utility.yul\":11005:11346   */\n      pop\n        /* \"#utility.yul\":10921:11346   */\n      swap4\n      swap3\n      pop\n      pop\n      pop\n      jump\t// out\n        /* \"#utility.yul\":11366:11706   */\n    tag_379:\n        /* \"#utility.yul\":11422:11427   */\n      0x00\n        /* \"#utility.yul\":11471:11474   */\n      dup3\n        /* \"#utility.yul\":11464:11468   */\n      0x1f\n        /* \"#utility.yul\":11456:11462   */\n      dup4\n        /* \"#utility.yul\":11452:11469   */\n      add\n        /* \"#utility.yul\":11448:11475   */\n      slt\n        /* \"#utility.yul\":11438:11560   */\n      tag_525\n      jumpi\n        /* \"#utility.yul\":11479:11558   */\n      tag_526\n      tag_372\n      jump\t// in\n    tag_526:\n        /* \"#utility.yul\":11438:11560   */\n    tag_525:\n        /* \"#utility.yul\":11596:11602   */\n      dup2\n        /* \"#utility.yul\":11583:11603   */\n      calldataload\n        /* \"#utility.yul\":11621:11700   */\n      tag_527\n        /* \"#utility.yul\":11696:11699   */\n      dup5\n        /* \"#utility.yul\":11688:11694   */\n      dup3\n        /* \"#utility.yul\":11681:11685   */\n      0x20\n        /* \"#utility.yul\":11673:11679   */\n      dup7\n        /* \"#utility.yul\":11669:11686   */\n      add\n        /* \"#utility.yul\":11621:11700   */\n      tag_378\n      jump\t// in\n    tag_527:\n        /* \"#utility.yul\":11612:11700   */\n      swap2\n      pop\n        /* \"#utility.yul\":11428:11706   */\n      pop\n        /* \"#utility.yul\":11366:11706   */\n      swap3\n      swap2\n      pop\n      pop\n      jump\t// out\n        /* \"#utility.yul\":11712:12221   */\n    tag_31:\n        /* \"#utility.yul\":11781:11787   */\n      0x00\n        /* \"#utility.yul\":11830:11832   */\n      0x20\n        /* \"#utility.yul\":11818:11827   */\n      dup3\n        /* \"#utility.yul\":11809:11816   */\n      dup5\n        /* \"#utility.yul\":11805:11828   */\n      sub\n        /* \"#utility.yul\":11801:11833   */\n      slt\n        /* \"#utility.yul\":11798:11917   */\n      iszero\n      tag_529\n      jumpi\n        /* \"#utility.yul\":11836:11915   */\n      tag_530\n      tag_343\n      jump\t// in\n    tag_530:\n        /* \"#utility.yul\":11798:11917   */\n    tag_529:\n        /* \"#utility.yul\":11984:11985   */\n      0x00\n        /* \"#utility.yul\":11973:11982   */\n      dup3\n        /* \"#utility.yul\":11969:11986   */\n      add\n        /* \"#utility.yul\":11956:11987   */\n      calldataload\n        /* \"#utility.yul\":12014:12032   */\n      0xffffffffffffffff\n        /* \"#utility.yul\":12006:12012   */\n      dup2\n        /* \"#utility.yul\":12003:12033   */\n      gt\n        /* \"#utility.yul\":12000:12117   */\n      iszero\n      tag_531\n      jumpi\n        /* \"#utility.yul\":12036:12115   */\n      tag_532\n      tag_344\n      jump\t// in\n    tag_532:\n        /* \"#utility.yul\":12000:12117   */\n    tag_531:\n        /* \"#utility.yul\":12141:12204   */\n      tag_533\n        /* \"#utility.yul\":12196:12203   */\n      dup5\n        /* \"#utility.yul\":12187:12193   */\n      dup3\n        /* \"#utility.yul\":12176:12185   */\n      dup6\n        /* \"#utility.yul\":12172:12194   */\n      add\n        /* \"#utility.yul\":12141:12204   */\n      tag_379\n      jump\t// in\n    tag_533:\n        /* \"#utility.yul\":12131:12204   */\n      swap2\n      pop\n        /* \"#utility.yul\":11927:12214   */\n      pop\n        /* \"#utility.yul\":11712:12221   */\n      swap3\n      swap2\n      pop\n      pop\n      jump\t// out\n        /* \"#utility.yul\":12227:12449   */\n    tag_34:\n        /* \"#utility.yul\":12320:12324   */\n      0x00\n        /* \"#utility.yul\":12358:12360   */\n      0x20\n        /* \"#utility.yul\":12347:12356   */\n      dup3\n        /* \"#utility.yul\":12343:12361   */\n      add\n        /* \"#utility.yul\":12335:12361   */\n      swap1\n      pop\n        /* \"#utility.yul\":12371:12442   */\n      tag_535\n        /* \"#utility.yul\":12439:12440   */\n      0x00\n        /* \"#utility.yul\":12428:12437   */\n      dup4\n        /* \"#utility.yul\":12424:12441   */\n      add\n        /* \"#utility.yul\":12415:12421   */\n      dup5\n        /* \"#utility.yul\":12371:12442   */\n      tag_353\n      jump\t// in\n    tag_535:\n        /* \"#utility.yul\":12227:12449   */\n      swap3\n      swap2\n      pop\n      pop\n      jump\t// out\n        /* \"#utility.yul\":12511:13834   */\n    tag_380:\n        /* \"#utility.yul\":12626:12629   */\n      0x00\n        /* \"#utility.yul\":12662:12666   */\n      0xa0\n        /* \"#utility.yul\":12657:12660   */\n      dup4\n        /* \"#utility.yul\":12653:12667   */\n      add\n        /* \"#utility.yul\":12749:12753   */\n      0x00\n        /* \"#utility.yul\":12742:12747   */\n      dup4\n        /* \"#utility.yul\":12738:12754   */\n      add\n        /* \"#utility.yul\":12732:12755   */\n      mload\n        /* \"#utility.yul\":12802:12805   */\n      dup5\n        /* \"#utility.yul\":12796:12800   */\n      dup3\n        /* \"#utility.yul\":12792:12806   */\n      sub\n        /* \"#utility.yul\":12785:12789   */\n      0x00\n        /* \"#utility.yul\":12780:12783   */\n      dup7\n        /* \"#utility.yul\":12776:12790   */\n      add\n        /* \"#utility.yul\":12769:12807   */\n      mstore\n        /* \"#utility.yul\":12828:12901   */\n      tag_537\n        /* \"#utility.yul\":12896:12900   */\n      dup3\n        /* \"#utility.yul\":12882:12894   */\n      dup3\n        /* \"#utility.yul\":12828:12901   */\n      tag_360\n      jump\t// in\n    tag_537:\n        /* \"#utility.yul\":12820:12901   */\n      swap2\n      pop\n        /* \"#utility.yul\":12677:12912   */\n      pop\n        /* \"#utility.yul\":12996:13000   */\n      0x20\n        /* \"#utility.yul\":12989:12994   */\n      dup4\n        /* \"#utility.yul\":12985:13001   */\n      add\n        /* \"#utility.yul\":12979:13002   */\n      mload\n        /* \"#utility.yul\":13015:13078   */\n      tag_538\n        /* \"#utility.yul\":13072:13076   */\n      0x20\n        /* \"#utility.yul\":13067:13070   */\n      dup7\n        /* \"#utility.yul\":13063:13077   */\n      add\n        /* \"#utility.yul\":13049:13061   */\n      dup3\n        /* \"#utility.yul\":13015:13078   */\n      tag_361\n      jump\t// in\n    tag_538:\n        /* \"#utility.yul\":12922:13088   */\n      pop\n        /* \"#utility.yul\":13171:13175   */\n      0x40\n        /* \"#utility.yul\":13164:13169   */\n      dup4\n        /* \"#utility.yul\":13160:13176   */\n      add\n        /* \"#utility.yul\":13154:13177   */\n      mload\n        /* \"#utility.yul\":13190:13253   */\n      tag_539\n        /* \"#utility.yul\":13247:13251   */\n      0x40\n        /* \"#utility.yul\":13242:13245   */\n      dup7\n        /* \"#utility.yul\":13238:13252   */\n      add\n        /* \"#utility.yul\":13224:13236   */\n      dup3\n        /* \"#utility.yul\":13190:13253   */\n      tag_361\n      jump\t// in\n    tag_539:\n        /* \"#utility.yul\":13098:13263   */\n      pop\n        /* \"#utility.yul\":13346:13350   */\n      0x60\n        /* \"#utility.yul\":13339:13344   */\n      dup4\n        /* \"#utility.yul\":13335:13351   */\n      add\n        /* \"#utility.yul\":13329:13352   */\n      mload\n        /* \"#utility.yul\":13399:13402   */\n      dup5\n        /* \"#utility.yul\":13393:13397   */\n      dup3\n        /* \"#utility.yul\":13389:13403   */\n      sub\n        /* \"#utility.yul\":13382:13386   */\n      0x60\n        /* \"#utility.yul\":13377:13380   */\n      dup7\n        /* \"#utility.yul\":13373:13387   */\n      add\n        /* \"#utility.yul\":13366:13404   */\n      mstore\n        /* \"#utility.yul\":13425:13498   */\n      tag_540\n        /* \"#utility.yul\":13493:13497   */\n      dup3\n        /* \"#utility.yul\":13479:13491   */\n      dup3\n        /* \"#utility.yul\":13425:13498   */\n      tag_360\n      jump\t// in\n    tag_540:\n        /* \"#utility.yul\":13417:13498   */\n      swap2\n      pop\n        /* \"#utility.yul\":13273:13509   */\n      pop\n        /* \"#utility.yul\":13594:13598   */\n      0x80\n        /* \"#utility.yul\":13587:13592   */\n      dup4\n        /* \"#utility.yul\":13583:13599   */\n      add\n        /* \"#utility.yul\":13577:13600   */\n      mload\n        /* \"#utility.yul\":13647:13650   */\n      dup5\n        /* \"#utility.yul\":13641:13645   */\n      dup3\n        /* \"#utility.yul\":13637:13651   */\n      sub\n        /* \"#utility.yul\":13630:13634   */\n      0x80\n        /* \"#utility.yul\":13625:13628   */\n      dup7\n        /* \"#utility.yul\":13621:13635   */\n      add\n        /* \"#utility.yul\":13614:13652   */\n      mstore\n        /* \"#utility.yul\":13673:13796   */\n      tag_541\n        /* \"#utility.yul\":13791:13795   */\n      dup3\n        /* \"#utility.yul\":13777:13789   */\n      dup3\n        /* \"#utility.yul\":13673:13796   */\n      tag_367\n      jump\t// in\n    tag_541:\n        /* \"#utility.yul\":13665:13796   */\n      swap2\n      pop\n        /* \"#utility.yul\":13519:13807   */\n      pop\n        /* \"#utility.yul\":13824:13828   */\n      dup1\n        /* \"#utility.yul\":13817:13828   */\n      swap2\n      pop\n        /* \"#utility.yul\":12631:13834   */\n      pop\n        /* \"#utility.yul\":12511:13834   */\n      swap3\n      swap2\n      pop\n      pop\n      jump\t// out\n        /* \"#utility.yul\":13840:14205   */\n    tag_42:\n        /* \"#utility.yul\":13979:13983   */\n      0x00\n        /* \"#utility.yul\":14017:14019   */\n      0x20\n        /* \"#utility.yul\":14006:14015   */\n      dup3\n        /* \"#utility.yul\":14002:14020   */\n      add\n        /* \"#utility.yul\":13994:14020   */\n      swap1\n      pop\n        /* \"#utility.yul\":14066:14075   */\n      dup2\n        /* \"#utility.yul\":14060:14064   */\n      dup2\n        /* \"#utility.yul\":14056:14076   */\n      sub\n        /* \"#utility.yul\":14052:14053   */\n      0x00\n        /* \"#utility.yul\":14041:14050   */\n      dup4\n        /* \"#utility.yul\":14037:14054   */\n      add\n        /* \"#utility.yul\":14030:14077   */\n      mstore\n        /* \"#utility.yul\":14094:14198   */\n      tag_543\n        /* \"#utility.yul\":14193:14197   */\n      dup2\n        /* \"#utility.yul\":14184:14190   */\n      dup5\n        /* \"#utility.yul\":14094:14198   */\n      tag_380\n      jump\t// in\n    tag_543:\n        /* \"#utility.yul\":14086:14198   */\n      swap1\n      pop\n        /* \"#utility.yul\":13840:14205   */\n      swap3\n      swap2\n      pop\n      pop\n      jump\t// out\n        /* \"#utility.yul\":14211:14532   */\n    tag_381:\n        /* \"#utility.yul\":14298:14302   */\n      0x00\n        /* \"#utility.yul\":14388:14406   */\n      0xffffffffffffffff\n        /* \"#utility.yul\":14380:14386   */\n      dup3\n        /* \"#utility.yul\":14377:14407   */\n      gt\n        /* \"#utility.yul\":14374:14430   */\n      iszero\n      tag_545\n      jumpi\n        /* \"#utility.yul\":14410:14428   */\n      tag_546\n      tag_124\n      jump\t// in\n    tag_546:\n        /* \"#utility.yul\":14374:14430   */\n    tag_545:\n        /* \"#utility.yul\":14460:14464   */\n      0x20\n        /* \"#utility.yul\":14452:14458   */\n      dup3\n        /* \"#utility.yul\":14448:14465   */\n      mul\n        /* \"#utility.yul\":14440:14465   */\n      swap1\n      pop\n        /* \"#utility.yul\":14520:14524   */\n      0x20\n        /* \"#utility.yul\":14514:14518   */\n      dup2\n        /* \"#utility.yul\":14510:14525   */\n      add\n        /* \"#utility.yul\":14502:14525   */\n      swap1\n      pop\n        /* \"#utility.yul\":14211:14532   */\n      swap2\n      swap1\n      pop\n      jump\t// out\n        /* \"#utility.yul\":14538:14655   */\n    tag_382:\n        /* \"#utility.yul\":14647:14648   */\n      0x00\n        /* \"#utility.yul\":14644:14645   */\n      dup1\n        /* \"#utility.yul\":14637:14649   */\n      revert\n        /* \"#utility.yul\":14677:15622   */\n    tag_383:\n        /* \"#utility.yul\":14783:14788   */\n      0x00\n        /* \"#utility.yul\":14808:14899   */\n      tag_549\n        /* \"#utility.yul\":14824:14898   */\n      tag_550\n        /* \"#utility.yul\":14891:14897   */\n      dup5\n        /* \"#utility.yul\":14824:14898   */\n      tag_381\n      jump\t// in\n    tag_550:\n        /* \"#utility.yul\":14808:14899   */\n      tag_375\n      jump\t// in\n    tag_549:\n        /* \"#utility.yul\":14799:14899   */\n      swap1\n      pop\n        /* \"#utility.yul\":14919:14924   */\n      dup1\n        /* \"#utility.yul\":14948:14954   */\n      dup4\n        /* \"#utility.yul\":14941:14946   */\n      dup3\n        /* \"#utility.yul\":14934:14955   */\n      mstore\n        /* \"#utility.yul\":14982:14986   */\n      0x20\n        /* \"#utility.yul\":14975:14980   */\n      dup3\n        /* \"#utility.yul\":14971:14987   */\n      add\n        /* \"#utility.yul\":14964:14987   */\n      swap1\n      pop\n        /* \"#utility.yul\":15035:15039   */\n      0x20\n        /* \"#utility.yul\":15027:15033   */\n      dup5\n        /* \"#utility.yul\":15023:15040   */\n      mul\n        /* \"#utility.yul\":15015:15021   */\n      dup4\n        /* \"#utility.yul\":15011:15041   */\n      add\n        /* \"#utility.yul\":15064:15067   */\n      dup6\n        /* \"#utility.yul\":15056:15062   */\n      dup2\n        /* \"#utility.yul\":15053:15068   */\n      gt\n        /* \"#utility.yul\":15050:15172   */\n      iszero\n      tag_551\n      jumpi\n        /* \"#utility.yul\":15083:15162   */\n      tag_552\n      tag_382\n      jump\t// in\n    tag_552:\n        /* \"#utility.yul\":15050:15172   */\n    tag_551:\n        /* \"#utility.yul\":15198:15204   */\n      dup4\n        /* \"#utility.yul\":15181:15616   */\n    tag_553:\n        /* \"#utility.yul\":15215:15221   */\n      dup2\n        /* \"#utility.yul\":15210:15213   */\n      dup2\n        /* \"#utility.yul\":15207:15222   */\n      lt\n        /* \"#utility.yul\":15181:15616   */\n      iszero\n      tag_555\n      jumpi\n        /* \"#utility.yul\":15304:15307   */\n      dup1\n        /* \"#utility.yul\":15291:15308   */\n      calldataload\n        /* \"#utility.yul\":15340:15358   */\n      0xffffffffffffffff\n        /* \"#utility.yul\":15327:15338   */\n      dup2\n        /* \"#utility.yul\":15324:15359   */\n      gt\n        /* \"#utility.yul\":15321:15443   */\n      iszero\n      tag_556\n      jumpi\n        /* \"#utility.yul\":15362:15441   */\n      tag_557\n      tag_372\n      jump\t// in\n    tag_557:\n        /* \"#utility.yul\":15321:15443   */\n    tag_556:\n        /* \"#utility.yul\":15486:15497   */\n      dup1\n        /* \"#utility.yul\":15478:15484   */\n      dup7\n        /* \"#utility.yul\":15474:15498   */\n      add\n        /* \"#utility.yul\":15524:15571   */\n      tag_558\n        /* \"#utility.yul\":15567:15570   */\n      dup10\n        /* \"#utility.yul\":15555:15565   */\n      dup3\n        /* \"#utility.yul\":15524:15571   */\n      tag_379\n      jump\t// in\n    tag_558:\n        /* \"#utility.yul\":15519:15522   */\n      dup6\n        /* \"#utility.yul\":15512:15572   */\n      mstore\n        /* \"#utility.yul\":15601:15605   */\n      0x20\n        /* \"#utility.yul\":15596:15599   */\n      dup6\n        /* \"#utility.yul\":15592:15606   */\n      add\n        /* \"#utility.yul\":15585:15606   */\n      swap5\n      pop\n        /* \"#utility.yul\":15257:15616   */\n      pop\n      pop\n        /* \"#utility.yul\":15241:15245   */\n      0x20\n        /* \"#utility.yul\":15236:15239   */\n      dup2\n        /* \"#utility.yul\":15232:15246   */\n      add\n        /* \"#utility.yul\":15225:15246   */\n      swap1\n      pop\n        /* \"#utility.yul\":15181:15616   */\n      jump(tag_553)\n    tag_555:\n        /* \"#utility.yul\":15185:15206   */\n      pop\n        /* \"#utility.yul\":14789:15622   */\n      pop\n      pop\n        /* \"#utility.yul\":14677:15622   */\n      swap4\n      swap3\n      pop\n      pop\n      pop\n      jump\t// out\n        /* \"#utility.yul\":15644:16034   */\n    tag_384:\n        /* \"#utility.yul\":15725:15730   */\n      0x00\n        /* \"#utility.yul\":15774:15777   */\n      dup3\n        /* \"#utility.yul\":15767:15771   */\n      0x1f\n        /* \"#utility.yul\":15759:15765   */\n      dup4\n        /* \"#utility.yul\":15755:15772   */\n      add\n        /* \"#utility.yul\":15751:15778   */\n      slt\n        /* \"#utility.yul\":15741:15863   */\n      tag_560\n      jumpi\n        /* \"#utility.yul\":15782:15861   */\n      tag_561\n      tag_372\n      jump\t// in\n    tag_561:\n        /* \"#utility.yul\":15741:15863   */\n    tag_560:\n        /* \"#utility.yul\":15899:15905   */\n      dup2\n        /* \"#utility.yul\":15886:15906   */\n      calldataload\n        /* \"#utility.yul\":15924:16028   */\n      tag_562\n        /* \"#utility.yul\":16024:16027   */\n      dup5\n        /* \"#utility.yul\":16016:16022   */\n      dup3\n        /* \"#utility.yul\":16009:16013   */\n      0x20\n        /* \"#utility.yul\":16001:16007   */\n      dup7\n        /* \"#utility.yul\":15997:16014   */\n      add\n        /* \"#utility.yul\":15924:16028   */\n      tag_383\n      jump\t// in\n    tag_562:\n        /* \"#utility.yul\":15915:16028   */\n      swap2\n      pop\n        /* \"#utility.yul\":15731:16034   */\n      pop\n        /* \"#utility.yul\":15644:16034   */\n      swap3\n      swap2\n      pop\n      pop\n      jump\t// out\n        /* \"#utility.yul\":16040:17215   */\n    tag_45:\n        /* \"#utility.yul\":16171:16177   */\n      0x00\n        /* \"#utility.yul\":16179:16185   */\n      dup1\n        /* \"#utility.yul\":16187:16193   */\n      0x00\n        /* \"#utility.yul\":16195:16201   */\n      dup1\n        /* \"#utility.yul\":16244:16247   */\n      0x80\n        /* \"#utility.yul\":16232:16241   */\n      dup6\n        /* \"#utility.yul\":16223:16230   */\n      dup8\n        /* \"#utility.yul\":16219:16242   */\n      sub\n        /* \"#utility.yul\":16215:16248   */\n      slt\n        /* \"#utility.yul\":16212:16332   */\n      iszero\n      tag_564\n      jumpi\n        /* \"#utility.yul\":16251:16330   */\n      tag_565\n      tag_343\n      jump\t// in\n    tag_565:\n        /* \"#utility.yul\":16212:16332   */\n    tag_564:\n        /* \"#utility.yul\":16399:16400   */\n      0x00\n        /* \"#utility.yul\":16388:16397   */\n      dup6\n        /* \"#utility.yul\":16384:16401   */\n      add\n        /* \"#utility.yul\":16371:16402   */\n      calldataload\n        /* \"#utility.yul\":16429:16447   */\n      0xffffffffffffffff\n        /* \"#utility.yul\":16421:16427   */\n      dup2\n        /* \"#utility.yul\":16418:16448   */\n      gt\n        /* \"#utility.yul\":16415:16532   */\n      iszero\n      tag_566\n      jumpi\n        /* \"#utility.yul\":16451:16530   */\n      tag_567\n      tag_344\n      jump\t// in\n    tag_567:\n        /* \"#utility.yul\":16415:16532   */\n    tag_566:\n        /* \"#utility.yul\":16556:16619   */\n      tag_568\n        /* \"#utility.yul\":16611:16618   */\n      dup8\n        /* \"#utility.yul\":16602:16608   */\n      dup3\n        /* \"#utility.yul\":16591:16600   */\n      dup9\n        /* \"#utility.yul\":16587:16609   */\n      add\n        /* \"#utility.yul\":16556:16619   */\n      tag_379\n      jump\t// in\n    tag_568:\n        /* \"#utility.yul\":16546:16619   */\n      swap5\n      pop\n        /* \"#utility.yul\":16342:16629   */\n      pop\n        /* \"#utility.yul\":16668:16670   */\n      0x20\n        /* \"#utility.yul\":16694:16747   */\n      tag_569\n        /* \"#utility.yul\":16739:16746   */\n      dup8\n        /* \"#utility.yul\":16730:16736   */\n      dup3\n        /* \"#utility.yul\":16719:16728   */\n      dup9\n        /* \"#utility.yul\":16715:16737   */\n      add\n        /* \"#utility.yul\":16694:16747   */\n      tag_347\n      jump\t// in\n    tag_569:\n        /* \"#utility.yul\":16684:16747   */\n      swap4\n      pop\n        /* \"#utility.yul\":16639:16757   */\n      pop\n        /* \"#utility.yul\":16796:16798   */\n      0x40\n        /* \"#utility.yul\":16822:16875   */\n      tag_570\n        /* \"#utility.yul\":16867:16874   */\n      dup8\n        /* \"#utility.yul\":16858:16864   */\n      dup3\n        /* \"#utility.yul\":16847:16856   */\n      dup9\n        /* \"#utility.yul\":16843:16865   */\n      add\n        /* \"#utility.yul\":16822:16875   */\n      tag_347\n      jump\t// in\n    tag_570:\n        /* \"#utility.yul\":16812:16875   */\n      swap3\n      pop\n        /* \"#utility.yul\":16767:16885   */\n      pop\n        /* \"#utility.yul\":16952:16954   */\n      0x60\n        /* \"#utility.yul\":16941:16950   */\n      dup6\n        /* \"#utility.yul\":16937:16955   */\n      add\n        /* \"#utility.yul\":16924:16956   */\n      calldataload\n        /* \"#utility.yul\":16983:17001   */\n      0xffffffffffffffff\n        /* \"#utility.yul\":16975:16981   */\n      dup2\n        /* \"#utility.yul\":16972:17002   */\n      gt\n        /* \"#utility.yul\":16969:17086   */\n      iszero\n      tag_571\n      jumpi\n        /* \"#utility.yul\":17005:17084   */\n      tag_572\n      tag_344\n      jump\t// in\n    tag_572:\n        /* \"#utility.yul\":16969:17086   */\n    tag_571:\n        /* \"#utility.yul\":17110:17198   */\n      tag_573\n        /* \"#utility.yul\":17190:17197   */\n      dup8\n        /* \"#utility.yul\":17181:17187   */\n      dup3\n        /* \"#utility.yul\":17170:17179   */\n      dup9\n        /* \"#utility.yul\":17166:17188   */\n      add\n        /* \"#utility.yul\":17110:17198   */\n      tag_384\n      jump\t// in\n    tag_573:\n        /* \"#utility.yul\":17100:17198   */\n      swap2\n      pop\n        /* \"#utility.yul\":16895:17208   */\n      pop\n        /* \"#utility.yul\":16040:17215   */\n      swap3\n      swap6\n      swap2\n      swap5\n      pop\n      swap3\n      pop\n      jump\t// out\n        /* \"#utility.yul\":17221:17335   */\n    tag_385:\n        /* \"#utility.yul\":17288:17294   */\n      0x00\n        /* \"#utility.yul\":17322:17327   */\n      dup2\n        /* \"#utility.yul\":17316:17328   */\n      mload\n        /* \"#utility.yul\":17306:17328   */\n      swap1\n      pop\n        /* \"#utility.yul\":17221:17335   */\n      swap2\n      swap1\n      pop\n      jump\t// out\n        /* \"#utility.yul\":17341:17525   */\n    tag_386:\n        /* \"#utility.yul\":17440:17451   */\n      0x00\n        /* \"#utility.yul\":17474:17480   */\n      dup3\n        /* \"#utility.yul\":17469:17472   */\n      dup3\n        /* \"#utility.yul\":17462:17481   */\n      mstore\n        /* \"#utility.yul\":17514:17518   */\n      0x20\n        /* \"#utility.yul\":17509:17512   */\n      dup3\n        /* \"#utility.yul\":17505:17519   */\n      add\n        /* \"#utility.yul\":17490:17519   */\n      swap1\n      pop\n        /* \"#utility.yul\":17341:17525   */\n      swap3\n      swap2\n      pop\n      pop\n      jump\t// out\n        /* \"#utility.yul\":17531:17663   */\n    tag_387:\n        /* \"#utility.yul\":17598:17602   */\n      0x00\n        /* \"#utility.yul\":17621:17624   */\n      dup2\n        /* \"#utility.yul\":17613:17624   */\n      swap1\n      pop\n        /* \"#utility.yul\":17651:17655   */\n      0x20\n        /* \"#utility.yul\":17646:17649   */\n      dup3\n        /* \"#utility.yul\":17642:17656   */\n      add\n        /* \"#utility.yul\":17634:17656   */\n      swap1\n      pop\n        /* \"#utility.yul\":17531:17663   */\n      swap2\n      swap1\n      pop\n      jump\t// out\n        /* \"#utility.yul\":17669:17848   */\n    tag_388:\n        /* \"#utility.yul\":17738:17748   */\n      0x00\n        /* \"#utility.yul\":17759:17805   */\n      tag_578\n        /* \"#utility.yul\":17801:17804   */\n      dup4\n        /* \"#utility.yul\":17793:17799   */\n      dup4\n        /* \"#utility.yul\":17759:17805   */\n      tag_361\n      jump\t// in\n    tag_578:\n        /* \"#utility.yul\":17837:17841   */\n      0x20\n        /* \"#utility.yul\":17832:17835   */\n      dup4\n        /* \"#utility.yul\":17828:17842   */\n      add\n        /* \"#utility.yul\":17814:17842   */\n      swap1\n      pop\n        /* \"#utility.yul\":17669:17848   */\n      swap3\n      swap2\n      pop\n      pop\n      jump\t// out\n        /* \"#utility.yul\":17854:17967   */\n    tag_389:\n        /* \"#utility.yul\":17924:17928   */\n      0x00\n        /* \"#utility.yul\":17956:17960   */\n      0x20\n        /* \"#utility.yul\":17951:17954   */\n      dup3\n        /* \"#utility.yul\":17947:17961   */\n      add\n        /* \"#utility.yul\":17939:17961   */\n      swap1\n      pop\n        /* \"#utility.yul\":17854:17967   */\n      swap2\n      swap1\n      pop\n      jump\t// out\n        /* \"#utility.yul\":18003:18735   */\n    tag_390:\n        /* \"#utility.yul\":18122:18125   */\n      0x00\n        /* \"#utility.yul\":18151:18205   */\n      tag_581\n        /* \"#utility.yul\":18199:18204   */\n      dup3\n        /* \"#utility.yul\":18151:18205   */\n      tag_385\n      jump\t// in\n    tag_581:\n        /* \"#utility.yul\":18221:18307   */\n      tag_582\n        /* \"#utility.yul\":18300:18306   */\n      dup2\n        /* \"#utility.yul\":18295:18298   */\n      dup6\n        /* \"#utility.yul\":18221:18307   */\n      tag_386\n      jump\t// in\n    tag_582:\n        /* \"#utility.yul\":18214:18307   */\n      swap4\n      pop\n        /* \"#utility.yul\":18331:18387   */\n      tag_583\n        /* \"#utility.yul\":18381:18386   */\n      dup4\n        /* \"#utility.yul\":18331:18387   */\n      tag_387\n      jump\t// in\n    tag_583:\n        /* \"#utility.yul\":18410:18417   */\n      dup1\n        /* \"#utility.yul\":18441:18442   */\n      0x00\n        /* \"#utility.yul\":18426:18710   */\n    tag_584:\n        /* \"#utility.yul\":18451:18457   */\n      dup4\n        /* \"#utility.yul\":18448:18449   */\n      dup2\n        /* \"#utility.yul\":18445:18458   */\n      lt\n        /* \"#utility.yul\":18426:18710   */\n      iszero\n      tag_586\n      jumpi\n        /* \"#utility.yul\":18527:18533   */\n      dup2\n        /* \"#utility.yul\":18521:18534   */\n      mload\n        /* \"#utility.yul\":18554:18617   */\n      tag_587\n        /* \"#utility.yul\":18613:18616   */\n      dup9\n        /* \"#utility.yul\":18598:18611   */\n      dup3\n        /* \"#utility.yul\":18554:18617   */\n      tag_388\n      jump\t// in\n    tag_587:\n        /* \"#utility.yul\":18547:18617   */\n      swap8\n      pop\n        /* \"#utility.yul\":18640:18700   */\n      tag_588\n        /* \"#utility.yul\":18693:18699   */\n      dup4\n        /* \"#utility.yul\":18640:18700   */\n      tag_389\n      jump\t// in\n    tag_588:\n        /* \"#utility.yul\":18630:18700   */\n      swap3\n      pop\n        /* \"#utility.yul\":18486:18710   */\n      pop\n        /* \"#utility.yul\":18473:18474   */\n      0x01\n        /* \"#utility.yul\":18470:18471   */\n      dup2\n        /* \"#utility.yul\":18466:18475   */\n      add\n        /* \"#utility.yul\":18461:18475   */\n      swap1\n      pop\n        /* \"#utility.yul\":18426:18710   */\n      jump(tag_584)\n    tag_586:\n        /* \"#utility.yul\":18430:18444   */\n      pop\n        /* \"#utility.yul\":18726:18729   */\n      dup6\n        /* \"#utility.yul\":18719:18729   */\n      swap4\n      pop\n        /* \"#utility.yul\":18127:18735   */\n      pop\n      pop\n      pop\n        /* \"#utility.yul\":18003:18735   */\n      swap3\n      swap2\n      pop\n      pop\n      jump\t// out\n        /* \"#utility.yul\":18741:19114   */\n    tag_57:\n        /* \"#utility.yul\":18884:18888   */\n      0x00\n        /* \"#utility.yul\":18922:18924   */\n      0x20\n        /* \"#utility.yul\":18911:18920   */\n      dup3\n        /* \"#utility.yul\":18907:18925   */\n      add\n        /* \"#utility.yul\":18899:18925   */\n      swap1\n      pop\n        /* \"#utility.yul\":18971:18980   */\n      dup2\n        /* \"#utility.yul\":18965:18969   */\n      dup2\n        /* \"#utility.yul\":18961:18981   */\n      sub\n        /* \"#utility.yul\":18957:18958   */\n      0x00\n        /* \"#utility.yul\":18946:18955   */\n      dup4\n        /* \"#utility.yul\":18942:18959   */\n      add\n        /* \"#utility.yul\":18935:18982   */\n      mstore\n        /* \"#utility.yul\":18999:19107   */\n      tag_590\n        /* \"#utility.yul\":19102:19106   */\n      dup2\n        /* \"#utility.yul\":19093:19099   */\n      dup5\n        /* \"#utility.yul\":18999:19107   */\n      tag_390\n      jump\t// in\n    tag_590:\n        /* \"#utility.yul\":18991:19107   */\n      swap1\n      pop\n        /* \"#utility.yul\":18741:19114   */\n      swap3\n      swap2\n      pop\n      pop\n      jump\t// out\n        /* \"#utility.yul\":19120:19300   */\n    tag_391:\n        /* \"#utility.yul\":19168:19245   */\n      0x4e487b7100000000000000000000000000000000000000000000000000000000\n        /* \"#utility.yul\":19165:19166   */\n      0x00\n        /* \"#utility.yul\":19158:19246   */\n      mstore\n        /* \"#utility.yul\":19265:19269   */\n      0x22\n        /* \"#utility.yul\":19262:19263   */\n      0x04\n        /* \"#utility.yul\":19255:19270   */\n      mstore\n        /* \"#utility.yul\":19289:19293   */\n      0x24\n        /* \"#utility.yul\":19286:19287   */\n      0x00\n        /* \"#utility.yul\":19279:19294   */\n      revert\n        /* \"#utility.yul\":19306:19626   */\n    tag_64:\n        /* \"#utility.yul\":19350:19356   */\n      0x00\n        /* \"#utility.yul\":19387:19388   */\n      0x02\n        /* \"#utility.yul\":19381:19385   */\n      dup3\n        /* \"#utility.yul\":19377:19389   */\n      div\n        /* \"#utility.yul\":19367:19389   */\n      swap1\n      pop\n        /* \"#utility.yul\":19434:19435   */\n      0x01\n        /* \"#utility.yul\":19428:19432   */\n      dup3\n        /* \"#utility.yul\":19424:19436   */\n      and\n        /* \"#utility.yul\":19455:19473   */\n      dup1\n        /* \"#utility.yul\":19445:19526   */\n      tag_593\n      jumpi\n        /* \"#utility.yul\":19511:19515   */\n      0x7f\n        /* \"#utility.yul\":19503:19509   */\n      dup3\n        /* \"#utility.yul\":19499:19516   */\n      and\n        /* \"#utility.yul\":19489:19516   */\n      swap2\n      pop\n        /* \"#utility.yul\":19445:19526   */\n    tag_593:\n        /* \"#utility.yul\":19573:19575   */\n      0x20\n        /* \"#utility.yul\":19565:19571   */\n      dup3\n        /* \"#utility.yul\":19562:19576   */\n      lt\n        /* \"#utility.yul\":19542:19560   */\n      dup2\n        /* \"#utility.yul\":19539:19577   */\n      sub\n        /* \"#utility.yul\":19536:19620   */\n      tag_594\n      jumpi\n        /* \"#utility.yul\":19592:19610   */\n      tag_595\n      tag_391\n      jump\t// in\n    tag_595:\n        /* \"#utility.yul\":19536:19620   */\n    tag_594:\n        /* \"#utility.yul\":19357:19626   */\n      pop\n        /* \"#utility.yul\":19306:19626   */\n      swap2\n      swap1\n      pop\n      jump\t// out\n        /* \"#utility.yul\":19632:19812   */\n    tag_392:\n        /* \"#utility.yul\":19680:19757   */\n      0x4e487b7100000000000000000000000000000000000000000000000000000000\n        /* \"#utility.yul\":19677:19678   */\n      0x00\n        /* \"#utility.yul\":19670:19758   */\n      mstore\n        /* \"#utility.yul\":19777:19781   */\n      0x11\n        /* \"#utility.yul\":19774:19775   */\n      0x04\n        /* \"#utility.yul\":19767:19782   */\n      mstore\n        /* \"#utility.yul\":19801:19805   */\n      0x24\n        /* \"#utility.yul\":19798:19799   */\n      0x00\n        /* \"#utility.yul\":19791:19806   */\n      revert\n        /* \"#utility.yul\":19818:20009   */\n    tag_107:\n        /* \"#utility.yul\":19858:19861   */\n      0x00\n        /* \"#utility.yul\":19877:19897   */\n      tag_598\n        /* \"#utility.yul\":19895:19896   */\n      dup3\n        /* \"#utility.yul\":19877:19897   */\n      tag_345\n      jump\t// in\n    tag_598:\n        /* \"#utility.yul\":19872:19897   */\n      swap2\n      pop\n        /* \"#utility.yul\":19911:19931   */\n      tag_599\n        /* \"#utility.yul\":19929:19930   */\n      dup4\n        /* \"#utility.yul\":19911:19931   */\n      tag_345\n      jump\t// in\n    tag_599:\n        /* \"#utility.yul\":19906:19931   */\n      swap3\n      pop\n        /* \"#utility.yul\":19954:19955   */\n      dup3\n        /* \"#utility.yul\":19951:19952   */\n      dup3\n        /* \"#utility.yul\":19947:19956   */\n      add\n        /* \"#utility.yul\":19940:19956   */\n      swap1\n      pop\n        /* \"#utility.yul\":19975:19978   */\n      dup1\n        /* \"#utility.yul\":19972:19973   */\n      dup3\n        /* \"#utility.yul\":19969:19979   */\n      gt\n        /* \"#utility.yul\":19966:20002   */\n      iszero\n      tag_600\n      jumpi\n        /* \"#utility.yul\":19982:20000   */\n      tag_601\n      tag_392\n      jump\t// in\n    tag_601:\n        /* \"#utility.yul\":19966:20002   */\n    tag_600:\n        /* \"#utility.yul\":19818:20009   */\n      swap3\n      swap2\n      pop\n      pop\n      jump\t// out\n        /* \"#utility.yul\":20015:20195   */\n    tag_110:\n        /* \"#utility.yul\":20063:20140   */\n      0x4e487b7100000000000000000000000000000000000000000000000000000000\n        /* \"#utility.yul\":20060:20061   */\n      0x00\n        /* \"#utility.yul\":20053:20141   */\n      mstore\n        /* \"#utility.yul\":20160:20164   */\n      0x32\n        /* \"#utility.yul\":20157:20158   */\n      0x04\n        /* \"#utility.yul\":20150:20165   */\n      mstore\n        /* \"#utility.yul\":20184:20188   */\n      0x24\n        /* \"#utility.yul\":20181:20182   */\n      0x00\n        /* \"#utility.yul\":20174:20189   */\n      revert\n        /* \"#utility.yul\":20201:20349   */\n    tag_393:\n        /* \"#utility.yul\":20303:20314   */\n      0x00\n        /* \"#utility.yul\":20340:20343   */\n      dup2\n        /* \"#utility.yul\":20325:20343   */\n      swap1\n      pop\n        /* \"#utility.yul\":20201:20349   */\n      swap3\n      swap2\n      pop\n      pop\n      jump\t// out\n        /* \"#utility.yul\":20355:20745   */\n    tag_394:\n        /* \"#utility.yul\":20461:20464   */\n      0x00\n        /* \"#utility.yul\":20489:20528   */\n      tag_605\n        /* \"#utility.yul\":20522:20527   */\n      dup3\n        /* \"#utility.yul\":20489:20528   */\n      tag_348\n      jump\t// in\n    tag_605:\n        /* \"#utility.yul\":20544:20633   */\n      tag_606\n        /* \"#utility.yul\":20626:20632   */\n      dup2\n        /* \"#utility.yul\":20621:20624   */\n      dup6\n        /* \"#utility.yul\":20544:20633   */\n      tag_393\n      jump\t// in\n    tag_606:\n        /* \"#utility.yul\":20537:20633   */\n      swap4\n      pop\n        /* \"#utility.yul\":20642:20707   */\n      tag_607\n        /* \"#utility.yul\":20700:20706   */\n      dup2\n        /* \"#utility.yul\":20695:20698   */\n      dup6\n        /* \"#utility.yul\":20688:20692   */\n      0x20\n        /* \"#utility.yul\":20681:20686   */\n      dup7\n        /* \"#utility.yul\":20677:20693   */\n      add\n        /* \"#utility.yul\":20642:20707   */\n      tag_350\n      jump\t// in\n    tag_607:\n        /* \"#utility.yul\":20732:20738   */\n      dup1\n        /* \"#utility.yul\":20727:20730   */\n      dup5\n        /* \"#utility.yul\":20723:20739   */\n      add\n        /* \"#utility.yul\":20716:20739   */\n      swap2\n      pop\n        /* \"#utility.yul\":20465:20745   */\n      pop\n        /* \"#utility.yul\":20355:20745   */\n      swap3\n      swap2\n      pop\n      pop\n      jump\t// out\n        /* \"#utility.yul\":20751:21026   */\n    tag_138:\n        /* \"#utility.yul\":20883:20886   */\n      0x00\n        /* \"#utility.yul\":20905:21000   */\n      tag_609\n        /* \"#utility.yul\":20996:20999   */\n      dup3\n        /* \"#utility.yul\":20987:20993   */\n      dup5\n        /* \"#utility.yul\":20905:21000   */\n      tag_394\n      jump\t// in\n    tag_609:\n        /* \"#utility.yul\":20898:21000   */\n      swap2\n      pop\n        /* \"#utility.yul\":21017:21020   */\n      dup2\n        /* \"#utility.yul\":21010:21020   */\n      swap1\n      pop\n        /* \"#utility.yul\":20751:21026   */\n      swap3\n      swap2\n      pop\n      pop\n      jump\t// out\n        /* \"#utility.yul\":21032:21212   */\n    tag_395:\n        /* \"#utility.yul\":21172:21204   */\n      0x4e6f2073747564656e7420776974682074686520676976656e206e616d650000\n        /* \"#utility.yul\":21168:21169   */\n      0x00\n        /* \"#utility.yul\":21160:21166   */\n      dup3\n        /* \"#utility.yul\":21156:21170   */\n      add\n        /* \"#utility.yul\":21149:21205   */\n      mstore\n        /* \"#utility.yul\":21032:21212   */\n      pop\n      jump\t// out\n        /* \"#utility.yul\":21218:21584   */\n    tag_396:\n        /* \"#utility.yul\":21360:21363   */\n      0x00\n        /* \"#utility.yul\":21381:21448   */\n      tag_612\n        /* \"#utility.yul\":21445:21447   */\n      0x1e\n        /* \"#utility.yul\":21440:21443   */\n      dup4\n        /* \"#utility.yul\":21381:21448   */\n      tag_349\n      jump\t// in\n    tag_612:\n        /* \"#utility.yul\":21374:21448   */\n      swap2\n      pop\n        /* \"#utility.yul\":21457:21550   */\n      tag_613\n        /* \"#utility.yul\":21546:21549   */\n      dup3\n        /* \"#utility.yul\":21457:21550   */\n      tag_395\n      jump\t// in\n    tag_613:\n        /* \"#utility.yul\":21575:21577   */\n      0x20\n        /* \"#utility.yul\":21570:21573   */\n      dup3\n        /* \"#utility.yul\":21566:21578   */\n      add\n        /* \"#utility.yul\":21559:21578   */\n      swap1\n      pop\n        /* \"#utility.yul\":21218:21584   */\n      swap2\n      swap1\n      pop\n      jump\t// out\n        /* \"#utility.yul\":21590:22009   */\n    tag_141:\n        /* \"#utility.yul\":21756:21760   */\n      0x00\n        /* \"#utility.yul\":21794:21796   */\n      0x20\n        /* \"#utility.yul\":21783:21792   */\n      dup3\n        /* \"#utility.yul\":21779:21797   */\n      add\n        /* \"#utility.yul\":21771:21797   */\n      swap1\n      pop\n        /* \"#utility.yul\":21843:21852   */\n      dup2\n        /* \"#utility.yul\":21837:21841   */\n      dup2\n        /* \"#utility.yul\":21833:21853   */\n      sub\n        /* \"#utility.yul\":21829:21830   */\n      0x00\n        /* \"#utility.yul\":21818:21827   */\n      dup4\n        /* \"#utility.yul\":21814:21831   */\n      add\n        /* \"#utility.yul\":21807:21854   */\n      mstore\n        /* \"#utility.yul\":21871:22002   */\n      tag_615\n        /* \"#utility.yul\":21997:22001   */\n      dup2\n        /* \"#utility.yul\":21871:22002   */\n      tag_396\n      jump\t// in\n    tag_615:\n        /* \"#utility.yul\":21863:22002   */\n      swap1\n      pop\n        /* \"#utility.yul\":21590:22009   */\n      swap2\n      swap1\n      pop\n      jump\t// out\n        /* \"#utility.yul\":22015:22209   */\n    tag_143:\n        /* \"#utility.yul\":22055:22059   */\n      0x00\n        /* \"#utility.yul\":22075:22095   */\n      tag_617\n        /* \"#utility.yul\":22093:22094   */\n      dup3\n        /* \"#utility.yul\":22075:22095   */\n      tag_345\n      jump\t// in\n    tag_617:\n        /* \"#utility.yul\":22070:22095   */\n      swap2\n      pop\n        /* \"#utility.yul\":22109:22129   */\n      tag_618\n        /* \"#utility.yul\":22127:22128   */\n      dup4\n        /* \"#utility.yul\":22109:22129   */\n      tag_345\n      jump\t// in\n    tag_618:\n        /* \"#utility.yul\":22104:22129   */\n      swap3\n      pop\n        /* \"#utility.yul\":22153:22154   */\n      dup3\n        /* \"#utility.yul\":22150:22151   */\n      dup3\n        /* \"#utility.yul\":22146:22155   */\n      sub\n        /* \"#utility.yul\":22138:22155   */\n      swap1\n      pop\n        /* \"#utility.yul\":22177:22178   */\n      dup2\n        /* \"#utility.yul\":22171:22175   */\n      dup2\n        /* \"#utility.yul\":22168:22179   */\n      gt\n        /* \"#utility.yul\":22165:22202   */\n      iszero\n      tag_619\n      jumpi\n        /* \"#utility.yul\":22182:22200   */\n      tag_620\n      tag_392\n      jump\t// in\n    tag_620:\n        /* \"#utility.yul\":22165:22202   */\n    tag_619:\n        /* \"#utility.yul\":22015:22209   */\n      swap3\n      swap2\n      pop\n      pop\n      jump\t// out\n        /* \"#utility.yul\":22215:22362   */\n    tag_397:\n        /* \"#utility.yul\":22316:22327   */\n      0x00\n        /* \"#utility.yul\":22353:22356   */\n      dup2\n        /* \"#utility.yul\":22338:22356   */\n      swap1\n      pop\n        /* \"#utility.yul\":22215:22362   */\n      swap3\n      swap2\n      pop\n      pop\n      jump\t// out\n        /* \"#utility.yul\":22368:22512   */\n    tag_398:\n        /* \"#utility.yul\":22420:22424   */\n      0x00\n        /* \"#utility.yul\":22443:22446   */\n      dup2\n        /* \"#utility.yul\":22435:22446   */\n      swap1\n      pop\n        /* \"#utility.yul\":22466:22469   */\n      dup2\n        /* \"#utility.yul\":22463:22464   */\n      0x00\n        /* \"#utility.yul\":22456:22470   */\n      mstore\n        /* \"#utility.yul\":22500:22504   */\n      0x20\n        /* \"#utility.yul\":22497:22498   */\n      0x00\n        /* \"#utility.yul\":22487:22505   */\n      keccak256\n        /* \"#utility.yul\":22479:22505   */\n      swap1\n      pop\n        /* \"#utility.yul\":22368:22512   */\n      swap2\n      swap1\n      pop\n      jump\t// out\n        /* \"#utility.yul\":22540:23418   */\n    tag_399:\n        /* \"#utility.yul\":22645:22648   */\n      0x00\n        /* \"#utility.yul\":22682:22687   */\n      dup2\n        /* \"#utility.yul\":22676:22688   */\n      sload\n        /* \"#utility.yul\":22711:22747   */\n      tag_624\n        /* \"#utility.yul\":22737:22746   */\n      dup2\n        /* \"#utility.yul\":22711:22747   */\n      tag_64\n      jump\t// in\n    tag_624:\n        /* \"#utility.yul\":22763:22851   */\n      tag_625\n        /* \"#utility.yul\":22844:22850   */\n      dup2\n        /* \"#utility.yul\":22839:22842   */\n      dup7\n        /* \"#utility.yul\":22763:22851   */\n      tag_397\n      jump\t// in\n    tag_625:\n        /* \"#utility.yul\":22756:22851   */\n      swap5\n      pop\n        /* \"#utility.yul\":22882:22883   */\n      0x01\n        /* \"#utility.yul\":22871:22880   */\n      dup3\n        /* \"#utility.yul\":22867:22884   */\n      and\n        /* \"#utility.yul\":22898:22899   */\n      0x00\n        /* \"#utility.yul\":22893:23059   */\n      dup2\n      eq\n      tag_627\n      jumpi\n        /* \"#utility.yul\":23073:23074   */\n      0x01\n        /* \"#utility.yul\":23068:23412   */\n      dup2\n      eq\n      tag_628\n      jumpi\n        /* \"#utility.yul\":22860:23412   */\n      jump(tag_626)\n        /* \"#utility.yul\":22893:23059   */\n    tag_627:\n        /* \"#utility.yul\":22977:22981   */\n      0xff\n        /* \"#utility.yul\":22973:22982   */\n      not\n        /* \"#utility.yul\":22962:22971   */\n      dup4\n        /* \"#utility.yul\":22958:22983   */\n      and\n        /* \"#utility.yul\":22953:22956   */\n      dup7\n        /* \"#utility.yul\":22946:22984   */\n      mstore\n        /* \"#utility.yul\":23039:23045   */\n      dup2\n        /* \"#utility.yul\":23032:23046   */\n      iszero\n        /* \"#utility.yul\":23025:23047   */\n      iszero\n        /* \"#utility.yul\":23017:23023   */\n      dup3\n        /* \"#utility.yul\":23013:23048   */\n      mul\n        /* \"#utility.yul\":23008:23011   */\n      dup7\n        /* \"#utility.yul\":23004:23049   */\n      add\n        /* \"#utility.yul\":22997:23049   */\n      swap4\n      pop\n        /* \"#utility.yul\":22893:23059   */\n      jump(tag_626)\n        /* \"#utility.yul\":23068:23412   */\n    tag_628:\n        /* \"#utility.yul\":23135:23176   */\n      tag_629\n        /* \"#utility.yul\":23170:23175   */\n      dup6\n        /* \"#utility.yul\":23135:23176   */\n      tag_398\n      jump\t// in\n    tag_629:\n        /* \"#utility.yul\":23198:23199   */\n      0x00\n        /* \"#utility.yul\":23212:23366   */\n    tag_630:\n        /* \"#utility.yul\":23226:23232   */\n      dup4\n        /* \"#utility.yul\":23223:23224   */\n      dup2\n        /* \"#utility.yul\":23220:23233   */\n      lt\n        /* \"#utility.yul\":23212:23366   */\n      iszero\n      tag_632\n      jumpi\n        /* \"#utility.yul\":23300:23307   */\n      dup2\n        /* \"#utility.yul\":23294:23308   */\n      sload\n        /* \"#utility.yul\":23290:23291   */\n      dup2\n        /* \"#utility.yul\":23285:23288   */\n      dup10\n        /* \"#utility.yul\":23281:23292   */\n      add\n        /* \"#utility.yul\":23274:23309   */\n      mstore\n        /* \"#utility.yul\":23350:23351   */\n      0x01\n        /* \"#utility.yul\":23341:23348   */\n      dup3\n        /* \"#utility.yul\":23337:23352   */\n      add\n        /* \"#utility.yul\":23326:23352   */\n      swap2\n      pop\n        /* \"#utility.yul\":23248:23252   */\n      0x20\n        /* \"#utility.yul\":23245:23246   */\n      dup2\n        /* \"#utility.yul\":23241:23253   */\n      add\n        /* \"#utility.yul\":23236:23253   */\n      swap1\n      pop\n        /* \"#utility.yul\":23212:23366   */\n      jump(tag_630)\n    tag_632:\n        /* \"#utility.yul\":23395:23401   */\n      dup4\n        /* \"#utility.yul\":23390:23393   */\n      dup9\n        /* \"#utility.yul\":23386:23402   */\n      add\n        /* \"#utility.yul\":23379:23402   */\n      swap6\n      pop\n        /* \"#utility.yul\":23075:23412   */\n      pop\n      pop\n        /* \"#utility.yul\":22860:23412   */\n    tag_626:\n      pop\n        /* \"#utility.yul\":22649:23418   */\n      pop\n      pop\n        /* \"#utility.yul\":22540:23418   */\n      swap3\n      swap2\n      pop\n      pop\n      jump\t// out\n        /* \"#utility.yul\":23424:23697   */\n    tag_155:\n        /* \"#utility.yul\":23555:23558   */\n      0x00\n        /* \"#utility.yul\":23577:23671   */\n      tag_634\n        /* \"#utility.yul\":23667:23670   */\n      dup3\n        /* \"#utility.yul\":23658:23664   */\n      dup5\n        /* \"#utility.yul\":23577:23671   */\n      tag_399\n      jump\t// in\n    tag_634:\n        /* \"#utility.yul\":23570:23671   */\n      swap2\n      pop\n        /* \"#utility.yul\":23688:23691   */\n      dup2\n        /* \"#utility.yul\":23681:23691   */\n      swap1\n      pop\n        /* \"#utility.yul\":23424:23697   */\n      swap3\n      swap2\n      pop\n      pop\n      jump\t// out\n        /* \"#utility.yul\":23703:23936   */\n    tag_158:\n        /* \"#utility.yul\":23742:23745   */\n      0x00\n        /* \"#utility.yul\":23765:23789   */\n      tag_636\n        /* \"#utility.yul\":23783:23788   */\n      dup3\n        /* \"#utility.yul\":23765:23789   */\n      tag_345\n      jump\t// in\n    tag_636:\n        /* \"#utility.yul\":23756:23789   */\n      swap2\n      pop\n        /* \"#utility.yul\":23811:23877   */\n      0xffffffffffffffffffffffffffffffffffffffffffffffffffffffffffffffff\n        /* \"#utility.yul\":23804:23809   */\n      dup3\n        /* \"#utility.yul\":23801:23878   */\n      sub\n        /* \"#utility.yul\":23798:23901   */\n      tag_637\n      jumpi\n        /* \"#utility.yul\":23881:23899   */\n      tag_638\n      tag_392\n      jump\t// in\n    tag_638:\n        /* \"#utility.yul\":23798:23901   */\n    tag_637:\n        /* \"#utility.yul\":23928:23929   */\n      0x01\n        /* \"#utility.yul\":23921:23926   */\n      dup3\n        /* \"#utility.yul\":23917:23930   */\n      add\n        /* \"#utility.yul\":23910:23930   */\n      swap1\n      pop\n        /* \"#utility.yul\":23703:23936   */\n      swap2\n      swap1\n      pop\n      jump\t// out\n        /* \"#utility.yul\":23942:24124   */\n    tag_400:\n        /* \"#utility.yul\":24082:24116   */\n      0x4e6f2073747564656e7420776974682074686520676976656e206e756d626572\n        /* \"#utility.yul\":24078:24079   */\n      0x00\n        /* \"#utility.yul\":24070:24076   */\n      dup3\n        /* \"#utility.yul\":24066:24080   */\n      add\n        /* \"#utility.yul\":24059:24117   */\n      mstore\n        /* \"#utility.yul\":23942:24124   */\n      pop\n      jump\t// out\n        /* \"#utility.yul\":24130:24496   */\n    tag_401:\n        /* \"#utility.yul\":24272:24275   */\n      0x00\n        /* \"#utility.yul\":24293:24360   */\n      tag_641\n        /* \"#utility.yul\":24357:24359   */\n      0x20\n        /* \"#utility.yul\":24352:24355   */\n      dup4\n        /* \"#utility.yul\":24293:24360   */\n      tag_349\n      jump\t// in\n    tag_641:\n        /* \"#utility.yul\":24286:24360   */\n      swap2\n      pop\n        /* \"#utility.yul\":24369:24462   */\n      tag_642\n        /* \"#utility.yul\":24458:24461   */\n      dup3\n        /* \"#utility.yul\":24369:24462   */\n      tag_400\n      jump\t// in\n    tag_642:\n        /* \"#utility.yul\":24487:24489   */\n      0x20\n        /* \"#utility.yul\":24482:24485   */\n      dup3\n        /* \"#utility.yul\":24478:24490   */\n      add\n        /* \"#utility.yul\":24471:24490   */\n      swap1\n      pop\n        /* \"#utility.yul\":24130:24496   */\n      swap2\n      swap1\n      pop\n      jump\t// out\n        /* \"#utility.yul\":24502:24921   */\n    tag_227:\n        /* \"#utility.yul\":24668:24672   */\n      0x00\n        /* \"#utility.yul\":24706:24708   */\n      0x20\n        /* \"#utility.yul\":24695:24704   */\n      dup3\n        /* \"#utility.yul\":24691:24709   */\n      add\n        /* \"#utility.yul\":24683:24709   */\n      swap1\n      pop\n        /* \"#utility.yul\":24755:24764   */\n      dup2\n        /* \"#utility.yul\":24749:24753   */\n      dup2\n        /* \"#utility.yul\":24745:24765   */\n      sub\n        /* \"#utility.yul\":24741:24742   */\n      0x00\n        /* \"#utility.yul\":24730:24739   */\n      dup4\n        /* \"#utility.yul\":24726:24743   */\n      add\n        /* \"#utility.yul\":24719:24766   */\n      mstore\n        /* \"#utility.yul\":24783:24914   */\n      tag_644\n        /* \"#utility.yul\":24909:24913   */\n      dup2\n        /* \"#utility.yul\":24783:24914   */\n      tag_401\n      jump\t// in\n    tag_644:\n        /* \"#utility.yul\":24775:24914   */\n      swap1\n      pop\n        /* \"#utility.yul\":24502:24921   */\n      swap2\n      swap1\n      pop\n      jump\t// out\n        /* \"#utility.yul\":24927:25099   */\n    tag_402:\n        /* \"#utility.yul\":25067:25091   */\n      0x53747564656e7420616c72656164792065786973747300000000000000000000\n        /* \"#utility.yul\":25063:25064   */\n      0x00\n        /* \"#utility.yul\":25055:25061   */\n      dup3\n        /* \"#utility.yul\":25051:25065   */\n      add\n        /* \"#utility.yul\":25044:25092   */\n      mstore\n        /* \"#utility.yul\":24927:25099   */\n      pop\n      jump\t// out\n        /* \"#utility.yul\":25105:25471   */\n    tag_403:\n        /* \"#utility.yul\":25247:25250   */\n      0x00\n        /* \"#utility.yul\":25268:25335   */\n      tag_647\n        /* \"#utility.yul\":25332:25334   */\n      0x16\n        /* \"#utility.yul\":25327:25330   */\n      dup4\n        /* \"#utility.yul\":25268:25335   */\n      tag_349\n      jump\t// in\n    tag_647:\n        /* \"#utility.yul\":25261:25335   */\n      swap2\n      pop\n        /* \"#utility.yul\":25344:25437   */\n      tag_648\n        /* \"#utility.yul\":25433:25436   */\n      dup3\n        /* \"#utility.yul\":25344:25437   */\n      tag_402\n      jump\t// in\n    tag_648:\n        /* \"#utility.yul\":25462:25464   */\n      0x20\n        /* \"#utility.yul\":25457:25460   */\n      dup3\n        /* \"#utility.yul\":25453:25465   */\n      add\n        /* \"#utility.yul\":25446:25465   */\n      swap1\n      pop\n        /* \"#utility.yul\":25105:25471   */\n      swap2\n      swap1\n      pop\n      jump\t// out\n        /* \"#utility.yul\":25477:25896   */\n    tag_232:\n        /* \"#utility.yul\":25643:25647   */\n      0x00\n        /* \"#utility.yul\":25681:25683   */\n      0x20\n        /* \"#utility.yul\":25670:25679   */\n      dup3\n        /* \"#utility.yul\":25666:25684   */\n      add\n        /* \"#utility.yul\":25658:25684   */\n      swap1\n      pop\n        /* \"#utility.yul\":25730:25739   */\n      dup2\n        /* \"#utility.yul\":25724:25728   */\n      dup2\n        /* \"#utility.yul\":25720:25740   */\n      sub\n        /* \"#utility.yul\":25716:25717   */\n      0x00\n        /* \"#utility.yul\":25705:25714   */\n      dup4\n        /* \"#utility.yul\":25701:25718   */\n      add\n        /* \"#utility.yul\":25694:25741   */\n      mstore\n        /* \"#utility.yul\":25758:25889   */\n      tag_650\n        /* \"#utility.yul\":25884:25888   */\n      dup2\n        /* \"#utility.yul\":25758:25889   */\n      tag_403\n      jump\t// in\n    tag_650:\n        /* \"#utility.yul\":25750:25889   */\n      swap1\n      pop\n        /* \"#utility.yul\":25477:25896   */\n      swap2\n      swap1\n      pop\n      jump\t// out\n        /* \"#utility.yul\":25902:26043   */\n    tag_404:\n        /* \"#utility.yul\":25951:25955   */\n      0x00\n        /* \"#utility.yul\":25974:25977   */\n      dup2\n        /* \"#utility.yul\":25966:25977   */\n      swap1\n      pop\n        /* \"#utility.yul\":25997:26000   */\n      dup2\n        /* \"#utility.yul\":25994:25995   */\n      0x00\n        /* \"#utility.yul\":25987:26001   */\n      mstore\n        /* \"#utility.yul\":26031:26035   */\n      0x20\n        /* \"#utility.yul\":26028:26029   */\n      0x00\n        /* \"#utility.yul\":26018:26036   */\n      keccak256\n        /* \"#utility.yul\":26010:26036   */\n      swap1\n      pop\n        /* \"#utility.yul\":25902:26043   */\n      swap2\n      swap1\n      pop\n      jump\t// out\n        /* \"#utility.yul\":26049:26142   */\n    tag_405:\n        /* \"#utility.yul\":26086:26092   */\n      0x00\n        /* \"#utility.yul\":26133:26135   */\n      0x20\n        /* \"#utility.yul\":26128:26130   */\n      0x1f\n        /* \"#utility.yul\":26121:26126   */\n      dup4\n        /* \"#utility.yul\":26117:26131   */\n      add\n        /* \"#utility.yul\":26113:26136   */\n      div\n        /* \"#utility.yul\":26103:26136   */\n      swap1\n      pop\n        /* \"#utility.yul\":26049:26142   */\n      swap2\n      swap1\n      pop\n      jump\t// out\n        /* \"#utility.yul\":26148:26255   */\n    tag_406:\n        /* \"#utility.yul\":26192:26200   */\n      0x00\n        /* \"#utility.yul\":26242:26247   */\n      dup3\n        /* \"#utility.yul\":26236:26240   */\n      dup3\n        /* \"#utility.yul\":26232:26248   */\n      shl\n        /* \"#utility.yul\":26211:26248   */\n      swap1\n      pop\n        /* \"#utility.yul\":26148:26255   */\n      swap3\n      swap2\n      pop\n      pop\n      jump\t// out\n        /* \"#utility.yul\":26261:26654   */\n    tag_407:\n        /* \"#utility.yul\":26330:26336   */\n      0x00\n        /* \"#utility.yul\":26380:26381   */\n      0x08\n        /* \"#utility.yul\":26368:26378   */\n      dup4\n        /* \"#utility.yul\":26364:26382   */\n      mul\n        /* \"#utility.yul\":26403:26500   */\n      tag_655\n        /* \"#utility.yul\":26433:26499   */\n      0xffffffffffffffffffffffffffffffffffffffffffffffffffffffffffffffff\n        /* \"#utility.yul\":26422:26431   */\n      dup3\n        /* \"#utility.yul\":26403:26500   */\n      tag_406\n      jump\t// in\n    tag_655:\n        /* \"#utility.yul\":26521:26560   */\n      tag_656\n        /* \"#utility.yul\":26551:26559   */\n      dup7\n        /* \"#utility.yul\":26540:26549   */\n      dup4\n        /* \"#utility.yul\":26521:26560   */\n      tag_406\n      jump\t// in\n    tag_656:\n        /* \"#utility.yul\":26509:26560   */\n      swap6\n      pop\n        /* \"#utility.yul\":26593:26597   */\n      dup1\n        /* \"#utility.yul\":26589:26598   */\n      not\n        /* \"#utility.yul\":26582:26587   */\n      dup5\n        /* \"#utility.yul\":26578:26599   */\n      and\n        /* \"#utility.yul\":26569:26599   */\n      swap4\n      pop\n        /* \"#utility.yul\":26642:26646   */\n      dup1\n        /* \"#utility.yul\":26632:26640   */\n      dup7\n        /* \"#utility.yul\":26628:26647   */\n      and\n        /* \"#utility.yul\":26621:26626   */\n      dup5\n        /* \"#utility.yul\":26618:26648   */\n      or\n        /* \"#utility.yul\":26608:26648   */\n      swap3\n      pop\n        /* \"#utility.yul\":26337:26654   */\n      pop\n      pop\n        /* \"#utility.yul\":26261:26654   */\n      swap4\n      swap3\n      pop\n      pop\n      pop\n      jump\t// out\n        /* \"#utility.yul\":26660:26720   */\n    tag_408:\n        /* \"#utility.yul\":26688:26691   */\n      0x00\n        /* \"#utility.yul\":26709:26714   */\n      dup2\n        /* \"#utility.yul\":26702:26714   */\n      swap1\n      pop\n        /* \"#utility.yul\":26660:26720   */\n      swap2\n      swap1\n      pop\n      jump\t// out\n        /* \"#utility.yul\":26726:26868   */\n    tag_409:\n        /* \"#utility.yul\":26776:26785   */\n      0x00\n        /* \"#utility.yul\":26809:26862   */\n      tag_659\n        /* \"#utility.yul\":26827:26861   */\n      tag_660\n        /* \"#utility.yul\":26836:26860   */\n      tag_661\n        /* \"#utility.yul\":26854:26859   */\n      dup5\n        /* \"#utility.yul\":26836:26860   */\n      tag_345\n      jump\t// in\n    tag_661:\n        /* \"#utility.yul\":26827:26861   */\n      tag_408\n      jump\t// in\n    tag_660:\n        /* \"#utility.yul\":26809:26862   */\n      tag_345\n      jump\t// in\n    tag_659:\n        /* \"#utility.yul\":26796:26862   */\n      swap1\n      pop\n        /* \"#utility.yul\":26726:26868   */\n      swap2\n      swap1\n      pop\n      jump\t// out\n        /* \"#utility.yul\":26874:26949   */\n    tag_410:\n        /* \"#utility.yul\":26917:26920   */\n      0x00\n        /* \"#utility.yul\":26938:26943   */\n      dup2\n        /* \"#utility.yul\":26931:26943   */\n      swap1\n      pop\n        /* \"#utility.yul\":26874:26949   */\n      swap2\n      swap1\n      pop\n      jump\t// out\n        /* \"#utility.yul\":26955:27224   */\n    tag_411:\n        /* \"#utility.yul\":27065:27104   */\n      tag_664\n        /* \"#utility.yul\":27096:27103   */\n      dup4\n        /* \"#utility.yul\":27065:27104   */\n      tag_409\n      jump\t// in\n    tag_664:\n        /* \"#utility.yul\":27126:27217   */\n      tag_665\n        /* \"#utility.yul\":27175:27216   */\n      tag_666\n        /* \"#utility.yul\":27199:27215   */\n      dup3\n        /* \"#utility.yul\":27175:27216   */\n      tag_410\n      jump\t// in\n    tag_666:\n        /* \"#utility.yul\":27167:27173   */\n      dup5\n        /* \"#utility.yul\":27160:27164   */\n      dup5\n        /* \"#utility.yul\":27154:27165   */\n      sload\n        /* \"#utility.yul\":27126:27217   */\n      tag_407\n      jump\t// in\n    tag_665:\n        /* \"#utility.yul\":27120:27124   */\n      dup3\n        /* \"#utility.yul\":27113:27218   */\n      sstore\n        /* \"#utility.yul\":27031:27224   */\n      pop\n        /* \"#utility.yul\":26955:27224   */\n      pop\n      pop\n      pop\n      jump\t// out\n        /* \"#utility.yul\":27230:27303   */\n    tag_412:\n        /* \"#utility.yul\":27275:27278   */\n      0x00\n        /* \"#utility.yul\":27230:27303   */\n      swap1\n      jump\t// out\n        /* \"#utility.yul\":27309:27498   */\n    tag_413:\n        /* \"#utility.yul\":27386:27418   */\n      tag_669\n      tag_412\n      jump\t// in\n    tag_669:\n        /* \"#utility.yul\":27427:27492   */\n      tag_670\n        /* \"#utility.yul\":27485:27491   */\n      dup2\n        /* \"#utility.yul\":27477:27483   */\n      dup5\n        /* \"#utility.yul\":27471:27475   */\n      dup5\n        /* \"#utility.yul\":27427:27492   */\n      tag_411\n      jump\t// in\n    tag_670:\n        /* \"#utility.yul\":27362:27498   */\n      pop\n        /* \"#utility.yul\":27309:27498   */\n      pop\n      pop\n      jump\t// out\n        /* \"#utility.yul\":27504:27690   */\n    tag_414:\n        /* \"#utility.yul\":27564:27684   */\n    tag_672:\n        /* \"#utility.yul\":27581:27584   */\n      dup2\n        /* \"#utility.yul\":27574:27579   */\n      dup2\n        /* \"#utility.yul\":27571:27585   */\n      lt\n        /* \"#utility.yul\":27564:27684   */\n      iszero\n      tag_674\n      jumpi\n        /* \"#utility.yul\":27635:27674   */\n      tag_675\n        /* \"#utility.yul\":27672:27673   */\n      0x00\n        /* \"#utility.yul\":27665:27670   */\n      dup3\n        /* \"#utility.yul\":27635:27674   */\n      tag_413\n      jump\t// in\n    tag_675:\n        /* \"#utility.yul\":27608:27609   */\n      0x01\n        /* \"#utility.yul\":27601:27606   */\n      dup2\n        /* \"#utility.yul\":27597:27610   */\n      add\n        /* \"#utility.yul\":27588:27610   */\n      swap1\n      pop\n        /* \"#utility.yul\":27564:27684   */\n      jump(tag_672)\n    tag_674:\n        /* \"#utility.yul\":27504:27690   */\n      pop\n      pop\n      jump\t// out\n        /* \"#utility.yul\":27696:28239   */\n    tag_415:\n        /* \"#utility.yul\":27797:27799   */\n      0x1f\n        /* \"#utility.yul\":27792:27795   */\n      dup3\n        /* \"#utility.yul\":27789:27800   */\n      gt\n        /* \"#utility.yul\":27786:28232   */\n      iszero\n      tag_677\n      jumpi\n        /* \"#utility.yul\":27831:27869   */\n      tag_678\n        /* \"#utility.yul\":27863:27868   */\n      dup2\n        /* \"#utility.yul\":27831:27869   */\n      tag_404\n      jump\t// in\n    tag_678:\n        /* \"#utility.yul\":27915:27944   */\n      tag_679\n        /* \"#utility.yul\":27933:27943   */\n      dup5\n        /* \"#utility.yul\":27915:27944   */\n      tag_405\n      jump\t// in\n    tag_679:\n        /* \"#utility.yul\":27905:27913   */\n      dup2\n        /* \"#utility.yul\":27901:27945   */\n      add\n        /* \"#utility.yul\":28098:28100   */\n      0x20\n        /* \"#utility.yul\":28086:28096   */\n      dup6\n        /* \"#utility.yul\":28083:28101   */\n      lt\n        /* \"#utility.yul\":28080:28129   */\n      iszero\n      tag_680\n      jumpi\n        /* \"#utility.yul\":28119:28127   */\n      dup2\n        /* \"#utility.yul\":28104:28127   */\n      swap1\n      pop\n        /* \"#utility.yul\":28080:28129   */\n    tag_680:\n        /* \"#utility.yul\":28142:28222   */\n      tag_681\n        /* \"#utility.yul\":28198:28220   */\n      tag_682\n        /* \"#utility.yul\":28216:28219   */\n      dup6\n        /* \"#utility.yul\":28198:28220   */\n      tag_405\n      jump\t// in\n    tag_682:\n        /* \"#utility.yul\":28188:28196   */\n      dup4\n        /* \"#utility.yul\":28184:28221   */\n      add\n        /* \"#utility.yul\":28171:28182   */\n      dup3\n        /* \"#utility.yul\":28142:28222   */\n      tag_414\n      jump\t// in\n    tag_681:\n        /* \"#utility.yul\":27801:28232   */\n      pop\n      pop\n        /* \"#utility.yul\":27786:28232   */\n    tag_677:\n        /* \"#utility.yul\":27696:28239   */\n      pop\n      pop\n      pop\n      jump\t// out\n        /* \"#utility.yul\":28245:28362   */\n    tag_416:\n        /* \"#utility.yul\":28299:28307   */\n      0x00\n        /* \"#utility.yul\":28349:28354   */\n      dup3\n        /* \"#utility.yul\":28343:28347   */\n      dup3\n        /* \"#utility.yul\":28339:28355   */\n      shr\n        /* \"#utility.yul\":28318:28355   */\n      swap1\n      pop\n        /* \"#utility.yul\":28245:28362   */\n      swap3\n      swap2\n      pop\n      pop\n      jump\t// out\n        /* \"#utility.yul\":28368:28537   */\n    tag_417:\n        /* \"#utility.yul\":28412:28418   */\n      0x00\n        /* \"#utility.yul\":28445:28496   */\n      tag_685\n        /* \"#utility.yul\":28493:28494   */\n      0x00\n        /* \"#utility.yul\":28489:28495   */\n      not\n        /* \"#utility.yul\":28481:28486   */\n      dup5\n        /* \"#utility.yul\":28478:28479   */\n      0x08\n        /* \"#utility.yul\":28474:28487   */\n      mul\n        /* \"#utility.yul\":28445:28496   */\n      tag_416\n      jump\t// in\n    tag_685:\n        /* \"#utility.yul\":28441:28497   */\n      not\n        /* \"#utility.yul\":28526:28530   */\n      dup1\n        /* \"#utility.yul\":28520:28524   */\n      dup4\n        /* \"#utility.yul\":28516:28531   */\n      and\n        /* \"#utility.yul\":28506:28531   */\n      swap2\n      pop\n        /* \"#utility.yul\":28419:28537   */\n      pop\n        /* \"#utility.yul\":28368:28537   */\n      swap3\n      swap2\n      pop\n      pop\n      jump\t// out\n        /* \"#utility.yul\":28542:28837   */\n    tag_418:\n        /* \"#utility.yul\":28618:28622   */\n      0x00\n        /* \"#utility.yul\":28764:28793   */\n      tag_687\n        /* \"#utility.yul\":28789:28792   */\n      dup4\n        /* \"#utility.yul\":28783:28787   */\n      dup4\n        /* \"#utility.yul\":28764:28793   */\n      tag_417\n      jump\t// in\n    tag_687:\n        /* \"#utility.yul\":28756:28793   */\n      swap2\n      pop\n        /* \"#utility.yul\":28826:28829   */\n      dup3\n        /* \"#utility.yul\":28823:28824   */\n      0x02\n        /* \"#utility.yul\":28819:28830   */\n      mul\n        /* \"#utility.yul\":28813:28817   */\n      dup3\n        /* \"#utility.yul\":28810:28831   */\n      or\n        /* \"#utility.yul\":28802:28831   */\n      swap1\n      pop\n        /* \"#utility.yul\":28542:28837   */\n      swap3\n      swap2\n      pop\n      pop\n      jump\t// out\n        /* \"#utility.yul\":28842:30237   */\n    tag_237:\n        /* \"#utility.yul\":28959:28996   */\n      tag_689\n        /* \"#utility.yul\":28992:28995   */\n      dup3\n        /* \"#utility.yul\":28959:28996   */\n      tag_348\n      jump\t// in\n    tag_689:\n        /* \"#utility.yul\":29061:29079   */\n      0xffffffffffffffff\n        /* \"#utility.yul\":29053:29059   */\n      dup2\n        /* \"#utility.yul\":29050:29080   */\n      gt\n        /* \"#utility.yul\":29047:29103   */\n      iszero\n      tag_690\n      jumpi\n        /* \"#utility.yul\":29083:29101   */\n      tag_691\n      tag_124\n      jump\t// in\n    tag_691:\n        /* \"#utility.yul\":29047:29103   */\n    tag_690:\n        /* \"#utility.yul\":29127:29165   */\n      tag_692\n        /* \"#utility.yul\":29159:29163   */\n      dup3\n        /* \"#utility.yul\":29153:29164   */\n      sload\n        /* \"#utility.yul\":29127:29165   */\n      tag_64\n      jump\t// in\n    tag_692:\n        /* \"#utility.yul\":29212:29279   */\n      tag_693\n        /* \"#utility.yul\":29272:29278   */\n      dup3\n        /* \"#utility.yul\":29264:29270   */\n      dup3\n        /* \"#utility.yul\":29258:29262   */\n      dup6\n        /* \"#utility.yul\":29212:29279   */\n      tag_415\n      jump\t// in\n    tag_693:\n        /* \"#utility.yul\":29306:29307   */\n      0x00\n        /* \"#utility.yul\":29330:29334   */\n      0x20\n        /* \"#utility.yul\":29317:29334   */\n      swap1\n      pop\n        /* \"#utility.yul\":29362:29364   */\n      0x1f\n        /* \"#utility.yul\":29354:29360   */\n      dup4\n        /* \"#utility.yul\":29351:29365   */\n      gt\n        /* \"#utility.yul\":29379:29380   */\n      0x01\n        /* \"#utility.yul\":29374:29992   */\n      dup2\n      eq\n      tag_695\n      jumpi\n        /* \"#utility.yul\":30036:30037   */\n      0x00\n        /* \"#utility.yul\":30053:30059   */\n      dup5\n        /* \"#utility.yul\":30050:30127   */\n      iszero\n      tag_696\n      jumpi\n        /* \"#utility.yul\":30102:30111   */\n      dup3\n        /* \"#utility.yul\":30097:30100   */\n      dup8\n        /* \"#utility.yul\":30093:30112   */\n      add\n        /* \"#utility.yul\":30087:30113   */\n      mload\n        /* \"#utility.yul\":30078:30113   */\n      swap1\n      pop\n        /* \"#utility.yul\":30050:30127   */\n    tag_696:\n        /* \"#utility.yul\":30153:30220   */\n      tag_697\n        /* \"#utility.yul\":30213:30219   */\n      dup6\n        /* \"#utility.yul\":30206:30211   */\n      dup3\n        /* \"#utility.yul\":30153:30220   */\n      tag_418\n      jump\t// in\n    tag_697:\n        /* \"#utility.yul\":30147:30151   */\n      dup7\n        /* \"#utility.yul\":30140:30221   */\n      sstore\n        /* \"#utility.yul\":30009:30231   */\n      pop\n        /* \"#utility.yul\":29344:30231   */\n      jump(tag_694)\n        /* \"#utility.yul\":29374:29992   */\n    tag_695:\n        /* \"#utility.yul\":29426:29430   */\n      0x1f\n        /* \"#utility.yul\":29422:29431   */\n      not\n        /* \"#utility.yul\":29414:29420   */\n      dup5\n        /* \"#utility.yul\":29410:29432   */\n      and\n        /* \"#utility.yul\":29460:29497   */\n      tag_698\n        /* \"#utility.yul\":29492:29496   */\n      dup7\n        /* \"#utility.yul\":29460:29497   */\n      tag_404\n      jump\t// in\n    tag_698:\n        /* \"#utility.yul\":29519:29520   */\n      0x00\n        /* \"#utility.yul\":29533:29741   */\n    tag_699:\n        /* \"#utility.yul\":29547:29554   */\n      dup3\n        /* \"#utility.yul\":29544:29545   */\n      dup2\n        /* \"#utility.yul\":29541:29555   */\n      lt\n        /* \"#utility.yul\":29533:29741   */\n      iszero\n      tag_701\n      jumpi\n        /* \"#utility.yul\":29626:29635   */\n      dup5\n        /* \"#utility.yul\":29621:29624   */\n      dup10\n        /* \"#utility.yul\":29617:29636   */\n      add\n        /* \"#utility.yul\":29611:29637   */\n      mload\n        /* \"#utility.yul\":29603:29609   */\n      dup3\n        /* \"#utility.yul\":29596:29638   */\n      sstore\n        /* \"#utility.yul\":29677:29678   */\n      0x01\n        /* \"#utility.yul\":29669:29675   */\n      dup3\n        /* \"#utility.yul\":29665:29679   */\n      add\n        /* \"#utility.yul\":29655:29679   */\n      swap2\n      pop\n        /* \"#utility.yul\":29724:29726   */\n      0x20\n        /* \"#utility.yul\":29713:29722   */\n      dup6\n        /* \"#utility.yul\":29709:29727   */\n      add\n        /* \"#utility.yul\":29696:29727   */\n      swap5\n      pop\n        /* \"#utility.yul\":29570:29574   */\n      0x20\n        /* \"#utility.yul\":29567:29568   */\n      dup2\n        /* \"#utility.yul\":29563:29575   */\n      add\n        /* \"#utility.yul\":29558:29575   */\n      swap1\n      pop\n        /* \"#utility.yul\":29533:29741   */\n      jump(tag_699)\n    tag_701:\n        /* \"#utility.yul\":29769:29775   */\n      dup7\n        /* \"#utility.yul\":29760:29767   */\n      dup4\n        /* \"#utility.yul\":29757:29776   */\n      lt\n        /* \"#utility.yul\":29754:29933   */\n      iszero\n      tag_702\n      jumpi\n        /* \"#utility.yul\":29827:29836   */\n      dup5\n        /* \"#utility.yul\":29822:29825   */\n      dup10\n        /* \"#utility.yul\":29818:29837   */\n      add\n        /* \"#utility.yul\":29812:29838   */\n      mload\n        /* \"#utility.yul\":29870:29918   */\n      tag_703\n        /* \"#utility.yul\":29912:29916   */\n      0x1f\n        /* \"#utility.yul\":29904:29910   */\n      dup10\n        /* \"#utility.yul\":29900:29917   */\n      and\n        /* \"#utility.yul\":29889:29898   */\n      dup3\n        /* \"#utility.yul\":29870:29918   */\n      tag_417\n      jump\t// in\n    tag_703:\n        /* \"#utility.yul\":29862:29868   */\n      dup4\n        /* \"#utility.yul\":29855:29919   */\n      sstore\n        /* \"#utility.yul\":29777:29933   */\n      pop\n        /* \"#utility.yul\":29754:29933   */\n    tag_702:\n        /* \"#utility.yul\":29979:29980   */\n      0x01\n        /* \"#utility.yul\":29975:29976   */\n      0x02\n        /* \"#utility.yul\":29967:29973   */\n      dup9\n        /* \"#utility.yul\":29963:29977   */\n      mul\n        /* \"#utility.yul\":29959:29981   */\n      add\n        /* \"#utility.yul\":29953:29957   */\n      dup9\n        /* \"#utility.yul\":29946:29982   */\n      sstore\n        /* \"#utility.yul\":29381:29992   */\n      pop\n      pop\n      pop\n        /* \"#utility.yul\":29344:30231   */\n    tag_694:\n      pop\n        /* \"#utility.yul\":28934:30237   */\n      pop\n      pop\n      pop\n        /* \"#utility.yul\":28842:30237   */\n      pop\n      pop\n      jump\t// out\n        /* \"#utility.yul\":30243:30414   */\n    tag_419:\n        /* \"#utility.yul\":30383:30406   */\n      0x4e6f2073747564656e747320617661696c61626c650000000000000000000000\n        /* \"#utility.yul\":30379:30380   */\n      0x00\n        /* \"#utility.yul\":30371:30377   */\n      dup3\n        /* \"#utility.yul\":30367:30381   */\n      add\n        /* \"#utility.yul\":30360:30407   */\n      mstore\n        /* \"#utility.yul\":30243:30414   */\n      pop\n      jump\t// out\n        /* \"#utility.yul\":30420:30786   */\n    tag_420:\n        /* \"#utility.yul\":30562:30565   */\n      0x00\n        /* \"#utility.yul\":30583:30650   */\n      tag_706\n        /* \"#utility.yul\":30647:30649   */\n      0x15\n        /* \"#utility.yul\":30642:30645   */\n      dup4\n        /* \"#utility.yul\":30583:30650   */\n      tag_349\n      jump\t// in\n    tag_706:\n        /* \"#utility.yul\":30576:30650   */\n      swap2\n      pop\n        /* \"#utility.yul\":30659:30752   */\n      tag_707\n        /* \"#utility.yul\":30748:30751   */\n      dup3\n        /* \"#utility.yul\":30659:30752   */\n      tag_419\n      jump\t// in\n    tag_707:\n        /* \"#utility.yul\":30777:30779   */\n      0x20\n        /* \"#utility.yul\":30772:30775   */\n      dup3\n        /* \"#utility.yul\":30768:30780   */\n      add\n        /* \"#utility.yul\":30761:30780   */\n      swap1\n      pop\n        /* \"#utility.yul\":30420:30786   */\n      swap2\n      swap1\n      pop\n      jump\t// out\n        /* \"#utility.yul\":30792:31211   */\n    tag_306:\n        /* \"#utility.yul\":30958:30962   */\n      0x00\n        /* \"#utility.yul\":30996:30998   */\n      0x20\n        /* \"#utility.yul\":30985:30994   */\n      dup3\n        /* \"#utility.yul\":30981:30999   */\n      add\n        /* \"#utility.yul\":30973:30999   */\n      swap1\n      pop\n        /* \"#utility.yul\":31045:31054   */\n      dup2\n        /* \"#utility.yul\":31039:31043   */\n      dup2\n        /* \"#utility.yul\":31035:31055   */\n      sub\n        /* \"#utility.yul\":31031:31032   */\n      0x00\n        /* \"#utility.yul\":31020:31029   */\n      dup4\n        /* \"#utility.yul\":31016:31033   */\n      add\n        /* \"#utility.yul\":31009:31056   */\n      mstore\n        /* \"#utility.yul\":31073:31204   */\n      tag_709\n        /* \"#utility.yul\":31199:31203   */\n      dup2\n        /* \"#utility.yul\":31073:31204   */\n      tag_420\n      jump\t// in\n    tag_709:\n        /* \"#utility.yul\":31065:31204   */\n      swap1\n      pop\n        /* \"#utility.yul\":30792:31211   */\n      swap2\n      swap1\n      pop\n      jump\t// out\n        /* \"#utility.yul\":31217:31397   */\n    tag_421:\n        /* \"#utility.yul\":31265:31342   */\n      0x4e487b7100000000000000000000000000000000000000000000000000000000\n        /* \"#utility.yul\":31262:31263   */\n      0x00\n        /* \"#utility.yul\":31255:31343   */\n      mstore\n        /* \"#utility.yul\":31362:31366   */\n      0x12\n        /* \"#utility.yul\":31359:31360   */\n      0x04\n        /* \"#utility.yul\":31352:31367   */\n      mstore\n        /* \"#utility.yul\":31386:31390   */\n      0x24\n        /* \"#utility.yul\":31383:31384   */\n      0x00\n        /* \"#utility.yul\":31376:31391   */\n      revert\n        /* \"#utility.yul\":31403:31588   */\n    tag_315:\n        /* \"#utility.yul\":31443:31444   */\n      0x00\n        /* \"#utility.yul\":31460:31480   */\n      tag_712\n        /* \"#utility.yul\":31478:31479   */\n      dup3\n        /* \"#utility.yul\":31460:31480   */\n      tag_345\n      jump\t// in\n    tag_712:\n        /* \"#utility.yul\":31455:31480   */\n      swap2\n      pop\n        /* \"#utility.yul\":31494:31514   */\n      tag_713\n        /* \"#utility.yul\":31512:31513   */\n      dup4\n        /* \"#utility.yul\":31494:31514   */\n      tag_345\n      jump\t// in\n    tag_713:\n        /* \"#utility.yul\":31489:31514   */\n      swap3\n      pop\n        /* \"#utility.yul\":31533:31534   */\n      dup3\n        /* \"#utility.yul\":31523:31558   */\n      tag_714\n      jumpi\n        /* \"#utility.yul\":31538:31556   */\n      tag_715\n      tag_421\n      jump\t// in\n    tag_715:\n        /* \"#utility.yul\":31523:31558   */\n    tag_714:\n        /* \"#utility.yul\":31580:31581   */\n      dup3\n        /* \"#utility.yul\":31577:31578   */\n      dup3\n        /* \"#utility.yul\":31573:31582   */\n      div\n        /* \"#utility.yul\":31568:31582   */\n      swap1\n      pop\n        /* \"#utility.yul\":31403:31588   */\n      swap3\n      swap2\n      pop\n      pop\n      jump\t// out\n\n    auxdata: 0xa2646970667358221220e99cc6301258a94bfb26326c121fea694542f0b944f48c0a476babc6407e8c5264736f6c634300081a0033\n}\n",
				"bytecode": {
					"linkReferences": {},
					"object": "6080604052348015600e575f80fd5b506128848061001c5f395ff3fe608060405234801561000f575f80fd5b50600436106100a7575f3560e01c8063a13a1c131161006f578063a13a1c1314610168578063a4545c0d14610198578063d73ce6c1146101b4578063e9e30927146101e4578063ec08df3614610202578063f8c8dee814610220576100a7565b806306ead22e146100ab57806327f7c259146100de5780633c51cdca146100fc578063416c632b1461011a57806398463c741461014a575b5f80fd5b6100c560048036038101906100c09190611970565b61023e565b6040516100d59493929190611a1a565b60405180910390f35b6100e6610384565b6040516100f39190611a85565b60405180910390f35b610104610396565b6040516101119190611cec565b60405180910390f35b610134600480360381019061012f9190611e38565b6107c0565b6040516101419190611e7f565b60405180910390f35b61015261085c565b60405161015f9190611cec565b60405180910390f35b610182600480360381019061017d9190611970565b610c57565b60405161018f9190611f19565b60405180910390f35b6101b260048036038101906101ad919061201b565b610f1d565b005b6101ce60048036038101906101c99190611e38565b611062565b6040516101db9190611f19565b60405180910390f35b6101ec611313565b6040516101f99190611cec565b60405180910390f35b61020a611575565b604051610217919061215f565b60405180910390f35b61022861162c565b6040516102359190611e7f565b60405180910390f35b5f818154811061024c575f80fd5b905f5260205f2090600502015f91509050805f01805461026b906121ac565b80601f0160208091040260200160405190810160405280929190818152602001828054610297906121ac565b80156102e25780601f106102b9576101008083540402835291602001916102e2565b820191905f5260205f20905b8154815290600101906020018083116102c557829003601f168201915b505050505090806001015490806002015490806003018054610303906121ac565b80601f016020809104026020016040519081016040528092919081815260200182805461032f906121ac565b801561037a5780601f106103515761010080835404028352916020019161037a565b820191905f5260205f20905b81548152906001019060200180831161035d57829003601f168201915b5050505050905084565b5f604661038f61162c565b1015905090565b60605f60045f80549050106103ac5760046103b2565b5f805490505b90505f80805480602002602001604051908101604052809291908181526020015f905b8282101561060c578382905f5260205f2090600502016040518060a00160405290815f82018054610405906121ac565b80601f0160208091040260200160405190810160405280929190818152602001828054610431906121ac565b801561047c5780601f106104535761010080835404028352916020019161047c565b820191905f5260205f20905b81548152906001019060200180831161045f57829003601f168201915b5050505050815260200160018201548152602001600282015481526020016003820180546104a9906121ac565b80601f01602080910402602001604051908101604052809291908181526020018280546104d5906121ac565b80156105205780601f106104f757610100808354040283529160200191610520565b820191905f5260205f20905b81548152906001019060200180831161050357829003601f168201915b5050505050815260200160048201805480602002602001604051908101604052809291908181526020015f905b828210156105f5578382905f5260205f2001805461056a906121ac565b80601f0160208091040260200160405190810160405280929190818152602001828054610596906121ac565b80156105e15780601f106105b8576101008083540402835291602001916105e1565b820191905f5260205f20905b8154815290600101906020018083116105c457829003601f168201915b50505050508152602001906001019061054d565b5050505081525050815260200190600101906103d5565b5050505090505f5b815181101561070e575f60018261062b9190612209565b90505b82518110156107005782818151811061064a5761064961223c565b5b6020026020010151604001518383815181106106695761066861223c565b5b60200260200101516040015110156106f3575f83838151811061068f5761068e61223c565b5b602002602001015190508382815181106106ac576106ab61223c565b5b60200260200101518484815181106106c7576106c661223c565b5b6020026020010181905250808483815181106106e6576106e561223c565b5b6020026020010181905250505b808060010191505061062e565b508080600101915050610614565b505f8267ffffffffffffffff81111561072a57610729611d14565b5b60405190808252806020026020018201604052801561076357816020015b61075061182d565b8152602001906001900390816107485790505b5090505f5b838110156107b6578281815181106107835761078261223c565b5b602002602001015182828151811061079e5761079d61223c565b5b60200260200101819052508080600101915050610768565b5080935050505090565b5f806001836040516107d291906122a3565b90815260200160405180910390205490505f8111610825576040517f08c379a000000000000000000000000000000000000000000000000000000000815260040161081c90612303565b60405180910390fd5b5f6001826108339190612321565b815481106108445761084361223c565b5b905f5260205f20906005020160020154915050919050565b60605f805b5f80549050811015610902576040518060400160405280600181526020017f4600000000000000000000000000000000000000000000000000000000000000815250805190602001205f82815481106108bd576108bc61223c565b5b905f5260205f2090600502016003016040516108d991906123f0565b6040518091039020036108f55781806108f190612406565b9250505b8080600101915050610861565b505f8167ffffffffffffffff81111561091e5761091d611d14565b5b60405190808252806020026020018201604052801561095757816020015b61094461182d565b81526020019060019003908161093c5790505b5090505f805b5f80549050811015610c4d576040518060400160405280600181526020017f4600000000000000000000000000000000000000000000000000000000000000815250805190602001205f82815481106109b9576109b861223c565b5b905f5260205f2090600502016003016040516109d591906123f0565b604051809103902003610c40575f81815481106109f5576109f461223c565b5b905f5260205f2090600502016040518060a00160405290815f82018054610a1b906121ac565b80601f0160208091040260200160405190810160405280929190818152602001828054610a47906121ac565b8015610a925780601f10610a6957610100808354040283529160200191610a92565b820191905f5260205f20905b815481529060010190602001808311610a7557829003601f168201915b505050505081526020016001820154815260200160028201548152602001600382018054610abf906121ac565b80601f0160208091040260200160405190810160405280929190818152602001828054610aeb906121ac565b8015610b365780601f10610b0d57610100808354040283529160200191610b36565b820191905f5260205f20905b815481529060010190602001808311610b1957829003601f168201915b5050505050815260200160048201805480602002602001604051908101604052809291908181526020015f905b82821015610c0b578382905f5260205f20018054610b80906121ac565b80601f0160208091040260200160405190810160405280929190818152602001828054610bac906121ac565b8015610bf75780601f10610bce57610100808354040283529160200191610bf7565b820191905f5260205f20905b815481529060010190602001808311610bda57829003601f168201915b505050505081526020019060010190610b63565b5050505081525050838381518110610c2657610c2561223c565b5b60200260200101819052508180610c3c90612406565b9250505b808060010191505061095d565b5081935050505090565b610c5f61182d565b5f5b5f80549050811015610edc57825f8281548110610c8157610c8061223c565b5b905f5260205f2090600502016001015403610ecf575f8181548110610ca957610ca861223c565b5b905f5260205f2090600502016040518060a00160405290815f82018054610ccf906121ac565b80601f0160208091040260200160405190810160405280929190818152602001828054610cfb906121ac565b8015610d465780601f10610d1d57610100808354040283529160200191610d46565b820191905f5260205f20905b815481529060010190602001808311610d2957829003601f168201915b505050505081526020016001820154815260200160028201548152602001600382018054610d73906121ac565b80601f0160208091040260200160405190810160405280929190818152602001828054610d9f906121ac565b8015610dea5780601f10610dc157610100808354040283529160200191610dea565b820191905f5260205f20905b815481529060010190602001808311610dcd57829003601f168201915b5050505050815260200160048201805480602002602001604051908101604052809291908181526020015f905b82821015610ebf578382905f5260205f20018054610e34906121ac565b80601f0160208091040260200160405190810160405280929190818152602001828054610e60906121ac565b8015610eab5780601f10610e8257610100808354040283529160200191610eab565b820191905f5260205f20905b815481529060010190602001808311610e8e57829003601f168201915b505050505081526020019060010190610e17565b5050505081525050915050610f18565b8080600101915050610c61565b506040517f08c379a0000000000000000000000000000000000000000000000000000000008152600401610f0f90612497565b60405180910390fd5b919050565b5f600185604051610f2e91906122a3565b90815260200160405180910390205414610f7d576040517f08c379a0000000000000000000000000000000000000000000000000000000008152600401610f74906124ff565b60405180910390fd5b5f610f87836116d9565b90505f6040518060a0016040528087815260200186815260200185815260200183815260200184815250908060018154018082558091505060019003905f5260205f2090600502015f909190919091505f820151815f019081610fea91906126ba565b506020820151816001015560408201518160020155606082015181600301908161101491906126ba565b50608082015181600401908051906020019061103192919061185a565b5050505f8054905060018660405161104991906122a3565b9081526020016040518091039020819055505050505050565b61106a61182d565b5f60018360405161107b91906122a3565b90815260200160405180910390205490505f81116110ce576040517f08c379a00000000000000000000000000000000000000000000000000000000081526004016110c590612303565b60405180910390fd5b5f6001826110dc9190612321565b815481106110ed576110ec61223c565b5b905f5260205f2090600502016040518060a00160405290815f82018054611113906121ac565b80601f016020809104026020016040519081016040528092919081815260200182805461113f906121ac565b801561118a5780601f106111615761010080835404028352916020019161118a565b820191905f5260205f20905b81548152906001019060200180831161116d57829003601f168201915b5050505050815260200160018201548152602001600282015481526020016003820180546111b7906121ac565b80601f01602080910402602001604051908101604052809291908181526020018280546111e3906121ac565b801561122e5780601f106112055761010080835404028352916020019161122e565b820191905f5260205f20905b81548152906001019060200180831161121157829003601f168201915b5050505050815260200160048201805480602002602001604051908101604052809291908181526020015f905b82821015611303578382905f5260205f20018054611278906121ac565b80601f01602080910402602001604051908101604052809291908181526020018280546112a4906121ac565b80156112ef5780601f106112c6576101008083540402835291602001916112ef565b820191905f5260205f20905b8154815290600101906020018083116112d257829003601f168201915b50505050508152602001906001019061125b565b5050505081525050915050919050565b60605f805480602002602001604051908101604052809291908181526020015f905b8282101561156c578382905f5260205f2090600502016040518060a00160405290815f82018054611365906121ac565b80601f0160208091040260200160405190810160405280929190818152602001828054611391906121ac565b80156113dc5780601f106113b3576101008083540402835291602001916113dc565b820191905f5260205f20905b8154815290600101906020018083116113bf57829003601f168201915b505050505081526020016001820154815260200160028201548152602001600382018054611409906121ac565b80601f0160208091040260200160405190810160405280929190818152602001828054611435906121ac565b80156114805780601f1061145757610100808354040283529160200191611480565b820191905f5260205f20905b81548152906001019060200180831161146357829003601f168201915b5050505050815260200160048201805480602002602001604051908101604052809291908181526020015f905b82821015611555578382905f5260205f200180546114ca906121ac565b80601f01602080910402602001604051908101604052809291908181526020018280546114f6906121ac565b80156115415780601f1061151857610100808354040283529160200191611541565b820191905f5260205f20905b81548152906001019060200180831161152457829003601f168201915b5050505050815260200190600101906114ad565b505050508152505081526020019060010190611335565b50505050905090565b60605f808054905067ffffffffffffffff81111561159657611595611d14565b5b6040519080825280602002602001820160405280156115c45781602001602082028036833780820191505090505b5090505f5b5f80549050811015611624575f81815481106115e8576115e761223c565b5b905f5260205f2090600502016001015482828151811061160b5761160a61223c565b5b60200260200101818152505080806001019150506115c9565b508091505090565b5f805f8054905011611673576040517f08c379a000000000000000000000000000000000000000000000000000000000815260040161166a906127d3565b60405180910390fd5b5f805f90505b5f805490508110156116c2575f81815481106116985761169761223c565b5b905f5260205f20906005020160020154826116b39190612209565b91508080600101915050611679565b505f80549050816116d3919061281e565b91505090565b6060605a8210611720576040518060400160405280600181526020017f41000000000000000000000000000000000000000000000000000000000000008152509050611828565b60508210611765576040518060400160405280600181526020017f42000000000000000000000000000000000000000000000000000000000000008152509050611828565b604682106117aa576040518060400160405280600181526020017f43000000000000000000000000000000000000000000000000000000000000008152509050611828565b603c82106117ef576040518060400160405280600181526020017f44000000000000000000000000000000000000000000000000000000000000008152509050611828565b6040518060400160405280600181526020017f460000000000000000000000000000000000000000000000000000000000000081525090505b919050565b6040518060a00160405280606081526020015f81526020015f815260200160608152602001606081525090565b828054828255905f5260205f209081019282156118a0579160200282015b8281111561189f57825182908161188f91906126ba565b5091602001919060010190611878565b5b5090506118ad91906118b1565b5090565b5b808211156118d0575f81816118c791906118d4565b506001016118b2565b5090565b5080546118e0906121ac565b5f825580601f106118f1575061190e565b601f0160209004905f5260205f209081019061190d9190611911565b5b50565b5b80821115611928575f815f905550600101611912565b5090565b5f604051905090565b5f80fd5b5f80fd5b5f819050919050565b61194f8161193d565b8114611959575f80fd5b50565b5f8135905061196a81611946565b92915050565b5f6020828403121561198557611984611935565b5b5f6119928482850161195c565b91505092915050565b5f81519050919050565b5f82825260208201905092915050565b8281835e5f83830152505050565b5f601f19601f8301169050919050565b5f6119dd8261199b565b6119e781856119a5565b93506119f78185602086016119b5565b611a00816119c3565b840191505092915050565b611a148161193d565b82525050565b5f6080820190508181035f830152611a3281876119d3565b9050611a416020830186611a0b565b611a4e6040830185611a0b565b8181036060830152611a6081846119d3565b905095945050505050565b5f8115159050919050565b611a7f81611a6b565b82525050565b5f602082019050611a985f830184611a76565b92915050565b5f81519050919050565b5f82825260208201905092915050565b5f819050602082019050919050565b5f82825260208201905092915050565b5f611ae18261199b565b611aeb8185611ac7565b9350611afb8185602086016119b5565b611b04816119c3565b840191505092915050565b611b188161193d565b82525050565b5f81519050919050565b5f82825260208201905092915050565b5f819050602082019050919050565b5f611b528383611ad7565b905092915050565b5f602082019050919050565b5f611b7082611b1e565b611b7a8185611b28565b935083602082028501611b8c85611b38565b805f5b85811015611bc75784840389528151611ba88582611b47565b9450611bb383611b5a565b925060208a01995050600181019050611b8f565b50829750879550505050505092915050565b5f60a083015f8301518482035f860152611bf38282611ad7565b9150506020830151611c086020860182611b0f565b506040830151611c1b6040860182611b0f565b5060608301518482036060860152611c338282611ad7565b91505060808301518482036080860152611c4d8282611b66565b9150508091505092915050565b5f611c658383611bd9565b905092915050565b5f602082019050919050565b5f611c8382611a9e565b611c8d8185611aa8565b935083602082028501611c9f85611ab8565b805f5b85811015611cda5784840389528151611cbb8582611c5a565b9450611cc683611c6d565b925060208a01995050600181019050611ca2565b50829750879550505050505092915050565b5f6020820190508181035f830152611d048184611c79565b905092915050565b5f80fd5b5f80fd5b7f4e487b71000000000000000000000000000000000000000000000000000000005f52604160045260245ffd5b611d4a826119c3565b810181811067ffffffffffffffff82111715611d6957611d68611d14565b5b80604052505050565b5f611d7b61192c565b9050611d878282611d41565b919050565b5f67ffffffffffffffff821115611da657611da5611d14565b5b611daf826119c3565b9050602081019050919050565b828183375f83830152505050565b5f611ddc611dd784611d8c565b611d72565b905082815260208101848484011115611df857611df7611d10565b5b611e03848285611dbc565b509392505050565b5f82601f830112611e1f57611e1e611d0c565b5b8135611e2f848260208601611dca565b91505092915050565b5f60208284031215611e4d57611e4c611935565b5b5f82013567ffffffffffffffff811115611e6a57611e69611939565b5b611e7684828501611e0b565b91505092915050565b5f602082019050611e925f830184611a0b565b92915050565b5f60a083015f8301518482035f860152611eb28282611ad7565b9150506020830151611ec76020860182611b0f565b506040830151611eda6040860182611b0f565b5060608301518482036060860152611ef28282611ad7565b91505060808301518482036080860152611f0c8282611b66565b9150508091505092915050565b5f6020820190508181035f830152611f318184611e98565b905092915050565b5f67ffffffffffffffff821115611f5357611f52611d14565b5b602082029050602081019050919050565b5f80fd5b5f611f7a611f7584611f39565b611d72565b90508083825260208201905060208402830185811115611f9d57611f9c611f64565b5b835b81811015611fe457803567ffffffffffffffff811115611fc257611fc1611d0c565b5b808601611fcf8982611e0b565b85526020850194505050602081019050611f9f565b5050509392505050565b5f82601f83011261200257612001611d0c565b5b8135612012848260208601611f68565b91505092915050565b5f805f806080858703121561203357612032611935565b5b5f85013567ffffffffffffffff8111156120505761204f611939565b5b61205c87828801611e0b565b945050602061206d8782880161195c565b935050604061207e8782880161195c565b925050606085013567ffffffffffffffff81111561209f5761209e611939565b5b6120ab87828801611fee565b91505092959194509250565b5f81519050919050565b5f82825260208201905092915050565b5f819050602082019050919050565b5f6120eb8383611b0f565b60208301905092915050565b5f602082019050919050565b5f61210d826120b7565b61211781856120c1565b9350612122836120d1565b805f5b8381101561215257815161213988826120e0565b9750612144836120f7565b925050600181019050612125565b5085935050505092915050565b5f6020820190508181035f8301526121778184612103565b905092915050565b7f4e487b71000000000000000000000000000000000000000000000000000000005f52602260045260245ffd5b5f60028204905060018216806121c357607f821691505b6020821081036121d6576121d561217f565b5b50919050565b7f4e487b71000000000000000000000000000000000000000000000000000000005f52601160045260245ffd5b5f6122138261193d565b915061221e8361193d565b9250828201905080821115612236576122356121dc565b5b92915050565b7f4e487b71000000000000000000000000000000000000000000000000000000005f52603260045260245ffd5b5f81905092915050565b5f61227d8261199b565b6122878185612269565b93506122978185602086016119b5565b80840191505092915050565b5f6122ae8284612273565b915081905092915050565b7f4e6f2073747564656e7420776974682074686520676976656e206e616d6500005f82015250565b5f6122ed601e836119a5565b91506122f8826122b9565b602082019050919050565b5f6020820190508181035f83015261231a816122e1565b9050919050565b5f61232b8261193d565b91506123368361193d565b925082820390508181111561234e5761234d6121dc565b5b92915050565b5f81905092915050565b5f819050815f5260205f209050919050565b5f815461237c816121ac565b6123868186612354565b9450600182165f81146123a057600181146123b5576123e7565b60ff19831686528115158202860193506123e7565b6123be8561235e565b5f5b838110156123df578154818901526001820191506020810190506123c0565b838801955050505b50505092915050565b5f6123fb8284612370565b915081905092915050565b5f6124108261193d565b91507fffffffffffffffffffffffffffffffffffffffffffffffffffffffffffffffff8203612442576124416121dc565b5b600182019050919050565b7f4e6f2073747564656e7420776974682074686520676976656e206e756d6265725f82015250565b5f6124816020836119a5565b915061248c8261244d565b602082019050919050565b5f6020820190508181035f8301526124ae81612475565b9050919050565b7f53747564656e7420616c726561647920657869737473000000000000000000005f82015250565b5f6124e96016836119a5565b91506124f4826124b5565b602082019050919050565b5f6020820190508181035f830152612516816124dd565b9050919050565b5f819050815f5260205f209050919050565b5f6020601f8301049050919050565b5f82821b905092915050565b5f600883026125797fffffffffffffffffffffffffffffffffffffffffffffffffffffffffffffffff8261253e565b612583868361253e565b95508019841693508086168417925050509392505050565b5f819050919050565b5f6125be6125b96125b48461193d565b61259b565b61193d565b9050919050565b5f819050919050565b6125d7836125a4565b6125eb6125e3826125c5565b84845461254a565b825550505050565b5f90565b6125ff6125f3565b61260a8184846125ce565b505050565b5b8181101561262d576126225f826125f7565b600181019050612610565b5050565b601f821115612672576126438161251d565b61264c8461252f565b8101602085101561265b578190505b61266f6126678561252f565b83018261260f565b50505b505050565b5f82821c905092915050565b5f6126925f1984600802612677565b1980831691505092915050565b5f6126aa8383612683565b9150826002028217905092915050565b6126c38261199b565b67ffffffffffffffff8111156126dc576126db611d14565b5b6126e682546121ac565b6126f1828285612631565b5f60209050601f831160018114612722575f8415612710578287015190505b61271a858261269f565b865550612781565b601f1984166127308661251d565b5f5b8281101561275757848901518255600182019150602085019450602081019050612732565b868310156127745784890151612770601f891682612683565b8355505b6001600288020188555050505b505050505050565b7f4e6f2073747564656e747320617661696c61626c6500000000000000000000005f82015250565b5f6127bd6015836119a5565b91506127c882612789565b602082019050919050565b5f6020820190508181035f8301526127ea816127b1565b9050919050565b7f4e487b71000000000000000000000000000000000000000000000000000000005f52601260045260245ffd5b5f6128288261193d565b91506128338361193d565b925082612843576128426127f1565b5b82820490509291505056fea2646970667358221220e99cc6301258a94bfb26326c121fea694542f0b944f48c0a476babc6407e8c5264736f6c634300081a0033",
					"opcodes": "PUSH1 0x80 PUSH1 0x40 MSTORE CALLVALUE DUP1 ISZERO PUSH1 0xE JUMPI PUSH0 DUP1 REVERT JUMPDEST POP PUSH2 0x2884 DUP1 PUSH2 0x1C PUSH0 CODECOPY PUSH0 RETURN INVALID PUSH1 0x80 PUSH1 0x40 MSTORE CALLVALUE DUP1 ISZERO PUSH2 0xF JUMPI PUSH0 DUP1 REVERT JUMPDEST POP PUSH1 0x4 CALLDATASIZE LT PUSH2 0xA7 JUMPI PUSH0 CALLDATALOAD PUSH1 0xE0 SHR DUP1 PUSH4 0xA13A1C13 GT PUSH2 0x6F JUMPI DUP1 PUSH4 0xA13A1C13 EQ PUSH2 0x168 JUMPI DUP1 PUSH4 0xA4545C0D EQ PUSH2 0x198 JUMPI DUP1 PUSH4 0xD73CE6C1 EQ PUSH2 0x1B4 JUMPI DUP1 PUSH4 0xE9E30927 EQ PUSH2 0x1E4 JUMPI DUP1 PUSH4 0xEC08DF36 EQ PUSH2 0x202 JUMPI DUP1 PUSH4 0xF8C8DEE8 EQ PUSH2 0x220 JUMPI PUSH2 0xA7 JUMP JUMPDEST DUP1 PUSH4 0x6EAD22E EQ PUSH2 0xAB JUMPI DUP1 PUSH4 0x27F7C259 EQ PUSH2 0xDE JUMPI DUP1 PUSH4 0x3C51CDCA EQ PUSH2 0xFC JUMPI DUP1 PUSH4 0x416C632B EQ PUSH2 0x11A JUMPI DUP1 PUSH4 0x98463C74 EQ PUSH2 0x14A JUMPI JUMPDEST PUSH0 DUP1 REVERT JUMPDEST PUSH2 0xC5 PUSH1 0x4 DUP1 CALLDATASIZE SUB DUP2 ADD SWAP1 PUSH2 0xC0 SWAP2 SWAP1 PUSH2 0x1970 JUMP JUMPDEST PUSH2 0x23E JUMP JUMPDEST PUSH1 0x40 MLOAD PUSH2 0xD5 SWAP5 SWAP4 SWAP3 SWAP2 SWAP1 PUSH2 0x1A1A JUMP JUMPDEST PUSH1 0x40 MLOAD DUP1 SWAP2 SUB SWAP1 RETURN JUMPDEST PUSH2 0xE6 PUSH2 0x384 JUMP JUMPDEST PUSH1 0x40 MLOAD PUSH2 0xF3 SWAP2 SWAP1 PUSH2 0x1A85 JUMP JUMPDEST PUSH1 0x40 MLOAD DUP1 SWAP2 SUB SWAP1 RETURN JUMPDEST PUSH2 0x104 PUSH2 0x396 JUMP JUMPDEST PUSH1 0x40 MLOAD PUSH2 0x111 SWAP2 SWAP1 PUSH2 0x1CEC JUMP JUMPDEST PUSH1 0x40 MLOAD DUP1 SWAP2 SUB SWAP1 RETURN JUMPDEST PUSH2 0x134 PUSH1 0x4 DUP1 CALLDATASIZE SUB DUP2 ADD SWAP1 PUSH2 0x12F SWAP2 SWAP1 PUSH2 0x1E38 JUMP JUMPDEST PUSH2 0x7C0 JUMP JUMPDEST PUSH1 0x40 MLOAD PUSH2 0x141 SWAP2 SWAP1 PUSH2 0x1E7F JUMP JUMPDEST PUSH1 0x40 MLOAD DUP1 SWAP2 SUB SWAP1 RETURN JUMPDEST PUSH2 0x152 PUSH2 0x85C JUMP JUMPDEST PUSH1 0x40 MLOAD PUSH2 0x15F SWAP2 SWAP1 PUSH2 0x1CEC JUMP JUMPDEST PUSH1 0x40 MLOAD DUP1 SWAP2 SUB SWAP1 RETURN JUMPDEST PUSH2 0x182 PUSH1 0x4 DUP1 CALLDATASIZE SUB DUP2 ADD SWAP1 PUSH2 0x17D SWAP2 SWAP1 PUSH2 0x1970 JUMP JUMPDEST PUSH2 0xC57 JUMP JUMPDEST PUSH1 0x40 MLOAD PUSH2 0x18F SWAP2 SWAP1 PUSH2 0x1F19 JUMP JUMPDEST PUSH1 0x40 MLOAD DUP1 SWAP2 SUB SWAP1 RETURN JUMPDEST PUSH2 0x1B2 PUSH1 0x4 DUP1 CALLDATASIZE SUB DUP2 ADD SWAP1 PUSH2 0x1AD SWAP2 SWAP1 PUSH2 0x201B JUMP JUMPDEST PUSH2 0xF1D JUMP JUMPDEST STOP JUMPDEST PUSH2 0x1CE PUSH1 0x4 DUP1 CALLDATASIZE SUB DUP2 ADD SWAP1 PUSH2 0x1C9 SWAP2 SWAP1 PUSH2 0x1E38 JUMP JUMPDEST PUSH2 0x1062 JUMP JUMPDEST PUSH1 0x40 MLOAD PUSH2 0x1DB SWAP2 SWAP1 PUSH2 0x1F19 JUMP JUMPDEST PUSH1 0x40 MLOAD DUP1 SWAP2 SUB SWAP1 RETURN JUMPDEST PUSH2 0x1EC PUSH2 0x1313 JUMP JUMPDEST PUSH1 0x40 MLOAD PUSH2 0x1F9 SWAP2 SWAP1 PUSH2 0x1CEC JUMP JUMPDEST PUSH1 0x40 MLOAD DUP1 SWAP2 SUB SWAP1 RETURN JUMPDEST PUSH2 0x20A PUSH2 0x1575 JUMP JUMPDEST PUSH1 0x40 MLOAD PUSH2 0x217 SWAP2 SWAP1 PUSH2 0x215F JUMP JUMPDEST PUSH1 0x40 MLOAD DUP1 SWAP2 SUB SWAP1 RETURN JUMPDEST PUSH2 0x228 PUSH2 0x162C JUMP JUMPDEST PUSH1 0x40 MLOAD PUSH2 0x235 SWAP2 SWAP1 PUSH2 0x1E7F JUMP JUMPDEST PUSH1 0x40 MLOAD DUP1 SWAP2 SUB SWAP1 RETURN JUMPDEST PUSH0 DUP2 DUP2 SLOAD DUP2 LT PUSH2 0x24C JUMPI PUSH0 DUP1 REVERT JUMPDEST SWAP1 PUSH0 MSTORE PUSH1 0x20 PUSH0 KECCAK256 SWAP1 PUSH1 0x5 MUL ADD PUSH0 SWAP2 POP SWAP1 POP DUP1 PUSH0 ADD DUP1 SLOAD PUSH2 0x26B SWAP1 PUSH2 0x21AC JUMP JUMPDEST DUP1 PUSH1 0x1F ADD PUSH1 0x20 DUP1 SWAP2 DIV MUL PUSH1 0x20 ADD PUSH1 0x40 MLOAD SWAP1 DUP2 ADD PUSH1 0x40 MSTORE DUP1 SWAP3 SWAP2 SWAP1 DUP2 DUP2 MSTORE PUSH1 0x20 ADD DUP3 DUP1 SLOAD PUSH2 0x297 SWAP1 PUSH2 0x21AC JUMP JUMPDEST DUP1 ISZERO PUSH2 0x2E2 JUMPI DUP1 PUSH1 0x1F LT PUSH2 0x2B9 JUMPI PUSH2 0x100 DUP1 DUP4 SLOAD DIV MUL DUP4 MSTORE SWAP2 PUSH1 0x20 ADD SWAP2 PUSH2 0x2E2 JUMP JUMPDEST DUP3 ADD SWAP2 SWAP1 PUSH0 MSTORE PUSH1 0x20 PUSH0 KECCAK256 SWAP1 JUMPDEST DUP2 SLOAD DUP2 MSTORE SWAP1 PUSH1 0x1 ADD SWAP1 PUSH1 0x20 ADD DUP1 DUP4 GT PUSH2 0x2C5 JUMPI DUP3 SWAP1 SUB PUSH1 0x1F AND DUP3 ADD SWAP2 JUMPDEST POP POP POP POP POP SWAP1 DUP1 PUSH1 0x1 ADD SLOAD SWAP1 DUP1 PUSH1 0x2 ADD SLOAD SWAP1 DUP1 PUSH1 0x3 ADD DUP1 SLOAD PUSH2 0x303 SWAP1 PUSH2 0x21AC JUMP JUMPDEST DUP1 PUSH1 0x1F ADD PUSH1 0x20 DUP1 SWAP2 DIV MUL PUSH1 0x20 ADD PUSH1 0x40 MLOAD SWAP1 DUP2 ADD PUSH1 0x40 MSTORE DUP1 SWAP3 SWAP2 SWAP1 DUP2 DUP2 MSTORE PUSH1 0x20 ADD DUP3 DUP1 SLOAD PUSH2 0x32F SWAP1 PUSH2 0x21AC JUMP JUMPDEST DUP1 ISZERO PUSH2 0x37A JUMPI DUP1 PUSH1 0x1F LT PUSH2 0x351 JUMPI PUSH2 0x100 DUP1 DUP4 SLOAD DIV MUL DUP4 MSTORE SWAP2 PUSH1 0x20 ADD SWAP2 PUSH2 0x37A JUMP JUMPDEST DUP3 ADD SWAP2 SWAP1 PUSH0 MSTORE PUSH1 0x20 PUSH0 KECCAK256 SWAP1 JUMPDEST DUP2 SLOAD DUP2 MSTORE SWAP1 PUSH1 0x1 ADD SWAP1 PUSH1 0x20 ADD DUP1 DUP4 GT PUSH2 0x35D JUMPI DUP3 SWAP1 SUB PUSH1 0x1F AND DUP3 ADD SWAP2 JUMPDEST POP POP POP POP POP SWAP1 POP DUP5 JUMP JUMPDEST PUSH0 PUSH1 0x46 PUSH2 0x38F PUSH2 0x162C JUMP JUMPDEST LT ISZERO SWAP1 POP SWAP1 JUMP JUMPDEST PUSH1 0x60 PUSH0 PUSH1 0x4 PUSH0 DUP1 SLOAD SWAP1 POP LT PUSH2 0x3AC JUMPI PUSH1 0x4 PUSH2 0x3B2 JUMP JUMPDEST PUSH0 DUP1 SLOAD SWAP1 POP JUMPDEST SWAP1 POP PUSH0 DUP1 DUP1 SLOAD DUP1 PUSH1 0x20 MUL PUSH1 0x20 ADD PUSH1 0x40 MLOAD SWAP1 DUP2 ADD PUSH1 0x40 MSTORE DUP1 SWAP3 SWAP2 SWAP1 DUP2 DUP2 MSTORE PUSH1 0x20 ADD PUSH0 SWAP1 JUMPDEST DUP3 DUP3 LT ISZERO PUSH2 0x60C JUMPI DUP4 DUP3 SWAP1 PUSH0 MSTORE PUSH1 0x20 PUSH0 KECCAK256 SWAP1 PUSH1 0x5 MUL ADD PUSH1 0x40 MLOAD DUP1 PUSH1 0xA0 ADD PUSH1 0x40 MSTORE SWAP1 DUP2 PUSH0 DUP3 ADD DUP1 SLOAD PUSH2 0x405 SWAP1 PUSH2 0x21AC JUMP JUMPDEST DUP1 PUSH1 0x1F ADD PUSH1 0x20 DUP1 SWAP2 DIV MUL PUSH1 0x20 ADD PUSH1 0x40 MLOAD SWAP1 DUP2 ADD PUSH1 0x40 MSTORE DUP1 SWAP3 SWAP2 SWAP1 DUP2 DUP2 MSTORE PUSH1 0x20 ADD DUP3 DUP1 SLOAD PUSH2 0x431 SWAP1 PUSH2 0x21AC JUMP JUMPDEST DUP1 ISZERO PUSH2 0x47C JUMPI DUP1 PUSH1 0x1F LT PUSH2 0x453 JUMPI PUSH2 0x100 DUP1 DUP4 SLOAD DIV MUL DUP4 MSTORE SWAP2 PUSH1 0x20 ADD SWAP2 PUSH2 0x47C JUMP JUMPDEST DUP3 ADD SWAP2 SWAP1 PUSH0 MSTORE PUSH1 0x20 PUSH0 KECCAK256 SWAP1 JUMPDEST DUP2 SLOAD DUP2 MSTORE SWAP1 PUSH1 0x1 ADD SWAP1 PUSH1 0x20 ADD DUP1 DUP4 GT PUSH2 0x45F JUMPI DUP3 SWAP1 SUB PUSH1 0x1F AND DUP3 ADD SWAP2 JUMPDEST POP POP POP POP POP DUP2 MSTORE PUSH1 0x20 ADD PUSH1 0x1 DUP3 ADD SLOAD DUP2 MSTORE PUSH1 0x20 ADD PUSH1 0x2 DUP3 ADD SLOAD DUP2 MSTORE PUSH1 0x20 ADD PUSH1 0x3 DUP3 ADD DUP1 SLOAD PUSH2 0x4A9 SWAP1 PUSH2 0x21AC JUMP JUMPDEST DUP1 PUSH1 0x1F ADD PUSH1 0x20 DUP1 SWAP2 DIV MUL PUSH1 0x20 ADD PUSH1 0x40 MLOAD SWAP1 DUP2 ADD PUSH1 0x40 MSTORE DUP1 SWAP3 SWAP2 SWAP1 DUP2 DUP2 MSTORE PUSH1 0x20 ADD DUP3 DUP1 SLOAD PUSH2 0x4D5 SWAP1 PUSH2 0x21AC JUMP JUMPDEST DUP1 ISZERO PUSH2 0x520 JUMPI DUP1 PUSH1 0x1F LT PUSH2 0x4F7 JUMPI PUSH2 0x100 DUP1 DUP4 SLOAD DIV MUL DUP4 MSTORE SWAP2 PUSH1 0x20 ADD SWAP2 PUSH2 0x520 JUMP JUMPDEST DUP3 ADD SWAP2 SWAP1 PUSH0 MSTORE PUSH1 0x20 PUSH0 KECCAK256 SWAP1 JUMPDEST DUP2 SLOAD DUP2 MSTORE SWAP1 PUSH1 0x1 ADD SWAP1 PUSH1 0x20 ADD DUP1 DUP4 GT PUSH2 0x503 JUMPI DUP3 SWAP1 SUB PUSH1 0x1F AND DUP3 ADD SWAP2 JUMPDEST POP POP POP POP POP DUP2 MSTORE PUSH1 0x20 ADD PUSH1 0x4 DUP3 ADD DUP1 SLOAD DUP1 PUSH1 0x20 MUL PUSH1 0x20 ADD PUSH1 0x40 MLOAD SWAP1 DUP2 ADD PUSH1 0x40 MSTORE DUP1 SWAP3 SWAP2 SWAP1 DUP2 DUP2 MSTORE PUSH1 0x20 ADD PUSH0 SWAP1 JUMPDEST DUP3 DUP3 LT ISZERO PUSH2 0x5F5 JUMPI DUP4 DUP3 SWAP1 PUSH0 MSTORE PUSH1 0x20 PUSH0 KECCAK256 ADD DUP1 SLOAD PUSH2 0x56A SWAP1 PUSH2 0x21AC JUMP JUMPDEST DUP1 PUSH1 0x1F ADD PUSH1 0x20 DUP1 SWAP2 DIV MUL PUSH1 0x20 ADD PUSH1 0x40 MLOAD SWAP1 DUP2 ADD PUSH1 0x40 MSTORE DUP1 SWAP3 SWAP2 SWAP1 DUP2 DUP2 MSTORE PUSH1 0x20 ADD DUP3 DUP1 SLOAD PUSH2 0x596 SWAP1 PUSH2 0x21AC JUMP JUMPDEST DUP1 ISZERO PUSH2 0x5E1 JUMPI DUP1 PUSH1 0x1F LT PUSH2 0x5B8 JUMPI PUSH2 0x100 DUP1 DUP4 SLOAD DIV MUL DUP4 MSTORE SWAP2 PUSH1 0x20 ADD SWAP2 PUSH2 0x5E1 JUMP JUMPDEST DUP3 ADD SWAP2 SWAP1 PUSH0 MSTORE PUSH1 0x20 PUSH0 KECCAK256 SWAP1 JUMPDEST DUP2 SLOAD DUP2 MSTORE SWAP1 PUSH1 0x1 ADD SWAP1 PUSH1 0x20 ADD DUP1 DUP4 GT PUSH2 0x5C4 JUMPI DUP3 SWAP1 SUB PUSH1 0x1F AND DUP3 ADD SWAP2 JUMPDEST POP POP POP POP POP DUP2 MSTORE PUSH1 0x20 ADD SWAP1 PUSH1 0x1 ADD SWAP1 PUSH2 0x54D JUMP JUMPDEST POP POP POP POP DUP2 MSTORE POP POP DUP2 MSTORE PUSH1 0x20 ADD SWAP1 PUSH1 0x1 ADD SWAP1 PUSH2 0x3D5 JUMP JUMPDEST POP POP POP POP SWAP1 POP PUSH0 JUMPDEST DUP2 MLOAD DUP2 LT ISZERO PUSH2 0x70E JUMPI PUSH0 PUSH1 0x1 DUP3 PUSH2 0x62B SWAP2 SWAP1 PUSH2 0x2209 JUMP JUMPDEST SWAP1 POP JUMPDEST DUP3 MLOAD DUP2 LT ISZERO PUSH2 0x700 JUMPI DUP3 DUP2 DUP2 MLOAD DUP2 LT PUSH2 0x64A JUMPI PUSH2 0x649 PUSH2 0x223C JUMP JUMPDEST JUMPDEST PUSH1 0x20 MUL PUSH1 0x20 ADD ADD MLOAD PUSH1 0x40 ADD MLOAD DUP4 DUP4 DUP2 MLOAD DUP2 LT PUSH2 0x669 JUMPI PUSH2 0x668 PUSH2 0x223C JUMP JUMPDEST JUMPDEST PUSH1 0x20 MUL PUSH1 0x20 ADD ADD MLOAD PUSH1 0x40 ADD MLOAD LT ISZERO PUSH2 0x6F3 JUMPI PUSH0 DUP4 DUP4 DUP2 MLOAD DUP2 LT PUSH2 0x68F JUMPI PUSH2 0x68E PUSH2 0x223C JUMP JUMPDEST JUMPDEST PUSH1 0x20 MUL PUSH1 0x20 ADD ADD MLOAD SWAP1 POP DUP4 DUP3 DUP2 MLOAD DUP2 LT PUSH2 0x6AC JUMPI PUSH2 0x6AB PUSH2 0x223C JUMP JUMPDEST JUMPDEST PUSH1 0x20 MUL PUSH1 0x20 ADD ADD MLOAD DUP5 DUP5 DUP2 MLOAD DUP2 LT PUSH2 0x6C7 JUMPI PUSH2 0x6C6 PUSH2 0x223C JUMP JUMPDEST JUMPDEST PUSH1 0x20 MUL PUSH1 0x20 ADD ADD DUP2 SWAP1 MSTORE POP DUP1 DUP5 DUP4 DUP2 MLOAD DUP2 LT PUSH2 0x6E6 JUMPI PUSH2 0x6E5 PUSH2 0x223C JUMP JUMPDEST JUMPDEST PUSH1 0x20 MUL PUSH1 0x20 ADD ADD DUP2 SWAP1 MSTORE POP POP JUMPDEST DUP1 DUP1 PUSH1 0x1 ADD SWAP2 POP POP PUSH2 0x62E JUMP JUMPDEST POP DUP1 DUP1 PUSH1 0x1 ADD SWAP2 POP POP PUSH2 0x614 JUMP JUMPDEST POP PUSH0 DUP3 PUSH8 0xFFFFFFFFFFFFFFFF DUP2 GT ISZERO PUSH2 0x72A JUMPI PUSH2 0x729 PUSH2 0x1D14 JUMP JUMPDEST JUMPDEST PUSH1 0x40 MLOAD SWAP1 DUP1 DUP3 MSTORE DUP1 PUSH1 0x20 MUL PUSH1 0x20 ADD DUP3 ADD PUSH1 0x40 MSTORE DUP1 ISZERO PUSH2 0x763 JUMPI DUP2 PUSH1 0x20 ADD JUMPDEST PUSH2 0x750 PUSH2 0x182D JUMP JUMPDEST DUP2 MSTORE PUSH1 0x20 ADD SWAP1 PUSH1 0x1 SWAP1 SUB SWAP1 DUP2 PUSH2 0x748 JUMPI SWAP1 POP JUMPDEST POP SWAP1 POP PUSH0 JUMPDEST DUP4 DUP2 LT ISZERO PUSH2 0x7B6 JUMPI DUP3 DUP2 DUP2 MLOAD DUP2 LT PUSH2 0x783 JUMPI PUSH2 0x782 PUSH2 0x223C JUMP JUMPDEST JUMPDEST PUSH1 0x20 MUL PUSH1 0x20 ADD ADD MLOAD DUP3 DUP3 DUP2 MLOAD DUP2 LT PUSH2 0x79E JUMPI PUSH2 0x79D PUSH2 0x223C JUMP JUMPDEST JUMPDEST PUSH1 0x20 MUL PUSH1 0x20 ADD ADD DUP2 SWAP1 MSTORE POP DUP1 DUP1 PUSH1 0x1 ADD SWAP2 POP POP PUSH2 0x768 JUMP JUMPDEST POP DUP1 SWAP4 POP POP POP POP SWAP1 JUMP JUMPDEST PUSH0 DUP1 PUSH1 0x1 DUP4 PUSH1 0x40 MLOAD PUSH2 0x7D2 SWAP2 SWAP1 PUSH2 0x22A3 JUMP JUMPDEST SWAP1 DUP2 MSTORE PUSH1 0x20 ADD PUSH1 0x40 MLOAD DUP1 SWAP2 SUB SWAP1 KECCAK256 SLOAD SWAP1 POP PUSH0 DUP2 GT PUSH2 0x825 JUMPI PUSH1 0x40 MLOAD PUSH32 0x8C379A000000000000000000000000000000000000000000000000000000000 DUP2 MSTORE PUSH1 0x4 ADD PUSH2 0x81C SWAP1 PUSH2 0x2303 JUMP JUMPDEST PUSH1 0x40 MLOAD DUP1 SWAP2 SUB SWAP1 REVERT JUMPDEST PUSH0 PUSH1 0x1 DUP3 PUSH2 0x833 SWAP2 SWAP1 PUSH2 0x2321 JUMP JUMPDEST DUP2 SLOAD DUP2 LT PUSH2 0x844 JUMPI PUSH2 0x843 PUSH2 0x223C JUMP JUMPDEST JUMPDEST SWAP1 PUSH0 MSTORE PUSH1 0x20 PUSH0 KECCAK256 SWAP1 PUSH1 0x5 MUL ADD PUSH1 0x2 ADD SLOAD SWAP2 POP POP SWAP2 SWAP1 POP JUMP JUMPDEST PUSH1 0x60 PUSH0 DUP1 JUMPDEST PUSH0 DUP1 SLOAD SWAP1 POP DUP2 LT ISZERO PUSH2 0x902 JUMPI PUSH1 0x40 MLOAD DUP1 PUSH1 0x40 ADD PUSH1 0x40 MSTORE DUP1 PUSH1 0x1 DUP2 MSTORE PUSH1 0x20 ADD PUSH32 0x4600000000000000000000000000000000000000000000000000000000000000 DUP2 MSTORE POP DUP1 MLOAD SWAP1 PUSH1 0x20 ADD KECCAK256 PUSH0 DUP3 DUP2 SLOAD DUP2 LT PUSH2 0x8BD JUMPI PUSH2 0x8BC PUSH2 0x223C JUMP JUMPDEST JUMPDEST SWAP1 PUSH0 MSTORE PUSH1 0x20 PUSH0 KECCAK256 SWAP1 PUSH1 0x5 MUL ADD PUSH1 0x3 ADD PUSH1 0x40 MLOAD PUSH2 0x8D9 SWAP2 SWAP1 PUSH2 0x23F0 JUMP JUMPDEST PUSH1 0x40 MLOAD DUP1 SWAP2 SUB SWAP1 KECCAK256 SUB PUSH2 0x8F5 JUMPI DUP2 DUP1 PUSH2 0x8F1 SWAP1 PUSH2 0x2406 JUMP JUMPDEST SWAP3 POP POP JUMPDEST DUP1 DUP1 PUSH1 0x1 ADD SWAP2 POP POP PUSH2 0x861 JUMP JUMPDEST POP PUSH0 DUP2 PUSH8 0xFFFFFFFFFFFFFFFF DUP2 GT ISZERO PUSH2 0x91E JUMPI PUSH2 0x91D PUSH2 0x1D14 JUMP JUMPDEST JUMPDEST PUSH1 0x40 MLOAD SWAP1 DUP1 DUP3 MSTORE DUP1 PUSH1 0x20 MUL PUSH1 0x20 ADD DUP3 ADD PUSH1 0x40 MSTORE DUP1 ISZERO PUSH2 0x957 JUMPI DUP2 PUSH1 0x20 ADD JUMPDEST PUSH2 0x944 PUSH2 0x182D JUMP JUMPDEST DUP2 MSTORE PUSH1 0x20 ADD SWAP1 PUSH1 0x1 SWAP1 SUB SWAP1 DUP2 PUSH2 0x93C JUMPI SWAP1 POP JUMPDEST POP SWAP1 POP PUSH0 DUP1 JUMPDEST PUSH0 DUP1 SLOAD SWAP1 POP DUP2 LT ISZERO PUSH2 0xC4D JUMPI PUSH1 0x40 MLOAD DUP1 PUSH1 0x40 ADD PUSH1 0x40 MSTORE DUP1 PUSH1 0x1 DUP2 MSTORE PUSH1 0x20 ADD PUSH32 0x4600000000000000000000000000000000000000000000000000000000000000 DUP2 MSTORE POP DUP1 MLOAD SWAP1 PUSH1 0x20 ADD KECCAK256 PUSH0 DUP3 DUP2 SLOAD DUP2 LT PUSH2 0x9B9 JUMPI PUSH2 0x9B8 PUSH2 0x223C JUMP JUMPDEST JUMPDEST SWAP1 PUSH0 MSTORE PUSH1 0x20 PUSH0 KECCAK256 SWAP1 PUSH1 0x5 MUL ADD PUSH1 0x3 ADD PUSH1 0x40 MLOAD PUSH2 0x9D5 SWAP2 SWAP1 PUSH2 0x23F0 JUMP JUMPDEST PUSH1 0x40 MLOAD DUP1 SWAP2 SUB SWAP1 KECCAK256 SUB PUSH2 0xC40 JUMPI PUSH0 DUP2 DUP2 SLOAD DUP2 LT PUSH2 0x9F5 JUMPI PUSH2 0x9F4 PUSH2 0x223C JUMP JUMPDEST JUMPDEST SWAP1 PUSH0 MSTORE PUSH1 0x20 PUSH0 KECCAK256 SWAP1 PUSH1 0x5 MUL ADD PUSH1 0x40 MLOAD DUP1 PUSH1 0xA0 ADD PUSH1 0x40 MSTORE SWAP1 DUP2 PUSH0 DUP3 ADD DUP1 SLOAD PUSH2 0xA1B SWAP1 PUSH2 0x21AC JUMP JUMPDEST DUP1 PUSH1 0x1F ADD PUSH1 0x20 DUP1 SWAP2 DIV MUL PUSH1 0x20 ADD PUSH1 0x40 MLOAD SWAP1 DUP2 ADD PUSH1 0x40 MSTORE DUP1 SWAP3 SWAP2 SWAP1 DUP2 DUP2 MSTORE PUSH1 0x20 ADD DUP3 DUP1 SLOAD PUSH2 0xA47 SWAP1 PUSH2 0x21AC JUMP JUMPDEST DUP1 ISZERO PUSH2 0xA92 JUMPI DUP1 PUSH1 0x1F LT PUSH2 0xA69 JUMPI PUSH2 0x100 DUP1 DUP4 SLOAD DIV MUL DUP4 MSTORE SWAP2 PUSH1 0x20 ADD SWAP2 PUSH2 0xA92 JUMP JUMPDEST DUP3 ADD SWAP2 SWAP1 PUSH0 MSTORE PUSH1 0x20 PUSH0 KECCAK256 SWAP1 JUMPDEST DUP2 SLOAD DUP2 MSTORE SWAP1 PUSH1 0x1 ADD SWAP1 PUSH1 0x20 ADD DUP1 DUP4 GT PUSH2 0xA75 JUMPI DUP3 SWAP1 SUB PUSH1 0x1F AND DUP3 ADD SWAP2 JUMPDEST POP POP POP POP POP DUP2 MSTORE PUSH1 0x20 ADD PUSH1 0x1 DUP3 ADD SLOAD DUP2 MSTORE PUSH1 0x20 ADD PUSH1 0x2 DUP3 ADD SLOAD DUP2 MSTORE PUSH1 0x20 ADD PUSH1 0x3 DUP3 ADD DUP1 SLOAD PUSH2 0xABF SWAP1 PUSH2 0x21AC JUMP JUMPDEST DUP1 PUSH1 0x1F ADD PUSH1 0x20 DUP1 SWAP2 DIV MUL PUSH1 0x20 ADD PUSH1 0x40 MLOAD SWAP1 DUP2 ADD PUSH1 0x40 MSTORE DUP1 SWAP3 SWAP2 SWAP1 DUP2 DUP2 MSTORE PUSH1 0x20 ADD DUP3 DUP1 SLOAD PUSH2 0xAEB SWAP1 PUSH2 0x21AC JUMP JUMPDEST DUP1 ISZERO PUSH2 0xB36 JUMPI DUP1 PUSH1 0x1F LT PUSH2 0xB0D JUMPI PUSH2 0x100 DUP1 DUP4 SLOAD DIV MUL DUP4 MSTORE SWAP2 PUSH1 0x20 ADD SWAP2 PUSH2 0xB36 JUMP JUMPDEST DUP3 ADD SWAP2 SWAP1 PUSH0 MSTORE PUSH1 0x20 PUSH0 KECCAK256 SWAP1 JUMPDEST DUP2 SLOAD DUP2 MSTORE SWAP1 PUSH1 0x1 ADD SWAP1 PUSH1 0x20 ADD DUP1 DUP4 GT PUSH2 0xB19 JUMPI DUP3 SWAP1 SUB PUSH1 0x1F AND DUP3 ADD SWAP2 JUMPDEST POP POP POP POP POP DUP2 MSTORE PUSH1 0x20 ADD PUSH1 0x4 DUP3 ADD DUP1 SLOAD DUP1 PUSH1 0x20 MUL PUSH1 0x20 ADD PUSH1 0x40 MLOAD SWAP1 DUP2 ADD PUSH1 0x40 MSTORE DUP1 SWAP3 SWAP2 SWAP1 DUP2 DUP2 MSTORE PUSH1 0x20 ADD PUSH0 SWAP1 JUMPDEST DUP3 DUP3 LT ISZERO PUSH2 0xC0B JUMPI DUP4 DUP3 SWAP1 PUSH0 MSTORE PUSH1 0x20 PUSH0 KECCAK256 ADD DUP1 SLOAD PUSH2 0xB80 SWAP1 PUSH2 0x21AC JUMP JUMPDEST DUP1 PUSH1 0x1F ADD PUSH1 0x20 DUP1 SWAP2 DIV MUL PUSH1 0x20 ADD PUSH1 0x40 MLOAD SWAP1 DUP2 ADD PUSH1 0x40 MSTORE DUP1 SWAP3 SWAP2 SWAP1 DUP2 DUP2 MSTORE PUSH1 0x20 ADD DUP3 DUP1 SLOAD PUSH2 0xBAC SWAP1 PUSH2 0x21AC JUMP JUMPDEST DUP1 ISZERO PUSH2 0xBF7 JUMPI DUP1 PUSH1 0x1F LT PUSH2 0xBCE JUMPI PUSH2 0x100 DUP1 DUP4 SLOAD DIV MUL DUP4 MSTORE SWAP2 PUSH1 0x20 ADD SWAP2 PUSH2 0xBF7 JUMP JUMPDEST DUP3 ADD SWAP2 SWAP1 PUSH0 MSTORE PUSH1 0x20 PUSH0 KECCAK256 SWAP1 JUMPDEST DUP2 SLOAD DUP2 MSTORE SWAP1 PUSH1 0x1 ADD SWAP1 PUSH1 0x20 ADD DUP1 DUP4 GT PUSH2 0xBDA JUMPI DUP3 SWAP1 SUB PUSH1 0x1F AND DUP3 ADD SWAP2 JUMPDEST POP POP POP POP POP DUP2 MSTORE PUSH1 0x20 ADD SWAP1 PUSH1 0x1 ADD SWAP1 PUSH2 0xB63 JUMP JUMPDEST POP POP POP POP DUP2 MSTORE POP POP DUP4 DUP4 DUP2 MLOAD DUP2 LT PUSH2 0xC26 JUMPI PUSH2 0xC25 PUSH2 0x223C JUMP JUMPDEST JUMPDEST PUSH1 0x20 MUL PUSH1 0x20 ADD ADD DUP2 SWAP1 MSTORE POP DUP2 DUP1 PUSH2 0xC3C SWAP1 PUSH2 0x2406 JUMP JUMPDEST SWAP3 POP POP JUMPDEST DUP1 DUP1 PUSH1 0x1 ADD SWAP2 POP POP PUSH2 0x95D JUMP JUMPDEST POP DUP2 SWAP4 POP POP POP POP SWAP1 JUMP JUMPDEST PUSH2 0xC5F PUSH2 0x182D JUMP JUMPDEST PUSH0 JUMPDEST PUSH0 DUP1 SLOAD SWAP1 POP DUP2 LT ISZERO PUSH2 0xEDC JUMPI DUP3 PUSH0 DUP3 DUP2 SLOAD DUP2 LT PUSH2 0xC81 JUMPI PUSH2 0xC80 PUSH2 0x223C JUMP JUMPDEST JUMPDEST SWAP1 PUSH0 MSTORE PUSH1 0x20 PUSH0 KECCAK256 SWAP1 PUSH1 0x5 MUL ADD PUSH1 0x1 ADD SLOAD SUB PUSH2 0xECF JUMPI PUSH0 DUP2 DUP2 SLOAD DUP2 LT PUSH2 0xCA9 JUMPI PUSH2 0xCA8 PUSH2 0x223C JUMP JUMPDEST JUMPDEST SWAP1 PUSH0 MSTORE PUSH1 0x20 PUSH0 KECCAK256 SWAP1 PUSH1 0x5 MUL ADD PUSH1 0x40 MLOAD DUP1 PUSH1 0xA0 ADD PUSH1 0x40 MSTORE SWAP1 DUP2 PUSH0 DUP3 ADD DUP1 SLOAD PUSH2 0xCCF SWAP1 PUSH2 0x21AC JUMP JUMPDEST DUP1 PUSH1 0x1F ADD PUSH1 0x20 DUP1 SWAP2 DIV MUL PUSH1 0x20 ADD PUSH1 0x40 MLOAD SWAP1 DUP2 ADD PUSH1 0x40 MSTORE DUP1 SWAP3 SWAP2 SWAP1 DUP2 DUP2 MSTORE PUSH1 0x20 ADD DUP3 DUP1 SLOAD PUSH2 0xCFB SWAP1 PUSH2 0x21AC JUMP JUMPDEST DUP1 ISZERO PUSH2 0xD46 JUMPI DUP1 PUSH1 0x1F LT PUSH2 0xD1D JUMPI PUSH2 0x100 DUP1 DUP4 SLOAD DIV MUL DUP4 MSTORE SWAP2 PUSH1 0x20 ADD SWAP2 PUSH2 0xD46 JUMP JUMPDEST DUP3 ADD SWAP2 SWAP1 PUSH0 MSTORE PUSH1 0x20 PUSH0 KECCAK256 SWAP1 JUMPDEST DUP2 SLOAD DUP2 MSTORE SWAP1 PUSH1 0x1 ADD SWAP1 PUSH1 0x20 ADD DUP1 DUP4 GT PUSH2 0xD29 JUMPI DUP3 SWAP1 SUB PUSH1 0x1F AND DUP3 ADD SWAP2 JUMPDEST POP POP POP POP POP DUP2 MSTORE PUSH1 0x20 ADD PUSH1 0x1 DUP3 ADD SLOAD DUP2 MSTORE PUSH1 0x20 ADD PUSH1 0x2 DUP3 ADD SLOAD DUP2 MSTORE PUSH1 0x20 ADD PUSH1 0x3 DUP3 ADD DUP1 SLOAD PUSH2 0xD73 SWAP1 PUSH2 0x21AC JUMP JUMPDEST DUP1 PUSH1 0x1F ADD PUSH1 0x20 DUP1 SWAP2 DIV MUL PUSH1 0x20 ADD PUSH1 0x40 MLOAD SWAP1 DUP2 ADD PUSH1 0x40 MSTORE DUP1 SWAP3 SWAP2 SWAP1 DUP2 DUP2 MSTORE PUSH1 0x20 ADD DUP3 DUP1 SLOAD PUSH2 0xD9F SWAP1 PUSH2 0x21AC JUMP JUMPDEST DUP1 ISZERO PUSH2 0xDEA JUMPI DUP1 PUSH1 0x1F LT PUSH2 0xDC1 JUMPI PUSH2 0x100 DUP1 DUP4 SLOAD DIV MUL DUP4 MSTORE SWAP2 PUSH1 0x20 ADD SWAP2 PUSH2 0xDEA JUMP JUMPDEST DUP3 ADD SWAP2 SWAP1 PUSH0 MSTORE PUSH1 0x20 PUSH0 KECCAK256 SWAP1 JUMPDEST DUP2 SLOAD DUP2 MSTORE SWAP1 PUSH1 0x1 ADD SWAP1 PUSH1 0x20 ADD DUP1 DUP4 GT PUSH2 0xDCD JUMPI DUP3 SWAP1 SUB PUSH1 0x1F AND DUP3 ADD SWAP2 JUMPDEST POP POP POP POP POP DUP2 MSTORE PUSH1 0x20 ADD PUSH1 0x4 DUP3 ADD DUP1 SLOAD DUP1 PUSH1 0x20 MUL PUSH1 0x20 ADD PUSH1 0x40 MLOAD SWAP1 DUP2 ADD PUSH1 0x40 MSTORE DUP1 SWAP3 SWAP2 SWAP1 DUP2 DUP2 MSTORE PUSH1 0x20 ADD PUSH0 SWAP1 JUMPDEST DUP3 DUP3 LT ISZERO PUSH2 0xEBF JUMPI DUP4 DUP3 SWAP1 PUSH0 MSTORE PUSH1 0x20 PUSH0 KECCAK256 ADD DUP1 SLOAD PUSH2 0xE34 SWAP1 PUSH2 0x21AC JUMP JUMPDEST DUP1 PUSH1 0x1F ADD PUSH1 0x20 DUP1 SWAP2 DIV MUL PUSH1 0x20 ADD PUSH1 0x40 MLOAD SWAP1 DUP2 ADD PUSH1 0x40 MSTORE DUP1 SWAP3 SWAP2 SWAP1 DUP2 DUP2 MSTORE PUSH1 0x20 ADD DUP3 DUP1 SLOAD PUSH2 0xE60 SWAP1 PUSH2 0x21AC JUMP JUMPDEST DUP1 ISZERO PUSH2 0xEAB JUMPI DUP1 PUSH1 0x1F LT PUSH2 0xE82 JUMPI PUSH2 0x100 DUP1 DUP4 SLOAD DIV MUL DUP4 MSTORE SWAP2 PUSH1 0x20 ADD SWAP2 PUSH2 0xEAB JUMP JUMPDEST DUP3 ADD SWAP2 SWAP1 PUSH0 MSTORE PUSH1 0x20 PUSH0 KECCAK256 SWAP1 JUMPDEST DUP2 SLOAD DUP2 MSTORE SWAP1 PUSH1 0x1 ADD SWAP1 PUSH1 0x20 ADD DUP1 DUP4 GT PUSH2 0xE8E JUMPI DUP3 SWAP1 SUB PUSH1 0x1F AND DUP3 ADD SWAP2 JUMPDEST POP POP POP POP POP DUP2 MSTORE PUSH1 0x20 ADD SWAP1 PUSH1 0x1 ADD SWAP1 PUSH2 0xE17 JUMP JUMPDEST POP POP POP POP DUP2 MSTORE POP POP SWAP2 POP POP PUSH2 0xF18 JUMP JUMPDEST DUP1 DUP1 PUSH1 0x1 ADD SWAP2 POP POP PUSH2 0xC61 JUMP JUMPDEST POP PUSH1 0x40 MLOAD PUSH32 0x8C379A000000000000000000000000000000000000000000000000000000000 DUP2 MSTORE PUSH1 0x4 ADD PUSH2 0xF0F SWAP1 PUSH2 0x2497 JUMP JUMPDEST PUSH1 0x40 MLOAD DUP1 SWAP2 SUB SWAP1 REVERT JUMPDEST SWAP2 SWAP1 POP JUMP JUMPDEST PUSH0 PUSH1 0x1 DUP6 PUSH1 0x40 MLOAD PUSH2 0xF2E SWAP2 SWAP1 PUSH2 0x22A3 JUMP JUMPDEST SWAP1 DUP2 MSTORE PUSH1 0x20 ADD PUSH1 0x40 MLOAD DUP1 SWAP2 SUB SWAP1 KECCAK256 SLOAD EQ PUSH2 0xF7D JUMPI PUSH1 0x40 MLOAD PUSH32 0x8C379A000000000000000000000000000000000000000000000000000000000 DUP2 MSTORE PUSH1 0x4 ADD PUSH2 0xF74 SWAP1 PUSH2 0x24FF JUMP JUMPDEST PUSH1 0x40 MLOAD DUP1 SWAP2 SUB SWAP1 REVERT JUMPDEST PUSH0 PUSH2 0xF87 DUP4 PUSH2 0x16D9 JUMP JUMPDEST SWAP1 POP PUSH0 PUSH1 0x40 MLOAD DUP1 PUSH1 0xA0 ADD PUSH1 0x40 MSTORE DUP1 DUP8 DUP2 MSTORE PUSH1 0x20 ADD DUP7 DUP2 MSTORE PUSH1 0x20 ADD DUP6 DUP2 MSTORE PUSH1 0x20 ADD DUP4 DUP2 MSTORE PUSH1 0x20 ADD DUP5 DUP2 MSTORE POP SWAP1 DUP1 PUSH1 0x1 DUP2 SLOAD ADD DUP1 DUP3 SSTORE DUP1 SWAP2 POP POP PUSH1 0x1 SWAP1 SUB SWAP1 PUSH0 MSTORE PUSH1 0x20 PUSH0 KECCAK256 SWAP1 PUSH1 0x5 MUL ADD PUSH0 SWAP1 SWAP2 SWAP1 SWAP2 SWAP1 SWAP2 POP PUSH0 DUP3 ADD MLOAD DUP2 PUSH0 ADD SWAP1 DUP2 PUSH2 0xFEA SWAP2 SWAP1 PUSH2 0x26BA JUMP JUMPDEST POP PUSH1 0x20 DUP3 ADD MLOAD DUP2 PUSH1 0x1 ADD SSTORE PUSH1 0x40 DUP3 ADD MLOAD DUP2 PUSH1 0x2 ADD SSTORE PUSH1 0x60 DUP3 ADD MLOAD DUP2 PUSH1 0x3 ADD SWAP1 DUP2 PUSH2 0x1014 SWAP2 SWAP1 PUSH2 0x26BA JUMP JUMPDEST POP PUSH1 0x80 DUP3 ADD MLOAD DUP2 PUSH1 0x4 ADD SWAP1 DUP1 MLOAD SWAP1 PUSH1 0x20 ADD SWAP1 PUSH2 0x1031 SWAP3 SWAP2 SWAP1 PUSH2 0x185A JUMP JUMPDEST POP POP POP PUSH0 DUP1 SLOAD SWAP1 POP PUSH1 0x1 DUP7 PUSH1 0x40 MLOAD PUSH2 0x1049 SWAP2 SWAP1 PUSH2 0x22A3 JUMP JUMPDEST SWAP1 DUP2 MSTORE PUSH1 0x20 ADD PUSH1 0x40 MLOAD DUP1 SWAP2 SUB SWAP1 KECCAK256 DUP2 SWAP1 SSTORE POP POP POP POP POP POP JUMP JUMPDEST PUSH2 0x106A PUSH2 0x182D JUMP JUMPDEST PUSH0 PUSH1 0x1 DUP4 PUSH1 0x40 MLOAD PUSH2 0x107B SWAP2 SWAP1 PUSH2 0x22A3 JUMP JUMPDEST SWAP1 DUP2 MSTORE PUSH1 0x20 ADD PUSH1 0x40 MLOAD DUP1 SWAP2 SUB SWAP1 KECCAK256 SLOAD SWAP1 POP PUSH0 DUP2 GT PUSH2 0x10CE JUMPI PUSH1 0x40 MLOAD PUSH32 0x8C379A000000000000000000000000000000000000000000000000000000000 DUP2 MSTORE PUSH1 0x4 ADD PUSH2 0x10C5 SWAP1 PUSH2 0x2303 JUMP JUMPDEST PUSH1 0x40 MLOAD DUP1 SWAP2 SUB SWAP1 REVERT JUMPDEST PUSH0 PUSH1 0x1 DUP3 PUSH2 0x10DC SWAP2 SWAP1 PUSH2 0x2321 JUMP JUMPDEST DUP2 SLOAD DUP2 LT PUSH2 0x10ED JUMPI PUSH2 0x10EC PUSH2 0x223C JUMP JUMPDEST JUMPDEST SWAP1 PUSH0 MSTORE PUSH1 0x20 PUSH0 KECCAK256 SWAP1 PUSH1 0x5 MUL ADD PUSH1 0x40 MLOAD DUP1 PUSH1 0xA0 ADD PUSH1 0x40 MSTORE SWAP1 DUP2 PUSH0 DUP3 ADD DUP1 SLOAD PUSH2 0x1113 SWAP1 PUSH2 0x21AC JUMP JUMPDEST DUP1 PUSH1 0x1F ADD PUSH1 0x20 DUP1 SWAP2 DIV MUL PUSH1 0x20 ADD PUSH1 0x40 MLOAD SWAP1 DUP2 ADD PUSH1 0x40 MSTORE DUP1 SWAP3 SWAP2 SWAP1 DUP2 DUP2 MSTORE PUSH1 0x20 ADD DUP3 DUP1 SLOAD PUSH2 0x113F SWAP1 PUSH2 0x21AC JUMP JUMPDEST DUP1 ISZERO PUSH2 0x118A JUMPI DUP1 PUSH1 0x1F LT PUSH2 0x1161 JUMPI PUSH2 0x100 DUP1 DUP4 SLOAD DIV MUL DUP4 MSTORE SWAP2 PUSH1 0x20 ADD SWAP2 PUSH2 0x118A JUMP JUMPDEST DUP3 ADD SWAP2 SWAP1 PUSH0 MSTORE PUSH1 0x20 PUSH0 KECCAK256 SWAP1 JUMPDEST DUP2 SLOAD DUP2 MSTORE SWAP1 PUSH1 0x1 ADD SWAP1 PUSH1 0x20 ADD DUP1 DUP4 GT PUSH2 0x116D JUMPI DUP3 SWAP1 SUB PUSH1 0x1F AND DUP3 ADD SWAP2 JUMPDEST POP POP POP POP POP DUP2 MSTORE PUSH1 0x20 ADD PUSH1 0x1 DUP3 ADD SLOAD DUP2 MSTORE PUSH1 0x20 ADD PUSH1 0x2 DUP3 ADD SLOAD DUP2 MSTORE PUSH1 0x20 ADD PUSH1 0x3 DUP3 ADD DUP1 SLOAD PUSH2 0x11B7 SWAP1 PUSH2 0x21AC JUMP JUMPDEST DUP1 PUSH1 0x1F ADD PUSH1 0x20 DUP1 SWAP2 DIV MUL PUSH1 0x20 ADD PUSH1 0x40 MLOAD SWAP1 DUP2 ADD PUSH1 0x40 MSTORE DUP1 SWAP3 SWAP2 SWAP1 DUP2 DUP2 MSTORE PUSH1 0x20 ADD DUP3 DUP1 SLOAD PUSH2 0x11E3 SWAP1 PUSH2 0x21AC JUMP JUMPDEST DUP1 ISZERO PUSH2 0x122E JUMPI DUP1 PUSH1 0x1F LT PUSH2 0x1205 JUMPI PUSH2 0x100 DUP1 DUP4 SLOAD DIV MUL DUP4 MSTORE SWAP2 PUSH1 0x20 ADD SWAP2 PUSH2 0x122E JUMP JUMPDEST DUP3 ADD SWAP2 SWAP1 PUSH0 MSTORE PUSH1 0x20 PUSH0 KECCAK256 SWAP1 JUMPDEST DUP2 SLOAD DUP2 MSTORE SWAP1 PUSH1 0x1 ADD SWAP1 PUSH1 0x20 ADD DUP1 DUP4 GT PUSH2 0x1211 JUMPI DUP3 SWAP1 SUB PUSH1 0x1F AND DUP3 ADD SWAP2 JUMPDEST POP POP POP POP POP DUP2 MSTORE PUSH1 0x20 ADD PUSH1 0x4 DUP3 ADD DUP1 SLOAD DUP1 PUSH1 0x20 MUL PUSH1 0x20 ADD PUSH1 0x40 MLOAD SWAP1 DUP2 ADD PUSH1 0x40 MSTORE DUP1 SWAP3 SWAP2 SWAP1 DUP2 DUP2 MSTORE PUSH1 0x20 ADD PUSH0 SWAP1 JUMPDEST DUP3 DUP3 LT ISZERO PUSH2 0x1303 JUMPI DUP4 DUP3 SWAP1 PUSH0 MSTORE PUSH1 0x20 PUSH0 KECCAK256 ADD DUP1 SLOAD PUSH2 0x1278 SWAP1 PUSH2 0x21AC JUMP JUMPDEST DUP1 PUSH1 0x1F ADD PUSH1 0x20 DUP1 SWAP2 DIV MUL PUSH1 0x20 ADD PUSH1 0x40 MLOAD SWAP1 DUP2 ADD PUSH1 0x40 MSTORE DUP1 SWAP3 SWAP2 SWAP1 DUP2 DUP2 MSTORE PUSH1 0x20 ADD DUP3 DUP1 SLOAD PUSH2 0x12A4 SWAP1 PUSH2 0x21AC JUMP JUMPDEST DUP1 ISZERO PUSH2 0x12EF JUMPI DUP1 PUSH1 0x1F LT PUSH2 0x12C6 JUMPI PUSH2 0x100 DUP1 DUP4 SLOAD DIV MUL DUP4 MSTORE SWAP2 PUSH1 0x20 ADD SWAP2 PUSH2 0x12EF JUMP JUMPDEST DUP3 ADD SWAP2 SWAP1 PUSH0 MSTORE PUSH1 0x20 PUSH0 KECCAK256 SWAP1 JUMPDEST DUP2 SLOAD DUP2 MSTORE SWAP1 PUSH1 0x1 ADD SWAP1 PUSH1 0x20 ADD DUP1 DUP4 GT PUSH2 0x12D2 JUMPI DUP3 SWAP1 SUB PUSH1 0x1F AND DUP3 ADD SWAP2 JUMPDEST POP POP POP POP POP DUP2 MSTORE PUSH1 0x20 ADD SWAP1 PUSH1 0x1 ADD SWAP1 PUSH2 0x125B JUMP JUMPDEST POP POP POP POP DUP2 MSTORE POP POP SWAP2 POP POP SWAP2 SWAP1 POP JUMP JUMPDEST PUSH1 0x60 PUSH0 DUP1 SLOAD DUP1 PUSH1 0x20 MUL PUSH1 0x20 ADD PUSH1 0x40 MLOAD SWAP1 DUP2 ADD PUSH1 0x40 MSTORE DUP1 SWAP3 SWAP2 SWAP1 DUP2 DUP2 MSTORE PUSH1 0x20 ADD PUSH0 SWAP1 JUMPDEST DUP3 DUP3 LT ISZERO PUSH2 0x156C JUMPI DUP4 DUP3 SWAP1 PUSH0 MSTORE PUSH1 0x20 PUSH0 KECCAK256 SWAP1 PUSH1 0x5 MUL ADD PUSH1 0x40 MLOAD DUP1 PUSH1 0xA0 ADD PUSH1 0x40 MSTORE SWAP1 DUP2 PUSH0 DUP3 ADD DUP1 SLOAD PUSH2 0x1365 SWAP1 PUSH2 0x21AC JUMP JUMPDEST DUP1 PUSH1 0x1F ADD PUSH1 0x20 DUP1 SWAP2 DIV MUL PUSH1 0x20 ADD PUSH1 0x40 MLOAD SWAP1 DUP2 ADD PUSH1 0x40 MSTORE DUP1 SWAP3 SWAP2 SWAP1 DUP2 DUP2 MSTORE PUSH1 0x20 ADD DUP3 DUP1 SLOAD PUSH2 0x1391 SWAP1 PUSH2 0x21AC JUMP JUMPDEST DUP1 ISZERO PUSH2 0x13DC JUMPI DUP1 PUSH1 0x1F LT PUSH2 0x13B3 JUMPI PUSH2 0x100 DUP1 DUP4 SLOAD DIV MUL DUP4 MSTORE SWAP2 PUSH1 0x20 ADD SWAP2 PUSH2 0x13DC JUMP JUMPDEST DUP3 ADD SWAP2 SWAP1 PUSH0 MSTORE PUSH1 0x20 PUSH0 KECCAK256 SWAP1 JUMPDEST DUP2 SLOAD DUP2 MSTORE SWAP1 PUSH1 0x1 ADD SWAP1 PUSH1 0x20 ADD DUP1 DUP4 GT PUSH2 0x13BF JUMPI DUP3 SWAP1 SUB PUSH1 0x1F AND DUP3 ADD SWAP2 JUMPDEST POP POP POP POP POP DUP2 MSTORE PUSH1 0x20 ADD PUSH1 0x1 DUP3 ADD SLOAD DUP2 MSTORE PUSH1 0x20 ADD PUSH1 0x2 DUP3 ADD SLOAD DUP2 MSTORE PUSH1 0x20 ADD PUSH1 0x3 DUP3 ADD DUP1 SLOAD PUSH2 0x1409 SWAP1 PUSH2 0x21AC JUMP JUMPDEST DUP1 PUSH1 0x1F ADD PUSH1 0x20 DUP1 SWAP2 DIV MUL PUSH1 0x20 ADD PUSH1 0x40 MLOAD SWAP1 DUP2 ADD PUSH1 0x40 MSTORE DUP1 SWAP3 SWAP2 SWAP1 DUP2 DUP2 MSTORE PUSH1 0x20 ADD DUP3 DUP1 SLOAD PUSH2 0x1435 SWAP1 PUSH2 0x21AC JUMP JUMPDEST DUP1 ISZERO PUSH2 0x1480 JUMPI DUP1 PUSH1 0x1F LT PUSH2 0x1457 JUMPI PUSH2 0x100 DUP1 DUP4 SLOAD DIV MUL DUP4 MSTORE SWAP2 PUSH1 0x20 ADD SWAP2 PUSH2 0x1480 JUMP JUMPDEST DUP3 ADD SWAP2 SWAP1 PUSH0 MSTORE PUSH1 0x20 PUSH0 KECCAK256 SWAP1 JUMPDEST DUP2 SLOAD DUP2 MSTORE SWAP1 PUSH1 0x1 ADD SWAP1 PUSH1 0x20 ADD DUP1 DUP4 GT PUSH2 0x1463 JUMPI DUP3 SWAP1 SUB PUSH1 0x1F AND DUP3 ADD SWAP2 JUMPDEST POP POP POP POP POP DUP2 MSTORE PUSH1 0x20 ADD PUSH1 0x4 DUP3 ADD DUP1 SLOAD DUP1 PUSH1 0x20 MUL PUSH1 0x20 ADD PUSH1 0x40 MLOAD SWAP1 DUP2 ADD PUSH1 0x40 MSTORE DUP1 SWAP3 SWAP2 SWAP1 DUP2 DUP2 MSTORE PUSH1 0x20 ADD PUSH0 SWAP1 JUMPDEST DUP3 DUP3 LT ISZERO PUSH2 0x1555 JUMPI DUP4 DUP3 SWAP1 PUSH0 MSTORE PUSH1 0x20 PUSH0 KECCAK256 ADD DUP1 SLOAD PUSH2 0x14CA SWAP1 PUSH2 0x21AC JUMP JUMPDEST DUP1 PUSH1 0x1F ADD PUSH1 0x20 DUP1 SWAP2 DIV MUL PUSH1 0x20 ADD PUSH1 0x40 MLOAD SWAP1 DUP2 ADD PUSH1 0x40 MSTORE DUP1 SWAP3 SWAP2 SWAP1 DUP2 DUP2 MSTORE PUSH1 0x20 ADD DUP3 DUP1 SLOAD PUSH2 0x14F6 SWAP1 PUSH2 0x21AC JUMP JUMPDEST DUP1 ISZERO PUSH2 0x1541 JUMPI DUP1 PUSH1 0x1F LT PUSH2 0x1518 JUMPI PUSH2 0x100 DUP1 DUP4 SLOAD DIV MUL DUP4 MSTORE SWAP2 PUSH1 0x20 ADD SWAP2 PUSH2 0x1541 JUMP JUMPDEST DUP3 ADD SWAP2 SWAP1 PUSH0 MSTORE PUSH1 0x20 PUSH0 KECCAK256 SWAP1 JUMPDEST DUP2 SLOAD DUP2 MSTORE SWAP1 PUSH1 0x1 ADD SWAP1 PUSH1 0x20 ADD DUP1 DUP4 GT PUSH2 0x1524 JUMPI DUP3 SWAP1 SUB PUSH1 0x1F AND DUP3 ADD SWAP2 JUMPDEST POP POP POP POP POP DUP2 MSTORE PUSH1 0x20 ADD SWAP1 PUSH1 0x1 ADD SWAP1 PUSH2 0x14AD JUMP JUMPDEST POP POP POP POP DUP2 MSTORE POP POP DUP2 MSTORE PUSH1 0x20 ADD SWAP1 PUSH1 0x1 ADD SWAP1 PUSH2 0x1335 JUMP JUMPDEST POP POP POP POP SWAP1 POP SWAP1 JUMP JUMPDEST PUSH1 0x60 PUSH0 DUP1 DUP1 SLOAD SWAP1 POP PUSH8 0xFFFFFFFFFFFFFFFF DUP2 GT ISZERO PUSH2 0x1596 JUMPI PUSH2 0x1595 PUSH2 0x1D14 JUMP JUMPDEST JUMPDEST PUSH1 0x40 MLOAD SWAP1 DUP1 DUP3 MSTORE DUP1 PUSH1 0x20 MUL PUSH1 0x20 ADD DUP3 ADD PUSH1 0x40 MSTORE DUP1 ISZERO PUSH2 0x15C4 JUMPI DUP2 PUSH1 0x20 ADD PUSH1 0x20 DUP3 MUL DUP1 CALLDATASIZE DUP4 CALLDATACOPY DUP1 DUP3 ADD SWAP2 POP POP SWAP1 POP JUMPDEST POP SWAP1 POP PUSH0 JUMPDEST PUSH0 DUP1 SLOAD SWAP1 POP DUP2 LT ISZERO PUSH2 0x1624 JUMPI PUSH0 DUP2 DUP2 SLOAD DUP2 LT PUSH2 0x15E8 JUMPI PUSH2 0x15E7 PUSH2 0x223C JUMP JUMPDEST JUMPDEST SWAP1 PUSH0 MSTORE PUSH1 0x20 PUSH0 KECCAK256 SWAP1 PUSH1 0x5 MUL ADD PUSH1 0x1 ADD SLOAD DUP3 DUP3 DUP2 MLOAD DUP2 LT PUSH2 0x160B JUMPI PUSH2 0x160A PUSH2 0x223C JUMP JUMPDEST JUMPDEST PUSH1 0x20 MUL PUSH1 0x20 ADD ADD DUP2 DUP2 MSTORE POP POP DUP1 DUP1 PUSH1 0x1 ADD SWAP2 POP POP PUSH2 0x15C9 JUMP JUMPDEST POP DUP1 SWAP2 POP POP SWAP1 JUMP JUMPDEST PUSH0 DUP1 PUSH0 DUP1 SLOAD SWAP1 POP GT PUSH2 0x1673 JUMPI PUSH1 0x40 MLOAD PUSH32 0x8C379A000000000000000000000000000000000000000000000000000000000 DUP2 MSTORE PUSH1 0x4 ADD PUSH2 0x166A SWAP1 PUSH2 0x27D3 JUMP JUMPDEST PUSH1 0x40 MLOAD DUP1 SWAP2 SUB SWAP1 REVERT JUMPDEST PUSH0 DUP1 PUSH0 SWAP1 POP JUMPDEST PUSH0 DUP1 SLOAD SWAP1 POP DUP2 LT ISZERO PUSH2 0x16C2 JUMPI PUSH0 DUP2 DUP2 SLOAD DUP2 LT PUSH2 0x1698 JUMPI PUSH2 0x1697 PUSH2 0x223C JUMP JUMPDEST JUMPDEST SWAP1 PUSH0 MSTORE PUSH1 0x20 PUSH0 KECCAK256 SWAP1 PUSH1 0x5 MUL ADD PUSH1 0x2 ADD SLOAD DUP3 PUSH2 0x16B3 SWAP2 SWAP1 PUSH2 0x2209 JUMP JUMPDEST SWAP2 POP DUP1 DUP1 PUSH1 0x1 ADD SWAP2 POP POP PUSH2 0x1679 JUMP JUMPDEST POP PUSH0 DUP1 SLOAD SWAP1 POP DUP2 PUSH2 0x16D3 SWAP2 SWAP1 PUSH2 0x281E JUMP JUMPDEST SWAP2 POP POP SWAP1 JUMP JUMPDEST PUSH1 0x60 PUSH1 0x5A DUP3 LT PUSH2 0x1720 JUMPI PUSH1 0x40 MLOAD DUP1 PUSH1 0x40 ADD PUSH1 0x40 MSTORE DUP1 PUSH1 0x1 DUP2 MSTORE PUSH1 0x20 ADD PUSH32 0x4100000000000000000000000000000000000000000000000000000000000000 DUP2 MSTORE POP SWAP1 POP PUSH2 0x1828 JUMP JUMPDEST PUSH1 0x50 DUP3 LT PUSH2 0x1765 JUMPI PUSH1 0x40 MLOAD DUP1 PUSH1 0x40 ADD PUSH1 0x40 MSTORE DUP1 PUSH1 0x1 DUP2 MSTORE PUSH1 0x20 ADD PUSH32 0x4200000000000000000000000000000000000000000000000000000000000000 DUP2 MSTORE POP SWAP1 POP PUSH2 0x1828 JUMP JUMPDEST PUSH1 0x46 DUP3 LT PUSH2 0x17AA JUMPI PUSH1 0x40 MLOAD DUP1 PUSH1 0x40 ADD PUSH1 0x40 MSTORE DUP1 PUSH1 0x1 DUP2 MSTORE PUSH1 0x20 ADD PUSH32 0x4300000000000000000000000000000000000000000000000000000000000000 DUP2 MSTORE POP SWAP1 POP PUSH2 0x1828 JUMP JUMPDEST PUSH1 0x3C DUP3 LT PUSH2 0x17EF JUMPI PUSH1 0x40 MLOAD DUP1 PUSH1 0x40 ADD PUSH1 0x40 MSTORE DUP1 PUSH1 0x1 DUP2 MSTORE PUSH1 0x20 ADD PUSH32 0x4400000000000000000000000000000000000000000000000000000000000000 DUP2 MSTORE POP SWAP1 POP PUSH2 0x1828 JUMP JUMPDEST PUSH1 0x40 MLOAD DUP1 PUSH1 0x40 ADD PUSH1 0x40 MSTORE DUP1 PUSH1 0x1 DUP2 MSTORE PUSH1 0x20 ADD PUSH32 0x4600000000000000000000000000000000000000000000000000000000000000 DUP2 MSTORE POP SWAP1 POP JUMPDEST SWAP2 SWAP1 POP JUMP JUMPDEST PUSH1 0x40 MLOAD DUP1 PUSH1 0xA0 ADD PUSH1 0x40 MSTORE DUP1 PUSH1 0x60 DUP2 MSTORE PUSH1 0x20 ADD PUSH0 DUP2 MSTORE PUSH1 0x20 ADD PUSH0 DUP2 MSTORE PUSH1 0x20 ADD PUSH1 0x60 DUP2 MSTORE PUSH1 0x20 ADD PUSH1 0x60 DUP2 MSTORE POP SWAP1 JUMP JUMPDEST DUP3 DUP1 SLOAD DUP3 DUP3 SSTORE SWAP1 PUSH0 MSTORE PUSH1 0x20 PUSH0 KECCAK256 SWAP1 DUP2 ADD SWAP3 DUP3 ISZERO PUSH2 0x18A0 JUMPI SWAP2 PUSH1 0x20 MUL DUP3 ADD JUMPDEST DUP3 DUP2 GT ISZERO PUSH2 0x189F JUMPI DUP3 MLOAD DUP3 SWAP1 DUP2 PUSH2 0x188F SWAP2 SWAP1 PUSH2 0x26BA JUMP JUMPDEST POP SWAP2 PUSH1 0x20 ADD SWAP2 SWAP1 PUSH1 0x1 ADD SWAP1 PUSH2 0x1878 JUMP JUMPDEST JUMPDEST POP SWAP1 POP PUSH2 0x18AD SWAP2 SWAP1 PUSH2 0x18B1 JUMP JUMPDEST POP SWAP1 JUMP JUMPDEST JUMPDEST DUP1 DUP3 GT ISZERO PUSH2 0x18D0 JUMPI PUSH0 DUP2 DUP2 PUSH2 0x18C7 SWAP2 SWAP1 PUSH2 0x18D4 JUMP JUMPDEST POP PUSH1 0x1 ADD PUSH2 0x18B2 JUMP JUMPDEST POP SWAP1 JUMP JUMPDEST POP DUP1 SLOAD PUSH2 0x18E0 SWAP1 PUSH2 0x21AC JUMP JUMPDEST PUSH0 DUP3 SSTORE DUP1 PUSH1 0x1F LT PUSH2 0x18F1 JUMPI POP PUSH2 0x190E JUMP JUMPDEST PUSH1 0x1F ADD PUSH1 0x20 SWAP1 DIV SWAP1 PUSH0 MSTORE PUSH1 0x20 PUSH0 KECCAK256 SWAP1 DUP2 ADD SWAP1 PUSH2 0x190D SWAP2 SWAP1 PUSH2 0x1911 JUMP JUMPDEST JUMPDEST POP JUMP JUMPDEST JUMPDEST DUP1 DUP3 GT ISZERO PUSH2 0x1928 JUMPI PUSH0 DUP2 PUSH0 SWAP1 SSTORE POP PUSH1 0x1 ADD PUSH2 0x1912 JUMP JUMPDEST POP SWAP1 JUMP JUMPDEST PUSH0 PUSH1 0x40 MLOAD SWAP1 POP SWAP1 JUMP JUMPDEST PUSH0 DUP1 REVERT JUMPDEST PUSH0 DUP1 REVERT JUMPDEST PUSH0 DUP2 SWAP1 POP SWAP2 SWAP1 POP JUMP JUMPDEST PUSH2 0x194F DUP2 PUSH2 0x193D JUMP JUMPDEST DUP2 EQ PUSH2 0x1959 JUMPI PUSH0 DUP1 REVERT JUMPDEST POP JUMP JUMPDEST PUSH0 DUP2 CALLDATALOAD SWAP1 POP PUSH2 0x196A DUP2 PUSH2 0x1946 JUMP JUMPDEST SWAP3 SWAP2 POP POP JUMP JUMPDEST PUSH0 PUSH1 0x20 DUP3 DUP5 SUB SLT ISZERO PUSH2 0x1985 JUMPI PUSH2 0x1984 PUSH2 0x1935 JUMP JUMPDEST JUMPDEST PUSH0 PUSH2 0x1992 DUP5 DUP3 DUP6 ADD PUSH2 0x195C JUMP JUMPDEST SWAP2 POP POP SWAP3 SWAP2 POP POP JUMP JUMPDEST PUSH0 DUP2 MLOAD SWAP1 POP SWAP2 SWAP1 POP JUMP JUMPDEST PUSH0 DUP3 DUP3 MSTORE PUSH1 0x20 DUP3 ADD SWAP1 POP SWAP3 SWAP2 POP POP JUMP JUMPDEST DUP3 DUP2 DUP4 MCOPY PUSH0 DUP4 DUP4 ADD MSTORE POP POP POP JUMP JUMPDEST PUSH0 PUSH1 0x1F NOT PUSH1 0x1F DUP4 ADD AND SWAP1 POP SWAP2 SWAP1 POP JUMP JUMPDEST PUSH0 PUSH2 0x19DD DUP3 PUSH2 0x199B JUMP JUMPDEST PUSH2 0x19E7 DUP2 DUP6 PUSH2 0x19A5 JUMP JUMPDEST SWAP4 POP PUSH2 0x19F7 DUP2 DUP6 PUSH1 0x20 DUP7 ADD PUSH2 0x19B5 JUMP JUMPDEST PUSH2 0x1A00 DUP2 PUSH2 0x19C3 JUMP JUMPDEST DUP5 ADD SWAP2 POP POP SWAP3 SWAP2 POP POP JUMP JUMPDEST PUSH2 0x1A14 DUP2 PUSH2 0x193D JUMP JUMPDEST DUP3 MSTORE POP POP JUMP JUMPDEST PUSH0 PUSH1 0x80 DUP3 ADD SWAP1 POP DUP2 DUP2 SUB PUSH0 DUP4 ADD MSTORE PUSH2 0x1A32 DUP2 DUP8 PUSH2 0x19D3 JUMP JUMPDEST SWAP1 POP PUSH2 0x1A41 PUSH1 0x20 DUP4 ADD DUP7 PUSH2 0x1A0B JUMP JUMPDEST PUSH2 0x1A4E PUSH1 0x40 DUP4 ADD DUP6 PUSH2 0x1A0B JUMP JUMPDEST DUP2 DUP2 SUB PUSH1 0x60 DUP4 ADD MSTORE PUSH2 0x1A60 DUP2 DUP5 PUSH2 0x19D3 JUMP JUMPDEST SWAP1 POP SWAP6 SWAP5 POP POP POP POP POP JUMP JUMPDEST PUSH0 DUP2 ISZERO ISZERO SWAP1 POP SWAP2 SWAP1 POP JUMP JUMPDEST PUSH2 0x1A7F DUP2 PUSH2 0x1A6B JUMP JUMPDEST DUP3 MSTORE POP POP JUMP JUMPDEST PUSH0 PUSH1 0x20 DUP3 ADD SWAP1 POP PUSH2 0x1A98 PUSH0 DUP4 ADD DUP5 PUSH2 0x1A76 JUMP JUMPDEST SWAP3 SWAP2 POP POP JUMP JUMPDEST PUSH0 DUP2 MLOAD SWAP1 POP SWAP2 SWAP1 POP JUMP JUMPDEST PUSH0 DUP3 DUP3 MSTORE PUSH1 0x20 DUP3 ADD SWAP1 POP SWAP3 SWAP2 POP POP JUMP JUMPDEST PUSH0 DUP2 SWAP1 POP PUSH1 0x20 DUP3 ADD SWAP1 POP SWAP2 SWAP1 POP JUMP JUMPDEST PUSH0 DUP3 DUP3 MSTORE PUSH1 0x20 DUP3 ADD SWAP1 POP SWAP3 SWAP2 POP POP JUMP JUMPDEST PUSH0 PUSH2 0x1AE1 DUP3 PUSH2 0x199B JUMP JUMPDEST PUSH2 0x1AEB DUP2 DUP6 PUSH2 0x1AC7 JUMP JUMPDEST SWAP4 POP PUSH2 0x1AFB DUP2 DUP6 PUSH1 0x20 DUP7 ADD PUSH2 0x19B5 JUMP JUMPDEST PUSH2 0x1B04 DUP2 PUSH2 0x19C3 JUMP JUMPDEST DUP5 ADD SWAP2 POP POP SWAP3 SWAP2 POP POP JUMP JUMPDEST PUSH2 0x1B18 DUP2 PUSH2 0x193D JUMP JUMPDEST DUP3 MSTORE POP POP JUMP JUMPDEST PUSH0 DUP2 MLOAD SWAP1 POP SWAP2 SWAP1 POP JUMP JUMPDEST PUSH0 DUP3 DUP3 MSTORE PUSH1 0x20 DUP3 ADD SWAP1 POP SWAP3 SWAP2 POP POP JUMP JUMPDEST PUSH0 DUP2 SWAP1 POP PUSH1 0x20 DUP3 ADD SWAP1 POP SWAP2 SWAP1 POP JUMP JUMPDEST PUSH0 PUSH2 0x1B52 DUP4 DUP4 PUSH2 0x1AD7 JUMP JUMPDEST SWAP1 POP SWAP3 SWAP2 POP POP JUMP JUMPDEST PUSH0 PUSH1 0x20 DUP3 ADD SWAP1 POP SWAP2 SWAP1 POP JUMP JUMPDEST PUSH0 PUSH2 0x1B70 DUP3 PUSH2 0x1B1E JUMP JUMPDEST PUSH2 0x1B7A DUP2 DUP6 PUSH2 0x1B28 JUMP JUMPDEST SWAP4 POP DUP4 PUSH1 0x20 DUP3 MUL DUP6 ADD PUSH2 0x1B8C DUP6 PUSH2 0x1B38 JUMP JUMPDEST DUP1 PUSH0 JUMPDEST DUP6 DUP2 LT ISZERO PUSH2 0x1BC7 JUMPI DUP5 DUP5 SUB DUP10 MSTORE DUP2 MLOAD PUSH2 0x1BA8 DUP6 DUP3 PUSH2 0x1B47 JUMP JUMPDEST SWAP5 POP PUSH2 0x1BB3 DUP4 PUSH2 0x1B5A JUMP JUMPDEST SWAP3 POP PUSH1 0x20 DUP11 ADD SWAP10 POP POP PUSH1 0x1 DUP2 ADD SWAP1 POP PUSH2 0x1B8F JUMP JUMPDEST POP DUP3 SWAP8 POP DUP8 SWAP6 POP POP POP POP POP POP SWAP3 SWAP2 POP POP JUMP JUMPDEST PUSH0 PUSH1 0xA0 DUP4 ADD PUSH0 DUP4 ADD MLOAD DUP5 DUP3 SUB PUSH0 DUP7 ADD MSTORE PUSH2 0x1BF3 DUP3 DUP3 PUSH2 0x1AD7 JUMP JUMPDEST SWAP2 POP POP PUSH1 0x20 DUP4 ADD MLOAD PUSH2 0x1C08 PUSH1 0x20 DUP7 ADD DUP3 PUSH2 0x1B0F JUMP JUMPDEST POP PUSH1 0x40 DUP4 ADD MLOAD PUSH2 0x1C1B PUSH1 0x40 DUP7 ADD DUP3 PUSH2 0x1B0F JUMP JUMPDEST POP PUSH1 0x60 DUP4 ADD MLOAD DUP5 DUP3 SUB PUSH1 0x60 DUP7 ADD MSTORE PUSH2 0x1C33 DUP3 DUP3 PUSH2 0x1AD7 JUMP JUMPDEST SWAP2 POP POP PUSH1 0x80 DUP4 ADD MLOAD DUP5 DUP3 SUB PUSH1 0x80 DUP7 ADD MSTORE PUSH2 0x1C4D DUP3 DUP3 PUSH2 0x1B66 JUMP JUMPDEST SWAP2 POP POP DUP1 SWAP2 POP POP SWAP3 SWAP2 POP POP JUMP JUMPDEST PUSH0 PUSH2 0x1C65 DUP4 DUP4 PUSH2 0x1BD9 JUMP JUMPDEST SWAP1 POP SWAP3 SWAP2 POP POP JUMP JUMPDEST PUSH0 PUSH1 0x20 DUP3 ADD SWAP1 POP SWAP2 SWAP1 POP JUMP JUMPDEST PUSH0 PUSH2 0x1C83 DUP3 PUSH2 0x1A9E JUMP JUMPDEST PUSH2 0x1C8D DUP2 DUP6 PUSH2 0x1AA8 JUMP JUMPDEST SWAP4 POP DUP4 PUSH1 0x20 DUP3 MUL DUP6 ADD PUSH2 0x1C9F DUP6 PUSH2 0x1AB8 JUMP JUMPDEST DUP1 PUSH0 JUMPDEST DUP6 DUP2 LT ISZERO PUSH2 0x1CDA JUMPI DUP5 DUP5 SUB DUP10 MSTORE DUP2 MLOAD PUSH2 0x1CBB DUP6 DUP3 PUSH2 0x1C5A JUMP JUMPDEST SWAP5 POP PUSH2 0x1CC6 DUP4 PUSH2 0x1C6D JUMP JUMPDEST SWAP3 POP PUSH1 0x20 DUP11 ADD SWAP10 POP POP PUSH1 0x1 DUP2 ADD SWAP1 POP PUSH2 0x1CA2 JUMP JUMPDEST POP DUP3 SWAP8 POP DUP8 SWAP6 POP POP POP POP POP POP SWAP3 SWAP2 POP POP JUMP JUMPDEST PUSH0 PUSH1 0x20 DUP3 ADD SWAP1 POP DUP2 DUP2 SUB PUSH0 DUP4 ADD MSTORE PUSH2 0x1D04 DUP2 DUP5 PUSH2 0x1C79 JUMP JUMPDEST SWAP1 POP SWAP3 SWAP2 POP POP JUMP JUMPDEST PUSH0 DUP1 REVERT JUMPDEST PUSH0 DUP1 REVERT JUMPDEST PUSH32 0x4E487B7100000000000000000000000000000000000000000000000000000000 PUSH0 MSTORE PUSH1 0x41 PUSH1 0x4 MSTORE PUSH1 0x24 PUSH0 REVERT JUMPDEST PUSH2 0x1D4A DUP3 PUSH2 0x19C3 JUMP JUMPDEST DUP2 ADD DUP2 DUP2 LT PUSH8 0xFFFFFFFFFFFFFFFF DUP3 GT OR ISZERO PUSH2 0x1D69 JUMPI PUSH2 0x1D68 PUSH2 0x1D14 JUMP JUMPDEST JUMPDEST DUP1 PUSH1 0x40 MSTORE POP POP POP JUMP JUMPDEST PUSH0 PUSH2 0x1D7B PUSH2 0x192C JUMP JUMPDEST SWAP1 POP PUSH2 0x1D87 DUP3 DUP3 PUSH2 0x1D41 JUMP JUMPDEST SWAP2 SWAP1 POP JUMP JUMPDEST PUSH0 PUSH8 0xFFFFFFFFFFFFFFFF DUP3 GT ISZERO PUSH2 0x1DA6 JUMPI PUSH2 0x1DA5 PUSH2 0x1D14 JUMP JUMPDEST JUMPDEST PUSH2 0x1DAF DUP3 PUSH2 0x19C3 JUMP JUMPDEST SWAP1 POP PUSH1 0x20 DUP2 ADD SWAP1 POP SWAP2 SWAP1 POP JUMP JUMPDEST DUP3 DUP2 DUP4 CALLDATACOPY PUSH0 DUP4 DUP4 ADD MSTORE POP POP POP JUMP JUMPDEST PUSH0 PUSH2 0x1DDC PUSH2 0x1DD7 DUP5 PUSH2 0x1D8C JUMP JUMPDEST PUSH2 0x1D72 JUMP JUMPDEST SWAP1 POP DUP3 DUP2 MSTORE PUSH1 0x20 DUP2 ADD DUP5 DUP5 DUP5 ADD GT ISZERO PUSH2 0x1DF8 JUMPI PUSH2 0x1DF7 PUSH2 0x1D10 JUMP JUMPDEST JUMPDEST PUSH2 0x1E03 DUP5 DUP3 DUP6 PUSH2 0x1DBC JUMP JUMPDEST POP SWAP4 SWAP3 POP POP POP JUMP JUMPDEST PUSH0 DUP3 PUSH1 0x1F DUP4 ADD SLT PUSH2 0x1E1F JUMPI PUSH2 0x1E1E PUSH2 0x1D0C JUMP JUMPDEST JUMPDEST DUP2 CALLDATALOAD PUSH2 0x1E2F DUP5 DUP3 PUSH1 0x20 DUP7 ADD PUSH2 0x1DCA JUMP JUMPDEST SWAP2 POP POP SWAP3 SWAP2 POP POP JUMP JUMPDEST PUSH0 PUSH1 0x20 DUP3 DUP5 SUB SLT ISZERO PUSH2 0x1E4D JUMPI PUSH2 0x1E4C PUSH2 0x1935 JUMP JUMPDEST JUMPDEST PUSH0 DUP3 ADD CALLDATALOAD PUSH8 0xFFFFFFFFFFFFFFFF DUP2 GT ISZERO PUSH2 0x1E6A JUMPI PUSH2 0x1E69 PUSH2 0x1939 JUMP JUMPDEST JUMPDEST PUSH2 0x1E76 DUP5 DUP3 DUP6 ADD PUSH2 0x1E0B JUMP JUMPDEST SWAP2 POP POP SWAP3 SWAP2 POP POP JUMP JUMPDEST PUSH0 PUSH1 0x20 DUP3 ADD SWAP1 POP PUSH2 0x1E92 PUSH0 DUP4 ADD DUP5 PUSH2 0x1A0B JUMP JUMPDEST SWAP3 SWAP2 POP POP JUMP JUMPDEST PUSH0 PUSH1 0xA0 DUP4 ADD PUSH0 DUP4 ADD MLOAD DUP5 DUP3 SUB PUSH0 DUP7 ADD MSTORE PUSH2 0x1EB2 DUP3 DUP3 PUSH2 0x1AD7 JUMP JUMPDEST SWAP2 POP POP PUSH1 0x20 DUP4 ADD MLOAD PUSH2 0x1EC7 PUSH1 0x20 DUP7 ADD DUP3 PUSH2 0x1B0F JUMP JUMPDEST POP PUSH1 0x40 DUP4 ADD MLOAD PUSH2 0x1EDA PUSH1 0x40 DUP7 ADD DUP3 PUSH2 0x1B0F JUMP JUMPDEST POP PUSH1 0x60 DUP4 ADD MLOAD DUP5 DUP3 SUB PUSH1 0x60 DUP7 ADD MSTORE PUSH2 0x1EF2 DUP3 DUP3 PUSH2 0x1AD7 JUMP JUMPDEST SWAP2 POP POP PUSH1 0x80 DUP4 ADD MLOAD DUP5 DUP3 SUB PUSH1 0x80 DUP7 ADD MSTORE PUSH2 0x1F0C DUP3 DUP3 PUSH2 0x1B66 JUMP JUMPDEST SWAP2 POP POP DUP1 SWAP2 POP POP SWAP3 SWAP2 POP POP JUMP JUMPDEST PUSH0 PUSH1 0x20 DUP3 ADD SWAP1 POP DUP2 DUP2 SUB PUSH0 DUP4 ADD MSTORE PUSH2 0x1F31 DUP2 DUP5 PUSH2 0x1E98 JUMP JUMPDEST SWAP1 POP SWAP3 SWAP2 POP POP JUMP JUMPDEST PUSH0 PUSH8 0xFFFFFFFFFFFFFFFF DUP3 GT ISZERO PUSH2 0x1F53 JUMPI PUSH2 0x1F52 PUSH2 0x1D14 JUMP JUMPDEST JUMPDEST PUSH1 0x20 DUP3 MUL SWAP1 POP PUSH1 0x20 DUP2 ADD SWAP1 POP SWAP2 SWAP1 POP JUMP JUMPDEST PUSH0 DUP1 REVERT JUMPDEST PUSH0 PUSH2 0x1F7A PUSH2 0x1F75 DUP5 PUSH2 0x1F39 JUMP JUMPDEST PUSH2 0x1D72 JUMP JUMPDEST SWAP1 POP DUP1 DUP4 DUP3 MSTORE PUSH1 0x20 DUP3 ADD SWAP1 POP PUSH1 0x20 DUP5 MUL DUP4 ADD DUP6 DUP2 GT ISZERO PUSH2 0x1F9D JUMPI PUSH2 0x1F9C PUSH2 0x1F64 JUMP JUMPDEST JUMPDEST DUP4 JUMPDEST DUP2 DUP2 LT ISZERO PUSH2 0x1FE4 JUMPI DUP1 CALLDATALOAD PUSH8 0xFFFFFFFFFFFFFFFF DUP2 GT ISZERO PUSH2 0x1FC2 JUMPI PUSH2 0x1FC1 PUSH2 0x1D0C JUMP JUMPDEST JUMPDEST DUP1 DUP7 ADD PUSH2 0x1FCF DUP10 DUP3 PUSH2 0x1E0B JUMP JUMPDEST DUP6 MSTORE PUSH1 0x20 DUP6 ADD SWAP5 POP POP POP PUSH1 0x20 DUP2 ADD SWAP1 POP PUSH2 0x1F9F JUMP JUMPDEST POP POP POP SWAP4 SWAP3 POP POP POP JUMP JUMPDEST PUSH0 DUP3 PUSH1 0x1F DUP4 ADD SLT PUSH2 0x2002 JUMPI PUSH2 0x2001 PUSH2 0x1D0C JUMP JUMPDEST JUMPDEST DUP2 CALLDATALOAD PUSH2 0x2012 DUP5 DUP3 PUSH1 0x20 DUP7 ADD PUSH2 0x1F68 JUMP JUMPDEST SWAP2 POP POP SWAP3 SWAP2 POP POP JUMP JUMPDEST PUSH0 DUP1 PUSH0 DUP1 PUSH1 0x80 DUP6 DUP8 SUB SLT ISZERO PUSH2 0x2033 JUMPI PUSH2 0x2032 PUSH2 0x1935 JUMP JUMPDEST JUMPDEST PUSH0 DUP6 ADD CALLDATALOAD PUSH8 0xFFFFFFFFFFFFFFFF DUP2 GT ISZERO PUSH2 0x2050 JUMPI PUSH2 0x204F PUSH2 0x1939 JUMP JUMPDEST JUMPDEST PUSH2 0x205C DUP8 DUP3 DUP9 ADD PUSH2 0x1E0B JUMP JUMPDEST SWAP5 POP POP PUSH1 0x20 PUSH2 0x206D DUP8 DUP3 DUP9 ADD PUSH2 0x195C JUMP JUMPDEST SWAP4 POP POP PUSH1 0x40 PUSH2 0x207E DUP8 DUP3 DUP9 ADD PUSH2 0x195C JUMP JUMPDEST SWAP3 POP POP PUSH1 0x60 DUP6 ADD CALLDATALOAD PUSH8 0xFFFFFFFFFFFFFFFF DUP2 GT ISZERO PUSH2 0x209F JUMPI PUSH2 0x209E PUSH2 0x1939 JUMP JUMPDEST JUMPDEST PUSH2 0x20AB DUP8 DUP3 DUP9 ADD PUSH2 0x1FEE JUMP JUMPDEST SWAP2 POP POP SWAP3 SWAP6 SWAP2 SWAP5 POP SWAP3 POP JUMP JUMPDEST PUSH0 DUP2 MLOAD SWAP1 POP SWAP2 SWAP1 POP JUMP JUMPDEST PUSH0 DUP3 DUP3 MSTORE PUSH1 0x20 DUP3 ADD SWAP1 POP SWAP3 SWAP2 POP POP JUMP JUMPDEST PUSH0 DUP2 SWAP1 POP PUSH1 0x20 DUP3 ADD SWAP1 POP SWAP2 SWAP1 POP JUMP JUMPDEST PUSH0 PUSH2 0x20EB DUP4 DUP4 PUSH2 0x1B0F JUMP JUMPDEST PUSH1 0x20 DUP4 ADD SWAP1 POP SWAP3 SWAP2 POP POP JUMP JUMPDEST PUSH0 PUSH1 0x20 DUP3 ADD SWAP1 POP SWAP2 SWAP1 POP JUMP JUMPDEST PUSH0 PUSH2 0x210D DUP3 PUSH2 0x20B7 JUMP JUMPDEST PUSH2 0x2117 DUP2 DUP6 PUSH2 0x20C1 JUMP JUMPDEST SWAP4 POP PUSH2 0x2122 DUP4 PUSH2 0x20D1 JUMP JUMPDEST DUP1 PUSH0 JUMPDEST DUP4 DUP2 LT ISZERO PUSH2 0x2152 JUMPI DUP2 MLOAD PUSH2 0x2139 DUP9 DUP3 PUSH2 0x20E0 JUMP JUMPDEST SWAP8 POP PUSH2 0x2144 DUP4 PUSH2 0x20F7 JUMP JUMPDEST SWAP3 POP POP PUSH1 0x1 DUP2 ADD SWAP1 POP PUSH2 0x2125 JUMP JUMPDEST POP DUP6 SWAP4 POP POP POP POP SWAP3 SWAP2 POP POP JUMP JUMPDEST PUSH0 PUSH1 0x20 DUP3 ADD SWAP1 POP DUP2 DUP2 SUB PUSH0 DUP4 ADD MSTORE PUSH2 0x2177 DUP2 DUP5 PUSH2 0x2103 JUMP JUMPDEST SWAP1 POP SWAP3 SWAP2 POP POP JUMP JUMPDEST PUSH32 0x4E487B7100000000000000000000000000000000000000000000000000000000 PUSH0 MSTORE PUSH1 0x22 PUSH1 0x4 MSTORE PUSH1 0x24 PUSH0 REVERT JUMPDEST PUSH0 PUSH1 0x2 DUP3 DIV SWAP1 POP PUSH1 0x1 DUP3 AND DUP1 PUSH2 0x21C3 JUMPI PUSH1 0x7F DUP3 AND SWAP2 POP JUMPDEST PUSH1 0x20 DUP3 LT DUP2 SUB PUSH2 0x21D6 JUMPI PUSH2 0x21D5 PUSH2 0x217F JUMP JUMPDEST JUMPDEST POP SWAP2 SWAP1 POP JUMP JUMPDEST PUSH32 0x4E487B7100000000000000000000000000000000000000000000000000000000 PUSH0 MSTORE PUSH1 0x11 PUSH1 0x4 MSTORE PUSH1 0x24 PUSH0 REVERT JUMPDEST PUSH0 PUSH2 0x2213 DUP3 PUSH2 0x193D JUMP JUMPDEST SWAP2 POP PUSH2 0x221E DUP4 PUSH2 0x193D JUMP JUMPDEST SWAP3 POP DUP3 DUP3 ADD SWAP1 POP DUP1 DUP3 GT ISZERO PUSH2 0x2236 JUMPI PUSH2 0x2235 PUSH2 0x21DC JUMP JUMPDEST JUMPDEST SWAP3 SWAP2 POP POP JUMP JUMPDEST PUSH32 0x4E487B7100000000000000000000000000000000000000000000000000000000 PUSH0 MSTORE PUSH1 0x32 PUSH1 0x4 MSTORE PUSH1 0x24 PUSH0 REVERT JUMPDEST PUSH0 DUP2 SWAP1 POP SWAP3 SWAP2 POP POP JUMP JUMPDEST PUSH0 PUSH2 0x227D DUP3 PUSH2 0x199B JUMP JUMPDEST PUSH2 0x2287 DUP2 DUP6 PUSH2 0x2269 JUMP JUMPDEST SWAP4 POP PUSH2 0x2297 DUP2 DUP6 PUSH1 0x20 DUP7 ADD PUSH2 0x19B5 JUMP JUMPDEST DUP1 DUP5 ADD SWAP2 POP POP SWAP3 SWAP2 POP POP JUMP JUMPDEST PUSH0 PUSH2 0x22AE DUP3 DUP5 PUSH2 0x2273 JUMP JUMPDEST SWAP2 POP DUP2 SWAP1 POP SWAP3 SWAP2 POP POP JUMP JUMPDEST PUSH32 0x4E6F2073747564656E7420776974682074686520676976656E206E616D650000 PUSH0 DUP3 ADD MSTORE POP JUMP JUMPDEST PUSH0 PUSH2 0x22ED PUSH1 0x1E DUP4 PUSH2 0x19A5 JUMP JUMPDEST SWAP2 POP PUSH2 0x22F8 DUP3 PUSH2 0x22B9 JUMP JUMPDEST PUSH1 0x20 DUP3 ADD SWAP1 POP SWAP2 SWAP1 POP JUMP JUMPDEST PUSH0 PUSH1 0x20 DUP3 ADD SWAP1 POP DUP2 DUP2 SUB PUSH0 DUP4 ADD MSTORE PUSH2 0x231A DUP2 PUSH2 0x22E1 JUMP JUMPDEST SWAP1 POP SWAP2 SWAP1 POP JUMP JUMPDEST PUSH0 PUSH2 0x232B DUP3 PUSH2 0x193D JUMP JUMPDEST SWAP2 POP PUSH2 0x2336 DUP4 PUSH2 0x193D JUMP JUMPDEST SWAP3 POP DUP3 DUP3 SUB SWAP1 POP DUP2 DUP2 GT ISZERO PUSH2 0x234E JUMPI PUSH2 0x234D PUSH2 0x21DC JUMP JUMPDEST JUMPDEST SWAP3 SWAP2 POP POP JUMP JUMPDEST PUSH0 DUP2 SWAP1 POP SWAP3 SWAP2 POP POP JUMP JUMPDEST PUSH0 DUP2 SWAP1 POP DUP2 PUSH0 MSTORE PUSH1 0x20 PUSH0 KECCAK256 SWAP1 POP SWAP2 SWAP1 POP JUMP JUMPDEST PUSH0 DUP2 SLOAD PUSH2 0x237C DUP2 PUSH2 0x21AC JUMP JUMPDEST PUSH2 0x2386 DUP2 DUP7 PUSH2 0x2354 JUMP JUMPDEST SWAP5 POP PUSH1 0x1 DUP3 AND PUSH0 DUP2 EQ PUSH2 0x23A0 JUMPI PUSH1 0x1 DUP2 EQ PUSH2 0x23B5 JUMPI PUSH2 0x23E7 JUMP JUMPDEST PUSH1 0xFF NOT DUP4 AND DUP7 MSTORE DUP2 ISZERO ISZERO DUP3 MUL DUP7 ADD SWAP4 POP PUSH2 0x23E7 JUMP JUMPDEST PUSH2 0x23BE DUP6 PUSH2 0x235E JUMP JUMPDEST PUSH0 JUMPDEST DUP4 DUP2 LT ISZERO PUSH2 0x23DF JUMPI DUP2 SLOAD DUP2 DUP10 ADD MSTORE PUSH1 0x1 DUP3 ADD SWAP2 POP PUSH1 0x20 DUP2 ADD SWAP1 POP PUSH2 0x23C0 JUMP JUMPDEST DUP4 DUP9 ADD SWAP6 POP POP POP JUMPDEST POP POP POP SWAP3 SWAP2 POP POP JUMP JUMPDEST PUSH0 PUSH2 0x23FB DUP3 DUP5 PUSH2 0x2370 JUMP JUMPDEST SWAP2 POP DUP2 SWAP1 POP SWAP3 SWAP2 POP POP JUMP JUMPDEST PUSH0 PUSH2 0x2410 DUP3 PUSH2 0x193D JUMP JUMPDEST SWAP2 POP PUSH32 0xFFFFFFFFFFFFFFFFFFFFFFFFFFFFFFFFFFFFFFFFFFFFFFFFFFFFFFFFFFFFFFFF DUP3 SUB PUSH2 0x2442 JUMPI PUSH2 0x2441 PUSH2 0x21DC JUMP JUMPDEST JUMPDEST PUSH1 0x1 DUP3 ADD SWAP1 POP SWAP2 SWAP1 POP JUMP JUMPDEST PUSH32 0x4E6F2073747564656E7420776974682074686520676976656E206E756D626572 PUSH0 DUP3 ADD MSTORE POP JUMP JUMPDEST PUSH0 PUSH2 0x2481 PUSH1 0x20 DUP4 PUSH2 0x19A5 JUMP JUMPDEST SWAP2 POP PUSH2 0x248C DUP3 PUSH2 0x244D JUMP JUMPDEST PUSH1 0x20 DUP3 ADD SWAP1 POP SWAP2 SWAP1 POP JUMP JUMPDEST PUSH0 PUSH1 0x20 DUP3 ADD SWAP1 POP DUP2 DUP2 SUB PUSH0 DUP4 ADD MSTORE PUSH2 0x24AE DUP2 PUSH2 0x2475 JUMP JUMPDEST SWAP1 POP SWAP2 SWAP1 POP JUMP JUMPDEST PUSH32 0x53747564656E7420616C72656164792065786973747300000000000000000000 PUSH0 DUP3 ADD MSTORE POP JUMP JUMPDEST PUSH0 PUSH2 0x24E9 PUSH1 0x16 DUP4 PUSH2 0x19A5 JUMP JUMPDEST SWAP2 POP PUSH2 0x24F4 DUP3 PUSH2 0x24B5 JUMP JUMPDEST PUSH1 0x20 DUP3 ADD SWAP1 POP SWAP2 SWAP1 POP JUMP JUMPDEST PUSH0 PUSH1 0x20 DUP3 ADD SWAP1 POP DUP2 DUP2 SUB PUSH0 DUP4 ADD MSTORE PUSH2 0x2516 DUP2 PUSH2 0x24DD JUMP JUMPDEST SWAP1 POP SWAP2 SWAP1 POP JUMP JUMPDEST PUSH0 DUP2 SWAP1 POP DUP2 PUSH0 MSTORE PUSH1 0x20 PUSH0 KECCAK256 SWAP1 POP SWAP2 SWAP1 POP JUMP JUMPDEST PUSH0 PUSH1 0x20 PUSH1 0x1F DUP4 ADD DIV SWAP1 POP SWAP2 SWAP1 POP JUMP JUMPDEST PUSH0 DUP3 DUP3 SHL SWAP1 POP SWAP3 SWAP2 POP POP JUMP JUMPDEST PUSH0 PUSH1 0x8 DUP4 MUL PUSH2 0x2579 PUSH32 0xFFFFFFFFFFFFFFFFFFFFFFFFFFFFFFFFFFFFFFFFFFFFFFFFFFFFFFFFFFFFFFFF DUP3 PUSH2 0x253E JUMP JUMPDEST PUSH2 0x2583 DUP7 DUP4 PUSH2 0x253E JUMP JUMPDEST SWAP6 POP DUP1 NOT DUP5 AND SWAP4 POP DUP1 DUP7 AND DUP5 OR SWAP3 POP POP POP SWAP4 SWAP3 POP POP POP JUMP JUMPDEST PUSH0 DUP2 SWAP1 POP SWAP2 SWAP1 POP JUMP JUMPDEST PUSH0 PUSH2 0x25BE PUSH2 0x25B9 PUSH2 0x25B4 DUP5 PUSH2 0x193D JUMP JUMPDEST PUSH2 0x259B JUMP JUMPDEST PUSH2 0x193D JUMP JUMPDEST SWAP1 POP SWAP2 SWAP1 POP JUMP JUMPDEST PUSH0 DUP2 SWAP1 POP SWAP2 SWAP1 POP JUMP JUMPDEST PUSH2 0x25D7 DUP4 PUSH2 0x25A4 JUMP JUMPDEST PUSH2 0x25EB PUSH2 0x25E3 DUP3 PUSH2 0x25C5 JUMP JUMPDEST DUP5 DUP5 SLOAD PUSH2 0x254A JUMP JUMPDEST DUP3 SSTORE POP POP POP POP JUMP JUMPDEST PUSH0 SWAP1 JUMP JUMPDEST PUSH2 0x25FF PUSH2 0x25F3 JUMP JUMPDEST PUSH2 0x260A DUP2 DUP5 DUP5 PUSH2 0x25CE JUMP JUMPDEST POP POP POP JUMP JUMPDEST JUMPDEST DUP2 DUP2 LT ISZERO PUSH2 0x262D JUMPI PUSH2 0x2622 PUSH0 DUP3 PUSH2 0x25F7 JUMP JUMPDEST PUSH1 0x1 DUP2 ADD SWAP1 POP PUSH2 0x2610 JUMP JUMPDEST POP POP JUMP JUMPDEST PUSH1 0x1F DUP3 GT ISZERO PUSH2 0x2672 JUMPI PUSH2 0x2643 DUP2 PUSH2 0x251D JUMP JUMPDEST PUSH2 0x264C DUP5 PUSH2 0x252F JUMP JUMPDEST DUP2 ADD PUSH1 0x20 DUP6 LT ISZERO PUSH2 0x265B JUMPI DUP2 SWAP1 POP JUMPDEST PUSH2 0x266F PUSH2 0x2667 DUP6 PUSH2 0x252F JUMP JUMPDEST DUP4 ADD DUP3 PUSH2 0x260F JUMP JUMPDEST POP POP JUMPDEST POP POP POP JUMP JUMPDEST PUSH0 DUP3 DUP3 SHR SWAP1 POP SWAP3 SWAP2 POP POP JUMP JUMPDEST PUSH0 PUSH2 0x2692 PUSH0 NOT DUP5 PUSH1 0x8 MUL PUSH2 0x2677 JUMP JUMPDEST NOT DUP1 DUP4 AND SWAP2 POP POP SWAP3 SWAP2 POP POP JUMP JUMPDEST PUSH0 PUSH2 0x26AA DUP4 DUP4 PUSH2 0x2683 JUMP JUMPDEST SWAP2 POP DUP3 PUSH1 0x2 MUL DUP3 OR SWAP1 POP SWAP3 SWAP2 POP POP JUMP JUMPDEST PUSH2 0x26C3 DUP3 PUSH2 0x199B JUMP JUMPDEST PUSH8 0xFFFFFFFFFFFFFFFF DUP2 GT ISZERO PUSH2 0x26DC JUMPI PUSH2 0x26DB PUSH2 0x1D14 JUMP JUMPDEST JUMPDEST PUSH2 0x26E6 DUP3 SLOAD PUSH2 0x21AC JUMP JUMPDEST PUSH2 0x26F1 DUP3 DUP3 DUP6 PUSH2 0x2631 JUMP JUMPDEST PUSH0 PUSH1 0x20 SWAP1 POP PUSH1 0x1F DUP4 GT PUSH1 0x1 DUP2 EQ PUSH2 0x2722 JUMPI PUSH0 DUP5 ISZERO PUSH2 0x2710 JUMPI DUP3 DUP8 ADD MLOAD SWAP1 POP JUMPDEST PUSH2 0x271A DUP6 DUP3 PUSH2 0x269F JUMP JUMPDEST DUP7 SSTORE POP PUSH2 0x2781 JUMP JUMPDEST PUSH1 0x1F NOT DUP5 AND PUSH2 0x2730 DUP7 PUSH2 0x251D JUMP JUMPDEST PUSH0 JUMPDEST DUP3 DUP2 LT ISZERO PUSH2 0x2757 JUMPI DUP5 DUP10 ADD MLOAD DUP3 SSTORE PUSH1 0x1 DUP3 ADD SWAP2 POP PUSH1 0x20 DUP6 ADD SWAP5 POP PUSH1 0x20 DUP2 ADD SWAP1 POP PUSH2 0x2732 JUMP JUMPDEST DUP7 DUP4 LT ISZERO PUSH2 0x2774 JUMPI DUP5 DUP10 ADD MLOAD PUSH2 0x2770 PUSH1 0x1F DUP10 AND DUP3 PUSH2 0x2683 JUMP JUMPDEST DUP4 SSTORE POP JUMPDEST PUSH1 0x1 PUSH1 0x2 DUP9 MUL ADD DUP9 SSTORE POP POP POP JUMPDEST POP POP POP POP POP POP JUMP JUMPDEST PUSH32 0x4E6F2073747564656E747320617661696C61626C650000000000000000000000 PUSH0 DUP3 ADD MSTORE POP JUMP JUMPDEST PUSH0 PUSH2 0x27BD PUSH1 0x15 DUP4 PUSH2 0x19A5 JUMP JUMPDEST SWAP2 POP PUSH2 0x27C8 DUP3 PUSH2 0x2789 JUMP JUMPDEST PUSH1 0x20 DUP3 ADD SWAP1 POP SWAP2 SWAP1 POP JUMP JUMPDEST PUSH0 PUSH1 0x20 DUP3 ADD SWAP1 POP DUP2 DUP2 SUB PUSH0 DUP4 ADD MSTORE PUSH2 0x27EA DUP2 PUSH2 0x27B1 JUMP JUMPDEST SWAP1 POP SWAP2 SWAP1 POP JUMP JUMPDEST PUSH32 0x4E487B7100000000000000000000000000000000000000000000000000000000 PUSH0 MSTORE PUSH1 0x12 PUSH1 0x4 MSTORE PUSH1 0x24 PUSH0 REVERT JUMPDEST PUSH0 PUSH2 0x2828 DUP3 PUSH2 0x193D JUMP JUMPDEST SWAP2 POP PUSH2 0x2833 DUP4 PUSH2 0x193D JUMP JUMPDEST SWAP3 POP DUP3 PUSH2 0x2843 JUMPI PUSH2 0x2842 PUSH2 0x27F1 JUMP JUMPDEST JUMPDEST DUP3 DUP3 DIV SWAP1 POP SWAP3 SWAP2 POP POP JUMP INVALID LOG2 PUSH5 0x6970667358 0x22 SLT KECCAK256 0xE9 SWAP13 0xC6 ADDRESS SLT PC 0xA9 0x4B 0xFB 0x26 ORIGIN PUSH13 0x121FEA694542F0B944F48C0A47 PUSH12 0xABC6407E8C5264736F6C6343 STOP ADDMOD BYTE STOP CALLER "
				},
				"gasEstimates": {
					"creation": {
						"codeDepositCost": "2074400",
						"executionCost": "2205",
						"totalCost": "2076605"
					},
					"external": {
						"addStudent(string,uint256,uint256,string[])": "infinite",
						"evaluateTeacher()": "infinite",
						"findStudentByName(string)": "infinite",
						"findStudentByNumber(uint256)": "infinite",
						"findStudentScoreByName(string)": "infinite",
						"getAllStudents()": "infinite",
						"getAllStudentsNumber()": "infinite",
						"getFStudents()": "infinite",
						"getSStudents()": "infinite",
						"getScoreAVG()": "infinite",
						"students(uint256)": "infinite"
					},
					"internal": {
						"calculateGrade(uint256)": "infinite"
					}
				},
				"methodIdentifiers": {
					"addStudent(string,uint256,uint256,string[])": "a4545c0d",
					"evaluateTeacher()": "27f7c259",
					"findStudentByName(string)": "d73ce6c1",
					"findStudentByNumber(uint256)": "a13a1c13",
					"findStudentScoreByName(string)": "416c632b",
					"getAllStudents()": "e9e30927",
					"getAllStudentsNumber()": "ec08df36",
					"getFStudents()": "98463c74",
					"getSStudents()": "3c51cdca",
					"getScoreAVG()": "f8c8dee8",
					"students(uint256)": "06ead22e"
				}
			},
			"storageLayout": {
				"storage": [
					{
						"astId": 17,
						"contract": "codingtest/refactor_codingtest/codingtest_241231.sol:TEACHER",
						"label": "students",
						"offset": 0,
						"slot": "0",
						"type": "t_array(t_struct(STUDENT)13_storage)dyn_storage"
					},
					{
						"astId": 21,
						"contract": "codingtest/refactor_codingtest/codingtest_241231.sol:TEACHER",
						"label": "studentNameIndex",
						"offset": 0,
						"slot": "1",
						"type": "t_mapping(t_string_memory_ptr,t_uint256)"
					}
				],
				"types": {
					"t_array(t_string_storage)dyn_storage": {
						"base": "t_string_storage",
						"encoding": "dynamic_array",
						"label": "string[]",
						"numberOfBytes": "32"
					},
					"t_array(t_struct(STUDENT)13_storage)dyn_storage": {
						"base": "t_struct(STUDENT)13_storage",
						"encoding": "dynamic_array",
						"label": "struct TEACHER.STUDENT[]",
						"numberOfBytes": "32"
					},
					"t_mapping(t_string_memory_ptr,t_uint256)": {
						"encoding": "mapping",
						"key": "t_string_memory_ptr",
						"label": "mapping(string => uint256)",
						"numberOfBytes": "32",
						"value": "t_uint256"
					},
					"t_string_memory_ptr": {
						"encoding": "bytes",
						"label": "string",
						"numberOfBytes": "32"
					},
					"t_string_storage": {
						"encoding": "bytes",
						"label": "string",
						"numberOfBytes": "32"
					},
					"t_struct(STUDENT)13_storage": {
						"encoding": "inplace",
						"label": "struct TEACHER.STUDENT",
						"members": [
							{
								"astId": 3,
								"contract": "codingtest/refactor_codingtest/codingtest_241231.sol:TEACHER",
								"label": "name",
								"offset": 0,
								"slot": "0",
								"type": "t_string_storage"
							},
							{
								"astId": 5,
								"contract": "codingtest/refactor_codingtest/codingtest_241231.sol:TEACHER",
								"label": "number",
								"offset": 0,
								"slot": "1",
								"type": "t_uint256"
							},
							{
								"astId": 7,
								"contract": "codingtest/refactor_codingtest/codingtest_241231.sol:TEACHER",
								"label": "score",
								"offset": 0,
								"slot": "2",
								"type": "t_uint256"
							},
							{
								"astId": 9,
								"contract": "codingtest/refactor_codingtest/codingtest_241231.sol:TEACHER",
								"label": "grade",
								"offset": 0,
								"slot": "3",
								"type": "t_string_storage"
							},
							{
								"astId": 12,
								"contract": "codingtest/refactor_codingtest/codingtest_241231.sol:TEACHER",
								"label": "classes",
								"offset": 0,
								"slot": "4",
								"type": "t_array(t_string_storage)dyn_storage"
							}
						],
						"numberOfBytes": "160"
					},
					"t_uint256": {
						"encoding": "inplace",
						"label": "uint256",
						"numberOfBytes": "32"
					}
				}
			},
			"userdoc": {
				"kind": "user",
				"methods": {},
				"version": 1
			}
		}
	}
}