{
	"solidity100/solidity10_241224.sol": {
		"Q7": {
			"abi": [
				{
					"inputs": [],
					"name": "arrayFillToFive",
					"outputs": [],
					"stateMutability": "nonpayable",
					"type": "function"
				},
				{
					"inputs": [],
					"name": "getNumbers",
					"outputs": [
						{
							"internalType": "uint256",
							"name": "result",
							"type": "uint256"
						}
					],
					"stateMutability": "view",
					"type": "function"
				}
			],
			"devdoc": {
				"kind": "dev",
				"methods": {},
				"version": 1
			},
			"evm": {
				"assembly": "    /* \"solidity100/solidity10_241224.sol\":4007:4605  contract Q7 {... */\n  mstore(0x40, 0x80)\n  callvalue\n  dup1\n  iszero\n  tag_1\n  jumpi\n  0x00\n  dup1\n  revert\ntag_1:\n  pop\n  dataSize(sub_0)\n  dup1\n  dataOffset(sub_0)\n  0x00\n  codecopy\n  0x00\n  return\nstop\n\nsub_0: assembly {\n        /* \"solidity100/solidity10_241224.sol\":4007:4605  contract Q7 {... */\n      mstore(0x40, 0x80)\n      callvalue\n      dup1\n      iszero\n      tag_1\n      jumpi\n      0x00\n      dup1\n      revert\n    tag_1:\n      pop\n      jumpi(tag_2, lt(calldatasize, 0x04))\n      shr(0xe0, calldataload(0x00))\n      dup1\n      0x89f915f6\n      eq\n      tag_3\n      jumpi\n      dup1\n      0xa9bd768a\n      eq\n      tag_4\n      jumpi\n    tag_2:\n      0x00\n      dup1\n      revert\n        /* \"solidity100/solidity10_241224.sol\":4415:4603  function getNumbers() public view returns (uint256 result) {... */\n    tag_3:\n      tag_5\n      tag_6\n      jump\t// in\n    tag_5:\n      mload(0x40)\n      tag_7\n      swap2\n      swap1\n      tag_8\n      jump\t// in\n    tag_7:\n      mload(0x40)\n      dup1\n      swap2\n      sub\n      swap1\n      return\n        /* \"solidity100/solidity10_241224.sol\":4286:4409  function arrayFillToFive() public {... */\n    tag_4:\n      tag_9\n      tag_10\n      jump\t// in\n    tag_9:\n      stop\n        /* \"solidity100/solidity10_241224.sol\":4415:4603  function getNumbers() public view returns (uint256 result) {... */\n    tag_6:\n        /* \"solidity100/solidity10_241224.sol\":4458:4472  uint256 result */\n      0x00\n        /* \"solidity100/solidity10_241224.sol\":4489:4498  uint256 i */\n      dup1\n        /* \"solidity100/solidity10_241224.sol\":4501:4502  0 */\n      0x00\n        /* \"solidity100/solidity10_241224.sol\":4489:4502  uint256 i = 0 */\n      swap1\n      pop\n        /* \"solidity100/solidity10_241224.sol\":4484:4574  for (uint256 i = 0; i < numbers.length; i++) {... */\n    tag_12:\n        /* \"solidity100/solidity10_241224.sol\":4508:4515  numbers */\n      0x00\n        /* \"solidity100/solidity10_241224.sol\":4508:4522  numbers.length */\n      dup1\n      sload\n      swap1\n      pop\n        /* \"solidity100/solidity10_241224.sol\":4504:4505  i */\n      dup2\n        /* \"solidity100/solidity10_241224.sol\":4504:4522  i < numbers.length */\n      lt\n        /* \"solidity100/solidity10_241224.sol\":4484:4574  for (uint256 i = 0; i < numbers.length; i++) {... */\n      iszero\n      tag_13\n      jumpi\n        /* \"solidity100/solidity10_241224.sol\":4553:4560  numbers */\n      0x00\n        /* \"solidity100/solidity10_241224.sol\":4561:4562  i */\n      dup2\n        /* \"solidity100/solidity10_241224.sol\":4553:4563  numbers[i] */\n      dup2\n      sload\n      dup2\n      lt\n      tag_15\n      jumpi\n      tag_16\n      tag_17\n      jump\t// in\n    tag_16:\n    tag_15:\n      swap1\n      0x00\n      mstore\n      keccak256(0x00, 0x20)\n      add\n      sload\n        /* \"solidity100/solidity10_241224.sol\":4543:4563  result += numbers[i] */\n      dup3\n      tag_19\n      swap2\n      swap1\n      tag_20\n      jump\t// in\n    tag_19:\n      swap2\n      pop\n        /* \"solidity100/solidity10_241224.sol\":4524:4527  i++ */\n      dup1\n      dup1\n      0x01\n      add\n      swap2\n      pop\n      pop\n        /* \"solidity100/solidity10_241224.sol\":4484:4574  for (uint256 i = 0; i < numbers.length; i++) {... */\n      jump(tag_12)\n    tag_13:\n      pop\n        /* \"solidity100/solidity10_241224.sol\":4415:4603  function getNumbers() public view returns (uint256 result) {... */\n      swap1\n      jump\t// out\n        /* \"solidity100/solidity10_241224.sol\":4286:4409  function arrayFillToFive() public {... */\n    tag_10:\n        /* \"solidity100/solidity10_241224.sol\":4335:4344  uint256 i */\n      0x00\n        /* \"solidity100/solidity10_241224.sol\":4330:4403  for (uint256 i = 0; i <= 5; i++) {... */\n    tag_22:\n        /* \"solidity100/solidity10_241224.sol\":4355:4356  5 */\n      0x05\n        /* \"solidity100/solidity10_241224.sol\":4350:4351  i */\n      dup2\n        /* \"solidity100/solidity10_241224.sol\":4350:4356  i <= 5 */\n      gt\n        /* \"solidity100/solidity10_241224.sol\":4330:4403  for (uint256 i = 0; i <= 5; i++) {... */\n      tag_23\n      jumpi\n        /* \"solidity100/solidity10_241224.sol\":4377:4384  numbers */\n      0x00\n        /* \"solidity100/solidity10_241224.sol\":4390:4391  i */\n      dup2\n        /* \"solidity100/solidity10_241224.sol\":4377:4392  numbers.push(i) */\n      swap1\n      dup1\n      0x01\n      dup2\n      sload\n      add\n      dup1\n      dup3\n      sstore\n      dup1\n      swap2\n      pop\n      pop\n      0x01\n      swap1\n      sub\n      swap1\n      0x00\n      mstore\n      keccak256(0x00, 0x20)\n      add\n      0x00\n      swap1\n      swap2\n      swap1\n      swap2\n      swap1\n      swap2\n      pop\n      sstore\n        /* \"solidity100/solidity10_241224.sol\":4358:4361  i++ */\n      dup1\n      dup1\n      tag_26\n      swap1\n      tag_27\n      jump\t// in\n    tag_26:\n      swap2\n      pop\n      pop\n        /* \"solidity100/solidity10_241224.sol\":4330:4403  for (uint256 i = 0; i <= 5; i++) {... */\n      jump(tag_22)\n    tag_23:\n      pop\n        /* \"solidity100/solidity10_241224.sol\":4286:4409  function arrayFillToFive() public {... */\n      jump\t// out\n        /* \"#utility.yul\":7:84   */\n    tag_28:\n        /* \"#utility.yul\":44:51   */\n      0x00\n        /* \"#utility.yul\":73:78   */\n      dup2\n        /* \"#utility.yul\":62:78   */\n      swap1\n      pop\n        /* \"#utility.yul\":7:84   */\n      swap2\n      swap1\n      pop\n      jump\t// out\n        /* \"#utility.yul\":90:208   */\n    tag_29:\n        /* \"#utility.yul\":177:201   */\n      tag_34\n        /* \"#utility.yul\":195:200   */\n      dup2\n        /* \"#utility.yul\":177:201   */\n      tag_28\n      jump\t// in\n    tag_34:\n        /* \"#utility.yul\":172:175   */\n      dup3\n        /* \"#utility.yul\":165:202   */\n      mstore\n        /* \"#utility.yul\":90:208   */\n      pop\n      pop\n      jump\t// out\n        /* \"#utility.yul\":214:436   */\n    tag_8:\n        /* \"#utility.yul\":307:311   */\n      0x00\n        /* \"#utility.yul\":345:347   */\n      0x20\n        /* \"#utility.yul\":334:343   */\n      dup3\n        /* \"#utility.yul\":330:348   */\n      add\n        /* \"#utility.yul\":322:348   */\n      swap1\n      pop\n        /* \"#utility.yul\":358:429   */\n      tag_36\n        /* \"#utility.yul\":426:427   */\n      0x00\n        /* \"#utility.yul\":415:424   */\n      dup4\n        /* \"#utility.yul\":411:428   */\n      add\n        /* \"#utility.yul\":402:408   */\n      dup5\n        /* \"#utility.yul\":358:429   */\n      tag_29\n      jump\t// in\n    tag_36:\n        /* \"#utility.yul\":214:436   */\n      swap3\n      swap2\n      pop\n      pop\n      jump\t// out\n        /* \"#utility.yul\":442:622   */\n    tag_17:\n        /* \"#utility.yul\":490:567   */\n      0x4e487b7100000000000000000000000000000000000000000000000000000000\n        /* \"#utility.yul\":487:488   */\n      0x00\n        /* \"#utility.yul\":480:568   */\n      mstore\n        /* \"#utility.yul\":587:591   */\n      0x32\n        /* \"#utility.yul\":584:585   */\n      0x04\n        /* \"#utility.yul\":577:592   */\n      mstore\n        /* \"#utility.yul\":611:615   */\n      0x24\n        /* \"#utility.yul\":608:609   */\n      0x00\n        /* \"#utility.yul\":601:616   */\n      revert\n        /* \"#utility.yul\":628:808   */\n    tag_30:\n        /* \"#utility.yul\":676:753   */\n      0x4e487b7100000000000000000000000000000000000000000000000000000000\n        /* \"#utility.yul\":673:674   */\n      0x00\n        /* \"#utility.yul\":666:754   */\n      mstore\n        /* \"#utility.yul\":773:777   */\n      0x11\n        /* \"#utility.yul\":770:771   */\n      0x04\n        /* \"#utility.yul\":763:778   */\n      mstore\n        /* \"#utility.yul\":797:801   */\n      0x24\n        /* \"#utility.yul\":794:795   */\n      0x00\n        /* \"#utility.yul\":787:802   */\n      revert\n        /* \"#utility.yul\":814:1005   */\n    tag_20:\n        /* \"#utility.yul\":854:857   */\n      0x00\n        /* \"#utility.yul\":873:893   */\n      tag_40\n        /* \"#utility.yul\":891:892   */\n      dup3\n        /* \"#utility.yul\":873:893   */\n      tag_28\n      jump\t// in\n    tag_40:\n        /* \"#utility.yul\":868:893   */\n      swap2\n      pop\n        /* \"#utility.yul\":907:927   */\n      tag_41\n        /* \"#utility.yul\":925:926   */\n      dup4\n        /* \"#utility.yul\":907:927   */\n      tag_28\n      jump\t// in\n    tag_41:\n        /* \"#utility.yul\":902:927   */\n      swap3\n      pop\n        /* \"#utility.yul\":950:951   */\n      dup3\n        /* \"#utility.yul\":947:948   */\n      dup3\n        /* \"#utility.yul\":943:952   */\n      add\n        /* \"#utility.yul\":936:952   */\n      swap1\n      pop\n        /* \"#utility.yul\":971:974   */\n      dup1\n        /* \"#utility.yul\":968:969   */\n      dup3\n        /* \"#utility.yul\":965:975   */\n      gt\n        /* \"#utility.yul\":962:998   */\n      iszero\n      tag_42\n      jumpi\n        /* \"#utility.yul\":978:996   */\n      tag_43\n      tag_30\n      jump\t// in\n    tag_43:\n        /* \"#utility.yul\":962:998   */\n    tag_42:\n        /* \"#utility.yul\":814:1005   */\n      swap3\n      swap2\n      pop\n      pop\n      jump\t// out\n        /* \"#utility.yul\":1011:1244   */\n    tag_27:\n        /* \"#utility.yul\":1050:1053   */\n      0x00\n        /* \"#utility.yul\":1073:1097   */\n      tag_45\n        /* \"#utility.yul\":1091:1096   */\n      dup3\n        /* \"#utility.yul\":1073:1097   */\n      tag_28\n      jump\t// in\n    tag_45:\n        /* \"#utility.yul\":1064:1097   */\n      swap2\n      pop\n        /* \"#utility.yul\":1119:1185   */\n      0xffffffffffffffffffffffffffffffffffffffffffffffffffffffffffffffff\n        /* \"#utility.yul\":1112:1117   */\n      dup3\n        /* \"#utility.yul\":1109:1186   */\n      sub\n        /* \"#utility.yul\":1106:1209   */\n      tag_46\n      jumpi\n        /* \"#utility.yul\":1189:1207   */\n      tag_47\n      tag_30\n      jump\t// in\n    tag_47:\n        /* \"#utility.yul\":1106:1209   */\n    tag_46:\n        /* \"#utility.yul\":1236:1237   */\n      0x01\n        /* \"#utility.yul\":1229:1234   */\n      dup3\n        /* \"#utility.yul\":1225:1238   */\n      add\n        /* \"#utility.yul\":1218:1238   */\n      swap1\n      pop\n        /* \"#utility.yul\":1011:1244   */\n      swap2\n      swap1\n      pop\n      jump\t// out\n\n    auxdata: 0xa2646970667358221220f9819b663d2b489f86bbdcf506ecd9cc8fed2db30ab19c3acafd32ab260ac9ea64736f6c634300081a0033\n}\n",
				"bytecode": {
					"linkReferences": {},
					"object": "6080604052348015600e575f80fd5b5061022c8061001c5f395ff3fe608060405234801561000f575f80fd5b5060043610610034575f3560e01c806389f915f614610038578063a9bd768a14610056575b5f80fd5b610040610060565b60405161004d9190610109565b60405180910390f35b61005e6100ac565b005b5f805f90505b5f805490508110156100a8575f818154811061008557610084610122565b5b905f5260205f20015482610099919061017c565b91508080600101915050610066565b5090565b5f5b600581116100ee575f81908060018154018082558091505060019003905f5260205f20015f909190919091505580806100e6906101af565b9150506100ae565b50565b5f819050919050565b610103816100f1565b82525050565b5f60208201905061011c5f8301846100fa565b92915050565b7f4e487b71000000000000000000000000000000000000000000000000000000005f52603260045260245ffd5b7f4e487b71000000000000000000000000000000000000000000000000000000005f52601160045260245ffd5b5f610186826100f1565b9150610191836100f1565b92508282019050808211156101a9576101a861014f565b5b92915050565b5f6101b9826100f1565b91507fffffffffffffffffffffffffffffffffffffffffffffffffffffffffffffffff82036101eb576101ea61014f565b5b60018201905091905056fea2646970667358221220f9819b663d2b489f86bbdcf506ecd9cc8fed2db30ab19c3acafd32ab260ac9ea64736f6c634300081a0033",
					"opcodes": "PUSH1 0x80 PUSH1 0x40 MSTORE CALLVALUE DUP1 ISZERO PUSH1 0xE JUMPI PUSH0 DUP1 REVERT JUMPDEST POP PUSH2 0x22C DUP1 PUSH2 0x1C PUSH0 CODECOPY PUSH0 RETURN INVALID PUSH1 0x80 PUSH1 0x40 MSTORE CALLVALUE DUP1 ISZERO PUSH2 0xF JUMPI PUSH0 DUP1 REVERT JUMPDEST POP PUSH1 0x4 CALLDATASIZE LT PUSH2 0x34 JUMPI PUSH0 CALLDATALOAD PUSH1 0xE0 SHR DUP1 PUSH4 0x89F915F6 EQ PUSH2 0x38 JUMPI DUP1 PUSH4 0xA9BD768A EQ PUSH2 0x56 JUMPI JUMPDEST PUSH0 DUP1 REVERT JUMPDEST PUSH2 0x40 PUSH2 0x60 JUMP JUMPDEST PUSH1 0x40 MLOAD PUSH2 0x4D SWAP2 SWAP1 PUSH2 0x109 JUMP JUMPDEST PUSH1 0x40 MLOAD DUP1 SWAP2 SUB SWAP1 RETURN JUMPDEST PUSH2 0x5E PUSH2 0xAC JUMP JUMPDEST STOP JUMPDEST PUSH0 DUP1 PUSH0 SWAP1 POP JUMPDEST PUSH0 DUP1 SLOAD SWAP1 POP DUP2 LT ISZERO PUSH2 0xA8 JUMPI PUSH0 DUP2 DUP2 SLOAD DUP2 LT PUSH2 0x85 JUMPI PUSH2 0x84 PUSH2 0x122 JUMP JUMPDEST JUMPDEST SWAP1 PUSH0 MSTORE PUSH1 0x20 PUSH0 KECCAK256 ADD SLOAD DUP3 PUSH2 0x99 SWAP2 SWAP1 PUSH2 0x17C JUMP JUMPDEST SWAP2 POP DUP1 DUP1 PUSH1 0x1 ADD SWAP2 POP POP PUSH2 0x66 JUMP JUMPDEST POP SWAP1 JUMP JUMPDEST PUSH0 JUMPDEST PUSH1 0x5 DUP2 GT PUSH2 0xEE JUMPI PUSH0 DUP2 SWAP1 DUP1 PUSH1 0x1 DUP2 SLOAD ADD DUP1 DUP3 SSTORE DUP1 SWAP2 POP POP PUSH1 0x1 SWAP1 SUB SWAP1 PUSH0 MSTORE PUSH1 0x20 PUSH0 KECCAK256 ADD PUSH0 SWAP1 SWAP2 SWAP1 SWAP2 SWAP1 SWAP2 POP SSTORE DUP1 DUP1 PUSH2 0xE6 SWAP1 PUSH2 0x1AF JUMP JUMPDEST SWAP2 POP POP PUSH2 0xAE JUMP JUMPDEST POP JUMP JUMPDEST PUSH0 DUP2 SWAP1 POP SWAP2 SWAP1 POP JUMP JUMPDEST PUSH2 0x103 DUP2 PUSH2 0xF1 JUMP JUMPDEST DUP3 MSTORE POP POP JUMP JUMPDEST PUSH0 PUSH1 0x20 DUP3 ADD SWAP1 POP PUSH2 0x11C PUSH0 DUP4 ADD DUP5 PUSH2 0xFA JUMP JUMPDEST SWAP3 SWAP2 POP POP JUMP JUMPDEST PUSH32 0x4E487B7100000000000000000000000000000000000000000000000000000000 PUSH0 MSTORE PUSH1 0x32 PUSH1 0x4 MSTORE PUSH1 0x24 PUSH0 REVERT JUMPDEST PUSH32 0x4E487B7100000000000000000000000000000000000000000000000000000000 PUSH0 MSTORE PUSH1 0x11 PUSH1 0x4 MSTORE PUSH1 0x24 PUSH0 REVERT JUMPDEST PUSH0 PUSH2 0x186 DUP3 PUSH2 0xF1 JUMP JUMPDEST SWAP2 POP PUSH2 0x191 DUP4 PUSH2 0xF1 JUMP JUMPDEST SWAP3 POP DUP3 DUP3 ADD SWAP1 POP DUP1 DUP3 GT ISZERO PUSH2 0x1A9 JUMPI PUSH2 0x1A8 PUSH2 0x14F JUMP JUMPDEST JUMPDEST SWAP3 SWAP2 POP POP JUMP JUMPDEST PUSH0 PUSH2 0x1B9 DUP3 PUSH2 0xF1 JUMP JUMPDEST SWAP2 POP PUSH32 0xFFFFFFFFFFFFFFFFFFFFFFFFFFFFFFFFFFFFFFFFFFFFFFFFFFFFFFFFFFFFFFFF DUP3 SUB PUSH2 0x1EB JUMPI PUSH2 0x1EA PUSH2 0x14F JUMP JUMPDEST JUMPDEST PUSH1 0x1 DUP3 ADD SWAP1 POP SWAP2 SWAP1 POP JUMP INVALID LOG2 PUSH5 0x6970667358 0x22 SLT KECCAK256 0xF9 DUP2 SWAP12 PUSH7 0x3D2B489F86BBDC CREATE2 MOD 0xEC 0xD9 0xCC DUP16 0xED 0x2D 0xB3 EXP 0xB1 SWAP13 GASPRICE 0xCA REVERT ORIGIN 0xAB 0x26 EXP 0xC9 0xEA PUSH5 0x736F6C6343 STOP ADDMOD BYTE STOP CALLER "
				},
				"gasEstimates": {
					"creation": {
						"codeDepositCost": "111200",
						"executionCost": "157",
						"totalCost": "111357"
					},
					"external": {
						"arrayFillToFive()": "infinite",
						"getNumbers()": "infinite"
					}
				},
				"methodIdentifiers": {
					"arrayFillToFive()": "a9bd768a",
					"getNumbers()": "89f915f6"
				}
			},
			"storageLayout": {
				"storage": [
					{
						"astId": 361,
						"contract": "solidity100/solidity10_241224.sol:Q7",
						"label": "numbers",
						"offset": 0,
						"slot": "0",
						"type": "t_array(t_uint256)dyn_storage"
					}
				],
				"types": {
					"t_array(t_uint256)dyn_storage": {
						"base": "t_uint256",
						"encoding": "dynamic_array",
						"label": "uint256[]",
						"numberOfBytes": "32"
					},
					"t_uint256": {
						"encoding": "inplace",
						"label": "uint256",
						"numberOfBytes": "32"
					}
				}
			},
			"userdoc": {
				"kind": "user",
				"methods": {},
				"version": 1
			}
		}
	}
}