{
	"solidity100/solidity10_250103.sol": {
		"Q14": {
			"abi": [
				{
					"inputs": [
						{
							"internalType": "string",
							"name": "_name",
							"type": "string"
						},
						{
							"internalType": "string[]",
							"name": "_classes",
							"type": "string[]"
						}
					],
					"name": "addStudent",
					"outputs": [],
					"stateMutability": "nonpayable",
					"type": "function"
				},
				{
					"inputs": [],
					"name": "getStudnets",
					"outputs": [
						{
							"components": [
								{
									"internalType": "uint256",
									"name": "number",
									"type": "uint256"
								},
								{
									"internalType": "string",
									"name": "name",
									"type": "string"
								},
								{
									"internalType": "string[]",
									"name": "classes",
									"type": "string[]"
								}
							],
							"internalType": "struct Q14.STUDENT[]",
							"name": "",
							"type": "tuple[]"
						}
					],
					"stateMutability": "view",
					"type": "function"
				}
			],
			"devdoc": {
				"kind": "dev",
				"methods": {},
				"version": 1
			},
			"evm": {
				"assembly": "    /* \"solidity100/solidity10_250103.sol\":1822:2707  contract Q14 {... */\n  mstore(0x40, 0x80)\n    /* \"solidity100/solidity10_250103.sol\":2326:2327  1 */\n  0x01\n    /* \"solidity100/solidity10_250103.sol\":2302:2327  uint256 private index = 1 */\n  dup1\n  sstore\n    /* \"solidity100/solidity10_250103.sol\":1822:2707  contract Q14 {... */\n  callvalue\n  dup1\n  iszero\n  tag_1\n  jumpi\n  0x00\n  dup1\n  revert\ntag_1:\n  pop\n  dataSize(sub_0)\n  dup1\n  dataOffset(sub_0)\n  0x00\n  codecopy\n  0x00\n  return\nstop\n\nsub_0: assembly {\n        /* \"solidity100/solidity10_250103.sol\":1822:2707  contract Q14 {... */\n      mstore(0x40, 0x80)\n      callvalue\n      dup1\n      iszero\n      tag_1\n      jumpi\n      0x00\n      dup1\n      revert\n    tag_1:\n      pop\n      jumpi(tag_2, lt(calldatasize, 0x04))\n      shr(0xe0, calldataload(0x00))\n      dup1\n      0x6733877d\n      eq\n      tag_3\n      jumpi\n      dup1\n      0x70d5e2fb\n      eq\n      tag_4\n      jumpi\n    tag_2:\n      0x00\n      dup1\n      revert\n        /* \"solidity100/solidity10_250103.sol\":2611:2705  function getStudnets() public view returns (STUDENT[] memory) {... */\n    tag_3:\n      tag_5\n      tag_6\n      jump\t// in\n    tag_5:\n      mload(0x40)\n      tag_7\n      swap2\n      swap1\n      tag_8\n      jump\t// in\n    tag_7:\n      mload(0x40)\n      dup1\n      swap2\n      sub\n      swap1\n      return\n        /* \"solidity100/solidity10_250103.sol\":2395:2605  function addStudent(string memory _name, string[] memory _classes)... */\n    tag_4:\n      tag_9\n      0x04\n      dup1\n      calldatasize\n      sub\n      dup2\n      add\n      swap1\n      tag_10\n      swap2\n      swap1\n      tag_11\n      jump\t// in\n    tag_10:\n      tag_12\n      jump\t// in\n    tag_9:\n      stop\n        /* \"solidity100/solidity10_250103.sol\":2611:2705  function getStudnets() public view returns (STUDENT[] memory) {... */\n    tag_6:\n        /* \"solidity100/solidity10_250103.sol\":2655:2671  STUDENT[] memory */\n      0x60\n        /* \"solidity100/solidity10_250103.sol\":2690:2698  students */\n      0x00\n        /* \"solidity100/solidity10_250103.sol\":2683:2698  return students */\n      dup1\n      sload\n      dup1\n      0x20\n      mul\n      0x20\n      add\n      mload(0x40)\n      swap1\n      dup2\n      add\n      0x40\n      mstore\n      dup1\n      swap3\n      swap2\n      swap1\n      dup2\n      dup2\n      mstore\n      0x20\n      add\n      0x00\n      swap1\n    tag_14:\n      dup3\n      dup3\n      lt\n      iszero\n      tag_15\n      jumpi\n      dup4\n      dup3\n      swap1\n      0x00\n      mstore\n      keccak256(0x00, 0x20)\n      swap1\n      0x03\n      mul\n      add\n      mload(0x40)\n      dup1\n      0x60\n      add\n      0x40\n      mstore\n      swap1\n      dup2\n      0x00\n      dup3\n      add\n      sload\n      dup2\n      mstore\n      0x20\n      add\n      0x01\n      dup3\n      add\n      dup1\n      sload\n      tag_17\n      swap1\n      tag_18\n      jump\t// in\n    tag_17:\n      dup1\n      0x1f\n      add\n      0x20\n      dup1\n      swap2\n      div\n      mul\n      0x20\n      add\n      mload(0x40)\n      swap1\n      dup2\n      add\n      0x40\n      mstore\n      dup1\n      swap3\n      swap2\n      swap1\n      dup2\n      dup2\n      mstore\n      0x20\n      add\n      dup3\n      dup1\n      sload\n      tag_19\n      swap1\n      tag_18\n      jump\t// in\n    tag_19:\n      dup1\n      iszero\n      tag_20\n      jumpi\n      dup1\n      0x1f\n      lt\n      tag_21\n      jumpi\n      0x0100\n      dup1\n      dup4\n      sload\n      div\n      mul\n      dup4\n      mstore\n      swap2\n      0x20\n      add\n      swap2\n      jump(tag_20)\n    tag_21:\n      dup3\n      add\n      swap2\n      swap1\n      0x00\n      mstore\n      keccak256(0x00, 0x20)\n      swap1\n    tag_22:\n      dup2\n      sload\n      dup2\n      mstore\n      swap1\n      0x01\n      add\n      swap1\n      0x20\n      add\n      dup1\n      dup4\n      gt\n      tag_22\n      jumpi\n      dup3\n      swap1\n      sub\n      0x1f\n      and\n      dup3\n      add\n      swap2\n    tag_20:\n      pop\n      pop\n      pop\n      pop\n      pop\n      dup2\n      mstore\n      0x20\n      add\n      0x02\n      dup3\n      add\n      dup1\n      sload\n      dup1\n      0x20\n      mul\n      0x20\n      add\n      mload(0x40)\n      swap1\n      dup2\n      add\n      0x40\n      mstore\n      dup1\n      swap3\n      swap2\n      swap1\n      dup2\n      dup2\n      mstore\n      0x20\n      add\n      0x00\n      swap1\n    tag_23:\n      dup3\n      dup3\n      lt\n      iszero\n      tag_24\n      jumpi\n      dup4\n      dup3\n      swap1\n      0x00\n      mstore\n      keccak256(0x00, 0x20)\n      add\n      dup1\n      sload\n      tag_26\n      swap1\n      tag_18\n      jump\t// in\n    tag_26:\n      dup1\n      0x1f\n      add\n      0x20\n      dup1\n      swap2\n      div\n      mul\n      0x20\n      add\n      mload(0x40)\n      swap1\n      dup2\n      add\n      0x40\n      mstore\n      dup1\n      swap3\n      swap2\n      swap1\n      dup2\n      dup2\n      mstore\n      0x20\n      add\n      dup3\n      dup1\n      sload\n      tag_27\n      swap1\n      tag_18\n      jump\t// in\n    tag_27:\n      dup1\n      iszero\n      tag_28\n      jumpi\n      dup1\n      0x1f\n      lt\n      tag_29\n      jumpi\n      0x0100\n      dup1\n      dup4\n      sload\n      div\n      mul\n      dup4\n      mstore\n      swap2\n      0x20\n      add\n      swap2\n      jump(tag_28)\n    tag_29:\n      dup3\n      add\n      swap2\n      swap1\n      0x00\n      mstore\n      keccak256(0x00, 0x20)\n      swap1\n    tag_30:\n      dup2\n      sload\n      dup2\n      mstore\n      swap1\n      0x01\n      add\n      swap1\n      0x20\n      add\n      dup1\n      dup4\n      gt\n      tag_30\n      jumpi\n      dup3\n      swap1\n      sub\n      0x1f\n      and\n      dup3\n      add\n      swap2\n    tag_28:\n      pop\n      pop\n      pop\n      pop\n      pop\n      dup2\n      mstore\n      0x20\n      add\n      swap1\n      0x01\n      add\n      swap1\n      jump(tag_23)\n    tag_24:\n      pop\n      pop\n      pop\n      pop\n      dup2\n      mstore\n      pop\n      pop\n      dup2\n      mstore\n      0x20\n      add\n      swap1\n      0x01\n      add\n      swap1\n      jump(tag_14)\n    tag_15:\n      pop\n      pop\n      pop\n      pop\n      swap1\n      pop\n        /* \"solidity100/solidity10_250103.sol\":2611:2705  function getStudnets() public view returns (STUDENT[] memory) {... */\n      swap1\n      jump\t// out\n        /* \"solidity100/solidity10_250103.sol\":2395:2605  function addStudent(string memory _name, string[] memory _classes)... */\n    tag_12:\n        /* \"solidity100/solidity10_250103.sol\":2508:2531  STUDENT memory _student */\n      0x00\n        /* \"solidity100/solidity10_250103.sol\":2534:2565  STUDENT(index, _name, _classes) */\n      mload(0x40)\n      dup1\n      0x60\n      add\n      0x40\n      mstore\n      dup1\n        /* \"solidity100/solidity10_250103.sol\":2542:2547  index */\n      sload(0x01)\n        /* \"solidity100/solidity10_250103.sol\":2534:2565  STUDENT(index, _name, _classes) */\n      dup2\n      mstore\n      0x20\n      add\n        /* \"solidity100/solidity10_250103.sol\":2549:2554  _name */\n      dup5\n        /* \"solidity100/solidity10_250103.sol\":2534:2565  STUDENT(index, _name, _classes) */\n      dup2\n      mstore\n      0x20\n      add\n        /* \"solidity100/solidity10_250103.sol\":2556:2564  _classes */\n      dup4\n        /* \"solidity100/solidity10_250103.sol\":2534:2565  STUDENT(index, _name, _classes) */\n      dup2\n      mstore\n      pop\n        /* \"solidity100/solidity10_250103.sol\":2508:2565  STUDENT memory _student = STUDENT(index, _name, _classes) */\n      swap1\n      pop\n        /* \"solidity100/solidity10_250103.sol\":2575:2583  students */\n      0x00\n        /* \"solidity100/solidity10_250103.sol\":2589:2597  _student */\n      dup2\n        /* \"solidity100/solidity10_250103.sol\":2575:2598  students.push(_student) */\n      swap1\n      dup1\n      0x01\n      dup2\n      sload\n      add\n      dup1\n      dup3\n      sstore\n      dup1\n      swap2\n      pop\n      pop\n      0x01\n      swap1\n      sub\n      swap1\n      0x00\n      mstore\n      keccak256(0x00, 0x20)\n      swap1\n      0x03\n      mul\n      add\n      0x00\n      swap1\n      swap2\n      swap1\n      swap2\n      swap1\n      swap2\n      pop\n      0x00\n      dup3\n      add\n      mload\n      dup2\n      0x00\n      add\n      sstore\n      0x20\n      dup3\n      add\n      mload\n      dup2\n      0x01\n      add\n      swap1\n      dup2\n      tag_34\n      swap2\n      swap1\n      tag_35\n      jump\t// in\n    tag_34:\n      pop\n      0x40\n      dup3\n      add\n      mload\n      dup2\n      0x02\n      add\n      swap1\n      dup1\n      mload\n      swap1\n      0x20\n      add\n      swap1\n      tag_36\n      swap3\n      swap2\n      swap1\n      tag_37\n      jump\t// in\n    tag_36:\n      pop\n      pop\n      pop\n        /* \"solidity100/solidity10_250103.sol\":2498:2605  {... */\n      pop\n        /* \"solidity100/solidity10_250103.sol\":2375:2380  index */\n      0x01\n      0x00\n        /* \"solidity100/solidity10_250103.sol\":2375:2382  index++ */\n      dup2\n      sload\n      dup1\n      swap3\n      swap2\n      swap1\n      tag_38\n      swap1\n      tag_39\n      jump\t// in\n    tag_38:\n      swap2\n      swap1\n      pop\n      sstore\n      pop\n        /* \"solidity100/solidity10_250103.sol\":2395:2605  function addStudent(string memory _name, string[] memory _classes)... */\n      pop\n      pop\n      jump\t// out\n    tag_37:\n      dup3\n      dup1\n      sload\n      dup3\n      dup3\n      sstore\n      swap1\n      0x00\n      mstore\n      keccak256(0x00, 0x20)\n      swap1\n      dup2\n      add\n      swap3\n      dup3\n      iszero\n      tag_40\n      jumpi\n      swap2\n      0x20\n      mul\n      dup3\n      add\n    tag_41:\n      dup3\n      dup2\n      gt\n      iszero\n      tag_42\n      jumpi\n      dup3\n      mload\n      dup3\n      swap1\n      dup2\n      tag_43\n      swap2\n      swap1\n      tag_35\n      jump\t// in\n    tag_43:\n      pop\n      swap2\n      0x20\n      add\n      swap2\n      swap1\n      0x01\n      add\n      swap1\n      jump(tag_41)\n    tag_42:\n    tag_40:\n      pop\n      swap1\n      pop\n      tag_44\n      swap2\n      swap1\n      tag_45\n      jump\t// in\n    tag_44:\n      pop\n      swap1\n      jump\t// out\n    tag_45:\n    tag_46:\n      dup1\n      dup3\n      gt\n      iszero\n      tag_47\n      jumpi\n      0x00\n      dup2\n      dup2\n      tag_48\n      swap2\n      swap1\n      tag_49\n      jump\t// in\n    tag_48:\n      pop\n      0x01\n      add\n      jump(tag_46)\n    tag_47:\n      pop\n      swap1\n      jump\t// out\n    tag_49:\n      pop\n      dup1\n      sload\n      tag_50\n      swap1\n      tag_18\n      jump\t// in\n    tag_50:\n      0x00\n      dup3\n      sstore\n      dup1\n      0x1f\n      lt\n      tag_52\n      jumpi\n      pop\n      jump(tag_51)\n    tag_52:\n      0x1f\n      add\n      0x20\n      swap1\n      div\n      swap1\n      0x00\n      mstore\n      keccak256(0x00, 0x20)\n      swap1\n      dup2\n      add\n      swap1\n      tag_53\n      swap2\n      swap1\n      tag_54\n      jump\t// in\n    tag_53:\n    tag_51:\n      pop\n      jump\t// out\n    tag_54:\n    tag_55:\n      dup1\n      dup3\n      gt\n      iszero\n      tag_56\n      jumpi\n      0x00\n      dup2\n      0x00\n      swap1\n      sstore\n      pop\n      0x01\n      add\n      jump(tag_55)\n    tag_56:\n      pop\n      swap1\n      jump\t// out\n        /* \"#utility.yul\":7:145   */\n    tag_57:\n        /* \"#utility.yul\":98:104   */\n      0x00\n        /* \"#utility.yul\":132:137   */\n      dup2\n        /* \"#utility.yul\":126:138   */\n      mload\n        /* \"#utility.yul\":116:138   */\n      swap1\n      pop\n        /* \"#utility.yul\":7:145   */\n      swap2\n      swap1\n      pop\n      jump\t// out\n        /* \"#utility.yul\":151:359   */\n    tag_58:\n        /* \"#utility.yul\":274:285   */\n      0x00\n        /* \"#utility.yul\":308:314   */\n      dup3\n        /* \"#utility.yul\":303:306   */\n      dup3\n        /* \"#utility.yul\":296:315   */\n      mstore\n        /* \"#utility.yul\":348:352   */\n      0x20\n        /* \"#utility.yul\":343:346   */\n      dup3\n        /* \"#utility.yul\":339:353   */\n      add\n        /* \"#utility.yul\":324:353   */\n      swap1\n      pop\n        /* \"#utility.yul\":151:359   */\n      swap3\n      swap2\n      pop\n      pop\n      jump\t// out\n        /* \"#utility.yul\":365:521   */\n    tag_59:\n        /* \"#utility.yul\":456:460   */\n      0x00\n        /* \"#utility.yul\":479:482   */\n      dup2\n        /* \"#utility.yul\":471:482   */\n      swap1\n      pop\n        /* \"#utility.yul\":509:513   */\n      0x20\n        /* \"#utility.yul\":504:507   */\n      dup3\n        /* \"#utility.yul\":500:514   */\n      add\n        /* \"#utility.yul\":492:514   */\n      swap1\n      pop\n        /* \"#utility.yul\":365:521   */\n      swap2\n      swap1\n      pop\n      jump\t// out\n        /* \"#utility.yul\":527:604   */\n    tag_60:\n        /* \"#utility.yul\":564:571   */\n      0x00\n        /* \"#utility.yul\":593:598   */\n      dup2\n        /* \"#utility.yul\":582:598   */\n      swap1\n      pop\n        /* \"#utility.yul\":527:604   */\n      swap2\n      swap1\n      pop\n      jump\t// out\n        /* \"#utility.yul\":610:718   */\n    tag_61:\n        /* \"#utility.yul\":687:711   */\n      tag_116\n        /* \"#utility.yul\":705:710   */\n      dup2\n        /* \"#utility.yul\":687:711   */\n      tag_60\n      jump\t// in\n    tag_116:\n        /* \"#utility.yul\":682:685   */\n      dup3\n        /* \"#utility.yul\":675:712   */\n      mstore\n        /* \"#utility.yul\":610:718   */\n      pop\n      pop\n      jump\t// out\n        /* \"#utility.yul\":724:823   */\n    tag_62:\n        /* \"#utility.yul\":776:782   */\n      0x00\n        /* \"#utility.yul\":810:815   */\n      dup2\n        /* \"#utility.yul\":804:816   */\n      mload\n        /* \"#utility.yul\":794:816   */\n      swap1\n      pop\n        /* \"#utility.yul\":724:823   */\n      swap2\n      swap1\n      pop\n      jump\t// out\n        /* \"#utility.yul\":829:988   */\n    tag_63:\n        /* \"#utility.yul\":903:914   */\n      0x00\n        /* \"#utility.yul\":937:943   */\n      dup3\n        /* \"#utility.yul\":932:935   */\n      dup3\n        /* \"#utility.yul\":925:944   */\n      mstore\n        /* \"#utility.yul\":977:981   */\n      0x20\n        /* \"#utility.yul\":972:975   */\n      dup3\n        /* \"#utility.yul\":968:982   */\n      add\n        /* \"#utility.yul\":953:982   */\n      swap1\n      pop\n        /* \"#utility.yul\":829:988   */\n      swap3\n      swap2\n      pop\n      pop\n      jump\t// out\n        /* \"#utility.yul\":994:1133   */\n    tag_64:\n        /* \"#utility.yul\":1083:1089   */\n      dup3\n        /* \"#utility.yul\":1078:1081   */\n      dup2\n        /* \"#utility.yul\":1073:1076   */\n      dup4\n        /* \"#utility.yul\":1067:1090   */\n      mcopy\n        /* \"#utility.yul\":1124:1125   */\n      0x00\n        /* \"#utility.yul\":1115:1121   */\n      dup4\n        /* \"#utility.yul\":1110:1113   */\n      dup4\n        /* \"#utility.yul\":1106:1122   */\n      add\n        /* \"#utility.yul\":1099:1126   */\n      mstore\n        /* \"#utility.yul\":994:1133   */\n      pop\n      pop\n      pop\n      jump\t// out\n        /* \"#utility.yul\":1139:1241   */\n    tag_65:\n        /* \"#utility.yul\":1180:1186   */\n      0x00\n        /* \"#utility.yul\":1231:1233   */\n      0x1f\n        /* \"#utility.yul\":1227:1234   */\n      not\n        /* \"#utility.yul\":1222:1224   */\n      0x1f\n        /* \"#utility.yul\":1215:1220   */\n      dup4\n        /* \"#utility.yul\":1211:1225   */\n      add\n        /* \"#utility.yul\":1207:1235   */\n      and\n        /* \"#utility.yul\":1197:1235   */\n      swap1\n      pop\n        /* \"#utility.yul\":1139:1241   */\n      swap2\n      swap1\n      pop\n      jump\t// out\n        /* \"#utility.yul\":1247:1604   */\n    tag_66:\n        /* \"#utility.yul\":1325:1328   */\n      0x00\n        /* \"#utility.yul\":1353:1392   */\n      tag_122\n        /* \"#utility.yul\":1386:1391   */\n      dup3\n        /* \"#utility.yul\":1353:1392   */\n      tag_62\n      jump\t// in\n    tag_122:\n        /* \"#utility.yul\":1408:1469   */\n      tag_123\n        /* \"#utility.yul\":1462:1468   */\n      dup2\n        /* \"#utility.yul\":1457:1460   */\n      dup6\n        /* \"#utility.yul\":1408:1469   */\n      tag_63\n      jump\t// in\n    tag_123:\n        /* \"#utility.yul\":1401:1469   */\n      swap4\n      pop\n        /* \"#utility.yul\":1478:1543   */\n      tag_124\n        /* \"#utility.yul\":1536:1542   */\n      dup2\n        /* \"#utility.yul\":1531:1534   */\n      dup6\n        /* \"#utility.yul\":1524:1528   */\n      0x20\n        /* \"#utility.yul\":1517:1522   */\n      dup7\n        /* \"#utility.yul\":1513:1529   */\n      add\n        /* \"#utility.yul\":1478:1543   */\n      tag_64\n      jump\t// in\n    tag_124:\n        /* \"#utility.yul\":1568:1597   */\n      tag_125\n        /* \"#utility.yul\":1590:1596   */\n      dup2\n        /* \"#utility.yul\":1568:1597   */\n      tag_65\n      jump\t// in\n    tag_125:\n        /* \"#utility.yul\":1563:1566   */\n      dup5\n        /* \"#utility.yul\":1559:1598   */\n      add\n        /* \"#utility.yul\":1552:1598   */\n      swap2\n      pop\n        /* \"#utility.yul\":1329:1604   */\n      pop\n        /* \"#utility.yul\":1247:1604   */\n      swap3\n      swap2\n      pop\n      pop\n      jump\t// out\n        /* \"#utility.yul\":1610:1734   */\n    tag_67:\n        /* \"#utility.yul\":1687:1693   */\n      0x00\n        /* \"#utility.yul\":1721:1726   */\n      dup2\n        /* \"#utility.yul\":1715:1727   */\n      mload\n        /* \"#utility.yul\":1705:1727   */\n      swap1\n      pop\n        /* \"#utility.yul\":1610:1734   */\n      swap2\n      swap1\n      pop\n      jump\t// out\n        /* \"#utility.yul\":1740:1924   */\n    tag_68:\n        /* \"#utility.yul\":1839:1850   */\n      0x00\n        /* \"#utility.yul\":1873:1879   */\n      dup3\n        /* \"#utility.yul\":1868:1871   */\n      dup3\n        /* \"#utility.yul\":1861:1880   */\n      mstore\n        /* \"#utility.yul\":1913:1917   */\n      0x20\n        /* \"#utility.yul\":1908:1911   */\n      dup3\n        /* \"#utility.yul\":1904:1918   */\n      add\n        /* \"#utility.yul\":1889:1918   */\n      swap1\n      pop\n        /* \"#utility.yul\":1740:1924   */\n      swap3\n      swap2\n      pop\n      pop\n      jump\t// out\n        /* \"#utility.yul\":1930:2072   */\n    tag_69:\n        /* \"#utility.yul\":2007:2011   */\n      0x00\n        /* \"#utility.yul\":2030:2033   */\n      dup2\n        /* \"#utility.yul\":2022:2033   */\n      swap1\n      pop\n        /* \"#utility.yul\":2060:2064   */\n      0x20\n        /* \"#utility.yul\":2055:2058   */\n      dup3\n        /* \"#utility.yul\":2051:2065   */\n      add\n        /* \"#utility.yul\":2043:2065   */\n      swap1\n      pop\n        /* \"#utility.yul\":1930:2072   */\n      swap2\n      swap1\n      pop\n      jump\t// out\n        /* \"#utility.yul\":2078:2274   */\n    tag_70:\n        /* \"#utility.yul\":2167:2177   */\n      0x00\n        /* \"#utility.yul\":2202:2268   */\n      tag_130\n        /* \"#utility.yul\":2264:2267   */\n      dup4\n        /* \"#utility.yul\":2256:2262   */\n      dup4\n        /* \"#utility.yul\":2202:2268   */\n      tag_66\n      jump\t// in\n    tag_130:\n        /* \"#utility.yul\":2188:2268   */\n      swap1\n      pop\n        /* \"#utility.yul\":2078:2274   */\n      swap3\n      swap2\n      pop\n      pop\n      jump\t// out\n        /* \"#utility.yul\":2280:2403   */\n    tag_71:\n        /* \"#utility.yul\":2360:2364   */\n      0x00\n        /* \"#utility.yul\":2392:2396   */\n      0x20\n        /* \"#utility.yul\":2387:2390   */\n      dup3\n        /* \"#utility.yul\":2383:2397   */\n      add\n        /* \"#utility.yul\":2375:2397   */\n      swap1\n      pop\n        /* \"#utility.yul\":2280:2403   */\n      swap2\n      swap1\n      pop\n      jump\t// out\n        /* \"#utility.yul\":2437:3408   */\n    tag_72:\n        /* \"#utility.yul\":2566:2569   */\n      0x00\n        /* \"#utility.yul\":2595:2659   */\n      tag_133\n        /* \"#utility.yul\":2653:2658   */\n      dup3\n        /* \"#utility.yul\":2595:2659   */\n      tag_67\n      jump\t// in\n    tag_133:\n        /* \"#utility.yul\":2675:2761   */\n      tag_134\n        /* \"#utility.yul\":2754:2760   */\n      dup2\n        /* \"#utility.yul\":2749:2752   */\n      dup6\n        /* \"#utility.yul\":2675:2761   */\n      tag_68\n      jump\t// in\n    tag_134:\n        /* \"#utility.yul\":2668:2761   */\n      swap4\n      pop\n        /* \"#utility.yul\":2787:2790   */\n      dup4\n        /* \"#utility.yul\":2832:2836   */\n      0x20\n        /* \"#utility.yul\":2824:2830   */\n      dup3\n        /* \"#utility.yul\":2820:2837   */\n      mul\n        /* \"#utility.yul\":2815:2818   */\n      dup6\n        /* \"#utility.yul\":2811:2838   */\n      add\n        /* \"#utility.yul\":2862:2928   */\n      tag_135\n        /* \"#utility.yul\":2922:2927   */\n      dup6\n        /* \"#utility.yul\":2862:2928   */\n      tag_69\n      jump\t// in\n    tag_135:\n        /* \"#utility.yul\":2951:2958   */\n      dup1\n        /* \"#utility.yul\":2982:2983   */\n      0x00\n        /* \"#utility.yul\":2967:3363   */\n    tag_136:\n        /* \"#utility.yul\":2992:2998   */\n      dup6\n        /* \"#utility.yul\":2989:2990   */\n      dup2\n        /* \"#utility.yul\":2986:2999   */\n      lt\n        /* \"#utility.yul\":2967:3363   */\n      iszero\n      tag_138\n      jumpi\n        /* \"#utility.yul\":3063:3072   */\n      dup5\n        /* \"#utility.yul\":3057:3061   */\n      dup5\n        /* \"#utility.yul\":3053:3073   */\n      sub\n        /* \"#utility.yul\":3048:3051   */\n      dup10\n        /* \"#utility.yul\":3041:3074   */\n      mstore\n        /* \"#utility.yul\":3114:3120   */\n      dup2\n        /* \"#utility.yul\":3108:3121   */\n      mload\n        /* \"#utility.yul\":3142:3226   */\n      tag_139\n        /* \"#utility.yul\":3221:3225   */\n      dup6\n        /* \"#utility.yul\":3206:3219   */\n      dup3\n        /* \"#utility.yul\":3142:3226   */\n      tag_70\n      jump\t// in\n    tag_139:\n        /* \"#utility.yul\":3134:3226   */\n      swap5\n      pop\n        /* \"#utility.yul\":3249:3319   */\n      tag_140\n        /* \"#utility.yul\":3312:3318   */\n      dup4\n        /* \"#utility.yul\":3249:3319   */\n      tag_71\n      jump\t// in\n    tag_140:\n        /* \"#utility.yul\":3239:3319   */\n      swap3\n      pop\n        /* \"#utility.yul\":3348:3352   */\n      0x20\n        /* \"#utility.yul\":3343:3346   */\n      dup11\n        /* \"#utility.yul\":3339:3353   */\n      add\n        /* \"#utility.yul\":3332:3353   */\n      swap10\n      pop\n        /* \"#utility.yul\":3027:3363   */\n      pop\n        /* \"#utility.yul\":3014:3015   */\n      0x01\n        /* \"#utility.yul\":3011:3012   */\n      dup2\n        /* \"#utility.yul\":3007:3016   */\n      add\n        /* \"#utility.yul\":3002:3016   */\n      swap1\n      pop\n        /* \"#utility.yul\":2967:3363   */\n      jump(tag_136)\n    tag_138:\n        /* \"#utility.yul\":2971:2985   */\n      pop\n        /* \"#utility.yul\":3379:3383   */\n      dup3\n        /* \"#utility.yul\":3372:3383   */\n      swap8\n      pop\n        /* \"#utility.yul\":3399:3402   */\n      dup8\n        /* \"#utility.yul\":3392:3402   */\n      swap6\n      pop\n        /* \"#utility.yul\":2571:3408   */\n      pop\n      pop\n      pop\n      pop\n      pop\n        /* \"#utility.yul\":2437:3408   */\n      swap3\n      swap2\n      pop\n      pop\n      jump\t// out\n        /* \"#utility.yul\":3462:4356   */\n    tag_73:\n        /* \"#utility.yul\":3569:3572   */\n      0x00\n        /* \"#utility.yul\":3605:3609   */\n      0x60\n        /* \"#utility.yul\":3600:3603   */\n      dup4\n        /* \"#utility.yul\":3596:3610   */\n      add\n        /* \"#utility.yul\":3694:3698   */\n      0x00\n        /* \"#utility.yul\":3687:3692   */\n      dup4\n        /* \"#utility.yul\":3683:3699   */\n      add\n        /* \"#utility.yul\":3677:3700   */\n      mload\n        /* \"#utility.yul\":3713:3776   */\n      tag_142\n        /* \"#utility.yul\":3770:3774   */\n      0x00\n        /* \"#utility.yul\":3765:3768   */\n      dup7\n        /* \"#utility.yul\":3761:3775   */\n      add\n        /* \"#utility.yul\":3747:3759   */\n      dup3\n        /* \"#utility.yul\":3713:3776   */\n      tag_61\n      jump\t// in\n    tag_142:\n        /* \"#utility.yul\":3620:3786   */\n      pop\n        /* \"#utility.yul\":3868:3872   */\n      0x20\n        /* \"#utility.yul\":3861:3866   */\n      dup4\n        /* \"#utility.yul\":3857:3873   */\n      add\n        /* \"#utility.yul\":3851:3874   */\n      mload\n        /* \"#utility.yul\":3921:3924   */\n      dup5\n        /* \"#utility.yul\":3915:3919   */\n      dup3\n        /* \"#utility.yul\":3911:3925   */\n      sub\n        /* \"#utility.yul\":3904:3908   */\n      0x20\n        /* \"#utility.yul\":3899:3902   */\n      dup7\n        /* \"#utility.yul\":3895:3909   */\n      add\n        /* \"#utility.yul\":3888:3926   */\n      mstore\n        /* \"#utility.yul\":3947:4020   */\n      tag_143\n        /* \"#utility.yul\":4015:4019   */\n      dup3\n        /* \"#utility.yul\":4001:4013   */\n      dup3\n        /* \"#utility.yul\":3947:4020   */\n      tag_66\n      jump\t// in\n    tag_143:\n        /* \"#utility.yul\":3939:4020   */\n      swap2\n      pop\n        /* \"#utility.yul\":3796:4031   */\n      pop\n        /* \"#utility.yul\":4116:4120   */\n      0x40\n        /* \"#utility.yul\":4109:4114   */\n      dup4\n        /* \"#utility.yul\":4105:4121   */\n      add\n        /* \"#utility.yul\":4099:4122   */\n      mload\n        /* \"#utility.yul\":4169:4172   */\n      dup5\n        /* \"#utility.yul\":4163:4167   */\n      dup3\n        /* \"#utility.yul\":4159:4173   */\n      sub\n        /* \"#utility.yul\":4152:4156   */\n      0x40\n        /* \"#utility.yul\":4147:4150   */\n      dup7\n        /* \"#utility.yul\":4143:4157   */\n      add\n        /* \"#utility.yul\":4136:4174   */\n      mstore\n        /* \"#utility.yul\":4195:4318   */\n      tag_144\n        /* \"#utility.yul\":4313:4317   */\n      dup3\n        /* \"#utility.yul\":4299:4311   */\n      dup3\n        /* \"#utility.yul\":4195:4318   */\n      tag_72\n      jump\t// in\n    tag_144:\n        /* \"#utility.yul\":4187:4318   */\n      swap2\n      pop\n        /* \"#utility.yul\":4041:4329   */\n      pop\n        /* \"#utility.yul\":4346:4350   */\n      dup1\n        /* \"#utility.yul\":4339:4350   */\n      swap2\n      pop\n        /* \"#utility.yul\":3574:4356   */\n      pop\n        /* \"#utility.yul\":3462:4356   */\n      swap3\n      swap2\n      pop\n      pop\n      jump\t// out\n        /* \"#utility.yul\":4362:4614   */\n    tag_74:\n        /* \"#utility.yul\":4479:4489   */\n      0x00\n        /* \"#utility.yul\":4514:4608   */\n      tag_146\n        /* \"#utility.yul\":4604:4607   */\n      dup4\n        /* \"#utility.yul\":4596:4602   */\n      dup4\n        /* \"#utility.yul\":4514:4608   */\n      tag_73\n      jump\t// in\n    tag_146:\n        /* \"#utility.yul\":4500:4608   */\n      swap1\n      pop\n        /* \"#utility.yul\":4362:4614   */\n      swap3\n      swap2\n      pop\n      pop\n      jump\t// out\n        /* \"#utility.yul\":4620:4757   */\n    tag_75:\n        /* \"#utility.yul\":4714:4718   */\n      0x00\n        /* \"#utility.yul\":4746:4750   */\n      0x20\n        /* \"#utility.yul\":4741:4744   */\n      dup3\n        /* \"#utility.yul\":4737:4751   */\n      add\n        /* \"#utility.yul\":4729:4751   */\n      swap1\n      pop\n        /* \"#utility.yul\":4620:4757   */\n      swap2\n      swap1\n      pop\n      jump\t// out\n        /* \"#utility.yul\":4815:5918   */\n    tag_76:\n        /* \"#utility.yul\":4982:4985   */\n      0x00\n        /* \"#utility.yul\":5011:5089   */\n      tag_149\n        /* \"#utility.yul\":5083:5088   */\n      dup3\n        /* \"#utility.yul\":5011:5089   */\n      tag_57\n      jump\t// in\n    tag_149:\n        /* \"#utility.yul\":5105:5215   */\n      tag_150\n        /* \"#utility.yul\":5208:5214   */\n      dup2\n        /* \"#utility.yul\":5203:5206   */\n      dup6\n        /* \"#utility.yul\":5105:5215   */\n      tag_58\n      jump\t// in\n    tag_150:\n        /* \"#utility.yul\":5098:5215   */\n      swap4\n      pop\n        /* \"#utility.yul\":5241:5244   */\n      dup4\n        /* \"#utility.yul\":5286:5290   */\n      0x20\n        /* \"#utility.yul\":5278:5284   */\n      dup3\n        /* \"#utility.yul\":5274:5291   */\n      mul\n        /* \"#utility.yul\":5269:5272   */\n      dup6\n        /* \"#utility.yul\":5265:5292   */\n      add\n        /* \"#utility.yul\":5316:5396   */\n      tag_151\n        /* \"#utility.yul\":5390:5395   */\n      dup6\n        /* \"#utility.yul\":5316:5396   */\n      tag_59\n      jump\t// in\n    tag_151:\n        /* \"#utility.yul\":5419:5426   */\n      dup1\n        /* \"#utility.yul\":5450:5451   */\n      0x00\n        /* \"#utility.yul\":5435:5873   */\n    tag_152:\n        /* \"#utility.yul\":5460:5466   */\n      dup6\n        /* \"#utility.yul\":5457:5458   */\n      dup2\n        /* \"#utility.yul\":5454:5467   */\n      lt\n        /* \"#utility.yul\":5435:5873   */\n      iszero\n      tag_154\n      jumpi\n        /* \"#utility.yul\":5531:5540   */\n      dup5\n        /* \"#utility.yul\":5525:5529   */\n      dup5\n        /* \"#utility.yul\":5521:5541   */\n      sub\n        /* \"#utility.yul\":5516:5519   */\n      dup10\n        /* \"#utility.yul\":5509:5542   */\n      mstore\n        /* \"#utility.yul\":5582:5588   */\n      dup2\n        /* \"#utility.yul\":5576:5589   */\n      mload\n        /* \"#utility.yul\":5610:5722   */\n      tag_155\n        /* \"#utility.yul\":5717:5721   */\n      dup6\n        /* \"#utility.yul\":5702:5715   */\n      dup3\n        /* \"#utility.yul\":5610:5722   */\n      tag_74\n      jump\t// in\n    tag_155:\n        /* \"#utility.yul\":5602:5722   */\n      swap5\n      pop\n        /* \"#utility.yul\":5745:5829   */\n      tag_156\n        /* \"#utility.yul\":5822:5828   */\n      dup4\n        /* \"#utility.yul\":5745:5829   */\n      tag_75\n      jump\t// in\n    tag_156:\n        /* \"#utility.yul\":5735:5829   */\n      swap3\n      pop\n        /* \"#utility.yul\":5858:5862   */\n      0x20\n        /* \"#utility.yul\":5853:5856   */\n      dup11\n        /* \"#utility.yul\":5849:5863   */\n      add\n        /* \"#utility.yul\":5842:5863   */\n      swap10\n      pop\n        /* \"#utility.yul\":5495:5873   */\n      pop\n        /* \"#utility.yul\":5482:5483   */\n      0x01\n        /* \"#utility.yul\":5479:5480   */\n      dup2\n        /* \"#utility.yul\":5475:5484   */\n      add\n        /* \"#utility.yul\":5470:5484   */\n      swap1\n      pop\n        /* \"#utility.yul\":5435:5873   */\n      jump(tag_152)\n    tag_154:\n        /* \"#utility.yul\":5439:5453   */\n      pop\n        /* \"#utility.yul\":5889:5893   */\n      dup3\n        /* \"#utility.yul\":5882:5893   */\n      swap8\n      pop\n        /* \"#utility.yul\":5909:5912   */\n      dup8\n        /* \"#utility.yul\":5902:5912   */\n      swap6\n      pop\n        /* \"#utility.yul\":4987:5918   */\n      pop\n      pop\n      pop\n      pop\n      pop\n        /* \"#utility.yul\":4815:5918   */\n      swap3\n      swap2\n      pop\n      pop\n      jump\t// out\n        /* \"#utility.yul\":5924:6393   */\n    tag_8:\n        /* \"#utility.yul\":6115:6119   */\n      0x00\n        /* \"#utility.yul\":6153:6155   */\n      0x20\n        /* \"#utility.yul\":6142:6151   */\n      dup3\n        /* \"#utility.yul\":6138:6156   */\n      add\n        /* \"#utility.yul\":6130:6156   */\n      swap1\n      pop\n        /* \"#utility.yul\":6202:6211   */\n      dup2\n        /* \"#utility.yul\":6196:6200   */\n      dup2\n        /* \"#utility.yul\":6192:6212   */\n      sub\n        /* \"#utility.yul\":6188:6189   */\n      0x00\n        /* \"#utility.yul\":6177:6186   */\n      dup4\n        /* \"#utility.yul\":6173:6190   */\n      add\n        /* \"#utility.yul\":6166:6213   */\n      mstore\n        /* \"#utility.yul\":6230:6386   */\n      tag_158\n        /* \"#utility.yul\":6381:6385   */\n      dup2\n        /* \"#utility.yul\":6372:6378   */\n      dup5\n        /* \"#utility.yul\":6230:6386   */\n      tag_76\n      jump\t// in\n    tag_158:\n        /* \"#utility.yul\":6222:6386   */\n      swap1\n      pop\n        /* \"#utility.yul\":5924:6393   */\n      swap3\n      swap2\n      pop\n      pop\n      jump\t// out\n        /* \"#utility.yul\":6399:6474   */\n    tag_77:\n        /* \"#utility.yul\":6432:6438   */\n      0x00\n        /* \"#utility.yul\":6465:6467   */\n      0x40\n        /* \"#utility.yul\":6459:6468   */\n      mload\n        /* \"#utility.yul\":6449:6468   */\n      swap1\n      pop\n        /* \"#utility.yul\":6399:6474   */\n      swap1\n      jump\t// out\n        /* \"#utility.yul\":6480:6597   */\n    tag_78:\n        /* \"#utility.yul\":6589:6590   */\n      0x00\n        /* \"#utility.yul\":6586:6587   */\n      dup1\n        /* \"#utility.yul\":6579:6591   */\n      revert\n        /* \"#utility.yul\":6603:6720   */\n    tag_79:\n        /* \"#utility.yul\":6712:6713   */\n      0x00\n        /* \"#utility.yul\":6709:6710   */\n      dup1\n        /* \"#utility.yul\":6702:6714   */\n      revert\n        /* \"#utility.yul\":6726:6843   */\n    tag_80:\n        /* \"#utility.yul\":6835:6836   */\n      0x00\n        /* \"#utility.yul\":6832:6833   */\n      dup1\n        /* \"#utility.yul\":6825:6837   */\n      revert\n        /* \"#utility.yul\":6849:6966   */\n    tag_81:\n        /* \"#utility.yul\":6958:6959   */\n      0x00\n        /* \"#utility.yul\":6955:6956   */\n      dup1\n        /* \"#utility.yul\":6948:6960   */\n      revert\n        /* \"#utility.yul\":6972:7152   */\n    tag_82:\n        /* \"#utility.yul\":7020:7097   */\n      0x4e487b7100000000000000000000000000000000000000000000000000000000\n        /* \"#utility.yul\":7017:7018   */\n      0x00\n        /* \"#utility.yul\":7010:7098   */\n      mstore\n        /* \"#utility.yul\":7117:7121   */\n      0x41\n        /* \"#utility.yul\":7114:7115   */\n      0x04\n        /* \"#utility.yul\":7107:7122   */\n      mstore\n        /* \"#utility.yul\":7141:7145   */\n      0x24\n        /* \"#utility.yul\":7138:7139   */\n      0x00\n        /* \"#utility.yul\":7131:7146   */\n      revert\n        /* \"#utility.yul\":7158:7439   */\n    tag_83:\n        /* \"#utility.yul\":7241:7268   */\n      tag_166\n        /* \"#utility.yul\":7263:7267   */\n      dup3\n        /* \"#utility.yul\":7241:7268   */\n      tag_65\n      jump\t// in\n    tag_166:\n        /* \"#utility.yul\":7233:7239   */\n      dup2\n        /* \"#utility.yul\":7229:7269   */\n      add\n        /* \"#utility.yul\":7371:7377   */\n      dup2\n        /* \"#utility.yul\":7359:7369   */\n      dup2\n        /* \"#utility.yul\":7356:7378   */\n      lt\n        /* \"#utility.yul\":7335:7353   */\n      0xffffffffffffffff\n        /* \"#utility.yul\":7323:7333   */\n      dup3\n        /* \"#utility.yul\":7320:7354   */\n      gt\n        /* \"#utility.yul\":7317:7379   */\n      or\n        /* \"#utility.yul\":7314:7402   */\n      iszero\n      tag_167\n      jumpi\n        /* \"#utility.yul\":7382:7400   */\n      tag_168\n      tag_82\n      jump\t// in\n    tag_168:\n        /* \"#utility.yul\":7314:7402   */\n    tag_167:\n        /* \"#utility.yul\":7422:7432   */\n      dup1\n        /* \"#utility.yul\":7418:7420   */\n      0x40\n        /* \"#utility.yul\":7411:7433   */\n      mstore\n        /* \"#utility.yul\":7201:7439   */\n      pop\n        /* \"#utility.yul\":7158:7439   */\n      pop\n      pop\n      jump\t// out\n        /* \"#utility.yul\":7445:7574   */\n    tag_84:\n        /* \"#utility.yul\":7479:7485   */\n      0x00\n        /* \"#utility.yul\":7506:7526   */\n      tag_170\n      tag_77\n      jump\t// in\n    tag_170:\n        /* \"#utility.yul\":7496:7526   */\n      swap1\n      pop\n        /* \"#utility.yul\":7535:7568   */\n      tag_171\n        /* \"#utility.yul\":7563:7567   */\n      dup3\n        /* \"#utility.yul\":7555:7561   */\n      dup3\n        /* \"#utility.yul\":7535:7568   */\n      tag_83\n      jump\t// in\n    tag_171:\n        /* \"#utility.yul\":7445:7574   */\n      swap2\n      swap1\n      pop\n      jump\t// out\n        /* \"#utility.yul\":7580:7888   */\n    tag_85:\n        /* \"#utility.yul\":7642:7646   */\n      0x00\n        /* \"#utility.yul\":7732:7750   */\n      0xffffffffffffffff\n        /* \"#utility.yul\":7724:7730   */\n      dup3\n        /* \"#utility.yul\":7721:7751   */\n      gt\n        /* \"#utility.yul\":7718:7774   */\n      iszero\n      tag_173\n      jumpi\n        /* \"#utility.yul\":7754:7772   */\n      tag_174\n      tag_82\n      jump\t// in\n    tag_174:\n        /* \"#utility.yul\":7718:7774   */\n    tag_173:\n        /* \"#utility.yul\":7792:7821   */\n      tag_175\n        /* \"#utility.yul\":7814:7820   */\n      dup3\n        /* \"#utility.yul\":7792:7821   */\n      tag_65\n      jump\t// in\n    tag_175:\n        /* \"#utility.yul\":7784:7821   */\n      swap1\n      pop\n        /* \"#utility.yul\":7876:7880   */\n      0x20\n        /* \"#utility.yul\":7870:7874   */\n      dup2\n        /* \"#utility.yul\":7866:7881   */\n      add\n        /* \"#utility.yul\":7858:7881   */\n      swap1\n      pop\n        /* \"#utility.yul\":7580:7888   */\n      swap2\n      swap1\n      pop\n      jump\t// out\n        /* \"#utility.yul\":7894:8042   */\n    tag_86:\n        /* \"#utility.yul\":7992:7998   */\n      dup3\n        /* \"#utility.yul\":7987:7990   */\n      dup2\n        /* \"#utility.yul\":7982:7985   */\n      dup4\n        /* \"#utility.yul\":7969:7999   */\n      calldatacopy\n        /* \"#utility.yul\":8033:8034   */\n      0x00\n        /* \"#utility.yul\":8024:8030   */\n      dup4\n        /* \"#utility.yul\":8019:8022   */\n      dup4\n        /* \"#utility.yul\":8015:8031   */\n      add\n        /* \"#utility.yul\":8008:8035   */\n      mstore\n        /* \"#utility.yul\":7894:8042   */\n      pop\n      pop\n      pop\n      jump\t// out\n        /* \"#utility.yul\":8048:8473   */\n    tag_87:\n        /* \"#utility.yul\":8126:8131   */\n      0x00\n        /* \"#utility.yul\":8151:8217   */\n      tag_178\n        /* \"#utility.yul\":8167:8216   */\n      tag_179\n        /* \"#utility.yul\":8209:8215   */\n      dup5\n        /* \"#utility.yul\":8167:8216   */\n      tag_85\n      jump\t// in\n    tag_179:\n        /* \"#utility.yul\":8151:8217   */\n      tag_84\n      jump\t// in\n    tag_178:\n        /* \"#utility.yul\":8142:8217   */\n      swap1\n      pop\n        /* \"#utility.yul\":8240:8246   */\n      dup3\n        /* \"#utility.yul\":8233:8238   */\n      dup2\n        /* \"#utility.yul\":8226:8247   */\n      mstore\n        /* \"#utility.yul\":8278:8282   */\n      0x20\n        /* \"#utility.yul\":8271:8276   */\n      dup2\n        /* \"#utility.yul\":8267:8283   */\n      add\n        /* \"#utility.yul\":8316:8319   */\n      dup5\n        /* \"#utility.yul\":8307:8313   */\n      dup5\n        /* \"#utility.yul\":8302:8305   */\n      dup5\n        /* \"#utility.yul\":8298:8314   */\n      add\n        /* \"#utility.yul\":8295:8320   */\n      gt\n        /* \"#utility.yul\":8292:8404   */\n      iszero\n      tag_180\n      jumpi\n        /* \"#utility.yul\":8323:8402   */\n      tag_181\n      tag_81\n      jump\t// in\n    tag_181:\n        /* \"#utility.yul\":8292:8404   */\n    tag_180:\n        /* \"#utility.yul\":8413:8467   */\n      tag_182\n        /* \"#utility.yul\":8460:8466   */\n      dup5\n        /* \"#utility.yul\":8455:8458   */\n      dup3\n        /* \"#utility.yul\":8450:8453   */\n      dup6\n        /* \"#utility.yul\":8413:8467   */\n      tag_86\n      jump\t// in\n    tag_182:\n        /* \"#utility.yul\":8132:8473   */\n      pop\n        /* \"#utility.yul\":8048:8473   */\n      swap4\n      swap3\n      pop\n      pop\n      pop\n      jump\t// out\n        /* \"#utility.yul\":8493:8833   */\n    tag_88:\n        /* \"#utility.yul\":8549:8554   */\n      0x00\n        /* \"#utility.yul\":8598:8601   */\n      dup3\n        /* \"#utility.yul\":8591:8595   */\n      0x1f\n        /* \"#utility.yul\":8583:8589   */\n      dup4\n        /* \"#utility.yul\":8579:8596   */\n      add\n        /* \"#utility.yul\":8575:8602   */\n      slt\n        /* \"#utility.yul\":8565:8687   */\n      tag_184\n      jumpi\n        /* \"#utility.yul\":8606:8685   */\n      tag_185\n      tag_80\n      jump\t// in\n    tag_185:\n        /* \"#utility.yul\":8565:8687   */\n    tag_184:\n        /* \"#utility.yul\":8723:8729   */\n      dup2\n        /* \"#utility.yul\":8710:8730   */\n      calldataload\n        /* \"#utility.yul\":8748:8827   */\n      tag_186\n        /* \"#utility.yul\":8823:8826   */\n      dup5\n        /* \"#utility.yul\":8815:8821   */\n      dup3\n        /* \"#utility.yul\":8808:8812   */\n      0x20\n        /* \"#utility.yul\":8800:8806   */\n      dup7\n        /* \"#utility.yul\":8796:8813   */\n      add\n        /* \"#utility.yul\":8748:8827   */\n      tag_87\n      jump\t// in\n    tag_186:\n        /* \"#utility.yul\":8739:8827   */\n      swap2\n      pop\n        /* \"#utility.yul\":8555:8833   */\n      pop\n        /* \"#utility.yul\":8493:8833   */\n      swap3\n      swap2\n      pop\n      pop\n      jump\t// out\n        /* \"#utility.yul\":8839:9160   */\n    tag_89:\n        /* \"#utility.yul\":8926:8930   */\n      0x00\n        /* \"#utility.yul\":9016:9034   */\n      0xffffffffffffffff\n        /* \"#utility.yul\":9008:9014   */\n      dup3\n        /* \"#utility.yul\":9005:9035   */\n      gt\n        /* \"#utility.yul\":9002:9058   */\n      iszero\n      tag_188\n      jumpi\n        /* \"#utility.yul\":9038:9056   */\n      tag_189\n      tag_82\n      jump\t// in\n    tag_189:\n        /* \"#utility.yul\":9002:9058   */\n    tag_188:\n        /* \"#utility.yul\":9088:9092   */\n      0x20\n        /* \"#utility.yul\":9080:9086   */\n      dup3\n        /* \"#utility.yul\":9076:9093   */\n      mul\n        /* \"#utility.yul\":9068:9093   */\n      swap1\n      pop\n        /* \"#utility.yul\":9148:9152   */\n      0x20\n        /* \"#utility.yul\":9142:9146   */\n      dup2\n        /* \"#utility.yul\":9138:9153   */\n      add\n        /* \"#utility.yul\":9130:9153   */\n      swap1\n      pop\n        /* \"#utility.yul\":8839:9160   */\n      swap2\n      swap1\n      pop\n      jump\t// out\n        /* \"#utility.yul\":9166:9283   */\n    tag_90:\n        /* \"#utility.yul\":9275:9276   */\n      0x00\n        /* \"#utility.yul\":9272:9273   */\n      dup1\n        /* \"#utility.yul\":9265:9277   */\n      revert\n        /* \"#utility.yul\":9305:10250   */\n    tag_91:\n        /* \"#utility.yul\":9411:9416   */\n      0x00\n        /* \"#utility.yul\":9436:9527   */\n      tag_192\n        /* \"#utility.yul\":9452:9526   */\n      tag_193\n        /* \"#utility.yul\":9519:9525   */\n      dup5\n        /* \"#utility.yul\":9452:9526   */\n      tag_89\n      jump\t// in\n    tag_193:\n        /* \"#utility.yul\":9436:9527   */\n      tag_84\n      jump\t// in\n    tag_192:\n        /* \"#utility.yul\":9427:9527   */\n      swap1\n      pop\n        /* \"#utility.yul\":9547:9552   */\n      dup1\n        /* \"#utility.yul\":9576:9582   */\n      dup4\n        /* \"#utility.yul\":9569:9574   */\n      dup3\n        /* \"#utility.yul\":9562:9583   */\n      mstore\n        /* \"#utility.yul\":9610:9614   */\n      0x20\n        /* \"#utility.yul\":9603:9608   */\n      dup3\n        /* \"#utility.yul\":9599:9615   */\n      add\n        /* \"#utility.yul\":9592:9615   */\n      swap1\n      pop\n        /* \"#utility.yul\":9663:9667   */\n      0x20\n        /* \"#utility.yul\":9655:9661   */\n      dup5\n        /* \"#utility.yul\":9651:9668   */\n      mul\n        /* \"#utility.yul\":9643:9649   */\n      dup4\n        /* \"#utility.yul\":9639:9669   */\n      add\n        /* \"#utility.yul\":9692:9695   */\n      dup6\n        /* \"#utility.yul\":9684:9690   */\n      dup2\n        /* \"#utility.yul\":9681:9696   */\n      gt\n        /* \"#utility.yul\":9678:9800   */\n      iszero\n      tag_194\n      jumpi\n        /* \"#utility.yul\":9711:9790   */\n      tag_195\n      tag_90\n      jump\t// in\n    tag_195:\n        /* \"#utility.yul\":9678:9800   */\n    tag_194:\n        /* \"#utility.yul\":9826:9832   */\n      dup4\n        /* \"#utility.yul\":9809:10244   */\n    tag_196:\n        /* \"#utility.yul\":9843:9849   */\n      dup2\n        /* \"#utility.yul\":9838:9841   */\n      dup2\n        /* \"#utility.yul\":9835:9850   */\n      lt\n        /* \"#utility.yul\":9809:10244   */\n      iszero\n      tag_198\n      jumpi\n        /* \"#utility.yul\":9932:9935   */\n      dup1\n        /* \"#utility.yul\":9919:9936   */\n      calldataload\n        /* \"#utility.yul\":9968:9986   */\n      0xffffffffffffffff\n        /* \"#utility.yul\":9955:9966   */\n      dup2\n        /* \"#utility.yul\":9952:9987   */\n      gt\n        /* \"#utility.yul\":9949:10071   */\n      iszero\n      tag_199\n      jumpi\n        /* \"#utility.yul\":9990:10069   */\n      tag_200\n      tag_80\n      jump\t// in\n    tag_200:\n        /* \"#utility.yul\":9949:10071   */\n    tag_199:\n        /* \"#utility.yul\":10114:10125   */\n      dup1\n        /* \"#utility.yul\":10106:10112   */\n      dup7\n        /* \"#utility.yul\":10102:10126   */\n      add\n        /* \"#utility.yul\":10152:10199   */\n      tag_201\n        /* \"#utility.yul\":10195:10198   */\n      dup10\n        /* \"#utility.yul\":10183:10193   */\n      dup3\n        /* \"#utility.yul\":10152:10199   */\n      tag_88\n      jump\t// in\n    tag_201:\n        /* \"#utility.yul\":10147:10150   */\n      dup6\n        /* \"#utility.yul\":10140:10200   */\n      mstore\n        /* \"#utility.yul\":10229:10233   */\n      0x20\n        /* \"#utility.yul\":10224:10227   */\n      dup6\n        /* \"#utility.yul\":10220:10234   */\n      add\n        /* \"#utility.yul\":10213:10234   */\n      swap5\n      pop\n        /* \"#utility.yul\":9885:10244   */\n      pop\n      pop\n        /* \"#utility.yul\":9869:9873   */\n      0x20\n        /* \"#utility.yul\":9864:9867   */\n      dup2\n        /* \"#utility.yul\":9860:9874   */\n      add\n        /* \"#utility.yul\":9853:9874   */\n      swap1\n      pop\n        /* \"#utility.yul\":9809:10244   */\n      jump(tag_196)\n    tag_198:\n        /* \"#utility.yul\":9813:9834   */\n      pop\n        /* \"#utility.yul\":9417:10250   */\n      pop\n      pop\n        /* \"#utility.yul\":9305:10250   */\n      swap4\n      swap3\n      pop\n      pop\n      pop\n      jump\t// out\n        /* \"#utility.yul\":10272:10662   */\n    tag_92:\n        /* \"#utility.yul\":10353:10358   */\n      0x00\n        /* \"#utility.yul\":10402:10405   */\n      dup3\n        /* \"#utility.yul\":10395:10399   */\n      0x1f\n        /* \"#utility.yul\":10387:10393   */\n      dup4\n        /* \"#utility.yul\":10383:10400   */\n      add\n        /* \"#utility.yul\":10379:10406   */\n      slt\n        /* \"#utility.yul\":10369:10491   */\n      tag_203\n      jumpi\n        /* \"#utility.yul\":10410:10489   */\n      tag_204\n      tag_80\n      jump\t// in\n    tag_204:\n        /* \"#utility.yul\":10369:10491   */\n    tag_203:\n        /* \"#utility.yul\":10527:10533   */\n      dup2\n        /* \"#utility.yul\":10514:10534   */\n      calldataload\n        /* \"#utility.yul\":10552:10656   */\n      tag_205\n        /* \"#utility.yul\":10652:10655   */\n      dup5\n        /* \"#utility.yul\":10644:10650   */\n      dup3\n        /* \"#utility.yul\":10637:10641   */\n      0x20\n        /* \"#utility.yul\":10629:10635   */\n      dup7\n        /* \"#utility.yul\":10625:10642   */\n      add\n        /* \"#utility.yul\":10552:10656   */\n      tag_91\n      jump\t// in\n    tag_205:\n        /* \"#utility.yul\":10543:10656   */\n      swap2\n      pop\n        /* \"#utility.yul\":10359:10662   */\n      pop\n        /* \"#utility.yul\":10272:10662   */\n      swap3\n      swap2\n      pop\n      pop\n      jump\t// out\n        /* \"#utility.yul\":10668:11552   */\n    tag_11:\n        /* \"#utility.yul\":10781:10787   */\n      0x00\n        /* \"#utility.yul\":10789:10795   */\n      dup1\n        /* \"#utility.yul\":10838:10840   */\n      0x40\n        /* \"#utility.yul\":10826:10835   */\n      dup4\n        /* \"#utility.yul\":10817:10824   */\n      dup6\n        /* \"#utility.yul\":10813:10836   */\n      sub\n        /* \"#utility.yul\":10809:10841   */\n      slt\n        /* \"#utility.yul\":10806:10925   */\n      iszero\n      tag_207\n      jumpi\n        /* \"#utility.yul\":10844:10923   */\n      tag_208\n      tag_78\n      jump\t// in\n    tag_208:\n        /* \"#utility.yul\":10806:10925   */\n    tag_207:\n        /* \"#utility.yul\":10992:10993   */\n      0x00\n        /* \"#utility.yul\":10981:10990   */\n      dup4\n        /* \"#utility.yul\":10977:10994   */\n      add\n        /* \"#utility.yul\":10964:10995   */\n      calldataload\n        /* \"#utility.yul\":11022:11040   */\n      0xffffffffffffffff\n        /* \"#utility.yul\":11014:11020   */\n      dup2\n        /* \"#utility.yul\":11011:11041   */\n      gt\n        /* \"#utility.yul\":11008:11125   */\n      iszero\n      tag_209\n      jumpi\n        /* \"#utility.yul\":11044:11123   */\n      tag_210\n      tag_79\n      jump\t// in\n    tag_210:\n        /* \"#utility.yul\":11008:11125   */\n    tag_209:\n        /* \"#utility.yul\":11149:11212   */\n      tag_211\n        /* \"#utility.yul\":11204:11211   */\n      dup6\n        /* \"#utility.yul\":11195:11201   */\n      dup3\n        /* \"#utility.yul\":11184:11193   */\n      dup7\n        /* \"#utility.yul\":11180:11202   */\n      add\n        /* \"#utility.yul\":11149:11212   */\n      tag_88\n      jump\t// in\n    tag_211:\n        /* \"#utility.yul\":11139:11212   */\n      swap3\n      pop\n        /* \"#utility.yul\":10935:11222   */\n      pop\n        /* \"#utility.yul\":11289:11291   */\n      0x20\n        /* \"#utility.yul\":11278:11287   */\n      dup4\n        /* \"#utility.yul\":11274:11292   */\n      add\n        /* \"#utility.yul\":11261:11293   */\n      calldataload\n        /* \"#utility.yul\":11320:11338   */\n      0xffffffffffffffff\n        /* \"#utility.yul\":11312:11318   */\n      dup2\n        /* \"#utility.yul\":11309:11339   */\n      gt\n        /* \"#utility.yul\":11306:11423   */\n      iszero\n      tag_212\n      jumpi\n        /* \"#utility.yul\":11342:11421   */\n      tag_213\n      tag_79\n      jump\t// in\n    tag_213:\n        /* \"#utility.yul\":11306:11423   */\n    tag_212:\n        /* \"#utility.yul\":11447:11535   */\n      tag_214\n        /* \"#utility.yul\":11527:11534   */\n      dup6\n        /* \"#utility.yul\":11518:11524   */\n      dup3\n        /* \"#utility.yul\":11507:11516   */\n      dup7\n        /* \"#utility.yul\":11503:11525   */\n      add\n        /* \"#utility.yul\":11447:11535   */\n      tag_92\n      jump\t// in\n    tag_214:\n        /* \"#utility.yul\":11437:11535   */\n      swap2\n      pop\n        /* \"#utility.yul\":11232:11545   */\n      pop\n        /* \"#utility.yul\":10668:11552   */\n      swap3\n      pop\n      swap3\n      swap1\n      pop\n      jump\t// out\n        /* \"#utility.yul\":11558:11738   */\n    tag_93:\n        /* \"#utility.yul\":11606:11683   */\n      0x4e487b7100000000000000000000000000000000000000000000000000000000\n        /* \"#utility.yul\":11603:11604   */\n      0x00\n        /* \"#utility.yul\":11596:11684   */\n      mstore\n        /* \"#utility.yul\":11703:11707   */\n      0x22\n        /* \"#utility.yul\":11700:11701   */\n      0x04\n        /* \"#utility.yul\":11693:11708   */\n      mstore\n        /* \"#utility.yul\":11727:11731   */\n      0x24\n        /* \"#utility.yul\":11724:11725   */\n      0x00\n        /* \"#utility.yul\":11717:11732   */\n      revert\n        /* \"#utility.yul\":11744:12064   */\n    tag_18:\n        /* \"#utility.yul\":11788:11794   */\n      0x00\n        /* \"#utility.yul\":11825:11826   */\n      0x02\n        /* \"#utility.yul\":11819:11823   */\n      dup3\n        /* \"#utility.yul\":11815:11827   */\n      div\n        /* \"#utility.yul\":11805:11827   */\n      swap1\n      pop\n        /* \"#utility.yul\":11872:11873   */\n      0x01\n        /* \"#utility.yul\":11866:11870   */\n      dup3\n        /* \"#utility.yul\":11862:11874   */\n      and\n        /* \"#utility.yul\":11893:11911   */\n      dup1\n        /* \"#utility.yul\":11883:11964   */\n      tag_217\n      jumpi\n        /* \"#utility.yul\":11949:11953   */\n      0x7f\n        /* \"#utility.yul\":11941:11947   */\n      dup3\n        /* \"#utility.yul\":11937:11954   */\n      and\n        /* \"#utility.yul\":11927:11954   */\n      swap2\n      pop\n        /* \"#utility.yul\":11883:11964   */\n    tag_217:\n        /* \"#utility.yul\":12011:12013   */\n      0x20\n        /* \"#utility.yul\":12003:12009   */\n      dup3\n        /* \"#utility.yul\":12000:12014   */\n      lt\n        /* \"#utility.yul\":11980:11998   */\n      dup2\n        /* \"#utility.yul\":11977:12015   */\n      sub\n        /* \"#utility.yul\":11974:12058   */\n      tag_218\n      jumpi\n        /* \"#utility.yul\":12030:12048   */\n      tag_219\n      tag_93\n      jump\t// in\n    tag_219:\n        /* \"#utility.yul\":11974:12058   */\n    tag_218:\n        /* \"#utility.yul\":11795:12064   */\n      pop\n        /* \"#utility.yul\":11744:12064   */\n      swap2\n      swap1\n      pop\n      jump\t// out\n        /* \"#utility.yul\":12070:12211   */\n    tag_94:\n        /* \"#utility.yul\":12119:12123   */\n      0x00\n        /* \"#utility.yul\":12142:12145   */\n      dup2\n        /* \"#utility.yul\":12134:12145   */\n      swap1\n      pop\n        /* \"#utility.yul\":12165:12168   */\n      dup2\n        /* \"#utility.yul\":12162:12163   */\n      0x00\n        /* \"#utility.yul\":12155:12169   */\n      mstore\n        /* \"#utility.yul\":12199:12203   */\n      0x20\n        /* \"#utility.yul\":12196:12197   */\n      0x00\n        /* \"#utility.yul\":12186:12204   */\n      keccak256\n        /* \"#utility.yul\":12178:12204   */\n      swap1\n      pop\n        /* \"#utility.yul\":12070:12211   */\n      swap2\n      swap1\n      pop\n      jump\t// out\n        /* \"#utility.yul\":12217:12310   */\n    tag_95:\n        /* \"#utility.yul\":12254:12260   */\n      0x00\n        /* \"#utility.yul\":12301:12303   */\n      0x20\n        /* \"#utility.yul\":12296:12298   */\n      0x1f\n        /* \"#utility.yul\":12289:12294   */\n      dup4\n        /* \"#utility.yul\":12285:12299   */\n      add\n        /* \"#utility.yul\":12281:12304   */\n      div\n        /* \"#utility.yul\":12271:12304   */\n      swap1\n      pop\n        /* \"#utility.yul\":12217:12310   */\n      swap2\n      swap1\n      pop\n      jump\t// out\n        /* \"#utility.yul\":12316:12423   */\n    tag_96:\n        /* \"#utility.yul\":12360:12368   */\n      0x00\n        /* \"#utility.yul\":12410:12415   */\n      dup3\n        /* \"#utility.yul\":12404:12408   */\n      dup3\n        /* \"#utility.yul\":12400:12416   */\n      shl\n        /* \"#utility.yul\":12379:12416   */\n      swap1\n      pop\n        /* \"#utility.yul\":12316:12423   */\n      swap3\n      swap2\n      pop\n      pop\n      jump\t// out\n        /* \"#utility.yul\":12429:12822   */\n    tag_97:\n        /* \"#utility.yul\":12498:12504   */\n      0x00\n        /* \"#utility.yul\":12548:12549   */\n      0x08\n        /* \"#utility.yul\":12536:12546   */\n      dup4\n        /* \"#utility.yul\":12532:12550   */\n      mul\n        /* \"#utility.yul\":12571:12668   */\n      tag_224\n        /* \"#utility.yul\":12601:12667   */\n      0xffffffffffffffffffffffffffffffffffffffffffffffffffffffffffffffff\n        /* \"#utility.yul\":12590:12599   */\n      dup3\n        /* \"#utility.yul\":12571:12668   */\n      tag_96\n      jump\t// in\n    tag_224:\n        /* \"#utility.yul\":12689:12728   */\n      tag_225\n        /* \"#utility.yul\":12719:12727   */\n      dup7\n        /* \"#utility.yul\":12708:12717   */\n      dup4\n        /* \"#utility.yul\":12689:12728   */\n      tag_96\n      jump\t// in\n    tag_225:\n        /* \"#utility.yul\":12677:12728   */\n      swap6\n      pop\n        /* \"#utility.yul\":12761:12765   */\n      dup1\n        /* \"#utility.yul\":12757:12766   */\n      not\n        /* \"#utility.yul\":12750:12755   */\n      dup5\n        /* \"#utility.yul\":12746:12767   */\n      and\n        /* \"#utility.yul\":12737:12767   */\n      swap4\n      pop\n        /* \"#utility.yul\":12810:12814   */\n      dup1\n        /* \"#utility.yul\":12800:12808   */\n      dup7\n        /* \"#utility.yul\":12796:12815   */\n      and\n        /* \"#utility.yul\":12789:12794   */\n      dup5\n        /* \"#utility.yul\":12786:12816   */\n      or\n        /* \"#utility.yul\":12776:12816   */\n      swap3\n      pop\n        /* \"#utility.yul\":12505:12822   */\n      pop\n      pop\n        /* \"#utility.yul\":12429:12822   */\n      swap4\n      swap3\n      pop\n      pop\n      pop\n      jump\t// out\n        /* \"#utility.yul\":12828:12888   */\n    tag_98:\n        /* \"#utility.yul\":12856:12859   */\n      0x00\n        /* \"#utility.yul\":12877:12882   */\n      dup2\n        /* \"#utility.yul\":12870:12882   */\n      swap1\n      pop\n        /* \"#utility.yul\":12828:12888   */\n      swap2\n      swap1\n      pop\n      jump\t// out\n        /* \"#utility.yul\":12894:13036   */\n    tag_99:\n        /* \"#utility.yul\":12944:12953   */\n      0x00\n        /* \"#utility.yul\":12977:13030   */\n      tag_228\n        /* \"#utility.yul\":12995:13029   */\n      tag_229\n        /* \"#utility.yul\":13004:13028   */\n      tag_230\n        /* \"#utility.yul\":13022:13027   */\n      dup5\n        /* \"#utility.yul\":13004:13028   */\n      tag_60\n      jump\t// in\n    tag_230:\n        /* \"#utility.yul\":12995:13029   */\n      tag_98\n      jump\t// in\n    tag_229:\n        /* \"#utility.yul\":12977:13030   */\n      tag_60\n      jump\t// in\n    tag_228:\n        /* \"#utility.yul\":12964:13030   */\n      swap1\n      pop\n        /* \"#utility.yul\":12894:13036   */\n      swap2\n      swap1\n      pop\n      jump\t// out\n        /* \"#utility.yul\":13042:13117   */\n    tag_100:\n        /* \"#utility.yul\":13085:13088   */\n      0x00\n        /* \"#utility.yul\":13106:13111   */\n      dup2\n        /* \"#utility.yul\":13099:13111   */\n      swap1\n      pop\n        /* \"#utility.yul\":13042:13117   */\n      swap2\n      swap1\n      pop\n      jump\t// out\n        /* \"#utility.yul\":13123:13392   */\n    tag_101:\n        /* \"#utility.yul\":13233:13272   */\n      tag_233\n        /* \"#utility.yul\":13264:13271   */\n      dup4\n        /* \"#utility.yul\":13233:13272   */\n      tag_99\n      jump\t// in\n    tag_233:\n        /* \"#utility.yul\":13294:13385   */\n      tag_234\n        /* \"#utility.yul\":13343:13384   */\n      tag_235\n        /* \"#utility.yul\":13367:13383   */\n      dup3\n        /* \"#utility.yul\":13343:13384   */\n      tag_100\n      jump\t// in\n    tag_235:\n        /* \"#utility.yul\":13335:13341   */\n      dup5\n        /* \"#utility.yul\":13328:13332   */\n      dup5\n        /* \"#utility.yul\":13322:13333   */\n      sload\n        /* \"#utility.yul\":13294:13385   */\n      tag_97\n      jump\t// in\n    tag_234:\n        /* \"#utility.yul\":13288:13292   */\n      dup3\n        /* \"#utility.yul\":13281:13386   */\n      sstore\n        /* \"#utility.yul\":13199:13392   */\n      pop\n        /* \"#utility.yul\":13123:13392   */\n      pop\n      pop\n      pop\n      jump\t// out\n        /* \"#utility.yul\":13398:13471   */\n    tag_102:\n        /* \"#utility.yul\":13443:13446   */\n      0x00\n        /* \"#utility.yul\":13398:13471   */\n      swap1\n      jump\t// out\n        /* \"#utility.yul\":13477:13666   */\n    tag_103:\n        /* \"#utility.yul\":13554:13586   */\n      tag_238\n      tag_102\n      jump\t// in\n    tag_238:\n        /* \"#utility.yul\":13595:13660   */\n      tag_239\n        /* \"#utility.yul\":13653:13659   */\n      dup2\n        /* \"#utility.yul\":13645:13651   */\n      dup5\n        /* \"#utility.yul\":13639:13643   */\n      dup5\n        /* \"#utility.yul\":13595:13660   */\n      tag_101\n      jump\t// in\n    tag_239:\n        /* \"#utility.yul\":13530:13666   */\n      pop\n        /* \"#utility.yul\":13477:13666   */\n      pop\n      pop\n      jump\t// out\n        /* \"#utility.yul\":13672:13858   */\n    tag_104:\n        /* \"#utility.yul\":13732:13852   */\n    tag_241:\n        /* \"#utility.yul\":13749:13752   */\n      dup2\n        /* \"#utility.yul\":13742:13747   */\n      dup2\n        /* \"#utility.yul\":13739:13753   */\n      lt\n        /* \"#utility.yul\":13732:13852   */\n      iszero\n      tag_243\n      jumpi\n        /* \"#utility.yul\":13803:13842   */\n      tag_244\n        /* \"#utility.yul\":13840:13841   */\n      0x00\n        /* \"#utility.yul\":13833:13838   */\n      dup3\n        /* \"#utility.yul\":13803:13842   */\n      tag_103\n      jump\t// in\n    tag_244:\n        /* \"#utility.yul\":13776:13777   */\n      0x01\n        /* \"#utility.yul\":13769:13774   */\n      dup2\n        /* \"#utility.yul\":13765:13778   */\n      add\n        /* \"#utility.yul\":13756:13778   */\n      swap1\n      pop\n        /* \"#utility.yul\":13732:13852   */\n      jump(tag_241)\n    tag_243:\n        /* \"#utility.yul\":13672:13858   */\n      pop\n      pop\n      jump\t// out\n        /* \"#utility.yul\":13864:14407   */\n    tag_105:\n        /* \"#utility.yul\":13965:13967   */\n      0x1f\n        /* \"#utility.yul\":13960:13963   */\n      dup3\n        /* \"#utility.yul\":13957:13968   */\n      gt\n        /* \"#utility.yul\":13954:14400   */\n      iszero\n      tag_246\n      jumpi\n        /* \"#utility.yul\":13999:14037   */\n      tag_247\n        /* \"#utility.yul\":14031:14036   */\n      dup2\n        /* \"#utility.yul\":13999:14037   */\n      tag_94\n      jump\t// in\n    tag_247:\n        /* \"#utility.yul\":14083:14112   */\n      tag_248\n        /* \"#utility.yul\":14101:14111   */\n      dup5\n        /* \"#utility.yul\":14083:14112   */\n      tag_95\n      jump\t// in\n    tag_248:\n        /* \"#utility.yul\":14073:14081   */\n      dup2\n        /* \"#utility.yul\":14069:14113   */\n      add\n        /* \"#utility.yul\":14266:14268   */\n      0x20\n        /* \"#utility.yul\":14254:14264   */\n      dup6\n        /* \"#utility.yul\":14251:14269   */\n      lt\n        /* \"#utility.yul\":14248:14297   */\n      iszero\n      tag_249\n      jumpi\n        /* \"#utility.yul\":14287:14295   */\n      dup2\n        /* \"#utility.yul\":14272:14295   */\n      swap1\n      pop\n        /* \"#utility.yul\":14248:14297   */\n    tag_249:\n        /* \"#utility.yul\":14310:14390   */\n      tag_250\n        /* \"#utility.yul\":14366:14388   */\n      tag_251\n        /* \"#utility.yul\":14384:14387   */\n      dup6\n        /* \"#utility.yul\":14366:14388   */\n      tag_95\n      jump\t// in\n    tag_251:\n        /* \"#utility.yul\":14356:14364   */\n      dup4\n        /* \"#utility.yul\":14352:14389   */\n      add\n        /* \"#utility.yul\":14339:14350   */\n      dup3\n        /* \"#utility.yul\":14310:14390   */\n      tag_104\n      jump\t// in\n    tag_250:\n        /* \"#utility.yul\":13969:14400   */\n      pop\n      pop\n        /* \"#utility.yul\":13954:14400   */\n    tag_246:\n        /* \"#utility.yul\":13864:14407   */\n      pop\n      pop\n      pop\n      jump\t// out\n        /* \"#utility.yul\":14413:14530   */\n    tag_106:\n        /* \"#utility.yul\":14467:14475   */\n      0x00\n        /* \"#utility.yul\":14517:14522   */\n      dup3\n        /* \"#utility.yul\":14511:14515   */\n      dup3\n        /* \"#utility.yul\":14507:14523   */\n      shr\n        /* \"#utility.yul\":14486:14523   */\n      swap1\n      pop\n        /* \"#utility.yul\":14413:14530   */\n      swap3\n      swap2\n      pop\n      pop\n      jump\t// out\n        /* \"#utility.yul\":14536:14705   */\n    tag_107:\n        /* \"#utility.yul\":14580:14586   */\n      0x00\n        /* \"#utility.yul\":14613:14664   */\n      tag_254\n        /* \"#utility.yul\":14661:14662   */\n      0x00\n        /* \"#utility.yul\":14657:14663   */\n      not\n        /* \"#utility.yul\":14649:14654   */\n      dup5\n        /* \"#utility.yul\":14646:14647   */\n      0x08\n        /* \"#utility.yul\":14642:14655   */\n      mul\n        /* \"#utility.yul\":14613:14664   */\n      tag_106\n      jump\t// in\n    tag_254:\n        /* \"#utility.yul\":14609:14665   */\n      not\n        /* \"#utility.yul\":14694:14698   */\n      dup1\n        /* \"#utility.yul\":14688:14692   */\n      dup4\n        /* \"#utility.yul\":14684:14699   */\n      and\n        /* \"#utility.yul\":14674:14699   */\n      swap2\n      pop\n        /* \"#utility.yul\":14587:14705   */\n      pop\n        /* \"#utility.yul\":14536:14705   */\n      swap3\n      swap2\n      pop\n      pop\n      jump\t// out\n        /* \"#utility.yul\":14710:15005   */\n    tag_108:\n        /* \"#utility.yul\":14786:14790   */\n      0x00\n        /* \"#utility.yul\":14932:14961   */\n      tag_256\n        /* \"#utility.yul\":14957:14960   */\n      dup4\n        /* \"#utility.yul\":14951:14955   */\n      dup4\n        /* \"#utility.yul\":14932:14961   */\n      tag_107\n      jump\t// in\n    tag_256:\n        /* \"#utility.yul\":14924:14961   */\n      swap2\n      pop\n        /* \"#utility.yul\":14994:14997   */\n      dup3\n        /* \"#utility.yul\":14991:14992   */\n      0x02\n        /* \"#utility.yul\":14987:14998   */\n      mul\n        /* \"#utility.yul\":14981:14985   */\n      dup3\n        /* \"#utility.yul\":14978:14999   */\n      or\n        /* \"#utility.yul\":14970:14999   */\n      swap1\n      pop\n        /* \"#utility.yul\":14710:15005   */\n      swap3\n      swap2\n      pop\n      pop\n      jump\t// out\n        /* \"#utility.yul\":15010:16405   */\n    tag_35:\n        /* \"#utility.yul\":15127:15164   */\n      tag_258\n        /* \"#utility.yul\":15160:15163   */\n      dup3\n        /* \"#utility.yul\":15127:15164   */\n      tag_62\n      jump\t// in\n    tag_258:\n        /* \"#utility.yul\":15229:15247   */\n      0xffffffffffffffff\n        /* \"#utility.yul\":15221:15227   */\n      dup2\n        /* \"#utility.yul\":15218:15248   */\n      gt\n        /* \"#utility.yul\":15215:15271   */\n      iszero\n      tag_259\n      jumpi\n        /* \"#utility.yul\":15251:15269   */\n      tag_260\n      tag_82\n      jump\t// in\n    tag_260:\n        /* \"#utility.yul\":15215:15271   */\n    tag_259:\n        /* \"#utility.yul\":15295:15333   */\n      tag_261\n        /* \"#utility.yul\":15327:15331   */\n      dup3\n        /* \"#utility.yul\":15321:15332   */\n      sload\n        /* \"#utility.yul\":15295:15333   */\n      tag_18\n      jump\t// in\n    tag_261:\n        /* \"#utility.yul\":15380:15447   */\n      tag_262\n        /* \"#utility.yul\":15440:15446   */\n      dup3\n        /* \"#utility.yul\":15432:15438   */\n      dup3\n        /* \"#utility.yul\":15426:15430   */\n      dup6\n        /* \"#utility.yul\":15380:15447   */\n      tag_105\n      jump\t// in\n    tag_262:\n        /* \"#utility.yul\":15474:15475   */\n      0x00\n        /* \"#utility.yul\":15498:15502   */\n      0x20\n        /* \"#utility.yul\":15485:15502   */\n      swap1\n      pop\n        /* \"#utility.yul\":15530:15532   */\n      0x1f\n        /* \"#utility.yul\":15522:15528   */\n      dup4\n        /* \"#utility.yul\":15519:15533   */\n      gt\n        /* \"#utility.yul\":15547:15548   */\n      0x01\n        /* \"#utility.yul\":15542:16160   */\n      dup2\n      eq\n      tag_264\n      jumpi\n        /* \"#utility.yul\":16204:16205   */\n      0x00\n        /* \"#utility.yul\":16221:16227   */\n      dup5\n        /* \"#utility.yul\":16218:16295   */\n      iszero\n      tag_265\n      jumpi\n        /* \"#utility.yul\":16270:16279   */\n      dup3\n        /* \"#utility.yul\":16265:16268   */\n      dup8\n        /* \"#utility.yul\":16261:16280   */\n      add\n        /* \"#utility.yul\":16255:16281   */\n      mload\n        /* \"#utility.yul\":16246:16281   */\n      swap1\n      pop\n        /* \"#utility.yul\":16218:16295   */\n    tag_265:\n        /* \"#utility.yul\":16321:16388   */\n      tag_266\n        /* \"#utility.yul\":16381:16387   */\n      dup6\n        /* \"#utility.yul\":16374:16379   */\n      dup3\n        /* \"#utility.yul\":16321:16388   */\n      tag_108\n      jump\t// in\n    tag_266:\n        /* \"#utility.yul\":16315:16319   */\n      dup7\n        /* \"#utility.yul\":16308:16389   */\n      sstore\n        /* \"#utility.yul\":16177:16399   */\n      pop\n        /* \"#utility.yul\":15512:16399   */\n      jump(tag_263)\n        /* \"#utility.yul\":15542:16160   */\n    tag_264:\n        /* \"#utility.yul\":15594:15598   */\n      0x1f\n        /* \"#utility.yul\":15590:15599   */\n      not\n        /* \"#utility.yul\":15582:15588   */\n      dup5\n        /* \"#utility.yul\":15578:15600   */\n      and\n        /* \"#utility.yul\":15628:15665   */\n      tag_267\n        /* \"#utility.yul\":15660:15664   */\n      dup7\n        /* \"#utility.yul\":15628:15665   */\n      tag_94\n      jump\t// in\n    tag_267:\n        /* \"#utility.yul\":15687:15688   */\n      0x00\n        /* \"#utility.yul\":15701:15909   */\n    tag_268:\n        /* \"#utility.yul\":15715:15722   */\n      dup3\n        /* \"#utility.yul\":15712:15713   */\n      dup2\n        /* \"#utility.yul\":15709:15723   */\n      lt\n        /* \"#utility.yul\":15701:15909   */\n      iszero\n      tag_270\n      jumpi\n        /* \"#utility.yul\":15794:15803   */\n      dup5\n        /* \"#utility.yul\":15789:15792   */\n      dup10\n        /* \"#utility.yul\":15785:15804   */\n      add\n        /* \"#utility.yul\":15779:15805   */\n      mload\n        /* \"#utility.yul\":15771:15777   */\n      dup3\n        /* \"#utility.yul\":15764:15806   */\n      sstore\n        /* \"#utility.yul\":15845:15846   */\n      0x01\n        /* \"#utility.yul\":15837:15843   */\n      dup3\n        /* \"#utility.yul\":15833:15847   */\n      add\n        /* \"#utility.yul\":15823:15847   */\n      swap2\n      pop\n        /* \"#utility.yul\":15892:15894   */\n      0x20\n        /* \"#utility.yul\":15881:15890   */\n      dup6\n        /* \"#utility.yul\":15877:15895   */\n      add\n        /* \"#utility.yul\":15864:15895   */\n      swap5\n      pop\n        /* \"#utility.yul\":15738:15742   */\n      0x20\n        /* \"#utility.yul\":15735:15736   */\n      dup2\n        /* \"#utility.yul\":15731:15743   */\n      add\n        /* \"#utility.yul\":15726:15743   */\n      swap1\n      pop\n        /* \"#utility.yul\":15701:15909   */\n      jump(tag_268)\n    tag_270:\n        /* \"#utility.yul\":15937:15943   */\n      dup7\n        /* \"#utility.yul\":15928:15935   */\n      dup4\n        /* \"#utility.yul\":15925:15944   */\n      lt\n        /* \"#utility.yul\":15922:16101   */\n      iszero\n      tag_271\n      jumpi\n        /* \"#utility.yul\":15995:16004   */\n      dup5\n        /* \"#utility.yul\":15990:15993   */\n      dup10\n        /* \"#utility.yul\":15986:16005   */\n      add\n        /* \"#utility.yul\":15980:16006   */\n      mload\n        /* \"#utility.yul\":16038:16086   */\n      tag_272\n        /* \"#utility.yul\":16080:16084   */\n      0x1f\n        /* \"#utility.yul\":16072:16078   */\n      dup10\n        /* \"#utility.yul\":16068:16085   */\n      and\n        /* \"#utility.yul\":16057:16066   */\n      dup3\n        /* \"#utility.yul\":16038:16086   */\n      tag_107\n      jump\t// in\n    tag_272:\n        /* \"#utility.yul\":16030:16036   */\n      dup4\n        /* \"#utility.yul\":16023:16087   */\n      sstore\n        /* \"#utility.yul\":15945:16101   */\n      pop\n        /* \"#utility.yul\":15922:16101   */\n    tag_271:\n        /* \"#utility.yul\":16147:16148   */\n      0x01\n        /* \"#utility.yul\":16143:16144   */\n      0x02\n        /* \"#utility.yul\":16135:16141   */\n      dup9\n        /* \"#utility.yul\":16131:16145   */\n      mul\n        /* \"#utility.yul\":16127:16149   */\n      add\n        /* \"#utility.yul\":16121:16125   */\n      dup9\n        /* \"#utility.yul\":16114:16150   */\n      sstore\n        /* \"#utility.yul\":15549:16160   */\n      pop\n      pop\n      pop\n        /* \"#utility.yul\":15512:16399   */\n    tag_263:\n      pop\n        /* \"#utility.yul\":15102:16405   */\n      pop\n      pop\n      pop\n        /* \"#utility.yul\":15010:16405   */\n      pop\n      pop\n      jump\t// out\n        /* \"#utility.yul\":16411:16591   */\n    tag_109:\n        /* \"#utility.yul\":16459:16536   */\n      0x4e487b7100000000000000000000000000000000000000000000000000000000\n        /* \"#utility.yul\":16456:16457   */\n      0x00\n        /* \"#utility.yul\":16449:16537   */\n      mstore\n        /* \"#utility.yul\":16556:16560   */\n      0x11\n        /* \"#utility.yul\":16553:16554   */\n      0x04\n        /* \"#utility.yul\":16546:16561   */\n      mstore\n        /* \"#utility.yul\":16580:16584   */\n      0x24\n        /* \"#utility.yul\":16577:16578   */\n      0x00\n        /* \"#utility.yul\":16570:16585   */\n      revert\n        /* \"#utility.yul\":16597:16830   */\n    tag_39:\n        /* \"#utility.yul\":16636:16639   */\n      0x00\n        /* \"#utility.yul\":16659:16683   */\n      tag_275\n        /* \"#utility.yul\":16677:16682   */\n      dup3\n        /* \"#utility.yul\":16659:16683   */\n      tag_60\n      jump\t// in\n    tag_275:\n        /* \"#utility.yul\":16650:16683   */\n      swap2\n      pop\n        /* \"#utility.yul\":16705:16771   */\n      0xffffffffffffffffffffffffffffffffffffffffffffffffffffffffffffffff\n        /* \"#utility.yul\":16698:16703   */\n      dup3\n        /* \"#utility.yul\":16695:16772   */\n      sub\n        /* \"#utility.yul\":16692:16795   */\n      tag_276\n      jumpi\n        /* \"#utility.yul\":16775:16793   */\n      tag_277\n      tag_109\n      jump\t// in\n    tag_277:\n        /* \"#utility.yul\":16692:16795   */\n    tag_276:\n        /* \"#utility.yul\":16822:16823   */\n      0x01\n        /* \"#utility.yul\":16815:16820   */\n      dup3\n        /* \"#utility.yul\":16811:16824   */\n      add\n        /* \"#utility.yul\":16804:16824   */\n      swap1\n      pop\n        /* \"#utility.yul\":16597:16830   */\n      swap2\n      swap1\n      pop\n      jump\t// out\n\n    auxdata: 0xa2646970667358221220b5ab94fb601c2f712e4d0f98284a9154803100ff7a1a493aa09df94c0367f07664736f6c634300081a0033\n}\n",
				"bytecode": {
					"linkReferences": {},
					"object": "6080604052600180553480156012575f80fd5b50610c27806100205f395ff3fe608060405234801561000f575f80fd5b5060043610610034575f3560e01c80636733877d1461003857806370d5e2fb14610056575b5f80fd5b610040610072565b60405161004d91906105ff565b60405180910390f35b610070600480360381019061006b919061083e565b61023a565b005b60605f805480602002602001604051908101604052809291908181526020015f905b82821015610231578382905f5260205f2090600302016040518060600160405290815f82015481526020016001820180546100ce906108e1565b80601f01602080910402602001604051908101604052809291908181526020018280546100fa906108e1565b80156101455780601f1061011c57610100808354040283529160200191610145565b820191905f5260205f20905b81548152906001019060200180831161012857829003601f168201915b5050505050815260200160028201805480602002602001604051908101604052809291908181526020015f905b8282101561021a578382905f5260205f2001805461018f906108e1565b80601f01602080910402602001604051908101604052809291908181526020018280546101bb906108e1565b80156102065780601f106101dd57610100808354040283529160200191610206565b820191905f5260205f20905b8154815290600101906020018083116101e957829003601f168201915b505050505081526020019060010190610172565b505050508152505081526020019060010190610094565b50505050905090565b5f604051806060016040528060015481526020018481526020018381525090505f81908060018154018082558091505060019003905f5260205f2090600302015f909190919091505f820151815f0155602082015181600101908161029f9190610aae565b5060408201518160020190805190602001906102bc9291906102db565b5050505060015f8154809291906102d290610baa565b91905055505050565b828054828255905f5260205f20908101928215610321579160200282015b828111156103205782518290816103109190610aae565b50916020019190600101906102f9565b5b50905061032e9190610332565b5090565b5b80821115610351575f81816103489190610355565b50600101610333565b5090565b508054610361906108e1565b5f825580601f10610372575061038f565b601f0160209004905f5260205f209081019061038e9190610392565b5b50565b5b808211156103a9575f815f905550600101610393565b5090565b5f81519050919050565b5f82825260208201905092915050565b5f819050602082019050919050565b5f819050919050565b6103e8816103d6565b82525050565b5f81519050919050565b5f82825260208201905092915050565b8281835e5f83830152505050565b5f601f19601f8301169050919050565b5f610430826103ee565b61043a81856103f8565b935061044a818560208601610408565b61045381610416565b840191505092915050565b5f81519050919050565b5f82825260208201905092915050565b5f819050602082019050919050565b5f6104928383610426565b905092915050565b5f602082019050919050565b5f6104b08261045e565b6104ba8185610468565b9350836020820285016104cc85610478565b805f5b8581101561050757848403895281516104e88582610487565b94506104f38361049a565b925060208a019950506001810190506104cf565b50829750879550505050505092915050565b5f606083015f83015161052e5f8601826103df565b50602083015184820360208601526105468282610426565b9150506040830151848203604086015261056082826104a6565b9150508091505092915050565b5f6105788383610519565b905092915050565b5f602082019050919050565b5f610596826103ad565b6105a081856103b7565b9350836020820285016105b2856103c7565b805f5b858110156105ed57848403895281516105ce858261056d565b94506105d983610580565b925060208a019950506001810190506105b5565b50829750879550505050505092915050565b5f6020820190508181035f830152610617818461058c565b905092915050565b5f604051905090565b5f80fd5b5f80fd5b5f80fd5b5f80fd5b7f4e487b71000000000000000000000000000000000000000000000000000000005f52604160045260245ffd5b61066e82610416565b810181811067ffffffffffffffff8211171561068d5761068c610638565b5b80604052505050565b5f61069f61061f565b90506106ab8282610665565b919050565b5f67ffffffffffffffff8211156106ca576106c9610638565b5b6106d382610416565b9050602081019050919050565b828183375f83830152505050565b5f6107006106fb846106b0565b610696565b90508281526020810184848401111561071c5761071b610634565b5b6107278482856106e0565b509392505050565b5f82601f83011261074357610742610630565b5b81356107538482602086016106ee565b91505092915050565b5f67ffffffffffffffff82111561077657610775610638565b5b602082029050602081019050919050565b5f80fd5b5f61079d6107988461075c565b610696565b905080838252602082019050602084028301858111156107c0576107bf610787565b5b835b8181101561080757803567ffffffffffffffff8111156107e5576107e4610630565b5b8086016107f2898261072f565b855260208501945050506020810190506107c2565b5050509392505050565b5f82601f83011261082557610824610630565b5b813561083584826020860161078b565b91505092915050565b5f806040838503121561085457610853610628565b5b5f83013567ffffffffffffffff8111156108715761087061062c565b5b61087d8582860161072f565b925050602083013567ffffffffffffffff81111561089e5761089d61062c565b5b6108aa85828601610811565b9150509250929050565b7f4e487b71000000000000000000000000000000000000000000000000000000005f52602260045260245ffd5b5f60028204905060018216806108f857607f821691505b60208210810361090b5761090a6108b4565b5b50919050565b5f819050815f5260205f209050919050565b5f6020601f8301049050919050565b5f82821b905092915050565b5f6008830261096d7fffffffffffffffffffffffffffffffffffffffffffffffffffffffffffffffff82610932565b6109778683610932565b95508019841693508086168417925050509392505050565b5f819050919050565b5f6109b26109ad6109a8846103d6565b61098f565b6103d6565b9050919050565b5f819050919050565b6109cb83610998565b6109df6109d7826109b9565b84845461093e565b825550505050565b5f90565b6109f36109e7565b6109fe8184846109c2565b505050565b5b81811015610a2157610a165f826109eb565b600181019050610a04565b5050565b601f821115610a6657610a3781610911565b610a4084610923565b81016020851015610a4f578190505b610a63610a5b85610923565b830182610a03565b50505b505050565b5f82821c905092915050565b5f610a865f1984600802610a6b565b1980831691505092915050565b5f610a9e8383610a77565b9150826002028217905092915050565b610ab7826103ee565b67ffffffffffffffff811115610ad057610acf610638565b5b610ada82546108e1565b610ae5828285610a25565b5f60209050601f831160018114610b16575f8415610b04578287015190505b610b0e8582610a93565b865550610b75565b601f198416610b2486610911565b5f5b82811015610b4b57848901518255600182019150602085019450602081019050610b26565b86831015610b685784890151610b64601f891682610a77565b8355505b6001600288020188555050505b505050505050565b7f4e487b71000000000000000000000000000000000000000000000000000000005f52601160045260245ffd5b5f610bb4826103d6565b91507fffffffffffffffffffffffffffffffffffffffffffffffffffffffffffffffff8203610be657610be5610b7d565b5b60018201905091905056fea2646970667358221220b5ab94fb601c2f712e4d0f98284a9154803100ff7a1a493aa09df94c0367f07664736f6c634300081a0033",
					"opcodes": "PUSH1 0x80 PUSH1 0x40 MSTORE PUSH1 0x1 DUP1 SSTORE CALLVALUE DUP1 ISZERO PUSH1 0x12 JUMPI PUSH0 DUP1 REVERT JUMPDEST POP PUSH2 0xC27 DUP1 PUSH2 0x20 PUSH0 CODECOPY PUSH0 RETURN INVALID PUSH1 0x80 PUSH1 0x40 MSTORE CALLVALUE DUP1 ISZERO PUSH2 0xF JUMPI PUSH0 DUP1 REVERT JUMPDEST POP PUSH1 0x4 CALLDATASIZE LT PUSH2 0x34 JUMPI PUSH0 CALLDATALOAD PUSH1 0xE0 SHR DUP1 PUSH4 0x6733877D EQ PUSH2 0x38 JUMPI DUP1 PUSH4 0x70D5E2FB EQ PUSH2 0x56 JUMPI JUMPDEST PUSH0 DUP1 REVERT JUMPDEST PUSH2 0x40 PUSH2 0x72 JUMP JUMPDEST PUSH1 0x40 MLOAD PUSH2 0x4D SWAP2 SWAP1 PUSH2 0x5FF JUMP JUMPDEST PUSH1 0x40 MLOAD DUP1 SWAP2 SUB SWAP1 RETURN JUMPDEST PUSH2 0x70 PUSH1 0x4 DUP1 CALLDATASIZE SUB DUP2 ADD SWAP1 PUSH2 0x6B SWAP2 SWAP1 PUSH2 0x83E JUMP JUMPDEST PUSH2 0x23A JUMP JUMPDEST STOP JUMPDEST PUSH1 0x60 PUSH0 DUP1 SLOAD DUP1 PUSH1 0x20 MUL PUSH1 0x20 ADD PUSH1 0x40 MLOAD SWAP1 DUP2 ADD PUSH1 0x40 MSTORE DUP1 SWAP3 SWAP2 SWAP1 DUP2 DUP2 MSTORE PUSH1 0x20 ADD PUSH0 SWAP1 JUMPDEST DUP3 DUP3 LT ISZERO PUSH2 0x231 JUMPI DUP4 DUP3 SWAP1 PUSH0 MSTORE PUSH1 0x20 PUSH0 KECCAK256 SWAP1 PUSH1 0x3 MUL ADD PUSH1 0x40 MLOAD DUP1 PUSH1 0x60 ADD PUSH1 0x40 MSTORE SWAP1 DUP2 PUSH0 DUP3 ADD SLOAD DUP2 MSTORE PUSH1 0x20 ADD PUSH1 0x1 DUP3 ADD DUP1 SLOAD PUSH2 0xCE SWAP1 PUSH2 0x8E1 JUMP JUMPDEST DUP1 PUSH1 0x1F ADD PUSH1 0x20 DUP1 SWAP2 DIV MUL PUSH1 0x20 ADD PUSH1 0x40 MLOAD SWAP1 DUP2 ADD PUSH1 0x40 MSTORE DUP1 SWAP3 SWAP2 SWAP1 DUP2 DUP2 MSTORE PUSH1 0x20 ADD DUP3 DUP1 SLOAD PUSH2 0xFA SWAP1 PUSH2 0x8E1 JUMP JUMPDEST DUP1 ISZERO PUSH2 0x145 JUMPI DUP1 PUSH1 0x1F LT PUSH2 0x11C JUMPI PUSH2 0x100 DUP1 DUP4 SLOAD DIV MUL DUP4 MSTORE SWAP2 PUSH1 0x20 ADD SWAP2 PUSH2 0x145 JUMP JUMPDEST DUP3 ADD SWAP2 SWAP1 PUSH0 MSTORE PUSH1 0x20 PUSH0 KECCAK256 SWAP1 JUMPDEST DUP2 SLOAD DUP2 MSTORE SWAP1 PUSH1 0x1 ADD SWAP1 PUSH1 0x20 ADD DUP1 DUP4 GT PUSH2 0x128 JUMPI DUP3 SWAP1 SUB PUSH1 0x1F AND DUP3 ADD SWAP2 JUMPDEST POP POP POP POP POP DUP2 MSTORE PUSH1 0x20 ADD PUSH1 0x2 DUP3 ADD DUP1 SLOAD DUP1 PUSH1 0x20 MUL PUSH1 0x20 ADD PUSH1 0x40 MLOAD SWAP1 DUP2 ADD PUSH1 0x40 MSTORE DUP1 SWAP3 SWAP2 SWAP1 DUP2 DUP2 MSTORE PUSH1 0x20 ADD PUSH0 SWAP1 JUMPDEST DUP3 DUP3 LT ISZERO PUSH2 0x21A JUMPI DUP4 DUP3 SWAP1 PUSH0 MSTORE PUSH1 0x20 PUSH0 KECCAK256 ADD DUP1 SLOAD PUSH2 0x18F SWAP1 PUSH2 0x8E1 JUMP JUMPDEST DUP1 PUSH1 0x1F ADD PUSH1 0x20 DUP1 SWAP2 DIV MUL PUSH1 0x20 ADD PUSH1 0x40 MLOAD SWAP1 DUP2 ADD PUSH1 0x40 MSTORE DUP1 SWAP3 SWAP2 SWAP1 DUP2 DUP2 MSTORE PUSH1 0x20 ADD DUP3 DUP1 SLOAD PUSH2 0x1BB SWAP1 PUSH2 0x8E1 JUMP JUMPDEST DUP1 ISZERO PUSH2 0x206 JUMPI DUP1 PUSH1 0x1F LT PUSH2 0x1DD JUMPI PUSH2 0x100 DUP1 DUP4 SLOAD DIV MUL DUP4 MSTORE SWAP2 PUSH1 0x20 ADD SWAP2 PUSH2 0x206 JUMP JUMPDEST DUP3 ADD SWAP2 SWAP1 PUSH0 MSTORE PUSH1 0x20 PUSH0 KECCAK256 SWAP1 JUMPDEST DUP2 SLOAD DUP2 MSTORE SWAP1 PUSH1 0x1 ADD SWAP1 PUSH1 0x20 ADD DUP1 DUP4 GT PUSH2 0x1E9 JUMPI DUP3 SWAP1 SUB PUSH1 0x1F AND DUP3 ADD SWAP2 JUMPDEST POP POP POP POP POP DUP2 MSTORE PUSH1 0x20 ADD SWAP1 PUSH1 0x1 ADD SWAP1 PUSH2 0x172 JUMP JUMPDEST POP POP POP POP DUP2 MSTORE POP POP DUP2 MSTORE PUSH1 0x20 ADD SWAP1 PUSH1 0x1 ADD SWAP1 PUSH2 0x94 JUMP JUMPDEST POP POP POP POP SWAP1 POP SWAP1 JUMP JUMPDEST PUSH0 PUSH1 0x40 MLOAD DUP1 PUSH1 0x60 ADD PUSH1 0x40 MSTORE DUP1 PUSH1 0x1 SLOAD DUP2 MSTORE PUSH1 0x20 ADD DUP5 DUP2 MSTORE PUSH1 0x20 ADD DUP4 DUP2 MSTORE POP SWAP1 POP PUSH0 DUP2 SWAP1 DUP1 PUSH1 0x1 DUP2 SLOAD ADD DUP1 DUP3 SSTORE DUP1 SWAP2 POP POP PUSH1 0x1 SWAP1 SUB SWAP1 PUSH0 MSTORE PUSH1 0x20 PUSH0 KECCAK256 SWAP1 PUSH1 0x3 MUL ADD PUSH0 SWAP1 SWAP2 SWAP1 SWAP2 SWAP1 SWAP2 POP PUSH0 DUP3 ADD MLOAD DUP2 PUSH0 ADD SSTORE PUSH1 0x20 DUP3 ADD MLOAD DUP2 PUSH1 0x1 ADD SWAP1 DUP2 PUSH2 0x29F SWAP2 SWAP1 PUSH2 0xAAE JUMP JUMPDEST POP PUSH1 0x40 DUP3 ADD MLOAD DUP2 PUSH1 0x2 ADD SWAP1 DUP1 MLOAD SWAP1 PUSH1 0x20 ADD SWAP1 PUSH2 0x2BC SWAP3 SWAP2 SWAP1 PUSH2 0x2DB JUMP JUMPDEST POP POP POP POP PUSH1 0x1 PUSH0 DUP2 SLOAD DUP1 SWAP3 SWAP2 SWAP1 PUSH2 0x2D2 SWAP1 PUSH2 0xBAA JUMP JUMPDEST SWAP2 SWAP1 POP SSTORE POP POP POP JUMP JUMPDEST DUP3 DUP1 SLOAD DUP3 DUP3 SSTORE SWAP1 PUSH0 MSTORE PUSH1 0x20 PUSH0 KECCAK256 SWAP1 DUP2 ADD SWAP3 DUP3 ISZERO PUSH2 0x321 JUMPI SWAP2 PUSH1 0x20 MUL DUP3 ADD JUMPDEST DUP3 DUP2 GT ISZERO PUSH2 0x320 JUMPI DUP3 MLOAD DUP3 SWAP1 DUP2 PUSH2 0x310 SWAP2 SWAP1 PUSH2 0xAAE JUMP JUMPDEST POP SWAP2 PUSH1 0x20 ADD SWAP2 SWAP1 PUSH1 0x1 ADD SWAP1 PUSH2 0x2F9 JUMP JUMPDEST JUMPDEST POP SWAP1 POP PUSH2 0x32E SWAP2 SWAP1 PUSH2 0x332 JUMP JUMPDEST POP SWAP1 JUMP JUMPDEST JUMPDEST DUP1 DUP3 GT ISZERO PUSH2 0x351 JUMPI PUSH0 DUP2 DUP2 PUSH2 0x348 SWAP2 SWAP1 PUSH2 0x355 JUMP JUMPDEST POP PUSH1 0x1 ADD PUSH2 0x333 JUMP JUMPDEST POP SWAP1 JUMP JUMPDEST POP DUP1 SLOAD PUSH2 0x361 SWAP1 PUSH2 0x8E1 JUMP JUMPDEST PUSH0 DUP3 SSTORE DUP1 PUSH1 0x1F LT PUSH2 0x372 JUMPI POP PUSH2 0x38F JUMP JUMPDEST PUSH1 0x1F ADD PUSH1 0x20 SWAP1 DIV SWAP1 PUSH0 MSTORE PUSH1 0x20 PUSH0 KECCAK256 SWAP1 DUP2 ADD SWAP1 PUSH2 0x38E SWAP2 SWAP1 PUSH2 0x392 JUMP JUMPDEST JUMPDEST POP JUMP JUMPDEST JUMPDEST DUP1 DUP3 GT ISZERO PUSH2 0x3A9 JUMPI PUSH0 DUP2 PUSH0 SWAP1 SSTORE POP PUSH1 0x1 ADD PUSH2 0x393 JUMP JUMPDEST POP SWAP1 JUMP JUMPDEST PUSH0 DUP2 MLOAD SWAP1 POP SWAP2 SWAP1 POP JUMP JUMPDEST PUSH0 DUP3 DUP3 MSTORE PUSH1 0x20 DUP3 ADD SWAP1 POP SWAP3 SWAP2 POP POP JUMP JUMPDEST PUSH0 DUP2 SWAP1 POP PUSH1 0x20 DUP3 ADD SWAP1 POP SWAP2 SWAP1 POP JUMP JUMPDEST PUSH0 DUP2 SWAP1 POP SWAP2 SWAP1 POP JUMP JUMPDEST PUSH2 0x3E8 DUP2 PUSH2 0x3D6 JUMP JUMPDEST DUP3 MSTORE POP POP JUMP JUMPDEST PUSH0 DUP2 MLOAD SWAP1 POP SWAP2 SWAP1 POP JUMP JUMPDEST PUSH0 DUP3 DUP3 MSTORE PUSH1 0x20 DUP3 ADD SWAP1 POP SWAP3 SWAP2 POP POP JUMP JUMPDEST DUP3 DUP2 DUP4 MCOPY PUSH0 DUP4 DUP4 ADD MSTORE POP POP POP JUMP JUMPDEST PUSH0 PUSH1 0x1F NOT PUSH1 0x1F DUP4 ADD AND SWAP1 POP SWAP2 SWAP1 POP JUMP JUMPDEST PUSH0 PUSH2 0x430 DUP3 PUSH2 0x3EE JUMP JUMPDEST PUSH2 0x43A DUP2 DUP6 PUSH2 0x3F8 JUMP JUMPDEST SWAP4 POP PUSH2 0x44A DUP2 DUP6 PUSH1 0x20 DUP7 ADD PUSH2 0x408 JUMP JUMPDEST PUSH2 0x453 DUP2 PUSH2 0x416 JUMP JUMPDEST DUP5 ADD SWAP2 POP POP SWAP3 SWAP2 POP POP JUMP JUMPDEST PUSH0 DUP2 MLOAD SWAP1 POP SWAP2 SWAP1 POP JUMP JUMPDEST PUSH0 DUP3 DUP3 MSTORE PUSH1 0x20 DUP3 ADD SWAP1 POP SWAP3 SWAP2 POP POP JUMP JUMPDEST PUSH0 DUP2 SWAP1 POP PUSH1 0x20 DUP3 ADD SWAP1 POP SWAP2 SWAP1 POP JUMP JUMPDEST PUSH0 PUSH2 0x492 DUP4 DUP4 PUSH2 0x426 JUMP JUMPDEST SWAP1 POP SWAP3 SWAP2 POP POP JUMP JUMPDEST PUSH0 PUSH1 0x20 DUP3 ADD SWAP1 POP SWAP2 SWAP1 POP JUMP JUMPDEST PUSH0 PUSH2 0x4B0 DUP3 PUSH2 0x45E JUMP JUMPDEST PUSH2 0x4BA DUP2 DUP6 PUSH2 0x468 JUMP JUMPDEST SWAP4 POP DUP4 PUSH1 0x20 DUP3 MUL DUP6 ADD PUSH2 0x4CC DUP6 PUSH2 0x478 JUMP JUMPDEST DUP1 PUSH0 JUMPDEST DUP6 DUP2 LT ISZERO PUSH2 0x507 JUMPI DUP5 DUP5 SUB DUP10 MSTORE DUP2 MLOAD PUSH2 0x4E8 DUP6 DUP3 PUSH2 0x487 JUMP JUMPDEST SWAP5 POP PUSH2 0x4F3 DUP4 PUSH2 0x49A JUMP JUMPDEST SWAP3 POP PUSH1 0x20 DUP11 ADD SWAP10 POP POP PUSH1 0x1 DUP2 ADD SWAP1 POP PUSH2 0x4CF JUMP JUMPDEST POP DUP3 SWAP8 POP DUP8 SWAP6 POP POP POP POP POP POP SWAP3 SWAP2 POP POP JUMP JUMPDEST PUSH0 PUSH1 0x60 DUP4 ADD PUSH0 DUP4 ADD MLOAD PUSH2 0x52E PUSH0 DUP7 ADD DUP3 PUSH2 0x3DF JUMP JUMPDEST POP PUSH1 0x20 DUP4 ADD MLOAD DUP5 DUP3 SUB PUSH1 0x20 DUP7 ADD MSTORE PUSH2 0x546 DUP3 DUP3 PUSH2 0x426 JUMP JUMPDEST SWAP2 POP POP PUSH1 0x40 DUP4 ADD MLOAD DUP5 DUP3 SUB PUSH1 0x40 DUP7 ADD MSTORE PUSH2 0x560 DUP3 DUP3 PUSH2 0x4A6 JUMP JUMPDEST SWAP2 POP POP DUP1 SWAP2 POP POP SWAP3 SWAP2 POP POP JUMP JUMPDEST PUSH0 PUSH2 0x578 DUP4 DUP4 PUSH2 0x519 JUMP JUMPDEST SWAP1 POP SWAP3 SWAP2 POP POP JUMP JUMPDEST PUSH0 PUSH1 0x20 DUP3 ADD SWAP1 POP SWAP2 SWAP1 POP JUMP JUMPDEST PUSH0 PUSH2 0x596 DUP3 PUSH2 0x3AD JUMP JUMPDEST PUSH2 0x5A0 DUP2 DUP6 PUSH2 0x3B7 JUMP JUMPDEST SWAP4 POP DUP4 PUSH1 0x20 DUP3 MUL DUP6 ADD PUSH2 0x5B2 DUP6 PUSH2 0x3C7 JUMP JUMPDEST DUP1 PUSH0 JUMPDEST DUP6 DUP2 LT ISZERO PUSH2 0x5ED JUMPI DUP5 DUP5 SUB DUP10 MSTORE DUP2 MLOAD PUSH2 0x5CE DUP6 DUP3 PUSH2 0x56D JUMP JUMPDEST SWAP5 POP PUSH2 0x5D9 DUP4 PUSH2 0x580 JUMP JUMPDEST SWAP3 POP PUSH1 0x20 DUP11 ADD SWAP10 POP POP PUSH1 0x1 DUP2 ADD SWAP1 POP PUSH2 0x5B5 JUMP JUMPDEST POP DUP3 SWAP8 POP DUP8 SWAP6 POP POP POP POP POP POP SWAP3 SWAP2 POP POP JUMP JUMPDEST PUSH0 PUSH1 0x20 DUP3 ADD SWAP1 POP DUP2 DUP2 SUB PUSH0 DUP4 ADD MSTORE PUSH2 0x617 DUP2 DUP5 PUSH2 0x58C JUMP JUMPDEST SWAP1 POP SWAP3 SWAP2 POP POP JUMP JUMPDEST PUSH0 PUSH1 0x40 MLOAD SWAP1 POP SWAP1 JUMP JUMPDEST PUSH0 DUP1 REVERT JUMPDEST PUSH0 DUP1 REVERT JUMPDEST PUSH0 DUP1 REVERT JUMPDEST PUSH0 DUP1 REVERT JUMPDEST PUSH32 0x4E487B7100000000000000000000000000000000000000000000000000000000 PUSH0 MSTORE PUSH1 0x41 PUSH1 0x4 MSTORE PUSH1 0x24 PUSH0 REVERT JUMPDEST PUSH2 0x66E DUP3 PUSH2 0x416 JUMP JUMPDEST DUP2 ADD DUP2 DUP2 LT PUSH8 0xFFFFFFFFFFFFFFFF DUP3 GT OR ISZERO PUSH2 0x68D JUMPI PUSH2 0x68C PUSH2 0x638 JUMP JUMPDEST JUMPDEST DUP1 PUSH1 0x40 MSTORE POP POP POP JUMP JUMPDEST PUSH0 PUSH2 0x69F PUSH2 0x61F JUMP JUMPDEST SWAP1 POP PUSH2 0x6AB DUP3 DUP3 PUSH2 0x665 JUMP JUMPDEST SWAP2 SWAP1 POP JUMP JUMPDEST PUSH0 PUSH8 0xFFFFFFFFFFFFFFFF DUP3 GT ISZERO PUSH2 0x6CA JUMPI PUSH2 0x6C9 PUSH2 0x638 JUMP JUMPDEST JUMPDEST PUSH2 0x6D3 DUP3 PUSH2 0x416 JUMP JUMPDEST SWAP1 POP PUSH1 0x20 DUP2 ADD SWAP1 POP SWAP2 SWAP1 POP JUMP JUMPDEST DUP3 DUP2 DUP4 CALLDATACOPY PUSH0 DUP4 DUP4 ADD MSTORE POP POP POP JUMP JUMPDEST PUSH0 PUSH2 0x700 PUSH2 0x6FB DUP5 PUSH2 0x6B0 JUMP JUMPDEST PUSH2 0x696 JUMP JUMPDEST SWAP1 POP DUP3 DUP2 MSTORE PUSH1 0x20 DUP2 ADD DUP5 DUP5 DUP5 ADD GT ISZERO PUSH2 0x71C JUMPI PUSH2 0x71B PUSH2 0x634 JUMP JUMPDEST JUMPDEST PUSH2 0x727 DUP5 DUP3 DUP6 PUSH2 0x6E0 JUMP JUMPDEST POP SWAP4 SWAP3 POP POP POP JUMP JUMPDEST PUSH0 DUP3 PUSH1 0x1F DUP4 ADD SLT PUSH2 0x743 JUMPI PUSH2 0x742 PUSH2 0x630 JUMP JUMPDEST JUMPDEST DUP2 CALLDATALOAD PUSH2 0x753 DUP5 DUP3 PUSH1 0x20 DUP7 ADD PUSH2 0x6EE JUMP JUMPDEST SWAP2 POP POP SWAP3 SWAP2 POP POP JUMP JUMPDEST PUSH0 PUSH8 0xFFFFFFFFFFFFFFFF DUP3 GT ISZERO PUSH2 0x776 JUMPI PUSH2 0x775 PUSH2 0x638 JUMP JUMPDEST JUMPDEST PUSH1 0x20 DUP3 MUL SWAP1 POP PUSH1 0x20 DUP2 ADD SWAP1 POP SWAP2 SWAP1 POP JUMP JUMPDEST PUSH0 DUP1 REVERT JUMPDEST PUSH0 PUSH2 0x79D PUSH2 0x798 DUP5 PUSH2 0x75C JUMP JUMPDEST PUSH2 0x696 JUMP JUMPDEST SWAP1 POP DUP1 DUP4 DUP3 MSTORE PUSH1 0x20 DUP3 ADD SWAP1 POP PUSH1 0x20 DUP5 MUL DUP4 ADD DUP6 DUP2 GT ISZERO PUSH2 0x7C0 JUMPI PUSH2 0x7BF PUSH2 0x787 JUMP JUMPDEST JUMPDEST DUP4 JUMPDEST DUP2 DUP2 LT ISZERO PUSH2 0x807 JUMPI DUP1 CALLDATALOAD PUSH8 0xFFFFFFFFFFFFFFFF DUP2 GT ISZERO PUSH2 0x7E5 JUMPI PUSH2 0x7E4 PUSH2 0x630 JUMP JUMPDEST JUMPDEST DUP1 DUP7 ADD PUSH2 0x7F2 DUP10 DUP3 PUSH2 0x72F JUMP JUMPDEST DUP6 MSTORE PUSH1 0x20 DUP6 ADD SWAP5 POP POP POP PUSH1 0x20 DUP2 ADD SWAP1 POP PUSH2 0x7C2 JUMP JUMPDEST POP POP POP SWAP4 SWAP3 POP POP POP JUMP JUMPDEST PUSH0 DUP3 PUSH1 0x1F DUP4 ADD SLT PUSH2 0x825 JUMPI PUSH2 0x824 PUSH2 0x630 JUMP JUMPDEST JUMPDEST DUP2 CALLDATALOAD PUSH2 0x835 DUP5 DUP3 PUSH1 0x20 DUP7 ADD PUSH2 0x78B JUMP JUMPDEST SWAP2 POP POP SWAP3 SWAP2 POP POP JUMP JUMPDEST PUSH0 DUP1 PUSH1 0x40 DUP4 DUP6 SUB SLT ISZERO PUSH2 0x854 JUMPI PUSH2 0x853 PUSH2 0x628 JUMP JUMPDEST JUMPDEST PUSH0 DUP4 ADD CALLDATALOAD PUSH8 0xFFFFFFFFFFFFFFFF DUP2 GT ISZERO PUSH2 0x871 JUMPI PUSH2 0x870 PUSH2 0x62C JUMP JUMPDEST JUMPDEST PUSH2 0x87D DUP6 DUP3 DUP7 ADD PUSH2 0x72F JUMP JUMPDEST SWAP3 POP POP PUSH1 0x20 DUP4 ADD CALLDATALOAD PUSH8 0xFFFFFFFFFFFFFFFF DUP2 GT ISZERO PUSH2 0x89E JUMPI PUSH2 0x89D PUSH2 0x62C JUMP JUMPDEST JUMPDEST PUSH2 0x8AA DUP6 DUP3 DUP7 ADD PUSH2 0x811 JUMP JUMPDEST SWAP2 POP POP SWAP3 POP SWAP3 SWAP1 POP JUMP JUMPDEST PUSH32 0x4E487B7100000000000000000000000000000000000000000000000000000000 PUSH0 MSTORE PUSH1 0x22 PUSH1 0x4 MSTORE PUSH1 0x24 PUSH0 REVERT JUMPDEST PUSH0 PUSH1 0x2 DUP3 DIV SWAP1 POP PUSH1 0x1 DUP3 AND DUP1 PUSH2 0x8F8 JUMPI PUSH1 0x7F DUP3 AND SWAP2 POP JUMPDEST PUSH1 0x20 DUP3 LT DUP2 SUB PUSH2 0x90B JUMPI PUSH2 0x90A PUSH2 0x8B4 JUMP JUMPDEST JUMPDEST POP SWAP2 SWAP1 POP JUMP JUMPDEST PUSH0 DUP2 SWAP1 POP DUP2 PUSH0 MSTORE PUSH1 0x20 PUSH0 KECCAK256 SWAP1 POP SWAP2 SWAP1 POP JUMP JUMPDEST PUSH0 PUSH1 0x20 PUSH1 0x1F DUP4 ADD DIV SWAP1 POP SWAP2 SWAP1 POP JUMP JUMPDEST PUSH0 DUP3 DUP3 SHL SWAP1 POP SWAP3 SWAP2 POP POP JUMP JUMPDEST PUSH0 PUSH1 0x8 DUP4 MUL PUSH2 0x96D PUSH32 0xFFFFFFFFFFFFFFFFFFFFFFFFFFFFFFFFFFFFFFFFFFFFFFFFFFFFFFFFFFFFFFFF DUP3 PUSH2 0x932 JUMP JUMPDEST PUSH2 0x977 DUP7 DUP4 PUSH2 0x932 JUMP JUMPDEST SWAP6 POP DUP1 NOT DUP5 AND SWAP4 POP DUP1 DUP7 AND DUP5 OR SWAP3 POP POP POP SWAP4 SWAP3 POP POP POP JUMP JUMPDEST PUSH0 DUP2 SWAP1 POP SWAP2 SWAP1 POP JUMP JUMPDEST PUSH0 PUSH2 0x9B2 PUSH2 0x9AD PUSH2 0x9A8 DUP5 PUSH2 0x3D6 JUMP JUMPDEST PUSH2 0x98F JUMP JUMPDEST PUSH2 0x3D6 JUMP JUMPDEST SWAP1 POP SWAP2 SWAP1 POP JUMP JUMPDEST PUSH0 DUP2 SWAP1 POP SWAP2 SWAP1 POP JUMP JUMPDEST PUSH2 0x9CB DUP4 PUSH2 0x998 JUMP JUMPDEST PUSH2 0x9DF PUSH2 0x9D7 DUP3 PUSH2 0x9B9 JUMP JUMPDEST DUP5 DUP5 SLOAD PUSH2 0x93E JUMP JUMPDEST DUP3 SSTORE POP POP POP POP JUMP JUMPDEST PUSH0 SWAP1 JUMP JUMPDEST PUSH2 0x9F3 PUSH2 0x9E7 JUMP JUMPDEST PUSH2 0x9FE DUP2 DUP5 DUP5 PUSH2 0x9C2 JUMP JUMPDEST POP POP POP JUMP JUMPDEST JUMPDEST DUP2 DUP2 LT ISZERO PUSH2 0xA21 JUMPI PUSH2 0xA16 PUSH0 DUP3 PUSH2 0x9EB JUMP JUMPDEST PUSH1 0x1 DUP2 ADD SWAP1 POP PUSH2 0xA04 JUMP JUMPDEST POP POP JUMP JUMPDEST PUSH1 0x1F DUP3 GT ISZERO PUSH2 0xA66 JUMPI PUSH2 0xA37 DUP2 PUSH2 0x911 JUMP JUMPDEST PUSH2 0xA40 DUP5 PUSH2 0x923 JUMP JUMPDEST DUP2 ADD PUSH1 0x20 DUP6 LT ISZERO PUSH2 0xA4F JUMPI DUP2 SWAP1 POP JUMPDEST PUSH2 0xA63 PUSH2 0xA5B DUP6 PUSH2 0x923 JUMP JUMPDEST DUP4 ADD DUP3 PUSH2 0xA03 JUMP JUMPDEST POP POP JUMPDEST POP POP POP JUMP JUMPDEST PUSH0 DUP3 DUP3 SHR SWAP1 POP SWAP3 SWAP2 POP POP JUMP JUMPDEST PUSH0 PUSH2 0xA86 PUSH0 NOT DUP5 PUSH1 0x8 MUL PUSH2 0xA6B JUMP JUMPDEST NOT DUP1 DUP4 AND SWAP2 POP POP SWAP3 SWAP2 POP POP JUMP JUMPDEST PUSH0 PUSH2 0xA9E DUP4 DUP4 PUSH2 0xA77 JUMP JUMPDEST SWAP2 POP DUP3 PUSH1 0x2 MUL DUP3 OR SWAP1 POP SWAP3 SWAP2 POP POP JUMP JUMPDEST PUSH2 0xAB7 DUP3 PUSH2 0x3EE JUMP JUMPDEST PUSH8 0xFFFFFFFFFFFFFFFF DUP2 GT ISZERO PUSH2 0xAD0 JUMPI PUSH2 0xACF PUSH2 0x638 JUMP JUMPDEST JUMPDEST PUSH2 0xADA DUP3 SLOAD PUSH2 0x8E1 JUMP JUMPDEST PUSH2 0xAE5 DUP3 DUP3 DUP6 PUSH2 0xA25 JUMP JUMPDEST PUSH0 PUSH1 0x20 SWAP1 POP PUSH1 0x1F DUP4 GT PUSH1 0x1 DUP2 EQ PUSH2 0xB16 JUMPI PUSH0 DUP5 ISZERO PUSH2 0xB04 JUMPI DUP3 DUP8 ADD MLOAD SWAP1 POP JUMPDEST PUSH2 0xB0E DUP6 DUP3 PUSH2 0xA93 JUMP JUMPDEST DUP7 SSTORE POP PUSH2 0xB75 JUMP JUMPDEST PUSH1 0x1F NOT DUP5 AND PUSH2 0xB24 DUP7 PUSH2 0x911 JUMP JUMPDEST PUSH0 JUMPDEST DUP3 DUP2 LT ISZERO PUSH2 0xB4B JUMPI DUP5 DUP10 ADD MLOAD DUP3 SSTORE PUSH1 0x1 DUP3 ADD SWAP2 POP PUSH1 0x20 DUP6 ADD SWAP5 POP PUSH1 0x20 DUP2 ADD SWAP1 POP PUSH2 0xB26 JUMP JUMPDEST DUP7 DUP4 LT ISZERO PUSH2 0xB68 JUMPI DUP5 DUP10 ADD MLOAD PUSH2 0xB64 PUSH1 0x1F DUP10 AND DUP3 PUSH2 0xA77 JUMP JUMPDEST DUP4 SSTORE POP JUMPDEST PUSH1 0x1 PUSH1 0x2 DUP9 MUL ADD DUP9 SSTORE POP POP POP JUMPDEST POP POP POP POP POP POP JUMP JUMPDEST PUSH32 0x4E487B7100000000000000000000000000000000000000000000000000000000 PUSH0 MSTORE PUSH1 0x11 PUSH1 0x4 MSTORE PUSH1 0x24 PUSH0 REVERT JUMPDEST PUSH0 PUSH2 0xBB4 DUP3 PUSH2 0x3D6 JUMP JUMPDEST SWAP2 POP PUSH32 0xFFFFFFFFFFFFFFFFFFFFFFFFFFFFFFFFFFFFFFFFFFFFFFFFFFFFFFFFFFFFFFFF DUP3 SUB PUSH2 0xBE6 JUMPI PUSH2 0xBE5 PUSH2 0xB7D JUMP JUMPDEST JUMPDEST PUSH1 0x1 DUP3 ADD SWAP1 POP SWAP2 SWAP1 POP JUMP INVALID LOG2 PUSH5 0x6970667358 0x22 SLT KECCAK256 0xB5 0xAB SWAP5 0xFB PUSH1 0x1C 0x2F PUSH18 0x2E4D0F98284A9154803100FF7A1A493AA09D 0xF9 0x4C SUB PUSH8 0xF07664736F6C6343 STOP ADDMOD BYTE STOP CALLER "
				},
				"gasEstimates": {
					"creation": {
						"codeDepositCost": "622200",
						"executionCost": "22761",
						"totalCost": "644961"
					},
					"external": {
						"addStudent(string,string[])": "infinite",
						"getStudnets()": "infinite"
					}
				},
				"methodIdentifiers": {
					"addStudent(string,string[])": "70d5e2fb",
					"getStudnets()": "6733877d"
				}
			},
			"storageLayout": {
				"storage": [
					{
						"astId": 160,
						"contract": "solidity100/solidity10_250103.sol:Q14",
						"label": "students",
						"offset": 0,
						"slot": "0",
						"type": "t_array(t_struct(STUDENT)156_storage)dyn_storage"
					},
					{
						"astId": 163,
						"contract": "solidity100/solidity10_250103.sol:Q14",
						"label": "index",
						"offset": 0,
						"slot": "1",
						"type": "t_uint256"
					}
				],
				"types": {
					"t_array(t_string_storage)dyn_storage": {
						"base": "t_string_storage",
						"encoding": "dynamic_array",
						"label": "string[]",
						"numberOfBytes": "32"
					},
					"t_array(t_struct(STUDENT)156_storage)dyn_storage": {
						"base": "t_struct(STUDENT)156_storage",
						"encoding": "dynamic_array",
						"label": "struct Q14.STUDENT[]",
						"numberOfBytes": "32"
					},
					"t_string_storage": {
						"encoding": "bytes",
						"label": "string",
						"numberOfBytes": "32"
					},
					"t_struct(STUDENT)156_storage": {
						"encoding": "inplace",
						"label": "struct Q14.STUDENT",
						"members": [
							{
								"astId": 150,
								"contract": "solidity100/solidity10_250103.sol:Q14",
								"label": "number",
								"offset": 0,
								"slot": "0",
								"type": "t_uint256"
							},
							{
								"astId": 152,
								"contract": "solidity100/solidity10_250103.sol:Q14",
								"label": "name",
								"offset": 0,
								"slot": "1",
								"type": "t_string_storage"
							},
							{
								"astId": 155,
								"contract": "solidity100/solidity10_250103.sol:Q14",
								"label": "classes",
								"offset": 0,
								"slot": "2",
								"type": "t_array(t_string_storage)dyn_storage"
							}
						],
						"numberOfBytes": "96"
					},
					"t_uint256": {
						"encoding": "inplace",
						"label": "uint256",
						"numberOfBytes": "32"
					}
				}
			},
			"userdoc": {
				"kind": "user",
				"methods": {},
				"version": 1
			}
		}
	}
}