{
	"solidity100/solidity10_250103.sol": {
		"Q17": {
			"abi": [
				{
					"inputs": [
						{
							"internalType": "string",
							"name": "_name",
							"type": "string"
						}
					],
					"name": "BobIsTrue",
					"outputs": [
						{
							"internalType": "bool",
							"name": "",
							"type": "bool"
						}
					],
					"stateMutability": "pure",
					"type": "function"
				}
			],
			"devdoc": {
				"kind": "dev",
				"methods": {},
				"version": 1
			},
			"evm": {
				"assembly": "    /* \"solidity100/solidity10_250103.sol\":3728:4217  contract Q17 {... */\n  mstore(0x40, 0x80)\n  callvalue\n  dup1\n  iszero\n  tag_1\n  jumpi\n  0x00\n  dup1\n  revert\ntag_1:\n  pop\n  dataSize(sub_0)\n  dup1\n  dataOffset(sub_0)\n  0x00\n  codecopy\n  0x00\n  return\nstop\n\nsub_0: assembly {\n        /* \"solidity100/solidity10_250103.sol\":3728:4217  contract Q17 {... */\n      mstore(0x40, 0x80)\n      callvalue\n      dup1\n      iszero\n      tag_1\n      jumpi\n      0x00\n      dup1\n      revert\n    tag_1:\n      pop\n      jumpi(tag_2, lt(calldatasize, 0x04))\n      shr(0xe0, calldataload(0x00))\n      dup1\n      0xb9029245\n      eq\n      tag_3\n      jumpi\n    tag_2:\n      0x00\n      dup1\n      revert\n        /* \"solidity100/solidity10_250103.sol\":4078:4215  function BobIsTrue(string memory _name) public pure returns (bool) {... */\n    tag_3:\n      tag_4\n      0x04\n      dup1\n      calldatasize\n      sub\n      dup2\n      add\n      swap1\n      tag_5\n      swap2\n      swap1\n      tag_6\n      jump\t// in\n    tag_5:\n      tag_7\n      jump\t// in\n    tag_4:\n      mload(0x40)\n      tag_8\n      swap2\n      swap1\n      tag_9\n      jump\t// in\n    tag_8:\n      mload(0x40)\n      dup1\n      swap2\n      sub\n      swap1\n      return\n    tag_7:\n        /* \"solidity100/solidity10_250103.sol\":4139:4143  bool */\n      0x00\n        /* \"solidity100/solidity10_250103.sol\":4187:4207  stringToBytes(\"Bob\") */\n      tag_11\n      mload(0x40)\n      dup1\n      0x40\n      add\n      0x40\n      mstore\n      dup1\n      0x03\n      dup2\n      mstore\n      0x20\n      add\n      0x426f620000000000000000000000000000000000000000000000000000000000\n      dup2\n      mstore\n      pop\n        /* \"solidity100/solidity10_250103.sol\":4187:4200  stringToBytes */\n      tag_12\n        /* \"solidity100/solidity10_250103.sol\":4187:4207  stringToBytes(\"Bob\") */\n      jump\t// in\n    tag_11:\n        /* \"solidity100/solidity10_250103.sol\":4163:4183  stringToBytes(_name) */\n      tag_13\n        /* \"solidity100/solidity10_250103.sol\":4177:4182  _name */\n      dup4\n        /* \"solidity100/solidity10_250103.sol\":4163:4176  stringToBytes */\n      tag_12\n        /* \"solidity100/solidity10_250103.sol\":4163:4183  stringToBytes(_name) */\n      jump\t// in\n    tag_13:\n        /* \"solidity100/solidity10_250103.sol\":4163:4207  stringToBytes(_name) == stringToBytes(\"Bob\") */\n      eq\n        /* \"solidity100/solidity10_250103.sol\":4155:4208  return (stringToBytes(_name) == stringToBytes(\"Bob\")) */\n      swap1\n      pop\n        /* \"solidity100/solidity10_250103.sol\":4078:4215  function BobIsTrue(string memory _name) public pure returns (bool) {... */\n      swap2\n      swap1\n      pop\n      jump\t// out\n        /* \"solidity100/solidity10_250103.sol\":3944:4072  function stringToBytes(string memory _s) internal pure returns (bytes32) {... */\n    tag_12:\n        /* \"solidity100/solidity10_250103.sol\":4008:4015  bytes32 */\n      0x00\n        /* \"solidity100/solidity10_250103.sol\":4061:4063  _s */\n      dup2\n        /* \"solidity100/solidity10_250103.sol\":4044:4064  abi.encodePacked(_s) */\n      add(0x20, mload(0x40))\n      tag_15\n      swap2\n      swap1\n      tag_16\n      jump\t// in\n    tag_15:\n      mload(0x40)\n      0x20\n      dup2\n      dup4\n      sub\n      sub\n      dup2\n      mstore\n      swap1\n      0x40\n      mstore\n        /* \"solidity100/solidity10_250103.sol\":4034:4065  keccak256(abi.encodePacked(_s)) */\n      dup1\n      mload\n      swap1\n      0x20\n      add\n      keccak256\n        /* \"solidity100/solidity10_250103.sol\":4027:4065  return keccak256(abi.encodePacked(_s)) */\n      swap1\n      pop\n        /* \"solidity100/solidity10_250103.sol\":3944:4072  function stringToBytes(string memory _s) internal pure returns (bytes32) {... */\n      swap2\n      swap1\n      pop\n      jump\t// out\n        /* \"#utility.yul\":7:82   */\n    tag_17:\n        /* \"#utility.yul\":40:46   */\n      0x00\n        /* \"#utility.yul\":73:75   */\n      0x40\n        /* \"#utility.yul\":67:76   */\n      mload\n        /* \"#utility.yul\":57:76   */\n      swap1\n      pop\n        /* \"#utility.yul\":7:82   */\n      swap1\n      jump\t// out\n        /* \"#utility.yul\":88:205   */\n    tag_18:\n        /* \"#utility.yul\":197:198   */\n      0x00\n        /* \"#utility.yul\":194:195   */\n      dup1\n        /* \"#utility.yul\":187:199   */\n      revert\n        /* \"#utility.yul\":211:328   */\n    tag_19:\n        /* \"#utility.yul\":320:321   */\n      0x00\n        /* \"#utility.yul\":317:318   */\n      dup1\n        /* \"#utility.yul\":310:322   */\n      revert\n        /* \"#utility.yul\":334:451   */\n    tag_20:\n        /* \"#utility.yul\":443:444   */\n      0x00\n        /* \"#utility.yul\":440:441   */\n      dup1\n        /* \"#utility.yul\":433:445   */\n      revert\n        /* \"#utility.yul\":457:574   */\n    tag_21:\n        /* \"#utility.yul\":566:567   */\n      0x00\n        /* \"#utility.yul\":563:564   */\n      dup1\n        /* \"#utility.yul\":556:568   */\n      revert\n        /* \"#utility.yul\":580:682   */\n    tag_22:\n        /* \"#utility.yul\":621:627   */\n      0x00\n        /* \"#utility.yul\":672:674   */\n      0x1f\n        /* \"#utility.yul\":668:675   */\n      not\n        /* \"#utility.yul\":663:665   */\n      0x1f\n        /* \"#utility.yul\":656:661   */\n      dup4\n        /* \"#utility.yul\":652:666   */\n      add\n        /* \"#utility.yul\":648:676   */\n      and\n        /* \"#utility.yul\":638:676   */\n      swap1\n      pop\n        /* \"#utility.yul\":580:682   */\n      swap2\n      swap1\n      pop\n      jump\t// out\n        /* \"#utility.yul\":688:868   */\n    tag_23:\n        /* \"#utility.yul\":736:813   */\n      0x4e487b7100000000000000000000000000000000000000000000000000000000\n        /* \"#utility.yul\":733:734   */\n      0x00\n        /* \"#utility.yul\":726:814   */\n      mstore\n        /* \"#utility.yul\":833:837   */\n      0x41\n        /* \"#utility.yul\":830:831   */\n      0x04\n        /* \"#utility.yul\":823:838   */\n      mstore\n        /* \"#utility.yul\":857:861   */\n      0x24\n        /* \"#utility.yul\":854:855   */\n      0x00\n        /* \"#utility.yul\":847:862   */\n      revert\n        /* \"#utility.yul\":874:1155   */\n    tag_24:\n        /* \"#utility.yul\":957:984   */\n      tag_45\n        /* \"#utility.yul\":979:983   */\n      dup3\n        /* \"#utility.yul\":957:984   */\n      tag_22\n      jump\t// in\n    tag_45:\n        /* \"#utility.yul\":949:955   */\n      dup2\n        /* \"#utility.yul\":945:985   */\n      add\n        /* \"#utility.yul\":1087:1093   */\n      dup2\n        /* \"#utility.yul\":1075:1085   */\n      dup2\n        /* \"#utility.yul\":1072:1094   */\n      lt\n        /* \"#utility.yul\":1051:1069   */\n      0xffffffffffffffff\n        /* \"#utility.yul\":1039:1049   */\n      dup3\n        /* \"#utility.yul\":1036:1070   */\n      gt\n        /* \"#utility.yul\":1033:1095   */\n      or\n        /* \"#utility.yul\":1030:1118   */\n      iszero\n      tag_46\n      jumpi\n        /* \"#utility.yul\":1098:1116   */\n      tag_47\n      tag_23\n      jump\t// in\n    tag_47:\n        /* \"#utility.yul\":1030:1118   */\n    tag_46:\n        /* \"#utility.yul\":1138:1148   */\n      dup1\n        /* \"#utility.yul\":1134:1136   */\n      0x40\n        /* \"#utility.yul\":1127:1149   */\n      mstore\n        /* \"#utility.yul\":917:1155   */\n      pop\n        /* \"#utility.yul\":874:1155   */\n      pop\n      pop\n      jump\t// out\n        /* \"#utility.yul\":1161:1290   */\n    tag_25:\n        /* \"#utility.yul\":1195:1201   */\n      0x00\n        /* \"#utility.yul\":1222:1242   */\n      tag_49\n      tag_17\n      jump\t// in\n    tag_49:\n        /* \"#utility.yul\":1212:1242   */\n      swap1\n      pop\n        /* \"#utility.yul\":1251:1284   */\n      tag_50\n        /* \"#utility.yul\":1279:1283   */\n      dup3\n        /* \"#utility.yul\":1271:1277   */\n      dup3\n        /* \"#utility.yul\":1251:1284   */\n      tag_24\n      jump\t// in\n    tag_50:\n        /* \"#utility.yul\":1161:1290   */\n      swap2\n      swap1\n      pop\n      jump\t// out\n        /* \"#utility.yul\":1296:1604   */\n    tag_26:\n        /* \"#utility.yul\":1358:1362   */\n      0x00\n        /* \"#utility.yul\":1448:1466   */\n      0xffffffffffffffff\n        /* \"#utility.yul\":1440:1446   */\n      dup3\n        /* \"#utility.yul\":1437:1467   */\n      gt\n        /* \"#utility.yul\":1434:1490   */\n      iszero\n      tag_52\n      jumpi\n        /* \"#utility.yul\":1470:1488   */\n      tag_53\n      tag_23\n      jump\t// in\n    tag_53:\n        /* \"#utility.yul\":1434:1490   */\n    tag_52:\n        /* \"#utility.yul\":1508:1537   */\n      tag_54\n        /* \"#utility.yul\":1530:1536   */\n      dup3\n        /* \"#utility.yul\":1508:1537   */\n      tag_22\n      jump\t// in\n    tag_54:\n        /* \"#utility.yul\":1500:1537   */\n      swap1\n      pop\n        /* \"#utility.yul\":1592:1596   */\n      0x20\n        /* \"#utility.yul\":1586:1590   */\n      dup2\n        /* \"#utility.yul\":1582:1597   */\n      add\n        /* \"#utility.yul\":1574:1597   */\n      swap1\n      pop\n        /* \"#utility.yul\":1296:1604   */\n      swap2\n      swap1\n      pop\n      jump\t// out\n        /* \"#utility.yul\":1610:1758   */\n    tag_27:\n        /* \"#utility.yul\":1708:1714   */\n      dup3\n        /* \"#utility.yul\":1703:1706   */\n      dup2\n        /* \"#utility.yul\":1698:1701   */\n      dup4\n        /* \"#utility.yul\":1685:1715   */\n      calldatacopy\n        /* \"#utility.yul\":1749:1750   */\n      0x00\n        /* \"#utility.yul\":1740:1746   */\n      dup4\n        /* \"#utility.yul\":1735:1738   */\n      dup4\n        /* \"#utility.yul\":1731:1747   */\n      add\n        /* \"#utility.yul\":1724:1751   */\n      mstore\n        /* \"#utility.yul\":1610:1758   */\n      pop\n      pop\n      pop\n      jump\t// out\n        /* \"#utility.yul\":1764:2189   */\n    tag_28:\n        /* \"#utility.yul\":1842:1847   */\n      0x00\n        /* \"#utility.yul\":1867:1933   */\n      tag_57\n        /* \"#utility.yul\":1883:1932   */\n      tag_58\n        /* \"#utility.yul\":1925:1931   */\n      dup5\n        /* \"#utility.yul\":1883:1932   */\n      tag_26\n      jump\t// in\n    tag_58:\n        /* \"#utility.yul\":1867:1933   */\n      tag_25\n      jump\t// in\n    tag_57:\n        /* \"#utility.yul\":1858:1933   */\n      swap1\n      pop\n        /* \"#utility.yul\":1956:1962   */\n      dup3\n        /* \"#utility.yul\":1949:1954   */\n      dup2\n        /* \"#utility.yul\":1942:1963   */\n      mstore\n        /* \"#utility.yul\":1994:1998   */\n      0x20\n        /* \"#utility.yul\":1987:1992   */\n      dup2\n        /* \"#utility.yul\":1983:1999   */\n      add\n        /* \"#utility.yul\":2032:2035   */\n      dup5\n        /* \"#utility.yul\":2023:2029   */\n      dup5\n        /* \"#utility.yul\":2018:2021   */\n      dup5\n        /* \"#utility.yul\":2014:2030   */\n      add\n        /* \"#utility.yul\":2011:2036   */\n      gt\n        /* \"#utility.yul\":2008:2120   */\n      iszero\n      tag_59\n      jumpi\n        /* \"#utility.yul\":2039:2118   */\n      tag_60\n      tag_21\n      jump\t// in\n    tag_60:\n        /* \"#utility.yul\":2008:2120   */\n    tag_59:\n        /* \"#utility.yul\":2129:2183   */\n      tag_61\n        /* \"#utility.yul\":2176:2182   */\n      dup5\n        /* \"#utility.yul\":2171:2174   */\n      dup3\n        /* \"#utility.yul\":2166:2169   */\n      dup6\n        /* \"#utility.yul\":2129:2183   */\n      tag_27\n      jump\t// in\n    tag_61:\n        /* \"#utility.yul\":1848:2189   */\n      pop\n        /* \"#utility.yul\":1764:2189   */\n      swap4\n      swap3\n      pop\n      pop\n      pop\n      jump\t// out\n        /* \"#utility.yul\":2209:2549   */\n    tag_29:\n        /* \"#utility.yul\":2265:2270   */\n      0x00\n        /* \"#utility.yul\":2314:2317   */\n      dup3\n        /* \"#utility.yul\":2307:2311   */\n      0x1f\n        /* \"#utility.yul\":2299:2305   */\n      dup4\n        /* \"#utility.yul\":2295:2312   */\n      add\n        /* \"#utility.yul\":2291:2318   */\n      slt\n        /* \"#utility.yul\":2281:2403   */\n      tag_63\n      jumpi\n        /* \"#utility.yul\":2322:2401   */\n      tag_64\n      tag_20\n      jump\t// in\n    tag_64:\n        /* \"#utility.yul\":2281:2403   */\n    tag_63:\n        /* \"#utility.yul\":2439:2445   */\n      dup2\n        /* \"#utility.yul\":2426:2446   */\n      calldataload\n        /* \"#utility.yul\":2464:2543   */\n      tag_65\n        /* \"#utility.yul\":2539:2542   */\n      dup5\n        /* \"#utility.yul\":2531:2537   */\n      dup3\n        /* \"#utility.yul\":2524:2528   */\n      0x20\n        /* \"#utility.yul\":2516:2522   */\n      dup7\n        /* \"#utility.yul\":2512:2529   */\n      add\n        /* \"#utility.yul\":2464:2543   */\n      tag_28\n      jump\t// in\n    tag_65:\n        /* \"#utility.yul\":2455:2543   */\n      swap2\n      pop\n        /* \"#utility.yul\":2271:2549   */\n      pop\n        /* \"#utility.yul\":2209:2549   */\n      swap3\n      swap2\n      pop\n      pop\n      jump\t// out\n        /* \"#utility.yul\":2555:3064   */\n    tag_6:\n        /* \"#utility.yul\":2624:2630   */\n      0x00\n        /* \"#utility.yul\":2673:2675   */\n      0x20\n        /* \"#utility.yul\":2661:2670   */\n      dup3\n        /* \"#utility.yul\":2652:2659   */\n      dup5\n        /* \"#utility.yul\":2648:2671   */\n      sub\n        /* \"#utility.yul\":2644:2676   */\n      slt\n        /* \"#utility.yul\":2641:2760   */\n      iszero\n      tag_67\n      jumpi\n        /* \"#utility.yul\":2679:2758   */\n      tag_68\n      tag_18\n      jump\t// in\n    tag_68:\n        /* \"#utility.yul\":2641:2760   */\n    tag_67:\n        /* \"#utility.yul\":2827:2828   */\n      0x00\n        /* \"#utility.yul\":2816:2825   */\n      dup3\n        /* \"#utility.yul\":2812:2829   */\n      add\n        /* \"#utility.yul\":2799:2830   */\n      calldataload\n        /* \"#utility.yul\":2857:2875   */\n      0xffffffffffffffff\n        /* \"#utility.yul\":2849:2855   */\n      dup2\n        /* \"#utility.yul\":2846:2876   */\n      gt\n        /* \"#utility.yul\":2843:2960   */\n      iszero\n      tag_69\n      jumpi\n        /* \"#utility.yul\":2879:2958   */\n      tag_70\n      tag_19\n      jump\t// in\n    tag_70:\n        /* \"#utility.yul\":2843:2960   */\n    tag_69:\n        /* \"#utility.yul\":2984:3047   */\n      tag_71\n        /* \"#utility.yul\":3039:3046   */\n      dup5\n        /* \"#utility.yul\":3030:3036   */\n      dup3\n        /* \"#utility.yul\":3019:3028   */\n      dup6\n        /* \"#utility.yul\":3015:3037   */\n      add\n        /* \"#utility.yul\":2984:3047   */\n      tag_29\n      jump\t// in\n    tag_71:\n        /* \"#utility.yul\":2974:3047   */\n      swap2\n      pop\n        /* \"#utility.yul\":2770:3057   */\n      pop\n        /* \"#utility.yul\":2555:3064   */\n      swap3\n      swap2\n      pop\n      pop\n      jump\t// out\n        /* \"#utility.yul\":3070:3160   */\n    tag_30:\n        /* \"#utility.yul\":3104:3111   */\n      0x00\n        /* \"#utility.yul\":3147:3152   */\n      dup2\n        /* \"#utility.yul\":3140:3153   */\n      iszero\n        /* \"#utility.yul\":3133:3154   */\n      iszero\n        /* \"#utility.yul\":3122:3154   */\n      swap1\n      pop\n        /* \"#utility.yul\":3070:3160   */\n      swap2\n      swap1\n      pop\n      jump\t// out\n        /* \"#utility.yul\":3166:3275   */\n    tag_31:\n        /* \"#utility.yul\":3247:3268   */\n      tag_74\n        /* \"#utility.yul\":3262:3267   */\n      dup2\n        /* \"#utility.yul\":3247:3268   */\n      tag_30\n      jump\t// in\n    tag_74:\n        /* \"#utility.yul\":3242:3245   */\n      dup3\n        /* \"#utility.yul\":3235:3269   */\n      mstore\n        /* \"#utility.yul\":3166:3275   */\n      pop\n      pop\n      jump\t// out\n        /* \"#utility.yul\":3281:3491   */\n    tag_9:\n        /* \"#utility.yul\":3368:3372   */\n      0x00\n        /* \"#utility.yul\":3406:3408   */\n      0x20\n        /* \"#utility.yul\":3395:3404   */\n      dup3\n        /* \"#utility.yul\":3391:3409   */\n      add\n        /* \"#utility.yul\":3383:3409   */\n      swap1\n      pop\n        /* \"#utility.yul\":3419:3484   */\n      tag_76\n        /* \"#utility.yul\":3481:3482   */\n      0x00\n        /* \"#utility.yul\":3470:3479   */\n      dup4\n        /* \"#utility.yul\":3466:3483   */\n      add\n        /* \"#utility.yul\":3457:3463   */\n      dup5\n        /* \"#utility.yul\":3419:3484   */\n      tag_31\n      jump\t// in\n    tag_76:\n        /* \"#utility.yul\":3281:3491   */\n      swap3\n      swap2\n      pop\n      pop\n      jump\t// out\n        /* \"#utility.yul\":3497:3596   */\n    tag_32:\n        /* \"#utility.yul\":3549:3555   */\n      0x00\n        /* \"#utility.yul\":3583:3588   */\n      dup2\n        /* \"#utility.yul\":3577:3589   */\n      mload\n        /* \"#utility.yul\":3567:3589   */\n      swap1\n      pop\n        /* \"#utility.yul\":3497:3596   */\n      swap2\n      swap1\n      pop\n      jump\t// out\n        /* \"#utility.yul\":3602:3750   */\n    tag_33:\n        /* \"#utility.yul\":3704:3715   */\n      0x00\n        /* \"#utility.yul\":3741:3744   */\n      dup2\n        /* \"#utility.yul\":3726:3744   */\n      swap1\n      pop\n        /* \"#utility.yul\":3602:3750   */\n      swap3\n      swap2\n      pop\n      pop\n      jump\t// out\n        /* \"#utility.yul\":3756:3895   */\n    tag_34:\n        /* \"#utility.yul\":3845:3851   */\n      dup3\n        /* \"#utility.yul\":3840:3843   */\n      dup2\n        /* \"#utility.yul\":3835:3838   */\n      dup4\n        /* \"#utility.yul\":3829:3852   */\n      mcopy\n        /* \"#utility.yul\":3886:3887   */\n      0x00\n        /* \"#utility.yul\":3877:3883   */\n      dup4\n        /* \"#utility.yul\":3872:3875   */\n      dup4\n        /* \"#utility.yul\":3868:3884   */\n      add\n        /* \"#utility.yul\":3861:3888   */\n      mstore\n        /* \"#utility.yul\":3756:3895   */\n      pop\n      pop\n      pop\n      jump\t// out\n        /* \"#utility.yul\":3901:4291   */\n    tag_35:\n        /* \"#utility.yul\":4007:4010   */\n      0x00\n        /* \"#utility.yul\":4035:4074   */\n      tag_81\n        /* \"#utility.yul\":4068:4073   */\n      dup3\n        /* \"#utility.yul\":4035:4074   */\n      tag_32\n      jump\t// in\n    tag_81:\n        /* \"#utility.yul\":4090:4179   */\n      tag_82\n        /* \"#utility.yul\":4172:4178   */\n      dup2\n        /* \"#utility.yul\":4167:4170   */\n      dup6\n        /* \"#utility.yul\":4090:4179   */\n      tag_33\n      jump\t// in\n    tag_82:\n        /* \"#utility.yul\":4083:4179   */\n      swap4\n      pop\n        /* \"#utility.yul\":4188:4253   */\n      tag_83\n        /* \"#utility.yul\":4246:4252   */\n      dup2\n        /* \"#utility.yul\":4241:4244   */\n      dup6\n        /* \"#utility.yul\":4234:4238   */\n      0x20\n        /* \"#utility.yul\":4227:4232   */\n      dup7\n        /* \"#utility.yul\":4223:4239   */\n      add\n        /* \"#utility.yul\":4188:4253   */\n      tag_34\n      jump\t// in\n    tag_83:\n        /* \"#utility.yul\":4278:4284   */\n      dup1\n        /* \"#utility.yul\":4273:4276   */\n      dup5\n        /* \"#utility.yul\":4269:4285   */\n      add\n        /* \"#utility.yul\":4262:4285   */\n      swap2\n      pop\n        /* \"#utility.yul\":4011:4291   */\n      pop\n        /* \"#utility.yul\":3901:4291   */\n      swap3\n      swap2\n      pop\n      pop\n      jump\t// out\n        /* \"#utility.yul\":4297:4572   */\n    tag_16:\n        /* \"#utility.yul\":4429:4432   */\n      0x00\n        /* \"#utility.yul\":4451:4546   */\n      tag_85\n        /* \"#utility.yul\":4542:4545   */\n      dup3\n        /* \"#utility.yul\":4533:4539   */\n      dup5\n        /* \"#utility.yul\":4451:4546   */\n      tag_35\n      jump\t// in\n    tag_85:\n        /* \"#utility.yul\":4444:4546   */\n      swap2\n      pop\n        /* \"#utility.yul\":4563:4566   */\n      dup2\n        /* \"#utility.yul\":4556:4566   */\n      swap1\n      pop\n        /* \"#utility.yul\":4297:4572   */\n      swap3\n      swap2\n      pop\n      pop\n      jump\t// out\n\n    auxdata: 0xa2646970667358221220d58bb0f6d8f096d01dfb34f238d7bc07b0a7da75d8c86b242418d3fc9719ec3d64736f6c634300081a0033\n}\n",
				"bytecode": {
					"linkReferences": {},
					"object": "6080604052348015600e575f80fd5b506103418061001c5f395ff3fe608060405234801561000f575f80fd5b5060043610610029575f3560e01c8063b90292451461002d575b5f80fd5b61004760048036038101906100429190610229565b61005d565b604051610054919061028a565b60405180910390f35b5f61009c6040518060400160405280600381526020017f426f6200000000000000000000000000000000000000000000000000000000008152506100ad565b6100a5836100ad565b149050919050565b5f816040516020016100bf91906102f5565b604051602081830303815290604052805190602001209050919050565b5f604051905090565b5f80fd5b5f80fd5b5f80fd5b5f80fd5b5f601f19601f8301169050919050565b7f4e487b71000000000000000000000000000000000000000000000000000000005f52604160045260245ffd5b61013b826100f5565b810181811067ffffffffffffffff8211171561015a57610159610105565b5b80604052505050565b5f61016c6100dc565b90506101788282610132565b919050565b5f67ffffffffffffffff82111561019757610196610105565b5b6101a0826100f5565b9050602081019050919050565b828183375f83830152505050565b5f6101cd6101c88461017d565b610163565b9050828152602081018484840111156101e9576101e86100f1565b5b6101f48482856101ad565b509392505050565b5f82601f8301126102105761020f6100ed565b5b81356102208482602086016101bb565b91505092915050565b5f6020828403121561023e5761023d6100e5565b5b5f82013567ffffffffffffffff81111561025b5761025a6100e9565b5b610267848285016101fc565b91505092915050565b5f8115159050919050565b61028481610270565b82525050565b5f60208201905061029d5f83018461027b565b92915050565b5f81519050919050565b5f81905092915050565b8281835e5f83830152505050565b5f6102cf826102a3565b6102d981856102ad565b93506102e98185602086016102b7565b80840191505092915050565b5f61030082846102c5565b91508190509291505056fea2646970667358221220d58bb0f6d8f096d01dfb34f238d7bc07b0a7da75d8c86b242418d3fc9719ec3d64736f6c634300081a0033",
					"opcodes": "PUSH1 0x80 PUSH1 0x40 MSTORE CALLVALUE DUP1 ISZERO PUSH1 0xE JUMPI PUSH0 DUP1 REVERT JUMPDEST POP PUSH2 0x341 DUP1 PUSH2 0x1C PUSH0 CODECOPY PUSH0 RETURN INVALID PUSH1 0x80 PUSH1 0x40 MSTORE CALLVALUE DUP1 ISZERO PUSH2 0xF JUMPI PUSH0 DUP1 REVERT JUMPDEST POP PUSH1 0x4 CALLDATASIZE LT PUSH2 0x29 JUMPI PUSH0 CALLDATALOAD PUSH1 0xE0 SHR DUP1 PUSH4 0xB9029245 EQ PUSH2 0x2D JUMPI JUMPDEST PUSH0 DUP1 REVERT JUMPDEST PUSH2 0x47 PUSH1 0x4 DUP1 CALLDATASIZE SUB DUP2 ADD SWAP1 PUSH2 0x42 SWAP2 SWAP1 PUSH2 0x229 JUMP JUMPDEST PUSH2 0x5D JUMP JUMPDEST PUSH1 0x40 MLOAD PUSH2 0x54 SWAP2 SWAP1 PUSH2 0x28A JUMP JUMPDEST PUSH1 0x40 MLOAD DUP1 SWAP2 SUB SWAP1 RETURN JUMPDEST PUSH0 PUSH2 0x9C PUSH1 0x40 MLOAD DUP1 PUSH1 0x40 ADD PUSH1 0x40 MSTORE DUP1 PUSH1 0x3 DUP2 MSTORE PUSH1 0x20 ADD PUSH32 0x426F620000000000000000000000000000000000000000000000000000000000 DUP2 MSTORE POP PUSH2 0xAD JUMP JUMPDEST PUSH2 0xA5 DUP4 PUSH2 0xAD JUMP JUMPDEST EQ SWAP1 POP SWAP2 SWAP1 POP JUMP JUMPDEST PUSH0 DUP2 PUSH1 0x40 MLOAD PUSH1 0x20 ADD PUSH2 0xBF SWAP2 SWAP1 PUSH2 0x2F5 JUMP JUMPDEST PUSH1 0x40 MLOAD PUSH1 0x20 DUP2 DUP4 SUB SUB DUP2 MSTORE SWAP1 PUSH1 0x40 MSTORE DUP1 MLOAD SWAP1 PUSH1 0x20 ADD KECCAK256 SWAP1 POP SWAP2 SWAP1 POP JUMP JUMPDEST PUSH0 PUSH1 0x40 MLOAD SWAP1 POP SWAP1 JUMP JUMPDEST PUSH0 DUP1 REVERT JUMPDEST PUSH0 DUP1 REVERT JUMPDEST PUSH0 DUP1 REVERT JUMPDEST PUSH0 DUP1 REVERT JUMPDEST PUSH0 PUSH1 0x1F NOT PUSH1 0x1F DUP4 ADD AND SWAP1 POP SWAP2 SWAP1 POP JUMP JUMPDEST PUSH32 0x4E487B7100000000000000000000000000000000000000000000000000000000 PUSH0 MSTORE PUSH1 0x41 PUSH1 0x4 MSTORE PUSH1 0x24 PUSH0 REVERT JUMPDEST PUSH2 0x13B DUP3 PUSH2 0xF5 JUMP JUMPDEST DUP2 ADD DUP2 DUP2 LT PUSH8 0xFFFFFFFFFFFFFFFF DUP3 GT OR ISZERO PUSH2 0x15A JUMPI PUSH2 0x159 PUSH2 0x105 JUMP JUMPDEST JUMPDEST DUP1 PUSH1 0x40 MSTORE POP POP POP JUMP JUMPDEST PUSH0 PUSH2 0x16C PUSH2 0xDC JUMP JUMPDEST SWAP1 POP PUSH2 0x178 DUP3 DUP3 PUSH2 0x132 JUMP JUMPDEST SWAP2 SWAP1 POP JUMP JUMPDEST PUSH0 PUSH8 0xFFFFFFFFFFFFFFFF DUP3 GT ISZERO PUSH2 0x197 JUMPI PUSH2 0x196 PUSH2 0x105 JUMP JUMPDEST JUMPDEST PUSH2 0x1A0 DUP3 PUSH2 0xF5 JUMP JUMPDEST SWAP1 POP PUSH1 0x20 DUP2 ADD SWAP1 POP SWAP2 SWAP1 POP JUMP JUMPDEST DUP3 DUP2 DUP4 CALLDATACOPY PUSH0 DUP4 DUP4 ADD MSTORE POP POP POP JUMP JUMPDEST PUSH0 PUSH2 0x1CD PUSH2 0x1C8 DUP5 PUSH2 0x17D JUMP JUMPDEST PUSH2 0x163 JUMP JUMPDEST SWAP1 POP DUP3 DUP2 MSTORE PUSH1 0x20 DUP2 ADD DUP5 DUP5 DUP5 ADD GT ISZERO PUSH2 0x1E9 JUMPI PUSH2 0x1E8 PUSH2 0xF1 JUMP JUMPDEST JUMPDEST PUSH2 0x1F4 DUP5 DUP3 DUP6 PUSH2 0x1AD JUMP JUMPDEST POP SWAP4 SWAP3 POP POP POP JUMP JUMPDEST PUSH0 DUP3 PUSH1 0x1F DUP4 ADD SLT PUSH2 0x210 JUMPI PUSH2 0x20F PUSH2 0xED JUMP JUMPDEST JUMPDEST DUP2 CALLDATALOAD PUSH2 0x220 DUP5 DUP3 PUSH1 0x20 DUP7 ADD PUSH2 0x1BB JUMP JUMPDEST SWAP2 POP POP SWAP3 SWAP2 POP POP JUMP JUMPDEST PUSH0 PUSH1 0x20 DUP3 DUP5 SUB SLT ISZERO PUSH2 0x23E JUMPI PUSH2 0x23D PUSH2 0xE5 JUMP JUMPDEST JUMPDEST PUSH0 DUP3 ADD CALLDATALOAD PUSH8 0xFFFFFFFFFFFFFFFF DUP2 GT ISZERO PUSH2 0x25B JUMPI PUSH2 0x25A PUSH2 0xE9 JUMP JUMPDEST JUMPDEST PUSH2 0x267 DUP5 DUP3 DUP6 ADD PUSH2 0x1FC JUMP JUMPDEST SWAP2 POP POP SWAP3 SWAP2 POP POP JUMP JUMPDEST PUSH0 DUP2 ISZERO ISZERO SWAP1 POP SWAP2 SWAP1 POP JUMP JUMPDEST PUSH2 0x284 DUP2 PUSH2 0x270 JUMP JUMPDEST DUP3 MSTORE POP POP JUMP JUMPDEST PUSH0 PUSH1 0x20 DUP3 ADD SWAP1 POP PUSH2 0x29D PUSH0 DUP4 ADD DUP5 PUSH2 0x27B JUMP JUMPDEST SWAP3 SWAP2 POP POP JUMP JUMPDEST PUSH0 DUP2 MLOAD SWAP1 POP SWAP2 SWAP1 POP JUMP JUMPDEST PUSH0 DUP2 SWAP1 POP SWAP3 SWAP2 POP POP JUMP JUMPDEST DUP3 DUP2 DUP4 MCOPY PUSH0 DUP4 DUP4 ADD MSTORE POP POP POP JUMP JUMPDEST PUSH0 PUSH2 0x2CF DUP3 PUSH2 0x2A3 JUMP JUMPDEST PUSH2 0x2D9 DUP2 DUP6 PUSH2 0x2AD JUMP JUMPDEST SWAP4 POP PUSH2 0x2E9 DUP2 DUP6 PUSH1 0x20 DUP7 ADD PUSH2 0x2B7 JUMP JUMPDEST DUP1 DUP5 ADD SWAP2 POP POP SWAP3 SWAP2 POP POP JUMP JUMPDEST PUSH0 PUSH2 0x300 DUP3 DUP5 PUSH2 0x2C5 JUMP JUMPDEST SWAP2 POP DUP2 SWAP1 POP SWAP3 SWAP2 POP POP JUMP INVALID LOG2 PUSH5 0x6970667358 0x22 SLT KECCAK256 0xD5 DUP12 0xB0 0xF6 0xD8 CREATE SWAP7 0xD0 SAR 0xFB CALLVALUE CALLCODE CODESIZE 0xD7 0xBC SMOD 0xB0 0xA7 0xDA PUSH22 0xD8C86B242418D3FC9719EC3D64736F6C634300081A00 CALLER "
				},
				"gasEstimates": {
					"creation": {
						"codeDepositCost": "166600",
						"executionCost": "212",
						"totalCost": "166812"
					},
					"external": {
						"BobIsTrue(string)": "infinite"
					},
					"internal": {
						"stringToBytes(string memory)": "infinite"
					}
				},
				"methodIdentifiers": {
					"BobIsTrue(string)": "b9029245"
				}
			},
			"storageLayout": {
				"storage": [],
				"types": null
			},
			"userdoc": {
				"kind": "user",
				"methods": {},
				"version": 1
			}
		}
	}
}