{
	"solidity100/solidity10_250103.sol": {
		"Q18": {
			"abi": [
				{
					"inputs": [
						{
							"internalType": "string",
							"name": "_name",
							"type": "string"
						}
					],
					"name": "getInfo",
					"outputs": [
						{
							"internalType": "uint256",
							"name": "",
							"type": "uint256"
						}
					],
					"stateMutability": "view",
					"type": "function"
				},
				{
					"inputs": [
						{
							"internalType": "string",
							"name": "_name",
							"type": "string"
						},
						{
							"internalType": "uint256",
							"name": "_birthday",
							"type": "uint256"
						}
					],
					"name": "setInfo",
					"outputs": [],
					"stateMutability": "nonpayable",
					"type": "function"
				}
			],
			"devdoc": {
				"kind": "dev",
				"methods": {},
				"version": 1
			},
			"evm": {
				"assembly": "    /* \"solidity100/solidity10_250103.sol\":4219:5050  contract Q18 {... */\n  mstore(0x40, 0x80)\n  callvalue\n  dup1\n  iszero\n  tag_1\n  jumpi\n  0x00\n  dup1\n  revert\ntag_1:\n  pop\n  dataSize(sub_0)\n  dup1\n  dataOffset(sub_0)\n  0x00\n  codecopy\n  0x00\n  return\nstop\n\nsub_0: assembly {\n        /* \"solidity100/solidity10_250103.sol\":4219:5050  contract Q18 {... */\n      mstore(0x40, 0x80)\n      callvalue\n      dup1\n      iszero\n      tag_1\n      jumpi\n      0x00\n      dup1\n      revert\n    tag_1:\n      pop\n      jumpi(tag_2, lt(calldatasize, 0x04))\n      shr(0xe0, calldataload(0x00))\n      dup1\n      0x7ee005ab\n      eq\n      tag_3\n      jumpi\n      dup1\n      0x8262963b\n      eq\n      tag_4\n      jumpi\n    tag_2:\n      0x00\n      dup1\n      revert\n        /* \"solidity100/solidity10_250103.sol\":4828:5048  function getInfo(string memory _name) public view returns (uint256) {... */\n    tag_3:\n      tag_5\n      0x04\n      dup1\n      calldatasize\n      sub\n      dup2\n      add\n      swap1\n      tag_6\n      swap2\n      swap1\n      tag_7\n      jump\t// in\n    tag_6:\n      tag_8\n      jump\t// in\n    tag_5:\n      mload(0x40)\n      tag_9\n      swap2\n      swap1\n      tag_10\n      jump\t// in\n    tag_9:\n      mload(0x40)\n      dup1\n      swap2\n      sub\n      swap1\n      return\n        /* \"solidity100/solidity10_250103.sol\":4537:4822  function setInfo(string memory _name, uint256 _birthday) public {... */\n    tag_4:\n      tag_11\n      0x04\n      dup1\n      calldatasize\n      sub\n      dup2\n      add\n      swap1\n      tag_12\n      swap2\n      swap1\n      tag_13\n      jump\t// in\n    tag_12:\n      tag_14\n      jump\t// in\n    tag_11:\n      stop\n        /* \"solidity100/solidity10_250103.sol\":4828:5048  function getInfo(string memory _name) public view returns (uint256) {... */\n    tag_8:\n        /* \"solidity100/solidity10_250103.sol\":4887:4894  uint256 */\n      0x00\n        /* \"solidity100/solidity10_250103.sol\":4906:4924  bytes32 hashedName */\n      dup1\n        /* \"solidity100/solidity10_250103.sol\":4927:4937  nameHashes */\n      0x00\n        /* \"solidity100/solidity10_250103.sol\":4938:4943  _name */\n      dup4\n        /* \"solidity100/solidity10_250103.sol\":4927:4944  nameHashes[_name] */\n      mload(0x40)\n      tag_16\n      swap2\n      swap1\n      tag_17\n      jump\t// in\n    tag_16:\n      swap1\n      dup2\n      mstore\n      0x20\n      add\n      mload(0x40)\n      dup1\n      swap2\n      sub\n      swap1\n      keccak256\n      sload\n        /* \"solidity100/solidity10_250103.sol\":4906:4944  bytes32 hashedName = nameHashes[_name] */\n      swap1\n      pop\n        /* \"solidity100/solidity10_250103.sol\":4976:4977  0 */\n      0x00\n        /* \"solidity100/solidity10_250103.sol\":4962:4977  hashedName != 0 */\n      dup1\n      shl\n        /* \"solidity100/solidity10_250103.sol\":4962:4972  hashedName */\n      dup2\n        /* \"solidity100/solidity10_250103.sol\":4962:4977  hashedName != 0 */\n      sub\n        /* \"solidity100/solidity10_250103.sol\":4954:5003  require(hashedName != 0, \"Person does not exist\") */\n      tag_18\n      jumpi\n      mload(0x40)\n      0x08c379a000000000000000000000000000000000000000000000000000000000\n      dup2\n      mstore\n      0x04\n      add\n      tag_19\n      swap1\n      tag_20\n      jump\t// in\n    tag_19:\n      mload(0x40)\n      dup1\n      swap2\n      sub\n      swap1\n      revert\n    tag_18:\n        /* \"solidity100/solidity10_250103.sol\":5020:5029  birthdays */\n      0x01\n        /* \"solidity100/solidity10_250103.sol\":5020:5041  birthdays[hashedName] */\n      0x00\n        /* \"solidity100/solidity10_250103.sol\":5030:5040  hashedName */\n      dup3\n        /* \"solidity100/solidity10_250103.sol\":5020:5041  birthdays[hashedName] */\n      dup2\n      mstore\n      0x20\n      add\n      swap1\n      dup2\n      mstore\n      0x20\n      add\n      0x00\n      keccak256\n      sload\n        /* \"solidity100/solidity10_250103.sol\":5013:5041  return birthdays[hashedName] */\n      swap2\n      pop\n      pop\n        /* \"solidity100/solidity10_250103.sol\":4828:5048  function getInfo(string memory _name) public view returns (uint256) {... */\n      swap2\n      swap1\n      pop\n      jump\t// out\n        /* \"solidity100/solidity10_250103.sol\":4537:4822  function setInfo(string memory _name, uint256 _birthday) public {... */\n    tag_14:\n        /* \"solidity100/solidity10_250103.sol\":4640:4641  0 */\n      0x00\n        /* \"solidity100/solidity10_250103.sol\":4619:4641  nameHashes[_name] == 0 */\n      dup1\n      shl\n        /* \"solidity100/solidity10_250103.sol\":4619:4629  nameHashes */\n      0x00\n        /* \"solidity100/solidity10_250103.sol\":4630:4635  _name */\n      dup4\n        /* \"solidity100/solidity10_250103.sol\":4619:4636  nameHashes[_name] */\n      mload(0x40)\n      tag_22\n      swap2\n      swap1\n      tag_17\n      jump\t// in\n    tag_22:\n      swap1\n      dup2\n      mstore\n      0x20\n      add\n      mload(0x40)\n      dup1\n      swap2\n      sub\n      swap1\n      keccak256\n      sload\n        /* \"solidity100/solidity10_250103.sol\":4619:4641  nameHashes[_name] == 0 */\n      eq\n        /* \"solidity100/solidity10_250103.sol\":4611:4667  require(nameHashes[_name] == 0, \"Person already exists\") */\n      tag_23\n      jumpi\n      mload(0x40)\n      0x08c379a000000000000000000000000000000000000000000000000000000000\n      dup2\n      mstore\n      0x04\n      add\n      tag_24\n      swap1\n      tag_25\n      jump\t// in\n    tag_24:\n      mload(0x40)\n      dup1\n      swap2\n      sub\n      swap1\n      revert\n    tag_23:\n        /* \"solidity100/solidity10_250103.sol\":4677:4695  bytes32 hashedName */\n      0x00\n        /* \"solidity100/solidity10_250103.sol\":4725:4730  _name */\n      dup3\n        /* \"solidity100/solidity10_250103.sol\":4708:4731  abi.encodePacked(_name) */\n      add(0x20, mload(0x40))\n      tag_26\n      swap2\n      swap1\n      tag_17\n      jump\t// in\n    tag_26:\n      mload(0x40)\n      0x20\n      dup2\n      dup4\n      sub\n      sub\n      dup2\n      mstore\n      swap1\n      0x40\n      mstore\n        /* \"solidity100/solidity10_250103.sol\":4698:4732  keccak256(abi.encodePacked(_name)) */\n      dup1\n      mload\n      swap1\n      0x20\n      add\n      keccak256\n        /* \"solidity100/solidity10_250103.sol\":4677:4732  bytes32 hashedName = keccak256(abi.encodePacked(_name)) */\n      swap1\n      pop\n        /* \"solidity100/solidity10_250103.sol\":4762:4772  hashedName */\n      dup1\n        /* \"solidity100/solidity10_250103.sol\":4742:4752  nameHashes */\n      0x00\n        /* \"solidity100/solidity10_250103.sol\":4753:4758  _name */\n      dup5\n        /* \"solidity100/solidity10_250103.sol\":4742:4759  nameHashes[_name] */\n      mload(0x40)\n      tag_27\n      swap2\n      swap1\n      tag_17\n      jump\t// in\n    tag_27:\n      swap1\n      dup2\n      mstore\n      0x20\n      add\n      mload(0x40)\n      dup1\n      swap2\n      sub\n      swap1\n      keccak256\n        /* \"solidity100/solidity10_250103.sol\":4742:4772  nameHashes[_name] = hashedName */\n      dup2\n      swap1\n      sstore\n      pop\n        /* \"solidity100/solidity10_250103.sol\":4806:4815  _birthday */\n      dup2\n        /* \"solidity100/solidity10_250103.sol\":4782:4791  birthdays */\n      0x01\n        /* \"solidity100/solidity10_250103.sol\":4782:4803  birthdays[hashedName] */\n      0x00\n        /* \"solidity100/solidity10_250103.sol\":4792:4802  hashedName */\n      dup4\n        /* \"solidity100/solidity10_250103.sol\":4782:4803  birthdays[hashedName] */\n      dup2\n      mstore\n      0x20\n      add\n      swap1\n      dup2\n      mstore\n      0x20\n      add\n      0x00\n      keccak256\n        /* \"solidity100/solidity10_250103.sol\":4782:4815  birthdays[hashedName] = _birthday */\n      dup2\n      swap1\n      sstore\n      pop\n        /* \"solidity100/solidity10_250103.sol\":4601:4822  {... */\n      pop\n        /* \"solidity100/solidity10_250103.sol\":4537:4822  function setInfo(string memory _name, uint256 _birthday) public {... */\n      pop\n      pop\n      jump\t// out\n        /* \"#utility.yul\":7:82   */\n    tag_28:\n        /* \"#utility.yul\":40:46   */\n      0x00\n        /* \"#utility.yul\":73:75   */\n      0x40\n        /* \"#utility.yul\":67:76   */\n      mload\n        /* \"#utility.yul\":57:76   */\n      swap1\n      pop\n        /* \"#utility.yul\":7:82   */\n      swap1\n      jump\t// out\n        /* \"#utility.yul\":88:205   */\n    tag_29:\n        /* \"#utility.yul\":197:198   */\n      0x00\n        /* \"#utility.yul\":194:195   */\n      dup1\n        /* \"#utility.yul\":187:199   */\n      revert\n        /* \"#utility.yul\":211:328   */\n    tag_30:\n        /* \"#utility.yul\":320:321   */\n      0x00\n        /* \"#utility.yul\":317:318   */\n      dup1\n        /* \"#utility.yul\":310:322   */\n      revert\n        /* \"#utility.yul\":334:451   */\n    tag_31:\n        /* \"#utility.yul\":443:444   */\n      0x00\n        /* \"#utility.yul\":440:441   */\n      dup1\n        /* \"#utility.yul\":433:445   */\n      revert\n        /* \"#utility.yul\":457:574   */\n    tag_32:\n        /* \"#utility.yul\":566:567   */\n      0x00\n        /* \"#utility.yul\":563:564   */\n      dup1\n        /* \"#utility.yul\":556:568   */\n      revert\n        /* \"#utility.yul\":580:682   */\n    tag_33:\n        /* \"#utility.yul\":621:627   */\n      0x00\n        /* \"#utility.yul\":672:674   */\n      0x1f\n        /* \"#utility.yul\":668:675   */\n      not\n        /* \"#utility.yul\":663:665   */\n      0x1f\n        /* \"#utility.yul\":656:661   */\n      dup4\n        /* \"#utility.yul\":652:666   */\n      add\n        /* \"#utility.yul\":648:676   */\n      and\n        /* \"#utility.yul\":638:676   */\n      swap1\n      pop\n        /* \"#utility.yul\":580:682   */\n      swap2\n      swap1\n      pop\n      jump\t// out\n        /* \"#utility.yul\":688:868   */\n    tag_34:\n        /* \"#utility.yul\":736:813   */\n      0x4e487b7100000000000000000000000000000000000000000000000000000000\n        /* \"#utility.yul\":733:734   */\n      0x00\n        /* \"#utility.yul\":726:814   */\n      mstore\n        /* \"#utility.yul\":833:837   */\n      0x41\n        /* \"#utility.yul\":830:831   */\n      0x04\n        /* \"#utility.yul\":823:838   */\n      mstore\n        /* \"#utility.yul\":857:861   */\n      0x24\n        /* \"#utility.yul\":854:855   */\n      0x00\n        /* \"#utility.yul\":847:862   */\n      revert\n        /* \"#utility.yul\":874:1155   */\n    tag_35:\n        /* \"#utility.yul\":957:984   */\n      tag_63\n        /* \"#utility.yul\":979:983   */\n      dup3\n        /* \"#utility.yul\":957:984   */\n      tag_33\n      jump\t// in\n    tag_63:\n        /* \"#utility.yul\":949:955   */\n      dup2\n        /* \"#utility.yul\":945:985   */\n      add\n        /* \"#utility.yul\":1087:1093   */\n      dup2\n        /* \"#utility.yul\":1075:1085   */\n      dup2\n        /* \"#utility.yul\":1072:1094   */\n      lt\n        /* \"#utility.yul\":1051:1069   */\n      0xffffffffffffffff\n        /* \"#utility.yul\":1039:1049   */\n      dup3\n        /* \"#utility.yul\":1036:1070   */\n      gt\n        /* \"#utility.yul\":1033:1095   */\n      or\n        /* \"#utility.yul\":1030:1118   */\n      iszero\n      tag_64\n      jumpi\n        /* \"#utility.yul\":1098:1116   */\n      tag_65\n      tag_34\n      jump\t// in\n    tag_65:\n        /* \"#utility.yul\":1030:1118   */\n    tag_64:\n        /* \"#utility.yul\":1138:1148   */\n      dup1\n        /* \"#utility.yul\":1134:1136   */\n      0x40\n        /* \"#utility.yul\":1127:1149   */\n      mstore\n        /* \"#utility.yul\":917:1155   */\n      pop\n        /* \"#utility.yul\":874:1155   */\n      pop\n      pop\n      jump\t// out\n        /* \"#utility.yul\":1161:1290   */\n    tag_36:\n        /* \"#utility.yul\":1195:1201   */\n      0x00\n        /* \"#utility.yul\":1222:1242   */\n      tag_67\n      tag_28\n      jump\t// in\n    tag_67:\n        /* \"#utility.yul\":1212:1242   */\n      swap1\n      pop\n        /* \"#utility.yul\":1251:1284   */\n      tag_68\n        /* \"#utility.yul\":1279:1283   */\n      dup3\n        /* \"#utility.yul\":1271:1277   */\n      dup3\n        /* \"#utility.yul\":1251:1284   */\n      tag_35\n      jump\t// in\n    tag_68:\n        /* \"#utility.yul\":1161:1290   */\n      swap2\n      swap1\n      pop\n      jump\t// out\n        /* \"#utility.yul\":1296:1604   */\n    tag_37:\n        /* \"#utility.yul\":1358:1362   */\n      0x00\n        /* \"#utility.yul\":1448:1466   */\n      0xffffffffffffffff\n        /* \"#utility.yul\":1440:1446   */\n      dup3\n        /* \"#utility.yul\":1437:1467   */\n      gt\n        /* \"#utility.yul\":1434:1490   */\n      iszero\n      tag_70\n      jumpi\n        /* \"#utility.yul\":1470:1488   */\n      tag_71\n      tag_34\n      jump\t// in\n    tag_71:\n        /* \"#utility.yul\":1434:1490   */\n    tag_70:\n        /* \"#utility.yul\":1508:1537   */\n      tag_72\n        /* \"#utility.yul\":1530:1536   */\n      dup3\n        /* \"#utility.yul\":1508:1537   */\n      tag_33\n      jump\t// in\n    tag_72:\n        /* \"#utility.yul\":1500:1537   */\n      swap1\n      pop\n        /* \"#utility.yul\":1592:1596   */\n      0x20\n        /* \"#utility.yul\":1586:1590   */\n      dup2\n        /* \"#utility.yul\":1582:1597   */\n      add\n        /* \"#utility.yul\":1574:1597   */\n      swap1\n      pop\n        /* \"#utility.yul\":1296:1604   */\n      swap2\n      swap1\n      pop\n      jump\t// out\n        /* \"#utility.yul\":1610:1758   */\n    tag_38:\n        /* \"#utility.yul\":1708:1714   */\n      dup3\n        /* \"#utility.yul\":1703:1706   */\n      dup2\n        /* \"#utility.yul\":1698:1701   */\n      dup4\n        /* \"#utility.yul\":1685:1715   */\n      calldatacopy\n        /* \"#utility.yul\":1749:1750   */\n      0x00\n        /* \"#utility.yul\":1740:1746   */\n      dup4\n        /* \"#utility.yul\":1735:1738   */\n      dup4\n        /* \"#utility.yul\":1731:1747   */\n      add\n        /* \"#utility.yul\":1724:1751   */\n      mstore\n        /* \"#utility.yul\":1610:1758   */\n      pop\n      pop\n      pop\n      jump\t// out\n        /* \"#utility.yul\":1764:2189   */\n    tag_39:\n        /* \"#utility.yul\":1842:1847   */\n      0x00\n        /* \"#utility.yul\":1867:1933   */\n      tag_75\n        /* \"#utility.yul\":1883:1932   */\n      tag_76\n        /* \"#utility.yul\":1925:1931   */\n      dup5\n        /* \"#utility.yul\":1883:1932   */\n      tag_37\n      jump\t// in\n    tag_76:\n        /* \"#utility.yul\":1867:1933   */\n      tag_36\n      jump\t// in\n    tag_75:\n        /* \"#utility.yul\":1858:1933   */\n      swap1\n      pop\n        /* \"#utility.yul\":1956:1962   */\n      dup3\n        /* \"#utility.yul\":1949:1954   */\n      dup2\n        /* \"#utility.yul\":1942:1963   */\n      mstore\n        /* \"#utility.yul\":1994:1998   */\n      0x20\n        /* \"#utility.yul\":1987:1992   */\n      dup2\n        /* \"#utility.yul\":1983:1999   */\n      add\n        /* \"#utility.yul\":2032:2035   */\n      dup5\n        /* \"#utility.yul\":2023:2029   */\n      dup5\n        /* \"#utility.yul\":2018:2021   */\n      dup5\n        /* \"#utility.yul\":2014:2030   */\n      add\n        /* \"#utility.yul\":2011:2036   */\n      gt\n        /* \"#utility.yul\":2008:2120   */\n      iszero\n      tag_77\n      jumpi\n        /* \"#utility.yul\":2039:2118   */\n      tag_78\n      tag_32\n      jump\t// in\n    tag_78:\n        /* \"#utility.yul\":2008:2120   */\n    tag_77:\n        /* \"#utility.yul\":2129:2183   */\n      tag_79\n        /* \"#utility.yul\":2176:2182   */\n      dup5\n        /* \"#utility.yul\":2171:2174   */\n      dup3\n        /* \"#utility.yul\":2166:2169   */\n      dup6\n        /* \"#utility.yul\":2129:2183   */\n      tag_38\n      jump\t// in\n    tag_79:\n        /* \"#utility.yul\":1848:2189   */\n      pop\n        /* \"#utility.yul\":1764:2189   */\n      swap4\n      swap3\n      pop\n      pop\n      pop\n      jump\t// out\n        /* \"#utility.yul\":2209:2549   */\n    tag_40:\n        /* \"#utility.yul\":2265:2270   */\n      0x00\n        /* \"#utility.yul\":2314:2317   */\n      dup3\n        /* \"#utility.yul\":2307:2311   */\n      0x1f\n        /* \"#utility.yul\":2299:2305   */\n      dup4\n        /* \"#utility.yul\":2295:2312   */\n      add\n        /* \"#utility.yul\":2291:2318   */\n      slt\n        /* \"#utility.yul\":2281:2403   */\n      tag_81\n      jumpi\n        /* \"#utility.yul\":2322:2401   */\n      tag_82\n      tag_31\n      jump\t// in\n    tag_82:\n        /* \"#utility.yul\":2281:2403   */\n    tag_81:\n        /* \"#utility.yul\":2439:2445   */\n      dup2\n        /* \"#utility.yul\":2426:2446   */\n      calldataload\n        /* \"#utility.yul\":2464:2543   */\n      tag_83\n        /* \"#utility.yul\":2539:2542   */\n      dup5\n        /* \"#utility.yul\":2531:2537   */\n      dup3\n        /* \"#utility.yul\":2524:2528   */\n      0x20\n        /* \"#utility.yul\":2516:2522   */\n      dup7\n        /* \"#utility.yul\":2512:2529   */\n      add\n        /* \"#utility.yul\":2464:2543   */\n      tag_39\n      jump\t// in\n    tag_83:\n        /* \"#utility.yul\":2455:2543   */\n      swap2\n      pop\n        /* \"#utility.yul\":2271:2549   */\n      pop\n        /* \"#utility.yul\":2209:2549   */\n      swap3\n      swap2\n      pop\n      pop\n      jump\t// out\n        /* \"#utility.yul\":2555:3064   */\n    tag_7:\n        /* \"#utility.yul\":2624:2630   */\n      0x00\n        /* \"#utility.yul\":2673:2675   */\n      0x20\n        /* \"#utility.yul\":2661:2670   */\n      dup3\n        /* \"#utility.yul\":2652:2659   */\n      dup5\n        /* \"#utility.yul\":2648:2671   */\n      sub\n        /* \"#utility.yul\":2644:2676   */\n      slt\n        /* \"#utility.yul\":2641:2760   */\n      iszero\n      tag_85\n      jumpi\n        /* \"#utility.yul\":2679:2758   */\n      tag_86\n      tag_29\n      jump\t// in\n    tag_86:\n        /* \"#utility.yul\":2641:2760   */\n    tag_85:\n        /* \"#utility.yul\":2827:2828   */\n      0x00\n        /* \"#utility.yul\":2816:2825   */\n      dup3\n        /* \"#utility.yul\":2812:2829   */\n      add\n        /* \"#utility.yul\":2799:2830   */\n      calldataload\n        /* \"#utility.yul\":2857:2875   */\n      0xffffffffffffffff\n        /* \"#utility.yul\":2849:2855   */\n      dup2\n        /* \"#utility.yul\":2846:2876   */\n      gt\n        /* \"#utility.yul\":2843:2960   */\n      iszero\n      tag_87\n      jumpi\n        /* \"#utility.yul\":2879:2958   */\n      tag_88\n      tag_30\n      jump\t// in\n    tag_88:\n        /* \"#utility.yul\":2843:2960   */\n    tag_87:\n        /* \"#utility.yul\":2984:3047   */\n      tag_89\n        /* \"#utility.yul\":3039:3046   */\n      dup5\n        /* \"#utility.yul\":3030:3036   */\n      dup3\n        /* \"#utility.yul\":3019:3028   */\n      dup6\n        /* \"#utility.yul\":3015:3037   */\n      add\n        /* \"#utility.yul\":2984:3047   */\n      tag_40\n      jump\t// in\n    tag_89:\n        /* \"#utility.yul\":2974:3047   */\n      swap2\n      pop\n        /* \"#utility.yul\":2770:3057   */\n      pop\n        /* \"#utility.yul\":2555:3064   */\n      swap3\n      swap2\n      pop\n      pop\n      jump\t// out\n        /* \"#utility.yul\":3070:3147   */\n    tag_41:\n        /* \"#utility.yul\":3107:3114   */\n      0x00\n        /* \"#utility.yul\":3136:3141   */\n      dup2\n        /* \"#utility.yul\":3125:3141   */\n      swap1\n      pop\n        /* \"#utility.yul\":3070:3147   */\n      swap2\n      swap1\n      pop\n      jump\t// out\n        /* \"#utility.yul\":3153:3271   */\n    tag_42:\n        /* \"#utility.yul\":3240:3264   */\n      tag_92\n        /* \"#utility.yul\":3258:3263   */\n      dup2\n        /* \"#utility.yul\":3240:3264   */\n      tag_41\n      jump\t// in\n    tag_92:\n        /* \"#utility.yul\":3235:3238   */\n      dup3\n        /* \"#utility.yul\":3228:3265   */\n      mstore\n        /* \"#utility.yul\":3153:3271   */\n      pop\n      pop\n      jump\t// out\n        /* \"#utility.yul\":3277:3499   */\n    tag_10:\n        /* \"#utility.yul\":3370:3374   */\n      0x00\n        /* \"#utility.yul\":3408:3410   */\n      0x20\n        /* \"#utility.yul\":3397:3406   */\n      dup3\n        /* \"#utility.yul\":3393:3411   */\n      add\n        /* \"#utility.yul\":3385:3411   */\n      swap1\n      pop\n        /* \"#utility.yul\":3421:3492   */\n      tag_94\n        /* \"#utility.yul\":3489:3490   */\n      0x00\n        /* \"#utility.yul\":3478:3487   */\n      dup4\n        /* \"#utility.yul\":3474:3491   */\n      add\n        /* \"#utility.yul\":3465:3471   */\n      dup5\n        /* \"#utility.yul\":3421:3492   */\n      tag_42\n      jump\t// in\n    tag_94:\n        /* \"#utility.yul\":3277:3499   */\n      swap3\n      swap2\n      pop\n      pop\n      jump\t// out\n        /* \"#utility.yul\":3505:3627   */\n    tag_43:\n        /* \"#utility.yul\":3578:3602   */\n      tag_96\n        /* \"#utility.yul\":3596:3601   */\n      dup2\n        /* \"#utility.yul\":3578:3602   */\n      tag_41\n      jump\t// in\n    tag_96:\n        /* \"#utility.yul\":3571:3576   */\n      dup2\n        /* \"#utility.yul\":3568:3603   */\n      eq\n        /* \"#utility.yul\":3558:3621   */\n      tag_97\n      jumpi\n        /* \"#utility.yul\":3617:3618   */\n      0x00\n        /* \"#utility.yul\":3614:3615   */\n      dup1\n        /* \"#utility.yul\":3607:3619   */\n      revert\n        /* \"#utility.yul\":3558:3621   */\n    tag_97:\n        /* \"#utility.yul\":3505:3627   */\n      pop\n      jump\t// out\n        /* \"#utility.yul\":3633:3772   */\n    tag_44:\n        /* \"#utility.yul\":3679:3684   */\n      0x00\n        /* \"#utility.yul\":3717:3723   */\n      dup2\n        /* \"#utility.yul\":3704:3724   */\n      calldataload\n        /* \"#utility.yul\":3695:3724   */\n      swap1\n      pop\n        /* \"#utility.yul\":3733:3766   */\n      tag_99\n        /* \"#utility.yul\":3760:3765   */\n      dup2\n        /* \"#utility.yul\":3733:3766   */\n      tag_43\n      jump\t// in\n    tag_99:\n        /* \"#utility.yul\":3633:3772   */\n      swap3\n      swap2\n      pop\n      pop\n      jump\t// out\n        /* \"#utility.yul\":3778:4432   */\n    tag_13:\n        /* \"#utility.yul\":3856:3862   */\n      0x00\n        /* \"#utility.yul\":3864:3870   */\n      dup1\n        /* \"#utility.yul\":3913:3915   */\n      0x40\n        /* \"#utility.yul\":3901:3910   */\n      dup4\n        /* \"#utility.yul\":3892:3899   */\n      dup6\n        /* \"#utility.yul\":3888:3911   */\n      sub\n        /* \"#utility.yul\":3884:3916   */\n      slt\n        /* \"#utility.yul\":3881:4000   */\n      iszero\n      tag_101\n      jumpi\n        /* \"#utility.yul\":3919:3998   */\n      tag_102\n      tag_29\n      jump\t// in\n    tag_102:\n        /* \"#utility.yul\":3881:4000   */\n    tag_101:\n        /* \"#utility.yul\":4067:4068   */\n      0x00\n        /* \"#utility.yul\":4056:4065   */\n      dup4\n        /* \"#utility.yul\":4052:4069   */\n      add\n        /* \"#utility.yul\":4039:4070   */\n      calldataload\n        /* \"#utility.yul\":4097:4115   */\n      0xffffffffffffffff\n        /* \"#utility.yul\":4089:4095   */\n      dup2\n        /* \"#utility.yul\":4086:4116   */\n      gt\n        /* \"#utility.yul\":4083:4200   */\n      iszero\n      tag_103\n      jumpi\n        /* \"#utility.yul\":4119:4198   */\n      tag_104\n      tag_30\n      jump\t// in\n    tag_104:\n        /* \"#utility.yul\":4083:4200   */\n    tag_103:\n        /* \"#utility.yul\":4224:4287   */\n      tag_105\n        /* \"#utility.yul\":4279:4286   */\n      dup6\n        /* \"#utility.yul\":4270:4276   */\n      dup3\n        /* \"#utility.yul\":4259:4268   */\n      dup7\n        /* \"#utility.yul\":4255:4277   */\n      add\n        /* \"#utility.yul\":4224:4287   */\n      tag_40\n      jump\t// in\n    tag_105:\n        /* \"#utility.yul\":4214:4287   */\n      swap3\n      pop\n        /* \"#utility.yul\":4010:4297   */\n      pop\n        /* \"#utility.yul\":4336:4338   */\n      0x20\n        /* \"#utility.yul\":4362:4415   */\n      tag_106\n        /* \"#utility.yul\":4407:4414   */\n      dup6\n        /* \"#utility.yul\":4398:4404   */\n      dup3\n        /* \"#utility.yul\":4387:4396   */\n      dup7\n        /* \"#utility.yul\":4383:4405   */\n      add\n        /* \"#utility.yul\":4362:4415   */\n      tag_44\n      jump\t// in\n    tag_106:\n        /* \"#utility.yul\":4352:4415   */\n      swap2\n      pop\n        /* \"#utility.yul\":4307:4425   */\n      pop\n        /* \"#utility.yul\":3778:4432   */\n      swap3\n      pop\n      swap3\n      swap1\n      pop\n      jump\t// out\n        /* \"#utility.yul\":4438:4537   */\n    tag_45:\n        /* \"#utility.yul\":4490:4496   */\n      0x00\n        /* \"#utility.yul\":4524:4529   */\n      dup2\n        /* \"#utility.yul\":4518:4530   */\n      mload\n        /* \"#utility.yul\":4508:4530   */\n      swap1\n      pop\n        /* \"#utility.yul\":4438:4537   */\n      swap2\n      swap1\n      pop\n      jump\t// out\n        /* \"#utility.yul\":4543:4691   */\n    tag_46:\n        /* \"#utility.yul\":4645:4656   */\n      0x00\n        /* \"#utility.yul\":4682:4685   */\n      dup2\n        /* \"#utility.yul\":4667:4685   */\n      swap1\n      pop\n        /* \"#utility.yul\":4543:4691   */\n      swap3\n      swap2\n      pop\n      pop\n      jump\t// out\n        /* \"#utility.yul\":4697:4836   */\n    tag_47:\n        /* \"#utility.yul\":4786:4792   */\n      dup3\n        /* \"#utility.yul\":4781:4784   */\n      dup2\n        /* \"#utility.yul\":4776:4779   */\n      dup4\n        /* \"#utility.yul\":4770:4793   */\n      mcopy\n        /* \"#utility.yul\":4827:4828   */\n      0x00\n        /* \"#utility.yul\":4818:4824   */\n      dup4\n        /* \"#utility.yul\":4813:4816   */\n      dup4\n        /* \"#utility.yul\":4809:4825   */\n      add\n        /* \"#utility.yul\":4802:4829   */\n      mstore\n        /* \"#utility.yul\":4697:4836   */\n      pop\n      pop\n      pop\n      jump\t// out\n        /* \"#utility.yul\":4842:5232   */\n    tag_48:\n        /* \"#utility.yul\":4948:4951   */\n      0x00\n        /* \"#utility.yul\":4976:5015   */\n      tag_111\n        /* \"#utility.yul\":5009:5014   */\n      dup3\n        /* \"#utility.yul\":4976:5015   */\n      tag_45\n      jump\t// in\n    tag_111:\n        /* \"#utility.yul\":5031:5120   */\n      tag_112\n        /* \"#utility.yul\":5113:5119   */\n      dup2\n        /* \"#utility.yul\":5108:5111   */\n      dup6\n        /* \"#utility.yul\":5031:5120   */\n      tag_46\n      jump\t// in\n    tag_112:\n        /* \"#utility.yul\":5024:5120   */\n      swap4\n      pop\n        /* \"#utility.yul\":5129:5194   */\n      tag_113\n        /* \"#utility.yul\":5187:5193   */\n      dup2\n        /* \"#utility.yul\":5182:5185   */\n      dup6\n        /* \"#utility.yul\":5175:5179   */\n      0x20\n        /* \"#utility.yul\":5168:5173   */\n      dup7\n        /* \"#utility.yul\":5164:5180   */\n      add\n        /* \"#utility.yul\":5129:5194   */\n      tag_47\n      jump\t// in\n    tag_113:\n        /* \"#utility.yul\":5219:5225   */\n      dup1\n        /* \"#utility.yul\":5214:5217   */\n      dup5\n        /* \"#utility.yul\":5210:5226   */\n      add\n        /* \"#utility.yul\":5203:5226   */\n      swap2\n      pop\n        /* \"#utility.yul\":4952:5232   */\n      pop\n        /* \"#utility.yul\":4842:5232   */\n      swap3\n      swap2\n      pop\n      pop\n      jump\t// out\n        /* \"#utility.yul\":5238:5513   */\n    tag_17:\n        /* \"#utility.yul\":5370:5373   */\n      0x00\n        /* \"#utility.yul\":5392:5487   */\n      tag_115\n        /* \"#utility.yul\":5483:5486   */\n      dup3\n        /* \"#utility.yul\":5474:5480   */\n      dup5\n        /* \"#utility.yul\":5392:5487   */\n      tag_48\n      jump\t// in\n    tag_115:\n        /* \"#utility.yul\":5385:5487   */\n      swap2\n      pop\n        /* \"#utility.yul\":5504:5507   */\n      dup2\n        /* \"#utility.yul\":5497:5507   */\n      swap1\n      pop\n        /* \"#utility.yul\":5238:5513   */\n      swap3\n      swap2\n      pop\n      pop\n      jump\t// out\n        /* \"#utility.yul\":5519:5688   */\n    tag_49:\n        /* \"#utility.yul\":5603:5614   */\n      0x00\n        /* \"#utility.yul\":5637:5643   */\n      dup3\n        /* \"#utility.yul\":5632:5635   */\n      dup3\n        /* \"#utility.yul\":5625:5644   */\n      mstore\n        /* \"#utility.yul\":5677:5681   */\n      0x20\n        /* \"#utility.yul\":5672:5675   */\n      dup3\n        /* \"#utility.yul\":5668:5682   */\n      add\n        /* \"#utility.yul\":5653:5682   */\n      swap1\n      pop\n        /* \"#utility.yul\":5519:5688   */\n      swap3\n      swap2\n      pop\n      pop\n      jump\t// out\n        /* \"#utility.yul\":5694:5865   */\n    tag_50:\n        /* \"#utility.yul\":5834:5857   */\n      0x506572736f6e20646f6573206e6f742065786973740000000000000000000000\n        /* \"#utility.yul\":5830:5831   */\n      0x00\n        /* \"#utility.yul\":5822:5828   */\n      dup3\n        /* \"#utility.yul\":5818:5832   */\n      add\n        /* \"#utility.yul\":5811:5858   */\n      mstore\n        /* \"#utility.yul\":5694:5865   */\n      pop\n      jump\t// out\n        /* \"#utility.yul\":5871:6237   */\n    tag_51:\n        /* \"#utility.yul\":6013:6016   */\n      0x00\n        /* \"#utility.yul\":6034:6101   */\n      tag_119\n        /* \"#utility.yul\":6098:6100   */\n      0x15\n        /* \"#utility.yul\":6093:6096   */\n      dup4\n        /* \"#utility.yul\":6034:6101   */\n      tag_49\n      jump\t// in\n    tag_119:\n        /* \"#utility.yul\":6027:6101   */\n      swap2\n      pop\n        /* \"#utility.yul\":6110:6203   */\n      tag_120\n        /* \"#utility.yul\":6199:6202   */\n      dup3\n        /* \"#utility.yul\":6110:6203   */\n      tag_50\n      jump\t// in\n    tag_120:\n        /* \"#utility.yul\":6228:6230   */\n      0x20\n        /* \"#utility.yul\":6223:6226   */\n      dup3\n        /* \"#utility.yul\":6219:6231   */\n      add\n        /* \"#utility.yul\":6212:6231   */\n      swap1\n      pop\n        /* \"#utility.yul\":5871:6237   */\n      swap2\n      swap1\n      pop\n      jump\t// out\n        /* \"#utility.yul\":6243:6662   */\n    tag_20:\n        /* \"#utility.yul\":6409:6413   */\n      0x00\n        /* \"#utility.yul\":6447:6449   */\n      0x20\n        /* \"#utility.yul\":6436:6445   */\n      dup3\n        /* \"#utility.yul\":6432:6450   */\n      add\n        /* \"#utility.yul\":6424:6450   */\n      swap1\n      pop\n        /* \"#utility.yul\":6496:6505   */\n      dup2\n        /* \"#utility.yul\":6490:6494   */\n      dup2\n        /* \"#utility.yul\":6486:6506   */\n      sub\n        /* \"#utility.yul\":6482:6483   */\n      0x00\n        /* \"#utility.yul\":6471:6480   */\n      dup4\n        /* \"#utility.yul\":6467:6484   */\n      add\n        /* \"#utility.yul\":6460:6507   */\n      mstore\n        /* \"#utility.yul\":6524:6655   */\n      tag_122\n        /* \"#utility.yul\":6650:6654   */\n      dup2\n        /* \"#utility.yul\":6524:6655   */\n      tag_51\n      jump\t// in\n    tag_122:\n        /* \"#utility.yul\":6516:6655   */\n      swap1\n      pop\n        /* \"#utility.yul\":6243:6662   */\n      swap2\n      swap1\n      pop\n      jump\t// out\n        /* \"#utility.yul\":6668:6839   */\n    tag_52:\n        /* \"#utility.yul\":6808:6831   */\n      0x506572736f6e20616c7265616479206578697374730000000000000000000000\n        /* \"#utility.yul\":6804:6805   */\n      0x00\n        /* \"#utility.yul\":6796:6802   */\n      dup3\n        /* \"#utility.yul\":6792:6806   */\n      add\n        /* \"#utility.yul\":6785:6832   */\n      mstore\n        /* \"#utility.yul\":6668:6839   */\n      pop\n      jump\t// out\n        /* \"#utility.yul\":6845:7211   */\n    tag_53:\n        /* \"#utility.yul\":6987:6990   */\n      0x00\n        /* \"#utility.yul\":7008:7075   */\n      tag_125\n        /* \"#utility.yul\":7072:7074   */\n      0x15\n        /* \"#utility.yul\":7067:7070   */\n      dup4\n        /* \"#utility.yul\":7008:7075   */\n      tag_49\n      jump\t// in\n    tag_125:\n        /* \"#utility.yul\":7001:7075   */\n      swap2\n      pop\n        /* \"#utility.yul\":7084:7177   */\n      tag_126\n        /* \"#utility.yul\":7173:7176   */\n      dup3\n        /* \"#utility.yul\":7084:7177   */\n      tag_52\n      jump\t// in\n    tag_126:\n        /* \"#utility.yul\":7202:7204   */\n      0x20\n        /* \"#utility.yul\":7197:7200   */\n      dup3\n        /* \"#utility.yul\":7193:7205   */\n      add\n        /* \"#utility.yul\":7186:7205   */\n      swap1\n      pop\n        /* \"#utility.yul\":6845:7211   */\n      swap2\n      swap1\n      pop\n      jump\t// out\n        /* \"#utility.yul\":7217:7636   */\n    tag_25:\n        /* \"#utility.yul\":7383:7387   */\n      0x00\n        /* \"#utility.yul\":7421:7423   */\n      0x20\n        /* \"#utility.yul\":7410:7419   */\n      dup3\n        /* \"#utility.yul\":7406:7424   */\n      add\n        /* \"#utility.yul\":7398:7424   */\n      swap1\n      pop\n        /* \"#utility.yul\":7470:7479   */\n      dup2\n        /* \"#utility.yul\":7464:7468   */\n      dup2\n        /* \"#utility.yul\":7460:7480   */\n      sub\n        /* \"#utility.yul\":7456:7457   */\n      0x00\n        /* \"#utility.yul\":7445:7454   */\n      dup4\n        /* \"#utility.yul\":7441:7458   */\n      add\n        /* \"#utility.yul\":7434:7481   */\n      mstore\n        /* \"#utility.yul\":7498:7629   */\n      tag_128\n        /* \"#utility.yul\":7624:7628   */\n      dup2\n        /* \"#utility.yul\":7498:7629   */\n      tag_53\n      jump\t// in\n    tag_128:\n        /* \"#utility.yul\":7490:7629   */\n      swap1\n      pop\n        /* \"#utility.yul\":7217:7636   */\n      swap2\n      swap1\n      pop\n      jump\t// out\n\n    auxdata: 0xa2646970667358221220894ace725e8ee4585809a19300fc513cda0b1ccfdaf3d72e38f61c34c1d8955164736f6c634300081a0033\n}\n",
				"bytecode": {
					"linkReferences": {},
					"object": "6080604052348015600e575f80fd5b506105938061001c5f395ff3fe608060405234801561000f575f80fd5b5060043610610034575f3560e01c80637ee005ab146100385780638262963b14610068575b5f80fd5b610052600480360381019061004d9190610319565b610084565b60405161005f9190610378565b60405180910390f35b610082600480360381019061007d91906103bb565b610104565b005b5f805f836040516100959190610467565b90815260200160405180910390205490505f801b81036100ea576040517f08c379a00000000000000000000000000000000000000000000000000000000081526004016100e1906104d7565b60405180910390fd5b60015f8281526020019081526020015f2054915050919050565b5f801b5f836040516101169190610467565b90815260200160405180910390205414610165576040517f08c379a000000000000000000000000000000000000000000000000000000000815260040161015c9061053f565b60405180910390fd5b5f826040516020016101779190610467565b604051602081830303815290604052805190602001209050805f8460405161019f9190610467565b9081526020016040518091039020819055508160015f8381526020019081526020015f2081905550505050565b5f604051905090565b5f80fd5b5f80fd5b5f80fd5b5f80fd5b5f601f19601f8301169050919050565b7f4e487b71000000000000000000000000000000000000000000000000000000005f52604160045260245ffd5b61022b826101e5565b810181811067ffffffffffffffff8211171561024a576102496101f5565b5b80604052505050565b5f61025c6101cc565b90506102688282610222565b919050565b5f67ffffffffffffffff821115610287576102866101f5565b5b610290826101e5565b9050602081019050919050565b828183375f83830152505050565b5f6102bd6102b88461026d565b610253565b9050828152602081018484840111156102d9576102d86101e1565b5b6102e484828561029d565b509392505050565b5f82601f830112610300576102ff6101dd565b5b81356103108482602086016102ab565b91505092915050565b5f6020828403121561032e5761032d6101d5565b5b5f82013567ffffffffffffffff81111561034b5761034a6101d9565b5b610357848285016102ec565b91505092915050565b5f819050919050565b61037281610360565b82525050565b5f60208201905061038b5f830184610369565b92915050565b61039a81610360565b81146103a4575f80fd5b50565b5f813590506103b581610391565b92915050565b5f80604083850312156103d1576103d06101d5565b5b5f83013567ffffffffffffffff8111156103ee576103ed6101d9565b5b6103fa858286016102ec565b925050602061040b858286016103a7565b9150509250929050565b5f81519050919050565b5f81905092915050565b8281835e5f83830152505050565b5f61044182610415565b61044b818561041f565b935061045b818560208601610429565b80840191505092915050565b5f6104728284610437565b915081905092915050565b5f82825260208201905092915050565b7f506572736f6e20646f6573206e6f7420657869737400000000000000000000005f82015250565b5f6104c160158361047d565b91506104cc8261048d565b602082019050919050565b5f6020820190508181035f8301526104ee816104b5565b9050919050565b7f506572736f6e20616c72656164792065786973747300000000000000000000005f82015250565b5f61052960158361047d565b9150610534826104f5565b602082019050919050565b5f6020820190508181035f8301526105568161051d565b905091905056fea2646970667358221220894ace725e8ee4585809a19300fc513cda0b1ccfdaf3d72e38f61c34c1d8955164736f6c634300081a0033",
					"opcodes": "PUSH1 0x80 PUSH1 0x40 MSTORE CALLVALUE DUP1 ISZERO PUSH1 0xE JUMPI PUSH0 DUP1 REVERT JUMPDEST POP PUSH2 0x593 DUP1 PUSH2 0x1C PUSH0 CODECOPY PUSH0 RETURN INVALID PUSH1 0x80 PUSH1 0x40 MSTORE CALLVALUE DUP1 ISZERO PUSH2 0xF JUMPI PUSH0 DUP1 REVERT JUMPDEST POP PUSH1 0x4 CALLDATASIZE LT PUSH2 0x34 JUMPI PUSH0 CALLDATALOAD PUSH1 0xE0 SHR DUP1 PUSH4 0x7EE005AB EQ PUSH2 0x38 JUMPI DUP1 PUSH4 0x8262963B EQ PUSH2 0x68 JUMPI JUMPDEST PUSH0 DUP1 REVERT JUMPDEST PUSH2 0x52 PUSH1 0x4 DUP1 CALLDATASIZE SUB DUP2 ADD SWAP1 PUSH2 0x4D SWAP2 SWAP1 PUSH2 0x319 JUMP JUMPDEST PUSH2 0x84 JUMP JUMPDEST PUSH1 0x40 MLOAD PUSH2 0x5F SWAP2 SWAP1 PUSH2 0x378 JUMP JUMPDEST PUSH1 0x40 MLOAD DUP1 SWAP2 SUB SWAP1 RETURN JUMPDEST PUSH2 0x82 PUSH1 0x4 DUP1 CALLDATASIZE SUB DUP2 ADD SWAP1 PUSH2 0x7D SWAP2 SWAP1 PUSH2 0x3BB JUMP JUMPDEST PUSH2 0x104 JUMP JUMPDEST STOP JUMPDEST PUSH0 DUP1 PUSH0 DUP4 PUSH1 0x40 MLOAD PUSH2 0x95 SWAP2 SWAP1 PUSH2 0x467 JUMP JUMPDEST SWAP1 DUP2 MSTORE PUSH1 0x20 ADD PUSH1 0x40 MLOAD DUP1 SWAP2 SUB SWAP1 KECCAK256 SLOAD SWAP1 POP PUSH0 DUP1 SHL DUP2 SUB PUSH2 0xEA JUMPI PUSH1 0x40 MLOAD PUSH32 0x8C379A000000000000000000000000000000000000000000000000000000000 DUP2 MSTORE PUSH1 0x4 ADD PUSH2 0xE1 SWAP1 PUSH2 0x4D7 JUMP JUMPDEST PUSH1 0x40 MLOAD DUP1 SWAP2 SUB SWAP1 REVERT JUMPDEST PUSH1 0x1 PUSH0 DUP3 DUP2 MSTORE PUSH1 0x20 ADD SWAP1 DUP2 MSTORE PUSH1 0x20 ADD PUSH0 KECCAK256 SLOAD SWAP2 POP POP SWAP2 SWAP1 POP JUMP JUMPDEST PUSH0 DUP1 SHL PUSH0 DUP4 PUSH1 0x40 MLOAD PUSH2 0x116 SWAP2 SWAP1 PUSH2 0x467 JUMP JUMPDEST SWAP1 DUP2 MSTORE PUSH1 0x20 ADD PUSH1 0x40 MLOAD DUP1 SWAP2 SUB SWAP1 KECCAK256 SLOAD EQ PUSH2 0x165 JUMPI PUSH1 0x40 MLOAD PUSH32 0x8C379A000000000000000000000000000000000000000000000000000000000 DUP2 MSTORE PUSH1 0x4 ADD PUSH2 0x15C SWAP1 PUSH2 0x53F JUMP JUMPDEST PUSH1 0x40 MLOAD DUP1 SWAP2 SUB SWAP1 REVERT JUMPDEST PUSH0 DUP3 PUSH1 0x40 MLOAD PUSH1 0x20 ADD PUSH2 0x177 SWAP2 SWAP1 PUSH2 0x467 JUMP JUMPDEST PUSH1 0x40 MLOAD PUSH1 0x20 DUP2 DUP4 SUB SUB DUP2 MSTORE SWAP1 PUSH1 0x40 MSTORE DUP1 MLOAD SWAP1 PUSH1 0x20 ADD KECCAK256 SWAP1 POP DUP1 PUSH0 DUP5 PUSH1 0x40 MLOAD PUSH2 0x19F SWAP2 SWAP1 PUSH2 0x467 JUMP JUMPDEST SWAP1 DUP2 MSTORE PUSH1 0x20 ADD PUSH1 0x40 MLOAD DUP1 SWAP2 SUB SWAP1 KECCAK256 DUP2 SWAP1 SSTORE POP DUP2 PUSH1 0x1 PUSH0 DUP4 DUP2 MSTORE PUSH1 0x20 ADD SWAP1 DUP2 MSTORE PUSH1 0x20 ADD PUSH0 KECCAK256 DUP2 SWAP1 SSTORE POP POP POP POP JUMP JUMPDEST PUSH0 PUSH1 0x40 MLOAD SWAP1 POP SWAP1 JUMP JUMPDEST PUSH0 DUP1 REVERT JUMPDEST PUSH0 DUP1 REVERT JUMPDEST PUSH0 DUP1 REVERT JUMPDEST PUSH0 DUP1 REVERT JUMPDEST PUSH0 PUSH1 0x1F NOT PUSH1 0x1F DUP4 ADD AND SWAP1 POP SWAP2 SWAP1 POP JUMP JUMPDEST PUSH32 0x4E487B7100000000000000000000000000000000000000000000000000000000 PUSH0 MSTORE PUSH1 0x41 PUSH1 0x4 MSTORE PUSH1 0x24 PUSH0 REVERT JUMPDEST PUSH2 0x22B DUP3 PUSH2 0x1E5 JUMP JUMPDEST DUP2 ADD DUP2 DUP2 LT PUSH8 0xFFFFFFFFFFFFFFFF DUP3 GT OR ISZERO PUSH2 0x24A JUMPI PUSH2 0x249 PUSH2 0x1F5 JUMP JUMPDEST JUMPDEST DUP1 PUSH1 0x40 MSTORE POP POP POP JUMP JUMPDEST PUSH0 PUSH2 0x25C PUSH2 0x1CC JUMP JUMPDEST SWAP1 POP PUSH2 0x268 DUP3 DUP3 PUSH2 0x222 JUMP JUMPDEST SWAP2 SWAP1 POP JUMP JUMPDEST PUSH0 PUSH8 0xFFFFFFFFFFFFFFFF DUP3 GT ISZERO PUSH2 0x287 JUMPI PUSH2 0x286 PUSH2 0x1F5 JUMP JUMPDEST JUMPDEST PUSH2 0x290 DUP3 PUSH2 0x1E5 JUMP JUMPDEST SWAP1 POP PUSH1 0x20 DUP2 ADD SWAP1 POP SWAP2 SWAP1 POP JUMP JUMPDEST DUP3 DUP2 DUP4 CALLDATACOPY PUSH0 DUP4 DUP4 ADD MSTORE POP POP POP JUMP JUMPDEST PUSH0 PUSH2 0x2BD PUSH2 0x2B8 DUP5 PUSH2 0x26D JUMP JUMPDEST PUSH2 0x253 JUMP JUMPDEST SWAP1 POP DUP3 DUP2 MSTORE PUSH1 0x20 DUP2 ADD DUP5 DUP5 DUP5 ADD GT ISZERO PUSH2 0x2D9 JUMPI PUSH2 0x2D8 PUSH2 0x1E1 JUMP JUMPDEST JUMPDEST PUSH2 0x2E4 DUP5 DUP3 DUP6 PUSH2 0x29D JUMP JUMPDEST POP SWAP4 SWAP3 POP POP POP JUMP JUMPDEST PUSH0 DUP3 PUSH1 0x1F DUP4 ADD SLT PUSH2 0x300 JUMPI PUSH2 0x2FF PUSH2 0x1DD JUMP JUMPDEST JUMPDEST DUP2 CALLDATALOAD PUSH2 0x310 DUP5 DUP3 PUSH1 0x20 DUP7 ADD PUSH2 0x2AB JUMP JUMPDEST SWAP2 POP POP SWAP3 SWAP2 POP POP JUMP JUMPDEST PUSH0 PUSH1 0x20 DUP3 DUP5 SUB SLT ISZERO PUSH2 0x32E JUMPI PUSH2 0x32D PUSH2 0x1D5 JUMP JUMPDEST JUMPDEST PUSH0 DUP3 ADD CALLDATALOAD PUSH8 0xFFFFFFFFFFFFFFFF DUP2 GT ISZERO PUSH2 0x34B JUMPI PUSH2 0x34A PUSH2 0x1D9 JUMP JUMPDEST JUMPDEST PUSH2 0x357 DUP5 DUP3 DUP6 ADD PUSH2 0x2EC JUMP JUMPDEST SWAP2 POP POP SWAP3 SWAP2 POP POP JUMP JUMPDEST PUSH0 DUP2 SWAP1 POP SWAP2 SWAP1 POP JUMP JUMPDEST PUSH2 0x372 DUP2 PUSH2 0x360 JUMP JUMPDEST DUP3 MSTORE POP POP JUMP JUMPDEST PUSH0 PUSH1 0x20 DUP3 ADD SWAP1 POP PUSH2 0x38B PUSH0 DUP4 ADD DUP5 PUSH2 0x369 JUMP JUMPDEST SWAP3 SWAP2 POP POP JUMP JUMPDEST PUSH2 0x39A DUP2 PUSH2 0x360 JUMP JUMPDEST DUP2 EQ PUSH2 0x3A4 JUMPI PUSH0 DUP1 REVERT JUMPDEST POP JUMP JUMPDEST PUSH0 DUP2 CALLDATALOAD SWAP1 POP PUSH2 0x3B5 DUP2 PUSH2 0x391 JUMP JUMPDEST SWAP3 SWAP2 POP POP JUMP JUMPDEST PUSH0 DUP1 PUSH1 0x40 DUP4 DUP6 SUB SLT ISZERO PUSH2 0x3D1 JUMPI PUSH2 0x3D0 PUSH2 0x1D5 JUMP JUMPDEST JUMPDEST PUSH0 DUP4 ADD CALLDATALOAD PUSH8 0xFFFFFFFFFFFFFFFF DUP2 GT ISZERO PUSH2 0x3EE JUMPI PUSH2 0x3ED PUSH2 0x1D9 JUMP JUMPDEST JUMPDEST PUSH2 0x3FA DUP6 DUP3 DUP7 ADD PUSH2 0x2EC JUMP JUMPDEST SWAP3 POP POP PUSH1 0x20 PUSH2 0x40B DUP6 DUP3 DUP7 ADD PUSH2 0x3A7 JUMP JUMPDEST SWAP2 POP POP SWAP3 POP SWAP3 SWAP1 POP JUMP JUMPDEST PUSH0 DUP2 MLOAD SWAP1 POP SWAP2 SWAP1 POP JUMP JUMPDEST PUSH0 DUP2 SWAP1 POP SWAP3 SWAP2 POP POP JUMP JUMPDEST DUP3 DUP2 DUP4 MCOPY PUSH0 DUP4 DUP4 ADD MSTORE POP POP POP JUMP JUMPDEST PUSH0 PUSH2 0x441 DUP3 PUSH2 0x415 JUMP JUMPDEST PUSH2 0x44B DUP2 DUP6 PUSH2 0x41F JUMP JUMPDEST SWAP4 POP PUSH2 0x45B DUP2 DUP6 PUSH1 0x20 DUP7 ADD PUSH2 0x429 JUMP JUMPDEST DUP1 DUP5 ADD SWAP2 POP POP SWAP3 SWAP2 POP POP JUMP JUMPDEST PUSH0 PUSH2 0x472 DUP3 DUP5 PUSH2 0x437 JUMP JUMPDEST SWAP2 POP DUP2 SWAP1 POP SWAP3 SWAP2 POP POP JUMP JUMPDEST PUSH0 DUP3 DUP3 MSTORE PUSH1 0x20 DUP3 ADD SWAP1 POP SWAP3 SWAP2 POP POP JUMP JUMPDEST PUSH32 0x506572736F6E20646F6573206E6F742065786973740000000000000000000000 PUSH0 DUP3 ADD MSTORE POP JUMP JUMPDEST PUSH0 PUSH2 0x4C1 PUSH1 0x15 DUP4 PUSH2 0x47D JUMP JUMPDEST SWAP2 POP PUSH2 0x4CC DUP3 PUSH2 0x48D JUMP JUMPDEST PUSH1 0x20 DUP3 ADD SWAP1 POP SWAP2 SWAP1 POP JUMP JUMPDEST PUSH0 PUSH1 0x20 DUP3 ADD SWAP1 POP DUP2 DUP2 SUB PUSH0 DUP4 ADD MSTORE PUSH2 0x4EE DUP2 PUSH2 0x4B5 JUMP JUMPDEST SWAP1 POP SWAP2 SWAP1 POP JUMP JUMPDEST PUSH32 0x506572736F6E20616C7265616479206578697374730000000000000000000000 PUSH0 DUP3 ADD MSTORE POP JUMP JUMPDEST PUSH0 PUSH2 0x529 PUSH1 0x15 DUP4 PUSH2 0x47D JUMP JUMPDEST SWAP2 POP PUSH2 0x534 DUP3 PUSH2 0x4F5 JUMP JUMPDEST PUSH1 0x20 DUP3 ADD SWAP1 POP SWAP2 SWAP1 POP JUMP JUMPDEST PUSH0 PUSH1 0x20 DUP3 ADD SWAP1 POP DUP2 DUP2 SUB PUSH0 DUP4 ADD MSTORE PUSH2 0x556 DUP2 PUSH2 0x51D JUMP JUMPDEST SWAP1 POP SWAP2 SWAP1 POP JUMP INVALID LOG2 PUSH5 0x6970667358 0x22 SLT KECCAK256 DUP10 BLOBBASEFEE 0xCE PUSH19 0x5E8EE4585809A19300FC513CDA0B1CCFDAF3D7 0x2E CODESIZE 0xF6 SHR CALLVALUE 0xC1 0xD8 SWAP6 MLOAD PUSH5 0x736F6C6343 STOP ADDMOD BYTE STOP CALLER "
				},
				"gasEstimates": {
					"creation": {
						"codeDepositCost": "285400",
						"executionCost": "322",
						"totalCost": "285722"
					},
					"external": {
						"getInfo(string)": "infinite",
						"setInfo(string,uint256)": "infinite"
					}
				},
				"methodIdentifiers": {
					"getInfo(string)": "7ee005ab",
					"setInfo(string,uint256)": "8262963b"
				}
			},
			"storageLayout": {
				"storage": [
					{
						"astId": 336,
						"contract": "solidity100/solidity10_250103.sol:Q18",
						"label": "nameHashes",
						"offset": 0,
						"slot": "0",
						"type": "t_mapping(t_string_memory_ptr,t_bytes32)"
					},
					{
						"astId": 340,
						"contract": "solidity100/solidity10_250103.sol:Q18",
						"label": "birthdays",
						"offset": 0,
						"slot": "1",
						"type": "t_mapping(t_bytes32,t_uint256)"
					}
				],
				"types": {
					"t_bytes32": {
						"encoding": "inplace",
						"label": "bytes32",
						"numberOfBytes": "32"
					},
					"t_mapping(t_bytes32,t_uint256)": {
						"encoding": "mapping",
						"key": "t_bytes32",
						"label": "mapping(bytes32 => uint256)",
						"numberOfBytes": "32",
						"value": "t_uint256"
					},
					"t_mapping(t_string_memory_ptr,t_bytes32)": {
						"encoding": "mapping",
						"key": "t_string_memory_ptr",
						"label": "mapping(string => bytes32)",
						"numberOfBytes": "32",
						"value": "t_bytes32"
					},
					"t_string_memory_ptr": {
						"encoding": "bytes",
						"label": "string",
						"numberOfBytes": "32"
					},
					"t_uint256": {
						"encoding": "inplace",
						"label": "uint256",
						"numberOfBytes": "32"
					}
				}
			},
			"userdoc": {
				"kind": "user",
				"methods": {},
				"version": 1
			}
		}
	}
}