{
	"solidity100/soliditiy10_250109.sol": {
		"Q23": {
			"abi": [
				{
					"inputs": [
						{
							"internalType": "uint256",
							"name": "_number",
							"type": "uint256"
						}
					],
					"name": "filterNum",
					"outputs": [
						{
							"internalType": "string",
							"name": "",
							"type": "string"
						}
					],
					"stateMutability": "pure",
					"type": "function"
				}
			],
			"devdoc": {
				"kind": "dev",
				"methods": {},
				"version": 1
			},
			"evm": {
				"assembly": "    /* \"solidity100/soliditiy10_250109.sol\":814:1563  contract Q23 {... */\n  mstore(0x40, 0x80)\n  callvalue\n  dup1\n  iszero\n  tag_1\n  jumpi\n  0x00\n  dup1\n  revert\ntag_1:\n  pop\n  dataSize(sub_0)\n  dup1\n  dataOffset(sub_0)\n  0x00\n  codecopy\n  0x00\n  return\nstop\n\nsub_0: assembly {\n        /* \"solidity100/soliditiy10_250109.sol\":814:1563  contract Q23 {... */\n      mstore(0x40, 0x80)\n      callvalue\n      dup1\n      iszero\n      tag_1\n      jumpi\n      0x00\n      dup1\n      revert\n    tag_1:\n      pop\n      jumpi(tag_2, lt(calldatasize, 0x04))\n      shr(0xe0, calldataload(0x00))\n      dup1\n      0xdc5e74a8\n      eq\n      tag_3\n      jumpi\n    tag_2:\n      0x00\n      dup1\n      revert\n        /* \"solidity100/soliditiy10_250109.sol\":1036:1561  function filterNum(uint256 _number) public pure returns (string memory) {... */\n    tag_3:\n      tag_4\n      0x04\n      dup1\n      calldatasize\n      sub\n      dup2\n      add\n      swap1\n      tag_5\n      swap2\n      swap1\n      tag_6\n      jump\t// in\n    tag_5:\n      tag_7\n      jump\t// in\n    tag_4:\n      mload(0x40)\n      tag_8\n      swap2\n      swap1\n      tag_9\n      jump\t// in\n    tag_8:\n      mload(0x40)\n      dup1\n      swap2\n      sub\n      swap1\n      return\n    tag_7:\n        /* \"solidity100/soliditiy10_250109.sol\":1093:1106  string memory */\n      0x60\n        /* \"solidity100/soliditiy10_250109.sol\":1137:1138  0 */\n      0x00\n        /* \"solidity100/soliditiy10_250109.sol\":1127:1134  _number */\n      dup3\n        /* \"solidity100/soliditiy10_250109.sol\":1127:1138  _number > 0 */\n      gt\n        /* \"solidity100/soliditiy10_250109.sol\":1118:1169  require((_number > 0), \"Please input valid number\") */\n      tag_11\n      jumpi\n      mload(0x40)\n      0x08c379a000000000000000000000000000000000000000000000000000000000\n      dup2\n      mstore\n      0x04\n      add\n      tag_12\n      swap1\n      tag_13\n      jump\t// in\n    tag_12:\n      mload(0x40)\n      dup1\n      swap2\n      sub\n      swap1\n      revert\n    tag_11:\n        /* \"solidity100/soliditiy10_250109.sol\":1198:1199  0 */\n      0x00\n        /* \"solidity100/soliditiy10_250109.sol\":1193:1194  5 */\n      0x05\n        /* \"solidity100/soliditiy10_250109.sol\":1183:1190  _number */\n      dup4\n        /* \"solidity100/soliditiy10_250109.sol\":1183:1194  _number % 5 */\n      tag_14\n      swap2\n      swap1\n      tag_15\n      jump\t// in\n    tag_14:\n        /* \"solidity100/soliditiy10_250109.sol\":1183:1199  _number % 5 == 0 */\n      sub\n        /* \"solidity100/soliditiy10_250109.sol\":1179:1555  if (_number % 5 == 0) {... */\n      tag_16\n      jumpi\n        /* \"solidity100/soliditiy10_250109.sol\":1215:1225  return \"A\" */\n      mload(0x40)\n      dup1\n      0x40\n      add\n      0x40\n      mstore\n      dup1\n      0x01\n      dup2\n      mstore\n      0x20\n      add\n      0x4100000000000000000000000000000000000000000000000000000000000000\n      dup2\n      mstore\n      pop\n      swap1\n      pop\n      jump(tag_10)\n        /* \"solidity100/soliditiy10_250109.sol\":1179:1555  if (_number % 5 == 0) {... */\n    tag_16:\n        /* \"solidity100/soliditiy10_250109.sol\":1261:1262  1 */\n      0x01\n        /* \"solidity100/soliditiy10_250109.sol\":1256:1257  5 */\n      0x05\n        /* \"solidity100/soliditiy10_250109.sol\":1246:1253  _number */\n      dup4\n        /* \"solidity100/soliditiy10_250109.sol\":1246:1257  _number % 5 */\n      tag_18\n      swap2\n      swap1\n      tag_15\n      jump\t// in\n    tag_18:\n        /* \"solidity100/soliditiy10_250109.sol\":1246:1262  _number % 5 == 1 */\n      sub\n        /* \"solidity100/soliditiy10_250109.sol\":1242:1555  if (_number % 5 == 1) {... */\n      tag_19\n      jumpi\n        /* \"solidity100/soliditiy10_250109.sol\":1278:1288  return \"B\" */\n      mload(0x40)\n      dup1\n      0x40\n      add\n      0x40\n      mstore\n      dup1\n      0x01\n      dup2\n      mstore\n      0x20\n      add\n      0x4200000000000000000000000000000000000000000000000000000000000000\n      dup2\n      mstore\n      pop\n      swap1\n      pop\n      jump(tag_10)\n        /* \"solidity100/soliditiy10_250109.sol\":1242:1555  if (_number % 5 == 1) {... */\n    tag_19:\n        /* \"solidity100/soliditiy10_250109.sol\":1324:1325  2 */\n      0x02\n        /* \"solidity100/soliditiy10_250109.sol\":1319:1320  5 */\n      0x05\n        /* \"solidity100/soliditiy10_250109.sol\":1309:1316  _number */\n      dup4\n        /* \"solidity100/soliditiy10_250109.sol\":1309:1320  _number % 5 */\n      tag_21\n      swap2\n      swap1\n      tag_15\n      jump\t// in\n    tag_21:\n        /* \"solidity100/soliditiy10_250109.sol\":1309:1325  _number % 5 == 2 */\n      sub\n        /* \"solidity100/soliditiy10_250109.sol\":1305:1555  if (_number % 5 == 2) {... */\n      tag_22\n      jumpi\n        /* \"solidity100/soliditiy10_250109.sol\":1341:1351  return \"C\" */\n      mload(0x40)\n      dup1\n      0x40\n      add\n      0x40\n      mstore\n      dup1\n      0x01\n      dup2\n      mstore\n      0x20\n      add\n      0x4300000000000000000000000000000000000000000000000000000000000000\n      dup2\n      mstore\n      pop\n      swap1\n      pop\n      jump(tag_10)\n        /* \"solidity100/soliditiy10_250109.sol\":1305:1555  if (_number % 5 == 2) {... */\n    tag_22:\n        /* \"solidity100/soliditiy10_250109.sol\":1387:1388  3 */\n      0x03\n        /* \"solidity100/soliditiy10_250109.sol\":1382:1383  5 */\n      0x05\n        /* \"solidity100/soliditiy10_250109.sol\":1372:1379  _number */\n      dup4\n        /* \"solidity100/soliditiy10_250109.sol\":1372:1383  _number % 5 */\n      tag_24\n      swap2\n      swap1\n      tag_15\n      jump\t// in\n    tag_24:\n        /* \"solidity100/soliditiy10_250109.sol\":1372:1388  _number % 5 == 3 */\n      sub\n        /* \"solidity100/soliditiy10_250109.sol\":1368:1555  if (_number % 5 == 3) {... */\n      tag_25\n      jumpi\n        /* \"solidity100/soliditiy10_250109.sol\":1404:1414  return \"D\" */\n      mload(0x40)\n      dup1\n      0x40\n      add\n      0x40\n      mstore\n      dup1\n      0x01\n      dup2\n      mstore\n      0x20\n      add\n      0x4400000000000000000000000000000000000000000000000000000000000000\n      dup2\n      mstore\n      pop\n      swap1\n      pop\n      jump(tag_10)\n        /* \"solidity100/soliditiy10_250109.sol\":1368:1555  if (_number % 5 == 3) {... */\n    tag_25:\n        /* \"solidity100/soliditiy10_250109.sol\":1450:1451  4 */\n      0x04\n        /* \"solidity100/soliditiy10_250109.sol\":1445:1446  5 */\n      0x05\n        /* \"solidity100/soliditiy10_250109.sol\":1435:1442  _number */\n      dup4\n        /* \"solidity100/soliditiy10_250109.sol\":1435:1446  _number % 5 */\n      tag_27\n      swap2\n      swap1\n      tag_15\n      jump\t// in\n    tag_27:\n        /* \"solidity100/soliditiy10_250109.sol\":1435:1451  _number % 5 == 4 */\n      sub\n        /* \"solidity100/soliditiy10_250109.sol\":1431:1555  if (_number % 5 == 4) {... */\n      tag_28\n      jumpi\n        /* \"solidity100/soliditiy10_250109.sol\":1467:1477  return \"E\" */\n      mload(0x40)\n      dup1\n      0x40\n      add\n      0x40\n      mstore\n      dup1\n      0x01\n      dup2\n      mstore\n      0x20\n      add\n      0x4500000000000000000000000000000000000000000000000000000000000000\n      dup2\n      mstore\n      pop\n      swap1\n      pop\n      jump(tag_10)\n        /* \"solidity100/soliditiy10_250109.sol\":1431:1555  if (_number % 5 == 4) {... */\n    tag_28:\n        /* \"solidity100/soliditiy10_250109.sol\":1508:1544  return \"The number is not supported\" */\n      mload(0x40)\n      dup1\n      0x40\n      add\n      0x40\n      mstore\n      dup1\n      0x1b\n      dup2\n      mstore\n      0x20\n      add\n      0x546865206e756d626572206973206e6f7420737570706f727465640000000000\n      dup2\n      mstore\n      pop\n      swap1\n      pop\n        /* \"solidity100/soliditiy10_250109.sol\":1036:1561  function filterNum(uint256 _number) public pure returns (string memory) {... */\n    tag_10:\n      swap2\n      swap1\n      pop\n      jump\t// out\n        /* \"#utility.yul\":88:205   */\n    tag_31:\n        /* \"#utility.yul\":197:198   */\n      0x00\n        /* \"#utility.yul\":194:195   */\n      dup1\n        /* \"#utility.yul\":187:199   */\n      revert\n        /* \"#utility.yul\":334:411   */\n    tag_33:\n        /* \"#utility.yul\":371:378   */\n      0x00\n        /* \"#utility.yul\":400:405   */\n      dup2\n        /* \"#utility.yul\":389:405   */\n      swap1\n      pop\n        /* \"#utility.yul\":334:411   */\n      swap2\n      swap1\n      pop\n      jump\t// out\n        /* \"#utility.yul\":417:539   */\n    tag_34:\n        /* \"#utility.yul\":490:514   */\n      tag_50\n        /* \"#utility.yul\":508:513   */\n      dup2\n        /* \"#utility.yul\":490:514   */\n      tag_33\n      jump\t// in\n    tag_50:\n        /* \"#utility.yul\":483:488   */\n      dup2\n        /* \"#utility.yul\":480:515   */\n      eq\n        /* \"#utility.yul\":470:533   */\n      tag_51\n      jumpi\n        /* \"#utility.yul\":529:530   */\n      0x00\n        /* \"#utility.yul\":526:527   */\n      dup1\n        /* \"#utility.yul\":519:531   */\n      revert\n        /* \"#utility.yul\":470:533   */\n    tag_51:\n        /* \"#utility.yul\":417:539   */\n      pop\n      jump\t// out\n        /* \"#utility.yul\":545:684   */\n    tag_35:\n        /* \"#utility.yul\":591:596   */\n      0x00\n        /* \"#utility.yul\":629:635   */\n      dup2\n        /* \"#utility.yul\":616:636   */\n      calldataload\n        /* \"#utility.yul\":607:636   */\n      swap1\n      pop\n        /* \"#utility.yul\":645:678   */\n      tag_53\n        /* \"#utility.yul\":672:677   */\n      dup2\n        /* \"#utility.yul\":645:678   */\n      tag_34\n      jump\t// in\n    tag_53:\n        /* \"#utility.yul\":545:684   */\n      swap3\n      swap2\n      pop\n      pop\n      jump\t// out\n        /* \"#utility.yul\":690:1019   */\n    tag_6:\n        /* \"#utility.yul\":749:755   */\n      0x00\n        /* \"#utility.yul\":798:800   */\n      0x20\n        /* \"#utility.yul\":786:795   */\n      dup3\n        /* \"#utility.yul\":777:784   */\n      dup5\n        /* \"#utility.yul\":773:796   */\n      sub\n        /* \"#utility.yul\":769:801   */\n      slt\n        /* \"#utility.yul\":766:885   */\n      iszero\n      tag_55\n      jumpi\n        /* \"#utility.yul\":804:883   */\n      tag_56\n      tag_31\n      jump\t// in\n    tag_56:\n        /* \"#utility.yul\":766:885   */\n    tag_55:\n        /* \"#utility.yul\":924:925   */\n      0x00\n        /* \"#utility.yul\":949:1002   */\n      tag_57\n        /* \"#utility.yul\":994:1001   */\n      dup5\n        /* \"#utility.yul\":985:991   */\n      dup3\n        /* \"#utility.yul\":974:983   */\n      dup6\n        /* \"#utility.yul\":970:992   */\n      add\n        /* \"#utility.yul\":949:1002   */\n      tag_35\n      jump\t// in\n    tag_57:\n        /* \"#utility.yul\":939:1002   */\n      swap2\n      pop\n        /* \"#utility.yul\":895:1012   */\n      pop\n        /* \"#utility.yul\":690:1019   */\n      swap3\n      swap2\n      pop\n      pop\n      jump\t// out\n        /* \"#utility.yul\":1025:1124   */\n    tag_36:\n        /* \"#utility.yul\":1077:1083   */\n      0x00\n        /* \"#utility.yul\":1111:1116   */\n      dup2\n        /* \"#utility.yul\":1105:1117   */\n      mload\n        /* \"#utility.yul\":1095:1117   */\n      swap1\n      pop\n        /* \"#utility.yul\":1025:1124   */\n      swap2\n      swap1\n      pop\n      jump\t// out\n        /* \"#utility.yul\":1130:1299   */\n    tag_37:\n        /* \"#utility.yul\":1214:1225   */\n      0x00\n        /* \"#utility.yul\":1248:1254   */\n      dup3\n        /* \"#utility.yul\":1243:1246   */\n      dup3\n        /* \"#utility.yul\":1236:1255   */\n      mstore\n        /* \"#utility.yul\":1288:1292   */\n      0x20\n        /* \"#utility.yul\":1283:1286   */\n      dup3\n        /* \"#utility.yul\":1279:1293   */\n      add\n        /* \"#utility.yul\":1264:1293   */\n      swap1\n      pop\n        /* \"#utility.yul\":1130:1299   */\n      swap3\n      swap2\n      pop\n      pop\n      jump\t// out\n        /* \"#utility.yul\":1305:1444   */\n    tag_38:\n        /* \"#utility.yul\":1394:1400   */\n      dup3\n        /* \"#utility.yul\":1389:1392   */\n      dup2\n        /* \"#utility.yul\":1384:1387   */\n      dup4\n        /* \"#utility.yul\":1378:1401   */\n      mcopy\n        /* \"#utility.yul\":1435:1436   */\n      0x00\n        /* \"#utility.yul\":1426:1432   */\n      dup4\n        /* \"#utility.yul\":1421:1424   */\n      dup4\n        /* \"#utility.yul\":1417:1433   */\n      add\n        /* \"#utility.yul\":1410:1437   */\n      mstore\n        /* \"#utility.yul\":1305:1444   */\n      pop\n      pop\n      pop\n      jump\t// out\n        /* \"#utility.yul\":1450:1552   */\n    tag_39:\n        /* \"#utility.yul\":1491:1497   */\n      0x00\n        /* \"#utility.yul\":1542:1544   */\n      0x1f\n        /* \"#utility.yul\":1538:1545   */\n      not\n        /* \"#utility.yul\":1533:1535   */\n      0x1f\n        /* \"#utility.yul\":1526:1531   */\n      dup4\n        /* \"#utility.yul\":1522:1536   */\n      add\n        /* \"#utility.yul\":1518:1546   */\n      and\n        /* \"#utility.yul\":1508:1546   */\n      swap1\n      pop\n        /* \"#utility.yul\":1450:1552   */\n      swap2\n      swap1\n      pop\n      jump\t// out\n        /* \"#utility.yul\":1558:1935   */\n    tag_40:\n        /* \"#utility.yul\":1646:1649   */\n      0x00\n        /* \"#utility.yul\":1674:1713   */\n      tag_63\n        /* \"#utility.yul\":1707:1712   */\n      dup3\n        /* \"#utility.yul\":1674:1713   */\n      tag_36\n      jump\t// in\n    tag_63:\n        /* \"#utility.yul\":1729:1800   */\n      tag_64\n        /* \"#utility.yul\":1793:1799   */\n      dup2\n        /* \"#utility.yul\":1788:1791   */\n      dup6\n        /* \"#utility.yul\":1729:1800   */\n      tag_37\n      jump\t// in\n    tag_64:\n        /* \"#utility.yul\":1722:1800   */\n      swap4\n      pop\n        /* \"#utility.yul\":1809:1874   */\n      tag_65\n        /* \"#utility.yul\":1867:1873   */\n      dup2\n        /* \"#utility.yul\":1862:1865   */\n      dup6\n        /* \"#utility.yul\":1855:1859   */\n      0x20\n        /* \"#utility.yul\":1848:1853   */\n      dup7\n        /* \"#utility.yul\":1844:1860   */\n      add\n        /* \"#utility.yul\":1809:1874   */\n      tag_38\n      jump\t// in\n    tag_65:\n        /* \"#utility.yul\":1899:1928   */\n      tag_66\n        /* \"#utility.yul\":1921:1927   */\n      dup2\n        /* \"#utility.yul\":1899:1928   */\n      tag_39\n      jump\t// in\n    tag_66:\n        /* \"#utility.yul\":1894:1897   */\n      dup5\n        /* \"#utility.yul\":1890:1929   */\n      add\n        /* \"#utility.yul\":1883:1929   */\n      swap2\n      pop\n        /* \"#utility.yul\":1650:1935   */\n      pop\n        /* \"#utility.yul\":1558:1935   */\n      swap3\n      swap2\n      pop\n      pop\n      jump\t// out\n        /* \"#utility.yul\":1941:2254   */\n    tag_9:\n        /* \"#utility.yul\":2054:2058   */\n      0x00\n        /* \"#utility.yul\":2092:2094   */\n      0x20\n        /* \"#utility.yul\":2081:2090   */\n      dup3\n        /* \"#utility.yul\":2077:2095   */\n      add\n        /* \"#utility.yul\":2069:2095   */\n      swap1\n      pop\n        /* \"#utility.yul\":2141:2150   */\n      dup2\n        /* \"#utility.yul\":2135:2139   */\n      dup2\n        /* \"#utility.yul\":2131:2151   */\n      sub\n        /* \"#utility.yul\":2127:2128   */\n      0x00\n        /* \"#utility.yul\":2116:2125   */\n      dup4\n        /* \"#utility.yul\":2112:2129   */\n      add\n        /* \"#utility.yul\":2105:2152   */\n      mstore\n        /* \"#utility.yul\":2169:2247   */\n      tag_68\n        /* \"#utility.yul\":2242:2246   */\n      dup2\n        /* \"#utility.yul\":2233:2239   */\n      dup5\n        /* \"#utility.yul\":2169:2247   */\n      tag_40\n      jump\t// in\n    tag_68:\n        /* \"#utility.yul\":2161:2247   */\n      swap1\n      pop\n        /* \"#utility.yul\":1941:2254   */\n      swap3\n      swap2\n      pop\n      pop\n      jump\t// out\n        /* \"#utility.yul\":2260:2435   */\n    tag_41:\n        /* \"#utility.yul\":2400:2427   */\n      0x506c6561736520696e7075742076616c6964206e756d62657200000000000000\n        /* \"#utility.yul\":2396:2397   */\n      0x00\n        /* \"#utility.yul\":2388:2394   */\n      dup3\n        /* \"#utility.yul\":2384:2398   */\n      add\n        /* \"#utility.yul\":2377:2428   */\n      mstore\n        /* \"#utility.yul\":2260:2435   */\n      pop\n      jump\t// out\n        /* \"#utility.yul\":2441:2807   */\n    tag_42:\n        /* \"#utility.yul\":2583:2586   */\n      0x00\n        /* \"#utility.yul\":2604:2671   */\n      tag_71\n        /* \"#utility.yul\":2668:2670   */\n      0x19\n        /* \"#utility.yul\":2663:2666   */\n      dup4\n        /* \"#utility.yul\":2604:2671   */\n      tag_37\n      jump\t// in\n    tag_71:\n        /* \"#utility.yul\":2597:2671   */\n      swap2\n      pop\n        /* \"#utility.yul\":2680:2773   */\n      tag_72\n        /* \"#utility.yul\":2769:2772   */\n      dup3\n        /* \"#utility.yul\":2680:2773   */\n      tag_41\n      jump\t// in\n    tag_72:\n        /* \"#utility.yul\":2798:2800   */\n      0x20\n        /* \"#utility.yul\":2793:2796   */\n      dup3\n        /* \"#utility.yul\":2789:2801   */\n      add\n        /* \"#utility.yul\":2782:2801   */\n      swap1\n      pop\n        /* \"#utility.yul\":2441:2807   */\n      swap2\n      swap1\n      pop\n      jump\t// out\n        /* \"#utility.yul\":2813:3232   */\n    tag_13:\n        /* \"#utility.yul\":2979:2983   */\n      0x00\n        /* \"#utility.yul\":3017:3019   */\n      0x20\n        /* \"#utility.yul\":3006:3015   */\n      dup3\n        /* \"#utility.yul\":3002:3020   */\n      add\n        /* \"#utility.yul\":2994:3020   */\n      swap1\n      pop\n        /* \"#utility.yul\":3066:3075   */\n      dup2\n        /* \"#utility.yul\":3060:3064   */\n      dup2\n        /* \"#utility.yul\":3056:3076   */\n      sub\n        /* \"#utility.yul\":3052:3053   */\n      0x00\n        /* \"#utility.yul\":3041:3050   */\n      dup4\n        /* \"#utility.yul\":3037:3054   */\n      add\n        /* \"#utility.yul\":3030:3077   */\n      mstore\n        /* \"#utility.yul\":3094:3225   */\n      tag_74\n        /* \"#utility.yul\":3220:3224   */\n      dup2\n        /* \"#utility.yul\":3094:3225   */\n      tag_42\n      jump\t// in\n    tag_74:\n        /* \"#utility.yul\":3086:3225   */\n      swap1\n      pop\n        /* \"#utility.yul\":2813:3232   */\n      swap2\n      swap1\n      pop\n      jump\t// out\n        /* \"#utility.yul\":3238:3418   */\n    tag_43:\n        /* \"#utility.yul\":3286:3363   */\n      0x4e487b7100000000000000000000000000000000000000000000000000000000\n        /* \"#utility.yul\":3283:3284   */\n      0x00\n        /* \"#utility.yul\":3276:3364   */\n      mstore\n        /* \"#utility.yul\":3383:3387   */\n      0x12\n        /* \"#utility.yul\":3380:3381   */\n      0x04\n        /* \"#utility.yul\":3373:3388   */\n      mstore\n        /* \"#utility.yul\":3407:3411   */\n      0x24\n        /* \"#utility.yul\":3404:3405   */\n      0x00\n        /* \"#utility.yul\":3397:3412   */\n      revert\n        /* \"#utility.yul\":3424:3600   */\n    tag_15:\n        /* \"#utility.yul\":3456:3457   */\n      0x00\n        /* \"#utility.yul\":3473:3493   */\n      tag_77\n        /* \"#utility.yul\":3491:3492   */\n      dup3\n        /* \"#utility.yul\":3473:3493   */\n      tag_33\n      jump\t// in\n    tag_77:\n        /* \"#utility.yul\":3468:3493   */\n      swap2\n      pop\n        /* \"#utility.yul\":3507:3527   */\n      tag_78\n        /* \"#utility.yul\":3525:3526   */\n      dup4\n        /* \"#utility.yul\":3507:3527   */\n      tag_33\n      jump\t// in\n    tag_78:\n        /* \"#utility.yul\":3502:3527   */\n      swap3\n      pop\n        /* \"#utility.yul\":3546:3547   */\n      dup3\n        /* \"#utility.yul\":3536:3571   */\n      tag_79\n      jumpi\n        /* \"#utility.yul\":3551:3569   */\n      tag_80\n      tag_43\n      jump\t// in\n    tag_80:\n        /* \"#utility.yul\":3536:3571   */\n    tag_79:\n        /* \"#utility.yul\":3592:3593   */\n      dup3\n        /* \"#utility.yul\":3589:3590   */\n      dup3\n        /* \"#utility.yul\":3585:3594   */\n      mod\n        /* \"#utility.yul\":3580:3594   */\n      swap1\n      pop\n        /* \"#utility.yul\":3424:3600   */\n      swap3\n      swap2\n      pop\n      pop\n      jump\t// out\n\n    auxdata: 0xa264697066735822122091a4048afa1d47c7dc728b70961a68c638c8478c078d71348523249bb8c0c53364736f6c634300081a0033\n}\n",
				"bytecode": {
					"linkReferences": {},
					"object": "6080604052348015600e575f80fd5b506104608061001c5f395ff3fe608060405234801561000f575f80fd5b5060043610610029575f3560e01c8063dc5e74a81461002d575b5f80fd5b610047600480360381019061004291906102aa565b61005d565b6040516100549190610345565b60405180910390f35b60605f82116100a1576040517f08c379a0000000000000000000000000000000000000000000000000000000008152600401610098906103af565b60405180910390fd5b5f6005836100af91906103fa565b036100f1576040518060400160405280600181526020017f4100000000000000000000000000000000000000000000000000000000000000815250905061026e565b600160058361010091906103fa565b03610142576040518060400160405280600181526020017f4200000000000000000000000000000000000000000000000000000000000000815250905061026e565b600260058361015191906103fa565b03610193576040518060400160405280600181526020017f4300000000000000000000000000000000000000000000000000000000000000815250905061026e565b60036005836101a291906103fa565b036101e4576040518060400160405280600181526020017f4400000000000000000000000000000000000000000000000000000000000000815250905061026e565b60046005836101f391906103fa565b03610235576040518060400160405280600181526020017f4500000000000000000000000000000000000000000000000000000000000000815250905061026e565b6040518060400160405280601b81526020017f546865206e756d626572206973206e6f7420737570706f72746564000000000081525090505b919050565b5f80fd5b5f819050919050565b61028981610277565b8114610293575f80fd5b50565b5f813590506102a481610280565b92915050565b5f602082840312156102bf576102be610273565b5b5f6102cc84828501610296565b91505092915050565b5f81519050919050565b5f82825260208201905092915050565b8281835e5f83830152505050565b5f601f19601f8301169050919050565b5f610317826102d5565b61032181856102df565b93506103318185602086016102ef565b61033a816102fd565b840191505092915050565b5f6020820190508181035f83015261035d818461030d565b905092915050565b7f506c6561736520696e7075742076616c6964206e756d626572000000000000005f82015250565b5f6103996019836102df565b91506103a482610365565b602082019050919050565b5f6020820190508181035f8301526103c68161038d565b9050919050565b7f4e487b71000000000000000000000000000000000000000000000000000000005f52601260045260245ffd5b5f61040482610277565b915061040f83610277565b92508261041f5761041e6103cd565b5b82820690509291505056fea264697066735822122091a4048afa1d47c7dc728b70961a68c638c8478c078d71348523249bb8c0c53364736f6c634300081a0033",
					"opcodes": "PUSH1 0x80 PUSH1 0x40 MSTORE CALLVALUE DUP1 ISZERO PUSH1 0xE JUMPI PUSH0 DUP1 REVERT JUMPDEST POP PUSH2 0x460 DUP1 PUSH2 0x1C PUSH0 CODECOPY PUSH0 RETURN INVALID PUSH1 0x80 PUSH1 0x40 MSTORE CALLVALUE DUP1 ISZERO PUSH2 0xF JUMPI PUSH0 DUP1 REVERT JUMPDEST POP PUSH1 0x4 CALLDATASIZE LT PUSH2 0x29 JUMPI PUSH0 CALLDATALOAD PUSH1 0xE0 SHR DUP1 PUSH4 0xDC5E74A8 EQ PUSH2 0x2D JUMPI JUMPDEST PUSH0 DUP1 REVERT JUMPDEST PUSH2 0x47 PUSH1 0x4 DUP1 CALLDATASIZE SUB DUP2 ADD SWAP1 PUSH2 0x42 SWAP2 SWAP1 PUSH2 0x2AA JUMP JUMPDEST PUSH2 0x5D JUMP JUMPDEST PUSH1 0x40 MLOAD PUSH2 0x54 SWAP2 SWAP1 PUSH2 0x345 JUMP JUMPDEST PUSH1 0x40 MLOAD DUP1 SWAP2 SUB SWAP1 RETURN JUMPDEST PUSH1 0x60 PUSH0 DUP3 GT PUSH2 0xA1 JUMPI PUSH1 0x40 MLOAD PUSH32 0x8C379A000000000000000000000000000000000000000000000000000000000 DUP2 MSTORE PUSH1 0x4 ADD PUSH2 0x98 SWAP1 PUSH2 0x3AF JUMP JUMPDEST PUSH1 0x40 MLOAD DUP1 SWAP2 SUB SWAP1 REVERT JUMPDEST PUSH0 PUSH1 0x5 DUP4 PUSH2 0xAF SWAP2 SWAP1 PUSH2 0x3FA JUMP JUMPDEST SUB PUSH2 0xF1 JUMPI PUSH1 0x40 MLOAD DUP1 PUSH1 0x40 ADD PUSH1 0x40 MSTORE DUP1 PUSH1 0x1 DUP2 MSTORE PUSH1 0x20 ADD PUSH32 0x4100000000000000000000000000000000000000000000000000000000000000 DUP2 MSTORE POP SWAP1 POP PUSH2 0x26E JUMP JUMPDEST PUSH1 0x1 PUSH1 0x5 DUP4 PUSH2 0x100 SWAP2 SWAP1 PUSH2 0x3FA JUMP JUMPDEST SUB PUSH2 0x142 JUMPI PUSH1 0x40 MLOAD DUP1 PUSH1 0x40 ADD PUSH1 0x40 MSTORE DUP1 PUSH1 0x1 DUP2 MSTORE PUSH1 0x20 ADD PUSH32 0x4200000000000000000000000000000000000000000000000000000000000000 DUP2 MSTORE POP SWAP1 POP PUSH2 0x26E JUMP JUMPDEST PUSH1 0x2 PUSH1 0x5 DUP4 PUSH2 0x151 SWAP2 SWAP1 PUSH2 0x3FA JUMP JUMPDEST SUB PUSH2 0x193 JUMPI PUSH1 0x40 MLOAD DUP1 PUSH1 0x40 ADD PUSH1 0x40 MSTORE DUP1 PUSH1 0x1 DUP2 MSTORE PUSH1 0x20 ADD PUSH32 0x4300000000000000000000000000000000000000000000000000000000000000 DUP2 MSTORE POP SWAP1 POP PUSH2 0x26E JUMP JUMPDEST PUSH1 0x3 PUSH1 0x5 DUP4 PUSH2 0x1A2 SWAP2 SWAP1 PUSH2 0x3FA JUMP JUMPDEST SUB PUSH2 0x1E4 JUMPI PUSH1 0x40 MLOAD DUP1 PUSH1 0x40 ADD PUSH1 0x40 MSTORE DUP1 PUSH1 0x1 DUP2 MSTORE PUSH1 0x20 ADD PUSH32 0x4400000000000000000000000000000000000000000000000000000000000000 DUP2 MSTORE POP SWAP1 POP PUSH2 0x26E JUMP JUMPDEST PUSH1 0x4 PUSH1 0x5 DUP4 PUSH2 0x1F3 SWAP2 SWAP1 PUSH2 0x3FA JUMP JUMPDEST SUB PUSH2 0x235 JUMPI PUSH1 0x40 MLOAD DUP1 PUSH1 0x40 ADD PUSH1 0x40 MSTORE DUP1 PUSH1 0x1 DUP2 MSTORE PUSH1 0x20 ADD PUSH32 0x4500000000000000000000000000000000000000000000000000000000000000 DUP2 MSTORE POP SWAP1 POP PUSH2 0x26E JUMP JUMPDEST PUSH1 0x40 MLOAD DUP1 PUSH1 0x40 ADD PUSH1 0x40 MSTORE DUP1 PUSH1 0x1B DUP2 MSTORE PUSH1 0x20 ADD PUSH32 0x546865206E756D626572206973206E6F7420737570706F727465640000000000 DUP2 MSTORE POP SWAP1 POP JUMPDEST SWAP2 SWAP1 POP JUMP JUMPDEST PUSH0 DUP1 REVERT JUMPDEST PUSH0 DUP2 SWAP1 POP SWAP2 SWAP1 POP JUMP JUMPDEST PUSH2 0x289 DUP2 PUSH2 0x277 JUMP JUMPDEST DUP2 EQ PUSH2 0x293 JUMPI PUSH0 DUP1 REVERT JUMPDEST POP JUMP JUMPDEST PUSH0 DUP2 CALLDATALOAD SWAP1 POP PUSH2 0x2A4 DUP2 PUSH2 0x280 JUMP JUMPDEST SWAP3 SWAP2 POP POP JUMP JUMPDEST PUSH0 PUSH1 0x20 DUP3 DUP5 SUB SLT ISZERO PUSH2 0x2BF JUMPI PUSH2 0x2BE PUSH2 0x273 JUMP JUMPDEST JUMPDEST PUSH0 PUSH2 0x2CC DUP5 DUP3 DUP6 ADD PUSH2 0x296 JUMP JUMPDEST SWAP2 POP POP SWAP3 SWAP2 POP POP JUMP JUMPDEST PUSH0 DUP2 MLOAD SWAP1 POP SWAP2 SWAP1 POP JUMP JUMPDEST PUSH0 DUP3 DUP3 MSTORE PUSH1 0x20 DUP3 ADD SWAP1 POP SWAP3 SWAP2 POP POP JUMP JUMPDEST DUP3 DUP2 DUP4 MCOPY PUSH0 DUP4 DUP4 ADD MSTORE POP POP POP JUMP JUMPDEST PUSH0 PUSH1 0x1F NOT PUSH1 0x1F DUP4 ADD AND SWAP1 POP SWAP2 SWAP1 POP JUMP JUMPDEST PUSH0 PUSH2 0x317 DUP3 PUSH2 0x2D5 JUMP JUMPDEST PUSH2 0x321 DUP2 DUP6 PUSH2 0x2DF JUMP JUMPDEST SWAP4 POP PUSH2 0x331 DUP2 DUP6 PUSH1 0x20 DUP7 ADD PUSH2 0x2EF JUMP JUMPDEST PUSH2 0x33A DUP2 PUSH2 0x2FD JUMP JUMPDEST DUP5 ADD SWAP2 POP POP SWAP3 SWAP2 POP POP JUMP JUMPDEST PUSH0 PUSH1 0x20 DUP3 ADD SWAP1 POP DUP2 DUP2 SUB PUSH0 DUP4 ADD MSTORE PUSH2 0x35D DUP2 DUP5 PUSH2 0x30D JUMP JUMPDEST SWAP1 POP SWAP3 SWAP2 POP POP JUMP JUMPDEST PUSH32 0x506C6561736520696E7075742076616C6964206E756D62657200000000000000 PUSH0 DUP3 ADD MSTORE POP JUMP JUMPDEST PUSH0 PUSH2 0x399 PUSH1 0x19 DUP4 PUSH2 0x2DF JUMP JUMPDEST SWAP2 POP PUSH2 0x3A4 DUP3 PUSH2 0x365 JUMP JUMPDEST PUSH1 0x20 DUP3 ADD SWAP1 POP SWAP2 SWAP1 POP JUMP JUMPDEST PUSH0 PUSH1 0x20 DUP3 ADD SWAP1 POP DUP2 DUP2 SUB PUSH0 DUP4 ADD MSTORE PUSH2 0x3C6 DUP2 PUSH2 0x38D JUMP JUMPDEST SWAP1 POP SWAP2 SWAP1 POP JUMP JUMPDEST PUSH32 0x4E487B7100000000000000000000000000000000000000000000000000000000 PUSH0 MSTORE PUSH1 0x12 PUSH1 0x4 MSTORE PUSH1 0x24 PUSH0 REVERT JUMPDEST PUSH0 PUSH2 0x404 DUP3 PUSH2 0x277 JUMP JUMPDEST SWAP2 POP PUSH2 0x40F DUP4 PUSH2 0x277 JUMP JUMPDEST SWAP3 POP DUP3 PUSH2 0x41F JUMPI PUSH2 0x41E PUSH2 0x3CD JUMP JUMPDEST JUMPDEST DUP3 DUP3 MOD SWAP1 POP SWAP3 SWAP2 POP POP JUMP INVALID LOG2 PUSH5 0x6970667358 0x22 SLT KECCAK256 SWAP2 LOG4 DIV DUP11 STATICCALL SAR SELFBALANCE 0xC7 0xDC PUSH19 0x8B70961A68C638C8478C078D71348523249BB8 0xC0 0xC5 CALLER PUSH5 0x736F6C6343 STOP ADDMOD BYTE STOP CALLER "
				},
				"gasEstimates": {
					"creation": {
						"codeDepositCost": "224000",
						"executionCost": "261",
						"totalCost": "224261"
					},
					"external": {
						"filterNum(uint256)": "infinite"
					}
				},
				"methodIdentifiers": {
					"filterNum(uint256)": "dc5e74a8"
				}
			},
			"storageLayout": {
				"storage": [],
				"types": null
			},
			"userdoc": {
				"kind": "user",
				"methods": {},
				"version": 1
			}
		}
	}
}