{
	"solidity100/soliditiy10_250109.sol": {
		"Q27": {
			"abi": [
				{
					"inputs": [
						{
							"internalType": "string",
							"name": "_s",
							"type": "string"
						}
					],
					"name": "delete_s",
					"outputs": [],
					"stateMutability": "nonpayable",
					"type": "function"
				},
				{
					"inputs": [
						{
							"internalType": "string",
							"name": "_s",
							"type": "string"
						}
					],
					"name": "getValue",
					"outputs": [
						{
							"internalType": "bytes32",
							"name": "",
							"type": "bytes32"
						}
					],
					"stateMutability": "view",
					"type": "function"
				},
				{
					"inputs": [
						{
							"internalType": "string",
							"name": "",
							"type": "string"
						}
					],
					"name": "id",
					"outputs": [
						{
							"internalType": "bytes32",
							"name": "",
							"type": "bytes32"
						}
					],
					"stateMutability": "view",
					"type": "function"
				},
				{
					"inputs": [
						{
							"internalType": "string",
							"name": "_s",
							"type": "string"
						}
					],
					"name": "setId",
					"outputs": [],
					"stateMutability": "nonpayable",
					"type": "function"
				}
			],
			"devdoc": {
				"kind": "dev",
				"methods": {},
				"version": 1
			},
			"evm": {
				"assembly": "    /* \"solidity100/soliditiy10_250109.sol\":3029:3795  contract Q27 {... */\n  mstore(0x40, 0x80)\n  callvalue\n  dup1\n  iszero\n  tag_1\n  jumpi\n  0x00\n  dup1\n  revert\ntag_1:\n  pop\n  dataSize(sub_0)\n  dup1\n  dataOffset(sub_0)\n  0x00\n  codecopy\n  0x00\n  return\nstop\n\nsub_0: assembly {\n        /* \"solidity100/soliditiy10_250109.sol\":3029:3795  contract Q27 {... */\n      mstore(0x40, 0x80)\n      callvalue\n      dup1\n      iszero\n      tag_1\n      jumpi\n      0x00\n      dup1\n      revert\n    tag_1:\n      pop\n      jumpi(tag_2, lt(calldatasize, 0x04))\n      shr(0xe0, calldataload(0x00))\n      dup1\n      0x87e4396c\n      eq\n      tag_3\n      jumpi\n      dup1\n      0x960384a0\n      eq\n      tag_4\n      jumpi\n      dup1\n      0xb609ddcb\n      eq\n      tag_5\n      jumpi\n      dup1\n      0xf737948b\n      eq\n      tag_6\n      jumpi\n    tag_2:\n      0x00\n      dup1\n      revert\n        /* \"solidity100/soliditiy10_250109.sol\":3285:3439  function setId(string memory _s) public {... */\n    tag_3:\n      tag_7\n      0x04\n      dup1\n      calldatasize\n      sub\n      dup2\n      add\n      swap1\n      tag_8\n      swap2\n      swap1\n      tag_9\n      jump\t// in\n    tag_8:\n      tag_10\n      jump\t// in\n    tag_7:\n      stop\n        /* \"solidity100/soliditiy10_250109.sol\":3562:3704  function getValue(string memory _s)... */\n    tag_4:\n      tag_11\n      0x04\n      dup1\n      calldatasize\n      sub\n      dup2\n      add\n      swap1\n      tag_12\n      swap2\n      swap1\n      tag_9\n      jump\t// in\n    tag_12:\n      tag_13\n      jump\t// in\n    tag_11:\n      mload(0x40)\n      tag_14\n      swap2\n      swap1\n      tag_15\n      jump\t// in\n    tag_14:\n      mload(0x40)\n      dup1\n      swap2\n      sub\n      swap1\n      return\n        /* \"solidity100/soliditiy10_250109.sol\":3710:3793  function delete_s(string memory _s) public hasId(_s) {... */\n    tag_5:\n      tag_16\n      0x04\n      dup1\n      calldatasize\n      sub\n      dup2\n      add\n      swap1\n      tag_17\n      swap2\n      swap1\n      tag_9\n      jump\t// in\n    tag_17:\n      tag_18\n      jump\t// in\n    tag_16:\n      stop\n        /* \"solidity100/soliditiy10_250109.sol\":3242:3278  mapping(string => bytes32) public id */\n    tag_6:\n      tag_19\n      0x04\n      dup1\n      calldatasize\n      sub\n      dup2\n      add\n      swap1\n      tag_20\n      swap2\n      swap1\n      tag_9\n      jump\t// in\n    tag_20:\n      tag_21\n      jump\t// in\n    tag_19:\n      mload(0x40)\n      tag_22\n      swap2\n      swap1\n      tag_15\n      jump\t// in\n    tag_22:\n      mload(0x40)\n      dup1\n      swap2\n      sub\n      swap1\n      return\n        /* \"solidity100/soliditiy10_250109.sol\":3285:3439  function setId(string memory _s) public {... */\n    tag_10:\n        /* \"solidity100/soliditiy10_250109.sol\":3361:3362  0 */\n      0x00\n        /* \"solidity100/soliditiy10_250109.sol\":3353:3363  bytes32(0) */\n      dup1\n      shl\n        /* \"solidity100/soliditiy10_250109.sol\":3343:3345  id */\n      0x00\n        /* \"solidity100/soliditiy10_250109.sol\":3346:3348  _s */\n      dup3\n        /* \"solidity100/soliditiy10_250109.sol\":3343:3349  id[_s] */\n      mload(0x40)\n      tag_24\n      swap2\n      swap1\n      tag_25\n      jump\t// in\n    tag_24:\n      swap1\n      dup2\n      mstore\n      0x20\n      add\n      mload(0x40)\n      dup1\n      swap2\n      sub\n      swap1\n      keccak256\n      sload\n        /* \"solidity100/soliditiy10_250109.sol\":3343:3363  id[_s] == bytes32(0) */\n      eq\n        /* \"solidity100/soliditiy10_250109.sol\":3335:3382  require(id[_s] == bytes32(0), \"Already exists\") */\n      tag_26\n      jumpi\n      mload(0x40)\n      0x08c379a000000000000000000000000000000000000000000000000000000000\n      dup2\n      mstore\n      0x04\n      add\n      tag_27\n      swap1\n      tag_28\n      jump\t// in\n    tag_27:\n      mload(0x40)\n      dup1\n      swap2\n      sub\n      swap1\n      revert\n    tag_26:\n        /* \"solidity100/soliditiy10_250109.sol\":3428:3430  _s */\n      dup1\n        /* \"solidity100/soliditiy10_250109.sol\":3411:3431  abi.encodePacked(_s) */\n      add(0x20, mload(0x40))\n      tag_29\n      swap2\n      swap1\n      tag_25\n      jump\t// in\n    tag_29:\n      mload(0x40)\n      0x20\n      dup2\n      dup4\n      sub\n      sub\n      dup2\n      mstore\n      swap1\n      0x40\n      mstore\n        /* \"solidity100/soliditiy10_250109.sol\":3401:3432  keccak256(abi.encodePacked(_s)) */\n      dup1\n      mload\n      swap1\n      0x20\n      add\n      keccak256\n        /* \"solidity100/soliditiy10_250109.sol\":3392:3394  id */\n      0x00\n        /* \"solidity100/soliditiy10_250109.sol\":3395:3397  _s */\n      dup3\n        /* \"solidity100/soliditiy10_250109.sol\":3392:3398  id[_s] */\n      mload(0x40)\n      tag_30\n      swap2\n      swap1\n      tag_25\n      jump\t// in\n    tag_30:\n      swap1\n      dup2\n      mstore\n      0x20\n      add\n      mload(0x40)\n      dup1\n      swap2\n      sub\n      swap1\n      keccak256\n        /* \"solidity100/soliditiy10_250109.sol\":3392:3432  id[_s] = keccak256(abi.encodePacked(_s)) */\n      dup2\n      swap1\n      sstore\n      pop\n        /* \"solidity100/soliditiy10_250109.sol\":3285:3439  function setId(string memory _s) public {... */\n      pop\n      jump\t// out\n        /* \"solidity100/soliditiy10_250109.sol\":3562:3704  function getValue(string memory _s)... */\n    tag_13:\n        /* \"solidity100/soliditiy10_250109.sol\":3661:3668  bytes32 */\n      0x00\n        /* \"solidity100/soliditiy10_250109.sol\":3640:3642  _s */\n      dup2\n        /* \"solidity100/soliditiy10_250109.sol\":3514:3515  0 */\n      0x00\n        /* \"solidity100/soliditiy10_250109.sol\":3506:3516  bytes32(0) */\n      dup1\n      shl\n        /* \"solidity100/soliditiy10_250109.sol\":3496:3498  id */\n      0x00\n        /* \"solidity100/soliditiy10_250109.sol\":3499:3501  _s */\n      dup3\n        /* \"solidity100/soliditiy10_250109.sol\":3496:3502  id[_s] */\n      mload(0x40)\n      tag_32\n      swap2\n      swap1\n      tag_25\n      jump\t// in\n    tag_32:\n      swap1\n      dup2\n      mstore\n      0x20\n      add\n      mload(0x40)\n      dup1\n      swap2\n      sub\n      swap1\n      keccak256\n      sload\n        /* \"solidity100/soliditiy10_250109.sol\":3496:3516  id[_s] != bytes32(0) */\n      sub\n        /* \"solidity100/soliditiy10_250109.sol\":3488:3538  require(id[_s] != bytes32(0), \"Id does not exist\") */\n      tag_33\n      jumpi\n      mload(0x40)\n      0x08c379a000000000000000000000000000000000000000000000000000000000\n      dup2\n      mstore\n      0x04\n      add\n      tag_34\n      swap1\n      tag_35\n      jump\t// in\n    tag_34:\n      mload(0x40)\n      dup1\n      swap2\n      sub\n      swap1\n      revert\n    tag_33:\n        /* \"solidity100/soliditiy10_250109.sol\":3691:3693  id */\n      0x00\n        /* \"solidity100/soliditiy10_250109.sol\":3694:3696  _s */\n      dup4\n        /* \"solidity100/soliditiy10_250109.sol\":3691:3697  id[_s] */\n      mload(0x40)\n      tag_37\n      swap2\n      swap1\n      tag_25\n      jump\t// in\n    tag_37:\n      swap1\n      dup2\n      mstore\n      0x20\n      add\n      mload(0x40)\n      dup1\n      swap2\n      sub\n      swap1\n      keccak256\n      sload\n        /* \"solidity100/soliditiy10_250109.sol\":3684:3697  return id[_s] */\n      swap2\n      pop\n        /* \"solidity100/soliditiy10_250109.sol\":3562:3704  function getValue(string memory _s)... */\n      pop\n      swap2\n      swap1\n      pop\n      jump\t// out\n        /* \"solidity100/soliditiy10_250109.sol\":3710:3793  function delete_s(string memory _s) public hasId(_s) {... */\n    tag_18:\n        /* \"solidity100/soliditiy10_250109.sol\":3759:3761  _s */\n      dup1\n        /* \"solidity100/soliditiy10_250109.sol\":3514:3515  0 */\n      0x00\n        /* \"solidity100/soliditiy10_250109.sol\":3506:3516  bytes32(0) */\n      dup1\n      shl\n        /* \"solidity100/soliditiy10_250109.sol\":3496:3498  id */\n      0x00\n        /* \"solidity100/soliditiy10_250109.sol\":3499:3501  _s */\n      dup3\n        /* \"solidity100/soliditiy10_250109.sol\":3496:3502  id[_s] */\n      mload(0x40)\n      tag_39\n      swap2\n      swap1\n      tag_25\n      jump\t// in\n    tag_39:\n      swap1\n      dup2\n      mstore\n      0x20\n      add\n      mload(0x40)\n      dup1\n      swap2\n      sub\n      swap1\n      keccak256\n      sload\n        /* \"solidity100/soliditiy10_250109.sol\":3496:3516  id[_s] != bytes32(0) */\n      sub\n        /* \"solidity100/soliditiy10_250109.sol\":3488:3538  require(id[_s] != bytes32(0), \"Id does not exist\") */\n      tag_40\n      jumpi\n      mload(0x40)\n      0x08c379a000000000000000000000000000000000000000000000000000000000\n      dup2\n      mstore\n      0x04\n      add\n      tag_41\n      swap1\n      tag_35\n      jump\t// in\n    tag_41:\n      mload(0x40)\n      dup1\n      swap2\n      sub\n      swap1\n      revert\n    tag_40:\n        /* \"solidity100/soliditiy10_250109.sol\":3780:3782  id */\n      0x00\n        /* \"solidity100/soliditiy10_250109.sol\":3783:3785  _s */\n      dup3\n        /* \"solidity100/soliditiy10_250109.sol\":3780:3786  id[_s] */\n      mload(0x40)\n      tag_43\n      swap2\n      swap1\n      tag_25\n      jump\t// in\n    tag_43:\n      swap1\n      dup2\n      mstore\n      0x20\n      add\n      mload(0x40)\n      dup1\n      swap2\n      sub\n      swap1\n      keccak256\n        /* \"solidity100/soliditiy10_250109.sol\":3773:3786  delete id[_s] */\n      0x00\n      swap1\n      sstore\n        /* \"solidity100/soliditiy10_250109.sol\":3710:3793  function delete_s(string memory _s) public hasId(_s) {... */\n      pop\n      pop\n      jump\t// out\n        /* \"solidity100/soliditiy10_250109.sol\":3242:3278  mapping(string => bytes32) public id */\n    tag_21:\n      0x00\n      dup2\n      dup1\n      mload\n      0x20\n      dup2\n      add\n      dup3\n      add\n      dup1\n      mload\n      dup5\n      dup3\n      mstore\n      0x20\n      dup4\n      add\n      0x20\n      dup6\n      add\n      keccak256\n      dup2\n      dup4\n      mstore\n      dup1\n      swap6\n      pop\n      pop\n      pop\n      pop\n      pop\n      pop\n      0x00\n      swap2\n      pop\n      swap1\n      pop\n      sload\n      dup2\n      jump\t// out\n        /* \"#utility.yul\":7:82   */\n    tag_44:\n        /* \"#utility.yul\":40:46   */\n      0x00\n        /* \"#utility.yul\":73:75   */\n      0x40\n        /* \"#utility.yul\":67:76   */\n      mload\n        /* \"#utility.yul\":57:76   */\n      swap1\n      pop\n        /* \"#utility.yul\":7:82   */\n      swap1\n      jump\t// out\n        /* \"#utility.yul\":88:205   */\n    tag_45:\n        /* \"#utility.yul\":197:198   */\n      0x00\n        /* \"#utility.yul\":194:195   */\n      dup1\n        /* \"#utility.yul\":187:199   */\n      revert\n        /* \"#utility.yul\":211:328   */\n    tag_46:\n        /* \"#utility.yul\":320:321   */\n      0x00\n        /* \"#utility.yul\":317:318   */\n      dup1\n        /* \"#utility.yul\":310:322   */\n      revert\n        /* \"#utility.yul\":334:451   */\n    tag_47:\n        /* \"#utility.yul\":443:444   */\n      0x00\n        /* \"#utility.yul\":440:441   */\n      dup1\n        /* \"#utility.yul\":433:445   */\n      revert\n        /* \"#utility.yul\":457:574   */\n    tag_48:\n        /* \"#utility.yul\":566:567   */\n      0x00\n        /* \"#utility.yul\":563:564   */\n      dup1\n        /* \"#utility.yul\":556:568   */\n      revert\n        /* \"#utility.yul\":580:682   */\n    tag_49:\n        /* \"#utility.yul\":621:627   */\n      0x00\n        /* \"#utility.yul\":672:674   */\n      0x1f\n        /* \"#utility.yul\":668:675   */\n      not\n        /* \"#utility.yul\":663:665   */\n      0x1f\n        /* \"#utility.yul\":656:661   */\n      dup4\n        /* \"#utility.yul\":652:666   */\n      add\n        /* \"#utility.yul\":648:676   */\n      and\n        /* \"#utility.yul\":638:676   */\n      swap1\n      pop\n        /* \"#utility.yul\":580:682   */\n      swap2\n      swap1\n      pop\n      jump\t// out\n        /* \"#utility.yul\":688:868   */\n    tag_50:\n        /* \"#utility.yul\":736:813   */\n      0x4e487b7100000000000000000000000000000000000000000000000000000000\n        /* \"#utility.yul\":733:734   */\n      0x00\n        /* \"#utility.yul\":726:814   */\n      mstore\n        /* \"#utility.yul\":833:837   */\n      0x41\n        /* \"#utility.yul\":830:831   */\n      0x04\n        /* \"#utility.yul\":823:838   */\n      mstore\n        /* \"#utility.yul\":857:861   */\n      0x24\n        /* \"#utility.yul\":854:855   */\n      0x00\n        /* \"#utility.yul\":847:862   */\n      revert\n        /* \"#utility.yul\":874:1155   */\n    tag_51:\n        /* \"#utility.yul\":957:984   */\n      tag_77\n        /* \"#utility.yul\":979:983   */\n      dup3\n        /* \"#utility.yul\":957:984   */\n      tag_49\n      jump\t// in\n    tag_77:\n        /* \"#utility.yul\":949:955   */\n      dup2\n        /* \"#utility.yul\":945:985   */\n      add\n        /* \"#utility.yul\":1087:1093   */\n      dup2\n        /* \"#utility.yul\":1075:1085   */\n      dup2\n        /* \"#utility.yul\":1072:1094   */\n      lt\n        /* \"#utility.yul\":1051:1069   */\n      0xffffffffffffffff\n        /* \"#utility.yul\":1039:1049   */\n      dup3\n        /* \"#utility.yul\":1036:1070   */\n      gt\n        /* \"#utility.yul\":1033:1095   */\n      or\n        /* \"#utility.yul\":1030:1118   */\n      iszero\n      tag_78\n      jumpi\n        /* \"#utility.yul\":1098:1116   */\n      tag_79\n      tag_50\n      jump\t// in\n    tag_79:\n        /* \"#utility.yul\":1030:1118   */\n    tag_78:\n        /* \"#utility.yul\":1138:1148   */\n      dup1\n        /* \"#utility.yul\":1134:1136   */\n      0x40\n        /* \"#utility.yul\":1127:1149   */\n      mstore\n        /* \"#utility.yul\":917:1155   */\n      pop\n        /* \"#utility.yul\":874:1155   */\n      pop\n      pop\n      jump\t// out\n        /* \"#utility.yul\":1161:1290   */\n    tag_52:\n        /* \"#utility.yul\":1195:1201   */\n      0x00\n        /* \"#utility.yul\":1222:1242   */\n      tag_81\n      tag_44\n      jump\t// in\n    tag_81:\n        /* \"#utility.yul\":1212:1242   */\n      swap1\n      pop\n        /* \"#utility.yul\":1251:1284   */\n      tag_82\n        /* \"#utility.yul\":1279:1283   */\n      dup3\n        /* \"#utility.yul\":1271:1277   */\n      dup3\n        /* \"#utility.yul\":1251:1284   */\n      tag_51\n      jump\t// in\n    tag_82:\n        /* \"#utility.yul\":1161:1290   */\n      swap2\n      swap1\n      pop\n      jump\t// out\n        /* \"#utility.yul\":1296:1604   */\n    tag_53:\n        /* \"#utility.yul\":1358:1362   */\n      0x00\n        /* \"#utility.yul\":1448:1466   */\n      0xffffffffffffffff\n        /* \"#utility.yul\":1440:1446   */\n      dup3\n        /* \"#utility.yul\":1437:1467   */\n      gt\n        /* \"#utility.yul\":1434:1490   */\n      iszero\n      tag_84\n      jumpi\n        /* \"#utility.yul\":1470:1488   */\n      tag_85\n      tag_50\n      jump\t// in\n    tag_85:\n        /* \"#utility.yul\":1434:1490   */\n    tag_84:\n        /* \"#utility.yul\":1508:1537   */\n      tag_86\n        /* \"#utility.yul\":1530:1536   */\n      dup3\n        /* \"#utility.yul\":1508:1537   */\n      tag_49\n      jump\t// in\n    tag_86:\n        /* \"#utility.yul\":1500:1537   */\n      swap1\n      pop\n        /* \"#utility.yul\":1592:1596   */\n      0x20\n        /* \"#utility.yul\":1586:1590   */\n      dup2\n        /* \"#utility.yul\":1582:1597   */\n      add\n        /* \"#utility.yul\":1574:1597   */\n      swap1\n      pop\n        /* \"#utility.yul\":1296:1604   */\n      swap2\n      swap1\n      pop\n      jump\t// out\n        /* \"#utility.yul\":1610:1758   */\n    tag_54:\n        /* \"#utility.yul\":1708:1714   */\n      dup3\n        /* \"#utility.yul\":1703:1706   */\n      dup2\n        /* \"#utility.yul\":1698:1701   */\n      dup4\n        /* \"#utility.yul\":1685:1715   */\n      calldatacopy\n        /* \"#utility.yul\":1749:1750   */\n      0x00\n        /* \"#utility.yul\":1740:1746   */\n      dup4\n        /* \"#utility.yul\":1735:1738   */\n      dup4\n        /* \"#utility.yul\":1731:1747   */\n      add\n        /* \"#utility.yul\":1724:1751   */\n      mstore\n        /* \"#utility.yul\":1610:1758   */\n      pop\n      pop\n      pop\n      jump\t// out\n        /* \"#utility.yul\":1764:2189   */\n    tag_55:\n        /* \"#utility.yul\":1842:1847   */\n      0x00\n        /* \"#utility.yul\":1867:1933   */\n      tag_89\n        /* \"#utility.yul\":1883:1932   */\n      tag_90\n        /* \"#utility.yul\":1925:1931   */\n      dup5\n        /* \"#utility.yul\":1883:1932   */\n      tag_53\n      jump\t// in\n    tag_90:\n        /* \"#utility.yul\":1867:1933   */\n      tag_52\n      jump\t// in\n    tag_89:\n        /* \"#utility.yul\":1858:1933   */\n      swap1\n      pop\n        /* \"#utility.yul\":1956:1962   */\n      dup3\n        /* \"#utility.yul\":1949:1954   */\n      dup2\n        /* \"#utility.yul\":1942:1963   */\n      mstore\n        /* \"#utility.yul\":1994:1998   */\n      0x20\n        /* \"#utility.yul\":1987:1992   */\n      dup2\n        /* \"#utility.yul\":1983:1999   */\n      add\n        /* \"#utility.yul\":2032:2035   */\n      dup5\n        /* \"#utility.yul\":2023:2029   */\n      dup5\n        /* \"#utility.yul\":2018:2021   */\n      dup5\n        /* \"#utility.yul\":2014:2030   */\n      add\n        /* \"#utility.yul\":2011:2036   */\n      gt\n        /* \"#utility.yul\":2008:2120   */\n      iszero\n      tag_91\n      jumpi\n        /* \"#utility.yul\":2039:2118   */\n      tag_92\n      tag_48\n      jump\t// in\n    tag_92:\n        /* \"#utility.yul\":2008:2120   */\n    tag_91:\n        /* \"#utility.yul\":2129:2183   */\n      tag_93\n        /* \"#utility.yul\":2176:2182   */\n      dup5\n        /* \"#utility.yul\":2171:2174   */\n      dup3\n        /* \"#utility.yul\":2166:2169   */\n      dup6\n        /* \"#utility.yul\":2129:2183   */\n      tag_54\n      jump\t// in\n    tag_93:\n        /* \"#utility.yul\":1848:2189   */\n      pop\n        /* \"#utility.yul\":1764:2189   */\n      swap4\n      swap3\n      pop\n      pop\n      pop\n      jump\t// out\n        /* \"#utility.yul\":2209:2549   */\n    tag_56:\n        /* \"#utility.yul\":2265:2270   */\n      0x00\n        /* \"#utility.yul\":2314:2317   */\n      dup3\n        /* \"#utility.yul\":2307:2311   */\n      0x1f\n        /* \"#utility.yul\":2299:2305   */\n      dup4\n        /* \"#utility.yul\":2295:2312   */\n      add\n        /* \"#utility.yul\":2291:2318   */\n      slt\n        /* \"#utility.yul\":2281:2403   */\n      tag_95\n      jumpi\n        /* \"#utility.yul\":2322:2401   */\n      tag_96\n      tag_47\n      jump\t// in\n    tag_96:\n        /* \"#utility.yul\":2281:2403   */\n    tag_95:\n        /* \"#utility.yul\":2439:2445   */\n      dup2\n        /* \"#utility.yul\":2426:2446   */\n      calldataload\n        /* \"#utility.yul\":2464:2543   */\n      tag_97\n        /* \"#utility.yul\":2539:2542   */\n      dup5\n        /* \"#utility.yul\":2531:2537   */\n      dup3\n        /* \"#utility.yul\":2524:2528   */\n      0x20\n        /* \"#utility.yul\":2516:2522   */\n      dup7\n        /* \"#utility.yul\":2512:2529   */\n      add\n        /* \"#utility.yul\":2464:2543   */\n      tag_55\n      jump\t// in\n    tag_97:\n        /* \"#utility.yul\":2455:2543   */\n      swap2\n      pop\n        /* \"#utility.yul\":2271:2549   */\n      pop\n        /* \"#utility.yul\":2209:2549   */\n      swap3\n      swap2\n      pop\n      pop\n      jump\t// out\n        /* \"#utility.yul\":2555:3064   */\n    tag_9:\n        /* \"#utility.yul\":2624:2630   */\n      0x00\n        /* \"#utility.yul\":2673:2675   */\n      0x20\n        /* \"#utility.yul\":2661:2670   */\n      dup3\n        /* \"#utility.yul\":2652:2659   */\n      dup5\n        /* \"#utility.yul\":2648:2671   */\n      sub\n        /* \"#utility.yul\":2644:2676   */\n      slt\n        /* \"#utility.yul\":2641:2760   */\n      iszero\n      tag_99\n      jumpi\n        /* \"#utility.yul\":2679:2758   */\n      tag_100\n      tag_45\n      jump\t// in\n    tag_100:\n        /* \"#utility.yul\":2641:2760   */\n    tag_99:\n        /* \"#utility.yul\":2827:2828   */\n      0x00\n        /* \"#utility.yul\":2816:2825   */\n      dup3\n        /* \"#utility.yul\":2812:2829   */\n      add\n        /* \"#utility.yul\":2799:2830   */\n      calldataload\n        /* \"#utility.yul\":2857:2875   */\n      0xffffffffffffffff\n        /* \"#utility.yul\":2849:2855   */\n      dup2\n        /* \"#utility.yul\":2846:2876   */\n      gt\n        /* \"#utility.yul\":2843:2960   */\n      iszero\n      tag_101\n      jumpi\n        /* \"#utility.yul\":2879:2958   */\n      tag_102\n      tag_46\n      jump\t// in\n    tag_102:\n        /* \"#utility.yul\":2843:2960   */\n    tag_101:\n        /* \"#utility.yul\":2984:3047   */\n      tag_103\n        /* \"#utility.yul\":3039:3046   */\n      dup5\n        /* \"#utility.yul\":3030:3036   */\n      dup3\n        /* \"#utility.yul\":3019:3028   */\n      dup6\n        /* \"#utility.yul\":3015:3037   */\n      add\n        /* \"#utility.yul\":2984:3047   */\n      tag_56\n      jump\t// in\n    tag_103:\n        /* \"#utility.yul\":2974:3047   */\n      swap2\n      pop\n        /* \"#utility.yul\":2770:3057   */\n      pop\n        /* \"#utility.yul\":2555:3064   */\n      swap3\n      swap2\n      pop\n      pop\n      jump\t// out\n        /* \"#utility.yul\":3070:3147   */\n    tag_57:\n        /* \"#utility.yul\":3107:3114   */\n      0x00\n        /* \"#utility.yul\":3136:3141   */\n      dup2\n        /* \"#utility.yul\":3125:3141   */\n      swap1\n      pop\n        /* \"#utility.yul\":3070:3147   */\n      swap2\n      swap1\n      pop\n      jump\t// out\n        /* \"#utility.yul\":3153:3271   */\n    tag_58:\n        /* \"#utility.yul\":3240:3264   */\n      tag_106\n        /* \"#utility.yul\":3258:3263   */\n      dup2\n        /* \"#utility.yul\":3240:3264   */\n      tag_57\n      jump\t// in\n    tag_106:\n        /* \"#utility.yul\":3235:3238   */\n      dup3\n        /* \"#utility.yul\":3228:3265   */\n      mstore\n        /* \"#utility.yul\":3153:3271   */\n      pop\n      pop\n      jump\t// out\n        /* \"#utility.yul\":3277:3499   */\n    tag_15:\n        /* \"#utility.yul\":3370:3374   */\n      0x00\n        /* \"#utility.yul\":3408:3410   */\n      0x20\n        /* \"#utility.yul\":3397:3406   */\n      dup3\n        /* \"#utility.yul\":3393:3411   */\n      add\n        /* \"#utility.yul\":3385:3411   */\n      swap1\n      pop\n        /* \"#utility.yul\":3421:3492   */\n      tag_108\n        /* \"#utility.yul\":3489:3490   */\n      0x00\n        /* \"#utility.yul\":3478:3487   */\n      dup4\n        /* \"#utility.yul\":3474:3491   */\n      add\n        /* \"#utility.yul\":3465:3471   */\n      dup5\n        /* \"#utility.yul\":3421:3492   */\n      tag_58\n      jump\t// in\n    tag_108:\n        /* \"#utility.yul\":3277:3499   */\n      swap3\n      swap2\n      pop\n      pop\n      jump\t// out\n        /* \"#utility.yul\":3505:3604   */\n    tag_59:\n        /* \"#utility.yul\":3557:3563   */\n      0x00\n        /* \"#utility.yul\":3591:3596   */\n      dup2\n        /* \"#utility.yul\":3585:3597   */\n      mload\n        /* \"#utility.yul\":3575:3597   */\n      swap1\n      pop\n        /* \"#utility.yul\":3505:3604   */\n      swap2\n      swap1\n      pop\n      jump\t// out\n        /* \"#utility.yul\":3610:3758   */\n    tag_60:\n        /* \"#utility.yul\":3712:3723   */\n      0x00\n        /* \"#utility.yul\":3749:3752   */\n      dup2\n        /* \"#utility.yul\":3734:3752   */\n      swap1\n      pop\n        /* \"#utility.yul\":3610:3758   */\n      swap3\n      swap2\n      pop\n      pop\n      jump\t// out\n        /* \"#utility.yul\":3764:3903   */\n    tag_61:\n        /* \"#utility.yul\":3853:3859   */\n      dup3\n        /* \"#utility.yul\":3848:3851   */\n      dup2\n        /* \"#utility.yul\":3843:3846   */\n      dup4\n        /* \"#utility.yul\":3837:3860   */\n      mcopy\n        /* \"#utility.yul\":3894:3895   */\n      0x00\n        /* \"#utility.yul\":3885:3891   */\n      dup4\n        /* \"#utility.yul\":3880:3883   */\n      dup4\n        /* \"#utility.yul\":3876:3892   */\n      add\n        /* \"#utility.yul\":3869:3896   */\n      mstore\n        /* \"#utility.yul\":3764:3903   */\n      pop\n      pop\n      pop\n      jump\t// out\n        /* \"#utility.yul\":3909:4299   */\n    tag_62:\n        /* \"#utility.yul\":4015:4018   */\n      0x00\n        /* \"#utility.yul\":4043:4082   */\n      tag_113\n        /* \"#utility.yul\":4076:4081   */\n      dup3\n        /* \"#utility.yul\":4043:4082   */\n      tag_59\n      jump\t// in\n    tag_113:\n        /* \"#utility.yul\":4098:4187   */\n      tag_114\n        /* \"#utility.yul\":4180:4186   */\n      dup2\n        /* \"#utility.yul\":4175:4178   */\n      dup6\n        /* \"#utility.yul\":4098:4187   */\n      tag_60\n      jump\t// in\n    tag_114:\n        /* \"#utility.yul\":4091:4187   */\n      swap4\n      pop\n        /* \"#utility.yul\":4196:4261   */\n      tag_115\n        /* \"#utility.yul\":4254:4260   */\n      dup2\n        /* \"#utility.yul\":4249:4252   */\n      dup6\n        /* \"#utility.yul\":4242:4246   */\n      0x20\n        /* \"#utility.yul\":4235:4240   */\n      dup7\n        /* \"#utility.yul\":4231:4247   */\n      add\n        /* \"#utility.yul\":4196:4261   */\n      tag_61\n      jump\t// in\n    tag_115:\n        /* \"#utility.yul\":4286:4292   */\n      dup1\n        /* \"#utility.yul\":4281:4284   */\n      dup5\n        /* \"#utility.yul\":4277:4293   */\n      add\n        /* \"#utility.yul\":4270:4293   */\n      swap2\n      pop\n        /* \"#utility.yul\":4019:4299   */\n      pop\n        /* \"#utility.yul\":3909:4299   */\n      swap3\n      swap2\n      pop\n      pop\n      jump\t// out\n        /* \"#utility.yul\":4305:4580   */\n    tag_25:\n        /* \"#utility.yul\":4437:4440   */\n      0x00\n        /* \"#utility.yul\":4459:4554   */\n      tag_117\n        /* \"#utility.yul\":4550:4553   */\n      dup3\n        /* \"#utility.yul\":4541:4547   */\n      dup5\n        /* \"#utility.yul\":4459:4554   */\n      tag_62\n      jump\t// in\n    tag_117:\n        /* \"#utility.yul\":4452:4554   */\n      swap2\n      pop\n        /* \"#utility.yul\":4571:4574   */\n      dup2\n        /* \"#utility.yul\":4564:4574   */\n      swap1\n      pop\n        /* \"#utility.yul\":4305:4580   */\n      swap3\n      swap2\n      pop\n      pop\n      jump\t// out\n        /* \"#utility.yul\":4586:4755   */\n    tag_63:\n        /* \"#utility.yul\":4670:4681   */\n      0x00\n        /* \"#utility.yul\":4704:4710   */\n      dup3\n        /* \"#utility.yul\":4699:4702   */\n      dup3\n        /* \"#utility.yul\":4692:4711   */\n      mstore\n        /* \"#utility.yul\":4744:4748   */\n      0x20\n        /* \"#utility.yul\":4739:4742   */\n      dup3\n        /* \"#utility.yul\":4735:4749   */\n      add\n        /* \"#utility.yul\":4720:4749   */\n      swap1\n      pop\n        /* \"#utility.yul\":4586:4755   */\n      swap3\n      swap2\n      pop\n      pop\n      jump\t// out\n        /* \"#utility.yul\":4761:4925   */\n    tag_64:\n        /* \"#utility.yul\":4901:4917   */\n      0x416c726561647920657869737473000000000000000000000000000000000000\n        /* \"#utility.yul\":4897:4898   */\n      0x00\n        /* \"#utility.yul\":4889:4895   */\n      dup3\n        /* \"#utility.yul\":4885:4899   */\n      add\n        /* \"#utility.yul\":4878:4918   */\n      mstore\n        /* \"#utility.yul\":4761:4925   */\n      pop\n      jump\t// out\n        /* \"#utility.yul\":4931:5297   */\n    tag_65:\n        /* \"#utility.yul\":5073:5076   */\n      0x00\n        /* \"#utility.yul\":5094:5161   */\n      tag_121\n        /* \"#utility.yul\":5158:5160   */\n      0x0e\n        /* \"#utility.yul\":5153:5156   */\n      dup4\n        /* \"#utility.yul\":5094:5161   */\n      tag_63\n      jump\t// in\n    tag_121:\n        /* \"#utility.yul\":5087:5161   */\n      swap2\n      pop\n        /* \"#utility.yul\":5170:5263   */\n      tag_122\n        /* \"#utility.yul\":5259:5262   */\n      dup3\n        /* \"#utility.yul\":5170:5263   */\n      tag_64\n      jump\t// in\n    tag_122:\n        /* \"#utility.yul\":5288:5290   */\n      0x20\n        /* \"#utility.yul\":5283:5286   */\n      dup3\n        /* \"#utility.yul\":5279:5291   */\n      add\n        /* \"#utility.yul\":5272:5291   */\n      swap1\n      pop\n        /* \"#utility.yul\":4931:5297   */\n      swap2\n      swap1\n      pop\n      jump\t// out\n        /* \"#utility.yul\":5303:5722   */\n    tag_28:\n        /* \"#utility.yul\":5469:5473   */\n      0x00\n        /* \"#utility.yul\":5507:5509   */\n      0x20\n        /* \"#utility.yul\":5496:5505   */\n      dup3\n        /* \"#utility.yul\":5492:5510   */\n      add\n        /* \"#utility.yul\":5484:5510   */\n      swap1\n      pop\n        /* \"#utility.yul\":5556:5565   */\n      dup2\n        /* \"#utility.yul\":5550:5554   */\n      dup2\n        /* \"#utility.yul\":5546:5566   */\n      sub\n        /* \"#utility.yul\":5542:5543   */\n      0x00\n        /* \"#utility.yul\":5531:5540   */\n      dup4\n        /* \"#utility.yul\":5527:5544   */\n      add\n        /* \"#utility.yul\":5520:5567   */\n      mstore\n        /* \"#utility.yul\":5584:5715   */\n      tag_124\n        /* \"#utility.yul\":5710:5714   */\n      dup2\n        /* \"#utility.yul\":5584:5715   */\n      tag_65\n      jump\t// in\n    tag_124:\n        /* \"#utility.yul\":5576:5715   */\n      swap1\n      pop\n        /* \"#utility.yul\":5303:5722   */\n      swap2\n      swap1\n      pop\n      jump\t// out\n        /* \"#utility.yul\":5728:5895   */\n    tag_66:\n        /* \"#utility.yul\":5868:5887   */\n      0x496420646f6573206e6f74206578697374000000000000000000000000000000\n        /* \"#utility.yul\":5864:5865   */\n      0x00\n        /* \"#utility.yul\":5856:5862   */\n      dup3\n        /* \"#utility.yul\":5852:5866   */\n      add\n        /* \"#utility.yul\":5845:5888   */\n      mstore\n        /* \"#utility.yul\":5728:5895   */\n      pop\n      jump\t// out\n        /* \"#utility.yul\":5901:6267   */\n    tag_67:\n        /* \"#utility.yul\":6043:6046   */\n      0x00\n        /* \"#utility.yul\":6064:6131   */\n      tag_127\n        /* \"#utility.yul\":6128:6130   */\n      0x11\n        /* \"#utility.yul\":6123:6126   */\n      dup4\n        /* \"#utility.yul\":6064:6131   */\n      tag_63\n      jump\t// in\n    tag_127:\n        /* \"#utility.yul\":6057:6131   */\n      swap2\n      pop\n        /* \"#utility.yul\":6140:6233   */\n      tag_128\n        /* \"#utility.yul\":6229:6232   */\n      dup3\n        /* \"#utility.yul\":6140:6233   */\n      tag_66\n      jump\t// in\n    tag_128:\n        /* \"#utility.yul\":6258:6260   */\n      0x20\n        /* \"#utility.yul\":6253:6256   */\n      dup3\n        /* \"#utility.yul\":6249:6261   */\n      add\n        /* \"#utility.yul\":6242:6261   */\n      swap1\n      pop\n        /* \"#utility.yul\":5901:6267   */\n      swap2\n      swap1\n      pop\n      jump\t// out\n        /* \"#utility.yul\":6273:6692   */\n    tag_35:\n        /* \"#utility.yul\":6439:6443   */\n      0x00\n        /* \"#utility.yul\":6477:6479   */\n      0x20\n        /* \"#utility.yul\":6466:6475   */\n      dup3\n        /* \"#utility.yul\":6462:6480   */\n      add\n        /* \"#utility.yul\":6454:6480   */\n      swap1\n      pop\n        /* \"#utility.yul\":6526:6535   */\n      dup2\n        /* \"#utility.yul\":6520:6524   */\n      dup2\n        /* \"#utility.yul\":6516:6536   */\n      sub\n        /* \"#utility.yul\":6512:6513   */\n      0x00\n        /* \"#utility.yul\":6501:6510   */\n      dup4\n        /* \"#utility.yul\":6497:6514   */\n      add\n        /* \"#utility.yul\":6490:6537   */\n      mstore\n        /* \"#utility.yul\":6554:6685   */\n      tag_130\n        /* \"#utility.yul\":6680:6684   */\n      dup2\n        /* \"#utility.yul\":6554:6685   */\n      tag_67\n      jump\t// in\n    tag_130:\n        /* \"#utility.yul\":6546:6685   */\n      swap1\n      pop\n        /* \"#utility.yul\":6273:6692   */\n      swap2\n      swap1\n      pop\n      jump\t// out\n\n    auxdata: 0xa26469706673582212202b5a992d1fa0842d4804f2ea0c57cd369c2ff9407eefb5b2a6f0772dc571592e64736f6c634300081a0033\n}\n",
				"bytecode": {
					"linkReferences": {},
					"object": "6080604052348015600e575f80fd5b506106108061001c5f395ff3fe608060405234801561000f575f80fd5b506004361061004a575f3560e01c806387e4396c1461004e578063960384a01461006a578063b609ddcb1461009a578063f737948b146100b6575b5f80fd5b6100686004803603810190610063919061041a565b6100e6565b005b610084600480360381019061007f919061041a565b610192565b6040516100919190610479565b60405180910390f35b6100b460048036038101906100af919061041a565b61021b565b005b6100d060048036038101906100cb919061041a565b6102a1565b6040516100dd9190610479565b60405180910390f35b5f801b5f826040516100f891906104e4565b90815260200160405180910390205414610147576040517f08c379a000000000000000000000000000000000000000000000000000000000815260040161013e90610554565b60405180910390fd5b8060405160200161015891906104e4565b604051602081830303815290604052805190602001205f8260405161017d91906104e4565b90815260200160405180910390208190555050565b5f815f801b5f826040516101a691906104e4565b908152602001604051809103902054036101f5576040517f08c379a00000000000000000000000000000000000000000000000000000000081526004016101ec906105bc565b60405180910390fd5b5f8360405161020491906104e4565b908152602001604051809103902054915050919050565b805f801b5f8260405161022e91906104e4565b9081526020016040518091039020540361027d576040517f08c379a0000000000000000000000000000000000000000000000000000000008152600401610274906105bc565b60405180910390fd5b5f8260405161028c91906104e4565b90815260200160405180910390205f90555050565b5f818051602081018201805184825260208301602085012081835280955050505050505f915090505481565b5f604051905090565b5f80fd5b5f80fd5b5f80fd5b5f80fd5b5f601f19601f8301169050919050565b7f4e487b71000000000000000000000000000000000000000000000000000000005f52604160045260245ffd5b61032c826102e6565b810181811067ffffffffffffffff8211171561034b5761034a6102f6565b5b80604052505050565b5f61035d6102cd565b90506103698282610323565b919050565b5f67ffffffffffffffff821115610388576103876102f6565b5b610391826102e6565b9050602081019050919050565b828183375f83830152505050565b5f6103be6103b98461036e565b610354565b9050828152602081018484840111156103da576103d96102e2565b5b6103e584828561039e565b509392505050565b5f82601f830112610401576104006102de565b5b81356104118482602086016103ac565b91505092915050565b5f6020828403121561042f5761042e6102d6565b5b5f82013567ffffffffffffffff81111561044c5761044b6102da565b5b610458848285016103ed565b91505092915050565b5f819050919050565b61047381610461565b82525050565b5f60208201905061048c5f83018461046a565b92915050565b5f81519050919050565b5f81905092915050565b8281835e5f83830152505050565b5f6104be82610492565b6104c8818561049c565b93506104d88185602086016104a6565b80840191505092915050565b5f6104ef82846104b4565b915081905092915050565b5f82825260208201905092915050565b7f416c7265616479206578697374730000000000000000000000000000000000005f82015250565b5f61053e600e836104fa565b91506105498261050a565b602082019050919050565b5f6020820190508181035f83015261056b81610532565b9050919050565b7f496420646f6573206e6f742065786973740000000000000000000000000000005f82015250565b5f6105a66011836104fa565b91506105b182610572565b602082019050919050565b5f6020820190508181035f8301526105d38161059a565b905091905056fea26469706673582212202b5a992d1fa0842d4804f2ea0c57cd369c2ff9407eefb5b2a6f0772dc571592e64736f6c634300081a0033",
					"opcodes": "PUSH1 0x80 PUSH1 0x40 MSTORE CALLVALUE DUP1 ISZERO PUSH1 0xE JUMPI PUSH0 DUP1 REVERT JUMPDEST POP PUSH2 0x610 DUP1 PUSH2 0x1C PUSH0 CODECOPY PUSH0 RETURN INVALID PUSH1 0x80 PUSH1 0x40 MSTORE CALLVALUE DUP1 ISZERO PUSH2 0xF JUMPI PUSH0 DUP1 REVERT JUMPDEST POP PUSH1 0x4 CALLDATASIZE LT PUSH2 0x4A JUMPI PUSH0 CALLDATALOAD PUSH1 0xE0 SHR DUP1 PUSH4 0x87E4396C EQ PUSH2 0x4E JUMPI DUP1 PUSH4 0x960384A0 EQ PUSH2 0x6A JUMPI DUP1 PUSH4 0xB609DDCB EQ PUSH2 0x9A JUMPI DUP1 PUSH4 0xF737948B EQ PUSH2 0xB6 JUMPI JUMPDEST PUSH0 DUP1 REVERT JUMPDEST PUSH2 0x68 PUSH1 0x4 DUP1 CALLDATASIZE SUB DUP2 ADD SWAP1 PUSH2 0x63 SWAP2 SWAP1 PUSH2 0x41A JUMP JUMPDEST PUSH2 0xE6 JUMP JUMPDEST STOP JUMPDEST PUSH2 0x84 PUSH1 0x4 DUP1 CALLDATASIZE SUB DUP2 ADD SWAP1 PUSH2 0x7F SWAP2 SWAP1 PUSH2 0x41A JUMP JUMPDEST PUSH2 0x192 JUMP JUMPDEST PUSH1 0x40 MLOAD PUSH2 0x91 SWAP2 SWAP1 PUSH2 0x479 JUMP JUMPDEST PUSH1 0x40 MLOAD DUP1 SWAP2 SUB SWAP1 RETURN JUMPDEST PUSH2 0xB4 PUSH1 0x4 DUP1 CALLDATASIZE SUB DUP2 ADD SWAP1 PUSH2 0xAF SWAP2 SWAP1 PUSH2 0x41A JUMP JUMPDEST PUSH2 0x21B JUMP JUMPDEST STOP JUMPDEST PUSH2 0xD0 PUSH1 0x4 DUP1 CALLDATASIZE SUB DUP2 ADD SWAP1 PUSH2 0xCB SWAP2 SWAP1 PUSH2 0x41A JUMP JUMPDEST PUSH2 0x2A1 JUMP JUMPDEST PUSH1 0x40 MLOAD PUSH2 0xDD SWAP2 SWAP1 PUSH2 0x479 JUMP JUMPDEST PUSH1 0x40 MLOAD DUP1 SWAP2 SUB SWAP1 RETURN JUMPDEST PUSH0 DUP1 SHL PUSH0 DUP3 PUSH1 0x40 MLOAD PUSH2 0xF8 SWAP2 SWAP1 PUSH2 0x4E4 JUMP JUMPDEST SWAP1 DUP2 MSTORE PUSH1 0x20 ADD PUSH1 0x40 MLOAD DUP1 SWAP2 SUB SWAP1 KECCAK256 SLOAD EQ PUSH2 0x147 JUMPI PUSH1 0x40 MLOAD PUSH32 0x8C379A000000000000000000000000000000000000000000000000000000000 DUP2 MSTORE PUSH1 0x4 ADD PUSH2 0x13E SWAP1 PUSH2 0x554 JUMP JUMPDEST PUSH1 0x40 MLOAD DUP1 SWAP2 SUB SWAP1 REVERT JUMPDEST DUP1 PUSH1 0x40 MLOAD PUSH1 0x20 ADD PUSH2 0x158 SWAP2 SWAP1 PUSH2 0x4E4 JUMP JUMPDEST PUSH1 0x40 MLOAD PUSH1 0x20 DUP2 DUP4 SUB SUB DUP2 MSTORE SWAP1 PUSH1 0x40 MSTORE DUP1 MLOAD SWAP1 PUSH1 0x20 ADD KECCAK256 PUSH0 DUP3 PUSH1 0x40 MLOAD PUSH2 0x17D SWAP2 SWAP1 PUSH2 0x4E4 JUMP JUMPDEST SWAP1 DUP2 MSTORE PUSH1 0x20 ADD PUSH1 0x40 MLOAD DUP1 SWAP2 SUB SWAP1 KECCAK256 DUP2 SWAP1 SSTORE POP POP JUMP JUMPDEST PUSH0 DUP2 PUSH0 DUP1 SHL PUSH0 DUP3 PUSH1 0x40 MLOAD PUSH2 0x1A6 SWAP2 SWAP1 PUSH2 0x4E4 JUMP JUMPDEST SWAP1 DUP2 MSTORE PUSH1 0x20 ADD PUSH1 0x40 MLOAD DUP1 SWAP2 SUB SWAP1 KECCAK256 SLOAD SUB PUSH2 0x1F5 JUMPI PUSH1 0x40 MLOAD PUSH32 0x8C379A000000000000000000000000000000000000000000000000000000000 DUP2 MSTORE PUSH1 0x4 ADD PUSH2 0x1EC SWAP1 PUSH2 0x5BC JUMP JUMPDEST PUSH1 0x40 MLOAD DUP1 SWAP2 SUB SWAP1 REVERT JUMPDEST PUSH0 DUP4 PUSH1 0x40 MLOAD PUSH2 0x204 SWAP2 SWAP1 PUSH2 0x4E4 JUMP JUMPDEST SWAP1 DUP2 MSTORE PUSH1 0x20 ADD PUSH1 0x40 MLOAD DUP1 SWAP2 SUB SWAP1 KECCAK256 SLOAD SWAP2 POP POP SWAP2 SWAP1 POP JUMP JUMPDEST DUP1 PUSH0 DUP1 SHL PUSH0 DUP3 PUSH1 0x40 MLOAD PUSH2 0x22E SWAP2 SWAP1 PUSH2 0x4E4 JUMP JUMPDEST SWAP1 DUP2 MSTORE PUSH1 0x20 ADD PUSH1 0x40 MLOAD DUP1 SWAP2 SUB SWAP1 KECCAK256 SLOAD SUB PUSH2 0x27D JUMPI PUSH1 0x40 MLOAD PUSH32 0x8C379A000000000000000000000000000000000000000000000000000000000 DUP2 MSTORE PUSH1 0x4 ADD PUSH2 0x274 SWAP1 PUSH2 0x5BC JUMP JUMPDEST PUSH1 0x40 MLOAD DUP1 SWAP2 SUB SWAP1 REVERT JUMPDEST PUSH0 DUP3 PUSH1 0x40 MLOAD PUSH2 0x28C SWAP2 SWAP1 PUSH2 0x4E4 JUMP JUMPDEST SWAP1 DUP2 MSTORE PUSH1 0x20 ADD PUSH1 0x40 MLOAD DUP1 SWAP2 SUB SWAP1 KECCAK256 PUSH0 SWAP1 SSTORE POP POP JUMP JUMPDEST PUSH0 DUP2 DUP1 MLOAD PUSH1 0x20 DUP2 ADD DUP3 ADD DUP1 MLOAD DUP5 DUP3 MSTORE PUSH1 0x20 DUP4 ADD PUSH1 0x20 DUP6 ADD KECCAK256 DUP2 DUP4 MSTORE DUP1 SWAP6 POP POP POP POP POP POP PUSH0 SWAP2 POP SWAP1 POP SLOAD DUP2 JUMP JUMPDEST PUSH0 PUSH1 0x40 MLOAD SWAP1 POP SWAP1 JUMP JUMPDEST PUSH0 DUP1 REVERT JUMPDEST PUSH0 DUP1 REVERT JUMPDEST PUSH0 DUP1 REVERT JUMPDEST PUSH0 DUP1 REVERT JUMPDEST PUSH0 PUSH1 0x1F NOT PUSH1 0x1F DUP4 ADD AND SWAP1 POP SWAP2 SWAP1 POP JUMP JUMPDEST PUSH32 0x4E487B7100000000000000000000000000000000000000000000000000000000 PUSH0 MSTORE PUSH1 0x41 PUSH1 0x4 MSTORE PUSH1 0x24 PUSH0 REVERT JUMPDEST PUSH2 0x32C DUP3 PUSH2 0x2E6 JUMP JUMPDEST DUP2 ADD DUP2 DUP2 LT PUSH8 0xFFFFFFFFFFFFFFFF DUP3 GT OR ISZERO PUSH2 0x34B JUMPI PUSH2 0x34A PUSH2 0x2F6 JUMP JUMPDEST JUMPDEST DUP1 PUSH1 0x40 MSTORE POP POP POP JUMP JUMPDEST PUSH0 PUSH2 0x35D PUSH2 0x2CD JUMP JUMPDEST SWAP1 POP PUSH2 0x369 DUP3 DUP3 PUSH2 0x323 JUMP JUMPDEST SWAP2 SWAP1 POP JUMP JUMPDEST PUSH0 PUSH8 0xFFFFFFFFFFFFFFFF DUP3 GT ISZERO PUSH2 0x388 JUMPI PUSH2 0x387 PUSH2 0x2F6 JUMP JUMPDEST JUMPDEST PUSH2 0x391 DUP3 PUSH2 0x2E6 JUMP JUMPDEST SWAP1 POP PUSH1 0x20 DUP2 ADD SWAP1 POP SWAP2 SWAP1 POP JUMP JUMPDEST DUP3 DUP2 DUP4 CALLDATACOPY PUSH0 DUP4 DUP4 ADD MSTORE POP POP POP JUMP JUMPDEST PUSH0 PUSH2 0x3BE PUSH2 0x3B9 DUP5 PUSH2 0x36E JUMP JUMPDEST PUSH2 0x354 JUMP JUMPDEST SWAP1 POP DUP3 DUP2 MSTORE PUSH1 0x20 DUP2 ADD DUP5 DUP5 DUP5 ADD GT ISZERO PUSH2 0x3DA JUMPI PUSH2 0x3D9 PUSH2 0x2E2 JUMP JUMPDEST JUMPDEST PUSH2 0x3E5 DUP5 DUP3 DUP6 PUSH2 0x39E JUMP JUMPDEST POP SWAP4 SWAP3 POP POP POP JUMP JUMPDEST PUSH0 DUP3 PUSH1 0x1F DUP4 ADD SLT PUSH2 0x401 JUMPI PUSH2 0x400 PUSH2 0x2DE JUMP JUMPDEST JUMPDEST DUP2 CALLDATALOAD PUSH2 0x411 DUP5 DUP3 PUSH1 0x20 DUP7 ADD PUSH2 0x3AC JUMP JUMPDEST SWAP2 POP POP SWAP3 SWAP2 POP POP JUMP JUMPDEST PUSH0 PUSH1 0x20 DUP3 DUP5 SUB SLT ISZERO PUSH2 0x42F JUMPI PUSH2 0x42E PUSH2 0x2D6 JUMP JUMPDEST JUMPDEST PUSH0 DUP3 ADD CALLDATALOAD PUSH8 0xFFFFFFFFFFFFFFFF DUP2 GT ISZERO PUSH2 0x44C JUMPI PUSH2 0x44B PUSH2 0x2DA JUMP JUMPDEST JUMPDEST PUSH2 0x458 DUP5 DUP3 DUP6 ADD PUSH2 0x3ED JUMP JUMPDEST SWAP2 POP POP SWAP3 SWAP2 POP POP JUMP JUMPDEST PUSH0 DUP2 SWAP1 POP SWAP2 SWAP1 POP JUMP JUMPDEST PUSH2 0x473 DUP2 PUSH2 0x461 JUMP JUMPDEST DUP3 MSTORE POP POP JUMP JUMPDEST PUSH0 PUSH1 0x20 DUP3 ADD SWAP1 POP PUSH2 0x48C PUSH0 DUP4 ADD DUP5 PUSH2 0x46A JUMP JUMPDEST SWAP3 SWAP2 POP POP JUMP JUMPDEST PUSH0 DUP2 MLOAD SWAP1 POP SWAP2 SWAP1 POP JUMP JUMPDEST PUSH0 DUP2 SWAP1 POP SWAP3 SWAP2 POP POP JUMP JUMPDEST DUP3 DUP2 DUP4 MCOPY PUSH0 DUP4 DUP4 ADD MSTORE POP POP POP JUMP JUMPDEST PUSH0 PUSH2 0x4BE DUP3 PUSH2 0x492 JUMP JUMPDEST PUSH2 0x4C8 DUP2 DUP6 PUSH2 0x49C JUMP JUMPDEST SWAP4 POP PUSH2 0x4D8 DUP2 DUP6 PUSH1 0x20 DUP7 ADD PUSH2 0x4A6 JUMP JUMPDEST DUP1 DUP5 ADD SWAP2 POP POP SWAP3 SWAP2 POP POP JUMP JUMPDEST PUSH0 PUSH2 0x4EF DUP3 DUP5 PUSH2 0x4B4 JUMP JUMPDEST SWAP2 POP DUP2 SWAP1 POP SWAP3 SWAP2 POP POP JUMP JUMPDEST PUSH0 DUP3 DUP3 MSTORE PUSH1 0x20 DUP3 ADD SWAP1 POP SWAP3 SWAP2 POP POP JUMP JUMPDEST PUSH32 0x416C726561647920657869737473000000000000000000000000000000000000 PUSH0 DUP3 ADD MSTORE POP JUMP JUMPDEST PUSH0 PUSH2 0x53E PUSH1 0xE DUP4 PUSH2 0x4FA JUMP JUMPDEST SWAP2 POP PUSH2 0x549 DUP3 PUSH2 0x50A JUMP JUMPDEST PUSH1 0x20 DUP3 ADD SWAP1 POP SWAP2 SWAP1 POP JUMP JUMPDEST PUSH0 PUSH1 0x20 DUP3 ADD SWAP1 POP DUP2 DUP2 SUB PUSH0 DUP4 ADD MSTORE PUSH2 0x56B DUP2 PUSH2 0x532 JUMP JUMPDEST SWAP1 POP SWAP2 SWAP1 POP JUMP JUMPDEST PUSH32 0x496420646F6573206E6F74206578697374000000000000000000000000000000 PUSH0 DUP3 ADD MSTORE POP JUMP JUMPDEST PUSH0 PUSH2 0x5A6 PUSH1 0x11 DUP4 PUSH2 0x4FA JUMP JUMPDEST SWAP2 POP PUSH2 0x5B1 DUP3 PUSH2 0x572 JUMP JUMPDEST PUSH1 0x20 DUP3 ADD SWAP1 POP SWAP2 SWAP1 POP JUMP JUMPDEST PUSH0 PUSH1 0x20 DUP3 ADD SWAP1 POP DUP2 DUP2 SUB PUSH0 DUP4 ADD MSTORE PUSH2 0x5D3 DUP2 PUSH2 0x59A JUMP JUMPDEST SWAP1 POP SWAP2 SWAP1 POP JUMP INVALID LOG2 PUSH5 0x6970667358 0x22 SLT KECCAK256 0x2B GAS SWAP10 0x2D 0x1F LOG0 DUP5 0x2D BASEFEE DIV CALLCODE 0xEA 0xC JUMPI 0xCD CALLDATASIZE SWAP13 0x2F 0xF9 BLOCKHASH PUSH31 0xEFB5B2A6F0772DC571592E64736F6C634300081A0033000000000000000000 "
				},
				"gasEstimates": {
					"creation": {
						"codeDepositCost": "310400",
						"executionCost": "347",
						"totalCost": "310747"
					},
					"external": {
						"delete_s(string)": "infinite",
						"getValue(string)": "infinite",
						"id(string)": "infinite",
						"setId(string)": "infinite"
					}
				},
				"methodIdentifiers": {
					"delete_s(string)": "b609ddcb",
					"getValue(string)": "960384a0",
					"id(string)": "f737948b",
					"setId(string)": "87e4396c"
				}
			},
			"storageLayout": {
				"storage": [
					{
						"astId": 256,
						"contract": "solidity100/soliditiy10_250109.sol:Q27",
						"label": "id",
						"offset": 0,
						"slot": "0",
						"type": "t_mapping(t_string_memory_ptr,t_bytes32)"
					}
				],
				"types": {
					"t_bytes32": {
						"encoding": "inplace",
						"label": "bytes32",
						"numberOfBytes": "32"
					},
					"t_mapping(t_string_memory_ptr,t_bytes32)": {
						"encoding": "mapping",
						"key": "t_string_memory_ptr",
						"label": "mapping(string => bytes32)",
						"numberOfBytes": "32",
						"value": "t_bytes32"
					},
					"t_string_memory_ptr": {
						"encoding": "bytes",
						"label": "string",
						"numberOfBytes": "32"
					}
				}
			},
			"userdoc": {
				"kind": "user",
				"methods": {},
				"version": 1
			}
		}
	}
}