{
	"solidity100/soliditiy10_250109.sol": {
		"Q26": {
			"abi": [
				{
					"inputs": [
						{
							"internalType": "uint256",
							"name": "",
							"type": "uint256"
						}
					],
					"name": "evenArray",
					"outputs": [
						{
							"internalType": "uint256",
							"name": "",
							"type": "uint256"
						}
					],
					"stateMutability": "view",
					"type": "function"
				},
				{
					"inputs": [],
					"name": "getArrays",
					"outputs": [
						{
							"internalType": "uint256[]",
							"name": "",
							"type": "uint256[]"
						},
						{
							"internalType": "uint256[]",
							"name": "",
							"type": "uint256[]"
						}
					],
					"stateMutability": "view",
					"type": "function"
				},
				{
					"inputs": [
						{
							"internalType": "uint256",
							"name": "",
							"type": "uint256"
						}
					],
					"name": "oddArray",
					"outputs": [
						{
							"internalType": "uint256",
							"name": "",
							"type": "uint256"
						}
					],
					"stateMutability": "view",
					"type": "function"
				},
				{
					"inputs": [
						{
							"internalType": "uint256",
							"name": "_n",
							"type": "uint256"
						}
					],
					"name": "pushArrayFilter",
					"outputs": [],
					"stateMutability": "nonpayable",
					"type": "function"
				}
			],
			"devdoc": {
				"kind": "dev",
				"methods": {},
				"version": 1
			},
			"evm": {
				"assembly": "    /* \"solidity100/soliditiy10_250109.sol\":2350:3027  contract Q26 {... */\n  mstore(0x40, 0x80)\n  callvalue\n  dup1\n  iszero\n  tag_1\n  jumpi\n  0x00\n  dup1\n  revert\ntag_1:\n  pop\n  dataSize(sub_0)\n  dup1\n  dataOffset(sub_0)\n  0x00\n  codecopy\n  0x00\n  return\nstop\n\nsub_0: assembly {\n        /* \"solidity100/soliditiy10_250109.sol\":2350:3027  contract Q26 {... */\n      mstore(0x40, 0x80)\n      callvalue\n      dup1\n      iszero\n      tag_1\n      jumpi\n      0x00\n      dup1\n      revert\n    tag_1:\n      pop\n      jumpi(tag_2, lt(calldatasize, 0x04))\n      shr(0xe0, calldataload(0x00))\n      dup1\n      0x6c0aba66\n      eq\n      tag_3\n      jumpi\n      dup1\n      0xcd94b371\n      eq\n      tag_4\n      jumpi\n      dup1\n      0xebe8e710\n      eq\n      tag_5\n      jumpi\n      dup1\n      0xfd966c5b\n      eq\n      tag_6\n      jumpi\n    tag_2:\n      0x00\n      dup1\n      revert\n        /* \"solidity100/soliditiy10_250109.sol\":2620:2868  function pushArrayFilter(uint256 _n) public {... */\n    tag_3:\n      tag_7\n      0x04\n      dup1\n      calldatasize\n      sub\n      dup2\n      add\n      swap1\n      tag_8\n      swap2\n      swap1\n      tag_9\n      jump\t// in\n    tag_8:\n      tag_10\n      jump\t// in\n    tag_7:\n      stop\n        /* \"solidity100/soliditiy10_250109.sol\":2587:2613  uint256[] public evenArray */\n    tag_4:\n      tag_11\n      0x04\n      dup1\n      calldatasize\n      sub\n      dup2\n      add\n      swap1\n      tag_12\n      swap2\n      swap1\n      tag_9\n      jump\t// in\n    tag_12:\n      tag_13\n      jump\t// in\n    tag_11:\n      mload(0x40)\n      tag_14\n      swap2\n      swap1\n      tag_15\n      jump\t// in\n    tag_14:\n      mload(0x40)\n      dup1\n      swap2\n      sub\n      swap1\n      return\n        /* \"solidity100/soliditiy10_250109.sol\":2556:2581  uint256[] public oddArray */\n    tag_5:\n      tag_16\n      0x04\n      dup1\n      calldatasize\n      sub\n      dup2\n      add\n      swap1\n      tag_17\n      swap2\n      swap1\n      tag_9\n      jump\t// in\n    tag_17:\n      tag_18\n      jump\t// in\n    tag_16:\n      mload(0x40)\n      tag_19\n      swap2\n      swap1\n      tag_15\n      jump\t// in\n    tag_19:\n      mload(0x40)\n      dup1\n      swap2\n      sub\n      swap1\n      return\n        /* \"solidity100/soliditiy10_250109.sol\":2874:3025  function getArrays()... */\n    tag_6:\n      tag_20\n      tag_21\n      jump\t// in\n    tag_20:\n      mload(0x40)\n      tag_22\n      swap3\n      swap2\n      swap1\n      tag_23\n      jump\t// in\n    tag_22:\n      mload(0x40)\n      dup1\n      swap2\n      sub\n      swap1\n      return\n        /* \"solidity100/soliditiy10_250109.sol\":2620:2868  function pushArrayFilter(uint256 _n) public {... */\n    tag_10:\n        /* \"solidity100/soliditiy10_250109.sol\":2684:2685  0 */\n      0x00\n        /* \"solidity100/soliditiy10_250109.sol\":2678:2680  _n */\n      dup2\n        /* \"solidity100/soliditiy10_250109.sol\":2678:2685  _n == 0 */\n      sub\n        /* \"solidity100/soliditiy10_250109.sol\":2674:2744  if (_n == 0) {... */\n      tag_25\n      jumpi\n        /* \"solidity100/soliditiy10_250109.sol\":2701:2733  revert(\"Please Input Over Zero\") */\n      mload(0x40)\n      0x08c379a000000000000000000000000000000000000000000000000000000000\n      dup2\n      mstore\n      0x04\n      add\n      tag_26\n      swap1\n      tag_27\n      jump\t// in\n    tag_26:\n      mload(0x40)\n      dup1\n      swap2\n      sub\n      swap1\n      revert\n        /* \"solidity100/soliditiy10_250109.sol\":2674:2744  if (_n == 0) {... */\n    tag_25:\n        /* \"solidity100/soliditiy10_250109.sol\":2768:2769  0 */\n      0x00\n        /* \"solidity100/soliditiy10_250109.sol\":2763:2764  2 */\n      0x02\n        /* \"solidity100/soliditiy10_250109.sol\":2758:2760  _n */\n      dup3\n        /* \"solidity100/soliditiy10_250109.sol\":2758:2764  _n % 2 */\n      tag_28\n      swap2\n      swap1\n      tag_29\n      jump\t// in\n    tag_28:\n        /* \"solidity100/soliditiy10_250109.sol\":2758:2769  _n % 2 == 0 */\n      sub\n        /* \"solidity100/soliditiy10_250109.sol\":2754:2862  if (_n % 2 == 0) {... */\n      tag_30\n      jumpi\n        /* \"solidity100/soliditiy10_250109.sol\":2785:2794  evenArray */\n      0x01\n        /* \"solidity100/soliditiy10_250109.sol\":2800:2802  _n */\n      dup2\n        /* \"solidity100/soliditiy10_250109.sol\":2785:2803  evenArray.push(_n) */\n      swap1\n      dup1\n      0x01\n      dup2\n      sload\n      add\n      dup1\n      dup3\n      sstore\n      dup1\n      swap2\n      pop\n      pop\n      0x01\n      swap1\n      sub\n      swap1\n      0x00\n      mstore\n      keccak256(0x00, 0x20)\n      add\n      0x00\n      swap1\n      swap2\n      swap1\n      swap2\n      swap1\n      swap2\n      pop\n      sstore\n        /* \"solidity100/soliditiy10_250109.sol\":2754:2862  if (_n % 2 == 0) {... */\n      jump(tag_32)\n    tag_30:\n        /* \"solidity100/soliditiy10_250109.sol\":2834:2842  oddArray */\n      0x00\n        /* \"solidity100/soliditiy10_250109.sol\":2848:2850  _n */\n      dup2\n        /* \"solidity100/soliditiy10_250109.sol\":2834:2851  oddArray.push(_n) */\n      swap1\n      dup1\n      0x01\n      dup2\n      sload\n      add\n      dup1\n      dup3\n      sstore\n      dup1\n      swap2\n      pop\n      pop\n      0x01\n      swap1\n      sub\n      swap1\n      0x00\n      mstore\n      keccak256(0x00, 0x20)\n      add\n      0x00\n      swap1\n      swap2\n      swap1\n      swap2\n      swap1\n      swap2\n      pop\n      sstore\n        /* \"solidity100/soliditiy10_250109.sol\":2754:2862  if (_n % 2 == 0) {... */\n    tag_32:\n        /* \"solidity100/soliditiy10_250109.sol\":2620:2868  function pushArrayFilter(uint256 _n) public {... */\n      pop\n      jump\t// out\n        /* \"solidity100/soliditiy10_250109.sol\":2587:2613  uint256[] public evenArray */\n    tag_13:\n      0x01\n      dup2\n      dup2\n      sload\n      dup2\n      lt\n      tag_34\n      jumpi\n      0x00\n      dup1\n      revert\n    tag_34:\n      swap1\n      0x00\n      mstore\n      keccak256(0x00, 0x20)\n      add\n      0x00\n      swap2\n      pop\n      swap1\n      pop\n      sload\n      dup2\n      jump\t// out\n        /* \"solidity100/soliditiy10_250109.sol\":2556:2581  uint256[] public oddArray */\n    tag_18:\n      0x00\n      dup2\n      dup2\n      sload\n      dup2\n      lt\n      tag_36\n      jumpi\n      0x00\n      dup1\n      revert\n    tag_36:\n      swap1\n      0x00\n      mstore\n      keccak256(0x00, 0x20)\n      add\n      0x00\n      swap2\n      pop\n      swap1\n      pop\n      sload\n      dup2\n      jump\t// out\n        /* \"solidity100/soliditiy10_250109.sol\":2874:3025  function getArrays()... */\n    tag_21:\n        /* \"solidity100/soliditiy10_250109.sol\":2940:2956  uint256[] memory */\n      0x60\n        /* \"solidity100/soliditiy10_250109.sol\":2958:2974  uint256[] memory */\n      dup1\n        /* \"solidity100/soliditiy10_250109.sol\":2998:3006  oddArray */\n      0x00\n        /* \"solidity100/soliditiy10_250109.sol\":3008:3017  evenArray */\n      0x01\n        /* \"solidity100/soliditiy10_250109.sol\":2990:3018  return (oddArray, evenArray) */\n      dup2\n      dup1\n      sload\n      dup1\n      0x20\n      mul\n      0x20\n      add\n      mload(0x40)\n      swap1\n      dup2\n      add\n      0x40\n      mstore\n      dup1\n      swap3\n      swap2\n      swap1\n      dup2\n      dup2\n      mstore\n      0x20\n      add\n      dup3\n      dup1\n      sload\n      dup1\n      iszero\n      tag_39\n      jumpi\n      0x20\n      mul\n      dup3\n      add\n      swap2\n      swap1\n      0x00\n      mstore\n      keccak256(0x00, 0x20)\n      swap1\n    tag_40:\n      dup2\n      sload\n      dup2\n      mstore\n      0x20\n      add\n      swap1\n      0x01\n      add\n      swap1\n      dup1\n      dup4\n      gt\n      tag_40\n      jumpi\n    tag_39:\n      pop\n      pop\n      pop\n      pop\n      pop\n      swap2\n      pop\n      dup1\n      dup1\n      sload\n      dup1\n      0x20\n      mul\n      0x20\n      add\n      mload(0x40)\n      swap1\n      dup2\n      add\n      0x40\n      mstore\n      dup1\n      swap3\n      swap2\n      swap1\n      dup2\n      dup2\n      mstore\n      0x20\n      add\n      dup3\n      dup1\n      sload\n      dup1\n      iszero\n      tag_41\n      jumpi\n      0x20\n      mul\n      dup3\n      add\n      swap2\n      swap1\n      0x00\n      mstore\n      keccak256(0x00, 0x20)\n      swap1\n    tag_42:\n      dup2\n      sload\n      dup2\n      mstore\n      0x20\n      add\n      swap1\n      0x01\n      add\n      swap1\n      dup1\n      dup4\n      gt\n      tag_42\n      jumpi\n    tag_41:\n      pop\n      pop\n      pop\n      pop\n      pop\n      swap1\n      pop\n      swap2\n      pop\n      swap2\n      pop\n        /* \"solidity100/soliditiy10_250109.sol\":2874:3025  function getArrays()... */\n      swap1\n      swap2\n      jump\t// out\n        /* \"#utility.yul\":88:205   */\n    tag_44:\n        /* \"#utility.yul\":197:198   */\n      0x00\n        /* \"#utility.yul\":194:195   */\n      dup1\n        /* \"#utility.yul\":187:199   */\n      revert\n        /* \"#utility.yul\":334:411   */\n    tag_46:\n        /* \"#utility.yul\":371:378   */\n      0x00\n        /* \"#utility.yul\":400:405   */\n      dup2\n        /* \"#utility.yul\":389:405   */\n      swap1\n      pop\n        /* \"#utility.yul\":334:411   */\n      swap2\n      swap1\n      pop\n      jump\t// out\n        /* \"#utility.yul\":417:539   */\n    tag_47:\n        /* \"#utility.yul\":490:514   */\n      tag_67\n        /* \"#utility.yul\":508:513   */\n      dup2\n        /* \"#utility.yul\":490:514   */\n      tag_46\n      jump\t// in\n    tag_67:\n        /* \"#utility.yul\":483:488   */\n      dup2\n        /* \"#utility.yul\":480:515   */\n      eq\n        /* \"#utility.yul\":470:533   */\n      tag_68\n      jumpi\n        /* \"#utility.yul\":529:530   */\n      0x00\n        /* \"#utility.yul\":526:527   */\n      dup1\n        /* \"#utility.yul\":519:531   */\n      revert\n        /* \"#utility.yul\":470:533   */\n    tag_68:\n        /* \"#utility.yul\":417:539   */\n      pop\n      jump\t// out\n        /* \"#utility.yul\":545:684   */\n    tag_48:\n        /* \"#utility.yul\":591:596   */\n      0x00\n        /* \"#utility.yul\":629:635   */\n      dup2\n        /* \"#utility.yul\":616:636   */\n      calldataload\n        /* \"#utility.yul\":607:636   */\n      swap1\n      pop\n        /* \"#utility.yul\":645:678   */\n      tag_70\n        /* \"#utility.yul\":672:677   */\n      dup2\n        /* \"#utility.yul\":645:678   */\n      tag_47\n      jump\t// in\n    tag_70:\n        /* \"#utility.yul\":545:684   */\n      swap3\n      swap2\n      pop\n      pop\n      jump\t// out\n        /* \"#utility.yul\":690:1019   */\n    tag_9:\n        /* \"#utility.yul\":749:755   */\n      0x00\n        /* \"#utility.yul\":798:800   */\n      0x20\n        /* \"#utility.yul\":786:795   */\n      dup3\n        /* \"#utility.yul\":777:784   */\n      dup5\n        /* \"#utility.yul\":773:796   */\n      sub\n        /* \"#utility.yul\":769:801   */\n      slt\n        /* \"#utility.yul\":766:885   */\n      iszero\n      tag_72\n      jumpi\n        /* \"#utility.yul\":804:883   */\n      tag_73\n      tag_44\n      jump\t// in\n    tag_73:\n        /* \"#utility.yul\":766:885   */\n    tag_72:\n        /* \"#utility.yul\":924:925   */\n      0x00\n        /* \"#utility.yul\":949:1002   */\n      tag_74\n        /* \"#utility.yul\":994:1001   */\n      dup5\n        /* \"#utility.yul\":985:991   */\n      dup3\n        /* \"#utility.yul\":974:983   */\n      dup6\n        /* \"#utility.yul\":970:992   */\n      add\n        /* \"#utility.yul\":949:1002   */\n      tag_48\n      jump\t// in\n    tag_74:\n        /* \"#utility.yul\":939:1002   */\n      swap2\n      pop\n        /* \"#utility.yul\":895:1012   */\n      pop\n        /* \"#utility.yul\":690:1019   */\n      swap3\n      swap2\n      pop\n      pop\n      jump\t// out\n        /* \"#utility.yul\":1025:1143   */\n    tag_49:\n        /* \"#utility.yul\":1112:1136   */\n      tag_76\n        /* \"#utility.yul\":1130:1135   */\n      dup2\n        /* \"#utility.yul\":1112:1136   */\n      tag_46\n      jump\t// in\n    tag_76:\n        /* \"#utility.yul\":1107:1110   */\n      dup3\n        /* \"#utility.yul\":1100:1137   */\n      mstore\n        /* \"#utility.yul\":1025:1143   */\n      pop\n      pop\n      jump\t// out\n        /* \"#utility.yul\":1149:1371   */\n    tag_15:\n        /* \"#utility.yul\":1242:1246   */\n      0x00\n        /* \"#utility.yul\":1280:1282   */\n      0x20\n        /* \"#utility.yul\":1269:1278   */\n      dup3\n        /* \"#utility.yul\":1265:1283   */\n      add\n        /* \"#utility.yul\":1257:1283   */\n      swap1\n      pop\n        /* \"#utility.yul\":1293:1364   */\n      tag_78\n        /* \"#utility.yul\":1361:1362   */\n      0x00\n        /* \"#utility.yul\":1350:1359   */\n      dup4\n        /* \"#utility.yul\":1346:1363   */\n      add\n        /* \"#utility.yul\":1337:1343   */\n      dup5\n        /* \"#utility.yul\":1293:1364   */\n      tag_49\n      jump\t// in\n    tag_78:\n        /* \"#utility.yul\":1149:1371   */\n      swap3\n      swap2\n      pop\n      pop\n      jump\t// out\n        /* \"#utility.yul\":1377:1491   */\n    tag_50:\n        /* \"#utility.yul\":1444:1450   */\n      0x00\n        /* \"#utility.yul\":1478:1483   */\n      dup2\n        /* \"#utility.yul\":1472:1484   */\n      mload\n        /* \"#utility.yul\":1462:1484   */\n      swap1\n      pop\n        /* \"#utility.yul\":1377:1491   */\n      swap2\n      swap1\n      pop\n      jump\t// out\n        /* \"#utility.yul\":1497:1681   */\n    tag_51:\n        /* \"#utility.yul\":1596:1607   */\n      0x00\n        /* \"#utility.yul\":1630:1636   */\n      dup3\n        /* \"#utility.yul\":1625:1628   */\n      dup3\n        /* \"#utility.yul\":1618:1637   */\n      mstore\n        /* \"#utility.yul\":1670:1674   */\n      0x20\n        /* \"#utility.yul\":1665:1668   */\n      dup3\n        /* \"#utility.yul\":1661:1675   */\n      add\n        /* \"#utility.yul\":1646:1675   */\n      swap1\n      pop\n        /* \"#utility.yul\":1497:1681   */\n      swap3\n      swap2\n      pop\n      pop\n      jump\t// out\n        /* \"#utility.yul\":1687:1819   */\n    tag_52:\n        /* \"#utility.yul\":1754:1758   */\n      0x00\n        /* \"#utility.yul\":1777:1780   */\n      dup2\n        /* \"#utility.yul\":1769:1780   */\n      swap1\n      pop\n        /* \"#utility.yul\":1807:1811   */\n      0x20\n        /* \"#utility.yul\":1802:1805   */\n      dup3\n        /* \"#utility.yul\":1798:1812   */\n      add\n        /* \"#utility.yul\":1790:1812   */\n      swap1\n      pop\n        /* \"#utility.yul\":1687:1819   */\n      swap2\n      swap1\n      pop\n      jump\t// out\n        /* \"#utility.yul\":1825:1933   */\n    tag_53:\n        /* \"#utility.yul\":1902:1926   */\n      tag_83\n        /* \"#utility.yul\":1920:1925   */\n      dup2\n        /* \"#utility.yul\":1902:1926   */\n      tag_46\n      jump\t// in\n    tag_83:\n        /* \"#utility.yul\":1897:1900   */\n      dup3\n        /* \"#utility.yul\":1890:1927   */\n      mstore\n        /* \"#utility.yul\":1825:1933   */\n      pop\n      pop\n      jump\t// out\n        /* \"#utility.yul\":1939:2118   */\n    tag_54:\n        /* \"#utility.yul\":2008:2018   */\n      0x00\n        /* \"#utility.yul\":2029:2075   */\n      tag_85\n        /* \"#utility.yul\":2071:2074   */\n      dup4\n        /* \"#utility.yul\":2063:2069   */\n      dup4\n        /* \"#utility.yul\":2029:2075   */\n      tag_53\n      jump\t// in\n    tag_85:\n        /* \"#utility.yul\":2107:2111   */\n      0x20\n        /* \"#utility.yul\":2102:2105   */\n      dup4\n        /* \"#utility.yul\":2098:2112   */\n      add\n        /* \"#utility.yul\":2084:2112   */\n      swap1\n      pop\n        /* \"#utility.yul\":1939:2118   */\n      swap3\n      swap2\n      pop\n      pop\n      jump\t// out\n        /* \"#utility.yul\":2124:2237   */\n    tag_55:\n        /* \"#utility.yul\":2194:2198   */\n      0x00\n        /* \"#utility.yul\":2226:2230   */\n      0x20\n        /* \"#utility.yul\":2221:2224   */\n      dup3\n        /* \"#utility.yul\":2217:2231   */\n      add\n        /* \"#utility.yul\":2209:2231   */\n      swap1\n      pop\n        /* \"#utility.yul\":2124:2237   */\n      swap2\n      swap1\n      pop\n      jump\t// out\n        /* \"#utility.yul\":2273:3005   */\n    tag_56:\n        /* \"#utility.yul\":2392:2395   */\n      0x00\n        /* \"#utility.yul\":2421:2475   */\n      tag_88\n        /* \"#utility.yul\":2469:2474   */\n      dup3\n        /* \"#utility.yul\":2421:2475   */\n      tag_50\n      jump\t// in\n    tag_88:\n        /* \"#utility.yul\":2491:2577   */\n      tag_89\n        /* \"#utility.yul\":2570:2576   */\n      dup2\n        /* \"#utility.yul\":2565:2568   */\n      dup6\n        /* \"#utility.yul\":2491:2577   */\n      tag_51\n      jump\t// in\n    tag_89:\n        /* \"#utility.yul\":2484:2577   */\n      swap4\n      pop\n        /* \"#utility.yul\":2601:2657   */\n      tag_90\n        /* \"#utility.yul\":2651:2656   */\n      dup4\n        /* \"#utility.yul\":2601:2657   */\n      tag_52\n      jump\t// in\n    tag_90:\n        /* \"#utility.yul\":2680:2687   */\n      dup1\n        /* \"#utility.yul\":2711:2712   */\n      0x00\n        /* \"#utility.yul\":2696:2980   */\n    tag_91:\n        /* \"#utility.yul\":2721:2727   */\n      dup4\n        /* \"#utility.yul\":2718:2719   */\n      dup2\n        /* \"#utility.yul\":2715:2728   */\n      lt\n        /* \"#utility.yul\":2696:2980   */\n      iszero\n      tag_93\n      jumpi\n        /* \"#utility.yul\":2797:2803   */\n      dup2\n        /* \"#utility.yul\":2791:2804   */\n      mload\n        /* \"#utility.yul\":2824:2887   */\n      tag_94\n        /* \"#utility.yul\":2883:2886   */\n      dup9\n        /* \"#utility.yul\":2868:2881   */\n      dup3\n        /* \"#utility.yul\":2824:2887   */\n      tag_54\n      jump\t// in\n    tag_94:\n        /* \"#utility.yul\":2817:2887   */\n      swap8\n      pop\n        /* \"#utility.yul\":2910:2970   */\n      tag_95\n        /* \"#utility.yul\":2963:2969   */\n      dup4\n        /* \"#utility.yul\":2910:2970   */\n      tag_55\n      jump\t// in\n    tag_95:\n        /* \"#utility.yul\":2900:2970   */\n      swap3\n      pop\n        /* \"#utility.yul\":2756:2980   */\n      pop\n        /* \"#utility.yul\":2743:2744   */\n      0x01\n        /* \"#utility.yul\":2740:2741   */\n      dup2\n        /* \"#utility.yul\":2736:2745   */\n      add\n        /* \"#utility.yul\":2731:2745   */\n      swap1\n      pop\n        /* \"#utility.yul\":2696:2980   */\n      jump(tag_91)\n    tag_93:\n        /* \"#utility.yul\":2700:2714   */\n      pop\n        /* \"#utility.yul\":2996:2999   */\n      dup6\n        /* \"#utility.yul\":2989:2999   */\n      swap4\n      pop\n        /* \"#utility.yul\":2397:3005   */\n      pop\n      pop\n      pop\n        /* \"#utility.yul\":2273:3005   */\n      swap3\n      swap2\n      pop\n      pop\n      jump\t// out\n        /* \"#utility.yul\":3011:3645   */\n    tag_23:\n        /* \"#utility.yul\":3232:3236   */\n      0x00\n        /* \"#utility.yul\":3270:3272   */\n      0x40\n        /* \"#utility.yul\":3259:3268   */\n      dup3\n        /* \"#utility.yul\":3255:3273   */\n      add\n        /* \"#utility.yul\":3247:3273   */\n      swap1\n      pop\n        /* \"#utility.yul\":3319:3328   */\n      dup2\n        /* \"#utility.yul\":3313:3317   */\n      dup2\n        /* \"#utility.yul\":3309:3329   */\n      sub\n        /* \"#utility.yul\":3305:3306   */\n      0x00\n        /* \"#utility.yul\":3294:3303   */\n      dup4\n        /* \"#utility.yul\":3290:3307   */\n      add\n        /* \"#utility.yul\":3283:3330   */\n      mstore\n        /* \"#utility.yul\":3347:3455   */\n      tag_97\n        /* \"#utility.yul\":3450:3454   */\n      dup2\n        /* \"#utility.yul\":3441:3447   */\n      dup6\n        /* \"#utility.yul\":3347:3455   */\n      tag_56\n      jump\t// in\n    tag_97:\n        /* \"#utility.yul\":3339:3455   */\n      swap1\n      pop\n        /* \"#utility.yul\":3502:3511   */\n      dup2\n        /* \"#utility.yul\":3496:3500   */\n      dup2\n        /* \"#utility.yul\":3492:3512   */\n      sub\n        /* \"#utility.yul\":3487:3489   */\n      0x20\n        /* \"#utility.yul\":3476:3485   */\n      dup4\n        /* \"#utility.yul\":3472:3490   */\n      add\n        /* \"#utility.yul\":3465:3513   */\n      mstore\n        /* \"#utility.yul\":3530:3638   */\n      tag_98\n        /* \"#utility.yul\":3633:3637   */\n      dup2\n        /* \"#utility.yul\":3624:3630   */\n      dup5\n        /* \"#utility.yul\":3530:3638   */\n      tag_56\n      jump\t// in\n    tag_98:\n        /* \"#utility.yul\":3522:3638   */\n      swap1\n      pop\n        /* \"#utility.yul\":3011:3645   */\n      swap4\n      swap3\n      pop\n      pop\n      pop\n      jump\t// out\n        /* \"#utility.yul\":3651:3820   */\n    tag_57:\n        /* \"#utility.yul\":3735:3746   */\n      0x00\n        /* \"#utility.yul\":3769:3775   */\n      dup3\n        /* \"#utility.yul\":3764:3767   */\n      dup3\n        /* \"#utility.yul\":3757:3776   */\n      mstore\n        /* \"#utility.yul\":3809:3813   */\n      0x20\n        /* \"#utility.yul\":3804:3807   */\n      dup3\n        /* \"#utility.yul\":3800:3814   */\n      add\n        /* \"#utility.yul\":3785:3814   */\n      swap1\n      pop\n        /* \"#utility.yul\":3651:3820   */\n      swap3\n      swap2\n      pop\n      pop\n      jump\t// out\n        /* \"#utility.yul\":3826:3998   */\n    tag_58:\n        /* \"#utility.yul\":3966:3990   */\n      0x506c6561736520496e707574204f766572205a65726f00000000000000000000\n        /* \"#utility.yul\":3962:3963   */\n      0x00\n        /* \"#utility.yul\":3954:3960   */\n      dup3\n        /* \"#utility.yul\":3950:3964   */\n      add\n        /* \"#utility.yul\":3943:3991   */\n      mstore\n        /* \"#utility.yul\":3826:3998   */\n      pop\n      jump\t// out\n        /* \"#utility.yul\":4004:4370   */\n    tag_59:\n        /* \"#utility.yul\":4146:4149   */\n      0x00\n        /* \"#utility.yul\":4167:4234   */\n      tag_102\n        /* \"#utility.yul\":4231:4233   */\n      0x16\n        /* \"#utility.yul\":4226:4229   */\n      dup4\n        /* \"#utility.yul\":4167:4234   */\n      tag_57\n      jump\t// in\n    tag_102:\n        /* \"#utility.yul\":4160:4234   */\n      swap2\n      pop\n        /* \"#utility.yul\":4243:4336   */\n      tag_103\n        /* \"#utility.yul\":4332:4335   */\n      dup3\n        /* \"#utility.yul\":4243:4336   */\n      tag_58\n      jump\t// in\n    tag_103:\n        /* \"#utility.yul\":4361:4363   */\n      0x20\n        /* \"#utility.yul\":4356:4359   */\n      dup3\n        /* \"#utility.yul\":4352:4364   */\n      add\n        /* \"#utility.yul\":4345:4364   */\n      swap1\n      pop\n        /* \"#utility.yul\":4004:4370   */\n      swap2\n      swap1\n      pop\n      jump\t// out\n        /* \"#utility.yul\":4376:4795   */\n    tag_27:\n        /* \"#utility.yul\":4542:4546   */\n      0x00\n        /* \"#utility.yul\":4580:4582   */\n      0x20\n        /* \"#utility.yul\":4569:4578   */\n      dup3\n        /* \"#utility.yul\":4565:4583   */\n      add\n        /* \"#utility.yul\":4557:4583   */\n      swap1\n      pop\n        /* \"#utility.yul\":4629:4638   */\n      dup2\n        /* \"#utility.yul\":4623:4627   */\n      dup2\n        /* \"#utility.yul\":4619:4639   */\n      sub\n        /* \"#utility.yul\":4615:4616   */\n      0x00\n        /* \"#utility.yul\":4604:4613   */\n      dup4\n        /* \"#utility.yul\":4600:4617   */\n      add\n        /* \"#utility.yul\":4593:4640   */\n      mstore\n        /* \"#utility.yul\":4657:4788   */\n      tag_105\n        /* \"#utility.yul\":4783:4787   */\n      dup2\n        /* \"#utility.yul\":4657:4788   */\n      tag_59\n      jump\t// in\n    tag_105:\n        /* \"#utility.yul\":4649:4788   */\n      swap1\n      pop\n        /* \"#utility.yul\":4376:4795   */\n      swap2\n      swap1\n      pop\n      jump\t// out\n        /* \"#utility.yul\":4801:4981   */\n    tag_60:\n        /* \"#utility.yul\":4849:4926   */\n      0x4e487b7100000000000000000000000000000000000000000000000000000000\n        /* \"#utility.yul\":4846:4847   */\n      0x00\n        /* \"#utility.yul\":4839:4927   */\n      mstore\n        /* \"#utility.yul\":4946:4950   */\n      0x12\n        /* \"#utility.yul\":4943:4944   */\n      0x04\n        /* \"#utility.yul\":4936:4951   */\n      mstore\n        /* \"#utility.yul\":4970:4974   */\n      0x24\n        /* \"#utility.yul\":4967:4968   */\n      0x00\n        /* \"#utility.yul\":4960:4975   */\n      revert\n        /* \"#utility.yul\":4987:5163   */\n    tag_29:\n        /* \"#utility.yul\":5019:5020   */\n      0x00\n        /* \"#utility.yul\":5036:5056   */\n      tag_108\n        /* \"#utility.yul\":5054:5055   */\n      dup3\n        /* \"#utility.yul\":5036:5056   */\n      tag_46\n      jump\t// in\n    tag_108:\n        /* \"#utility.yul\":5031:5056   */\n      swap2\n      pop\n        /* \"#utility.yul\":5070:5090   */\n      tag_109\n        /* \"#utility.yul\":5088:5089   */\n      dup4\n        /* \"#utility.yul\":5070:5090   */\n      tag_46\n      jump\t// in\n    tag_109:\n        /* \"#utility.yul\":5065:5090   */\n      swap3\n      pop\n        /* \"#utility.yul\":5109:5110   */\n      dup3\n        /* \"#utility.yul\":5099:5134   */\n      tag_110\n      jumpi\n        /* \"#utility.yul\":5114:5132   */\n      tag_111\n      tag_60\n      jump\t// in\n    tag_111:\n        /* \"#utility.yul\":5099:5134   */\n    tag_110:\n        /* \"#utility.yul\":5155:5156   */\n      dup3\n        /* \"#utility.yul\":5152:5153   */\n      dup3\n        /* \"#utility.yul\":5148:5157   */\n      mod\n        /* \"#utility.yul\":5143:5157   */\n      swap1\n      pop\n        /* \"#utility.yul\":4987:5163   */\n      swap3\n      swap2\n      pop\n      pop\n      jump\t// out\n\n    auxdata: 0xa26469706673582212208674a73e4e92c3a416207c5feba3c935befdc5cf76753660fba485e9e31940bc64736f6c634300081a0033\n}\n",
				"bytecode": {
					"linkReferences": {},
					"object": "6080604052348015600e575f80fd5b506105008061001c5f395ff3fe608060405234801561000f575f80fd5b506004361061004a575f3560e01c80636c0aba661461004e578063cd94b3711461006a578063ebe8e7101461009a578063fd966c5b146100ca575b5f80fd5b610068600480360381019061006391906102b6565b6100e9565b005b610084600480360381019061007f91906102b6565b610192565b60405161009191906102f0565b60405180910390f35b6100b460048036038101906100af91906102b6565b6101b2565b6040516100c191906102f0565b60405180910390f35b6100d26101d1565b6040516100e09291906103c0565b60405180910390f35b5f810361012b576040517f08c379a00000000000000000000000000000000000000000000000000000000081526004016101229061044f565b60405180910390fd5b5f600282610139919061049a565b0361016957600181908060018154018082558091505060019003905f5260205f20015f909190919091505561018f565b5f81908060018154018082558091505060019003905f5260205f20015f90919091909150555b50565b600181815481106101a1575f80fd5b905f5260205f20015f915090505481565b5f81815481106101c0575f80fd5b905f5260205f20015f915090505481565b6060805f60018180548060200260200160405190810160405280929190818152602001828054801561022057602002820191905f5260205f20905b81548152602001906001019080831161020c575b505050505091508080548060200260200160405190810160405280929190818152602001828054801561027057602002820191905f5260205f20905b81548152602001906001019080831161025c575b50505050509050915091509091565b5f80fd5b5f819050919050565b61029581610283565b811461029f575f80fd5b50565b5f813590506102b08161028c565b92915050565b5f602082840312156102cb576102ca61027f565b5b5f6102d8848285016102a2565b91505092915050565b6102ea81610283565b82525050565b5f6020820190506103035f8301846102e1565b92915050565b5f81519050919050565b5f82825260208201905092915050565b5f819050602082019050919050565b61033b81610283565b82525050565b5f61034c8383610332565b60208301905092915050565b5f602082019050919050565b5f61036e82610309565b6103788185610313565b935061038383610323565b805f5b838110156103b357815161039a8882610341565b97506103a583610358565b925050600181019050610386565b5085935050505092915050565b5f6040820190508181035f8301526103d88185610364565b905081810360208301526103ec8184610364565b90509392505050565b5f82825260208201905092915050565b7f506c6561736520496e707574204f766572205a65726f000000000000000000005f82015250565b5f6104396016836103f5565b915061044482610405565b602082019050919050565b5f6020820190508181035f8301526104668161042d565b9050919050565b7f4e487b71000000000000000000000000000000000000000000000000000000005f52601260045260245ffd5b5f6104a482610283565b91506104af83610283565b9250826104bf576104be61046d565b5b82820690509291505056fea26469706673582212208674a73e4e92c3a416207c5feba3c935befdc5cf76753660fba485e9e31940bc64736f6c634300081a0033",
					"opcodes": "PUSH1 0x80 PUSH1 0x40 MSTORE CALLVALUE DUP1 ISZERO PUSH1 0xE JUMPI PUSH0 DUP1 REVERT JUMPDEST POP PUSH2 0x500 DUP1 PUSH2 0x1C PUSH0 CODECOPY PUSH0 RETURN INVALID PUSH1 0x80 PUSH1 0x40 MSTORE CALLVALUE DUP1 ISZERO PUSH2 0xF JUMPI PUSH0 DUP1 REVERT JUMPDEST POP PUSH1 0x4 CALLDATASIZE LT PUSH2 0x4A JUMPI PUSH0 CALLDATALOAD PUSH1 0xE0 SHR DUP1 PUSH4 0x6C0ABA66 EQ PUSH2 0x4E JUMPI DUP1 PUSH4 0xCD94B371 EQ PUSH2 0x6A JUMPI DUP1 PUSH4 0xEBE8E710 EQ PUSH2 0x9A JUMPI DUP1 PUSH4 0xFD966C5B EQ PUSH2 0xCA JUMPI JUMPDEST PUSH0 DUP1 REVERT JUMPDEST PUSH2 0x68 PUSH1 0x4 DUP1 CALLDATASIZE SUB DUP2 ADD SWAP1 PUSH2 0x63 SWAP2 SWAP1 PUSH2 0x2B6 JUMP JUMPDEST PUSH2 0xE9 JUMP JUMPDEST STOP JUMPDEST PUSH2 0x84 PUSH1 0x4 DUP1 CALLDATASIZE SUB DUP2 ADD SWAP1 PUSH2 0x7F SWAP2 SWAP1 PUSH2 0x2B6 JUMP JUMPDEST PUSH2 0x192 JUMP JUMPDEST PUSH1 0x40 MLOAD PUSH2 0x91 SWAP2 SWAP1 PUSH2 0x2F0 JUMP JUMPDEST PUSH1 0x40 MLOAD DUP1 SWAP2 SUB SWAP1 RETURN JUMPDEST PUSH2 0xB4 PUSH1 0x4 DUP1 CALLDATASIZE SUB DUP2 ADD SWAP1 PUSH2 0xAF SWAP2 SWAP1 PUSH2 0x2B6 JUMP JUMPDEST PUSH2 0x1B2 JUMP JUMPDEST PUSH1 0x40 MLOAD PUSH2 0xC1 SWAP2 SWAP1 PUSH2 0x2F0 JUMP JUMPDEST PUSH1 0x40 MLOAD DUP1 SWAP2 SUB SWAP1 RETURN JUMPDEST PUSH2 0xD2 PUSH2 0x1D1 JUMP JUMPDEST PUSH1 0x40 MLOAD PUSH2 0xE0 SWAP3 SWAP2 SWAP1 PUSH2 0x3C0 JUMP JUMPDEST PUSH1 0x40 MLOAD DUP1 SWAP2 SUB SWAP1 RETURN JUMPDEST PUSH0 DUP2 SUB PUSH2 0x12B JUMPI PUSH1 0x40 MLOAD PUSH32 0x8C379A000000000000000000000000000000000000000000000000000000000 DUP2 MSTORE PUSH1 0x4 ADD PUSH2 0x122 SWAP1 PUSH2 0x44F JUMP JUMPDEST PUSH1 0x40 MLOAD DUP1 SWAP2 SUB SWAP1 REVERT JUMPDEST PUSH0 PUSH1 0x2 DUP3 PUSH2 0x139 SWAP2 SWAP1 PUSH2 0x49A JUMP JUMPDEST SUB PUSH2 0x169 JUMPI PUSH1 0x1 DUP2 SWAP1 DUP1 PUSH1 0x1 DUP2 SLOAD ADD DUP1 DUP3 SSTORE DUP1 SWAP2 POP POP PUSH1 0x1 SWAP1 SUB SWAP1 PUSH0 MSTORE PUSH1 0x20 PUSH0 KECCAK256 ADD PUSH0 SWAP1 SWAP2 SWAP1 SWAP2 SWAP1 SWAP2 POP SSTORE PUSH2 0x18F JUMP JUMPDEST PUSH0 DUP2 SWAP1 DUP1 PUSH1 0x1 DUP2 SLOAD ADD DUP1 DUP3 SSTORE DUP1 SWAP2 POP POP PUSH1 0x1 SWAP1 SUB SWAP1 PUSH0 MSTORE PUSH1 0x20 PUSH0 KECCAK256 ADD PUSH0 SWAP1 SWAP2 SWAP1 SWAP2 SWAP1 SWAP2 POP SSTORE JUMPDEST POP JUMP JUMPDEST PUSH1 0x1 DUP2 DUP2 SLOAD DUP2 LT PUSH2 0x1A1 JUMPI PUSH0 DUP1 REVERT JUMPDEST SWAP1 PUSH0 MSTORE PUSH1 0x20 PUSH0 KECCAK256 ADD PUSH0 SWAP2 POP SWAP1 POP SLOAD DUP2 JUMP JUMPDEST PUSH0 DUP2 DUP2 SLOAD DUP2 LT PUSH2 0x1C0 JUMPI PUSH0 DUP1 REVERT JUMPDEST SWAP1 PUSH0 MSTORE PUSH1 0x20 PUSH0 KECCAK256 ADD PUSH0 SWAP2 POP SWAP1 POP SLOAD DUP2 JUMP JUMPDEST PUSH1 0x60 DUP1 PUSH0 PUSH1 0x1 DUP2 DUP1 SLOAD DUP1 PUSH1 0x20 MUL PUSH1 0x20 ADD PUSH1 0x40 MLOAD SWAP1 DUP2 ADD PUSH1 0x40 MSTORE DUP1 SWAP3 SWAP2 SWAP1 DUP2 DUP2 MSTORE PUSH1 0x20 ADD DUP3 DUP1 SLOAD DUP1 ISZERO PUSH2 0x220 JUMPI PUSH1 0x20 MUL DUP3 ADD SWAP2 SWAP1 PUSH0 MSTORE PUSH1 0x20 PUSH0 KECCAK256 SWAP1 JUMPDEST DUP2 SLOAD DUP2 MSTORE PUSH1 0x20 ADD SWAP1 PUSH1 0x1 ADD SWAP1 DUP1 DUP4 GT PUSH2 0x20C JUMPI JUMPDEST POP POP POP POP POP SWAP2 POP DUP1 DUP1 SLOAD DUP1 PUSH1 0x20 MUL PUSH1 0x20 ADD PUSH1 0x40 MLOAD SWAP1 DUP2 ADD PUSH1 0x40 MSTORE DUP1 SWAP3 SWAP2 SWAP1 DUP2 DUP2 MSTORE PUSH1 0x20 ADD DUP3 DUP1 SLOAD DUP1 ISZERO PUSH2 0x270 JUMPI PUSH1 0x20 MUL DUP3 ADD SWAP2 SWAP1 PUSH0 MSTORE PUSH1 0x20 PUSH0 KECCAK256 SWAP1 JUMPDEST DUP2 SLOAD DUP2 MSTORE PUSH1 0x20 ADD SWAP1 PUSH1 0x1 ADD SWAP1 DUP1 DUP4 GT PUSH2 0x25C JUMPI JUMPDEST POP POP POP POP POP SWAP1 POP SWAP2 POP SWAP2 POP SWAP1 SWAP2 JUMP JUMPDEST PUSH0 DUP1 REVERT JUMPDEST PUSH0 DUP2 SWAP1 POP SWAP2 SWAP1 POP JUMP JUMPDEST PUSH2 0x295 DUP2 PUSH2 0x283 JUMP JUMPDEST DUP2 EQ PUSH2 0x29F JUMPI PUSH0 DUP1 REVERT JUMPDEST POP JUMP JUMPDEST PUSH0 DUP2 CALLDATALOAD SWAP1 POP PUSH2 0x2B0 DUP2 PUSH2 0x28C JUMP JUMPDEST SWAP3 SWAP2 POP POP JUMP JUMPDEST PUSH0 PUSH1 0x20 DUP3 DUP5 SUB SLT ISZERO PUSH2 0x2CB JUMPI PUSH2 0x2CA PUSH2 0x27F JUMP JUMPDEST JUMPDEST PUSH0 PUSH2 0x2D8 DUP5 DUP3 DUP6 ADD PUSH2 0x2A2 JUMP JUMPDEST SWAP2 POP POP SWAP3 SWAP2 POP POP JUMP JUMPDEST PUSH2 0x2EA DUP2 PUSH2 0x283 JUMP JUMPDEST DUP3 MSTORE POP POP JUMP JUMPDEST PUSH0 PUSH1 0x20 DUP3 ADD SWAP1 POP PUSH2 0x303 PUSH0 DUP4 ADD DUP5 PUSH2 0x2E1 JUMP JUMPDEST SWAP3 SWAP2 POP POP JUMP JUMPDEST PUSH0 DUP2 MLOAD SWAP1 POP SWAP2 SWAP1 POP JUMP JUMPDEST PUSH0 DUP3 DUP3 MSTORE PUSH1 0x20 DUP3 ADD SWAP1 POP SWAP3 SWAP2 POP POP JUMP JUMPDEST PUSH0 DUP2 SWAP1 POP PUSH1 0x20 DUP3 ADD SWAP1 POP SWAP2 SWAP1 POP JUMP JUMPDEST PUSH2 0x33B DUP2 PUSH2 0x283 JUMP JUMPDEST DUP3 MSTORE POP POP JUMP JUMPDEST PUSH0 PUSH2 0x34C DUP4 DUP4 PUSH2 0x332 JUMP JUMPDEST PUSH1 0x20 DUP4 ADD SWAP1 POP SWAP3 SWAP2 POP POP JUMP JUMPDEST PUSH0 PUSH1 0x20 DUP3 ADD SWAP1 POP SWAP2 SWAP1 POP JUMP JUMPDEST PUSH0 PUSH2 0x36E DUP3 PUSH2 0x309 JUMP JUMPDEST PUSH2 0x378 DUP2 DUP6 PUSH2 0x313 JUMP JUMPDEST SWAP4 POP PUSH2 0x383 DUP4 PUSH2 0x323 JUMP JUMPDEST DUP1 PUSH0 JUMPDEST DUP4 DUP2 LT ISZERO PUSH2 0x3B3 JUMPI DUP2 MLOAD PUSH2 0x39A DUP9 DUP3 PUSH2 0x341 JUMP JUMPDEST SWAP8 POP PUSH2 0x3A5 DUP4 PUSH2 0x358 JUMP JUMPDEST SWAP3 POP POP PUSH1 0x1 DUP2 ADD SWAP1 POP PUSH2 0x386 JUMP JUMPDEST POP DUP6 SWAP4 POP POP POP POP SWAP3 SWAP2 POP POP JUMP JUMPDEST PUSH0 PUSH1 0x40 DUP3 ADD SWAP1 POP DUP2 DUP2 SUB PUSH0 DUP4 ADD MSTORE PUSH2 0x3D8 DUP2 DUP6 PUSH2 0x364 JUMP JUMPDEST SWAP1 POP DUP2 DUP2 SUB PUSH1 0x20 DUP4 ADD MSTORE PUSH2 0x3EC DUP2 DUP5 PUSH2 0x364 JUMP JUMPDEST SWAP1 POP SWAP4 SWAP3 POP POP POP JUMP JUMPDEST PUSH0 DUP3 DUP3 MSTORE PUSH1 0x20 DUP3 ADD SWAP1 POP SWAP3 SWAP2 POP POP JUMP JUMPDEST PUSH32 0x506C6561736520496E707574204F766572205A65726F00000000000000000000 PUSH0 DUP3 ADD MSTORE POP JUMP JUMPDEST PUSH0 PUSH2 0x439 PUSH1 0x16 DUP4 PUSH2 0x3F5 JUMP JUMPDEST SWAP2 POP PUSH2 0x444 DUP3 PUSH2 0x405 JUMP JUMPDEST PUSH1 0x20 DUP3 ADD SWAP1 POP SWAP2 SWAP1 POP JUMP JUMPDEST PUSH0 PUSH1 0x20 DUP3 ADD SWAP1 POP DUP2 DUP2 SUB PUSH0 DUP4 ADD MSTORE PUSH2 0x466 DUP2 PUSH2 0x42D JUMP JUMPDEST SWAP1 POP SWAP2 SWAP1 POP JUMP JUMPDEST PUSH32 0x4E487B7100000000000000000000000000000000000000000000000000000000 PUSH0 MSTORE PUSH1 0x12 PUSH1 0x4 MSTORE PUSH1 0x24 PUSH0 REVERT JUMPDEST PUSH0 PUSH2 0x4A4 DUP3 PUSH2 0x283 JUMP JUMPDEST SWAP2 POP PUSH2 0x4AF DUP4 PUSH2 0x283 JUMP JUMPDEST SWAP3 POP DUP3 PUSH2 0x4BF JUMPI PUSH2 0x4BE PUSH2 0x46D JUMP JUMPDEST JUMPDEST DUP3 DUP3 MOD SWAP1 POP SWAP3 SWAP2 POP POP JUMP INVALID LOG2 PUSH5 0x6970667358 0x22 SLT KECCAK256 DUP7 PUSH21 0xA73E4E92C3A416207C5FEBA3C935BEFDC5CF767536 PUSH1 0xFB LOG4 DUP6 0xE9 0xE3 NOT BLOCKHASH 0xBC PUSH5 0x736F6C6343 STOP ADDMOD BYTE STOP CALLER "
				},
				"gasEstimates": {
					"creation": {
						"codeDepositCost": "256000",
						"executionCost": "292",
						"totalCost": "256292"
					},
					"external": {
						"evenArray(uint256)": "infinite",
						"getArrays()": "infinite",
						"oddArray(uint256)": "infinite",
						"pushArrayFilter(uint256)": "infinite"
					}
				},
				"methodIdentifiers": {
					"evenArray(uint256)": "cd94b371",
					"getArrays()": "fd966c5b",
					"oddArray(uint256)": "ebe8e710",
					"pushArrayFilter(uint256)": "6c0aba66"
				}
			},
			"storageLayout": {
				"storage": [
					{
						"astId": 199,
						"contract": "solidity100/soliditiy10_250109.sol:Q26",
						"label": "oddArray",
						"offset": 0,
						"slot": "0",
						"type": "t_array(t_uint256)dyn_storage"
					},
					{
						"astId": 202,
						"contract": "solidity100/soliditiy10_250109.sol:Q26",
						"label": "evenArray",
						"offset": 0,
						"slot": "1",
						"type": "t_array(t_uint256)dyn_storage"
					}
				],
				"types": {
					"t_array(t_uint256)dyn_storage": {
						"base": "t_uint256",
						"encoding": "dynamic_array",
						"label": "uint256[]",
						"numberOfBytes": "32"
					},
					"t_uint256": {
						"encoding": "inplace",
						"label": "uint256",
						"numberOfBytes": "32"
					}
				}
			},
			"userdoc": {
				"kind": "user",
				"methods": {},
				"version": 1
			}
		}
	}
}