{
	"solidity100/6.solidity100_250117.sol": {
		"Q53": {
			"abi": [
				{
					"inputs": [
						{
							"internalType": "enum Q53.Bank",
							"name": "bank",
							"type": "uint8"
						}
					],
					"name": "deposit",
					"outputs": [],
					"stateMutability": "payable",
					"type": "function"
				},
				{
					"inputs": [
						{
							"internalType": "enum Q53.Bank",
							"name": "bank",
							"type": "uint8"
						}
					],
					"name": "getBalance",
					"outputs": [
						{
							"internalType": "uint256",
							"name": "",
							"type": "uint256"
						}
					],
					"stateMutability": "view",
					"type": "function"
				},
				{
					"inputs": [
						{
							"internalType": "enum Q53.Bank",
							"name": "bank",
							"type": "uint8"
						},
						{
							"internalType": "uint256",
							"name": "amount",
							"type": "uint256"
						}
					],
					"name": "withdraw",
					"outputs": [],
					"stateMutability": "nonpayable",
					"type": "function"
				}
			],
			"devdoc": {
				"kind": "dev",
				"methods": {},
				"version": 1
			},
			"evm": {
				"assembly": "    /* \"solidity100/6.solidity100_250117.sol\":1374:2364  contract Q53 {... */\n  mstore(0x40, 0x80)\n  callvalue\n  dup1\n  iszero\n  tag_1\n  jumpi\n  0x00\n  dup1\n  revert\ntag_1:\n  pop\n  dataSize(sub_0)\n  dup1\n  dataOffset(sub_0)\n  0x00\n  codecopy\n  0x00\n  return\nstop\n\nsub_0: assembly {\n        /* \"solidity100/6.solidity100_250117.sol\":1374:2364  contract Q53 {... */\n      mstore(0x40, 0x80)\n      jumpi(tag_1, lt(calldatasize, 0x04))\n      shr(0xe0, calldataload(0x00))\n      dup1\n      0x3f489914\n      eq\n      tag_2\n      jumpi\n      dup1\n      0xe3a12480\n      eq\n      tag_3\n      jumpi\n      dup1\n      0xebe41b73\n      eq\n      tag_4\n      jumpi\n    tag_1:\n      0x00\n      dup1\n      revert\n        /* \"solidity100/6.solidity100_250117.sol\":1969:2241  function withdraw(Bank bank, uint256 amount) public {... */\n    tag_2:\n      callvalue\n      dup1\n      iszero\n      tag_5\n      jumpi\n      0x00\n      dup1\n      revert\n    tag_5:\n      pop\n      tag_6\n      0x04\n      dup1\n      calldatasize\n      sub\n      dup2\n      add\n      swap1\n      tag_7\n      swap2\n      swap1\n      tag_8\n      jump\t// in\n    tag_7:\n      tag_9\n      jump\t// in\n    tag_6:\n      stop\n        /* \"solidity100/6.solidity100_250117.sol\":2247:2362  function getBalance(Bank bank) public view returns (uint256) {... */\n    tag_3:\n      callvalue\n      dup1\n      iszero\n      tag_10\n      jumpi\n      0x00\n      dup1\n      revert\n    tag_10:\n      pop\n      tag_11\n      0x04\n      dup1\n      calldatasize\n      sub\n      dup2\n      add\n      swap1\n      tag_12\n      swap2\n      swap1\n      tag_13\n      jump\t// in\n    tag_12:\n      tag_14\n      jump\t// in\n    tag_11:\n      mload(0x40)\n      tag_15\n      swap2\n      swap1\n      tag_16\n      jump\t// in\n    tag_15:\n      mload(0x40)\n      dup1\n      swap2\n      sub\n      swap1\n      return\n        /* \"solidity100/6.solidity100_250117.sol\":1784:1963  function deposit(Bank bank) public payable {... */\n    tag_4:\n      tag_17\n      0x04\n      dup1\n      calldatasize\n      sub\n      dup2\n      add\n      swap1\n      tag_18\n      swap2\n      swap1\n      tag_13\n      jump\t// in\n    tag_18:\n      tag_19\n      jump\t// in\n    tag_17:\n      stop\n        /* \"solidity100/6.solidity100_250117.sol\":1969:2241  function withdraw(Bank bank, uint256 amount) public {... */\n    tag_9:\n        /* \"solidity100/6.solidity100_250117.sol\":2086:2092  amount */\n      dup1\n        /* \"solidity100/6.solidity100_250117.sol\":2052:2064  bankBalances */\n      0x00\n        /* \"solidity100/6.solidity100_250117.sol\":2052:2070  bankBalances[bank] */\n      dup1\n        /* \"solidity100/6.solidity100_250117.sol\":2065:2069  bank */\n      dup5\n        /* \"solidity100/6.solidity100_250117.sol\":2052:2070  bankBalances[bank] */\n      0x04\n      dup2\n      gt\n      iszero\n      tag_21\n      jumpi\n      tag_22\n      tag_23\n      jump\t// in\n    tag_22:\n    tag_21:\n      0x04\n      dup2\n      gt\n      iszero\n      tag_24\n      jumpi\n      tag_25\n      tag_23\n      jump\t// in\n    tag_25:\n    tag_24:\n      dup2\n      mstore\n      0x20\n      add\n      swap1\n      dup2\n      mstore\n      0x20\n      add\n      0x00\n      keccak256\n        /* \"solidity100/6.solidity100_250117.sol\":2052:2082  bankBalances[bank][msg.sender] */\n      0x00\n        /* \"solidity100/6.solidity100_250117.sol\":2071:2081  msg.sender */\n      caller\n        /* \"solidity100/6.solidity100_250117.sol\":2052:2082  bankBalances[bank][msg.sender] */\n      0xffffffffffffffffffffffffffffffffffffffff\n      and\n      0xffffffffffffffffffffffffffffffffffffffff\n      and\n      dup2\n      mstore\n      0x20\n      add\n      swap1\n      dup2\n      mstore\n      0x20\n      add\n      0x00\n      keccak256\n      sload\n        /* \"solidity100/6.solidity100_250117.sol\":2052:2092  bankBalances[bank][msg.sender] >= amount */\n      lt\n      iszero\n        /* \"solidity100/6.solidity100_250117.sol\":2031:2138  require(... */\n      tag_26\n      jumpi\n      mload(0x40)\n      0x08c379a000000000000000000000000000000000000000000000000000000000\n      dup2\n      mstore\n      0x04\n      add\n      tag_27\n      swap1\n      tag_28\n      jump\t// in\n    tag_27:\n      mload(0x40)\n      dup1\n      swap2\n      sub\n      swap1\n      revert\n    tag_26:\n        /* \"solidity100/6.solidity100_250117.sol\":2182:2188  amount */\n      dup1\n        /* \"solidity100/6.solidity100_250117.sol\":2148:2160  bankBalances */\n      0x00\n        /* \"solidity100/6.solidity100_250117.sol\":2148:2166  bankBalances[bank] */\n      dup1\n        /* \"solidity100/6.solidity100_250117.sol\":2161:2165  bank */\n      dup5\n        /* \"solidity100/6.solidity100_250117.sol\":2148:2166  bankBalances[bank] */\n      0x04\n      dup2\n      gt\n      iszero\n      tag_29\n      jumpi\n      tag_30\n      tag_23\n      jump\t// in\n    tag_30:\n    tag_29:\n      0x04\n      dup2\n      gt\n      iszero\n      tag_31\n      jumpi\n      tag_32\n      tag_23\n      jump\t// in\n    tag_32:\n    tag_31:\n      dup2\n      mstore\n      0x20\n      add\n      swap1\n      dup2\n      mstore\n      0x20\n      add\n      0x00\n      keccak256\n        /* \"solidity100/6.solidity100_250117.sol\":2148:2178  bankBalances[bank][msg.sender] */\n      0x00\n        /* \"solidity100/6.solidity100_250117.sol\":2167:2177  msg.sender */\n      caller\n        /* \"solidity100/6.solidity100_250117.sol\":2148:2178  bankBalances[bank][msg.sender] */\n      0xffffffffffffffffffffffffffffffffffffffff\n      and\n      0xffffffffffffffffffffffffffffffffffffffff\n      and\n      dup2\n      mstore\n      0x20\n      add\n      swap1\n      dup2\n      mstore\n      0x20\n      add\n      0x00\n      keccak256\n      0x00\n        /* \"solidity100/6.solidity100_250117.sol\":2148:2188  bankBalances[bank][msg.sender] -= amount */\n      dup3\n      dup3\n      sload\n      tag_33\n      swap2\n      swap1\n      tag_34\n      jump\t// in\n    tag_33:\n      swap3\n      pop\n      pop\n      dup2\n      swap1\n      sstore\n      pop\n        /* \"solidity100/6.solidity100_250117.sol\":2206:2216  msg.sender */\n      caller\n        /* \"solidity100/6.solidity100_250117.sol\":2198:2226  payable(msg.sender).transfer */\n      0xffffffffffffffffffffffffffffffffffffffff\n      and\n        /* \"solidity100/6.solidity100_250117.sol\":2198:2234  payable(msg.sender).transfer(amount) */\n      0x08fc\n        /* \"solidity100/6.solidity100_250117.sol\":2227:2233  amount */\n      dup3\n        /* \"solidity100/6.solidity100_250117.sol\":2198:2234  payable(msg.sender).transfer(amount) */\n      swap1\n      dup2\n      iszero\n      mul\n      swap1\n      mload(0x40)\n      0x00\n      mload(0x40)\n      dup1\n      dup4\n      sub\n      dup2\n      dup6\n      dup9\n      dup9\n      call\n      swap4\n      pop\n      pop\n      pop\n      pop\n      iszero\n      dup1\n      iszero\n      tag_36\n      jumpi\n      returndatasize\n      0x00\n      dup1\n      returndatacopy\n      revert(0x00, returndatasize)\n    tag_36:\n      pop\n        /* \"solidity100/6.solidity100_250117.sol\":1969:2241  function withdraw(Bank bank, uint256 amount) public {... */\n      pop\n      pop\n      jump\t// out\n        /* \"solidity100/6.solidity100_250117.sol\":2247:2362  function getBalance(Bank bank) public view returns (uint256) {... */\n    tag_14:\n        /* \"solidity100/6.solidity100_250117.sol\":2299:2306  uint256 */\n      0x00\n        /* \"solidity100/6.solidity100_250117.sol\":2325:2337  bankBalances */\n      dup1\n        /* \"solidity100/6.solidity100_250117.sol\":2325:2343  bankBalances[bank] */\n      0x00\n        /* \"solidity100/6.solidity100_250117.sol\":2338:2342  bank */\n      dup4\n        /* \"solidity100/6.solidity100_250117.sol\":2325:2343  bankBalances[bank] */\n      0x04\n      dup2\n      gt\n      iszero\n      tag_38\n      jumpi\n      tag_39\n      tag_23\n      jump\t// in\n    tag_39:\n    tag_38:\n      0x04\n      dup2\n      gt\n      iszero\n      tag_40\n      jumpi\n      tag_41\n      tag_23\n      jump\t// in\n    tag_41:\n    tag_40:\n      dup2\n      mstore\n      0x20\n      add\n      swap1\n      dup2\n      mstore\n      0x20\n      add\n      0x00\n      keccak256\n        /* \"solidity100/6.solidity100_250117.sol\":2325:2355  bankBalances[bank][msg.sender] */\n      0x00\n        /* \"solidity100/6.solidity100_250117.sol\":2344:2354  msg.sender */\n      caller\n        /* \"solidity100/6.solidity100_250117.sol\":2325:2355  bankBalances[bank][msg.sender] */\n      0xffffffffffffffffffffffffffffffffffffffff\n      and\n      0xffffffffffffffffffffffffffffffffffffffff\n      and\n      dup2\n      mstore\n      0x20\n      add\n      swap1\n      dup2\n      mstore\n      0x20\n      add\n      0x00\n      keccak256\n      sload\n        /* \"solidity100/6.solidity100_250117.sol\":2318:2355  return bankBalances[bank][msg.sender] */\n      swap1\n      pop\n        /* \"solidity100/6.solidity100_250117.sol\":2247:2362  function getBalance(Bank bank) public view returns (uint256) {... */\n      swap2\n      swap1\n      pop\n      jump\t// out\n        /* \"solidity100/6.solidity100_250117.sol\":1784:1963  function deposit(Bank bank) public payable {... */\n    tag_19:\n        /* \"solidity100/6.solidity100_250117.sol\":1857:1858  0 */\n      0x00\n        /* \"solidity100/6.solidity100_250117.sol\":1845:1854  msg.value */\n      callvalue\n        /* \"solidity100/6.solidity100_250117.sol\":1845:1858  msg.value > 0 */\n      gt\n        /* \"solidity100/6.solidity100_250117.sol\":1837:1903  require(msg.value > 0, \"Deposit amount must be greater than zero\") */\n      tag_43\n      jumpi\n      mload(0x40)\n      0x08c379a000000000000000000000000000000000000000000000000000000000\n      dup2\n      mstore\n      0x04\n      add\n      tag_44\n      swap1\n      tag_45\n      jump\t// in\n    tag_44:\n      mload(0x40)\n      dup1\n      swap2\n      sub\n      swap1\n      revert\n    tag_43:\n        /* \"solidity100/6.solidity100_250117.sol\":1947:1956  msg.value */\n      callvalue\n        /* \"solidity100/6.solidity100_250117.sol\":1913:1925  bankBalances */\n      0x00\n        /* \"solidity100/6.solidity100_250117.sol\":1913:1931  bankBalances[bank] */\n      dup1\n        /* \"solidity100/6.solidity100_250117.sol\":1926:1930  bank */\n      dup4\n        /* \"solidity100/6.solidity100_250117.sol\":1913:1931  bankBalances[bank] */\n      0x04\n      dup2\n      gt\n      iszero\n      tag_46\n      jumpi\n      tag_47\n      tag_23\n      jump\t// in\n    tag_47:\n    tag_46:\n      0x04\n      dup2\n      gt\n      iszero\n      tag_48\n      jumpi\n      tag_49\n      tag_23\n      jump\t// in\n    tag_49:\n    tag_48:\n      dup2\n      mstore\n      0x20\n      add\n      swap1\n      dup2\n      mstore\n      0x20\n      add\n      0x00\n      keccak256\n        /* \"solidity100/6.solidity100_250117.sol\":1913:1943  bankBalances[bank][msg.sender] */\n      0x00\n        /* \"solidity100/6.solidity100_250117.sol\":1932:1942  msg.sender */\n      caller\n        /* \"solidity100/6.solidity100_250117.sol\":1913:1943  bankBalances[bank][msg.sender] */\n      0xffffffffffffffffffffffffffffffffffffffff\n      and\n      0xffffffffffffffffffffffffffffffffffffffff\n      and\n      dup2\n      mstore\n      0x20\n      add\n      swap1\n      dup2\n      mstore\n      0x20\n      add\n      0x00\n      keccak256\n      0x00\n        /* \"solidity100/6.solidity100_250117.sol\":1913:1956  bankBalances[bank][msg.sender] += msg.value */\n      dup3\n      dup3\n      sload\n      tag_50\n      swap2\n      swap1\n      tag_51\n      jump\t// in\n    tag_50:\n      swap3\n      pop\n      pop\n      dup2\n      swap1\n      sstore\n      pop\n        /* \"solidity100/6.solidity100_250117.sol\":1784:1963  function deposit(Bank bank) public payable {... */\n      pop\n      jump\t// out\n        /* \"#utility.yul\":88:205   */\n    tag_53:\n        /* \"#utility.yul\":197:198   */\n      0x00\n        /* \"#utility.yul\":194:195   */\n      dup1\n        /* \"#utility.yul\":187:199   */\n      revert\n        /* \"#utility.yul\":334:441   */\n    tag_55:\n        /* \"#utility.yul\":415:416   */\n      0x05\n        /* \"#utility.yul\":408:413   */\n      dup2\n        /* \"#utility.yul\":405:417   */\n      lt\n        /* \"#utility.yul\":395:435   */\n      tag_72\n      jumpi\n        /* \"#utility.yul\":431:432   */\n      0x00\n        /* \"#utility.yul\":428:429   */\n      dup1\n        /* \"#utility.yul\":421:433   */\n      revert\n        /* \"#utility.yul\":395:435   */\n    tag_72:\n        /* \"#utility.yul\":334:441   */\n      pop\n      jump\t// out\n        /* \"#utility.yul\":447:602   */\n    tag_56:\n        /* \"#utility.yul\":501:506   */\n      0x00\n        /* \"#utility.yul\":539:545   */\n      dup2\n        /* \"#utility.yul\":526:546   */\n      calldataload\n        /* \"#utility.yul\":517:546   */\n      swap1\n      pop\n        /* \"#utility.yul\":555:596   */\n      tag_74\n        /* \"#utility.yul\":590:595   */\n      dup2\n        /* \"#utility.yul\":555:596   */\n      tag_55\n      jump\t// in\n    tag_74:\n        /* \"#utility.yul\":447:602   */\n      swap3\n      swap2\n      pop\n      pop\n      jump\t// out\n        /* \"#utility.yul\":608:685   */\n    tag_57:\n        /* \"#utility.yul\":645:652   */\n      0x00\n        /* \"#utility.yul\":674:679   */\n      dup2\n        /* \"#utility.yul\":663:679   */\n      swap1\n      pop\n        /* \"#utility.yul\":608:685   */\n      swap2\n      swap1\n      pop\n      jump\t// out\n        /* \"#utility.yul\":691:813   */\n    tag_58:\n        /* \"#utility.yul\":764:788   */\n      tag_77\n        /* \"#utility.yul\":782:787   */\n      dup2\n        /* \"#utility.yul\":764:788   */\n      tag_57\n      jump\t// in\n    tag_77:\n        /* \"#utility.yul\":757:762   */\n      dup2\n        /* \"#utility.yul\":754:789   */\n      eq\n        /* \"#utility.yul\":744:807   */\n      tag_78\n      jumpi\n        /* \"#utility.yul\":803:804   */\n      0x00\n        /* \"#utility.yul\":800:801   */\n      dup1\n        /* \"#utility.yul\":793:805   */\n      revert\n        /* \"#utility.yul\":744:807   */\n    tag_78:\n        /* \"#utility.yul\":691:813   */\n      pop\n      jump\t// out\n        /* \"#utility.yul\":819:958   */\n    tag_59:\n        /* \"#utility.yul\":865:870   */\n      0x00\n        /* \"#utility.yul\":903:909   */\n      dup2\n        /* \"#utility.yul\":890:910   */\n      calldataload\n        /* \"#utility.yul\":881:910   */\n      swap1\n      pop\n        /* \"#utility.yul\":919:952   */\n      tag_80\n        /* \"#utility.yul\":946:951   */\n      dup2\n        /* \"#utility.yul\":919:952   */\n      tag_58\n      jump\t// in\n    tag_80:\n        /* \"#utility.yul\":819:958   */\n      swap3\n      swap2\n      pop\n      pop\n      jump\t// out\n        /* \"#utility.yul\":964:1454   */\n    tag_8:\n        /* \"#utility.yul\":1040:1046   */\n      0x00\n        /* \"#utility.yul\":1048:1054   */\n      dup1\n        /* \"#utility.yul\":1097:1099   */\n      0x40\n        /* \"#utility.yul\":1085:1094   */\n      dup4\n        /* \"#utility.yul\":1076:1083   */\n      dup6\n        /* \"#utility.yul\":1072:1095   */\n      sub\n        /* \"#utility.yul\":1068:1100   */\n      slt\n        /* \"#utility.yul\":1065:1184   */\n      iszero\n      tag_82\n      jumpi\n        /* \"#utility.yul\":1103:1182   */\n      tag_83\n      tag_53\n      jump\t// in\n    tag_83:\n        /* \"#utility.yul\":1065:1184   */\n    tag_82:\n        /* \"#utility.yul\":1223:1224   */\n      0x00\n        /* \"#utility.yul\":1248:1309   */\n      tag_84\n        /* \"#utility.yul\":1301:1308   */\n      dup6\n        /* \"#utility.yul\":1292:1298   */\n      dup3\n        /* \"#utility.yul\":1281:1290   */\n      dup7\n        /* \"#utility.yul\":1277:1299   */\n      add\n        /* \"#utility.yul\":1248:1309   */\n      tag_56\n      jump\t// in\n    tag_84:\n        /* \"#utility.yul\":1238:1309   */\n      swap3\n      pop\n        /* \"#utility.yul\":1194:1319   */\n      pop\n        /* \"#utility.yul\":1358:1360   */\n      0x20\n        /* \"#utility.yul\":1384:1437   */\n      tag_85\n        /* \"#utility.yul\":1429:1436   */\n      dup6\n        /* \"#utility.yul\":1420:1426   */\n      dup3\n        /* \"#utility.yul\":1409:1418   */\n      dup7\n        /* \"#utility.yul\":1405:1427   */\n      add\n        /* \"#utility.yul\":1384:1437   */\n      tag_59\n      jump\t// in\n    tag_85:\n        /* \"#utility.yul\":1374:1437   */\n      swap2\n      pop\n        /* \"#utility.yul\":1329:1447   */\n      pop\n        /* \"#utility.yul\":964:1454   */\n      swap3\n      pop\n      swap3\n      swap1\n      pop\n      jump\t// out\n        /* \"#utility.yul\":1460:1805   */\n    tag_13:\n        /* \"#utility.yul\":1527:1533   */\n      0x00\n        /* \"#utility.yul\":1576:1578   */\n      0x20\n        /* \"#utility.yul\":1564:1573   */\n      dup3\n        /* \"#utility.yul\":1555:1562   */\n      dup5\n        /* \"#utility.yul\":1551:1574   */\n      sub\n        /* \"#utility.yul\":1547:1579   */\n      slt\n        /* \"#utility.yul\":1544:1663   */\n      iszero\n      tag_87\n      jumpi\n        /* \"#utility.yul\":1582:1661   */\n      tag_88\n      tag_53\n      jump\t// in\n    tag_88:\n        /* \"#utility.yul\":1544:1663   */\n    tag_87:\n        /* \"#utility.yul\":1702:1703   */\n      0x00\n        /* \"#utility.yul\":1727:1788   */\n      tag_89\n        /* \"#utility.yul\":1780:1787   */\n      dup5\n        /* \"#utility.yul\":1771:1777   */\n      dup3\n        /* \"#utility.yul\":1760:1769   */\n      dup6\n        /* \"#utility.yul\":1756:1778   */\n      add\n        /* \"#utility.yul\":1727:1788   */\n      tag_56\n      jump\t// in\n    tag_89:\n        /* \"#utility.yul\":1717:1788   */\n      swap2\n      pop\n        /* \"#utility.yul\":1673:1798   */\n      pop\n        /* \"#utility.yul\":1460:1805   */\n      swap3\n      swap2\n      pop\n      pop\n      jump\t// out\n        /* \"#utility.yul\":1811:1929   */\n    tag_60:\n        /* \"#utility.yul\":1898:1922   */\n      tag_91\n        /* \"#utility.yul\":1916:1921   */\n      dup2\n        /* \"#utility.yul\":1898:1922   */\n      tag_57\n      jump\t// in\n    tag_91:\n        /* \"#utility.yul\":1893:1896   */\n      dup3\n        /* \"#utility.yul\":1886:1923   */\n      mstore\n        /* \"#utility.yul\":1811:1929   */\n      pop\n      pop\n      jump\t// out\n        /* \"#utility.yul\":1935:2157   */\n    tag_16:\n        /* \"#utility.yul\":2028:2032   */\n      0x00\n        /* \"#utility.yul\":2066:2068   */\n      0x20\n        /* \"#utility.yul\":2055:2064   */\n      dup3\n        /* \"#utility.yul\":2051:2069   */\n      add\n        /* \"#utility.yul\":2043:2069   */\n      swap1\n      pop\n        /* \"#utility.yul\":2079:2150   */\n      tag_93\n        /* \"#utility.yul\":2147:2148   */\n      0x00\n        /* \"#utility.yul\":2136:2145   */\n      dup4\n        /* \"#utility.yul\":2132:2149   */\n      add\n        /* \"#utility.yul\":2123:2129   */\n      dup5\n        /* \"#utility.yul\":2079:2150   */\n      tag_60\n      jump\t// in\n    tag_93:\n        /* \"#utility.yul\":1935:2157   */\n      swap3\n      swap2\n      pop\n      pop\n      jump\t// out\n        /* \"#utility.yul\":2163:2343   */\n    tag_23:\n        /* \"#utility.yul\":2211:2288   */\n      0x4e487b7100000000000000000000000000000000000000000000000000000000\n        /* \"#utility.yul\":2208:2209   */\n      0x00\n        /* \"#utility.yul\":2201:2289   */\n      mstore\n        /* \"#utility.yul\":2308:2312   */\n      0x21\n        /* \"#utility.yul\":2305:2306   */\n      0x04\n        /* \"#utility.yul\":2298:2313   */\n      mstore\n        /* \"#utility.yul\":2332:2336   */\n      0x24\n        /* \"#utility.yul\":2329:2330   */\n      0x00\n        /* \"#utility.yul\":2322:2337   */\n      revert\n        /* \"#utility.yul\":2349:2518   */\n    tag_61:\n        /* \"#utility.yul\":2433:2444   */\n      0x00\n        /* \"#utility.yul\":2467:2473   */\n      dup3\n        /* \"#utility.yul\":2462:2465   */\n      dup3\n        /* \"#utility.yul\":2455:2474   */\n      mstore\n        /* \"#utility.yul\":2507:2511   */\n      0x20\n        /* \"#utility.yul\":2502:2505   */\n      dup3\n        /* \"#utility.yul\":2498:2512   */\n      add\n        /* \"#utility.yul\":2483:2512   */\n      swap1\n      pop\n        /* \"#utility.yul\":2349:2518   */\n      swap3\n      swap2\n      pop\n      pop\n      jump\t// out\n        /* \"#utility.yul\":2524:2694   */\n    tag_62:\n        /* \"#utility.yul\":2664:2686   */\n      0x496e73756666696369656e742062616c616e6365000000000000000000000000\n        /* \"#utility.yul\":2660:2661   */\n      0x00\n        /* \"#utility.yul\":2652:2658   */\n      dup3\n        /* \"#utility.yul\":2648:2662   */\n      add\n        /* \"#utility.yul\":2641:2687   */\n      mstore\n        /* \"#utility.yul\":2524:2694   */\n      pop\n      jump\t// out\n        /* \"#utility.yul\":2700:3066   */\n    tag_63:\n        /* \"#utility.yul\":2842:2845   */\n      0x00\n        /* \"#utility.yul\":2863:2930   */\n      tag_98\n        /* \"#utility.yul\":2927:2929   */\n      0x14\n        /* \"#utility.yul\":2922:2925   */\n      dup4\n        /* \"#utility.yul\":2863:2930   */\n      tag_61\n      jump\t// in\n    tag_98:\n        /* \"#utility.yul\":2856:2930   */\n      swap2\n      pop\n        /* \"#utility.yul\":2939:3032   */\n      tag_99\n        /* \"#utility.yul\":3028:3031   */\n      dup3\n        /* \"#utility.yul\":2939:3032   */\n      tag_62\n      jump\t// in\n    tag_99:\n        /* \"#utility.yul\":3057:3059   */\n      0x20\n        /* \"#utility.yul\":3052:3055   */\n      dup3\n        /* \"#utility.yul\":3048:3060   */\n      add\n        /* \"#utility.yul\":3041:3060   */\n      swap1\n      pop\n        /* \"#utility.yul\":2700:3066   */\n      swap2\n      swap1\n      pop\n      jump\t// out\n        /* \"#utility.yul\":3072:3491   */\n    tag_28:\n        /* \"#utility.yul\":3238:3242   */\n      0x00\n        /* \"#utility.yul\":3276:3278   */\n      0x20\n        /* \"#utility.yul\":3265:3274   */\n      dup3\n        /* \"#utility.yul\":3261:3279   */\n      add\n        /* \"#utility.yul\":3253:3279   */\n      swap1\n      pop\n        /* \"#utility.yul\":3325:3334   */\n      dup2\n        /* \"#utility.yul\":3319:3323   */\n      dup2\n        /* \"#utility.yul\":3315:3335   */\n      sub\n        /* \"#utility.yul\":3311:3312   */\n      0x00\n        /* \"#utility.yul\":3300:3309   */\n      dup4\n        /* \"#utility.yul\":3296:3313   */\n      add\n        /* \"#utility.yul\":3289:3336   */\n      mstore\n        /* \"#utility.yul\":3353:3484   */\n      tag_101\n        /* \"#utility.yul\":3479:3483   */\n      dup2\n        /* \"#utility.yul\":3353:3484   */\n      tag_63\n      jump\t// in\n    tag_101:\n        /* \"#utility.yul\":3345:3484   */\n      swap1\n      pop\n        /* \"#utility.yul\":3072:3491   */\n      swap2\n      swap1\n      pop\n      jump\t// out\n        /* \"#utility.yul\":3497:3677   */\n    tag_64:\n        /* \"#utility.yul\":3545:3622   */\n      0x4e487b7100000000000000000000000000000000000000000000000000000000\n        /* \"#utility.yul\":3542:3543   */\n      0x00\n        /* \"#utility.yul\":3535:3623   */\n      mstore\n        /* \"#utility.yul\":3642:3646   */\n      0x11\n        /* \"#utility.yul\":3639:3640   */\n      0x04\n        /* \"#utility.yul\":3632:3647   */\n      mstore\n        /* \"#utility.yul\":3666:3670   */\n      0x24\n        /* \"#utility.yul\":3663:3664   */\n      0x00\n        /* \"#utility.yul\":3656:3671   */\n      revert\n        /* \"#utility.yul\":3683:3877   */\n    tag_34:\n        /* \"#utility.yul\":3723:3727   */\n      0x00\n        /* \"#utility.yul\":3743:3763   */\n      tag_104\n        /* \"#utility.yul\":3761:3762   */\n      dup3\n        /* \"#utility.yul\":3743:3763   */\n      tag_57\n      jump\t// in\n    tag_104:\n        /* \"#utility.yul\":3738:3763   */\n      swap2\n      pop\n        /* \"#utility.yul\":3777:3797   */\n      tag_105\n        /* \"#utility.yul\":3795:3796   */\n      dup4\n        /* \"#utility.yul\":3777:3797   */\n      tag_57\n      jump\t// in\n    tag_105:\n        /* \"#utility.yul\":3772:3797   */\n      swap3\n      pop\n        /* \"#utility.yul\":3821:3822   */\n      dup3\n        /* \"#utility.yul\":3818:3819   */\n      dup3\n        /* \"#utility.yul\":3814:3823   */\n      sub\n        /* \"#utility.yul\":3806:3823   */\n      swap1\n      pop\n        /* \"#utility.yul\":3845:3846   */\n      dup2\n        /* \"#utility.yul\":3839:3843   */\n      dup2\n        /* \"#utility.yul\":3836:3847   */\n      gt\n        /* \"#utility.yul\":3833:3870   */\n      iszero\n      tag_106\n      jumpi\n        /* \"#utility.yul\":3850:3868   */\n      tag_107\n      tag_64\n      jump\t// in\n    tag_107:\n        /* \"#utility.yul\":3833:3870   */\n    tag_106:\n        /* \"#utility.yul\":3683:3877   */\n      swap3\n      swap2\n      pop\n      pop\n      jump\t// out\n        /* \"#utility.yul\":3883:4110   */\n    tag_65:\n        /* \"#utility.yul\":4023:4057   */\n      0x4465706f73697420616d6f756e74206d75737420626520677265617465722074\n        /* \"#utility.yul\":4019:4020   */\n      0x00\n        /* \"#utility.yul\":4011:4017   */\n      dup3\n        /* \"#utility.yul\":4007:4021   */\n      add\n        /* \"#utility.yul\":4000:4058   */\n      mstore\n        /* \"#utility.yul\":4092:4102   */\n      0x68616e207a65726f000000000000000000000000000000000000000000000000\n        /* \"#utility.yul\":4087:4089   */\n      0x20\n        /* \"#utility.yul\":4079:4085   */\n      dup3\n        /* \"#utility.yul\":4075:4090   */\n      add\n        /* \"#utility.yul\":4068:4103   */\n      mstore\n        /* \"#utility.yul\":3883:4110   */\n      pop\n      jump\t// out\n        /* \"#utility.yul\":4116:4482   */\n    tag_66:\n        /* \"#utility.yul\":4258:4261   */\n      0x00\n        /* \"#utility.yul\":4279:4346   */\n      tag_110\n        /* \"#utility.yul\":4343:4345   */\n      0x28\n        /* \"#utility.yul\":4338:4341   */\n      dup4\n        /* \"#utility.yul\":4279:4346   */\n      tag_61\n      jump\t// in\n    tag_110:\n        /* \"#utility.yul\":4272:4346   */\n      swap2\n      pop\n        /* \"#utility.yul\":4355:4448   */\n      tag_111\n        /* \"#utility.yul\":4444:4447   */\n      dup3\n        /* \"#utility.yul\":4355:4448   */\n      tag_65\n      jump\t// in\n    tag_111:\n        /* \"#utility.yul\":4473:4475   */\n      0x40\n        /* \"#utility.yul\":4468:4471   */\n      dup3\n        /* \"#utility.yul\":4464:4476   */\n      add\n        /* \"#utility.yul\":4457:4476   */\n      swap1\n      pop\n        /* \"#utility.yul\":4116:4482   */\n      swap2\n      swap1\n      pop\n      jump\t// out\n        /* \"#utility.yul\":4488:4907   */\n    tag_45:\n        /* \"#utility.yul\":4654:4658   */\n      0x00\n        /* \"#utility.yul\":4692:4694   */\n      0x20\n        /* \"#utility.yul\":4681:4690   */\n      dup3\n        /* \"#utility.yul\":4677:4695   */\n      add\n        /* \"#utility.yul\":4669:4695   */\n      swap1\n      pop\n        /* \"#utility.yul\":4741:4750   */\n      dup2\n        /* \"#utility.yul\":4735:4739   */\n      dup2\n        /* \"#utility.yul\":4731:4751   */\n      sub\n        /* \"#utility.yul\":4727:4728   */\n      0x00\n        /* \"#utility.yul\":4716:4725   */\n      dup4\n        /* \"#utility.yul\":4712:4729   */\n      add\n        /* \"#utility.yul\":4705:4752   */\n      mstore\n        /* \"#utility.yul\":4769:4900   */\n      tag_113\n        /* \"#utility.yul\":4895:4899   */\n      dup2\n        /* \"#utility.yul\":4769:4900   */\n      tag_66\n      jump\t// in\n    tag_113:\n        /* \"#utility.yul\":4761:4900   */\n      swap1\n      pop\n        /* \"#utility.yul\":4488:4907   */\n      swap2\n      swap1\n      pop\n      jump\t// out\n        /* \"#utility.yul\":4913:5104   */\n    tag_51:\n        /* \"#utility.yul\":4953:4956   */\n      0x00\n        /* \"#utility.yul\":4972:4992   */\n      tag_115\n        /* \"#utility.yul\":4990:4991   */\n      dup3\n        /* \"#utility.yul\":4972:4992   */\n      tag_57\n      jump\t// in\n    tag_115:\n        /* \"#utility.yul\":4967:4992   */\n      swap2\n      pop\n        /* \"#utility.yul\":5006:5026   */\n      tag_116\n        /* \"#utility.yul\":5024:5025   */\n      dup4\n        /* \"#utility.yul\":5006:5026   */\n      tag_57\n      jump\t// in\n    tag_116:\n        /* \"#utility.yul\":5001:5026   */\n      swap3\n      pop\n        /* \"#utility.yul\":5049:5050   */\n      dup3\n        /* \"#utility.yul\":5046:5047   */\n      dup3\n        /* \"#utility.yul\":5042:5051   */\n      add\n        /* \"#utility.yul\":5035:5051   */\n      swap1\n      pop\n        /* \"#utility.yul\":5070:5073   */\n      dup1\n        /* \"#utility.yul\":5067:5068   */\n      dup3\n        /* \"#utility.yul\":5064:5074   */\n      gt\n        /* \"#utility.yul\":5061:5097   */\n      iszero\n      tag_117\n      jumpi\n        /* \"#utility.yul\":5077:5095   */\n      tag_118\n      tag_64\n      jump\t// in\n    tag_118:\n        /* \"#utility.yul\":5061:5097   */\n    tag_117:\n        /* \"#utility.yul\":4913:5104   */\n      swap3\n      swap2\n      pop\n      pop\n      jump\t// out\n\n    auxdata: 0xa26469706673582212206f20aa9e8742f0171ebef099f5c7f655f96836e887e19d0df08c874c1c01355964736f6c634300081a0033\n}\n",
				"bytecode": {
					"linkReferences": {},
					"object": "6080604052348015600e575f80fd5b5061065f8061001c5f395ff3fe608060405260043610610033575f3560e01c80633f48991414610037578063e3a124801461005f578063ebe41b731461009b575b5f80fd5b348015610042575f80fd5b5061005d600480360381019061005891906103d2565b6100b7565b005b34801561006a575f80fd5b5061008560048036038101906100809190610410565b610236565b604051610092919061044a565b60405180910390f35b6100b560048036038101906100b09190610410565b6102ae565b005b805f808460048111156100cd576100cc610463565b5b60048111156100df576100de610463565b5b81526020019081526020015f205f3373ffffffffffffffffffffffffffffffffffffffff1673ffffffffffffffffffffffffffffffffffffffff1681526020019081526020015f20541015610169576040517f08c379a0000000000000000000000000000000000000000000000000000000008152600401610160906104ea565b60405180910390fd5b805f8084600481111561017f5761017e610463565b5b600481111561019157610190610463565b5b81526020019081526020015f205f3373ffffffffffffffffffffffffffffffffffffffff1673ffffffffffffffffffffffffffffffffffffffff1681526020019081526020015f205f8282546101e79190610535565b925050819055503373ffffffffffffffffffffffffffffffffffffffff166108fc8290811502906040515f60405180830381858888f19350505050158015610231573d5f803e3d5ffd5b505050565b5f805f83600481111561024c5761024b610463565b5b600481111561025e5761025d610463565b5b81526020019081526020015f205f3373ffffffffffffffffffffffffffffffffffffffff1673ffffffffffffffffffffffffffffffffffffffff1681526020019081526020015f20549050919050565b5f34116102f0576040517f08c379a00000000000000000000000000000000000000000000000000000000081526004016102e7906105d8565b60405180910390fd5b345f8083600481111561030657610305610463565b5b600481111561031857610317610463565b5b81526020019081526020015f205f3373ffffffffffffffffffffffffffffffffffffffff1673ffffffffffffffffffffffffffffffffffffffff1681526020019081526020015f205f82825461036e91906105f6565b9250508190555050565b5f80fd5b60058110610388575f80fd5b50565b5f813590506103998161037c565b92915050565b5f819050919050565b6103b18161039f565b81146103bb575f80fd5b50565b5f813590506103cc816103a8565b92915050565b5f80604083850312156103e8576103e7610378565b5b5f6103f58582860161038b565b9250506020610406858286016103be565b9150509250929050565b5f6020828403121561042557610424610378565b5b5f6104328482850161038b565b91505092915050565b6104448161039f565b82525050565b5f60208201905061045d5f83018461043b565b92915050565b7f4e487b71000000000000000000000000000000000000000000000000000000005f52602160045260245ffd5b5f82825260208201905092915050565b7f496e73756666696369656e742062616c616e63650000000000000000000000005f82015250565b5f6104d4601483610490565b91506104df826104a0565b602082019050919050565b5f6020820190508181035f830152610501816104c8565b9050919050565b7f4e487b71000000000000000000000000000000000000000000000000000000005f52601160045260245ffd5b5f61053f8261039f565b915061054a8361039f565b925082820390508181111561056257610561610508565b5b92915050565b7f4465706f73697420616d6f756e74206d757374206265206772656174657220745f8201527f68616e207a65726f000000000000000000000000000000000000000000000000602082015250565b5f6105c2602883610490565b91506105cd82610568565b604082019050919050565b5f6020820190508181035f8301526105ef816105b6565b9050919050565b5f6106008261039f565b915061060b8361039f565b925082820190508082111561062357610622610508565b5b9291505056fea26469706673582212206f20aa9e8742f0171ebef099f5c7f655f96836e887e19d0df08c874c1c01355964736f6c634300081a0033",
					"opcodes": "PUSH1 0x80 PUSH1 0x40 MSTORE CALLVALUE DUP1 ISZERO PUSH1 0xE JUMPI PUSH0 DUP1 REVERT JUMPDEST POP PUSH2 0x65F DUP1 PUSH2 0x1C PUSH0 CODECOPY PUSH0 RETURN INVALID PUSH1 0x80 PUSH1 0x40 MSTORE PUSH1 0x4 CALLDATASIZE LT PUSH2 0x33 JUMPI PUSH0 CALLDATALOAD PUSH1 0xE0 SHR DUP1 PUSH4 0x3F489914 EQ PUSH2 0x37 JUMPI DUP1 PUSH4 0xE3A12480 EQ PUSH2 0x5F JUMPI DUP1 PUSH4 0xEBE41B73 EQ PUSH2 0x9B JUMPI JUMPDEST PUSH0 DUP1 REVERT JUMPDEST CALLVALUE DUP1 ISZERO PUSH2 0x42 JUMPI PUSH0 DUP1 REVERT JUMPDEST POP PUSH2 0x5D PUSH1 0x4 DUP1 CALLDATASIZE SUB DUP2 ADD SWAP1 PUSH2 0x58 SWAP2 SWAP1 PUSH2 0x3D2 JUMP JUMPDEST PUSH2 0xB7 JUMP JUMPDEST STOP JUMPDEST CALLVALUE DUP1 ISZERO PUSH2 0x6A JUMPI PUSH0 DUP1 REVERT JUMPDEST POP PUSH2 0x85 PUSH1 0x4 DUP1 CALLDATASIZE SUB DUP2 ADD SWAP1 PUSH2 0x80 SWAP2 SWAP1 PUSH2 0x410 JUMP JUMPDEST PUSH2 0x236 JUMP JUMPDEST PUSH1 0x40 MLOAD PUSH2 0x92 SWAP2 SWAP1 PUSH2 0x44A JUMP JUMPDEST PUSH1 0x40 MLOAD DUP1 SWAP2 SUB SWAP1 RETURN JUMPDEST PUSH2 0xB5 PUSH1 0x4 DUP1 CALLDATASIZE SUB DUP2 ADD SWAP1 PUSH2 0xB0 SWAP2 SWAP1 PUSH2 0x410 JUMP JUMPDEST PUSH2 0x2AE JUMP JUMPDEST STOP JUMPDEST DUP1 PUSH0 DUP1 DUP5 PUSH1 0x4 DUP2 GT ISZERO PUSH2 0xCD JUMPI PUSH2 0xCC PUSH2 0x463 JUMP JUMPDEST JUMPDEST PUSH1 0x4 DUP2 GT ISZERO PUSH2 0xDF JUMPI PUSH2 0xDE PUSH2 0x463 JUMP JUMPDEST JUMPDEST DUP2 MSTORE PUSH1 0x20 ADD SWAP1 DUP2 MSTORE PUSH1 0x20 ADD PUSH0 KECCAK256 PUSH0 CALLER PUSH20 0xFFFFFFFFFFFFFFFFFFFFFFFFFFFFFFFFFFFFFFFF AND PUSH20 0xFFFFFFFFFFFFFFFFFFFFFFFFFFFFFFFFFFFFFFFF AND DUP2 MSTORE PUSH1 0x20 ADD SWAP1 DUP2 MSTORE PUSH1 0x20 ADD PUSH0 KECCAK256 SLOAD LT ISZERO PUSH2 0x169 JUMPI PUSH1 0x40 MLOAD PUSH32 0x8C379A000000000000000000000000000000000000000000000000000000000 DUP2 MSTORE PUSH1 0x4 ADD PUSH2 0x160 SWAP1 PUSH2 0x4EA JUMP JUMPDEST PUSH1 0x40 MLOAD DUP1 SWAP2 SUB SWAP1 REVERT JUMPDEST DUP1 PUSH0 DUP1 DUP5 PUSH1 0x4 DUP2 GT ISZERO PUSH2 0x17F JUMPI PUSH2 0x17E PUSH2 0x463 JUMP JUMPDEST JUMPDEST PUSH1 0x4 DUP2 GT ISZERO PUSH2 0x191 JUMPI PUSH2 0x190 PUSH2 0x463 JUMP JUMPDEST JUMPDEST DUP2 MSTORE PUSH1 0x20 ADD SWAP1 DUP2 MSTORE PUSH1 0x20 ADD PUSH0 KECCAK256 PUSH0 CALLER PUSH20 0xFFFFFFFFFFFFFFFFFFFFFFFFFFFFFFFFFFFFFFFF AND PUSH20 0xFFFFFFFFFFFFFFFFFFFFFFFFFFFFFFFFFFFFFFFF AND DUP2 MSTORE PUSH1 0x20 ADD SWAP1 DUP2 MSTORE PUSH1 0x20 ADD PUSH0 KECCAK256 PUSH0 DUP3 DUP3 SLOAD PUSH2 0x1E7 SWAP2 SWAP1 PUSH2 0x535 JUMP JUMPDEST SWAP3 POP POP DUP2 SWAP1 SSTORE POP CALLER PUSH20 0xFFFFFFFFFFFFFFFFFFFFFFFFFFFFFFFFFFFFFFFF AND PUSH2 0x8FC DUP3 SWAP1 DUP2 ISZERO MUL SWAP1 PUSH1 0x40 MLOAD PUSH0 PUSH1 0x40 MLOAD DUP1 DUP4 SUB DUP2 DUP6 DUP9 DUP9 CALL SWAP4 POP POP POP POP ISZERO DUP1 ISZERO PUSH2 0x231 JUMPI RETURNDATASIZE PUSH0 DUP1 RETURNDATACOPY RETURNDATASIZE PUSH0 REVERT JUMPDEST POP POP POP JUMP JUMPDEST PUSH0 DUP1 PUSH0 DUP4 PUSH1 0x4 DUP2 GT ISZERO PUSH2 0x24C JUMPI PUSH2 0x24B PUSH2 0x463 JUMP JUMPDEST JUMPDEST PUSH1 0x4 DUP2 GT ISZERO PUSH2 0x25E JUMPI PUSH2 0x25D PUSH2 0x463 JUMP JUMPDEST JUMPDEST DUP2 MSTORE PUSH1 0x20 ADD SWAP1 DUP2 MSTORE PUSH1 0x20 ADD PUSH0 KECCAK256 PUSH0 CALLER PUSH20 0xFFFFFFFFFFFFFFFFFFFFFFFFFFFFFFFFFFFFFFFF AND PUSH20 0xFFFFFFFFFFFFFFFFFFFFFFFFFFFFFFFFFFFFFFFF AND DUP2 MSTORE PUSH1 0x20 ADD SWAP1 DUP2 MSTORE PUSH1 0x20 ADD PUSH0 KECCAK256 SLOAD SWAP1 POP SWAP2 SWAP1 POP JUMP JUMPDEST PUSH0 CALLVALUE GT PUSH2 0x2F0 JUMPI PUSH1 0x40 MLOAD PUSH32 0x8C379A000000000000000000000000000000000000000000000000000000000 DUP2 MSTORE PUSH1 0x4 ADD PUSH2 0x2E7 SWAP1 PUSH2 0x5D8 JUMP JUMPDEST PUSH1 0x40 MLOAD DUP1 SWAP2 SUB SWAP1 REVERT JUMPDEST CALLVALUE PUSH0 DUP1 DUP4 PUSH1 0x4 DUP2 GT ISZERO PUSH2 0x306 JUMPI PUSH2 0x305 PUSH2 0x463 JUMP JUMPDEST JUMPDEST PUSH1 0x4 DUP2 GT ISZERO PUSH2 0x318 JUMPI PUSH2 0x317 PUSH2 0x463 JUMP JUMPDEST JUMPDEST DUP2 MSTORE PUSH1 0x20 ADD SWAP1 DUP2 MSTORE PUSH1 0x20 ADD PUSH0 KECCAK256 PUSH0 CALLER PUSH20 0xFFFFFFFFFFFFFFFFFFFFFFFFFFFFFFFFFFFFFFFF AND PUSH20 0xFFFFFFFFFFFFFFFFFFFFFFFFFFFFFFFFFFFFFFFF AND DUP2 MSTORE PUSH1 0x20 ADD SWAP1 DUP2 MSTORE PUSH1 0x20 ADD PUSH0 KECCAK256 PUSH0 DUP3 DUP3 SLOAD PUSH2 0x36E SWAP2 SWAP1 PUSH2 0x5F6 JUMP JUMPDEST SWAP3 POP POP DUP2 SWAP1 SSTORE POP POP JUMP JUMPDEST PUSH0 DUP1 REVERT JUMPDEST PUSH1 0x5 DUP2 LT PUSH2 0x388 JUMPI PUSH0 DUP1 REVERT JUMPDEST POP JUMP JUMPDEST PUSH0 DUP2 CALLDATALOAD SWAP1 POP PUSH2 0x399 DUP2 PUSH2 0x37C JUMP JUMPDEST SWAP3 SWAP2 POP POP JUMP JUMPDEST PUSH0 DUP2 SWAP1 POP SWAP2 SWAP1 POP JUMP JUMPDEST PUSH2 0x3B1 DUP2 PUSH2 0x39F JUMP JUMPDEST DUP2 EQ PUSH2 0x3BB JUMPI PUSH0 DUP1 REVERT JUMPDEST POP JUMP JUMPDEST PUSH0 DUP2 CALLDATALOAD SWAP1 POP PUSH2 0x3CC DUP2 PUSH2 0x3A8 JUMP JUMPDEST SWAP3 SWAP2 POP POP JUMP JUMPDEST PUSH0 DUP1 PUSH1 0x40 DUP4 DUP6 SUB SLT ISZERO PUSH2 0x3E8 JUMPI PUSH2 0x3E7 PUSH2 0x378 JUMP JUMPDEST JUMPDEST PUSH0 PUSH2 0x3F5 DUP6 DUP3 DUP7 ADD PUSH2 0x38B JUMP JUMPDEST SWAP3 POP POP PUSH1 0x20 PUSH2 0x406 DUP6 DUP3 DUP7 ADD PUSH2 0x3BE JUMP JUMPDEST SWAP2 POP POP SWAP3 POP SWAP3 SWAP1 POP JUMP JUMPDEST PUSH0 PUSH1 0x20 DUP3 DUP5 SUB SLT ISZERO PUSH2 0x425 JUMPI PUSH2 0x424 PUSH2 0x378 JUMP JUMPDEST JUMPDEST PUSH0 PUSH2 0x432 DUP5 DUP3 DUP6 ADD PUSH2 0x38B JUMP JUMPDEST SWAP2 POP POP SWAP3 SWAP2 POP POP JUMP JUMPDEST PUSH2 0x444 DUP2 PUSH2 0x39F JUMP JUMPDEST DUP3 MSTORE POP POP JUMP JUMPDEST PUSH0 PUSH1 0x20 DUP3 ADD SWAP1 POP PUSH2 0x45D PUSH0 DUP4 ADD DUP5 PUSH2 0x43B JUMP JUMPDEST SWAP3 SWAP2 POP POP JUMP JUMPDEST PUSH32 0x4E487B7100000000000000000000000000000000000000000000000000000000 PUSH0 MSTORE PUSH1 0x21 PUSH1 0x4 MSTORE PUSH1 0x24 PUSH0 REVERT JUMPDEST PUSH0 DUP3 DUP3 MSTORE PUSH1 0x20 DUP3 ADD SWAP1 POP SWAP3 SWAP2 POP POP JUMP JUMPDEST PUSH32 0x496E73756666696369656E742062616C616E6365000000000000000000000000 PUSH0 DUP3 ADD MSTORE POP JUMP JUMPDEST PUSH0 PUSH2 0x4D4 PUSH1 0x14 DUP4 PUSH2 0x490 JUMP JUMPDEST SWAP2 POP PUSH2 0x4DF DUP3 PUSH2 0x4A0 JUMP JUMPDEST PUSH1 0x20 DUP3 ADD SWAP1 POP SWAP2 SWAP1 POP JUMP JUMPDEST PUSH0 PUSH1 0x20 DUP3 ADD SWAP1 POP DUP2 DUP2 SUB PUSH0 DUP4 ADD MSTORE PUSH2 0x501 DUP2 PUSH2 0x4C8 JUMP JUMPDEST SWAP1 POP SWAP2 SWAP1 POP JUMP JUMPDEST PUSH32 0x4E487B7100000000000000000000000000000000000000000000000000000000 PUSH0 MSTORE PUSH1 0x11 PUSH1 0x4 MSTORE PUSH1 0x24 PUSH0 REVERT JUMPDEST PUSH0 PUSH2 0x53F DUP3 PUSH2 0x39F JUMP JUMPDEST SWAP2 POP PUSH2 0x54A DUP4 PUSH2 0x39F JUMP JUMPDEST SWAP3 POP DUP3 DUP3 SUB SWAP1 POP DUP2 DUP2 GT ISZERO PUSH2 0x562 JUMPI PUSH2 0x561 PUSH2 0x508 JUMP JUMPDEST JUMPDEST SWAP3 SWAP2 POP POP JUMP JUMPDEST PUSH32 0x4465706F73697420616D6F756E74206D75737420626520677265617465722074 PUSH0 DUP3 ADD MSTORE PUSH32 0x68616E207A65726F000000000000000000000000000000000000000000000000 PUSH1 0x20 DUP3 ADD MSTORE POP JUMP JUMPDEST PUSH0 PUSH2 0x5C2 PUSH1 0x28 DUP4 PUSH2 0x490 JUMP JUMPDEST SWAP2 POP PUSH2 0x5CD DUP3 PUSH2 0x568 JUMP JUMPDEST PUSH1 0x40 DUP3 ADD SWAP1 POP SWAP2 SWAP1 POP JUMP JUMPDEST PUSH0 PUSH1 0x20 DUP3 ADD SWAP1 POP DUP2 DUP2 SUB PUSH0 DUP4 ADD MSTORE PUSH2 0x5EF DUP2 PUSH2 0x5B6 JUMP JUMPDEST SWAP1 POP SWAP2 SWAP1 POP JUMP JUMPDEST PUSH0 PUSH2 0x600 DUP3 PUSH2 0x39F JUMP JUMPDEST SWAP2 POP PUSH2 0x60B DUP4 PUSH2 0x39F JUMP JUMPDEST SWAP3 POP DUP3 DUP3 ADD SWAP1 POP DUP1 DUP3 GT ISZERO PUSH2 0x623 JUMPI PUSH2 0x622 PUSH2 0x508 JUMP JUMPDEST JUMPDEST SWAP3 SWAP2 POP POP JUMP INVALID LOG2 PUSH5 0x6970667358 0x22 SLT KECCAK256 PUSH16 0x20AA9E8742F0171EBEF099F5C7F655F9 PUSH9 0x36E887E19D0DF08C87 0x4C SHR ADD CALLDATALOAD MSIZE PUSH5 0x736F6C6343 STOP ADDMOD BYTE STOP CALLER "
				},
				"gasEstimates": {
					"creation": {
						"codeDepositCost": "326200",
						"executionCost": "360",
						"totalCost": "326560"
					},
					"external": {
						"deposit(uint8)": "infinite",
						"getBalance(uint8)": "2866",
						"withdraw(uint8,uint256)": "infinite"
					}
				},
				"methodIdentifiers": {
					"deposit(uint8)": "ebe41b73",
					"getBalance(uint8)": "e3a12480",
					"withdraw(uint8,uint256)": "3f489914"
				}
			},
			"storageLayout": {
				"storage": [
					{
						"astId": 141,
						"contract": "solidity100/6.solidity100_250117.sol:Q53",
						"label": "bankBalances",
						"offset": 0,
						"slot": "0",
						"type": "t_mapping(t_enum(Bank)134,t_mapping(t_address,t_uint256))"
					}
				],
				"types": {
					"t_address": {
						"encoding": "inplace",
						"label": "address",
						"numberOfBytes": "20"
					},
					"t_enum(Bank)134": {
						"encoding": "inplace",
						"label": "enum Q53.Bank",
						"numberOfBytes": "1"
					},
					"t_mapping(t_address,t_uint256)": {
						"encoding": "mapping",
						"key": "t_address",
						"label": "mapping(address => uint256)",
						"numberOfBytes": "32",
						"value": "t_uint256"
					},
					"t_mapping(t_enum(Bank)134,t_mapping(t_address,t_uint256))": {
						"encoding": "mapping",
						"key": "t_enum(Bank)134",
						"label": "mapping(enum Q53.Bank => mapping(address => uint256))",
						"numberOfBytes": "32",
						"value": "t_mapping(t_address,t_uint256)"
					},
					"t_uint256": {
						"encoding": "inplace",
						"label": "uint256",
						"numberOfBytes": "32"
					}
				}
			},
			"userdoc": {
				"kind": "user",
				"methods": {},
				"version": 1
			}
		}
	}
}