{
	"solidity100/6.solidity100_250117.sol": {
		"Q60": {
			"abi": [
				{
					"inputs": [
						{
							"internalType": "uint256",
							"name": "date",
							"type": "uint256"
						},
						{
							"internalType": "uint256",
							"name": "room",
							"type": "uint256"
						},
						{
							"internalType": "string[3]",
							"name": "guests",
							"type": "string[3]"
						}
					],
					"name": "addGuests",
					"outputs": [],
					"stateMutability": "nonpayable",
					"type": "function"
				},
				{
					"inputs": [
						{
							"internalType": "uint256",
							"name": "date",
							"type": "uint256"
						},
						{
							"internalType": "uint256",
							"name": "room",
							"type": "uint256"
						}
					],
					"name": "getGuests",
					"outputs": [
						{
							"internalType": "string[3]",
							"name": "",
							"type": "string[3]"
						}
					],
					"stateMutability": "view",
					"type": "function"
				}
			],
			"devdoc": {
				"kind": "dev",
				"methods": {},
				"version": 1
			},
			"evm": {
				"assembly": "    /* \"solidity100/6.solidity100_250117.sol\":6783:7844  contract Q60 {... */\n  mstore(0x40, 0x80)\n  callvalue\n  dup1\n  iszero\n  tag_1\n  jumpi\n  0x00\n  dup1\n  revert\ntag_1:\n  pop\n  dataSize(sub_0)\n  dup1\n  dataOffset(sub_0)\n  0x00\n  codecopy\n  0x00\n  return\nstop\n\nsub_0: assembly {\n        /* \"solidity100/6.solidity100_250117.sol\":6783:7844  contract Q60 {... */\n      mstore(0x40, 0x80)\n      callvalue\n      dup1\n      iszero\n      tag_1\n      jumpi\n      0x00\n      dup1\n      revert\n    tag_1:\n      pop\n      jumpi(tag_2, lt(calldatasize, 0x04))\n      shr(0xe0, calldataload(0x00))\n      dup1\n      0xb0adc8bc\n      eq\n      tag_3\n      jumpi\n      dup1\n      0xec0a0930\n      eq\n      tag_4\n      jumpi\n    tag_2:\n      0x00\n      dup1\n      revert\n        /* \"solidity100/6.solidity100_250117.sol\":7401:7617  function addGuests(... */\n    tag_3:\n      tag_5\n      0x04\n      dup1\n      calldatasize\n      sub\n      dup2\n      add\n      swap1\n      tag_6\n      swap2\n      swap1\n      tag_7\n      jump\t// in\n    tag_6:\n      tag_8\n      jump\t// in\n    tag_5:\n      stop\n        /* \"solidity100/6.solidity100_250117.sol\":7623:7842  function getGuests(uint256 date, uint256 room)... */\n    tag_4:\n      tag_9\n      0x04\n      dup1\n      calldatasize\n      sub\n      dup2\n      add\n      swap1\n      tag_10\n      swap2\n      swap1\n      tag_11\n      jump\t// in\n    tag_10:\n      tag_12\n      jump\t// in\n    tag_9:\n      mload(0x40)\n      tag_13\n      swap2\n      swap1\n      tag_14\n      jump\t// in\n    tag_13:\n      mload(0x40)\n      dup1\n      swap2\n      sub\n      swap1\n      return\n        /* \"solidity100/6.solidity100_250117.sol\":7401:7617  function addGuests(... */\n    tag_8:\n        /* \"solidity100/6.solidity100_250117.sol\":7536:7537  1 */\n      0x01\n        /* \"solidity100/6.solidity100_250117.sol\":7528:7532  room */\n      dup3\n        /* \"solidity100/6.solidity100_250117.sol\":7528:7537  room == 1 */\n      eq\n        /* \"solidity100/6.solidity100_250117.sol\":7528:7550  room == 1 || room == 2 */\n      dup1\n      tag_16\n      jumpi\n      pop\n        /* \"solidity100/6.solidity100_250117.sol\":7549:7550  2 */\n      0x02\n        /* \"solidity100/6.solidity100_250117.sol\":7541:7545  room */\n      dup3\n        /* \"solidity100/6.solidity100_250117.sol\":7541:7550  room == 2 */\n      eq\n        /* \"solidity100/6.solidity100_250117.sol\":7528:7550  room == 1 || room == 2 */\n    tag_16:\n        /* \"solidity100/6.solidity100_250117.sol\":7520:7567  require(room == 1 || room == 2, \"Invalid room\") */\n      tag_17\n      jumpi\n      mload(0x40)\n      0x08c379a000000000000000000000000000000000000000000000000000000000\n      dup2\n      mstore\n      0x04\n      add\n      tag_18\n      swap1\n      tag_19\n      jump\t// in\n    tag_18:\n      mload(0x40)\n      dup1\n      swap2\n      sub\n      swap1\n      revert\n    tag_17:\n        /* \"solidity100/6.solidity100_250117.sol\":7604:7610  guests */\n      dup1\n        /* \"solidity100/6.solidity100_250117.sol\":7577:7589  roomBookings */\n      0x00\n        /* \"solidity100/6.solidity100_250117.sol\":7577:7595  roomBookings[date] */\n      dup1\n        /* \"solidity100/6.solidity100_250117.sol\":7590:7594  date */\n      dup6\n        /* \"solidity100/6.solidity100_250117.sol\":7577:7595  roomBookings[date] */\n      dup2\n      mstore\n      0x20\n      add\n      swap1\n      dup2\n      mstore\n      0x20\n      add\n      0x00\n      keccak256\n        /* \"solidity100/6.solidity100_250117.sol\":7577:7601  roomBookings[date][room] */\n      0x00\n        /* \"solidity100/6.solidity100_250117.sol\":7596:7600  room */\n      dup5\n        /* \"solidity100/6.solidity100_250117.sol\":7577:7601  roomBookings[date][room] */\n      dup2\n      mstore\n      0x20\n      add\n      swap1\n      dup2\n      mstore\n      0x20\n      add\n      0x00\n      keccak256\n        /* \"solidity100/6.solidity100_250117.sol\":7577:7610  roomBookings[date][room] = guests */\n      swap1\n      0x03\n      tag_20\n      swap3\n      swap2\n      swap1\n      tag_21\n      jump\t// in\n    tag_20:\n      pop\n        /* \"solidity100/6.solidity100_250117.sol\":7401:7617  function addGuests(... */\n      pop\n      pop\n      pop\n      jump\t// out\n        /* \"solidity100/6.solidity100_250117.sol\":7623:7842  function getGuests(uint256 date, uint256 room)... */\n    tag_12:\n        /* \"solidity100/6.solidity100_250117.sol\":7715:7731  string[3] memory */\n      tag_22\n      tag_23\n      jump\t// in\n    tag_22:\n        /* \"solidity100/6.solidity100_250117.sol\":7763:7764  1 */\n      0x01\n        /* \"solidity100/6.solidity100_250117.sol\":7755:7759  room */\n      dup3\n        /* \"solidity100/6.solidity100_250117.sol\":7755:7764  room == 1 */\n      eq\n        /* \"solidity100/6.solidity100_250117.sol\":7755:7777  room == 1 || room == 2 */\n      dup1\n      tag_25\n      jumpi\n      pop\n        /* \"solidity100/6.solidity100_250117.sol\":7776:7777  2 */\n      0x02\n        /* \"solidity100/6.solidity100_250117.sol\":7768:7772  room */\n      dup3\n        /* \"solidity100/6.solidity100_250117.sol\":7768:7777  room == 2 */\n      eq\n        /* \"solidity100/6.solidity100_250117.sol\":7755:7777  room == 1 || room == 2 */\n    tag_25:\n        /* \"solidity100/6.solidity100_250117.sol\":7747:7794  require(room == 1 || room == 2, \"Invalid room\") */\n      tag_26\n      jumpi\n      mload(0x40)\n      0x08c379a000000000000000000000000000000000000000000000000000000000\n      dup2\n      mstore\n      0x04\n      add\n      tag_27\n      swap1\n      tag_19\n      jump\t// in\n    tag_27:\n      mload(0x40)\n      dup1\n      swap2\n      sub\n      swap1\n      revert\n    tag_26:\n        /* \"solidity100/6.solidity100_250117.sol\":7811:7823  roomBookings */\n      0x00\n        /* \"solidity100/6.solidity100_250117.sol\":7811:7829  roomBookings[date] */\n      dup1\n        /* \"solidity100/6.solidity100_250117.sol\":7824:7828  date */\n      dup5\n        /* \"solidity100/6.solidity100_250117.sol\":7811:7829  roomBookings[date] */\n      dup2\n      mstore\n      0x20\n      add\n      swap1\n      dup2\n      mstore\n      0x20\n      add\n      0x00\n      keccak256\n        /* \"solidity100/6.solidity100_250117.sol\":7811:7835  roomBookings[date][room] */\n      0x00\n        /* \"solidity100/6.solidity100_250117.sol\":7830:7834  room */\n      dup4\n        /* \"solidity100/6.solidity100_250117.sol\":7811:7835  roomBookings[date][room] */\n      dup2\n      mstore\n      0x20\n      add\n      swap1\n      dup2\n      mstore\n      0x20\n      add\n      0x00\n      keccak256\n        /* \"solidity100/6.solidity100_250117.sol\":7804:7835  return roomBookings[date][room] */\n      0x03\n      dup1\n      0x20\n      mul\n      mload(0x40)\n      swap1\n      dup2\n      add\n      0x40\n      mstore\n      dup1\n      swap3\n      swap2\n      swap1\n      0x00\n      swap1\n    tag_28:\n      dup3\n      dup3\n      lt\n      iszero\n      tag_29\n      jumpi\n      dup4\n      dup3\n      add\n      dup1\n      sload\n      tag_31\n      swap1\n      tag_32\n      jump\t// in\n    tag_31:\n      dup1\n      0x1f\n      add\n      0x20\n      dup1\n      swap2\n      div\n      mul\n      0x20\n      add\n      mload(0x40)\n      swap1\n      dup2\n      add\n      0x40\n      mstore\n      dup1\n      swap3\n      swap2\n      swap1\n      dup2\n      dup2\n      mstore\n      0x20\n      add\n      dup3\n      dup1\n      sload\n      tag_33\n      swap1\n      tag_32\n      jump\t// in\n    tag_33:\n      dup1\n      iszero\n      tag_34\n      jumpi\n      dup1\n      0x1f\n      lt\n      tag_35\n      jumpi\n      0x0100\n      dup1\n      dup4\n      sload\n      div\n      mul\n      dup4\n      mstore\n      swap2\n      0x20\n      add\n      swap2\n      jump(tag_34)\n    tag_35:\n      dup3\n      add\n      swap2\n      swap1\n      0x00\n      mstore\n      keccak256(0x00, 0x20)\n      swap1\n    tag_36:\n      dup2\n      sload\n      dup2\n      mstore\n      swap1\n      0x01\n      add\n      swap1\n      0x20\n      add\n      dup1\n      dup4\n      gt\n      tag_36\n      jumpi\n      dup3\n      swap1\n      sub\n      0x1f\n      and\n      dup3\n      add\n      swap2\n    tag_34:\n      pop\n      pop\n      pop\n      pop\n      pop\n      dup2\n      mstore\n      0x20\n      add\n      swap1\n      0x01\n      add\n      swap1\n      jump(tag_28)\n    tag_29:\n      pop\n      pop\n      pop\n      pop\n      swap1\n      pop\n        /* \"solidity100/6.solidity100_250117.sol\":7623:7842  function getGuests(uint256 date, uint256 room)... */\n      swap3\n      swap2\n      pop\n      pop\n      jump\t// out\n    tag_21:\n      dup3\n      0x03\n      dup2\n      add\n      swap3\n      dup3\n      iszero\n      tag_37\n      jumpi\n      swap2\n      0x20\n      mul\n      dup3\n      add\n    tag_38:\n      dup3\n      dup2\n      gt\n      iszero\n      tag_39\n      jumpi\n      dup3\n      mload\n      dup3\n      swap1\n      dup2\n      tag_40\n      swap2\n      swap1\n      tag_41\n      jump\t// in\n    tag_40:\n      pop\n      swap2\n      0x20\n      add\n      swap2\n      swap1\n      0x01\n      add\n      swap1\n      jump(tag_38)\n    tag_39:\n    tag_37:\n      pop\n      swap1\n      pop\n      tag_42\n      swap2\n      swap1\n      tag_43\n      jump\t// in\n    tag_42:\n      pop\n      swap1\n      jump\t// out\n    tag_23:\n      mload(0x40)\n      dup1\n      0x60\n      add\n      0x40\n      mstore\n      dup1\n      0x03\n      swap1\n    tag_44:\n      0x60\n      dup2\n      mstore\n      0x20\n      add\n      swap1\n      0x01\n      swap1\n      sub\n      swap1\n      dup2\n      tag_44\n      jumpi\n      swap1\n      pop\n      pop\n      swap1\n      jump\t// out\n    tag_43:\n    tag_45:\n      dup1\n      dup3\n      gt\n      iszero\n      tag_46\n      jumpi\n      0x00\n      dup2\n      dup2\n      tag_47\n      swap2\n      swap1\n      tag_48\n      jump\t// in\n    tag_47:\n      pop\n      0x01\n      add\n      jump(tag_45)\n    tag_46:\n      pop\n      swap1\n      jump\t// out\n    tag_48:\n      pop\n      dup1\n      sload\n      tag_49\n      swap1\n      tag_32\n      jump\t// in\n    tag_49:\n      0x00\n      dup3\n      sstore\n      dup1\n      0x1f\n      lt\n      tag_51\n      jumpi\n      pop\n      jump(tag_50)\n    tag_51:\n      0x1f\n      add\n      0x20\n      swap1\n      div\n      swap1\n      0x00\n      mstore\n      keccak256(0x00, 0x20)\n      swap1\n      dup2\n      add\n      swap1\n      tag_52\n      swap2\n      swap1\n      tag_53\n      jump\t// in\n    tag_52:\n    tag_50:\n      pop\n      jump\t// out\n    tag_53:\n    tag_54:\n      dup1\n      dup3\n      gt\n      iszero\n      tag_55\n      jumpi\n      0x00\n      dup2\n      0x00\n      swap1\n      sstore\n      pop\n      0x01\n      add\n      jump(tag_54)\n    tag_55:\n      pop\n      swap1\n      jump\t// out\n        /* \"#utility.yul\":7:82   */\n    tag_56:\n        /* \"#utility.yul\":40:46   */\n      0x00\n        /* \"#utility.yul\":73:75   */\n      0x40\n        /* \"#utility.yul\":67:76   */\n      mload\n        /* \"#utility.yul\":57:76   */\n      swap1\n      pop\n        /* \"#utility.yul\":7:82   */\n      swap1\n      jump\t// out\n        /* \"#utility.yul\":88:205   */\n    tag_57:\n        /* \"#utility.yul\":197:198   */\n      0x00\n        /* \"#utility.yul\":194:195   */\n      dup1\n        /* \"#utility.yul\":187:199   */\n      revert\n        /* \"#utility.yul\":211:328   */\n    tag_58:\n        /* \"#utility.yul\":320:321   */\n      0x00\n        /* \"#utility.yul\":317:318   */\n      dup1\n        /* \"#utility.yul\":310:322   */\n      revert\n        /* \"#utility.yul\":334:411   */\n    tag_59:\n        /* \"#utility.yul\":371:378   */\n      0x00\n        /* \"#utility.yul\":400:405   */\n      dup2\n        /* \"#utility.yul\":389:405   */\n      swap1\n      pop\n        /* \"#utility.yul\":334:411   */\n      swap2\n      swap1\n      pop\n      jump\t// out\n        /* \"#utility.yul\":417:539   */\n    tag_60:\n        /* \"#utility.yul\":490:514   */\n      tag_111\n        /* \"#utility.yul\":508:513   */\n      dup2\n        /* \"#utility.yul\":490:514   */\n      tag_59\n      jump\t// in\n    tag_111:\n        /* \"#utility.yul\":483:488   */\n      dup2\n        /* \"#utility.yul\":480:515   */\n      eq\n        /* \"#utility.yul\":470:533   */\n      tag_112\n      jumpi\n        /* \"#utility.yul\":529:530   */\n      0x00\n        /* \"#utility.yul\":526:527   */\n      dup1\n        /* \"#utility.yul\":519:531   */\n      revert\n        /* \"#utility.yul\":470:533   */\n    tag_112:\n        /* \"#utility.yul\":417:539   */\n      pop\n      jump\t// out\n        /* \"#utility.yul\":545:684   */\n    tag_61:\n        /* \"#utility.yul\":591:596   */\n      0x00\n        /* \"#utility.yul\":629:635   */\n      dup2\n        /* \"#utility.yul\":616:636   */\n      calldataload\n        /* \"#utility.yul\":607:636   */\n      swap1\n      pop\n        /* \"#utility.yul\":645:678   */\n      tag_114\n        /* \"#utility.yul\":672:677   */\n      dup2\n        /* \"#utility.yul\":645:678   */\n      tag_60\n      jump\t// in\n    tag_114:\n        /* \"#utility.yul\":545:684   */\n      swap3\n      swap2\n      pop\n      pop\n      jump\t// out\n        /* \"#utility.yul\":690:807   */\n    tag_62:\n        /* \"#utility.yul\":799:800   */\n      0x00\n        /* \"#utility.yul\":796:797   */\n      dup1\n        /* \"#utility.yul\":789:801   */\n      revert\n        /* \"#utility.yul\":813:915   */\n    tag_63:\n        /* \"#utility.yul\":854:860   */\n      0x00\n        /* \"#utility.yul\":905:907   */\n      0x1f\n        /* \"#utility.yul\":901:908   */\n      not\n        /* \"#utility.yul\":896:898   */\n      0x1f\n        /* \"#utility.yul\":889:894   */\n      dup4\n        /* \"#utility.yul\":885:899   */\n      add\n        /* \"#utility.yul\":881:909   */\n      and\n        /* \"#utility.yul\":871:909   */\n      swap1\n      pop\n        /* \"#utility.yul\":813:915   */\n      swap2\n      swap1\n      pop\n      jump\t// out\n        /* \"#utility.yul\":921:1101   */\n    tag_64:\n        /* \"#utility.yul\":969:1046   */\n      0x4e487b7100000000000000000000000000000000000000000000000000000000\n        /* \"#utility.yul\":966:967   */\n      0x00\n        /* \"#utility.yul\":959:1047   */\n      mstore\n        /* \"#utility.yul\":1066:1070   */\n      0x41\n        /* \"#utility.yul\":1063:1064   */\n      0x04\n        /* \"#utility.yul\":1056:1071   */\n      mstore\n        /* \"#utility.yul\":1090:1094   */\n      0x24\n        /* \"#utility.yul\":1087:1088   */\n      0x00\n        /* \"#utility.yul\":1080:1095   */\n      revert\n        /* \"#utility.yul\":1107:1388   */\n    tag_65:\n        /* \"#utility.yul\":1190:1217   */\n      tag_119\n        /* \"#utility.yul\":1212:1216   */\n      dup3\n        /* \"#utility.yul\":1190:1217   */\n      tag_63\n      jump\t// in\n    tag_119:\n        /* \"#utility.yul\":1182:1188   */\n      dup2\n        /* \"#utility.yul\":1178:1218   */\n      add\n        /* \"#utility.yul\":1320:1326   */\n      dup2\n        /* \"#utility.yul\":1308:1318   */\n      dup2\n        /* \"#utility.yul\":1305:1327   */\n      lt\n        /* \"#utility.yul\":1284:1302   */\n      0xffffffffffffffff\n        /* \"#utility.yul\":1272:1282   */\n      dup3\n        /* \"#utility.yul\":1269:1303   */\n      gt\n        /* \"#utility.yul\":1266:1328   */\n      or\n        /* \"#utility.yul\":1263:1351   */\n      iszero\n      tag_120\n      jumpi\n        /* \"#utility.yul\":1331:1349   */\n      tag_121\n      tag_64\n      jump\t// in\n    tag_121:\n        /* \"#utility.yul\":1263:1351   */\n    tag_120:\n        /* \"#utility.yul\":1371:1381   */\n      dup1\n        /* \"#utility.yul\":1367:1369   */\n      0x40\n        /* \"#utility.yul\":1360:1382   */\n      mstore\n        /* \"#utility.yul\":1150:1388   */\n      pop\n        /* \"#utility.yul\":1107:1388   */\n      pop\n      pop\n      jump\t// out\n        /* \"#utility.yul\":1394:1523   */\n    tag_66:\n        /* \"#utility.yul\":1428:1434   */\n      0x00\n        /* \"#utility.yul\":1455:1475   */\n      tag_123\n      tag_56\n      jump\t// in\n    tag_123:\n        /* \"#utility.yul\":1445:1475   */\n      swap1\n      pop\n        /* \"#utility.yul\":1484:1517   */\n      tag_124\n        /* \"#utility.yul\":1512:1516   */\n      dup3\n        /* \"#utility.yul\":1504:1510   */\n      dup3\n        /* \"#utility.yul\":1484:1517   */\n      tag_65\n      jump\t// in\n    tag_124:\n        /* \"#utility.yul\":1394:1523   */\n      swap2\n      swap1\n      pop\n      jump\t// out\n        /* \"#utility.yul\":1529:1788   */\n    tag_67:\n        /* \"#utility.yul\":1614:1618   */\n      0x00\n        /* \"#utility.yul\":1704:1722   */\n      0xffffffffffffffff\n        /* \"#utility.yul\":1696:1702   */\n      dup3\n        /* \"#utility.yul\":1693:1723   */\n      gt\n        /* \"#utility.yul\":1690:1746   */\n      iszero\n      tag_126\n      jumpi\n        /* \"#utility.yul\":1726:1744   */\n      tag_127\n      tag_64\n      jump\t// in\n    tag_127:\n        /* \"#utility.yul\":1690:1746   */\n    tag_126:\n        /* \"#utility.yul\":1776:1780   */\n      0x20\n        /* \"#utility.yul\":1768:1774   */\n      dup3\n        /* \"#utility.yul\":1764:1781   */\n      mul\n        /* \"#utility.yul\":1756:1781   */\n      swap1\n      pop\n        /* \"#utility.yul\":1529:1788   */\n      swap2\n      swap1\n      pop\n      jump\t// out\n        /* \"#utility.yul\":1794:1911   */\n    tag_68:\n        /* \"#utility.yul\":1903:1904   */\n      0x00\n        /* \"#utility.yul\":1900:1901   */\n      dup1\n        /* \"#utility.yul\":1893:1905   */\n      revert\n        /* \"#utility.yul\":1917:2034   */\n    tag_69:\n        /* \"#utility.yul\":2026:2027   */\n      0x00\n        /* \"#utility.yul\":2023:2024   */\n      dup1\n        /* \"#utility.yul\":2016:2028   */\n      revert\n        /* \"#utility.yul\":2040:2348   */\n    tag_70:\n        /* \"#utility.yul\":2102:2106   */\n      0x00\n        /* \"#utility.yul\":2192:2210   */\n      0xffffffffffffffff\n        /* \"#utility.yul\":2184:2190   */\n      dup3\n        /* \"#utility.yul\":2181:2211   */\n      gt\n        /* \"#utility.yul\":2178:2234   */\n      iszero\n      tag_131\n      jumpi\n        /* \"#utility.yul\":2214:2232   */\n      tag_132\n      tag_64\n      jump\t// in\n    tag_132:\n        /* \"#utility.yul\":2178:2234   */\n    tag_131:\n        /* \"#utility.yul\":2252:2281   */\n      tag_133\n        /* \"#utility.yul\":2274:2280   */\n      dup3\n        /* \"#utility.yul\":2252:2281   */\n      tag_63\n      jump\t// in\n    tag_133:\n        /* \"#utility.yul\":2244:2281   */\n      swap1\n      pop\n        /* \"#utility.yul\":2336:2340   */\n      0x20\n        /* \"#utility.yul\":2330:2334   */\n      dup2\n        /* \"#utility.yul\":2326:2341   */\n      add\n        /* \"#utility.yul\":2318:2341   */\n      swap1\n      pop\n        /* \"#utility.yul\":2040:2348   */\n      swap2\n      swap1\n      pop\n      jump\t// out\n        /* \"#utility.yul\":2354:2502   */\n    tag_71:\n        /* \"#utility.yul\":2452:2458   */\n      dup3\n        /* \"#utility.yul\":2447:2450   */\n      dup2\n        /* \"#utility.yul\":2442:2445   */\n      dup4\n        /* \"#utility.yul\":2429:2459   */\n      calldatacopy\n        /* \"#utility.yul\":2493:2494   */\n      0x00\n        /* \"#utility.yul\":2484:2490   */\n      dup4\n        /* \"#utility.yul\":2479:2482   */\n      dup4\n        /* \"#utility.yul\":2475:2491   */\n      add\n        /* \"#utility.yul\":2468:2495   */\n      mstore\n        /* \"#utility.yul\":2354:2502   */\n      pop\n      pop\n      pop\n      jump\t// out\n        /* \"#utility.yul\":2508:2933   */\n    tag_72:\n        /* \"#utility.yul\":2586:2591   */\n      0x00\n        /* \"#utility.yul\":2611:2677   */\n      tag_136\n        /* \"#utility.yul\":2627:2676   */\n      tag_137\n        /* \"#utility.yul\":2669:2675   */\n      dup5\n        /* \"#utility.yul\":2627:2676   */\n      tag_70\n      jump\t// in\n    tag_137:\n        /* \"#utility.yul\":2611:2677   */\n      tag_66\n      jump\t// in\n    tag_136:\n        /* \"#utility.yul\":2602:2677   */\n      swap1\n      pop\n        /* \"#utility.yul\":2700:2706   */\n      dup3\n        /* \"#utility.yul\":2693:2698   */\n      dup2\n        /* \"#utility.yul\":2686:2707   */\n      mstore\n        /* \"#utility.yul\":2738:2742   */\n      0x20\n        /* \"#utility.yul\":2731:2736   */\n      dup2\n        /* \"#utility.yul\":2727:2743   */\n      add\n        /* \"#utility.yul\":2776:2779   */\n      dup5\n        /* \"#utility.yul\":2767:2773   */\n      dup5\n        /* \"#utility.yul\":2762:2765   */\n      dup5\n        /* \"#utility.yul\":2758:2774   */\n      add\n        /* \"#utility.yul\":2755:2780   */\n      gt\n        /* \"#utility.yul\":2752:2864   */\n      iszero\n      tag_138\n      jumpi\n        /* \"#utility.yul\":2783:2862   */\n      tag_139\n      tag_69\n      jump\t// in\n    tag_139:\n        /* \"#utility.yul\":2752:2864   */\n    tag_138:\n        /* \"#utility.yul\":2873:2927   */\n      tag_140\n        /* \"#utility.yul\":2920:2926   */\n      dup5\n        /* \"#utility.yul\":2915:2918   */\n      dup3\n        /* \"#utility.yul\":2910:2913   */\n      dup6\n        /* \"#utility.yul\":2873:2927   */\n      tag_71\n      jump\t// in\n    tag_140:\n        /* \"#utility.yul\":2592:2933   */\n      pop\n        /* \"#utility.yul\":2508:2933   */\n      swap4\n      swap3\n      pop\n      pop\n      pop\n      jump\t// out\n        /* \"#utility.yul\":2953:3293   */\n    tag_73:\n        /* \"#utility.yul\":3009:3014   */\n      0x00\n        /* \"#utility.yul\":3058:3061   */\n      dup3\n        /* \"#utility.yul\":3051:3055   */\n      0x1f\n        /* \"#utility.yul\":3043:3049   */\n      dup4\n        /* \"#utility.yul\":3039:3056   */\n      add\n        /* \"#utility.yul\":3035:3062   */\n      slt\n        /* \"#utility.yul\":3025:3147   */\n      tag_142\n      jumpi\n        /* \"#utility.yul\":3066:3145   */\n      tag_143\n      tag_62\n      jump\t// in\n    tag_143:\n        /* \"#utility.yul\":3025:3147   */\n    tag_142:\n        /* \"#utility.yul\":3183:3189   */\n      dup2\n        /* \"#utility.yul\":3170:3190   */\n      calldataload\n        /* \"#utility.yul\":3208:3287   */\n      tag_144\n        /* \"#utility.yul\":3283:3286   */\n      dup5\n        /* \"#utility.yul\":3275:3281   */\n      dup3\n        /* \"#utility.yul\":3268:3272   */\n      0x20\n        /* \"#utility.yul\":3260:3266   */\n      dup7\n        /* \"#utility.yul\":3256:3273   */\n      add\n        /* \"#utility.yul\":3208:3287   */\n      tag_72\n      jump\t// in\n    tag_144:\n        /* \"#utility.yul\":3199:3287   */\n      swap2\n      pop\n        /* \"#utility.yul\":3015:3293   */\n      pop\n        /* \"#utility.yul\":2953:3293   */\n      swap3\n      swap2\n      pop\n      pop\n      jump\t// out\n        /* \"#utility.yul\":3316:4194   */\n    tag_74:\n        /* \"#utility.yul\":3420:3425   */\n      0x00\n        /* \"#utility.yul\":3445:3534   */\n      tag_146\n        /* \"#utility.yul\":3461:3533   */\n      tag_147\n        /* \"#utility.yul\":3526:3532   */\n      dup5\n        /* \"#utility.yul\":3461:3533   */\n      tag_67\n      jump\t// in\n    tag_147:\n        /* \"#utility.yul\":3445:3534   */\n      tag_66\n      jump\t// in\n    tag_146:\n        /* \"#utility.yul\":3436:3534   */\n      swap1\n      pop\n        /* \"#utility.yul\":3554:3559   */\n      dup1\n        /* \"#utility.yul\":3607:3611   */\n      0x20\n        /* \"#utility.yul\":3599:3605   */\n      dup5\n        /* \"#utility.yul\":3595:3612   */\n      mul\n        /* \"#utility.yul\":3587:3593   */\n      dup4\n        /* \"#utility.yul\":3583:3613   */\n      add\n        /* \"#utility.yul\":3636:3639   */\n      dup6\n        /* \"#utility.yul\":3628:3634   */\n      dup2\n        /* \"#utility.yul\":3625:3640   */\n      gt\n        /* \"#utility.yul\":3622:3744   */\n      iszero\n      tag_148\n      jumpi\n        /* \"#utility.yul\":3655:3734   */\n      tag_149\n      tag_68\n      jump\t// in\n    tag_149:\n        /* \"#utility.yul\":3622:3744   */\n    tag_148:\n        /* \"#utility.yul\":3770:3776   */\n      dup4\n        /* \"#utility.yul\":3753:4188   */\n    tag_150:\n        /* \"#utility.yul\":3787:3793   */\n      dup2\n        /* \"#utility.yul\":3782:3785   */\n      dup2\n        /* \"#utility.yul\":3779:3794   */\n      lt\n        /* \"#utility.yul\":3753:4188   */\n      iszero\n      tag_152\n      jumpi\n        /* \"#utility.yul\":3876:3879   */\n      dup1\n        /* \"#utility.yul\":3863:3880   */\n      calldataload\n        /* \"#utility.yul\":3912:3930   */\n      0xffffffffffffffff\n        /* \"#utility.yul\":3899:3910   */\n      dup2\n        /* \"#utility.yul\":3896:3931   */\n      gt\n        /* \"#utility.yul\":3893:4015   */\n      iszero\n      tag_153\n      jumpi\n        /* \"#utility.yul\":3934:4013   */\n      tag_154\n      tag_62\n      jump\t// in\n    tag_154:\n        /* \"#utility.yul\":3893:4015   */\n    tag_153:\n        /* \"#utility.yul\":4058:4069   */\n      dup1\n        /* \"#utility.yul\":4050:4056   */\n      dup7\n        /* \"#utility.yul\":4046:4070   */\n      add\n        /* \"#utility.yul\":4096:4143   */\n      tag_155\n        /* \"#utility.yul\":4139:4142   */\n      dup10\n        /* \"#utility.yul\":4127:4137   */\n      dup3\n        /* \"#utility.yul\":4096:4143   */\n      tag_73\n      jump\t// in\n    tag_155:\n        /* \"#utility.yul\":4091:4094   */\n      dup6\n        /* \"#utility.yul\":4084:4144   */\n      mstore\n        /* \"#utility.yul\":4173:4177   */\n      0x20\n        /* \"#utility.yul\":4168:4171   */\n      dup6\n        /* \"#utility.yul\":4164:4178   */\n      add\n        /* \"#utility.yul\":4157:4178   */\n      swap5\n      pop\n        /* \"#utility.yul\":3829:4188   */\n      pop\n      pop\n        /* \"#utility.yul\":3813:3817   */\n      0x20\n        /* \"#utility.yul\":3808:3811   */\n      dup2\n        /* \"#utility.yul\":3804:3818   */\n      add\n        /* \"#utility.yul\":3797:3818   */\n      swap1\n      pop\n        /* \"#utility.yul\":3753:4188   */\n      jump(tag_150)\n    tag_152:\n        /* \"#utility.yul\":3757:3778   */\n      pop\n        /* \"#utility.yul\":3426:4194   */\n      pop\n      pop\n        /* \"#utility.yul\":3316:4194   */\n      swap4\n      swap3\n      pop\n      pop\n      pop\n      jump\t// out\n        /* \"#utility.yul\":4217:4576   */\n    tag_75:\n        /* \"#utility.yul\":4296:4301   */\n      0x00\n        /* \"#utility.yul\":4345:4348   */\n      dup3\n        /* \"#utility.yul\":4338:4342   */\n      0x1f\n        /* \"#utility.yul\":4330:4336   */\n      dup4\n        /* \"#utility.yul\":4326:4343   */\n      add\n        /* \"#utility.yul\":4322:4349   */\n      slt\n        /* \"#utility.yul\":4312:4434   */\n      tag_157\n      jumpi\n        /* \"#utility.yul\":4353:4432   */\n      tag_158\n      tag_62\n      jump\t// in\n    tag_158:\n        /* \"#utility.yul\":4312:4434   */\n    tag_157:\n        /* \"#utility.yul\":4457:4461   */\n      0x03\n        /* \"#utility.yul\":4479:4570   */\n      tag_159\n        /* \"#utility.yul\":4566:4569   */\n      dup5\n        /* \"#utility.yul\":4558:4564   */\n      dup3\n        /* \"#utility.yul\":4550:4556   */\n      dup6\n        /* \"#utility.yul\":4479:4570   */\n      tag_74\n      jump\t// in\n    tag_159:\n        /* \"#utility.yul\":4470:4570   */\n      swap2\n      pop\n        /* \"#utility.yul\":4302:4576   */\n      pop\n        /* \"#utility.yul\":4217:4576   */\n      swap3\n      swap2\n      pop\n      pop\n      jump\t// out\n        /* \"#utility.yul\":4582:5427   */\n    tag_7:\n        /* \"#utility.yul\":4692:4698   */\n      0x00\n        /* \"#utility.yul\":4700:4706   */\n      dup1\n        /* \"#utility.yul\":4708:4714   */\n      0x00\n        /* \"#utility.yul\":4757:4759   */\n      0x60\n        /* \"#utility.yul\":4745:4754   */\n      dup5\n        /* \"#utility.yul\":4736:4743   */\n      dup7\n        /* \"#utility.yul\":4732:4755   */\n      sub\n        /* \"#utility.yul\":4728:4760   */\n      slt\n        /* \"#utility.yul\":4725:4844   */\n      iszero\n      tag_161\n      jumpi\n        /* \"#utility.yul\":4763:4842   */\n      tag_162\n      tag_57\n      jump\t// in\n    tag_162:\n        /* \"#utility.yul\":4725:4844   */\n    tag_161:\n        /* \"#utility.yul\":4883:4884   */\n      0x00\n        /* \"#utility.yul\":4908:4961   */\n      tag_163\n        /* \"#utility.yul\":4953:4960   */\n      dup7\n        /* \"#utility.yul\":4944:4950   */\n      dup3\n        /* \"#utility.yul\":4933:4942   */\n      dup8\n        /* \"#utility.yul\":4929:4951   */\n      add\n        /* \"#utility.yul\":4908:4961   */\n      tag_61\n      jump\t// in\n    tag_163:\n        /* \"#utility.yul\":4898:4961   */\n      swap4\n      pop\n        /* \"#utility.yul\":4854:4971   */\n      pop\n        /* \"#utility.yul\":5010:5012   */\n      0x20\n        /* \"#utility.yul\":5036:5089   */\n      tag_164\n        /* \"#utility.yul\":5081:5088   */\n      dup7\n        /* \"#utility.yul\":5072:5078   */\n      dup3\n        /* \"#utility.yul\":5061:5070   */\n      dup8\n        /* \"#utility.yul\":5057:5079   */\n      add\n        /* \"#utility.yul\":5036:5089   */\n      tag_61\n      jump\t// in\n    tag_164:\n        /* \"#utility.yul\":5026:5089   */\n      swap3\n      pop\n        /* \"#utility.yul\":4981:5099   */\n      pop\n        /* \"#utility.yul\":5166:5168   */\n      0x40\n        /* \"#utility.yul\":5155:5164   */\n      dup5\n        /* \"#utility.yul\":5151:5169   */\n      add\n        /* \"#utility.yul\":5138:5170   */\n      calldataload\n        /* \"#utility.yul\":5197:5215   */\n      0xffffffffffffffff\n        /* \"#utility.yul\":5189:5195   */\n      dup2\n        /* \"#utility.yul\":5186:5216   */\n      gt\n        /* \"#utility.yul\":5183:5300   */\n      iszero\n      tag_165\n      jumpi\n        /* \"#utility.yul\":5219:5298   */\n      tag_166\n      tag_58\n      jump\t// in\n    tag_166:\n        /* \"#utility.yul\":5183:5300   */\n    tag_165:\n        /* \"#utility.yul\":5324:5410   */\n      tag_167\n        /* \"#utility.yul\":5402:5409   */\n      dup7\n        /* \"#utility.yul\":5393:5399   */\n      dup3\n        /* \"#utility.yul\":5382:5391   */\n      dup8\n        /* \"#utility.yul\":5378:5400   */\n      add\n        /* \"#utility.yul\":5324:5410   */\n      tag_75\n      jump\t// in\n    tag_167:\n        /* \"#utility.yul\":5314:5410   */\n      swap2\n      pop\n        /* \"#utility.yul\":5109:5420   */\n      pop\n        /* \"#utility.yul\":4582:5427   */\n      swap3\n      pop\n      swap3\n      pop\n      swap3\n      jump\t// out\n        /* \"#utility.yul\":5433:5907   */\n    tag_11:\n        /* \"#utility.yul\":5501:5507   */\n      0x00\n        /* \"#utility.yul\":5509:5515   */\n      dup1\n        /* \"#utility.yul\":5558:5560   */\n      0x40\n        /* \"#utility.yul\":5546:5555   */\n      dup4\n        /* \"#utility.yul\":5537:5544   */\n      dup6\n        /* \"#utility.yul\":5533:5556   */\n      sub\n        /* \"#utility.yul\":5529:5561   */\n      slt\n        /* \"#utility.yul\":5526:5645   */\n      iszero\n      tag_169\n      jumpi\n        /* \"#utility.yul\":5564:5643   */\n      tag_170\n      tag_57\n      jump\t// in\n    tag_170:\n        /* \"#utility.yul\":5526:5645   */\n    tag_169:\n        /* \"#utility.yul\":5684:5685   */\n      0x00\n        /* \"#utility.yul\":5709:5762   */\n      tag_171\n        /* \"#utility.yul\":5754:5761   */\n      dup6\n        /* \"#utility.yul\":5745:5751   */\n      dup3\n        /* \"#utility.yul\":5734:5743   */\n      dup7\n        /* \"#utility.yul\":5730:5752   */\n      add\n        /* \"#utility.yul\":5709:5762   */\n      tag_61\n      jump\t// in\n    tag_171:\n        /* \"#utility.yul\":5699:5762   */\n      swap3\n      pop\n        /* \"#utility.yul\":5655:5772   */\n      pop\n        /* \"#utility.yul\":5811:5813   */\n      0x20\n        /* \"#utility.yul\":5837:5890   */\n      tag_172\n        /* \"#utility.yul\":5882:5889   */\n      dup6\n        /* \"#utility.yul\":5873:5879   */\n      dup3\n        /* \"#utility.yul\":5862:5871   */\n      dup7\n        /* \"#utility.yul\":5858:5880   */\n      add\n        /* \"#utility.yul\":5837:5890   */\n      tag_61\n      jump\t// in\n    tag_172:\n        /* \"#utility.yul\":5827:5890   */\n      swap2\n      pop\n        /* \"#utility.yul\":5782:5900   */\n      pop\n        /* \"#utility.yul\":5433:5907   */\n      swap3\n      pop\n      swap3\n      swap1\n      pop\n      jump\t// out\n        /* \"#utility.yul\":5913:6027   */\n    tag_76:\n        /* \"#utility.yul\":5988:5994   */\n      0x00\n        /* \"#utility.yul\":6016:6020   */\n      0x03\n        /* \"#utility.yul\":6006:6020   */\n      swap1\n      pop\n        /* \"#utility.yul\":5913:6027   */\n      swap2\n      swap1\n      pop\n      jump\t// out\n        /* \"#utility.yul\":6033:6186   */\n    tag_77:\n        /* \"#utility.yul\":6140:6151   */\n      0x00\n        /* \"#utility.yul\":6177:6180   */\n      dup2\n        /* \"#utility.yul\":6162:6180   */\n      swap1\n      pop\n        /* \"#utility.yul\":6033:6186   */\n      swap3\n      swap2\n      pop\n      pop\n      jump\t// out\n        /* \"#utility.yul\":6192:6300   */\n    tag_78:\n        /* \"#utility.yul\":6267:6271   */\n      0x00\n        /* \"#utility.yul\":6290:6293   */\n      dup2\n        /* \"#utility.yul\":6282:6293   */\n      swap1\n      pop\n        /* \"#utility.yul\":6192:6300   */\n      swap2\n      swap1\n      pop\n      jump\t// out\n        /* \"#utility.yul\":6306:6405   */\n    tag_79:\n        /* \"#utility.yul\":6358:6364   */\n      0x00\n        /* \"#utility.yul\":6392:6397   */\n      dup2\n        /* \"#utility.yul\":6386:6398   */\n      mload\n        /* \"#utility.yul\":6376:6398   */\n      swap1\n      pop\n        /* \"#utility.yul\":6306:6405   */\n      swap2\n      swap1\n      pop\n      jump\t// out\n        /* \"#utility.yul\":6411:6570   */\n    tag_80:\n        /* \"#utility.yul\":6485:6496   */\n      0x00\n        /* \"#utility.yul\":6519:6525   */\n      dup3\n        /* \"#utility.yul\":6514:6517   */\n      dup3\n        /* \"#utility.yul\":6507:6526   */\n      mstore\n        /* \"#utility.yul\":6559:6563   */\n      0x20\n        /* \"#utility.yul\":6554:6557   */\n      dup3\n        /* \"#utility.yul\":6550:6564   */\n      add\n        /* \"#utility.yul\":6535:6564   */\n      swap1\n      pop\n        /* \"#utility.yul\":6411:6570   */\n      swap3\n      swap2\n      pop\n      pop\n      jump\t// out\n        /* \"#utility.yul\":6576:6715   */\n    tag_81:\n        /* \"#utility.yul\":6665:6671   */\n      dup3\n        /* \"#utility.yul\":6660:6663   */\n      dup2\n        /* \"#utility.yul\":6655:6658   */\n      dup4\n        /* \"#utility.yul\":6649:6672   */\n      mcopy\n        /* \"#utility.yul\":6706:6707   */\n      0x00\n        /* \"#utility.yul\":6697:6703   */\n      dup4\n        /* \"#utility.yul\":6692:6695   */\n      dup4\n        /* \"#utility.yul\":6688:6704   */\n      add\n        /* \"#utility.yul\":6681:6708   */\n      mstore\n        /* \"#utility.yul\":6576:6715   */\n      pop\n      pop\n      pop\n      jump\t// out\n        /* \"#utility.yul\":6721:7078   */\n    tag_82:\n        /* \"#utility.yul\":6799:6802   */\n      0x00\n        /* \"#utility.yul\":6827:6866   */\n      tag_180\n        /* \"#utility.yul\":6860:6865   */\n      dup3\n        /* \"#utility.yul\":6827:6866   */\n      tag_79\n      jump\t// in\n    tag_180:\n        /* \"#utility.yul\":6882:6943   */\n      tag_181\n        /* \"#utility.yul\":6936:6942   */\n      dup2\n        /* \"#utility.yul\":6931:6934   */\n      dup6\n        /* \"#utility.yul\":6882:6943   */\n      tag_80\n      jump\t// in\n    tag_181:\n        /* \"#utility.yul\":6875:6943   */\n      swap4\n      pop\n        /* \"#utility.yul\":6952:7017   */\n      tag_182\n        /* \"#utility.yul\":7010:7016   */\n      dup2\n        /* \"#utility.yul\":7005:7008   */\n      dup6\n        /* \"#utility.yul\":6998:7002   */\n      0x20\n        /* \"#utility.yul\":6991:6996   */\n      dup7\n        /* \"#utility.yul\":6987:7003   */\n      add\n        /* \"#utility.yul\":6952:7017   */\n      tag_81\n      jump\t// in\n    tag_182:\n        /* \"#utility.yul\":7042:7071   */\n      tag_183\n        /* \"#utility.yul\":7064:7070   */\n      dup2\n        /* \"#utility.yul\":7042:7071   */\n      tag_63\n      jump\t// in\n    tag_183:\n        /* \"#utility.yul\":7037:7040   */\n      dup5\n        /* \"#utility.yul\":7033:7072   */\n      add\n        /* \"#utility.yul\":7026:7072   */\n      swap2\n      pop\n        /* \"#utility.yul\":6803:7078   */\n      pop\n        /* \"#utility.yul\":6721:7078   */\n      swap3\n      swap2\n      pop\n      pop\n      jump\t// out\n        /* \"#utility.yul\":7084:7280   */\n    tag_83:\n        /* \"#utility.yul\":7173:7183   */\n      0x00\n        /* \"#utility.yul\":7208:7274   */\n      tag_185\n        /* \"#utility.yul\":7270:7273   */\n      dup4\n        /* \"#utility.yul\":7262:7268   */\n      dup4\n        /* \"#utility.yul\":7208:7274   */\n      tag_82\n      jump\t// in\n    tag_185:\n        /* \"#utility.yul\":7194:7274   */\n      swap1\n      pop\n        /* \"#utility.yul\":7084:7280   */\n      swap3\n      swap2\n      pop\n      pop\n      jump\t// out\n        /* \"#utility.yul\":7286:7407   */\n    tag_84:\n        /* \"#utility.yul\":7364:7368   */\n      0x00\n        /* \"#utility.yul\":7396:7400   */\n      0x20\n        /* \"#utility.yul\":7391:7394   */\n      dup3\n        /* \"#utility.yul\":7387:7401   */\n      add\n        /* \"#utility.yul\":7379:7401   */\n      swap1\n      pop\n        /* \"#utility.yul\":7286:7407   */\n      swap2\n      swap1\n      pop\n      jump\t// out\n        /* \"#utility.yul\":7443:8422   */\n    tag_85:\n        /* \"#utility.yul\":7578:7581   */\n      0x00\n        /* \"#utility.yul\":7607:7669   */\n      tag_188\n        /* \"#utility.yul\":7663:7668   */\n      dup3\n        /* \"#utility.yul\":7607:7669   */\n      tag_76\n      jump\t// in\n    tag_188:\n        /* \"#utility.yul\":7685:7779   */\n      tag_189\n        /* \"#utility.yul\":7772:7778   */\n      dup2\n        /* \"#utility.yul\":7767:7770   */\n      dup6\n        /* \"#utility.yul\":7685:7779   */\n      tag_77\n      jump\t// in\n    tag_189:\n        /* \"#utility.yul\":7678:7779   */\n      swap4\n      pop\n        /* \"#utility.yul\":7805:7808   */\n      dup4\n        /* \"#utility.yul\":7850:7854   */\n      0x20\n        /* \"#utility.yul\":7842:7848   */\n      dup3\n        /* \"#utility.yul\":7838:7855   */\n      mul\n        /* \"#utility.yul\":7833:7836   */\n      dup6\n        /* \"#utility.yul\":7829:7856   */\n      add\n        /* \"#utility.yul\":7880:7944   */\n      tag_190\n        /* \"#utility.yul\":7938:7943   */\n      dup6\n        /* \"#utility.yul\":7880:7944   */\n      tag_78\n      jump\t// in\n    tag_190:\n        /* \"#utility.yul\":7967:7974   */\n      dup1\n        /* \"#utility.yul\":7998:7999   */\n      0x00\n        /* \"#utility.yul\":7983:8377   */\n    tag_191:\n        /* \"#utility.yul\":8008:8014   */\n      dup6\n        /* \"#utility.yul\":8005:8006   */\n      dup2\n        /* \"#utility.yul\":8002:8015   */\n      lt\n        /* \"#utility.yul\":7983:8377   */\n      iszero\n      tag_193\n      jumpi\n        /* \"#utility.yul\":8079:8088   */\n      dup5\n        /* \"#utility.yul\":8073:8077   */\n      dup5\n        /* \"#utility.yul\":8069:8089   */\n      sub\n        /* \"#utility.yul\":8064:8067   */\n      dup10\n        /* \"#utility.yul\":8057:8090   */\n      mstore\n        /* \"#utility.yul\":8130:8136   */\n      dup2\n        /* \"#utility.yul\":8124:8137   */\n      mload\n        /* \"#utility.yul\":8158:8242   */\n      tag_194\n        /* \"#utility.yul\":8237:8241   */\n      dup6\n        /* \"#utility.yul\":8222:8235   */\n      dup3\n        /* \"#utility.yul\":8158:8242   */\n      tag_83\n      jump\t// in\n    tag_194:\n        /* \"#utility.yul\":8150:8242   */\n      swap5\n      pop\n        /* \"#utility.yul\":8265:8333   */\n      tag_195\n        /* \"#utility.yul\":8326:8332   */\n      dup4\n        /* \"#utility.yul\":8265:8333   */\n      tag_84\n      jump\t// in\n    tag_195:\n        /* \"#utility.yul\":8255:8333   */\n      swap3\n      pop\n        /* \"#utility.yul\":8362:8366   */\n      0x20\n        /* \"#utility.yul\":8357:8360   */\n      dup11\n        /* \"#utility.yul\":8353:8367   */\n      add\n        /* \"#utility.yul\":8346:8367   */\n      swap10\n      pop\n        /* \"#utility.yul\":8043:8377   */\n      pop\n        /* \"#utility.yul\":8030:8031   */\n      0x01\n        /* \"#utility.yul\":8027:8028   */\n      dup2\n        /* \"#utility.yul\":8023:8032   */\n      add\n        /* \"#utility.yul\":8018:8032   */\n      swap1\n      pop\n        /* \"#utility.yul\":7983:8377   */\n      jump(tag_191)\n    tag_193:\n        /* \"#utility.yul\":7987:8001   */\n      pop\n        /* \"#utility.yul\":8393:8397   */\n      dup3\n        /* \"#utility.yul\":8386:8397   */\n      swap8\n      pop\n        /* \"#utility.yul\":8413:8416   */\n      dup8\n        /* \"#utility.yul\":8406:8416   */\n      swap6\n      pop\n        /* \"#utility.yul\":7583:8422   */\n      pop\n      pop\n      pop\n      pop\n      pop\n        /* \"#utility.yul\":7443:8422   */\n      swap3\n      swap2\n      pop\n      pop\n      jump\t// out\n        /* \"#utility.yul\":8428:8833   */\n    tag_14:\n        /* \"#utility.yul\":8587:8591   */\n      0x00\n        /* \"#utility.yul\":8625:8627   */\n      0x20\n        /* \"#utility.yul\":8614:8623   */\n      dup3\n        /* \"#utility.yul\":8610:8628   */\n      add\n        /* \"#utility.yul\":8602:8628   */\n      swap1\n      pop\n        /* \"#utility.yul\":8674:8683   */\n      dup2\n        /* \"#utility.yul\":8668:8672   */\n      dup2\n        /* \"#utility.yul\":8664:8684   */\n      sub\n        /* \"#utility.yul\":8660:8661   */\n      0x00\n        /* \"#utility.yul\":8649:8658   */\n      dup4\n        /* \"#utility.yul\":8645:8662   */\n      add\n        /* \"#utility.yul\":8638:8685   */\n      mstore\n        /* \"#utility.yul\":8702:8826   */\n      tag_197\n        /* \"#utility.yul\":8821:8825   */\n      dup2\n        /* \"#utility.yul\":8812:8818   */\n      dup5\n        /* \"#utility.yul\":8702:8826   */\n      tag_85\n      jump\t// in\n    tag_197:\n        /* \"#utility.yul\":8694:8826   */\n      swap1\n      pop\n        /* \"#utility.yul\":8428:8833   */\n      swap3\n      swap2\n      pop\n      pop\n      jump\t// out\n        /* \"#utility.yul\":8839:9008   */\n    tag_86:\n        /* \"#utility.yul\":8923:8934   */\n      0x00\n        /* \"#utility.yul\":8957:8963   */\n      dup3\n        /* \"#utility.yul\":8952:8955   */\n      dup3\n        /* \"#utility.yul\":8945:8964   */\n      mstore\n        /* \"#utility.yul\":8997:9001   */\n      0x20\n        /* \"#utility.yul\":8992:8995   */\n      dup3\n        /* \"#utility.yul\":8988:9002   */\n      add\n        /* \"#utility.yul\":8973:9002   */\n      swap1\n      pop\n        /* \"#utility.yul\":8839:9008   */\n      swap3\n      swap2\n      pop\n      pop\n      jump\t// out\n        /* \"#utility.yul\":9014:9176   */\n    tag_87:\n        /* \"#utility.yul\":9154:9168   */\n      0x496e76616c696420726f6f6d0000000000000000000000000000000000000000\n        /* \"#utility.yul\":9150:9151   */\n      0x00\n        /* \"#utility.yul\":9142:9148   */\n      dup3\n        /* \"#utility.yul\":9138:9152   */\n      add\n        /* \"#utility.yul\":9131:9169   */\n      mstore\n        /* \"#utility.yul\":9014:9176   */\n      pop\n      jump\t// out\n        /* \"#utility.yul\":9182:9548   */\n    tag_88:\n        /* \"#utility.yul\":9324:9327   */\n      0x00\n        /* \"#utility.yul\":9345:9412   */\n      tag_201\n        /* \"#utility.yul\":9409:9411   */\n      0x0c\n        /* \"#utility.yul\":9404:9407   */\n      dup4\n        /* \"#utility.yul\":9345:9412   */\n      tag_86\n      jump\t// in\n    tag_201:\n        /* \"#utility.yul\":9338:9412   */\n      swap2\n      pop\n        /* \"#utility.yul\":9421:9514   */\n      tag_202\n        /* \"#utility.yul\":9510:9513   */\n      dup3\n        /* \"#utility.yul\":9421:9514   */\n      tag_87\n      jump\t// in\n    tag_202:\n        /* \"#utility.yul\":9539:9541   */\n      0x20\n        /* \"#utility.yul\":9534:9537   */\n      dup3\n        /* \"#utility.yul\":9530:9542   */\n      add\n        /* \"#utility.yul\":9523:9542   */\n      swap1\n      pop\n        /* \"#utility.yul\":9182:9548   */\n      swap2\n      swap1\n      pop\n      jump\t// out\n        /* \"#utility.yul\":9554:9973   */\n    tag_19:\n        /* \"#utility.yul\":9720:9724   */\n      0x00\n        /* \"#utility.yul\":9758:9760   */\n      0x20\n        /* \"#utility.yul\":9747:9756   */\n      dup3\n        /* \"#utility.yul\":9743:9761   */\n      add\n        /* \"#utility.yul\":9735:9761   */\n      swap1\n      pop\n        /* \"#utility.yul\":9807:9816   */\n      dup2\n        /* \"#utility.yul\":9801:9805   */\n      dup2\n        /* \"#utility.yul\":9797:9817   */\n      sub\n        /* \"#utility.yul\":9793:9794   */\n      0x00\n        /* \"#utility.yul\":9782:9791   */\n      dup4\n        /* \"#utility.yul\":9778:9795   */\n      add\n        /* \"#utility.yul\":9771:9818   */\n      mstore\n        /* \"#utility.yul\":9835:9966   */\n      tag_204\n        /* \"#utility.yul\":9961:9965   */\n      dup2\n        /* \"#utility.yul\":9835:9966   */\n      tag_88\n      jump\t// in\n    tag_204:\n        /* \"#utility.yul\":9827:9966   */\n      swap1\n      pop\n        /* \"#utility.yul\":9554:9973   */\n      swap2\n      swap1\n      pop\n      jump\t// out\n        /* \"#utility.yul\":9979:10159   */\n    tag_89:\n        /* \"#utility.yul\":10027:10104   */\n      0x4e487b7100000000000000000000000000000000000000000000000000000000\n        /* \"#utility.yul\":10024:10025   */\n      0x00\n        /* \"#utility.yul\":10017:10105   */\n      mstore\n        /* \"#utility.yul\":10124:10128   */\n      0x22\n        /* \"#utility.yul\":10121:10122   */\n      0x04\n        /* \"#utility.yul\":10114:10129   */\n      mstore\n        /* \"#utility.yul\":10148:10152   */\n      0x24\n        /* \"#utility.yul\":10145:10146   */\n      0x00\n        /* \"#utility.yul\":10138:10153   */\n      revert\n        /* \"#utility.yul\":10165:10485   */\n    tag_32:\n        /* \"#utility.yul\":10209:10215   */\n      0x00\n        /* \"#utility.yul\":10246:10247   */\n      0x02\n        /* \"#utility.yul\":10240:10244   */\n      dup3\n        /* \"#utility.yul\":10236:10248   */\n      div\n        /* \"#utility.yul\":10226:10248   */\n      swap1\n      pop\n        /* \"#utility.yul\":10293:10294   */\n      0x01\n        /* \"#utility.yul\":10287:10291   */\n      dup3\n        /* \"#utility.yul\":10283:10295   */\n      and\n        /* \"#utility.yul\":10314:10332   */\n      dup1\n        /* \"#utility.yul\":10304:10385   */\n      tag_207\n      jumpi\n        /* \"#utility.yul\":10370:10374   */\n      0x7f\n        /* \"#utility.yul\":10362:10368   */\n      dup3\n        /* \"#utility.yul\":10358:10375   */\n      and\n        /* \"#utility.yul\":10348:10375   */\n      swap2\n      pop\n        /* \"#utility.yul\":10304:10385   */\n    tag_207:\n        /* \"#utility.yul\":10432:10434   */\n      0x20\n        /* \"#utility.yul\":10424:10430   */\n      dup3\n        /* \"#utility.yul\":10421:10435   */\n      lt\n        /* \"#utility.yul\":10401:10419   */\n      dup2\n        /* \"#utility.yul\":10398:10436   */\n      sub\n        /* \"#utility.yul\":10395:10479   */\n      tag_208\n      jumpi\n        /* \"#utility.yul\":10451:10469   */\n      tag_209\n      tag_89\n      jump\t// in\n    tag_209:\n        /* \"#utility.yul\":10395:10479   */\n    tag_208:\n        /* \"#utility.yul\":10216:10485   */\n      pop\n        /* \"#utility.yul\":10165:10485   */\n      swap2\n      swap1\n      pop\n      jump\t// out\n        /* \"#utility.yul\":10491:10632   */\n    tag_90:\n        /* \"#utility.yul\":10540:10544   */\n      0x00\n        /* \"#utility.yul\":10563:10566   */\n      dup2\n        /* \"#utility.yul\":10555:10566   */\n      swap1\n      pop\n        /* \"#utility.yul\":10586:10589   */\n      dup2\n        /* \"#utility.yul\":10583:10584   */\n      0x00\n        /* \"#utility.yul\":10576:10590   */\n      mstore\n        /* \"#utility.yul\":10620:10624   */\n      0x20\n        /* \"#utility.yul\":10617:10618   */\n      0x00\n        /* \"#utility.yul\":10607:10625   */\n      keccak256\n        /* \"#utility.yul\":10599:10625   */\n      swap1\n      pop\n        /* \"#utility.yul\":10491:10632   */\n      swap2\n      swap1\n      pop\n      jump\t// out\n        /* \"#utility.yul\":10638:10731   */\n    tag_91:\n        /* \"#utility.yul\":10675:10681   */\n      0x00\n        /* \"#utility.yul\":10722:10724   */\n      0x20\n        /* \"#utility.yul\":10717:10719   */\n      0x1f\n        /* \"#utility.yul\":10710:10715   */\n      dup4\n        /* \"#utility.yul\":10706:10720   */\n      add\n        /* \"#utility.yul\":10702:10725   */\n      div\n        /* \"#utility.yul\":10692:10725   */\n      swap1\n      pop\n        /* \"#utility.yul\":10638:10731   */\n      swap2\n      swap1\n      pop\n      jump\t// out\n        /* \"#utility.yul\":10737:10844   */\n    tag_92:\n        /* \"#utility.yul\":10781:10789   */\n      0x00\n        /* \"#utility.yul\":10831:10836   */\n      dup3\n        /* \"#utility.yul\":10825:10829   */\n      dup3\n        /* \"#utility.yul\":10821:10837   */\n      shl\n        /* \"#utility.yul\":10800:10837   */\n      swap1\n      pop\n        /* \"#utility.yul\":10737:10844   */\n      swap3\n      swap2\n      pop\n      pop\n      jump\t// out\n        /* \"#utility.yul\":10850:11243   */\n    tag_93:\n        /* \"#utility.yul\":10919:10925   */\n      0x00\n        /* \"#utility.yul\":10969:10970   */\n      0x08\n        /* \"#utility.yul\":10957:10967   */\n      dup4\n        /* \"#utility.yul\":10953:10971   */\n      mul\n        /* \"#utility.yul\":10992:11089   */\n      tag_214\n        /* \"#utility.yul\":11022:11088   */\n      0xffffffffffffffffffffffffffffffffffffffffffffffffffffffffffffffff\n        /* \"#utility.yul\":11011:11020   */\n      dup3\n        /* \"#utility.yul\":10992:11089   */\n      tag_92\n      jump\t// in\n    tag_214:\n        /* \"#utility.yul\":11110:11149   */\n      tag_215\n        /* \"#utility.yul\":11140:11148   */\n      dup7\n        /* \"#utility.yul\":11129:11138   */\n      dup4\n        /* \"#utility.yul\":11110:11149   */\n      tag_92\n      jump\t// in\n    tag_215:\n        /* \"#utility.yul\":11098:11149   */\n      swap6\n      pop\n        /* \"#utility.yul\":11182:11186   */\n      dup1\n        /* \"#utility.yul\":11178:11187   */\n      not\n        /* \"#utility.yul\":11171:11176   */\n      dup5\n        /* \"#utility.yul\":11167:11188   */\n      and\n        /* \"#utility.yul\":11158:11188   */\n      swap4\n      pop\n        /* \"#utility.yul\":11231:11235   */\n      dup1\n        /* \"#utility.yul\":11221:11229   */\n      dup7\n        /* \"#utility.yul\":11217:11236   */\n      and\n        /* \"#utility.yul\":11210:11215   */\n      dup5\n        /* \"#utility.yul\":11207:11237   */\n      or\n        /* \"#utility.yul\":11197:11237   */\n      swap3\n      pop\n        /* \"#utility.yul\":10926:11243   */\n      pop\n      pop\n        /* \"#utility.yul\":10850:11243   */\n      swap4\n      swap3\n      pop\n      pop\n      pop\n      jump\t// out\n        /* \"#utility.yul\":11249:11309   */\n    tag_94:\n        /* \"#utility.yul\":11277:11280   */\n      0x00\n        /* \"#utility.yul\":11298:11303   */\n      dup2\n        /* \"#utility.yul\":11291:11303   */\n      swap1\n      pop\n        /* \"#utility.yul\":11249:11309   */\n      swap2\n      swap1\n      pop\n      jump\t// out\n        /* \"#utility.yul\":11315:11457   */\n    tag_95:\n        /* \"#utility.yul\":11365:11374   */\n      0x00\n        /* \"#utility.yul\":11398:11451   */\n      tag_218\n        /* \"#utility.yul\":11416:11450   */\n      tag_219\n        /* \"#utility.yul\":11425:11449   */\n      tag_220\n        /* \"#utility.yul\":11443:11448   */\n      dup5\n        /* \"#utility.yul\":11425:11449   */\n      tag_59\n      jump\t// in\n    tag_220:\n        /* \"#utility.yul\":11416:11450   */\n      tag_94\n      jump\t// in\n    tag_219:\n        /* \"#utility.yul\":11398:11451   */\n      tag_59\n      jump\t// in\n    tag_218:\n        /* \"#utility.yul\":11385:11451   */\n      swap1\n      pop\n        /* \"#utility.yul\":11315:11457   */\n      swap2\n      swap1\n      pop\n      jump\t// out\n        /* \"#utility.yul\":11463:11538   */\n    tag_96:\n        /* \"#utility.yul\":11506:11509   */\n      0x00\n        /* \"#utility.yul\":11527:11532   */\n      dup2\n        /* \"#utility.yul\":11520:11532   */\n      swap1\n      pop\n        /* \"#utility.yul\":11463:11538   */\n      swap2\n      swap1\n      pop\n      jump\t// out\n        /* \"#utility.yul\":11544:11813   */\n    tag_97:\n        /* \"#utility.yul\":11654:11693   */\n      tag_223\n        /* \"#utility.yul\":11685:11692   */\n      dup4\n        /* \"#utility.yul\":11654:11693   */\n      tag_95\n      jump\t// in\n    tag_223:\n        /* \"#utility.yul\":11715:11806   */\n      tag_224\n        /* \"#utility.yul\":11764:11805   */\n      tag_225\n        /* \"#utility.yul\":11788:11804   */\n      dup3\n        /* \"#utility.yul\":11764:11805   */\n      tag_96\n      jump\t// in\n    tag_225:\n        /* \"#utility.yul\":11756:11762   */\n      dup5\n        /* \"#utility.yul\":11749:11753   */\n      dup5\n        /* \"#utility.yul\":11743:11754   */\n      sload\n        /* \"#utility.yul\":11715:11806   */\n      tag_93\n      jump\t// in\n    tag_224:\n        /* \"#utility.yul\":11709:11713   */\n      dup3\n        /* \"#utility.yul\":11702:11807   */\n      sstore\n        /* \"#utility.yul\":11620:11813   */\n      pop\n        /* \"#utility.yul\":11544:11813   */\n      pop\n      pop\n      pop\n      jump\t// out\n        /* \"#utility.yul\":11819:11892   */\n    tag_98:\n        /* \"#utility.yul\":11864:11867   */\n      0x00\n        /* \"#utility.yul\":11819:11892   */\n      swap1\n      jump\t// out\n        /* \"#utility.yul\":11898:12087   */\n    tag_99:\n        /* \"#utility.yul\":11975:12007   */\n      tag_228\n      tag_98\n      jump\t// in\n    tag_228:\n        /* \"#utility.yul\":12016:12081   */\n      tag_229\n        /* \"#utility.yul\":12074:12080   */\n      dup2\n        /* \"#utility.yul\":12066:12072   */\n      dup5\n        /* \"#utility.yul\":12060:12064   */\n      dup5\n        /* \"#utility.yul\":12016:12081   */\n      tag_97\n      jump\t// in\n    tag_229:\n        /* \"#utility.yul\":11951:12087   */\n      pop\n        /* \"#utility.yul\":11898:12087   */\n      pop\n      pop\n      jump\t// out\n        /* \"#utility.yul\":12093:12279   */\n    tag_100:\n        /* \"#utility.yul\":12153:12273   */\n    tag_231:\n        /* \"#utility.yul\":12170:12173   */\n      dup2\n        /* \"#utility.yul\":12163:12168   */\n      dup2\n        /* \"#utility.yul\":12160:12174   */\n      lt\n        /* \"#utility.yul\":12153:12273   */\n      iszero\n      tag_233\n      jumpi\n        /* \"#utility.yul\":12224:12263   */\n      tag_234\n        /* \"#utility.yul\":12261:12262   */\n      0x00\n        /* \"#utility.yul\":12254:12259   */\n      dup3\n        /* \"#utility.yul\":12224:12263   */\n      tag_99\n      jump\t// in\n    tag_234:\n        /* \"#utility.yul\":12197:12198   */\n      0x01\n        /* \"#utility.yul\":12190:12195   */\n      dup2\n        /* \"#utility.yul\":12186:12199   */\n      add\n        /* \"#utility.yul\":12177:12199   */\n      swap1\n      pop\n        /* \"#utility.yul\":12153:12273   */\n      jump(tag_231)\n    tag_233:\n        /* \"#utility.yul\":12093:12279   */\n      pop\n      pop\n      jump\t// out\n        /* \"#utility.yul\":12285:12828   */\n    tag_101:\n        /* \"#utility.yul\":12386:12388   */\n      0x1f\n        /* \"#utility.yul\":12381:12384   */\n      dup3\n        /* \"#utility.yul\":12378:12389   */\n      gt\n        /* \"#utility.yul\":12375:12821   */\n      iszero\n      tag_236\n      jumpi\n        /* \"#utility.yul\":12420:12458   */\n      tag_237\n        /* \"#utility.yul\":12452:12457   */\n      dup2\n        /* \"#utility.yul\":12420:12458   */\n      tag_90\n      jump\t// in\n    tag_237:\n        /* \"#utility.yul\":12504:12533   */\n      tag_238\n        /* \"#utility.yul\":12522:12532   */\n      dup5\n        /* \"#utility.yul\":12504:12533   */\n      tag_91\n      jump\t// in\n    tag_238:\n        /* \"#utility.yul\":12494:12502   */\n      dup2\n        /* \"#utility.yul\":12490:12534   */\n      add\n        /* \"#utility.yul\":12687:12689   */\n      0x20\n        /* \"#utility.yul\":12675:12685   */\n      dup6\n        /* \"#utility.yul\":12672:12690   */\n      lt\n        /* \"#utility.yul\":12669:12718   */\n      iszero\n      tag_239\n      jumpi\n        /* \"#utility.yul\":12708:12716   */\n      dup2\n        /* \"#utility.yul\":12693:12716   */\n      swap1\n      pop\n        /* \"#utility.yul\":12669:12718   */\n    tag_239:\n        /* \"#utility.yul\":12731:12811   */\n      tag_240\n        /* \"#utility.yul\":12787:12809   */\n      tag_241\n        /* \"#utility.yul\":12805:12808   */\n      dup6\n        /* \"#utility.yul\":12787:12809   */\n      tag_91\n      jump\t// in\n    tag_241:\n        /* \"#utility.yul\":12777:12785   */\n      dup4\n        /* \"#utility.yul\":12773:12810   */\n      add\n        /* \"#utility.yul\":12760:12771   */\n      dup3\n        /* \"#utility.yul\":12731:12811   */\n      tag_100\n      jump\t// in\n    tag_240:\n        /* \"#utility.yul\":12390:12821   */\n      pop\n      pop\n        /* \"#utility.yul\":12375:12821   */\n    tag_236:\n        /* \"#utility.yul\":12285:12828   */\n      pop\n      pop\n      pop\n      jump\t// out\n        /* \"#utility.yul\":12834:12951   */\n    tag_102:\n        /* \"#utility.yul\":12888:12896   */\n      0x00\n        /* \"#utility.yul\":12938:12943   */\n      dup3\n        /* \"#utility.yul\":12932:12936   */\n      dup3\n        /* \"#utility.yul\":12928:12944   */\n      shr\n        /* \"#utility.yul\":12907:12944   */\n      swap1\n      pop\n        /* \"#utility.yul\":12834:12951   */\n      swap3\n      swap2\n      pop\n      pop\n      jump\t// out\n        /* \"#utility.yul\":12957:13126   */\n    tag_103:\n        /* \"#utility.yul\":13001:13007   */\n      0x00\n        /* \"#utility.yul\":13034:13085   */\n      tag_244\n        /* \"#utility.yul\":13082:13083   */\n      0x00\n        /* \"#utility.yul\":13078:13084   */\n      not\n        /* \"#utility.yul\":13070:13075   */\n      dup5\n        /* \"#utility.yul\":13067:13068   */\n      0x08\n        /* \"#utility.yul\":13063:13076   */\n      mul\n        /* \"#utility.yul\":13034:13085   */\n      tag_102\n      jump\t// in\n    tag_244:\n        /* \"#utility.yul\":13030:13086   */\n      not\n        /* \"#utility.yul\":13115:13119   */\n      dup1\n        /* \"#utility.yul\":13109:13113   */\n      dup4\n        /* \"#utility.yul\":13105:13120   */\n      and\n        /* \"#utility.yul\":13095:13120   */\n      swap2\n      pop\n        /* \"#utility.yul\":13008:13126   */\n      pop\n        /* \"#utility.yul\":12957:13126   */\n      swap3\n      swap2\n      pop\n      pop\n      jump\t// out\n        /* \"#utility.yul\":13131:13426   */\n    tag_104:\n        /* \"#utility.yul\":13207:13211   */\n      0x00\n        /* \"#utility.yul\":13353:13382   */\n      tag_246\n        /* \"#utility.yul\":13378:13381   */\n      dup4\n        /* \"#utility.yul\":13372:13376   */\n      dup4\n        /* \"#utility.yul\":13353:13382   */\n      tag_103\n      jump\t// in\n    tag_246:\n        /* \"#utility.yul\":13345:13382   */\n      swap2\n      pop\n        /* \"#utility.yul\":13415:13418   */\n      dup3\n        /* \"#utility.yul\":13412:13413   */\n      0x02\n        /* \"#utility.yul\":13408:13419   */\n      mul\n        /* \"#utility.yul\":13402:13406   */\n      dup3\n        /* \"#utility.yul\":13399:13420   */\n      or\n        /* \"#utility.yul\":13391:13420   */\n      swap1\n      pop\n        /* \"#utility.yul\":13131:13426   */\n      swap3\n      swap2\n      pop\n      pop\n      jump\t// out\n        /* \"#utility.yul\":13431:14826   */\n    tag_41:\n        /* \"#utility.yul\":13548:13585   */\n      tag_248\n        /* \"#utility.yul\":13581:13584   */\n      dup3\n        /* \"#utility.yul\":13548:13585   */\n      tag_79\n      jump\t// in\n    tag_248:\n        /* \"#utility.yul\":13650:13668   */\n      0xffffffffffffffff\n        /* \"#utility.yul\":13642:13648   */\n      dup2\n        /* \"#utility.yul\":13639:13669   */\n      gt\n        /* \"#utility.yul\":13636:13692   */\n      iszero\n      tag_249\n      jumpi\n        /* \"#utility.yul\":13672:13690   */\n      tag_250\n      tag_64\n      jump\t// in\n    tag_250:\n        /* \"#utility.yul\":13636:13692   */\n    tag_249:\n        /* \"#utility.yul\":13716:13754   */\n      tag_251\n        /* \"#utility.yul\":13748:13752   */\n      dup3\n        /* \"#utility.yul\":13742:13753   */\n      sload\n        /* \"#utility.yul\":13716:13754   */\n      tag_32\n      jump\t// in\n    tag_251:\n        /* \"#utility.yul\":13801:13868   */\n      tag_252\n        /* \"#utility.yul\":13861:13867   */\n      dup3\n        /* \"#utility.yul\":13853:13859   */\n      dup3\n        /* \"#utility.yul\":13847:13851   */\n      dup6\n        /* \"#utility.yul\":13801:13868   */\n      tag_101\n      jump\t// in\n    tag_252:\n        /* \"#utility.yul\":13895:13896   */\n      0x00\n        /* \"#utility.yul\":13919:13923   */\n      0x20\n        /* \"#utility.yul\":13906:13923   */\n      swap1\n      pop\n        /* \"#utility.yul\":13951:13953   */\n      0x1f\n        /* \"#utility.yul\":13943:13949   */\n      dup4\n        /* \"#utility.yul\":13940:13954   */\n      gt\n        /* \"#utility.yul\":13968:13969   */\n      0x01\n        /* \"#utility.yul\":13963:14581   */\n      dup2\n      eq\n      tag_254\n      jumpi\n        /* \"#utility.yul\":14625:14626   */\n      0x00\n        /* \"#utility.yul\":14642:14648   */\n      dup5\n        /* \"#utility.yul\":14639:14716   */\n      iszero\n      tag_255\n      jumpi\n        /* \"#utility.yul\":14691:14700   */\n      dup3\n        /* \"#utility.yul\":14686:14689   */\n      dup8\n        /* \"#utility.yul\":14682:14701   */\n      add\n        /* \"#utility.yul\":14676:14702   */\n      mload\n        /* \"#utility.yul\":14667:14702   */\n      swap1\n      pop\n        /* \"#utility.yul\":14639:14716   */\n    tag_255:\n        /* \"#utility.yul\":14742:14809   */\n      tag_256\n        /* \"#utility.yul\":14802:14808   */\n      dup6\n        /* \"#utility.yul\":14795:14800   */\n      dup3\n        /* \"#utility.yul\":14742:14809   */\n      tag_104\n      jump\t// in\n    tag_256:\n        /* \"#utility.yul\":14736:14740   */\n      dup7\n        /* \"#utility.yul\":14729:14810   */\n      sstore\n        /* \"#utility.yul\":14598:14820   */\n      pop\n        /* \"#utility.yul\":13933:14820   */\n      jump(tag_253)\n        /* \"#utility.yul\":13963:14581   */\n    tag_254:\n        /* \"#utility.yul\":14015:14019   */\n      0x1f\n        /* \"#utility.yul\":14011:14020   */\n      not\n        /* \"#utility.yul\":14003:14009   */\n      dup5\n        /* \"#utility.yul\":13999:14021   */\n      and\n        /* \"#utility.yul\":14049:14086   */\n      tag_257\n        /* \"#utility.yul\":14081:14085   */\n      dup7\n        /* \"#utility.yul\":14049:14086   */\n      tag_90\n      jump\t// in\n    tag_257:\n        /* \"#utility.yul\":14108:14109   */\n      0x00\n        /* \"#utility.yul\":14122:14330   */\n    tag_258:\n        /* \"#utility.yul\":14136:14143   */\n      dup3\n        /* \"#utility.yul\":14133:14134   */\n      dup2\n        /* \"#utility.yul\":14130:14144   */\n      lt\n        /* \"#utility.yul\":14122:14330   */\n      iszero\n      tag_260\n      jumpi\n        /* \"#utility.yul\":14215:14224   */\n      dup5\n        /* \"#utility.yul\":14210:14213   */\n      dup10\n        /* \"#utility.yul\":14206:14225   */\n      add\n        /* \"#utility.yul\":14200:14226   */\n      mload\n        /* \"#utility.yul\":14192:14198   */\n      dup3\n        /* \"#utility.yul\":14185:14227   */\n      sstore\n        /* \"#utility.yul\":14266:14267   */\n      0x01\n        /* \"#utility.yul\":14258:14264   */\n      dup3\n        /* \"#utility.yul\":14254:14268   */\n      add\n        /* \"#utility.yul\":14244:14268   */\n      swap2\n      pop\n        /* \"#utility.yul\":14313:14315   */\n      0x20\n        /* \"#utility.yul\":14302:14311   */\n      dup6\n        /* \"#utility.yul\":14298:14316   */\n      add\n        /* \"#utility.yul\":14285:14316   */\n      swap5\n      pop\n        /* \"#utility.yul\":14159:14163   */\n      0x20\n        /* \"#utility.yul\":14156:14157   */\n      dup2\n        /* \"#utility.yul\":14152:14164   */\n      add\n        /* \"#utility.yul\":14147:14164   */\n      swap1\n      pop\n        /* \"#utility.yul\":14122:14330   */\n      jump(tag_258)\n    tag_260:\n        /* \"#utility.yul\":14358:14364   */\n      dup7\n        /* \"#utility.yul\":14349:14356   */\n      dup4\n        /* \"#utility.yul\":14346:14365   */\n      lt\n        /* \"#utility.yul\":14343:14522   */\n      iszero\n      tag_261\n      jumpi\n        /* \"#utility.yul\":14416:14425   */\n      dup5\n        /* \"#utility.yul\":14411:14414   */\n      dup10\n        /* \"#utility.yul\":14407:14426   */\n      add\n        /* \"#utility.yul\":14401:14427   */\n      mload\n        /* \"#utility.yul\":14459:14507   */\n      tag_262\n        /* \"#utility.yul\":14501:14505   */\n      0x1f\n        /* \"#utility.yul\":14493:14499   */\n      dup10\n        /* \"#utility.yul\":14489:14506   */\n      and\n        /* \"#utility.yul\":14478:14487   */\n      dup3\n        /* \"#utility.yul\":14459:14507   */\n      tag_103\n      jump\t// in\n    tag_262:\n        /* \"#utility.yul\":14451:14457   */\n      dup4\n        /* \"#utility.yul\":14444:14508   */\n      sstore\n        /* \"#utility.yul\":14366:14522   */\n      pop\n        /* \"#utility.yul\":14343:14522   */\n    tag_261:\n        /* \"#utility.yul\":14568:14569   */\n      0x01\n        /* \"#utility.yul\":14564:14565   */\n      0x02\n        /* \"#utility.yul\":14556:14562   */\n      dup9\n        /* \"#utility.yul\":14552:14566   */\n      mul\n        /* \"#utility.yul\":14548:14570   */\n      add\n        /* \"#utility.yul\":14542:14546   */\n      dup9\n        /* \"#utility.yul\":14535:14571   */\n      sstore\n        /* \"#utility.yul\":13970:14581   */\n      pop\n      pop\n      pop\n        /* \"#utility.yul\":13933:14820   */\n    tag_253:\n      pop\n        /* \"#utility.yul\":13523:14826   */\n      pop\n      pop\n      pop\n        /* \"#utility.yul\":13431:14826   */\n      pop\n      pop\n      jump\t// out\n\n    auxdata: 0xa2646970667358221220288675783c6b01817c0ac66c4d59c598b3a78288046244285ef931ac34ce284564736f6c634300081a0033\n}\n",
				"bytecode": {
					"linkReferences": {},
					"object": "6080604052348015600e575f80fd5b50610acc8061001c5f395ff3fe608060405234801561000f575f80fd5b5060043610610034575f3560e01c8063b0adc8bc14610038578063ec0a093014610054575b5f80fd5b610052600480360381019061004d919061057c565b610084565b005b61006e600480360381019061006991906105e8565b610106565b60405161007b9190610735565b60405180910390f35b60018214806100935750600282145b6100d2576040517f08c379a00000000000000000000000000000000000000000000000000000000081526004016100c9906107af565b60405180910390fd5b805f808581526020019081526020015f205f8481526020019081526020015f2090600361010092919061023e565b50505050565b61010e61028a565b600182148061011d5750600282145b61015c576040517f08c379a0000000000000000000000000000000000000000000000000000000008152600401610153906107af565b60405180910390fd5b5f808481526020019081526020015f205f8381526020019081526020015f20600380602002604051908101604052809291905f905b828210156102325783820180546101a7906107fa565b80601f01602080910402602001604051908101604052809291908181526020018280546101d3906107fa565b801561021e5780601f106101f55761010080835404028352916020019161021e565b820191905f5260205f20905b81548152906001019060200180831161020157829003601f168201915b505050505081526020019060010190610191565b50505050905092915050565b8260038101928215610279579160200282015b8281111561027857825182908161026891906109c7565b5091602001919060010190610251565b5b50905061028691906102b1565b5090565b60405180606001604052806003905b60608152602001906001900390816102995790505090565b5b808211156102d0575f81816102c791906102d4565b506001016102b2565b5090565b5080546102e0906107fa565b5f825580601f106102f1575061030e565b601f0160209004905f5260205f209081019061030d9190610311565b5b50565b5b80821115610328575f815f905550600101610312565b5090565b5f604051905090565b5f80fd5b5f80fd5b5f819050919050565b61034f8161033d565b8114610359575f80fd5b50565b5f8135905061036a81610346565b92915050565b5f80fd5b5f601f19601f8301169050919050565b7f4e487b71000000000000000000000000000000000000000000000000000000005f52604160045260245ffd5b6103ba82610374565b810181811067ffffffffffffffff821117156103d9576103d8610384565b5b80604052505050565b5f6103eb61032c565b90506103f782826103b1565b919050565b5f67ffffffffffffffff82111561041657610415610384565b5b602082029050919050565b5f80fd5b5f80fd5b5f67ffffffffffffffff82111561044357610442610384565b5b61044c82610374565b9050602081019050919050565b828183375f83830152505050565b5f61047961047484610429565b6103e2565b90508281526020810184848401111561049557610494610425565b5b6104a0848285610459565b509392505050565b5f82601f8301126104bc576104bb610370565b5b81356104cc848260208601610467565b91505092915050565b5f6104e76104e2846103fc565b6103e2565b9050806020840283018581111561050157610500610421565b5b835b8181101561054857803567ffffffffffffffff81111561052657610525610370565b5b80860161053389826104a8565b85526020850194505050602081019050610503565b5050509392505050565b5f82601f83011261056657610565610370565b5b60036105738482856104d5565b91505092915050565b5f805f6060848603121561059357610592610335565b5b5f6105a08682870161035c565b93505060206105b18682870161035c565b925050604084013567ffffffffffffffff8111156105d2576105d1610339565b5b6105de86828701610552565b9150509250925092565b5f80604083850312156105fe576105fd610335565b5b5f61060b8582860161035c565b925050602061061c8582860161035c565b9150509250929050565b5f60039050919050565b5f81905092915050565b5f819050919050565b5f81519050919050565b5f82825260208201905092915050565b8281835e5f83830152505050565b5f61067582610643565b61067f818561064d565b935061068f81856020860161065d565b61069881610374565b840191505092915050565b5f6106ae838361066b565b905092915050565b5f602082019050919050565b5f6106cc82610626565b6106d68185610630565b9350836020820285016106e88561063a565b805f5b85811015610723578484038952815161070485826106a3565b945061070f836106b6565b925060208a019950506001810190506106eb565b50829750879550505050505092915050565b5f6020820190508181035f83015261074d81846106c2565b905092915050565b5f82825260208201905092915050565b7f496e76616c696420726f6f6d00000000000000000000000000000000000000005f82015250565b5f610799600c83610755565b91506107a482610765565b602082019050919050565b5f6020820190508181035f8301526107c68161078d565b9050919050565b7f4e487b71000000000000000000000000000000000000000000000000000000005f52602260045260245ffd5b5f600282049050600182168061081157607f821691505b602082108103610824576108236107cd565b5b50919050565b5f819050815f5260205f209050919050565b5f6020601f8301049050919050565b5f82821b905092915050565b5f600883026108867fffffffffffffffffffffffffffffffffffffffffffffffffffffffffffffffff8261084b565b610890868361084b565b95508019841693508086168417925050509392505050565b5f819050919050565b5f6108cb6108c66108c18461033d565b6108a8565b61033d565b9050919050565b5f819050919050565b6108e4836108b1565b6108f86108f0826108d2565b848454610857565b825550505050565b5f90565b61090c610900565b6109178184846108db565b505050565b5b8181101561093a5761092f5f82610904565b60018101905061091d565b5050565b601f82111561097f576109508161082a565b6109598461083c565b81016020851015610968578190505b61097c6109748561083c565b83018261091c565b50505b505050565b5f82821c905092915050565b5f61099f5f1984600802610984565b1980831691505092915050565b5f6109b78383610990565b9150826002028217905092915050565b6109d082610643565b67ffffffffffffffff8111156109e9576109e8610384565b5b6109f382546107fa565b6109fe82828561093e565b5f60209050601f831160018114610a2f575f8415610a1d578287015190505b610a2785826109ac565b865550610a8e565b601f198416610a3d8661082a565b5f5b82811015610a6457848901518255600182019150602085019450602081019050610a3f565b86831015610a815784890151610a7d601f891682610990565b8355505b6001600288020188555050505b50505050505056fea2646970667358221220288675783c6b01817c0ac66c4d59c598b3a78288046244285ef931ac34ce284564736f6c634300081a0033",
					"opcodes": "PUSH1 0x80 PUSH1 0x40 MSTORE CALLVALUE DUP1 ISZERO PUSH1 0xE JUMPI PUSH0 DUP1 REVERT JUMPDEST POP PUSH2 0xACC DUP1 PUSH2 0x1C PUSH0 CODECOPY PUSH0 RETURN INVALID PUSH1 0x80 PUSH1 0x40 MSTORE CALLVALUE DUP1 ISZERO PUSH2 0xF JUMPI PUSH0 DUP1 REVERT JUMPDEST POP PUSH1 0x4 CALLDATASIZE LT PUSH2 0x34 JUMPI PUSH0 CALLDATALOAD PUSH1 0xE0 SHR DUP1 PUSH4 0xB0ADC8BC EQ PUSH2 0x38 JUMPI DUP1 PUSH4 0xEC0A0930 EQ PUSH2 0x54 JUMPI JUMPDEST PUSH0 DUP1 REVERT JUMPDEST PUSH2 0x52 PUSH1 0x4 DUP1 CALLDATASIZE SUB DUP2 ADD SWAP1 PUSH2 0x4D SWAP2 SWAP1 PUSH2 0x57C JUMP JUMPDEST PUSH2 0x84 JUMP JUMPDEST STOP JUMPDEST PUSH2 0x6E PUSH1 0x4 DUP1 CALLDATASIZE SUB DUP2 ADD SWAP1 PUSH2 0x69 SWAP2 SWAP1 PUSH2 0x5E8 JUMP JUMPDEST PUSH2 0x106 JUMP JUMPDEST PUSH1 0x40 MLOAD PUSH2 0x7B SWAP2 SWAP1 PUSH2 0x735 JUMP JUMPDEST PUSH1 0x40 MLOAD DUP1 SWAP2 SUB SWAP1 RETURN JUMPDEST PUSH1 0x1 DUP3 EQ DUP1 PUSH2 0x93 JUMPI POP PUSH1 0x2 DUP3 EQ JUMPDEST PUSH2 0xD2 JUMPI PUSH1 0x40 MLOAD PUSH32 0x8C379A000000000000000000000000000000000000000000000000000000000 DUP2 MSTORE PUSH1 0x4 ADD PUSH2 0xC9 SWAP1 PUSH2 0x7AF JUMP JUMPDEST PUSH1 0x40 MLOAD DUP1 SWAP2 SUB SWAP1 REVERT JUMPDEST DUP1 PUSH0 DUP1 DUP6 DUP2 MSTORE PUSH1 0x20 ADD SWAP1 DUP2 MSTORE PUSH1 0x20 ADD PUSH0 KECCAK256 PUSH0 DUP5 DUP2 MSTORE PUSH1 0x20 ADD SWAP1 DUP2 MSTORE PUSH1 0x20 ADD PUSH0 KECCAK256 SWAP1 PUSH1 0x3 PUSH2 0x100 SWAP3 SWAP2 SWAP1 PUSH2 0x23E JUMP JUMPDEST POP POP POP POP JUMP JUMPDEST PUSH2 0x10E PUSH2 0x28A JUMP JUMPDEST PUSH1 0x1 DUP3 EQ DUP1 PUSH2 0x11D JUMPI POP PUSH1 0x2 DUP3 EQ JUMPDEST PUSH2 0x15C JUMPI PUSH1 0x40 MLOAD PUSH32 0x8C379A000000000000000000000000000000000000000000000000000000000 DUP2 MSTORE PUSH1 0x4 ADD PUSH2 0x153 SWAP1 PUSH2 0x7AF JUMP JUMPDEST PUSH1 0x40 MLOAD DUP1 SWAP2 SUB SWAP1 REVERT JUMPDEST PUSH0 DUP1 DUP5 DUP2 MSTORE PUSH1 0x20 ADD SWAP1 DUP2 MSTORE PUSH1 0x20 ADD PUSH0 KECCAK256 PUSH0 DUP4 DUP2 MSTORE PUSH1 0x20 ADD SWAP1 DUP2 MSTORE PUSH1 0x20 ADD PUSH0 KECCAK256 PUSH1 0x3 DUP1 PUSH1 0x20 MUL PUSH1 0x40 MLOAD SWAP1 DUP2 ADD PUSH1 0x40 MSTORE DUP1 SWAP3 SWAP2 SWAP1 PUSH0 SWAP1 JUMPDEST DUP3 DUP3 LT ISZERO PUSH2 0x232 JUMPI DUP4 DUP3 ADD DUP1 SLOAD PUSH2 0x1A7 SWAP1 PUSH2 0x7FA JUMP JUMPDEST DUP1 PUSH1 0x1F ADD PUSH1 0x20 DUP1 SWAP2 DIV MUL PUSH1 0x20 ADD PUSH1 0x40 MLOAD SWAP1 DUP2 ADD PUSH1 0x40 MSTORE DUP1 SWAP3 SWAP2 SWAP1 DUP2 DUP2 MSTORE PUSH1 0x20 ADD DUP3 DUP1 SLOAD PUSH2 0x1D3 SWAP1 PUSH2 0x7FA JUMP JUMPDEST DUP1 ISZERO PUSH2 0x21E JUMPI DUP1 PUSH1 0x1F LT PUSH2 0x1F5 JUMPI PUSH2 0x100 DUP1 DUP4 SLOAD DIV MUL DUP4 MSTORE SWAP2 PUSH1 0x20 ADD SWAP2 PUSH2 0x21E JUMP JUMPDEST DUP3 ADD SWAP2 SWAP1 PUSH0 MSTORE PUSH1 0x20 PUSH0 KECCAK256 SWAP1 JUMPDEST DUP2 SLOAD DUP2 MSTORE SWAP1 PUSH1 0x1 ADD SWAP1 PUSH1 0x20 ADD DUP1 DUP4 GT PUSH2 0x201 JUMPI DUP3 SWAP1 SUB PUSH1 0x1F AND DUP3 ADD SWAP2 JUMPDEST POP POP POP POP POP DUP2 MSTORE PUSH1 0x20 ADD SWAP1 PUSH1 0x1 ADD SWAP1 PUSH2 0x191 JUMP JUMPDEST POP POP POP POP SWAP1 POP SWAP3 SWAP2 POP POP JUMP JUMPDEST DUP3 PUSH1 0x3 DUP2 ADD SWAP3 DUP3 ISZERO PUSH2 0x279 JUMPI SWAP2 PUSH1 0x20 MUL DUP3 ADD JUMPDEST DUP3 DUP2 GT ISZERO PUSH2 0x278 JUMPI DUP3 MLOAD DUP3 SWAP1 DUP2 PUSH2 0x268 SWAP2 SWAP1 PUSH2 0x9C7 JUMP JUMPDEST POP SWAP2 PUSH1 0x20 ADD SWAP2 SWAP1 PUSH1 0x1 ADD SWAP1 PUSH2 0x251 JUMP JUMPDEST JUMPDEST POP SWAP1 POP PUSH2 0x286 SWAP2 SWAP1 PUSH2 0x2B1 JUMP JUMPDEST POP SWAP1 JUMP JUMPDEST PUSH1 0x40 MLOAD DUP1 PUSH1 0x60 ADD PUSH1 0x40 MSTORE DUP1 PUSH1 0x3 SWAP1 JUMPDEST PUSH1 0x60 DUP2 MSTORE PUSH1 0x20 ADD SWAP1 PUSH1 0x1 SWAP1 SUB SWAP1 DUP2 PUSH2 0x299 JUMPI SWAP1 POP POP SWAP1 JUMP JUMPDEST JUMPDEST DUP1 DUP3 GT ISZERO PUSH2 0x2D0 JUMPI PUSH0 DUP2 DUP2 PUSH2 0x2C7 SWAP2 SWAP1 PUSH2 0x2D4 JUMP JUMPDEST POP PUSH1 0x1 ADD PUSH2 0x2B2 JUMP JUMPDEST POP SWAP1 JUMP JUMPDEST POP DUP1 SLOAD PUSH2 0x2E0 SWAP1 PUSH2 0x7FA JUMP JUMPDEST PUSH0 DUP3 SSTORE DUP1 PUSH1 0x1F LT PUSH2 0x2F1 JUMPI POP PUSH2 0x30E JUMP JUMPDEST PUSH1 0x1F ADD PUSH1 0x20 SWAP1 DIV SWAP1 PUSH0 MSTORE PUSH1 0x20 PUSH0 KECCAK256 SWAP1 DUP2 ADD SWAP1 PUSH2 0x30D SWAP2 SWAP1 PUSH2 0x311 JUMP JUMPDEST JUMPDEST POP JUMP JUMPDEST JUMPDEST DUP1 DUP3 GT ISZERO PUSH2 0x328 JUMPI PUSH0 DUP2 PUSH0 SWAP1 SSTORE POP PUSH1 0x1 ADD PUSH2 0x312 JUMP JUMPDEST POP SWAP1 JUMP JUMPDEST PUSH0 PUSH1 0x40 MLOAD SWAP1 POP SWAP1 JUMP JUMPDEST PUSH0 DUP1 REVERT JUMPDEST PUSH0 DUP1 REVERT JUMPDEST PUSH0 DUP2 SWAP1 POP SWAP2 SWAP1 POP JUMP JUMPDEST PUSH2 0x34F DUP2 PUSH2 0x33D JUMP JUMPDEST DUP2 EQ PUSH2 0x359 JUMPI PUSH0 DUP1 REVERT JUMPDEST POP JUMP JUMPDEST PUSH0 DUP2 CALLDATALOAD SWAP1 POP PUSH2 0x36A DUP2 PUSH2 0x346 JUMP JUMPDEST SWAP3 SWAP2 POP POP JUMP JUMPDEST PUSH0 DUP1 REVERT JUMPDEST PUSH0 PUSH1 0x1F NOT PUSH1 0x1F DUP4 ADD AND SWAP1 POP SWAP2 SWAP1 POP JUMP JUMPDEST PUSH32 0x4E487B7100000000000000000000000000000000000000000000000000000000 PUSH0 MSTORE PUSH1 0x41 PUSH1 0x4 MSTORE PUSH1 0x24 PUSH0 REVERT JUMPDEST PUSH2 0x3BA DUP3 PUSH2 0x374 JUMP JUMPDEST DUP2 ADD DUP2 DUP2 LT PUSH8 0xFFFFFFFFFFFFFFFF DUP3 GT OR ISZERO PUSH2 0x3D9 JUMPI PUSH2 0x3D8 PUSH2 0x384 JUMP JUMPDEST JUMPDEST DUP1 PUSH1 0x40 MSTORE POP POP POP JUMP JUMPDEST PUSH0 PUSH2 0x3EB PUSH2 0x32C JUMP JUMPDEST SWAP1 POP PUSH2 0x3F7 DUP3 DUP3 PUSH2 0x3B1 JUMP JUMPDEST SWAP2 SWAP1 POP JUMP JUMPDEST PUSH0 PUSH8 0xFFFFFFFFFFFFFFFF DUP3 GT ISZERO PUSH2 0x416 JUMPI PUSH2 0x415 PUSH2 0x384 JUMP JUMPDEST JUMPDEST PUSH1 0x20 DUP3 MUL SWAP1 POP SWAP2 SWAP1 POP JUMP JUMPDEST PUSH0 DUP1 REVERT JUMPDEST PUSH0 DUP1 REVERT JUMPDEST PUSH0 PUSH8 0xFFFFFFFFFFFFFFFF DUP3 GT ISZERO PUSH2 0x443 JUMPI PUSH2 0x442 PUSH2 0x384 JUMP JUMPDEST JUMPDEST PUSH2 0x44C DUP3 PUSH2 0x374 JUMP JUMPDEST SWAP1 POP PUSH1 0x20 DUP2 ADD SWAP1 POP SWAP2 SWAP1 POP JUMP JUMPDEST DUP3 DUP2 DUP4 CALLDATACOPY PUSH0 DUP4 DUP4 ADD MSTORE POP POP POP JUMP JUMPDEST PUSH0 PUSH2 0x479 PUSH2 0x474 DUP5 PUSH2 0x429 JUMP JUMPDEST PUSH2 0x3E2 JUMP JUMPDEST SWAP1 POP DUP3 DUP2 MSTORE PUSH1 0x20 DUP2 ADD DUP5 DUP5 DUP5 ADD GT ISZERO PUSH2 0x495 JUMPI PUSH2 0x494 PUSH2 0x425 JUMP JUMPDEST JUMPDEST PUSH2 0x4A0 DUP5 DUP3 DUP6 PUSH2 0x459 JUMP JUMPDEST POP SWAP4 SWAP3 POP POP POP JUMP JUMPDEST PUSH0 DUP3 PUSH1 0x1F DUP4 ADD SLT PUSH2 0x4BC JUMPI PUSH2 0x4BB PUSH2 0x370 JUMP JUMPDEST JUMPDEST DUP2 CALLDATALOAD PUSH2 0x4CC DUP5 DUP3 PUSH1 0x20 DUP7 ADD PUSH2 0x467 JUMP JUMPDEST SWAP2 POP POP SWAP3 SWAP2 POP POP JUMP JUMPDEST PUSH0 PUSH2 0x4E7 PUSH2 0x4E2 DUP5 PUSH2 0x3FC JUMP JUMPDEST PUSH2 0x3E2 JUMP JUMPDEST SWAP1 POP DUP1 PUSH1 0x20 DUP5 MUL DUP4 ADD DUP6 DUP2 GT ISZERO PUSH2 0x501 JUMPI PUSH2 0x500 PUSH2 0x421 JUMP JUMPDEST JUMPDEST DUP4 JUMPDEST DUP2 DUP2 LT ISZERO PUSH2 0x548 JUMPI DUP1 CALLDATALOAD PUSH8 0xFFFFFFFFFFFFFFFF DUP2 GT ISZERO PUSH2 0x526 JUMPI PUSH2 0x525 PUSH2 0x370 JUMP JUMPDEST JUMPDEST DUP1 DUP7 ADD PUSH2 0x533 DUP10 DUP3 PUSH2 0x4A8 JUMP JUMPDEST DUP6 MSTORE PUSH1 0x20 DUP6 ADD SWAP5 POP POP POP PUSH1 0x20 DUP2 ADD SWAP1 POP PUSH2 0x503 JUMP JUMPDEST POP POP POP SWAP4 SWAP3 POP POP POP JUMP JUMPDEST PUSH0 DUP3 PUSH1 0x1F DUP4 ADD SLT PUSH2 0x566 JUMPI PUSH2 0x565 PUSH2 0x370 JUMP JUMPDEST JUMPDEST PUSH1 0x3 PUSH2 0x573 DUP5 DUP3 DUP6 PUSH2 0x4D5 JUMP JUMPDEST SWAP2 POP POP SWAP3 SWAP2 POP POP JUMP JUMPDEST PUSH0 DUP1 PUSH0 PUSH1 0x60 DUP5 DUP7 SUB SLT ISZERO PUSH2 0x593 JUMPI PUSH2 0x592 PUSH2 0x335 JUMP JUMPDEST JUMPDEST PUSH0 PUSH2 0x5A0 DUP7 DUP3 DUP8 ADD PUSH2 0x35C JUMP JUMPDEST SWAP4 POP POP PUSH1 0x20 PUSH2 0x5B1 DUP7 DUP3 DUP8 ADD PUSH2 0x35C JUMP JUMPDEST SWAP3 POP POP PUSH1 0x40 DUP5 ADD CALLDATALOAD PUSH8 0xFFFFFFFFFFFFFFFF DUP2 GT ISZERO PUSH2 0x5D2 JUMPI PUSH2 0x5D1 PUSH2 0x339 JUMP JUMPDEST JUMPDEST PUSH2 0x5DE DUP7 DUP3 DUP8 ADD PUSH2 0x552 JUMP JUMPDEST SWAP2 POP POP SWAP3 POP SWAP3 POP SWAP3 JUMP JUMPDEST PUSH0 DUP1 PUSH1 0x40 DUP4 DUP6 SUB SLT ISZERO PUSH2 0x5FE JUMPI PUSH2 0x5FD PUSH2 0x335 JUMP JUMPDEST JUMPDEST PUSH0 PUSH2 0x60B DUP6 DUP3 DUP7 ADD PUSH2 0x35C JUMP JUMPDEST SWAP3 POP POP PUSH1 0x20 PUSH2 0x61C DUP6 DUP3 DUP7 ADD PUSH2 0x35C JUMP JUMPDEST SWAP2 POP POP SWAP3 POP SWAP3 SWAP1 POP JUMP JUMPDEST PUSH0 PUSH1 0x3 SWAP1 POP SWAP2 SWAP1 POP JUMP JUMPDEST PUSH0 DUP2 SWAP1 POP SWAP3 SWAP2 POP POP JUMP JUMPDEST PUSH0 DUP2 SWAP1 POP SWAP2 SWAP1 POP JUMP JUMPDEST PUSH0 DUP2 MLOAD SWAP1 POP SWAP2 SWAP1 POP JUMP JUMPDEST PUSH0 DUP3 DUP3 MSTORE PUSH1 0x20 DUP3 ADD SWAP1 POP SWAP3 SWAP2 POP POP JUMP JUMPDEST DUP3 DUP2 DUP4 MCOPY PUSH0 DUP4 DUP4 ADD MSTORE POP POP POP JUMP JUMPDEST PUSH0 PUSH2 0x675 DUP3 PUSH2 0x643 JUMP JUMPDEST PUSH2 0x67F DUP2 DUP6 PUSH2 0x64D JUMP JUMPDEST SWAP4 POP PUSH2 0x68F DUP2 DUP6 PUSH1 0x20 DUP7 ADD PUSH2 0x65D JUMP JUMPDEST PUSH2 0x698 DUP2 PUSH2 0x374 JUMP JUMPDEST DUP5 ADD SWAP2 POP POP SWAP3 SWAP2 POP POP JUMP JUMPDEST PUSH0 PUSH2 0x6AE DUP4 DUP4 PUSH2 0x66B JUMP JUMPDEST SWAP1 POP SWAP3 SWAP2 POP POP JUMP JUMPDEST PUSH0 PUSH1 0x20 DUP3 ADD SWAP1 POP SWAP2 SWAP1 POP JUMP JUMPDEST PUSH0 PUSH2 0x6CC DUP3 PUSH2 0x626 JUMP JUMPDEST PUSH2 0x6D6 DUP2 DUP6 PUSH2 0x630 JUMP JUMPDEST SWAP4 POP DUP4 PUSH1 0x20 DUP3 MUL DUP6 ADD PUSH2 0x6E8 DUP6 PUSH2 0x63A JUMP JUMPDEST DUP1 PUSH0 JUMPDEST DUP6 DUP2 LT ISZERO PUSH2 0x723 JUMPI DUP5 DUP5 SUB DUP10 MSTORE DUP2 MLOAD PUSH2 0x704 DUP6 DUP3 PUSH2 0x6A3 JUMP JUMPDEST SWAP5 POP PUSH2 0x70F DUP4 PUSH2 0x6B6 JUMP JUMPDEST SWAP3 POP PUSH1 0x20 DUP11 ADD SWAP10 POP POP PUSH1 0x1 DUP2 ADD SWAP1 POP PUSH2 0x6EB JUMP JUMPDEST POP DUP3 SWAP8 POP DUP8 SWAP6 POP POP POP POP POP POP SWAP3 SWAP2 POP POP JUMP JUMPDEST PUSH0 PUSH1 0x20 DUP3 ADD SWAP1 POP DUP2 DUP2 SUB PUSH0 DUP4 ADD MSTORE PUSH2 0x74D DUP2 DUP5 PUSH2 0x6C2 JUMP JUMPDEST SWAP1 POP SWAP3 SWAP2 POP POP JUMP JUMPDEST PUSH0 DUP3 DUP3 MSTORE PUSH1 0x20 DUP3 ADD SWAP1 POP SWAP3 SWAP2 POP POP JUMP JUMPDEST PUSH32 0x496E76616C696420726F6F6D0000000000000000000000000000000000000000 PUSH0 DUP3 ADD MSTORE POP JUMP JUMPDEST PUSH0 PUSH2 0x799 PUSH1 0xC DUP4 PUSH2 0x755 JUMP JUMPDEST SWAP2 POP PUSH2 0x7A4 DUP3 PUSH2 0x765 JUMP JUMPDEST PUSH1 0x20 DUP3 ADD SWAP1 POP SWAP2 SWAP1 POP JUMP JUMPDEST PUSH0 PUSH1 0x20 DUP3 ADD SWAP1 POP DUP2 DUP2 SUB PUSH0 DUP4 ADD MSTORE PUSH2 0x7C6 DUP2 PUSH2 0x78D JUMP JUMPDEST SWAP1 POP SWAP2 SWAP1 POP JUMP JUMPDEST PUSH32 0x4E487B7100000000000000000000000000000000000000000000000000000000 PUSH0 MSTORE PUSH1 0x22 PUSH1 0x4 MSTORE PUSH1 0x24 PUSH0 REVERT JUMPDEST PUSH0 PUSH1 0x2 DUP3 DIV SWAP1 POP PUSH1 0x1 DUP3 AND DUP1 PUSH2 0x811 JUMPI PUSH1 0x7F DUP3 AND SWAP2 POP JUMPDEST PUSH1 0x20 DUP3 LT DUP2 SUB PUSH2 0x824 JUMPI PUSH2 0x823 PUSH2 0x7CD JUMP JUMPDEST JUMPDEST POP SWAP2 SWAP1 POP JUMP JUMPDEST PUSH0 DUP2 SWAP1 POP DUP2 PUSH0 MSTORE PUSH1 0x20 PUSH0 KECCAK256 SWAP1 POP SWAP2 SWAP1 POP JUMP JUMPDEST PUSH0 PUSH1 0x20 PUSH1 0x1F DUP4 ADD DIV SWAP1 POP SWAP2 SWAP1 POP JUMP JUMPDEST PUSH0 DUP3 DUP3 SHL SWAP1 POP SWAP3 SWAP2 POP POP JUMP JUMPDEST PUSH0 PUSH1 0x8 DUP4 MUL PUSH2 0x886 PUSH32 0xFFFFFFFFFFFFFFFFFFFFFFFFFFFFFFFFFFFFFFFFFFFFFFFFFFFFFFFFFFFFFFFF DUP3 PUSH2 0x84B JUMP JUMPDEST PUSH2 0x890 DUP7 DUP4 PUSH2 0x84B JUMP JUMPDEST SWAP6 POP DUP1 NOT DUP5 AND SWAP4 POP DUP1 DUP7 AND DUP5 OR SWAP3 POP POP POP SWAP4 SWAP3 POP POP POP JUMP JUMPDEST PUSH0 DUP2 SWAP1 POP SWAP2 SWAP1 POP JUMP JUMPDEST PUSH0 PUSH2 0x8CB PUSH2 0x8C6 PUSH2 0x8C1 DUP5 PUSH2 0x33D JUMP JUMPDEST PUSH2 0x8A8 JUMP JUMPDEST PUSH2 0x33D JUMP JUMPDEST SWAP1 POP SWAP2 SWAP1 POP JUMP JUMPDEST PUSH0 DUP2 SWAP1 POP SWAP2 SWAP1 POP JUMP JUMPDEST PUSH2 0x8E4 DUP4 PUSH2 0x8B1 JUMP JUMPDEST PUSH2 0x8F8 PUSH2 0x8F0 DUP3 PUSH2 0x8D2 JUMP JUMPDEST DUP5 DUP5 SLOAD PUSH2 0x857 JUMP JUMPDEST DUP3 SSTORE POP POP POP POP JUMP JUMPDEST PUSH0 SWAP1 JUMP JUMPDEST PUSH2 0x90C PUSH2 0x900 JUMP JUMPDEST PUSH2 0x917 DUP2 DUP5 DUP5 PUSH2 0x8DB JUMP JUMPDEST POP POP POP JUMP JUMPDEST JUMPDEST DUP2 DUP2 LT ISZERO PUSH2 0x93A JUMPI PUSH2 0x92F PUSH0 DUP3 PUSH2 0x904 JUMP JUMPDEST PUSH1 0x1 DUP2 ADD SWAP1 POP PUSH2 0x91D JUMP JUMPDEST POP POP JUMP JUMPDEST PUSH1 0x1F DUP3 GT ISZERO PUSH2 0x97F JUMPI PUSH2 0x950 DUP2 PUSH2 0x82A JUMP JUMPDEST PUSH2 0x959 DUP5 PUSH2 0x83C JUMP JUMPDEST DUP2 ADD PUSH1 0x20 DUP6 LT ISZERO PUSH2 0x968 JUMPI DUP2 SWAP1 POP JUMPDEST PUSH2 0x97C PUSH2 0x974 DUP6 PUSH2 0x83C JUMP JUMPDEST DUP4 ADD DUP3 PUSH2 0x91C JUMP JUMPDEST POP POP JUMPDEST POP POP POP JUMP JUMPDEST PUSH0 DUP3 DUP3 SHR SWAP1 POP SWAP3 SWAP2 POP POP JUMP JUMPDEST PUSH0 PUSH2 0x99F PUSH0 NOT DUP5 PUSH1 0x8 MUL PUSH2 0x984 JUMP JUMPDEST NOT DUP1 DUP4 AND SWAP2 POP POP SWAP3 SWAP2 POP POP JUMP JUMPDEST PUSH0 PUSH2 0x9B7 DUP4 DUP4 PUSH2 0x990 JUMP JUMPDEST SWAP2 POP DUP3 PUSH1 0x2 MUL DUP3 OR SWAP1 POP SWAP3 SWAP2 POP POP JUMP JUMPDEST PUSH2 0x9D0 DUP3 PUSH2 0x643 JUMP JUMPDEST PUSH8 0xFFFFFFFFFFFFFFFF DUP2 GT ISZERO PUSH2 0x9E9 JUMPI PUSH2 0x9E8 PUSH2 0x384 JUMP JUMPDEST JUMPDEST PUSH2 0x9F3 DUP3 SLOAD PUSH2 0x7FA JUMP JUMPDEST PUSH2 0x9FE DUP3 DUP3 DUP6 PUSH2 0x93E JUMP JUMPDEST PUSH0 PUSH1 0x20 SWAP1 POP PUSH1 0x1F DUP4 GT PUSH1 0x1 DUP2 EQ PUSH2 0xA2F JUMPI PUSH0 DUP5 ISZERO PUSH2 0xA1D JUMPI DUP3 DUP8 ADD MLOAD SWAP1 POP JUMPDEST PUSH2 0xA27 DUP6 DUP3 PUSH2 0x9AC JUMP JUMPDEST DUP7 SSTORE POP PUSH2 0xA8E JUMP JUMPDEST PUSH1 0x1F NOT DUP5 AND PUSH2 0xA3D DUP7 PUSH2 0x82A JUMP JUMPDEST PUSH0 JUMPDEST DUP3 DUP2 LT ISZERO PUSH2 0xA64 JUMPI DUP5 DUP10 ADD MLOAD DUP3 SSTORE PUSH1 0x1 DUP3 ADD SWAP2 POP PUSH1 0x20 DUP6 ADD SWAP5 POP PUSH1 0x20 DUP2 ADD SWAP1 POP PUSH2 0xA3F JUMP JUMPDEST DUP7 DUP4 LT ISZERO PUSH2 0xA81 JUMPI DUP5 DUP10 ADD MLOAD PUSH2 0xA7D PUSH1 0x1F DUP10 AND DUP3 PUSH2 0x990 JUMP JUMPDEST DUP4 SSTORE POP JUMPDEST PUSH1 0x1 PUSH1 0x2 DUP9 MUL ADD DUP9 SSTORE POP POP POP JUMPDEST POP POP POP POP POP POP JUMP INVALID LOG2 PUSH5 0x6970667358 0x22 SLT KECCAK256 0x28 DUP7 PUSH22 0x783C6B01817C0AC66C4D59C598B3A78288046244285E 0xF9 BALANCE 0xAC CALLVALUE 0xCE 0x28 GASLIMIT PUSH5 0x736F6C6343 STOP ADDMOD BYTE STOP CALLER "
				},
				"gasEstimates": {
					"creation": {
						"codeDepositCost": "552800",
						"executionCost": "585",
						"totalCost": "553385"
					},
					"external": {
						"addGuests(uint256,uint256,string[3])": "infinite",
						"getGuests(uint256,uint256)": "infinite"
					}
				},
				"methodIdentifiers": {
					"addGuests(uint256,uint256,string[3])": "b0adc8bc",
					"getGuests(uint256,uint256)": "ec0a0930"
				}
			},
			"storageLayout": {
				"storage": [
					{
						"astId": 604,
						"contract": "solidity100/6.solidity100_250117.sol:Q60",
						"label": "roomBookings",
						"offset": 0,
						"slot": "0",
						"type": "t_mapping(t_uint256,t_mapping(t_uint256,t_array(t_string_storage)3_storage))"
					}
				],
				"types": {
					"t_array(t_string_storage)3_storage": {
						"base": "t_string_storage",
						"encoding": "inplace",
						"label": "string[3]",
						"numberOfBytes": "96"
					},
					"t_mapping(t_uint256,t_array(t_string_storage)3_storage)": {
						"encoding": "mapping",
						"key": "t_uint256",
						"label": "mapping(uint256 => string[3])",
						"numberOfBytes": "32",
						"value": "t_array(t_string_storage)3_storage"
					},
					"t_mapping(t_uint256,t_mapping(t_uint256,t_array(t_string_storage)3_storage))": {
						"encoding": "mapping",
						"key": "t_uint256",
						"label": "mapping(uint256 => mapping(uint256 => string[3]))",
						"numberOfBytes": "32",
						"value": "t_mapping(t_uint256,t_array(t_string_storage)3_storage)"
					},
					"t_string_storage": {
						"encoding": "bytes",
						"label": "string",
						"numberOfBytes": "32"
					},
					"t_uint256": {
						"encoding": "inplace",
						"label": "uint256",
						"numberOfBytes": "32"
					}
				}
			},
			"userdoc": {
				"kind": "user",
				"methods": {},
				"version": 1
			}
		}
	}
}