{
	"solidity100/5.solidity100_250114.sol": {
		"Q42": {
			"abi": [
				{
					"inputs": [
						{
							"internalType": "string",
							"name": "_name",
							"type": "string"
						}
					],
					"name": "newCustomer",
					"outputs": [
						{
							"components": [
								{
									"internalType": "string",
									"name": "name",
									"type": "string"
								},
								{
									"internalType": "uint256",
									"name": "number",
									"type": "uint256"
								},
								{
									"internalType": "address",
									"name": "personalAddress",
									"type": "address"
								}
							],
							"internalType": "struct Q42.Customer",
							"name": "",
							"type": "tuple"
						}
					],
					"stateMutability": "view",
					"type": "function"
				}
			],
			"devdoc": {
				"kind": "dev",
				"methods": {},
				"version": 1
			},
			"evm": {
				"assembly": "    /* \"solidity100/5.solidity100_250114.sol\":791:1537  contract Q42 {... */\n  mstore(0x40, 0x80)\n  callvalue\n  dup1\n  iszero\n  tag_1\n  jumpi\n  0x00\n  dup1\n  revert\ntag_1:\n  pop\n  dataSize(sub_0)\n  dup1\n  dataOffset(sub_0)\n  0x00\n  codecopy\n  0x00\n  return\nstop\n\nsub_0: assembly {\n        /* \"solidity100/5.solidity100_250114.sol\":791:1537  contract Q42 {... */\n      mstore(0x40, 0x80)\n      callvalue\n      dup1\n      iszero\n      tag_1\n      jumpi\n      0x00\n      dup1\n      revert\n    tag_1:\n      pop\n      jumpi(tag_2, lt(calldatasize, 0x04))\n      shr(0xe0, calldataload(0x00))\n      dup1\n      0xbf674950\n      eq\n      tag_3\n      jumpi\n    tag_2:\n      0x00\n      dup1\n      revert\n        /* \"solidity100/5.solidity100_250114.sol\":1163:1535  function newCustomer(string memory _name)... */\n    tag_3:\n      tag_4\n      0x04\n      dup1\n      calldatasize\n      sub\n      dup2\n      add\n      swap1\n      tag_5\n      swap2\n      swap1\n      tag_6\n      jump\t// in\n    tag_5:\n      tag_7\n      jump\t// in\n    tag_4:\n      mload(0x40)\n      tag_8\n      swap2\n      swap1\n      tag_9\n      jump\t// in\n    tag_8:\n      mload(0x40)\n      dup1\n      swap2\n      sub\n      swap1\n      return\n    tag_7:\n        /* \"solidity100/5.solidity100_250114.sol\":1250:1265  Customer memory */\n      tag_10\n      tag_11\n      jump\t// in\n    tag_10:\n        /* \"solidity100/5.solidity100_250114.sol\":1315:1316  5 */\n      0x05\n        /* \"solidity100/5.solidity100_250114.sol\":1298:1303  _name */\n      dup3\n        /* \"solidity100/5.solidity100_250114.sol\":1292:1311  bytes(_name).length */\n      mload\n        /* \"solidity100/5.solidity100_250114.sol\":1292:1316  bytes(_name).length >= 5 */\n      lt\n      iszero\n        /* \"solidity100/5.solidity100_250114.sol\":1284:1355  require(bytes(_name).length >= 5, \"Name must be at least 5 characters\") */\n      tag_13\n      jumpi\n      mload(0x40)\n      0x08c379a000000000000000000000000000000000000000000000000000000000\n      dup2\n      mstore\n      0x04\n      add\n      tag_14\n      swap1\n      tag_15\n      jump\t// in\n    tag_14:\n      mload(0x40)\n      dup1\n      swap2\n      sub\n      swap1\n      revert\n    tag_13:\n        /* \"solidity100/5.solidity100_250114.sol\":1372:1528  Customer({... */\n      mload(0x40)\n      dup1\n      0x60\n      add\n      0x40\n      mstore\n      dup1\n        /* \"solidity100/5.solidity100_250114.sol\":1401:1406  _name */\n      dup4\n        /* \"solidity100/5.solidity100_250114.sol\":1372:1528  Customer({... */\n      dup2\n      mstore\n      0x20\n      add\n        /* \"solidity100/5.solidity100_250114.sol\":1463:1473  msg.sender */\n      caller\n        /* \"solidity100/5.solidity100_250114.sol\":1446:1474  abi.encodePacked(msg.sender) */\n      add(0x20, mload(0x40))\n      tag_16\n      swap2\n      swap1\n      tag_17\n      jump\t// in\n    tag_16:\n      mload(0x40)\n      0x20\n      dup2\n      dup4\n      sub\n      sub\n      dup2\n      mstore\n      swap1\n      0x40\n      mstore\n        /* \"solidity100/5.solidity100_250114.sol\":1436:1475  keccak256(abi.encodePacked(msg.sender)) */\n      dup1\n      mload\n      swap1\n      0x20\n      add\n      keccak256\n        /* \"solidity100/5.solidity100_250114.sol\":1428:1476  uint256(keccak256(abi.encodePacked(msg.sender))) */\n      0x00\n      shr\n        /* \"solidity100/5.solidity100_250114.sol\":1372:1528  Customer({... */\n      dup2\n      mstore\n      0x20\n      add\n        /* \"solidity100/5.solidity100_250114.sol\":1507:1517  msg.sender */\n      caller\n        /* \"solidity100/5.solidity100_250114.sol\":1372:1528  Customer({... */\n      0xffffffffffffffffffffffffffffffffffffffff\n      and\n      dup2\n      mstore\n      pop\n        /* \"solidity100/5.solidity100_250114.sol\":1365:1528  return Customer({... */\n      swap1\n      pop\n        /* \"solidity100/5.solidity100_250114.sol\":1163:1535  function newCustomer(string memory _name)... */\n      swap2\n      swap1\n      pop\n      jump\t// out\n    tag_11:\n      mload(0x40)\n      dup1\n      0x60\n      add\n      0x40\n      mstore\n      dup1\n      0x60\n      dup2\n      mstore\n      0x20\n      add\n      0x00\n      dup2\n      mstore\n      0x20\n      add\n      and(0xffffffffffffffffffffffffffffffffffffffff, 0x00)\n      dup2\n      mstore\n      pop\n      swap1\n      jump\t// out\n        /* \"#utility.yul\":7:82   */\n    tag_18:\n        /* \"#utility.yul\":40:46   */\n      0x00\n        /* \"#utility.yul\":73:75   */\n      0x40\n        /* \"#utility.yul\":67:76   */\n      mload\n        /* \"#utility.yul\":57:76   */\n      swap1\n      pop\n        /* \"#utility.yul\":7:82   */\n      swap1\n      jump\t// out\n        /* \"#utility.yul\":88:205   */\n    tag_19:\n        /* \"#utility.yul\":197:198   */\n      0x00\n        /* \"#utility.yul\":194:195   */\n      dup1\n        /* \"#utility.yul\":187:199   */\n      revert\n        /* \"#utility.yul\":211:328   */\n    tag_20:\n        /* \"#utility.yul\":320:321   */\n      0x00\n        /* \"#utility.yul\":317:318   */\n      dup1\n        /* \"#utility.yul\":310:322   */\n      revert\n        /* \"#utility.yul\":334:451   */\n    tag_21:\n        /* \"#utility.yul\":443:444   */\n      0x00\n        /* \"#utility.yul\":440:441   */\n      dup1\n        /* \"#utility.yul\":433:445   */\n      revert\n        /* \"#utility.yul\":457:574   */\n    tag_22:\n        /* \"#utility.yul\":566:567   */\n      0x00\n        /* \"#utility.yul\":563:564   */\n      dup1\n        /* \"#utility.yul\":556:568   */\n      revert\n        /* \"#utility.yul\":580:682   */\n    tag_23:\n        /* \"#utility.yul\":621:627   */\n      0x00\n        /* \"#utility.yul\":672:674   */\n      0x1f\n        /* \"#utility.yul\":668:675   */\n      not\n        /* \"#utility.yul\":663:665   */\n      0x1f\n        /* \"#utility.yul\":656:661   */\n      dup4\n        /* \"#utility.yul\":652:666   */\n      add\n        /* \"#utility.yul\":648:676   */\n      and\n        /* \"#utility.yul\":638:676   */\n      swap1\n      pop\n        /* \"#utility.yul\":580:682   */\n      swap2\n      swap1\n      pop\n      jump\t// out\n        /* \"#utility.yul\":688:868   */\n    tag_24:\n        /* \"#utility.yul\":736:813   */\n      0x4e487b7100000000000000000000000000000000000000000000000000000000\n        /* \"#utility.yul\":733:734   */\n      0x00\n        /* \"#utility.yul\":726:814   */\n      mstore\n        /* \"#utility.yul\":833:837   */\n      0x41\n        /* \"#utility.yul\":830:831   */\n      0x04\n        /* \"#utility.yul\":823:838   */\n      mstore\n        /* \"#utility.yul\":857:861   */\n      0x24\n        /* \"#utility.yul\":854:855   */\n      0x00\n        /* \"#utility.yul\":847:862   */\n      revert\n        /* \"#utility.yul\":874:1155   */\n    tag_25:\n        /* \"#utility.yul\":957:984   */\n      tag_57\n        /* \"#utility.yul\":979:983   */\n      dup3\n        /* \"#utility.yul\":957:984   */\n      tag_23\n      jump\t// in\n    tag_57:\n        /* \"#utility.yul\":949:955   */\n      dup2\n        /* \"#utility.yul\":945:985   */\n      add\n        /* \"#utility.yul\":1087:1093   */\n      dup2\n        /* \"#utility.yul\":1075:1085   */\n      dup2\n        /* \"#utility.yul\":1072:1094   */\n      lt\n        /* \"#utility.yul\":1051:1069   */\n      0xffffffffffffffff\n        /* \"#utility.yul\":1039:1049   */\n      dup3\n        /* \"#utility.yul\":1036:1070   */\n      gt\n        /* \"#utility.yul\":1033:1095   */\n      or\n        /* \"#utility.yul\":1030:1118   */\n      iszero\n      tag_58\n      jumpi\n        /* \"#utility.yul\":1098:1116   */\n      tag_59\n      tag_24\n      jump\t// in\n    tag_59:\n        /* \"#utility.yul\":1030:1118   */\n    tag_58:\n        /* \"#utility.yul\":1138:1148   */\n      dup1\n        /* \"#utility.yul\":1134:1136   */\n      0x40\n        /* \"#utility.yul\":1127:1149   */\n      mstore\n        /* \"#utility.yul\":917:1155   */\n      pop\n        /* \"#utility.yul\":874:1155   */\n      pop\n      pop\n      jump\t// out\n        /* \"#utility.yul\":1161:1290   */\n    tag_26:\n        /* \"#utility.yul\":1195:1201   */\n      0x00\n        /* \"#utility.yul\":1222:1242   */\n      tag_61\n      tag_18\n      jump\t// in\n    tag_61:\n        /* \"#utility.yul\":1212:1242   */\n      swap1\n      pop\n        /* \"#utility.yul\":1251:1284   */\n      tag_62\n        /* \"#utility.yul\":1279:1283   */\n      dup3\n        /* \"#utility.yul\":1271:1277   */\n      dup3\n        /* \"#utility.yul\":1251:1284   */\n      tag_25\n      jump\t// in\n    tag_62:\n        /* \"#utility.yul\":1161:1290   */\n      swap2\n      swap1\n      pop\n      jump\t// out\n        /* \"#utility.yul\":1296:1604   */\n    tag_27:\n        /* \"#utility.yul\":1358:1362   */\n      0x00\n        /* \"#utility.yul\":1448:1466   */\n      0xffffffffffffffff\n        /* \"#utility.yul\":1440:1446   */\n      dup3\n        /* \"#utility.yul\":1437:1467   */\n      gt\n        /* \"#utility.yul\":1434:1490   */\n      iszero\n      tag_64\n      jumpi\n        /* \"#utility.yul\":1470:1488   */\n      tag_65\n      tag_24\n      jump\t// in\n    tag_65:\n        /* \"#utility.yul\":1434:1490   */\n    tag_64:\n        /* \"#utility.yul\":1508:1537   */\n      tag_66\n        /* \"#utility.yul\":1530:1536   */\n      dup3\n        /* \"#utility.yul\":1508:1537   */\n      tag_23\n      jump\t// in\n    tag_66:\n        /* \"#utility.yul\":1500:1537   */\n      swap1\n      pop\n        /* \"#utility.yul\":1592:1596   */\n      0x20\n        /* \"#utility.yul\":1586:1590   */\n      dup2\n        /* \"#utility.yul\":1582:1597   */\n      add\n        /* \"#utility.yul\":1574:1597   */\n      swap1\n      pop\n        /* \"#utility.yul\":1296:1604   */\n      swap2\n      swap1\n      pop\n      jump\t// out\n        /* \"#utility.yul\":1610:1758   */\n    tag_28:\n        /* \"#utility.yul\":1708:1714   */\n      dup3\n        /* \"#utility.yul\":1703:1706   */\n      dup2\n        /* \"#utility.yul\":1698:1701   */\n      dup4\n        /* \"#utility.yul\":1685:1715   */\n      calldatacopy\n        /* \"#utility.yul\":1749:1750   */\n      0x00\n        /* \"#utility.yul\":1740:1746   */\n      dup4\n        /* \"#utility.yul\":1735:1738   */\n      dup4\n        /* \"#utility.yul\":1731:1747   */\n      add\n        /* \"#utility.yul\":1724:1751   */\n      mstore\n        /* \"#utility.yul\":1610:1758   */\n      pop\n      pop\n      pop\n      jump\t// out\n        /* \"#utility.yul\":1764:2189   */\n    tag_29:\n        /* \"#utility.yul\":1842:1847   */\n      0x00\n        /* \"#utility.yul\":1867:1933   */\n      tag_69\n        /* \"#utility.yul\":1883:1932   */\n      tag_70\n        /* \"#utility.yul\":1925:1931   */\n      dup5\n        /* \"#utility.yul\":1883:1932   */\n      tag_27\n      jump\t// in\n    tag_70:\n        /* \"#utility.yul\":1867:1933   */\n      tag_26\n      jump\t// in\n    tag_69:\n        /* \"#utility.yul\":1858:1933   */\n      swap1\n      pop\n        /* \"#utility.yul\":1956:1962   */\n      dup3\n        /* \"#utility.yul\":1949:1954   */\n      dup2\n        /* \"#utility.yul\":1942:1963   */\n      mstore\n        /* \"#utility.yul\":1994:1998   */\n      0x20\n        /* \"#utility.yul\":1987:1992   */\n      dup2\n        /* \"#utility.yul\":1983:1999   */\n      add\n        /* \"#utility.yul\":2032:2035   */\n      dup5\n        /* \"#utility.yul\":2023:2029   */\n      dup5\n        /* \"#utility.yul\":2018:2021   */\n      dup5\n        /* \"#utility.yul\":2014:2030   */\n      add\n        /* \"#utility.yul\":2011:2036   */\n      gt\n        /* \"#utility.yul\":2008:2120   */\n      iszero\n      tag_71\n      jumpi\n        /* \"#utility.yul\":2039:2118   */\n      tag_72\n      tag_22\n      jump\t// in\n    tag_72:\n        /* \"#utility.yul\":2008:2120   */\n    tag_71:\n        /* \"#utility.yul\":2129:2183   */\n      tag_73\n        /* \"#utility.yul\":2176:2182   */\n      dup5\n        /* \"#utility.yul\":2171:2174   */\n      dup3\n        /* \"#utility.yul\":2166:2169   */\n      dup6\n        /* \"#utility.yul\":2129:2183   */\n      tag_28\n      jump\t// in\n    tag_73:\n        /* \"#utility.yul\":1848:2189   */\n      pop\n        /* \"#utility.yul\":1764:2189   */\n      swap4\n      swap3\n      pop\n      pop\n      pop\n      jump\t// out\n        /* \"#utility.yul\":2209:2549   */\n    tag_30:\n        /* \"#utility.yul\":2265:2270   */\n      0x00\n        /* \"#utility.yul\":2314:2317   */\n      dup3\n        /* \"#utility.yul\":2307:2311   */\n      0x1f\n        /* \"#utility.yul\":2299:2305   */\n      dup4\n        /* \"#utility.yul\":2295:2312   */\n      add\n        /* \"#utility.yul\":2291:2318   */\n      slt\n        /* \"#utility.yul\":2281:2403   */\n      tag_75\n      jumpi\n        /* \"#utility.yul\":2322:2401   */\n      tag_76\n      tag_21\n      jump\t// in\n    tag_76:\n        /* \"#utility.yul\":2281:2403   */\n    tag_75:\n        /* \"#utility.yul\":2439:2445   */\n      dup2\n        /* \"#utility.yul\":2426:2446   */\n      calldataload\n        /* \"#utility.yul\":2464:2543   */\n      tag_77\n        /* \"#utility.yul\":2539:2542   */\n      dup5\n        /* \"#utility.yul\":2531:2537   */\n      dup3\n        /* \"#utility.yul\":2524:2528   */\n      0x20\n        /* \"#utility.yul\":2516:2522   */\n      dup7\n        /* \"#utility.yul\":2512:2529   */\n      add\n        /* \"#utility.yul\":2464:2543   */\n      tag_29\n      jump\t// in\n    tag_77:\n        /* \"#utility.yul\":2455:2543   */\n      swap2\n      pop\n        /* \"#utility.yul\":2271:2549   */\n      pop\n        /* \"#utility.yul\":2209:2549   */\n      swap3\n      swap2\n      pop\n      pop\n      jump\t// out\n        /* \"#utility.yul\":2555:3064   */\n    tag_6:\n        /* \"#utility.yul\":2624:2630   */\n      0x00\n        /* \"#utility.yul\":2673:2675   */\n      0x20\n        /* \"#utility.yul\":2661:2670   */\n      dup3\n        /* \"#utility.yul\":2652:2659   */\n      dup5\n        /* \"#utility.yul\":2648:2671   */\n      sub\n        /* \"#utility.yul\":2644:2676   */\n      slt\n        /* \"#utility.yul\":2641:2760   */\n      iszero\n      tag_79\n      jumpi\n        /* \"#utility.yul\":2679:2758   */\n      tag_80\n      tag_19\n      jump\t// in\n    tag_80:\n        /* \"#utility.yul\":2641:2760   */\n    tag_79:\n        /* \"#utility.yul\":2827:2828   */\n      0x00\n        /* \"#utility.yul\":2816:2825   */\n      dup3\n        /* \"#utility.yul\":2812:2829   */\n      add\n        /* \"#utility.yul\":2799:2830   */\n      calldataload\n        /* \"#utility.yul\":2857:2875   */\n      0xffffffffffffffff\n        /* \"#utility.yul\":2849:2855   */\n      dup2\n        /* \"#utility.yul\":2846:2876   */\n      gt\n        /* \"#utility.yul\":2843:2960   */\n      iszero\n      tag_81\n      jumpi\n        /* \"#utility.yul\":2879:2958   */\n      tag_82\n      tag_20\n      jump\t// in\n    tag_82:\n        /* \"#utility.yul\":2843:2960   */\n    tag_81:\n        /* \"#utility.yul\":2984:3047   */\n      tag_83\n        /* \"#utility.yul\":3039:3046   */\n      dup5\n        /* \"#utility.yul\":3030:3036   */\n      dup3\n        /* \"#utility.yul\":3019:3028   */\n      dup6\n        /* \"#utility.yul\":3015:3037   */\n      add\n        /* \"#utility.yul\":2984:3047   */\n      tag_30\n      jump\t// in\n    tag_83:\n        /* \"#utility.yul\":2974:3047   */\n      swap2\n      pop\n        /* \"#utility.yul\":2770:3057   */\n      pop\n        /* \"#utility.yul\":2555:3064   */\n      swap3\n      swap2\n      pop\n      pop\n      jump\t// out\n        /* \"#utility.yul\":3070:3169   */\n    tag_31:\n        /* \"#utility.yul\":3122:3128   */\n      0x00\n        /* \"#utility.yul\":3156:3161   */\n      dup2\n        /* \"#utility.yul\":3150:3162   */\n      mload\n        /* \"#utility.yul\":3140:3162   */\n      swap1\n      pop\n        /* \"#utility.yul\":3070:3169   */\n      swap2\n      swap1\n      pop\n      jump\t// out\n        /* \"#utility.yul\":3175:3334   */\n    tag_32:\n        /* \"#utility.yul\":3249:3260   */\n      0x00\n        /* \"#utility.yul\":3283:3289   */\n      dup3\n        /* \"#utility.yul\":3278:3281   */\n      dup3\n        /* \"#utility.yul\":3271:3290   */\n      mstore\n        /* \"#utility.yul\":3323:3327   */\n      0x20\n        /* \"#utility.yul\":3318:3321   */\n      dup3\n        /* \"#utility.yul\":3314:3328   */\n      add\n        /* \"#utility.yul\":3299:3328   */\n      swap1\n      pop\n        /* \"#utility.yul\":3175:3334   */\n      swap3\n      swap2\n      pop\n      pop\n      jump\t// out\n        /* \"#utility.yul\":3340:3479   */\n    tag_33:\n        /* \"#utility.yul\":3429:3435   */\n      dup3\n        /* \"#utility.yul\":3424:3427   */\n      dup2\n        /* \"#utility.yul\":3419:3422   */\n      dup4\n        /* \"#utility.yul\":3413:3436   */\n      mcopy\n        /* \"#utility.yul\":3470:3471   */\n      0x00\n        /* \"#utility.yul\":3461:3467   */\n      dup4\n        /* \"#utility.yul\":3456:3459   */\n      dup4\n        /* \"#utility.yul\":3452:3468   */\n      add\n        /* \"#utility.yul\":3445:3472   */\n      mstore\n        /* \"#utility.yul\":3340:3479   */\n      pop\n      pop\n      pop\n      jump\t// out\n        /* \"#utility.yul\":3485:3842   */\n    tag_34:\n        /* \"#utility.yul\":3563:3566   */\n      0x00\n        /* \"#utility.yul\":3591:3630   */\n      tag_88\n        /* \"#utility.yul\":3624:3629   */\n      dup3\n        /* \"#utility.yul\":3591:3630   */\n      tag_31\n      jump\t// in\n    tag_88:\n        /* \"#utility.yul\":3646:3707   */\n      tag_89\n        /* \"#utility.yul\":3700:3706   */\n      dup2\n        /* \"#utility.yul\":3695:3698   */\n      dup6\n        /* \"#utility.yul\":3646:3707   */\n      tag_32\n      jump\t// in\n    tag_89:\n        /* \"#utility.yul\":3639:3707   */\n      swap4\n      pop\n        /* \"#utility.yul\":3716:3781   */\n      tag_90\n        /* \"#utility.yul\":3774:3780   */\n      dup2\n        /* \"#utility.yul\":3769:3772   */\n      dup6\n        /* \"#utility.yul\":3762:3766   */\n      0x20\n        /* \"#utility.yul\":3755:3760   */\n      dup7\n        /* \"#utility.yul\":3751:3767   */\n      add\n        /* \"#utility.yul\":3716:3781   */\n      tag_33\n      jump\t// in\n    tag_90:\n        /* \"#utility.yul\":3806:3835   */\n      tag_91\n        /* \"#utility.yul\":3828:3834   */\n      dup2\n        /* \"#utility.yul\":3806:3835   */\n      tag_23\n      jump\t// in\n    tag_91:\n        /* \"#utility.yul\":3801:3804   */\n      dup5\n        /* \"#utility.yul\":3797:3836   */\n      add\n        /* \"#utility.yul\":3790:3836   */\n      swap2\n      pop\n        /* \"#utility.yul\":3567:3842   */\n      pop\n        /* \"#utility.yul\":3485:3842   */\n      swap3\n      swap2\n      pop\n      pop\n      jump\t// out\n        /* \"#utility.yul\":3848:3925   */\n    tag_35:\n        /* \"#utility.yul\":3885:3892   */\n      0x00\n        /* \"#utility.yul\":3914:3919   */\n      dup2\n        /* \"#utility.yul\":3903:3919   */\n      swap1\n      pop\n        /* \"#utility.yul\":3848:3925   */\n      swap2\n      swap1\n      pop\n      jump\t// out\n        /* \"#utility.yul\":3931:4039   */\n    tag_36:\n        /* \"#utility.yul\":4008:4032   */\n      tag_94\n        /* \"#utility.yul\":4026:4031   */\n      dup2\n        /* \"#utility.yul\":4008:4032   */\n      tag_35\n      jump\t// in\n    tag_94:\n        /* \"#utility.yul\":4003:4006   */\n      dup3\n        /* \"#utility.yul\":3996:4033   */\n      mstore\n        /* \"#utility.yul\":3931:4039   */\n      pop\n      pop\n      jump\t// out\n        /* \"#utility.yul\":4045:4171   */\n    tag_37:\n        /* \"#utility.yul\":4082:4089   */\n      0x00\n        /* \"#utility.yul\":4122:4164   */\n      0xffffffffffffffffffffffffffffffffffffffff\n        /* \"#utility.yul\":4115:4120   */\n      dup3\n        /* \"#utility.yul\":4111:4165   */\n      and\n        /* \"#utility.yul\":4100:4165   */\n      swap1\n      pop\n        /* \"#utility.yul\":4045:4171   */\n      swap2\n      swap1\n      pop\n      jump\t// out\n        /* \"#utility.yul\":4177:4273   */\n    tag_38:\n        /* \"#utility.yul\":4214:4221   */\n      0x00\n        /* \"#utility.yul\":4243:4267   */\n      tag_97\n        /* \"#utility.yul\":4261:4266   */\n      dup3\n        /* \"#utility.yul\":4243:4267   */\n      tag_37\n      jump\t// in\n    tag_97:\n        /* \"#utility.yul\":4232:4267   */\n      swap1\n      pop\n        /* \"#utility.yul\":4177:4273   */\n      swap2\n      swap1\n      pop\n      jump\t// out\n        /* \"#utility.yul\":4279:4387   */\n    tag_39:\n        /* \"#utility.yul\":4356:4380   */\n      tag_99\n        /* \"#utility.yul\":4374:4379   */\n      dup2\n        /* \"#utility.yul\":4356:4380   */\n      tag_38\n      jump\t// in\n    tag_99:\n        /* \"#utility.yul\":4351:4354   */\n      dup3\n        /* \"#utility.yul\":4344:4381   */\n      mstore\n        /* \"#utility.yul\":4279:4387   */\n      pop\n      pop\n      jump\t// out\n        /* \"#utility.yul\":4443:5234   */\n    tag_40:\n        /* \"#utility.yul\":4560:4563   */\n      0x00\n        /* \"#utility.yul\":4596:4600   */\n      0x60\n        /* \"#utility.yul\":4591:4594   */\n      dup4\n        /* \"#utility.yul\":4587:4601   */\n      add\n        /* \"#utility.yul\":4683:4687   */\n      0x00\n        /* \"#utility.yul\":4676:4681   */\n      dup4\n        /* \"#utility.yul\":4672:4688   */\n      add\n        /* \"#utility.yul\":4666:4689   */\n      mload\n        /* \"#utility.yul\":4736:4739   */\n      dup5\n        /* \"#utility.yul\":4730:4734   */\n      dup3\n        /* \"#utility.yul\":4726:4740   */\n      sub\n        /* \"#utility.yul\":4719:4723   */\n      0x00\n        /* \"#utility.yul\":4714:4717   */\n      dup7\n        /* \"#utility.yul\":4710:4724   */\n      add\n        /* \"#utility.yul\":4703:4741   */\n      mstore\n        /* \"#utility.yul\":4762:4835   */\n      tag_101\n        /* \"#utility.yul\":4830:4834   */\n      dup3\n        /* \"#utility.yul\":4816:4828   */\n      dup3\n        /* \"#utility.yul\":4762:4835   */\n      tag_34\n      jump\t// in\n    tag_101:\n        /* \"#utility.yul\":4754:4835   */\n      swap2\n      pop\n        /* \"#utility.yul\":4611:4846   */\n      pop\n        /* \"#utility.yul\":4930:4934   */\n      0x20\n        /* \"#utility.yul\":4923:4928   */\n      dup4\n        /* \"#utility.yul\":4919:4935   */\n      add\n        /* \"#utility.yul\":4913:4936   */\n      mload\n        /* \"#utility.yul\":4949:5012   */\n      tag_102\n        /* \"#utility.yul\":5006:5010   */\n      0x20\n        /* \"#utility.yul\":5001:5004   */\n      dup7\n        /* \"#utility.yul\":4997:5011   */\n      add\n        /* \"#utility.yul\":4983:4995   */\n      dup3\n        /* \"#utility.yul\":4949:5012   */\n      tag_36\n      jump\t// in\n    tag_102:\n        /* \"#utility.yul\":4856:5022   */\n      pop\n        /* \"#utility.yul\":5115:5119   */\n      0x40\n        /* \"#utility.yul\":5108:5113   */\n      dup4\n        /* \"#utility.yul\":5104:5120   */\n      add\n        /* \"#utility.yul\":5098:5121   */\n      mload\n        /* \"#utility.yul\":5134:5197   */\n      tag_103\n        /* \"#utility.yul\":5191:5195   */\n      0x40\n        /* \"#utility.yul\":5186:5189   */\n      dup7\n        /* \"#utility.yul\":5182:5196   */\n      add\n        /* \"#utility.yul\":5168:5180   */\n      dup3\n        /* \"#utility.yul\":5134:5197   */\n      tag_39\n      jump\t// in\n    tag_103:\n        /* \"#utility.yul\":5032:5207   */\n      pop\n        /* \"#utility.yul\":5224:5228   */\n      dup1\n        /* \"#utility.yul\":5217:5228   */\n      swap2\n      pop\n        /* \"#utility.yul\":4565:5234   */\n      pop\n        /* \"#utility.yul\":4443:5234   */\n      swap3\n      swap2\n      pop\n      pop\n      jump\t// out\n        /* \"#utility.yul\":5240:5609   */\n    tag_9:\n        /* \"#utility.yul\":5381:5385   */\n      0x00\n        /* \"#utility.yul\":5419:5421   */\n      0x20\n        /* \"#utility.yul\":5408:5417   */\n      dup3\n        /* \"#utility.yul\":5404:5422   */\n      add\n        /* \"#utility.yul\":5396:5422   */\n      swap1\n      pop\n        /* \"#utility.yul\":5468:5477   */\n      dup2\n        /* \"#utility.yul\":5462:5466   */\n      dup2\n        /* \"#utility.yul\":5458:5478   */\n      sub\n        /* \"#utility.yul\":5454:5455   */\n      0x00\n        /* \"#utility.yul\":5443:5452   */\n      dup4\n        /* \"#utility.yul\":5439:5456   */\n      add\n        /* \"#utility.yul\":5432:5479   */\n      mstore\n        /* \"#utility.yul\":5496:5602   */\n      tag_105\n        /* \"#utility.yul\":5597:5601   */\n      dup2\n        /* \"#utility.yul\":5588:5594   */\n      dup5\n        /* \"#utility.yul\":5496:5602   */\n      tag_40\n      jump\t// in\n    tag_105:\n        /* \"#utility.yul\":5488:5602   */\n      swap1\n      pop\n        /* \"#utility.yul\":5240:5609   */\n      swap3\n      swap2\n      pop\n      pop\n      jump\t// out\n        /* \"#utility.yul\":5615:5784   */\n    tag_41:\n        /* \"#utility.yul\":5699:5710   */\n      0x00\n        /* \"#utility.yul\":5733:5739   */\n      dup3\n        /* \"#utility.yul\":5728:5731   */\n      dup3\n        /* \"#utility.yul\":5721:5740   */\n      mstore\n        /* \"#utility.yul\":5773:5777   */\n      0x20\n        /* \"#utility.yul\":5768:5771   */\n      dup3\n        /* \"#utility.yul\":5764:5778   */\n      add\n        /* \"#utility.yul\":5749:5778   */\n      swap1\n      pop\n        /* \"#utility.yul\":5615:5784   */\n      swap3\n      swap2\n      pop\n      pop\n      jump\t// out\n        /* \"#utility.yul\":5790:6011   */\n    tag_42:\n        /* \"#utility.yul\":5930:5964   */\n      0x4e616d65206d757374206265206174206c656173742035206368617261637465\n        /* \"#utility.yul\":5926:5927   */\n      0x00\n        /* \"#utility.yul\":5918:5924   */\n      dup3\n        /* \"#utility.yul\":5914:5928   */\n      add\n        /* \"#utility.yul\":5907:5965   */\n      mstore\n        /* \"#utility.yul\":5999:6003   */\n      0x7273000000000000000000000000000000000000000000000000000000000000\n        /* \"#utility.yul\":5994:5996   */\n      0x20\n        /* \"#utility.yul\":5986:5992   */\n      dup3\n        /* \"#utility.yul\":5982:5997   */\n      add\n        /* \"#utility.yul\":5975:6004   */\n      mstore\n        /* \"#utility.yul\":5790:6011   */\n      pop\n      jump\t// out\n        /* \"#utility.yul\":6017:6383   */\n    tag_43:\n        /* \"#utility.yul\":6159:6162   */\n      0x00\n        /* \"#utility.yul\":6180:6247   */\n      tag_109\n        /* \"#utility.yul\":6244:6246   */\n      0x22\n        /* \"#utility.yul\":6239:6242   */\n      dup4\n        /* \"#utility.yul\":6180:6247   */\n      tag_41\n      jump\t// in\n    tag_109:\n        /* \"#utility.yul\":6173:6247   */\n      swap2\n      pop\n        /* \"#utility.yul\":6256:6349   */\n      tag_110\n        /* \"#utility.yul\":6345:6348   */\n      dup3\n        /* \"#utility.yul\":6256:6349   */\n      tag_42\n      jump\t// in\n    tag_110:\n        /* \"#utility.yul\":6374:6376   */\n      0x40\n        /* \"#utility.yul\":6369:6372   */\n      dup3\n        /* \"#utility.yul\":6365:6377   */\n      add\n        /* \"#utility.yul\":6358:6377   */\n      swap1\n      pop\n        /* \"#utility.yul\":6017:6383   */\n      swap2\n      swap1\n      pop\n      jump\t// out\n        /* \"#utility.yul\":6389:6808   */\n    tag_15:\n        /* \"#utility.yul\":6555:6559   */\n      0x00\n        /* \"#utility.yul\":6593:6595   */\n      0x20\n        /* \"#utility.yul\":6582:6591   */\n      dup3\n        /* \"#utility.yul\":6578:6596   */\n      add\n        /* \"#utility.yul\":6570:6596   */\n      swap1\n      pop\n        /* \"#utility.yul\":6642:6651   */\n      dup2\n        /* \"#utility.yul\":6636:6640   */\n      dup2\n        /* \"#utility.yul\":6632:6652   */\n      sub\n        /* \"#utility.yul\":6628:6629   */\n      0x00\n        /* \"#utility.yul\":6617:6626   */\n      dup4\n        /* \"#utility.yul\":6613:6630   */\n      add\n        /* \"#utility.yul\":6606:6653   */\n      mstore\n        /* \"#utility.yul\":6670:6801   */\n      tag_112\n        /* \"#utility.yul\":6796:6800   */\n      dup2\n        /* \"#utility.yul\":6670:6801   */\n      tag_43\n      jump\t// in\n    tag_112:\n        /* \"#utility.yul\":6662:6801   */\n      swap1\n      pop\n        /* \"#utility.yul\":6389:6808   */\n      swap2\n      swap1\n      pop\n      jump\t// out\n        /* \"#utility.yul\":6814:6908   */\n    tag_44:\n        /* \"#utility.yul\":6847:6855   */\n      0x00\n        /* \"#utility.yul\":6895:6900   */\n      dup2\n        /* \"#utility.yul\":6891:6893   */\n      0x60\n        /* \"#utility.yul\":6887:6901   */\n      shl\n        /* \"#utility.yul\":6866:6901   */\n      swap1\n      pop\n        /* \"#utility.yul\":6814:6908   */\n      swap2\n      swap1\n      pop\n      jump\t// out\n        /* \"#utility.yul\":6914:7008   */\n    tag_45:\n        /* \"#utility.yul\":6953:6960   */\n      0x00\n        /* \"#utility.yul\":6982:7002   */\n      tag_115\n        /* \"#utility.yul\":6996:7001   */\n      dup3\n        /* \"#utility.yul\":6982:7002   */\n      tag_44\n      jump\t// in\n    tag_115:\n        /* \"#utility.yul\":6971:7002   */\n      swap1\n      pop\n        /* \"#utility.yul\":6914:7008   */\n      swap2\n      swap1\n      pop\n      jump\t// out\n        /* \"#utility.yul\":7014:7114   */\n    tag_46:\n        /* \"#utility.yul\":7053:7060   */\n      0x00\n        /* \"#utility.yul\":7082:7108   */\n      tag_117\n        /* \"#utility.yul\":7102:7107   */\n      dup3\n        /* \"#utility.yul\":7082:7108   */\n      tag_45\n      jump\t// in\n    tag_117:\n        /* \"#utility.yul\":7071:7108   */\n      swap1\n      pop\n        /* \"#utility.yul\":7014:7114   */\n      swap2\n      swap1\n      pop\n      jump\t// out\n        /* \"#utility.yul\":7120:7277   */\n    tag_47:\n        /* \"#utility.yul\":7225:7270   */\n      tag_119\n        /* \"#utility.yul\":7245:7269   */\n      tag_120\n        /* \"#utility.yul\":7263:7268   */\n      dup3\n        /* \"#utility.yul\":7245:7269   */\n      tag_38\n      jump\t// in\n    tag_120:\n        /* \"#utility.yul\":7225:7270   */\n      tag_46\n      jump\t// in\n    tag_119:\n        /* \"#utility.yul\":7220:7223   */\n      dup3\n        /* \"#utility.yul\":7213:7271   */\n      mstore\n        /* \"#utility.yul\":7120:7277   */\n      pop\n      pop\n      jump\t// out\n        /* \"#utility.yul\":7283:7539   */\n    tag_17:\n        /* \"#utility.yul\":7395:7398   */\n      0x00\n        /* \"#utility.yul\":7410:7485   */\n      tag_122\n        /* \"#utility.yul\":7481:7484   */\n      dup3\n        /* \"#utility.yul\":7472:7478   */\n      dup5\n        /* \"#utility.yul\":7410:7485   */\n      tag_47\n      jump\t// in\n    tag_122:\n        /* \"#utility.yul\":7510:7512   */\n      0x14\n        /* \"#utility.yul\":7505:7508   */\n      dup3\n        /* \"#utility.yul\":7501:7513   */\n      add\n        /* \"#utility.yul\":7494:7513   */\n      swap2\n      pop\n        /* \"#utility.yul\":7530:7533   */\n      dup2\n        /* \"#utility.yul\":7523:7533   */\n      swap1\n      pop\n        /* \"#utility.yul\":7283:7539   */\n      swap3\n      swap2\n      pop\n      pop\n      jump\t// out\n\n    auxdata: 0xa26469706673582212208894f9cb3f2a470df7f91bb25105531908edbe21ab63326a6a7764e45ac06cd264736f6c634300081a0033\n}\n",
				"bytecode": {
					"linkReferences": {},
					"object": "6080604052348015600e575f80fd5b5061052a8061001c5f395ff3fe608060405234801561000f575f80fd5b5060043610610029575f3560e01c8063bf6749501461002d575b5f80fd5b6100476004803603810190610042919061028c565b61005d565b60405161005491906103d7565b60405180910390f35b61006561010a565b6005825110156100aa576040517f08c379a00000000000000000000000000000000000000000000000000000000081526004016100a190610477565b60405180910390fd5b6040518060600160405280838152602001336040516020016100cc91906104da565b604051602081830303815290604052805190602001205f1c81526020013373ffffffffffffffffffffffffffffffffffffffff168152509050919050565b6040518060600160405280606081526020015f81526020015f73ffffffffffffffffffffffffffffffffffffffff1681525090565b5f604051905090565b5f80fd5b5f80fd5b5f80fd5b5f80fd5b5f601f19601f8301169050919050565b7f4e487b71000000000000000000000000000000000000000000000000000000005f52604160045260245ffd5b61019e82610158565b810181811067ffffffffffffffff821117156101bd576101bc610168565b5b80604052505050565b5f6101cf61013f565b90506101db8282610195565b919050565b5f67ffffffffffffffff8211156101fa576101f9610168565b5b61020382610158565b9050602081019050919050565b828183375f83830152505050565b5f61023061022b846101e0565b6101c6565b90508281526020810184848401111561024c5761024b610154565b5b610257848285610210565b509392505050565b5f82601f83011261027357610272610150565b5b813561028384826020860161021e565b91505092915050565b5f602082840312156102a1576102a0610148565b5b5f82013567ffffffffffffffff8111156102be576102bd61014c565b5b6102ca8482850161025f565b91505092915050565b5f81519050919050565b5f82825260208201905092915050565b8281835e5f83830152505050565b5f610305826102d3565b61030f81856102dd565b935061031f8185602086016102ed565b61032881610158565b840191505092915050565b5f819050919050565b61034581610333565b82525050565b5f73ffffffffffffffffffffffffffffffffffffffff82169050919050565b5f6103748261034b565b9050919050565b6103848161036a565b82525050565b5f606083015f8301518482035f8601526103a482826102fb565b91505060208301516103b9602086018261033c565b5060408301516103cc604086018261037b565b508091505092915050565b5f6020820190508181035f8301526103ef818461038a565b905092915050565b5f82825260208201905092915050565b7f4e616d65206d757374206265206174206c6561737420352063686172616374655f8201527f7273000000000000000000000000000000000000000000000000000000000000602082015250565b5f6104616022836103f7565b915061046c82610407565b604082019050919050565b5f6020820190508181035f83015261048e81610455565b9050919050565b5f8160601b9050919050565b5f6104ab82610495565b9050919050565b5f6104bc826104a1565b9050919050565b6104d46104cf8261036a565b6104b2565b82525050565b5f6104e582846104c3565b6014820191508190509291505056fea26469706673582212208894f9cb3f2a470df7f91bb25105531908edbe21ab63326a6a7764e45ac06cd264736f6c634300081a0033",
					"opcodes": "PUSH1 0x80 PUSH1 0x40 MSTORE CALLVALUE DUP1 ISZERO PUSH1 0xE JUMPI PUSH0 DUP1 REVERT JUMPDEST POP PUSH2 0x52A DUP1 PUSH2 0x1C PUSH0 CODECOPY PUSH0 RETURN INVALID PUSH1 0x80 PUSH1 0x40 MSTORE CALLVALUE DUP1 ISZERO PUSH2 0xF JUMPI PUSH0 DUP1 REVERT JUMPDEST POP PUSH1 0x4 CALLDATASIZE LT PUSH2 0x29 JUMPI PUSH0 CALLDATALOAD PUSH1 0xE0 SHR DUP1 PUSH4 0xBF674950 EQ PUSH2 0x2D JUMPI JUMPDEST PUSH0 DUP1 REVERT JUMPDEST PUSH2 0x47 PUSH1 0x4 DUP1 CALLDATASIZE SUB DUP2 ADD SWAP1 PUSH2 0x42 SWAP2 SWAP1 PUSH2 0x28C JUMP JUMPDEST PUSH2 0x5D JUMP JUMPDEST PUSH1 0x40 MLOAD PUSH2 0x54 SWAP2 SWAP1 PUSH2 0x3D7 JUMP JUMPDEST PUSH1 0x40 MLOAD DUP1 SWAP2 SUB SWAP1 RETURN JUMPDEST PUSH2 0x65 PUSH2 0x10A JUMP JUMPDEST PUSH1 0x5 DUP3 MLOAD LT ISZERO PUSH2 0xAA JUMPI PUSH1 0x40 MLOAD PUSH32 0x8C379A000000000000000000000000000000000000000000000000000000000 DUP2 MSTORE PUSH1 0x4 ADD PUSH2 0xA1 SWAP1 PUSH2 0x477 JUMP JUMPDEST PUSH1 0x40 MLOAD DUP1 SWAP2 SUB SWAP1 REVERT JUMPDEST PUSH1 0x40 MLOAD DUP1 PUSH1 0x60 ADD PUSH1 0x40 MSTORE DUP1 DUP4 DUP2 MSTORE PUSH1 0x20 ADD CALLER PUSH1 0x40 MLOAD PUSH1 0x20 ADD PUSH2 0xCC SWAP2 SWAP1 PUSH2 0x4DA JUMP JUMPDEST PUSH1 0x40 MLOAD PUSH1 0x20 DUP2 DUP4 SUB SUB DUP2 MSTORE SWAP1 PUSH1 0x40 MSTORE DUP1 MLOAD SWAP1 PUSH1 0x20 ADD KECCAK256 PUSH0 SHR DUP2 MSTORE PUSH1 0x20 ADD CALLER PUSH20 0xFFFFFFFFFFFFFFFFFFFFFFFFFFFFFFFFFFFFFFFF AND DUP2 MSTORE POP SWAP1 POP SWAP2 SWAP1 POP JUMP JUMPDEST PUSH1 0x40 MLOAD DUP1 PUSH1 0x60 ADD PUSH1 0x40 MSTORE DUP1 PUSH1 0x60 DUP2 MSTORE PUSH1 0x20 ADD PUSH0 DUP2 MSTORE PUSH1 0x20 ADD PUSH0 PUSH20 0xFFFFFFFFFFFFFFFFFFFFFFFFFFFFFFFFFFFFFFFF AND DUP2 MSTORE POP SWAP1 JUMP JUMPDEST PUSH0 PUSH1 0x40 MLOAD SWAP1 POP SWAP1 JUMP JUMPDEST PUSH0 DUP1 REVERT JUMPDEST PUSH0 DUP1 REVERT JUMPDEST PUSH0 DUP1 REVERT JUMPDEST PUSH0 DUP1 REVERT JUMPDEST PUSH0 PUSH1 0x1F NOT PUSH1 0x1F DUP4 ADD AND SWAP1 POP SWAP2 SWAP1 POP JUMP JUMPDEST PUSH32 0x4E487B7100000000000000000000000000000000000000000000000000000000 PUSH0 MSTORE PUSH1 0x41 PUSH1 0x4 MSTORE PUSH1 0x24 PUSH0 REVERT JUMPDEST PUSH2 0x19E DUP3 PUSH2 0x158 JUMP JUMPDEST DUP2 ADD DUP2 DUP2 LT PUSH8 0xFFFFFFFFFFFFFFFF DUP3 GT OR ISZERO PUSH2 0x1BD JUMPI PUSH2 0x1BC PUSH2 0x168 JUMP JUMPDEST JUMPDEST DUP1 PUSH1 0x40 MSTORE POP POP POP JUMP JUMPDEST PUSH0 PUSH2 0x1CF PUSH2 0x13F JUMP JUMPDEST SWAP1 POP PUSH2 0x1DB DUP3 DUP3 PUSH2 0x195 JUMP JUMPDEST SWAP2 SWAP1 POP JUMP JUMPDEST PUSH0 PUSH8 0xFFFFFFFFFFFFFFFF DUP3 GT ISZERO PUSH2 0x1FA JUMPI PUSH2 0x1F9 PUSH2 0x168 JUMP JUMPDEST JUMPDEST PUSH2 0x203 DUP3 PUSH2 0x158 JUMP JUMPDEST SWAP1 POP PUSH1 0x20 DUP2 ADD SWAP1 POP SWAP2 SWAP1 POP JUMP JUMPDEST DUP3 DUP2 DUP4 CALLDATACOPY PUSH0 DUP4 DUP4 ADD MSTORE POP POP POP JUMP JUMPDEST PUSH0 PUSH2 0x230 PUSH2 0x22B DUP5 PUSH2 0x1E0 JUMP JUMPDEST PUSH2 0x1C6 JUMP JUMPDEST SWAP1 POP DUP3 DUP2 MSTORE PUSH1 0x20 DUP2 ADD DUP5 DUP5 DUP5 ADD GT ISZERO PUSH2 0x24C JUMPI PUSH2 0x24B PUSH2 0x154 JUMP JUMPDEST JUMPDEST PUSH2 0x257 DUP5 DUP3 DUP6 PUSH2 0x210 JUMP JUMPDEST POP SWAP4 SWAP3 POP POP POP JUMP JUMPDEST PUSH0 DUP3 PUSH1 0x1F DUP4 ADD SLT PUSH2 0x273 JUMPI PUSH2 0x272 PUSH2 0x150 JUMP JUMPDEST JUMPDEST DUP2 CALLDATALOAD PUSH2 0x283 DUP5 DUP3 PUSH1 0x20 DUP7 ADD PUSH2 0x21E JUMP JUMPDEST SWAP2 POP POP SWAP3 SWAP2 POP POP JUMP JUMPDEST PUSH0 PUSH1 0x20 DUP3 DUP5 SUB SLT ISZERO PUSH2 0x2A1 JUMPI PUSH2 0x2A0 PUSH2 0x148 JUMP JUMPDEST JUMPDEST PUSH0 DUP3 ADD CALLDATALOAD PUSH8 0xFFFFFFFFFFFFFFFF DUP2 GT ISZERO PUSH2 0x2BE JUMPI PUSH2 0x2BD PUSH2 0x14C JUMP JUMPDEST JUMPDEST PUSH2 0x2CA DUP5 DUP3 DUP6 ADD PUSH2 0x25F JUMP JUMPDEST SWAP2 POP POP SWAP3 SWAP2 POP POP JUMP JUMPDEST PUSH0 DUP2 MLOAD SWAP1 POP SWAP2 SWAP1 POP JUMP JUMPDEST PUSH0 DUP3 DUP3 MSTORE PUSH1 0x20 DUP3 ADD SWAP1 POP SWAP3 SWAP2 POP POP JUMP JUMPDEST DUP3 DUP2 DUP4 MCOPY PUSH0 DUP4 DUP4 ADD MSTORE POP POP POP JUMP JUMPDEST PUSH0 PUSH2 0x305 DUP3 PUSH2 0x2D3 JUMP JUMPDEST PUSH2 0x30F DUP2 DUP6 PUSH2 0x2DD JUMP JUMPDEST SWAP4 POP PUSH2 0x31F DUP2 DUP6 PUSH1 0x20 DUP7 ADD PUSH2 0x2ED JUMP JUMPDEST PUSH2 0x328 DUP2 PUSH2 0x158 JUMP JUMPDEST DUP5 ADD SWAP2 POP POP SWAP3 SWAP2 POP POP JUMP JUMPDEST PUSH0 DUP2 SWAP1 POP SWAP2 SWAP1 POP JUMP JUMPDEST PUSH2 0x345 DUP2 PUSH2 0x333 JUMP JUMPDEST DUP3 MSTORE POP POP JUMP JUMPDEST PUSH0 PUSH20 0xFFFFFFFFFFFFFFFFFFFFFFFFFFFFFFFFFFFFFFFF DUP3 AND SWAP1 POP SWAP2 SWAP1 POP JUMP JUMPDEST PUSH0 PUSH2 0x374 DUP3 PUSH2 0x34B JUMP JUMPDEST SWAP1 POP SWAP2 SWAP1 POP JUMP JUMPDEST PUSH2 0x384 DUP2 PUSH2 0x36A JUMP JUMPDEST DUP3 MSTORE POP POP JUMP JUMPDEST PUSH0 PUSH1 0x60 DUP4 ADD PUSH0 DUP4 ADD MLOAD DUP5 DUP3 SUB PUSH0 DUP7 ADD MSTORE PUSH2 0x3A4 DUP3 DUP3 PUSH2 0x2FB JUMP JUMPDEST SWAP2 POP POP PUSH1 0x20 DUP4 ADD MLOAD PUSH2 0x3B9 PUSH1 0x20 DUP7 ADD DUP3 PUSH2 0x33C JUMP JUMPDEST POP PUSH1 0x40 DUP4 ADD MLOAD PUSH2 0x3CC PUSH1 0x40 DUP7 ADD DUP3 PUSH2 0x37B JUMP JUMPDEST POP DUP1 SWAP2 POP POP SWAP3 SWAP2 POP POP JUMP JUMPDEST PUSH0 PUSH1 0x20 DUP3 ADD SWAP1 POP DUP2 DUP2 SUB PUSH0 DUP4 ADD MSTORE PUSH2 0x3EF DUP2 DUP5 PUSH2 0x38A JUMP JUMPDEST SWAP1 POP SWAP3 SWAP2 POP POP JUMP JUMPDEST PUSH0 DUP3 DUP3 MSTORE PUSH1 0x20 DUP3 ADD SWAP1 POP SWAP3 SWAP2 POP POP JUMP JUMPDEST PUSH32 0x4E616D65206D757374206265206174206C656173742035206368617261637465 PUSH0 DUP3 ADD MSTORE PUSH32 0x7273000000000000000000000000000000000000000000000000000000000000 PUSH1 0x20 DUP3 ADD MSTORE POP JUMP JUMPDEST PUSH0 PUSH2 0x461 PUSH1 0x22 DUP4 PUSH2 0x3F7 JUMP JUMPDEST SWAP2 POP PUSH2 0x46C DUP3 PUSH2 0x407 JUMP JUMPDEST PUSH1 0x40 DUP3 ADD SWAP1 POP SWAP2 SWAP1 POP JUMP JUMPDEST PUSH0 PUSH1 0x20 DUP3 ADD SWAP1 POP DUP2 DUP2 SUB PUSH0 DUP4 ADD MSTORE PUSH2 0x48E DUP2 PUSH2 0x455 JUMP JUMPDEST SWAP1 POP SWAP2 SWAP1 POP JUMP JUMPDEST PUSH0 DUP2 PUSH1 0x60 SHL SWAP1 POP SWAP2 SWAP1 POP JUMP JUMPDEST PUSH0 PUSH2 0x4AB DUP3 PUSH2 0x495 JUMP JUMPDEST SWAP1 POP SWAP2 SWAP1 POP JUMP JUMPDEST PUSH0 PUSH2 0x4BC DUP3 PUSH2 0x4A1 JUMP JUMPDEST SWAP1 POP SWAP2 SWAP1 POP JUMP JUMPDEST PUSH2 0x4D4 PUSH2 0x4CF DUP3 PUSH2 0x36A JUMP JUMPDEST PUSH2 0x4B2 JUMP JUMPDEST DUP3 MSTORE POP POP JUMP JUMPDEST PUSH0 PUSH2 0x4E5 DUP3 DUP5 PUSH2 0x4C3 JUMP JUMPDEST PUSH1 0x14 DUP3 ADD SWAP2 POP DUP2 SWAP1 POP SWAP3 SWAP2 POP POP JUMP INVALID LOG2 PUSH5 0x6970667358 0x22 SLT KECCAK256 DUP9 SWAP5 0xF9 0xCB EXTCODEHASH 0x2A SELFBALANCE 0xD 0xF7 0xF9 SHL 0xB2 MLOAD SDIV MSTORE8 NOT ADDMOD 0xED 0xBE 0x21 0xAB PUSH4 0x326A6A77 PUSH5 0xE45AC06CD2 PUSH5 0x736F6C6343 STOP ADDMOD BYTE STOP CALLER "
				},
				"gasEstimates": {
					"creation": {
						"codeDepositCost": "264400",
						"executionCost": "304",
						"totalCost": "264704"
					},
					"external": {
						"newCustomer(string)": "infinite"
					}
				},
				"methodIdentifiers": {
					"newCustomer(string)": "bf674950"
				}
			},
			"storageLayout": {
				"storage": [],
				"types": null
			},
			"userdoc": {
				"kind": "user",
				"methods": {},
				"version": 1
			}
		}
	}
}