{
	"codingtest/codingtest_250103.sol": {
		"AUTH": {
			"abi": [
				{
					"inputs": [
						{
							"internalType": "string",
							"name": "_id",
							"type": "string"
						},
						{
							"internalType": "string",
							"name": "_pw",
							"type": "string"
						}
					],
					"name": "deleteUser",
					"outputs": [],
					"stateMutability": "nonpayable",
					"type": "function"
				},
				{
					"inputs": [
						{
							"internalType": "string",
							"name": "_id",
							"type": "string"
						},
						{
							"internalType": "string",
							"name": "_pw",
							"type": "string"
						}
					],
					"name": "login",
					"outputs": [
						{
							"internalType": "bool",
							"name": "",
							"type": "bool"
						}
					],
					"stateMutability": "nonpayable",
					"type": "function"
				},
				{
					"inputs": [
						{
							"internalType": "string",
							"name": "_id",
							"type": "string"
						},
						{
							"internalType": "string",
							"name": "_pw",
							"type": "string"
						}
					],
					"name": "register",
					"outputs": [],
					"stateMutability": "nonpayable",
					"type": "function"
				}
			],
			"devdoc": {
				"kind": "dev",
				"methods": {},
				"version": 1
			},
			"evm": {
				"assembly": "    /* \"codingtest/codingtest_250103.sol\":70:1898  contract AUTH {... */\n  mstore(0x40, 0x80)\n  callvalue\n  dup1\n  iszero\n  tag_1\n  jumpi\n  0x00\n  dup1\n  revert\ntag_1:\n  pop\n  dataSize(sub_0)\n  dup1\n  dataOffset(sub_0)\n  0x00\n  codecopy\n  0x00\n  return\nstop\n\nsub_0: assembly {\n        /* \"codingtest/codingtest_250103.sol\":70:1898  contract AUTH {... */\n      mstore(0x40, 0x80)\n      callvalue\n      dup1\n      iszero\n      tag_1\n      jumpi\n      0x00\n      dup1\n      revert\n    tag_1:\n      pop\n      jumpi(tag_2, lt(calldatasize, 0x04))\n      shr(0xe0, calldataload(0x00))\n      dup1\n      0x3ffbd47f\n      eq\n      tag_3\n      jumpi\n      dup1\n      0x58467dbc\n      eq\n      tag_4\n      jumpi\n      dup1\n      0xb7c40bb3\n      eq\n      tag_5\n      jumpi\n    tag_2:\n      0x00\n      dup1\n      revert\n        /* \"codingtest/codingtest_250103.sol\":926:1104  function register(string memory _id, string memory _pw)... */\n    tag_3:\n      tag_6\n      0x04\n      dup1\n      calldatasize\n      sub\n      dup2\n      add\n      swap1\n      tag_7\n      swap2\n      swap1\n      tag_8\n      jump\t// in\n    tag_7:\n      tag_9\n      jump\t// in\n    tag_6:\n      stop\n        /* \"codingtest/codingtest_250103.sol\":1110:1570  function login(string memory _id, string memory _pw)... */\n    tag_4:\n      tag_10\n      0x04\n      dup1\n      calldatasize\n      sub\n      dup2\n      add\n      swap1\n      tag_11\n      swap2\n      swap1\n      tag_8\n      jump\t// in\n    tag_11:\n      tag_12\n      jump\t// in\n    tag_10:\n      mload(0x40)\n      tag_13\n      swap2\n      swap1\n      tag_14\n      jump\t// in\n    tag_13:\n      mload(0x40)\n      dup1\n      swap2\n      sub\n      swap1\n      return\n        /* \"codingtest/codingtest_250103.sol\":1576:1896  function deleteUser(string memory _id, string memory _pw)... */\n    tag_5:\n      tag_15\n      0x04\n      dup1\n      calldatasize\n      sub\n      dup2\n      add\n      swap1\n      tag_16\n      swap2\n      swap1\n      tag_8\n      jump\t// in\n    tag_16:\n      tag_17\n      jump\t// in\n    tag_15:\n      stop\n        /* \"codingtest/codingtest_250103.sol\":926:1104  function register(string memory _id, string memory _pw)... */\n    tag_9:\n        /* \"codingtest/codingtest_250103.sol\":1019:1022  _id */\n      dup2\n        /* \"codingtest/codingtest_250103.sol\":1024:1027  _pw */\n      dup2\n        /* \"codingtest/codingtest_250103.sol\":696:697  0 */\n      0x00\n        /* \"codingtest/codingtest_250103.sol\":682:685  _id */\n      dup3\n        /* \"codingtest/codingtest_250103.sol\":676:693  bytes(_id).length */\n      mload\n        /* \"codingtest/codingtest_250103.sol\":676:697  bytes(_id).length > 0 */\n      gt\n        /* \"codingtest/codingtest_250103.sol\":668:720  require(bytes(_id).length > 0, \"ID cannot be empty\") */\n      tag_19\n      jumpi\n      mload(0x40)\n      0x08c379a000000000000000000000000000000000000000000000000000000000\n      dup2\n      mstore\n      0x04\n      add\n      tag_20\n      swap1\n      tag_21\n      jump\t// in\n    tag_20:\n      mload(0x40)\n      dup1\n      swap2\n      sub\n      swap1\n      revert\n    tag_19:\n        /* \"codingtest/codingtest_250103.sol\":758:759  0 */\n      0x00\n        /* \"codingtest/codingtest_250103.sol\":744:747  _pw */\n      dup2\n        /* \"codingtest/codingtest_250103.sol\":738:755  bytes(_pw).length */\n      mload\n        /* \"codingtest/codingtest_250103.sol\":738:759  bytes(_pw).length > 0 */\n      gt\n        /* \"codingtest/codingtest_250103.sol\":730:788  require(bytes(_pw).length > 0, \"Password cannot be empty\") */\n      tag_22\n      jumpi\n      mload(0x40)\n      0x08c379a000000000000000000000000000000000000000000000000000000000\n      dup2\n      mstore\n      0x04\n      add\n      tag_23\n      swap1\n      tag_24\n      jump\t// in\n    tag_23:\n      mload(0x40)\n      dup1\n      swap2\n      sub\n      swap1\n      revert\n    tag_22:\n        /* \"codingtest/codingtest_250103.sol\":1045:1048  _id */\n      dup4\n        /* \"codingtest/codingtest_250103.sol\":879:880  0 */\n      0x00\n        /* \"codingtest/codingtest_250103.sol\":866:880  user[_id] == 0 */\n      dup1\n      shl\n        /* \"codingtest/codingtest_250103.sol\":866:870  user */\n      0x00\n        /* \"codingtest/codingtest_250103.sol\":871:874  _id */\n      dup3\n        /* \"codingtest/codingtest_250103.sol\":866:875  user[_id] */\n      mload(0x40)\n      tag_26\n      swap2\n      swap1\n      tag_27\n      jump\t// in\n    tag_26:\n      swap1\n      dup2\n      mstore\n      0x20\n      add\n      mload(0x40)\n      dup1\n      swap2\n      sub\n      swap1\n      keccak256\n      sload\n        /* \"codingtest/codingtest_250103.sol\":866:880  user[_id] == 0 */\n      eq\n        /* \"codingtest/codingtest_250103.sol\":858:902  require(user[_id] == 0, \"ID already exists\") */\n      tag_28\n      jumpi\n      mload(0x40)\n      0x08c379a000000000000000000000000000000000000000000000000000000000\n      dup2\n      mstore\n      0x04\n      add\n      tag_29\n      swap1\n      tag_30\n      jump\t// in\n    tag_29:\n      mload(0x40)\n      dup1\n      swap2\n      sub\n      swap1\n      revert\n    tag_28:\n        /* \"codingtest/codingtest_250103.sol\":1076:1097  hashingUser(_id, _pw) */\n      tag_32\n        /* \"codingtest/codingtest_250103.sol\":1088:1091  _id */\n      dup6\n        /* \"codingtest/codingtest_250103.sol\":1093:1096  _pw */\n      dup6\n        /* \"codingtest/codingtest_250103.sol\":1076:1087  hashingUser */\n      tag_33\n        /* \"codingtest/codingtest_250103.sol\":1076:1097  hashingUser(_id, _pw) */\n      jump\t// in\n    tag_32:\n        /* \"codingtest/codingtest_250103.sol\":1064:1068  user */\n      0x00\n        /* \"codingtest/codingtest_250103.sol\":1069:1072  _id */\n      dup7\n        /* \"codingtest/codingtest_250103.sol\":1064:1073  user[_id] */\n      mload(0x40)\n      tag_34\n      swap2\n      swap1\n      tag_27\n      jump\t// in\n    tag_34:\n      swap1\n      dup2\n      mstore\n      0x20\n      add\n      mload(0x40)\n      dup1\n      swap2\n      sub\n      swap1\n      keccak256\n        /* \"codingtest/codingtest_250103.sol\":1064:1097  user[_id] = hashingUser(_id, _pw) */\n      dup2\n      swap1\n      sstore\n      pop\n        /* \"codingtest/codingtest_250103.sol\":798:799  _ */\n      pop\n        /* \"codingtest/codingtest_250103.sol\":926:1104  function register(string memory _id, string memory _pw)... */\n      pop\n      pop\n      pop\n      pop\n      jump\t// out\n        /* \"codingtest/codingtest_250103.sol\":1110:1570  function login(string memory _id, string memory _pw)... */\n    tag_12:\n        /* \"codingtest/codingtest_250103.sol\":1227:1231  bool */\n      0x00\n        /* \"codingtest/codingtest_250103.sol\":1200:1203  _id */\n      dup3\n        /* \"codingtest/codingtest_250103.sol\":1205:1208  _pw */\n      dup3\n        /* \"codingtest/codingtest_250103.sol\":696:697  0 */\n      0x00\n        /* \"codingtest/codingtest_250103.sol\":682:685  _id */\n      dup3\n        /* \"codingtest/codingtest_250103.sol\":676:693  bytes(_id).length */\n      mload\n        /* \"codingtest/codingtest_250103.sol\":676:697  bytes(_id).length > 0 */\n      gt\n        /* \"codingtest/codingtest_250103.sol\":668:720  require(bytes(_id).length > 0, \"ID cannot be empty\") */\n      tag_36\n      jumpi\n      mload(0x40)\n      0x08c379a000000000000000000000000000000000000000000000000000000000\n      dup2\n      mstore\n      0x04\n      add\n      tag_37\n      swap1\n      tag_21\n      jump\t// in\n    tag_37:\n      mload(0x40)\n      dup1\n      swap2\n      sub\n      swap1\n      revert\n    tag_36:\n        /* \"codingtest/codingtest_250103.sol\":758:759  0 */\n      0x00\n        /* \"codingtest/codingtest_250103.sol\":744:747  _pw */\n      dup2\n        /* \"codingtest/codingtest_250103.sol\":738:755  bytes(_pw).length */\n      mload\n        /* \"codingtest/codingtest_250103.sol\":738:759  bytes(_pw).length > 0 */\n      gt\n        /* \"codingtest/codingtest_250103.sol\":730:788  require(bytes(_pw).length > 0, \"Password cannot be empty\") */\n      tag_38\n      jumpi\n      mload(0x40)\n      0x08c379a000000000000000000000000000000000000000000000000000000000\n      dup2\n      mstore\n      0x04\n      add\n      tag_39\n      swap1\n      tag_24\n      jump\t// in\n    tag_39:\n      mload(0x40)\n      dup1\n      swap2\n      sub\n      swap1\n      revert\n    tag_38:\n        /* \"codingtest/codingtest_250103.sol\":1289:1290  5 */\n      0x05\n        /* \"codingtest/codingtest_250103.sol\":1268:1281  loginAttempts */\n      0x01\n        /* \"codingtest/codingtest_250103.sol\":1282:1285  _id */\n      dup7\n        /* \"codingtest/codingtest_250103.sol\":1268:1286  loginAttempts[_id] */\n      mload(0x40)\n      tag_41\n      swap2\n      swap1\n      tag_27\n      jump\t// in\n    tag_41:\n      swap1\n      dup2\n      mstore\n      0x20\n      add\n      mload(0x40)\n      dup1\n      swap2\n      sub\n      swap1\n      keccak256\n      sload\n        /* \"codingtest/codingtest_250103.sol\":1268:1290  loginAttempts[_id] < 5 */\n      lt\n        /* \"codingtest/codingtest_250103.sol\":1247:1357  require(... */\n      tag_42\n      jumpi\n      mload(0x40)\n      0x08c379a000000000000000000000000000000000000000000000000000000000\n      dup2\n      mstore\n      0x04\n      add\n      tag_43\n      swap1\n      tag_44\n      jump\t// in\n    tag_43:\n      mload(0x40)\n      dup1\n      swap2\n      sub\n      swap1\n      revert\n    tag_42:\n        /* \"codingtest/codingtest_250103.sol\":1385:1406  hashingUser(_id, _pw) */\n      tag_45\n        /* \"codingtest/codingtest_250103.sol\":1397:1400  _id */\n      dup6\n        /* \"codingtest/codingtest_250103.sol\":1402:1405  _pw */\n      dup6\n        /* \"codingtest/codingtest_250103.sol\":1385:1396  hashingUser */\n      tag_33\n        /* \"codingtest/codingtest_250103.sol\":1385:1406  hashingUser(_id, _pw) */\n      jump\t// in\n    tag_45:\n        /* \"codingtest/codingtest_250103.sol\":1372:1376  user */\n      0x00\n        /* \"codingtest/codingtest_250103.sol\":1377:1380  _id */\n      dup7\n        /* \"codingtest/codingtest_250103.sol\":1372:1381  user[_id] */\n      mload(0x40)\n      tag_46\n      swap2\n      swap1\n      tag_27\n      jump\t// in\n    tag_46:\n      swap1\n      dup2\n      mstore\n      0x20\n      add\n      mload(0x40)\n      dup1\n      swap2\n      sub\n      swap1\n      keccak256\n      sload\n        /* \"codingtest/codingtest_250103.sol\":1372:1406  user[_id] == hashingUser(_id, _pw) */\n      sub\n        /* \"codingtest/codingtest_250103.sol\":1368:1564  if (user[_id] == hashingUser(_id, _pw)) {... */\n      tag_47\n      jumpi\n        /* \"codingtest/codingtest_250103.sol\":1443:1444  0 */\n      0x00\n        /* \"codingtest/codingtest_250103.sol\":1422:1435  loginAttempts */\n      0x01\n        /* \"codingtest/codingtest_250103.sol\":1436:1439  _id */\n      dup7\n        /* \"codingtest/codingtest_250103.sol\":1422:1440  loginAttempts[_id] */\n      mload(0x40)\n      tag_48\n      swap2\n      swap1\n      tag_27\n      jump\t// in\n    tag_48:\n      swap1\n      dup2\n      mstore\n      0x20\n      add\n      mload(0x40)\n      dup1\n      swap2\n      sub\n      swap1\n      keccak256\n        /* \"codingtest/codingtest_250103.sol\":1422:1444  loginAttempts[_id] = 0 */\n      dup2\n      swap1\n      sstore\n      pop\n        /* \"codingtest/codingtest_250103.sol\":1465:1469  true */\n      0x01\n        /* \"codingtest/codingtest_250103.sol\":1458:1469  return true */\n      swap3\n      pop\n      jump(tag_40)\n        /* \"codingtest/codingtest_250103.sol\":1368:1564  if (user[_id] == hashingUser(_id, _pw)) {... */\n    tag_47:\n        /* \"codingtest/codingtest_250103.sol\":1500:1527  incrementLoginAttempts(_id) */\n      tag_50\n        /* \"codingtest/codingtest_250103.sol\":1523:1526  _id */\n      dup6\n        /* \"codingtest/codingtest_250103.sol\":1500:1522  incrementLoginAttempts */\n      tag_51\n        /* \"codingtest/codingtest_250103.sol\":1500:1527  incrementLoginAttempts(_id) */\n      jump\t// in\n    tag_50:\n        /* \"codingtest/codingtest_250103.sol\":1548:1553  false */\n      0x00\n        /* \"codingtest/codingtest_250103.sol\":1541:1553  return false */\n      swap3\n      pop\n        /* \"codingtest/codingtest_250103.sol\":798:799  _ */\n    tag_40:\n        /* \"codingtest/codingtest_250103.sol\":1110:1570  function login(string memory _id, string memory _pw)... */\n      pop\n      pop\n      swap3\n      swap2\n      pop\n      pop\n      jump\t// out\n        /* \"codingtest/codingtest_250103.sol\":1576:1896  function deleteUser(string memory _id, string memory _pw)... */\n    tag_17:\n        /* \"codingtest/codingtest_250103.sol\":1671:1674  _id */\n      dup2\n        /* \"codingtest/codingtest_250103.sol\":1676:1679  _pw */\n      dup2\n        /* \"codingtest/codingtest_250103.sol\":696:697  0 */\n      0x00\n        /* \"codingtest/codingtest_250103.sol\":682:685  _id */\n      dup3\n        /* \"codingtest/codingtest_250103.sol\":676:693  bytes(_id).length */\n      mload\n        /* \"codingtest/codingtest_250103.sol\":676:697  bytes(_id).length > 0 */\n      gt\n        /* \"codingtest/codingtest_250103.sol\":668:720  require(bytes(_id).length > 0, \"ID cannot be empty\") */\n      tag_53\n      jumpi\n      mload(0x40)\n      0x08c379a000000000000000000000000000000000000000000000000000000000\n      dup2\n      mstore\n      0x04\n      add\n      tag_54\n      swap1\n      tag_21\n      jump\t// in\n    tag_54:\n      mload(0x40)\n      dup1\n      swap2\n      sub\n      swap1\n      revert\n    tag_53:\n        /* \"codingtest/codingtest_250103.sol\":758:759  0 */\n      0x00\n        /* \"codingtest/codingtest_250103.sol\":744:747  _pw */\n      dup2\n        /* \"codingtest/codingtest_250103.sol\":738:755  bytes(_pw).length */\n      mload\n        /* \"codingtest/codingtest_250103.sol\":738:759  bytes(_pw).length > 0 */\n      gt\n        /* \"codingtest/codingtest_250103.sol\":730:788  require(bytes(_pw).length > 0, \"Password cannot be empty\") */\n      tag_55\n      jumpi\n      mload(0x40)\n      0x08c379a000000000000000000000000000000000000000000000000000000000\n      dup2\n      mstore\n      0x04\n      add\n      tag_56\n      swap1\n      tag_24\n      jump\t// in\n    tag_56:\n      mload(0x40)\n      dup1\n      swap2\n      sub\n      swap1\n      revert\n    tag_55:\n        /* \"codingtest/codingtest_250103.sol\":1716:1717  0 */\n      0x00\n        /* \"codingtest/codingtest_250103.sol\":1703:1717  user[_id] != 0 */\n      dup1\n      shl\n        /* \"codingtest/codingtest_250103.sol\":1703:1707  user */\n      0x00\n        /* \"codingtest/codingtest_250103.sol\":1708:1711  _id */\n      dup6\n        /* \"codingtest/codingtest_250103.sol\":1703:1712  user[_id] */\n      mload(0x40)\n      tag_58\n      swap2\n      swap1\n      tag_27\n      jump\t// in\n    tag_58:\n      swap1\n      dup2\n      mstore\n      0x20\n      add\n      mload(0x40)\n      dup1\n      swap2\n      sub\n      swap1\n      keccak256\n      sload\n        /* \"codingtest/codingtest_250103.sol\":1703:1717  user[_id] != 0 */\n      sub\n        /* \"codingtest/codingtest_250103.sol\":1695:1741  require(user[_id] != 0, \"User does not exist\") */\n      tag_59\n      jumpi\n      mload(0x40)\n      0x08c379a000000000000000000000000000000000000000000000000000000000\n      dup2\n      mstore\n      0x04\n      add\n      tag_60\n      swap1\n      tag_61\n      jump\t// in\n    tag_60:\n      mload(0x40)\n      dup1\n      swap2\n      sub\n      swap1\n      revert\n    tag_59:\n        /* \"codingtest/codingtest_250103.sol\":1769:1790  hashingUser(_id, _pw) */\n      tag_62\n        /* \"codingtest/codingtest_250103.sol\":1781:1784  _id */\n      dup5\n        /* \"codingtest/codingtest_250103.sol\":1786:1789  _pw */\n      dup5\n        /* \"codingtest/codingtest_250103.sol\":1769:1780  hashingUser */\n      tag_33\n        /* \"codingtest/codingtest_250103.sol\":1769:1790  hashingUser(_id, _pw) */\n      jump\t// in\n    tag_62:\n        /* \"codingtest/codingtest_250103.sol\":1756:1760  user */\n      0x00\n        /* \"codingtest/codingtest_250103.sol\":1761:1764  _id */\n      dup6\n        /* \"codingtest/codingtest_250103.sol\":1756:1765  user[_id] */\n      mload(0x40)\n      tag_63\n      swap2\n      swap1\n      tag_27\n      jump\t// in\n    tag_63:\n      swap1\n      dup2\n      mstore\n      0x20\n      add\n      mload(0x40)\n      dup1\n      swap2\n      sub\n      swap1\n      keccak256\n      sload\n        /* \"codingtest/codingtest_250103.sol\":1756:1790  user[_id] == hashingUser(_id, _pw) */\n      sub\n        /* \"codingtest/codingtest_250103.sol\":1752:1890  if (user[_id] == hashingUser(_id, _pw)) {... */\n      tag_64\n      jumpi\n        /* \"codingtest/codingtest_250103.sol\":1806:1820  resetUser(_id) */\n      tag_65\n        /* \"codingtest/codingtest_250103.sol\":1816:1819  _id */\n      dup5\n        /* \"codingtest/codingtest_250103.sol\":1806:1815  resetUser */\n      tag_66\n        /* \"codingtest/codingtest_250103.sol\":1806:1820  resetUser(_id) */\n      jump\t// in\n    tag_65:\n        /* \"codingtest/codingtest_250103.sol\":1752:1890  if (user[_id] == hashingUser(_id, _pw)) {... */\n      jump(tag_67)\n    tag_64:\n        /* \"codingtest/codingtest_250103.sol\":1851:1879  revert(\"Incorrect password\") */\n      mload(0x40)\n      0x08c379a000000000000000000000000000000000000000000000000000000000\n      dup2\n      mstore\n      0x04\n      add\n      tag_68\n      swap1\n      tag_69\n      jump\t// in\n    tag_68:\n      mload(0x40)\n      dup1\n      swap2\n      sub\n      swap1\n      revert\n        /* \"codingtest/codingtest_250103.sol\":1752:1890  if (user[_id] == hashingUser(_id, _pw)) {... */\n    tag_67:\n        /* \"codingtest/codingtest_250103.sol\":1576:1896  function deleteUser(string memory _id, string memory _pw)... */\n      pop\n      pop\n      pop\n      pop\n      jump\t// out\n        /* \"codingtest/codingtest_250103.sol\":190:369  function hashingUser(string memory _id, string memory _pw)... */\n    tag_33:\n        /* \"codingtest/codingtest_250103.sol\":295:302  bytes32 */\n      0x00\n        /* \"codingtest/codingtest_250103.sol\":352:355  _id */\n      dup3\n        /* \"codingtest/codingtest_250103.sol\":357:360  _pw */\n      dup3\n        /* \"codingtest/codingtest_250103.sol\":335:361  abi.encodePacked(_id, _pw) */\n      add(0x20, mload(0x40))\n      tag_71\n      swap3\n      swap2\n      swap1\n      tag_72\n      jump\t// in\n    tag_71:\n      mload(0x40)\n      0x20\n      dup2\n      dup4\n      sub\n      sub\n      dup2\n      mstore\n      swap1\n      0x40\n      mstore\n        /* \"codingtest/codingtest_250103.sol\":325:362  keccak256(abi.encodePacked(_id, _pw)) */\n      dup1\n      mload\n      swap1\n      0x20\n      add\n      keccak256\n        /* \"codingtest/codingtest_250103.sol\":318:362  return keccak256(abi.encodePacked(_id, _pw)) */\n      swap1\n      pop\n        /* \"codingtest/codingtest_250103.sol\":190:369  function hashingUser(string memory _id, string memory _pw)... */\n      swap3\n      swap2\n      pop\n      pop\n      jump\t// out\n        /* \"codingtest/codingtest_250103.sol\":375:471  function incrementLoginAttempts(string memory _id) private {... */\n    tag_51:\n        /* \"codingtest/codingtest_250103.sol\":444:457  loginAttempts */\n      0x01\n        /* \"codingtest/codingtest_250103.sol\":458:461  _id */\n      dup2\n        /* \"codingtest/codingtest_250103.sol\":444:462  loginAttempts[_id] */\n      mload(0x40)\n      tag_74\n      swap2\n      swap1\n      tag_27\n      jump\t// in\n    tag_74:\n      swap1\n      dup2\n      mstore\n      0x20\n      add\n      mload(0x40)\n      dup1\n      swap2\n      sub\n      swap1\n      keccak256\n      0x00\n        /* \"codingtest/codingtest_250103.sol\":444:464  loginAttempts[_id]++ */\n      dup2\n      sload\n      dup1\n      swap3\n      swap2\n      swap1\n      tag_75\n      swap1\n      tag_76\n      jump\t// in\n    tag_75:\n      swap2\n      swap1\n      pop\n      sstore\n      pop\n        /* \"codingtest/codingtest_250103.sol\":375:471  function incrementLoginAttempts(string memory _id) private {... */\n      pop\n      jump\t// out\n        /* \"codingtest/codingtest_250103.sol\":477:591  function resetUser(string memory _id) private {... */\n    tag_66:\n        /* \"codingtest/codingtest_250103.sol\":540:544  user */\n      0x00\n        /* \"codingtest/codingtest_250103.sol\":545:548  _id */\n      dup2\n        /* \"codingtest/codingtest_250103.sol\":540:549  user[_id] */\n      mload(0x40)\n      tag_78\n      swap2\n      swap1\n      tag_27\n      jump\t// in\n    tag_78:\n      swap1\n      dup2\n      mstore\n      0x20\n      add\n      mload(0x40)\n      dup1\n      swap2\n      sub\n      swap1\n      keccak256\n        /* \"codingtest/codingtest_250103.sol\":533:549  delete user[_id] */\n      0x00\n      swap1\n      sstore\n        /* \"codingtest/codingtest_250103.sol\":566:579  loginAttempts */\n      0x01\n        /* \"codingtest/codingtest_250103.sol\":580:583  _id */\n      dup2\n        /* \"codingtest/codingtest_250103.sol\":566:584  loginAttempts[_id] */\n      mload(0x40)\n      tag_79\n      swap2\n      swap1\n      tag_27\n      jump\t// in\n    tag_79:\n      swap1\n      dup2\n      mstore\n      0x20\n      add\n      mload(0x40)\n      dup1\n      swap2\n      sub\n      swap1\n      keccak256\n        /* \"codingtest/codingtest_250103.sol\":559:584  delete loginAttempts[_id] */\n      0x00\n      swap1\n      sstore\n        /* \"codingtest/codingtest_250103.sol\":477:591  function resetUser(string memory _id) private {... */\n      pop\n      jump\t// out\n        /* \"#utility.yul\":7:82   */\n    tag_80:\n        /* \"#utility.yul\":40:46   */\n      0x00\n        /* \"#utility.yul\":73:75   */\n      0x40\n        /* \"#utility.yul\":67:76   */\n      mload\n        /* \"#utility.yul\":57:76   */\n      swap1\n      pop\n        /* \"#utility.yul\":7:82   */\n      swap1\n      jump\t// out\n        /* \"#utility.yul\":88:205   */\n    tag_81:\n        /* \"#utility.yul\":197:198   */\n      0x00\n        /* \"#utility.yul\":194:195   */\n      dup1\n        /* \"#utility.yul\":187:199   */\n      revert\n        /* \"#utility.yul\":211:328   */\n    tag_82:\n        /* \"#utility.yul\":320:321   */\n      0x00\n        /* \"#utility.yul\":317:318   */\n      dup1\n        /* \"#utility.yul\":310:322   */\n      revert\n        /* \"#utility.yul\":334:451   */\n    tag_83:\n        /* \"#utility.yul\":443:444   */\n      0x00\n        /* \"#utility.yul\":440:441   */\n      dup1\n        /* \"#utility.yul\":433:445   */\n      revert\n        /* \"#utility.yul\":457:574   */\n    tag_84:\n        /* \"#utility.yul\":566:567   */\n      0x00\n        /* \"#utility.yul\":563:564   */\n      dup1\n        /* \"#utility.yul\":556:568   */\n      revert\n        /* \"#utility.yul\":580:682   */\n    tag_85:\n        /* \"#utility.yul\":621:627   */\n      0x00\n        /* \"#utility.yul\":672:674   */\n      0x1f\n        /* \"#utility.yul\":668:675   */\n      not\n        /* \"#utility.yul\":663:665   */\n      0x1f\n        /* \"#utility.yul\":656:661   */\n      dup4\n        /* \"#utility.yul\":652:666   */\n      add\n        /* \"#utility.yul\":648:676   */\n      and\n        /* \"#utility.yul\":638:676   */\n      swap1\n      pop\n        /* \"#utility.yul\":580:682   */\n      swap2\n      swap1\n      pop\n      jump\t// out\n        /* \"#utility.yul\":688:868   */\n    tag_86:\n        /* \"#utility.yul\":736:813   */\n      0x4e487b7100000000000000000000000000000000000000000000000000000000\n        /* \"#utility.yul\":733:734   */\n      0x00\n        /* \"#utility.yul\":726:814   */\n      mstore\n        /* \"#utility.yul\":833:837   */\n      0x41\n        /* \"#utility.yul\":830:831   */\n      0x04\n        /* \"#utility.yul\":823:838   */\n      mstore\n        /* \"#utility.yul\":857:861   */\n      0x24\n        /* \"#utility.yul\":854:855   */\n      0x00\n        /* \"#utility.yul\":847:862   */\n      revert\n        /* \"#utility.yul\":874:1155   */\n    tag_87:\n        /* \"#utility.yul\":957:984   */\n      tag_123\n        /* \"#utility.yul\":979:983   */\n      dup3\n        /* \"#utility.yul\":957:984   */\n      tag_85\n      jump\t// in\n    tag_123:\n        /* \"#utility.yul\":949:955   */\n      dup2\n        /* \"#utility.yul\":945:985   */\n      add\n        /* \"#utility.yul\":1087:1093   */\n      dup2\n        /* \"#utility.yul\":1075:1085   */\n      dup2\n        /* \"#utility.yul\":1072:1094   */\n      lt\n        /* \"#utility.yul\":1051:1069   */\n      0xffffffffffffffff\n        /* \"#utility.yul\":1039:1049   */\n      dup3\n        /* \"#utility.yul\":1036:1070   */\n      gt\n        /* \"#utility.yul\":1033:1095   */\n      or\n        /* \"#utility.yul\":1030:1118   */\n      iszero\n      tag_124\n      jumpi\n        /* \"#utility.yul\":1098:1116   */\n      tag_125\n      tag_86\n      jump\t// in\n    tag_125:\n        /* \"#utility.yul\":1030:1118   */\n    tag_124:\n        /* \"#utility.yul\":1138:1148   */\n      dup1\n        /* \"#utility.yul\":1134:1136   */\n      0x40\n        /* \"#utility.yul\":1127:1149   */\n      mstore\n        /* \"#utility.yul\":917:1155   */\n      pop\n        /* \"#utility.yul\":874:1155   */\n      pop\n      pop\n      jump\t// out\n        /* \"#utility.yul\":1161:1290   */\n    tag_88:\n        /* \"#utility.yul\":1195:1201   */\n      0x00\n        /* \"#utility.yul\":1222:1242   */\n      tag_127\n      tag_80\n      jump\t// in\n    tag_127:\n        /* \"#utility.yul\":1212:1242   */\n      swap1\n      pop\n        /* \"#utility.yul\":1251:1284   */\n      tag_128\n        /* \"#utility.yul\":1279:1283   */\n      dup3\n        /* \"#utility.yul\":1271:1277   */\n      dup3\n        /* \"#utility.yul\":1251:1284   */\n      tag_87\n      jump\t// in\n    tag_128:\n        /* \"#utility.yul\":1161:1290   */\n      swap2\n      swap1\n      pop\n      jump\t// out\n        /* \"#utility.yul\":1296:1604   */\n    tag_89:\n        /* \"#utility.yul\":1358:1362   */\n      0x00\n        /* \"#utility.yul\":1448:1466   */\n      0xffffffffffffffff\n        /* \"#utility.yul\":1440:1446   */\n      dup3\n        /* \"#utility.yul\":1437:1467   */\n      gt\n        /* \"#utility.yul\":1434:1490   */\n      iszero\n      tag_130\n      jumpi\n        /* \"#utility.yul\":1470:1488   */\n      tag_131\n      tag_86\n      jump\t// in\n    tag_131:\n        /* \"#utility.yul\":1434:1490   */\n    tag_130:\n        /* \"#utility.yul\":1508:1537   */\n      tag_132\n        /* \"#utility.yul\":1530:1536   */\n      dup3\n        /* \"#utility.yul\":1508:1537   */\n      tag_85\n      jump\t// in\n    tag_132:\n        /* \"#utility.yul\":1500:1537   */\n      swap1\n      pop\n        /* \"#utility.yul\":1592:1596   */\n      0x20\n        /* \"#utility.yul\":1586:1590   */\n      dup2\n        /* \"#utility.yul\":1582:1597   */\n      add\n        /* \"#utility.yul\":1574:1597   */\n      swap1\n      pop\n        /* \"#utility.yul\":1296:1604   */\n      swap2\n      swap1\n      pop\n      jump\t// out\n        /* \"#utility.yul\":1610:1758   */\n    tag_90:\n        /* \"#utility.yul\":1708:1714   */\n      dup3\n        /* \"#utility.yul\":1703:1706   */\n      dup2\n        /* \"#utility.yul\":1698:1701   */\n      dup4\n        /* \"#utility.yul\":1685:1715   */\n      calldatacopy\n        /* \"#utility.yul\":1749:1750   */\n      0x00\n        /* \"#utility.yul\":1740:1746   */\n      dup4\n        /* \"#utility.yul\":1735:1738   */\n      dup4\n        /* \"#utility.yul\":1731:1747   */\n      add\n        /* \"#utility.yul\":1724:1751   */\n      mstore\n        /* \"#utility.yul\":1610:1758   */\n      pop\n      pop\n      pop\n      jump\t// out\n        /* \"#utility.yul\":1764:2189   */\n    tag_91:\n        /* \"#utility.yul\":1842:1847   */\n      0x00\n        /* \"#utility.yul\":1867:1933   */\n      tag_135\n        /* \"#utility.yul\":1883:1932   */\n      tag_136\n        /* \"#utility.yul\":1925:1931   */\n      dup5\n        /* \"#utility.yul\":1883:1932   */\n      tag_89\n      jump\t// in\n    tag_136:\n        /* \"#utility.yul\":1867:1933   */\n      tag_88\n      jump\t// in\n    tag_135:\n        /* \"#utility.yul\":1858:1933   */\n      swap1\n      pop\n        /* \"#utility.yul\":1956:1962   */\n      dup3\n        /* \"#utility.yul\":1949:1954   */\n      dup2\n        /* \"#utility.yul\":1942:1963   */\n      mstore\n        /* \"#utility.yul\":1994:1998   */\n      0x20\n        /* \"#utility.yul\":1987:1992   */\n      dup2\n        /* \"#utility.yul\":1983:1999   */\n      add\n        /* \"#utility.yul\":2032:2035   */\n      dup5\n        /* \"#utility.yul\":2023:2029   */\n      dup5\n        /* \"#utility.yul\":2018:2021   */\n      dup5\n        /* \"#utility.yul\":2014:2030   */\n      add\n        /* \"#utility.yul\":2011:2036   */\n      gt\n        /* \"#utility.yul\":2008:2120   */\n      iszero\n      tag_137\n      jumpi\n        /* \"#utility.yul\":2039:2118   */\n      tag_138\n      tag_84\n      jump\t// in\n    tag_138:\n        /* \"#utility.yul\":2008:2120   */\n    tag_137:\n        /* \"#utility.yul\":2129:2183   */\n      tag_139\n        /* \"#utility.yul\":2176:2182   */\n      dup5\n        /* \"#utility.yul\":2171:2174   */\n      dup3\n        /* \"#utility.yul\":2166:2169   */\n      dup6\n        /* \"#utility.yul\":2129:2183   */\n      tag_90\n      jump\t// in\n    tag_139:\n        /* \"#utility.yul\":1848:2189   */\n      pop\n        /* \"#utility.yul\":1764:2189   */\n      swap4\n      swap3\n      pop\n      pop\n      pop\n      jump\t// out\n        /* \"#utility.yul\":2209:2549   */\n    tag_92:\n        /* \"#utility.yul\":2265:2270   */\n      0x00\n        /* \"#utility.yul\":2314:2317   */\n      dup3\n        /* \"#utility.yul\":2307:2311   */\n      0x1f\n        /* \"#utility.yul\":2299:2305   */\n      dup4\n        /* \"#utility.yul\":2295:2312   */\n      add\n        /* \"#utility.yul\":2291:2318   */\n      slt\n        /* \"#utility.yul\":2281:2403   */\n      tag_141\n      jumpi\n        /* \"#utility.yul\":2322:2401   */\n      tag_142\n      tag_83\n      jump\t// in\n    tag_142:\n        /* \"#utility.yul\":2281:2403   */\n    tag_141:\n        /* \"#utility.yul\":2439:2445   */\n      dup2\n        /* \"#utility.yul\":2426:2446   */\n      calldataload\n        /* \"#utility.yul\":2464:2543   */\n      tag_143\n        /* \"#utility.yul\":2539:2542   */\n      dup5\n        /* \"#utility.yul\":2531:2537   */\n      dup3\n        /* \"#utility.yul\":2524:2528   */\n      0x20\n        /* \"#utility.yul\":2516:2522   */\n      dup7\n        /* \"#utility.yul\":2512:2529   */\n      add\n        /* \"#utility.yul\":2464:2543   */\n      tag_91\n      jump\t// in\n    tag_143:\n        /* \"#utility.yul\":2455:2543   */\n      swap2\n      pop\n        /* \"#utility.yul\":2271:2549   */\n      pop\n        /* \"#utility.yul\":2209:2549   */\n      swap3\n      swap2\n      pop\n      pop\n      jump\t// out\n        /* \"#utility.yul\":2555:3389   */\n    tag_8:\n        /* \"#utility.yul\":2643:2649   */\n      0x00\n        /* \"#utility.yul\":2651:2657   */\n      dup1\n        /* \"#utility.yul\":2700:2702   */\n      0x40\n        /* \"#utility.yul\":2688:2697   */\n      dup4\n        /* \"#utility.yul\":2679:2686   */\n      dup6\n        /* \"#utility.yul\":2675:2698   */\n      sub\n        /* \"#utility.yul\":2671:2703   */\n      slt\n        /* \"#utility.yul\":2668:2787   */\n      iszero\n      tag_145\n      jumpi\n        /* \"#utility.yul\":2706:2785   */\n      tag_146\n      tag_81\n      jump\t// in\n    tag_146:\n        /* \"#utility.yul\":2668:2787   */\n    tag_145:\n        /* \"#utility.yul\":2854:2855   */\n      0x00\n        /* \"#utility.yul\":2843:2852   */\n      dup4\n        /* \"#utility.yul\":2839:2856   */\n      add\n        /* \"#utility.yul\":2826:2857   */\n      calldataload\n        /* \"#utility.yul\":2884:2902   */\n      0xffffffffffffffff\n        /* \"#utility.yul\":2876:2882   */\n      dup2\n        /* \"#utility.yul\":2873:2903   */\n      gt\n        /* \"#utility.yul\":2870:2987   */\n      iszero\n      tag_147\n      jumpi\n        /* \"#utility.yul\":2906:2985   */\n      tag_148\n      tag_82\n      jump\t// in\n    tag_148:\n        /* \"#utility.yul\":2870:2987   */\n    tag_147:\n        /* \"#utility.yul\":3011:3074   */\n      tag_149\n        /* \"#utility.yul\":3066:3073   */\n      dup6\n        /* \"#utility.yul\":3057:3063   */\n      dup3\n        /* \"#utility.yul\":3046:3055   */\n      dup7\n        /* \"#utility.yul\":3042:3064   */\n      add\n        /* \"#utility.yul\":3011:3074   */\n      tag_92\n      jump\t// in\n    tag_149:\n        /* \"#utility.yul\":3001:3074   */\n      swap3\n      pop\n        /* \"#utility.yul\":2797:3084   */\n      pop\n        /* \"#utility.yul\":3151:3153   */\n      0x20\n        /* \"#utility.yul\":3140:3149   */\n      dup4\n        /* \"#utility.yul\":3136:3154   */\n      add\n        /* \"#utility.yul\":3123:3155   */\n      calldataload\n        /* \"#utility.yul\":3182:3200   */\n      0xffffffffffffffff\n        /* \"#utility.yul\":3174:3180   */\n      dup2\n        /* \"#utility.yul\":3171:3201   */\n      gt\n        /* \"#utility.yul\":3168:3285   */\n      iszero\n      tag_150\n      jumpi\n        /* \"#utility.yul\":3204:3283   */\n      tag_151\n      tag_82\n      jump\t// in\n    tag_151:\n        /* \"#utility.yul\":3168:3285   */\n    tag_150:\n        /* \"#utility.yul\":3309:3372   */\n      tag_152\n        /* \"#utility.yul\":3364:3371   */\n      dup6\n        /* \"#utility.yul\":3355:3361   */\n      dup3\n        /* \"#utility.yul\":3344:3353   */\n      dup7\n        /* \"#utility.yul\":3340:3362   */\n      add\n        /* \"#utility.yul\":3309:3372   */\n      tag_92\n      jump\t// in\n    tag_152:\n        /* \"#utility.yul\":3299:3372   */\n      swap2\n      pop\n        /* \"#utility.yul\":3094:3382   */\n      pop\n        /* \"#utility.yul\":2555:3389   */\n      swap3\n      pop\n      swap3\n      swap1\n      pop\n      jump\t// out\n        /* \"#utility.yul\":3395:3485   */\n    tag_93:\n        /* \"#utility.yul\":3429:3436   */\n      0x00\n        /* \"#utility.yul\":3472:3477   */\n      dup2\n        /* \"#utility.yul\":3465:3478   */\n      iszero\n        /* \"#utility.yul\":3458:3479   */\n      iszero\n        /* \"#utility.yul\":3447:3479   */\n      swap1\n      pop\n        /* \"#utility.yul\":3395:3485   */\n      swap2\n      swap1\n      pop\n      jump\t// out\n        /* \"#utility.yul\":3491:3600   */\n    tag_94:\n        /* \"#utility.yul\":3572:3593   */\n      tag_155\n        /* \"#utility.yul\":3587:3592   */\n      dup2\n        /* \"#utility.yul\":3572:3593   */\n      tag_93\n      jump\t// in\n    tag_155:\n        /* \"#utility.yul\":3567:3570   */\n      dup3\n        /* \"#utility.yul\":3560:3594   */\n      mstore\n        /* \"#utility.yul\":3491:3600   */\n      pop\n      pop\n      jump\t// out\n        /* \"#utility.yul\":3606:3816   */\n    tag_14:\n        /* \"#utility.yul\":3693:3697   */\n      0x00\n        /* \"#utility.yul\":3731:3733   */\n      0x20\n        /* \"#utility.yul\":3720:3729   */\n      dup3\n        /* \"#utility.yul\":3716:3734   */\n      add\n        /* \"#utility.yul\":3708:3734   */\n      swap1\n      pop\n        /* \"#utility.yul\":3744:3809   */\n      tag_157\n        /* \"#utility.yul\":3806:3807   */\n      0x00\n        /* \"#utility.yul\":3795:3804   */\n      dup4\n        /* \"#utility.yul\":3791:3808   */\n      add\n        /* \"#utility.yul\":3782:3788   */\n      dup5\n        /* \"#utility.yul\":3744:3809   */\n      tag_94\n      jump\t// in\n    tag_157:\n        /* \"#utility.yul\":3606:3816   */\n      swap3\n      swap2\n      pop\n      pop\n      jump\t// out\n        /* \"#utility.yul\":3822:3991   */\n    tag_95:\n        /* \"#utility.yul\":3906:3917   */\n      0x00\n        /* \"#utility.yul\":3940:3946   */\n      dup3\n        /* \"#utility.yul\":3935:3938   */\n      dup3\n        /* \"#utility.yul\":3928:3947   */\n      mstore\n        /* \"#utility.yul\":3980:3984   */\n      0x20\n        /* \"#utility.yul\":3975:3978   */\n      dup3\n        /* \"#utility.yul\":3971:3985   */\n      add\n        /* \"#utility.yul\":3956:3985   */\n      swap1\n      pop\n        /* \"#utility.yul\":3822:3991   */\n      swap3\n      swap2\n      pop\n      pop\n      jump\t// out\n        /* \"#utility.yul\":3997:4165   */\n    tag_96:\n        /* \"#utility.yul\":4137:4157   */\n      0x49442063616e6e6f7420626520656d7074790000000000000000000000000000\n        /* \"#utility.yul\":4133:4134   */\n      0x00\n        /* \"#utility.yul\":4125:4131   */\n      dup3\n        /* \"#utility.yul\":4121:4135   */\n      add\n        /* \"#utility.yul\":4114:4158   */\n      mstore\n        /* \"#utility.yul\":3997:4165   */\n      pop\n      jump\t// out\n        /* \"#utility.yul\":4171:4537   */\n    tag_97:\n        /* \"#utility.yul\":4313:4316   */\n      0x00\n        /* \"#utility.yul\":4334:4401   */\n      tag_161\n        /* \"#utility.yul\":4398:4400   */\n      0x12\n        /* \"#utility.yul\":4393:4396   */\n      dup4\n        /* \"#utility.yul\":4334:4401   */\n      tag_95\n      jump\t// in\n    tag_161:\n        /* \"#utility.yul\":4327:4401   */\n      swap2\n      pop\n        /* \"#utility.yul\":4410:4503   */\n      tag_162\n        /* \"#utility.yul\":4499:4502   */\n      dup3\n        /* \"#utility.yul\":4410:4503   */\n      tag_96\n      jump\t// in\n    tag_162:\n        /* \"#utility.yul\":4528:4530   */\n      0x20\n        /* \"#utility.yul\":4523:4526   */\n      dup3\n        /* \"#utility.yul\":4519:4531   */\n      add\n        /* \"#utility.yul\":4512:4531   */\n      swap1\n      pop\n        /* \"#utility.yul\":4171:4537   */\n      swap2\n      swap1\n      pop\n      jump\t// out\n        /* \"#utility.yul\":4543:4962   */\n    tag_21:\n        /* \"#utility.yul\":4709:4713   */\n      0x00\n        /* \"#utility.yul\":4747:4749   */\n      0x20\n        /* \"#utility.yul\":4736:4745   */\n      dup3\n        /* \"#utility.yul\":4732:4750   */\n      add\n        /* \"#utility.yul\":4724:4750   */\n      swap1\n      pop\n        /* \"#utility.yul\":4796:4805   */\n      dup2\n        /* \"#utility.yul\":4790:4794   */\n      dup2\n        /* \"#utility.yul\":4786:4806   */\n      sub\n        /* \"#utility.yul\":4782:4783   */\n      0x00\n        /* \"#utility.yul\":4771:4780   */\n      dup4\n        /* \"#utility.yul\":4767:4784   */\n      add\n        /* \"#utility.yul\":4760:4807   */\n      mstore\n        /* \"#utility.yul\":4824:4955   */\n      tag_164\n        /* \"#utility.yul\":4950:4954   */\n      dup2\n        /* \"#utility.yul\":4824:4955   */\n      tag_97\n      jump\t// in\n    tag_164:\n        /* \"#utility.yul\":4816:4955   */\n      swap1\n      pop\n        /* \"#utility.yul\":4543:4962   */\n      swap2\n      swap1\n      pop\n      jump\t// out\n        /* \"#utility.yul\":4968:5142   */\n    tag_98:\n        /* \"#utility.yul\":5108:5134   */\n      0x50617373776f72642063616e6e6f7420626520656d7074790000000000000000\n        /* \"#utility.yul\":5104:5105   */\n      0x00\n        /* \"#utility.yul\":5096:5102   */\n      dup3\n        /* \"#utility.yul\":5092:5106   */\n      add\n        /* \"#utility.yul\":5085:5135   */\n      mstore\n        /* \"#utility.yul\":4968:5142   */\n      pop\n      jump\t// out\n        /* \"#utility.yul\":5148:5514   */\n    tag_99:\n        /* \"#utility.yul\":5290:5293   */\n      0x00\n        /* \"#utility.yul\":5311:5378   */\n      tag_167\n        /* \"#utility.yul\":5375:5377   */\n      0x18\n        /* \"#utility.yul\":5370:5373   */\n      dup4\n        /* \"#utility.yul\":5311:5378   */\n      tag_95\n      jump\t// in\n    tag_167:\n        /* \"#utility.yul\":5304:5378   */\n      swap2\n      pop\n        /* \"#utility.yul\":5387:5480   */\n      tag_168\n        /* \"#utility.yul\":5476:5479   */\n      dup3\n        /* \"#utility.yul\":5387:5480   */\n      tag_98\n      jump\t// in\n    tag_168:\n        /* \"#utility.yul\":5505:5507   */\n      0x20\n        /* \"#utility.yul\":5500:5503   */\n      dup3\n        /* \"#utility.yul\":5496:5508   */\n      add\n        /* \"#utility.yul\":5489:5508   */\n      swap1\n      pop\n        /* \"#utility.yul\":5148:5514   */\n      swap2\n      swap1\n      pop\n      jump\t// out\n        /* \"#utility.yul\":5520:5939   */\n    tag_24:\n        /* \"#utility.yul\":5686:5690   */\n      0x00\n        /* \"#utility.yul\":5724:5726   */\n      0x20\n        /* \"#utility.yul\":5713:5722   */\n      dup3\n        /* \"#utility.yul\":5709:5727   */\n      add\n        /* \"#utility.yul\":5701:5727   */\n      swap1\n      pop\n        /* \"#utility.yul\":5773:5782   */\n      dup2\n        /* \"#utility.yul\":5767:5771   */\n      dup2\n        /* \"#utility.yul\":5763:5783   */\n      sub\n        /* \"#utility.yul\":5759:5760   */\n      0x00\n        /* \"#utility.yul\":5748:5757   */\n      dup4\n        /* \"#utility.yul\":5744:5761   */\n      add\n        /* \"#utility.yul\":5737:5784   */\n      mstore\n        /* \"#utility.yul\":5801:5932   */\n      tag_170\n        /* \"#utility.yul\":5927:5931   */\n      dup2\n        /* \"#utility.yul\":5801:5932   */\n      tag_99\n      jump\t// in\n    tag_170:\n        /* \"#utility.yul\":5793:5932   */\n      swap1\n      pop\n        /* \"#utility.yul\":5520:5939   */\n      swap2\n      swap1\n      pop\n      jump\t// out\n        /* \"#utility.yul\":5945:6044   */\n    tag_100:\n        /* \"#utility.yul\":5997:6003   */\n      0x00\n        /* \"#utility.yul\":6031:6036   */\n      dup2\n        /* \"#utility.yul\":6025:6037   */\n      mload\n        /* \"#utility.yul\":6015:6037   */\n      swap1\n      pop\n        /* \"#utility.yul\":5945:6044   */\n      swap2\n      swap1\n      pop\n      jump\t// out\n        /* \"#utility.yul\":6050:6198   */\n    tag_101:\n        /* \"#utility.yul\":6152:6163   */\n      0x00\n        /* \"#utility.yul\":6189:6192   */\n      dup2\n        /* \"#utility.yul\":6174:6192   */\n      swap1\n      pop\n        /* \"#utility.yul\":6050:6198   */\n      swap3\n      swap2\n      pop\n      pop\n      jump\t// out\n        /* \"#utility.yul\":6204:6343   */\n    tag_102:\n        /* \"#utility.yul\":6293:6299   */\n      dup3\n        /* \"#utility.yul\":6288:6291   */\n      dup2\n        /* \"#utility.yul\":6283:6286   */\n      dup4\n        /* \"#utility.yul\":6277:6300   */\n      mcopy\n        /* \"#utility.yul\":6334:6335   */\n      0x00\n        /* \"#utility.yul\":6325:6331   */\n      dup4\n        /* \"#utility.yul\":6320:6323   */\n      dup4\n        /* \"#utility.yul\":6316:6332   */\n      add\n        /* \"#utility.yul\":6309:6336   */\n      mstore\n        /* \"#utility.yul\":6204:6343   */\n      pop\n      pop\n      pop\n      jump\t// out\n        /* \"#utility.yul\":6349:6739   */\n    tag_103:\n        /* \"#utility.yul\":6455:6458   */\n      0x00\n        /* \"#utility.yul\":6483:6522   */\n      tag_175\n        /* \"#utility.yul\":6516:6521   */\n      dup3\n        /* \"#utility.yul\":6483:6522   */\n      tag_100\n      jump\t// in\n    tag_175:\n        /* \"#utility.yul\":6538:6627   */\n      tag_176\n        /* \"#utility.yul\":6620:6626   */\n      dup2\n        /* \"#utility.yul\":6615:6618   */\n      dup6\n        /* \"#utility.yul\":6538:6627   */\n      tag_101\n      jump\t// in\n    tag_176:\n        /* \"#utility.yul\":6531:6627   */\n      swap4\n      pop\n        /* \"#utility.yul\":6636:6701   */\n      tag_177\n        /* \"#utility.yul\":6694:6700   */\n      dup2\n        /* \"#utility.yul\":6689:6692   */\n      dup6\n        /* \"#utility.yul\":6682:6686   */\n      0x20\n        /* \"#utility.yul\":6675:6680   */\n      dup7\n        /* \"#utility.yul\":6671:6687   */\n      add\n        /* \"#utility.yul\":6636:6701   */\n      tag_102\n      jump\t// in\n    tag_177:\n        /* \"#utility.yul\":6726:6732   */\n      dup1\n        /* \"#utility.yul\":6721:6724   */\n      dup5\n        /* \"#utility.yul\":6717:6733   */\n      add\n        /* \"#utility.yul\":6710:6733   */\n      swap2\n      pop\n        /* \"#utility.yul\":6459:6739   */\n      pop\n        /* \"#utility.yul\":6349:6739   */\n      swap3\n      swap2\n      pop\n      pop\n      jump\t// out\n        /* \"#utility.yul\":6745:7020   */\n    tag_27:\n        /* \"#utility.yul\":6877:6880   */\n      0x00\n        /* \"#utility.yul\":6899:6994   */\n      tag_179\n        /* \"#utility.yul\":6990:6993   */\n      dup3\n        /* \"#utility.yul\":6981:6987   */\n      dup5\n        /* \"#utility.yul\":6899:6994   */\n      tag_103\n      jump\t// in\n    tag_179:\n        /* \"#utility.yul\":6892:6994   */\n      swap2\n      pop\n        /* \"#utility.yul\":7011:7014   */\n      dup2\n        /* \"#utility.yul\":7004:7014   */\n      swap1\n      pop\n        /* \"#utility.yul\":6745:7020   */\n      swap3\n      swap2\n      pop\n      pop\n      jump\t// out\n        /* \"#utility.yul\":7026:7193   */\n    tag_104:\n        /* \"#utility.yul\":7166:7185   */\n      0x494420616c726561647920657869737473000000000000000000000000000000\n        /* \"#utility.yul\":7162:7163   */\n      0x00\n        /* \"#utility.yul\":7154:7160   */\n      dup3\n        /* \"#utility.yul\":7150:7164   */\n      add\n        /* \"#utility.yul\":7143:7186   */\n      mstore\n        /* \"#utility.yul\":7026:7193   */\n      pop\n      jump\t// out\n        /* \"#utility.yul\":7199:7565   */\n    tag_105:\n        /* \"#utility.yul\":7341:7344   */\n      0x00\n        /* \"#utility.yul\":7362:7429   */\n      tag_182\n        /* \"#utility.yul\":7426:7428   */\n      0x11\n        /* \"#utility.yul\":7421:7424   */\n      dup4\n        /* \"#utility.yul\":7362:7429   */\n      tag_95\n      jump\t// in\n    tag_182:\n        /* \"#utility.yul\":7355:7429   */\n      swap2\n      pop\n        /* \"#utility.yul\":7438:7531   */\n      tag_183\n        /* \"#utility.yul\":7527:7530   */\n      dup3\n        /* \"#utility.yul\":7438:7531   */\n      tag_104\n      jump\t// in\n    tag_183:\n        /* \"#utility.yul\":7556:7558   */\n      0x20\n        /* \"#utility.yul\":7551:7554   */\n      dup3\n        /* \"#utility.yul\":7547:7559   */\n      add\n        /* \"#utility.yul\":7540:7559   */\n      swap1\n      pop\n        /* \"#utility.yul\":7199:7565   */\n      swap2\n      swap1\n      pop\n      jump\t// out\n        /* \"#utility.yul\":7571:7990   */\n    tag_30:\n        /* \"#utility.yul\":7737:7741   */\n      0x00\n        /* \"#utility.yul\":7775:7777   */\n      0x20\n        /* \"#utility.yul\":7764:7773   */\n      dup3\n        /* \"#utility.yul\":7760:7778   */\n      add\n        /* \"#utility.yul\":7752:7778   */\n      swap1\n      pop\n        /* \"#utility.yul\":7824:7833   */\n      dup2\n        /* \"#utility.yul\":7818:7822   */\n      dup2\n        /* \"#utility.yul\":7814:7834   */\n      sub\n        /* \"#utility.yul\":7810:7811   */\n      0x00\n        /* \"#utility.yul\":7799:7808   */\n      dup4\n        /* \"#utility.yul\":7795:7812   */\n      add\n        /* \"#utility.yul\":7788:7835   */\n      mstore\n        /* \"#utility.yul\":7852:7983   */\n      tag_185\n        /* \"#utility.yul\":7978:7982   */\n      dup2\n        /* \"#utility.yul\":7852:7983   */\n      tag_105\n      jump\t// in\n    tag_185:\n        /* \"#utility.yul\":7844:7983   */\n      swap1\n      pop\n        /* \"#utility.yul\":7571:7990   */\n      swap2\n      swap1\n      pop\n      jump\t// out\n        /* \"#utility.yul\":7996:8224   */\n    tag_106:\n        /* \"#utility.yul\":8136:8170   */\n      0x546f6f206d616e79206661696c656420617474656d7074732e204163636f756e\n        /* \"#utility.yul\":8132:8133   */\n      0x00\n        /* \"#utility.yul\":8124:8130   */\n      dup3\n        /* \"#utility.yul\":8120:8134   */\n      add\n        /* \"#utility.yul\":8113:8171   */\n      mstore\n        /* \"#utility.yul\":8205:8216   */\n      0x74206c6f636b65642e0000000000000000000000000000000000000000000000\n        /* \"#utility.yul\":8200:8202   */\n      0x20\n        /* \"#utility.yul\":8192:8198   */\n      dup3\n        /* \"#utility.yul\":8188:8203   */\n      add\n        /* \"#utility.yul\":8181:8217   */\n      mstore\n        /* \"#utility.yul\":7996:8224   */\n      pop\n      jump\t// out\n        /* \"#utility.yul\":8230:8596   */\n    tag_107:\n        /* \"#utility.yul\":8372:8375   */\n      0x00\n        /* \"#utility.yul\":8393:8460   */\n      tag_188\n        /* \"#utility.yul\":8457:8459   */\n      0x29\n        /* \"#utility.yul\":8452:8455   */\n      dup4\n        /* \"#utility.yul\":8393:8460   */\n      tag_95\n      jump\t// in\n    tag_188:\n        /* \"#utility.yul\":8386:8460   */\n      swap2\n      pop\n        /* \"#utility.yul\":8469:8562   */\n      tag_189\n        /* \"#utility.yul\":8558:8561   */\n      dup3\n        /* \"#utility.yul\":8469:8562   */\n      tag_106\n      jump\t// in\n    tag_189:\n        /* \"#utility.yul\":8587:8589   */\n      0x40\n        /* \"#utility.yul\":8582:8585   */\n      dup3\n        /* \"#utility.yul\":8578:8590   */\n      add\n        /* \"#utility.yul\":8571:8590   */\n      swap1\n      pop\n        /* \"#utility.yul\":8230:8596   */\n      swap2\n      swap1\n      pop\n      jump\t// out\n        /* \"#utility.yul\":8602:9021   */\n    tag_44:\n        /* \"#utility.yul\":8768:8772   */\n      0x00\n        /* \"#utility.yul\":8806:8808   */\n      0x20\n        /* \"#utility.yul\":8795:8804   */\n      dup3\n        /* \"#utility.yul\":8791:8809   */\n      add\n        /* \"#utility.yul\":8783:8809   */\n      swap1\n      pop\n        /* \"#utility.yul\":8855:8864   */\n      dup2\n        /* \"#utility.yul\":8849:8853   */\n      dup2\n        /* \"#utility.yul\":8845:8865   */\n      sub\n        /* \"#utility.yul\":8841:8842   */\n      0x00\n        /* \"#utility.yul\":8830:8839   */\n      dup4\n        /* \"#utility.yul\":8826:8843   */\n      add\n        /* \"#utility.yul\":8819:8866   */\n      mstore\n        /* \"#utility.yul\":8883:9014   */\n      tag_191\n        /* \"#utility.yul\":9009:9013   */\n      dup2\n        /* \"#utility.yul\":8883:9014   */\n      tag_107\n      jump\t// in\n    tag_191:\n        /* \"#utility.yul\":8875:9014   */\n      swap1\n      pop\n        /* \"#utility.yul\":8602:9021   */\n      swap2\n      swap1\n      pop\n      jump\t// out\n        /* \"#utility.yul\":9027:9196   */\n    tag_108:\n        /* \"#utility.yul\":9167:9188   */\n      0x5573657220646f6573206e6f7420657869737400000000000000000000000000\n        /* \"#utility.yul\":9163:9164   */\n      0x00\n        /* \"#utility.yul\":9155:9161   */\n      dup3\n        /* \"#utility.yul\":9151:9165   */\n      add\n        /* \"#utility.yul\":9144:9189   */\n      mstore\n        /* \"#utility.yul\":9027:9196   */\n      pop\n      jump\t// out\n        /* \"#utility.yul\":9202:9568   */\n    tag_109:\n        /* \"#utility.yul\":9344:9347   */\n      0x00\n        /* \"#utility.yul\":9365:9432   */\n      tag_194\n        /* \"#utility.yul\":9429:9431   */\n      0x13\n        /* \"#utility.yul\":9424:9427   */\n      dup4\n        /* \"#utility.yul\":9365:9432   */\n      tag_95\n      jump\t// in\n    tag_194:\n        /* \"#utility.yul\":9358:9432   */\n      swap2\n      pop\n        /* \"#utility.yul\":9441:9534   */\n      tag_195\n        /* \"#utility.yul\":9530:9533   */\n      dup3\n        /* \"#utility.yul\":9441:9534   */\n      tag_108\n      jump\t// in\n    tag_195:\n        /* \"#utility.yul\":9559:9561   */\n      0x20\n        /* \"#utility.yul\":9554:9557   */\n      dup3\n        /* \"#utility.yul\":9550:9562   */\n      add\n        /* \"#utility.yul\":9543:9562   */\n      swap1\n      pop\n        /* \"#utility.yul\":9202:9568   */\n      swap2\n      swap1\n      pop\n      jump\t// out\n        /* \"#utility.yul\":9574:9993   */\n    tag_61:\n        /* \"#utility.yul\":9740:9744   */\n      0x00\n        /* \"#utility.yul\":9778:9780   */\n      0x20\n        /* \"#utility.yul\":9767:9776   */\n      dup3\n        /* \"#utility.yul\":9763:9781   */\n      add\n        /* \"#utility.yul\":9755:9781   */\n      swap1\n      pop\n        /* \"#utility.yul\":9827:9836   */\n      dup2\n        /* \"#utility.yul\":9821:9825   */\n      dup2\n        /* \"#utility.yul\":9817:9837   */\n      sub\n        /* \"#utility.yul\":9813:9814   */\n      0x00\n        /* \"#utility.yul\":9802:9811   */\n      dup4\n        /* \"#utility.yul\":9798:9815   */\n      add\n        /* \"#utility.yul\":9791:9838   */\n      mstore\n        /* \"#utility.yul\":9855:9986   */\n      tag_197\n        /* \"#utility.yul\":9981:9985   */\n      dup2\n        /* \"#utility.yul\":9855:9986   */\n      tag_109\n      jump\t// in\n    tag_197:\n        /* \"#utility.yul\":9847:9986   */\n      swap1\n      pop\n        /* \"#utility.yul\":9574:9993   */\n      swap2\n      swap1\n      pop\n      jump\t// out\n        /* \"#utility.yul\":9999:10167   */\n    tag_110:\n        /* \"#utility.yul\":10139:10159   */\n      0x496e636f72726563742070617373776f72640000000000000000000000000000\n        /* \"#utility.yul\":10135:10136   */\n      0x00\n        /* \"#utility.yul\":10127:10133   */\n      dup3\n        /* \"#utility.yul\":10123:10137   */\n      add\n        /* \"#utility.yul\":10116:10160   */\n      mstore\n        /* \"#utility.yul\":9999:10167   */\n      pop\n      jump\t// out\n        /* \"#utility.yul\":10173:10539   */\n    tag_111:\n        /* \"#utility.yul\":10315:10318   */\n      0x00\n        /* \"#utility.yul\":10336:10403   */\n      tag_200\n        /* \"#utility.yul\":10400:10402   */\n      0x12\n        /* \"#utility.yul\":10395:10398   */\n      dup4\n        /* \"#utility.yul\":10336:10403   */\n      tag_95\n      jump\t// in\n    tag_200:\n        /* \"#utility.yul\":10329:10403   */\n      swap2\n      pop\n        /* \"#utility.yul\":10412:10505   */\n      tag_201\n        /* \"#utility.yul\":10501:10504   */\n      dup3\n        /* \"#utility.yul\":10412:10505   */\n      tag_110\n      jump\t// in\n    tag_201:\n        /* \"#utility.yul\":10530:10532   */\n      0x20\n        /* \"#utility.yul\":10525:10528   */\n      dup3\n        /* \"#utility.yul\":10521:10533   */\n      add\n        /* \"#utility.yul\":10514:10533   */\n      swap1\n      pop\n        /* \"#utility.yul\":10173:10539   */\n      swap2\n      swap1\n      pop\n      jump\t// out\n        /* \"#utility.yul\":10545:10964   */\n    tag_69:\n        /* \"#utility.yul\":10711:10715   */\n      0x00\n        /* \"#utility.yul\":10749:10751   */\n      0x20\n        /* \"#utility.yul\":10738:10747   */\n      dup3\n        /* \"#utility.yul\":10734:10752   */\n      add\n        /* \"#utility.yul\":10726:10752   */\n      swap1\n      pop\n        /* \"#utility.yul\":10798:10807   */\n      dup2\n        /* \"#utility.yul\":10792:10796   */\n      dup2\n        /* \"#utility.yul\":10788:10808   */\n      sub\n        /* \"#utility.yul\":10784:10785   */\n      0x00\n        /* \"#utility.yul\":10773:10782   */\n      dup4\n        /* \"#utility.yul\":10769:10786   */\n      add\n        /* \"#utility.yul\":10762:10809   */\n      mstore\n        /* \"#utility.yul\":10826:10957   */\n      tag_203\n        /* \"#utility.yul\":10952:10956   */\n      dup2\n        /* \"#utility.yul\":10826:10957   */\n      tag_111\n      jump\t// in\n    tag_203:\n        /* \"#utility.yul\":10818:10957   */\n      swap1\n      pop\n        /* \"#utility.yul\":10545:10964   */\n      swap2\n      swap1\n      pop\n      jump\t// out\n        /* \"#utility.yul\":10970:11405   */\n    tag_72:\n        /* \"#utility.yul\":11150:11153   */\n      0x00\n        /* \"#utility.yul\":11172:11267   */\n      tag_205\n        /* \"#utility.yul\":11263:11266   */\n      dup3\n        /* \"#utility.yul\":11254:11260   */\n      dup6\n        /* \"#utility.yul\":11172:11267   */\n      tag_103\n      jump\t// in\n    tag_205:\n        /* \"#utility.yul\":11165:11267   */\n      swap2\n      pop\n        /* \"#utility.yul\":11284:11379   */\n      tag_206\n        /* \"#utility.yul\":11375:11378   */\n      dup3\n        /* \"#utility.yul\":11366:11372   */\n      dup5\n        /* \"#utility.yul\":11284:11379   */\n      tag_103\n      jump\t// in\n    tag_206:\n        /* \"#utility.yul\":11277:11379   */\n      swap2\n      pop\n        /* \"#utility.yul\":11396:11399   */\n      dup2\n        /* \"#utility.yul\":11389:11399   */\n      swap1\n      pop\n        /* \"#utility.yul\":10970:11405   */\n      swap4\n      swap3\n      pop\n      pop\n      pop\n      jump\t// out\n        /* \"#utility.yul\":11411:11591   */\n    tag_112:\n        /* \"#utility.yul\":11459:11536   */\n      0x4e487b7100000000000000000000000000000000000000000000000000000000\n        /* \"#utility.yul\":11456:11457   */\n      0x00\n        /* \"#utility.yul\":11449:11537   */\n      mstore\n        /* \"#utility.yul\":11556:11560   */\n      0x11\n        /* \"#utility.yul\":11553:11554   */\n      0x04\n        /* \"#utility.yul\":11546:11561   */\n      mstore\n        /* \"#utility.yul\":11580:11584   */\n      0x24\n        /* \"#utility.yul\":11577:11578   */\n      0x00\n        /* \"#utility.yul\":11570:11585   */\n      revert\n        /* \"#utility.yul\":11597:11674   */\n    tag_113:\n        /* \"#utility.yul\":11634:11641   */\n      0x00\n        /* \"#utility.yul\":11663:11668   */\n      dup2\n        /* \"#utility.yul\":11652:11668   */\n      swap1\n      pop\n        /* \"#utility.yul\":11597:11674   */\n      swap2\n      swap1\n      pop\n      jump\t// out\n        /* \"#utility.yul\":11680:11913   */\n    tag_76:\n        /* \"#utility.yul\":11719:11722   */\n      0x00\n        /* \"#utility.yul\":11742:11766   */\n      tag_210\n        /* \"#utility.yul\":11760:11765   */\n      dup3\n        /* \"#utility.yul\":11742:11766   */\n      tag_113\n      jump\t// in\n    tag_210:\n        /* \"#utility.yul\":11733:11766   */\n      swap2\n      pop\n        /* \"#utility.yul\":11788:11854   */\n      0xffffffffffffffffffffffffffffffffffffffffffffffffffffffffffffffff\n        /* \"#utility.yul\":11781:11786   */\n      dup3\n        /* \"#utility.yul\":11778:11855   */\n      sub\n        /* \"#utility.yul\":11775:11878   */\n      tag_211\n      jumpi\n        /* \"#utility.yul\":11858:11876   */\n      tag_212\n      tag_112\n      jump\t// in\n    tag_212:\n        /* \"#utility.yul\":11775:11878   */\n    tag_211:\n        /* \"#utility.yul\":11905:11906   */\n      0x01\n        /* \"#utility.yul\":11898:11903   */\n      dup3\n        /* \"#utility.yul\":11894:11907   */\n      add\n        /* \"#utility.yul\":11887:11907   */\n      swap1\n      pop\n        /* \"#utility.yul\":11680:11913   */\n      swap2\n      swap1\n      pop\n      jump\t// out\n\n    auxdata: 0xa2646970667358221220d01b3cfc74a73510a8917f3bc2ade16c794303891fb38a732b3a43063d1ad4bd64736f6c634300081a0033\n}\n",
				"bytecode": {
					"linkReferences": {},
					"object": "6080604052348015600e575f80fd5b50610b0a8061001c5f395ff3fe608060405234801561000f575f80fd5b506004361061003f575f3560e01c80633ffbd47f1461004357806358467dbc1461005f578063b7c40bb31461008f575b5f80fd5b61005d6004803603810190610058919061067d565b6100ab565b005b6100796004803603810190610074919061067d565b6101c7565b604051610086919061070d565b60405180910390f35b6100a960048036038101906100a4919061067d565b61031f565b005b81815f8251116100f0576040517f08c379a00000000000000000000000000000000000000000000000000000000081526004016100e790610780565b60405180910390fd5b5f815111610133576040517f08c379a000000000000000000000000000000000000000000000000000000000815260040161012a906107e8565b60405180910390fd5b835f801b5f826040516101469190610858565b90815260200160405180910390205414610195576040517f08c379a000000000000000000000000000000000000000000000000000000000815260040161018c906108b8565b60405180910390fd5b61019f8585610484565b5f866040516101ae9190610858565b9081526020016040518091039020819055505050505050565b5f82825f82511161020d576040517f08c379a000000000000000000000000000000000000000000000000000000000815260040161020490610780565b60405180910390fd5b5f815111610250576040517f08c379a0000000000000000000000000000000000000000000000000000000008152600401610247906107e8565b60405180910390fd5b60056001866040516102629190610858565b908152602001604051809103902054106102b1576040517f08c379a00000000000000000000000000000000000000000000000000000000081526004016102a890610946565b60405180910390fd5b6102bb8585610484565b5f866040516102ca9190610858565b9081526020016040518091039020540361030a575f6001866040516102ef9190610858565b90815260200160405180910390208190555060019250610317565b610313856104b6565b5f92505b505092915050565b81815f825111610364576040517f08c379a000000000000000000000000000000000000000000000000000000000815260040161035b90610780565b60405180910390fd5b5f8151116103a7576040517f08c379a000000000000000000000000000000000000000000000000000000000815260040161039e906107e8565b60405180910390fd5b5f801b5f856040516103b99190610858565b90815260200160405180910390205403610408576040517f08c379a00000000000000000000000000000000000000000000000000000000081526004016103ff906109ae565b60405180910390fd5b6104128484610484565b5f856040516104219190610858565b908152602001604051809103902054036104435761043e846104ec565b61047e565b6040517f08c379a000000000000000000000000000000000000000000000000000000000815260040161047590610a16565b60405180910390fd5b50505050565b5f8282604051602001610498929190610a34565b60405160208183030381529060405280519060200120905092915050565b6001816040516104c69190610858565b90815260200160405180910390205f8154809291906104e490610a8d565b919050555050565b5f816040516104fb9190610858565b90815260200160405180910390205f905560018160405161051c9190610858565b90815260200160405180910390205f905550565b5f604051905090565b5f80fd5b5f80fd5b5f80fd5b5f80fd5b5f601f19601f8301169050919050565b7f4e487b71000000000000000000000000000000000000000000000000000000005f52604160045260245ffd5b61058f82610549565b810181811067ffffffffffffffff821117156105ae576105ad610559565b5b80604052505050565b5f6105c0610530565b90506105cc8282610586565b919050565b5f67ffffffffffffffff8211156105eb576105ea610559565b5b6105f482610549565b9050602081019050919050565b828183375f83830152505050565b5f61062161061c846105d1565b6105b7565b90508281526020810184848401111561063d5761063c610545565b5b610648848285610601565b509392505050565b5f82601f83011261066457610663610541565b5b813561067484826020860161060f565b91505092915050565b5f806040838503121561069357610692610539565b5b5f83013567ffffffffffffffff8111156106b0576106af61053d565b5b6106bc85828601610650565b925050602083013567ffffffffffffffff8111156106dd576106dc61053d565b5b6106e985828601610650565b9150509250929050565b5f8115159050919050565b610707816106f3565b82525050565b5f6020820190506107205f8301846106fe565b92915050565b5f82825260208201905092915050565b7f49442063616e6e6f7420626520656d70747900000000000000000000000000005f82015250565b5f61076a601283610726565b915061077582610736565b602082019050919050565b5f6020820190508181035f8301526107978161075e565b9050919050565b7f50617373776f72642063616e6e6f7420626520656d70747900000000000000005f82015250565b5f6107d2601883610726565b91506107dd8261079e565b602082019050919050565b5f6020820190508181035f8301526107ff816107c6565b9050919050565b5f81519050919050565b5f81905092915050565b8281835e5f83830152505050565b5f61083282610806565b61083c8185610810565b935061084c81856020860161081a565b80840191505092915050565b5f6108638284610828565b915081905092915050565b7f494420616c7265616479206578697374730000000000000000000000000000005f82015250565b5f6108a2601183610726565b91506108ad8261086e565b602082019050919050565b5f6020820190508181035f8301526108cf81610896565b9050919050565b7f546f6f206d616e79206661696c656420617474656d7074732e204163636f756e5f8201527f74206c6f636b65642e0000000000000000000000000000000000000000000000602082015250565b5f610930602983610726565b915061093b826108d6565b604082019050919050565b5f6020820190508181035f83015261095d81610924565b9050919050565b7f5573657220646f6573206e6f74206578697374000000000000000000000000005f82015250565b5f610998601383610726565b91506109a382610964565b602082019050919050565b5f6020820190508181035f8301526109c58161098c565b9050919050565b7f496e636f72726563742070617373776f726400000000000000000000000000005f82015250565b5f610a00601283610726565b9150610a0b826109cc565b602082019050919050565b5f6020820190508181035f830152610a2d816109f4565b9050919050565b5f610a3f8285610828565b9150610a4b8284610828565b91508190509392505050565b7f4e487b71000000000000000000000000000000000000000000000000000000005f52601160045260245ffd5b5f819050919050565b5f610a9782610a84565b91507fffffffffffffffffffffffffffffffffffffffffffffffffffffffffffffffff8203610ac957610ac8610a57565b5b60018201905091905056fea2646970667358221220d01b3cfc74a73510a8917f3bc2ade16c794303891fb38a732b3a43063d1ad4bd64736f6c634300081a0033",
					"opcodes": "PUSH1 0x80 PUSH1 0x40 MSTORE CALLVALUE DUP1 ISZERO PUSH1 0xE JUMPI PUSH0 DUP1 REVERT JUMPDEST POP PUSH2 0xB0A DUP1 PUSH2 0x1C PUSH0 CODECOPY PUSH0 RETURN INVALID PUSH1 0x80 PUSH1 0x40 MSTORE CALLVALUE DUP1 ISZERO PUSH2 0xF JUMPI PUSH0 DUP1 REVERT JUMPDEST POP PUSH1 0x4 CALLDATASIZE LT PUSH2 0x3F JUMPI PUSH0 CALLDATALOAD PUSH1 0xE0 SHR DUP1 PUSH4 0x3FFBD47F EQ PUSH2 0x43 JUMPI DUP1 PUSH4 0x58467DBC EQ PUSH2 0x5F JUMPI DUP1 PUSH4 0xB7C40BB3 EQ PUSH2 0x8F JUMPI JUMPDEST PUSH0 DUP1 REVERT JUMPDEST PUSH2 0x5D PUSH1 0x4 DUP1 CALLDATASIZE SUB DUP2 ADD SWAP1 PUSH2 0x58 SWAP2 SWAP1 PUSH2 0x67D JUMP JUMPDEST PUSH2 0xAB JUMP JUMPDEST STOP JUMPDEST PUSH2 0x79 PUSH1 0x4 DUP1 CALLDATASIZE SUB DUP2 ADD SWAP1 PUSH2 0x74 SWAP2 SWAP1 PUSH2 0x67D JUMP JUMPDEST PUSH2 0x1C7 JUMP JUMPDEST PUSH1 0x40 MLOAD PUSH2 0x86 SWAP2 SWAP1 PUSH2 0x70D JUMP JUMPDEST PUSH1 0x40 MLOAD DUP1 SWAP2 SUB SWAP1 RETURN JUMPDEST PUSH2 0xA9 PUSH1 0x4 DUP1 CALLDATASIZE SUB DUP2 ADD SWAP1 PUSH2 0xA4 SWAP2 SWAP1 PUSH2 0x67D JUMP JUMPDEST PUSH2 0x31F JUMP JUMPDEST STOP JUMPDEST DUP2 DUP2 PUSH0 DUP3 MLOAD GT PUSH2 0xF0 JUMPI PUSH1 0x40 MLOAD PUSH32 0x8C379A000000000000000000000000000000000000000000000000000000000 DUP2 MSTORE PUSH1 0x4 ADD PUSH2 0xE7 SWAP1 PUSH2 0x780 JUMP JUMPDEST PUSH1 0x40 MLOAD DUP1 SWAP2 SUB SWAP1 REVERT JUMPDEST PUSH0 DUP2 MLOAD GT PUSH2 0x133 JUMPI PUSH1 0x40 MLOAD PUSH32 0x8C379A000000000000000000000000000000000000000000000000000000000 DUP2 MSTORE PUSH1 0x4 ADD PUSH2 0x12A SWAP1 PUSH2 0x7E8 JUMP JUMPDEST PUSH1 0x40 MLOAD DUP1 SWAP2 SUB SWAP1 REVERT JUMPDEST DUP4 PUSH0 DUP1 SHL PUSH0 DUP3 PUSH1 0x40 MLOAD PUSH2 0x146 SWAP2 SWAP1 PUSH2 0x858 JUMP JUMPDEST SWAP1 DUP2 MSTORE PUSH1 0x20 ADD PUSH1 0x40 MLOAD DUP1 SWAP2 SUB SWAP1 KECCAK256 SLOAD EQ PUSH2 0x195 JUMPI PUSH1 0x40 MLOAD PUSH32 0x8C379A000000000000000000000000000000000000000000000000000000000 DUP2 MSTORE PUSH1 0x4 ADD PUSH2 0x18C SWAP1 PUSH2 0x8B8 JUMP JUMPDEST PUSH1 0x40 MLOAD DUP1 SWAP2 SUB SWAP1 REVERT JUMPDEST PUSH2 0x19F DUP6 DUP6 PUSH2 0x484 JUMP JUMPDEST PUSH0 DUP7 PUSH1 0x40 MLOAD PUSH2 0x1AE SWAP2 SWAP1 PUSH2 0x858 JUMP JUMPDEST SWAP1 DUP2 MSTORE PUSH1 0x20 ADD PUSH1 0x40 MLOAD DUP1 SWAP2 SUB SWAP1 KECCAK256 DUP2 SWAP1 SSTORE POP POP POP POP POP POP JUMP JUMPDEST PUSH0 DUP3 DUP3 PUSH0 DUP3 MLOAD GT PUSH2 0x20D JUMPI PUSH1 0x40 MLOAD PUSH32 0x8C379A000000000000000000000000000000000000000000000000000000000 DUP2 MSTORE PUSH1 0x4 ADD PUSH2 0x204 SWAP1 PUSH2 0x780 JUMP JUMPDEST PUSH1 0x40 MLOAD DUP1 SWAP2 SUB SWAP1 REVERT JUMPDEST PUSH0 DUP2 MLOAD GT PUSH2 0x250 JUMPI PUSH1 0x40 MLOAD PUSH32 0x8C379A000000000000000000000000000000000000000000000000000000000 DUP2 MSTORE PUSH1 0x4 ADD PUSH2 0x247 SWAP1 PUSH2 0x7E8 JUMP JUMPDEST PUSH1 0x40 MLOAD DUP1 SWAP2 SUB SWAP1 REVERT JUMPDEST PUSH1 0x5 PUSH1 0x1 DUP7 PUSH1 0x40 MLOAD PUSH2 0x262 SWAP2 SWAP1 PUSH2 0x858 JUMP JUMPDEST SWAP1 DUP2 MSTORE PUSH1 0x20 ADD PUSH1 0x40 MLOAD DUP1 SWAP2 SUB SWAP1 KECCAK256 SLOAD LT PUSH2 0x2B1 JUMPI PUSH1 0x40 MLOAD PUSH32 0x8C379A000000000000000000000000000000000000000000000000000000000 DUP2 MSTORE PUSH1 0x4 ADD PUSH2 0x2A8 SWAP1 PUSH2 0x946 JUMP JUMPDEST PUSH1 0x40 MLOAD DUP1 SWAP2 SUB SWAP1 REVERT JUMPDEST PUSH2 0x2BB DUP6 DUP6 PUSH2 0x484 JUMP JUMPDEST PUSH0 DUP7 PUSH1 0x40 MLOAD PUSH2 0x2CA SWAP2 SWAP1 PUSH2 0x858 JUMP JUMPDEST SWAP1 DUP2 MSTORE PUSH1 0x20 ADD PUSH1 0x40 MLOAD DUP1 SWAP2 SUB SWAP1 KECCAK256 SLOAD SUB PUSH2 0x30A JUMPI PUSH0 PUSH1 0x1 DUP7 PUSH1 0x40 MLOAD PUSH2 0x2EF SWAP2 SWAP1 PUSH2 0x858 JUMP JUMPDEST SWAP1 DUP2 MSTORE PUSH1 0x20 ADD PUSH1 0x40 MLOAD DUP1 SWAP2 SUB SWAP1 KECCAK256 DUP2 SWAP1 SSTORE POP PUSH1 0x1 SWAP3 POP PUSH2 0x317 JUMP JUMPDEST PUSH2 0x313 DUP6 PUSH2 0x4B6 JUMP JUMPDEST PUSH0 SWAP3 POP JUMPDEST POP POP SWAP3 SWAP2 POP POP JUMP JUMPDEST DUP2 DUP2 PUSH0 DUP3 MLOAD GT PUSH2 0x364 JUMPI PUSH1 0x40 MLOAD PUSH32 0x8C379A000000000000000000000000000000000000000000000000000000000 DUP2 MSTORE PUSH1 0x4 ADD PUSH2 0x35B SWAP1 PUSH2 0x780 JUMP JUMPDEST PUSH1 0x40 MLOAD DUP1 SWAP2 SUB SWAP1 REVERT JUMPDEST PUSH0 DUP2 MLOAD GT PUSH2 0x3A7 JUMPI PUSH1 0x40 MLOAD PUSH32 0x8C379A000000000000000000000000000000000000000000000000000000000 DUP2 MSTORE PUSH1 0x4 ADD PUSH2 0x39E SWAP1 PUSH2 0x7E8 JUMP JUMPDEST PUSH1 0x40 MLOAD DUP1 SWAP2 SUB SWAP1 REVERT JUMPDEST PUSH0 DUP1 SHL PUSH0 DUP6 PUSH1 0x40 MLOAD PUSH2 0x3B9 SWAP2 SWAP1 PUSH2 0x858 JUMP JUMPDEST SWAP1 DUP2 MSTORE PUSH1 0x20 ADD PUSH1 0x40 MLOAD DUP1 SWAP2 SUB SWAP1 KECCAK256 SLOAD SUB PUSH2 0x408 JUMPI PUSH1 0x40 MLOAD PUSH32 0x8C379A000000000000000000000000000000000000000000000000000000000 DUP2 MSTORE PUSH1 0x4 ADD PUSH2 0x3FF SWAP1 PUSH2 0x9AE JUMP JUMPDEST PUSH1 0x40 MLOAD DUP1 SWAP2 SUB SWAP1 REVERT JUMPDEST PUSH2 0x412 DUP5 DUP5 PUSH2 0x484 JUMP JUMPDEST PUSH0 DUP6 PUSH1 0x40 MLOAD PUSH2 0x421 SWAP2 SWAP1 PUSH2 0x858 JUMP JUMPDEST SWAP1 DUP2 MSTORE PUSH1 0x20 ADD PUSH1 0x40 MLOAD DUP1 SWAP2 SUB SWAP1 KECCAK256 SLOAD SUB PUSH2 0x443 JUMPI PUSH2 0x43E DUP5 PUSH2 0x4EC JUMP JUMPDEST PUSH2 0x47E JUMP JUMPDEST PUSH1 0x40 MLOAD PUSH32 0x8C379A000000000000000000000000000000000000000000000000000000000 DUP2 MSTORE PUSH1 0x4 ADD PUSH2 0x475 SWAP1 PUSH2 0xA16 JUMP JUMPDEST PUSH1 0x40 MLOAD DUP1 SWAP2 SUB SWAP1 REVERT JUMPDEST POP POP POP POP JUMP JUMPDEST PUSH0 DUP3 DUP3 PUSH1 0x40 MLOAD PUSH1 0x20 ADD PUSH2 0x498 SWAP3 SWAP2 SWAP1 PUSH2 0xA34 JUMP JUMPDEST PUSH1 0x40 MLOAD PUSH1 0x20 DUP2 DUP4 SUB SUB DUP2 MSTORE SWAP1 PUSH1 0x40 MSTORE DUP1 MLOAD SWAP1 PUSH1 0x20 ADD KECCAK256 SWAP1 POP SWAP3 SWAP2 POP POP JUMP JUMPDEST PUSH1 0x1 DUP2 PUSH1 0x40 MLOAD PUSH2 0x4C6 SWAP2 SWAP1 PUSH2 0x858 JUMP JUMPDEST SWAP1 DUP2 MSTORE PUSH1 0x20 ADD PUSH1 0x40 MLOAD DUP1 SWAP2 SUB SWAP1 KECCAK256 PUSH0 DUP2 SLOAD DUP1 SWAP3 SWAP2 SWAP1 PUSH2 0x4E4 SWAP1 PUSH2 0xA8D JUMP JUMPDEST SWAP2 SWAP1 POP SSTORE POP POP JUMP JUMPDEST PUSH0 DUP2 PUSH1 0x40 MLOAD PUSH2 0x4FB SWAP2 SWAP1 PUSH2 0x858 JUMP JUMPDEST SWAP1 DUP2 MSTORE PUSH1 0x20 ADD PUSH1 0x40 MLOAD DUP1 SWAP2 SUB SWAP1 KECCAK256 PUSH0 SWAP1 SSTORE PUSH1 0x1 DUP2 PUSH1 0x40 MLOAD PUSH2 0x51C SWAP2 SWAP1 PUSH2 0x858 JUMP JUMPDEST SWAP1 DUP2 MSTORE PUSH1 0x20 ADD PUSH1 0x40 MLOAD DUP1 SWAP2 SUB SWAP1 KECCAK256 PUSH0 SWAP1 SSTORE POP JUMP JUMPDEST PUSH0 PUSH1 0x40 MLOAD SWAP1 POP SWAP1 JUMP JUMPDEST PUSH0 DUP1 REVERT JUMPDEST PUSH0 DUP1 REVERT JUMPDEST PUSH0 DUP1 REVERT JUMPDEST PUSH0 DUP1 REVERT JUMPDEST PUSH0 PUSH1 0x1F NOT PUSH1 0x1F DUP4 ADD AND SWAP1 POP SWAP2 SWAP1 POP JUMP JUMPDEST PUSH32 0x4E487B7100000000000000000000000000000000000000000000000000000000 PUSH0 MSTORE PUSH1 0x41 PUSH1 0x4 MSTORE PUSH1 0x24 PUSH0 REVERT JUMPDEST PUSH2 0x58F DUP3 PUSH2 0x549 JUMP JUMPDEST DUP2 ADD DUP2 DUP2 LT PUSH8 0xFFFFFFFFFFFFFFFF DUP3 GT OR ISZERO PUSH2 0x5AE JUMPI PUSH2 0x5AD PUSH2 0x559 JUMP JUMPDEST JUMPDEST DUP1 PUSH1 0x40 MSTORE POP POP POP JUMP JUMPDEST PUSH0 PUSH2 0x5C0 PUSH2 0x530 JUMP JUMPDEST SWAP1 POP PUSH2 0x5CC DUP3 DUP3 PUSH2 0x586 JUMP JUMPDEST SWAP2 SWAP1 POP JUMP JUMPDEST PUSH0 PUSH8 0xFFFFFFFFFFFFFFFF DUP3 GT ISZERO PUSH2 0x5EB JUMPI PUSH2 0x5EA PUSH2 0x559 JUMP JUMPDEST JUMPDEST PUSH2 0x5F4 DUP3 PUSH2 0x549 JUMP JUMPDEST SWAP1 POP PUSH1 0x20 DUP2 ADD SWAP1 POP SWAP2 SWAP1 POP JUMP JUMPDEST DUP3 DUP2 DUP4 CALLDATACOPY PUSH0 DUP4 DUP4 ADD MSTORE POP POP POP JUMP JUMPDEST PUSH0 PUSH2 0x621 PUSH2 0x61C DUP5 PUSH2 0x5D1 JUMP JUMPDEST PUSH2 0x5B7 JUMP JUMPDEST SWAP1 POP DUP3 DUP2 MSTORE PUSH1 0x20 DUP2 ADD DUP5 DUP5 DUP5 ADD GT ISZERO PUSH2 0x63D JUMPI PUSH2 0x63C PUSH2 0x545 JUMP JUMPDEST JUMPDEST PUSH2 0x648 DUP5 DUP3 DUP6 PUSH2 0x601 JUMP JUMPDEST POP SWAP4 SWAP3 POP POP POP JUMP JUMPDEST PUSH0 DUP3 PUSH1 0x1F DUP4 ADD SLT PUSH2 0x664 JUMPI PUSH2 0x663 PUSH2 0x541 JUMP JUMPDEST JUMPDEST DUP2 CALLDATALOAD PUSH2 0x674 DUP5 DUP3 PUSH1 0x20 DUP7 ADD PUSH2 0x60F JUMP JUMPDEST SWAP2 POP POP SWAP3 SWAP2 POP POP JUMP JUMPDEST PUSH0 DUP1 PUSH1 0x40 DUP4 DUP6 SUB SLT ISZERO PUSH2 0x693 JUMPI PUSH2 0x692 PUSH2 0x539 JUMP JUMPDEST JUMPDEST PUSH0 DUP4 ADD CALLDATALOAD PUSH8 0xFFFFFFFFFFFFFFFF DUP2 GT ISZERO PUSH2 0x6B0 JUMPI PUSH2 0x6AF PUSH2 0x53D JUMP JUMPDEST JUMPDEST PUSH2 0x6BC DUP6 DUP3 DUP7 ADD PUSH2 0x650 JUMP JUMPDEST SWAP3 POP POP PUSH1 0x20 DUP4 ADD CALLDATALOAD PUSH8 0xFFFFFFFFFFFFFFFF DUP2 GT ISZERO PUSH2 0x6DD JUMPI PUSH2 0x6DC PUSH2 0x53D JUMP JUMPDEST JUMPDEST PUSH2 0x6E9 DUP6 DUP3 DUP7 ADD PUSH2 0x650 JUMP JUMPDEST SWAP2 POP POP SWAP3 POP SWAP3 SWAP1 POP JUMP JUMPDEST PUSH0 DUP2 ISZERO ISZERO SWAP1 POP SWAP2 SWAP1 POP JUMP JUMPDEST PUSH2 0x707 DUP2 PUSH2 0x6F3 JUMP JUMPDEST DUP3 MSTORE POP POP JUMP JUMPDEST PUSH0 PUSH1 0x20 DUP3 ADD SWAP1 POP PUSH2 0x720 PUSH0 DUP4 ADD DUP5 PUSH2 0x6FE JUMP JUMPDEST SWAP3 SWAP2 POP POP JUMP JUMPDEST PUSH0 DUP3 DUP3 MSTORE PUSH1 0x20 DUP3 ADD SWAP1 POP SWAP3 SWAP2 POP POP JUMP JUMPDEST PUSH32 0x49442063616E6E6F7420626520656D7074790000000000000000000000000000 PUSH0 DUP3 ADD MSTORE POP JUMP JUMPDEST PUSH0 PUSH2 0x76A PUSH1 0x12 DUP4 PUSH2 0x726 JUMP JUMPDEST SWAP2 POP PUSH2 0x775 DUP3 PUSH2 0x736 JUMP JUMPDEST PUSH1 0x20 DUP3 ADD SWAP1 POP SWAP2 SWAP1 POP JUMP JUMPDEST PUSH0 PUSH1 0x20 DUP3 ADD SWAP1 POP DUP2 DUP2 SUB PUSH0 DUP4 ADD MSTORE PUSH2 0x797 DUP2 PUSH2 0x75E JUMP JUMPDEST SWAP1 POP SWAP2 SWAP1 POP JUMP JUMPDEST PUSH32 0x50617373776F72642063616E6E6F7420626520656D7074790000000000000000 PUSH0 DUP3 ADD MSTORE POP JUMP JUMPDEST PUSH0 PUSH2 0x7D2 PUSH1 0x18 DUP4 PUSH2 0x726 JUMP JUMPDEST SWAP2 POP PUSH2 0x7DD DUP3 PUSH2 0x79E JUMP JUMPDEST PUSH1 0x20 DUP3 ADD SWAP1 POP SWAP2 SWAP1 POP JUMP JUMPDEST PUSH0 PUSH1 0x20 DUP3 ADD SWAP1 POP DUP2 DUP2 SUB PUSH0 DUP4 ADD MSTORE PUSH2 0x7FF DUP2 PUSH2 0x7C6 JUMP JUMPDEST SWAP1 POP SWAP2 SWAP1 POP JUMP JUMPDEST PUSH0 DUP2 MLOAD SWAP1 POP SWAP2 SWAP1 POP JUMP JUMPDEST PUSH0 DUP2 SWAP1 POP SWAP3 SWAP2 POP POP JUMP JUMPDEST DUP3 DUP2 DUP4 MCOPY PUSH0 DUP4 DUP4 ADD MSTORE POP POP POP JUMP JUMPDEST PUSH0 PUSH2 0x832 DUP3 PUSH2 0x806 JUMP JUMPDEST PUSH2 0x83C DUP2 DUP6 PUSH2 0x810 JUMP JUMPDEST SWAP4 POP PUSH2 0x84C DUP2 DUP6 PUSH1 0x20 DUP7 ADD PUSH2 0x81A JUMP JUMPDEST DUP1 DUP5 ADD SWAP2 POP POP SWAP3 SWAP2 POP POP JUMP JUMPDEST PUSH0 PUSH2 0x863 DUP3 DUP5 PUSH2 0x828 JUMP JUMPDEST SWAP2 POP DUP2 SWAP1 POP SWAP3 SWAP2 POP POP JUMP JUMPDEST PUSH32 0x494420616C726561647920657869737473000000000000000000000000000000 PUSH0 DUP3 ADD MSTORE POP JUMP JUMPDEST PUSH0 PUSH2 0x8A2 PUSH1 0x11 DUP4 PUSH2 0x726 JUMP JUMPDEST SWAP2 POP PUSH2 0x8AD DUP3 PUSH2 0x86E JUMP JUMPDEST PUSH1 0x20 DUP3 ADD SWAP1 POP SWAP2 SWAP1 POP JUMP JUMPDEST PUSH0 PUSH1 0x20 DUP3 ADD SWAP1 POP DUP2 DUP2 SUB PUSH0 DUP4 ADD MSTORE PUSH2 0x8CF DUP2 PUSH2 0x896 JUMP JUMPDEST SWAP1 POP SWAP2 SWAP1 POP JUMP JUMPDEST PUSH32 0x546F6F206D616E79206661696C656420617474656D7074732E204163636F756E PUSH0 DUP3 ADD MSTORE PUSH32 0x74206C6F636B65642E0000000000000000000000000000000000000000000000 PUSH1 0x20 DUP3 ADD MSTORE POP JUMP JUMPDEST PUSH0 PUSH2 0x930 PUSH1 0x29 DUP4 PUSH2 0x726 JUMP JUMPDEST SWAP2 POP PUSH2 0x93B DUP3 PUSH2 0x8D6 JUMP JUMPDEST PUSH1 0x40 DUP3 ADD SWAP1 POP SWAP2 SWAP1 POP JUMP JUMPDEST PUSH0 PUSH1 0x20 DUP3 ADD SWAP1 POP DUP2 DUP2 SUB PUSH0 DUP4 ADD MSTORE PUSH2 0x95D DUP2 PUSH2 0x924 JUMP JUMPDEST SWAP1 POP SWAP2 SWAP1 POP JUMP JUMPDEST PUSH32 0x5573657220646F6573206E6F7420657869737400000000000000000000000000 PUSH0 DUP3 ADD MSTORE POP JUMP JUMPDEST PUSH0 PUSH2 0x998 PUSH1 0x13 DUP4 PUSH2 0x726 JUMP JUMPDEST SWAP2 POP PUSH2 0x9A3 DUP3 PUSH2 0x964 JUMP JUMPDEST PUSH1 0x20 DUP3 ADD SWAP1 POP SWAP2 SWAP1 POP JUMP JUMPDEST PUSH0 PUSH1 0x20 DUP3 ADD SWAP1 POP DUP2 DUP2 SUB PUSH0 DUP4 ADD MSTORE PUSH2 0x9C5 DUP2 PUSH2 0x98C JUMP JUMPDEST SWAP1 POP SWAP2 SWAP1 POP JUMP JUMPDEST PUSH32 0x496E636F72726563742070617373776F72640000000000000000000000000000 PUSH0 DUP3 ADD MSTORE POP JUMP JUMPDEST PUSH0 PUSH2 0xA00 PUSH1 0x12 DUP4 PUSH2 0x726 JUMP JUMPDEST SWAP2 POP PUSH2 0xA0B DUP3 PUSH2 0x9CC JUMP JUMPDEST PUSH1 0x20 DUP3 ADD SWAP1 POP SWAP2 SWAP1 POP JUMP JUMPDEST PUSH0 PUSH1 0x20 DUP3 ADD SWAP1 POP DUP2 DUP2 SUB PUSH0 DUP4 ADD MSTORE PUSH2 0xA2D DUP2 PUSH2 0x9F4 JUMP JUMPDEST SWAP1 POP SWAP2 SWAP1 POP JUMP JUMPDEST PUSH0 PUSH2 0xA3F DUP3 DUP6 PUSH2 0x828 JUMP JUMPDEST SWAP2 POP PUSH2 0xA4B DUP3 DUP5 PUSH2 0x828 JUMP JUMPDEST SWAP2 POP DUP2 SWAP1 POP SWAP4 SWAP3 POP POP POP JUMP JUMPDEST PUSH32 0x4E487B7100000000000000000000000000000000000000000000000000000000 PUSH0 MSTORE PUSH1 0x11 PUSH1 0x4 MSTORE PUSH1 0x24 PUSH0 REVERT JUMPDEST PUSH0 DUP2 SWAP1 POP SWAP2 SWAP1 POP JUMP JUMPDEST PUSH0 PUSH2 0xA97 DUP3 PUSH2 0xA84 JUMP JUMPDEST SWAP2 POP PUSH32 0xFFFFFFFFFFFFFFFFFFFFFFFFFFFFFFFFFFFFFFFFFFFFFFFFFFFFFFFFFFFFFFFF DUP3 SUB PUSH2 0xAC9 JUMPI PUSH2 0xAC8 PUSH2 0xA57 JUMP JUMPDEST JUMPDEST PUSH1 0x1 DUP3 ADD SWAP1 POP SWAP2 SWAP1 POP JUMP INVALID LOG2 PUSH5 0x6970667358 0x22 SLT KECCAK256 0xD0 SHL EXTCODECOPY 0xFC PUSH21 0xA73510A8917F3BC2ADE16C794303891FB38A732B3A NUMBER MOD RETURNDATASIZE BYTE 0xD4 0xBD PUSH5 0x736F6C6343 STOP ADDMOD BYTE STOP CALLER "
				},
				"gasEstimates": {
					"creation": {
						"codeDepositCost": "565200",
						"executionCost": "598",
						"totalCost": "565798"
					},
					"external": {
						"deleteUser(string,string)": "infinite",
						"login(string,string)": "infinite",
						"register(string,string)": "infinite"
					},
					"internal": {
						"hashingUser(string memory,string memory)": "infinite",
						"incrementLoginAttempts(string memory)": "infinite",
						"resetUser(string memory)": "infinite"
					}
				},
				"methodIdentifiers": {
					"deleteUser(string,string)": "b7c40bb3",
					"login(string,string)": "58467dbc",
					"register(string,string)": "3ffbd47f"
				}
			},
			"storageLayout": {
				"storage": [
					{
						"astId": 5,
						"contract": "codingtest/codingtest_250103.sol:AUTH",
						"label": "user",
						"offset": 0,
						"slot": "0",
						"type": "t_mapping(t_string_memory_ptr,t_bytes32)"
					},
					{
						"astId": 9,
						"contract": "codingtest/codingtest_250103.sol:AUTH",
						"label": "loginAttempts",
						"offset": 0,
						"slot": "1",
						"type": "t_mapping(t_string_memory_ptr,t_uint256)"
					}
				],
				"types": {
					"t_bytes32": {
						"encoding": "inplace",
						"label": "bytes32",
						"numberOfBytes": "32"
					},
					"t_mapping(t_string_memory_ptr,t_bytes32)": {
						"encoding": "mapping",
						"key": "t_string_memory_ptr",
						"label": "mapping(string => bytes32)",
						"numberOfBytes": "32",
						"value": "t_bytes32"
					},
					"t_mapping(t_string_memory_ptr,t_uint256)": {
						"encoding": "mapping",
						"key": "t_string_memory_ptr",
						"label": "mapping(string => uint256)",
						"numberOfBytes": "32",
						"value": "t_uint256"
					},
					"t_string_memory_ptr": {
						"encoding": "bytes",
						"label": "string",
						"numberOfBytes": "32"
					},
					"t_uint256": {
						"encoding": "inplace",
						"label": "uint256",
						"numberOfBytes": "32"
					}
				}
			},
			"userdoc": {
				"kind": "user",
				"methods": {},
				"version": 1
			}
		}
	}
}