{
	"codingtest/codingtest_250106.sol": {
		"Game": {
			"abi": [
				{
					"inputs": [],
					"stateMutability": "nonpayable",
					"type": "constructor"
				},
				{
					"inputs": [
						{
							"internalType": "string",
							"name": "_name",
							"type": "string"
						}
					],
					"name": "convertScoreToEth",
					"outputs": [],
					"stateMutability": "nonpayable",
					"type": "function"
				},
				{
					"inputs": [
						{
							"internalType": "string",
							"name": "_name",
							"type": "string"
						}
					],
					"name": "depositFunds",
					"outputs": [],
					"stateMutability": "payable",
					"type": "function"
				},
				{
					"inputs": [],
					"name": "getContractBalance",
					"outputs": [
						{
							"internalType": "uint256",
							"name": "",
							"type": "uint256"
						}
					],
					"stateMutability": "view",
					"type": "function"
				},
				{
					"inputs": [],
					"name": "getRoomStatus",
					"outputs": [
						{
							"components": [
								{
									"internalType": "uint256",
									"name": "number",
									"type": "uint256"
								},
								{
									"internalType": "string",
									"name": "name",
									"type": "string"
								},
								{
									"internalType": "address",
									"name": "addr",
									"type": "address"
								},
								{
									"internalType": "uint256",
									"name": "balance",
									"type": "uint256"
								},
								{
									"internalType": "uint256",
									"name": "score",
									"type": "uint256"
								}
							],
							"internalType": "struct Game.User[4]",
							"name": "",
							"type": "tuple[4]"
						}
					],
					"stateMutability": "view",
					"type": "function"
				},
				{
					"inputs": [
						{
							"internalType": "string",
							"name": "_name",
							"type": "string"
						}
					],
					"name": "getUserByName",
					"outputs": [
						{
							"components": [
								{
									"internalType": "uint256",
									"name": "number",
									"type": "uint256"
								},
								{
									"internalType": "string",
									"name": "name",
									"type": "string"
								},
								{
									"internalType": "address",
									"name": "addr",
									"type": "address"
								},
								{
									"internalType": "uint256",
									"name": "balance",
									"type": "uint256"
								},
								{
									"internalType": "uint256",
									"name": "score",
									"type": "uint256"
								}
							],
							"internalType": "struct Game.User",
							"name": "",
							"type": "tuple"
						}
					],
					"stateMutability": "view",
					"type": "function"
				},
				{
					"inputs": [
						{
							"internalType": "string",
							"name": "_name",
							"type": "string"
						}
					],
					"name": "joinGameWithDeposit",
					"outputs": [],
					"stateMutability": "nonpayable",
					"type": "function"
				},
				{
					"inputs": [
						{
							"internalType": "string",
							"name": "_name",
							"type": "string"
						}
					],
					"name": "registerUser",
					"outputs": [],
					"stateMutability": "nonpayable",
					"type": "function"
				},
				{
					"inputs": [
						{
							"internalType": "uint256",
							"name": "",
							"type": "uint256"
						}
					],
					"name": "users",
					"outputs": [
						{
							"internalType": "uint256",
							"name": "number",
							"type": "uint256"
						},
						{
							"internalType": "string",
							"name": "name",
							"type": "string"
						},
						{
							"internalType": "address",
							"name": "addr",
							"type": "address"
						},
						{
							"internalType": "uint256",
							"name": "balance",
							"type": "uint256"
						},
						{
							"internalType": "uint256",
							"name": "score",
							"type": "uint256"
						}
					],
					"stateMutability": "view",
					"type": "function"
				},
				{
					"inputs": [
						{
							"internalType": "uint256",
							"name": "amount",
							"type": "uint256"
						}
					],
					"name": "withdraw",
					"outputs": [],
					"stateMutability": "nonpayable",
					"type": "function"
				}
			],
			"devdoc": {
				"kind": "dev",
				"methods": {},
				"version": 1
			},
			"evm": {
				"assembly": "    /* \"codingtest/codingtest_250106.sol\":70:4174  contract Game {... */\n  mstore(0x40, 0x80)\n    /* \"codingtest/codingtest_250106.sol\":312:313  1 */\n  0x01\n    /* \"codingtest/codingtest_250106.sol\":286:313  uint256 private userNum = 1 */\n  0x15\n  sstore\n    /* \"codingtest/codingtest_250106.sol\":347:348  0 */\n  0x00\n    /* \"codingtest/codingtest_250106.sol\":319:348  uint256 private roomCount = 0 */\n  0x16\n  sstore\n    /* \"codingtest/codingtest_250106.sol\":557:606  constructor() {... */\n  callvalue\n  dup1\n  iszero\n  tag_1\n  jumpi\n  0x00\n  dup1\n  revert\ntag_1:\n  pop\n    /* \"codingtest/codingtest_250106.sol\":589:599  msg.sender */\n  caller\n    /* \"codingtest/codingtest_250106.sol\":581:586  admin */\n  0x17\n  0x00\n    /* \"codingtest/codingtest_250106.sol\":581:599  admin = msg.sender */\n  0x0100\n  exp\n  dup2\n  sload\n  dup2\n  0xffffffffffffffffffffffffffffffffffffffff\n  mul\n  not\n  and\n  swap1\n  dup4\n  0xffffffffffffffffffffffffffffffffffffffff\n  and\n  mul\n  or\n  swap1\n  sstore\n  pop\n    /* \"codingtest/codingtest_250106.sol\":70:4174  contract Game {... */\n  dataSize(sub_0)\n  dup1\n  dataOffset(sub_0)\n  0x00\n  codecopy\n  0x00\n  return\nstop\n\nsub_0: assembly {\n        /* \"codingtest/codingtest_250106.sol\":70:4174  contract Game {... */\n      mstore(0x40, 0x80)\n      jumpi(tag_1, lt(calldatasize, 0x04))\n      shr(0xe0, calldataload(0x00))\n      dup1\n      0x6f9fb98a\n      gt\n      tag_11\n      jumpi\n      dup1\n      0x6f9fb98a\n      eq\n      tag_6\n      jumpi\n      dup1\n      0x704f1b94\n      eq\n      tag_7\n      jumpi\n      dup1\n      0x9e2c4fb0\n      eq\n      tag_8\n      jumpi\n      dup1\n      0x9e5a66ab\n      eq\n      tag_9\n      jumpi\n      dup1\n      0xa45ccbc6\n      eq\n      tag_10\n      jumpi\n      jump(tag_1)\n    tag_11:\n      dup1\n      0x2e1a7d4d\n      eq\n      tag_2\n      jumpi\n      dup1\n      0x365b98b2\n      eq\n      tag_3\n      jumpi\n      dup1\n      0x4bff5009\n      eq\n      tag_4\n      jumpi\n      dup1\n      0x551ba594\n      eq\n      tag_5\n      jumpi\n    tag_1:\n      0x00\n      dup1\n      revert\n        /* \"codingtest/codingtest_250106.sol\":3171:3391  function withdraw(uint256 amount) external onlyAdmin {... */\n    tag_2:\n      callvalue\n      dup1\n      iszero\n      tag_12\n      jumpi\n      0x00\n      dup1\n      revert\n    tag_12:\n      pop\n      tag_13\n      0x04\n      dup1\n      calldatasize\n      sub\n      dup2\n      add\n      swap1\n      tag_14\n      swap2\n      swap1\n      tag_15\n      jump\t// in\n    tag_14:\n      tag_16\n      jump\t// in\n    tag_13:\n      stop\n        /* \"codingtest/codingtest_250106.sol\":230:249  User[] public users */\n    tag_3:\n      callvalue\n      dup1\n      iszero\n      tag_17\n      jumpi\n      0x00\n      dup1\n      revert\n    tag_17:\n      pop\n      tag_18\n      0x04\n      dup1\n      calldatasize\n      sub\n      dup2\n      add\n      swap1\n      tag_19\n      swap2\n      swap1\n      tag_15\n      jump\t// in\n    tag_19:\n      tag_20\n      jump\t// in\n    tag_18:\n      mload(0x40)\n      tag_21\n      swap6\n      swap5\n      swap4\n      swap3\n      swap2\n      swap1\n      tag_22\n      jump\t// in\n    tag_21:\n      mload(0x40)\n      dup1\n      swap2\n      sub\n      swap1\n      return\n        /* \"codingtest/codingtest_250106.sol\":1161:1564  function getUserByName(string memory _name)... */\n    tag_4:\n      callvalue\n      dup1\n      iszero\n      tag_23\n      jumpi\n      0x00\n      dup1\n      revert\n    tag_23:\n      pop\n      tag_24\n      0x04\n      dup1\n      calldatasize\n      sub\n      dup2\n      add\n      swap1\n      tag_25\n      swap2\n      swap1\n      tag_26\n      jump\t// in\n    tag_25:\n      tag_27\n      jump\t// in\n    tag_24:\n      mload(0x40)\n      tag_28\n      swap2\n      swap1\n      tag_29\n      jump\t// in\n    tag_28:\n      mload(0x40)\n      dup1\n      swap2\n      sub\n      swap1\n      return\n        /* \"codingtest/codingtest_250106.sol\":3510:4172  function convertScoreToEth(string memory _name) external {... */\n    tag_5:\n      callvalue\n      dup1\n      iszero\n      tag_30\n      jumpi\n      0x00\n      dup1\n      revert\n    tag_30:\n      pop\n      tag_31\n      0x04\n      dup1\n      calldatasize\n      sub\n      dup2\n      add\n      swap1\n      tag_32\n      swap2\n      swap1\n      tag_26\n      jump\t// in\n    tag_32:\n      tag_33\n      jump\t// in\n    tag_31:\n      stop\n        /* \"codingtest/codingtest_250106.sol\":3397:3504  function getContractBalance() external view returns (uint256) {... */\n    tag_6:\n      callvalue\n      dup1\n      iszero\n      tag_34\n      jumpi\n      0x00\n      dup1\n      revert\n    tag_34:\n      pop\n      tag_35\n      tag_36\n      jump\t// in\n    tag_35:\n      mload(0x40)\n      tag_37\n      swap2\n      swap1\n      tag_38\n      jump\t// in\n    tag_37:\n      mload(0x40)\n      dup1\n      swap2\n      sub\n      swap1\n      return\n        /* \"codingtest/codingtest_250106.sol\":612:1155  function registerUser(string memory _name) external {... */\n    tag_7:\n      callvalue\n      dup1\n      iszero\n      tag_39\n      jumpi\n      0x00\n      dup1\n      revert\n    tag_39:\n      pop\n      tag_40\n      0x04\n      dup1\n      calldatasize\n      sub\n      dup2\n      add\n      swap1\n      tag_41\n      swap2\n      swap1\n      tag_26\n      jump\t// in\n    tag_41:\n      tag_42\n      jump\t// in\n    tag_40:\n      stop\n        /* \"codingtest/codingtest_250106.sol\":1886:2448  function joinGameWithDeposit(string memory _name) external {... */\n    tag_8:\n      callvalue\n      dup1\n      iszero\n      tag_43\n      jumpi\n      0x00\n      dup1\n      revert\n    tag_43:\n      pop\n      tag_44\n      0x04\n      dup1\n      calldatasize\n      sub\n      dup2\n      add\n      swap1\n      tag_45\n      swap2\n      swap1\n      tag_26\n      jump\t// in\n    tag_45:\n      tag_46\n      jump\t// in\n    tag_44:\n      stop\n        /* \"codingtest/codingtest_250106.sol\":3069:3165  function getRoomStatus() external view returns (User[4] memory) {... */\n    tag_9:\n      callvalue\n      dup1\n      iszero\n      tag_47\n      jumpi\n      0x00\n      dup1\n      revert\n    tag_47:\n      pop\n      tag_48\n      tag_49\n      jump\t// in\n    tag_48:\n      mload(0x40)\n      tag_50\n      swap2\n      swap1\n      tag_51\n      jump\t// in\n    tag_50:\n      mload(0x40)\n      dup1\n      swap2\n      sub\n      swap1\n      return\n        /* \"codingtest/codingtest_250106.sol\":1570:1880  function depositFunds(string memory _name) external payable {... */\n    tag_10:\n      tag_52\n      0x04\n      dup1\n      calldatasize\n      sub\n      dup2\n      add\n      swap1\n      tag_53\n      swap2\n      swap1\n      tag_26\n      jump\t// in\n    tag_53:\n      tag_54\n      jump\t// in\n    tag_52:\n      stop\n        /* \"codingtest/codingtest_250106.sol\":3171:3391  function withdraw(uint256 amount) external onlyAdmin {... */\n    tag_16:\n        /* \"codingtest/codingtest_250106.sol\":489:494  admin */\n      0x17\n      0x00\n      swap1\n      sload\n      swap1\n      0x0100\n      exp\n      swap1\n      div\n      0xffffffffffffffffffffffffffffffffffffffff\n      and\n        /* \"codingtest/codingtest_250106.sol\":475:494  msg.sender == admin */\n      0xffffffffffffffffffffffffffffffffffffffff\n      and\n        /* \"codingtest/codingtest_250106.sol\":475:485  msg.sender */\n      caller\n        /* \"codingtest/codingtest_250106.sol\":475:494  msg.sender == admin */\n      0xffffffffffffffffffffffffffffffffffffffff\n      and\n      eq\n        /* \"codingtest/codingtest_250106.sol\":467:533  require(msg.sender == admin, \"Only admin can perform this action\") */\n      tag_56\n      jumpi\n      mload(0x40)\n      0x08c379a000000000000000000000000000000000000000000000000000000000\n      dup2\n      mstore\n      0x04\n      add\n      tag_57\n      swap1\n      tag_58\n      jump\t// in\n    tag_57:\n      mload(0x40)\n      dup1\n      swap2\n      sub\n      swap1\n      revert\n    tag_56:\n        /* \"codingtest/codingtest_250106.sol\":3280:3286  amount */\n      dup1\n        /* \"codingtest/codingtest_250106.sol\":3255:3276  address(this).balance */\n      selfbalance\n        /* \"codingtest/codingtest_250106.sol\":3255:3286  address(this).balance >= amount */\n      lt\n      iszero\n        /* \"codingtest/codingtest_250106.sol\":3234:3343  require(... */\n      tag_60\n      jumpi\n      mload(0x40)\n      0x08c379a000000000000000000000000000000000000000000000000000000000\n      dup2\n      mstore\n      0x04\n      add\n      tag_61\n      swap1\n      tag_62\n      jump\t// in\n    tag_61:\n      mload(0x40)\n      dup1\n      swap2\n      sub\n      swap1\n      revert\n    tag_60:\n        /* \"codingtest/codingtest_250106.sol\":3361:3366  admin */\n      0x17\n      0x00\n      swap1\n      sload\n      swap1\n      0x0100\n      exp\n      swap1\n      div\n      0xffffffffffffffffffffffffffffffffffffffff\n      and\n        /* \"codingtest/codingtest_250106.sol\":3353:3376  payable(admin).transfer */\n      0xffffffffffffffffffffffffffffffffffffffff\n      and\n        /* \"codingtest/codingtest_250106.sol\":3353:3384  payable(admin).transfer(amount) */\n      0x08fc\n        /* \"codingtest/codingtest_250106.sol\":3377:3383  amount */\n      dup3\n        /* \"codingtest/codingtest_250106.sol\":3353:3384  payable(admin).transfer(amount) */\n      swap1\n      dup2\n      iszero\n      mul\n      swap1\n      mload(0x40)\n      0x00\n      mload(0x40)\n      dup1\n      dup4\n      sub\n      dup2\n      dup6\n      dup9\n      dup9\n      call\n      swap4\n      pop\n      pop\n      pop\n      pop\n      iszero\n      dup1\n      iszero\n      tag_64\n      jumpi\n      returndatasize\n      0x00\n      dup1\n      returndatacopy\n      revert(0x00, returndatasize)\n    tag_64:\n      pop\n        /* \"codingtest/codingtest_250106.sol\":3171:3391  function withdraw(uint256 amount) external onlyAdmin {... */\n      pop\n      jump\t// out\n        /* \"codingtest/codingtest_250106.sol\":230:249  User[] public users */\n    tag_20:\n      0x00\n      dup2\n      dup2\n      sload\n      dup2\n      lt\n      tag_65\n      jumpi\n      0x00\n      dup1\n      revert\n    tag_65:\n      swap1\n      0x00\n      mstore\n      keccak256(0x00, 0x20)\n      swap1\n      0x05\n      mul\n      add\n      0x00\n      swap2\n      pop\n      swap1\n      pop\n      dup1\n      0x00\n      add\n      sload\n      swap1\n      dup1\n      0x01\n      add\n      dup1\n      sload\n      tag_67\n      swap1\n      tag_68\n      jump\t// in\n    tag_67:\n      dup1\n      0x1f\n      add\n      0x20\n      dup1\n      swap2\n      div\n      mul\n      0x20\n      add\n      mload(0x40)\n      swap1\n      dup2\n      add\n      0x40\n      mstore\n      dup1\n      swap3\n      swap2\n      swap1\n      dup2\n      dup2\n      mstore\n      0x20\n      add\n      dup3\n      dup1\n      sload\n      tag_69\n      swap1\n      tag_68\n      jump\t// in\n    tag_69:\n      dup1\n      iszero\n      tag_70\n      jumpi\n      dup1\n      0x1f\n      lt\n      tag_71\n      jumpi\n      0x0100\n      dup1\n      dup4\n      sload\n      div\n      mul\n      dup4\n      mstore\n      swap2\n      0x20\n      add\n      swap2\n      jump(tag_70)\n    tag_71:\n      dup3\n      add\n      swap2\n      swap1\n      0x00\n      mstore\n      keccak256(0x00, 0x20)\n      swap1\n    tag_72:\n      dup2\n      sload\n      dup2\n      mstore\n      swap1\n      0x01\n      add\n      swap1\n      0x20\n      add\n      dup1\n      dup4\n      gt\n      tag_72\n      jumpi\n      dup3\n      swap1\n      sub\n      0x1f\n      and\n      dup3\n      add\n      swap2\n    tag_70:\n      pop\n      pop\n      pop\n      pop\n      pop\n      swap1\n      dup1\n      0x02\n      add\n      0x00\n      swap1\n      sload\n      swap1\n      0x0100\n      exp\n      swap1\n      div\n      0xffffffffffffffffffffffffffffffffffffffff\n      and\n      swap1\n      dup1\n      0x03\n      add\n      sload\n      swap1\n      dup1\n      0x04\n      add\n      sload\n      swap1\n      pop\n      dup6\n      jump\t// out\n        /* \"codingtest/codingtest_250106.sol\":1161:1564  function getUserByName(string memory _name)... */\n    tag_27:\n        /* \"codingtest/codingtest_250106.sol\":1250:1261  User memory */\n      tag_73\n      tag_74\n      jump\t// in\n    tag_73:\n        /* \"codingtest/codingtest_250106.sol\":1282:1291  uint256 i */\n      0x00\n        /* \"codingtest/codingtest_250106.sol\":1277:1524  for (uint256 i = 0; i < users.length; i++) {... */\n    tag_76:\n        /* \"codingtest/codingtest_250106.sol\":1301:1306  users */\n      0x00\n        /* \"codingtest/codingtest_250106.sol\":1301:1313  users.length */\n      dup1\n      sload\n      swap1\n      pop\n        /* \"codingtest/codingtest_250106.sol\":1297:1298  i */\n      dup2\n        /* \"codingtest/codingtest_250106.sol\":1297:1313  i < users.length */\n      lt\n        /* \"codingtest/codingtest_250106.sol\":1277:1524  for (uint256 i = 0; i < users.length; i++) {... */\n      iszero\n      tag_77\n      jumpi\n        /* \"codingtest/codingtest_250106.sol\":1444:1449  _name */\n      dup3\n        /* \"codingtest/codingtest_250106.sol\":1427:1450  abi.encodePacked(_name) */\n      add(0x20, mload(0x40))\n      tag_79\n      swap2\n      swap1\n      tag_80\n      jump\t// in\n    tag_79:\n      mload(0x40)\n      0x20\n      dup2\n      dup4\n      sub\n      sub\n      dup2\n      mstore\n      swap1\n      0x40\n      mstore\n        /* \"codingtest/codingtest_250106.sol\":1417:1451  keccak256(abi.encodePacked(_name)) */\n      dup1\n      mload\n      swap1\n      0x20\n      add\n      keccak256\n        /* \"codingtest/codingtest_250106.sol\":1382:1387  users */\n      0x00\n        /* \"codingtest/codingtest_250106.sol\":1388:1389  i */\n      dup3\n        /* \"codingtest/codingtest_250106.sol\":1382:1390  users[i] */\n      dup2\n      sload\n      dup2\n      lt\n      tag_81\n      jumpi\n      tag_82\n      tag_83\n      jump\t// in\n    tag_82:\n    tag_81:\n      swap1\n      0x00\n      mstore\n      keccak256(0x00, 0x20)\n      swap1\n      0x05\n      mul\n      add\n        /* \"codingtest/codingtest_250106.sol\":1382:1395  users[i].name */\n      0x01\n      add\n        /* \"codingtest/codingtest_250106.sol\":1365:1396  abi.encodePacked(users[i].name) */\n      add(0x20, mload(0x40))\n      tag_85\n      swap2\n      swap1\n      tag_86\n      jump\t// in\n    tag_85:\n      mload(0x40)\n      0x20\n      dup2\n      dup4\n      sub\n      sub\n      dup2\n      mstore\n      swap1\n      0x40\n      mstore\n        /* \"codingtest/codingtest_250106.sol\":1355:1397  keccak256(abi.encodePacked(users[i].name)) */\n      dup1\n      mload\n      swap1\n      0x20\n      add\n      keccak256\n        /* \"codingtest/codingtest_250106.sol\":1355:1451  keccak256(abi.encodePacked(users[i].name)) ==... */\n      sub\n        /* \"codingtest/codingtest_250106.sol\":1334:1514  if (... */\n      tag_87\n      jumpi\n        /* \"codingtest/codingtest_250106.sol\":1491:1496  users */\n      0x00\n        /* \"codingtest/codingtest_250106.sol\":1497:1498  i */\n      dup2\n        /* \"codingtest/codingtest_250106.sol\":1491:1499  users[i] */\n      dup2\n      sload\n      dup2\n      lt\n      tag_88\n      jumpi\n      tag_89\n      tag_83\n      jump\t// in\n    tag_89:\n    tag_88:\n      swap1\n      0x00\n      mstore\n      keccak256(0x00, 0x20)\n      swap1\n      0x05\n      mul\n      add\n        /* \"codingtest/codingtest_250106.sol\":1484:1499  return users[i] */\n      mload(0x40)\n      dup1\n      0xa0\n      add\n      0x40\n      mstore\n      swap1\n      dup2\n      0x00\n      dup3\n      add\n      sload\n      dup2\n      mstore\n      0x20\n      add\n      0x01\n      dup3\n      add\n      dup1\n      sload\n      tag_91\n      swap1\n      tag_68\n      jump\t// in\n    tag_91:\n      dup1\n      0x1f\n      add\n      0x20\n      dup1\n      swap2\n      div\n      mul\n      0x20\n      add\n      mload(0x40)\n      swap1\n      dup2\n      add\n      0x40\n      mstore\n      dup1\n      swap3\n      swap2\n      swap1\n      dup2\n      dup2\n      mstore\n      0x20\n      add\n      dup3\n      dup1\n      sload\n      tag_92\n      swap1\n      tag_68\n      jump\t// in\n    tag_92:\n      dup1\n      iszero\n      tag_93\n      jumpi\n      dup1\n      0x1f\n      lt\n      tag_94\n      jumpi\n      0x0100\n      dup1\n      dup4\n      sload\n      div\n      mul\n      dup4\n      mstore\n      swap2\n      0x20\n      add\n      swap2\n      jump(tag_93)\n    tag_94:\n      dup3\n      add\n      swap2\n      swap1\n      0x00\n      mstore\n      keccak256(0x00, 0x20)\n      swap1\n    tag_95:\n      dup2\n      sload\n      dup2\n      mstore\n      swap1\n      0x01\n      add\n      swap1\n      0x20\n      add\n      dup1\n      dup4\n      gt\n      tag_95\n      jumpi\n      dup3\n      swap1\n      sub\n      0x1f\n      and\n      dup3\n      add\n      swap2\n    tag_93:\n      pop\n      pop\n      pop\n      pop\n      pop\n      dup2\n      mstore\n      0x20\n      add\n      0x02\n      dup3\n      add\n      0x00\n      swap1\n      sload\n      swap1\n      0x0100\n      exp\n      swap1\n      div\n      0xffffffffffffffffffffffffffffffffffffffff\n      and\n      0xffffffffffffffffffffffffffffffffffffffff\n      and\n      0xffffffffffffffffffffffffffffffffffffffff\n      and\n      dup2\n      mstore\n      0x20\n      add\n      0x03\n      dup3\n      add\n      sload\n      dup2\n      mstore\n      0x20\n      add\n      0x04\n      dup3\n      add\n      sload\n      dup2\n      mstore\n      pop\n      pop\n      swap2\n      pop\n      pop\n      jump(tag_75)\n        /* \"codingtest/codingtest_250106.sol\":1334:1514  if (... */\n    tag_87:\n        /* \"codingtest/codingtest_250106.sol\":1315:1318  i++ */\n      dup1\n      dup1\n      0x01\n      add\n      swap2\n      pop\n      pop\n        /* \"codingtest/codingtest_250106.sol\":1277:1524  for (uint256 i = 0; i < users.length; i++) {... */\n      jump(tag_76)\n    tag_77:\n      pop\n        /* \"codingtest/codingtest_250106.sol\":1533:1557  revert(\"User not found\") */\n      mload(0x40)\n      0x08c379a000000000000000000000000000000000000000000000000000000000\n      dup2\n      mstore\n      0x04\n      add\n      tag_96\n      swap1\n      tag_97\n      jump\t// in\n    tag_96:\n      mload(0x40)\n      dup1\n      swap2\n      sub\n      swap1\n      revert\n        /* \"codingtest/codingtest_250106.sol\":1161:1564  function getUserByName(string memory _name)... */\n    tag_75:\n      swap2\n      swap1\n      pop\n      jump\t// out\n        /* \"codingtest/codingtest_250106.sol\":3510:4172  function convertScoreToEth(string memory _name) external {... */\n    tag_33:\n        /* \"codingtest/codingtest_250106.sol\":3577:3593  User memory user */\n      0x00\n        /* \"codingtest/codingtest_250106.sol\":3596:3616  getUserByName(_name) */\n      tag_99\n        /* \"codingtest/codingtest_250106.sol\":3610:3615  _name */\n      dup3\n        /* \"codingtest/codingtest_250106.sol\":3596:3609  getUserByName */\n      tag_27\n        /* \"codingtest/codingtest_250106.sol\":3596:3616  getUserByName(_name) */\n      jump\t// in\n    tag_99:\n        /* \"codingtest/codingtest_250106.sol\":3577:3616  User memory user = getUserByName(_name) */\n      swap1\n      pop\n        /* \"codingtest/codingtest_250106.sol\":3627:3644  uint256 ethAmount */\n      0x00\n        /* \"codingtest/codingtest_250106.sol\":3667:3676  0.1 ether */\n      0x016345785d8a0000\n        /* \"codingtest/codingtest_250106.sol\":3661:3663  10 */\n      0x0a\n        /* \"codingtest/codingtest_250106.sol\":3648:3652  user */\n      dup4\n        /* \"codingtest/codingtest_250106.sol\":3648:3658  user.score */\n      0x80\n      add\n      mload\n        /* \"codingtest/codingtest_250106.sol\":3648:3663  user.score / 10 */\n      tag_100\n      swap2\n      swap1\n      tag_101\n      jump\t// in\n    tag_100:\n        /* \"codingtest/codingtest_250106.sol\":3647:3676  (user.score / 10) * 0.1 ether */\n      tag_102\n      swap2\n      swap1\n      tag_103\n      jump\t// in\n    tag_102:\n        /* \"codingtest/codingtest_250106.sol\":3627:3676  uint256 ethAmount = (user.score / 10) * 0.1 ether */\n      swap1\n      pop\n        /* \"codingtest/codingtest_250106.sol\":3706:3707  0 */\n      0x00\n        /* \"codingtest/codingtest_250106.sol\":3694:3703  ethAmount */\n      dup2\n        /* \"codingtest/codingtest_250106.sol\":3694:3707  ethAmount > 0 */\n      gt\n        /* \"codingtest/codingtest_250106.sol\":3686:3739  require(ethAmount > 0, \"Not enough score to convert\") */\n      tag_104\n      jumpi\n      mload(0x40)\n      0x08c379a000000000000000000000000000000000000000000000000000000000\n      dup2\n      mstore\n      0x04\n      add\n      tag_105\n      swap1\n      tag_106\n      jump\t// in\n    tag_105:\n      mload(0x40)\n      dup1\n      swap2\n      sub\n      swap1\n      revert\n    tag_104:\n        /* \"codingtest/codingtest_250106.sol\":3795:3804  ethAmount */\n      dup1\n        /* \"codingtest/codingtest_250106.sol\":3770:3791  address(this).balance */\n      selfbalance\n        /* \"codingtest/codingtest_250106.sol\":3770:3804  address(this).balance >= ethAmount */\n      lt\n      iszero\n        /* \"codingtest/codingtest_250106.sol\":3749:3861  require(... */\n      tag_107\n      jumpi\n      mload(0x40)\n      0x08c379a000000000000000000000000000000000000000000000000000000000\n      dup2\n      mstore\n      0x04\n      add\n      tag_108\n      swap1\n      tag_62\n      jump\t// in\n    tag_108:\n      mload(0x40)\n      dup1\n      swap2\n      sub\n      swap1\n      revert\n    tag_107:\n        /* \"codingtest/codingtest_250106.sol\":3872:3894  uint256 userDeductSore */\n      0x00\n        /* \"codingtest/codingtest_250106.sol\":3917:3919  10 */\n      0x0a\n        /* \"codingtest/codingtest_250106.sol\":3911:3913  10 */\n      dup1\n        /* \"codingtest/codingtest_250106.sol\":3898:3902  user */\n      dup5\n        /* \"codingtest/codingtest_250106.sol\":3898:3908  user.score */\n      0x80\n      add\n      mload\n        /* \"codingtest/codingtest_250106.sol\":3898:3913  user.score / 10 */\n      tag_109\n      swap2\n      swap1\n      tag_101\n      jump\t// in\n    tag_109:\n        /* \"codingtest/codingtest_250106.sol\":3897:3919  (user.score / 10) * 10 */\n      tag_110\n      swap2\n      swap1\n      tag_103\n      jump\t// in\n    tag_110:\n        /* \"codingtest/codingtest_250106.sol\":3872:3919  uint256 userDeductSore = (user.score / 10) * 10 */\n      swap1\n      pop\n        /* \"codingtest/codingtest_250106.sol\":3935:3944  uint256 i */\n      0x00\n        /* \"codingtest/codingtest_250106.sol\":3930:4117  for (uint256 i = 0; i < users.length; i++) {... */\n    tag_111:\n        /* \"codingtest/codingtest_250106.sol\":3954:3959  users */\n      0x00\n        /* \"codingtest/codingtest_250106.sol\":3954:3966  users.length */\n      dup1\n      sload\n      swap1\n      pop\n        /* \"codingtest/codingtest_250106.sol\":3950:3951  i */\n      dup2\n        /* \"codingtest/codingtest_250106.sol\":3950:3966  i < users.length */\n      lt\n        /* \"codingtest/codingtest_250106.sol\":3930:4117  for (uint256 i = 0; i < users.length; i++) {... */\n      iszero\n      tag_112\n      jumpi\n        /* \"codingtest/codingtest_250106.sol\":4008:4012  user */\n      dup4\n        /* \"codingtest/codingtest_250106.sol\":4008:4017  user.addr */\n      0x40\n      add\n      mload\n        /* \"codingtest/codingtest_250106.sol\":3991:4017  users[i].addr == user.addr */\n      0xffffffffffffffffffffffffffffffffffffffff\n      and\n        /* \"codingtest/codingtest_250106.sol\":3991:3996  users */\n      0x00\n        /* \"codingtest/codingtest_250106.sol\":3997:3998  i */\n      dup3\n        /* \"codingtest/codingtest_250106.sol\":3991:3999  users[i] */\n      dup2\n      sload\n      dup2\n      lt\n      tag_114\n      jumpi\n      tag_115\n      tag_83\n      jump\t// in\n    tag_115:\n    tag_114:\n      swap1\n      0x00\n      mstore\n      keccak256(0x00, 0x20)\n      swap1\n      0x05\n      mul\n      add\n        /* \"codingtest/codingtest_250106.sol\":3991:4004  users[i].addr */\n      0x02\n      add\n      0x00\n      swap1\n      sload\n      swap1\n      0x0100\n      exp\n      swap1\n      div\n      0xffffffffffffffffffffffffffffffffffffffff\n      and\n        /* \"codingtest/codingtest_250106.sol\":3991:4017  users[i].addr == user.addr */\n      0xffffffffffffffffffffffffffffffffffffffff\n      and\n      sub\n        /* \"codingtest/codingtest_250106.sol\":3987:4107  if (users[i].addr == user.addr) {... */\n      tag_117\n      jumpi\n        /* \"codingtest/codingtest_250106.sol\":4055:4069  userDeductSore */\n      dup2\n        /* \"codingtest/codingtest_250106.sol\":4037:4042  users */\n      0x00\n        /* \"codingtest/codingtest_250106.sol\":4043:4044  i */\n      dup3\n        /* \"codingtest/codingtest_250106.sol\":4037:4045  users[i] */\n      dup2\n      sload\n      dup2\n      lt\n      tag_118\n      jumpi\n      tag_119\n      tag_83\n      jump\t// in\n    tag_119:\n    tag_118:\n      swap1\n      0x00\n      mstore\n      keccak256(0x00, 0x20)\n      swap1\n      0x05\n      mul\n      add\n        /* \"codingtest/codingtest_250106.sol\":4037:4051  users[i].score */\n      0x04\n      add\n      0x00\n        /* \"codingtest/codingtest_250106.sol\":4037:4069  users[i].score -= userDeductSore */\n      dup3\n      dup3\n      sload\n      tag_121\n      swap2\n      swap1\n      tag_122\n      jump\t// in\n    tag_121:\n      swap3\n      pop\n      pop\n      dup2\n      swap1\n      sstore\n      pop\n        /* \"codingtest/codingtest_250106.sol\":4087:4092  break */\n      jump(tag_112)\n        /* \"codingtest/codingtest_250106.sol\":3987:4107  if (users[i].addr == user.addr) {... */\n    tag_117:\n        /* \"codingtest/codingtest_250106.sol\":3968:3971  i++ */\n      dup1\n      dup1\n      0x01\n      add\n      swap2\n      pop\n      pop\n        /* \"codingtest/codingtest_250106.sol\":3930:4117  for (uint256 i = 0; i < users.length; i++) {... */\n      jump(tag_111)\n    tag_112:\n      pop\n        /* \"codingtest/codingtest_250106.sol\":4135:4139  user */\n      dup3\n        /* \"codingtest/codingtest_250106.sol\":4135:4144  user.addr */\n      0x40\n      add\n      mload\n        /* \"codingtest/codingtest_250106.sol\":4127:4154  payable(user.addr).transfer */\n      0xffffffffffffffffffffffffffffffffffffffff\n      and\n        /* \"codingtest/codingtest_250106.sol\":4127:4165  payable(user.addr).transfer(ethAmount) */\n      0x08fc\n        /* \"codingtest/codingtest_250106.sol\":4155:4164  ethAmount */\n      dup4\n        /* \"codingtest/codingtest_250106.sol\":4127:4165  payable(user.addr).transfer(ethAmount) */\n      swap1\n      dup2\n      iszero\n      mul\n      swap1\n      mload(0x40)\n      0x00\n      mload(0x40)\n      dup1\n      dup4\n      sub\n      dup2\n      dup6\n      dup9\n      dup9\n      call\n      swap4\n      pop\n      pop\n      pop\n      pop\n      iszero\n      dup1\n      iszero\n      tag_124\n      jumpi\n      returndatasize\n      0x00\n      dup1\n      returndatacopy\n      revert(0x00, returndatasize)\n    tag_124:\n      pop\n        /* \"codingtest/codingtest_250106.sol\":3567:4172  {... */\n      pop\n      pop\n      pop\n        /* \"codingtest/codingtest_250106.sol\":3510:4172  function convertScoreToEth(string memory _name) external {... */\n      pop\n      jump\t// out\n        /* \"codingtest/codingtest_250106.sol\":3397:3504  function getContractBalance() external view returns (uint256) {... */\n    tag_36:\n        /* \"codingtest/codingtest_250106.sol\":3450:3457  uint256 */\n      0x00\n        /* \"codingtest/codingtest_250106.sol\":3476:3497  address(this).balance */\n      selfbalance\n        /* \"codingtest/codingtest_250106.sol\":3469:3497  return address(this).balance */\n      swap1\n      pop\n        /* \"codingtest/codingtest_250106.sol\":3397:3504  function getContractBalance() external view returns (uint256) {... */\n      swap1\n      jump\t// out\n        /* \"codingtest/codingtest_250106.sol\":612:1155  function registerUser(string memory _name) external {... */\n    tag_42:\n        /* \"codingtest/codingtest_250106.sol\":679:688  uint256 i */\n      0x00\n        /* \"codingtest/codingtest_250106.sol\":674:915  for (uint256 i = 0; i < users.length; i++) {... */\n    tag_127:\n        /* \"codingtest/codingtest_250106.sol\":698:703  users */\n      0x00\n        /* \"codingtest/codingtest_250106.sol\":698:710  users.length */\n      dup1\n      sload\n      swap1\n      pop\n        /* \"codingtest/codingtest_250106.sol\":694:695  i */\n      dup2\n        /* \"codingtest/codingtest_250106.sol\":694:710  i < users.length */\n      lt\n        /* \"codingtest/codingtest_250106.sol\":674:915  for (uint256 i = 0; i < users.length; i++) {... */\n      iszero\n      tag_128\n      jumpi\n        /* \"codingtest/codingtest_250106.sol\":849:854  _name */\n      dup2\n        /* \"codingtest/codingtest_250106.sol\":832:855  abi.encodePacked(_name) */\n      add(0x20, mload(0x40))\n      tag_130\n      swap2\n      swap1\n      tag_80\n      jump\t// in\n    tag_130:\n      mload(0x40)\n      0x20\n      dup2\n      dup4\n      sub\n      sub\n      dup2\n      mstore\n      swap1\n      0x40\n      mstore\n        /* \"codingtest/codingtest_250106.sol\":822:856  keccak256(abi.encodePacked(_name)) */\n      dup1\n      mload\n      swap1\n      0x20\n      add\n      keccak256\n        /* \"codingtest/codingtest_250106.sol\":783:788  users */\n      0x00\n        /* \"codingtest/codingtest_250106.sol\":789:790  i */\n      dup3\n        /* \"codingtest/codingtest_250106.sol\":783:791  users[i] */\n      dup2\n      sload\n      dup2\n      lt\n      tag_131\n      jumpi\n      tag_132\n      tag_83\n      jump\t// in\n    tag_132:\n    tag_131:\n      swap1\n      0x00\n      mstore\n      keccak256(0x00, 0x20)\n      swap1\n      0x05\n      mul\n      add\n        /* \"codingtest/codingtest_250106.sol\":783:796  users[i].name */\n      0x01\n      add\n        /* \"codingtest/codingtest_250106.sol\":766:797  abi.encodePacked(users[i].name) */\n      add(0x20, mload(0x40))\n      tag_134\n      swap2\n      swap1\n      tag_86\n      jump\t// in\n    tag_134:\n      mload(0x40)\n      0x20\n      dup2\n      dup4\n      sub\n      sub\n      dup2\n      mstore\n      swap1\n      0x40\n      mstore\n        /* \"codingtest/codingtest_250106.sol\":756:798  keccak256(abi.encodePacked(users[i].name)) */\n      dup1\n      mload\n      swap1\n      0x20\n      add\n      keccak256\n        /* \"codingtest/codingtest_250106.sol\":756:856  keccak256(abi.encodePacked(users[i].name)) !=... */\n      sub\n        /* \"codingtest/codingtest_250106.sol\":731:904  require(... */\n      tag_135\n      jumpi\n      mload(0x40)\n      0x08c379a000000000000000000000000000000000000000000000000000000000\n      dup2\n      mstore\n      0x04\n      add\n      tag_136\n      swap1\n      tag_137\n      jump\t// in\n    tag_136:\n      mload(0x40)\n      dup1\n      swap2\n      sub\n      swap1\n      revert\n    tag_135:\n        /* \"codingtest/codingtest_250106.sol\":712:715  i++ */\n      dup1\n      dup1\n      0x01\n      add\n      swap2\n      pop\n      pop\n        /* \"codingtest/codingtest_250106.sol\":674:915  for (uint256 i = 0; i < users.length; i++) {... */\n      jump(tag_127)\n    tag_128:\n      pop\n        /* \"codingtest/codingtest_250106.sol\":924:929  users */\n      0x00\n        /* \"codingtest/codingtest_250106.sol\":948:1118  User({... */\n      mload(0x40)\n      dup1\n      0xa0\n      add\n      0x40\n      mstore\n      dup1\n        /* \"codingtest/codingtest_250106.sol\":979:986  userNum */\n      sload(0x15)\n        /* \"codingtest/codingtest_250106.sol\":948:1118  User({... */\n      dup2\n      mstore\n      0x20\n      add\n        /* \"codingtest/codingtest_250106.sol\":1010:1015  _name */\n      dup4\n        /* \"codingtest/codingtest_250106.sol\":948:1118  User({... */\n      dup2\n      mstore\n      0x20\n      add\n        /* \"codingtest/codingtest_250106.sol\":1039:1049  msg.sender */\n      caller\n        /* \"codingtest/codingtest_250106.sol\":948:1118  User({... */\n      0xffffffffffffffffffffffffffffffffffffffff\n      and\n      dup2\n      mstore\n      0x20\n      add\n        /* \"codingtest/codingtest_250106.sol\":1076:1077  0 */\n      0x00\n        /* \"codingtest/codingtest_250106.sol\":948:1118  User({... */\n      dup2\n      mstore\n      0x20\n      add\n        /* \"codingtest/codingtest_250106.sol\":1102:1103  0 */\n      0x00\n        /* \"codingtest/codingtest_250106.sol\":948:1118  User({... */\n      dup2\n      mstore\n      pop\n        /* \"codingtest/codingtest_250106.sol\":924:1128  users.push(... */\n      swap1\n      dup1\n      0x01\n      dup2\n      sload\n      add\n      dup1\n      dup3\n      sstore\n      dup1\n      swap2\n      pop\n      pop\n      0x01\n      swap1\n      sub\n      swap1\n      0x00\n      mstore\n      keccak256(0x00, 0x20)\n      swap1\n      0x05\n      mul\n      add\n      0x00\n      swap1\n      swap2\n      swap1\n      swap2\n      swap1\n      swap2\n      pop\n      0x00\n      dup3\n      add\n      mload\n      dup2\n      0x00\n      add\n      sstore\n      0x20\n      dup3\n      add\n      mload\n      dup2\n      0x01\n      add\n      swap1\n      dup2\n      tag_139\n      swap2\n      swap1\n      tag_140\n      jump\t// in\n    tag_139:\n      pop\n      0x40\n      dup3\n      add\n      mload\n      dup2\n      0x02\n      add\n      exp(0x0100, 0x00)\n      dup2\n      sload\n      dup2\n      0xffffffffffffffffffffffffffffffffffffffff\n      mul\n      not\n      and\n      swap1\n      dup4\n      0xffffffffffffffffffffffffffffffffffffffff\n      and\n      mul\n      or\n      swap1\n      sstore\n      pop\n      0x60\n      dup3\n      add\n      mload\n      dup2\n      0x03\n      add\n      sstore\n      0x80\n      dup3\n      add\n      mload\n      dup2\n      0x04\n      add\n      sstore\n      pop\n      pop\n        /* \"codingtest/codingtest_250106.sol\":1139:1146  userNum */\n      0x15\n      0x00\n        /* \"codingtest/codingtest_250106.sol\":1139:1148  userNum++ */\n      dup2\n      sload\n      dup1\n      swap3\n      swap2\n      swap1\n      tag_141\n      swap1\n      tag_142\n      jump\t// in\n    tag_141:\n      swap2\n      swap1\n      pop\n      sstore\n      pop\n        /* \"codingtest/codingtest_250106.sol\":612:1155  function registerUser(string memory _name) external {... */\n      pop\n      jump\t// out\n        /* \"codingtest/codingtest_250106.sol\":1886:2448  function joinGameWithDeposit(string memory _name) external {... */\n    tag_46:\n        /* \"codingtest/codingtest_250106.sol\":1955:1971  User memory user */\n      0x00\n        /* \"codingtest/codingtest_250106.sol\":1974:1994  getUserByName(_name) */\n      tag_144\n        /* \"codingtest/codingtest_250106.sol\":1988:1993  _name */\n      dup3\n        /* \"codingtest/codingtest_250106.sol\":1974:1987  getUserByName */\n      tag_27\n        /* \"codingtest/codingtest_250106.sol\":1974:1994  getUserByName(_name) */\n      jump\t// in\n    tag_144:\n        /* \"codingtest/codingtest_250106.sol\":1955:1994  User memory user = getUserByName(_name) */\n      swap1\n      pop\n        /* \"codingtest/codingtest_250106.sol\":2010:2019  uint256 i */\n      0x00\n        /* \"codingtest/codingtest_250106.sol\":2005:2344  for (uint256 i = 0; i < users.length; i++) {... */\n    tag_145:\n        /* \"codingtest/codingtest_250106.sol\":2029:2034  users */\n      0x00\n        /* \"codingtest/codingtest_250106.sol\":2029:2041  users.length */\n      dup1\n      sload\n      swap1\n      pop\n        /* \"codingtest/codingtest_250106.sol\":2025:2026  i */\n      dup2\n        /* \"codingtest/codingtest_250106.sol\":2025:2041  i < users.length */\n      lt\n        /* \"codingtest/codingtest_250106.sol\":2005:2344  for (uint256 i = 0; i < users.length; i++) {... */\n      iszero\n      tag_146\n      jumpi\n        /* \"codingtest/codingtest_250106.sol\":2083:2087  user */\n      dup2\n        /* \"codingtest/codingtest_250106.sol\":2083:2092  user.addr */\n      0x40\n      add\n      mload\n        /* \"codingtest/codingtest_250106.sol\":2066:2092  users[i].addr == user.addr */\n      0xffffffffffffffffffffffffffffffffffffffff\n      and\n        /* \"codingtest/codingtest_250106.sol\":2066:2071  users */\n      0x00\n        /* \"codingtest/codingtest_250106.sol\":2072:2073  i */\n      dup3\n        /* \"codingtest/codingtest_250106.sol\":2066:2074  users[i] */\n      dup2\n      sload\n      dup2\n      lt\n      tag_148\n      jumpi\n      tag_149\n      tag_83\n      jump\t// in\n    tag_149:\n    tag_148:\n      swap1\n      0x00\n      mstore\n      keccak256(0x00, 0x20)\n      swap1\n      0x05\n      mul\n      add\n        /* \"codingtest/codingtest_250106.sol\":2066:2079  users[i].addr */\n      0x02\n      add\n      0x00\n      swap1\n      sload\n      swap1\n      0x0100\n      exp\n      swap1\n      div\n      0xffffffffffffffffffffffffffffffffffffffff\n      and\n        /* \"codingtest/codingtest_250106.sol\":2066:2092  users[i].addr == user.addr */\n      0xffffffffffffffffffffffffffffffffffffffff\n      and\n      sub\n        /* \"codingtest/codingtest_250106.sol\":2062:2334  if (users[i].addr == user.addr) {... */\n      tag_151\n      jumpi\n        /* \"codingtest/codingtest_250106.sol\":391:401  0.01 ether */\n      0x2386f26fc10000\n        /* \"codingtest/codingtest_250106.sol\":2120:2125  users */\n      0x00\n        /* \"codingtest/codingtest_250106.sol\":2126:2127  i */\n      dup3\n        /* \"codingtest/codingtest_250106.sol\":2120:2128  users[i] */\n      dup2\n      sload\n      dup2\n      lt\n      tag_152\n      jumpi\n      tag_153\n      tag_83\n      jump\t// in\n    tag_153:\n    tag_152:\n      swap1\n      0x00\n      mstore\n      keccak256(0x00, 0x20)\n      swap1\n      0x05\n      mul\n      add\n        /* \"codingtest/codingtest_250106.sol\":2120:2136  users[i].balance */\n      0x03\n      add\n      sload\n        /* \"codingtest/codingtest_250106.sol\":2120:2149  users[i].balance >= ENTRY_FEE */\n      lt\n      iszero\n        /* \"codingtest/codingtest_250106.sol\":2112:2172  require(users[i].balance >= ENTRY_FEE, \"Not enough deposit\") */\n      tag_155\n      jumpi\n      mload(0x40)\n      0x08c379a000000000000000000000000000000000000000000000000000000000\n      dup2\n      mstore\n      0x04\n      add\n      tag_156\n      swap1\n      tag_157\n      jump\t// in\n    tag_156:\n      mload(0x40)\n      dup1\n      swap2\n      sub\n      swap1\n      revert\n    tag_155:\n        /* \"codingtest/codingtest_250106.sol\":391:401  0.01 ether */\n      0x2386f26fc10000\n        /* \"codingtest/codingtest_250106.sol\":2190:2195  users */\n      0x00\n        /* \"codingtest/codingtest_250106.sol\":2196:2197  i */\n      dup3\n        /* \"codingtest/codingtest_250106.sol\":2190:2198  users[i] */\n      dup2\n      sload\n      dup2\n      lt\n      tag_158\n      jumpi\n      tag_159\n      tag_83\n      jump\t// in\n    tag_159:\n    tag_158:\n      swap1\n      0x00\n      mstore\n      keccak256(0x00, 0x20)\n      swap1\n      0x05\n      mul\n      add\n        /* \"codingtest/codingtest_250106.sol\":2190:2206  users[i].balance */\n      0x03\n      add\n      0x00\n        /* \"codingtest/codingtest_250106.sol\":2190:2219  users[i].balance -= ENTRY_FEE */\n      dup3\n      dup3\n      sload\n      tag_161\n      swap2\n      swap1\n      tag_122\n      jump\t// in\n    tag_161:\n      swap3\n      pop\n      pop\n      dup2\n      swap1\n      sstore\n      pop\n        /* \"codingtest/codingtest_250106.sol\":2259:2264  users */\n      0x00\n        /* \"codingtest/codingtest_250106.sol\":2265:2266  i */\n      dup2\n        /* \"codingtest/codingtest_250106.sol\":2259:2267  users[i] */\n      dup2\n      sload\n      dup2\n      lt\n      tag_162\n      jumpi\n      tag_163\n      tag_83\n      jump\t// in\n    tag_163:\n    tag_162:\n      swap1\n      0x00\n      mstore\n      keccak256(0x00, 0x20)\n      swap1\n      0x05\n      mul\n      add\n        /* \"codingtest/codingtest_250106.sol\":2237:2245  gameRoom */\n      0x01\n        /* \"codingtest/codingtest_250106.sol\":2246:2255  roomCount */\n      sload(0x16)\n        /* \"codingtest/codingtest_250106.sol\":2237:2256  gameRoom[roomCount] */\n      0x04\n      dup2\n      lt\n      tag_165\n      jumpi\n      tag_166\n      tag_83\n      jump\t// in\n    tag_166:\n    tag_165:\n      0x05\n      mul\n      add\n        /* \"codingtest/codingtest_250106.sol\":2237:2267  gameRoom[roomCount] = users[i] */\n      0x00\n      dup3\n      add\n      sload\n      dup2\n      0x00\n      add\n      sstore\n      0x01\n      dup3\n      add\n      dup2\n      0x01\n      add\n      swap1\n      dup2\n      tag_168\n      swap2\n      swap1\n      tag_169\n      jump\t// in\n    tag_168:\n      pop\n      0x02\n      dup3\n      add\n      0x00\n      swap1\n      sload\n      swap1\n      0x0100\n      exp\n      swap1\n      div\n      0xffffffffffffffffffffffffffffffffffffffff\n      and\n      dup2\n      0x02\n      add\n      exp(0x0100, 0x00)\n      dup2\n      sload\n      dup2\n      0xffffffffffffffffffffffffffffffffffffffff\n      mul\n      not\n      and\n      swap1\n      dup4\n      0xffffffffffffffffffffffffffffffffffffffff\n      and\n      mul\n      or\n      swap1\n      sstore\n      pop\n      0x03\n      dup3\n      add\n      sload\n      dup2\n      0x03\n      add\n      sstore\n      0x04\n      dup3\n      add\n      sload\n      dup2\n      0x04\n      add\n      sstore\n      swap1\n      pop\n      pop\n        /* \"codingtest/codingtest_250106.sol\":2285:2294  roomCount */\n      0x16\n      0x00\n        /* \"codingtest/codingtest_250106.sol\":2285:2296  roomCount++ */\n      dup2\n      sload\n      dup1\n      swap3\n      swap2\n      swap1\n      tag_170\n      swap1\n      tag_142\n      jump\t// in\n    tag_170:\n      swap2\n      swap1\n      pop\n      sstore\n      pop\n        /* \"codingtest/codingtest_250106.sol\":2314:2319  break */\n      jump(tag_146)\n        /* \"codingtest/codingtest_250106.sol\":2062:2334  if (users[i].addr == user.addr) {... */\n    tag_151:\n        /* \"codingtest/codingtest_250106.sol\":2043:2046  i++ */\n      dup1\n      dup1\n      0x01\n      add\n      swap2\n      pop\n      pop\n        /* \"codingtest/codingtest_250106.sol\":2005:2344  for (uint256 i = 0; i < users.length; i++) {... */\n      jump(tag_145)\n    tag_146:\n      pop\n        /* \"codingtest/codingtest_250106.sol\":2371:2372  4 */\n      0x04\n        /* \"codingtest/codingtest_250106.sol\":2358:2367  roomCount */\n      sload(0x16)\n        /* \"codingtest/codingtest_250106.sol\":2358:2372  roomCount == 4 */\n      sub\n        /* \"codingtest/codingtest_250106.sol\":2354:2442  if (roomCount == 4) {... */\n      tag_171\n      jumpi\n        /* \"codingtest/codingtest_250106.sol\":2388:2402  assignScores() */\n      tag_172\n        /* \"codingtest/codingtest_250106.sol\":2388:2400  assignScores */\n      tag_173\n        /* \"codingtest/codingtest_250106.sol\":2388:2402  assignScores() */\n      jump\t// in\n    tag_172:\n        /* \"codingtest/codingtest_250106.sol\":2416:2431  resetGameRoom() */\n      tag_174\n        /* \"codingtest/codingtest_250106.sol\":2416:2429  resetGameRoom */\n      tag_175\n        /* \"codingtest/codingtest_250106.sol\":2416:2431  resetGameRoom() */\n      jump\t// in\n    tag_174:\n        /* \"codingtest/codingtest_250106.sol\":2354:2442  if (roomCount == 4) {... */\n    tag_171:\n        /* \"codingtest/codingtest_250106.sol\":1945:2448  {... */\n      pop\n        /* \"codingtest/codingtest_250106.sol\":1886:2448  function joinGameWithDeposit(string memory _name) external {... */\n      pop\n      jump\t// out\n        /* \"codingtest/codingtest_250106.sol\":3069:3165  function getRoomStatus() external view returns (User[4] memory) {... */\n    tag_49:\n        /* \"codingtest/codingtest_250106.sol\":3117:3131  User[4] memory */\n      tag_176\n      tag_177\n      jump\t// in\n    tag_176:\n        /* \"codingtest/codingtest_250106.sol\":3150:3158  gameRoom */\n      0x01\n        /* \"codingtest/codingtest_250106.sol\":3143:3158  return gameRoom */\n      0x04\n      dup1\n      0x20\n      mul\n      mload(0x40)\n      swap1\n      dup2\n      add\n      0x40\n      mstore\n      dup1\n      swap3\n      swap2\n      swap1\n      0x00\n      swap1\n    tag_179:\n      dup3\n      dup3\n      lt\n      iszero\n      tag_180\n      jumpi\n      dup4\n      dup3\n      0x05\n      mul\n      add\n      mload(0x40)\n      dup1\n      0xa0\n      add\n      0x40\n      mstore\n      swap1\n      dup2\n      0x00\n      dup3\n      add\n      sload\n      dup2\n      mstore\n      0x20\n      add\n      0x01\n      dup3\n      add\n      dup1\n      sload\n      tag_182\n      swap1\n      tag_68\n      jump\t// in\n    tag_182:\n      dup1\n      0x1f\n      add\n      0x20\n      dup1\n      swap2\n      div\n      mul\n      0x20\n      add\n      mload(0x40)\n      swap1\n      dup2\n      add\n      0x40\n      mstore\n      dup1\n      swap3\n      swap2\n      swap1\n      dup2\n      dup2\n      mstore\n      0x20\n      add\n      dup3\n      dup1\n      sload\n      tag_183\n      swap1\n      tag_68\n      jump\t// in\n    tag_183:\n      dup1\n      iszero\n      tag_184\n      jumpi\n      dup1\n      0x1f\n      lt\n      tag_185\n      jumpi\n      0x0100\n      dup1\n      dup4\n      sload\n      div\n      mul\n      dup4\n      mstore\n      swap2\n      0x20\n      add\n      swap2\n      jump(tag_184)\n    tag_185:\n      dup3\n      add\n      swap2\n      swap1\n      0x00\n      mstore\n      keccak256(0x00, 0x20)\n      swap1\n    tag_186:\n      dup2\n      sload\n      dup2\n      mstore\n      swap1\n      0x01\n      add\n      swap1\n      0x20\n      add\n      dup1\n      dup4\n      gt\n      tag_186\n      jumpi\n      dup3\n      swap1\n      sub\n      0x1f\n      and\n      dup3\n      add\n      swap2\n    tag_184:\n      pop\n      pop\n      pop\n      pop\n      pop\n      dup2\n      mstore\n      0x20\n      add\n      0x02\n      dup3\n      add\n      0x00\n      swap1\n      sload\n      swap1\n      0x0100\n      exp\n      swap1\n      div\n      0xffffffffffffffffffffffffffffffffffffffff\n      and\n      0xffffffffffffffffffffffffffffffffffffffff\n      and\n      0xffffffffffffffffffffffffffffffffffffffff\n      and\n      dup2\n      mstore\n      0x20\n      add\n      0x03\n      dup3\n      add\n      sload\n      dup2\n      mstore\n      0x20\n      add\n      0x04\n      dup3\n      add\n      sload\n      dup2\n      mstore\n      pop\n      pop\n      dup2\n      mstore\n      0x20\n      add\n      swap1\n      0x01\n      add\n      swap1\n      jump(tag_179)\n    tag_180:\n      pop\n      pop\n      pop\n      pop\n      swap1\n      pop\n        /* \"codingtest/codingtest_250106.sol\":3069:3165  function getRoomStatus() external view returns (User[4] memory) {... */\n      swap1\n      jump\t// out\n        /* \"codingtest/codingtest_250106.sol\":1570:1880  function depositFunds(string memory _name) external payable {... */\n    tag_54:\n        /* \"codingtest/codingtest_250106.sol\":1640:1656  User memory user */\n      0x00\n        /* \"codingtest/codingtest_250106.sol\":1659:1679  getUserByName(_name) */\n      tag_188\n        /* \"codingtest/codingtest_250106.sol\":1673:1678  _name */\n      dup3\n        /* \"codingtest/codingtest_250106.sol\":1659:1672  getUserByName */\n      tag_27\n        /* \"codingtest/codingtest_250106.sol\":1659:1679  getUserByName(_name) */\n      jump\t// in\n    tag_188:\n        /* \"codingtest/codingtest_250106.sol\":1640:1679  User memory user = getUserByName(_name) */\n      swap1\n      pop\n        /* \"codingtest/codingtest_250106.sol\":1695:1704  uint256 i */\n      0x00\n        /* \"codingtest/codingtest_250106.sol\":1690:1874  for (uint256 i = 0; i < users.length; i++) {... */\n    tag_189:\n        /* \"codingtest/codingtest_250106.sol\":1714:1719  users */\n      0x00\n        /* \"codingtest/codingtest_250106.sol\":1714:1726  users.length */\n      dup1\n      sload\n      swap1\n      pop\n        /* \"codingtest/codingtest_250106.sol\":1710:1711  i */\n      dup2\n        /* \"codingtest/codingtest_250106.sol\":1710:1726  i < users.length */\n      lt\n        /* \"codingtest/codingtest_250106.sol\":1690:1874  for (uint256 i = 0; i < users.length; i++) {... */\n      iszero\n      tag_190\n      jumpi\n        /* \"codingtest/codingtest_250106.sol\":1768:1772  user */\n      dup2\n        /* \"codingtest/codingtest_250106.sol\":1768:1777  user.addr */\n      0x40\n      add\n      mload\n        /* \"codingtest/codingtest_250106.sol\":1751:1777  users[i].addr == user.addr */\n      0xffffffffffffffffffffffffffffffffffffffff\n      and\n        /* \"codingtest/codingtest_250106.sol\":1751:1756  users */\n      0x00\n        /* \"codingtest/codingtest_250106.sol\":1757:1758  i */\n      dup3\n        /* \"codingtest/codingtest_250106.sol\":1751:1759  users[i] */\n      dup2\n      sload\n      dup2\n      lt\n      tag_192\n      jumpi\n      tag_193\n      tag_83\n      jump\t// in\n    tag_193:\n    tag_192:\n      swap1\n      0x00\n      mstore\n      keccak256(0x00, 0x20)\n      swap1\n      0x05\n      mul\n      add\n        /* \"codingtest/codingtest_250106.sol\":1751:1764  users[i].addr */\n      0x02\n      add\n      0x00\n      swap1\n      sload\n      swap1\n      0x0100\n      exp\n      swap1\n      div\n      0xffffffffffffffffffffffffffffffffffffffff\n      and\n        /* \"codingtest/codingtest_250106.sol\":1751:1777  users[i].addr == user.addr */\n      0xffffffffffffffffffffffffffffffffffffffff\n      and\n      sub\n        /* \"codingtest/codingtest_250106.sol\":1747:1864  if (users[i].addr == user.addr) {... */\n      tag_195\n      jumpi\n        /* \"codingtest/codingtest_250106.sol\":1817:1826  msg.value */\n      callvalue\n        /* \"codingtest/codingtest_250106.sol\":1797:1802  users */\n      0x00\n        /* \"codingtest/codingtest_250106.sol\":1803:1804  i */\n      dup3\n        /* \"codingtest/codingtest_250106.sol\":1797:1805  users[i] */\n      dup2\n      sload\n      dup2\n      lt\n      tag_196\n      jumpi\n      tag_197\n      tag_83\n      jump\t// in\n    tag_197:\n    tag_196:\n      swap1\n      0x00\n      mstore\n      keccak256(0x00, 0x20)\n      swap1\n      0x05\n      mul\n      add\n        /* \"codingtest/codingtest_250106.sol\":1797:1813  users[i].balance */\n      0x03\n      add\n      0x00\n        /* \"codingtest/codingtest_250106.sol\":1797:1826  users[i].balance += msg.value */\n      dup3\n      dup3\n      sload\n      tag_199\n      swap2\n      swap1\n      tag_200\n      jump\t// in\n    tag_199:\n      swap3\n      pop\n      pop\n      dup2\n      swap1\n      sstore\n      pop\n        /* \"codingtest/codingtest_250106.sol\":1844:1849  break */\n      jump(tag_190)\n        /* \"codingtest/codingtest_250106.sol\":1747:1864  if (users[i].addr == user.addr) {... */\n    tag_195:\n        /* \"codingtest/codingtest_250106.sol\":1728:1731  i++ */\n      dup1\n      dup1\n      0x01\n      add\n      swap2\n      pop\n      pop\n        /* \"codingtest/codingtest_250106.sol\":1690:1874  for (uint256 i = 0; i < users.length; i++) {... */\n      jump(tag_189)\n    tag_190:\n      pop\n        /* \"codingtest/codingtest_250106.sol\":1630:1880  {... */\n      pop\n        /* \"codingtest/codingtest_250106.sol\":1570:1880  function depositFunds(string memory _name) external payable {... */\n      pop\n      jump\t// out\n        /* \"codingtest/codingtest_250106.sol\":2454:2910  function assignScores() private {... */\n    tag_173:\n        /* \"codingtest/codingtest_250106.sol\":2496:2520  uint256[4] memory scores */\n      0x00\n        /* \"codingtest/codingtest_250106.sol\":2496:2629  uint256[4] memory scores = [... */\n      mload(0x40)\n      dup1\n      0x80\n      add\n      0x40\n      mstore\n      dup1\n        /* \"codingtest/codingtest_250106.sol\":2545:2546  4 */\n      0x04\n        /* \"codingtest/codingtest_250106.sol\":2496:2629  uint256[4] memory scores = [... */\n      dup2\n      mstore\n      0x20\n      add\n        /* \"codingtest/codingtest_250106.sol\":2569:2570  3 */\n      0x03\n        /* \"codingtest/codingtest_250106.sol\":2496:2629  uint256[4] memory scores = [... */\n      dup2\n      mstore\n      0x20\n      add\n        /* \"codingtest/codingtest_250106.sol\":2593:2594  2 */\n      0x02\n        /* \"codingtest/codingtest_250106.sol\":2496:2629  uint256[4] memory scores = [... */\n      dup2\n      mstore\n      0x20\n      add\n        /* \"codingtest/codingtest_250106.sol\":2617:2618  1 */\n      0x01\n        /* \"codingtest/codingtest_250106.sol\":2496:2629  uint256[4] memory scores = [... */\n      dup2\n      mstore\n      pop\n      swap1\n      pop\n        /* \"codingtest/codingtest_250106.sol\":2644:2653  uint256 i */\n      0x00\n        /* \"codingtest/codingtest_250106.sol\":2639:2904  for (uint256 i = 0; i < 4; i++) {... */\n    tag_202:\n        /* \"codingtest/codingtest_250106.sol\":2663:2664  4 */\n      0x04\n        /* \"codingtest/codingtest_250106.sol\":2659:2660  i */\n      dup2\n        /* \"codingtest/codingtest_250106.sol\":2659:2664  i < 4 */\n      lt\n        /* \"codingtest/codingtest_250106.sol\":2639:2904  for (uint256 i = 0; i < 4; i++) {... */\n      iszero\n      tag_203\n      jumpi\n        /* \"codingtest/codingtest_250106.sol\":2690:2699  uint256 j */\n      0x00\n        /* \"codingtest/codingtest_250106.sol\":2685:2894  for (uint256 j = 0; j < users.length; j++) {... */\n    tag_205:\n        /* \"codingtest/codingtest_250106.sol\":2709:2714  users */\n      0x00\n        /* \"codingtest/codingtest_250106.sol\":2709:2721  users.length */\n      dup1\n      sload\n      swap1\n      pop\n        /* \"codingtest/codingtest_250106.sol\":2705:2706  j */\n      dup2\n        /* \"codingtest/codingtest_250106.sol\":2705:2721  j < users.length */\n      lt\n        /* \"codingtest/codingtest_250106.sol\":2685:2894  for (uint256 j = 0; j < users.length; j++) {... */\n      iszero\n      tag_206\n      jumpi\n        /* \"codingtest/codingtest_250106.sol\":2767:2775  gameRoom */\n      0x01\n        /* \"codingtest/codingtest_250106.sol\":2776:2777  i */\n      dup3\n        /* \"codingtest/codingtest_250106.sol\":2767:2778  gameRoom[i] */\n      0x04\n      dup2\n      lt\n      tag_208\n      jumpi\n      tag_209\n      tag_83\n      jump\t// in\n    tag_209:\n    tag_208:\n      0x05\n      mul\n      add\n        /* \"codingtest/codingtest_250106.sol\":2767:2783  gameRoom[i].addr */\n      0x02\n      add\n      0x00\n      swap1\n      sload\n      swap1\n      0x0100\n      exp\n      swap1\n      div\n      0xffffffffffffffffffffffffffffffffffffffff\n      and\n        /* \"codingtest/codingtest_250106.sol\":2750:2783  users[j].addr == gameRoom[i].addr */\n      0xffffffffffffffffffffffffffffffffffffffff\n      and\n        /* \"codingtest/codingtest_250106.sol\":2750:2755  users */\n      0x00\n        /* \"codingtest/codingtest_250106.sol\":2756:2757  j */\n      dup3\n        /* \"codingtest/codingtest_250106.sol\":2750:2758  users[j] */\n      dup2\n      sload\n      dup2\n      lt\n      tag_211\n      jumpi\n      tag_212\n      tag_83\n      jump\t// in\n    tag_212:\n    tag_211:\n      swap1\n      0x00\n      mstore\n      keccak256(0x00, 0x20)\n      swap1\n      0x05\n      mul\n      add\n        /* \"codingtest/codingtest_250106.sol\":2750:2763  users[j].addr */\n      0x02\n      add\n      0x00\n      swap1\n      sload\n      swap1\n      0x0100\n      exp\n      swap1\n      div\n      0xffffffffffffffffffffffffffffffffffffffff\n      and\n        /* \"codingtest/codingtest_250106.sol\":2750:2783  users[j].addr == gameRoom[i].addr */\n      0xffffffffffffffffffffffffffffffffffffffff\n      and\n      sub\n        /* \"codingtest/codingtest_250106.sol\":2746:2880  if (users[j].addr == gameRoom[i].addr) {... */\n      tag_214\n      jumpi\n        /* \"codingtest/codingtest_250106.sol\":2825:2831  scores */\n      dup3\n        /* \"codingtest/codingtest_250106.sol\":2832:2833  i */\n      dup3\n        /* \"codingtest/codingtest_250106.sol\":2825:2834  scores[i] */\n      0x04\n      dup2\n      lt\n      tag_215\n      jumpi\n      tag_216\n      tag_83\n      jump\t// in\n    tag_216:\n    tag_215:\n      0x20\n      mul\n      add\n      mload\n        /* \"codingtest/codingtest_250106.sol\":2807:2812  users */\n      0x00\n        /* \"codingtest/codingtest_250106.sol\":2813:2814  j */\n      dup3\n        /* \"codingtest/codingtest_250106.sol\":2807:2815  users[j] */\n      dup2\n      sload\n      dup2\n      lt\n      tag_217\n      jumpi\n      tag_218\n      tag_83\n      jump\t// in\n    tag_218:\n    tag_217:\n      swap1\n      0x00\n      mstore\n      keccak256(0x00, 0x20)\n      swap1\n      0x05\n      mul\n      add\n        /* \"codingtest/codingtest_250106.sol\":2807:2821  users[j].score */\n      0x04\n      add\n      0x00\n        /* \"codingtest/codingtest_250106.sol\":2807:2834  users[j].score += scores[i] */\n      dup3\n      dup3\n      sload\n      tag_220\n      swap2\n      swap1\n      tag_200\n      jump\t// in\n    tag_220:\n      swap3\n      pop\n      pop\n      dup2\n      swap1\n      sstore\n      pop\n        /* \"codingtest/codingtest_250106.sol\":2856:2861  break */\n      jump(tag_206)\n        /* \"codingtest/codingtest_250106.sol\":2746:2880  if (users[j].addr == gameRoom[i].addr) {... */\n    tag_214:\n        /* \"codingtest/codingtest_250106.sol\":2723:2726  j++ */\n      dup1\n      dup1\n      0x01\n      add\n      swap2\n      pop\n      pop\n        /* \"codingtest/codingtest_250106.sol\":2685:2894  for (uint256 j = 0; j < users.length; j++) {... */\n      jump(tag_205)\n    tag_206:\n      pop\n        /* \"codingtest/codingtest_250106.sol\":2666:2669  i++ */\n      dup1\n      dup1\n      0x01\n      add\n      swap2\n      pop\n      pop\n        /* \"codingtest/codingtest_250106.sol\":2639:2904  for (uint256 i = 0; i < 4; i++) {... */\n      jump(tag_202)\n    tag_203:\n      pop\n        /* \"codingtest/codingtest_250106.sol\":2486:2910  {... */\n      pop\n        /* \"codingtest/codingtest_250106.sol\":2454:2910  function assignScores() private {... */\n      jump\t// out\n        /* \"codingtest/codingtest_250106.sol\":2916:3063  function resetGameRoom() private {... */\n    tag_175:\n        /* \"codingtest/codingtest_250106.sol\":2964:2973  uint256 i */\n      0x00\n        /* \"codingtest/codingtest_250106.sol\":2959:3034  for (uint256 i = 0; i < 4; i++) {... */\n    tag_222:\n        /* \"codingtest/codingtest_250106.sol\":2983:2984  4 */\n      0x04\n        /* \"codingtest/codingtest_250106.sol\":2979:2980  i */\n      dup2\n        /* \"codingtest/codingtest_250106.sol\":2979:2984  i < 4 */\n      lt\n        /* \"codingtest/codingtest_250106.sol\":2959:3034  for (uint256 i = 0; i < 4; i++) {... */\n      iszero\n      tag_223\n      jumpi\n        /* \"codingtest/codingtest_250106.sol\":3012:3020  gameRoom */\n      0x01\n        /* \"codingtest/codingtest_250106.sol\":3021:3022  i */\n      dup2\n        /* \"codingtest/codingtest_250106.sol\":3012:3023  gameRoom[i] */\n      0x04\n      dup2\n      lt\n      tag_225\n      jumpi\n      tag_226\n      tag_83\n      jump\t// in\n    tag_226:\n    tag_225:\n      0x05\n      mul\n      add\n      0x00\n        /* \"codingtest/codingtest_250106.sol\":3005:3023  delete gameRoom[i] */\n      dup1\n      dup3\n      add\n      0x00\n      swap1\n      sstore\n      0x01\n      dup3\n      add\n      0x00\n      tag_228\n      swap2\n      swap1\n      tag_229\n      jump\t// in\n    tag_228:\n      0x02\n      dup3\n      add\n      exp(0x0100, 0x00)\n      dup2\n      sload\n      swap1\n      0xffffffffffffffffffffffffffffffffffffffff\n      mul\n      not\n      and\n      swap1\n      sstore\n      0x03\n      dup3\n      add\n      0x00\n      swap1\n      sstore\n      0x04\n      dup3\n      add\n      0x00\n      swap1\n      sstore\n      pop\n      pop\n        /* \"codingtest/codingtest_250106.sol\":2986:2989  i++ */\n      dup1\n      dup1\n      0x01\n      add\n      swap2\n      pop\n      pop\n        /* \"codingtest/codingtest_250106.sol\":2959:3034  for (uint256 i = 0; i < 4; i++) {... */\n      jump(tag_222)\n    tag_223:\n      pop\n        /* \"codingtest/codingtest_250106.sol\":3055:3056  0 */\n      0x00\n        /* \"codingtest/codingtest_250106.sol\":3043:3052  roomCount */\n      0x16\n        /* \"codingtest/codingtest_250106.sol\":3043:3056  roomCount = 0 */\n      dup2\n      swap1\n      sstore\n      pop\n        /* \"codingtest/codingtest_250106.sol\":2916:3063  function resetGameRoom() private {... */\n      jump\t// out\n    tag_74:\n      mload(0x40)\n      dup1\n      0xa0\n      add\n      0x40\n      mstore\n      dup1\n      0x00\n      dup2\n      mstore\n      0x20\n      add\n      0x60\n      dup2\n      mstore\n      0x20\n      add\n      and(0xffffffffffffffffffffffffffffffffffffffff, 0x00)\n      dup2\n      mstore\n      0x20\n      add\n      0x00\n      dup2\n      mstore\n      0x20\n      add\n      0x00\n      dup2\n      mstore\n      pop\n      swap1\n      jump\t// out\n    tag_177:\n      mload(0x40)\n      dup1\n      0x80\n      add\n      0x40\n      mstore\n      dup1\n      0x04\n      swap1\n    tag_230:\n      tag_231\n      tag_74\n      jump\t// in\n    tag_231:\n      dup2\n      mstore\n      0x20\n      add\n      swap1\n      0x01\n      swap1\n      sub\n      swap1\n      dup2\n      tag_230\n      jumpi\n      swap1\n      pop\n      pop\n      swap1\n      jump\t// out\n    tag_229:\n      pop\n      dup1\n      sload\n      tag_232\n      swap1\n      tag_68\n      jump\t// in\n    tag_232:\n      0x00\n      dup3\n      sstore\n      dup1\n      0x1f\n      lt\n      tag_234\n      jumpi\n      pop\n      jump(tag_233)\n    tag_234:\n      0x1f\n      add\n      0x20\n      swap1\n      div\n      swap1\n      0x00\n      mstore\n      keccak256(0x00, 0x20)\n      swap1\n      dup2\n      add\n      swap1\n      tag_235\n      swap2\n      swap1\n      tag_236\n      jump\t// in\n    tag_235:\n    tag_233:\n      pop\n      jump\t// out\n    tag_236:\n    tag_237:\n      dup1\n      dup3\n      gt\n      iszero\n      tag_238\n      jumpi\n      0x00\n      dup2\n      0x00\n      swap1\n      sstore\n      pop\n      0x01\n      add\n      jump(tag_237)\n    tag_238:\n      pop\n      swap1\n      jump\t// out\n        /* \"#utility.yul\":7:82   */\n    tag_239:\n        /* \"#utility.yul\":40:46   */\n      0x00\n        /* \"#utility.yul\":73:75   */\n      0x40\n        /* \"#utility.yul\":67:76   */\n      mload\n        /* \"#utility.yul\":57:76   */\n      swap1\n      pop\n        /* \"#utility.yul\":7:82   */\n      swap1\n      jump\t// out\n        /* \"#utility.yul\":88:205   */\n    tag_240:\n        /* \"#utility.yul\":197:198   */\n      0x00\n        /* \"#utility.yul\":194:195   */\n      dup1\n        /* \"#utility.yul\":187:199   */\n      revert\n        /* \"#utility.yul\":211:328   */\n    tag_241:\n        /* \"#utility.yul\":320:321   */\n      0x00\n        /* \"#utility.yul\":317:318   */\n      dup1\n        /* \"#utility.yul\":310:322   */\n      revert\n        /* \"#utility.yul\":334:411   */\n    tag_242:\n        /* \"#utility.yul\":371:378   */\n      0x00\n        /* \"#utility.yul\":400:405   */\n      dup2\n        /* \"#utility.yul\":389:405   */\n      swap1\n      pop\n        /* \"#utility.yul\":334:411   */\n      swap2\n      swap1\n      pop\n      jump\t// out\n        /* \"#utility.yul\":417:539   */\n    tag_243:\n        /* \"#utility.yul\":490:514   */\n      tag_315\n        /* \"#utility.yul\":508:513   */\n      dup2\n        /* \"#utility.yul\":490:514   */\n      tag_242\n      jump\t// in\n    tag_315:\n        /* \"#utility.yul\":483:488   */\n      dup2\n        /* \"#utility.yul\":480:515   */\n      eq\n        /* \"#utility.yul\":470:533   */\n      tag_316\n      jumpi\n        /* \"#utility.yul\":529:530   */\n      0x00\n        /* \"#utility.yul\":526:527   */\n      dup1\n        /* \"#utility.yul\":519:531   */\n      revert\n        /* \"#utility.yul\":470:533   */\n    tag_316:\n        /* \"#utility.yul\":417:539   */\n      pop\n      jump\t// out\n        /* \"#utility.yul\":545:684   */\n    tag_244:\n        /* \"#utility.yul\":591:596   */\n      0x00\n        /* \"#utility.yul\":629:635   */\n      dup2\n        /* \"#utility.yul\":616:636   */\n      calldataload\n        /* \"#utility.yul\":607:636   */\n      swap1\n      pop\n        /* \"#utility.yul\":645:678   */\n      tag_318\n        /* \"#utility.yul\":672:677   */\n      dup2\n        /* \"#utility.yul\":645:678   */\n      tag_243\n      jump\t// in\n    tag_318:\n        /* \"#utility.yul\":545:684   */\n      swap3\n      swap2\n      pop\n      pop\n      jump\t// out\n        /* \"#utility.yul\":690:1019   */\n    tag_15:\n        /* \"#utility.yul\":749:755   */\n      0x00\n        /* \"#utility.yul\":798:800   */\n      0x20\n        /* \"#utility.yul\":786:795   */\n      dup3\n        /* \"#utility.yul\":777:784   */\n      dup5\n        /* \"#utility.yul\":773:796   */\n      sub\n        /* \"#utility.yul\":769:801   */\n      slt\n        /* \"#utility.yul\":766:885   */\n      iszero\n      tag_320\n      jumpi\n        /* \"#utility.yul\":804:883   */\n      tag_321\n      tag_240\n      jump\t// in\n    tag_321:\n        /* \"#utility.yul\":766:885   */\n    tag_320:\n        /* \"#utility.yul\":924:925   */\n      0x00\n        /* \"#utility.yul\":949:1002   */\n      tag_322\n        /* \"#utility.yul\":994:1001   */\n      dup5\n        /* \"#utility.yul\":985:991   */\n      dup3\n        /* \"#utility.yul\":974:983   */\n      dup6\n        /* \"#utility.yul\":970:992   */\n      add\n        /* \"#utility.yul\":949:1002   */\n      tag_244\n      jump\t// in\n    tag_322:\n        /* \"#utility.yul\":939:1002   */\n      swap2\n      pop\n        /* \"#utility.yul\":895:1012   */\n      pop\n        /* \"#utility.yul\":690:1019   */\n      swap3\n      swap2\n      pop\n      pop\n      jump\t// out\n        /* \"#utility.yul\":1025:1143   */\n    tag_245:\n        /* \"#utility.yul\":1112:1136   */\n      tag_324\n        /* \"#utility.yul\":1130:1135   */\n      dup2\n        /* \"#utility.yul\":1112:1136   */\n      tag_242\n      jump\t// in\n    tag_324:\n        /* \"#utility.yul\":1107:1110   */\n      dup3\n        /* \"#utility.yul\":1100:1137   */\n      mstore\n        /* \"#utility.yul\":1025:1143   */\n      pop\n      pop\n      jump\t// out\n        /* \"#utility.yul\":1149:1248   */\n    tag_246:\n        /* \"#utility.yul\":1201:1207   */\n      0x00\n        /* \"#utility.yul\":1235:1240   */\n      dup2\n        /* \"#utility.yul\":1229:1241   */\n      mload\n        /* \"#utility.yul\":1219:1241   */\n      swap1\n      pop\n        /* \"#utility.yul\":1149:1248   */\n      swap2\n      swap1\n      pop\n      jump\t// out\n        /* \"#utility.yul\":1254:1423   */\n    tag_247:\n        /* \"#utility.yul\":1338:1349   */\n      0x00\n        /* \"#utility.yul\":1372:1378   */\n      dup3\n        /* \"#utility.yul\":1367:1370   */\n      dup3\n        /* \"#utility.yul\":1360:1379   */\n      mstore\n        /* \"#utility.yul\":1412:1416   */\n      0x20\n        /* \"#utility.yul\":1407:1410   */\n      dup3\n        /* \"#utility.yul\":1403:1417   */\n      add\n        /* \"#utility.yul\":1388:1417   */\n      swap1\n      pop\n        /* \"#utility.yul\":1254:1423   */\n      swap3\n      swap2\n      pop\n      pop\n      jump\t// out\n        /* \"#utility.yul\":1429:1568   */\n    tag_248:\n        /* \"#utility.yul\":1518:1524   */\n      dup3\n        /* \"#utility.yul\":1513:1516   */\n      dup2\n        /* \"#utility.yul\":1508:1511   */\n      dup4\n        /* \"#utility.yul\":1502:1525   */\n      mcopy\n        /* \"#utility.yul\":1559:1560   */\n      0x00\n        /* \"#utility.yul\":1550:1556   */\n      dup4\n        /* \"#utility.yul\":1545:1548   */\n      dup4\n        /* \"#utility.yul\":1541:1557   */\n      add\n        /* \"#utility.yul\":1534:1561   */\n      mstore\n        /* \"#utility.yul\":1429:1568   */\n      pop\n      pop\n      pop\n      jump\t// out\n        /* \"#utility.yul\":1574:1676   */\n    tag_249:\n        /* \"#utility.yul\":1615:1621   */\n      0x00\n        /* \"#utility.yul\":1666:1668   */\n      0x1f\n        /* \"#utility.yul\":1662:1669   */\n      not\n        /* \"#utility.yul\":1657:1659   */\n      0x1f\n        /* \"#utility.yul\":1650:1655   */\n      dup4\n        /* \"#utility.yul\":1646:1660   */\n      add\n        /* \"#utility.yul\":1642:1670   */\n      and\n        /* \"#utility.yul\":1632:1670   */\n      swap1\n      pop\n        /* \"#utility.yul\":1574:1676   */\n      swap2\n      swap1\n      pop\n      jump\t// out\n        /* \"#utility.yul\":1682:2059   */\n    tag_250:\n        /* \"#utility.yul\":1770:1773   */\n      0x00\n        /* \"#utility.yul\":1798:1837   */\n      tag_330\n        /* \"#utility.yul\":1831:1836   */\n      dup3\n        /* \"#utility.yul\":1798:1837   */\n      tag_246\n      jump\t// in\n    tag_330:\n        /* \"#utility.yul\":1853:1924   */\n      tag_331\n        /* \"#utility.yul\":1917:1923   */\n      dup2\n        /* \"#utility.yul\":1912:1915   */\n      dup6\n        /* \"#utility.yul\":1853:1924   */\n      tag_247\n      jump\t// in\n    tag_331:\n        /* \"#utility.yul\":1846:1924   */\n      swap4\n      pop\n        /* \"#utility.yul\":1933:1998   */\n      tag_332\n        /* \"#utility.yul\":1991:1997   */\n      dup2\n        /* \"#utility.yul\":1986:1989   */\n      dup6\n        /* \"#utility.yul\":1979:1983   */\n      0x20\n        /* \"#utility.yul\":1972:1977   */\n      dup7\n        /* \"#utility.yul\":1968:1984   */\n      add\n        /* \"#utility.yul\":1933:1998   */\n      tag_248\n      jump\t// in\n    tag_332:\n        /* \"#utility.yul\":2023:2052   */\n      tag_333\n        /* \"#utility.yul\":2045:2051   */\n      dup2\n        /* \"#utility.yul\":2023:2052   */\n      tag_249\n      jump\t// in\n    tag_333:\n        /* \"#utility.yul\":2018:2021   */\n      dup5\n        /* \"#utility.yul\":2014:2053   */\n      add\n        /* \"#utility.yul\":2007:2053   */\n      swap2\n      pop\n        /* \"#utility.yul\":1774:2059   */\n      pop\n        /* \"#utility.yul\":1682:2059   */\n      swap3\n      swap2\n      pop\n      pop\n      jump\t// out\n        /* \"#utility.yul\":2065:2191   */\n    tag_251:\n        /* \"#utility.yul\":2102:2109   */\n      0x00\n        /* \"#utility.yul\":2142:2184   */\n      0xffffffffffffffffffffffffffffffffffffffff\n        /* \"#utility.yul\":2135:2140   */\n      dup3\n        /* \"#utility.yul\":2131:2185   */\n      and\n        /* \"#utility.yul\":2120:2185   */\n      swap1\n      pop\n        /* \"#utility.yul\":2065:2191   */\n      swap2\n      swap1\n      pop\n      jump\t// out\n        /* \"#utility.yul\":2197:2293   */\n    tag_252:\n        /* \"#utility.yul\":2234:2241   */\n      0x00\n        /* \"#utility.yul\":2263:2287   */\n      tag_336\n        /* \"#utility.yul\":2281:2286   */\n      dup3\n        /* \"#utility.yul\":2263:2287   */\n      tag_251\n      jump\t// in\n    tag_336:\n        /* \"#utility.yul\":2252:2287   */\n      swap1\n      pop\n        /* \"#utility.yul\":2197:2293   */\n      swap2\n      swap1\n      pop\n      jump\t// out\n        /* \"#utility.yul\":2299:2417   */\n    tag_253:\n        /* \"#utility.yul\":2386:2410   */\n      tag_338\n        /* \"#utility.yul\":2404:2409   */\n      dup2\n        /* \"#utility.yul\":2386:2410   */\n      tag_252\n      jump\t// in\n    tag_338:\n        /* \"#utility.yul\":2381:2384   */\n      dup3\n        /* \"#utility.yul\":2374:2411   */\n      mstore\n        /* \"#utility.yul\":2299:2417   */\n      pop\n      pop\n      jump\t// out\n        /* \"#utility.yul\":2423:3178   */\n    tag_22:\n        /* \"#utility.yul\":2648:2652   */\n      0x00\n        /* \"#utility.yul\":2686:2689   */\n      0xa0\n        /* \"#utility.yul\":2675:2684   */\n      dup3\n        /* \"#utility.yul\":2671:2690   */\n      add\n        /* \"#utility.yul\":2663:2690   */\n      swap1\n      pop\n        /* \"#utility.yul\":2700:2771   */\n      tag_340\n        /* \"#utility.yul\":2768:2769   */\n      0x00\n        /* \"#utility.yul\":2757:2766   */\n      dup4\n        /* \"#utility.yul\":2753:2770   */\n      add\n        /* \"#utility.yul\":2744:2750   */\n      dup9\n        /* \"#utility.yul\":2700:2771   */\n      tag_245\n      jump\t// in\n    tag_340:\n        /* \"#utility.yul\":2818:2827   */\n      dup2\n        /* \"#utility.yul\":2812:2816   */\n      dup2\n        /* \"#utility.yul\":2808:2828   */\n      sub\n        /* \"#utility.yul\":2803:2805   */\n      0x20\n        /* \"#utility.yul\":2792:2801   */\n      dup4\n        /* \"#utility.yul\":2788:2806   */\n      add\n        /* \"#utility.yul\":2781:2829   */\n      mstore\n        /* \"#utility.yul\":2846:2924   */\n      tag_341\n        /* \"#utility.yul\":2919:2923   */\n      dup2\n        /* \"#utility.yul\":2910:2916   */\n      dup8\n        /* \"#utility.yul\":2846:2924   */\n      tag_250\n      jump\t// in\n    tag_341:\n        /* \"#utility.yul\":2838:2924   */\n      swap1\n      pop\n        /* \"#utility.yul\":2934:3006   */\n      tag_342\n        /* \"#utility.yul\":3002:3004   */\n      0x40\n        /* \"#utility.yul\":2991:3000   */\n      dup4\n        /* \"#utility.yul\":2987:3005   */\n      add\n        /* \"#utility.yul\":2978:2984   */\n      dup7\n        /* \"#utility.yul\":2934:3006   */\n      tag_253\n      jump\t// in\n    tag_342:\n        /* \"#utility.yul\":3016:3088   */\n      tag_343\n        /* \"#utility.yul\":3084:3086   */\n      0x60\n        /* \"#utility.yul\":3073:3082   */\n      dup4\n        /* \"#utility.yul\":3069:3087   */\n      add\n        /* \"#utility.yul\":3060:3066   */\n      dup6\n        /* \"#utility.yul\":3016:3088   */\n      tag_245\n      jump\t// in\n    tag_343:\n        /* \"#utility.yul\":3098:3171   */\n      tag_344\n        /* \"#utility.yul\":3166:3169   */\n      0x80\n        /* \"#utility.yul\":3155:3164   */\n      dup4\n        /* \"#utility.yul\":3151:3170   */\n      add\n        /* \"#utility.yul\":3142:3148   */\n      dup5\n        /* \"#utility.yul\":3098:3171   */\n      tag_245\n      jump\t// in\n    tag_344:\n        /* \"#utility.yul\":2423:3178   */\n      swap7\n      swap6\n      pop\n      pop\n      pop\n      pop\n      pop\n      pop\n      jump\t// out\n        /* \"#utility.yul\":3184:3301   */\n    tag_254:\n        /* \"#utility.yul\":3293:3294   */\n      0x00\n        /* \"#utility.yul\":3290:3291   */\n      dup1\n        /* \"#utility.yul\":3283:3295   */\n      revert\n        /* \"#utility.yul\":3307:3424   */\n    tag_255:\n        /* \"#utility.yul\":3416:3417   */\n      0x00\n        /* \"#utility.yul\":3413:3414   */\n      dup1\n        /* \"#utility.yul\":3406:3418   */\n      revert\n        /* \"#utility.yul\":3430:3610   */\n    tag_256:\n        /* \"#utility.yul\":3478:3555   */\n      0x4e487b7100000000000000000000000000000000000000000000000000000000\n        /* \"#utility.yul\":3475:3476   */\n      0x00\n        /* \"#utility.yul\":3468:3556   */\n      mstore\n        /* \"#utility.yul\":3575:3579   */\n      0x41\n        /* \"#utility.yul\":3572:3573   */\n      0x04\n        /* \"#utility.yul\":3565:3580   */\n      mstore\n        /* \"#utility.yul\":3599:3603   */\n      0x24\n        /* \"#utility.yul\":3596:3597   */\n      0x00\n        /* \"#utility.yul\":3589:3604   */\n      revert\n        /* \"#utility.yul\":3616:3897   */\n    tag_257:\n        /* \"#utility.yul\":3699:3726   */\n      tag_349\n        /* \"#utility.yul\":3721:3725   */\n      dup3\n        /* \"#utility.yul\":3699:3726   */\n      tag_249\n      jump\t// in\n    tag_349:\n        /* \"#utility.yul\":3691:3697   */\n      dup2\n        /* \"#utility.yul\":3687:3727   */\n      add\n        /* \"#utility.yul\":3829:3835   */\n      dup2\n        /* \"#utility.yul\":3817:3827   */\n      dup2\n        /* \"#utility.yul\":3814:3836   */\n      lt\n        /* \"#utility.yul\":3793:3811   */\n      0xffffffffffffffff\n        /* \"#utility.yul\":3781:3791   */\n      dup3\n        /* \"#utility.yul\":3778:3812   */\n      gt\n        /* \"#utility.yul\":3775:3837   */\n      or\n        /* \"#utility.yul\":3772:3860   */\n      iszero\n      tag_350\n      jumpi\n        /* \"#utility.yul\":3840:3858   */\n      tag_351\n      tag_256\n      jump\t// in\n    tag_351:\n        /* \"#utility.yul\":3772:3860   */\n    tag_350:\n        /* \"#utility.yul\":3880:3890   */\n      dup1\n        /* \"#utility.yul\":3876:3878   */\n      0x40\n        /* \"#utility.yul\":3869:3891   */\n      mstore\n        /* \"#utility.yul\":3659:3897   */\n      pop\n        /* \"#utility.yul\":3616:3897   */\n      pop\n      pop\n      jump\t// out\n        /* \"#utility.yul\":3903:4032   */\n    tag_258:\n        /* \"#utility.yul\":3937:3943   */\n      0x00\n        /* \"#utility.yul\":3964:3984   */\n      tag_353\n      tag_239\n      jump\t// in\n    tag_353:\n        /* \"#utility.yul\":3954:3984   */\n      swap1\n      pop\n        /* \"#utility.yul\":3993:4026   */\n      tag_354\n        /* \"#utility.yul\":4021:4025   */\n      dup3\n        /* \"#utility.yul\":4013:4019   */\n      dup3\n        /* \"#utility.yul\":3993:4026   */\n      tag_257\n      jump\t// in\n    tag_354:\n        /* \"#utility.yul\":3903:4032   */\n      swap2\n      swap1\n      pop\n      jump\t// out\n        /* \"#utility.yul\":4038:4346   */\n    tag_259:\n        /* \"#utility.yul\":4100:4104   */\n      0x00\n        /* \"#utility.yul\":4190:4208   */\n      0xffffffffffffffff\n        /* \"#utility.yul\":4182:4188   */\n      dup3\n        /* \"#utility.yul\":4179:4209   */\n      gt\n        /* \"#utility.yul\":4176:4232   */\n      iszero\n      tag_356\n      jumpi\n        /* \"#utility.yul\":4212:4230   */\n      tag_357\n      tag_256\n      jump\t// in\n    tag_357:\n        /* \"#utility.yul\":4176:4232   */\n    tag_356:\n        /* \"#utility.yul\":4250:4279   */\n      tag_358\n        /* \"#utility.yul\":4272:4278   */\n      dup3\n        /* \"#utility.yul\":4250:4279   */\n      tag_249\n      jump\t// in\n    tag_358:\n        /* \"#utility.yul\":4242:4279   */\n      swap1\n      pop\n        /* \"#utility.yul\":4334:4338   */\n      0x20\n        /* \"#utility.yul\":4328:4332   */\n      dup2\n        /* \"#utility.yul\":4324:4339   */\n      add\n        /* \"#utility.yul\":4316:4339   */\n      swap1\n      pop\n        /* \"#utility.yul\":4038:4346   */\n      swap2\n      swap1\n      pop\n      jump\t// out\n        /* \"#utility.yul\":4352:4500   */\n    tag_260:\n        /* \"#utility.yul\":4450:4456   */\n      dup3\n        /* \"#utility.yul\":4445:4448   */\n      dup2\n        /* \"#utility.yul\":4440:4443   */\n      dup4\n        /* \"#utility.yul\":4427:4457   */\n      calldatacopy\n        /* \"#utility.yul\":4491:4492   */\n      0x00\n        /* \"#utility.yul\":4482:4488   */\n      dup4\n        /* \"#utility.yul\":4477:4480   */\n      dup4\n        /* \"#utility.yul\":4473:4489   */\n      add\n        /* \"#utility.yul\":4466:4493   */\n      mstore\n        /* \"#utility.yul\":4352:4500   */\n      pop\n      pop\n      pop\n      jump\t// out\n        /* \"#utility.yul\":4506:4931   */\n    tag_261:\n        /* \"#utility.yul\":4584:4589   */\n      0x00\n        /* \"#utility.yul\":4609:4675   */\n      tag_361\n        /* \"#utility.yul\":4625:4674   */\n      tag_362\n        /* \"#utility.yul\":4667:4673   */\n      dup5\n        /* \"#utility.yul\":4625:4674   */\n      tag_259\n      jump\t// in\n    tag_362:\n        /* \"#utility.yul\":4609:4675   */\n      tag_258\n      jump\t// in\n    tag_361:\n        /* \"#utility.yul\":4600:4675   */\n      swap1\n      pop\n        /* \"#utility.yul\":4698:4704   */\n      dup3\n        /* \"#utility.yul\":4691:4696   */\n      dup2\n        /* \"#utility.yul\":4684:4705   */\n      mstore\n        /* \"#utility.yul\":4736:4740   */\n      0x20\n        /* \"#utility.yul\":4729:4734   */\n      dup2\n        /* \"#utility.yul\":4725:4741   */\n      add\n        /* \"#utility.yul\":4774:4777   */\n      dup5\n        /* \"#utility.yul\":4765:4771   */\n      dup5\n        /* \"#utility.yul\":4760:4763   */\n      dup5\n        /* \"#utility.yul\":4756:4772   */\n      add\n        /* \"#utility.yul\":4753:4778   */\n      gt\n        /* \"#utility.yul\":4750:4862   */\n      iszero\n      tag_363\n      jumpi\n        /* \"#utility.yul\":4781:4860   */\n      tag_364\n      tag_255\n      jump\t// in\n    tag_364:\n        /* \"#utility.yul\":4750:4862   */\n    tag_363:\n        /* \"#utility.yul\":4871:4925   */\n      tag_365\n        /* \"#utility.yul\":4918:4924   */\n      dup5\n        /* \"#utility.yul\":4913:4916   */\n      dup3\n        /* \"#utility.yul\":4908:4911   */\n      dup6\n        /* \"#utility.yul\":4871:4925   */\n      tag_260\n      jump\t// in\n    tag_365:\n        /* \"#utility.yul\":4590:4931   */\n      pop\n        /* \"#utility.yul\":4506:4931   */\n      swap4\n      swap3\n      pop\n      pop\n      pop\n      jump\t// out\n        /* \"#utility.yul\":4951:5291   */\n    tag_262:\n        /* \"#utility.yul\":5007:5012   */\n      0x00\n        /* \"#utility.yul\":5056:5059   */\n      dup3\n        /* \"#utility.yul\":5049:5053   */\n      0x1f\n        /* \"#utility.yul\":5041:5047   */\n      dup4\n        /* \"#utility.yul\":5037:5054   */\n      add\n        /* \"#utility.yul\":5033:5060   */\n      slt\n        /* \"#utility.yul\":5023:5145   */\n      tag_367\n      jumpi\n        /* \"#utility.yul\":5064:5143   */\n      tag_368\n      tag_254\n      jump\t// in\n    tag_368:\n        /* \"#utility.yul\":5023:5145   */\n    tag_367:\n        /* \"#utility.yul\":5181:5187   */\n      dup2\n        /* \"#utility.yul\":5168:5188   */\n      calldataload\n        /* \"#utility.yul\":5206:5285   */\n      tag_369\n        /* \"#utility.yul\":5281:5284   */\n      dup5\n        /* \"#utility.yul\":5273:5279   */\n      dup3\n        /* \"#utility.yul\":5266:5270   */\n      0x20\n        /* \"#utility.yul\":5258:5264   */\n      dup7\n        /* \"#utility.yul\":5254:5271   */\n      add\n        /* \"#utility.yul\":5206:5285   */\n      tag_261\n      jump\t// in\n    tag_369:\n        /* \"#utility.yul\":5197:5285   */\n      swap2\n      pop\n        /* \"#utility.yul\":5013:5291   */\n      pop\n        /* \"#utility.yul\":4951:5291   */\n      swap3\n      swap2\n      pop\n      pop\n      jump\t// out\n        /* \"#utility.yul\":5297:5806   */\n    tag_26:\n        /* \"#utility.yul\":5366:5372   */\n      0x00\n        /* \"#utility.yul\":5415:5417   */\n      0x20\n        /* \"#utility.yul\":5403:5412   */\n      dup3\n        /* \"#utility.yul\":5394:5401   */\n      dup5\n        /* \"#utility.yul\":5390:5413   */\n      sub\n        /* \"#utility.yul\":5386:5418   */\n      slt\n        /* \"#utility.yul\":5383:5502   */\n      iszero\n      tag_371\n      jumpi\n        /* \"#utility.yul\":5421:5500   */\n      tag_372\n      tag_240\n      jump\t// in\n    tag_372:\n        /* \"#utility.yul\":5383:5502   */\n    tag_371:\n        /* \"#utility.yul\":5569:5570   */\n      0x00\n        /* \"#utility.yul\":5558:5567   */\n      dup3\n        /* \"#utility.yul\":5554:5571   */\n      add\n        /* \"#utility.yul\":5541:5572   */\n      calldataload\n        /* \"#utility.yul\":5599:5617   */\n      0xffffffffffffffff\n        /* \"#utility.yul\":5591:5597   */\n      dup2\n        /* \"#utility.yul\":5588:5618   */\n      gt\n        /* \"#utility.yul\":5585:5702   */\n      iszero\n      tag_373\n      jumpi\n        /* \"#utility.yul\":5621:5700   */\n      tag_374\n      tag_241\n      jump\t// in\n    tag_374:\n        /* \"#utility.yul\":5585:5702   */\n    tag_373:\n        /* \"#utility.yul\":5726:5789   */\n      tag_375\n        /* \"#utility.yul\":5781:5788   */\n      dup5\n        /* \"#utility.yul\":5772:5778   */\n      dup3\n        /* \"#utility.yul\":5761:5770   */\n      dup6\n        /* \"#utility.yul\":5757:5779   */\n      add\n        /* \"#utility.yul\":5726:5789   */\n      tag_262\n      jump\t// in\n    tag_375:\n        /* \"#utility.yul\":5716:5789   */\n      swap2\n      pop\n        /* \"#utility.yul\":5512:5799   */\n      pop\n        /* \"#utility.yul\":5297:5806   */\n      swap3\n      swap2\n      pop\n      pop\n      jump\t// out\n        /* \"#utility.yul\":5812:5920   */\n    tag_263:\n        /* \"#utility.yul\":5889:5913   */\n      tag_377\n        /* \"#utility.yul\":5907:5912   */\n      dup2\n        /* \"#utility.yul\":5889:5913   */\n      tag_242\n      jump\t// in\n    tag_377:\n        /* \"#utility.yul\":5884:5887   */\n      dup3\n        /* \"#utility.yul\":5877:5914   */\n      mstore\n        /* \"#utility.yul\":5812:5920   */\n      pop\n      pop\n      jump\t// out\n        /* \"#utility.yul\":5926:6085   */\n    tag_264:\n        /* \"#utility.yul\":6000:6011   */\n      0x00\n        /* \"#utility.yul\":6034:6040   */\n      dup3\n        /* \"#utility.yul\":6029:6032   */\n      dup3\n        /* \"#utility.yul\":6022:6041   */\n      mstore\n        /* \"#utility.yul\":6074:6078   */\n      0x20\n        /* \"#utility.yul\":6069:6072   */\n      dup3\n        /* \"#utility.yul\":6065:6079   */\n      add\n        /* \"#utility.yul\":6050:6079   */\n      swap1\n      pop\n        /* \"#utility.yul\":5926:6085   */\n      swap3\n      swap2\n      pop\n      pop\n      jump\t// out\n        /* \"#utility.yul\":6091:6448   */\n    tag_265:\n        /* \"#utility.yul\":6169:6172   */\n      0x00\n        /* \"#utility.yul\":6197:6236   */\n      tag_380\n        /* \"#utility.yul\":6230:6235   */\n      dup3\n        /* \"#utility.yul\":6197:6236   */\n      tag_246\n      jump\t// in\n    tag_380:\n        /* \"#utility.yul\":6252:6313   */\n      tag_381\n        /* \"#utility.yul\":6306:6312   */\n      dup2\n        /* \"#utility.yul\":6301:6304   */\n      dup6\n        /* \"#utility.yul\":6252:6313   */\n      tag_264\n      jump\t// in\n    tag_381:\n        /* \"#utility.yul\":6245:6313   */\n      swap4\n      pop\n        /* \"#utility.yul\":6322:6387   */\n      tag_382\n        /* \"#utility.yul\":6380:6386   */\n      dup2\n        /* \"#utility.yul\":6375:6378   */\n      dup6\n        /* \"#utility.yul\":6368:6372   */\n      0x20\n        /* \"#utility.yul\":6361:6366   */\n      dup7\n        /* \"#utility.yul\":6357:6373   */\n      add\n        /* \"#utility.yul\":6322:6387   */\n      tag_248\n      jump\t// in\n    tag_382:\n        /* \"#utility.yul\":6412:6441   */\n      tag_383\n        /* \"#utility.yul\":6434:6440   */\n      dup2\n        /* \"#utility.yul\":6412:6441   */\n      tag_249\n      jump\t// in\n    tag_383:\n        /* \"#utility.yul\":6407:6410   */\n      dup5\n        /* \"#utility.yul\":6403:6442   */\n      add\n        /* \"#utility.yul\":6396:6442   */\n      swap2\n      pop\n        /* \"#utility.yul\":6173:6448   */\n      pop\n        /* \"#utility.yul\":6091:6448   */\n      swap3\n      swap2\n      pop\n      pop\n      jump\t// out\n        /* \"#utility.yul\":6454:6562   */\n    tag_266:\n        /* \"#utility.yul\":6531:6555   */\n      tag_385\n        /* \"#utility.yul\":6549:6554   */\n      dup2\n        /* \"#utility.yul\":6531:6555   */\n      tag_252\n      jump\t// in\n    tag_385:\n        /* \"#utility.yul\":6526:6529   */\n      dup3\n        /* \"#utility.yul\":6519:6556   */\n      mstore\n        /* \"#utility.yul\":6454:6562   */\n      pop\n      pop\n      jump\t// out\n        /* \"#utility.yul\":6612:7736   */\n    tag_267:\n        /* \"#utility.yul\":6721:6724   */\n      0x00\n        /* \"#utility.yul\":6757:6761   */\n      0xa0\n        /* \"#utility.yul\":6752:6755   */\n      dup4\n        /* \"#utility.yul\":6748:6762   */\n      add\n        /* \"#utility.yul\":6846:6850   */\n      0x00\n        /* \"#utility.yul\":6839:6844   */\n      dup4\n        /* \"#utility.yul\":6835:6851   */\n      add\n        /* \"#utility.yul\":6829:6852   */\n      mload\n        /* \"#utility.yul\":6865:6928   */\n      tag_387\n        /* \"#utility.yul\":6922:6926   */\n      0x00\n        /* \"#utility.yul\":6917:6920   */\n      dup7\n        /* \"#utility.yul\":6913:6927   */\n      add\n        /* \"#utility.yul\":6899:6911   */\n      dup3\n        /* \"#utility.yul\":6865:6928   */\n      tag_263\n      jump\t// in\n    tag_387:\n        /* \"#utility.yul\":6772:6938   */\n      pop\n        /* \"#utility.yul\":7020:7024   */\n      0x20\n        /* \"#utility.yul\":7013:7018   */\n      dup4\n        /* \"#utility.yul\":7009:7025   */\n      add\n        /* \"#utility.yul\":7003:7026   */\n      mload\n        /* \"#utility.yul\":7073:7076   */\n      dup5\n        /* \"#utility.yul\":7067:7071   */\n      dup3\n        /* \"#utility.yul\":7063:7077   */\n      sub\n        /* \"#utility.yul\":7056:7060   */\n      0x20\n        /* \"#utility.yul\":7051:7054   */\n      dup7\n        /* \"#utility.yul\":7047:7061   */\n      add\n        /* \"#utility.yul\":7040:7078   */\n      mstore\n        /* \"#utility.yul\":7099:7172   */\n      tag_388\n        /* \"#utility.yul\":7167:7171   */\n      dup3\n        /* \"#utility.yul\":7153:7165   */\n      dup3\n        /* \"#utility.yul\":7099:7172   */\n      tag_265\n      jump\t// in\n    tag_388:\n        /* \"#utility.yul\":7091:7172   */\n      swap2\n      pop\n        /* \"#utility.yul\":6948:7183   */\n      pop\n        /* \"#utility.yul\":7265:7269   */\n      0x40\n        /* \"#utility.yul\":7258:7263   */\n      dup4\n        /* \"#utility.yul\":7254:7270   */\n      add\n        /* \"#utility.yul\":7248:7271   */\n      mload\n        /* \"#utility.yul\":7284:7347   */\n      tag_389\n        /* \"#utility.yul\":7341:7345   */\n      0x40\n        /* \"#utility.yul\":7336:7339   */\n      dup7\n        /* \"#utility.yul\":7332:7346   */\n      add\n        /* \"#utility.yul\":7318:7330   */\n      dup3\n        /* \"#utility.yul\":7284:7347   */\n      tag_266\n      jump\t// in\n    tag_389:\n        /* \"#utility.yul\":7193:7357   */\n      pop\n        /* \"#utility.yul\":7442:7446   */\n      0x60\n        /* \"#utility.yul\":7435:7440   */\n      dup4\n        /* \"#utility.yul\":7431:7447   */\n      add\n        /* \"#utility.yul\":7425:7448   */\n      mload\n        /* \"#utility.yul\":7461:7524   */\n      tag_390\n        /* \"#utility.yul\":7518:7522   */\n      0x60\n        /* \"#utility.yul\":7513:7516   */\n      dup7\n        /* \"#utility.yul\":7509:7523   */\n      add\n        /* \"#utility.yul\":7495:7507   */\n      dup3\n        /* \"#utility.yul\":7461:7524   */\n      tag_263\n      jump\t// in\n    tag_390:\n        /* \"#utility.yul\":7367:7534   */\n      pop\n        /* \"#utility.yul\":7617:7621   */\n      0x80\n        /* \"#utility.yul\":7610:7615   */\n      dup4\n        /* \"#utility.yul\":7606:7622   */\n      add\n        /* \"#utility.yul\":7600:7623   */\n      mload\n        /* \"#utility.yul\":7636:7699   */\n      tag_391\n        /* \"#utility.yul\":7693:7697   */\n      0x80\n        /* \"#utility.yul\":7688:7691   */\n      dup7\n        /* \"#utility.yul\":7684:7698   */\n      add\n        /* \"#utility.yul\":7670:7682   */\n      dup3\n        /* \"#utility.yul\":7636:7699   */\n      tag_263\n      jump\t// in\n    tag_391:\n        /* \"#utility.yul\":7544:7709   */\n      pop\n        /* \"#utility.yul\":7726:7730   */\n      dup1\n        /* \"#utility.yul\":7719:7730   */\n      swap2\n      pop\n        /* \"#utility.yul\":6726:7736   */\n      pop\n        /* \"#utility.yul\":6612:7736   */\n      swap3\n      swap2\n      pop\n      pop\n      jump\t// out\n        /* \"#utility.yul\":7742:8095   */\n    tag_29:\n        /* \"#utility.yul\":7875:7879   */\n      0x00\n        /* \"#utility.yul\":7913:7915   */\n      0x20\n        /* \"#utility.yul\":7902:7911   */\n      dup3\n        /* \"#utility.yul\":7898:7916   */\n      add\n        /* \"#utility.yul\":7890:7916   */\n      swap1\n      pop\n        /* \"#utility.yul\":7962:7971   */\n      dup2\n        /* \"#utility.yul\":7956:7960   */\n      dup2\n        /* \"#utility.yul\":7952:7972   */\n      sub\n        /* \"#utility.yul\":7948:7949   */\n      0x00\n        /* \"#utility.yul\":7937:7946   */\n      dup4\n        /* \"#utility.yul\":7933:7950   */\n      add\n        /* \"#utility.yul\":7926:7973   */\n      mstore\n        /* \"#utility.yul\":7990:8088   */\n      tag_393\n        /* \"#utility.yul\":8083:8087   */\n      dup2\n        /* \"#utility.yul\":8074:8080   */\n      dup5\n        /* \"#utility.yul\":7990:8088   */\n      tag_267\n      jump\t// in\n    tag_393:\n        /* \"#utility.yul\":7982:8088   */\n      swap1\n      pop\n        /* \"#utility.yul\":7742:8095   */\n      swap3\n      swap2\n      pop\n      pop\n      jump\t// out\n        /* \"#utility.yul\":8101:8323   */\n    tag_38:\n        /* \"#utility.yul\":8194:8198   */\n      0x00\n        /* \"#utility.yul\":8232:8234   */\n      0x20\n        /* \"#utility.yul\":8221:8230   */\n      dup3\n        /* \"#utility.yul\":8217:8235   */\n      add\n        /* \"#utility.yul\":8209:8235   */\n      swap1\n      pop\n        /* \"#utility.yul\":8245:8316   */\n      tag_395\n        /* \"#utility.yul\":8313:8314   */\n      0x00\n        /* \"#utility.yul\":8302:8311   */\n      dup4\n        /* \"#utility.yul\":8298:8315   */\n      add\n        /* \"#utility.yul\":8289:8295   */\n      dup5\n        /* \"#utility.yul\":8245:8316   */\n      tag_245\n      jump\t// in\n    tag_395:\n        /* \"#utility.yul\":8101:8323   */\n      swap3\n      swap2\n      pop\n      pop\n      jump\t// out\n        /* \"#utility.yul\":8329:8453   */\n    tag_268:\n        /* \"#utility.yul\":8414:8420   */\n      0x00\n        /* \"#utility.yul\":8442:8446   */\n      0x04\n        /* \"#utility.yul\":8432:8446   */\n      swap1\n      pop\n        /* \"#utility.yul\":8329:8453   */\n      swap2\n      swap1\n      pop\n      jump\t// out\n        /* \"#utility.yul\":8459:8622   */\n    tag_269:\n        /* \"#utility.yul\":8576:8587   */\n      0x00\n        /* \"#utility.yul\":8613:8616   */\n      dup2\n        /* \"#utility.yul\":8598:8616   */\n      swap1\n      pop\n        /* \"#utility.yul\":8459:8622   */\n      swap3\n      swap2\n      pop\n      pop\n      jump\t// out\n        /* \"#utility.yul\":8628:8746   */\n    tag_270:\n        /* \"#utility.yul\":8713:8717   */\n      0x00\n        /* \"#utility.yul\":8736:8739   */\n      dup2\n        /* \"#utility.yul\":8728:8739   */\n      swap1\n      pop\n        /* \"#utility.yul\":8628:8746   */\n      swap2\n      swap1\n      pop\n      jump\t// out\n        /* \"#utility.yul\":8796:9910   */\n    tag_271:\n        /* \"#utility.yul\":8895:8898   */\n      0x00\n        /* \"#utility.yul\":8931:8935   */\n      0xa0\n        /* \"#utility.yul\":8926:8929   */\n      dup4\n        /* \"#utility.yul\":8922:8936   */\n      add\n        /* \"#utility.yul\":9020:9024   */\n      0x00\n        /* \"#utility.yul\":9013:9018   */\n      dup4\n        /* \"#utility.yul\":9009:9025   */\n      add\n        /* \"#utility.yul\":9003:9026   */\n      mload\n        /* \"#utility.yul\":9039:9102   */\n      tag_400\n        /* \"#utility.yul\":9096:9100   */\n      0x00\n        /* \"#utility.yul\":9091:9094   */\n      dup7\n        /* \"#utility.yul\":9087:9101   */\n      add\n        /* \"#utility.yul\":9073:9085   */\n      dup3\n        /* \"#utility.yul\":9039:9102   */\n      tag_263\n      jump\t// in\n    tag_400:\n        /* \"#utility.yul\":8946:9112   */\n      pop\n        /* \"#utility.yul\":9194:9198   */\n      0x20\n        /* \"#utility.yul\":9187:9192   */\n      dup4\n        /* \"#utility.yul\":9183:9199   */\n      add\n        /* \"#utility.yul\":9177:9200   */\n      mload\n        /* \"#utility.yul\":9247:9250   */\n      dup5\n        /* \"#utility.yul\":9241:9245   */\n      dup3\n        /* \"#utility.yul\":9237:9251   */\n      sub\n        /* \"#utility.yul\":9230:9234   */\n      0x20\n        /* \"#utility.yul\":9225:9228   */\n      dup7\n        /* \"#utility.yul\":9221:9235   */\n      add\n        /* \"#utility.yul\":9214:9252   */\n      mstore\n        /* \"#utility.yul\":9273:9346   */\n      tag_401\n        /* \"#utility.yul\":9341:9345   */\n      dup3\n        /* \"#utility.yul\":9327:9339   */\n      dup3\n        /* \"#utility.yul\":9273:9346   */\n      tag_265\n      jump\t// in\n    tag_401:\n        /* \"#utility.yul\":9265:9346   */\n      swap2\n      pop\n        /* \"#utility.yul\":9122:9357   */\n      pop\n        /* \"#utility.yul\":9439:9443   */\n      0x40\n        /* \"#utility.yul\":9432:9437   */\n      dup4\n        /* \"#utility.yul\":9428:9444   */\n      add\n        /* \"#utility.yul\":9422:9445   */\n      mload\n        /* \"#utility.yul\":9458:9521   */\n      tag_402\n        /* \"#utility.yul\":9515:9519   */\n      0x40\n        /* \"#utility.yul\":9510:9513   */\n      dup7\n        /* \"#utility.yul\":9506:9520   */\n      add\n        /* \"#utility.yul\":9492:9504   */\n      dup3\n        /* \"#utility.yul\":9458:9521   */\n      tag_266\n      jump\t// in\n    tag_402:\n        /* \"#utility.yul\":9367:9531   */\n      pop\n        /* \"#utility.yul\":9616:9620   */\n      0x60\n        /* \"#utility.yul\":9609:9614   */\n      dup4\n        /* \"#utility.yul\":9605:9621   */\n      add\n        /* \"#utility.yul\":9599:9622   */\n      mload\n        /* \"#utility.yul\":9635:9698   */\n      tag_403\n        /* \"#utility.yul\":9692:9696   */\n      0x60\n        /* \"#utility.yul\":9687:9690   */\n      dup7\n        /* \"#utility.yul\":9683:9697   */\n      add\n        /* \"#utility.yul\":9669:9681   */\n      dup3\n        /* \"#utility.yul\":9635:9698   */\n      tag_263\n      jump\t// in\n    tag_403:\n        /* \"#utility.yul\":9541:9708   */\n      pop\n        /* \"#utility.yul\":9791:9795   */\n      0x80\n        /* \"#utility.yul\":9784:9789   */\n      dup4\n        /* \"#utility.yul\":9780:9796   */\n      add\n        /* \"#utility.yul\":9774:9797   */\n      mload\n        /* \"#utility.yul\":9810:9873   */\n      tag_404\n        /* \"#utility.yul\":9867:9871   */\n      0x80\n        /* \"#utility.yul\":9862:9865   */\n      dup7\n        /* \"#utility.yul\":9858:9872   */\n      add\n        /* \"#utility.yul\":9844:9856   */\n      dup3\n        /* \"#utility.yul\":9810:9873   */\n      tag_263\n      jump\t// in\n    tag_404:\n        /* \"#utility.yul\":9718:9883   */\n      pop\n        /* \"#utility.yul\":9900:9904   */\n      dup1\n        /* \"#utility.yul\":9893:9904   */\n      swap2\n      pop\n        /* \"#utility.yul\":8900:9910   */\n      pop\n        /* \"#utility.yul\":8796:9910   */\n      swap3\n      swap2\n      pop\n      pop\n      jump\t// out\n        /* \"#utility.yul\":9916:10152   */\n    tag_272:\n        /* \"#utility.yul\":10025:10035   */\n      0x00\n        /* \"#utility.yul\":10060:10146   */\n      tag_406\n        /* \"#utility.yul\":10142:10145   */\n      dup4\n        /* \"#utility.yul\":10134:10140   */\n      dup4\n        /* \"#utility.yul\":10060:10146   */\n      tag_271\n      jump\t// in\n    tag_406:\n        /* \"#utility.yul\":10046:10146   */\n      swap1\n      pop\n        /* \"#utility.yul\":9916:10152   */\n      swap3\n      swap2\n      pop\n      pop\n      jump\t// out\n        /* \"#utility.yul\":10158:10289   */\n    tag_273:\n        /* \"#utility.yul\":10246:10250   */\n      0x00\n        /* \"#utility.yul\":10278:10282   */\n      0x20\n        /* \"#utility.yul\":10273:10276   */\n      dup3\n        /* \"#utility.yul\":10269:10283   */\n      add\n        /* \"#utility.yul\":10261:10283   */\n      swap1\n      pop\n        /* \"#utility.yul\":10158:10289   */\n      swap2\n      swap1\n      pop\n      jump\t// out\n        /* \"#utility.yul\":10345:11404   */\n    tag_274:\n        /* \"#utility.yul\":10500:10503   */\n      0x00\n        /* \"#utility.yul\":10529:10601   */\n      tag_409\n        /* \"#utility.yul\":10595:10600   */\n      dup3\n        /* \"#utility.yul\":10529:10601   */\n      tag_268\n      jump\t// in\n    tag_409:\n        /* \"#utility.yul\":10617:10721   */\n      tag_410\n        /* \"#utility.yul\":10714:10720   */\n      dup2\n        /* \"#utility.yul\":10709:10712   */\n      dup6\n        /* \"#utility.yul\":10617:10721   */\n      tag_269\n      jump\t// in\n    tag_410:\n        /* \"#utility.yul\":10610:10721   */\n      swap4\n      pop\n        /* \"#utility.yul\":10747:10750   */\n      dup4\n        /* \"#utility.yul\":10792:10796   */\n      0x20\n        /* \"#utility.yul\":10784:10790   */\n      dup3\n        /* \"#utility.yul\":10780:10797   */\n      mul\n        /* \"#utility.yul\":10775:10778   */\n      dup6\n        /* \"#utility.yul\":10771:10798   */\n      add\n        /* \"#utility.yul\":10822:10896   */\n      tag_411\n        /* \"#utility.yul\":10890:10895   */\n      dup6\n        /* \"#utility.yul\":10822:10896   */\n      tag_270\n      jump\t// in\n    tag_411:\n        /* \"#utility.yul\":10919:10926   */\n      dup1\n        /* \"#utility.yul\":10950:10951   */\n      0x00\n        /* \"#utility.yul\":10935:11359   */\n    tag_412:\n        /* \"#utility.yul\":10960:10966   */\n      dup6\n        /* \"#utility.yul\":10957:10958   */\n      dup2\n        /* \"#utility.yul\":10954:10967   */\n      lt\n        /* \"#utility.yul\":10935:11359   */\n      iszero\n      tag_414\n      jumpi\n        /* \"#utility.yul\":11031:11040   */\n      dup5\n        /* \"#utility.yul\":11025:11029   */\n      dup5\n        /* \"#utility.yul\":11021:11041   */\n      sub\n        /* \"#utility.yul\":11016:11019   */\n      dup10\n        /* \"#utility.yul\":11009:11042   */\n      mstore\n        /* \"#utility.yul\":11082:11088   */\n      dup2\n        /* \"#utility.yul\":11076:11089   */\n      mload\n        /* \"#utility.yul\":11110:11214   */\n      tag_415\n        /* \"#utility.yul\":11209:11213   */\n      dup6\n        /* \"#utility.yul\":11194:11207   */\n      dup3\n        /* \"#utility.yul\":11110:11214   */\n      tag_272\n      jump\t// in\n    tag_415:\n        /* \"#utility.yul\":11102:11214   */\n      swap5\n      pop\n        /* \"#utility.yul\":11237:11315   */\n      tag_416\n        /* \"#utility.yul\":11308:11314   */\n      dup4\n        /* \"#utility.yul\":11237:11315   */\n      tag_273\n      jump\t// in\n    tag_416:\n        /* \"#utility.yul\":11227:11315   */\n      swap3\n      pop\n        /* \"#utility.yul\":11344:11348   */\n      0x20\n        /* \"#utility.yul\":11339:11342   */\n      dup11\n        /* \"#utility.yul\":11335:11349   */\n      add\n        /* \"#utility.yul\":11328:11349   */\n      swap10\n      pop\n        /* \"#utility.yul\":10995:11359   */\n      pop\n        /* \"#utility.yul\":10982:10983   */\n      0x01\n        /* \"#utility.yul\":10979:10980   */\n      dup2\n        /* \"#utility.yul\":10975:10984   */\n      add\n        /* \"#utility.yul\":10970:10984   */\n      swap1\n      pop\n        /* \"#utility.yul\":10935:11359   */\n      jump(tag_412)\n    tag_414:\n        /* \"#utility.yul\":10939:10953   */\n      pop\n        /* \"#utility.yul\":11375:11379   */\n      dup3\n        /* \"#utility.yul\":11368:11379   */\n      swap8\n      pop\n        /* \"#utility.yul\":11395:11398   */\n      dup8\n        /* \"#utility.yul\":11388:11398   */\n      swap6\n      pop\n        /* \"#utility.yul\":10505:11404   */\n      pop\n      pop\n      pop\n      pop\n      pop\n        /* \"#utility.yul\":10345:11404   */\n      swap3\n      swap2\n      pop\n      pop\n      jump\t// out\n        /* \"#utility.yul\":11410:11855   */\n    tag_51:\n        /* \"#utility.yul\":11589:11593   */\n      0x00\n        /* \"#utility.yul\":11627:11629   */\n      0x20\n        /* \"#utility.yul\":11616:11625   */\n      dup3\n        /* \"#utility.yul\":11612:11630   */\n      add\n        /* \"#utility.yul\":11604:11630   */\n      swap1\n      pop\n        /* \"#utility.yul\":11676:11685   */\n      dup2\n        /* \"#utility.yul\":11670:11674   */\n      dup2\n        /* \"#utility.yul\":11666:11686   */\n      sub\n        /* \"#utility.yul\":11662:11663   */\n      0x00\n        /* \"#utility.yul\":11651:11660   */\n      dup4\n        /* \"#utility.yul\":11647:11664   */\n      add\n        /* \"#utility.yul\":11640:11687   */\n      mstore\n        /* \"#utility.yul\":11704:11848   */\n      tag_418\n        /* \"#utility.yul\":11843:11847   */\n      dup2\n        /* \"#utility.yul\":11834:11840   */\n      dup5\n        /* \"#utility.yul\":11704:11848   */\n      tag_274\n      jump\t// in\n    tag_418:\n        /* \"#utility.yul\":11696:11848   */\n      swap1\n      pop\n        /* \"#utility.yul\":11410:11855   */\n      swap3\n      swap2\n      pop\n      pop\n      jump\t// out\n        /* \"#utility.yul\":11861:12082   */\n    tag_275:\n        /* \"#utility.yul\":12001:12035   */\n      0x4f6e6c792061646d696e2063616e20706572666f726d20746869732061637469\n        /* \"#utility.yul\":11997:11998   */\n      0x00\n        /* \"#utility.yul\":11989:11995   */\n      dup3\n        /* \"#utility.yul\":11985:11999   */\n      add\n        /* \"#utility.yul\":11978:12036   */\n      mstore\n        /* \"#utility.yul\":12070:12074   */\n      0x6f6e000000000000000000000000000000000000000000000000000000000000\n        /* \"#utility.yul\":12065:12067   */\n      0x20\n        /* \"#utility.yul\":12057:12063   */\n      dup3\n        /* \"#utility.yul\":12053:12068   */\n      add\n        /* \"#utility.yul\":12046:12075   */\n      mstore\n        /* \"#utility.yul\":11861:12082   */\n      pop\n      jump\t// out\n        /* \"#utility.yul\":12088:12454   */\n    tag_276:\n        /* \"#utility.yul\":12230:12233   */\n      0x00\n        /* \"#utility.yul\":12251:12318   */\n      tag_421\n        /* \"#utility.yul\":12315:12317   */\n      0x22\n        /* \"#utility.yul\":12310:12313   */\n      dup4\n        /* \"#utility.yul\":12251:12318   */\n      tag_247\n      jump\t// in\n    tag_421:\n        /* \"#utility.yul\":12244:12318   */\n      swap2\n      pop\n        /* \"#utility.yul\":12327:12420   */\n      tag_422\n        /* \"#utility.yul\":12416:12419   */\n      dup3\n        /* \"#utility.yul\":12327:12420   */\n      tag_275\n      jump\t// in\n    tag_422:\n        /* \"#utility.yul\":12445:12447   */\n      0x40\n        /* \"#utility.yul\":12440:12443   */\n      dup3\n        /* \"#utility.yul\":12436:12448   */\n      add\n        /* \"#utility.yul\":12429:12448   */\n      swap1\n      pop\n        /* \"#utility.yul\":12088:12454   */\n      swap2\n      swap1\n      pop\n      jump\t// out\n        /* \"#utility.yul\":12460:12879   */\n    tag_58:\n        /* \"#utility.yul\":12626:12630   */\n      0x00\n        /* \"#utility.yul\":12664:12666   */\n      0x20\n        /* \"#utility.yul\":12653:12662   */\n      dup3\n        /* \"#utility.yul\":12649:12667   */\n      add\n        /* \"#utility.yul\":12641:12667   */\n      swap1\n      pop\n        /* \"#utility.yul\":12713:12722   */\n      dup2\n        /* \"#utility.yul\":12707:12711   */\n      dup2\n        /* \"#utility.yul\":12703:12723   */\n      sub\n        /* \"#utility.yul\":12699:12700   */\n      0x00\n        /* \"#utility.yul\":12688:12697   */\n      dup4\n        /* \"#utility.yul\":12684:12701   */\n      add\n        /* \"#utility.yul\":12677:12724   */\n      mstore\n        /* \"#utility.yul\":12741:12872   */\n      tag_424\n        /* \"#utility.yul\":12867:12871   */\n      dup2\n        /* \"#utility.yul\":12741:12872   */\n      tag_276\n      jump\t// in\n    tag_424:\n        /* \"#utility.yul\":12733:12872   */\n      swap1\n      pop\n        /* \"#utility.yul\":12460:12879   */\n      swap2\n      swap1\n      pop\n      jump\t// out\n        /* \"#utility.yul\":12885:13066   */\n    tag_277:\n        /* \"#utility.yul\":13025:13058   */\n      0x436f6e74726163742068617320696e73756666696369656e742066756e647300\n        /* \"#utility.yul\":13021:13022   */\n      0x00\n        /* \"#utility.yul\":13013:13019   */\n      dup3\n        /* \"#utility.yul\":13009:13023   */\n      add\n        /* \"#utility.yul\":13002:13059   */\n      mstore\n        /* \"#utility.yul\":12885:13066   */\n      pop\n      jump\t// out\n        /* \"#utility.yul\":13072:13438   */\n    tag_278:\n        /* \"#utility.yul\":13214:13217   */\n      0x00\n        /* \"#utility.yul\":13235:13302   */\n      tag_427\n        /* \"#utility.yul\":13299:13301   */\n      0x1f\n        /* \"#utility.yul\":13294:13297   */\n      dup4\n        /* \"#utility.yul\":13235:13302   */\n      tag_247\n      jump\t// in\n    tag_427:\n        /* \"#utility.yul\":13228:13302   */\n      swap2\n      pop\n        /* \"#utility.yul\":13311:13404   */\n      tag_428\n        /* \"#utility.yul\":13400:13403   */\n      dup3\n        /* \"#utility.yul\":13311:13404   */\n      tag_277\n      jump\t// in\n    tag_428:\n        /* \"#utility.yul\":13429:13431   */\n      0x20\n        /* \"#utility.yul\":13424:13427   */\n      dup3\n        /* \"#utility.yul\":13420:13432   */\n      add\n        /* \"#utility.yul\":13413:13432   */\n      swap1\n      pop\n        /* \"#utility.yul\":13072:13438   */\n      swap2\n      swap1\n      pop\n      jump\t// out\n        /* \"#utility.yul\":13444:13863   */\n    tag_62:\n        /* \"#utility.yul\":13610:13614   */\n      0x00\n        /* \"#utility.yul\":13648:13650   */\n      0x20\n        /* \"#utility.yul\":13637:13646   */\n      dup3\n        /* \"#utility.yul\":13633:13651   */\n      add\n        /* \"#utility.yul\":13625:13651   */\n      swap1\n      pop\n        /* \"#utility.yul\":13697:13706   */\n      dup2\n        /* \"#utility.yul\":13691:13695   */\n      dup2\n        /* \"#utility.yul\":13687:13707   */\n      sub\n        /* \"#utility.yul\":13683:13684   */\n      0x00\n        /* \"#utility.yul\":13672:13681   */\n      dup4\n        /* \"#utility.yul\":13668:13685   */\n      add\n        /* \"#utility.yul\":13661:13708   */\n      mstore\n        /* \"#utility.yul\":13725:13856   */\n      tag_430\n        /* \"#utility.yul\":13851:13855   */\n      dup2\n        /* \"#utility.yul\":13725:13856   */\n      tag_278\n      jump\t// in\n    tag_430:\n        /* \"#utility.yul\":13717:13856   */\n      swap1\n      pop\n        /* \"#utility.yul\":13444:13863   */\n      swap2\n      swap1\n      pop\n      jump\t// out\n        /* \"#utility.yul\":13869:14049   */\n    tag_279:\n        /* \"#utility.yul\":13917:13994   */\n      0x4e487b7100000000000000000000000000000000000000000000000000000000\n        /* \"#utility.yul\":13914:13915   */\n      0x00\n        /* \"#utility.yul\":13907:13995   */\n      mstore\n        /* \"#utility.yul\":14014:14018   */\n      0x22\n        /* \"#utility.yul\":14011:14012   */\n      0x04\n        /* \"#utility.yul\":14004:14019   */\n      mstore\n        /* \"#utility.yul\":14038:14042   */\n      0x24\n        /* \"#utility.yul\":14035:14036   */\n      0x00\n        /* \"#utility.yul\":14028:14043   */\n      revert\n        /* \"#utility.yul\":14055:14375   */\n    tag_68:\n        /* \"#utility.yul\":14099:14105   */\n      0x00\n        /* \"#utility.yul\":14136:14137   */\n      0x02\n        /* \"#utility.yul\":14130:14134   */\n      dup3\n        /* \"#utility.yul\":14126:14138   */\n      div\n        /* \"#utility.yul\":14116:14138   */\n      swap1\n      pop\n        /* \"#utility.yul\":14183:14184   */\n      0x01\n        /* \"#utility.yul\":14177:14181   */\n      dup3\n        /* \"#utility.yul\":14173:14185   */\n      and\n        /* \"#utility.yul\":14204:14222   */\n      dup1\n        /* \"#utility.yul\":14194:14275   */\n      tag_433\n      jumpi\n        /* \"#utility.yul\":14260:14264   */\n      0x7f\n        /* \"#utility.yul\":14252:14258   */\n      dup3\n        /* \"#utility.yul\":14248:14265   */\n      and\n        /* \"#utility.yul\":14238:14265   */\n      swap2\n      pop\n        /* \"#utility.yul\":14194:14275   */\n    tag_433:\n        /* \"#utility.yul\":14322:14324   */\n      0x20\n        /* \"#utility.yul\":14314:14320   */\n      dup3\n        /* \"#utility.yul\":14311:14325   */\n      lt\n        /* \"#utility.yul\":14291:14309   */\n      dup2\n        /* \"#utility.yul\":14288:14326   */\n      sub\n        /* \"#utility.yul\":14285:14369   */\n      tag_434\n      jumpi\n        /* \"#utility.yul\":14341:14359   */\n      tag_435\n      tag_279\n      jump\t// in\n    tag_435:\n        /* \"#utility.yul\":14285:14369   */\n    tag_434:\n        /* \"#utility.yul\":14106:14375   */\n      pop\n        /* \"#utility.yul\":14055:14375   */\n      swap2\n      swap1\n      pop\n      jump\t// out\n        /* \"#utility.yul\":14381:14529   */\n    tag_280:\n        /* \"#utility.yul\":14483:14494   */\n      0x00\n        /* \"#utility.yul\":14520:14523   */\n      dup2\n        /* \"#utility.yul\":14505:14523   */\n      swap1\n      pop\n        /* \"#utility.yul\":14381:14529   */\n      swap3\n      swap2\n      pop\n      pop\n      jump\t// out\n        /* \"#utility.yul\":14535:14925   */\n    tag_281:\n        /* \"#utility.yul\":14641:14644   */\n      0x00\n        /* \"#utility.yul\":14669:14708   */\n      tag_438\n        /* \"#utility.yul\":14702:14707   */\n      dup3\n        /* \"#utility.yul\":14669:14708   */\n      tag_246\n      jump\t// in\n    tag_438:\n        /* \"#utility.yul\":14724:14813   */\n      tag_439\n        /* \"#utility.yul\":14806:14812   */\n      dup2\n        /* \"#utility.yul\":14801:14804   */\n      dup6\n        /* \"#utility.yul\":14724:14813   */\n      tag_280\n      jump\t// in\n    tag_439:\n        /* \"#utility.yul\":14717:14813   */\n      swap4\n      pop\n        /* \"#utility.yul\":14822:14887   */\n      tag_440\n        /* \"#utility.yul\":14880:14886   */\n      dup2\n        /* \"#utility.yul\":14875:14878   */\n      dup6\n        /* \"#utility.yul\":14868:14872   */\n      0x20\n        /* \"#utility.yul\":14861:14866   */\n      dup7\n        /* \"#utility.yul\":14857:14873   */\n      add\n        /* \"#utility.yul\":14822:14887   */\n      tag_248\n      jump\t// in\n    tag_440:\n        /* \"#utility.yul\":14912:14918   */\n      dup1\n        /* \"#utility.yul\":14907:14910   */\n      dup5\n        /* \"#utility.yul\":14903:14919   */\n      add\n        /* \"#utility.yul\":14896:14919   */\n      swap2\n      pop\n        /* \"#utility.yul\":14645:14925   */\n      pop\n        /* \"#utility.yul\":14535:14925   */\n      swap3\n      swap2\n      pop\n      pop\n      jump\t// out\n        /* \"#utility.yul\":14931:15206   */\n    tag_80:\n        /* \"#utility.yul\":15063:15066   */\n      0x00\n        /* \"#utility.yul\":15085:15180   */\n      tag_442\n        /* \"#utility.yul\":15176:15179   */\n      dup3\n        /* \"#utility.yul\":15167:15173   */\n      dup5\n        /* \"#utility.yul\":15085:15180   */\n      tag_281\n      jump\t// in\n    tag_442:\n        /* \"#utility.yul\":15078:15180   */\n      swap2\n      pop\n        /* \"#utility.yul\":15197:15200   */\n      dup2\n        /* \"#utility.yul\":15190:15200   */\n      swap1\n      pop\n        /* \"#utility.yul\":14931:15206   */\n      swap3\n      swap2\n      pop\n      pop\n      jump\t// out\n        /* \"#utility.yul\":15212:15392   */\n    tag_83:\n        /* \"#utility.yul\":15260:15337   */\n      0x4e487b7100000000000000000000000000000000000000000000000000000000\n        /* \"#utility.yul\":15257:15258   */\n      0x00\n        /* \"#utility.yul\":15250:15338   */\n      mstore\n        /* \"#utility.yul\":15357:15361   */\n      0x32\n        /* \"#utility.yul\":15354:15355   */\n      0x04\n        /* \"#utility.yul\":15347:15362   */\n      mstore\n        /* \"#utility.yul\":15381:15385   */\n      0x24\n        /* \"#utility.yul\":15378:15379   */\n      0x00\n        /* \"#utility.yul\":15371:15386   */\n      revert\n        /* \"#utility.yul\":15398:15539   */\n    tag_282:\n        /* \"#utility.yul\":15447:15451   */\n      0x00\n        /* \"#utility.yul\":15470:15473   */\n      dup2\n        /* \"#utility.yul\":15462:15473   */\n      swap1\n      pop\n        /* \"#utility.yul\":15493:15496   */\n      dup2\n        /* \"#utility.yul\":15490:15491   */\n      0x00\n        /* \"#utility.yul\":15483:15497   */\n      mstore\n        /* \"#utility.yul\":15527:15531   */\n      0x20\n        /* \"#utility.yul\":15524:15525   */\n      0x00\n        /* \"#utility.yul\":15514:15532   */\n      keccak256\n        /* \"#utility.yul\":15506:15532   */\n      swap1\n      pop\n        /* \"#utility.yul\":15398:15539   */\n      swap2\n      swap1\n      pop\n      jump\t// out\n        /* \"#utility.yul\":15569:16443   */\n    tag_283:\n        /* \"#utility.yul\":15672:15675   */\n      0x00\n        /* \"#utility.yul\":15709:15714   */\n      dup2\n        /* \"#utility.yul\":15703:15715   */\n      sload\n        /* \"#utility.yul\":15738:15774   */\n      tag_446\n        /* \"#utility.yul\":15764:15773   */\n      dup2\n        /* \"#utility.yul\":15738:15774   */\n      tag_68\n      jump\t// in\n    tag_446:\n        /* \"#utility.yul\":15790:15879   */\n      tag_447\n        /* \"#utility.yul\":15872:15878   */\n      dup2\n        /* \"#utility.yul\":15867:15870   */\n      dup7\n        /* \"#utility.yul\":15790:15879   */\n      tag_280\n      jump\t// in\n    tag_447:\n        /* \"#utility.yul\":15783:15879   */\n      swap5\n      pop\n        /* \"#utility.yul\":15910:15911   */\n      0x01\n        /* \"#utility.yul\":15899:15908   */\n      dup3\n        /* \"#utility.yul\":15895:15912   */\n      and\n        /* \"#utility.yul\":15926:15927   */\n      0x00\n        /* \"#utility.yul\":15921:16087   */\n      dup2\n      eq\n      tag_449\n      jumpi\n        /* \"#utility.yul\":16101:16102   */\n      0x01\n        /* \"#utility.yul\":16096:16437   */\n      dup2\n      eq\n      tag_450\n      jumpi\n        /* \"#utility.yul\":15888:16437   */\n      jump(tag_448)\n        /* \"#utility.yul\":15921:16087   */\n    tag_449:\n        /* \"#utility.yul\":16005:16009   */\n      0xff\n        /* \"#utility.yul\":16001:16010   */\n      not\n        /* \"#utility.yul\":15990:15999   */\n      dup4\n        /* \"#utility.yul\":15986:16011   */\n      and\n        /* \"#utility.yul\":15981:15984   */\n      dup7\n        /* \"#utility.yul\":15974:16012   */\n      mstore\n        /* \"#utility.yul\":16067:16073   */\n      dup2\n        /* \"#utility.yul\":16060:16074   */\n      iszero\n        /* \"#utility.yul\":16053:16075   */\n      iszero\n        /* \"#utility.yul\":16045:16051   */\n      dup3\n        /* \"#utility.yul\":16041:16076   */\n      mul\n        /* \"#utility.yul\":16036:16039   */\n      dup7\n        /* \"#utility.yul\":16032:16077   */\n      add\n        /* \"#utility.yul\":16025:16077   */\n      swap4\n      pop\n        /* \"#utility.yul\":15921:16087   */\n      jump(tag_448)\n        /* \"#utility.yul\":16096:16437   */\n    tag_450:\n        /* \"#utility.yul\":16163:16201   */\n      tag_451\n        /* \"#utility.yul\":16195:16200   */\n      dup6\n        /* \"#utility.yul\":16163:16201   */\n      tag_282\n      jump\t// in\n    tag_451:\n        /* \"#utility.yul\":16223:16224   */\n      0x00\n        /* \"#utility.yul\":16237:16391   */\n    tag_452:\n        /* \"#utility.yul\":16251:16257   */\n      dup4\n        /* \"#utility.yul\":16248:16249   */\n      dup2\n        /* \"#utility.yul\":16245:16258   */\n      lt\n        /* \"#utility.yul\":16237:16391   */\n      iszero\n      tag_454\n      jumpi\n        /* \"#utility.yul\":16325:16332   */\n      dup2\n        /* \"#utility.yul\":16319:16333   */\n      sload\n        /* \"#utility.yul\":16315:16316   */\n      dup2\n        /* \"#utility.yul\":16310:16313   */\n      dup10\n        /* \"#utility.yul\":16306:16317   */\n      add\n        /* \"#utility.yul\":16299:16334   */\n      mstore\n        /* \"#utility.yul\":16375:16376   */\n      0x01\n        /* \"#utility.yul\":16366:16373   */\n      dup3\n        /* \"#utility.yul\":16362:16377   */\n      add\n        /* \"#utility.yul\":16351:16377   */\n      swap2\n      pop\n        /* \"#utility.yul\":16273:16277   */\n      0x20\n        /* \"#utility.yul\":16270:16271   */\n      dup2\n        /* \"#utility.yul\":16266:16278   */\n      add\n        /* \"#utility.yul\":16261:16278   */\n      swap1\n      pop\n        /* \"#utility.yul\":16237:16391   */\n      jump(tag_452)\n    tag_454:\n        /* \"#utility.yul\":16420:16426   */\n      dup4\n        /* \"#utility.yul\":16415:16418   */\n      dup9\n        /* \"#utility.yul\":16411:16427   */\n      add\n        /* \"#utility.yul\":16404:16427   */\n      swap6\n      pop\n        /* \"#utility.yul\":16103:16437   */\n      pop\n      pop\n        /* \"#utility.yul\":15888:16437   */\n    tag_448:\n      pop\n        /* \"#utility.yul\":15676:16443   */\n      pop\n      pop\n        /* \"#utility.yul\":15569:16443   */\n      swap3\n      swap2\n      pop\n      pop\n      jump\t// out\n        /* \"#utility.yul\":16449:16718   */\n    tag_86:\n        /* \"#utility.yul\":16578:16581   */\n      0x00\n        /* \"#utility.yul\":16600:16692   */\n      tag_456\n        /* \"#utility.yul\":16688:16691   */\n      dup3\n        /* \"#utility.yul\":16679:16685   */\n      dup5\n        /* \"#utility.yul\":16600:16692   */\n      tag_283\n      jump\t// in\n    tag_456:\n        /* \"#utility.yul\":16593:16692   */\n      swap2\n      pop\n        /* \"#utility.yul\":16709:16712   */\n      dup2\n        /* \"#utility.yul\":16702:16712   */\n      swap1\n      pop\n        /* \"#utility.yul\":16449:16718   */\n      swap3\n      swap2\n      pop\n      pop\n      jump\t// out\n        /* \"#utility.yul\":16724:16888   */\n    tag_284:\n        /* \"#utility.yul\":16864:16880   */\n      0x55736572206e6f7420666f756e64000000000000000000000000000000000000\n        /* \"#utility.yul\":16860:16861   */\n      0x00\n        /* \"#utility.yul\":16852:16858   */\n      dup3\n        /* \"#utility.yul\":16848:16862   */\n      add\n        /* \"#utility.yul\":16841:16881   */\n      mstore\n        /* \"#utility.yul\":16724:16888   */\n      pop\n      jump\t// out\n        /* \"#utility.yul\":16894:17260   */\n    tag_285:\n        /* \"#utility.yul\":17036:17039   */\n      0x00\n        /* \"#utility.yul\":17057:17124   */\n      tag_459\n        /* \"#utility.yul\":17121:17123   */\n      0x0e\n        /* \"#utility.yul\":17116:17119   */\n      dup4\n        /* \"#utility.yul\":17057:17124   */\n      tag_247\n      jump\t// in\n    tag_459:\n        /* \"#utility.yul\":17050:17124   */\n      swap2\n      pop\n        /* \"#utility.yul\":17133:17226   */\n      tag_460\n        /* \"#utility.yul\":17222:17225   */\n      dup3\n        /* \"#utility.yul\":17133:17226   */\n      tag_284\n      jump\t// in\n    tag_460:\n        /* \"#utility.yul\":17251:17253   */\n      0x20\n        /* \"#utility.yul\":17246:17249   */\n      dup3\n        /* \"#utility.yul\":17242:17254   */\n      add\n        /* \"#utility.yul\":17235:17254   */\n      swap1\n      pop\n        /* \"#utility.yul\":16894:17260   */\n      swap2\n      swap1\n      pop\n      jump\t// out\n        /* \"#utility.yul\":17266:17685   */\n    tag_97:\n        /* \"#utility.yul\":17432:17436   */\n      0x00\n        /* \"#utility.yul\":17470:17472   */\n      0x20\n        /* \"#utility.yul\":17459:17468   */\n      dup3\n        /* \"#utility.yul\":17455:17473   */\n      add\n        /* \"#utility.yul\":17447:17473   */\n      swap1\n      pop\n        /* \"#utility.yul\":17519:17528   */\n      dup2\n        /* \"#utility.yul\":17513:17517   */\n      dup2\n        /* \"#utility.yul\":17509:17529   */\n      sub\n        /* \"#utility.yul\":17505:17506   */\n      0x00\n        /* \"#utility.yul\":17494:17503   */\n      dup4\n        /* \"#utility.yul\":17490:17507   */\n      add\n        /* \"#utility.yul\":17483:17530   */\n      mstore\n        /* \"#utility.yul\":17547:17678   */\n      tag_462\n        /* \"#utility.yul\":17673:17677   */\n      dup2\n        /* \"#utility.yul\":17547:17678   */\n      tag_285\n      jump\t// in\n    tag_462:\n        /* \"#utility.yul\":17539:17678   */\n      swap1\n      pop\n        /* \"#utility.yul\":17266:17685   */\n      swap2\n      swap1\n      pop\n      jump\t// out\n        /* \"#utility.yul\":17691:17871   */\n    tag_286:\n        /* \"#utility.yul\":17739:17816   */\n      0x4e487b7100000000000000000000000000000000000000000000000000000000\n        /* \"#utility.yul\":17736:17737   */\n      0x00\n        /* \"#utility.yul\":17729:17817   */\n      mstore\n        /* \"#utility.yul\":17836:17840   */\n      0x12\n        /* \"#utility.yul\":17833:17834   */\n      0x04\n        /* \"#utility.yul\":17826:17841   */\n      mstore\n        /* \"#utility.yul\":17860:17864   */\n      0x24\n        /* \"#utility.yul\":17857:17858   */\n      0x00\n        /* \"#utility.yul\":17850:17865   */\n      revert\n        /* \"#utility.yul\":17877:18057   */\n    tag_287:\n        /* \"#utility.yul\":17925:18002   */\n      0x4e487b7100000000000000000000000000000000000000000000000000000000\n        /* \"#utility.yul\":17922:17923   */\n      0x00\n        /* \"#utility.yul\":17915:18003   */\n      mstore\n        /* \"#utility.yul\":18022:18026   */\n      0x11\n        /* \"#utility.yul\":18019:18020   */\n      0x04\n        /* \"#utility.yul\":18012:18027   */\n      mstore\n        /* \"#utility.yul\":18046:18050   */\n      0x24\n        /* \"#utility.yul\":18043:18044   */\n      0x00\n        /* \"#utility.yul\":18036:18051   */\n      revert\n        /* \"#utility.yul\":18063:18248   */\n    tag_101:\n        /* \"#utility.yul\":18103:18104   */\n      0x00\n        /* \"#utility.yul\":18120:18140   */\n      tag_466\n        /* \"#utility.yul\":18138:18139   */\n      dup3\n        /* \"#utility.yul\":18120:18140   */\n      tag_242\n      jump\t// in\n    tag_466:\n        /* \"#utility.yul\":18115:18140   */\n      swap2\n      pop\n        /* \"#utility.yul\":18154:18174   */\n      tag_467\n        /* \"#utility.yul\":18172:18173   */\n      dup4\n        /* \"#utility.yul\":18154:18174   */\n      tag_242\n      jump\t// in\n    tag_467:\n        /* \"#utility.yul\":18149:18174   */\n      swap3\n      pop\n        /* \"#utility.yul\":18193:18194   */\n      dup3\n        /* \"#utility.yul\":18183:18218   */\n      tag_468\n      jumpi\n        /* \"#utility.yul\":18198:18216   */\n      tag_469\n      tag_286\n      jump\t// in\n    tag_469:\n        /* \"#utility.yul\":18183:18218   */\n    tag_468:\n        /* \"#utility.yul\":18240:18241   */\n      dup3\n        /* \"#utility.yul\":18237:18238   */\n      dup3\n        /* \"#utility.yul\":18233:18242   */\n      div\n        /* \"#utility.yul\":18228:18242   */\n      swap1\n      pop\n        /* \"#utility.yul\":18063:18248   */\n      swap3\n      swap2\n      pop\n      pop\n      jump\t// out\n        /* \"#utility.yul\":18254:18664   */\n    tag_103:\n        /* \"#utility.yul\":18294:18301   */\n      0x00\n        /* \"#utility.yul\":18317:18337   */\n      tag_471\n        /* \"#utility.yul\":18335:18336   */\n      dup3\n        /* \"#utility.yul\":18317:18337   */\n      tag_242\n      jump\t// in\n    tag_471:\n        /* \"#utility.yul\":18312:18337   */\n      swap2\n      pop\n        /* \"#utility.yul\":18351:18371   */\n      tag_472\n        /* \"#utility.yul\":18369:18370   */\n      dup4\n        /* \"#utility.yul\":18351:18371   */\n      tag_242\n      jump\t// in\n    tag_472:\n        /* \"#utility.yul\":18346:18371   */\n      swap3\n      pop\n        /* \"#utility.yul\":18406:18407   */\n      dup3\n        /* \"#utility.yul\":18403:18404   */\n      dup3\n        /* \"#utility.yul\":18399:18408   */\n      mul\n        /* \"#utility.yul\":18428:18458   */\n      tag_473\n        /* \"#utility.yul\":18446:18457   */\n      dup2\n        /* \"#utility.yul\":18428:18458   */\n      tag_242\n      jump\t// in\n    tag_473:\n        /* \"#utility.yul\":18417:18458   */\n      swap2\n      pop\n        /* \"#utility.yul\":18607:18608   */\n      dup3\n        /* \"#utility.yul\":18598:18605   */\n      dup3\n        /* \"#utility.yul\":18594:18609   */\n      div\n        /* \"#utility.yul\":18591:18592   */\n      dup5\n        /* \"#utility.yul\":18588:18610   */\n      eq\n        /* \"#utility.yul\":18568:18569   */\n      dup4\n        /* \"#utility.yul\":18561:18570   */\n      iszero\n        /* \"#utility.yul\":18541:18624   */\n      or\n        /* \"#utility.yul\":18518:18657   */\n      tag_474\n      jumpi\n        /* \"#utility.yul\":18637:18655   */\n      tag_475\n      tag_287\n      jump\t// in\n    tag_475:\n        /* \"#utility.yul\":18518:18657   */\n    tag_474:\n        /* \"#utility.yul\":18302:18664   */\n      pop\n        /* \"#utility.yul\":18254:18664   */\n      swap3\n      swap2\n      pop\n      pop\n      jump\t// out\n        /* \"#utility.yul\":18670:18847   */\n    tag_288:\n        /* \"#utility.yul\":18810:18839   */\n      0x4e6f7420656e6f7567682073636f726520746f20636f6e766572740000000000\n        /* \"#utility.yul\":18806:18807   */\n      0x00\n        /* \"#utility.yul\":18798:18804   */\n      dup3\n        /* \"#utility.yul\":18794:18808   */\n      add\n        /* \"#utility.yul\":18787:18840   */\n      mstore\n        /* \"#utility.yul\":18670:18847   */\n      pop\n      jump\t// out\n        /* \"#utility.yul\":18853:19219   */\n    tag_289:\n        /* \"#utility.yul\":18995:18998   */\n      0x00\n        /* \"#utility.yul\":19016:19083   */\n      tag_478\n        /* \"#utility.yul\":19080:19082   */\n      0x1b\n        /* \"#utility.yul\":19075:19078   */\n      dup4\n        /* \"#utility.yul\":19016:19083   */\n      tag_247\n      jump\t// in\n    tag_478:\n        /* \"#utility.yul\":19009:19083   */\n      swap2\n      pop\n        /* \"#utility.yul\":19092:19185   */\n      tag_479\n        /* \"#utility.yul\":19181:19184   */\n      dup3\n        /* \"#utility.yul\":19092:19185   */\n      tag_288\n      jump\t// in\n    tag_479:\n        /* \"#utility.yul\":19210:19212   */\n      0x20\n        /* \"#utility.yul\":19205:19208   */\n      dup3\n        /* \"#utility.yul\":19201:19213   */\n      add\n        /* \"#utility.yul\":19194:19213   */\n      swap1\n      pop\n        /* \"#utility.yul\":18853:19219   */\n      swap2\n      swap1\n      pop\n      jump\t// out\n        /* \"#utility.yul\":19225:19644   */\n    tag_106:\n        /* \"#utility.yul\":19391:19395   */\n      0x00\n        /* \"#utility.yul\":19429:19431   */\n      0x20\n        /* \"#utility.yul\":19418:19427   */\n      dup3\n        /* \"#utility.yul\":19414:19432   */\n      add\n        /* \"#utility.yul\":19406:19432   */\n      swap1\n      pop\n        /* \"#utility.yul\":19478:19487   */\n      dup2\n        /* \"#utility.yul\":19472:19476   */\n      dup2\n        /* \"#utility.yul\":19468:19488   */\n      sub\n        /* \"#utility.yul\":19464:19465   */\n      0x00\n        /* \"#utility.yul\":19453:19462   */\n      dup4\n        /* \"#utility.yul\":19449:19466   */\n      add\n        /* \"#utility.yul\":19442:19489   */\n      mstore\n        /* \"#utility.yul\":19506:19637   */\n      tag_481\n        /* \"#utility.yul\":19632:19636   */\n      dup2\n        /* \"#utility.yul\":19506:19637   */\n      tag_289\n      jump\t// in\n    tag_481:\n        /* \"#utility.yul\":19498:19637   */\n      swap1\n      pop\n        /* \"#utility.yul\":19225:19644   */\n      swap2\n      swap1\n      pop\n      jump\t// out\n        /* \"#utility.yul\":19650:19844   */\n    tag_122:\n        /* \"#utility.yul\":19690:19694   */\n      0x00\n        /* \"#utility.yul\":19710:19730   */\n      tag_483\n        /* \"#utility.yul\":19728:19729   */\n      dup3\n        /* \"#utility.yul\":19710:19730   */\n      tag_242\n      jump\t// in\n    tag_483:\n        /* \"#utility.yul\":19705:19730   */\n      swap2\n      pop\n        /* \"#utility.yul\":19744:19764   */\n      tag_484\n        /* \"#utility.yul\":19762:19763   */\n      dup4\n        /* \"#utility.yul\":19744:19764   */\n      tag_242\n      jump\t// in\n    tag_484:\n        /* \"#utility.yul\":19739:19764   */\n      swap3\n      pop\n        /* \"#utility.yul\":19788:19789   */\n      dup3\n        /* \"#utility.yul\":19785:19786   */\n      dup3\n        /* \"#utility.yul\":19781:19790   */\n      sub\n        /* \"#utility.yul\":19773:19790   */\n      swap1\n      pop\n        /* \"#utility.yul\":19812:19813   */\n      dup2\n        /* \"#utility.yul\":19806:19810   */\n      dup2\n        /* \"#utility.yul\":19803:19814   */\n      gt\n        /* \"#utility.yul\":19800:19837   */\n      iszero\n      tag_485\n      jumpi\n        /* \"#utility.yul\":19817:19835   */\n      tag_486\n      tag_287\n      jump\t// in\n    tag_486:\n        /* \"#utility.yul\":19800:19837   */\n    tag_485:\n        /* \"#utility.yul\":19650:19844   */\n      swap3\n      swap2\n      pop\n      pop\n      jump\t// out\n        /* \"#utility.yul\":19850:20014   */\n    tag_290:\n        /* \"#utility.yul\":19990:20006   */\n      0x416c726561647920696e20757365000000000000000000000000000000000000\n        /* \"#utility.yul\":19986:19987   */\n      0x00\n        /* \"#utility.yul\":19978:19984   */\n      dup3\n        /* \"#utility.yul\":19974:19988   */\n      add\n        /* \"#utility.yul\":19967:20007   */\n      mstore\n        /* \"#utility.yul\":19850:20014   */\n      pop\n      jump\t// out\n        /* \"#utility.yul\":20020:20386   */\n    tag_291:\n        /* \"#utility.yul\":20162:20165   */\n      0x00\n        /* \"#utility.yul\":20183:20250   */\n      tag_489\n        /* \"#utility.yul\":20247:20249   */\n      0x0e\n        /* \"#utility.yul\":20242:20245   */\n      dup4\n        /* \"#utility.yul\":20183:20250   */\n      tag_247\n      jump\t// in\n    tag_489:\n        /* \"#utility.yul\":20176:20250   */\n      swap2\n      pop\n        /* \"#utility.yul\":20259:20352   */\n      tag_490\n        /* \"#utility.yul\":20348:20351   */\n      dup3\n        /* \"#utility.yul\":20259:20352   */\n      tag_290\n      jump\t// in\n    tag_490:\n        /* \"#utility.yul\":20377:20379   */\n      0x20\n        /* \"#utility.yul\":20372:20375   */\n      dup3\n        /* \"#utility.yul\":20368:20380   */\n      add\n        /* \"#utility.yul\":20361:20380   */\n      swap1\n      pop\n        /* \"#utility.yul\":20020:20386   */\n      swap2\n      swap1\n      pop\n      jump\t// out\n        /* \"#utility.yul\":20392:20811   */\n    tag_137:\n        /* \"#utility.yul\":20558:20562   */\n      0x00\n        /* \"#utility.yul\":20596:20598   */\n      0x20\n        /* \"#utility.yul\":20585:20594   */\n      dup3\n        /* \"#utility.yul\":20581:20599   */\n      add\n        /* \"#utility.yul\":20573:20599   */\n      swap1\n      pop\n        /* \"#utility.yul\":20645:20654   */\n      dup2\n        /* \"#utility.yul\":20639:20643   */\n      dup2\n        /* \"#utility.yul\":20635:20655   */\n      sub\n        /* \"#utility.yul\":20631:20632   */\n      0x00\n        /* \"#utility.yul\":20620:20629   */\n      dup4\n        /* \"#utility.yul\":20616:20633   */\n      add\n        /* \"#utility.yul\":20609:20656   */\n      mstore\n        /* \"#utility.yul\":20673:20804   */\n      tag_492\n        /* \"#utility.yul\":20799:20803   */\n      dup2\n        /* \"#utility.yul\":20673:20804   */\n      tag_291\n      jump\t// in\n    tag_492:\n        /* \"#utility.yul\":20665:20804   */\n      swap1\n      pop\n        /* \"#utility.yul\":20392:20811   */\n      swap2\n      swap1\n      pop\n      jump\t// out\n        /* \"#utility.yul\":20817:20910   */\n    tag_292:\n        /* \"#utility.yul\":20854:20860   */\n      0x00\n        /* \"#utility.yul\":20901:20903   */\n      0x20\n        /* \"#utility.yul\":20896:20898   */\n      0x1f\n        /* \"#utility.yul\":20889:20894   */\n      dup4\n        /* \"#utility.yul\":20885:20899   */\n      add\n        /* \"#utility.yul\":20881:20904   */\n      div\n        /* \"#utility.yul\":20871:20904   */\n      swap1\n      pop\n        /* \"#utility.yul\":20817:20910   */\n      swap2\n      swap1\n      pop\n      jump\t// out\n        /* \"#utility.yul\":20916:21023   */\n    tag_293:\n        /* \"#utility.yul\":20960:20968   */\n      0x00\n        /* \"#utility.yul\":21010:21015   */\n      dup3\n        /* \"#utility.yul\":21004:21008   */\n      dup3\n        /* \"#utility.yul\":21000:21016   */\n      shl\n        /* \"#utility.yul\":20979:21016   */\n      swap1\n      pop\n        /* \"#utility.yul\":20916:21023   */\n      swap3\n      swap2\n      pop\n      pop\n      jump\t// out\n        /* \"#utility.yul\":21029:21422   */\n    tag_294:\n        /* \"#utility.yul\":21098:21104   */\n      0x00\n        /* \"#utility.yul\":21148:21149   */\n      0x08\n        /* \"#utility.yul\":21136:21146   */\n      dup4\n        /* \"#utility.yul\":21132:21150   */\n      mul\n        /* \"#utility.yul\":21171:21268   */\n      tag_496\n        /* \"#utility.yul\":21201:21267   */\n      0xffffffffffffffffffffffffffffffffffffffffffffffffffffffffffffffff\n        /* \"#utility.yul\":21190:21199   */\n      dup3\n        /* \"#utility.yul\":21171:21268   */\n      tag_293\n      jump\t// in\n    tag_496:\n        /* \"#utility.yul\":21289:21328   */\n      tag_497\n        /* \"#utility.yul\":21319:21327   */\n      dup7\n        /* \"#utility.yul\":21308:21317   */\n      dup4\n        /* \"#utility.yul\":21289:21328   */\n      tag_293\n      jump\t// in\n    tag_497:\n        /* \"#utility.yul\":21277:21328   */\n      swap6\n      pop\n        /* \"#utility.yul\":21361:21365   */\n      dup1\n        /* \"#utility.yul\":21357:21366   */\n      not\n        /* \"#utility.yul\":21350:21355   */\n      dup5\n        /* \"#utility.yul\":21346:21367   */\n      and\n        /* \"#utility.yul\":21337:21367   */\n      swap4\n      pop\n        /* \"#utility.yul\":21410:21414   */\n      dup1\n        /* \"#utility.yul\":21400:21408   */\n      dup7\n        /* \"#utility.yul\":21396:21415   */\n      and\n        /* \"#utility.yul\":21389:21394   */\n      dup5\n        /* \"#utility.yul\":21386:21416   */\n      or\n        /* \"#utility.yul\":21376:21416   */\n      swap3\n      pop\n        /* \"#utility.yul\":21105:21422   */\n      pop\n      pop\n        /* \"#utility.yul\":21029:21422   */\n      swap4\n      swap3\n      pop\n      pop\n      pop\n      jump\t// out\n        /* \"#utility.yul\":21428:21488   */\n    tag_295:\n        /* \"#utility.yul\":21456:21459   */\n      0x00\n        /* \"#utility.yul\":21477:21482   */\n      dup2\n        /* \"#utility.yul\":21470:21482   */\n      swap1\n      pop\n        /* \"#utility.yul\":21428:21488   */\n      swap2\n      swap1\n      pop\n      jump\t// out\n        /* \"#utility.yul\":21494:21636   */\n    tag_296:\n        /* \"#utility.yul\":21544:21553   */\n      0x00\n        /* \"#utility.yul\":21577:21630   */\n      tag_500\n        /* \"#utility.yul\":21595:21629   */\n      tag_501\n        /* \"#utility.yul\":21604:21628   */\n      tag_502\n        /* \"#utility.yul\":21622:21627   */\n      dup5\n        /* \"#utility.yul\":21604:21628   */\n      tag_242\n      jump\t// in\n    tag_502:\n        /* \"#utility.yul\":21595:21629   */\n      tag_295\n      jump\t// in\n    tag_501:\n        /* \"#utility.yul\":21577:21630   */\n      tag_242\n      jump\t// in\n    tag_500:\n        /* \"#utility.yul\":21564:21630   */\n      swap1\n      pop\n        /* \"#utility.yul\":21494:21636   */\n      swap2\n      swap1\n      pop\n      jump\t// out\n        /* \"#utility.yul\":21642:21717   */\n    tag_297:\n        /* \"#utility.yul\":21685:21688   */\n      0x00\n        /* \"#utility.yul\":21706:21711   */\n      dup2\n        /* \"#utility.yul\":21699:21711   */\n      swap1\n      pop\n        /* \"#utility.yul\":21642:21717   */\n      swap2\n      swap1\n      pop\n      jump\t// out\n        /* \"#utility.yul\":21723:21992   */\n    tag_298:\n        /* \"#utility.yul\":21833:21872   */\n      tag_505\n        /* \"#utility.yul\":21864:21871   */\n      dup4\n        /* \"#utility.yul\":21833:21872   */\n      tag_296\n      jump\t// in\n    tag_505:\n        /* \"#utility.yul\":21894:21985   */\n      tag_506\n        /* \"#utility.yul\":21943:21984   */\n      tag_507\n        /* \"#utility.yul\":21967:21983   */\n      dup3\n        /* \"#utility.yul\":21943:21984   */\n      tag_297\n      jump\t// in\n    tag_507:\n        /* \"#utility.yul\":21935:21941   */\n      dup5\n        /* \"#utility.yul\":21928:21932   */\n      dup5\n        /* \"#utility.yul\":21922:21933   */\n      sload\n        /* \"#utility.yul\":21894:21985   */\n      tag_294\n      jump\t// in\n    tag_506:\n        /* \"#utility.yul\":21888:21892   */\n      dup3\n        /* \"#utility.yul\":21881:21986   */\n      sstore\n        /* \"#utility.yul\":21799:21992   */\n      pop\n        /* \"#utility.yul\":21723:21992   */\n      pop\n      pop\n      pop\n      jump\t// out\n        /* \"#utility.yul\":21998:22071   */\n    tag_299:\n        /* \"#utility.yul\":22043:22046   */\n      0x00\n        /* \"#utility.yul\":21998:22071   */\n      swap1\n      jump\t// out\n        /* \"#utility.yul\":22077:22266   */\n    tag_300:\n        /* \"#utility.yul\":22154:22186   */\n      tag_510\n      tag_299\n      jump\t// in\n    tag_510:\n        /* \"#utility.yul\":22195:22260   */\n      tag_511\n        /* \"#utility.yul\":22253:22259   */\n      dup2\n        /* \"#utility.yul\":22245:22251   */\n      dup5\n        /* \"#utility.yul\":22239:22243   */\n      dup5\n        /* \"#utility.yul\":22195:22260   */\n      tag_298\n      jump\t// in\n    tag_511:\n        /* \"#utility.yul\":22130:22266   */\n      pop\n        /* \"#utility.yul\":22077:22266   */\n      pop\n      pop\n      jump\t// out\n        /* \"#utility.yul\":22272:22458   */\n    tag_301:\n        /* \"#utility.yul\":22332:22452   */\n    tag_513:\n        /* \"#utility.yul\":22349:22352   */\n      dup2\n        /* \"#utility.yul\":22342:22347   */\n      dup2\n        /* \"#utility.yul\":22339:22353   */\n      lt\n        /* \"#utility.yul\":22332:22452   */\n      iszero\n      tag_515\n      jumpi\n        /* \"#utility.yul\":22403:22442   */\n      tag_516\n        /* \"#utility.yul\":22440:22441   */\n      0x00\n        /* \"#utility.yul\":22433:22438   */\n      dup3\n        /* \"#utility.yul\":22403:22442   */\n      tag_300\n      jump\t// in\n    tag_516:\n        /* \"#utility.yul\":22376:22377   */\n      0x01\n        /* \"#utility.yul\":22369:22374   */\n      dup2\n        /* \"#utility.yul\":22365:22378   */\n      add\n        /* \"#utility.yul\":22356:22378   */\n      swap1\n      pop\n        /* \"#utility.yul\":22332:22452   */\n      jump(tag_513)\n    tag_515:\n        /* \"#utility.yul\":22272:22458   */\n      pop\n      pop\n      jump\t// out\n        /* \"#utility.yul\":22464:23007   */\n    tag_302:\n        /* \"#utility.yul\":22565:22567   */\n      0x1f\n        /* \"#utility.yul\":22560:22563   */\n      dup3\n        /* \"#utility.yul\":22557:22568   */\n      gt\n        /* \"#utility.yul\":22554:23000   */\n      iszero\n      tag_518\n      jumpi\n        /* \"#utility.yul\":22599:22637   */\n      tag_519\n        /* \"#utility.yul\":22631:22636   */\n      dup2\n        /* \"#utility.yul\":22599:22637   */\n      tag_282\n      jump\t// in\n    tag_519:\n        /* \"#utility.yul\":22683:22712   */\n      tag_520\n        /* \"#utility.yul\":22701:22711   */\n      dup5\n        /* \"#utility.yul\":22683:22712   */\n      tag_292\n      jump\t// in\n    tag_520:\n        /* \"#utility.yul\":22673:22681   */\n      dup2\n        /* \"#utility.yul\":22669:22713   */\n      add\n        /* \"#utility.yul\":22866:22868   */\n      0x20\n        /* \"#utility.yul\":22854:22864   */\n      dup6\n        /* \"#utility.yul\":22851:22869   */\n      lt\n        /* \"#utility.yul\":22848:22897   */\n      iszero\n      tag_521\n      jumpi\n        /* \"#utility.yul\":22887:22895   */\n      dup2\n        /* \"#utility.yul\":22872:22895   */\n      swap1\n      pop\n        /* \"#utility.yul\":22848:22897   */\n    tag_521:\n        /* \"#utility.yul\":22910:22990   */\n      tag_522\n        /* \"#utility.yul\":22966:22988   */\n      tag_523\n        /* \"#utility.yul\":22984:22987   */\n      dup6\n        /* \"#utility.yul\":22966:22988   */\n      tag_292\n      jump\t// in\n    tag_523:\n        /* \"#utility.yul\":22956:22964   */\n      dup4\n        /* \"#utility.yul\":22952:22989   */\n      add\n        /* \"#utility.yul\":22939:22950   */\n      dup3\n        /* \"#utility.yul\":22910:22990   */\n      tag_301\n      jump\t// in\n    tag_522:\n        /* \"#utility.yul\":22569:23000   */\n      pop\n      pop\n        /* \"#utility.yul\":22554:23000   */\n    tag_518:\n        /* \"#utility.yul\":22464:23007   */\n      pop\n      pop\n      pop\n      jump\t// out\n        /* \"#utility.yul\":23013:23130   */\n    tag_303:\n        /* \"#utility.yul\":23067:23075   */\n      0x00\n        /* \"#utility.yul\":23117:23122   */\n      dup3\n        /* \"#utility.yul\":23111:23115   */\n      dup3\n        /* \"#utility.yul\":23107:23123   */\n      shr\n        /* \"#utility.yul\":23086:23123   */\n      swap1\n      pop\n        /* \"#utility.yul\":23013:23130   */\n      swap3\n      swap2\n      pop\n      pop\n      jump\t// out\n        /* \"#utility.yul\":23136:23305   */\n    tag_304:\n        /* \"#utility.yul\":23180:23186   */\n      0x00\n        /* \"#utility.yul\":23213:23264   */\n      tag_526\n        /* \"#utility.yul\":23261:23262   */\n      0x00\n        /* \"#utility.yul\":23257:23263   */\n      not\n        /* \"#utility.yul\":23249:23254   */\n      dup5\n        /* \"#utility.yul\":23246:23247   */\n      0x08\n        /* \"#utility.yul\":23242:23255   */\n      mul\n        /* \"#utility.yul\":23213:23264   */\n      tag_303\n      jump\t// in\n    tag_526:\n        /* \"#utility.yul\":23209:23265   */\n      not\n        /* \"#utility.yul\":23294:23298   */\n      dup1\n        /* \"#utility.yul\":23288:23292   */\n      dup4\n        /* \"#utility.yul\":23284:23299   */\n      and\n        /* \"#utility.yul\":23274:23299   */\n      swap2\n      pop\n        /* \"#utility.yul\":23187:23305   */\n      pop\n        /* \"#utility.yul\":23136:23305   */\n      swap3\n      swap2\n      pop\n      pop\n      jump\t// out\n        /* \"#utility.yul\":23310:23605   */\n    tag_305:\n        /* \"#utility.yul\":23386:23390   */\n      0x00\n        /* \"#utility.yul\":23532:23561   */\n      tag_528\n        /* \"#utility.yul\":23557:23560   */\n      dup4\n        /* \"#utility.yul\":23551:23555   */\n      dup4\n        /* \"#utility.yul\":23532:23561   */\n      tag_304\n      jump\t// in\n    tag_528:\n        /* \"#utility.yul\":23524:23561   */\n      swap2\n      pop\n        /* \"#utility.yul\":23594:23597   */\n      dup3\n        /* \"#utility.yul\":23591:23592   */\n      0x02\n        /* \"#utility.yul\":23587:23598   */\n      mul\n        /* \"#utility.yul\":23581:23585   */\n      dup3\n        /* \"#utility.yul\":23578:23599   */\n      or\n        /* \"#utility.yul\":23570:23599   */\n      swap1\n      pop\n        /* \"#utility.yul\":23310:23605   */\n      swap3\n      swap2\n      pop\n      pop\n      jump\t// out\n        /* \"#utility.yul\":23610:25005   */\n    tag_140:\n        /* \"#utility.yul\":23727:23764   */\n      tag_530\n        /* \"#utility.yul\":23760:23763   */\n      dup3\n        /* \"#utility.yul\":23727:23764   */\n      tag_246\n      jump\t// in\n    tag_530:\n        /* \"#utility.yul\":23829:23847   */\n      0xffffffffffffffff\n        /* \"#utility.yul\":23821:23827   */\n      dup2\n        /* \"#utility.yul\":23818:23848   */\n      gt\n        /* \"#utility.yul\":23815:23871   */\n      iszero\n      tag_531\n      jumpi\n        /* \"#utility.yul\":23851:23869   */\n      tag_532\n      tag_256\n      jump\t// in\n    tag_532:\n        /* \"#utility.yul\":23815:23871   */\n    tag_531:\n        /* \"#utility.yul\":23895:23933   */\n      tag_533\n        /* \"#utility.yul\":23927:23931   */\n      dup3\n        /* \"#utility.yul\":23921:23932   */\n      sload\n        /* \"#utility.yul\":23895:23933   */\n      tag_68\n      jump\t// in\n    tag_533:\n        /* \"#utility.yul\":23980:24047   */\n      tag_534\n        /* \"#utility.yul\":24040:24046   */\n      dup3\n        /* \"#utility.yul\":24032:24038   */\n      dup3\n        /* \"#utility.yul\":24026:24030   */\n      dup6\n        /* \"#utility.yul\":23980:24047   */\n      tag_302\n      jump\t// in\n    tag_534:\n        /* \"#utility.yul\":24074:24075   */\n      0x00\n        /* \"#utility.yul\":24098:24102   */\n      0x20\n        /* \"#utility.yul\":24085:24102   */\n      swap1\n      pop\n        /* \"#utility.yul\":24130:24132   */\n      0x1f\n        /* \"#utility.yul\":24122:24128   */\n      dup4\n        /* \"#utility.yul\":24119:24133   */\n      gt\n        /* \"#utility.yul\":24147:24148   */\n      0x01\n        /* \"#utility.yul\":24142:24760   */\n      dup2\n      eq\n      tag_536\n      jumpi\n        /* \"#utility.yul\":24804:24805   */\n      0x00\n        /* \"#utility.yul\":24821:24827   */\n      dup5\n        /* \"#utility.yul\":24818:24895   */\n      iszero\n      tag_537\n      jumpi\n        /* \"#utility.yul\":24870:24879   */\n      dup3\n        /* \"#utility.yul\":24865:24868   */\n      dup8\n        /* \"#utility.yul\":24861:24880   */\n      add\n        /* \"#utility.yul\":24855:24881   */\n      mload\n        /* \"#utility.yul\":24846:24881   */\n      swap1\n      pop\n        /* \"#utility.yul\":24818:24895   */\n    tag_537:\n        /* \"#utility.yul\":24921:24988   */\n      tag_538\n        /* \"#utility.yul\":24981:24987   */\n      dup6\n        /* \"#utility.yul\":24974:24979   */\n      dup3\n        /* \"#utility.yul\":24921:24988   */\n      tag_305\n      jump\t// in\n    tag_538:\n        /* \"#utility.yul\":24915:24919   */\n      dup7\n        /* \"#utility.yul\":24908:24989   */\n      sstore\n        /* \"#utility.yul\":24777:24999   */\n      pop\n        /* \"#utility.yul\":24112:24999   */\n      jump(tag_535)\n        /* \"#utility.yul\":24142:24760   */\n    tag_536:\n        /* \"#utility.yul\":24194:24198   */\n      0x1f\n        /* \"#utility.yul\":24190:24199   */\n      not\n        /* \"#utility.yul\":24182:24188   */\n      dup5\n        /* \"#utility.yul\":24178:24200   */\n      and\n        /* \"#utility.yul\":24228:24265   */\n      tag_539\n        /* \"#utility.yul\":24260:24264   */\n      dup7\n        /* \"#utility.yul\":24228:24265   */\n      tag_282\n      jump\t// in\n    tag_539:\n        /* \"#utility.yul\":24287:24288   */\n      0x00\n        /* \"#utility.yul\":24301:24509   */\n    tag_540:\n        /* \"#utility.yul\":24315:24322   */\n      dup3\n        /* \"#utility.yul\":24312:24313   */\n      dup2\n        /* \"#utility.yul\":24309:24323   */\n      lt\n        /* \"#utility.yul\":24301:24509   */\n      iszero\n      tag_542\n      jumpi\n        /* \"#utility.yul\":24394:24403   */\n      dup5\n        /* \"#utility.yul\":24389:24392   */\n      dup10\n        /* \"#utility.yul\":24385:24404   */\n      add\n        /* \"#utility.yul\":24379:24405   */\n      mload\n        /* \"#utility.yul\":24371:24377   */\n      dup3\n        /* \"#utility.yul\":24364:24406   */\n      sstore\n        /* \"#utility.yul\":24445:24446   */\n      0x01\n        /* \"#utility.yul\":24437:24443   */\n      dup3\n        /* \"#utility.yul\":24433:24447   */\n      add\n        /* \"#utility.yul\":24423:24447   */\n      swap2\n      pop\n        /* \"#utility.yul\":24492:24494   */\n      0x20\n        /* \"#utility.yul\":24481:24490   */\n      dup6\n        /* \"#utility.yul\":24477:24495   */\n      add\n        /* \"#utility.yul\":24464:24495   */\n      swap5\n      pop\n        /* \"#utility.yul\":24338:24342   */\n      0x20\n        /* \"#utility.yul\":24335:24336   */\n      dup2\n        /* \"#utility.yul\":24331:24343   */\n      add\n        /* \"#utility.yul\":24326:24343   */\n      swap1\n      pop\n        /* \"#utility.yul\":24301:24509   */\n      jump(tag_540)\n    tag_542:\n        /* \"#utility.yul\":24537:24543   */\n      dup7\n        /* \"#utility.yul\":24528:24535   */\n      dup4\n        /* \"#utility.yul\":24525:24544   */\n      lt\n        /* \"#utility.yul\":24522:24701   */\n      iszero\n      tag_543\n      jumpi\n        /* \"#utility.yul\":24595:24604   */\n      dup5\n        /* \"#utility.yul\":24590:24593   */\n      dup10\n        /* \"#utility.yul\":24586:24605   */\n      add\n        /* \"#utility.yul\":24580:24606   */\n      mload\n        /* \"#utility.yul\":24638:24686   */\n      tag_544\n        /* \"#utility.yul\":24680:24684   */\n      0x1f\n        /* \"#utility.yul\":24672:24678   */\n      dup10\n        /* \"#utility.yul\":24668:24685   */\n      and\n        /* \"#utility.yul\":24657:24666   */\n      dup3\n        /* \"#utility.yul\":24638:24686   */\n      tag_304\n      jump\t// in\n    tag_544:\n        /* \"#utility.yul\":24630:24636   */\n      dup4\n        /* \"#utility.yul\":24623:24687   */\n      sstore\n        /* \"#utility.yul\":24545:24701   */\n      pop\n        /* \"#utility.yul\":24522:24701   */\n    tag_543:\n        /* \"#utility.yul\":24747:24748   */\n      0x01\n        /* \"#utility.yul\":24743:24744   */\n      0x02\n        /* \"#utility.yul\":24735:24741   */\n      dup9\n        /* \"#utility.yul\":24731:24745   */\n      mul\n        /* \"#utility.yul\":24727:24749   */\n      add\n        /* \"#utility.yul\":24721:24725   */\n      dup9\n        /* \"#utility.yul\":24714:24750   */\n      sstore\n        /* \"#utility.yul\":24149:24760   */\n      pop\n      pop\n      pop\n        /* \"#utility.yul\":24112:24999   */\n    tag_535:\n      pop\n        /* \"#utility.yul\":23702:25005   */\n      pop\n      pop\n      pop\n        /* \"#utility.yul\":23610:25005   */\n      pop\n      pop\n      jump\t// out\n        /* \"#utility.yul\":25011:25244   */\n    tag_142:\n        /* \"#utility.yul\":25050:25053   */\n      0x00\n        /* \"#utility.yul\":25073:25097   */\n      tag_546\n        /* \"#utility.yul\":25091:25096   */\n      dup3\n        /* \"#utility.yul\":25073:25097   */\n      tag_242\n      jump\t// in\n    tag_546:\n        /* \"#utility.yul\":25064:25097   */\n      swap2\n      pop\n        /* \"#utility.yul\":25119:25185   */\n      0xffffffffffffffffffffffffffffffffffffffffffffffffffffffffffffffff\n        /* \"#utility.yul\":25112:25117   */\n      dup3\n        /* \"#utility.yul\":25109:25186   */\n      sub\n        /* \"#utility.yul\":25106:25209   */\n      tag_547\n      jumpi\n        /* \"#utility.yul\":25189:25207   */\n      tag_548\n      tag_287\n      jump\t// in\n    tag_548:\n        /* \"#utility.yul\":25106:25209   */\n    tag_547:\n        /* \"#utility.yul\":25236:25237   */\n      0x01\n        /* \"#utility.yul\":25229:25234   */\n      dup3\n        /* \"#utility.yul\":25225:25238   */\n      add\n        /* \"#utility.yul\":25218:25238   */\n      swap1\n      pop\n        /* \"#utility.yul\":25011:25244   */\n      swap2\n      swap1\n      pop\n      jump\t// out\n        /* \"#utility.yul\":25250:25418   */\n    tag_306:\n        /* \"#utility.yul\":25390:25410   */\n      0x4e6f7420656e6f756768206465706f7369740000000000000000000000000000\n        /* \"#utility.yul\":25386:25387   */\n      0x00\n        /* \"#utility.yul\":25378:25384   */\n      dup3\n        /* \"#utility.yul\":25374:25388   */\n      add\n        /* \"#utility.yul\":25367:25411   */\n      mstore\n        /* \"#utility.yul\":25250:25418   */\n      pop\n      jump\t// out\n        /* \"#utility.yul\":25424:25790   */\n    tag_307:\n        /* \"#utility.yul\":25566:25569   */\n      0x00\n        /* \"#utility.yul\":25587:25654   */\n      tag_551\n        /* \"#utility.yul\":25651:25653   */\n      0x12\n        /* \"#utility.yul\":25646:25649   */\n      dup4\n        /* \"#utility.yul\":25587:25654   */\n      tag_247\n      jump\t// in\n    tag_551:\n        /* \"#utility.yul\":25580:25654   */\n      swap2\n      pop\n        /* \"#utility.yul\":25663:25756   */\n      tag_552\n        /* \"#utility.yul\":25752:25755   */\n      dup3\n        /* \"#utility.yul\":25663:25756   */\n      tag_306\n      jump\t// in\n    tag_552:\n        /* \"#utility.yul\":25781:25783   */\n      0x20\n        /* \"#utility.yul\":25776:25779   */\n      dup3\n        /* \"#utility.yul\":25772:25784   */\n      add\n        /* \"#utility.yul\":25765:25784   */\n      swap1\n      pop\n        /* \"#utility.yul\":25424:25790   */\n      swap2\n      swap1\n      pop\n      jump\t// out\n        /* \"#utility.yul\":25796:26215   */\n    tag_157:\n        /* \"#utility.yul\":25962:25966   */\n      0x00\n        /* \"#utility.yul\":26000:26002   */\n      0x20\n        /* \"#utility.yul\":25989:25998   */\n      dup3\n        /* \"#utility.yul\":25985:26003   */\n      add\n        /* \"#utility.yul\":25977:26003   */\n      swap1\n      pop\n        /* \"#utility.yul\":26049:26058   */\n      dup2\n        /* \"#utility.yul\":26043:26047   */\n      dup2\n        /* \"#utility.yul\":26039:26059   */\n      sub\n        /* \"#utility.yul\":26035:26036   */\n      0x00\n        /* \"#utility.yul\":26024:26033   */\n      dup4\n        /* \"#utility.yul\":26020:26037   */\n      add\n        /* \"#utility.yul\":26013:26060   */\n      mstore\n        /* \"#utility.yul\":26077:26208   */\n      tag_554\n        /* \"#utility.yul\":26203:26207   */\n      dup2\n        /* \"#utility.yul\":26077:26208   */\n      tag_307\n      jump\t// in\n    tag_554:\n        /* \"#utility.yul\":26069:26208   */\n      swap1\n      pop\n        /* \"#utility.yul\":25796:26215   */\n      swap2\n      swap1\n      pop\n      jump\t// out\n        /* \"#utility.yul\":26221:26370   */\n    tag_308:\n        /* \"#utility.yul\":26270:26276   */\n      0x00\n        /* \"#utility.yul\":26304:26309   */\n      dup2\n        /* \"#utility.yul\":26298:26310   */\n      sload\n        /* \"#utility.yul\":26288:26310   */\n      swap1\n      pop\n        /* \"#utility.yul\":26330:26363   */\n      tag_556\n        /* \"#utility.yul\":26356:26362   */\n      dup2\n        /* \"#utility.yul\":26330:26363   */\n      tag_68\n      jump\t// in\n    tag_556:\n        /* \"#utility.yul\":26320:26363   */\n      swap1\n      pop\n        /* \"#utility.yul\":26221:26370   */\n      swap2\n      swap1\n      pop\n      jump\t// out\n        /* \"#utility.yul\":26376:27827   */\n    tag_169:\n        /* \"#utility.yul\":26487:26490   */\n      dup2\n        /* \"#utility.yul\":26481:26485   */\n      dup2\n        /* \"#utility.yul\":26478:26491   */\n      sub\n        /* \"#utility.yul\":26475:26501   */\n      tag_558\n      jumpi\n        /* \"#utility.yul\":26494:26499   */\n      pop\n      pop\n      jump(tag_557)\n        /* \"#utility.yul\":26475:26501   */\n    tag_558:\n        /* \"#utility.yul\":26525:26559   */\n      tag_559\n        /* \"#utility.yul\":26555:26558   */\n      dup3\n        /* \"#utility.yul\":26525:26559   */\n      tag_308\n      jump\t// in\n    tag_559:\n        /* \"#utility.yul\":26624:26642   */\n      0xffffffffffffffff\n        /* \"#utility.yul\":26616:26622   */\n      dup2\n        /* \"#utility.yul\":26613:26643   */\n      gt\n        /* \"#utility.yul\":26610:26666   */\n      iszero\n      tag_560\n      jumpi\n        /* \"#utility.yul\":26646:26664   */\n      tag_561\n      tag_256\n      jump\t// in\n    tag_561:\n        /* \"#utility.yul\":26610:26666   */\n    tag_560:\n        /* \"#utility.yul\":26690:26728   */\n      tag_562\n        /* \"#utility.yul\":26722:26726   */\n      dup3\n        /* \"#utility.yul\":26716:26727   */\n      sload\n        /* \"#utility.yul\":26690:26728   */\n      tag_68\n      jump\t// in\n    tag_562:\n        /* \"#utility.yul\":26775:26842   */\n      tag_563\n        /* \"#utility.yul\":26835:26841   */\n      dup3\n        /* \"#utility.yul\":26827:26833   */\n      dup3\n        /* \"#utility.yul\":26821:26825   */\n      dup6\n        /* \"#utility.yul\":26775:26842   */\n      tag_302\n      jump\t// in\n    tag_563:\n        /* \"#utility.yul\":26869:26870   */\n      0x00\n        /* \"#utility.yul\":26898:26900   */\n      0x1f\n        /* \"#utility.yul\":26890:26896   */\n      dup4\n        /* \"#utility.yul\":26887:26901   */\n      gt\n        /* \"#utility.yul\":26915:26916   */\n      0x01\n        /* \"#utility.yul\":26910:27582   */\n      dup2\n      eq\n      tag_565\n      jumpi\n        /* \"#utility.yul\":27626:27627   */\n      0x00\n        /* \"#utility.yul\":27643:27649   */\n      dup5\n        /* \"#utility.yul\":27640:27717   */\n      iszero\n      tag_566\n      jumpi\n        /* \"#utility.yul\":27692:27701   */\n      dup3\n        /* \"#utility.yul\":27687:27690   */\n      dup8\n        /* \"#utility.yul\":27683:27702   */\n      add\n        /* \"#utility.yul\":27677:27703   */\n      sload\n        /* \"#utility.yul\":27668:27703   */\n      swap1\n      pop\n        /* \"#utility.yul\":27640:27717   */\n    tag_566:\n        /* \"#utility.yul\":27743:27810   */\n      tag_567\n        /* \"#utility.yul\":27803:27809   */\n      dup6\n        /* \"#utility.yul\":27796:27801   */\n      dup3\n        /* \"#utility.yul\":27743:27810   */\n      tag_305\n      jump\t// in\n    tag_567:\n        /* \"#utility.yul\":27737:27741   */\n      dup7\n        /* \"#utility.yul\":27730:27811   */\n      sstore\n        /* \"#utility.yul\":27599:27821   */\n      pop\n        /* \"#utility.yul\":26880:27821   */\n      jump(tag_564)\n        /* \"#utility.yul\":26910:27582   */\n    tag_565:\n        /* \"#utility.yul\":26962:26966   */\n      0x1f\n        /* \"#utility.yul\":26958:26967   */\n      not\n        /* \"#utility.yul\":26950:26956   */\n      dup5\n        /* \"#utility.yul\":26946:26968   */\n      and\n        /* \"#utility.yul\":26988:27024   */\n      tag_568\n        /* \"#utility.yul\":27020:27023   */\n      dup8\n        /* \"#utility.yul\":26988:27024   */\n      tag_282\n      jump\t// in\n    tag_568:\n        /* \"#utility.yul\":26981:27024   */\n      swap7\n      pop\n        /* \"#utility.yul\":27051:27088   */\n      tag_569\n        /* \"#utility.yul\":27083:27087   */\n      dup7\n        /* \"#utility.yul\":27051:27088   */\n      tag_282\n      jump\t// in\n    tag_569:\n        /* \"#utility.yul\":27110:27111   */\n      0x00\n        /* \"#utility.yul\":27124:27331   */\n    tag_570:\n        /* \"#utility.yul\":27138:27145   */\n      dup3\n        /* \"#utility.yul\":27135:27136   */\n      dup2\n        /* \"#utility.yul\":27132:27146   */\n      lt\n        /* \"#utility.yul\":27124:27331   */\n      iszero\n      tag_572\n      jumpi\n        /* \"#utility.yul\":27217:27226   */\n      dup5\n        /* \"#utility.yul\":27212:27215   */\n      dup10\n        /* \"#utility.yul\":27208:27227   */\n      add\n        /* \"#utility.yul\":27202:27228   */\n      sload\n        /* \"#utility.yul\":27194:27200   */\n      dup3\n        /* \"#utility.yul\":27187:27229   */\n      sstore\n        /* \"#utility.yul\":27268:27269   */\n      0x01\n        /* \"#utility.yul\":27260:27266   */\n      dup3\n        /* \"#utility.yul\":27256:27270   */\n      add\n        /* \"#utility.yul\":27246:27270   */\n      swap2\n      pop\n        /* \"#utility.yul\":27315:27316   */\n      0x01\n        /* \"#utility.yul\":27304:27313   */\n      dup6\n        /* \"#utility.yul\":27300:27317   */\n      add\n        /* \"#utility.yul\":27287:27317   */\n      swap5\n      pop\n        /* \"#utility.yul\":27161:27165   */\n      0x20\n        /* \"#utility.yul\":27158:27159   */\n      dup2\n        /* \"#utility.yul\":27154:27166   */\n      add\n        /* \"#utility.yul\":27149:27166   */\n      swap1\n      pop\n        /* \"#utility.yul\":27124:27331   */\n      jump(tag_570)\n    tag_572:\n        /* \"#utility.yul\":27359:27365   */\n      dup7\n        /* \"#utility.yul\":27350:27357   */\n      dup4\n        /* \"#utility.yul\":27347:27366   */\n      lt\n        /* \"#utility.yul\":27344:27523   */\n      iszero\n      tag_573\n      jumpi\n        /* \"#utility.yul\":27417:27426   */\n      dup5\n        /* \"#utility.yul\":27412:27415   */\n      dup10\n        /* \"#utility.yul\":27408:27427   */\n      add\n        /* \"#utility.yul\":27402:27428   */\n      sload\n        /* \"#utility.yul\":27460:27508   */\n      tag_574\n        /* \"#utility.yul\":27502:27506   */\n      0x1f\n        /* \"#utility.yul\":27494:27500   */\n      dup10\n        /* \"#utility.yul\":27490:27507   */\n      and\n        /* \"#utility.yul\":27479:27488   */\n      dup3\n        /* \"#utility.yul\":27460:27508   */\n      tag_304\n      jump\t// in\n    tag_574:\n        /* \"#utility.yul\":27452:27458   */\n      dup4\n        /* \"#utility.yul\":27445:27509   */\n      sstore\n        /* \"#utility.yul\":27367:27523   */\n      pop\n        /* \"#utility.yul\":27344:27523   */\n    tag_573:\n        /* \"#utility.yul\":27569:27570   */\n      0x01\n        /* \"#utility.yul\":27565:27566   */\n      0x02\n        /* \"#utility.yul\":27557:27563   */\n      dup9\n        /* \"#utility.yul\":27553:27567   */\n      mul\n        /* \"#utility.yul\":27549:27571   */\n      add\n        /* \"#utility.yul\":27543:27547   */\n      dup9\n        /* \"#utility.yul\":27536:27572   */\n      sstore\n        /* \"#utility.yul\":26917:27582   */\n      pop\n      pop\n      pop\n        /* \"#utility.yul\":26880:27821   */\n    tag_564:\n      pop\n        /* \"#utility.yul\":26465:27827   */\n      pop\n      pop\n      pop\n        /* \"#utility.yul\":26376:27827   */\n      pop\n      pop\n    tag_557:\n      jump\t// out\n        /* \"#utility.yul\":27833:28024   */\n    tag_200:\n        /* \"#utility.yul\":27873:27876   */\n      0x00\n        /* \"#utility.yul\":27892:27912   */\n      tag_576\n        /* \"#utility.yul\":27910:27911   */\n      dup3\n        /* \"#utility.yul\":27892:27912   */\n      tag_242\n      jump\t// in\n    tag_576:\n        /* \"#utility.yul\":27887:27912   */\n      swap2\n      pop\n        /* \"#utility.yul\":27926:27946   */\n      tag_577\n        /* \"#utility.yul\":27944:27945   */\n      dup4\n        /* \"#utility.yul\":27926:27946   */\n      tag_242\n      jump\t// in\n    tag_577:\n        /* \"#utility.yul\":27921:27946   */\n      swap3\n      pop\n        /* \"#utility.yul\":27969:27970   */\n      dup3\n        /* \"#utility.yul\":27966:27967   */\n      dup3\n        /* \"#utility.yul\":27962:27971   */\n      add\n        /* \"#utility.yul\":27955:27971   */\n      swap1\n      pop\n        /* \"#utility.yul\":27990:27993   */\n      dup1\n        /* \"#utility.yul\":27987:27988   */\n      dup3\n        /* \"#utility.yul\":27984:27994   */\n      gt\n        /* \"#utility.yul\":27981:28017   */\n      iszero\n      tag_578\n      jumpi\n        /* \"#utility.yul\":27997:28015   */\n      tag_579\n      tag_287\n      jump\t// in\n    tag_579:\n        /* \"#utility.yul\":27981:28017   */\n    tag_578:\n        /* \"#utility.yul\":27833:28024   */\n      swap3\n      swap2\n      pop\n      pop\n      jump\t// out\n\n    auxdata: 0xa264697066735822122064d24aba44ea8b96723fb176f37e923c9566abce0de8744f1b24fdf08e171d7964736f6c634300081a0033\n}\n",
				"bytecode": {
					"linkReferences": {},
					"object": "608060405260016015555f6016553480156017575f80fd5b503360175f6101000a81548173ffffffffffffffffffffffffffffffffffffffff021916908373ffffffffffffffffffffffffffffffffffffffff160217905550611fa2806100655f395ff3fe608060405260043610610085575f3560e01c80636f9fb98a116100585780636f9fb98a14610155578063704f1b941461017f5780639e2c4fb0146101a75780639e5a66ab146101cf578063a45ccbc6146101f957610085565b80632e1a7d4d14610089578063365b98b2146100b15780634bff5009146100f1578063551ba5941461012d575b5f80fd5b348015610094575f80fd5b506100af60048036038101906100aa9190611180565b610215565b005b3480156100bc575f80fd5b506100d760048036038101906100d29190611180565b61034f565b6040516100e8959493929190611269565b60405180910390f35b3480156100fc575f80fd5b50610117600480360381019061011291906113ed565b610434565b604051610124919061150d565b60405180910390f35b348015610138575f80fd5b50610153600480360381019061014e91906113ed565b610640565b005b348015610160575f80fd5b50610169610836565b604051610176919061152d565b60405180910390f35b34801561018a575f80fd5b506101a560048036038101906101a091906113ed565b61083d565b005b3480156101b2575f80fd5b506101cd60048036038101906101c891906113ed565b610a02565b005b3480156101da575f80fd5b506101e3610c5a565b6040516101f09190611668565b60405180910390f35b610213600480360381019061020e91906113ed565b610dad565b005b60175f9054906101000a900473ffffffffffffffffffffffffffffffffffffffff1673ffffffffffffffffffffffffffffffffffffffff163373ffffffffffffffffffffffffffffffffffffffff16146102a4576040517f08c379a000000000000000000000000000000000000000000000000000000000815260040161029b906116f8565b60405180910390fd5b804710156102e7576040517f08c379a00000000000000000000000000000000000000000000000000000000081526004016102de90611760565b60405180910390fd5b60175f9054906101000a900473ffffffffffffffffffffffffffffffffffffffff1673ffffffffffffffffffffffffffffffffffffffff166108fc8290811502906040515f60405180830381858888f1935050505015801561034b573d5f803e3d5ffd5b5050565b5f818154811061035d575f80fd5b905f5260205f2090600502015f91509050805f015490806001018054610382906117ab565b80601f01602080910402602001604051908101604052809291908181526020018280546103ae906117ab565b80156103f95780601f106103d0576101008083540402835291602001916103f9565b820191905f5260205f20905b8154815290600101906020018083116103dc57829003601f168201915b505050505090806002015f9054906101000a900473ffffffffffffffffffffffffffffffffffffffff16908060030154908060040154905085565b61043c611076565b5f5b5f805490508110156105ff578260405160200161045b9190611815565b604051602081830303815290604052805190602001205f82815481106104845761048361182b565b5b905f5260205f2090600502016001016040516020016104a391906118ea565b60405160208183030381529060405280519060200120036105f2575f81815481106104d1576104d061182b565b5b905f5260205f2090600502016040518060a00160405290815f8201548152602001600182018054610501906117ab565b80601f016020809104026020016040519081016040528092919081815260200182805461052d906117ab565b80156105785780601f1061054f57610100808354040283529160200191610578565b820191905f5260205f20905b81548152906001019060200180831161055b57829003601f168201915b50505050508152602001600282015f9054906101000a900473ffffffffffffffffffffffffffffffffffffffff1673ffffffffffffffffffffffffffffffffffffffff1673ffffffffffffffffffffffffffffffffffffffff1681526020016003820154815260200160048201548152505091505061063b565b808060010191505061043e565b506040517f08c379a00000000000000000000000000000000000000000000000000000000081526004016106329061194a565b60405180910390fd5b919050565b5f61064a82610434565b90505f67016345785d8a0000600a836080015161066791906119c2565b61067191906119f2565b90505f81116106b5576040517f08c379a00000000000000000000000000000000000000000000000000000000081526004016106ac90611a7d565b60405180910390fd5b804710156106f8576040517f08c379a00000000000000000000000000000000000000000000000000000000081526004016106ef90611760565b60405180910390fd5b5f600a80846080015161070b91906119c2565b61071591906119f2565b90505f5b5f805490508110156107e757836040015173ffffffffffffffffffffffffffffffffffffffff165f82815481106107535761075261182b565b5b905f5260205f2090600502016002015f9054906101000a900473ffffffffffffffffffffffffffffffffffffffff1673ffffffffffffffffffffffffffffffffffffffff16036107da57815f82815481106107b1576107b061182b565b5b905f5260205f2090600502016004015f8282546107ce9190611a9b565b925050819055506107e7565b8080600101915050610719565b50826040015173ffffffffffffffffffffffffffffffffffffffff166108fc8390811502906040515f60405180830381858888f1935050505015801561082f573d5f803e3d5ffd5b5050505050565b5f47905090565b5f5b5f80549050811015610907578160405160200161085c9190611815565b604051602081830303815290604052805190602001205f82815481106108855761088461182b565b5b905f5260205f2090600502016001016040516020016108a491906118ea565b60405160208183030381529060405280519060200120036108fa576040517f08c379a00000000000000000000000000000000000000000000000000000000081526004016108f190611b18565b60405180910390fd5b808060010191505061083f565b505f6040518060a0016040528060155481526020018381526020013373ffffffffffffffffffffffffffffffffffffffff1681526020015f81526020015f815250908060018154018082558091505060019003905f5260205f2090600502015f909190919091505f820151815f0155602082015181600101908161098b9190611cc1565b506040820151816002015f6101000a81548173ffffffffffffffffffffffffffffffffffffffff021916908373ffffffffffffffffffffffffffffffffffffffff1602179055506060820151816003015560808201518160040155505060155f8154809291906109fa90611d90565b919050555050565b5f610a0c82610434565b90505f5b5f80549050811015610c3a57816040015173ffffffffffffffffffffffffffffffffffffffff165f8281548110610a4a57610a4961182b565b5b905f5260205f2090600502016002015f9054906101000a900473ffffffffffffffffffffffffffffffffffffffff1673ffffffffffffffffffffffffffffffffffffffff1603610c2d57662386f26fc100005f8281548110610aaf57610aae61182b565b5b905f5260205f209060050201600301541015610b00576040517f08c379a0000000000000000000000000000000000000000000000000000000008152600401610af790611e21565b60405180910390fd5b662386f26fc100005f8281548110610b1b57610b1a61182b565b5b905f5260205f2090600502016003015f828254610b389190611a9b565b925050819055505f8181548110610b5257610b5161182b565b5b905f5260205f209060050201600160165460048110610b7457610b7361182b565b5b600502015f820154815f015560018201816001019081610b949190611e54565b50600282015f9054906101000a900473ffffffffffffffffffffffffffffffffffffffff16816002015f6101000a81548173ffffffffffffffffffffffffffffffffffffffff021916908373ffffffffffffffffffffffffffffffffffffffff160217905550600382015481600301556004820154816004015590505060165f815480929190610c2390611d90565b9190505550610c3a565b8080600101915050610a10565b50600460165403610c5657610c4d610e8e565b610c55610ff0565b5b5050565b610c626110b7565b6001600480602002604051908101604052809291905f905b82821015610da4578382600502016040518060a00160405290815f8201548152602001600182018054610cac906117ab565b80601f0160208091040260200160405190810160405280929190818152602001828054610cd8906117ab565b8015610d235780601f10610cfa57610100808354040283529160200191610d23565b820191905f5260205f20905b815481529060010190602001808311610d0657829003601f168201915b50505050508152602001600282015f9054906101000a900473ffffffffffffffffffffffffffffffffffffffff1673ffffffffffffffffffffffffffffffffffffffff1673ffffffffffffffffffffffffffffffffffffffff1681526020016003820154815260200160048201548152505081526020019060010190610c7a565b50505050905090565b5f610db782610434565b90505f5b5f80549050811015610e8957816040015173ffffffffffffffffffffffffffffffffffffffff165f8281548110610df557610df461182b565b5b905f5260205f2090600502016002015f9054906101000a900473ffffffffffffffffffffffffffffffffffffffff1673ffffffffffffffffffffffffffffffffffffffff1603610e7c57345f8281548110610e5357610e5261182b565b5b905f5260205f2090600502016003015f828254610e709190611f39565b92505081905550610e89565b8080600101915050610dbb565b505050565b5f6040518060800160405280600481526020016003815260200160028152602001600181525090505f5b6004811015610fec575f5b5f80549050811015610fde5760018260048110610ee357610ee261182b565b5b600502016002015f9054906101000a900473ffffffffffffffffffffffffffffffffffffffff1673ffffffffffffffffffffffffffffffffffffffff165f8281548110610f3357610f3261182b565b5b905f5260205f2090600502016002015f9054906101000a900473ffffffffffffffffffffffffffffffffffffffff1673ffffffffffffffffffffffffffffffffffffffff1603610fd157828260048110610f9057610f8f61182b565b5b60200201515f8281548110610fa857610fa761182b565b5b905f5260205f2090600502016004015f828254610fc59190611f39565b92505081905550610fde565b8080600101915050610ec3565b508080600101915050610eb8565b5050565b5f5b600481101561106c576001816004811061100f5761100e61182b565b5b600502015f8082015f9055600182015f61102991906110e4565b600282015f6101000a81549073ffffffffffffffffffffffffffffffffffffffff0219169055600382015f9055600482015f905550508080600101915050610ff2565b505f601681905550565b6040518060a001604052805f8152602001606081526020015f73ffffffffffffffffffffffffffffffffffffffff1681526020015f81526020015f81525090565b60405180608001604052806004905b6110ce611076565b8152602001906001900390816110c65790505090565b5080546110f0906117ab565b5f825580601f10611101575061111e565b601f0160209004905f5260205f209081019061111d9190611121565b5b50565b5b80821115611138575f815f905550600101611122565b5090565b5f604051905090565b5f80fd5b5f80fd5b5f819050919050565b61115f8161114d565b8114611169575f80fd5b50565b5f8135905061117a81611156565b92915050565b5f6020828403121561119557611194611145565b5b5f6111a28482850161116c565b91505092915050565b6111b48161114d565b82525050565b5f81519050919050565b5f82825260208201905092915050565b8281835e5f83830152505050565b5f601f19601f8301169050919050565b5f6111fc826111ba565b61120681856111c4565b93506112168185602086016111d4565b61121f816111e2565b840191505092915050565b5f73ffffffffffffffffffffffffffffffffffffffff82169050919050565b5f6112538261122a565b9050919050565b61126381611249565b82525050565b5f60a08201905061127c5f8301886111ab565b818103602083015261128e81876111f2565b905061129d604083018661125a565b6112aa60608301856111ab565b6112b760808301846111ab565b9695505050505050565b5f80fd5b5f80fd5b7f4e487b71000000000000000000000000000000000000000000000000000000005f52604160045260245ffd5b6112ff826111e2565b810181811067ffffffffffffffff8211171561131e5761131d6112c9565b5b80604052505050565b5f61133061113c565b905061133c82826112f6565b919050565b5f67ffffffffffffffff82111561135b5761135a6112c9565b5b611364826111e2565b9050602081019050919050565b828183375f83830152505050565b5f61139161138c84611341565b611327565b9050828152602081018484840111156113ad576113ac6112c5565b5b6113b8848285611371565b509392505050565b5f82601f8301126113d4576113d36112c1565b5b81356113e484826020860161137f565b91505092915050565b5f6020828403121561140257611401611145565b5b5f82013567ffffffffffffffff81111561141f5761141e611149565b5b61142b848285016113c0565b91505092915050565b61143d8161114d565b82525050565b5f82825260208201905092915050565b5f61145d826111ba565b6114678185611443565b93506114778185602086016111d4565b611480816111e2565b840191505092915050565b61149481611249565b82525050565b5f60a083015f8301516114af5f860182611434565b50602083015184820360208601526114c78282611453565b91505060408301516114dc604086018261148b565b5060608301516114ef6060860182611434565b5060808301516115026080860182611434565b508091505092915050565b5f6020820190508181035f830152611525818461149a565b905092915050565b5f6020820190506115405f8301846111ab565b92915050565b5f60049050919050565b5f81905092915050565b5f819050919050565b5f60a083015f8301516115785f860182611434565b50602083015184820360208601526115908282611453565b91505060408301516115a5604086018261148b565b5060608301516115b86060860182611434565b5060808301516115cb6080860182611434565b508091505092915050565b5f6115e18383611563565b905092915050565b5f602082019050919050565b5f6115ff82611546565b6116098185611550565b93508360208202850161161b8561155a565b805f5b85811015611656578484038952815161163785826115d6565b9450611642836115e9565b925060208a0199505060018101905061161e565b50829750879550505050505092915050565b5f6020820190508181035f83015261168081846115f5565b905092915050565b7f4f6e6c792061646d696e2063616e20706572666f726d207468697320616374695f8201527f6f6e000000000000000000000000000000000000000000000000000000000000602082015250565b5f6116e26022836111c4565b91506116ed82611688565b604082019050919050565b5f6020820190508181035f83015261170f816116d6565b9050919050565b7f436f6e74726163742068617320696e73756666696369656e742066756e6473005f82015250565b5f61174a601f836111c4565b915061175582611716565b602082019050919050565b5f6020820190508181035f8301526117778161173e565b9050919050565b7f4e487b71000000000000000000000000000000000000000000000000000000005f52602260045260245ffd5b5f60028204905060018216806117c257607f821691505b6020821081036117d5576117d461177e565b5b50919050565b5f81905092915050565b5f6117ef826111ba565b6117f981856117db565b93506118098185602086016111d4565b80840191505092915050565b5f61182082846117e5565b915081905092915050565b7f4e487b71000000000000000000000000000000000000000000000000000000005f52603260045260245ffd5b5f819050815f5260205f209050919050565b5f8154611876816117ab565b61188081866117db565b9450600182165f811461189a57600181146118af576118e1565b60ff19831686528115158202860193506118e1565b6118b885611858565b5f5b838110156118d9578154818901526001820191506020810190506118ba565b838801955050505b50505092915050565b5f6118f5828461186a565b915081905092915050565b7f55736572206e6f7420666f756e640000000000000000000000000000000000005f82015250565b5f611934600e836111c4565b915061193f82611900565b602082019050919050565b5f6020820190508181035f83015261196181611928565b9050919050565b7f4e487b71000000000000000000000000000000000000000000000000000000005f52601260045260245ffd5b7f4e487b71000000000000000000000000000000000000000000000000000000005f52601160045260245ffd5b5f6119cc8261114d565b91506119d78361114d565b9250826119e7576119e6611968565b5b828204905092915050565b5f6119fc8261114d565b9150611a078361114d565b9250828202611a158161114d565b91508282048414831517611a2c57611a2b611995565b5b5092915050565b7f4e6f7420656e6f7567682073636f726520746f20636f6e7665727400000000005f82015250565b5f611a67601b836111c4565b9150611a7282611a33565b602082019050919050565b5f6020820190508181035f830152611a9481611a5b565b9050919050565b5f611aa58261114d565b9150611ab08361114d565b9250828203905081811115611ac857611ac7611995565b5b92915050565b7f416c726561647920696e207573650000000000000000000000000000000000005f82015250565b5f611b02600e836111c4565b9150611b0d82611ace565b602082019050919050565b5f6020820190508181035f830152611b2f81611af6565b9050919050565b5f6020601f8301049050919050565b5f82821b905092915050565b5f60088302611b807fffffffffffffffffffffffffffffffffffffffffffffffffffffffffffffffff82611b45565b611b8a8683611b45565b95508019841693508086168417925050509392505050565b5f819050919050565b5f611bc5611bc0611bbb8461114d565b611ba2565b61114d565b9050919050565b5f819050919050565b611bde83611bab565b611bf2611bea82611bcc565b848454611b51565b825550505050565b5f90565b611c06611bfa565b611c11818484611bd5565b505050565b5b81811015611c3457611c295f82611bfe565b600181019050611c17565b5050565b601f821115611c7957611c4a81611858565b611c5384611b36565b81016020851015611c62578190505b611c76611c6e85611b36565b830182611c16565b50505b505050565b5f82821c905092915050565b5f611c995f1984600802611c7e565b1980831691505092915050565b5f611cb18383611c8a565b9150826002028217905092915050565b611cca826111ba565b67ffffffffffffffff811115611ce357611ce26112c9565b5b611ced82546117ab565b611cf8828285611c38565b5f60209050601f831160018114611d29575f8415611d17578287015190505b611d218582611ca6565b865550611d88565b601f198416611d3786611858565b5f5b82811015611d5e57848901518255600182019150602085019450602081019050611d39565b86831015611d7b5784890151611d77601f891682611c8a565b8355505b6001600288020188555050505b505050505050565b5f611d9a8261114d565b91507fffffffffffffffffffffffffffffffffffffffffffffffffffffffffffffffff8203611dcc57611dcb611995565b5b600182019050919050565b7f4e6f7420656e6f756768206465706f73697400000000000000000000000000005f82015250565b5f611e0b6012836111c4565b9150611e1682611dd7565b602082019050919050565b5f6020820190508181035f830152611e3881611dff565b9050919050565b5f81549050611e4d816117ab565b9050919050565b818103611e62575050611f37565b611e6b82611e3f565b67ffffffffffffffff811115611e8457611e836112c9565b5b611e8e82546117ab565b611e99828285611c38565b5f601f831160018114611ec6575f8415611eb4578287015490505b611ebe8582611ca6565b865550611f30565b601f198416611ed487611858565b9650611edf86611858565b5f5b82811015611f0657848901548255600182019150600185019450602081019050611ee1565b86831015611f235784890154611f1f601f891682611c8a565b8355505b6001600288020188555050505b5050505050505b565b5f611f438261114d565b9150611f4e8361114d565b9250828201905080821115611f6657611f65611995565b5b9291505056fea264697066735822122064d24aba44ea8b96723fb176f37e923c9566abce0de8744f1b24fdf08e171d7964736f6c634300081a0033",
					"opcodes": "PUSH1 0x80 PUSH1 0x40 MSTORE PUSH1 0x1 PUSH1 0x15 SSTORE PUSH0 PUSH1 0x16 SSTORE CALLVALUE DUP1 ISZERO PUSH1 0x17 JUMPI PUSH0 DUP1 REVERT JUMPDEST POP CALLER PUSH1 0x17 PUSH0 PUSH2 0x100 EXP DUP2 SLOAD DUP2 PUSH20 0xFFFFFFFFFFFFFFFFFFFFFFFFFFFFFFFFFFFFFFFF MUL NOT AND SWAP1 DUP4 PUSH20 0xFFFFFFFFFFFFFFFFFFFFFFFFFFFFFFFFFFFFFFFF AND MUL OR SWAP1 SSTORE POP PUSH2 0x1FA2 DUP1 PUSH2 0x65 PUSH0 CODECOPY PUSH0 RETURN INVALID PUSH1 0x80 PUSH1 0x40 MSTORE PUSH1 0x4 CALLDATASIZE LT PUSH2 0x85 JUMPI PUSH0 CALLDATALOAD PUSH1 0xE0 SHR DUP1 PUSH4 0x6F9FB98A GT PUSH2 0x58 JUMPI DUP1 PUSH4 0x6F9FB98A EQ PUSH2 0x155 JUMPI DUP1 PUSH4 0x704F1B94 EQ PUSH2 0x17F JUMPI DUP1 PUSH4 0x9E2C4FB0 EQ PUSH2 0x1A7 JUMPI DUP1 PUSH4 0x9E5A66AB EQ PUSH2 0x1CF JUMPI DUP1 PUSH4 0xA45CCBC6 EQ PUSH2 0x1F9 JUMPI PUSH2 0x85 JUMP JUMPDEST DUP1 PUSH4 0x2E1A7D4D EQ PUSH2 0x89 JUMPI DUP1 PUSH4 0x365B98B2 EQ PUSH2 0xB1 JUMPI DUP1 PUSH4 0x4BFF5009 EQ PUSH2 0xF1 JUMPI DUP1 PUSH4 0x551BA594 EQ PUSH2 0x12D JUMPI JUMPDEST PUSH0 DUP1 REVERT JUMPDEST CALLVALUE DUP1 ISZERO PUSH2 0x94 JUMPI PUSH0 DUP1 REVERT JUMPDEST POP PUSH2 0xAF PUSH1 0x4 DUP1 CALLDATASIZE SUB DUP2 ADD SWAP1 PUSH2 0xAA SWAP2 SWAP1 PUSH2 0x1180 JUMP JUMPDEST PUSH2 0x215 JUMP JUMPDEST STOP JUMPDEST CALLVALUE DUP1 ISZERO PUSH2 0xBC JUMPI PUSH0 DUP1 REVERT JUMPDEST POP PUSH2 0xD7 PUSH1 0x4 DUP1 CALLDATASIZE SUB DUP2 ADD SWAP1 PUSH2 0xD2 SWAP2 SWAP1 PUSH2 0x1180 JUMP JUMPDEST PUSH2 0x34F JUMP JUMPDEST PUSH1 0x40 MLOAD PUSH2 0xE8 SWAP6 SWAP5 SWAP4 SWAP3 SWAP2 SWAP1 PUSH2 0x1269 JUMP JUMPDEST PUSH1 0x40 MLOAD DUP1 SWAP2 SUB SWAP1 RETURN JUMPDEST CALLVALUE DUP1 ISZERO PUSH2 0xFC JUMPI PUSH0 DUP1 REVERT JUMPDEST POP PUSH2 0x117 PUSH1 0x4 DUP1 CALLDATASIZE SUB DUP2 ADD SWAP1 PUSH2 0x112 SWAP2 SWAP1 PUSH2 0x13ED JUMP JUMPDEST PUSH2 0x434 JUMP JUMPDEST PUSH1 0x40 MLOAD PUSH2 0x124 SWAP2 SWAP1 PUSH2 0x150D JUMP JUMPDEST PUSH1 0x40 MLOAD DUP1 SWAP2 SUB SWAP1 RETURN JUMPDEST CALLVALUE DUP1 ISZERO PUSH2 0x138 JUMPI PUSH0 DUP1 REVERT JUMPDEST POP PUSH2 0x153 PUSH1 0x4 DUP1 CALLDATASIZE SUB DUP2 ADD SWAP1 PUSH2 0x14E SWAP2 SWAP1 PUSH2 0x13ED JUMP JUMPDEST PUSH2 0x640 JUMP JUMPDEST STOP JUMPDEST CALLVALUE DUP1 ISZERO PUSH2 0x160 JUMPI PUSH0 DUP1 REVERT JUMPDEST POP PUSH2 0x169 PUSH2 0x836 JUMP JUMPDEST PUSH1 0x40 MLOAD PUSH2 0x176 SWAP2 SWAP1 PUSH2 0x152D JUMP JUMPDEST PUSH1 0x40 MLOAD DUP1 SWAP2 SUB SWAP1 RETURN JUMPDEST CALLVALUE DUP1 ISZERO PUSH2 0x18A JUMPI PUSH0 DUP1 REVERT JUMPDEST POP PUSH2 0x1A5 PUSH1 0x4 DUP1 CALLDATASIZE SUB DUP2 ADD SWAP1 PUSH2 0x1A0 SWAP2 SWAP1 PUSH2 0x13ED JUMP JUMPDEST PUSH2 0x83D JUMP JUMPDEST STOP JUMPDEST CALLVALUE DUP1 ISZERO PUSH2 0x1B2 JUMPI PUSH0 DUP1 REVERT JUMPDEST POP PUSH2 0x1CD PUSH1 0x4 DUP1 CALLDATASIZE SUB DUP2 ADD SWAP1 PUSH2 0x1C8 SWAP2 SWAP1 PUSH2 0x13ED JUMP JUMPDEST PUSH2 0xA02 JUMP JUMPDEST STOP JUMPDEST CALLVALUE DUP1 ISZERO PUSH2 0x1DA JUMPI PUSH0 DUP1 REVERT JUMPDEST POP PUSH2 0x1E3 PUSH2 0xC5A JUMP JUMPDEST PUSH1 0x40 MLOAD PUSH2 0x1F0 SWAP2 SWAP1 PUSH2 0x1668 JUMP JUMPDEST PUSH1 0x40 MLOAD DUP1 SWAP2 SUB SWAP1 RETURN JUMPDEST PUSH2 0x213 PUSH1 0x4 DUP1 CALLDATASIZE SUB DUP2 ADD SWAP1 PUSH2 0x20E SWAP2 SWAP1 PUSH2 0x13ED JUMP JUMPDEST PUSH2 0xDAD JUMP JUMPDEST STOP JUMPDEST PUSH1 0x17 PUSH0 SWAP1 SLOAD SWAP1 PUSH2 0x100 EXP SWAP1 DIV PUSH20 0xFFFFFFFFFFFFFFFFFFFFFFFFFFFFFFFFFFFFFFFF AND PUSH20 0xFFFFFFFFFFFFFFFFFFFFFFFFFFFFFFFFFFFFFFFF AND CALLER PUSH20 0xFFFFFFFFFFFFFFFFFFFFFFFFFFFFFFFFFFFFFFFF AND EQ PUSH2 0x2A4 JUMPI PUSH1 0x40 MLOAD PUSH32 0x8C379A000000000000000000000000000000000000000000000000000000000 DUP2 MSTORE PUSH1 0x4 ADD PUSH2 0x29B SWAP1 PUSH2 0x16F8 JUMP JUMPDEST PUSH1 0x40 MLOAD DUP1 SWAP2 SUB SWAP1 REVERT JUMPDEST DUP1 SELFBALANCE LT ISZERO PUSH2 0x2E7 JUMPI PUSH1 0x40 MLOAD PUSH32 0x8C379A000000000000000000000000000000000000000000000000000000000 DUP2 MSTORE PUSH1 0x4 ADD PUSH2 0x2DE SWAP1 PUSH2 0x1760 JUMP JUMPDEST PUSH1 0x40 MLOAD DUP1 SWAP2 SUB SWAP1 REVERT JUMPDEST PUSH1 0x17 PUSH0 SWAP1 SLOAD SWAP1 PUSH2 0x100 EXP SWAP1 DIV PUSH20 0xFFFFFFFFFFFFFFFFFFFFFFFFFFFFFFFFFFFFFFFF AND PUSH20 0xFFFFFFFFFFFFFFFFFFFFFFFFFFFFFFFFFFFFFFFF AND PUSH2 0x8FC DUP3 SWAP1 DUP2 ISZERO MUL SWAP1 PUSH1 0x40 MLOAD PUSH0 PUSH1 0x40 MLOAD DUP1 DUP4 SUB DUP2 DUP6 DUP9 DUP9 CALL SWAP4 POP POP POP POP ISZERO DUP1 ISZERO PUSH2 0x34B JUMPI RETURNDATASIZE PUSH0 DUP1 RETURNDATACOPY RETURNDATASIZE PUSH0 REVERT JUMPDEST POP POP JUMP JUMPDEST PUSH0 DUP2 DUP2 SLOAD DUP2 LT PUSH2 0x35D JUMPI PUSH0 DUP1 REVERT JUMPDEST SWAP1 PUSH0 MSTORE PUSH1 0x20 PUSH0 KECCAK256 SWAP1 PUSH1 0x5 MUL ADD PUSH0 SWAP2 POP SWAP1 POP DUP1 PUSH0 ADD SLOAD SWAP1 DUP1 PUSH1 0x1 ADD DUP1 SLOAD PUSH2 0x382 SWAP1 PUSH2 0x17AB JUMP JUMPDEST DUP1 PUSH1 0x1F ADD PUSH1 0x20 DUP1 SWAP2 DIV MUL PUSH1 0x20 ADD PUSH1 0x40 MLOAD SWAP1 DUP2 ADD PUSH1 0x40 MSTORE DUP1 SWAP3 SWAP2 SWAP1 DUP2 DUP2 MSTORE PUSH1 0x20 ADD DUP3 DUP1 SLOAD PUSH2 0x3AE SWAP1 PUSH2 0x17AB JUMP JUMPDEST DUP1 ISZERO PUSH2 0x3F9 JUMPI DUP1 PUSH1 0x1F LT PUSH2 0x3D0 JUMPI PUSH2 0x100 DUP1 DUP4 SLOAD DIV MUL DUP4 MSTORE SWAP2 PUSH1 0x20 ADD SWAP2 PUSH2 0x3F9 JUMP JUMPDEST DUP3 ADD SWAP2 SWAP1 PUSH0 MSTORE PUSH1 0x20 PUSH0 KECCAK256 SWAP1 JUMPDEST DUP2 SLOAD DUP2 MSTORE SWAP1 PUSH1 0x1 ADD SWAP1 PUSH1 0x20 ADD DUP1 DUP4 GT PUSH2 0x3DC JUMPI DUP3 SWAP1 SUB PUSH1 0x1F AND DUP3 ADD SWAP2 JUMPDEST POP POP POP POP POP SWAP1 DUP1 PUSH1 0x2 ADD PUSH0 SWAP1 SLOAD SWAP1 PUSH2 0x100 EXP SWAP1 DIV PUSH20 0xFFFFFFFFFFFFFFFFFFFFFFFFFFFFFFFFFFFFFFFF AND SWAP1 DUP1 PUSH1 0x3 ADD SLOAD SWAP1 DUP1 PUSH1 0x4 ADD SLOAD SWAP1 POP DUP6 JUMP JUMPDEST PUSH2 0x43C PUSH2 0x1076 JUMP JUMPDEST PUSH0 JUMPDEST PUSH0 DUP1 SLOAD SWAP1 POP DUP2 LT ISZERO PUSH2 0x5FF JUMPI DUP3 PUSH1 0x40 MLOAD PUSH1 0x20 ADD PUSH2 0x45B SWAP2 SWAP1 PUSH2 0x1815 JUMP JUMPDEST PUSH1 0x40 MLOAD PUSH1 0x20 DUP2 DUP4 SUB SUB DUP2 MSTORE SWAP1 PUSH1 0x40 MSTORE DUP1 MLOAD SWAP1 PUSH1 0x20 ADD KECCAK256 PUSH0 DUP3 DUP2 SLOAD DUP2 LT PUSH2 0x484 JUMPI PUSH2 0x483 PUSH2 0x182B JUMP JUMPDEST JUMPDEST SWAP1 PUSH0 MSTORE PUSH1 0x20 PUSH0 KECCAK256 SWAP1 PUSH1 0x5 MUL ADD PUSH1 0x1 ADD PUSH1 0x40 MLOAD PUSH1 0x20 ADD PUSH2 0x4A3 SWAP2 SWAP1 PUSH2 0x18EA JUMP JUMPDEST PUSH1 0x40 MLOAD PUSH1 0x20 DUP2 DUP4 SUB SUB DUP2 MSTORE SWAP1 PUSH1 0x40 MSTORE DUP1 MLOAD SWAP1 PUSH1 0x20 ADD KECCAK256 SUB PUSH2 0x5F2 JUMPI PUSH0 DUP2 DUP2 SLOAD DUP2 LT PUSH2 0x4D1 JUMPI PUSH2 0x4D0 PUSH2 0x182B JUMP JUMPDEST JUMPDEST SWAP1 PUSH0 MSTORE PUSH1 0x20 PUSH0 KECCAK256 SWAP1 PUSH1 0x5 MUL ADD PUSH1 0x40 MLOAD DUP1 PUSH1 0xA0 ADD PUSH1 0x40 MSTORE SWAP1 DUP2 PUSH0 DUP3 ADD SLOAD DUP2 MSTORE PUSH1 0x20 ADD PUSH1 0x1 DUP3 ADD DUP1 SLOAD PUSH2 0x501 SWAP1 PUSH2 0x17AB JUMP JUMPDEST DUP1 PUSH1 0x1F ADD PUSH1 0x20 DUP1 SWAP2 DIV MUL PUSH1 0x20 ADD PUSH1 0x40 MLOAD SWAP1 DUP2 ADD PUSH1 0x40 MSTORE DUP1 SWAP3 SWAP2 SWAP1 DUP2 DUP2 MSTORE PUSH1 0x20 ADD DUP3 DUP1 SLOAD PUSH2 0x52D SWAP1 PUSH2 0x17AB JUMP JUMPDEST DUP1 ISZERO PUSH2 0x578 JUMPI DUP1 PUSH1 0x1F LT PUSH2 0x54F JUMPI PUSH2 0x100 DUP1 DUP4 SLOAD DIV MUL DUP4 MSTORE SWAP2 PUSH1 0x20 ADD SWAP2 PUSH2 0x578 JUMP JUMPDEST DUP3 ADD SWAP2 SWAP1 PUSH0 MSTORE PUSH1 0x20 PUSH0 KECCAK256 SWAP1 JUMPDEST DUP2 SLOAD DUP2 MSTORE SWAP1 PUSH1 0x1 ADD SWAP1 PUSH1 0x20 ADD DUP1 DUP4 GT PUSH2 0x55B JUMPI DUP3 SWAP1 SUB PUSH1 0x1F AND DUP3 ADD SWAP2 JUMPDEST POP POP POP POP POP DUP2 MSTORE PUSH1 0x20 ADD PUSH1 0x2 DUP3 ADD PUSH0 SWAP1 SLOAD SWAP1 PUSH2 0x100 EXP SWAP1 DIV PUSH20 0xFFFFFFFFFFFFFFFFFFFFFFFFFFFFFFFFFFFFFFFF AND PUSH20 0xFFFFFFFFFFFFFFFFFFFFFFFFFFFFFFFFFFFFFFFF AND PUSH20 0xFFFFFFFFFFFFFFFFFFFFFFFFFFFFFFFFFFFFFFFF AND DUP2 MSTORE PUSH1 0x20 ADD PUSH1 0x3 DUP3 ADD SLOAD DUP2 MSTORE PUSH1 0x20 ADD PUSH1 0x4 DUP3 ADD SLOAD DUP2 MSTORE POP POP SWAP2 POP POP PUSH2 0x63B JUMP JUMPDEST DUP1 DUP1 PUSH1 0x1 ADD SWAP2 POP POP PUSH2 0x43E JUMP JUMPDEST POP PUSH1 0x40 MLOAD PUSH32 0x8C379A000000000000000000000000000000000000000000000000000000000 DUP2 MSTORE PUSH1 0x4 ADD PUSH2 0x632 SWAP1 PUSH2 0x194A JUMP JUMPDEST PUSH1 0x40 MLOAD DUP1 SWAP2 SUB SWAP1 REVERT JUMPDEST SWAP2 SWAP1 POP JUMP JUMPDEST PUSH0 PUSH2 0x64A DUP3 PUSH2 0x434 JUMP JUMPDEST SWAP1 POP PUSH0 PUSH8 0x16345785D8A0000 PUSH1 0xA DUP4 PUSH1 0x80 ADD MLOAD PUSH2 0x667 SWAP2 SWAP1 PUSH2 0x19C2 JUMP JUMPDEST PUSH2 0x671 SWAP2 SWAP1 PUSH2 0x19F2 JUMP JUMPDEST SWAP1 POP PUSH0 DUP2 GT PUSH2 0x6B5 JUMPI PUSH1 0x40 MLOAD PUSH32 0x8C379A000000000000000000000000000000000000000000000000000000000 DUP2 MSTORE PUSH1 0x4 ADD PUSH2 0x6AC SWAP1 PUSH2 0x1A7D JUMP JUMPDEST PUSH1 0x40 MLOAD DUP1 SWAP2 SUB SWAP1 REVERT JUMPDEST DUP1 SELFBALANCE LT ISZERO PUSH2 0x6F8 JUMPI PUSH1 0x40 MLOAD PUSH32 0x8C379A000000000000000000000000000000000000000000000000000000000 DUP2 MSTORE PUSH1 0x4 ADD PUSH2 0x6EF SWAP1 PUSH2 0x1760 JUMP JUMPDEST PUSH1 0x40 MLOAD DUP1 SWAP2 SUB SWAP1 REVERT JUMPDEST PUSH0 PUSH1 0xA DUP1 DUP5 PUSH1 0x80 ADD MLOAD PUSH2 0x70B SWAP2 SWAP1 PUSH2 0x19C2 JUMP JUMPDEST PUSH2 0x715 SWAP2 SWAP1 PUSH2 0x19F2 JUMP JUMPDEST SWAP1 POP PUSH0 JUMPDEST PUSH0 DUP1 SLOAD SWAP1 POP DUP2 LT ISZERO PUSH2 0x7E7 JUMPI DUP4 PUSH1 0x40 ADD MLOAD PUSH20 0xFFFFFFFFFFFFFFFFFFFFFFFFFFFFFFFFFFFFFFFF AND PUSH0 DUP3 DUP2 SLOAD DUP2 LT PUSH2 0x753 JUMPI PUSH2 0x752 PUSH2 0x182B JUMP JUMPDEST JUMPDEST SWAP1 PUSH0 MSTORE PUSH1 0x20 PUSH0 KECCAK256 SWAP1 PUSH1 0x5 MUL ADD PUSH1 0x2 ADD PUSH0 SWAP1 SLOAD SWAP1 PUSH2 0x100 EXP SWAP1 DIV PUSH20 0xFFFFFFFFFFFFFFFFFFFFFFFFFFFFFFFFFFFFFFFF AND PUSH20 0xFFFFFFFFFFFFFFFFFFFFFFFFFFFFFFFFFFFFFFFF AND SUB PUSH2 0x7DA JUMPI DUP2 PUSH0 DUP3 DUP2 SLOAD DUP2 LT PUSH2 0x7B1 JUMPI PUSH2 0x7B0 PUSH2 0x182B JUMP JUMPDEST JUMPDEST SWAP1 PUSH0 MSTORE PUSH1 0x20 PUSH0 KECCAK256 SWAP1 PUSH1 0x5 MUL ADD PUSH1 0x4 ADD PUSH0 DUP3 DUP3 SLOAD PUSH2 0x7CE SWAP2 SWAP1 PUSH2 0x1A9B JUMP JUMPDEST SWAP3 POP POP DUP2 SWAP1 SSTORE POP PUSH2 0x7E7 JUMP JUMPDEST DUP1 DUP1 PUSH1 0x1 ADD SWAP2 POP POP PUSH2 0x719 JUMP JUMPDEST POP DUP3 PUSH1 0x40 ADD MLOAD PUSH20 0xFFFFFFFFFFFFFFFFFFFFFFFFFFFFFFFFFFFFFFFF AND PUSH2 0x8FC DUP4 SWAP1 DUP2 ISZERO MUL SWAP1 PUSH1 0x40 MLOAD PUSH0 PUSH1 0x40 MLOAD DUP1 DUP4 SUB DUP2 DUP6 DUP9 DUP9 CALL SWAP4 POP POP POP POP ISZERO DUP1 ISZERO PUSH2 0x82F JUMPI RETURNDATASIZE PUSH0 DUP1 RETURNDATACOPY RETURNDATASIZE PUSH0 REVERT JUMPDEST POP POP POP POP POP JUMP JUMPDEST PUSH0 SELFBALANCE SWAP1 POP SWAP1 JUMP JUMPDEST PUSH0 JUMPDEST PUSH0 DUP1 SLOAD SWAP1 POP DUP2 LT ISZERO PUSH2 0x907 JUMPI DUP2 PUSH1 0x40 MLOAD PUSH1 0x20 ADD PUSH2 0x85C SWAP2 SWAP1 PUSH2 0x1815 JUMP JUMPDEST PUSH1 0x40 MLOAD PUSH1 0x20 DUP2 DUP4 SUB SUB DUP2 MSTORE SWAP1 PUSH1 0x40 MSTORE DUP1 MLOAD SWAP1 PUSH1 0x20 ADD KECCAK256 PUSH0 DUP3 DUP2 SLOAD DUP2 LT PUSH2 0x885 JUMPI PUSH2 0x884 PUSH2 0x182B JUMP JUMPDEST JUMPDEST SWAP1 PUSH0 MSTORE PUSH1 0x20 PUSH0 KECCAK256 SWAP1 PUSH1 0x5 MUL ADD PUSH1 0x1 ADD PUSH1 0x40 MLOAD PUSH1 0x20 ADD PUSH2 0x8A4 SWAP2 SWAP1 PUSH2 0x18EA JUMP JUMPDEST PUSH1 0x40 MLOAD PUSH1 0x20 DUP2 DUP4 SUB SUB DUP2 MSTORE SWAP1 PUSH1 0x40 MSTORE DUP1 MLOAD SWAP1 PUSH1 0x20 ADD KECCAK256 SUB PUSH2 0x8FA JUMPI PUSH1 0x40 MLOAD PUSH32 0x8C379A000000000000000000000000000000000000000000000000000000000 DUP2 MSTORE PUSH1 0x4 ADD PUSH2 0x8F1 SWAP1 PUSH2 0x1B18 JUMP JUMPDEST PUSH1 0x40 MLOAD DUP1 SWAP2 SUB SWAP1 REVERT JUMPDEST DUP1 DUP1 PUSH1 0x1 ADD SWAP2 POP POP PUSH2 0x83F JUMP JUMPDEST POP PUSH0 PUSH1 0x40 MLOAD DUP1 PUSH1 0xA0 ADD PUSH1 0x40 MSTORE DUP1 PUSH1 0x15 SLOAD DUP2 MSTORE PUSH1 0x20 ADD DUP4 DUP2 MSTORE PUSH1 0x20 ADD CALLER PUSH20 0xFFFFFFFFFFFFFFFFFFFFFFFFFFFFFFFFFFFFFFFF AND DUP2 MSTORE PUSH1 0x20 ADD PUSH0 DUP2 MSTORE PUSH1 0x20 ADD PUSH0 DUP2 MSTORE POP SWAP1 DUP1 PUSH1 0x1 DUP2 SLOAD ADD DUP1 DUP3 SSTORE DUP1 SWAP2 POP POP PUSH1 0x1 SWAP1 SUB SWAP1 PUSH0 MSTORE PUSH1 0x20 PUSH0 KECCAK256 SWAP1 PUSH1 0x5 MUL ADD PUSH0 SWAP1 SWAP2 SWAP1 SWAP2 SWAP1 SWAP2 POP PUSH0 DUP3 ADD MLOAD DUP2 PUSH0 ADD SSTORE PUSH1 0x20 DUP3 ADD MLOAD DUP2 PUSH1 0x1 ADD SWAP1 DUP2 PUSH2 0x98B SWAP2 SWAP1 PUSH2 0x1CC1 JUMP JUMPDEST POP PUSH1 0x40 DUP3 ADD MLOAD DUP2 PUSH1 0x2 ADD PUSH0 PUSH2 0x100 EXP DUP2 SLOAD DUP2 PUSH20 0xFFFFFFFFFFFFFFFFFFFFFFFFFFFFFFFFFFFFFFFF MUL NOT AND SWAP1 DUP4 PUSH20 0xFFFFFFFFFFFFFFFFFFFFFFFFFFFFFFFFFFFFFFFF AND MUL OR SWAP1 SSTORE POP PUSH1 0x60 DUP3 ADD MLOAD DUP2 PUSH1 0x3 ADD SSTORE PUSH1 0x80 DUP3 ADD MLOAD DUP2 PUSH1 0x4 ADD SSTORE POP POP PUSH1 0x15 PUSH0 DUP2 SLOAD DUP1 SWAP3 SWAP2 SWAP1 PUSH2 0x9FA SWAP1 PUSH2 0x1D90 JUMP JUMPDEST SWAP2 SWAP1 POP SSTORE POP POP JUMP JUMPDEST PUSH0 PUSH2 0xA0C DUP3 PUSH2 0x434 JUMP JUMPDEST SWAP1 POP PUSH0 JUMPDEST PUSH0 DUP1 SLOAD SWAP1 POP DUP2 LT ISZERO PUSH2 0xC3A JUMPI DUP2 PUSH1 0x40 ADD MLOAD PUSH20 0xFFFFFFFFFFFFFFFFFFFFFFFFFFFFFFFFFFFFFFFF AND PUSH0 DUP3 DUP2 SLOAD DUP2 LT PUSH2 0xA4A JUMPI PUSH2 0xA49 PUSH2 0x182B JUMP JUMPDEST JUMPDEST SWAP1 PUSH0 MSTORE PUSH1 0x20 PUSH0 KECCAK256 SWAP1 PUSH1 0x5 MUL ADD PUSH1 0x2 ADD PUSH0 SWAP1 SLOAD SWAP1 PUSH2 0x100 EXP SWAP1 DIV PUSH20 0xFFFFFFFFFFFFFFFFFFFFFFFFFFFFFFFFFFFFFFFF AND PUSH20 0xFFFFFFFFFFFFFFFFFFFFFFFFFFFFFFFFFFFFFFFF AND SUB PUSH2 0xC2D JUMPI PUSH7 0x2386F26FC10000 PUSH0 DUP3 DUP2 SLOAD DUP2 LT PUSH2 0xAAF JUMPI PUSH2 0xAAE PUSH2 0x182B JUMP JUMPDEST JUMPDEST SWAP1 PUSH0 MSTORE PUSH1 0x20 PUSH0 KECCAK256 SWAP1 PUSH1 0x5 MUL ADD PUSH1 0x3 ADD SLOAD LT ISZERO PUSH2 0xB00 JUMPI PUSH1 0x40 MLOAD PUSH32 0x8C379A000000000000000000000000000000000000000000000000000000000 DUP2 MSTORE PUSH1 0x4 ADD PUSH2 0xAF7 SWAP1 PUSH2 0x1E21 JUMP JUMPDEST PUSH1 0x40 MLOAD DUP1 SWAP2 SUB SWAP1 REVERT JUMPDEST PUSH7 0x2386F26FC10000 PUSH0 DUP3 DUP2 SLOAD DUP2 LT PUSH2 0xB1B JUMPI PUSH2 0xB1A PUSH2 0x182B JUMP JUMPDEST JUMPDEST SWAP1 PUSH0 MSTORE PUSH1 0x20 PUSH0 KECCAK256 SWAP1 PUSH1 0x5 MUL ADD PUSH1 0x3 ADD PUSH0 DUP3 DUP3 SLOAD PUSH2 0xB38 SWAP2 SWAP1 PUSH2 0x1A9B JUMP JUMPDEST SWAP3 POP POP DUP2 SWAP1 SSTORE POP PUSH0 DUP2 DUP2 SLOAD DUP2 LT PUSH2 0xB52 JUMPI PUSH2 0xB51 PUSH2 0x182B JUMP JUMPDEST JUMPDEST SWAP1 PUSH0 MSTORE PUSH1 0x20 PUSH0 KECCAK256 SWAP1 PUSH1 0x5 MUL ADD PUSH1 0x1 PUSH1 0x16 SLOAD PUSH1 0x4 DUP2 LT PUSH2 0xB74 JUMPI PUSH2 0xB73 PUSH2 0x182B JUMP JUMPDEST JUMPDEST PUSH1 0x5 MUL ADD PUSH0 DUP3 ADD SLOAD DUP2 PUSH0 ADD SSTORE PUSH1 0x1 DUP3 ADD DUP2 PUSH1 0x1 ADD SWAP1 DUP2 PUSH2 0xB94 SWAP2 SWAP1 PUSH2 0x1E54 JUMP JUMPDEST POP PUSH1 0x2 DUP3 ADD PUSH0 SWAP1 SLOAD SWAP1 PUSH2 0x100 EXP SWAP1 DIV PUSH20 0xFFFFFFFFFFFFFFFFFFFFFFFFFFFFFFFFFFFFFFFF AND DUP2 PUSH1 0x2 ADD PUSH0 PUSH2 0x100 EXP DUP2 SLOAD DUP2 PUSH20 0xFFFFFFFFFFFFFFFFFFFFFFFFFFFFFFFFFFFFFFFF MUL NOT AND SWAP1 DUP4 PUSH20 0xFFFFFFFFFFFFFFFFFFFFFFFFFFFFFFFFFFFFFFFF AND MUL OR SWAP1 SSTORE POP PUSH1 0x3 DUP3 ADD SLOAD DUP2 PUSH1 0x3 ADD SSTORE PUSH1 0x4 DUP3 ADD SLOAD DUP2 PUSH1 0x4 ADD SSTORE SWAP1 POP POP PUSH1 0x16 PUSH0 DUP2 SLOAD DUP1 SWAP3 SWAP2 SWAP1 PUSH2 0xC23 SWAP1 PUSH2 0x1D90 JUMP JUMPDEST SWAP2 SWAP1 POP SSTORE POP PUSH2 0xC3A JUMP JUMPDEST DUP1 DUP1 PUSH1 0x1 ADD SWAP2 POP POP PUSH2 0xA10 JUMP JUMPDEST POP PUSH1 0x4 PUSH1 0x16 SLOAD SUB PUSH2 0xC56 JUMPI PUSH2 0xC4D PUSH2 0xE8E JUMP JUMPDEST PUSH2 0xC55 PUSH2 0xFF0 JUMP JUMPDEST JUMPDEST POP POP JUMP JUMPDEST PUSH2 0xC62 PUSH2 0x10B7 JUMP JUMPDEST PUSH1 0x1 PUSH1 0x4 DUP1 PUSH1 0x20 MUL PUSH1 0x40 MLOAD SWAP1 DUP2 ADD PUSH1 0x40 MSTORE DUP1 SWAP3 SWAP2 SWAP1 PUSH0 SWAP1 JUMPDEST DUP3 DUP3 LT ISZERO PUSH2 0xDA4 JUMPI DUP4 DUP3 PUSH1 0x5 MUL ADD PUSH1 0x40 MLOAD DUP1 PUSH1 0xA0 ADD PUSH1 0x40 MSTORE SWAP1 DUP2 PUSH0 DUP3 ADD SLOAD DUP2 MSTORE PUSH1 0x20 ADD PUSH1 0x1 DUP3 ADD DUP1 SLOAD PUSH2 0xCAC SWAP1 PUSH2 0x17AB JUMP JUMPDEST DUP1 PUSH1 0x1F ADD PUSH1 0x20 DUP1 SWAP2 DIV MUL PUSH1 0x20 ADD PUSH1 0x40 MLOAD SWAP1 DUP2 ADD PUSH1 0x40 MSTORE DUP1 SWAP3 SWAP2 SWAP1 DUP2 DUP2 MSTORE PUSH1 0x20 ADD DUP3 DUP1 SLOAD PUSH2 0xCD8 SWAP1 PUSH2 0x17AB JUMP JUMPDEST DUP1 ISZERO PUSH2 0xD23 JUMPI DUP1 PUSH1 0x1F LT PUSH2 0xCFA JUMPI PUSH2 0x100 DUP1 DUP4 SLOAD DIV MUL DUP4 MSTORE SWAP2 PUSH1 0x20 ADD SWAP2 PUSH2 0xD23 JUMP JUMPDEST DUP3 ADD SWAP2 SWAP1 PUSH0 MSTORE PUSH1 0x20 PUSH0 KECCAK256 SWAP1 JUMPDEST DUP2 SLOAD DUP2 MSTORE SWAP1 PUSH1 0x1 ADD SWAP1 PUSH1 0x20 ADD DUP1 DUP4 GT PUSH2 0xD06 JUMPI DUP3 SWAP1 SUB PUSH1 0x1F AND DUP3 ADD SWAP2 JUMPDEST POP POP POP POP POP DUP2 MSTORE PUSH1 0x20 ADD PUSH1 0x2 DUP3 ADD PUSH0 SWAP1 SLOAD SWAP1 PUSH2 0x100 EXP SWAP1 DIV PUSH20 0xFFFFFFFFFFFFFFFFFFFFFFFFFFFFFFFFFFFFFFFF AND PUSH20 0xFFFFFFFFFFFFFFFFFFFFFFFFFFFFFFFFFFFFFFFF AND PUSH20 0xFFFFFFFFFFFFFFFFFFFFFFFFFFFFFFFFFFFFFFFF AND DUP2 MSTORE PUSH1 0x20 ADD PUSH1 0x3 DUP3 ADD SLOAD DUP2 MSTORE PUSH1 0x20 ADD PUSH1 0x4 DUP3 ADD SLOAD DUP2 MSTORE POP POP DUP2 MSTORE PUSH1 0x20 ADD SWAP1 PUSH1 0x1 ADD SWAP1 PUSH2 0xC7A JUMP JUMPDEST POP POP POP POP SWAP1 POP SWAP1 JUMP JUMPDEST PUSH0 PUSH2 0xDB7 DUP3 PUSH2 0x434 JUMP JUMPDEST SWAP1 POP PUSH0 JUMPDEST PUSH0 DUP1 SLOAD SWAP1 POP DUP2 LT ISZERO PUSH2 0xE89 JUMPI DUP2 PUSH1 0x40 ADD MLOAD PUSH20 0xFFFFFFFFFFFFFFFFFFFFFFFFFFFFFFFFFFFFFFFF AND PUSH0 DUP3 DUP2 SLOAD DUP2 LT PUSH2 0xDF5 JUMPI PUSH2 0xDF4 PUSH2 0x182B JUMP JUMPDEST JUMPDEST SWAP1 PUSH0 MSTORE PUSH1 0x20 PUSH0 KECCAK256 SWAP1 PUSH1 0x5 MUL ADD PUSH1 0x2 ADD PUSH0 SWAP1 SLOAD SWAP1 PUSH2 0x100 EXP SWAP1 DIV PUSH20 0xFFFFFFFFFFFFFFFFFFFFFFFFFFFFFFFFFFFFFFFF AND PUSH20 0xFFFFFFFFFFFFFFFFFFFFFFFFFFFFFFFFFFFFFFFF AND SUB PUSH2 0xE7C JUMPI CALLVALUE PUSH0 DUP3 DUP2 SLOAD DUP2 LT PUSH2 0xE53 JUMPI PUSH2 0xE52 PUSH2 0x182B JUMP JUMPDEST JUMPDEST SWAP1 PUSH0 MSTORE PUSH1 0x20 PUSH0 KECCAK256 SWAP1 PUSH1 0x5 MUL ADD PUSH1 0x3 ADD PUSH0 DUP3 DUP3 SLOAD PUSH2 0xE70 SWAP2 SWAP1 PUSH2 0x1F39 JUMP JUMPDEST SWAP3 POP POP DUP2 SWAP1 SSTORE POP PUSH2 0xE89 JUMP JUMPDEST DUP1 DUP1 PUSH1 0x1 ADD SWAP2 POP POP PUSH2 0xDBB JUMP JUMPDEST POP POP POP JUMP JUMPDEST PUSH0 PUSH1 0x40 MLOAD DUP1 PUSH1 0x80 ADD PUSH1 0x40 MSTORE DUP1 PUSH1 0x4 DUP2 MSTORE PUSH1 0x20 ADD PUSH1 0x3 DUP2 MSTORE PUSH1 0x20 ADD PUSH1 0x2 DUP2 MSTORE PUSH1 0x20 ADD PUSH1 0x1 DUP2 MSTORE POP SWAP1 POP PUSH0 JUMPDEST PUSH1 0x4 DUP2 LT ISZERO PUSH2 0xFEC JUMPI PUSH0 JUMPDEST PUSH0 DUP1 SLOAD SWAP1 POP DUP2 LT ISZERO PUSH2 0xFDE JUMPI PUSH1 0x1 DUP3 PUSH1 0x4 DUP2 LT PUSH2 0xEE3 JUMPI PUSH2 0xEE2 PUSH2 0x182B JUMP JUMPDEST JUMPDEST PUSH1 0x5 MUL ADD PUSH1 0x2 ADD PUSH0 SWAP1 SLOAD SWAP1 PUSH2 0x100 EXP SWAP1 DIV PUSH20 0xFFFFFFFFFFFFFFFFFFFFFFFFFFFFFFFFFFFFFFFF AND PUSH20 0xFFFFFFFFFFFFFFFFFFFFFFFFFFFFFFFFFFFFFFFF AND PUSH0 DUP3 DUP2 SLOAD DUP2 LT PUSH2 0xF33 JUMPI PUSH2 0xF32 PUSH2 0x182B JUMP JUMPDEST JUMPDEST SWAP1 PUSH0 MSTORE PUSH1 0x20 PUSH0 KECCAK256 SWAP1 PUSH1 0x5 MUL ADD PUSH1 0x2 ADD PUSH0 SWAP1 SLOAD SWAP1 PUSH2 0x100 EXP SWAP1 DIV PUSH20 0xFFFFFFFFFFFFFFFFFFFFFFFFFFFFFFFFFFFFFFFF AND PUSH20 0xFFFFFFFFFFFFFFFFFFFFFFFFFFFFFFFFFFFFFFFF AND SUB PUSH2 0xFD1 JUMPI DUP3 DUP3 PUSH1 0x4 DUP2 LT PUSH2 0xF90 JUMPI PUSH2 0xF8F PUSH2 0x182B JUMP JUMPDEST JUMPDEST PUSH1 0x20 MUL ADD MLOAD PUSH0 DUP3 DUP2 SLOAD DUP2 LT PUSH2 0xFA8 JUMPI PUSH2 0xFA7 PUSH2 0x182B JUMP JUMPDEST JUMPDEST SWAP1 PUSH0 MSTORE PUSH1 0x20 PUSH0 KECCAK256 SWAP1 PUSH1 0x5 MUL ADD PUSH1 0x4 ADD PUSH0 DUP3 DUP3 SLOAD PUSH2 0xFC5 SWAP2 SWAP1 PUSH2 0x1F39 JUMP JUMPDEST SWAP3 POP POP DUP2 SWAP1 SSTORE POP PUSH2 0xFDE JUMP JUMPDEST DUP1 DUP1 PUSH1 0x1 ADD SWAP2 POP POP PUSH2 0xEC3 JUMP JUMPDEST POP DUP1 DUP1 PUSH1 0x1 ADD SWAP2 POP POP PUSH2 0xEB8 JUMP JUMPDEST POP POP JUMP JUMPDEST PUSH0 JUMPDEST PUSH1 0x4 DUP2 LT ISZERO PUSH2 0x106C JUMPI PUSH1 0x1 DUP2 PUSH1 0x4 DUP2 LT PUSH2 0x100F JUMPI PUSH2 0x100E PUSH2 0x182B JUMP JUMPDEST JUMPDEST PUSH1 0x5 MUL ADD PUSH0 DUP1 DUP3 ADD PUSH0 SWAP1 SSTORE PUSH1 0x1 DUP3 ADD PUSH0 PUSH2 0x1029 SWAP2 SWAP1 PUSH2 0x10E4 JUMP JUMPDEST PUSH1 0x2 DUP3 ADD PUSH0 PUSH2 0x100 EXP DUP2 SLOAD SWAP1 PUSH20 0xFFFFFFFFFFFFFFFFFFFFFFFFFFFFFFFFFFFFFFFF MUL NOT AND SWAP1 SSTORE PUSH1 0x3 DUP3 ADD PUSH0 SWAP1 SSTORE PUSH1 0x4 DUP3 ADD PUSH0 SWAP1 SSTORE POP POP DUP1 DUP1 PUSH1 0x1 ADD SWAP2 POP POP PUSH2 0xFF2 JUMP JUMPDEST POP PUSH0 PUSH1 0x16 DUP2 SWAP1 SSTORE POP JUMP JUMPDEST PUSH1 0x40 MLOAD DUP1 PUSH1 0xA0 ADD PUSH1 0x40 MSTORE DUP1 PUSH0 DUP2 MSTORE PUSH1 0x20 ADD PUSH1 0x60 DUP2 MSTORE PUSH1 0x20 ADD PUSH0 PUSH20 0xFFFFFFFFFFFFFFFFFFFFFFFFFFFFFFFFFFFFFFFF AND DUP2 MSTORE PUSH1 0x20 ADD PUSH0 DUP2 MSTORE PUSH1 0x20 ADD PUSH0 DUP2 MSTORE POP SWAP1 JUMP JUMPDEST PUSH1 0x40 MLOAD DUP1 PUSH1 0x80 ADD PUSH1 0x40 MSTORE DUP1 PUSH1 0x4 SWAP1 JUMPDEST PUSH2 0x10CE PUSH2 0x1076 JUMP JUMPDEST DUP2 MSTORE PUSH1 0x20 ADD SWAP1 PUSH1 0x1 SWAP1 SUB SWAP1 DUP2 PUSH2 0x10C6 JUMPI SWAP1 POP POP SWAP1 JUMP JUMPDEST POP DUP1 SLOAD PUSH2 0x10F0 SWAP1 PUSH2 0x17AB JUMP JUMPDEST PUSH0 DUP3 SSTORE DUP1 PUSH1 0x1F LT PUSH2 0x1101 JUMPI POP PUSH2 0x111E JUMP JUMPDEST PUSH1 0x1F ADD PUSH1 0x20 SWAP1 DIV SWAP1 PUSH0 MSTORE PUSH1 0x20 PUSH0 KECCAK256 SWAP1 DUP2 ADD SWAP1 PUSH2 0x111D SWAP2 SWAP1 PUSH2 0x1121 JUMP JUMPDEST JUMPDEST POP JUMP JUMPDEST JUMPDEST DUP1 DUP3 GT ISZERO PUSH2 0x1138 JUMPI PUSH0 DUP2 PUSH0 SWAP1 SSTORE POP PUSH1 0x1 ADD PUSH2 0x1122 JUMP JUMPDEST POP SWAP1 JUMP JUMPDEST PUSH0 PUSH1 0x40 MLOAD SWAP1 POP SWAP1 JUMP JUMPDEST PUSH0 DUP1 REVERT JUMPDEST PUSH0 DUP1 REVERT JUMPDEST PUSH0 DUP2 SWAP1 POP SWAP2 SWAP1 POP JUMP JUMPDEST PUSH2 0x115F DUP2 PUSH2 0x114D JUMP JUMPDEST DUP2 EQ PUSH2 0x1169 JUMPI PUSH0 DUP1 REVERT JUMPDEST POP JUMP JUMPDEST PUSH0 DUP2 CALLDATALOAD SWAP1 POP PUSH2 0x117A DUP2 PUSH2 0x1156 JUMP JUMPDEST SWAP3 SWAP2 POP POP JUMP JUMPDEST PUSH0 PUSH1 0x20 DUP3 DUP5 SUB SLT ISZERO PUSH2 0x1195 JUMPI PUSH2 0x1194 PUSH2 0x1145 JUMP JUMPDEST JUMPDEST PUSH0 PUSH2 0x11A2 DUP5 DUP3 DUP6 ADD PUSH2 0x116C JUMP JUMPDEST SWAP2 POP POP SWAP3 SWAP2 POP POP JUMP JUMPDEST PUSH2 0x11B4 DUP2 PUSH2 0x114D JUMP JUMPDEST DUP3 MSTORE POP POP JUMP JUMPDEST PUSH0 DUP2 MLOAD SWAP1 POP SWAP2 SWAP1 POP JUMP JUMPDEST PUSH0 DUP3 DUP3 MSTORE PUSH1 0x20 DUP3 ADD SWAP1 POP SWAP3 SWAP2 POP POP JUMP JUMPDEST DUP3 DUP2 DUP4 MCOPY PUSH0 DUP4 DUP4 ADD MSTORE POP POP POP JUMP JUMPDEST PUSH0 PUSH1 0x1F NOT PUSH1 0x1F DUP4 ADD AND SWAP1 POP SWAP2 SWAP1 POP JUMP JUMPDEST PUSH0 PUSH2 0x11FC DUP3 PUSH2 0x11BA JUMP JUMPDEST PUSH2 0x1206 DUP2 DUP6 PUSH2 0x11C4 JUMP JUMPDEST SWAP4 POP PUSH2 0x1216 DUP2 DUP6 PUSH1 0x20 DUP7 ADD PUSH2 0x11D4 JUMP JUMPDEST PUSH2 0x121F DUP2 PUSH2 0x11E2 JUMP JUMPDEST DUP5 ADD SWAP2 POP POP SWAP3 SWAP2 POP POP JUMP JUMPDEST PUSH0 PUSH20 0xFFFFFFFFFFFFFFFFFFFFFFFFFFFFFFFFFFFFFFFF DUP3 AND SWAP1 POP SWAP2 SWAP1 POP JUMP JUMPDEST PUSH0 PUSH2 0x1253 DUP3 PUSH2 0x122A JUMP JUMPDEST SWAP1 POP SWAP2 SWAP1 POP JUMP JUMPDEST PUSH2 0x1263 DUP2 PUSH2 0x1249 JUMP JUMPDEST DUP3 MSTORE POP POP JUMP JUMPDEST PUSH0 PUSH1 0xA0 DUP3 ADD SWAP1 POP PUSH2 0x127C PUSH0 DUP4 ADD DUP9 PUSH2 0x11AB JUMP JUMPDEST DUP2 DUP2 SUB PUSH1 0x20 DUP4 ADD MSTORE PUSH2 0x128E DUP2 DUP8 PUSH2 0x11F2 JUMP JUMPDEST SWAP1 POP PUSH2 0x129D PUSH1 0x40 DUP4 ADD DUP7 PUSH2 0x125A JUMP JUMPDEST PUSH2 0x12AA PUSH1 0x60 DUP4 ADD DUP6 PUSH2 0x11AB JUMP JUMPDEST PUSH2 0x12B7 PUSH1 0x80 DUP4 ADD DUP5 PUSH2 0x11AB JUMP JUMPDEST SWAP7 SWAP6 POP POP POP POP POP POP JUMP JUMPDEST PUSH0 DUP1 REVERT JUMPDEST PUSH0 DUP1 REVERT JUMPDEST PUSH32 0x4E487B7100000000000000000000000000000000000000000000000000000000 PUSH0 MSTORE PUSH1 0x41 PUSH1 0x4 MSTORE PUSH1 0x24 PUSH0 REVERT JUMPDEST PUSH2 0x12FF DUP3 PUSH2 0x11E2 JUMP JUMPDEST DUP2 ADD DUP2 DUP2 LT PUSH8 0xFFFFFFFFFFFFFFFF DUP3 GT OR ISZERO PUSH2 0x131E JUMPI PUSH2 0x131D PUSH2 0x12C9 JUMP JUMPDEST JUMPDEST DUP1 PUSH1 0x40 MSTORE POP POP POP JUMP JUMPDEST PUSH0 PUSH2 0x1330 PUSH2 0x113C JUMP JUMPDEST SWAP1 POP PUSH2 0x133C DUP3 DUP3 PUSH2 0x12F6 JUMP JUMPDEST SWAP2 SWAP1 POP JUMP JUMPDEST PUSH0 PUSH8 0xFFFFFFFFFFFFFFFF DUP3 GT ISZERO PUSH2 0x135B JUMPI PUSH2 0x135A PUSH2 0x12C9 JUMP JUMPDEST JUMPDEST PUSH2 0x1364 DUP3 PUSH2 0x11E2 JUMP JUMPDEST SWAP1 POP PUSH1 0x20 DUP2 ADD SWAP1 POP SWAP2 SWAP1 POP JUMP JUMPDEST DUP3 DUP2 DUP4 CALLDATACOPY PUSH0 DUP4 DUP4 ADD MSTORE POP POP POP JUMP JUMPDEST PUSH0 PUSH2 0x1391 PUSH2 0x138C DUP5 PUSH2 0x1341 JUMP JUMPDEST PUSH2 0x1327 JUMP JUMPDEST SWAP1 POP DUP3 DUP2 MSTORE PUSH1 0x20 DUP2 ADD DUP5 DUP5 DUP5 ADD GT ISZERO PUSH2 0x13AD JUMPI PUSH2 0x13AC PUSH2 0x12C5 JUMP JUMPDEST JUMPDEST PUSH2 0x13B8 DUP5 DUP3 DUP6 PUSH2 0x1371 JUMP JUMPDEST POP SWAP4 SWAP3 POP POP POP JUMP JUMPDEST PUSH0 DUP3 PUSH1 0x1F DUP4 ADD SLT PUSH2 0x13D4 JUMPI PUSH2 0x13D3 PUSH2 0x12C1 JUMP JUMPDEST JUMPDEST DUP2 CALLDATALOAD PUSH2 0x13E4 DUP5 DUP3 PUSH1 0x20 DUP7 ADD PUSH2 0x137F JUMP JUMPDEST SWAP2 POP POP SWAP3 SWAP2 POP POP JUMP JUMPDEST PUSH0 PUSH1 0x20 DUP3 DUP5 SUB SLT ISZERO PUSH2 0x1402 JUMPI PUSH2 0x1401 PUSH2 0x1145 JUMP JUMPDEST JUMPDEST PUSH0 DUP3 ADD CALLDATALOAD PUSH8 0xFFFFFFFFFFFFFFFF DUP2 GT ISZERO PUSH2 0x141F JUMPI PUSH2 0x141E PUSH2 0x1149 JUMP JUMPDEST JUMPDEST PUSH2 0x142B DUP5 DUP3 DUP6 ADD PUSH2 0x13C0 JUMP JUMPDEST SWAP2 POP POP SWAP3 SWAP2 POP POP JUMP JUMPDEST PUSH2 0x143D DUP2 PUSH2 0x114D JUMP JUMPDEST DUP3 MSTORE POP POP JUMP JUMPDEST PUSH0 DUP3 DUP3 MSTORE PUSH1 0x20 DUP3 ADD SWAP1 POP SWAP3 SWAP2 POP POP JUMP JUMPDEST PUSH0 PUSH2 0x145D DUP3 PUSH2 0x11BA JUMP JUMPDEST PUSH2 0x1467 DUP2 DUP6 PUSH2 0x1443 JUMP JUMPDEST SWAP4 POP PUSH2 0x1477 DUP2 DUP6 PUSH1 0x20 DUP7 ADD PUSH2 0x11D4 JUMP JUMPDEST PUSH2 0x1480 DUP2 PUSH2 0x11E2 JUMP JUMPDEST DUP5 ADD SWAP2 POP POP SWAP3 SWAP2 POP POP JUMP JUMPDEST PUSH2 0x1494 DUP2 PUSH2 0x1249 JUMP JUMPDEST DUP3 MSTORE POP POP JUMP JUMPDEST PUSH0 PUSH1 0xA0 DUP4 ADD PUSH0 DUP4 ADD MLOAD PUSH2 0x14AF PUSH0 DUP7 ADD DUP3 PUSH2 0x1434 JUMP JUMPDEST POP PUSH1 0x20 DUP4 ADD MLOAD DUP5 DUP3 SUB PUSH1 0x20 DUP7 ADD MSTORE PUSH2 0x14C7 DUP3 DUP3 PUSH2 0x1453 JUMP JUMPDEST SWAP2 POP POP PUSH1 0x40 DUP4 ADD MLOAD PUSH2 0x14DC PUSH1 0x40 DUP7 ADD DUP3 PUSH2 0x148B JUMP JUMPDEST POP PUSH1 0x60 DUP4 ADD MLOAD PUSH2 0x14EF PUSH1 0x60 DUP7 ADD DUP3 PUSH2 0x1434 JUMP JUMPDEST POP PUSH1 0x80 DUP4 ADD MLOAD PUSH2 0x1502 PUSH1 0x80 DUP7 ADD DUP3 PUSH2 0x1434 JUMP JUMPDEST POP DUP1 SWAP2 POP POP SWAP3 SWAP2 POP POP JUMP JUMPDEST PUSH0 PUSH1 0x20 DUP3 ADD SWAP1 POP DUP2 DUP2 SUB PUSH0 DUP4 ADD MSTORE PUSH2 0x1525 DUP2 DUP5 PUSH2 0x149A JUMP JUMPDEST SWAP1 POP SWAP3 SWAP2 POP POP JUMP JUMPDEST PUSH0 PUSH1 0x20 DUP3 ADD SWAP1 POP PUSH2 0x1540 PUSH0 DUP4 ADD DUP5 PUSH2 0x11AB JUMP JUMPDEST SWAP3 SWAP2 POP POP JUMP JUMPDEST PUSH0 PUSH1 0x4 SWAP1 POP SWAP2 SWAP1 POP JUMP JUMPDEST PUSH0 DUP2 SWAP1 POP SWAP3 SWAP2 POP POP JUMP JUMPDEST PUSH0 DUP2 SWAP1 POP SWAP2 SWAP1 POP JUMP JUMPDEST PUSH0 PUSH1 0xA0 DUP4 ADD PUSH0 DUP4 ADD MLOAD PUSH2 0x1578 PUSH0 DUP7 ADD DUP3 PUSH2 0x1434 JUMP JUMPDEST POP PUSH1 0x20 DUP4 ADD MLOAD DUP5 DUP3 SUB PUSH1 0x20 DUP7 ADD MSTORE PUSH2 0x1590 DUP3 DUP3 PUSH2 0x1453 JUMP JUMPDEST SWAP2 POP POP PUSH1 0x40 DUP4 ADD MLOAD PUSH2 0x15A5 PUSH1 0x40 DUP7 ADD DUP3 PUSH2 0x148B JUMP JUMPDEST POP PUSH1 0x60 DUP4 ADD MLOAD PUSH2 0x15B8 PUSH1 0x60 DUP7 ADD DUP3 PUSH2 0x1434 JUMP JUMPDEST POP PUSH1 0x80 DUP4 ADD MLOAD PUSH2 0x15CB PUSH1 0x80 DUP7 ADD DUP3 PUSH2 0x1434 JUMP JUMPDEST POP DUP1 SWAP2 POP POP SWAP3 SWAP2 POP POP JUMP JUMPDEST PUSH0 PUSH2 0x15E1 DUP4 DUP4 PUSH2 0x1563 JUMP JUMPDEST SWAP1 POP SWAP3 SWAP2 POP POP JUMP JUMPDEST PUSH0 PUSH1 0x20 DUP3 ADD SWAP1 POP SWAP2 SWAP1 POP JUMP JUMPDEST PUSH0 PUSH2 0x15FF DUP3 PUSH2 0x1546 JUMP JUMPDEST PUSH2 0x1609 DUP2 DUP6 PUSH2 0x1550 JUMP JUMPDEST SWAP4 POP DUP4 PUSH1 0x20 DUP3 MUL DUP6 ADD PUSH2 0x161B DUP6 PUSH2 0x155A JUMP JUMPDEST DUP1 PUSH0 JUMPDEST DUP6 DUP2 LT ISZERO PUSH2 0x1656 JUMPI DUP5 DUP5 SUB DUP10 MSTORE DUP2 MLOAD PUSH2 0x1637 DUP6 DUP3 PUSH2 0x15D6 JUMP JUMPDEST SWAP5 POP PUSH2 0x1642 DUP4 PUSH2 0x15E9 JUMP JUMPDEST SWAP3 POP PUSH1 0x20 DUP11 ADD SWAP10 POP POP PUSH1 0x1 DUP2 ADD SWAP1 POP PUSH2 0x161E JUMP JUMPDEST POP DUP3 SWAP8 POP DUP8 SWAP6 POP POP POP POP POP POP SWAP3 SWAP2 POP POP JUMP JUMPDEST PUSH0 PUSH1 0x20 DUP3 ADD SWAP1 POP DUP2 DUP2 SUB PUSH0 DUP4 ADD MSTORE PUSH2 0x1680 DUP2 DUP5 PUSH2 0x15F5 JUMP JUMPDEST SWAP1 POP SWAP3 SWAP2 POP POP JUMP JUMPDEST PUSH32 0x4F6E6C792061646D696E2063616E20706572666F726D20746869732061637469 PUSH0 DUP3 ADD MSTORE PUSH32 0x6F6E000000000000000000000000000000000000000000000000000000000000 PUSH1 0x20 DUP3 ADD MSTORE POP JUMP JUMPDEST PUSH0 PUSH2 0x16E2 PUSH1 0x22 DUP4 PUSH2 0x11C4 JUMP JUMPDEST SWAP2 POP PUSH2 0x16ED DUP3 PUSH2 0x1688 JUMP JUMPDEST PUSH1 0x40 DUP3 ADD SWAP1 POP SWAP2 SWAP1 POP JUMP JUMPDEST PUSH0 PUSH1 0x20 DUP3 ADD SWAP1 POP DUP2 DUP2 SUB PUSH0 DUP4 ADD MSTORE PUSH2 0x170F DUP2 PUSH2 0x16D6 JUMP JUMPDEST SWAP1 POP SWAP2 SWAP1 POP JUMP JUMPDEST PUSH32 0x436F6E74726163742068617320696E73756666696369656E742066756E647300 PUSH0 DUP3 ADD MSTORE POP JUMP JUMPDEST PUSH0 PUSH2 0x174A PUSH1 0x1F DUP4 PUSH2 0x11C4 JUMP JUMPDEST SWAP2 POP PUSH2 0x1755 DUP3 PUSH2 0x1716 JUMP JUMPDEST PUSH1 0x20 DUP3 ADD SWAP1 POP SWAP2 SWAP1 POP JUMP JUMPDEST PUSH0 PUSH1 0x20 DUP3 ADD SWAP1 POP DUP2 DUP2 SUB PUSH0 DUP4 ADD MSTORE PUSH2 0x1777 DUP2 PUSH2 0x173E JUMP JUMPDEST SWAP1 POP SWAP2 SWAP1 POP JUMP JUMPDEST PUSH32 0x4E487B7100000000000000000000000000000000000000000000000000000000 PUSH0 MSTORE PUSH1 0x22 PUSH1 0x4 MSTORE PUSH1 0x24 PUSH0 REVERT JUMPDEST PUSH0 PUSH1 0x2 DUP3 DIV SWAP1 POP PUSH1 0x1 DUP3 AND DUP1 PUSH2 0x17C2 JUMPI PUSH1 0x7F DUP3 AND SWAP2 POP JUMPDEST PUSH1 0x20 DUP3 LT DUP2 SUB PUSH2 0x17D5 JUMPI PUSH2 0x17D4 PUSH2 0x177E JUMP JUMPDEST JUMPDEST POP SWAP2 SWAP1 POP JUMP JUMPDEST PUSH0 DUP2 SWAP1 POP SWAP3 SWAP2 POP POP JUMP JUMPDEST PUSH0 PUSH2 0x17EF DUP3 PUSH2 0x11BA JUMP JUMPDEST PUSH2 0x17F9 DUP2 DUP6 PUSH2 0x17DB JUMP JUMPDEST SWAP4 POP PUSH2 0x1809 DUP2 DUP6 PUSH1 0x20 DUP7 ADD PUSH2 0x11D4 JUMP JUMPDEST DUP1 DUP5 ADD SWAP2 POP POP SWAP3 SWAP2 POP POP JUMP JUMPDEST PUSH0 PUSH2 0x1820 DUP3 DUP5 PUSH2 0x17E5 JUMP JUMPDEST SWAP2 POP DUP2 SWAP1 POP SWAP3 SWAP2 POP POP JUMP JUMPDEST PUSH32 0x4E487B7100000000000000000000000000000000000000000000000000000000 PUSH0 MSTORE PUSH1 0x32 PUSH1 0x4 MSTORE PUSH1 0x24 PUSH0 REVERT JUMPDEST PUSH0 DUP2 SWAP1 POP DUP2 PUSH0 MSTORE PUSH1 0x20 PUSH0 KECCAK256 SWAP1 POP SWAP2 SWAP1 POP JUMP JUMPDEST PUSH0 DUP2 SLOAD PUSH2 0x1876 DUP2 PUSH2 0x17AB JUMP JUMPDEST PUSH2 0x1880 DUP2 DUP7 PUSH2 0x17DB JUMP JUMPDEST SWAP5 POP PUSH1 0x1 DUP3 AND PUSH0 DUP2 EQ PUSH2 0x189A JUMPI PUSH1 0x1 DUP2 EQ PUSH2 0x18AF JUMPI PUSH2 0x18E1 JUMP JUMPDEST PUSH1 0xFF NOT DUP4 AND DUP7 MSTORE DUP2 ISZERO ISZERO DUP3 MUL DUP7 ADD SWAP4 POP PUSH2 0x18E1 JUMP JUMPDEST PUSH2 0x18B8 DUP6 PUSH2 0x1858 JUMP JUMPDEST PUSH0 JUMPDEST DUP4 DUP2 LT ISZERO PUSH2 0x18D9 JUMPI DUP2 SLOAD DUP2 DUP10 ADD MSTORE PUSH1 0x1 DUP3 ADD SWAP2 POP PUSH1 0x20 DUP2 ADD SWAP1 POP PUSH2 0x18BA JUMP JUMPDEST DUP4 DUP9 ADD SWAP6 POP POP POP JUMPDEST POP POP POP SWAP3 SWAP2 POP POP JUMP JUMPDEST PUSH0 PUSH2 0x18F5 DUP3 DUP5 PUSH2 0x186A JUMP JUMPDEST SWAP2 POP DUP2 SWAP1 POP SWAP3 SWAP2 POP POP JUMP JUMPDEST PUSH32 0x55736572206E6F7420666F756E64000000000000000000000000000000000000 PUSH0 DUP3 ADD MSTORE POP JUMP JUMPDEST PUSH0 PUSH2 0x1934 PUSH1 0xE DUP4 PUSH2 0x11C4 JUMP JUMPDEST SWAP2 POP PUSH2 0x193F DUP3 PUSH2 0x1900 JUMP JUMPDEST PUSH1 0x20 DUP3 ADD SWAP1 POP SWAP2 SWAP1 POP JUMP JUMPDEST PUSH0 PUSH1 0x20 DUP3 ADD SWAP1 POP DUP2 DUP2 SUB PUSH0 DUP4 ADD MSTORE PUSH2 0x1961 DUP2 PUSH2 0x1928 JUMP JUMPDEST SWAP1 POP SWAP2 SWAP1 POP JUMP JUMPDEST PUSH32 0x4E487B7100000000000000000000000000000000000000000000000000000000 PUSH0 MSTORE PUSH1 0x12 PUSH1 0x4 MSTORE PUSH1 0x24 PUSH0 REVERT JUMPDEST PUSH32 0x4E487B7100000000000000000000000000000000000000000000000000000000 PUSH0 MSTORE PUSH1 0x11 PUSH1 0x4 MSTORE PUSH1 0x24 PUSH0 REVERT JUMPDEST PUSH0 PUSH2 0x19CC DUP3 PUSH2 0x114D JUMP JUMPDEST SWAP2 POP PUSH2 0x19D7 DUP4 PUSH2 0x114D JUMP JUMPDEST SWAP3 POP DUP3 PUSH2 0x19E7 JUMPI PUSH2 0x19E6 PUSH2 0x1968 JUMP JUMPDEST JUMPDEST DUP3 DUP3 DIV SWAP1 POP SWAP3 SWAP2 POP POP JUMP JUMPDEST PUSH0 PUSH2 0x19FC DUP3 PUSH2 0x114D JUMP JUMPDEST SWAP2 POP PUSH2 0x1A07 DUP4 PUSH2 0x114D JUMP JUMPDEST SWAP3 POP DUP3 DUP3 MUL PUSH2 0x1A15 DUP2 PUSH2 0x114D JUMP JUMPDEST SWAP2 POP DUP3 DUP3 DIV DUP5 EQ DUP4 ISZERO OR PUSH2 0x1A2C JUMPI PUSH2 0x1A2B PUSH2 0x1995 JUMP JUMPDEST JUMPDEST POP SWAP3 SWAP2 POP POP JUMP JUMPDEST PUSH32 0x4E6F7420656E6F7567682073636F726520746F20636F6E766572740000000000 PUSH0 DUP3 ADD MSTORE POP JUMP JUMPDEST PUSH0 PUSH2 0x1A67 PUSH1 0x1B DUP4 PUSH2 0x11C4 JUMP JUMPDEST SWAP2 POP PUSH2 0x1A72 DUP3 PUSH2 0x1A33 JUMP JUMPDEST PUSH1 0x20 DUP3 ADD SWAP1 POP SWAP2 SWAP1 POP JUMP JUMPDEST PUSH0 PUSH1 0x20 DUP3 ADD SWAP1 POP DUP2 DUP2 SUB PUSH0 DUP4 ADD MSTORE PUSH2 0x1A94 DUP2 PUSH2 0x1A5B JUMP JUMPDEST SWAP1 POP SWAP2 SWAP1 POP JUMP JUMPDEST PUSH0 PUSH2 0x1AA5 DUP3 PUSH2 0x114D JUMP JUMPDEST SWAP2 POP PUSH2 0x1AB0 DUP4 PUSH2 0x114D JUMP JUMPDEST SWAP3 POP DUP3 DUP3 SUB SWAP1 POP DUP2 DUP2 GT ISZERO PUSH2 0x1AC8 JUMPI PUSH2 0x1AC7 PUSH2 0x1995 JUMP JUMPDEST JUMPDEST SWAP3 SWAP2 POP POP JUMP JUMPDEST PUSH32 0x416C726561647920696E20757365000000000000000000000000000000000000 PUSH0 DUP3 ADD MSTORE POP JUMP JUMPDEST PUSH0 PUSH2 0x1B02 PUSH1 0xE DUP4 PUSH2 0x11C4 JUMP JUMPDEST SWAP2 POP PUSH2 0x1B0D DUP3 PUSH2 0x1ACE JUMP JUMPDEST PUSH1 0x20 DUP3 ADD SWAP1 POP SWAP2 SWAP1 POP JUMP JUMPDEST PUSH0 PUSH1 0x20 DUP3 ADD SWAP1 POP DUP2 DUP2 SUB PUSH0 DUP4 ADD MSTORE PUSH2 0x1B2F DUP2 PUSH2 0x1AF6 JUMP JUMPDEST SWAP1 POP SWAP2 SWAP1 POP JUMP JUMPDEST PUSH0 PUSH1 0x20 PUSH1 0x1F DUP4 ADD DIV SWAP1 POP SWAP2 SWAP1 POP JUMP JUMPDEST PUSH0 DUP3 DUP3 SHL SWAP1 POP SWAP3 SWAP2 POP POP JUMP JUMPDEST PUSH0 PUSH1 0x8 DUP4 MUL PUSH2 0x1B80 PUSH32 0xFFFFFFFFFFFFFFFFFFFFFFFFFFFFFFFFFFFFFFFFFFFFFFFFFFFFFFFFFFFFFFFF DUP3 PUSH2 0x1B45 JUMP JUMPDEST PUSH2 0x1B8A DUP7 DUP4 PUSH2 0x1B45 JUMP JUMPDEST SWAP6 POP DUP1 NOT DUP5 AND SWAP4 POP DUP1 DUP7 AND DUP5 OR SWAP3 POP POP POP SWAP4 SWAP3 POP POP POP JUMP JUMPDEST PUSH0 DUP2 SWAP1 POP SWAP2 SWAP1 POP JUMP JUMPDEST PUSH0 PUSH2 0x1BC5 PUSH2 0x1BC0 PUSH2 0x1BBB DUP5 PUSH2 0x114D JUMP JUMPDEST PUSH2 0x1BA2 JUMP JUMPDEST PUSH2 0x114D JUMP JUMPDEST SWAP1 POP SWAP2 SWAP1 POP JUMP JUMPDEST PUSH0 DUP2 SWAP1 POP SWAP2 SWAP1 POP JUMP JUMPDEST PUSH2 0x1BDE DUP4 PUSH2 0x1BAB JUMP JUMPDEST PUSH2 0x1BF2 PUSH2 0x1BEA DUP3 PUSH2 0x1BCC JUMP JUMPDEST DUP5 DUP5 SLOAD PUSH2 0x1B51 JUMP JUMPDEST DUP3 SSTORE POP POP POP POP JUMP JUMPDEST PUSH0 SWAP1 JUMP JUMPDEST PUSH2 0x1C06 PUSH2 0x1BFA JUMP JUMPDEST PUSH2 0x1C11 DUP2 DUP5 DUP5 PUSH2 0x1BD5 JUMP JUMPDEST POP POP POP JUMP JUMPDEST JUMPDEST DUP2 DUP2 LT ISZERO PUSH2 0x1C34 JUMPI PUSH2 0x1C29 PUSH0 DUP3 PUSH2 0x1BFE JUMP JUMPDEST PUSH1 0x1 DUP2 ADD SWAP1 POP PUSH2 0x1C17 JUMP JUMPDEST POP POP JUMP JUMPDEST PUSH1 0x1F DUP3 GT ISZERO PUSH2 0x1C79 JUMPI PUSH2 0x1C4A DUP2 PUSH2 0x1858 JUMP JUMPDEST PUSH2 0x1C53 DUP5 PUSH2 0x1B36 JUMP JUMPDEST DUP2 ADD PUSH1 0x20 DUP6 LT ISZERO PUSH2 0x1C62 JUMPI DUP2 SWAP1 POP JUMPDEST PUSH2 0x1C76 PUSH2 0x1C6E DUP6 PUSH2 0x1B36 JUMP JUMPDEST DUP4 ADD DUP3 PUSH2 0x1C16 JUMP JUMPDEST POP POP JUMPDEST POP POP POP JUMP JUMPDEST PUSH0 DUP3 DUP3 SHR SWAP1 POP SWAP3 SWAP2 POP POP JUMP JUMPDEST PUSH0 PUSH2 0x1C99 PUSH0 NOT DUP5 PUSH1 0x8 MUL PUSH2 0x1C7E JUMP JUMPDEST NOT DUP1 DUP4 AND SWAP2 POP POP SWAP3 SWAP2 POP POP JUMP JUMPDEST PUSH0 PUSH2 0x1CB1 DUP4 DUP4 PUSH2 0x1C8A JUMP JUMPDEST SWAP2 POP DUP3 PUSH1 0x2 MUL DUP3 OR SWAP1 POP SWAP3 SWAP2 POP POP JUMP JUMPDEST PUSH2 0x1CCA DUP3 PUSH2 0x11BA JUMP JUMPDEST PUSH8 0xFFFFFFFFFFFFFFFF DUP2 GT ISZERO PUSH2 0x1CE3 JUMPI PUSH2 0x1CE2 PUSH2 0x12C9 JUMP JUMPDEST JUMPDEST PUSH2 0x1CED DUP3 SLOAD PUSH2 0x17AB JUMP JUMPDEST PUSH2 0x1CF8 DUP3 DUP3 DUP6 PUSH2 0x1C38 JUMP JUMPDEST PUSH0 PUSH1 0x20 SWAP1 POP PUSH1 0x1F DUP4 GT PUSH1 0x1 DUP2 EQ PUSH2 0x1D29 JUMPI PUSH0 DUP5 ISZERO PUSH2 0x1D17 JUMPI DUP3 DUP8 ADD MLOAD SWAP1 POP JUMPDEST PUSH2 0x1D21 DUP6 DUP3 PUSH2 0x1CA6 JUMP JUMPDEST DUP7 SSTORE POP PUSH2 0x1D88 JUMP JUMPDEST PUSH1 0x1F NOT DUP5 AND PUSH2 0x1D37 DUP7 PUSH2 0x1858 JUMP JUMPDEST PUSH0 JUMPDEST DUP3 DUP2 LT ISZERO PUSH2 0x1D5E JUMPI DUP5 DUP10 ADD MLOAD DUP3 SSTORE PUSH1 0x1 DUP3 ADD SWAP2 POP PUSH1 0x20 DUP6 ADD SWAP5 POP PUSH1 0x20 DUP2 ADD SWAP1 POP PUSH2 0x1D39 JUMP JUMPDEST DUP7 DUP4 LT ISZERO PUSH2 0x1D7B JUMPI DUP5 DUP10 ADD MLOAD PUSH2 0x1D77 PUSH1 0x1F DUP10 AND DUP3 PUSH2 0x1C8A JUMP JUMPDEST DUP4 SSTORE POP JUMPDEST PUSH1 0x1 PUSH1 0x2 DUP9 MUL ADD DUP9 SSTORE POP POP POP JUMPDEST POP POP POP POP POP POP JUMP JUMPDEST PUSH0 PUSH2 0x1D9A DUP3 PUSH2 0x114D JUMP JUMPDEST SWAP2 POP PUSH32 0xFFFFFFFFFFFFFFFFFFFFFFFFFFFFFFFFFFFFFFFFFFFFFFFFFFFFFFFFFFFFFFFF DUP3 SUB PUSH2 0x1DCC JUMPI PUSH2 0x1DCB PUSH2 0x1995 JUMP JUMPDEST JUMPDEST PUSH1 0x1 DUP3 ADD SWAP1 POP SWAP2 SWAP1 POP JUMP JUMPDEST PUSH32 0x4E6F7420656E6F756768206465706F7369740000000000000000000000000000 PUSH0 DUP3 ADD MSTORE POP JUMP JUMPDEST PUSH0 PUSH2 0x1E0B PUSH1 0x12 DUP4 PUSH2 0x11C4 JUMP JUMPDEST SWAP2 POP PUSH2 0x1E16 DUP3 PUSH2 0x1DD7 JUMP JUMPDEST PUSH1 0x20 DUP3 ADD SWAP1 POP SWAP2 SWAP1 POP JUMP JUMPDEST PUSH0 PUSH1 0x20 DUP3 ADD SWAP1 POP DUP2 DUP2 SUB PUSH0 DUP4 ADD MSTORE PUSH2 0x1E38 DUP2 PUSH2 0x1DFF JUMP JUMPDEST SWAP1 POP SWAP2 SWAP1 POP JUMP JUMPDEST PUSH0 DUP2 SLOAD SWAP1 POP PUSH2 0x1E4D DUP2 PUSH2 0x17AB JUMP JUMPDEST SWAP1 POP SWAP2 SWAP1 POP JUMP JUMPDEST DUP2 DUP2 SUB PUSH2 0x1E62 JUMPI POP POP PUSH2 0x1F37 JUMP JUMPDEST PUSH2 0x1E6B DUP3 PUSH2 0x1E3F JUMP JUMPDEST PUSH8 0xFFFFFFFFFFFFFFFF DUP2 GT ISZERO PUSH2 0x1E84 JUMPI PUSH2 0x1E83 PUSH2 0x12C9 JUMP JUMPDEST JUMPDEST PUSH2 0x1E8E DUP3 SLOAD PUSH2 0x17AB JUMP JUMPDEST PUSH2 0x1E99 DUP3 DUP3 DUP6 PUSH2 0x1C38 JUMP JUMPDEST PUSH0 PUSH1 0x1F DUP4 GT PUSH1 0x1 DUP2 EQ PUSH2 0x1EC6 JUMPI PUSH0 DUP5 ISZERO PUSH2 0x1EB4 JUMPI DUP3 DUP8 ADD SLOAD SWAP1 POP JUMPDEST PUSH2 0x1EBE DUP6 DUP3 PUSH2 0x1CA6 JUMP JUMPDEST DUP7 SSTORE POP PUSH2 0x1F30 JUMP JUMPDEST PUSH1 0x1F NOT DUP5 AND PUSH2 0x1ED4 DUP8 PUSH2 0x1858 JUMP JUMPDEST SWAP7 POP PUSH2 0x1EDF DUP7 PUSH2 0x1858 JUMP JUMPDEST PUSH0 JUMPDEST DUP3 DUP2 LT ISZERO PUSH2 0x1F06 JUMPI DUP5 DUP10 ADD SLOAD DUP3 SSTORE PUSH1 0x1 DUP3 ADD SWAP2 POP PUSH1 0x1 DUP6 ADD SWAP5 POP PUSH1 0x20 DUP2 ADD SWAP1 POP PUSH2 0x1EE1 JUMP JUMPDEST DUP7 DUP4 LT ISZERO PUSH2 0x1F23 JUMPI DUP5 DUP10 ADD SLOAD PUSH2 0x1F1F PUSH1 0x1F DUP10 AND DUP3 PUSH2 0x1C8A JUMP JUMPDEST DUP4 SSTORE POP JUMPDEST PUSH1 0x1 PUSH1 0x2 DUP9 MUL ADD DUP9 SSTORE POP POP POP JUMPDEST POP POP POP POP POP POP JUMPDEST JUMP JUMPDEST PUSH0 PUSH2 0x1F43 DUP3 PUSH2 0x114D JUMP JUMPDEST SWAP2 POP PUSH2 0x1F4E DUP4 PUSH2 0x114D JUMP JUMPDEST SWAP3 POP DUP3 DUP3 ADD SWAP1 POP DUP1 DUP3 GT ISZERO PUSH2 0x1F66 JUMPI PUSH2 0x1F65 PUSH2 0x1995 JUMP JUMPDEST JUMPDEST SWAP3 SWAP2 POP POP JUMP INVALID LOG2 PUSH5 0x6970667358 0x22 SLT KECCAK256 PUSH5 0xD24ABA44EA DUP12 SWAP7 PUSH19 0x3FB176F37E923C9566ABCE0DE8744F1B24FDF0 DUP15 OR SAR PUSH26 0x64736F6C634300081A0033000000000000000000000000000000 "
				},
				"gasEstimates": {
					"creation": {
						"codeDepositCost": "1619600",
						"executionCost": "53075",
						"totalCost": "1672675"
					},
					"external": {
						"convertScoreToEth(string)": "infinite",
						"depositFunds(string)": "infinite",
						"getContractBalance()": "334",
						"getRoomStatus()": "infinite",
						"getUserByName(string)": "infinite",
						"joinGameWithDeposit(string)": "infinite",
						"registerUser(string)": "infinite",
						"users(uint256)": "infinite",
						"withdraw(uint256)": "infinite"
					},
					"internal": {
						"assignScores()": "infinite",
						"resetGameRoom()": "infinite"
					}
				},
				"methodIdentifiers": {
					"convertScoreToEth(string)": "551ba594",
					"depositFunds(string)": "a45ccbc6",
					"getContractBalance()": "6f9fb98a",
					"getRoomStatus()": "9e5a66ab",
					"getUserByName(string)": "4bff5009",
					"joinGameWithDeposit(string)": "9e2c4fb0",
					"registerUser(string)": "704f1b94",
					"users(uint256)": "365b98b2",
					"withdraw(uint256)": "2e1a7d4d"
				}
			},
			"storageLayout": {
				"storage": [
					{
						"astId": 16,
						"contract": "codingtest/codingtest_250106.sol:Game",
						"label": "users",
						"offset": 0,
						"slot": "0",
						"type": "t_array(t_struct(User)12_storage)dyn_storage"
					},
					{
						"astId": 21,
						"contract": "codingtest/codingtest_250106.sol:Game",
						"label": "gameRoom",
						"offset": 0,
						"slot": "1",
						"type": "t_array(t_struct(User)12_storage)4_storage"
					},
					{
						"astId": 24,
						"contract": "codingtest/codingtest_250106.sol:Game",
						"label": "userNum",
						"offset": 0,
						"slot": "21",
						"type": "t_uint256"
					},
					{
						"astId": 27,
						"contract": "codingtest/codingtest_250106.sol:Game",
						"label": "roomCount",
						"offset": 0,
						"slot": "22",
						"type": "t_uint256"
					},
					{
						"astId": 32,
						"contract": "codingtest/codingtest_250106.sol:Game",
						"label": "admin",
						"offset": 0,
						"slot": "23",
						"type": "t_address"
					}
				],
				"types": {
					"t_address": {
						"encoding": "inplace",
						"label": "address",
						"numberOfBytes": "20"
					},
					"t_array(t_struct(User)12_storage)4_storage": {
						"base": "t_struct(User)12_storage",
						"encoding": "inplace",
						"label": "struct Game.User[4]",
						"numberOfBytes": "640"
					},
					"t_array(t_struct(User)12_storage)dyn_storage": {
						"base": "t_struct(User)12_storage",
						"encoding": "dynamic_array",
						"label": "struct Game.User[]",
						"numberOfBytes": "32"
					},
					"t_string_storage": {
						"encoding": "bytes",
						"label": "string",
						"numberOfBytes": "32"
					},
					"t_struct(User)12_storage": {
						"encoding": "inplace",
						"label": "struct Game.User",
						"members": [
							{
								"astId": 3,
								"contract": "codingtest/codingtest_250106.sol:Game",
								"label": "number",
								"offset": 0,
								"slot": "0",
								"type": "t_uint256"
							},
							{
								"astId": 5,
								"contract": "codingtest/codingtest_250106.sol:Game",
								"label": "name",
								"offset": 0,
								"slot": "1",
								"type": "t_string_storage"
							},
							{
								"astId": 7,
								"contract": "codingtest/codingtest_250106.sol:Game",
								"label": "addr",
								"offset": 0,
								"slot": "2",
								"type": "t_address"
							},
							{
								"astId": 9,
								"contract": "codingtest/codingtest_250106.sol:Game",
								"label": "balance",
								"offset": 0,
								"slot": "3",
								"type": "t_uint256"
							},
							{
								"astId": 11,
								"contract": "codingtest/codingtest_250106.sol:Game",
								"label": "score",
								"offset": 0,
								"slot": "4",
								"type": "t_uint256"
							}
						],
						"numberOfBytes": "160"
					},
					"t_uint256": {
						"encoding": "inplace",
						"label": "uint256",
						"numberOfBytes": "32"
					}
				}
			},
			"userdoc": {
				"kind": "user",
				"methods": {},
				"version": 1
			}
		}
	}
}