{
	"codingtest/codingtest_250107.sol": {
		"LOTTO": {
			"abi": [
				{
					"inputs": [],
					"stateMutability": "nonpayable",
					"type": "constructor"
				},
				{
					"inputs": [],
					"name": "getReward",
					"outputs": [],
					"stateMutability": "nonpayable",
					"type": "function"
				},
				{
					"inputs": [
						{
							"internalType": "uint8[4]",
							"name": "userNumbers",
							"type": "uint8[4]"
						},
						{
							"internalType": "bytes1[2]",
							"name": "userLetters",
							"type": "bytes1[2]"
						}
					],
					"name": "play",
					"outputs": [],
					"stateMutability": "payable",
					"type": "function"
				},
				{
					"inputs": [
						{
							"internalType": "address",
							"name": "",
							"type": "address"
						}
					],
					"name": "rewards",
					"outputs": [
						{
							"internalType": "uint256",
							"name": "",
							"type": "uint256"
						}
					],
					"stateMutability": "view",
					"type": "function"
				}
			],
			"devdoc": {
				"kind": "dev",
				"methods": {},
				"version": 1
			},
			"evm": {
				"assembly": "    /* \"codingtest/codingtest_250107.sol\":70:3934  contract LOTTO {... */\n  mstore(0x40, 0x80)\n    /* \"codingtest/codingtest_250107.sol\":250:378  constructor() {... */\n  callvalue\n  dup1\n  iszero\n  tag_1\n  jumpi\n  0x00\n  dup1\n  revert\ntag_1:\n  pop\n    /* \"codingtest/codingtest_250107.sol\":282:292  msg.sender */\n  caller\n    /* \"codingtest/codingtest_250107.sol\":274:279  owner */\n  0x00\n  dup1\n    /* \"codingtest/codingtest_250107.sol\":274:292  owner = msg.sender */\n  0x0100\n  exp\n  dup2\n  sload\n  dup2\n  0xffffffffffffffffffffffffffffffffffffffff\n  mul\n  not\n  and\n  swap1\n  dup4\n  0xffffffffffffffffffffffffffffffffffffffff\n  and\n  mul\n  or\n  swap1\n  sstore\n  pop\n    /* \"codingtest/codingtest_250107.sol\":344:356  block.number */\n  number\n    /* \"codingtest/codingtest_250107.sol\":358:368  msg.sender */\n  caller\n    /* \"codingtest/codingtest_250107.sol\":327:369  abi.encodePacked(block.number, msg.sender) */\n  add(0x20, mload(0x40))\n  tag_4\n  swap3\n  swap2\n  swap1\n  tag_5\n  jump\t// in\ntag_4:\n  mload(0x40)\n  0x20\n  dup2\n  dup4\n  sub\n  sub\n  dup2\n  mstore\n  swap1\n  0x40\n  mstore\n    /* \"codingtest/codingtest_250107.sol\":317:370  keccak256(abi.encodePacked(block.number, msg.sender)) */\n  dup1\n  mload\n  swap1\n  0x20\n  add\n  keccak256\n    /* \"codingtest/codingtest_250107.sol\":309:371  uint256(keccak256(abi.encodePacked(block.number, msg.sender))) */\n  0x00\n  shr\n    /* \"codingtest/codingtest_250107.sol\":302:306  salt */\n  0x01\n    /* \"codingtest/codingtest_250107.sol\":302:371  salt = uint256(keccak256(abi.encodePacked(block.number, msg.sender))) */\n  dup2\n  swap1\n  sstore\n  pop\n    /* \"codingtest/codingtest_250107.sol\":70:3934  contract LOTTO {... */\n  jump(tag_6)\n    /* \"#utility.yul\":7:84   */\ntag_7:\n    /* \"#utility.yul\":44:51   */\n  0x00\n    /* \"#utility.yul\":73:78   */\n  dup2\n    /* \"#utility.yul\":62:78   */\n  swap1\n  pop\n    /* \"#utility.yul\":7:84   */\n  swap2\n  swap1\n  pop\n  jump\t// out\n    /* \"#utility.yul\":90:169   */\ntag_8:\n    /* \"#utility.yul\":129:136   */\n  0x00\n    /* \"#utility.yul\":158:163   */\n  dup2\n    /* \"#utility.yul\":147:163   */\n  swap1\n  pop\n    /* \"#utility.yul\":90:169   */\n  swap2\n  swap1\n  pop\n  jump\t// out\n    /* \"#utility.yul\":175:332   */\ntag_9:\n    /* \"#utility.yul\":280:325   */\n  tag_20\n    /* \"#utility.yul\":300:324   */\n  tag_21\n    /* \"#utility.yul\":318:323   */\n  dup3\n    /* \"#utility.yul\":300:324   */\n  tag_7\n  jump\t// in\ntag_21:\n    /* \"#utility.yul\":280:325   */\n  tag_8\n  jump\t// in\ntag_20:\n    /* \"#utility.yul\":275:278   */\n  dup3\n    /* \"#utility.yul\":268:326   */\n  mstore\n    /* \"#utility.yul\":175:332   */\n  pop\n  pop\n  jump\t// out\n    /* \"#utility.yul\":338:464   */\ntag_10:\n    /* \"#utility.yul\":375:382   */\n  0x00\n    /* \"#utility.yul\":415:457   */\n  0xffffffffffffffffffffffffffffffffffffffff\n    /* \"#utility.yul\":408:413   */\n  dup3\n    /* \"#utility.yul\":404:458   */\n  and\n    /* \"#utility.yul\":393:458   */\n  swap1\n  pop\n    /* \"#utility.yul\":338:464   */\n  swap2\n  swap1\n  pop\n  jump\t// out\n    /* \"#utility.yul\":470:566   */\ntag_11:\n    /* \"#utility.yul\":507:514   */\n  0x00\n    /* \"#utility.yul\":536:560   */\n  tag_24\n    /* \"#utility.yul\":554:559   */\n  dup3\n    /* \"#utility.yul\":536:560   */\n  tag_10\n  jump\t// in\ntag_24:\n    /* \"#utility.yul\":525:560   */\n  swap1\n  pop\n    /* \"#utility.yul\":470:566   */\n  swap2\n  swap1\n  pop\n  jump\t// out\n    /* \"#utility.yul\":572:666   */\ntag_12:\n    /* \"#utility.yul\":605:613   */\n  0x00\n    /* \"#utility.yul\":653:658   */\n  dup2\n    /* \"#utility.yul\":649:651   */\n  0x60\n    /* \"#utility.yul\":645:659   */\n  shl\n    /* \"#utility.yul\":624:659   */\n  swap1\n  pop\n    /* \"#utility.yul\":572:666   */\n  swap2\n  swap1\n  pop\n  jump\t// out\n    /* \"#utility.yul\":672:766   */\ntag_13:\n    /* \"#utility.yul\":711:718   */\n  0x00\n    /* \"#utility.yul\":740:760   */\n  tag_27\n    /* \"#utility.yul\":754:759   */\n  dup3\n    /* \"#utility.yul\":740:760   */\n  tag_12\n  jump\t// in\ntag_27:\n    /* \"#utility.yul\":729:760   */\n  swap1\n  pop\n    /* \"#utility.yul\":672:766   */\n  swap2\n  swap1\n  pop\n  jump\t// out\n    /* \"#utility.yul\":772:872   */\ntag_14:\n    /* \"#utility.yul\":811:818   */\n  0x00\n    /* \"#utility.yul\":840:866   */\n  tag_29\n    /* \"#utility.yul\":860:865   */\n  dup3\n    /* \"#utility.yul\":840:866   */\n  tag_13\n  jump\t// in\ntag_29:\n    /* \"#utility.yul\":829:866   */\n  swap1\n  pop\n    /* \"#utility.yul\":772:872   */\n  swap2\n  swap1\n  pop\n  jump\t// out\n    /* \"#utility.yul\":878:1035   */\ntag_15:\n    /* \"#utility.yul\":983:1028   */\n  tag_31\n    /* \"#utility.yul\":1003:1027   */\n  tag_32\n    /* \"#utility.yul\":1021:1026   */\n  dup3\n    /* \"#utility.yul\":1003:1027   */\n  tag_11\n  jump\t// in\ntag_32:\n    /* \"#utility.yul\":983:1028   */\n  tag_14\n  jump\t// in\ntag_31:\n    /* \"#utility.yul\":978:981   */\n  dup3\n    /* \"#utility.yul\":971:1029   */\n  mstore\n    /* \"#utility.yul\":878:1035   */\n  pop\n  pop\n  jump\t// out\n    /* \"#utility.yul\":1041:1438   */\ntag_5:\n    /* \"#utility.yul\":1181:1184   */\n  0x00\n    /* \"#utility.yul\":1196:1271   */\n  tag_34\n    /* \"#utility.yul\":1267:1270   */\n  dup3\n    /* \"#utility.yul\":1258:1264   */\n  dup6\n    /* \"#utility.yul\":1196:1271   */\n  tag_9\n  jump\t// in\ntag_34:\n    /* \"#utility.yul\":1296:1298   */\n  0x20\n    /* \"#utility.yul\":1291:1294   */\n  dup3\n    /* \"#utility.yul\":1287:1299   */\n  add\n    /* \"#utility.yul\":1280:1299   */\n  swap2\n  pop\n    /* \"#utility.yul\":1309:1384   */\n  tag_35\n    /* \"#utility.yul\":1380:1383   */\n  dup3\n    /* \"#utility.yul\":1371:1377   */\n  dup5\n    /* \"#utility.yul\":1309:1384   */\n  tag_15\n  jump\t// in\ntag_35:\n    /* \"#utility.yul\":1409:1411   */\n  0x14\n    /* \"#utility.yul\":1404:1407   */\n  dup3\n    /* \"#utility.yul\":1400:1412   */\n  add\n    /* \"#utility.yul\":1393:1412   */\n  swap2\n  pop\n    /* \"#utility.yul\":1429:1432   */\n  dup2\n    /* \"#utility.yul\":1422:1432   */\n  swap1\n  pop\n    /* \"#utility.yul\":1041:1438   */\n  swap4\n  swap3\n  pop\n  pop\n  pop\n  jump\t// out\n    /* \"codingtest/codingtest_250107.sol\":70:3934  contract LOTTO {... */\ntag_6:\n  dataSize(sub_0)\n  dup1\n  dataOffset(sub_0)\n  0x00\n  codecopy\n  0x00\n  return\nstop\n\nsub_0: assembly {\n        /* \"codingtest/codingtest_250107.sol\":70:3934  contract LOTTO {... */\n      mstore(0x40, 0x80)\n      jumpi(tag_1, lt(calldatasize, 0x04))\n      shr(0xe0, calldataload(0x00))\n      dup1\n      0x0700037d\n      eq\n      tag_2\n      jumpi\n      dup1\n      0x2f5531d9\n      eq\n      tag_3\n      jumpi\n      dup1\n      0x3d18b912\n      eq\n      tag_4\n      jumpi\n    tag_1:\n      0x00\n      dup1\n      revert\n        /* \"codingtest/codingtest_250107.sol\":201:243  mapping(address => uint256) public rewards */\n    tag_2:\n      callvalue\n      dup1\n      iszero\n      tag_5\n      jumpi\n      0x00\n      dup1\n      revert\n    tag_5:\n      pop\n      tag_6\n      0x04\n      dup1\n      calldatasize\n      sub\n      dup2\n      add\n      swap1\n      tag_7\n      swap2\n      swap1\n      tag_8\n      jump\t// in\n    tag_7:\n      tag_9\n      jump\t// in\n    tag_6:\n      mload(0x40)\n      tag_10\n      swap2\n      swap1\n      tag_11\n      jump\t// in\n    tag_10:\n      mload(0x40)\n      dup1\n      swap2\n      sub\n      swap1\n      return\n        /* \"codingtest/codingtest_250107.sol\":1072:1631  function play(uint8[4] memory userNumbers, bytes1[2] memory userLetters)... */\n    tag_3:\n      tag_12\n      0x04\n      dup1\n      calldatasize\n      sub\n      dup2\n      add\n      swap1\n      tag_13\n      swap2\n      swap1\n      tag_14\n      jump\t// in\n    tag_13:\n      tag_15\n      jump\t// in\n    tag_12:\n      stop\n        /* \"codingtest/codingtest_250107.sol\":3722:3932  function getReward() public {... */\n    tag_4:\n      callvalue\n      dup1\n      iszero\n      tag_16\n      jumpi\n      0x00\n      dup1\n      revert\n    tag_16:\n      pop\n      tag_17\n      tag_18\n      jump\t// in\n    tag_17:\n      stop\n        /* \"codingtest/codingtest_250107.sol\":201:243  mapping(address => uint256) public rewards */\n    tag_9:\n      mstore(0x20, 0x02)\n      dup1\n      0x00\n      mstore\n      keccak256(0x00, 0x40)\n      0x00\n      swap2\n      pop\n      swap1\n      pop\n      sload\n      dup2\n      jump\t// out\n        /* \"codingtest/codingtest_250107.sol\":1072:1631  function play(uint8[4] memory userNumbers, bytes1[2] memory userLetters)... */\n    tag_15:\n        /* \"codingtest/codingtest_250107.sol\":158:168  0.05 ether */\n      0xb1a2bc2ec50000\n        /* \"codingtest/codingtest_250107.sol\":1198:1207  msg.value */\n      callvalue\n        /* \"codingtest/codingtest_250107.sol\":1198:1223  msg.value == TICKET_PRICE */\n      eq\n        /* \"codingtest/codingtest_250107.sol\":1190:1254  require(msg.value == TICKET_PRICE, \"Ticket price is 0.05 ether\") */\n      tag_20\n      jumpi\n      mload(0x40)\n      0x08c379a000000000000000000000000000000000000000000000000000000000\n      dup2\n      mstore\n      0x04\n      add\n      tag_21\n      swap1\n      tag_22\n      jump\t// in\n    tag_21:\n      mload(0x40)\n      dup1\n      swap2\n      sub\n      swap1\n      revert\n    tag_20:\n        /* \"codingtest/codingtest_250107.sol\":1265:1295  uint8[4] memory winningNumbers */\n      0x00\n        /* \"codingtest/codingtest_250107.sol\":1298:1323  _generateWinningNumbers() */\n      tag_23\n        /* \"codingtest/codingtest_250107.sol\":1298:1321  _generateWinningNumbers */\n      tag_24\n        /* \"codingtest/codingtest_250107.sol\":1298:1323  _generateWinningNumbers() */\n      jump\t// in\n    tag_23:\n        /* \"codingtest/codingtest_250107.sol\":1265:1323  uint8[4] memory winningNumbers = _generateWinningNumbers() */\n      swap1\n      pop\n        /* \"codingtest/codingtest_250107.sol\":1333:1364  bytes1[2] memory winningLetters */\n      0x00\n        /* \"codingtest/codingtest_250107.sol\":1367:1392  _generateWinningLetters() */\n      tag_25\n        /* \"codingtest/codingtest_250107.sol\":1367:1390  _generateWinningLetters */\n      tag_26\n        /* \"codingtest/codingtest_250107.sol\":1367:1392  _generateWinningLetters() */\n      jump\t// in\n    tag_25:\n        /* \"codingtest/codingtest_250107.sol\":1333:1392  bytes1[2] memory winningLetters = _generateWinningLetters() */\n      swap1\n      pop\n        /* \"codingtest/codingtest_250107.sol\":1403:1418  uint256 matches */\n      0x00\n        /* \"codingtest/codingtest_250107.sol\":1421:1492  _countMatches(userNumbers, userLetters, winningNumbers, winningLetters) */\n      tag_27\n        /* \"codingtest/codingtest_250107.sol\":1435:1446  userNumbers */\n      dup6\n        /* \"codingtest/codingtest_250107.sol\":1448:1459  userLetters */\n      dup6\n        /* \"codingtest/codingtest_250107.sol\":1461:1475  winningNumbers */\n      dup6\n        /* \"codingtest/codingtest_250107.sol\":1477:1491  winningLetters */\n      dup6\n        /* \"codingtest/codingtest_250107.sol\":1421:1434  _countMatches */\n      tag_28\n        /* \"codingtest/codingtest_250107.sol\":1421:1492  _countMatches(userNumbers, userLetters, winningNumbers, winningLetters) */\n      jump\t// in\n    tag_27:\n        /* \"codingtest/codingtest_250107.sol\":1403:1492  uint256 matches = _countMatches(userNumbers, userLetters, winningNumbers, winningLetters) */\n      swap1\n      pop\n        /* \"codingtest/codingtest_250107.sol\":1503:1517  uint256 reward */\n      0x00\n        /* \"codingtest/codingtest_250107.sol\":1520:1545  _calculateReward(matches) */\n      tag_29\n        /* \"codingtest/codingtest_250107.sol\":1537:1544  matches */\n      dup3\n        /* \"codingtest/codingtest_250107.sol\":1520:1536  _calculateReward */\n      tag_30\n        /* \"codingtest/codingtest_250107.sol\":1520:1545  _calculateReward(matches) */\n      jump\t// in\n    tag_29:\n        /* \"codingtest/codingtest_250107.sol\":1503:1545  uint256 reward = _calculateReward(matches) */\n      swap1\n      pop\n        /* \"codingtest/codingtest_250107.sol\":1568:1569  0 */\n      0x00\n        /* \"codingtest/codingtest_250107.sol\":1559:1565  reward */\n      dup2\n        /* \"codingtest/codingtest_250107.sol\":1559:1569  reward > 0 */\n      gt\n        /* \"codingtest/codingtest_250107.sol\":1555:1625  if (reward > 0) {... */\n      iszero\n      tag_31\n      jumpi\n        /* \"codingtest/codingtest_250107.sol\":1608:1614  reward */\n      dup1\n        /* \"codingtest/codingtest_250107.sol\":1585:1592  rewards */\n      0x02\n        /* \"codingtest/codingtest_250107.sol\":1585:1604  rewards[msg.sender] */\n      0x00\n        /* \"codingtest/codingtest_250107.sol\":1593:1603  msg.sender */\n      caller\n        /* \"codingtest/codingtest_250107.sol\":1585:1604  rewards[msg.sender] */\n      0xffffffffffffffffffffffffffffffffffffffff\n      and\n      0xffffffffffffffffffffffffffffffffffffffff\n      and\n      dup2\n      mstore\n      0x20\n      add\n      swap1\n      dup2\n      mstore\n      0x20\n      add\n      0x00\n      keccak256\n      0x00\n        /* \"codingtest/codingtest_250107.sol\":1585:1614  rewards[msg.sender] += reward */\n      dup3\n      dup3\n      sload\n      tag_32\n      swap2\n      swap1\n      tag_33\n      jump\t// in\n    tag_32:\n      swap3\n      pop\n      pop\n      dup2\n      swap1\n      sstore\n      pop\n        /* \"codingtest/codingtest_250107.sol\":1555:1625  if (reward > 0) {... */\n    tag_31:\n        /* \"codingtest/codingtest_250107.sol\":1180:1631  {... */\n      pop\n      pop\n      pop\n      pop\n        /* \"codingtest/codingtest_250107.sol\":1072:1631  function play(uint8[4] memory userNumbers, bytes1[2] memory userLetters)... */\n      pop\n      pop\n      jump\t// out\n        /* \"codingtest/codingtest_250107.sol\":3722:3932  function getReward() public {... */\n    tag_18:\n        /* \"codingtest/codingtest_250107.sol\":3760:3774  uint256 reward */\n      0x00\n        /* \"codingtest/codingtest_250107.sol\":3777:3784  rewards */\n      0x02\n        /* \"codingtest/codingtest_250107.sol\":3777:3796  rewards[msg.sender] */\n      0x00\n        /* \"codingtest/codingtest_250107.sol\":3785:3795  msg.sender */\n      caller\n        /* \"codingtest/codingtest_250107.sol\":3777:3796  rewards[msg.sender] */\n      0xffffffffffffffffffffffffffffffffffffffff\n      and\n      0xffffffffffffffffffffffffffffffffffffffff\n      and\n      dup2\n      mstore\n      0x20\n      add\n      swap1\n      dup2\n      mstore\n      0x20\n      add\n      0x00\n      keccak256\n      sload\n        /* \"codingtest/codingtest_250107.sol\":3760:3796  uint256 reward = rewards[msg.sender] */\n      swap1\n      pop\n        /* \"codingtest/codingtest_250107.sol\":3823:3824  0 */\n      0x00\n        /* \"codingtest/codingtest_250107.sol\":3814:3820  reward */\n      dup2\n        /* \"codingtest/codingtest_250107.sol\":3814:3824  reward > 0 */\n      gt\n        /* \"codingtest/codingtest_250107.sol\":3806:3845  require(reward > 0, \"No reward to get\") */\n      tag_35\n      jumpi\n      mload(0x40)\n      0x08c379a000000000000000000000000000000000000000000000000000000000\n      dup2\n      mstore\n      0x04\n      add\n      tag_36\n      swap1\n      tag_37\n      jump\t// in\n    tag_36:\n      mload(0x40)\n      dup1\n      swap2\n      sub\n      swap1\n      revert\n    tag_35:\n        /* \"codingtest/codingtest_250107.sol\":3878:3879  0 */\n      0x00\n        /* \"codingtest/codingtest_250107.sol\":3856:3863  rewards */\n      0x02\n        /* \"codingtest/codingtest_250107.sol\":3856:3875  rewards[msg.sender] */\n      0x00\n        /* \"codingtest/codingtest_250107.sol\":3864:3874  msg.sender */\n      caller\n        /* \"codingtest/codingtest_250107.sol\":3856:3875  rewards[msg.sender] */\n      0xffffffffffffffffffffffffffffffffffffffff\n      and\n      0xffffffffffffffffffffffffffffffffffffffff\n      and\n      dup2\n      mstore\n      0x20\n      add\n      swap1\n      dup2\n      mstore\n      0x20\n      add\n      0x00\n      keccak256\n        /* \"codingtest/codingtest_250107.sol\":3856:3879  rewards[msg.sender] = 0 */\n      dup2\n      swap1\n      sstore\n      pop\n        /* \"codingtest/codingtest_250107.sol\":3897:3907  msg.sender */\n      caller\n        /* \"codingtest/codingtest_250107.sol\":3889:3917  payable(msg.sender).transfer */\n      0xffffffffffffffffffffffffffffffffffffffff\n      and\n        /* \"codingtest/codingtest_250107.sol\":3889:3925  payable(msg.sender).transfer(reward) */\n      0x08fc\n        /* \"codingtest/codingtest_250107.sol\":3918:3924  reward */\n      dup3\n        /* \"codingtest/codingtest_250107.sol\":3889:3925  payable(msg.sender).transfer(reward) */\n      swap1\n      dup2\n      iszero\n      mul\n      swap1\n      mload(0x40)\n      0x00\n      mload(0x40)\n      dup1\n      dup4\n      sub\n      dup2\n      dup6\n      dup9\n      dup9\n      call\n      swap4\n      pop\n      pop\n      pop\n      pop\n      iszero\n      dup1\n      iszero\n      tag_39\n      jumpi\n      returndatasize\n      0x00\n      dup1\n      returndatacopy\n      revert(0x00, returndatasize)\n    tag_39:\n      pop\n        /* \"codingtest/codingtest_250107.sol\":3750:3932  {... */\n      pop\n        /* \"codingtest/codingtest_250107.sol\":3722:3932  function getReward() public {... */\n      jump\t// out\n        /* \"codingtest/codingtest_250107.sol\":1637:1894  function _generateWinningNumbers() internal view returns (uint8[4] memory) {... */\n    tag_24:\n        /* \"codingtest/codingtest_250107.sol\":1695:1710  uint8[4] memory */\n      tag_40\n      tag_41\n      jump\t// in\n    tag_40:\n        /* \"codingtest/codingtest_250107.sol\":1722:1887  return [... */\n      mload(0x40)\n      dup1\n      0x80\n      add\n      0x40\n      mstore\n      dup1\n        /* \"codingtest/codingtest_250107.sol\":1743:1766  _generateRandomNumber() */\n      tag_43\n        /* \"codingtest/codingtest_250107.sol\":1743:1764  _generateRandomNumber */\n      tag_44\n        /* \"codingtest/codingtest_250107.sol\":1743:1766  _generateRandomNumber() */\n      jump\t// in\n    tag_43:\n        /* \"codingtest/codingtest_250107.sol\":1722:1887  return [... */\n      0xff\n      and\n      0xff\n      and\n      dup2\n      mstore\n      0x20\n      add\n        /* \"codingtest/codingtest_250107.sol\":1780:1803  _generateRandomNumber() */\n      tag_45\n        /* \"codingtest/codingtest_250107.sol\":1780:1801  _generateRandomNumber */\n      tag_44\n        /* \"codingtest/codingtest_250107.sol\":1780:1803  _generateRandomNumber() */\n      jump\t// in\n    tag_45:\n        /* \"codingtest/codingtest_250107.sol\":1722:1887  return [... */\n      0xff\n      and\n      0xff\n      and\n      dup2\n      mstore\n      0x20\n      add\n        /* \"codingtest/codingtest_250107.sol\":1817:1840  _generateRandomNumber() */\n      tag_46\n        /* \"codingtest/codingtest_250107.sol\":1817:1838  _generateRandomNumber */\n      tag_44\n        /* \"codingtest/codingtest_250107.sol\":1817:1840  _generateRandomNumber() */\n      jump\t// in\n    tag_46:\n        /* \"codingtest/codingtest_250107.sol\":1722:1887  return [... */\n      0xff\n      and\n      0xff\n      and\n      dup2\n      mstore\n      0x20\n      add\n        /* \"codingtest/codingtest_250107.sol\":1854:1877  _generateRandomNumber() */\n      tag_47\n        /* \"codingtest/codingtest_250107.sol\":1854:1875  _generateRandomNumber */\n      tag_44\n        /* \"codingtest/codingtest_250107.sol\":1854:1877  _generateRandomNumber() */\n      jump\t// in\n    tag_47:\n        /* \"codingtest/codingtest_250107.sol\":1722:1887  return [... */\n      0xff\n      and\n      0xff\n      and\n      dup2\n      mstore\n      pop\n      swap1\n      pop\n        /* \"codingtest/codingtest_250107.sol\":1637:1894  function _generateWinningNumbers() internal view returns (uint8[4] memory) {... */\n      swap1\n      jump\t// out\n        /* \"codingtest/codingtest_250107.sol\":1900:2084  function _generateWinningLetters() internal view returns (bytes1[2] memory) {... */\n    tag_26:\n        /* \"codingtest/codingtest_250107.sol\":1958:1974  bytes1[2] memory */\n      tag_48\n      tag_49\n      jump\t// in\n    tag_48:\n        /* \"codingtest/codingtest_250107.sol\":1986:2077  return [... */\n      mload(0x40)\n      dup1\n      0x40\n      add\n      0x40\n      mstore\n      dup1\n        /* \"codingtest/codingtest_250107.sol\":2007:2030  _generateRandomLetter() */\n      tag_51\n        /* \"codingtest/codingtest_250107.sol\":2007:2028  _generateRandomLetter */\n      tag_52\n        /* \"codingtest/codingtest_250107.sol\":2007:2030  _generateRandomLetter() */\n      jump\t// in\n    tag_51:\n        /* \"codingtest/codingtest_250107.sol\":1986:2077  return [... */\n      not(0xffffffffffffffffffffffffffffffffffffffffffffffffffffffffffffff)\n      and\n      not(0xffffffffffffffffffffffffffffffffffffffffffffffffffffffffffffff)\n      and\n      dup2\n      mstore\n      0x20\n      add\n        /* \"codingtest/codingtest_250107.sol\":2044:2067  _generateRandomLetter() */\n      tag_53\n        /* \"codingtest/codingtest_250107.sol\":2044:2065  _generateRandomLetter */\n      tag_52\n        /* \"codingtest/codingtest_250107.sol\":2044:2067  _generateRandomLetter() */\n      jump\t// in\n    tag_53:\n        /* \"codingtest/codingtest_250107.sol\":1986:2077  return [... */\n      not(0xffffffffffffffffffffffffffffffffffffffffffffffffffffffffffffff)\n      and\n      not(0xffffffffffffffffffffffffffffffffffffffffffffffffffffffffffffff)\n      and\n      dup2\n      mstore\n      pop\n      swap1\n      pop\n        /* \"codingtest/codingtest_250107.sol\":1900:2084  function _generateWinningLetters() internal view returns (bytes1[2] memory) {... */\n      swap1\n      jump\t// out\n        /* \"codingtest/codingtest_250107.sol\":2090:2518  function _countMatches(... */\n    tag_28:\n        /* \"codingtest/codingtest_250107.sol\":2298:2305  uint256 */\n      0x00\n        /* \"codingtest/codingtest_250107.sol\":2317:2335  uint256 matchCount */\n      dup1\n        /* \"codingtest/codingtest_250107.sol\":2338:2339  0 */\n      0x00\n        /* \"codingtest/codingtest_250107.sol\":2317:2339  uint256 matchCount = 0 */\n      swap1\n      pop\n        /* \"codingtest/codingtest_250107.sol\":2364:2411  _countArrayMatches(userNumbers, winningNumbers) */\n      tag_55\n        /* \"codingtest/codingtest_250107.sol\":2383:2394  userNumbers */\n      dup7\n        /* \"codingtest/codingtest_250107.sol\":2396:2410  winningNumbers */\n      dup6\n        /* \"codingtest/codingtest_250107.sol\":2364:2382  _countArrayMatches */\n      tag_56\n        /* \"codingtest/codingtest_250107.sol\":2364:2411  _countArrayMatches(userNumbers, winningNumbers) */\n      jump\t// in\n    tag_55:\n        /* \"codingtest/codingtest_250107.sol\":2350:2411  matchCount += _countArrayMatches(userNumbers, winningNumbers) */\n      dup2\n      tag_57\n      swap2\n      swap1\n      tag_33\n      jump\t// in\n    tag_57:\n      swap1\n      pop\n        /* \"codingtest/codingtest_250107.sol\":2436:2483  _countArrayMatches(userLetters, winningLetters) */\n      tag_58\n        /* \"codingtest/codingtest_250107.sol\":2455:2466  userLetters */\n      dup6\n        /* \"codingtest/codingtest_250107.sol\":2468:2482  winningLetters */\n      dup5\n        /* \"codingtest/codingtest_250107.sol\":2436:2454  _countArrayMatches */\n      tag_59\n        /* \"codingtest/codingtest_250107.sol\":2436:2483  _countArrayMatches(userLetters, winningLetters) */\n      jump\t// in\n    tag_58:\n        /* \"codingtest/codingtest_250107.sol\":2422:2483  matchCount += _countArrayMatches(userLetters, winningLetters) */\n      dup2\n      tag_60\n      swap2\n      swap1\n      tag_33\n      jump\t// in\n    tag_60:\n      swap1\n      pop\n        /* \"codingtest/codingtest_250107.sol\":2501:2511  matchCount */\n      dup1\n        /* \"codingtest/codingtest_250107.sol\":2494:2511  return matchCount */\n      swap2\n      pop\n      pop\n        /* \"codingtest/codingtest_250107.sol\":2090:2518  function _countMatches(... */\n      swap5\n      swap4\n      pop\n      pop\n      pop\n      pop\n      jump\t// out\n        /* \"codingtest/codingtest_250107.sol\":3440:3716  function _calculateReward(uint256 matches) internal pure returns (uint256) {... */\n    tag_30:\n        /* \"codingtest/codingtest_250107.sol\":3506:3513  uint256 */\n      0x00\n        /* \"codingtest/codingtest_250107.sol\":3540:3541  6 */\n      0x06\n        /* \"codingtest/codingtest_250107.sol\":3529:3536  matches */\n      dup3\n        /* \"codingtest/codingtest_250107.sol\":3529:3541  matches == 6 */\n      sub\n        /* \"codingtest/codingtest_250107.sol\":3525:3557  if (matches == 6) return 1 ether */\n      tag_62\n      jumpi\n        /* \"codingtest/codingtest_250107.sol\":3550:3557  1 ether */\n      0x0de0b6b3a7640000\n        /* \"codingtest/codingtest_250107.sol\":3543:3557  return 1 ether */\n      swap1\n      pop\n      jump(tag_61)\n        /* \"codingtest/codingtest_250107.sol\":3525:3557  if (matches == 6) return 1 ether */\n    tag_62:\n        /* \"codingtest/codingtest_250107.sol\":3582:3583  5 */\n      0x05\n        /* \"codingtest/codingtest_250107.sol\":3571:3578  matches */\n      dup3\n        /* \"codingtest/codingtest_250107.sol\":3571:3583  matches == 5 */\n      sub\n        /* \"codingtest/codingtest_250107.sol\":3567:3602  if (matches == 5) return 0.75 ether */\n      tag_63\n      jumpi\n        /* \"codingtest/codingtest_250107.sol\":3592:3602  0.75 ether */\n      0x0a688906bd8b0000\n        /* \"codingtest/codingtest_250107.sol\":3585:3602  return 0.75 ether */\n      swap1\n      pop\n      jump(tag_61)\n        /* \"codingtest/codingtest_250107.sol\":3567:3602  if (matches == 5) return 0.75 ether */\n    tag_63:\n        /* \"codingtest/codingtest_250107.sol\":3627:3628  4 */\n      0x04\n        /* \"codingtest/codingtest_250107.sol\":3616:3623  matches */\n      dup3\n        /* \"codingtest/codingtest_250107.sol\":3616:3628  matches == 4 */\n      sub\n        /* \"codingtest/codingtest_250107.sol\":3612:3647  if (matches == 4) return 0.25 ether */\n      tag_64\n      jumpi\n        /* \"codingtest/codingtest_250107.sol\":3637:3647  0.25 ether */\n      0x03782dace9d90000\n        /* \"codingtest/codingtest_250107.sol\":3630:3647  return 0.25 ether */\n      swap1\n      pop\n      jump(tag_61)\n        /* \"codingtest/codingtest_250107.sol\":3612:3647  if (matches == 4) return 0.25 ether */\n    tag_64:\n        /* \"codingtest/codingtest_250107.sol\":3672:3673  3 */\n      0x03\n        /* \"codingtest/codingtest_250107.sol\":3661:3668  matches */\n      dup3\n        /* \"codingtest/codingtest_250107.sol\":3661:3673  matches == 3 */\n      sub\n        /* \"codingtest/codingtest_250107.sol\":3657:3691  if (matches == 3) return 0.1 ether */\n      tag_65\n      jumpi\n        /* \"codingtest/codingtest_250107.sol\":3682:3691  0.1 ether */\n      0x016345785d8a0000\n        /* \"codingtest/codingtest_250107.sol\":3675:3691  return 0.1 ether */\n      swap1\n      pop\n      jump(tag_61)\n        /* \"codingtest/codingtest_250107.sol\":3657:3691  if (matches == 3) return 0.1 ether */\n    tag_65:\n        /* \"codingtest/codingtest_250107.sol\":3708:3709  0 */\n      0x00\n        /* \"codingtest/codingtest_250107.sol\":3701:3709  return 0 */\n      swap1\n      pop\n        /* \"codingtest/codingtest_250107.sol\":3440:3716  function _calculateReward(uint256 matches) internal pure returns (uint256) {... */\n    tag_61:\n      swap2\n      swap1\n      pop\n      jump\t// out\n        /* \"codingtest/codingtest_250107.sol\":765:898  function _generateRandomNumber() internal view returns (uint8) {... */\n    tag_44:\n        /* \"codingtest/codingtest_250107.sol\":821:826  uint8 */\n      0x00\n        /* \"codingtest/codingtest_250107.sol\":882:883  1 */\n      0x01\n        /* \"codingtest/codingtest_250107.sol\":877:878  9 */\n      0x09\n        /* \"codingtest/codingtest_250107.sol\":852:874  _generateRandomValue() */\n      tag_67\n        /* \"codingtest/codingtest_250107.sol\":852:872  _generateRandomValue */\n      tag_68\n        /* \"codingtest/codingtest_250107.sol\":852:874  _generateRandomValue() */\n      jump\t// in\n    tag_67:\n        /* \"codingtest/codingtest_250107.sol\":852:878  _generateRandomValue() % 9 */\n      tag_69\n      swap2\n      swap1\n      tag_70\n      jump\t// in\n    tag_69:\n        /* \"codingtest/codingtest_250107.sol\":851:883  (_generateRandomValue() % 9) + 1 */\n      tag_71\n      swap2\n      swap1\n      tag_33\n      jump\t// in\n    tag_71:\n        /* \"codingtest/codingtest_250107.sol\":838:884  return uint8((_generateRandomValue() % 9) + 1) */\n      swap1\n      pop\n        /* \"codingtest/codingtest_250107.sol\":765:898  function _generateRandomNumber() internal view returns (uint8) {... */\n      swap1\n      jump\t// out\n        /* \"codingtest/codingtest_250107.sol\":904:1066  function _generateRandomLetter() internal view returns (bytes1) {... */\n    tag_52:\n        /* \"codingtest/codingtest_250107.sol\":960:966  bytes1 */\n      0x00\n        /* \"codingtest/codingtest_250107.sol\":1030:1032  65 */\n      0x41\n        /* \"codingtest/codingtest_250107.sol\":1024:1026  26 */\n      0x1a\n        /* \"codingtest/codingtest_250107.sol\":999:1021  _generateRandomValue() */\n      tag_73\n        /* \"codingtest/codingtest_250107.sol\":999:1019  _generateRandomValue */\n      tag_68\n        /* \"codingtest/codingtest_250107.sol\":999:1021  _generateRandomValue() */\n      jump\t// in\n    tag_73:\n        /* \"codingtest/codingtest_250107.sol\":999:1026  _generateRandomValue() % 26 */\n      tag_74\n      swap2\n      swap1\n      tag_70\n      jump\t// in\n    tag_74:\n        /* \"codingtest/codingtest_250107.sol\":998:1032  (_generateRandomValue() % 26) + 65 */\n      tag_75\n      swap2\n      swap1\n      tag_33\n      jump\t// in\n    tag_75:\n        /* \"codingtest/codingtest_250107.sol\":985:1034  bytes1(uint8((_generateRandomValue() % 26) + 65)) */\n      0xf8\n      shl\n        /* \"codingtest/codingtest_250107.sol\":978:1034  return bytes1(uint8((_generateRandomValue() % 26) + 65)) */\n      swap1\n      pop\n        /* \"codingtest/codingtest_250107.sol\":904:1066  function _generateRandomLetter() internal view returns (bytes1) {... */\n      swap1\n      jump\t// out\n        /* \"codingtest/codingtest_250107.sol\":2983:3434  function _countArrayMatches(uint8[4] memory arr1, uint8[4] memory arr2)... */\n    tag_56:\n        /* \"codingtest/codingtest_250107.sol\":3102:3109  uint256 */\n      0x00\n        /* \"codingtest/codingtest_250107.sol\":3125:3143  uint256 matchCount */\n      dup1\n        /* \"codingtest/codingtest_250107.sol\":3146:3147  0 */\n      0x00\n        /* \"codingtest/codingtest_250107.sol\":3125:3147  uint256 matchCount = 0 */\n      swap1\n      pop\n        /* \"codingtest/codingtest_250107.sol\":3162:3171  uint256 i */\n      0x00\n        /* \"codingtest/codingtest_250107.sol\":3157:3401  for (uint256 i = 0; i < arr1.length; i++) {... */\n    tag_77:\n        /* \"codingtest/codingtest_250107.sol\":3181:3192  arr1.length */\n      0x04\n        /* \"codingtest/codingtest_250107.sol\":3177:3178  i */\n      dup2\n        /* \"codingtest/codingtest_250107.sol\":3177:3192  i < arr1.length */\n      lt\n        /* \"codingtest/codingtest_250107.sol\":3157:3401  for (uint256 i = 0; i < arr1.length; i++) {... */\n      iszero\n      tag_78\n      jumpi\n        /* \"codingtest/codingtest_250107.sol\":3218:3227  uint256 j */\n      0x00\n        /* \"codingtest/codingtest_250107.sol\":3213:3391  for (uint256 j = 0; j < arr2.length; j++) {... */\n    tag_80:\n        /* \"codingtest/codingtest_250107.sol\":3237:3248  arr2.length */\n      0x04\n        /* \"codingtest/codingtest_250107.sol\":3233:3234  j */\n      dup2\n        /* \"codingtest/codingtest_250107.sol\":3233:3248  j < arr2.length */\n      lt\n        /* \"codingtest/codingtest_250107.sol\":3213:3391  for (uint256 j = 0; j < arr2.length; j++) {... */\n      iszero\n      tag_81\n      jumpi\n        /* \"codingtest/codingtest_250107.sol\":3288:3292  arr2 */\n      dup5\n        /* \"codingtest/codingtest_250107.sol\":3293:3294  j */\n      dup2\n        /* \"codingtest/codingtest_250107.sol\":3288:3295  arr2[j] */\n      0x04\n      dup2\n      lt\n      tag_83\n      jumpi\n      tag_84\n      tag_85\n      jump\t// in\n    tag_84:\n    tag_83:\n      0x20\n      mul\n      add\n      mload\n        /* \"codingtest/codingtest_250107.sol\":3277:3295  arr1[i] == arr2[j] */\n      0xff\n      and\n        /* \"codingtest/codingtest_250107.sol\":3277:3281  arr1 */\n      dup7\n        /* \"codingtest/codingtest_250107.sol\":3282:3283  i */\n      dup4\n        /* \"codingtest/codingtest_250107.sol\":3277:3284  arr1[i] */\n      0x04\n      dup2\n      lt\n      tag_86\n      jumpi\n      tag_87\n      tag_85\n      jump\t// in\n    tag_87:\n    tag_86:\n      0x20\n      mul\n      add\n      mload\n        /* \"codingtest/codingtest_250107.sol\":3277:3295  arr1[i] == arr2[j] */\n      0xff\n      and\n      sub\n        /* \"codingtest/codingtest_250107.sol\":3273:3377  if (arr1[i] == arr2[j]) {... */\n      tag_88\n      jumpi\n        /* \"codingtest/codingtest_250107.sol\":3319:3331  matchCount++ */\n      dup3\n      dup1\n      tag_89\n      swap1\n      tag_90\n      jump\t// in\n    tag_89:\n      swap4\n      pop\n      pop\n        /* \"codingtest/codingtest_250107.sol\":3353:3358  break */\n      jump(tag_81)\n        /* \"codingtest/codingtest_250107.sol\":3273:3377  if (arr1[i] == arr2[j]) {... */\n    tag_88:\n        /* \"codingtest/codingtest_250107.sol\":3250:3253  j++ */\n      dup1\n      dup1\n      0x01\n      add\n      swap2\n      pop\n      pop\n        /* \"codingtest/codingtest_250107.sol\":3213:3391  for (uint256 j = 0; j < arr2.length; j++) {... */\n      jump(tag_80)\n    tag_81:\n      pop\n        /* \"codingtest/codingtest_250107.sol\":3194:3197  i++ */\n      dup1\n      dup1\n      0x01\n      add\n      swap2\n      pop\n      pop\n        /* \"codingtest/codingtest_250107.sol\":3157:3401  for (uint256 i = 0; i < arr1.length; i++) {... */\n      jump(tag_77)\n    tag_78:\n      pop\n        /* \"codingtest/codingtest_250107.sol\":3417:3427  matchCount */\n      dup1\n        /* \"codingtest/codingtest_250107.sol\":3410:3427  return matchCount */\n      swap2\n      pop\n      pop\n        /* \"codingtest/codingtest_250107.sol\":2983:3434  function _countArrayMatches(uint8[4] memory arr1, uint8[4] memory arr2)... */\n      swap3\n      swap2\n      pop\n      pop\n      jump\t// out\n        /* \"codingtest/codingtest_250107.sol\":2524:2977  function _countArrayMatches(bytes1[2] memory arr1, bytes1[2] memory arr2)... */\n    tag_59:\n        /* \"codingtest/codingtest_250107.sol\":2645:2652  uint256 */\n      0x00\n        /* \"codingtest/codingtest_250107.sol\":2668:2686  uint256 matchCount */\n      dup1\n        /* \"codingtest/codingtest_250107.sol\":2689:2690  0 */\n      0x00\n        /* \"codingtest/codingtest_250107.sol\":2668:2690  uint256 matchCount = 0 */\n      swap1\n      pop\n        /* \"codingtest/codingtest_250107.sol\":2705:2714  uint256 i */\n      0x00\n        /* \"codingtest/codingtest_250107.sol\":2700:2944  for (uint256 i = 0; i < arr1.length; i++) {... */\n    tag_92:\n        /* \"codingtest/codingtest_250107.sol\":2724:2735  arr1.length */\n      0x02\n        /* \"codingtest/codingtest_250107.sol\":2720:2721  i */\n      dup2\n        /* \"codingtest/codingtest_250107.sol\":2720:2735  i < arr1.length */\n      lt\n        /* \"codingtest/codingtest_250107.sol\":2700:2944  for (uint256 i = 0; i < arr1.length; i++) {... */\n      iszero\n      tag_93\n      jumpi\n        /* \"codingtest/codingtest_250107.sol\":2761:2770  uint256 j */\n      0x00\n        /* \"codingtest/codingtest_250107.sol\":2756:2934  for (uint256 j = 0; j < arr2.length; j++) {... */\n    tag_95:\n        /* \"codingtest/codingtest_250107.sol\":2780:2791  arr2.length */\n      0x02\n        /* \"codingtest/codingtest_250107.sol\":2776:2777  j */\n      dup2\n        /* \"codingtest/codingtest_250107.sol\":2776:2791  j < arr2.length */\n      lt\n        /* \"codingtest/codingtest_250107.sol\":2756:2934  for (uint256 j = 0; j < arr2.length; j++) {... */\n      iszero\n      tag_96\n      jumpi\n        /* \"codingtest/codingtest_250107.sol\":2831:2835  arr2 */\n      dup5\n        /* \"codingtest/codingtest_250107.sol\":2836:2837  j */\n      dup2\n        /* \"codingtest/codingtest_250107.sol\":2831:2838  arr2[j] */\n      0x02\n      dup2\n      lt\n      tag_98\n      jumpi\n      tag_99\n      tag_85\n      jump\t// in\n    tag_99:\n    tag_98:\n      0x20\n      mul\n      add\n      mload\n        /* \"codingtest/codingtest_250107.sol\":2820:2838  arr1[i] == arr2[j] */\n      not(0xffffffffffffffffffffffffffffffffffffffffffffffffffffffffffffff)\n      and\n        /* \"codingtest/codingtest_250107.sol\":2820:2824  arr1 */\n      dup7\n        /* \"codingtest/codingtest_250107.sol\":2825:2826  i */\n      dup4\n        /* \"codingtest/codingtest_250107.sol\":2820:2827  arr1[i] */\n      0x02\n      dup2\n      lt\n      tag_100\n      jumpi\n      tag_101\n      tag_85\n      jump\t// in\n    tag_101:\n    tag_100:\n      0x20\n      mul\n      add\n      mload\n        /* \"codingtest/codingtest_250107.sol\":2820:2838  arr1[i] == arr2[j] */\n      not(0xffffffffffffffffffffffffffffffffffffffffffffffffffffffffffffff)\n      and\n      sub\n        /* \"codingtest/codingtest_250107.sol\":2816:2920  if (arr1[i] == arr2[j]) {... */\n      tag_102\n      jumpi\n        /* \"codingtest/codingtest_250107.sol\":2862:2874  matchCount++ */\n      dup3\n      dup1\n      tag_103\n      swap1\n      tag_90\n      jump\t// in\n    tag_103:\n      swap4\n      pop\n      pop\n        /* \"codingtest/codingtest_250107.sol\":2896:2901  break */\n      jump(tag_96)\n        /* \"codingtest/codingtest_250107.sol\":2816:2920  if (arr1[i] == arr2[j]) {... */\n    tag_102:\n        /* \"codingtest/codingtest_250107.sol\":2793:2796  j++ */\n      dup1\n      dup1\n      0x01\n      add\n      swap2\n      pop\n      pop\n        /* \"codingtest/codingtest_250107.sol\":2756:2934  for (uint256 j = 0; j < arr2.length; j++) {... */\n      jump(tag_95)\n    tag_96:\n      pop\n        /* \"codingtest/codingtest_250107.sol\":2737:2740  i++ */\n      dup1\n      dup1\n      0x01\n      add\n      swap2\n      pop\n      pop\n        /* \"codingtest/codingtest_250107.sol\":2700:2944  for (uint256 i = 0; i < arr1.length; i++) {... */\n      jump(tag_92)\n    tag_93:\n      pop\n        /* \"codingtest/codingtest_250107.sol\":2960:2970  matchCount */\n      dup1\n        /* \"codingtest/codingtest_250107.sol\":2953:2970  return matchCount */\n      swap2\n      pop\n      pop\n        /* \"codingtest/codingtest_250107.sol\":2524:2977  function _countArrayMatches(bytes1[2] memory arr1, bytes1[2] memory arr2)... */\n      swap3\n      swap2\n      pop\n      pop\n      jump\t// out\n        /* \"codingtest/codingtest_250107.sol\":384:759  function _generateRandomValue() internal view returns (uint256) {... */\n    tag_68:\n        /* \"codingtest/codingtest_250107.sol\":439:446  uint256 */\n      0x00\n        /* \"codingtest/codingtest_250107.sol\":575:590  block.timestamp */\n      timestamp\n        /* \"codingtest/codingtest_250107.sol\":616:632  block.prevrandao */\n      prevrandao\n        /* \"codingtest/codingtest_250107.sol\":658:668  msg.sender */\n      caller\n        /* \"codingtest/codingtest_250107.sol\":694:698  salt */\n      sload(0x01)\n        /* \"codingtest/codingtest_250107.sol\":533:720  abi.encodePacked(... */\n      add(0x20, mload(0x40))\n      tag_105\n      swap5\n      swap4\n      swap3\n      swap2\n      swap1\n      tag_106\n      jump\t// in\n    tag_105:\n      mload(0x40)\n      0x20\n      dup2\n      dup4\n      sub\n      sub\n      dup2\n      mstore\n      swap1\n      0x40\n      mstore\n        /* \"codingtest/codingtest_250107.sol\":502:738  keccak256(... */\n      dup1\n      mload\n      swap1\n      0x20\n      add\n      keccak256\n        /* \"codingtest/codingtest_250107.sol\":477:752  uint256(... */\n      0x00\n      shr\n        /* \"codingtest/codingtest_250107.sol\":458:752  return... */\n      swap1\n      pop\n        /* \"codingtest/codingtest_250107.sol\":384:759  function _generateRandomValue() internal view returns (uint256) {... */\n      swap1\n      jump\t// out\n    tag_41:\n      mload(0x40)\n      dup1\n      0x80\n      add\n      0x40\n      mstore\n      dup1\n      0x04\n      swap1\n      0x20\n      dup3\n      mul\n      dup1\n      calldatasize\n      dup4\n      calldatacopy\n      dup1\n      dup3\n      add\n      swap2\n      pop\n      pop\n      swap1\n      pop\n      pop\n      swap1\n      jump\t// out\n    tag_49:\n      mload(0x40)\n      dup1\n      0x40\n      add\n      0x40\n      mstore\n      dup1\n      0x02\n      swap1\n      0x20\n      dup3\n      mul\n      dup1\n      calldatasize\n      dup4\n      calldatacopy\n      dup1\n      dup3\n      add\n      swap2\n      pop\n      pop\n      swap1\n      pop\n      pop\n      swap1\n      jump\t// out\n        /* \"#utility.yul\":7:82   */\n    tag_107:\n        /* \"#utility.yul\":40:46   */\n      0x00\n        /* \"#utility.yul\":73:75   */\n      0x40\n        /* \"#utility.yul\":67:76   */\n      mload\n        /* \"#utility.yul\":57:76   */\n      swap1\n      pop\n        /* \"#utility.yul\":7:82   */\n      swap1\n      jump\t// out\n        /* \"#utility.yul\":88:205   */\n    tag_108:\n        /* \"#utility.yul\":197:198   */\n      0x00\n        /* \"#utility.yul\":194:195   */\n      dup1\n        /* \"#utility.yul\":187:199   */\n      revert\n        /* \"#utility.yul\":334:460   */\n    tag_110:\n        /* \"#utility.yul\":371:378   */\n      0x00\n        /* \"#utility.yul\":411:453   */\n      0xffffffffffffffffffffffffffffffffffffffff\n        /* \"#utility.yul\":404:409   */\n      dup3\n        /* \"#utility.yul\":400:454   */\n      and\n        /* \"#utility.yul\":389:454   */\n      swap1\n      pop\n        /* \"#utility.yul\":334:460   */\n      swap2\n      swap1\n      pop\n      jump\t// out\n        /* \"#utility.yul\":466:562   */\n    tag_111:\n        /* \"#utility.yul\":503:510   */\n      0x00\n        /* \"#utility.yul\":532:556   */\n      tag_153\n        /* \"#utility.yul\":550:555   */\n      dup3\n        /* \"#utility.yul\":532:556   */\n      tag_110\n      jump\t// in\n    tag_153:\n        /* \"#utility.yul\":521:556   */\n      swap1\n      pop\n        /* \"#utility.yul\":466:562   */\n      swap2\n      swap1\n      pop\n      jump\t// out\n        /* \"#utility.yul\":568:690   */\n    tag_112:\n        /* \"#utility.yul\":641:665   */\n      tag_155\n        /* \"#utility.yul\":659:664   */\n      dup2\n        /* \"#utility.yul\":641:665   */\n      tag_111\n      jump\t// in\n    tag_155:\n        /* \"#utility.yul\":634:639   */\n      dup2\n        /* \"#utility.yul\":631:666   */\n      eq\n        /* \"#utility.yul\":621:684   */\n      tag_156\n      jumpi\n        /* \"#utility.yul\":680:681   */\n      0x00\n        /* \"#utility.yul\":677:678   */\n      dup1\n        /* \"#utility.yul\":670:682   */\n      revert\n        /* \"#utility.yul\":621:684   */\n    tag_156:\n        /* \"#utility.yul\":568:690   */\n      pop\n      jump\t// out\n        /* \"#utility.yul\":696:835   */\n    tag_113:\n        /* \"#utility.yul\":742:747   */\n      0x00\n        /* \"#utility.yul\":780:786   */\n      dup2\n        /* \"#utility.yul\":767:787   */\n      calldataload\n        /* \"#utility.yul\":758:787   */\n      swap1\n      pop\n        /* \"#utility.yul\":796:829   */\n      tag_158\n        /* \"#utility.yul\":823:828   */\n      dup2\n        /* \"#utility.yul\":796:829   */\n      tag_112\n      jump\t// in\n    tag_158:\n        /* \"#utility.yul\":696:835   */\n      swap3\n      swap2\n      pop\n      pop\n      jump\t// out\n        /* \"#utility.yul\":841:1170   */\n    tag_8:\n        /* \"#utility.yul\":900:906   */\n      0x00\n        /* \"#utility.yul\":949:951   */\n      0x20\n        /* \"#utility.yul\":937:946   */\n      dup3\n        /* \"#utility.yul\":928:935   */\n      dup5\n        /* \"#utility.yul\":924:947   */\n      sub\n        /* \"#utility.yul\":920:952   */\n      slt\n        /* \"#utility.yul\":917:1036   */\n      iszero\n      tag_160\n      jumpi\n        /* \"#utility.yul\":955:1034   */\n      tag_161\n      tag_108\n      jump\t// in\n    tag_161:\n        /* \"#utility.yul\":917:1036   */\n    tag_160:\n        /* \"#utility.yul\":1075:1076   */\n      0x00\n        /* \"#utility.yul\":1100:1153   */\n      tag_162\n        /* \"#utility.yul\":1145:1152   */\n      dup5\n        /* \"#utility.yul\":1136:1142   */\n      dup3\n        /* \"#utility.yul\":1125:1134   */\n      dup6\n        /* \"#utility.yul\":1121:1143   */\n      add\n        /* \"#utility.yul\":1100:1153   */\n      tag_113\n      jump\t// in\n    tag_162:\n        /* \"#utility.yul\":1090:1153   */\n      swap2\n      pop\n        /* \"#utility.yul\":1046:1163   */\n      pop\n        /* \"#utility.yul\":841:1170   */\n      swap3\n      swap2\n      pop\n      pop\n      jump\t// out\n        /* \"#utility.yul\":1176:1253   */\n    tag_114:\n        /* \"#utility.yul\":1213:1220   */\n      0x00\n        /* \"#utility.yul\":1242:1247   */\n      dup2\n        /* \"#utility.yul\":1231:1247   */\n      swap1\n      pop\n        /* \"#utility.yul\":1176:1253   */\n      swap2\n      swap1\n      pop\n      jump\t// out\n        /* \"#utility.yul\":1259:1377   */\n    tag_115:\n        /* \"#utility.yul\":1346:1370   */\n      tag_165\n        /* \"#utility.yul\":1364:1369   */\n      dup2\n        /* \"#utility.yul\":1346:1370   */\n      tag_114\n      jump\t// in\n    tag_165:\n        /* \"#utility.yul\":1341:1344   */\n      dup3\n        /* \"#utility.yul\":1334:1371   */\n      mstore\n        /* \"#utility.yul\":1259:1377   */\n      pop\n      pop\n      jump\t// out\n        /* \"#utility.yul\":1383:1605   */\n    tag_11:\n        /* \"#utility.yul\":1476:1480   */\n      0x00\n        /* \"#utility.yul\":1514:1516   */\n      0x20\n        /* \"#utility.yul\":1503:1512   */\n      dup3\n        /* \"#utility.yul\":1499:1517   */\n      add\n        /* \"#utility.yul\":1491:1517   */\n      swap1\n      pop\n        /* \"#utility.yul\":1527:1598   */\n      tag_167\n        /* \"#utility.yul\":1595:1596   */\n      0x00\n        /* \"#utility.yul\":1584:1593   */\n      dup4\n        /* \"#utility.yul\":1580:1597   */\n      add\n        /* \"#utility.yul\":1571:1577   */\n      dup5\n        /* \"#utility.yul\":1527:1598   */\n      tag_115\n      jump\t// in\n    tag_167:\n        /* \"#utility.yul\":1383:1605   */\n      swap3\n      swap2\n      pop\n      pop\n      jump\t// out\n        /* \"#utility.yul\":1611:1728   */\n    tag_116:\n        /* \"#utility.yul\":1720:1721   */\n      0x00\n        /* \"#utility.yul\":1717:1718   */\n      dup1\n        /* \"#utility.yul\":1710:1722   */\n      revert\n        /* \"#utility.yul\":1734:1836   */\n    tag_117:\n        /* \"#utility.yul\":1775:1781   */\n      0x00\n        /* \"#utility.yul\":1826:1828   */\n      0x1f\n        /* \"#utility.yul\":1822:1829   */\n      not\n        /* \"#utility.yul\":1817:1819   */\n      0x1f\n        /* \"#utility.yul\":1810:1815   */\n      dup4\n        /* \"#utility.yul\":1806:1820   */\n      add\n        /* \"#utility.yul\":1802:1830   */\n      and\n        /* \"#utility.yul\":1792:1830   */\n      swap1\n      pop\n        /* \"#utility.yul\":1734:1836   */\n      swap2\n      swap1\n      pop\n      jump\t// out\n        /* \"#utility.yul\":1842:2022   */\n    tag_118:\n        /* \"#utility.yul\":1890:1967   */\n      0x4e487b7100000000000000000000000000000000000000000000000000000000\n        /* \"#utility.yul\":1887:1888   */\n      0x00\n        /* \"#utility.yul\":1880:1968   */\n      mstore\n        /* \"#utility.yul\":1987:1991   */\n      0x41\n        /* \"#utility.yul\":1984:1985   */\n      0x04\n        /* \"#utility.yul\":1977:1992   */\n      mstore\n        /* \"#utility.yul\":2011:2015   */\n      0x24\n        /* \"#utility.yul\":2008:2009   */\n      0x00\n        /* \"#utility.yul\":2001:2016   */\n      revert\n        /* \"#utility.yul\":2028:2309   */\n    tag_119:\n        /* \"#utility.yul\":2111:2138   */\n      tag_172\n        /* \"#utility.yul\":2133:2137   */\n      dup3\n        /* \"#utility.yul\":2111:2138   */\n      tag_117\n      jump\t// in\n    tag_172:\n        /* \"#utility.yul\":2103:2109   */\n      dup2\n        /* \"#utility.yul\":2099:2139   */\n      add\n        /* \"#utility.yul\":2241:2247   */\n      dup2\n        /* \"#utility.yul\":2229:2239   */\n      dup2\n        /* \"#utility.yul\":2226:2248   */\n      lt\n        /* \"#utility.yul\":2205:2223   */\n      0xffffffffffffffff\n        /* \"#utility.yul\":2193:2203   */\n      dup3\n        /* \"#utility.yul\":2190:2224   */\n      gt\n        /* \"#utility.yul\":2187:2249   */\n      or\n        /* \"#utility.yul\":2184:2272   */\n      iszero\n      tag_173\n      jumpi\n        /* \"#utility.yul\":2252:2270   */\n      tag_174\n      tag_118\n      jump\t// in\n    tag_174:\n        /* \"#utility.yul\":2184:2272   */\n    tag_173:\n        /* \"#utility.yul\":2292:2302   */\n      dup1\n        /* \"#utility.yul\":2288:2290   */\n      0x40\n        /* \"#utility.yul\":2281:2303   */\n      mstore\n        /* \"#utility.yul\":2071:2309   */\n      pop\n        /* \"#utility.yul\":2028:2309   */\n      pop\n      pop\n      jump\t// out\n        /* \"#utility.yul\":2315:2444   */\n    tag_120:\n        /* \"#utility.yul\":2349:2355   */\n      0x00\n        /* \"#utility.yul\":2376:2396   */\n      tag_176\n      tag_107\n      jump\t// in\n    tag_176:\n        /* \"#utility.yul\":2366:2396   */\n      swap1\n      pop\n        /* \"#utility.yul\":2405:2438   */\n      tag_177\n        /* \"#utility.yul\":2433:2437   */\n      dup3\n        /* \"#utility.yul\":2425:2431   */\n      dup3\n        /* \"#utility.yul\":2405:2438   */\n      tag_119\n      jump\t// in\n    tag_177:\n        /* \"#utility.yul\":2315:2444   */\n      swap2\n      swap1\n      pop\n      jump\t// out\n        /* \"#utility.yul\":2450:2697   */\n    tag_121:\n        /* \"#utility.yul\":2523:2527   */\n      0x00\n        /* \"#utility.yul\":2613:2631   */\n      0xffffffffffffffff\n        /* \"#utility.yul\":2605:2611   */\n      dup3\n        /* \"#utility.yul\":2602:2632   */\n      gt\n        /* \"#utility.yul\":2599:2655   */\n      iszero\n      tag_179\n      jumpi\n        /* \"#utility.yul\":2635:2653   */\n      tag_180\n      tag_118\n      jump\t// in\n    tag_180:\n        /* \"#utility.yul\":2599:2655   */\n    tag_179:\n        /* \"#utility.yul\":2685:2689   */\n      0x20\n        /* \"#utility.yul\":2677:2683   */\n      dup3\n        /* \"#utility.yul\":2673:2690   */\n      mul\n        /* \"#utility.yul\":2665:2690   */\n      swap1\n      pop\n        /* \"#utility.yul\":2450:2697   */\n      swap2\n      swap1\n      pop\n      jump\t// out\n        /* \"#utility.yul\":2703:2820   */\n    tag_122:\n        /* \"#utility.yul\":2812:2813   */\n      0x00\n        /* \"#utility.yul\":2809:2810   */\n      dup1\n        /* \"#utility.yul\":2802:2814   */\n      revert\n        /* \"#utility.yul\":2826:2912   */\n    tag_123:\n        /* \"#utility.yul\":2861:2868   */\n      0x00\n        /* \"#utility.yul\":2901:2905   */\n      0xff\n        /* \"#utility.yul\":2894:2899   */\n      dup3\n        /* \"#utility.yul\":2890:2906   */\n      and\n        /* \"#utility.yul\":2879:2906   */\n      swap1\n      pop\n        /* \"#utility.yul\":2826:2912   */\n      swap2\n      swap1\n      pop\n      jump\t// out\n        /* \"#utility.yul\":2918:3036   */\n    tag_124:\n        /* \"#utility.yul\":2989:3011   */\n      tag_184\n        /* \"#utility.yul\":3005:3010   */\n      dup2\n        /* \"#utility.yul\":2989:3011   */\n      tag_123\n      jump\t// in\n    tag_184:\n        /* \"#utility.yul\":2982:2987   */\n      dup2\n        /* \"#utility.yul\":2979:3012   */\n      eq\n        /* \"#utility.yul\":2969:3030   */\n      tag_185\n      jumpi\n        /* \"#utility.yul\":3026:3027   */\n      0x00\n        /* \"#utility.yul\":3023:3024   */\n      dup1\n        /* \"#utility.yul\":3016:3028   */\n      revert\n        /* \"#utility.yul\":2969:3030   */\n    tag_185:\n        /* \"#utility.yul\":2918:3036   */\n      pop\n      jump\t// out\n        /* \"#utility.yul\":3042:3177   */\n    tag_125:\n        /* \"#utility.yul\":3086:3091   */\n      0x00\n        /* \"#utility.yul\":3124:3130   */\n      dup2\n        /* \"#utility.yul\":3111:3131   */\n      calldataload\n        /* \"#utility.yul\":3102:3131   */\n      swap1\n      pop\n        /* \"#utility.yul\":3140:3171   */\n      tag_187\n        /* \"#utility.yul\":3165:3170   */\n      dup2\n        /* \"#utility.yul\":3140:3171   */\n      tag_124\n      jump\t// in\n    tag_187:\n        /* \"#utility.yul\":3042:3177   */\n      swap3\n      swap2\n      pop\n      pop\n      jump\t// out\n        /* \"#utility.yul\":3199:3836   */\n    tag_126:\n        /* \"#utility.yul\":3291:3296   */\n      0x00\n        /* \"#utility.yul\":3316:3393   */\n      tag_189\n        /* \"#utility.yul\":3332:3392   */\n      tag_190\n        /* \"#utility.yul\":3385:3391   */\n      dup5\n        /* \"#utility.yul\":3332:3392   */\n      tag_121\n      jump\t// in\n    tag_190:\n        /* \"#utility.yul\":3316:3393   */\n      tag_120\n      jump\t// in\n    tag_189:\n        /* \"#utility.yul\":3307:3393   */\n      swap1\n      pop\n        /* \"#utility.yul\":3413:3418   */\n      dup1\n        /* \"#utility.yul\":3466:3470   */\n      0x20\n        /* \"#utility.yul\":3458:3464   */\n      dup5\n        /* \"#utility.yul\":3454:3471   */\n      mul\n        /* \"#utility.yul\":3446:3452   */\n      dup4\n        /* \"#utility.yul\":3442:3472   */\n      add\n        /* \"#utility.yul\":3495:3498   */\n      dup6\n        /* \"#utility.yul\":3487:3493   */\n      dup2\n        /* \"#utility.yul\":3484:3499   */\n      gt\n        /* \"#utility.yul\":3481:3603   */\n      iszero\n      tag_191\n      jumpi\n        /* \"#utility.yul\":3514:3593   */\n      tag_192\n      tag_122\n      jump\t// in\n    tag_192:\n        /* \"#utility.yul\":3481:3603   */\n    tag_191:\n        /* \"#utility.yul\":3629:3635   */\n      dup4\n        /* \"#utility.yul\":3612:3830   */\n    tag_193:\n        /* \"#utility.yul\":3646:3652   */\n      dup2\n        /* \"#utility.yul\":3641:3644   */\n      dup2\n        /* \"#utility.yul\":3638:3653   */\n      lt\n        /* \"#utility.yul\":3612:3830   */\n      iszero\n      tag_195\n      jumpi\n        /* \"#utility.yul\":3721:3724   */\n      dup1\n        /* \"#utility.yul\":3750:3785   */\n      tag_196\n        /* \"#utility.yul\":3781:3784   */\n      dup9\n        /* \"#utility.yul\":3769:3779   */\n      dup3\n        /* \"#utility.yul\":3750:3785   */\n      tag_125\n      jump\t// in\n    tag_196:\n        /* \"#utility.yul\":3745:3748   */\n      dup5\n        /* \"#utility.yul\":3738:3786   */\n      mstore\n        /* \"#utility.yul\":3815:3819   */\n      0x20\n        /* \"#utility.yul\":3810:3813   */\n      dup5\n        /* \"#utility.yul\":3806:3820   */\n      add\n        /* \"#utility.yul\":3799:3820   */\n      swap4\n      pop\n        /* \"#utility.yul\":3688:3830   */\n      pop\n        /* \"#utility.yul\":3672:3676   */\n      0x20\n        /* \"#utility.yul\":3667:3670   */\n      dup2\n        /* \"#utility.yul\":3663:3677   */\n      add\n        /* \"#utility.yul\":3656:3677   */\n      swap1\n      pop\n        /* \"#utility.yul\":3612:3830   */\n      jump(tag_193)\n    tag_195:\n        /* \"#utility.yul\":3616:3637   */\n      pop\n        /* \"#utility.yul\":3297:3836   */\n      pop\n      pop\n        /* \"#utility.yul\":3199:3836   */\n      swap4\n      swap3\n      pop\n      pop\n      pop\n      jump\t// out\n        /* \"#utility.yul\":3858:4193   */\n    tag_127:\n        /* \"#utility.yul\":3925:3930   */\n      0x00\n        /* \"#utility.yul\":3974:3977   */\n      dup3\n        /* \"#utility.yul\":3967:3971   */\n      0x1f\n        /* \"#utility.yul\":3959:3965   */\n      dup4\n        /* \"#utility.yul\":3955:3972   */\n      add\n        /* \"#utility.yul\":3951:3978   */\n      slt\n        /* \"#utility.yul\":3941:4063   */\n      tag_198\n      jumpi\n        /* \"#utility.yul\":3982:4061   */\n      tag_199\n      tag_116\n      jump\t// in\n    tag_199:\n        /* \"#utility.yul\":3941:4063   */\n    tag_198:\n        /* \"#utility.yul\":4086:4090   */\n      0x04\n        /* \"#utility.yul\":4108:4187   */\n      tag_200\n        /* \"#utility.yul\":4183:4186   */\n      dup5\n        /* \"#utility.yul\":4175:4181   */\n      dup3\n        /* \"#utility.yul\":4167:4173   */\n      dup6\n        /* \"#utility.yul\":4108:4187   */\n      tag_126\n      jump\t// in\n    tag_200:\n        /* \"#utility.yul\":4099:4187   */\n      swap2\n      pop\n        /* \"#utility.yul\":3931:4193   */\n      pop\n        /* \"#utility.yul\":3858:4193   */\n      swap3\n      swap2\n      pop\n      pop\n      jump\t// out\n        /* \"#utility.yul\":4199:4447   */\n    tag_128:\n        /* \"#utility.yul\":4273:4277   */\n      0x00\n        /* \"#utility.yul\":4363:4381   */\n      0xffffffffffffffff\n        /* \"#utility.yul\":4355:4361   */\n      dup3\n        /* \"#utility.yul\":4352:4382   */\n      gt\n        /* \"#utility.yul\":4349:4405   */\n      iszero\n      tag_202\n      jumpi\n        /* \"#utility.yul\":4385:4403   */\n      tag_203\n      tag_118\n      jump\t// in\n    tag_203:\n        /* \"#utility.yul\":4349:4405   */\n    tag_202:\n        /* \"#utility.yul\":4435:4439   */\n      0x20\n        /* \"#utility.yul\":4427:4433   */\n      dup3\n        /* \"#utility.yul\":4423:4440   */\n      mul\n        /* \"#utility.yul\":4415:4440   */\n      swap1\n      pop\n        /* \"#utility.yul\":4199:4447   */\n      swap2\n      swap1\n      pop\n      jump\t// out\n        /* \"#utility.yul\":4453:4602   */\n    tag_129:\n        /* \"#utility.yul\":4489:4496   */\n      0x00\n        /* \"#utility.yul\":4529:4595   */\n      0xff00000000000000000000000000000000000000000000000000000000000000\n        /* \"#utility.yul\":4522:4527   */\n      dup3\n        /* \"#utility.yul\":4518:4596   */\n      and\n        /* \"#utility.yul\":4507:4596   */\n      swap1\n      pop\n        /* \"#utility.yul\":4453:4602   */\n      swap2\n      swap1\n      pop\n      jump\t// out\n        /* \"#utility.yul\":4608:4728   */\n    tag_130:\n        /* \"#utility.yul\":4680:4703   */\n      tag_206\n        /* \"#utility.yul\":4697:4702   */\n      dup2\n        /* \"#utility.yul\":4680:4703   */\n      tag_129\n      jump\t// in\n    tag_206:\n        /* \"#utility.yul\":4673:4678   */\n      dup2\n        /* \"#utility.yul\":4670:4704   */\n      eq\n        /* \"#utility.yul\":4660:4722   */\n      tag_207\n      jumpi\n        /* \"#utility.yul\":4718:4719   */\n      0x00\n        /* \"#utility.yul\":4715:4716   */\n      dup1\n        /* \"#utility.yul\":4708:4720   */\n      revert\n        /* \"#utility.yul\":4660:4722   */\n    tag_207:\n        /* \"#utility.yul\":4608:4728   */\n      pop\n      jump\t// out\n        /* \"#utility.yul\":4734:4871   */\n    tag_131:\n        /* \"#utility.yul\":4779:4784   */\n      0x00\n        /* \"#utility.yul\":4817:4823   */\n      dup2\n        /* \"#utility.yul\":4804:4824   */\n      calldataload\n        /* \"#utility.yul\":4795:4824   */\n      swap1\n      pop\n        /* \"#utility.yul\":4833:4865   */\n      tag_209\n        /* \"#utility.yul\":4859:4864   */\n      dup2\n        /* \"#utility.yul\":4833:4865   */\n      tag_130\n      jump\t// in\n    tag_209:\n        /* \"#utility.yul\":4734:4871   */\n      swap3\n      swap2\n      pop\n      pop\n      jump\t// out\n        /* \"#utility.yul\":4894:5534   */\n    tag_132:\n        /* \"#utility.yul\":4987:4992   */\n      0x00\n        /* \"#utility.yul\":5012:5090   */\n      tag_211\n        /* \"#utility.yul\":5028:5089   */\n      tag_212\n        /* \"#utility.yul\":5082:5088   */\n      dup5\n        /* \"#utility.yul\":5028:5089   */\n      tag_128\n      jump\t// in\n    tag_212:\n        /* \"#utility.yul\":5012:5090   */\n      tag_120\n      jump\t// in\n    tag_211:\n        /* \"#utility.yul\":5003:5090   */\n      swap1\n      pop\n        /* \"#utility.yul\":5110:5115   */\n      dup1\n        /* \"#utility.yul\":5163:5167   */\n      0x20\n        /* \"#utility.yul\":5155:5161   */\n      dup5\n        /* \"#utility.yul\":5151:5168   */\n      mul\n        /* \"#utility.yul\":5143:5149   */\n      dup4\n        /* \"#utility.yul\":5139:5169   */\n      add\n        /* \"#utility.yul\":5192:5195   */\n      dup6\n        /* \"#utility.yul\":5184:5190   */\n      dup2\n        /* \"#utility.yul\":5181:5196   */\n      gt\n        /* \"#utility.yul\":5178:5300   */\n      iszero\n      tag_213\n      jumpi\n        /* \"#utility.yul\":5211:5290   */\n      tag_214\n      tag_122\n      jump\t// in\n    tag_214:\n        /* \"#utility.yul\":5178:5300   */\n    tag_213:\n        /* \"#utility.yul\":5326:5332   */\n      dup4\n        /* \"#utility.yul\":5309:5528   */\n    tag_215:\n        /* \"#utility.yul\":5343:5349   */\n      dup2\n        /* \"#utility.yul\":5338:5341   */\n      dup2\n        /* \"#utility.yul\":5335:5350   */\n      lt\n        /* \"#utility.yul\":5309:5528   */\n      iszero\n      tag_217\n      jumpi\n        /* \"#utility.yul\":5418:5421   */\n      dup1\n        /* \"#utility.yul\":5447:5483   */\n      tag_218\n        /* \"#utility.yul\":5479:5482   */\n      dup9\n        /* \"#utility.yul\":5467:5477   */\n      dup3\n        /* \"#utility.yul\":5447:5483   */\n      tag_131\n      jump\t// in\n    tag_218:\n        /* \"#utility.yul\":5442:5445   */\n      dup5\n        /* \"#utility.yul\":5435:5484   */\n      mstore\n        /* \"#utility.yul\":5513:5517   */\n      0x20\n        /* \"#utility.yul\":5508:5511   */\n      dup5\n        /* \"#utility.yul\":5504:5518   */\n      add\n        /* \"#utility.yul\":5497:5518   */\n      swap4\n      pop\n        /* \"#utility.yul\":5385:5528   */\n      pop\n        /* \"#utility.yul\":5369:5373   */\n      0x20\n        /* \"#utility.yul\":5364:5367   */\n      dup2\n        /* \"#utility.yul\":5360:5374   */\n      add\n        /* \"#utility.yul\":5353:5374   */\n      swap1\n      pop\n        /* \"#utility.yul\":5309:5528   */\n      jump(tag_215)\n    tag_217:\n        /* \"#utility.yul\":5313:5334   */\n      pop\n        /* \"#utility.yul\":4993:5534   */\n      pop\n      pop\n        /* \"#utility.yul\":4894:5534   */\n      swap4\n      swap3\n      pop\n      pop\n      pop\n      jump\t// out\n        /* \"#utility.yul\":5557:5894   */\n    tag_133:\n        /* \"#utility.yul\":5625:5630   */\n      0x00\n        /* \"#utility.yul\":5674:5677   */\n      dup3\n        /* \"#utility.yul\":5667:5671   */\n      0x1f\n        /* \"#utility.yul\":5659:5665   */\n      dup4\n        /* \"#utility.yul\":5655:5672   */\n      add\n        /* \"#utility.yul\":5651:5678   */\n      slt\n        /* \"#utility.yul\":5641:5763   */\n      tag_220\n      jumpi\n        /* \"#utility.yul\":5682:5761   */\n      tag_221\n      tag_116\n      jump\t// in\n    tag_221:\n        /* \"#utility.yul\":5641:5763   */\n    tag_220:\n        /* \"#utility.yul\":5786:5790   */\n      0x02\n        /* \"#utility.yul\":5808:5888   */\n      tag_222\n        /* \"#utility.yul\":5884:5887   */\n      dup5\n        /* \"#utility.yul\":5876:5882   */\n      dup3\n        /* \"#utility.yul\":5868:5874   */\n      dup6\n        /* \"#utility.yul\":5808:5888   */\n      tag_132\n      jump\t// in\n    tag_222:\n        /* \"#utility.yul\":5799:5888   */\n      swap2\n      pop\n        /* \"#utility.yul\":5631:5894   */\n      pop\n        /* \"#utility.yul\":5557:5894   */\n      swap3\n      swap2\n      pop\n      pop\n      jump\t// out\n        /* \"#utility.yul\":5900:6462   */\n    tag_14:\n        /* \"#utility.yul\":6011:6017   */\n      0x00\n        /* \"#utility.yul\":6019:6025   */\n      dup1\n        /* \"#utility.yul\":6068:6071   */\n      0xc0\n        /* \"#utility.yul\":6056:6065   */\n      dup4\n        /* \"#utility.yul\":6047:6054   */\n      dup6\n        /* \"#utility.yul\":6043:6066   */\n      sub\n        /* \"#utility.yul\":6039:6072   */\n      slt\n        /* \"#utility.yul\":6036:6156   */\n      iszero\n      tag_224\n      jumpi\n        /* \"#utility.yul\":6075:6154   */\n      tag_225\n      tag_108\n      jump\t// in\n    tag_225:\n        /* \"#utility.yul\":6036:6156   */\n    tag_224:\n        /* \"#utility.yul\":6195:6196   */\n      0x00\n        /* \"#utility.yul\":6220:6294   */\n      tag_226\n        /* \"#utility.yul\":6286:6293   */\n      dup6\n        /* \"#utility.yul\":6277:6283   */\n      dup3\n        /* \"#utility.yul\":6266:6275   */\n      dup7\n        /* \"#utility.yul\":6262:6284   */\n      add\n        /* \"#utility.yul\":6220:6294   */\n      tag_127\n      jump\t// in\n    tag_226:\n        /* \"#utility.yul\":6210:6294   */\n      swap3\n      pop\n        /* \"#utility.yul\":6166:6304   */\n      pop\n        /* \"#utility.yul\":6343:6346   */\n      0x80\n        /* \"#utility.yul\":6370:6445   */\n      tag_227\n        /* \"#utility.yul\":6437:6444   */\n      dup6\n        /* \"#utility.yul\":6428:6434   */\n      dup3\n        /* \"#utility.yul\":6417:6426   */\n      dup7\n        /* \"#utility.yul\":6413:6435   */\n      add\n        /* \"#utility.yul\":6370:6445   */\n      tag_133\n      jump\t// in\n    tag_227:\n        /* \"#utility.yul\":6360:6445   */\n      swap2\n      pop\n        /* \"#utility.yul\":6314:6455   */\n      pop\n        /* \"#utility.yul\":5900:6462   */\n      swap3\n      pop\n      swap3\n      swap1\n      pop\n      jump\t// out\n        /* \"#utility.yul\":6468:6637   */\n    tag_134:\n        /* \"#utility.yul\":6552:6563   */\n      0x00\n        /* \"#utility.yul\":6586:6592   */\n      dup3\n        /* \"#utility.yul\":6581:6584   */\n      dup3\n        /* \"#utility.yul\":6574:6593   */\n      mstore\n        /* \"#utility.yul\":6626:6630   */\n      0x20\n        /* \"#utility.yul\":6621:6624   */\n      dup3\n        /* \"#utility.yul\":6617:6631   */\n      add\n        /* \"#utility.yul\":6602:6631   */\n      swap1\n      pop\n        /* \"#utility.yul\":6468:6637   */\n      swap3\n      swap2\n      pop\n      pop\n      jump\t// out\n        /* \"#utility.yul\":6643:6819   */\n    tag_135:\n        /* \"#utility.yul\":6783:6811   */\n      0x5469636b657420707269636520697320302e3035206574686572000000000000\n        /* \"#utility.yul\":6779:6780   */\n      0x00\n        /* \"#utility.yul\":6771:6777   */\n      dup3\n        /* \"#utility.yul\":6767:6781   */\n      add\n        /* \"#utility.yul\":6760:6812   */\n      mstore\n        /* \"#utility.yul\":6643:6819   */\n      pop\n      jump\t// out\n        /* \"#utility.yul\":6825:7191   */\n    tag_136:\n        /* \"#utility.yul\":6967:6970   */\n      0x00\n        /* \"#utility.yul\":6988:7055   */\n      tag_231\n        /* \"#utility.yul\":7052:7054   */\n      0x1a\n        /* \"#utility.yul\":7047:7050   */\n      dup4\n        /* \"#utility.yul\":6988:7055   */\n      tag_134\n      jump\t// in\n    tag_231:\n        /* \"#utility.yul\":6981:7055   */\n      swap2\n      pop\n        /* \"#utility.yul\":7064:7157   */\n      tag_232\n        /* \"#utility.yul\":7153:7156   */\n      dup3\n        /* \"#utility.yul\":7064:7157   */\n      tag_135\n      jump\t// in\n    tag_232:\n        /* \"#utility.yul\":7182:7184   */\n      0x20\n        /* \"#utility.yul\":7177:7180   */\n      dup3\n        /* \"#utility.yul\":7173:7185   */\n      add\n        /* \"#utility.yul\":7166:7185   */\n      swap1\n      pop\n        /* \"#utility.yul\":6825:7191   */\n      swap2\n      swap1\n      pop\n      jump\t// out\n        /* \"#utility.yul\":7197:7616   */\n    tag_22:\n        /* \"#utility.yul\":7363:7367   */\n      0x00\n        /* \"#utility.yul\":7401:7403   */\n      0x20\n        /* \"#utility.yul\":7390:7399   */\n      dup3\n        /* \"#utility.yul\":7386:7404   */\n      add\n        /* \"#utility.yul\":7378:7404   */\n      swap1\n      pop\n        /* \"#utility.yul\":7450:7459   */\n      dup2\n        /* \"#utility.yul\":7444:7448   */\n      dup2\n        /* \"#utility.yul\":7440:7460   */\n      sub\n        /* \"#utility.yul\":7436:7437   */\n      0x00\n        /* \"#utility.yul\":7425:7434   */\n      dup4\n        /* \"#utility.yul\":7421:7438   */\n      add\n        /* \"#utility.yul\":7414:7461   */\n      mstore\n        /* \"#utility.yul\":7478:7609   */\n      tag_234\n        /* \"#utility.yul\":7604:7608   */\n      dup2\n        /* \"#utility.yul\":7478:7609   */\n      tag_136\n      jump\t// in\n    tag_234:\n        /* \"#utility.yul\":7470:7609   */\n      swap1\n      pop\n        /* \"#utility.yul\":7197:7616   */\n      swap2\n      swap1\n      pop\n      jump\t// out\n        /* \"#utility.yul\":7622:7802   */\n    tag_137:\n        /* \"#utility.yul\":7670:7747   */\n      0x4e487b7100000000000000000000000000000000000000000000000000000000\n        /* \"#utility.yul\":7667:7668   */\n      0x00\n        /* \"#utility.yul\":7660:7748   */\n      mstore\n        /* \"#utility.yul\":7767:7771   */\n      0x11\n        /* \"#utility.yul\":7764:7765   */\n      0x04\n        /* \"#utility.yul\":7757:7772   */\n      mstore\n        /* \"#utility.yul\":7791:7795   */\n      0x24\n        /* \"#utility.yul\":7788:7789   */\n      0x00\n        /* \"#utility.yul\":7781:7796   */\n      revert\n        /* \"#utility.yul\":7808:7999   */\n    tag_33:\n        /* \"#utility.yul\":7848:7851   */\n      0x00\n        /* \"#utility.yul\":7867:7887   */\n      tag_237\n        /* \"#utility.yul\":7885:7886   */\n      dup3\n        /* \"#utility.yul\":7867:7887   */\n      tag_114\n      jump\t// in\n    tag_237:\n        /* \"#utility.yul\":7862:7887   */\n      swap2\n      pop\n        /* \"#utility.yul\":7901:7921   */\n      tag_238\n        /* \"#utility.yul\":7919:7920   */\n      dup4\n        /* \"#utility.yul\":7901:7921   */\n      tag_114\n      jump\t// in\n    tag_238:\n        /* \"#utility.yul\":7896:7921   */\n      swap3\n      pop\n        /* \"#utility.yul\":7944:7945   */\n      dup3\n        /* \"#utility.yul\":7941:7942   */\n      dup3\n        /* \"#utility.yul\":7937:7946   */\n      add\n        /* \"#utility.yul\":7930:7946   */\n      swap1\n      pop\n        /* \"#utility.yul\":7965:7968   */\n      dup1\n        /* \"#utility.yul\":7962:7963   */\n      dup3\n        /* \"#utility.yul\":7959:7969   */\n      gt\n        /* \"#utility.yul\":7956:7992   */\n      iszero\n      tag_239\n      jumpi\n        /* \"#utility.yul\":7972:7990   */\n      tag_240\n      tag_137\n      jump\t// in\n    tag_240:\n        /* \"#utility.yul\":7956:7992   */\n    tag_239:\n        /* \"#utility.yul\":7808:7999   */\n      swap3\n      swap2\n      pop\n      pop\n      jump\t// out\n        /* \"#utility.yul\":8005:8171   */\n    tag_138:\n        /* \"#utility.yul\":8145:8163   */\n      0x4e6f2072657761726420746f2067657400000000000000000000000000000000\n        /* \"#utility.yul\":8141:8142   */\n      0x00\n        /* \"#utility.yul\":8133:8139   */\n      dup3\n        /* \"#utility.yul\":8129:8143   */\n      add\n        /* \"#utility.yul\":8122:8164   */\n      mstore\n        /* \"#utility.yul\":8005:8171   */\n      pop\n      jump\t// out\n        /* \"#utility.yul\":8177:8543   */\n    tag_139:\n        /* \"#utility.yul\":8319:8322   */\n      0x00\n        /* \"#utility.yul\":8340:8407   */\n      tag_243\n        /* \"#utility.yul\":8404:8406   */\n      0x10\n        /* \"#utility.yul\":8399:8402   */\n      dup4\n        /* \"#utility.yul\":8340:8407   */\n      tag_134\n      jump\t// in\n    tag_243:\n        /* \"#utility.yul\":8333:8407   */\n      swap2\n      pop\n        /* \"#utility.yul\":8416:8509   */\n      tag_244\n        /* \"#utility.yul\":8505:8508   */\n      dup3\n        /* \"#utility.yul\":8416:8509   */\n      tag_138\n      jump\t// in\n    tag_244:\n        /* \"#utility.yul\":8534:8536   */\n      0x20\n        /* \"#utility.yul\":8529:8532   */\n      dup3\n        /* \"#utility.yul\":8525:8537   */\n      add\n        /* \"#utility.yul\":8518:8537   */\n      swap1\n      pop\n        /* \"#utility.yul\":8177:8543   */\n      swap2\n      swap1\n      pop\n      jump\t// out\n        /* \"#utility.yul\":8549:8968   */\n    tag_37:\n        /* \"#utility.yul\":8715:8719   */\n      0x00\n        /* \"#utility.yul\":8753:8755   */\n      0x20\n        /* \"#utility.yul\":8742:8751   */\n      dup3\n        /* \"#utility.yul\":8738:8756   */\n      add\n        /* \"#utility.yul\":8730:8756   */\n      swap1\n      pop\n        /* \"#utility.yul\":8802:8811   */\n      dup2\n        /* \"#utility.yul\":8796:8800   */\n      dup2\n        /* \"#utility.yul\":8792:8812   */\n      sub\n        /* \"#utility.yul\":8788:8789   */\n      0x00\n        /* \"#utility.yul\":8777:8786   */\n      dup4\n        /* \"#utility.yul\":8773:8790   */\n      add\n        /* \"#utility.yul\":8766:8813   */\n      mstore\n        /* \"#utility.yul\":8830:8961   */\n      tag_246\n        /* \"#utility.yul\":8956:8960   */\n      dup2\n        /* \"#utility.yul\":8830:8961   */\n      tag_139\n      jump\t// in\n    tag_246:\n        /* \"#utility.yul\":8822:8961   */\n      swap1\n      pop\n        /* \"#utility.yul\":8549:8968   */\n      swap2\n      swap1\n      pop\n      jump\t// out\n        /* \"#utility.yul\":8974:9154   */\n    tag_140:\n        /* \"#utility.yul\":9022:9099   */\n      0x4e487b7100000000000000000000000000000000000000000000000000000000\n        /* \"#utility.yul\":9019:9020   */\n      0x00\n        /* \"#utility.yul\":9012:9100   */\n      mstore\n        /* \"#utility.yul\":9119:9123   */\n      0x12\n        /* \"#utility.yul\":9116:9117   */\n      0x04\n        /* \"#utility.yul\":9109:9124   */\n      mstore\n        /* \"#utility.yul\":9143:9147   */\n      0x24\n        /* \"#utility.yul\":9140:9141   */\n      0x00\n        /* \"#utility.yul\":9133:9148   */\n      revert\n        /* \"#utility.yul\":9160:9336   */\n    tag_70:\n        /* \"#utility.yul\":9192:9193   */\n      0x00\n        /* \"#utility.yul\":9209:9229   */\n      tag_249\n        /* \"#utility.yul\":9227:9228   */\n      dup3\n        /* \"#utility.yul\":9209:9229   */\n      tag_114\n      jump\t// in\n    tag_249:\n        /* \"#utility.yul\":9204:9229   */\n      swap2\n      pop\n        /* \"#utility.yul\":9243:9263   */\n      tag_250\n        /* \"#utility.yul\":9261:9262   */\n      dup4\n        /* \"#utility.yul\":9243:9263   */\n      tag_114\n      jump\t// in\n    tag_250:\n        /* \"#utility.yul\":9238:9263   */\n      swap3\n      pop\n        /* \"#utility.yul\":9282:9283   */\n      dup3\n        /* \"#utility.yul\":9272:9307   */\n      tag_251\n      jumpi\n        /* \"#utility.yul\":9287:9305   */\n      tag_252\n      tag_140\n      jump\t// in\n    tag_252:\n        /* \"#utility.yul\":9272:9307   */\n    tag_251:\n        /* \"#utility.yul\":9328:9329   */\n      dup3\n        /* \"#utility.yul\":9325:9326   */\n      dup3\n        /* \"#utility.yul\":9321:9330   */\n      mod\n        /* \"#utility.yul\":9316:9330   */\n      swap1\n      pop\n        /* \"#utility.yul\":9160:9336   */\n      swap3\n      swap2\n      pop\n      pop\n      jump\t// out\n        /* \"#utility.yul\":9342:9522   */\n    tag_85:\n        /* \"#utility.yul\":9390:9467   */\n      0x4e487b7100000000000000000000000000000000000000000000000000000000\n        /* \"#utility.yul\":9387:9388   */\n      0x00\n        /* \"#utility.yul\":9380:9468   */\n      mstore\n        /* \"#utility.yul\":9487:9491   */\n      0x32\n        /* \"#utility.yul\":9484:9485   */\n      0x04\n        /* \"#utility.yul\":9477:9492   */\n      mstore\n        /* \"#utility.yul\":9511:9515   */\n      0x24\n        /* \"#utility.yul\":9508:9509   */\n      0x00\n        /* \"#utility.yul\":9501:9516   */\n      revert\n        /* \"#utility.yul\":9528:9761   */\n    tag_90:\n        /* \"#utility.yul\":9567:9570   */\n      0x00\n        /* \"#utility.yul\":9590:9614   */\n      tag_255\n        /* \"#utility.yul\":9608:9613   */\n      dup3\n        /* \"#utility.yul\":9590:9614   */\n      tag_114\n      jump\t// in\n    tag_255:\n        /* \"#utility.yul\":9581:9614   */\n      swap2\n      pop\n        /* \"#utility.yul\":9636:9702   */\n      0xffffffffffffffffffffffffffffffffffffffffffffffffffffffffffffffff\n        /* \"#utility.yul\":9629:9634   */\n      dup3\n        /* \"#utility.yul\":9626:9703   */\n      sub\n        /* \"#utility.yul\":9623:9726   */\n      tag_256\n      jumpi\n        /* \"#utility.yul\":9706:9724   */\n      tag_257\n      tag_137\n      jump\t// in\n    tag_257:\n        /* \"#utility.yul\":9623:9726   */\n    tag_256:\n        /* \"#utility.yul\":9753:9754   */\n      0x01\n        /* \"#utility.yul\":9746:9751   */\n      dup3\n        /* \"#utility.yul\":9742:9755   */\n      add\n        /* \"#utility.yul\":9735:9755   */\n      swap1\n      pop\n        /* \"#utility.yul\":9528:9761   */\n      swap2\n      swap1\n      pop\n      jump\t// out\n        /* \"#utility.yul\":9767:9846   */\n    tag_141:\n        /* \"#utility.yul\":9806:9813   */\n      0x00\n        /* \"#utility.yul\":9835:9840   */\n      dup2\n        /* \"#utility.yul\":9824:9840   */\n      swap1\n      pop\n        /* \"#utility.yul\":9767:9846   */\n      swap2\n      swap1\n      pop\n      jump\t// out\n        /* \"#utility.yul\":9852:10009   */\n    tag_142:\n        /* \"#utility.yul\":9957:10002   */\n      tag_260\n        /* \"#utility.yul\":9977:10001   */\n      tag_261\n        /* \"#utility.yul\":9995:10000   */\n      dup3\n        /* \"#utility.yul\":9977:10001   */\n      tag_114\n      jump\t// in\n    tag_261:\n        /* \"#utility.yul\":9957:10002   */\n      tag_141\n      jump\t// in\n    tag_260:\n        /* \"#utility.yul\":9952:9955   */\n      dup3\n        /* \"#utility.yul\":9945:10003   */\n      mstore\n        /* \"#utility.yul\":9852:10009   */\n      pop\n      pop\n      jump\t// out\n        /* \"#utility.yul\":10015:10109   */\n    tag_143:\n        /* \"#utility.yul\":10048:10056   */\n      0x00\n        /* \"#utility.yul\":10096:10101   */\n      dup2\n        /* \"#utility.yul\":10092:10094   */\n      0x60\n        /* \"#utility.yul\":10088:10102   */\n      shl\n        /* \"#utility.yul\":10067:10102   */\n      swap1\n      pop\n        /* \"#utility.yul\":10015:10109   */\n      swap2\n      swap1\n      pop\n      jump\t// out\n        /* \"#utility.yul\":10115:10209   */\n    tag_144:\n        /* \"#utility.yul\":10154:10161   */\n      0x00\n        /* \"#utility.yul\":10183:10203   */\n      tag_264\n        /* \"#utility.yul\":10197:10202   */\n      dup3\n        /* \"#utility.yul\":10183:10203   */\n      tag_143\n      jump\t// in\n    tag_264:\n        /* \"#utility.yul\":10172:10203   */\n      swap1\n      pop\n        /* \"#utility.yul\":10115:10209   */\n      swap2\n      swap1\n      pop\n      jump\t// out\n        /* \"#utility.yul\":10215:10315   */\n    tag_145:\n        /* \"#utility.yul\":10254:10261   */\n      0x00\n        /* \"#utility.yul\":10283:10309   */\n      tag_266\n        /* \"#utility.yul\":10303:10308   */\n      dup3\n        /* \"#utility.yul\":10283:10309   */\n      tag_144\n      jump\t// in\n    tag_266:\n        /* \"#utility.yul\":10272:10309   */\n      swap1\n      pop\n        /* \"#utility.yul\":10215:10315   */\n      swap2\n      swap1\n      pop\n      jump\t// out\n        /* \"#utility.yul\":10321:10478   */\n    tag_146:\n        /* \"#utility.yul\":10426:10471   */\n      tag_268\n        /* \"#utility.yul\":10446:10470   */\n      tag_269\n        /* \"#utility.yul\":10464:10469   */\n      dup3\n        /* \"#utility.yul\":10446:10470   */\n      tag_111\n      jump\t// in\n    tag_269:\n        /* \"#utility.yul\":10426:10471   */\n      tag_145\n      jump\t// in\n    tag_268:\n        /* \"#utility.yul\":10421:10424   */\n      dup3\n        /* \"#utility.yul\":10414:10472   */\n      mstore\n        /* \"#utility.yul\":10321:10478   */\n      pop\n      pop\n      jump\t// out\n        /* \"#utility.yul\":10484:11163   */\n    tag_106:\n        /* \"#utility.yul\":10680:10683   */\n      0x00\n        /* \"#utility.yul\":10695:10770   */\n      tag_271\n        /* \"#utility.yul\":10766:10769   */\n      dup3\n        /* \"#utility.yul\":10757:10763   */\n      dup8\n        /* \"#utility.yul\":10695:10770   */\n      tag_142\n      jump\t// in\n    tag_271:\n        /* \"#utility.yul\":10795:10797   */\n      0x20\n        /* \"#utility.yul\":10790:10793   */\n      dup3\n        /* \"#utility.yul\":10786:10798   */\n      add\n        /* \"#utility.yul\":10779:10798   */\n      swap2\n      pop\n        /* \"#utility.yul\":10808:10883   */\n      tag_272\n        /* \"#utility.yul\":10879:10882   */\n      dup3\n        /* \"#utility.yul\":10870:10876   */\n      dup7\n        /* \"#utility.yul\":10808:10883   */\n      tag_142\n      jump\t// in\n    tag_272:\n        /* \"#utility.yul\":10908:10910   */\n      0x20\n        /* \"#utility.yul\":10903:10906   */\n      dup3\n        /* \"#utility.yul\":10899:10911   */\n      add\n        /* \"#utility.yul\":10892:10911   */\n      swap2\n      pop\n        /* \"#utility.yul\":10921:10996   */\n      tag_273\n        /* \"#utility.yul\":10992:10995   */\n      dup3\n        /* \"#utility.yul\":10983:10989   */\n      dup6\n        /* \"#utility.yul\":10921:10996   */\n      tag_146\n      jump\t// in\n    tag_273:\n        /* \"#utility.yul\":11021:11023   */\n      0x14\n        /* \"#utility.yul\":11016:11019   */\n      dup3\n        /* \"#utility.yul\":11012:11024   */\n      add\n        /* \"#utility.yul\":11005:11024   */\n      swap2\n      pop\n        /* \"#utility.yul\":11034:11109   */\n      tag_274\n        /* \"#utility.yul\":11105:11108   */\n      dup3\n        /* \"#utility.yul\":11096:11102   */\n      dup5\n        /* \"#utility.yul\":11034:11109   */\n      tag_142\n      jump\t// in\n    tag_274:\n        /* \"#utility.yul\":11134:11136   */\n      0x20\n        /* \"#utility.yul\":11129:11132   */\n      dup3\n        /* \"#utility.yul\":11125:11137   */\n      add\n        /* \"#utility.yul\":11118:11137   */\n      swap2\n      pop\n        /* \"#utility.yul\":11154:11157   */\n      dup2\n        /* \"#utility.yul\":11147:11157   */\n      swap1\n      pop\n        /* \"#utility.yul\":10484:11163   */\n      swap6\n      swap5\n      pop\n      pop\n      pop\n      pop\n      pop\n      jump\t// out\n\n    auxdata: 0xa264697066735822122073c806f732eee3d07e265c125041fdd3a884111c885b389d9db45468d35c730464736f6c634300081a0033\n}\n",
				"bytecode": {
					"linkReferences": {},
					"object": "608060405234801561000f575f80fd5b50335f806101000a81548173ffffffffffffffffffffffffffffffffffffffff021916908373ffffffffffffffffffffffffffffffffffffffff1602179055504333604051602001610062929190610123565b604051602081830303815290604052805190602001205f1c60018190555061014e565b5f819050919050565b5f819050919050565b6100a86100a382610085565b61008e565b82525050565b5f73ffffffffffffffffffffffffffffffffffffffff82169050919050565b5f6100d7826100ae565b9050919050565b5f8160601b9050919050565b5f6100f4826100de565b9050919050565b5f610105826100ea565b9050919050565b61011d610118826100cd565b6100fb565b82525050565b5f61012e8285610097565b60208201915061013e828461010c565b6014820191508190509392505050565b610cfe8061015b5f395ff3fe608060405260043610610033575f3560e01c80630700037d146100375780632f5531d9146100735780633d18b9121461008f575b5f80fd5b348015610042575f80fd5b5061005d600480360381019061005891906106f4565b6100a5565b60405161006a9190610737565b60405180910390f35b61008d600480360381019061008891906109c7565b6100ba565b005b34801561009a575f80fd5b506100a3610198565b005b6002602052805f5260405f205f915090505481565b66b1a2bc2ec500003414610103576040517f08c379a00000000000000000000000000000000000000000000000000000000081526004016100fa90610a5f565b60405180910390fd5b5f61010c6102a4565b90505f610117610306565b90505f610126858585856103be565b90505f610132826103fd565b90505f811115610190578060025f3373ffffffffffffffffffffffffffffffffffffffff1673ffffffffffffffffffffffffffffffffffffffff1681526020019081526020015f205f8282546101889190610aaa565b925050819055505b505050505050565b5f60025f3373ffffffffffffffffffffffffffffffffffffffff1673ffffffffffffffffffffffffffffffffffffffff1681526020019081526020015f205490505f811161021b576040517f08c379a000000000000000000000000000000000000000000000000000000000815260040161021290610b27565b60405180910390fd5b5f60025f3373ffffffffffffffffffffffffffffffffffffffff1673ffffffffffffffffffffffffffffffffffffffff1681526020019081526020015f20819055503373ffffffffffffffffffffffffffffffffffffffff166108fc8290811502906040515f60405180830381858888f193505050501580156102a0573d5f803e3d5ffd5b5050565b6102ac610649565b60405180608001604052806102bf610467565b60ff1660ff1681526020016102d2610467565b60ff1660ff1681526020016102e5610467565b60ff1660ff1681526020016102f8610467565b60ff1660ff16815250905090565b61030e61066b565b604051806040016040528061032161048d565b7effffffffffffffffffffffffffffffffffffffffffffffffffffffffffffff19167effffffffffffffffffffffffffffffffffffffffffffffffffffffffffffff1916815260200161037261048d565b7effffffffffffffffffffffffffffffffffffffffffffffffffffffffffffff19167effffffffffffffffffffffffffffffffffffffffffffffffffffffffffffff1916815250905090565b5f805f90506103cd86856104b6565b816103d89190610aaa565b90506103e48584610545565b816103ef9190610aaa565b905080915050949350505050565b5f6006820361041657670de0b6b3a76400009050610462565b6005820361042e57670a688906bd8b00009050610462565b60048203610446576703782dace9d900009050610462565b6003820361045e5767016345785d8a00009050610462565b5f90505b919050565b5f60016009610474610612565b61047e9190610b72565b6104889190610aaa565b905090565b5f6041601a61049a610612565b6104a49190610b72565b6104ae9190610aaa565b60f81b905090565b5f805f90505f5b600481101561053a575f5b600481101561052c578481600481106104e4576104e3610ba2565b5b602002015160ff168683600481106104ff576104fe610ba2565b5b602002015160ff160361051f57828061051790610bcf565b93505061052c565b80806001019150506104c8565b5080806001019150506104bd565b508091505092915050565b5f805f90505f5b6002811015610607575f5b60028110156105f95784816002811061057357610572610ba2565b5b60200201517effffffffffffffffffffffffffffffffffffffffffffffffffffffffffffff19168683600281106105ad576105ac610ba2565b5b60200201517effffffffffffffffffffffffffffffffffffffffffffffffffffffffffffff1916036105ec5782806105e490610bcf565b9350506105f9565b8080600101915050610557565b50808060010191505061054c565b508091505092915050565b5f42443360015460405160200161062c9493929190610c7b565b604051602081830303815290604052805190602001205f1c905090565b6040518060800160405280600490602082028036833780820191505090505090565b6040518060400160405280600290602082028036833780820191505090505090565b5f604051905090565b5f80fd5b5f73ffffffffffffffffffffffffffffffffffffffff82169050919050565b5f6106c38261069a565b9050919050565b6106d3816106b9565b81146106dd575f80fd5b50565b5f813590506106ee816106ca565b92915050565b5f6020828403121561070957610708610696565b5b5f610716848285016106e0565b91505092915050565b5f819050919050565b6107318161071f565b82525050565b5f60208201905061074a5f830184610728565b92915050565b5f80fd5b5f601f19601f8301169050919050565b7f4e487b71000000000000000000000000000000000000000000000000000000005f52604160045260245ffd5b61079a82610754565b810181811067ffffffffffffffff821117156107b9576107b8610764565b5b80604052505050565b5f6107cb61068d565b90506107d78282610791565b919050565b5f67ffffffffffffffff8211156107f6576107f5610764565b5b602082029050919050565b5f80fd5b5f60ff82169050919050565b61081a81610805565b8114610824575f80fd5b50565b5f8135905061083581610811565b92915050565b5f61084d610848846107dc565b6107c2565b9050806020840283018581111561086757610866610801565b5b835b81811015610890578061087c8882610827565b845260208401935050602081019050610869565b5050509392505050565b5f82601f8301126108ae576108ad610750565b5b60046108bb84828561083b565b91505092915050565b5f67ffffffffffffffff8211156108de576108dd610764565b5b602082029050919050565b5f7fff0000000000000000000000000000000000000000000000000000000000000082169050919050565b61091d816108e9565b8114610927575f80fd5b50565b5f8135905061093881610914565b92915050565b5f61095061094b846108c4565b6107c2565b9050806020840283018581111561096a57610969610801565b5b835b81811015610993578061097f888261092a565b84526020840193505060208101905061096c565b5050509392505050565b5f82601f8301126109b1576109b0610750565b5b60026109be84828561093e565b91505092915050565b5f8060c083850312156109dd576109dc610696565b5b5f6109ea8582860161089a565b92505060806109fb8582860161099d565b9150509250929050565b5f82825260208201905092915050565b7f5469636b657420707269636520697320302e30352065746865720000000000005f82015250565b5f610a49601a83610a05565b9150610a5482610a15565b602082019050919050565b5f6020820190508181035f830152610a7681610a3d565b9050919050565b7f4e487b71000000000000000000000000000000000000000000000000000000005f52601160045260245ffd5b5f610ab48261071f565b9150610abf8361071f565b9250828201905080821115610ad757610ad6610a7d565b5b92915050565b7f4e6f2072657761726420746f20676574000000000000000000000000000000005f82015250565b5f610b11601083610a05565b9150610b1c82610add565b602082019050919050565b5f6020820190508181035f830152610b3e81610b05565b9050919050565b7f4e487b71000000000000000000000000000000000000000000000000000000005f52601260045260245ffd5b5f610b7c8261071f565b9150610b878361071f565b925082610b9757610b96610b45565b5b828206905092915050565b7f4e487b71000000000000000000000000000000000000000000000000000000005f52603260045260245ffd5b5f610bd98261071f565b91507fffffffffffffffffffffffffffffffffffffffffffffffffffffffffffffffff8203610c0b57610c0a610a7d565b5b600182019050919050565b5f819050919050565b610c30610c2b8261071f565b610c16565b82525050565b5f8160601b9050919050565b5f610c4c82610c36565b9050919050565b5f610c5d82610c42565b9050919050565b610c75610c70826106b9565b610c53565b82525050565b5f610c868287610c1f565b602082019150610c968286610c1f565b602082019150610ca68285610c64565b601482019150610cb68284610c1f565b6020820191508190509594505050505056fea264697066735822122073c806f732eee3d07e265c125041fdd3a884111c885b389d9db45468d35c730464736f6c634300081a0033",
					"opcodes": "PUSH1 0x80 PUSH1 0x40 MSTORE CALLVALUE DUP1 ISZERO PUSH2 0xF JUMPI PUSH0 DUP1 REVERT JUMPDEST POP CALLER PUSH0 DUP1 PUSH2 0x100 EXP DUP2 SLOAD DUP2 PUSH20 0xFFFFFFFFFFFFFFFFFFFFFFFFFFFFFFFFFFFFFFFF MUL NOT AND SWAP1 DUP4 PUSH20 0xFFFFFFFFFFFFFFFFFFFFFFFFFFFFFFFFFFFFFFFF AND MUL OR SWAP1 SSTORE POP NUMBER CALLER PUSH1 0x40 MLOAD PUSH1 0x20 ADD PUSH2 0x62 SWAP3 SWAP2 SWAP1 PUSH2 0x123 JUMP JUMPDEST PUSH1 0x40 MLOAD PUSH1 0x20 DUP2 DUP4 SUB SUB DUP2 MSTORE SWAP1 PUSH1 0x40 MSTORE DUP1 MLOAD SWAP1 PUSH1 0x20 ADD KECCAK256 PUSH0 SHR PUSH1 0x1 DUP2 SWAP1 SSTORE POP PUSH2 0x14E JUMP JUMPDEST PUSH0 DUP2 SWAP1 POP SWAP2 SWAP1 POP JUMP JUMPDEST PUSH0 DUP2 SWAP1 POP SWAP2 SWAP1 POP JUMP JUMPDEST PUSH2 0xA8 PUSH2 0xA3 DUP3 PUSH2 0x85 JUMP JUMPDEST PUSH2 0x8E JUMP JUMPDEST DUP3 MSTORE POP POP JUMP JUMPDEST PUSH0 PUSH20 0xFFFFFFFFFFFFFFFFFFFFFFFFFFFFFFFFFFFFFFFF DUP3 AND SWAP1 POP SWAP2 SWAP1 POP JUMP JUMPDEST PUSH0 PUSH2 0xD7 DUP3 PUSH2 0xAE JUMP JUMPDEST SWAP1 POP SWAP2 SWAP1 POP JUMP JUMPDEST PUSH0 DUP2 PUSH1 0x60 SHL SWAP1 POP SWAP2 SWAP1 POP JUMP JUMPDEST PUSH0 PUSH2 0xF4 DUP3 PUSH2 0xDE JUMP JUMPDEST SWAP1 POP SWAP2 SWAP1 POP JUMP JUMPDEST PUSH0 PUSH2 0x105 DUP3 PUSH2 0xEA JUMP JUMPDEST SWAP1 POP SWAP2 SWAP1 POP JUMP JUMPDEST PUSH2 0x11D PUSH2 0x118 DUP3 PUSH2 0xCD JUMP JUMPDEST PUSH2 0xFB JUMP JUMPDEST DUP3 MSTORE POP POP JUMP JUMPDEST PUSH0 PUSH2 0x12E DUP3 DUP6 PUSH2 0x97 JUMP JUMPDEST PUSH1 0x20 DUP3 ADD SWAP2 POP PUSH2 0x13E DUP3 DUP5 PUSH2 0x10C JUMP JUMPDEST PUSH1 0x14 DUP3 ADD SWAP2 POP DUP2 SWAP1 POP SWAP4 SWAP3 POP POP POP JUMP JUMPDEST PUSH2 0xCFE DUP1 PUSH2 0x15B PUSH0 CODECOPY PUSH0 RETURN INVALID PUSH1 0x80 PUSH1 0x40 MSTORE PUSH1 0x4 CALLDATASIZE LT PUSH2 0x33 JUMPI PUSH0 CALLDATALOAD PUSH1 0xE0 SHR DUP1 PUSH4 0x700037D EQ PUSH2 0x37 JUMPI DUP1 PUSH4 0x2F5531D9 EQ PUSH2 0x73 JUMPI DUP1 PUSH4 0x3D18B912 EQ PUSH2 0x8F JUMPI JUMPDEST PUSH0 DUP1 REVERT JUMPDEST CALLVALUE DUP1 ISZERO PUSH2 0x42 JUMPI PUSH0 DUP1 REVERT JUMPDEST POP PUSH2 0x5D PUSH1 0x4 DUP1 CALLDATASIZE SUB DUP2 ADD SWAP1 PUSH2 0x58 SWAP2 SWAP1 PUSH2 0x6F4 JUMP JUMPDEST PUSH2 0xA5 JUMP JUMPDEST PUSH1 0x40 MLOAD PUSH2 0x6A SWAP2 SWAP1 PUSH2 0x737 JUMP JUMPDEST PUSH1 0x40 MLOAD DUP1 SWAP2 SUB SWAP1 RETURN JUMPDEST PUSH2 0x8D PUSH1 0x4 DUP1 CALLDATASIZE SUB DUP2 ADD SWAP1 PUSH2 0x88 SWAP2 SWAP1 PUSH2 0x9C7 JUMP JUMPDEST PUSH2 0xBA JUMP JUMPDEST STOP JUMPDEST CALLVALUE DUP1 ISZERO PUSH2 0x9A JUMPI PUSH0 DUP1 REVERT JUMPDEST POP PUSH2 0xA3 PUSH2 0x198 JUMP JUMPDEST STOP JUMPDEST PUSH1 0x2 PUSH1 0x20 MSTORE DUP1 PUSH0 MSTORE PUSH1 0x40 PUSH0 KECCAK256 PUSH0 SWAP2 POP SWAP1 POP SLOAD DUP2 JUMP JUMPDEST PUSH7 0xB1A2BC2EC50000 CALLVALUE EQ PUSH2 0x103 JUMPI PUSH1 0x40 MLOAD PUSH32 0x8C379A000000000000000000000000000000000000000000000000000000000 DUP2 MSTORE PUSH1 0x4 ADD PUSH2 0xFA SWAP1 PUSH2 0xA5F JUMP JUMPDEST PUSH1 0x40 MLOAD DUP1 SWAP2 SUB SWAP1 REVERT JUMPDEST PUSH0 PUSH2 0x10C PUSH2 0x2A4 JUMP JUMPDEST SWAP1 POP PUSH0 PUSH2 0x117 PUSH2 0x306 JUMP JUMPDEST SWAP1 POP PUSH0 PUSH2 0x126 DUP6 DUP6 DUP6 DUP6 PUSH2 0x3BE JUMP JUMPDEST SWAP1 POP PUSH0 PUSH2 0x132 DUP3 PUSH2 0x3FD JUMP JUMPDEST SWAP1 POP PUSH0 DUP2 GT ISZERO PUSH2 0x190 JUMPI DUP1 PUSH1 0x2 PUSH0 CALLER PUSH20 0xFFFFFFFFFFFFFFFFFFFFFFFFFFFFFFFFFFFFFFFF AND PUSH20 0xFFFFFFFFFFFFFFFFFFFFFFFFFFFFFFFFFFFFFFFF AND DUP2 MSTORE PUSH1 0x20 ADD SWAP1 DUP2 MSTORE PUSH1 0x20 ADD PUSH0 KECCAK256 PUSH0 DUP3 DUP3 SLOAD PUSH2 0x188 SWAP2 SWAP1 PUSH2 0xAAA JUMP JUMPDEST SWAP3 POP POP DUP2 SWAP1 SSTORE POP JUMPDEST POP POP POP POP POP POP JUMP JUMPDEST PUSH0 PUSH1 0x2 PUSH0 CALLER PUSH20 0xFFFFFFFFFFFFFFFFFFFFFFFFFFFFFFFFFFFFFFFF AND PUSH20 0xFFFFFFFFFFFFFFFFFFFFFFFFFFFFFFFFFFFFFFFF AND DUP2 MSTORE PUSH1 0x20 ADD SWAP1 DUP2 MSTORE PUSH1 0x20 ADD PUSH0 KECCAK256 SLOAD SWAP1 POP PUSH0 DUP2 GT PUSH2 0x21B JUMPI PUSH1 0x40 MLOAD PUSH32 0x8C379A000000000000000000000000000000000000000000000000000000000 DUP2 MSTORE PUSH1 0x4 ADD PUSH2 0x212 SWAP1 PUSH2 0xB27 JUMP JUMPDEST PUSH1 0x40 MLOAD DUP1 SWAP2 SUB SWAP1 REVERT JUMPDEST PUSH0 PUSH1 0x2 PUSH0 CALLER PUSH20 0xFFFFFFFFFFFFFFFFFFFFFFFFFFFFFFFFFFFFFFFF AND PUSH20 0xFFFFFFFFFFFFFFFFFFFFFFFFFFFFFFFFFFFFFFFF AND DUP2 MSTORE PUSH1 0x20 ADD SWAP1 DUP2 MSTORE PUSH1 0x20 ADD PUSH0 KECCAK256 DUP2 SWAP1 SSTORE POP CALLER PUSH20 0xFFFFFFFFFFFFFFFFFFFFFFFFFFFFFFFFFFFFFFFF AND PUSH2 0x8FC DUP3 SWAP1 DUP2 ISZERO MUL SWAP1 PUSH1 0x40 MLOAD PUSH0 PUSH1 0x40 MLOAD DUP1 DUP4 SUB DUP2 DUP6 DUP9 DUP9 CALL SWAP4 POP POP POP POP ISZERO DUP1 ISZERO PUSH2 0x2A0 JUMPI RETURNDATASIZE PUSH0 DUP1 RETURNDATACOPY RETURNDATASIZE PUSH0 REVERT JUMPDEST POP POP JUMP JUMPDEST PUSH2 0x2AC PUSH2 0x649 JUMP JUMPDEST PUSH1 0x40 MLOAD DUP1 PUSH1 0x80 ADD PUSH1 0x40 MSTORE DUP1 PUSH2 0x2BF PUSH2 0x467 JUMP JUMPDEST PUSH1 0xFF AND PUSH1 0xFF AND DUP2 MSTORE PUSH1 0x20 ADD PUSH2 0x2D2 PUSH2 0x467 JUMP JUMPDEST PUSH1 0xFF AND PUSH1 0xFF AND DUP2 MSTORE PUSH1 0x20 ADD PUSH2 0x2E5 PUSH2 0x467 JUMP JUMPDEST PUSH1 0xFF AND PUSH1 0xFF AND DUP2 MSTORE PUSH1 0x20 ADD PUSH2 0x2F8 PUSH2 0x467 JUMP JUMPDEST PUSH1 0xFF AND PUSH1 0xFF AND DUP2 MSTORE POP SWAP1 POP SWAP1 JUMP JUMPDEST PUSH2 0x30E PUSH2 0x66B JUMP JUMPDEST PUSH1 0x40 MLOAD DUP1 PUSH1 0x40 ADD PUSH1 0x40 MSTORE DUP1 PUSH2 0x321 PUSH2 0x48D JUMP JUMPDEST PUSH31 0xFFFFFFFFFFFFFFFFFFFFFFFFFFFFFFFFFFFFFFFFFFFFFFFFFFFFFFFFFFFFFF NOT AND PUSH31 0xFFFFFFFFFFFFFFFFFFFFFFFFFFFFFFFFFFFFFFFFFFFFFFFFFFFFFFFFFFFFFF NOT AND DUP2 MSTORE PUSH1 0x20 ADD PUSH2 0x372 PUSH2 0x48D JUMP JUMPDEST PUSH31 0xFFFFFFFFFFFFFFFFFFFFFFFFFFFFFFFFFFFFFFFFFFFFFFFFFFFFFFFFFFFFFF NOT AND PUSH31 0xFFFFFFFFFFFFFFFFFFFFFFFFFFFFFFFFFFFFFFFFFFFFFFFFFFFFFFFFFFFFFF NOT AND DUP2 MSTORE POP SWAP1 POP SWAP1 JUMP JUMPDEST PUSH0 DUP1 PUSH0 SWAP1 POP PUSH2 0x3CD DUP7 DUP6 PUSH2 0x4B6 JUMP JUMPDEST DUP2 PUSH2 0x3D8 SWAP2 SWAP1 PUSH2 0xAAA JUMP JUMPDEST SWAP1 POP PUSH2 0x3E4 DUP6 DUP5 PUSH2 0x545 JUMP JUMPDEST DUP2 PUSH2 0x3EF SWAP2 SWAP1 PUSH2 0xAAA JUMP JUMPDEST SWAP1 POP DUP1 SWAP2 POP POP SWAP5 SWAP4 POP POP POP POP JUMP JUMPDEST PUSH0 PUSH1 0x6 DUP3 SUB PUSH2 0x416 JUMPI PUSH8 0xDE0B6B3A7640000 SWAP1 POP PUSH2 0x462 JUMP JUMPDEST PUSH1 0x5 DUP3 SUB PUSH2 0x42E JUMPI PUSH8 0xA688906BD8B0000 SWAP1 POP PUSH2 0x462 JUMP JUMPDEST PUSH1 0x4 DUP3 SUB PUSH2 0x446 JUMPI PUSH8 0x3782DACE9D90000 SWAP1 POP PUSH2 0x462 JUMP JUMPDEST PUSH1 0x3 DUP3 SUB PUSH2 0x45E JUMPI PUSH8 0x16345785D8A0000 SWAP1 POP PUSH2 0x462 JUMP JUMPDEST PUSH0 SWAP1 POP JUMPDEST SWAP2 SWAP1 POP JUMP JUMPDEST PUSH0 PUSH1 0x1 PUSH1 0x9 PUSH2 0x474 PUSH2 0x612 JUMP JUMPDEST PUSH2 0x47E SWAP2 SWAP1 PUSH2 0xB72 JUMP JUMPDEST PUSH2 0x488 SWAP2 SWAP1 PUSH2 0xAAA JUMP JUMPDEST SWAP1 POP SWAP1 JUMP JUMPDEST PUSH0 PUSH1 0x41 PUSH1 0x1A PUSH2 0x49A PUSH2 0x612 JUMP JUMPDEST PUSH2 0x4A4 SWAP2 SWAP1 PUSH2 0xB72 JUMP JUMPDEST PUSH2 0x4AE SWAP2 SWAP1 PUSH2 0xAAA JUMP JUMPDEST PUSH1 0xF8 SHL SWAP1 POP SWAP1 JUMP JUMPDEST PUSH0 DUP1 PUSH0 SWAP1 POP PUSH0 JUMPDEST PUSH1 0x4 DUP2 LT ISZERO PUSH2 0x53A JUMPI PUSH0 JUMPDEST PUSH1 0x4 DUP2 LT ISZERO PUSH2 0x52C JUMPI DUP5 DUP2 PUSH1 0x4 DUP2 LT PUSH2 0x4E4 JUMPI PUSH2 0x4E3 PUSH2 0xBA2 JUMP JUMPDEST JUMPDEST PUSH1 0x20 MUL ADD MLOAD PUSH1 0xFF AND DUP7 DUP4 PUSH1 0x4 DUP2 LT PUSH2 0x4FF JUMPI PUSH2 0x4FE PUSH2 0xBA2 JUMP JUMPDEST JUMPDEST PUSH1 0x20 MUL ADD MLOAD PUSH1 0xFF AND SUB PUSH2 0x51F JUMPI DUP3 DUP1 PUSH2 0x517 SWAP1 PUSH2 0xBCF JUMP JUMPDEST SWAP4 POP POP PUSH2 0x52C JUMP JUMPDEST DUP1 DUP1 PUSH1 0x1 ADD SWAP2 POP POP PUSH2 0x4C8 JUMP JUMPDEST POP DUP1 DUP1 PUSH1 0x1 ADD SWAP2 POP POP PUSH2 0x4BD JUMP JUMPDEST POP DUP1 SWAP2 POP POP SWAP3 SWAP2 POP POP JUMP JUMPDEST PUSH0 DUP1 PUSH0 SWAP1 POP PUSH0 JUMPDEST PUSH1 0x2 DUP2 LT ISZERO PUSH2 0x607 JUMPI PUSH0 JUMPDEST PUSH1 0x2 DUP2 LT ISZERO PUSH2 0x5F9 JUMPI DUP5 DUP2 PUSH1 0x2 DUP2 LT PUSH2 0x573 JUMPI PUSH2 0x572 PUSH2 0xBA2 JUMP JUMPDEST JUMPDEST PUSH1 0x20 MUL ADD MLOAD PUSH31 0xFFFFFFFFFFFFFFFFFFFFFFFFFFFFFFFFFFFFFFFFFFFFFFFFFFFFFFFFFFFFFF NOT AND DUP7 DUP4 PUSH1 0x2 DUP2 LT PUSH2 0x5AD JUMPI PUSH2 0x5AC PUSH2 0xBA2 JUMP JUMPDEST JUMPDEST PUSH1 0x20 MUL ADD MLOAD PUSH31 0xFFFFFFFFFFFFFFFFFFFFFFFFFFFFFFFFFFFFFFFFFFFFFFFFFFFFFFFFFFFFFF NOT AND SUB PUSH2 0x5EC JUMPI DUP3 DUP1 PUSH2 0x5E4 SWAP1 PUSH2 0xBCF JUMP JUMPDEST SWAP4 POP POP PUSH2 0x5F9 JUMP JUMPDEST DUP1 DUP1 PUSH1 0x1 ADD SWAP2 POP POP PUSH2 0x557 JUMP JUMPDEST POP DUP1 DUP1 PUSH1 0x1 ADD SWAP2 POP POP PUSH2 0x54C JUMP JUMPDEST POP DUP1 SWAP2 POP POP SWAP3 SWAP2 POP POP JUMP JUMPDEST PUSH0 TIMESTAMP PREVRANDAO CALLER PUSH1 0x1 SLOAD PUSH1 0x40 MLOAD PUSH1 0x20 ADD PUSH2 0x62C SWAP5 SWAP4 SWAP3 SWAP2 SWAP1 PUSH2 0xC7B JUMP JUMPDEST PUSH1 0x40 MLOAD PUSH1 0x20 DUP2 DUP4 SUB SUB DUP2 MSTORE SWAP1 PUSH1 0x40 MSTORE DUP1 MLOAD SWAP1 PUSH1 0x20 ADD KECCAK256 PUSH0 SHR SWAP1 POP SWAP1 JUMP JUMPDEST PUSH1 0x40 MLOAD DUP1 PUSH1 0x80 ADD PUSH1 0x40 MSTORE DUP1 PUSH1 0x4 SWAP1 PUSH1 0x20 DUP3 MUL DUP1 CALLDATASIZE DUP4 CALLDATACOPY DUP1 DUP3 ADD SWAP2 POP POP SWAP1 POP POP SWAP1 JUMP JUMPDEST PUSH1 0x40 MLOAD DUP1 PUSH1 0x40 ADD PUSH1 0x40 MSTORE DUP1 PUSH1 0x2 SWAP1 PUSH1 0x20 DUP3 MUL DUP1 CALLDATASIZE DUP4 CALLDATACOPY DUP1 DUP3 ADD SWAP2 POP POP SWAP1 POP POP SWAP1 JUMP JUMPDEST PUSH0 PUSH1 0x40 MLOAD SWAP1 POP SWAP1 JUMP JUMPDEST PUSH0 DUP1 REVERT JUMPDEST PUSH0 PUSH20 0xFFFFFFFFFFFFFFFFFFFFFFFFFFFFFFFFFFFFFFFF DUP3 AND SWAP1 POP SWAP2 SWAP1 POP JUMP JUMPDEST PUSH0 PUSH2 0x6C3 DUP3 PUSH2 0x69A JUMP JUMPDEST SWAP1 POP SWAP2 SWAP1 POP JUMP JUMPDEST PUSH2 0x6D3 DUP2 PUSH2 0x6B9 JUMP JUMPDEST DUP2 EQ PUSH2 0x6DD JUMPI PUSH0 DUP1 REVERT JUMPDEST POP JUMP JUMPDEST PUSH0 DUP2 CALLDATALOAD SWAP1 POP PUSH2 0x6EE DUP2 PUSH2 0x6CA JUMP JUMPDEST SWAP3 SWAP2 POP POP JUMP JUMPDEST PUSH0 PUSH1 0x20 DUP3 DUP5 SUB SLT ISZERO PUSH2 0x709 JUMPI PUSH2 0x708 PUSH2 0x696 JUMP JUMPDEST JUMPDEST PUSH0 PUSH2 0x716 DUP5 DUP3 DUP6 ADD PUSH2 0x6E0 JUMP JUMPDEST SWAP2 POP POP SWAP3 SWAP2 POP POP JUMP JUMPDEST PUSH0 DUP2 SWAP1 POP SWAP2 SWAP1 POP JUMP JUMPDEST PUSH2 0x731 DUP2 PUSH2 0x71F JUMP JUMPDEST DUP3 MSTORE POP POP JUMP JUMPDEST PUSH0 PUSH1 0x20 DUP3 ADD SWAP1 POP PUSH2 0x74A PUSH0 DUP4 ADD DUP5 PUSH2 0x728 JUMP JUMPDEST SWAP3 SWAP2 POP POP JUMP JUMPDEST PUSH0 DUP1 REVERT JUMPDEST PUSH0 PUSH1 0x1F NOT PUSH1 0x1F DUP4 ADD AND SWAP1 POP SWAP2 SWAP1 POP JUMP JUMPDEST PUSH32 0x4E487B7100000000000000000000000000000000000000000000000000000000 PUSH0 MSTORE PUSH1 0x41 PUSH1 0x4 MSTORE PUSH1 0x24 PUSH0 REVERT JUMPDEST PUSH2 0x79A DUP3 PUSH2 0x754 JUMP JUMPDEST DUP2 ADD DUP2 DUP2 LT PUSH8 0xFFFFFFFFFFFFFFFF DUP3 GT OR ISZERO PUSH2 0x7B9 JUMPI PUSH2 0x7B8 PUSH2 0x764 JUMP JUMPDEST JUMPDEST DUP1 PUSH1 0x40 MSTORE POP POP POP JUMP JUMPDEST PUSH0 PUSH2 0x7CB PUSH2 0x68D JUMP JUMPDEST SWAP1 POP PUSH2 0x7D7 DUP3 DUP3 PUSH2 0x791 JUMP JUMPDEST SWAP2 SWAP1 POP JUMP JUMPDEST PUSH0 PUSH8 0xFFFFFFFFFFFFFFFF DUP3 GT ISZERO PUSH2 0x7F6 JUMPI PUSH2 0x7F5 PUSH2 0x764 JUMP JUMPDEST JUMPDEST PUSH1 0x20 DUP3 MUL SWAP1 POP SWAP2 SWAP1 POP JUMP JUMPDEST PUSH0 DUP1 REVERT JUMPDEST PUSH0 PUSH1 0xFF DUP3 AND SWAP1 POP SWAP2 SWAP1 POP JUMP JUMPDEST PUSH2 0x81A DUP2 PUSH2 0x805 JUMP JUMPDEST DUP2 EQ PUSH2 0x824 JUMPI PUSH0 DUP1 REVERT JUMPDEST POP JUMP JUMPDEST PUSH0 DUP2 CALLDATALOAD SWAP1 POP PUSH2 0x835 DUP2 PUSH2 0x811 JUMP JUMPDEST SWAP3 SWAP2 POP POP JUMP JUMPDEST PUSH0 PUSH2 0x84D PUSH2 0x848 DUP5 PUSH2 0x7DC JUMP JUMPDEST PUSH2 0x7C2 JUMP JUMPDEST SWAP1 POP DUP1 PUSH1 0x20 DUP5 MUL DUP4 ADD DUP6 DUP2 GT ISZERO PUSH2 0x867 JUMPI PUSH2 0x866 PUSH2 0x801 JUMP JUMPDEST JUMPDEST DUP4 JUMPDEST DUP2 DUP2 LT ISZERO PUSH2 0x890 JUMPI DUP1 PUSH2 0x87C DUP9 DUP3 PUSH2 0x827 JUMP JUMPDEST DUP5 MSTORE PUSH1 0x20 DUP5 ADD SWAP4 POP POP PUSH1 0x20 DUP2 ADD SWAP1 POP PUSH2 0x869 JUMP JUMPDEST POP POP POP SWAP4 SWAP3 POP POP POP JUMP JUMPDEST PUSH0 DUP3 PUSH1 0x1F DUP4 ADD SLT PUSH2 0x8AE JUMPI PUSH2 0x8AD PUSH2 0x750 JUMP JUMPDEST JUMPDEST PUSH1 0x4 PUSH2 0x8BB DUP5 DUP3 DUP6 PUSH2 0x83B JUMP JUMPDEST SWAP2 POP POP SWAP3 SWAP2 POP POP JUMP JUMPDEST PUSH0 PUSH8 0xFFFFFFFFFFFFFFFF DUP3 GT ISZERO PUSH2 0x8DE JUMPI PUSH2 0x8DD PUSH2 0x764 JUMP JUMPDEST JUMPDEST PUSH1 0x20 DUP3 MUL SWAP1 POP SWAP2 SWAP1 POP JUMP JUMPDEST PUSH0 PUSH32 0xFF00000000000000000000000000000000000000000000000000000000000000 DUP3 AND SWAP1 POP SWAP2 SWAP1 POP JUMP JUMPDEST PUSH2 0x91D DUP2 PUSH2 0x8E9 JUMP JUMPDEST DUP2 EQ PUSH2 0x927 JUMPI PUSH0 DUP1 REVERT JUMPDEST POP JUMP JUMPDEST PUSH0 DUP2 CALLDATALOAD SWAP1 POP PUSH2 0x938 DUP2 PUSH2 0x914 JUMP JUMPDEST SWAP3 SWAP2 POP POP JUMP JUMPDEST PUSH0 PUSH2 0x950 PUSH2 0x94B DUP5 PUSH2 0x8C4 JUMP JUMPDEST PUSH2 0x7C2 JUMP JUMPDEST SWAP1 POP DUP1 PUSH1 0x20 DUP5 MUL DUP4 ADD DUP6 DUP2 GT ISZERO PUSH2 0x96A JUMPI PUSH2 0x969 PUSH2 0x801 JUMP JUMPDEST JUMPDEST DUP4 JUMPDEST DUP2 DUP2 LT ISZERO PUSH2 0x993 JUMPI DUP1 PUSH2 0x97F DUP9 DUP3 PUSH2 0x92A JUMP JUMPDEST DUP5 MSTORE PUSH1 0x20 DUP5 ADD SWAP4 POP POP PUSH1 0x20 DUP2 ADD SWAP1 POP PUSH2 0x96C JUMP JUMPDEST POP POP POP SWAP4 SWAP3 POP POP POP JUMP JUMPDEST PUSH0 DUP3 PUSH1 0x1F DUP4 ADD SLT PUSH2 0x9B1 JUMPI PUSH2 0x9B0 PUSH2 0x750 JUMP JUMPDEST JUMPDEST PUSH1 0x2 PUSH2 0x9BE DUP5 DUP3 DUP6 PUSH2 0x93E JUMP JUMPDEST SWAP2 POP POP SWAP3 SWAP2 POP POP JUMP JUMPDEST PUSH0 DUP1 PUSH1 0xC0 DUP4 DUP6 SUB SLT ISZERO PUSH2 0x9DD JUMPI PUSH2 0x9DC PUSH2 0x696 JUMP JUMPDEST JUMPDEST PUSH0 PUSH2 0x9EA DUP6 DUP3 DUP7 ADD PUSH2 0x89A JUMP JUMPDEST SWAP3 POP POP PUSH1 0x80 PUSH2 0x9FB DUP6 DUP3 DUP7 ADD PUSH2 0x99D JUMP JUMPDEST SWAP2 POP POP SWAP3 POP SWAP3 SWAP1 POP JUMP JUMPDEST PUSH0 DUP3 DUP3 MSTORE PUSH1 0x20 DUP3 ADD SWAP1 POP SWAP3 SWAP2 POP POP JUMP JUMPDEST PUSH32 0x5469636B657420707269636520697320302E3035206574686572000000000000 PUSH0 DUP3 ADD MSTORE POP JUMP JUMPDEST PUSH0 PUSH2 0xA49 PUSH1 0x1A DUP4 PUSH2 0xA05 JUMP JUMPDEST SWAP2 POP PUSH2 0xA54 DUP3 PUSH2 0xA15 JUMP JUMPDEST PUSH1 0x20 DUP3 ADD SWAP1 POP SWAP2 SWAP1 POP JUMP JUMPDEST PUSH0 PUSH1 0x20 DUP3 ADD SWAP1 POP DUP2 DUP2 SUB PUSH0 DUP4 ADD MSTORE PUSH2 0xA76 DUP2 PUSH2 0xA3D JUMP JUMPDEST SWAP1 POP SWAP2 SWAP1 POP JUMP JUMPDEST PUSH32 0x4E487B7100000000000000000000000000000000000000000000000000000000 PUSH0 MSTORE PUSH1 0x11 PUSH1 0x4 MSTORE PUSH1 0x24 PUSH0 REVERT JUMPDEST PUSH0 PUSH2 0xAB4 DUP3 PUSH2 0x71F JUMP JUMPDEST SWAP2 POP PUSH2 0xABF DUP4 PUSH2 0x71F JUMP JUMPDEST SWAP3 POP DUP3 DUP3 ADD SWAP1 POP DUP1 DUP3 GT ISZERO PUSH2 0xAD7 JUMPI PUSH2 0xAD6 PUSH2 0xA7D JUMP JUMPDEST JUMPDEST SWAP3 SWAP2 POP POP JUMP JUMPDEST PUSH32 0x4E6F2072657761726420746F2067657400000000000000000000000000000000 PUSH0 DUP3 ADD MSTORE POP JUMP JUMPDEST PUSH0 PUSH2 0xB11 PUSH1 0x10 DUP4 PUSH2 0xA05 JUMP JUMPDEST SWAP2 POP PUSH2 0xB1C DUP3 PUSH2 0xADD JUMP JUMPDEST PUSH1 0x20 DUP3 ADD SWAP1 POP SWAP2 SWAP1 POP JUMP JUMPDEST PUSH0 PUSH1 0x20 DUP3 ADD SWAP1 POP DUP2 DUP2 SUB PUSH0 DUP4 ADD MSTORE PUSH2 0xB3E DUP2 PUSH2 0xB05 JUMP JUMPDEST SWAP1 POP SWAP2 SWAP1 POP JUMP JUMPDEST PUSH32 0x4E487B7100000000000000000000000000000000000000000000000000000000 PUSH0 MSTORE PUSH1 0x12 PUSH1 0x4 MSTORE PUSH1 0x24 PUSH0 REVERT JUMPDEST PUSH0 PUSH2 0xB7C DUP3 PUSH2 0x71F JUMP JUMPDEST SWAP2 POP PUSH2 0xB87 DUP4 PUSH2 0x71F JUMP JUMPDEST SWAP3 POP DUP3 PUSH2 0xB97 JUMPI PUSH2 0xB96 PUSH2 0xB45 JUMP JUMPDEST JUMPDEST DUP3 DUP3 MOD SWAP1 POP SWAP3 SWAP2 POP POP JUMP JUMPDEST PUSH32 0x4E487B7100000000000000000000000000000000000000000000000000000000 PUSH0 MSTORE PUSH1 0x32 PUSH1 0x4 MSTORE PUSH1 0x24 PUSH0 REVERT JUMPDEST PUSH0 PUSH2 0xBD9 DUP3 PUSH2 0x71F JUMP JUMPDEST SWAP2 POP PUSH32 0xFFFFFFFFFFFFFFFFFFFFFFFFFFFFFFFFFFFFFFFFFFFFFFFFFFFFFFFFFFFFFFFF DUP3 SUB PUSH2 0xC0B JUMPI PUSH2 0xC0A PUSH2 0xA7D JUMP JUMPDEST JUMPDEST PUSH1 0x1 DUP3 ADD SWAP1 POP SWAP2 SWAP1 POP JUMP JUMPDEST PUSH0 DUP2 SWAP1 POP SWAP2 SWAP1 POP JUMP JUMPDEST PUSH2 0xC30 PUSH2 0xC2B DUP3 PUSH2 0x71F JUMP JUMPDEST PUSH2 0xC16 JUMP JUMPDEST DUP3 MSTORE POP POP JUMP JUMPDEST PUSH0 DUP2 PUSH1 0x60 SHL SWAP1 POP SWAP2 SWAP1 POP JUMP JUMPDEST PUSH0 PUSH2 0xC4C DUP3 PUSH2 0xC36 JUMP JUMPDEST SWAP1 POP SWAP2 SWAP1 POP JUMP JUMPDEST PUSH0 PUSH2 0xC5D DUP3 PUSH2 0xC42 JUMP JUMPDEST SWAP1 POP SWAP2 SWAP1 POP JUMP JUMPDEST PUSH2 0xC75 PUSH2 0xC70 DUP3 PUSH2 0x6B9 JUMP JUMPDEST PUSH2 0xC53 JUMP JUMPDEST DUP3 MSTORE POP POP JUMP JUMPDEST PUSH0 PUSH2 0xC86 DUP3 DUP8 PUSH2 0xC1F JUMP JUMPDEST PUSH1 0x20 DUP3 ADD SWAP2 POP PUSH2 0xC96 DUP3 DUP7 PUSH2 0xC1F JUMP JUMPDEST PUSH1 0x20 DUP3 ADD SWAP2 POP PUSH2 0xCA6 DUP3 DUP6 PUSH2 0xC64 JUMP JUMPDEST PUSH1 0x14 DUP3 ADD SWAP2 POP PUSH2 0xCB6 DUP3 DUP5 PUSH2 0xC1F JUMP JUMPDEST PUSH1 0x20 DUP3 ADD SWAP2 POP DUP2 SWAP1 POP SWAP6 SWAP5 POP POP POP POP POP JUMP INVALID LOG2 PUSH5 0x6970667358 0x22 SLT KECCAK256 PUSH20 0xC806F732EEE3D07E265C125041FDD3A884111C88 JUMPDEST CODESIZE SWAP14 SWAP14 0xB4 SLOAD PUSH9 0xD35C730464736F6C63 NUMBER STOP ADDMOD BYTE STOP CALLER "
				},
				"gasEstimates": {
					"creation": {
						"codeDepositCost": "665200",
						"executionCost": "47671",
						"totalCost": "712871"
					},
					"external": {
						"getReward()": "infinite",
						"play(uint8[4],bytes1[2])": "infinite",
						"rewards(address)": "2780"
					},
					"internal": {
						"_calculateReward(uint256)": "130",
						"_countArrayMatches(bytes1[2] memory,bytes1[2] memory)": "infinite",
						"_countArrayMatches(uint8[4] memory,uint8[4] memory)": "infinite",
						"_countMatches(uint8[4] memory,bytes1[2] memory,uint8[4] memory,bytes1[2] memory)": "infinite",
						"_generateRandomLetter()": "infinite",
						"_generateRandomNumber()": "infinite",
						"_generateRandomValue()": "infinite",
						"_generateWinningLetters()": "infinite",
						"_generateWinningNumbers()": "infinite"
					}
				},
				"methodIdentifiers": {
					"getReward()": "3d18b912",
					"play(uint8[4],bytes1[2])": "2f5531d9",
					"rewards(address)": "0700037d"
				}
			},
			"storageLayout": {
				"storage": [
					{
						"astId": 3,
						"contract": "codingtest/codingtest_250107.sol:LOTTO",
						"label": "owner",
						"offset": 0,
						"slot": "0",
						"type": "t_address"
					},
					{
						"astId": 8,
						"contract": "codingtest/codingtest_250107.sol:LOTTO",
						"label": "salt",
						"offset": 0,
						"slot": "1",
						"type": "t_uint256"
					},
					{
						"astId": 12,
						"contract": "codingtest/codingtest_250107.sol:LOTTO",
						"label": "rewards",
						"offset": 0,
						"slot": "2",
						"type": "t_mapping(t_address,t_uint256)"
					}
				],
				"types": {
					"t_address": {
						"encoding": "inplace",
						"label": "address",
						"numberOfBytes": "20"
					},
					"t_mapping(t_address,t_uint256)": {
						"encoding": "mapping",
						"key": "t_address",
						"label": "mapping(address => uint256)",
						"numberOfBytes": "32",
						"value": "t_uint256"
					},
					"t_uint256": {
						"encoding": "inplace",
						"label": "uint256",
						"numberOfBytes": "32"
					}
				}
			},
			"userdoc": {
				"kind": "user",
				"methods": {},
				"version": 1
			}
		}
	}
}