{
	"codingtest/codingtest_250109.sol": {
		"PASSWORD": {
			"abi": [
				{
					"inputs": [
						{
							"internalType": "string",
							"name": "_password",
							"type": "string"
						}
					],
					"name": "isValidPassword",
					"outputs": [
						{
							"internalType": "bool",
							"name": "",
							"type": "bool"
						}
					],
					"stateMutability": "pure",
					"type": "function"
				}
			],
			"devdoc": {
				"kind": "dev",
				"methods": {},
				"version": 1
			},
			"evm": {
				"assembly": "    /* \"codingtest/codingtest_250109.sol\":446:2348  contract PASSWORD {... */\n  mstore(0x40, 0x80)\n  callvalue\n  dup1\n  iszero\n  tag_1\n  jumpi\n  0x00\n  dup1\n  revert\ntag_1:\n  pop\n  dataSize(sub_0)\n  dup1\n  dataOffset(sub_0)\n  0x00\n  codecopy\n  0x00\n  return\nstop\n\nsub_0: assembly {\n        /* \"codingtest/codingtest_250109.sol\":446:2348  contract PASSWORD {... */\n      mstore(0x40, 0x80)\n      callvalue\n      dup1\n      iszero\n      tag_1\n      jumpi\n      0x00\n      dup1\n      revert\n    tag_1:\n      pop\n      jumpi(tag_2, lt(calldatasize, 0x04))\n      shr(0xe0, calldataload(0x00))\n      dup1\n      0x8e41bcac\n      eq\n      tag_3\n      jumpi\n    tag_2:\n      0x00\n      dup1\n      revert\n        /* \"codingtest/codingtest_250109.sol\":2078:2346  function isValidPassword(string memory _password)... */\n    tag_3:\n      tag_4\n      0x04\n      dup1\n      calldatasize\n      sub\n      dup2\n      add\n      swap1\n      tag_5\n      swap2\n      swap1\n      tag_6\n      jump\t// in\n    tag_5:\n      tag_7\n      jump\t// in\n    tag_4:\n      mload(0x40)\n      tag_8\n      swap2\n      swap1\n      tag_9\n      jump\t// in\n    tag_8:\n      mload(0x40)\n      dup1\n      swap2\n      sub\n      swap1\n      return\n    tag_7:\n        /* \"codingtest/codingtest_250109.sol\":2173:2177  bool */\n      0x00\n        /* \"codingtest/codingtest_250109.sol\":2212:2233  _upperCase(_password) */\n      tag_11\n        /* \"codingtest/codingtest_250109.sol\":2223:2232  _password */\n      dup3\n        /* \"codingtest/codingtest_250109.sol\":2212:2222  _upperCase */\n      tag_12\n        /* \"codingtest/codingtest_250109.sol\":2212:2233  _upperCase(_password) */\n      jump\t// in\n    tag_11:\n        /* \"codingtest/codingtest_250109.sol\":2212:2270  _upperCase(_password) &&... */\n      dup1\n      iszero\n      tag_13\n      jumpi\n      pop\n        /* \"codingtest/codingtest_250109.sol\":2249:2270  _lowerCase(_password) */\n      tag_14\n        /* \"codingtest/codingtest_250109.sol\":2260:2269  _password */\n      dup3\n        /* \"codingtest/codingtest_250109.sol\":2249:2259  _lowerCase */\n      tag_15\n        /* \"codingtest/codingtest_250109.sol\":2249:2270  _lowerCase(_password) */\n      jump\t// in\n    tag_14:\n        /* \"codingtest/codingtest_250109.sol\":2212:2270  _upperCase(_password) &&... */\n    tag_13:\n        /* \"codingtest/codingtest_250109.sol\":2212:2304  _upperCase(_password) &&... */\n      dup1\n      iszero\n      tag_16\n      jumpi\n      pop\n        /* \"codingtest/codingtest_250109.sol\":2286:2304  _number(_password) */\n      tag_17\n        /* \"codingtest/codingtest_250109.sol\":2294:2303  _password */\n      dup3\n        /* \"codingtest/codingtest_250109.sol\":2286:2293  _number */\n      tag_18\n        /* \"codingtest/codingtest_250109.sol\":2286:2304  _number(_password) */\n      jump\t// in\n    tag_17:\n        /* \"codingtest/codingtest_250109.sol\":2212:2304  _upperCase(_password) &&... */\n    tag_16:\n        /* \"codingtest/codingtest_250109.sol\":2212:2339  _upperCase(_password) &&... */\n      dup1\n      iszero\n      tag_19\n      jumpi\n      pop\n        /* \"codingtest/codingtest_250109.sol\":2320:2339  _special(_password) */\n      tag_20\n        /* \"codingtest/codingtest_250109.sol\":2329:2338  _password */\n      dup3\n        /* \"codingtest/codingtest_250109.sol\":2320:2328  _special */\n      tag_21\n        /* \"codingtest/codingtest_250109.sol\":2320:2339  _special(_password) */\n      jump\t// in\n    tag_20:\n        /* \"codingtest/codingtest_250109.sol\":2212:2339  _upperCase(_password) &&... */\n    tag_19:\n        /* \"codingtest/codingtest_250109.sol\":2193:2339  return... */\n      swap1\n      pop\n        /* \"codingtest/codingtest_250109.sol\":2078:2346  function isValidPassword(string memory _password)... */\n      swap2\n      swap1\n      pop\n      jump\t// out\n        /* \"codingtest/codingtest_250109.sol\":1017:1365  function _upperCase(string memory _s) internal pure returns (bool) {... */\n    tag_12:\n        /* \"codingtest/codingtest_250109.sol\":1078:1082  bool */\n      0x00\n        /* \"codingtest/codingtest_250109.sol\":1111:1130  bytes memory _bytes */\n      dup1\n        /* \"codingtest/codingtest_250109.sol\":1139:1141  _s */\n      dup3\n        /* \"codingtest/codingtest_250109.sol\":1111:1142  bytes memory _bytes = bytes(_s) */\n      swap1\n      pop\n        /* \"codingtest/codingtest_250109.sol\":1157:1166  uint256 i */\n      0x00\n        /* \"codingtest/codingtest_250109.sol\":1152:1337  for (uint256 i = 0; i < _bytes.length; i++) {... */\n    tag_23:\n        /* \"codingtest/codingtest_250109.sol\":1176:1182  _bytes */\n      dup2\n        /* \"codingtest/codingtest_250109.sol\":1176:1189  _bytes.length */\n      mload\n        /* \"codingtest/codingtest_250109.sol\":1172:1173  i */\n      dup2\n        /* \"codingtest/codingtest_250109.sol\":1172:1189  i < _bytes.length */\n      lt\n        /* \"codingtest/codingtest_250109.sol\":1152:1337  for (uint256 i = 0; i < _bytes.length; i++) {... */\n      iszero\n      tag_24\n      jumpi\n        /* \"codingtest/codingtest_250109.sol\":1210:1220  uint8 char */\n      0x00\n        /* \"codingtest/codingtest_250109.sol\":1229:1235  _bytes */\n      dup3\n        /* \"codingtest/codingtest_250109.sol\":1236:1237  i */\n      dup3\n        /* \"codingtest/codingtest_250109.sol\":1229:1238  _bytes[i] */\n      dup2\n      mload\n      dup2\n      lt\n      tag_26\n      jumpi\n      tag_27\n      tag_28\n      jump\t// in\n    tag_27:\n    tag_26:\n      0x20\n      add\n      add\n      mload\n      0xf8\n      shr\n      0xf8\n      shl\n        /* \"codingtest/codingtest_250109.sol\":1223:1239  uint8(_bytes[i]) */\n      0xf8\n      shr\n        /* \"codingtest/codingtest_250109.sol\":1210:1239  uint8 char = uint8(_bytes[i]) */\n      swap1\n      pop\n        /* \"codingtest/codingtest_250109.sol\":1265:1267  65 */\n      0x41\n        /* \"codingtest/codingtest_250109.sol\":1257:1261  char */\n      dup2\n        /* \"codingtest/codingtest_250109.sol\":1257:1267  char >= 65 */\n      0xff\n      and\n      lt\n      iszero\n        /* \"codingtest/codingtest_250109.sol\":1257:1281  char >= 65 && char <= 90 */\n      dup1\n      iszero\n      tag_29\n      jumpi\n      pop\n        /* \"codingtest/codingtest_250109.sol\":1279:1281  90 */\n      0x5a\n        /* \"codingtest/codingtest_250109.sol\":1271:1275  char */\n      dup2\n        /* \"codingtest/codingtest_250109.sol\":1271:1281  char <= 90 */\n      0xff\n      and\n      gt\n      iszero\n        /* \"codingtest/codingtest_250109.sol\":1257:1281  char >= 65 && char <= 90 */\n    tag_29:\n        /* \"codingtest/codingtest_250109.sol\":1253:1327  if (char >= 65 && char <= 90) {... */\n      iszero\n      tag_30\n      jumpi\n        /* \"codingtest/codingtest_250109.sol\":1308:1312  true */\n      0x01\n        /* \"codingtest/codingtest_250109.sol\":1301:1312  return true */\n      swap4\n      pop\n      pop\n      pop\n      pop\n      jump(tag_22)\n        /* \"codingtest/codingtest_250109.sol\":1253:1327  if (char >= 65 && char <= 90) {... */\n    tag_30:\n        /* \"codingtest/codingtest_250109.sol\":1196:1337  {... */\n      pop\n        /* \"codingtest/codingtest_250109.sol\":1191:1194  i++ */\n      dup1\n      dup1\n      0x01\n      add\n      swap2\n      pop\n      pop\n        /* \"codingtest/codingtest_250109.sol\":1152:1337  for (uint256 i = 0; i < _bytes.length; i++) {... */\n      jump(tag_23)\n    tag_24:\n      pop\n        /* \"codingtest/codingtest_250109.sol\":1353:1358  false */\n      0x00\n        /* \"codingtest/codingtest_250109.sol\":1346:1358  return false */\n      swap2\n      pop\n      pop\n        /* \"codingtest/codingtest_250109.sol\":1017:1365  function _upperCase(string memory _s) internal pure returns (bool) {... */\n    tag_22:\n      swap2\n      swap1\n      pop\n      jump\t// out\n        /* \"codingtest/codingtest_250109.sol\":1371:1721  function _lowerCase(string memory _s) internal pure returns (bool) {... */\n    tag_15:\n        /* \"codingtest/codingtest_250109.sol\":1432:1436  bool */\n      0x00\n        /* \"codingtest/codingtest_250109.sol\":1466:1485  bytes memory _bytes */\n      dup1\n        /* \"codingtest/codingtest_250109.sol\":1494:1496  _s */\n      dup3\n        /* \"codingtest/codingtest_250109.sol\":1466:1497  bytes memory _bytes = bytes(_s) */\n      swap1\n      pop\n        /* \"codingtest/codingtest_250109.sol\":1512:1521  uint256 i */\n      0x00\n        /* \"codingtest/codingtest_250109.sol\":1507:1693  for (uint256 i = 0; i < _bytes.length; i++) {... */\n    tag_32:\n        /* \"codingtest/codingtest_250109.sol\":1531:1537  _bytes */\n      dup2\n        /* \"codingtest/codingtest_250109.sol\":1531:1544  _bytes.length */\n      mload\n        /* \"codingtest/codingtest_250109.sol\":1527:1528  i */\n      dup2\n        /* \"codingtest/codingtest_250109.sol\":1527:1544  i < _bytes.length */\n      lt\n        /* \"codingtest/codingtest_250109.sol\":1507:1693  for (uint256 i = 0; i < _bytes.length; i++) {... */\n      iszero\n      tag_33\n      jumpi\n        /* \"codingtest/codingtest_250109.sol\":1565:1575  uint8 char */\n      0x00\n        /* \"codingtest/codingtest_250109.sol\":1584:1590  _bytes */\n      dup3\n        /* \"codingtest/codingtest_250109.sol\":1591:1592  i */\n      dup3\n        /* \"codingtest/codingtest_250109.sol\":1584:1593  _bytes[i] */\n      dup2\n      mload\n      dup2\n      lt\n      tag_35\n      jumpi\n      tag_36\n      tag_28\n      jump\t// in\n    tag_36:\n    tag_35:\n      0x20\n      add\n      add\n      mload\n      0xf8\n      shr\n      0xf8\n      shl\n        /* \"codingtest/codingtest_250109.sol\":1578:1594  uint8(_bytes[i]) */\n      0xf8\n      shr\n        /* \"codingtest/codingtest_250109.sol\":1565:1594  uint8 char = uint8(_bytes[i]) */\n      swap1\n      pop\n        /* \"codingtest/codingtest_250109.sol\":1620:1622  97 */\n      0x61\n        /* \"codingtest/codingtest_250109.sol\":1612:1616  char */\n      dup2\n        /* \"codingtest/codingtest_250109.sol\":1612:1622  char >= 97 */\n      0xff\n      and\n      lt\n      iszero\n        /* \"codingtest/codingtest_250109.sol\":1612:1637  char >= 97 && char <= 122 */\n      dup1\n      iszero\n      tag_37\n      jumpi\n      pop\n        /* \"codingtest/codingtest_250109.sol\":1634:1637  122 */\n      0x7a\n        /* \"codingtest/codingtest_250109.sol\":1626:1630  char */\n      dup2\n        /* \"codingtest/codingtest_250109.sol\":1626:1637  char <= 122 */\n      0xff\n      and\n      gt\n      iszero\n        /* \"codingtest/codingtest_250109.sol\":1612:1637  char >= 97 && char <= 122 */\n    tag_37:\n        /* \"codingtest/codingtest_250109.sol\":1608:1683  if (char >= 97 && char <= 122) {... */\n      iszero\n      tag_38\n      jumpi\n        /* \"codingtest/codingtest_250109.sol\":1664:1668  true */\n      0x01\n        /* \"codingtest/codingtest_250109.sol\":1657:1668  return true */\n      swap4\n      pop\n      pop\n      pop\n      pop\n      jump(tag_31)\n        /* \"codingtest/codingtest_250109.sol\":1608:1683  if (char >= 97 && char <= 122) {... */\n    tag_38:\n        /* \"codingtest/codingtest_250109.sol\":1551:1693  {... */\n      pop\n        /* \"codingtest/codingtest_250109.sol\":1546:1549  i++ */\n      dup1\n      dup1\n      0x01\n      add\n      swap2\n      pop\n      pop\n        /* \"codingtest/codingtest_250109.sol\":1507:1693  for (uint256 i = 0; i < _bytes.length; i++) {... */\n      jump(tag_32)\n    tag_33:\n      pop\n        /* \"codingtest/codingtest_250109.sol\":1709:1714  false */\n      0x00\n        /* \"codingtest/codingtest_250109.sol\":1702:1714  return false */\n      swap2\n      pop\n      pop\n        /* \"codingtest/codingtest_250109.sol\":1371:1721  function _lowerCase(string memory _s) internal pure returns (bool) {... */\n    tag_31:\n      swap2\n      swap1\n      pop\n      jump\t// out\n        /* \"codingtest/codingtest_250109.sol\":1727:2072  function _number(string memory _s) internal pure returns (bool) {... */\n    tag_18:\n        /* \"codingtest/codingtest_250109.sol\":1785:1789  bool */\n      0x00\n        /* \"codingtest/codingtest_250109.sol\":1818:1837  bytes memory _bytes */\n      dup1\n        /* \"codingtest/codingtest_250109.sol\":1846:1848  _s */\n      dup3\n        /* \"codingtest/codingtest_250109.sol\":1818:1849  bytes memory _bytes = bytes(_s) */\n      swap1\n      pop\n        /* \"codingtest/codingtest_250109.sol\":1864:1873  uint256 i */\n      0x00\n        /* \"codingtest/codingtest_250109.sol\":1859:2044  for (uint256 i = 0; i < _bytes.length; i++) {... */\n    tag_40:\n        /* \"codingtest/codingtest_250109.sol\":1883:1889  _bytes */\n      dup2\n        /* \"codingtest/codingtest_250109.sol\":1883:1896  _bytes.length */\n      mload\n        /* \"codingtest/codingtest_250109.sol\":1879:1880  i */\n      dup2\n        /* \"codingtest/codingtest_250109.sol\":1879:1896  i < _bytes.length */\n      lt\n        /* \"codingtest/codingtest_250109.sol\":1859:2044  for (uint256 i = 0; i < _bytes.length; i++) {... */\n      iszero\n      tag_41\n      jumpi\n        /* \"codingtest/codingtest_250109.sol\":1917:1927  uint8 char */\n      0x00\n        /* \"codingtest/codingtest_250109.sol\":1936:1942  _bytes */\n      dup3\n        /* \"codingtest/codingtest_250109.sol\":1943:1944  i */\n      dup3\n        /* \"codingtest/codingtest_250109.sol\":1936:1945  _bytes[i] */\n      dup2\n      mload\n      dup2\n      lt\n      tag_43\n      jumpi\n      tag_44\n      tag_28\n      jump\t// in\n    tag_44:\n    tag_43:\n      0x20\n      add\n      add\n      mload\n      0xf8\n      shr\n      0xf8\n      shl\n        /* \"codingtest/codingtest_250109.sol\":1930:1946  uint8(_bytes[i]) */\n      0xf8\n      shr\n        /* \"codingtest/codingtest_250109.sol\":1917:1946  uint8 char = uint8(_bytes[i]) */\n      swap1\n      pop\n        /* \"codingtest/codingtest_250109.sol\":1972:1974  48 */\n      0x30\n        /* \"codingtest/codingtest_250109.sol\":1964:1968  char */\n      dup2\n        /* \"codingtest/codingtest_250109.sol\":1964:1974  char >= 48 */\n      0xff\n      and\n      lt\n      iszero\n        /* \"codingtest/codingtest_250109.sol\":1964:1988  char >= 48 && char <= 57 */\n      dup1\n      iszero\n      tag_45\n      jumpi\n      pop\n        /* \"codingtest/codingtest_250109.sol\":1986:1988  57 */\n      0x39\n        /* \"codingtest/codingtest_250109.sol\":1978:1982  char */\n      dup2\n        /* \"codingtest/codingtest_250109.sol\":1978:1988  char <= 57 */\n      0xff\n      and\n      gt\n      iszero\n        /* \"codingtest/codingtest_250109.sol\":1964:1988  char >= 48 && char <= 57 */\n    tag_45:\n        /* \"codingtest/codingtest_250109.sol\":1960:2034  if (char >= 48 && char <= 57) {... */\n      iszero\n      tag_46\n      jumpi\n        /* \"codingtest/codingtest_250109.sol\":2015:2019  true */\n      0x01\n        /* \"codingtest/codingtest_250109.sol\":2008:2019  return true */\n      swap4\n      pop\n      pop\n      pop\n      pop\n      jump(tag_39)\n        /* \"codingtest/codingtest_250109.sol\":1960:2034  if (char >= 48 && char <= 57) {... */\n    tag_46:\n        /* \"codingtest/codingtest_250109.sol\":1903:2044  {... */\n      pop\n        /* \"codingtest/codingtest_250109.sol\":1898:1901  i++ */\n      dup1\n      dup1\n      0x01\n      add\n      swap2\n      pop\n      pop\n        /* \"codingtest/codingtest_250109.sol\":1859:2044  for (uint256 i = 0; i < _bytes.length; i++) {... */\n      jump(tag_40)\n    tag_41:\n      pop\n        /* \"codingtest/codingtest_250109.sol\":2060:2065  false */\n      0x00\n        /* \"codingtest/codingtest_250109.sol\":2053:2065  return false */\n      swap2\n      pop\n      pop\n        /* \"codingtest/codingtest_250109.sol\":1727:2072  function _number(string memory _s) internal pure returns (bool) {... */\n    tag_39:\n      swap2\n      swap1\n      pop\n      jump\t// out\n        /* \"codingtest/codingtest_250109.sol\":470:1011  function _special(string memory _s) internal pure returns (bool) {... */\n    tag_21:\n        /* \"codingtest/codingtest_250109.sol\":529:533  bool */\n      0x00\n        /* \"codingtest/codingtest_250109.sol\":585:604  bytes memory _bytes */\n      dup1\n        /* \"codingtest/codingtest_250109.sol\":613:615  _s */\n      dup3\n        /* \"codingtest/codingtest_250109.sol\":585:616  bytes memory _bytes = bytes(_s) */\n      swap1\n      pop\n        /* \"codingtest/codingtest_250109.sol\":631:640  uint256 i */\n      0x00\n        /* \"codingtest/codingtest_250109.sol\":626:983  for (uint256 i = 0; i < _bytes.length; i++) {... */\n    tag_48:\n        /* \"codingtest/codingtest_250109.sol\":650:656  _bytes */\n      dup2\n        /* \"codingtest/codingtest_250109.sol\":650:663  _bytes.length */\n      mload\n        /* \"codingtest/codingtest_250109.sol\":646:647  i */\n      dup2\n        /* \"codingtest/codingtest_250109.sol\":646:663  i < _bytes.length */\n      lt\n        /* \"codingtest/codingtest_250109.sol\":626:983  for (uint256 i = 0; i < _bytes.length; i++) {... */\n      iszero\n      tag_49\n      jumpi\n        /* \"codingtest/codingtest_250109.sol\":684:694  uint8 char */\n      0x00\n        /* \"codingtest/codingtest_250109.sol\":703:709  _bytes */\n      dup3\n        /* \"codingtest/codingtest_250109.sol\":710:711  i */\n      dup3\n        /* \"codingtest/codingtest_250109.sol\":703:712  _bytes[i] */\n      dup2\n      mload\n      dup2\n      lt\n      tag_51\n      jumpi\n      tag_52\n      tag_28\n      jump\t// in\n    tag_52:\n    tag_51:\n      0x20\n      add\n      add\n      mload\n      0xf8\n      shr\n      0xf8\n      shl\n        /* \"codingtest/codingtest_250109.sol\":697:713  uint8(_bytes[i]) */\n      0xf8\n      shr\n        /* \"codingtest/codingtest_250109.sol\":684:713  uint8 char = uint8(_bytes[i]) */\n      swap1\n      pop\n        /* \"codingtest/codingtest_250109.sol\":757:759  33 */\n      0x21\n        /* \"codingtest/codingtest_250109.sol\":749:753  char */\n      dup2\n        /* \"codingtest/codingtest_250109.sol\":749:759  char >= 33 */\n      0xff\n      and\n      lt\n      iszero\n        /* \"codingtest/codingtest_250109.sol\":749:773  char >= 33 && char <= 47 */\n      dup1\n      iszero\n      tag_53\n      jumpi\n      pop\n        /* \"codingtest/codingtest_250109.sol\":771:773  47 */\n      0x2f\n        /* \"codingtest/codingtest_250109.sol\":763:767  char */\n      dup2\n        /* \"codingtest/codingtest_250109.sol\":763:773  char <= 47 */\n      0xff\n      and\n      gt\n      iszero\n        /* \"codingtest/codingtest_250109.sol\":749:773  char >= 33 && char <= 47 */\n    tag_53:\n        /* \"codingtest/codingtest_250109.sol\":748:820  (char >= 33 && char <= 47) ||... */\n      dup1\n      tag_54\n      jumpi\n      pop\n        /* \"codingtest/codingtest_250109.sol\":803:805  58 */\n      0x3a\n        /* \"codingtest/codingtest_250109.sol\":795:799  char */\n      dup2\n        /* \"codingtest/codingtest_250109.sol\":795:805  char >= 58 */\n      0xff\n      and\n      lt\n      iszero\n        /* \"codingtest/codingtest_250109.sol\":795:819  char >= 58 && char <= 64 */\n      dup1\n      iszero\n      tag_55\n      jumpi\n      pop\n        /* \"codingtest/codingtest_250109.sol\":817:819  64 */\n      0x40\n        /* \"codingtest/codingtest_250109.sol\":809:813  char */\n      dup2\n        /* \"codingtest/codingtest_250109.sol\":809:819  char <= 64 */\n      0xff\n      and\n      gt\n      iszero\n        /* \"codingtest/codingtest_250109.sol\":795:819  char >= 58 && char <= 64 */\n    tag_55:\n        /* \"codingtest/codingtest_250109.sol\":748:820  (char >= 33 && char <= 47) ||... */\n    tag_54:\n        /* \"codingtest/codingtest_250109.sol\":748:866  (char >= 33 && char <= 47) ||... */\n      dup1\n      tag_56\n      jumpi\n      pop\n        /* \"codingtest/codingtest_250109.sol\":849:851  91 */\n      0x5b\n        /* \"codingtest/codingtest_250109.sol\":841:845  char */\n      dup2\n        /* \"codingtest/codingtest_250109.sol\":841:851  char >= 91 */\n      0xff\n      and\n      lt\n      iszero\n        /* \"codingtest/codingtest_250109.sol\":841:865  char >= 91 && char <= 96 */\n      dup1\n      iszero\n      tag_57\n      jumpi\n      pop\n        /* \"codingtest/codingtest_250109.sol\":863:865  96 */\n      0x60\n        /* \"codingtest/codingtest_250109.sol\":855:859  char */\n      dup2\n        /* \"codingtest/codingtest_250109.sol\":855:865  char <= 96 */\n      0xff\n      and\n      gt\n      iszero\n        /* \"codingtest/codingtest_250109.sol\":841:865  char >= 91 && char <= 96 */\n    tag_57:\n        /* \"codingtest/codingtest_250109.sol\":748:866  (char >= 33 && char <= 47) ||... */\n    tag_56:\n        /* \"codingtest/codingtest_250109.sol\":748:914  (char >= 33 && char <= 47) ||... */\n      dup1\n      tag_58\n      jumpi\n      pop\n        /* \"codingtest/codingtest_250109.sol\":895:898  123 */\n      0x7b\n        /* \"codingtest/codingtest_250109.sol\":887:891  char */\n      dup2\n        /* \"codingtest/codingtest_250109.sol\":887:898  char >= 123 */\n      0xff\n      and\n      lt\n      iszero\n        /* \"codingtest/codingtest_250109.sol\":887:913  char >= 123 && char <= 126 */\n      dup1\n      iszero\n      tag_59\n      jumpi\n      pop\n        /* \"codingtest/codingtest_250109.sol\":910:913  126 */\n      0x7e\n        /* \"codingtest/codingtest_250109.sol\":902:906  char */\n      dup2\n        /* \"codingtest/codingtest_250109.sol\":902:913  char <= 126 */\n      0xff\n      and\n      gt\n      iszero\n        /* \"codingtest/codingtest_250109.sol\":887:913  char >= 123 && char <= 126 */\n    tag_59:\n        /* \"codingtest/codingtest_250109.sol\":748:914  (char >= 33 && char <= 47) ||... */\n    tag_58:\n        /* \"codingtest/codingtest_250109.sol\":727:973  if (... */\n      iszero\n      tag_60\n      jumpi\n        /* \"codingtest/codingtest_250109.sol\":954:958  true */\n      0x01\n        /* \"codingtest/codingtest_250109.sol\":947:958  return true */\n      swap4\n      pop\n      pop\n      pop\n      pop\n      jump(tag_47)\n        /* \"codingtest/codingtest_250109.sol\":727:973  if (... */\n    tag_60:\n        /* \"codingtest/codingtest_250109.sol\":670:983  {... */\n      pop\n        /* \"codingtest/codingtest_250109.sol\":665:668  i++ */\n      dup1\n      dup1\n      0x01\n      add\n      swap2\n      pop\n      pop\n        /* \"codingtest/codingtest_250109.sol\":626:983  for (uint256 i = 0; i < _bytes.length; i++) {... */\n      jump(tag_48)\n    tag_49:\n      pop\n        /* \"codingtest/codingtest_250109.sol\":999:1004  false */\n      0x00\n        /* \"codingtest/codingtest_250109.sol\":992:1004  return false */\n      swap2\n      pop\n      pop\n        /* \"codingtest/codingtest_250109.sol\":470:1011  function _special(string memory _s) internal pure returns (bool) {... */\n    tag_47:\n      swap2\n      swap1\n      pop\n      jump\t// out\n        /* \"#utility.yul\":7:82   */\n    tag_61:\n        /* \"#utility.yul\":40:46   */\n      0x00\n        /* \"#utility.yul\":73:75   */\n      0x40\n        /* \"#utility.yul\":67:76   */\n      mload\n        /* \"#utility.yul\":57:76   */\n      swap1\n      pop\n        /* \"#utility.yul\":7:82   */\n      swap1\n      jump\t// out\n        /* \"#utility.yul\":88:205   */\n    tag_62:\n        /* \"#utility.yul\":197:198   */\n      0x00\n        /* \"#utility.yul\":194:195   */\n      dup1\n        /* \"#utility.yul\":187:199   */\n      revert\n        /* \"#utility.yul\":211:328   */\n    tag_63:\n        /* \"#utility.yul\":320:321   */\n      0x00\n        /* \"#utility.yul\":317:318   */\n      dup1\n        /* \"#utility.yul\":310:322   */\n      revert\n        /* \"#utility.yul\":334:451   */\n    tag_64:\n        /* \"#utility.yul\":443:444   */\n      0x00\n        /* \"#utility.yul\":440:441   */\n      dup1\n        /* \"#utility.yul\":433:445   */\n      revert\n        /* \"#utility.yul\":457:574   */\n    tag_65:\n        /* \"#utility.yul\":566:567   */\n      0x00\n        /* \"#utility.yul\":563:564   */\n      dup1\n        /* \"#utility.yul\":556:568   */\n      revert\n        /* \"#utility.yul\":580:682   */\n    tag_66:\n        /* \"#utility.yul\":621:627   */\n      0x00\n        /* \"#utility.yul\":672:674   */\n      0x1f\n        /* \"#utility.yul\":668:675   */\n      not\n        /* \"#utility.yul\":663:665   */\n      0x1f\n        /* \"#utility.yul\":656:661   */\n      dup4\n        /* \"#utility.yul\":652:666   */\n      add\n        /* \"#utility.yul\":648:676   */\n      and\n        /* \"#utility.yul\":638:676   */\n      swap1\n      pop\n        /* \"#utility.yul\":580:682   */\n      swap2\n      swap1\n      pop\n      jump\t// out\n        /* \"#utility.yul\":688:868   */\n    tag_67:\n        /* \"#utility.yul\":736:813   */\n      0x4e487b7100000000000000000000000000000000000000000000000000000000\n        /* \"#utility.yul\":733:734   */\n      0x00\n        /* \"#utility.yul\":726:814   */\n      mstore\n        /* \"#utility.yul\":833:837   */\n      0x41\n        /* \"#utility.yul\":830:831   */\n      0x04\n        /* \"#utility.yul\":823:838   */\n      mstore\n        /* \"#utility.yul\":857:861   */\n      0x24\n        /* \"#utility.yul\":854:855   */\n      0x00\n        /* \"#utility.yul\":847:862   */\n      revert\n        /* \"#utility.yul\":874:1155   */\n    tag_68:\n        /* \"#utility.yul\":957:984   */\n      tag_85\n        /* \"#utility.yul\":979:983   */\n      dup3\n        /* \"#utility.yul\":957:984   */\n      tag_66\n      jump\t// in\n    tag_85:\n        /* \"#utility.yul\":949:955   */\n      dup2\n        /* \"#utility.yul\":945:985   */\n      add\n        /* \"#utility.yul\":1087:1093   */\n      dup2\n        /* \"#utility.yul\":1075:1085   */\n      dup2\n        /* \"#utility.yul\":1072:1094   */\n      lt\n        /* \"#utility.yul\":1051:1069   */\n      0xffffffffffffffff\n        /* \"#utility.yul\":1039:1049   */\n      dup3\n        /* \"#utility.yul\":1036:1070   */\n      gt\n        /* \"#utility.yul\":1033:1095   */\n      or\n        /* \"#utility.yul\":1030:1118   */\n      iszero\n      tag_86\n      jumpi\n        /* \"#utility.yul\":1098:1116   */\n      tag_87\n      tag_67\n      jump\t// in\n    tag_87:\n        /* \"#utility.yul\":1030:1118   */\n    tag_86:\n        /* \"#utility.yul\":1138:1148   */\n      dup1\n        /* \"#utility.yul\":1134:1136   */\n      0x40\n        /* \"#utility.yul\":1127:1149   */\n      mstore\n        /* \"#utility.yul\":917:1155   */\n      pop\n        /* \"#utility.yul\":874:1155   */\n      pop\n      pop\n      jump\t// out\n        /* \"#utility.yul\":1161:1290   */\n    tag_69:\n        /* \"#utility.yul\":1195:1201   */\n      0x00\n        /* \"#utility.yul\":1222:1242   */\n      tag_89\n      tag_61\n      jump\t// in\n    tag_89:\n        /* \"#utility.yul\":1212:1242   */\n      swap1\n      pop\n        /* \"#utility.yul\":1251:1284   */\n      tag_90\n        /* \"#utility.yul\":1279:1283   */\n      dup3\n        /* \"#utility.yul\":1271:1277   */\n      dup3\n        /* \"#utility.yul\":1251:1284   */\n      tag_68\n      jump\t// in\n    tag_90:\n        /* \"#utility.yul\":1161:1290   */\n      swap2\n      swap1\n      pop\n      jump\t// out\n        /* \"#utility.yul\":1296:1604   */\n    tag_70:\n        /* \"#utility.yul\":1358:1362   */\n      0x00\n        /* \"#utility.yul\":1448:1466   */\n      0xffffffffffffffff\n        /* \"#utility.yul\":1440:1446   */\n      dup3\n        /* \"#utility.yul\":1437:1467   */\n      gt\n        /* \"#utility.yul\":1434:1490   */\n      iszero\n      tag_92\n      jumpi\n        /* \"#utility.yul\":1470:1488   */\n      tag_93\n      tag_67\n      jump\t// in\n    tag_93:\n        /* \"#utility.yul\":1434:1490   */\n    tag_92:\n        /* \"#utility.yul\":1508:1537   */\n      tag_94\n        /* \"#utility.yul\":1530:1536   */\n      dup3\n        /* \"#utility.yul\":1508:1537   */\n      tag_66\n      jump\t// in\n    tag_94:\n        /* \"#utility.yul\":1500:1537   */\n      swap1\n      pop\n        /* \"#utility.yul\":1592:1596   */\n      0x20\n        /* \"#utility.yul\":1586:1590   */\n      dup2\n        /* \"#utility.yul\":1582:1597   */\n      add\n        /* \"#utility.yul\":1574:1597   */\n      swap1\n      pop\n        /* \"#utility.yul\":1296:1604   */\n      swap2\n      swap1\n      pop\n      jump\t// out\n        /* \"#utility.yul\":1610:1758   */\n    tag_71:\n        /* \"#utility.yul\":1708:1714   */\n      dup3\n        /* \"#utility.yul\":1703:1706   */\n      dup2\n        /* \"#utility.yul\":1698:1701   */\n      dup4\n        /* \"#utility.yul\":1685:1715   */\n      calldatacopy\n        /* \"#utility.yul\":1749:1750   */\n      0x00\n        /* \"#utility.yul\":1740:1746   */\n      dup4\n        /* \"#utility.yul\":1735:1738   */\n      dup4\n        /* \"#utility.yul\":1731:1747   */\n      add\n        /* \"#utility.yul\":1724:1751   */\n      mstore\n        /* \"#utility.yul\":1610:1758   */\n      pop\n      pop\n      pop\n      jump\t// out\n        /* \"#utility.yul\":1764:2189   */\n    tag_72:\n        /* \"#utility.yul\":1842:1847   */\n      0x00\n        /* \"#utility.yul\":1867:1933   */\n      tag_97\n        /* \"#utility.yul\":1883:1932   */\n      tag_98\n        /* \"#utility.yul\":1925:1931   */\n      dup5\n        /* \"#utility.yul\":1883:1932   */\n      tag_70\n      jump\t// in\n    tag_98:\n        /* \"#utility.yul\":1867:1933   */\n      tag_69\n      jump\t// in\n    tag_97:\n        /* \"#utility.yul\":1858:1933   */\n      swap1\n      pop\n        /* \"#utility.yul\":1956:1962   */\n      dup3\n        /* \"#utility.yul\":1949:1954   */\n      dup2\n        /* \"#utility.yul\":1942:1963   */\n      mstore\n        /* \"#utility.yul\":1994:1998   */\n      0x20\n        /* \"#utility.yul\":1987:1992   */\n      dup2\n        /* \"#utility.yul\":1983:1999   */\n      add\n        /* \"#utility.yul\":2032:2035   */\n      dup5\n        /* \"#utility.yul\":2023:2029   */\n      dup5\n        /* \"#utility.yul\":2018:2021   */\n      dup5\n        /* \"#utility.yul\":2014:2030   */\n      add\n        /* \"#utility.yul\":2011:2036   */\n      gt\n        /* \"#utility.yul\":2008:2120   */\n      iszero\n      tag_99\n      jumpi\n        /* \"#utility.yul\":2039:2118   */\n      tag_100\n      tag_65\n      jump\t// in\n    tag_100:\n        /* \"#utility.yul\":2008:2120   */\n    tag_99:\n        /* \"#utility.yul\":2129:2183   */\n      tag_101\n        /* \"#utility.yul\":2176:2182   */\n      dup5\n        /* \"#utility.yul\":2171:2174   */\n      dup3\n        /* \"#utility.yul\":2166:2169   */\n      dup6\n        /* \"#utility.yul\":2129:2183   */\n      tag_71\n      jump\t// in\n    tag_101:\n        /* \"#utility.yul\":1848:2189   */\n      pop\n        /* \"#utility.yul\":1764:2189   */\n      swap4\n      swap3\n      pop\n      pop\n      pop\n      jump\t// out\n        /* \"#utility.yul\":2209:2549   */\n    tag_73:\n        /* \"#utility.yul\":2265:2270   */\n      0x00\n        /* \"#utility.yul\":2314:2317   */\n      dup3\n        /* \"#utility.yul\":2307:2311   */\n      0x1f\n        /* \"#utility.yul\":2299:2305   */\n      dup4\n        /* \"#utility.yul\":2295:2312   */\n      add\n        /* \"#utility.yul\":2291:2318   */\n      slt\n        /* \"#utility.yul\":2281:2403   */\n      tag_103\n      jumpi\n        /* \"#utility.yul\":2322:2401   */\n      tag_104\n      tag_64\n      jump\t// in\n    tag_104:\n        /* \"#utility.yul\":2281:2403   */\n    tag_103:\n        /* \"#utility.yul\":2439:2445   */\n      dup2\n        /* \"#utility.yul\":2426:2446   */\n      calldataload\n        /* \"#utility.yul\":2464:2543   */\n      tag_105\n        /* \"#utility.yul\":2539:2542   */\n      dup5\n        /* \"#utility.yul\":2531:2537   */\n      dup3\n        /* \"#utility.yul\":2524:2528   */\n      0x20\n        /* \"#utility.yul\":2516:2522   */\n      dup7\n        /* \"#utility.yul\":2512:2529   */\n      add\n        /* \"#utility.yul\":2464:2543   */\n      tag_72\n      jump\t// in\n    tag_105:\n        /* \"#utility.yul\":2455:2543   */\n      swap2\n      pop\n        /* \"#utility.yul\":2271:2549   */\n      pop\n        /* \"#utility.yul\":2209:2549   */\n      swap3\n      swap2\n      pop\n      pop\n      jump\t// out\n        /* \"#utility.yul\":2555:3064   */\n    tag_6:\n        /* \"#utility.yul\":2624:2630   */\n      0x00\n        /* \"#utility.yul\":2673:2675   */\n      0x20\n        /* \"#utility.yul\":2661:2670   */\n      dup3\n        /* \"#utility.yul\":2652:2659   */\n      dup5\n        /* \"#utility.yul\":2648:2671   */\n      sub\n        /* \"#utility.yul\":2644:2676   */\n      slt\n        /* \"#utility.yul\":2641:2760   */\n      iszero\n      tag_107\n      jumpi\n        /* \"#utility.yul\":2679:2758   */\n      tag_108\n      tag_62\n      jump\t// in\n    tag_108:\n        /* \"#utility.yul\":2641:2760   */\n    tag_107:\n        /* \"#utility.yul\":2827:2828   */\n      0x00\n        /* \"#utility.yul\":2816:2825   */\n      dup3\n        /* \"#utility.yul\":2812:2829   */\n      add\n        /* \"#utility.yul\":2799:2830   */\n      calldataload\n        /* \"#utility.yul\":2857:2875   */\n      0xffffffffffffffff\n        /* \"#utility.yul\":2849:2855   */\n      dup2\n        /* \"#utility.yul\":2846:2876   */\n      gt\n        /* \"#utility.yul\":2843:2960   */\n      iszero\n      tag_109\n      jumpi\n        /* \"#utility.yul\":2879:2958   */\n      tag_110\n      tag_63\n      jump\t// in\n    tag_110:\n        /* \"#utility.yul\":2843:2960   */\n    tag_109:\n        /* \"#utility.yul\":2984:3047   */\n      tag_111\n        /* \"#utility.yul\":3039:3046   */\n      dup5\n        /* \"#utility.yul\":3030:3036   */\n      dup3\n        /* \"#utility.yul\":3019:3028   */\n      dup6\n        /* \"#utility.yul\":3015:3037   */\n      add\n        /* \"#utility.yul\":2984:3047   */\n      tag_73\n      jump\t// in\n    tag_111:\n        /* \"#utility.yul\":2974:3047   */\n      swap2\n      pop\n        /* \"#utility.yul\":2770:3057   */\n      pop\n        /* \"#utility.yul\":2555:3064   */\n      swap3\n      swap2\n      pop\n      pop\n      jump\t// out\n        /* \"#utility.yul\":3070:3160   */\n    tag_74:\n        /* \"#utility.yul\":3104:3111   */\n      0x00\n        /* \"#utility.yul\":3147:3152   */\n      dup2\n        /* \"#utility.yul\":3140:3153   */\n      iszero\n        /* \"#utility.yul\":3133:3154   */\n      iszero\n        /* \"#utility.yul\":3122:3154   */\n      swap1\n      pop\n        /* \"#utility.yul\":3070:3160   */\n      swap2\n      swap1\n      pop\n      jump\t// out\n        /* \"#utility.yul\":3166:3275   */\n    tag_75:\n        /* \"#utility.yul\":3247:3268   */\n      tag_114\n        /* \"#utility.yul\":3262:3267   */\n      dup2\n        /* \"#utility.yul\":3247:3268   */\n      tag_74\n      jump\t// in\n    tag_114:\n        /* \"#utility.yul\":3242:3245   */\n      dup3\n        /* \"#utility.yul\":3235:3269   */\n      mstore\n        /* \"#utility.yul\":3166:3275   */\n      pop\n      pop\n      jump\t// out\n        /* \"#utility.yul\":3281:3491   */\n    tag_9:\n        /* \"#utility.yul\":3368:3372   */\n      0x00\n        /* \"#utility.yul\":3406:3408   */\n      0x20\n        /* \"#utility.yul\":3395:3404   */\n      dup3\n        /* \"#utility.yul\":3391:3409   */\n      add\n        /* \"#utility.yul\":3383:3409   */\n      swap1\n      pop\n        /* \"#utility.yul\":3419:3484   */\n      tag_116\n        /* \"#utility.yul\":3481:3482   */\n      0x00\n        /* \"#utility.yul\":3470:3479   */\n      dup4\n        /* \"#utility.yul\":3466:3483   */\n      add\n        /* \"#utility.yul\":3457:3463   */\n      dup5\n        /* \"#utility.yul\":3419:3484   */\n      tag_75\n      jump\t// in\n    tag_116:\n        /* \"#utility.yul\":3281:3491   */\n      swap3\n      swap2\n      pop\n      pop\n      jump\t// out\n        /* \"#utility.yul\":3497:3677   */\n    tag_28:\n        /* \"#utility.yul\":3545:3622   */\n      0x4e487b7100000000000000000000000000000000000000000000000000000000\n        /* \"#utility.yul\":3542:3543   */\n      0x00\n        /* \"#utility.yul\":3535:3623   */\n      mstore\n        /* \"#utility.yul\":3642:3646   */\n      0x32\n        /* \"#utility.yul\":3639:3640   */\n      0x04\n        /* \"#utility.yul\":3632:3647   */\n      mstore\n        /* \"#utility.yul\":3666:3670   */\n      0x24\n        /* \"#utility.yul\":3663:3664   */\n      0x00\n        /* \"#utility.yul\":3656:3671   */\n      revert\n\n    auxdata: 0xa264697066735822122060bbaabe1ecec46cc67621fb233b41963f1c32989935697cebfd8b5cd0dad83364736f6c634300081a0033\n}\n",
				"bytecode": {
					"linkReferences": {},
					"object": "6080604052348015600e575f80fd5b506105008061001c5f395ff3fe608060405234801561000f575f80fd5b5060043610610029575f3560e01c80638e41bcac1461002d575b5f80fd5b61004760048036038101906100429190610423565b61005d565b6040516100549190610484565b60405180910390f35b5f610067826100a1565b8015610078575061007782610117565b5b801561008957506100888261018d565b5b801561009a575061009982610203565b5b9050919050565b5f808290505f5b815181101561010c575f8282815181106100c5576100c461049d565b5b602001015160f81c60f81b60f81c905060418160ff16101580156100ed5750605a8160ff1611155b156100fe5760019350505050610112565b5080806001019150506100a8565b505f9150505b919050565b5f808290505f5b8151811015610182575f82828151811061013b5761013a61049d565b5b602001015160f81c60f81b60f81c905060618160ff16101580156101635750607a8160ff1611155b156101745760019350505050610188565b50808060010191505061011e565b505f9150505b919050565b5f808290505f5b81518110156101f8575f8282815181106101b1576101b061049d565b5b602001015160f81c60f81b60f81c905060308160ff16101580156101d9575060398160ff1611155b156101ea57600193505050506101fe565b508080600101915050610194565b505f9150505b919050565b5f808290505f5b81518110156102cb575f8282815181106102275761022661049d565b5b602001015160f81c60f81b60f81c905060218160ff161015801561024f5750602f8160ff1611155b8061026e5750603a8160ff161015801561026d575060408160ff1611155b5b8061028d5750605b8160ff161015801561028c575060608160ff1611155b5b806102ac5750607b8160ff16101580156102ab5750607e8160ff1611155b5b156102bd57600193505050506102d1565b50808060010191505061020a565b505f9150505b919050565b5f604051905090565b5f80fd5b5f80fd5b5f80fd5b5f80fd5b5f601f19601f8301169050919050565b7f4e487b71000000000000000000000000000000000000000000000000000000005f52604160045260245ffd5b610335826102ef565b810181811067ffffffffffffffff82111715610354576103536102ff565b5b80604052505050565b5f6103666102d6565b9050610372828261032c565b919050565b5f67ffffffffffffffff821115610391576103906102ff565b5b61039a826102ef565b9050602081019050919050565b828183375f83830152505050565b5f6103c76103c284610377565b61035d565b9050828152602081018484840111156103e3576103e26102eb565b5b6103ee8482856103a7565b509392505050565b5f82601f83011261040a576104096102e7565b5b813561041a8482602086016103b5565b91505092915050565b5f60208284031215610438576104376102df565b5b5f82013567ffffffffffffffff811115610455576104546102e3565b5b610461848285016103f6565b91505092915050565b5f8115159050919050565b61047e8161046a565b82525050565b5f6020820190506104975f830184610475565b92915050565b7f4e487b71000000000000000000000000000000000000000000000000000000005f52603260045260245ffdfea264697066735822122060bbaabe1ecec46cc67621fb233b41963f1c32989935697cebfd8b5cd0dad83364736f6c634300081a0033",
					"opcodes": "PUSH1 0x80 PUSH1 0x40 MSTORE CALLVALUE DUP1 ISZERO PUSH1 0xE JUMPI PUSH0 DUP1 REVERT JUMPDEST POP PUSH2 0x500 DUP1 PUSH2 0x1C PUSH0 CODECOPY PUSH0 RETURN INVALID PUSH1 0x80 PUSH1 0x40 MSTORE CALLVALUE DUP1 ISZERO PUSH2 0xF JUMPI PUSH0 DUP1 REVERT JUMPDEST POP PUSH1 0x4 CALLDATASIZE LT PUSH2 0x29 JUMPI PUSH0 CALLDATALOAD PUSH1 0xE0 SHR DUP1 PUSH4 0x8E41BCAC EQ PUSH2 0x2D JUMPI JUMPDEST PUSH0 DUP1 REVERT JUMPDEST PUSH2 0x47 PUSH1 0x4 DUP1 CALLDATASIZE SUB DUP2 ADD SWAP1 PUSH2 0x42 SWAP2 SWAP1 PUSH2 0x423 JUMP JUMPDEST PUSH2 0x5D JUMP JUMPDEST PUSH1 0x40 MLOAD PUSH2 0x54 SWAP2 SWAP1 PUSH2 0x484 JUMP JUMPDEST PUSH1 0x40 MLOAD DUP1 SWAP2 SUB SWAP1 RETURN JUMPDEST PUSH0 PUSH2 0x67 DUP3 PUSH2 0xA1 JUMP JUMPDEST DUP1 ISZERO PUSH2 0x78 JUMPI POP PUSH2 0x77 DUP3 PUSH2 0x117 JUMP JUMPDEST JUMPDEST DUP1 ISZERO PUSH2 0x89 JUMPI POP PUSH2 0x88 DUP3 PUSH2 0x18D JUMP JUMPDEST JUMPDEST DUP1 ISZERO PUSH2 0x9A JUMPI POP PUSH2 0x99 DUP3 PUSH2 0x203 JUMP JUMPDEST JUMPDEST SWAP1 POP SWAP2 SWAP1 POP JUMP JUMPDEST PUSH0 DUP1 DUP3 SWAP1 POP PUSH0 JUMPDEST DUP2 MLOAD DUP2 LT ISZERO PUSH2 0x10C JUMPI PUSH0 DUP3 DUP3 DUP2 MLOAD DUP2 LT PUSH2 0xC5 JUMPI PUSH2 0xC4 PUSH2 0x49D JUMP JUMPDEST JUMPDEST PUSH1 0x20 ADD ADD MLOAD PUSH1 0xF8 SHR PUSH1 0xF8 SHL PUSH1 0xF8 SHR SWAP1 POP PUSH1 0x41 DUP2 PUSH1 0xFF AND LT ISZERO DUP1 ISZERO PUSH2 0xED JUMPI POP PUSH1 0x5A DUP2 PUSH1 0xFF AND GT ISZERO JUMPDEST ISZERO PUSH2 0xFE JUMPI PUSH1 0x1 SWAP4 POP POP POP POP PUSH2 0x112 JUMP JUMPDEST POP DUP1 DUP1 PUSH1 0x1 ADD SWAP2 POP POP PUSH2 0xA8 JUMP JUMPDEST POP PUSH0 SWAP2 POP POP JUMPDEST SWAP2 SWAP1 POP JUMP JUMPDEST PUSH0 DUP1 DUP3 SWAP1 POP PUSH0 JUMPDEST DUP2 MLOAD DUP2 LT ISZERO PUSH2 0x182 JUMPI PUSH0 DUP3 DUP3 DUP2 MLOAD DUP2 LT PUSH2 0x13B JUMPI PUSH2 0x13A PUSH2 0x49D JUMP JUMPDEST JUMPDEST PUSH1 0x20 ADD ADD MLOAD PUSH1 0xF8 SHR PUSH1 0xF8 SHL PUSH1 0xF8 SHR SWAP1 POP PUSH1 0x61 DUP2 PUSH1 0xFF AND LT ISZERO DUP1 ISZERO PUSH2 0x163 JUMPI POP PUSH1 0x7A DUP2 PUSH1 0xFF AND GT ISZERO JUMPDEST ISZERO PUSH2 0x174 JUMPI PUSH1 0x1 SWAP4 POP POP POP POP PUSH2 0x188 JUMP JUMPDEST POP DUP1 DUP1 PUSH1 0x1 ADD SWAP2 POP POP PUSH2 0x11E JUMP JUMPDEST POP PUSH0 SWAP2 POP POP JUMPDEST SWAP2 SWAP1 POP JUMP JUMPDEST PUSH0 DUP1 DUP3 SWAP1 POP PUSH0 JUMPDEST DUP2 MLOAD DUP2 LT ISZERO PUSH2 0x1F8 JUMPI PUSH0 DUP3 DUP3 DUP2 MLOAD DUP2 LT PUSH2 0x1B1 JUMPI PUSH2 0x1B0 PUSH2 0x49D JUMP JUMPDEST JUMPDEST PUSH1 0x20 ADD ADD MLOAD PUSH1 0xF8 SHR PUSH1 0xF8 SHL PUSH1 0xF8 SHR SWAP1 POP PUSH1 0x30 DUP2 PUSH1 0xFF AND LT ISZERO DUP1 ISZERO PUSH2 0x1D9 JUMPI POP PUSH1 0x39 DUP2 PUSH1 0xFF AND GT ISZERO JUMPDEST ISZERO PUSH2 0x1EA JUMPI PUSH1 0x1 SWAP4 POP POP POP POP PUSH2 0x1FE JUMP JUMPDEST POP DUP1 DUP1 PUSH1 0x1 ADD SWAP2 POP POP PUSH2 0x194 JUMP JUMPDEST POP PUSH0 SWAP2 POP POP JUMPDEST SWAP2 SWAP1 POP JUMP JUMPDEST PUSH0 DUP1 DUP3 SWAP1 POP PUSH0 JUMPDEST DUP2 MLOAD DUP2 LT ISZERO PUSH2 0x2CB JUMPI PUSH0 DUP3 DUP3 DUP2 MLOAD DUP2 LT PUSH2 0x227 JUMPI PUSH2 0x226 PUSH2 0x49D JUMP JUMPDEST JUMPDEST PUSH1 0x20 ADD ADD MLOAD PUSH1 0xF8 SHR PUSH1 0xF8 SHL PUSH1 0xF8 SHR SWAP1 POP PUSH1 0x21 DUP2 PUSH1 0xFF AND LT ISZERO DUP1 ISZERO PUSH2 0x24F JUMPI POP PUSH1 0x2F DUP2 PUSH1 0xFF AND GT ISZERO JUMPDEST DUP1 PUSH2 0x26E JUMPI POP PUSH1 0x3A DUP2 PUSH1 0xFF AND LT ISZERO DUP1 ISZERO PUSH2 0x26D JUMPI POP PUSH1 0x40 DUP2 PUSH1 0xFF AND GT ISZERO JUMPDEST JUMPDEST DUP1 PUSH2 0x28D JUMPI POP PUSH1 0x5B DUP2 PUSH1 0xFF AND LT ISZERO DUP1 ISZERO PUSH2 0x28C JUMPI POP PUSH1 0x60 DUP2 PUSH1 0xFF AND GT ISZERO JUMPDEST JUMPDEST DUP1 PUSH2 0x2AC JUMPI POP PUSH1 0x7B DUP2 PUSH1 0xFF AND LT ISZERO DUP1 ISZERO PUSH2 0x2AB JUMPI POP PUSH1 0x7E DUP2 PUSH1 0xFF AND GT ISZERO JUMPDEST JUMPDEST ISZERO PUSH2 0x2BD JUMPI PUSH1 0x1 SWAP4 POP POP POP POP PUSH2 0x2D1 JUMP JUMPDEST POP DUP1 DUP1 PUSH1 0x1 ADD SWAP2 POP POP PUSH2 0x20A JUMP JUMPDEST POP PUSH0 SWAP2 POP POP JUMPDEST SWAP2 SWAP1 POP JUMP JUMPDEST PUSH0 PUSH1 0x40 MLOAD SWAP1 POP SWAP1 JUMP JUMPDEST PUSH0 DUP1 REVERT JUMPDEST PUSH0 DUP1 REVERT JUMPDEST PUSH0 DUP1 REVERT JUMPDEST PUSH0 DUP1 REVERT JUMPDEST PUSH0 PUSH1 0x1F NOT PUSH1 0x1F DUP4 ADD AND SWAP1 POP SWAP2 SWAP1 POP JUMP JUMPDEST PUSH32 0x4E487B7100000000000000000000000000000000000000000000000000000000 PUSH0 MSTORE PUSH1 0x41 PUSH1 0x4 MSTORE PUSH1 0x24 PUSH0 REVERT JUMPDEST PUSH2 0x335 DUP3 PUSH2 0x2EF JUMP JUMPDEST DUP2 ADD DUP2 DUP2 LT PUSH8 0xFFFFFFFFFFFFFFFF DUP3 GT OR ISZERO PUSH2 0x354 JUMPI PUSH2 0x353 PUSH2 0x2FF JUMP JUMPDEST JUMPDEST DUP1 PUSH1 0x40 MSTORE POP POP POP JUMP JUMPDEST PUSH0 PUSH2 0x366 PUSH2 0x2D6 JUMP JUMPDEST SWAP1 POP PUSH2 0x372 DUP3 DUP3 PUSH2 0x32C JUMP JUMPDEST SWAP2 SWAP1 POP JUMP JUMPDEST PUSH0 PUSH8 0xFFFFFFFFFFFFFFFF DUP3 GT ISZERO PUSH2 0x391 JUMPI PUSH2 0x390 PUSH2 0x2FF JUMP JUMPDEST JUMPDEST PUSH2 0x39A DUP3 PUSH2 0x2EF JUMP JUMPDEST SWAP1 POP PUSH1 0x20 DUP2 ADD SWAP1 POP SWAP2 SWAP1 POP JUMP JUMPDEST DUP3 DUP2 DUP4 CALLDATACOPY PUSH0 DUP4 DUP4 ADD MSTORE POP POP POP JUMP JUMPDEST PUSH0 PUSH2 0x3C7 PUSH2 0x3C2 DUP5 PUSH2 0x377 JUMP JUMPDEST PUSH2 0x35D JUMP JUMPDEST SWAP1 POP DUP3 DUP2 MSTORE PUSH1 0x20 DUP2 ADD DUP5 DUP5 DUP5 ADD GT ISZERO PUSH2 0x3E3 JUMPI PUSH2 0x3E2 PUSH2 0x2EB JUMP JUMPDEST JUMPDEST PUSH2 0x3EE DUP5 DUP3 DUP6 PUSH2 0x3A7 JUMP JUMPDEST POP SWAP4 SWAP3 POP POP POP JUMP JUMPDEST PUSH0 DUP3 PUSH1 0x1F DUP4 ADD SLT PUSH2 0x40A JUMPI PUSH2 0x409 PUSH2 0x2E7 JUMP JUMPDEST JUMPDEST DUP2 CALLDATALOAD PUSH2 0x41A DUP5 DUP3 PUSH1 0x20 DUP7 ADD PUSH2 0x3B5 JUMP JUMPDEST SWAP2 POP POP SWAP3 SWAP2 POP POP JUMP JUMPDEST PUSH0 PUSH1 0x20 DUP3 DUP5 SUB SLT ISZERO PUSH2 0x438 JUMPI PUSH2 0x437 PUSH2 0x2DF JUMP JUMPDEST JUMPDEST PUSH0 DUP3 ADD CALLDATALOAD PUSH8 0xFFFFFFFFFFFFFFFF DUP2 GT ISZERO PUSH2 0x455 JUMPI PUSH2 0x454 PUSH2 0x2E3 JUMP JUMPDEST JUMPDEST PUSH2 0x461 DUP5 DUP3 DUP6 ADD PUSH2 0x3F6 JUMP JUMPDEST SWAP2 POP POP SWAP3 SWAP2 POP POP JUMP JUMPDEST PUSH0 DUP2 ISZERO ISZERO SWAP1 POP SWAP2 SWAP1 POP JUMP JUMPDEST PUSH2 0x47E DUP2 PUSH2 0x46A JUMP JUMPDEST DUP3 MSTORE POP POP JUMP JUMPDEST PUSH0 PUSH1 0x20 DUP3 ADD SWAP1 POP PUSH2 0x497 PUSH0 DUP4 ADD DUP5 PUSH2 0x475 JUMP JUMPDEST SWAP3 SWAP2 POP POP JUMP JUMPDEST PUSH32 0x4E487B7100000000000000000000000000000000000000000000000000000000 PUSH0 MSTORE PUSH1 0x32 PUSH1 0x4 MSTORE PUSH1 0x24 PUSH0 REVERT INVALID LOG2 PUSH5 0x6970667358 0x22 SLT KECCAK256 PUSH1 0xBB 0xAA 0xBE 0x1E 0xCE 0xC4 PUSH13 0xC67621FB233B41963F1C329899 CALLDATALOAD PUSH10 0x7CEBFD8B5CD0DAD83364 PUSH20 0x6F6C634300081A00330000000000000000000000 "
				},
				"gasEstimates": {
					"creation": {
						"codeDepositCost": "256000",
						"executionCost": "292",
						"totalCost": "256292"
					},
					"external": {
						"isValidPassword(string)": "infinite"
					},
					"internal": {
						"_lowerCase(string memory)": "infinite",
						"_number(string memory)": "infinite",
						"_special(string memory)": "infinite",
						"_upperCase(string memory)": "infinite"
					}
				},
				"methodIdentifiers": {
					"isValidPassword(string)": "8e41bcac"
				}
			},
			"storageLayout": {
				"storage": [],
				"types": null
			},
			"userdoc": {
				"kind": "user",
				"methods": {},
				"version": 1
			}
		}
	}
}