{
	"codingtest/codingtest_250102.sol": {
		"StudentScoreManager": {
			"abi": [
				{
					"inputs": [
						{
							"internalType": "uint256",
							"name": "_id",
							"type": "uint256"
						},
						{
							"internalType": "string",
							"name": "_name",
							"type": "string"
						},
						{
							"internalType": "uint256",
							"name": "_score",
							"type": "uint256"
						}
					],
					"name": "addStudent",
					"outputs": [],
					"stateMutability": "nonpayable",
					"type": "function"
				},
				{
					"inputs": [],
					"name": "getAllStudents",
					"outputs": [
						{
							"components": [
								{
									"internalType": "uint256",
									"name": "id",
									"type": "uint256"
								},
								{
									"internalType": "string",
									"name": "name",
									"type": "string"
								},
								{
									"internalType": "uint256",
									"name": "score",
									"type": "uint256"
								}
							],
							"internalType": "struct StudentScoreManager.Student[]",
							"name": "",
							"type": "tuple[]"
						}
					],
					"stateMutability": "view",
					"type": "function"
				},
				{
					"inputs": [],
					"name": "getAverageScore",
					"outputs": [
						{
							"internalType": "uint256",
							"name": "",
							"type": "uint256"
						}
					],
					"stateMutability": "view",
					"type": "function"
				},
				{
					"inputs": [],
					"name": "getLowestScoreStudent",
					"outputs": [
						{
							"components": [
								{
									"internalType": "uint256",
									"name": "id",
									"type": "uint256"
								},
								{
									"internalType": "string",
									"name": "name",
									"type": "string"
								},
								{
									"internalType": "uint256",
									"name": "score",
									"type": "uint256"
								}
							],
							"internalType": "struct StudentScoreManager.Student",
							"name": "",
							"type": "tuple"
						}
					],
					"stateMutability": "view",
					"type": "function"
				},
				{
					"inputs": [
						{
							"internalType": "uint256",
							"name": "_id",
							"type": "uint256"
						}
					],
					"name": "getStudentById",
					"outputs": [
						{
							"components": [
								{
									"internalType": "uint256",
									"name": "id",
									"type": "uint256"
								},
								{
									"internalType": "string",
									"name": "name",
									"type": "string"
								},
								{
									"internalType": "uint256",
									"name": "score",
									"type": "uint256"
								}
							],
							"internalType": "struct StudentScoreManager.Student",
							"name": "",
							"type": "tuple"
						}
					],
					"stateMutability": "view",
					"type": "function"
				},
				{
					"inputs": [],
					"name": "getTotalScore",
					"outputs": [
						{
							"internalType": "uint256",
							"name": "",
							"type": "uint256"
						}
					],
					"stateMutability": "view",
					"type": "function"
				}
			],
			"devdoc": {
				"kind": "dev",
				"methods": {},
				"version": 1
			},
			"evm": {
				"assembly": "    /* \"codingtest/codingtest_250102.sol\":70:1736  contract StudentScoreManager {... */\n  mstore(0x40, 0x80)\n  callvalue\n  dup1\n  iszero\n  tag_1\n  jumpi\n  0x00\n  dup1\n  revert\ntag_1:\n  pop\n  dataSize(sub_0)\n  dup1\n  dataOffset(sub_0)\n  0x00\n  codecopy\n  0x00\n  return\nstop\n\nsub_0: assembly {\n        /* \"codingtest/codingtest_250102.sol\":70:1736  contract StudentScoreManager {... */\n      mstore(0x40, 0x80)\n      callvalue\n      dup1\n      iszero\n      tag_1\n      jumpi\n      0x00\n      dup1\n      revert\n    tag_1:\n      pop\n      jumpi(tag_2, lt(calldatasize, 0x04))\n      shr(0xe0, calldataload(0x00))\n      dup1\n      0x2011cdae\n      eq\n      tag_3\n      jumpi\n      dup1\n      0x77dfe54e\n      eq\n      tag_4\n      jumpi\n      dup1\n      0xc1bea1db\n      eq\n      tag_5\n      jumpi\n      dup1\n      0xc8fb0793\n      eq\n      tag_6\n      jumpi\n      dup1\n      0xdf72cdbf\n      eq\n      tag_7\n      jumpi\n      dup1\n      0xe9e30927\n      eq\n      tag_8\n      jumpi\n    tag_2:\n      0x00\n      dup1\n      revert\n        /* \"codingtest/codingtest_250102.sol\":885:1116  function getTotalScore() public view studentsExist returns (uint256) {... */\n    tag_3:\n      tag_9\n      tag_10\n      jump\t// in\n    tag_9:\n      mload(0x40)\n      tag_11\n      swap2\n      swap1\n      tag_12\n      jump\t// in\n    tag_11:\n      mload(0x40)\n      dup1\n      swap2\n      sub\n      swap1\n      return\n        /* \"codingtest/codingtest_250102.sol\":514:879  function getLowestScoreStudent()... */\n    tag_4:\n      tag_13\n      tag_14\n      jump\t// in\n    tag_13:\n      mload(0x40)\n      tag_15\n      swap2\n      swap1\n      tag_16\n      jump\t// in\n    tag_15:\n      mload(0x40)\n      dup1\n      swap2\n      sub\n      swap1\n      return\n        /* \"codingtest/codingtest_250102.sol\":342:508  function addStudent(... */\n    tag_5:\n      tag_17\n      0x04\n      dup1\n      calldatasize\n      sub\n      dup2\n      add\n      swap1\n      tag_18\n      swap2\n      swap1\n      tag_19\n      jump\t// in\n    tag_18:\n      tag_20\n      jump\t// in\n    tag_17:\n      stop\n        /* \"codingtest/codingtest_250102.sol\":1256:1581  function getStudentById(uint256 _id)... */\n    tag_6:\n      tag_21\n      0x04\n      dup1\n      calldatasize\n      sub\n      dup2\n      add\n      swap1\n      tag_22\n      swap2\n      swap1\n      tag_23\n      jump\t// in\n    tag_22:\n      tag_24\n      jump\t// in\n    tag_21:\n      mload(0x40)\n      tag_25\n      swap2\n      swap1\n      tag_16\n      jump\t// in\n    tag_25:\n      mload(0x40)\n      dup1\n      swap2\n      sub\n      swap1\n      return\n        /* \"codingtest/codingtest_250102.sol\":1122:1250  function getAverageScore() public view studentsExist returns (uint256) {... */\n    tag_7:\n      tag_26\n      tag_27\n      jump\t// in\n    tag_26:\n      mload(0x40)\n      tag_28\n      swap2\n      swap1\n      tag_12\n      jump\t// in\n    tag_28:\n      mload(0x40)\n      dup1\n      swap2\n      sub\n      swap1\n      return\n        /* \"codingtest/codingtest_250102.sol\":1587:1734  function getAllStudents()... */\n    tag_8:\n      tag_29\n      tag_30\n      jump\t// in\n    tag_29:\n      mload(0x40)\n      tag_31\n      swap2\n      swap1\n      tag_32\n      jump\t// in\n    tag_31:\n      mload(0x40)\n      dup1\n      swap2\n      sub\n      swap1\n      return\n        /* \"codingtest/codingtest_250102.sol\":885:1116  function getTotalScore() public view studentsExist returns (uint256) {... */\n    tag_10:\n        /* \"codingtest/codingtest_250102.sol\":945:952  uint256 */\n      0x00\n        /* \"codingtest/codingtest_250102.sol\":291:292  0 */\n      dup1\n        /* \"codingtest/codingtest_250102.sol\":273:281  students */\n      0x00\n        /* \"codingtest/codingtest_250102.sol\":273:288  students.length */\n      dup1\n      sload\n      swap1\n      pop\n        /* \"codingtest/codingtest_250102.sol\":273:292  students.length > 0 */\n      gt\n        /* \"codingtest/codingtest_250102.sol\":265:318  require(students.length > 0, \"No students available\") */\n      tag_34\n      jumpi\n      mload(0x40)\n      0x08c379a000000000000000000000000000000000000000000000000000000000\n      dup2\n      mstore\n      0x04\n      add\n      tag_35\n      swap1\n      tag_36\n      jump\t// in\n    tag_35:\n      mload(0x40)\n      dup1\n      swap2\n      sub\n      swap1\n      revert\n    tag_34:\n        /* \"codingtest/codingtest_250102.sol\":964:977  uint256 total */\n      0x00\n        /* \"codingtest/codingtest_250102.sol\":996:1005  uint256 i */\n      dup1\n        /* \"codingtest/codingtest_250102.sol\":991:1088  for (uint256 i = 0; i < students.length; i++) {... */\n    tag_38:\n        /* \"codingtest/codingtest_250102.sol\":1015:1023  students */\n      0x00\n        /* \"codingtest/codingtest_250102.sol\":1015:1030  students.length */\n      dup1\n      sload\n      swap1\n      pop\n        /* \"codingtest/codingtest_250102.sol\":1011:1012  i */\n      dup2\n        /* \"codingtest/codingtest_250102.sol\":1011:1030  i < students.length */\n      lt\n        /* \"codingtest/codingtest_250102.sol\":991:1088  for (uint256 i = 0; i < students.length; i++) {... */\n      iszero\n      tag_39\n      jumpi\n        /* \"codingtest/codingtest_250102.sol\":1060:1068  students */\n      0x00\n        /* \"codingtest/codingtest_250102.sol\":1069:1070  i */\n      dup2\n        /* \"codingtest/codingtest_250102.sol\":1060:1071  students[i] */\n      dup2\n      sload\n      dup2\n      lt\n      tag_41\n      jumpi\n      tag_42\n      tag_43\n      jump\t// in\n    tag_42:\n    tag_41:\n      swap1\n      0x00\n      mstore\n      keccak256(0x00, 0x20)\n      swap1\n      0x03\n      mul\n      add\n        /* \"codingtest/codingtest_250102.sol\":1060:1077  students[i].score */\n      0x02\n      add\n      sload\n        /* \"codingtest/codingtest_250102.sol\":1051:1077  total += students[i].score */\n      dup3\n      tag_45\n      swap2\n      swap1\n      tag_46\n      jump\t// in\n    tag_45:\n      swap2\n      pop\n        /* \"codingtest/codingtest_250102.sol\":1032:1035  i++ */\n      dup1\n      dup1\n      0x01\n      add\n      swap2\n      pop\n      pop\n        /* \"codingtest/codingtest_250102.sol\":991:1088  for (uint256 i = 0; i < students.length; i++) {... */\n      jump(tag_38)\n    tag_39:\n      pop\n        /* \"codingtest/codingtest_250102.sol\":1104:1109  total */\n      dup1\n        /* \"codingtest/codingtest_250102.sol\":1097:1109  return total */\n      swap2\n      pop\n      pop\n        /* \"codingtest/codingtest_250102.sol\":885:1116  function getTotalScore() public view studentsExist returns (uint256) {... */\n      swap1\n      jump\t// out\n        /* \"codingtest/codingtest_250102.sol\":514:879  function getLowestScoreStudent()... */\n    tag_14:\n        /* \"codingtest/codingtest_250102.sol\":614:628  Student memory */\n      tag_47\n      tag_48\n      jump\t// in\n    tag_47:\n        /* \"codingtest/codingtest_250102.sol\":291:292  0 */\n      0x00\n        /* \"codingtest/codingtest_250102.sol\":273:281  students */\n      dup1\n        /* \"codingtest/codingtest_250102.sol\":273:288  students.length */\n      dup1\n      sload\n      swap1\n      pop\n        /* \"codingtest/codingtest_250102.sol\":273:292  students.length > 0 */\n      gt\n        /* \"codingtest/codingtest_250102.sol\":265:318  require(students.length > 0, \"No students available\") */\n      tag_50\n      jumpi\n      mload(0x40)\n      0x08c379a000000000000000000000000000000000000000000000000000000000\n      dup2\n      mstore\n      0x04\n      add\n      tag_51\n      swap1\n      tag_36\n      jump\t// in\n    tag_51:\n      mload(0x40)\n      dup1\n      swap2\n      sub\n      swap1\n      revert\n    tag_50:\n        /* \"codingtest/codingtest_250102.sol\":644:665  Student memory lowest */\n      0x00\n        /* \"codingtest/codingtest_250102.sol\":668:676  students */\n      dup1\n        /* \"codingtest/codingtest_250102.sol\":677:678  0 */\n      0x00\n        /* \"codingtest/codingtest_250102.sol\":668:679  students[0] */\n      dup2\n      sload\n      dup2\n      lt\n      tag_53\n      jumpi\n      tag_54\n      tag_43\n      jump\t// in\n    tag_54:\n    tag_53:\n      swap1\n      0x00\n      mstore\n      keccak256(0x00, 0x20)\n      swap1\n      0x03\n      mul\n      add\n        /* \"codingtest/codingtest_250102.sol\":644:679  Student memory lowest = students[0] */\n      mload(0x40)\n      dup1\n      0x60\n      add\n      0x40\n      mstore\n      swap1\n      dup2\n      0x00\n      dup3\n      add\n      sload\n      dup2\n      mstore\n      0x20\n      add\n      0x01\n      dup3\n      add\n      dup1\n      sload\n      tag_56\n      swap1\n      tag_57\n      jump\t// in\n    tag_56:\n      dup1\n      0x1f\n      add\n      0x20\n      dup1\n      swap2\n      div\n      mul\n      0x20\n      add\n      mload(0x40)\n      swap1\n      dup2\n      add\n      0x40\n      mstore\n      dup1\n      swap3\n      swap2\n      swap1\n      dup2\n      dup2\n      mstore\n      0x20\n      add\n      dup3\n      dup1\n      sload\n      tag_58\n      swap1\n      tag_57\n      jump\t// in\n    tag_58:\n      dup1\n      iszero\n      tag_59\n      jumpi\n      dup1\n      0x1f\n      lt\n      tag_60\n      jumpi\n      0x0100\n      dup1\n      dup4\n      sload\n      div\n      mul\n      dup4\n      mstore\n      swap2\n      0x20\n      add\n      swap2\n      jump(tag_59)\n    tag_60:\n      dup3\n      add\n      swap2\n      swap1\n      0x00\n      mstore\n      keccak256(0x00, 0x20)\n      swap1\n    tag_61:\n      dup2\n      sload\n      dup2\n      mstore\n      swap1\n      0x01\n      add\n      swap1\n      0x20\n      add\n      dup1\n      dup4\n      gt\n      tag_61\n      jumpi\n      dup3\n      swap1\n      sub\n      0x1f\n      and\n      dup3\n      add\n      swap2\n    tag_59:\n      pop\n      pop\n      pop\n      pop\n      pop\n      dup2\n      mstore\n      0x20\n      add\n      0x02\n      dup3\n      add\n      sload\n      dup2\n      mstore\n      pop\n      pop\n      swap1\n      pop\n        /* \"codingtest/codingtest_250102.sol\":694:703  uint256 i */\n      0x00\n        /* \"codingtest/codingtest_250102.sol\":706:707  1 */\n      0x01\n        /* \"codingtest/codingtest_250102.sol\":694:707  uint256 i = 1 */\n      swap1\n      pop\n        /* \"codingtest/codingtest_250102.sol\":689:850  for (uint256 i = 1; i < students.length; i++) {... */\n    tag_62:\n        /* \"codingtest/codingtest_250102.sol\":713:721  students */\n      0x00\n        /* \"codingtest/codingtest_250102.sol\":713:728  students.length */\n      dup1\n      sload\n      swap1\n      pop\n        /* \"codingtest/codingtest_250102.sol\":709:710  i */\n      dup2\n        /* \"codingtest/codingtest_250102.sol\":709:728  i < students.length */\n      lt\n        /* \"codingtest/codingtest_250102.sol\":689:850  for (uint256 i = 1; i < students.length; i++) {... */\n      iszero\n      tag_63\n      jumpi\n        /* \"codingtest/codingtest_250102.sol\":773:779  lowest */\n      dup2\n        /* \"codingtest/codingtest_250102.sol\":773:785  lowest.score */\n      0x40\n      add\n      mload\n        /* \"codingtest/codingtest_250102.sol\":753:761  students */\n      0x00\n        /* \"codingtest/codingtest_250102.sol\":762:763  i */\n      dup3\n        /* \"codingtest/codingtest_250102.sol\":753:764  students[i] */\n      dup2\n      sload\n      dup2\n      lt\n      tag_65\n      jumpi\n      tag_66\n      tag_43\n      jump\t// in\n    tag_66:\n    tag_65:\n      swap1\n      0x00\n      mstore\n      keccak256(0x00, 0x20)\n      swap1\n      0x03\n      mul\n      add\n        /* \"codingtest/codingtest_250102.sol\":753:770  students[i].score */\n      0x02\n      add\n      sload\n        /* \"codingtest/codingtest_250102.sol\":753:785  students[i].score < lowest.score */\n      lt\n        /* \"codingtest/codingtest_250102.sol\":749:840  if (students[i].score < lowest.score) {... */\n      iszero\n      tag_68\n      jumpi\n        /* \"codingtest/codingtest_250102.sol\":814:822  students */\n      0x00\n        /* \"codingtest/codingtest_250102.sol\":823:824  i */\n      dup2\n        /* \"codingtest/codingtest_250102.sol\":814:825  students[i] */\n      dup2\n      sload\n      dup2\n      lt\n      tag_69\n      jumpi\n      tag_70\n      tag_43\n      jump\t// in\n    tag_70:\n    tag_69:\n      swap1\n      0x00\n      mstore\n      keccak256(0x00, 0x20)\n      swap1\n      0x03\n      mul\n      add\n        /* \"codingtest/codingtest_250102.sol\":805:825  lowest = students[i] */\n      mload(0x40)\n      dup1\n      0x60\n      add\n      0x40\n      mstore\n      swap1\n      dup2\n      0x00\n      dup3\n      add\n      sload\n      dup2\n      mstore\n      0x20\n      add\n      0x01\n      dup3\n      add\n      dup1\n      sload\n      tag_72\n      swap1\n      tag_57\n      jump\t// in\n    tag_72:\n      dup1\n      0x1f\n      add\n      0x20\n      dup1\n      swap2\n      div\n      mul\n      0x20\n      add\n      mload(0x40)\n      swap1\n      dup2\n      add\n      0x40\n      mstore\n      dup1\n      swap3\n      swap2\n      swap1\n      dup2\n      dup2\n      mstore\n      0x20\n      add\n      dup3\n      dup1\n      sload\n      tag_73\n      swap1\n      tag_57\n      jump\t// in\n    tag_73:\n      dup1\n      iszero\n      tag_74\n      jumpi\n      dup1\n      0x1f\n      lt\n      tag_75\n      jumpi\n      0x0100\n      dup1\n      dup4\n      sload\n      div\n      mul\n      dup4\n      mstore\n      swap2\n      0x20\n      add\n      swap2\n      jump(tag_74)\n    tag_75:\n      dup3\n      add\n      swap2\n      swap1\n      0x00\n      mstore\n      keccak256(0x00, 0x20)\n      swap1\n    tag_76:\n      dup2\n      sload\n      dup2\n      mstore\n      swap1\n      0x01\n      add\n      swap1\n      0x20\n      add\n      dup1\n      dup4\n      gt\n      tag_76\n      jumpi\n      dup3\n      swap1\n      sub\n      0x1f\n      and\n      dup3\n      add\n      swap2\n    tag_74:\n      pop\n      pop\n      pop\n      pop\n      pop\n      dup2\n      mstore\n      0x20\n      add\n      0x02\n      dup3\n      add\n      sload\n      dup2\n      mstore\n      pop\n      pop\n      swap2\n      pop\n        /* \"codingtest/codingtest_250102.sol\":749:840  if (students[i].score < lowest.score) {... */\n    tag_68:\n        /* \"codingtest/codingtest_250102.sol\":730:733  i++ */\n      dup1\n      dup1\n      0x01\n      add\n      swap2\n      pop\n      pop\n        /* \"codingtest/codingtest_250102.sol\":689:850  for (uint256 i = 1; i < students.length; i++) {... */\n      jump(tag_62)\n    tag_63:\n      pop\n        /* \"codingtest/codingtest_250102.sol\":866:872  lowest */\n      dup1\n        /* \"codingtest/codingtest_250102.sol\":859:872  return lowest */\n      swap2\n      pop\n      pop\n        /* \"codingtest/codingtest_250102.sol\":514:879  function getLowestScoreStudent()... */\n      swap1\n      jump\t// out\n        /* \"codingtest/codingtest_250102.sol\":342:508  function addStudent(... */\n    tag_20:\n        /* \"codingtest/codingtest_250102.sol\":459:467  students */\n      0x00\n        /* \"codingtest/codingtest_250102.sol\":473:500  Student(_id, _name, _score) */\n      mload(0x40)\n      dup1\n      0x60\n      add\n      0x40\n      mstore\n      dup1\n        /* \"codingtest/codingtest_250102.sol\":481:484  _id */\n      dup6\n        /* \"codingtest/codingtest_250102.sol\":473:500  Student(_id, _name, _score) */\n      dup2\n      mstore\n      0x20\n      add\n        /* \"codingtest/codingtest_250102.sol\":486:491  _name */\n      dup5\n        /* \"codingtest/codingtest_250102.sol\":473:500  Student(_id, _name, _score) */\n      dup2\n      mstore\n      0x20\n      add\n        /* \"codingtest/codingtest_250102.sol\":493:499  _score */\n      dup4\n        /* \"codingtest/codingtest_250102.sol\":473:500  Student(_id, _name, _score) */\n      dup2\n      mstore\n      pop\n        /* \"codingtest/codingtest_250102.sol\":459:501  students.push(Student(_id, _name, _score)) */\n      swap1\n      dup1\n      0x01\n      dup2\n      sload\n      add\n      dup1\n      dup3\n      sstore\n      dup1\n      swap2\n      pop\n      pop\n      0x01\n      swap1\n      sub\n      swap1\n      0x00\n      mstore\n      keccak256(0x00, 0x20)\n      swap1\n      0x03\n      mul\n      add\n      0x00\n      swap1\n      swap2\n      swap1\n      swap2\n      swap1\n      swap2\n      pop\n      0x00\n      dup3\n      add\n      mload\n      dup2\n      0x00\n      add\n      sstore\n      0x20\n      dup3\n      add\n      mload\n      dup2\n      0x01\n      add\n      swap1\n      dup2\n      tag_79\n      swap2\n      swap1\n      tag_80\n      jump\t// in\n    tag_79:\n      pop\n      0x40\n      dup3\n      add\n      mload\n      dup2\n      0x02\n      add\n      sstore\n      pop\n      pop\n        /* \"codingtest/codingtest_250102.sol\":342:508  function addStudent(... */\n      pop\n      pop\n      pop\n      jump\t// out\n        /* \"codingtest/codingtest_250102.sol\":1256:1581  function getStudentById(uint256 _id)... */\n    tag_24:\n        /* \"codingtest/codingtest_250102.sol\":1360:1374  Student memory */\n      tag_81\n      tag_48\n      jump\t// in\n    tag_81:\n        /* \"codingtest/codingtest_250102.sol\":291:292  0 */\n      0x00\n        /* \"codingtest/codingtest_250102.sol\":273:281  students */\n      dup1\n        /* \"codingtest/codingtest_250102.sol\":273:288  students.length */\n      dup1\n      sload\n      swap1\n      pop\n        /* \"codingtest/codingtest_250102.sol\":273:292  students.length > 0 */\n      gt\n        /* \"codingtest/codingtest_250102.sol\":265:318  require(students.length > 0, \"No students available\") */\n      tag_83\n      jumpi\n      mload(0x40)\n      0x08c379a000000000000000000000000000000000000000000000000000000000\n      dup2\n      mstore\n      0x04\n      add\n      tag_84\n      swap1\n      tag_36\n      jump\t// in\n    tag_84:\n      mload(0x40)\n      dup1\n      swap2\n      sub\n      swap1\n      revert\n    tag_83:\n        /* \"codingtest/codingtest_250102.sol\":1395:1404  uint256 i */\n      0x00\n        /* \"codingtest/codingtest_250102.sol\":1390:1538  for (uint256 i = 0; i < students.length; i++) {... */\n    tag_86:\n        /* \"codingtest/codingtest_250102.sol\":1414:1422  students */\n      0x00\n        /* \"codingtest/codingtest_250102.sol\":1414:1429  students.length */\n      dup1\n      sload\n      swap1\n      pop\n        /* \"codingtest/codingtest_250102.sol\":1410:1411  i */\n      dup2\n        /* \"codingtest/codingtest_250102.sol\":1410:1429  i < students.length */\n      lt\n        /* \"codingtest/codingtest_250102.sol\":1390:1538  for (uint256 i = 0; i < students.length; i++) {... */\n      iszero\n      tag_87\n      jumpi\n        /* \"codingtest/codingtest_250102.sol\":1472:1475  _id */\n      dup3\n        /* \"codingtest/codingtest_250102.sol\":1454:1462  students */\n      0x00\n        /* \"codingtest/codingtest_250102.sol\":1463:1464  i */\n      dup3\n        /* \"codingtest/codingtest_250102.sol\":1454:1465  students[i] */\n      dup2\n      sload\n      dup2\n      lt\n      tag_89\n      jumpi\n      tag_90\n      tag_43\n      jump\t// in\n    tag_90:\n    tag_89:\n      swap1\n      0x00\n      mstore\n      keccak256(0x00, 0x20)\n      swap1\n      0x03\n      mul\n      add\n        /* \"codingtest/codingtest_250102.sol\":1454:1468  students[i].id */\n      0x00\n      add\n      sload\n        /* \"codingtest/codingtest_250102.sol\":1454:1475  students[i].id == _id */\n      sub\n        /* \"codingtest/codingtest_250102.sol\":1450:1528  if (students[i].id == _id) {... */\n      tag_92\n      jumpi\n        /* \"codingtest/codingtest_250102.sol\":1502:1510  students */\n      0x00\n        /* \"codingtest/codingtest_250102.sol\":1511:1512  i */\n      dup2\n        /* \"codingtest/codingtest_250102.sol\":1502:1513  students[i] */\n      dup2\n      sload\n      dup2\n      lt\n      tag_93\n      jumpi\n      tag_94\n      tag_43\n      jump\t// in\n    tag_94:\n    tag_93:\n      swap1\n      0x00\n      mstore\n      keccak256(0x00, 0x20)\n      swap1\n      0x03\n      mul\n      add\n        /* \"codingtest/codingtest_250102.sol\":1495:1513  return students[i] */\n      mload(0x40)\n      dup1\n      0x60\n      add\n      0x40\n      mstore\n      swap1\n      dup2\n      0x00\n      dup3\n      add\n      sload\n      dup2\n      mstore\n      0x20\n      add\n      0x01\n      dup3\n      add\n      dup1\n      sload\n      tag_96\n      swap1\n      tag_57\n      jump\t// in\n    tag_96:\n      dup1\n      0x1f\n      add\n      0x20\n      dup1\n      swap2\n      div\n      mul\n      0x20\n      add\n      mload(0x40)\n      swap1\n      dup2\n      add\n      0x40\n      mstore\n      dup1\n      swap3\n      swap2\n      swap1\n      dup2\n      dup2\n      mstore\n      0x20\n      add\n      dup3\n      dup1\n      sload\n      tag_97\n      swap1\n      tag_57\n      jump\t// in\n    tag_97:\n      dup1\n      iszero\n      tag_98\n      jumpi\n      dup1\n      0x1f\n      lt\n      tag_99\n      jumpi\n      0x0100\n      dup1\n      dup4\n      sload\n      div\n      mul\n      dup4\n      mstore\n      swap2\n      0x20\n      add\n      swap2\n      jump(tag_98)\n    tag_99:\n      dup3\n      add\n      swap2\n      swap1\n      0x00\n      mstore\n      keccak256(0x00, 0x20)\n      swap1\n    tag_100:\n      dup2\n      sload\n      dup2\n      mstore\n      swap1\n      0x01\n      add\n      swap1\n      0x20\n      add\n      dup1\n      dup4\n      gt\n      tag_100\n      jumpi\n      dup3\n      swap1\n      sub\n      0x1f\n      and\n      dup3\n      add\n      swap2\n    tag_98:\n      pop\n      pop\n      pop\n      pop\n      pop\n      dup2\n      mstore\n      0x20\n      add\n      0x02\n      dup3\n      add\n      sload\n      dup2\n      mstore\n      pop\n      pop\n      swap2\n      pop\n      pop\n      jump(tag_85)\n        /* \"codingtest/codingtest_250102.sol\":1450:1528  if (students[i].id == _id) {... */\n    tag_92:\n        /* \"codingtest/codingtest_250102.sol\":1431:1434  i++ */\n      dup1\n      dup1\n      0x01\n      add\n      swap2\n      pop\n      pop\n        /* \"codingtest/codingtest_250102.sol\":1390:1538  for (uint256 i = 0; i < students.length; i++) {... */\n      jump(tag_86)\n    tag_87:\n      pop\n        /* \"codingtest/codingtest_250102.sol\":1547:1574  revert(\"Student not found\") */\n      mload(0x40)\n      0x08c379a000000000000000000000000000000000000000000000000000000000\n      dup2\n      mstore\n      0x04\n      add\n      tag_101\n      swap1\n      tag_102\n      jump\t// in\n    tag_101:\n      mload(0x40)\n      dup1\n      swap2\n      sub\n      swap1\n      revert\n        /* \"codingtest/codingtest_250102.sol\":328:329  _ */\n    tag_85:\n        /* \"codingtest/codingtest_250102.sol\":1256:1581  function getStudentById(uint256 _id)... */\n      swap2\n      swap1\n      pop\n      jump\t// out\n        /* \"codingtest/codingtest_250102.sol\":1122:1250  function getAverageScore() public view studentsExist returns (uint256) {... */\n    tag_27:\n        /* \"codingtest/codingtest_250102.sol\":1184:1191  uint256 */\n      0x00\n        /* \"codingtest/codingtest_250102.sol\":291:292  0 */\n      dup1\n        /* \"codingtest/codingtest_250102.sol\":273:281  students */\n      0x00\n        /* \"codingtest/codingtest_250102.sol\":273:288  students.length */\n      dup1\n      sload\n      swap1\n      pop\n        /* \"codingtest/codingtest_250102.sol\":273:292  students.length > 0 */\n      gt\n        /* \"codingtest/codingtest_250102.sol\":265:318  require(students.length > 0, \"No students available\") */\n      tag_104\n      jumpi\n      mload(0x40)\n      0x08c379a000000000000000000000000000000000000000000000000000000000\n      dup2\n      mstore\n      0x04\n      add\n      tag_105\n      swap1\n      tag_36\n      jump\t// in\n    tag_105:\n      mload(0x40)\n      dup1\n      swap2\n      sub\n      swap1\n      revert\n    tag_104:\n        /* \"codingtest/codingtest_250102.sol\":1228:1236  students */\n      0x00\n        /* \"codingtest/codingtest_250102.sol\":1228:1243  students.length */\n      dup1\n      sload\n      swap1\n      pop\n        /* \"codingtest/codingtest_250102.sol\":1210:1225  getTotalScore() */\n      tag_107\n        /* \"codingtest/codingtest_250102.sol\":1210:1223  getTotalScore */\n      tag_10\n        /* \"codingtest/codingtest_250102.sol\":1210:1225  getTotalScore() */\n      jump\t// in\n    tag_107:\n        /* \"codingtest/codingtest_250102.sol\":1210:1243  getTotalScore() / students.length */\n      tag_108\n      swap2\n      swap1\n      tag_109\n      jump\t// in\n    tag_108:\n        /* \"codingtest/codingtest_250102.sol\":1203:1243  return getTotalScore() / students.length */\n      swap1\n      pop\n        /* \"codingtest/codingtest_250102.sol\":1122:1250  function getAverageScore() public view studentsExist returns (uint256) {... */\n      swap1\n      jump\t// out\n        /* \"codingtest/codingtest_250102.sol\":1587:1734  function getAllStudents()... */\n    tag_30:\n        /* \"codingtest/codingtest_250102.sol\":1680:1696  Student[] memory */\n      0x60\n        /* \"codingtest/codingtest_250102.sol\":291:292  0 */\n      0x00\n        /* \"codingtest/codingtest_250102.sol\":273:281  students */\n      dup1\n        /* \"codingtest/codingtest_250102.sol\":273:288  students.length */\n      dup1\n      sload\n      swap1\n      pop\n        /* \"codingtest/codingtest_250102.sol\":273:292  students.length > 0 */\n      gt\n        /* \"codingtest/codingtest_250102.sol\":265:318  require(students.length > 0, \"No students available\") */\n      tag_111\n      jumpi\n      mload(0x40)\n      0x08c379a000000000000000000000000000000000000000000000000000000000\n      dup2\n      mstore\n      0x04\n      add\n      tag_112\n      swap1\n      tag_36\n      jump\t// in\n    tag_112:\n      mload(0x40)\n      dup1\n      swap2\n      sub\n      swap1\n      revert\n    tag_111:\n        /* \"codingtest/codingtest_250102.sol\":1719:1727  students */\n      0x00\n        /* \"codingtest/codingtest_250102.sol\":1712:1727  return students */\n      dup1\n      sload\n      dup1\n      0x20\n      mul\n      0x20\n      add\n      mload(0x40)\n      swap1\n      dup2\n      add\n      0x40\n      mstore\n      dup1\n      swap3\n      swap2\n      swap1\n      dup2\n      dup2\n      mstore\n      0x20\n      add\n      0x00\n      swap1\n    tag_114:\n      dup3\n      dup3\n      lt\n      iszero\n      tag_115\n      jumpi\n      dup4\n      dup3\n      swap1\n      0x00\n      mstore\n      keccak256(0x00, 0x20)\n      swap1\n      0x03\n      mul\n      add\n      mload(0x40)\n      dup1\n      0x60\n      add\n      0x40\n      mstore\n      swap1\n      dup2\n      0x00\n      dup3\n      add\n      sload\n      dup2\n      mstore\n      0x20\n      add\n      0x01\n      dup3\n      add\n      dup1\n      sload\n      tag_117\n      swap1\n      tag_57\n      jump\t// in\n    tag_117:\n      dup1\n      0x1f\n      add\n      0x20\n      dup1\n      swap2\n      div\n      mul\n      0x20\n      add\n      mload(0x40)\n      swap1\n      dup2\n      add\n      0x40\n      mstore\n      dup1\n      swap3\n      swap2\n      swap1\n      dup2\n      dup2\n      mstore\n      0x20\n      add\n      dup3\n      dup1\n      sload\n      tag_118\n      swap1\n      tag_57\n      jump\t// in\n    tag_118:\n      dup1\n      iszero\n      tag_119\n      jumpi\n      dup1\n      0x1f\n      lt\n      tag_120\n      jumpi\n      0x0100\n      dup1\n      dup4\n      sload\n      div\n      mul\n      dup4\n      mstore\n      swap2\n      0x20\n      add\n      swap2\n      jump(tag_119)\n    tag_120:\n      dup3\n      add\n      swap2\n      swap1\n      0x00\n      mstore\n      keccak256(0x00, 0x20)\n      swap1\n    tag_121:\n      dup2\n      sload\n      dup2\n      mstore\n      swap1\n      0x01\n      add\n      swap1\n      0x20\n      add\n      dup1\n      dup4\n      gt\n      tag_121\n      jumpi\n      dup3\n      swap1\n      sub\n      0x1f\n      and\n      dup3\n      add\n      swap2\n    tag_119:\n      pop\n      pop\n      pop\n      pop\n      pop\n      dup2\n      mstore\n      0x20\n      add\n      0x02\n      dup3\n      add\n      sload\n      dup2\n      mstore\n      pop\n      pop\n      dup2\n      mstore\n      0x20\n      add\n      swap1\n      0x01\n      add\n      swap1\n      jump(tag_114)\n    tag_115:\n      pop\n      pop\n      pop\n      pop\n      swap1\n      pop\n        /* \"codingtest/codingtest_250102.sol\":1587:1734  function getAllStudents()... */\n      swap1\n      jump\t// out\n    tag_48:\n      mload(0x40)\n      dup1\n      0x60\n      add\n      0x40\n      mstore\n      dup1\n      0x00\n      dup2\n      mstore\n      0x20\n      add\n      0x60\n      dup2\n      mstore\n      0x20\n      add\n      0x00\n      dup2\n      mstore\n      pop\n      swap1\n      jump\t// out\n        /* \"#utility.yul\":7:84   */\n    tag_122:\n        /* \"#utility.yul\":44:51   */\n      0x00\n        /* \"#utility.yul\":73:78   */\n      dup2\n        /* \"#utility.yul\":62:78   */\n      swap1\n      pop\n        /* \"#utility.yul\":7:84   */\n      swap2\n      swap1\n      pop\n      jump\t// out\n        /* \"#utility.yul\":90:208   */\n    tag_123:\n        /* \"#utility.yul\":177:201   */\n      tag_178\n        /* \"#utility.yul\":195:200   */\n      dup2\n        /* \"#utility.yul\":177:201   */\n      tag_122\n      jump\t// in\n    tag_178:\n        /* \"#utility.yul\":172:175   */\n      dup3\n        /* \"#utility.yul\":165:202   */\n      mstore\n        /* \"#utility.yul\":90:208   */\n      pop\n      pop\n      jump\t// out\n        /* \"#utility.yul\":214:436   */\n    tag_12:\n        /* \"#utility.yul\":307:311   */\n      0x00\n        /* \"#utility.yul\":345:347   */\n      0x20\n        /* \"#utility.yul\":334:343   */\n      dup3\n        /* \"#utility.yul\":330:348   */\n      add\n        /* \"#utility.yul\":322:348   */\n      swap1\n      pop\n        /* \"#utility.yul\":358:429   */\n      tag_180\n        /* \"#utility.yul\":426:427   */\n      0x00\n        /* \"#utility.yul\":415:424   */\n      dup4\n        /* \"#utility.yul\":411:428   */\n      add\n        /* \"#utility.yul\":402:408   */\n      dup5\n        /* \"#utility.yul\":358:429   */\n      tag_123\n      jump\t// in\n    tag_180:\n        /* \"#utility.yul\":214:436   */\n      swap3\n      swap2\n      pop\n      pop\n      jump\t// out\n        /* \"#utility.yul\":442:550   */\n    tag_124:\n        /* \"#utility.yul\":519:543   */\n      tag_182\n        /* \"#utility.yul\":537:542   */\n      dup2\n        /* \"#utility.yul\":519:543   */\n      tag_122\n      jump\t// in\n    tag_182:\n        /* \"#utility.yul\":514:517   */\n      dup3\n        /* \"#utility.yul\":507:544   */\n      mstore\n        /* \"#utility.yul\":442:550   */\n      pop\n      pop\n      jump\t// out\n        /* \"#utility.yul\":556:655   */\n    tag_125:\n        /* \"#utility.yul\":608:614   */\n      0x00\n        /* \"#utility.yul\":642:647   */\n      dup2\n        /* \"#utility.yul\":636:648   */\n      mload\n        /* \"#utility.yul\":626:648   */\n      swap1\n      pop\n        /* \"#utility.yul\":556:655   */\n      swap2\n      swap1\n      pop\n      jump\t// out\n        /* \"#utility.yul\":661:820   */\n    tag_126:\n        /* \"#utility.yul\":735:746   */\n      0x00\n        /* \"#utility.yul\":769:775   */\n      dup3\n        /* \"#utility.yul\":764:767   */\n      dup3\n        /* \"#utility.yul\":757:776   */\n      mstore\n        /* \"#utility.yul\":809:813   */\n      0x20\n        /* \"#utility.yul\":804:807   */\n      dup3\n        /* \"#utility.yul\":800:814   */\n      add\n        /* \"#utility.yul\":785:814   */\n      swap1\n      pop\n        /* \"#utility.yul\":661:820   */\n      swap3\n      swap2\n      pop\n      pop\n      jump\t// out\n        /* \"#utility.yul\":826:965   */\n    tag_127:\n        /* \"#utility.yul\":915:921   */\n      dup3\n        /* \"#utility.yul\":910:913   */\n      dup2\n        /* \"#utility.yul\":905:908   */\n      dup4\n        /* \"#utility.yul\":899:922   */\n      mcopy\n        /* \"#utility.yul\":956:957   */\n      0x00\n        /* \"#utility.yul\":947:953   */\n      dup4\n        /* \"#utility.yul\":942:945   */\n      dup4\n        /* \"#utility.yul\":938:954   */\n      add\n        /* \"#utility.yul\":931:958   */\n      mstore\n        /* \"#utility.yul\":826:965   */\n      pop\n      pop\n      pop\n      jump\t// out\n        /* \"#utility.yul\":971:1073   */\n    tag_128:\n        /* \"#utility.yul\":1012:1018   */\n      0x00\n        /* \"#utility.yul\":1063:1065   */\n      0x1f\n        /* \"#utility.yul\":1059:1066   */\n      not\n        /* \"#utility.yul\":1054:1056   */\n      0x1f\n        /* \"#utility.yul\":1047:1052   */\n      dup4\n        /* \"#utility.yul\":1043:1057   */\n      add\n        /* \"#utility.yul\":1039:1067   */\n      and\n        /* \"#utility.yul\":1029:1067   */\n      swap1\n      pop\n        /* \"#utility.yul\":971:1073   */\n      swap2\n      swap1\n      pop\n      jump\t// out\n        /* \"#utility.yul\":1079:1436   */\n    tag_129:\n        /* \"#utility.yul\":1157:1160   */\n      0x00\n        /* \"#utility.yul\":1185:1224   */\n      tag_188\n        /* \"#utility.yul\":1218:1223   */\n      dup3\n        /* \"#utility.yul\":1185:1224   */\n      tag_125\n      jump\t// in\n    tag_188:\n        /* \"#utility.yul\":1240:1301   */\n      tag_189\n        /* \"#utility.yul\":1294:1300   */\n      dup2\n        /* \"#utility.yul\":1289:1292   */\n      dup6\n        /* \"#utility.yul\":1240:1301   */\n      tag_126\n      jump\t// in\n    tag_189:\n        /* \"#utility.yul\":1233:1301   */\n      swap4\n      pop\n        /* \"#utility.yul\":1310:1375   */\n      tag_190\n        /* \"#utility.yul\":1368:1374   */\n      dup2\n        /* \"#utility.yul\":1363:1366   */\n      dup6\n        /* \"#utility.yul\":1356:1360   */\n      0x20\n        /* \"#utility.yul\":1349:1354   */\n      dup7\n        /* \"#utility.yul\":1345:1361   */\n      add\n        /* \"#utility.yul\":1310:1375   */\n      tag_127\n      jump\t// in\n    tag_190:\n        /* \"#utility.yul\":1400:1429   */\n      tag_191\n        /* \"#utility.yul\":1422:1428   */\n      dup2\n        /* \"#utility.yul\":1400:1429   */\n      tag_128\n      jump\t// in\n    tag_191:\n        /* \"#utility.yul\":1395:1398   */\n      dup5\n        /* \"#utility.yul\":1391:1430   */\n      add\n        /* \"#utility.yul\":1384:1430   */\n      swap2\n      pop\n        /* \"#utility.yul\":1161:1436   */\n      pop\n        /* \"#utility.yul\":1079:1436   */\n      swap3\n      swap2\n      pop\n      pop\n      jump\t// out\n        /* \"#utility.yul\":1522:2295   */\n    tag_130:\n        /* \"#utility.yul\":1635:1638   */\n      0x00\n        /* \"#utility.yul\":1671:1675   */\n      0x60\n        /* \"#utility.yul\":1666:1669   */\n      dup4\n        /* \"#utility.yul\":1662:1676   */\n      add\n        /* \"#utility.yul\":1756:1760   */\n      0x00\n        /* \"#utility.yul\":1749:1754   */\n      dup4\n        /* \"#utility.yul\":1745:1761   */\n      add\n        /* \"#utility.yul\":1739:1762   */\n      mload\n        /* \"#utility.yul\":1775:1838   */\n      tag_193\n        /* \"#utility.yul\":1832:1836   */\n      0x00\n        /* \"#utility.yul\":1827:1830   */\n      dup7\n        /* \"#utility.yul\":1823:1837   */\n      add\n        /* \"#utility.yul\":1809:1821   */\n      dup3\n        /* \"#utility.yul\":1775:1838   */\n      tag_124\n      jump\t// in\n    tag_193:\n        /* \"#utility.yul\":1686:1848   */\n      pop\n        /* \"#utility.yul\":1930:1934   */\n      0x20\n        /* \"#utility.yul\":1923:1928   */\n      dup4\n        /* \"#utility.yul\":1919:1935   */\n      add\n        /* \"#utility.yul\":1913:1936   */\n      mload\n        /* \"#utility.yul\":1983:1986   */\n      dup5\n        /* \"#utility.yul\":1977:1981   */\n      dup3\n        /* \"#utility.yul\":1973:1987   */\n      sub\n        /* \"#utility.yul\":1966:1970   */\n      0x20\n        /* \"#utility.yul\":1961:1964   */\n      dup7\n        /* \"#utility.yul\":1957:1971   */\n      add\n        /* \"#utility.yul\":1950:1988   */\n      mstore\n        /* \"#utility.yul\":2009:2082   */\n      tag_194\n        /* \"#utility.yul\":2077:2081   */\n      dup3\n        /* \"#utility.yul\":2063:2075   */\n      dup3\n        /* \"#utility.yul\":2009:2082   */\n      tag_129\n      jump\t// in\n    tag_194:\n        /* \"#utility.yul\":2001:2082   */\n      swap2\n      pop\n        /* \"#utility.yul\":1858:2093   */\n      pop\n        /* \"#utility.yul\":2176:2180   */\n      0x40\n        /* \"#utility.yul\":2169:2174   */\n      dup4\n        /* \"#utility.yul\":2165:2181   */\n      add\n        /* \"#utility.yul\":2159:2182   */\n      mload\n        /* \"#utility.yul\":2195:2258   */\n      tag_195\n        /* \"#utility.yul\":2252:2256   */\n      0x40\n        /* \"#utility.yul\":2247:2250   */\n      dup7\n        /* \"#utility.yul\":2243:2257   */\n      add\n        /* \"#utility.yul\":2229:2241   */\n      dup3\n        /* \"#utility.yul\":2195:2258   */\n      tag_124\n      jump\t// in\n    tag_195:\n        /* \"#utility.yul\":2103:2268   */\n      pop\n        /* \"#utility.yul\":2285:2289   */\n      dup1\n        /* \"#utility.yul\":2278:2289   */\n      swap2\n      pop\n        /* \"#utility.yul\":1640:2295   */\n      pop\n        /* \"#utility.yul\":1522:2295   */\n      swap3\n      swap2\n      pop\n      pop\n      jump\t// out\n        /* \"#utility.yul\":2301:2662   */\n    tag_16:\n        /* \"#utility.yul\":2438:2442   */\n      0x00\n        /* \"#utility.yul\":2476:2478   */\n      0x20\n        /* \"#utility.yul\":2465:2474   */\n      dup3\n        /* \"#utility.yul\":2461:2479   */\n      add\n        /* \"#utility.yul\":2453:2479   */\n      swap1\n      pop\n        /* \"#utility.yul\":2525:2534   */\n      dup2\n        /* \"#utility.yul\":2519:2523   */\n      dup2\n        /* \"#utility.yul\":2515:2535   */\n      sub\n        /* \"#utility.yul\":2511:2512   */\n      0x00\n        /* \"#utility.yul\":2500:2509   */\n      dup4\n        /* \"#utility.yul\":2496:2513   */\n      add\n        /* \"#utility.yul\":2489:2536   */\n      mstore\n        /* \"#utility.yul\":2553:2655   */\n      tag_197\n        /* \"#utility.yul\":2650:2654   */\n      dup2\n        /* \"#utility.yul\":2641:2647   */\n      dup5\n        /* \"#utility.yul\":2553:2655   */\n      tag_130\n      jump\t// in\n    tag_197:\n        /* \"#utility.yul\":2545:2655   */\n      swap1\n      pop\n        /* \"#utility.yul\":2301:2662   */\n      swap3\n      swap2\n      pop\n      pop\n      jump\t// out\n        /* \"#utility.yul\":2668:2743   */\n    tag_131:\n        /* \"#utility.yul\":2701:2707   */\n      0x00\n        /* \"#utility.yul\":2734:2736   */\n      0x40\n        /* \"#utility.yul\":2728:2737   */\n      mload\n        /* \"#utility.yul\":2718:2737   */\n      swap1\n      pop\n        /* \"#utility.yul\":2668:2743   */\n      swap1\n      jump\t// out\n        /* \"#utility.yul\":2749:2866   */\n    tag_132:\n        /* \"#utility.yul\":2858:2859   */\n      0x00\n        /* \"#utility.yul\":2855:2856   */\n      dup1\n        /* \"#utility.yul\":2848:2860   */\n      revert\n        /* \"#utility.yul\":2872:2989   */\n    tag_133:\n        /* \"#utility.yul\":2981:2982   */\n      0x00\n        /* \"#utility.yul\":2978:2979   */\n      dup1\n        /* \"#utility.yul\":2971:2983   */\n      revert\n        /* \"#utility.yul\":2995:3117   */\n    tag_134:\n        /* \"#utility.yul\":3068:3092   */\n      tag_202\n        /* \"#utility.yul\":3086:3091   */\n      dup2\n        /* \"#utility.yul\":3068:3092   */\n      tag_122\n      jump\t// in\n    tag_202:\n        /* \"#utility.yul\":3061:3066   */\n      dup2\n        /* \"#utility.yul\":3058:3093   */\n      eq\n        /* \"#utility.yul\":3048:3111   */\n      tag_203\n      jumpi\n        /* \"#utility.yul\":3107:3108   */\n      0x00\n        /* \"#utility.yul\":3104:3105   */\n      dup1\n        /* \"#utility.yul\":3097:3109   */\n      revert\n        /* \"#utility.yul\":3048:3111   */\n    tag_203:\n        /* \"#utility.yul\":2995:3117   */\n      pop\n      jump\t// out\n        /* \"#utility.yul\":3123:3262   */\n    tag_135:\n        /* \"#utility.yul\":3169:3174   */\n      0x00\n        /* \"#utility.yul\":3207:3213   */\n      dup2\n        /* \"#utility.yul\":3194:3214   */\n      calldataload\n        /* \"#utility.yul\":3185:3214   */\n      swap1\n      pop\n        /* \"#utility.yul\":3223:3256   */\n      tag_205\n        /* \"#utility.yul\":3250:3255   */\n      dup2\n        /* \"#utility.yul\":3223:3256   */\n      tag_134\n      jump\t// in\n    tag_205:\n        /* \"#utility.yul\":3123:3262   */\n      swap3\n      swap2\n      pop\n      pop\n      jump\t// out\n        /* \"#utility.yul\":3268:3385   */\n    tag_136:\n        /* \"#utility.yul\":3377:3378   */\n      0x00\n        /* \"#utility.yul\":3374:3375   */\n      dup1\n        /* \"#utility.yul\":3367:3379   */\n      revert\n        /* \"#utility.yul\":3391:3508   */\n    tag_137:\n        /* \"#utility.yul\":3500:3501   */\n      0x00\n        /* \"#utility.yul\":3497:3498   */\n      dup1\n        /* \"#utility.yul\":3490:3502   */\n      revert\n        /* \"#utility.yul\":3514:3694   */\n    tag_138:\n        /* \"#utility.yul\":3562:3639   */\n      0x4e487b7100000000000000000000000000000000000000000000000000000000\n        /* \"#utility.yul\":3559:3560   */\n      0x00\n        /* \"#utility.yul\":3552:3640   */\n      mstore\n        /* \"#utility.yul\":3659:3663   */\n      0x41\n        /* \"#utility.yul\":3656:3657   */\n      0x04\n        /* \"#utility.yul\":3649:3664   */\n      mstore\n        /* \"#utility.yul\":3683:3687   */\n      0x24\n        /* \"#utility.yul\":3680:3681   */\n      0x00\n        /* \"#utility.yul\":3673:3688   */\n      revert\n        /* \"#utility.yul\":3700:3981   */\n    tag_139:\n        /* \"#utility.yul\":3783:3810   */\n      tag_210\n        /* \"#utility.yul\":3805:3809   */\n      dup3\n        /* \"#utility.yul\":3783:3810   */\n      tag_128\n      jump\t// in\n    tag_210:\n        /* \"#utility.yul\":3775:3781   */\n      dup2\n        /* \"#utility.yul\":3771:3811   */\n      add\n        /* \"#utility.yul\":3913:3919   */\n      dup2\n        /* \"#utility.yul\":3901:3911   */\n      dup2\n        /* \"#utility.yul\":3898:3920   */\n      lt\n        /* \"#utility.yul\":3877:3895   */\n      0xffffffffffffffff\n        /* \"#utility.yul\":3865:3875   */\n      dup3\n        /* \"#utility.yul\":3862:3896   */\n      gt\n        /* \"#utility.yul\":3859:3921   */\n      or\n        /* \"#utility.yul\":3856:3944   */\n      iszero\n      tag_211\n      jumpi\n        /* \"#utility.yul\":3924:3942   */\n      tag_212\n      tag_138\n      jump\t// in\n    tag_212:\n        /* \"#utility.yul\":3856:3944   */\n    tag_211:\n        /* \"#utility.yul\":3964:3974   */\n      dup1\n        /* \"#utility.yul\":3960:3962   */\n      0x40\n        /* \"#utility.yul\":3953:3975   */\n      mstore\n        /* \"#utility.yul\":3743:3981   */\n      pop\n        /* \"#utility.yul\":3700:3981   */\n      pop\n      pop\n      jump\t// out\n        /* \"#utility.yul\":3987:4116   */\n    tag_140:\n        /* \"#utility.yul\":4021:4027   */\n      0x00\n        /* \"#utility.yul\":4048:4068   */\n      tag_214\n      tag_131\n      jump\t// in\n    tag_214:\n        /* \"#utility.yul\":4038:4068   */\n      swap1\n      pop\n        /* \"#utility.yul\":4077:4110   */\n      tag_215\n        /* \"#utility.yul\":4105:4109   */\n      dup3\n        /* \"#utility.yul\":4097:4103   */\n      dup3\n        /* \"#utility.yul\":4077:4110   */\n      tag_139\n      jump\t// in\n    tag_215:\n        /* \"#utility.yul\":3987:4116   */\n      swap2\n      swap1\n      pop\n      jump\t// out\n        /* \"#utility.yul\":4122:4430   */\n    tag_141:\n        /* \"#utility.yul\":4184:4188   */\n      0x00\n        /* \"#utility.yul\":4274:4292   */\n      0xffffffffffffffff\n        /* \"#utility.yul\":4266:4272   */\n      dup3\n        /* \"#utility.yul\":4263:4293   */\n      gt\n        /* \"#utility.yul\":4260:4316   */\n      iszero\n      tag_217\n      jumpi\n        /* \"#utility.yul\":4296:4314   */\n      tag_218\n      tag_138\n      jump\t// in\n    tag_218:\n        /* \"#utility.yul\":4260:4316   */\n    tag_217:\n        /* \"#utility.yul\":4334:4363   */\n      tag_219\n        /* \"#utility.yul\":4356:4362   */\n      dup3\n        /* \"#utility.yul\":4334:4363   */\n      tag_128\n      jump\t// in\n    tag_219:\n        /* \"#utility.yul\":4326:4363   */\n      swap1\n      pop\n        /* \"#utility.yul\":4418:4422   */\n      0x20\n        /* \"#utility.yul\":4412:4416   */\n      dup2\n        /* \"#utility.yul\":4408:4423   */\n      add\n        /* \"#utility.yul\":4400:4423   */\n      swap1\n      pop\n        /* \"#utility.yul\":4122:4430   */\n      swap2\n      swap1\n      pop\n      jump\t// out\n        /* \"#utility.yul\":4436:4584   */\n    tag_142:\n        /* \"#utility.yul\":4534:4540   */\n      dup3\n        /* \"#utility.yul\":4529:4532   */\n      dup2\n        /* \"#utility.yul\":4524:4527   */\n      dup4\n        /* \"#utility.yul\":4511:4541   */\n      calldatacopy\n        /* \"#utility.yul\":4575:4576   */\n      0x00\n        /* \"#utility.yul\":4566:4572   */\n      dup4\n        /* \"#utility.yul\":4561:4564   */\n      dup4\n        /* \"#utility.yul\":4557:4573   */\n      add\n        /* \"#utility.yul\":4550:4577   */\n      mstore\n        /* \"#utility.yul\":4436:4584   */\n      pop\n      pop\n      pop\n      jump\t// out\n        /* \"#utility.yul\":4590:5015   */\n    tag_143:\n        /* \"#utility.yul\":4668:4673   */\n      0x00\n        /* \"#utility.yul\":4693:4759   */\n      tag_222\n        /* \"#utility.yul\":4709:4758   */\n      tag_223\n        /* \"#utility.yul\":4751:4757   */\n      dup5\n        /* \"#utility.yul\":4709:4758   */\n      tag_141\n      jump\t// in\n    tag_223:\n        /* \"#utility.yul\":4693:4759   */\n      tag_140\n      jump\t// in\n    tag_222:\n        /* \"#utility.yul\":4684:4759   */\n      swap1\n      pop\n        /* \"#utility.yul\":4782:4788   */\n      dup3\n        /* \"#utility.yul\":4775:4780   */\n      dup2\n        /* \"#utility.yul\":4768:4789   */\n      mstore\n        /* \"#utility.yul\":4820:4824   */\n      0x20\n        /* \"#utility.yul\":4813:4818   */\n      dup2\n        /* \"#utility.yul\":4809:4825   */\n      add\n        /* \"#utility.yul\":4858:4861   */\n      dup5\n        /* \"#utility.yul\":4849:4855   */\n      dup5\n        /* \"#utility.yul\":4844:4847   */\n      dup5\n        /* \"#utility.yul\":4840:4856   */\n      add\n        /* \"#utility.yul\":4837:4862   */\n      gt\n        /* \"#utility.yul\":4834:4946   */\n      iszero\n      tag_224\n      jumpi\n        /* \"#utility.yul\":4865:4944   */\n      tag_225\n      tag_137\n      jump\t// in\n    tag_225:\n        /* \"#utility.yul\":4834:4946   */\n    tag_224:\n        /* \"#utility.yul\":4955:5009   */\n      tag_226\n        /* \"#utility.yul\":5002:5008   */\n      dup5\n        /* \"#utility.yul\":4997:5000   */\n      dup3\n        /* \"#utility.yul\":4992:4995   */\n      dup6\n        /* \"#utility.yul\":4955:5009   */\n      tag_142\n      jump\t// in\n    tag_226:\n        /* \"#utility.yul\":4674:5015   */\n      pop\n        /* \"#utility.yul\":4590:5015   */\n      swap4\n      swap3\n      pop\n      pop\n      pop\n      jump\t// out\n        /* \"#utility.yul\":5035:5375   */\n    tag_144:\n        /* \"#utility.yul\":5091:5096   */\n      0x00\n        /* \"#utility.yul\":5140:5143   */\n      dup3\n        /* \"#utility.yul\":5133:5137   */\n      0x1f\n        /* \"#utility.yul\":5125:5131   */\n      dup4\n        /* \"#utility.yul\":5121:5138   */\n      add\n        /* \"#utility.yul\":5117:5144   */\n      slt\n        /* \"#utility.yul\":5107:5229   */\n      tag_228\n      jumpi\n        /* \"#utility.yul\":5148:5227   */\n      tag_229\n      tag_136\n      jump\t// in\n    tag_229:\n        /* \"#utility.yul\":5107:5229   */\n    tag_228:\n        /* \"#utility.yul\":5265:5271   */\n      dup2\n        /* \"#utility.yul\":5252:5272   */\n      calldataload\n        /* \"#utility.yul\":5290:5369   */\n      tag_230\n        /* \"#utility.yul\":5365:5368   */\n      dup5\n        /* \"#utility.yul\":5357:5363   */\n      dup3\n        /* \"#utility.yul\":5350:5354   */\n      0x20\n        /* \"#utility.yul\":5342:5348   */\n      dup7\n        /* \"#utility.yul\":5338:5355   */\n      add\n        /* \"#utility.yul\":5290:5369   */\n      tag_143\n      jump\t// in\n    tag_230:\n        /* \"#utility.yul\":5281:5369   */\n      swap2\n      pop\n        /* \"#utility.yul\":5097:5375   */\n      pop\n        /* \"#utility.yul\":5035:5375   */\n      swap3\n      swap2\n      pop\n      pop\n      jump\t// out\n        /* \"#utility.yul\":5381:6180   */\n    tag_19:\n        /* \"#utility.yul\":5468:5474   */\n      0x00\n        /* \"#utility.yul\":5476:5482   */\n      dup1\n        /* \"#utility.yul\":5484:5490   */\n      0x00\n        /* \"#utility.yul\":5533:5535   */\n      0x60\n        /* \"#utility.yul\":5521:5530   */\n      dup5\n        /* \"#utility.yul\":5512:5519   */\n      dup7\n        /* \"#utility.yul\":5508:5531   */\n      sub\n        /* \"#utility.yul\":5504:5536   */\n      slt\n        /* \"#utility.yul\":5501:5620   */\n      iszero\n      tag_232\n      jumpi\n        /* \"#utility.yul\":5539:5618   */\n      tag_233\n      tag_132\n      jump\t// in\n    tag_233:\n        /* \"#utility.yul\":5501:5620   */\n    tag_232:\n        /* \"#utility.yul\":5659:5660   */\n      0x00\n        /* \"#utility.yul\":5684:5737   */\n      tag_234\n        /* \"#utility.yul\":5729:5736   */\n      dup7\n        /* \"#utility.yul\":5720:5726   */\n      dup3\n        /* \"#utility.yul\":5709:5718   */\n      dup8\n        /* \"#utility.yul\":5705:5727   */\n      add\n        /* \"#utility.yul\":5684:5737   */\n      tag_135\n      jump\t// in\n    tag_234:\n        /* \"#utility.yul\":5674:5737   */\n      swap4\n      pop\n        /* \"#utility.yul\":5630:5747   */\n      pop\n        /* \"#utility.yul\":5814:5816   */\n      0x20\n        /* \"#utility.yul\":5803:5812   */\n      dup5\n        /* \"#utility.yul\":5799:5817   */\n      add\n        /* \"#utility.yul\":5786:5818   */\n      calldataload\n        /* \"#utility.yul\":5845:5863   */\n      0xffffffffffffffff\n        /* \"#utility.yul\":5837:5843   */\n      dup2\n        /* \"#utility.yul\":5834:5864   */\n      gt\n        /* \"#utility.yul\":5831:5948   */\n      iszero\n      tag_235\n      jumpi\n        /* \"#utility.yul\":5867:5946   */\n      tag_236\n      tag_133\n      jump\t// in\n    tag_236:\n        /* \"#utility.yul\":5831:5948   */\n    tag_235:\n        /* \"#utility.yul\":5972:6035   */\n      tag_237\n        /* \"#utility.yul\":6027:6034   */\n      dup7\n        /* \"#utility.yul\":6018:6024   */\n      dup3\n        /* \"#utility.yul\":6007:6016   */\n      dup8\n        /* \"#utility.yul\":6003:6025   */\n      add\n        /* \"#utility.yul\":5972:6035   */\n      tag_144\n      jump\t// in\n    tag_237:\n        /* \"#utility.yul\":5962:6035   */\n      swap3\n      pop\n        /* \"#utility.yul\":5757:6045   */\n      pop\n        /* \"#utility.yul\":6084:6086   */\n      0x40\n        /* \"#utility.yul\":6110:6163   */\n      tag_238\n        /* \"#utility.yul\":6155:6162   */\n      dup7\n        /* \"#utility.yul\":6146:6152   */\n      dup3\n        /* \"#utility.yul\":6135:6144   */\n      dup8\n        /* \"#utility.yul\":6131:6153   */\n      add\n        /* \"#utility.yul\":6110:6163   */\n      tag_135\n      jump\t// in\n    tag_238:\n        /* \"#utility.yul\":6100:6163   */\n      swap2\n      pop\n        /* \"#utility.yul\":6055:6173   */\n      pop\n        /* \"#utility.yul\":5381:6180   */\n      swap3\n      pop\n      swap3\n      pop\n      swap3\n      jump\t// out\n        /* \"#utility.yul\":6186:6515   */\n    tag_23:\n        /* \"#utility.yul\":6245:6251   */\n      0x00\n        /* \"#utility.yul\":6294:6296   */\n      0x20\n        /* \"#utility.yul\":6282:6291   */\n      dup3\n        /* \"#utility.yul\":6273:6280   */\n      dup5\n        /* \"#utility.yul\":6269:6292   */\n      sub\n        /* \"#utility.yul\":6265:6297   */\n      slt\n        /* \"#utility.yul\":6262:6381   */\n      iszero\n      tag_240\n      jumpi\n        /* \"#utility.yul\":6300:6379   */\n      tag_241\n      tag_132\n      jump\t// in\n    tag_241:\n        /* \"#utility.yul\":6262:6381   */\n    tag_240:\n        /* \"#utility.yul\":6420:6421   */\n      0x00\n        /* \"#utility.yul\":6445:6498   */\n      tag_242\n        /* \"#utility.yul\":6490:6497   */\n      dup5\n        /* \"#utility.yul\":6481:6487   */\n      dup3\n        /* \"#utility.yul\":6470:6479   */\n      dup6\n        /* \"#utility.yul\":6466:6488   */\n      add\n        /* \"#utility.yul\":6445:6498   */\n      tag_135\n      jump\t// in\n    tag_242:\n        /* \"#utility.yul\":6435:6498   */\n      swap2\n      pop\n        /* \"#utility.yul\":6391:6508   */\n      pop\n        /* \"#utility.yul\":6186:6515   */\n      swap3\n      swap2\n      pop\n      pop\n      jump\t// out\n        /* \"#utility.yul\":6521:6657   */\n    tag_145:\n        /* \"#utility.yul\":6610:6616   */\n      0x00\n        /* \"#utility.yul\":6644:6649   */\n      dup2\n        /* \"#utility.yul\":6638:6650   */\n      mload\n        /* \"#utility.yul\":6628:6650   */\n      swap1\n      pop\n        /* \"#utility.yul\":6521:6657   */\n      swap2\n      swap1\n      pop\n      jump\t// out\n        /* \"#utility.yul\":6663:6869   */\n    tag_146:\n        /* \"#utility.yul\":6784:6795   */\n      0x00\n        /* \"#utility.yul\":6818:6824   */\n      dup3\n        /* \"#utility.yul\":6813:6816   */\n      dup3\n        /* \"#utility.yul\":6806:6825   */\n      mstore\n        /* \"#utility.yul\":6858:6862   */\n      0x20\n        /* \"#utility.yul\":6853:6856   */\n      dup3\n        /* \"#utility.yul\":6849:6863   */\n      add\n        /* \"#utility.yul\":6834:6863   */\n      swap1\n      pop\n        /* \"#utility.yul\":6663:6869   */\n      swap3\n      swap2\n      pop\n      pop\n      jump\t// out\n        /* \"#utility.yul\":6875:7029   */\n    tag_147:\n        /* \"#utility.yul\":6964:6968   */\n      0x00\n        /* \"#utility.yul\":6987:6990   */\n      dup2\n        /* \"#utility.yul\":6979:6990   */\n      swap1\n      pop\n        /* \"#utility.yul\":7017:7021   */\n      0x20\n        /* \"#utility.yul\":7012:7015   */\n      dup3\n        /* \"#utility.yul\":7008:7022   */\n      add\n        /* \"#utility.yul\":7000:7022   */\n      swap1\n      pop\n        /* \"#utility.yul\":6875:7029   */\n      swap2\n      swap1\n      pop\n      jump\t// out\n        /* \"#utility.yul\":7115:7878   */\n    tag_148:\n        /* \"#utility.yul\":7218:7221   */\n      0x00\n        /* \"#utility.yul\":7254:7258   */\n      0x60\n        /* \"#utility.yul\":7249:7252   */\n      dup4\n        /* \"#utility.yul\":7245:7259   */\n      add\n        /* \"#utility.yul\":7339:7343   */\n      0x00\n        /* \"#utility.yul\":7332:7337   */\n      dup4\n        /* \"#utility.yul\":7328:7344   */\n      add\n        /* \"#utility.yul\":7322:7345   */\n      mload\n        /* \"#utility.yul\":7358:7421   */\n      tag_247\n        /* \"#utility.yul\":7415:7419   */\n      0x00\n        /* \"#utility.yul\":7410:7413   */\n      dup7\n        /* \"#utility.yul\":7406:7420   */\n      add\n        /* \"#utility.yul\":7392:7404   */\n      dup3\n        /* \"#utility.yul\":7358:7421   */\n      tag_124\n      jump\t// in\n    tag_247:\n        /* \"#utility.yul\":7269:7431   */\n      pop\n        /* \"#utility.yul\":7513:7517   */\n      0x20\n        /* \"#utility.yul\":7506:7511   */\n      dup4\n        /* \"#utility.yul\":7502:7518   */\n      add\n        /* \"#utility.yul\":7496:7519   */\n      mload\n        /* \"#utility.yul\":7566:7569   */\n      dup5\n        /* \"#utility.yul\":7560:7564   */\n      dup3\n        /* \"#utility.yul\":7556:7570   */\n      sub\n        /* \"#utility.yul\":7549:7553   */\n      0x20\n        /* \"#utility.yul\":7544:7547   */\n      dup7\n        /* \"#utility.yul\":7540:7554   */\n      add\n        /* \"#utility.yul\":7533:7571   */\n      mstore\n        /* \"#utility.yul\":7592:7665   */\n      tag_248\n        /* \"#utility.yul\":7660:7664   */\n      dup3\n        /* \"#utility.yul\":7646:7658   */\n      dup3\n        /* \"#utility.yul\":7592:7665   */\n      tag_129\n      jump\t// in\n    tag_248:\n        /* \"#utility.yul\":7584:7665   */\n      swap2\n      pop\n        /* \"#utility.yul\":7441:7676   */\n      pop\n        /* \"#utility.yul\":7759:7763   */\n      0x40\n        /* \"#utility.yul\":7752:7757   */\n      dup4\n        /* \"#utility.yul\":7748:7764   */\n      add\n        /* \"#utility.yul\":7742:7765   */\n      mload\n        /* \"#utility.yul\":7778:7841   */\n      tag_249\n        /* \"#utility.yul\":7835:7839   */\n      0x40\n        /* \"#utility.yul\":7830:7833   */\n      dup7\n        /* \"#utility.yul\":7826:7840   */\n      add\n        /* \"#utility.yul\":7812:7824   */\n      dup3\n        /* \"#utility.yul\":7778:7841   */\n      tag_124\n      jump\t// in\n    tag_249:\n        /* \"#utility.yul\":7686:7851   */\n      pop\n        /* \"#utility.yul\":7868:7872   */\n      dup1\n        /* \"#utility.yul\":7861:7872   */\n      swap2\n      pop\n        /* \"#utility.yul\":7223:7878   */\n      pop\n        /* \"#utility.yul\":7115:7878   */\n      swap3\n      swap2\n      pop\n      pop\n      jump\t// out\n        /* \"#utility.yul\":7884:8128   */\n    tag_149:\n        /* \"#utility.yul\":7997:8007   */\n      0x00\n        /* \"#utility.yul\":8032:8122   */\n      tag_251\n        /* \"#utility.yul\":8118:8121   */\n      dup4\n        /* \"#utility.yul\":8110:8116   */\n      dup4\n        /* \"#utility.yul\":8032:8122   */\n      tag_148\n      jump\t// in\n    tag_251:\n        /* \"#utility.yul\":8018:8122   */\n      swap1\n      pop\n        /* \"#utility.yul\":7884:8128   */\n      swap3\n      swap2\n      pop\n      pop\n      jump\t// out\n        /* \"#utility.yul\":8134:8269   */\n    tag_150:\n        /* \"#utility.yul\":8226:8230   */\n      0x00\n        /* \"#utility.yul\":8258:8262   */\n      0x20\n        /* \"#utility.yul\":8253:8256   */\n      dup3\n        /* \"#utility.yul\":8249:8263   */\n      add\n        /* \"#utility.yul\":8241:8263   */\n      swap1\n      pop\n        /* \"#utility.yul\":8134:8269   */\n      swap2\n      swap1\n      pop\n      jump\t// out\n        /* \"#utility.yul\":8359:9446   */\n    tag_151:\n        /* \"#utility.yul\":8522:8525   */\n      0x00\n        /* \"#utility.yul\":8551:8627   */\n      tag_254\n        /* \"#utility.yul\":8621:8626   */\n      dup3\n        /* \"#utility.yul\":8551:8627   */\n      tag_145\n      jump\t// in\n    tag_254:\n        /* \"#utility.yul\":8643:8751   */\n      tag_255\n        /* \"#utility.yul\":8744:8750   */\n      dup2\n        /* \"#utility.yul\":8739:8742   */\n      dup6\n        /* \"#utility.yul\":8643:8751   */\n      tag_146\n      jump\t// in\n    tag_255:\n        /* \"#utility.yul\":8636:8751   */\n      swap4\n      pop\n        /* \"#utility.yul\":8777:8780   */\n      dup4\n        /* \"#utility.yul\":8822:8826   */\n      0x20\n        /* \"#utility.yul\":8814:8820   */\n      dup3\n        /* \"#utility.yul\":8810:8827   */\n      mul\n        /* \"#utility.yul\":8805:8808   */\n      dup6\n        /* \"#utility.yul\":8801:8828   */\n      add\n        /* \"#utility.yul\":8852:8930   */\n      tag_256\n        /* \"#utility.yul\":8924:8929   */\n      dup6\n        /* \"#utility.yul\":8852:8930   */\n      tag_147\n      jump\t// in\n    tag_256:\n        /* \"#utility.yul\":8953:8960   */\n      dup1\n        /* \"#utility.yul\":8984:8985   */\n      0x00\n        /* \"#utility.yul\":8969:9401   */\n    tag_257:\n        /* \"#utility.yul\":8994:9000   */\n      dup6\n        /* \"#utility.yul\":8991:8992   */\n      dup2\n        /* \"#utility.yul\":8988:9001   */\n      lt\n        /* \"#utility.yul\":8969:9401   */\n      iszero\n      tag_259\n      jumpi\n        /* \"#utility.yul\":9065:9074   */\n      dup5\n        /* \"#utility.yul\":9059:9063   */\n      dup5\n        /* \"#utility.yul\":9055:9075   */\n      sub\n        /* \"#utility.yul\":9050:9053   */\n      dup10\n        /* \"#utility.yul\":9043:9076   */\n      mstore\n        /* \"#utility.yul\":9116:9122   */\n      dup2\n        /* \"#utility.yul\":9110:9123   */\n      mload\n        /* \"#utility.yul\":9144:9252   */\n      tag_260\n        /* \"#utility.yul\":9247:9251   */\n      dup6\n        /* \"#utility.yul\":9232:9245   */\n      dup3\n        /* \"#utility.yul\":9144:9252   */\n      tag_149\n      jump\t// in\n    tag_260:\n        /* \"#utility.yul\":9136:9252   */\n      swap5\n      pop\n        /* \"#utility.yul\":9275:9357   */\n      tag_261\n        /* \"#utility.yul\":9350:9356   */\n      dup4\n        /* \"#utility.yul\":9275:9357   */\n      tag_150\n      jump\t// in\n    tag_261:\n        /* \"#utility.yul\":9265:9357   */\n      swap3\n      pop\n        /* \"#utility.yul\":9386:9390   */\n      0x20\n        /* \"#utility.yul\":9381:9384   */\n      dup11\n        /* \"#utility.yul\":9377:9391   */\n      add\n        /* \"#utility.yul\":9370:9391   */\n      swap10\n      pop\n        /* \"#utility.yul\":9029:9401   */\n      pop\n        /* \"#utility.yul\":9016:9017   */\n      0x01\n        /* \"#utility.yul\":9013:9014   */\n      dup2\n        /* \"#utility.yul\":9009:9018   */\n      add\n        /* \"#utility.yul\":9004:9018   */\n      swap1\n      pop\n        /* \"#utility.yul\":8969:9401   */\n      jump(tag_257)\n    tag_259:\n        /* \"#utility.yul\":8973:8987   */\n      pop\n        /* \"#utility.yul\":9417:9421   */\n      dup3\n        /* \"#utility.yul\":9410:9421   */\n      swap8\n      pop\n        /* \"#utility.yul\":9437:9440   */\n      dup8\n        /* \"#utility.yul\":9430:9440   */\n      swap6\n      pop\n        /* \"#utility.yul\":8527:9446   */\n      pop\n      pop\n      pop\n      pop\n      pop\n        /* \"#utility.yul\":8359:9446   */\n      swap3\n      swap2\n      pop\n      pop\n      jump\t// out\n        /* \"#utility.yul\":9452:9913   */\n    tag_32:\n        /* \"#utility.yul\":9639:9643   */\n      0x00\n        /* \"#utility.yul\":9677:9679   */\n      0x20\n        /* \"#utility.yul\":9666:9675   */\n      dup3\n        /* \"#utility.yul\":9662:9680   */\n      add\n        /* \"#utility.yul\":9654:9680   */\n      swap1\n      pop\n        /* \"#utility.yul\":9726:9735   */\n      dup2\n        /* \"#utility.yul\":9720:9724   */\n      dup2\n        /* \"#utility.yul\":9716:9736   */\n      sub\n        /* \"#utility.yul\":9712:9713   */\n      0x00\n        /* \"#utility.yul\":9701:9710   */\n      dup4\n        /* \"#utility.yul\":9697:9714   */\n      add\n        /* \"#utility.yul\":9690:9737   */\n      mstore\n        /* \"#utility.yul\":9754:9906   */\n      tag_263\n        /* \"#utility.yul\":9901:9905   */\n      dup2\n        /* \"#utility.yul\":9892:9898   */\n      dup5\n        /* \"#utility.yul\":9754:9906   */\n      tag_151\n      jump\t// in\n    tag_263:\n        /* \"#utility.yul\":9746:9906   */\n      swap1\n      pop\n        /* \"#utility.yul\":9452:9913   */\n      swap3\n      swap2\n      pop\n      pop\n      jump\t// out\n        /* \"#utility.yul\":9919:10088   */\n    tag_152:\n        /* \"#utility.yul\":10003:10014   */\n      0x00\n        /* \"#utility.yul\":10037:10043   */\n      dup3\n        /* \"#utility.yul\":10032:10035   */\n      dup3\n        /* \"#utility.yul\":10025:10044   */\n      mstore\n        /* \"#utility.yul\":10077:10081   */\n      0x20\n        /* \"#utility.yul\":10072:10075   */\n      dup3\n        /* \"#utility.yul\":10068:10082   */\n      add\n        /* \"#utility.yul\":10053:10082   */\n      swap1\n      pop\n        /* \"#utility.yul\":9919:10088   */\n      swap3\n      swap2\n      pop\n      pop\n      jump\t// out\n        /* \"#utility.yul\":10094:10265   */\n    tag_153:\n        /* \"#utility.yul\":10234:10257   */\n      0x4e6f2073747564656e747320617661696c61626c650000000000000000000000\n        /* \"#utility.yul\":10230:10231   */\n      0x00\n        /* \"#utility.yul\":10222:10228   */\n      dup3\n        /* \"#utility.yul\":10218:10232   */\n      add\n        /* \"#utility.yul\":10211:10258   */\n      mstore\n        /* \"#utility.yul\":10094:10265   */\n      pop\n      jump\t// out\n        /* \"#utility.yul\":10271:10637   */\n    tag_154:\n        /* \"#utility.yul\":10413:10416   */\n      0x00\n        /* \"#utility.yul\":10434:10501   */\n      tag_267\n        /* \"#utility.yul\":10498:10500   */\n      0x15\n        /* \"#utility.yul\":10493:10496   */\n      dup4\n        /* \"#utility.yul\":10434:10501   */\n      tag_152\n      jump\t// in\n    tag_267:\n        /* \"#utility.yul\":10427:10501   */\n      swap2\n      pop\n        /* \"#utility.yul\":10510:10603   */\n      tag_268\n        /* \"#utility.yul\":10599:10602   */\n      dup3\n        /* \"#utility.yul\":10510:10603   */\n      tag_153\n      jump\t// in\n    tag_268:\n        /* \"#utility.yul\":10628:10630   */\n      0x20\n        /* \"#utility.yul\":10623:10626   */\n      dup3\n        /* \"#utility.yul\":10619:10631   */\n      add\n        /* \"#utility.yul\":10612:10631   */\n      swap1\n      pop\n        /* \"#utility.yul\":10271:10637   */\n      swap2\n      swap1\n      pop\n      jump\t// out\n        /* \"#utility.yul\":10643:11062   */\n    tag_36:\n        /* \"#utility.yul\":10809:10813   */\n      0x00\n        /* \"#utility.yul\":10847:10849   */\n      0x20\n        /* \"#utility.yul\":10836:10845   */\n      dup3\n        /* \"#utility.yul\":10832:10850   */\n      add\n        /* \"#utility.yul\":10824:10850   */\n      swap1\n      pop\n        /* \"#utility.yul\":10896:10905   */\n      dup2\n        /* \"#utility.yul\":10890:10894   */\n      dup2\n        /* \"#utility.yul\":10886:10906   */\n      sub\n        /* \"#utility.yul\":10882:10883   */\n      0x00\n        /* \"#utility.yul\":10871:10880   */\n      dup4\n        /* \"#utility.yul\":10867:10884   */\n      add\n        /* \"#utility.yul\":10860:10907   */\n      mstore\n        /* \"#utility.yul\":10924:11055   */\n      tag_270\n        /* \"#utility.yul\":11050:11054   */\n      dup2\n        /* \"#utility.yul\":10924:11055   */\n      tag_154\n      jump\t// in\n    tag_270:\n        /* \"#utility.yul\":10916:11055   */\n      swap1\n      pop\n        /* \"#utility.yul\":10643:11062   */\n      swap2\n      swap1\n      pop\n      jump\t// out\n        /* \"#utility.yul\":11068:11248   */\n    tag_43:\n        /* \"#utility.yul\":11116:11193   */\n      0x4e487b7100000000000000000000000000000000000000000000000000000000\n        /* \"#utility.yul\":11113:11114   */\n      0x00\n        /* \"#utility.yul\":11106:11194   */\n      mstore\n        /* \"#utility.yul\":11213:11217   */\n      0x32\n        /* \"#utility.yul\":11210:11211   */\n      0x04\n        /* \"#utility.yul\":11203:11218   */\n      mstore\n        /* \"#utility.yul\":11237:11241   */\n      0x24\n        /* \"#utility.yul\":11234:11235   */\n      0x00\n        /* \"#utility.yul\":11227:11242   */\n      revert\n        /* \"#utility.yul\":11254:11434   */\n    tag_155:\n        /* \"#utility.yul\":11302:11379   */\n      0x4e487b7100000000000000000000000000000000000000000000000000000000\n        /* \"#utility.yul\":11299:11300   */\n      0x00\n        /* \"#utility.yul\":11292:11380   */\n      mstore\n        /* \"#utility.yul\":11399:11403   */\n      0x11\n        /* \"#utility.yul\":11396:11397   */\n      0x04\n        /* \"#utility.yul\":11389:11404   */\n      mstore\n        /* \"#utility.yul\":11423:11427   */\n      0x24\n        /* \"#utility.yul\":11420:11421   */\n      0x00\n        /* \"#utility.yul\":11413:11428   */\n      revert\n        /* \"#utility.yul\":11440:11631   */\n    tag_46:\n        /* \"#utility.yul\":11480:11483   */\n      0x00\n        /* \"#utility.yul\":11499:11519   */\n      tag_274\n        /* \"#utility.yul\":11517:11518   */\n      dup3\n        /* \"#utility.yul\":11499:11519   */\n      tag_122\n      jump\t// in\n    tag_274:\n        /* \"#utility.yul\":11494:11519   */\n      swap2\n      pop\n        /* \"#utility.yul\":11533:11553   */\n      tag_275\n        /* \"#utility.yul\":11551:11552   */\n      dup4\n        /* \"#utility.yul\":11533:11553   */\n      tag_122\n      jump\t// in\n    tag_275:\n        /* \"#utility.yul\":11528:11553   */\n      swap3\n      pop\n        /* \"#utility.yul\":11576:11577   */\n      dup3\n        /* \"#utility.yul\":11573:11574   */\n      dup3\n        /* \"#utility.yul\":11569:11578   */\n      add\n        /* \"#utility.yul\":11562:11578   */\n      swap1\n      pop\n        /* \"#utility.yul\":11597:11600   */\n      dup1\n        /* \"#utility.yul\":11594:11595   */\n      dup3\n        /* \"#utility.yul\":11591:11601   */\n      gt\n        /* \"#utility.yul\":11588:11624   */\n      iszero\n      tag_276\n      jumpi\n        /* \"#utility.yul\":11604:11622   */\n      tag_277\n      tag_155\n      jump\t// in\n    tag_277:\n        /* \"#utility.yul\":11588:11624   */\n    tag_276:\n        /* \"#utility.yul\":11440:11631   */\n      swap3\n      swap2\n      pop\n      pop\n      jump\t// out\n        /* \"#utility.yul\":11637:11817   */\n    tag_156:\n        /* \"#utility.yul\":11685:11762   */\n      0x4e487b7100000000000000000000000000000000000000000000000000000000\n        /* \"#utility.yul\":11682:11683   */\n      0x00\n        /* \"#utility.yul\":11675:11763   */\n      mstore\n        /* \"#utility.yul\":11782:11786   */\n      0x22\n        /* \"#utility.yul\":11779:11780   */\n      0x04\n        /* \"#utility.yul\":11772:11787   */\n      mstore\n        /* \"#utility.yul\":11806:11810   */\n      0x24\n        /* \"#utility.yul\":11803:11804   */\n      0x00\n        /* \"#utility.yul\":11796:11811   */\n      revert\n        /* \"#utility.yul\":11823:12143   */\n    tag_57:\n        /* \"#utility.yul\":11867:11873   */\n      0x00\n        /* \"#utility.yul\":11904:11905   */\n      0x02\n        /* \"#utility.yul\":11898:11902   */\n      dup3\n        /* \"#utility.yul\":11894:11906   */\n      div\n        /* \"#utility.yul\":11884:11906   */\n      swap1\n      pop\n        /* \"#utility.yul\":11951:11952   */\n      0x01\n        /* \"#utility.yul\":11945:11949   */\n      dup3\n        /* \"#utility.yul\":11941:11953   */\n      and\n        /* \"#utility.yul\":11972:11990   */\n      dup1\n        /* \"#utility.yul\":11962:12043   */\n      tag_280\n      jumpi\n        /* \"#utility.yul\":12028:12032   */\n      0x7f\n        /* \"#utility.yul\":12020:12026   */\n      dup3\n        /* \"#utility.yul\":12016:12033   */\n      and\n        /* \"#utility.yul\":12006:12033   */\n      swap2\n      pop\n        /* \"#utility.yul\":11962:12043   */\n    tag_280:\n        /* \"#utility.yul\":12090:12092   */\n      0x20\n        /* \"#utility.yul\":12082:12088   */\n      dup3\n        /* \"#utility.yul\":12079:12093   */\n      lt\n        /* \"#utility.yul\":12059:12077   */\n      dup2\n        /* \"#utility.yul\":12056:12094   */\n      sub\n        /* \"#utility.yul\":12053:12137   */\n      tag_281\n      jumpi\n        /* \"#utility.yul\":12109:12127   */\n      tag_282\n      tag_156\n      jump\t// in\n    tag_282:\n        /* \"#utility.yul\":12053:12137   */\n    tag_281:\n        /* \"#utility.yul\":11874:12143   */\n      pop\n        /* \"#utility.yul\":11823:12143   */\n      swap2\n      swap1\n      pop\n      jump\t// out\n        /* \"#utility.yul\":12149:12290   */\n    tag_157:\n        /* \"#utility.yul\":12198:12202   */\n      0x00\n        /* \"#utility.yul\":12221:12224   */\n      dup2\n        /* \"#utility.yul\":12213:12224   */\n      swap1\n      pop\n        /* \"#utility.yul\":12244:12247   */\n      dup2\n        /* \"#utility.yul\":12241:12242   */\n      0x00\n        /* \"#utility.yul\":12234:12248   */\n      mstore\n        /* \"#utility.yul\":12278:12282   */\n      0x20\n        /* \"#utility.yul\":12275:12276   */\n      0x00\n        /* \"#utility.yul\":12265:12283   */\n      keccak256\n        /* \"#utility.yul\":12257:12283   */\n      swap1\n      pop\n        /* \"#utility.yul\":12149:12290   */\n      swap2\n      swap1\n      pop\n      jump\t// out\n        /* \"#utility.yul\":12296:12389   */\n    tag_158:\n        /* \"#utility.yul\":12333:12339   */\n      0x00\n        /* \"#utility.yul\":12380:12382   */\n      0x20\n        /* \"#utility.yul\":12375:12377   */\n      0x1f\n        /* \"#utility.yul\":12368:12373   */\n      dup4\n        /* \"#utility.yul\":12364:12378   */\n      add\n        /* \"#utility.yul\":12360:12383   */\n      div\n        /* \"#utility.yul\":12350:12383   */\n      swap1\n      pop\n        /* \"#utility.yul\":12296:12389   */\n      swap2\n      swap1\n      pop\n      jump\t// out\n        /* \"#utility.yul\":12395:12502   */\n    tag_159:\n        /* \"#utility.yul\":12439:12447   */\n      0x00\n        /* \"#utility.yul\":12489:12494   */\n      dup3\n        /* \"#utility.yul\":12483:12487   */\n      dup3\n        /* \"#utility.yul\":12479:12495   */\n      shl\n        /* \"#utility.yul\":12458:12495   */\n      swap1\n      pop\n        /* \"#utility.yul\":12395:12502   */\n      swap3\n      swap2\n      pop\n      pop\n      jump\t// out\n        /* \"#utility.yul\":12508:12901   */\n    tag_160:\n        /* \"#utility.yul\":12577:12583   */\n      0x00\n        /* \"#utility.yul\":12627:12628   */\n      0x08\n        /* \"#utility.yul\":12615:12625   */\n      dup4\n        /* \"#utility.yul\":12611:12629   */\n      mul\n        /* \"#utility.yul\":12650:12747   */\n      tag_287\n        /* \"#utility.yul\":12680:12746   */\n      0xffffffffffffffffffffffffffffffffffffffffffffffffffffffffffffffff\n        /* \"#utility.yul\":12669:12678   */\n      dup3\n        /* \"#utility.yul\":12650:12747   */\n      tag_159\n      jump\t// in\n    tag_287:\n        /* \"#utility.yul\":12768:12807   */\n      tag_288\n        /* \"#utility.yul\":12798:12806   */\n      dup7\n        /* \"#utility.yul\":12787:12796   */\n      dup4\n        /* \"#utility.yul\":12768:12807   */\n      tag_159\n      jump\t// in\n    tag_288:\n        /* \"#utility.yul\":12756:12807   */\n      swap6\n      pop\n        /* \"#utility.yul\":12840:12844   */\n      dup1\n        /* \"#utility.yul\":12836:12845   */\n      not\n        /* \"#utility.yul\":12829:12834   */\n      dup5\n        /* \"#utility.yul\":12825:12846   */\n      and\n        /* \"#utility.yul\":12816:12846   */\n      swap4\n      pop\n        /* \"#utility.yul\":12889:12893   */\n      dup1\n        /* \"#utility.yul\":12879:12887   */\n      dup7\n        /* \"#utility.yul\":12875:12894   */\n      and\n        /* \"#utility.yul\":12868:12873   */\n      dup5\n        /* \"#utility.yul\":12865:12895   */\n      or\n        /* \"#utility.yul\":12855:12895   */\n      swap3\n      pop\n        /* \"#utility.yul\":12584:12901   */\n      pop\n      pop\n        /* \"#utility.yul\":12508:12901   */\n      swap4\n      swap3\n      pop\n      pop\n      pop\n      jump\t// out\n        /* \"#utility.yul\":12907:12967   */\n    tag_161:\n        /* \"#utility.yul\":12935:12938   */\n      0x00\n        /* \"#utility.yul\":12956:12961   */\n      dup2\n        /* \"#utility.yul\":12949:12961   */\n      swap1\n      pop\n        /* \"#utility.yul\":12907:12967   */\n      swap2\n      swap1\n      pop\n      jump\t// out\n        /* \"#utility.yul\":12973:13115   */\n    tag_162:\n        /* \"#utility.yul\":13023:13032   */\n      0x00\n        /* \"#utility.yul\":13056:13109   */\n      tag_291\n        /* \"#utility.yul\":13074:13108   */\n      tag_292\n        /* \"#utility.yul\":13083:13107   */\n      tag_293\n        /* \"#utility.yul\":13101:13106   */\n      dup5\n        /* \"#utility.yul\":13083:13107   */\n      tag_122\n      jump\t// in\n    tag_293:\n        /* \"#utility.yul\":13074:13108   */\n      tag_161\n      jump\t// in\n    tag_292:\n        /* \"#utility.yul\":13056:13109   */\n      tag_122\n      jump\t// in\n    tag_291:\n        /* \"#utility.yul\":13043:13109   */\n      swap1\n      pop\n        /* \"#utility.yul\":12973:13115   */\n      swap2\n      swap1\n      pop\n      jump\t// out\n        /* \"#utility.yul\":13121:13196   */\n    tag_163:\n        /* \"#utility.yul\":13164:13167   */\n      0x00\n        /* \"#utility.yul\":13185:13190   */\n      dup2\n        /* \"#utility.yul\":13178:13190   */\n      swap1\n      pop\n        /* \"#utility.yul\":13121:13196   */\n      swap2\n      swap1\n      pop\n      jump\t// out\n        /* \"#utility.yul\":13202:13471   */\n    tag_164:\n        /* \"#utility.yul\":13312:13351   */\n      tag_296\n        /* \"#utility.yul\":13343:13350   */\n      dup4\n        /* \"#utility.yul\":13312:13351   */\n      tag_162\n      jump\t// in\n    tag_296:\n        /* \"#utility.yul\":13373:13464   */\n      tag_297\n        /* \"#utility.yul\":13422:13463   */\n      tag_298\n        /* \"#utility.yul\":13446:13462   */\n      dup3\n        /* \"#utility.yul\":13422:13463   */\n      tag_163\n      jump\t// in\n    tag_298:\n        /* \"#utility.yul\":13414:13420   */\n      dup5\n        /* \"#utility.yul\":13407:13411   */\n      dup5\n        /* \"#utility.yul\":13401:13412   */\n      sload\n        /* \"#utility.yul\":13373:13464   */\n      tag_160\n      jump\t// in\n    tag_297:\n        /* \"#utility.yul\":13367:13371   */\n      dup3\n        /* \"#utility.yul\":13360:13465   */\n      sstore\n        /* \"#utility.yul\":13278:13471   */\n      pop\n        /* \"#utility.yul\":13202:13471   */\n      pop\n      pop\n      pop\n      jump\t// out\n        /* \"#utility.yul\":13477:13550   */\n    tag_165:\n        /* \"#utility.yul\":13522:13525   */\n      0x00\n        /* \"#utility.yul\":13477:13550   */\n      swap1\n      jump\t// out\n        /* \"#utility.yul\":13556:13745   */\n    tag_166:\n        /* \"#utility.yul\":13633:13665   */\n      tag_301\n      tag_165\n      jump\t// in\n    tag_301:\n        /* \"#utility.yul\":13674:13739   */\n      tag_302\n        /* \"#utility.yul\":13732:13738   */\n      dup2\n        /* \"#utility.yul\":13724:13730   */\n      dup5\n        /* \"#utility.yul\":13718:13722   */\n      dup5\n        /* \"#utility.yul\":13674:13739   */\n      tag_164\n      jump\t// in\n    tag_302:\n        /* \"#utility.yul\":13609:13745   */\n      pop\n        /* \"#utility.yul\":13556:13745   */\n      pop\n      pop\n      jump\t// out\n        /* \"#utility.yul\":13751:13937   */\n    tag_167:\n        /* \"#utility.yul\":13811:13931   */\n    tag_304:\n        /* \"#utility.yul\":13828:13831   */\n      dup2\n        /* \"#utility.yul\":13821:13826   */\n      dup2\n        /* \"#utility.yul\":13818:13832   */\n      lt\n        /* \"#utility.yul\":13811:13931   */\n      iszero\n      tag_306\n      jumpi\n        /* \"#utility.yul\":13882:13921   */\n      tag_307\n        /* \"#utility.yul\":13919:13920   */\n      0x00\n        /* \"#utility.yul\":13912:13917   */\n      dup3\n        /* \"#utility.yul\":13882:13921   */\n      tag_166\n      jump\t// in\n    tag_307:\n        /* \"#utility.yul\":13855:13856   */\n      0x01\n        /* \"#utility.yul\":13848:13853   */\n      dup2\n        /* \"#utility.yul\":13844:13857   */\n      add\n        /* \"#utility.yul\":13835:13857   */\n      swap1\n      pop\n        /* \"#utility.yul\":13811:13931   */\n      jump(tag_304)\n    tag_306:\n        /* \"#utility.yul\":13751:13937   */\n      pop\n      pop\n      jump\t// out\n        /* \"#utility.yul\":13943:14486   */\n    tag_168:\n        /* \"#utility.yul\":14044:14046   */\n      0x1f\n        /* \"#utility.yul\":14039:14042   */\n      dup3\n        /* \"#utility.yul\":14036:14047   */\n      gt\n        /* \"#utility.yul\":14033:14479   */\n      iszero\n      tag_309\n      jumpi\n        /* \"#utility.yul\":14078:14116   */\n      tag_310\n        /* \"#utility.yul\":14110:14115   */\n      dup2\n        /* \"#utility.yul\":14078:14116   */\n      tag_157\n      jump\t// in\n    tag_310:\n        /* \"#utility.yul\":14162:14191   */\n      tag_311\n        /* \"#utility.yul\":14180:14190   */\n      dup5\n        /* \"#utility.yul\":14162:14191   */\n      tag_158\n      jump\t// in\n    tag_311:\n        /* \"#utility.yul\":14152:14160   */\n      dup2\n        /* \"#utility.yul\":14148:14192   */\n      add\n        /* \"#utility.yul\":14345:14347   */\n      0x20\n        /* \"#utility.yul\":14333:14343   */\n      dup6\n        /* \"#utility.yul\":14330:14348   */\n      lt\n        /* \"#utility.yul\":14327:14376   */\n      iszero\n      tag_312\n      jumpi\n        /* \"#utility.yul\":14366:14374   */\n      dup2\n        /* \"#utility.yul\":14351:14374   */\n      swap1\n      pop\n        /* \"#utility.yul\":14327:14376   */\n    tag_312:\n        /* \"#utility.yul\":14389:14469   */\n      tag_313\n        /* \"#utility.yul\":14445:14467   */\n      tag_314\n        /* \"#utility.yul\":14463:14466   */\n      dup6\n        /* \"#utility.yul\":14445:14467   */\n      tag_158\n      jump\t// in\n    tag_314:\n        /* \"#utility.yul\":14435:14443   */\n      dup4\n        /* \"#utility.yul\":14431:14468   */\n      add\n        /* \"#utility.yul\":14418:14429   */\n      dup3\n        /* \"#utility.yul\":14389:14469   */\n      tag_167\n      jump\t// in\n    tag_313:\n        /* \"#utility.yul\":14048:14479   */\n      pop\n      pop\n        /* \"#utility.yul\":14033:14479   */\n    tag_309:\n        /* \"#utility.yul\":13943:14486   */\n      pop\n      pop\n      pop\n      jump\t// out\n        /* \"#utility.yul\":14492:14609   */\n    tag_169:\n        /* \"#utility.yul\":14546:14554   */\n      0x00\n        /* \"#utility.yul\":14596:14601   */\n      dup3\n        /* \"#utility.yul\":14590:14594   */\n      dup3\n        /* \"#utility.yul\":14586:14602   */\n      shr\n        /* \"#utility.yul\":14565:14602   */\n      swap1\n      pop\n        /* \"#utility.yul\":14492:14609   */\n      swap3\n      swap2\n      pop\n      pop\n      jump\t// out\n        /* \"#utility.yul\":14615:14784   */\n    tag_170:\n        /* \"#utility.yul\":14659:14665   */\n      0x00\n        /* \"#utility.yul\":14692:14743   */\n      tag_317\n        /* \"#utility.yul\":14740:14741   */\n      0x00\n        /* \"#utility.yul\":14736:14742   */\n      not\n        /* \"#utility.yul\":14728:14733   */\n      dup5\n        /* \"#utility.yul\":14725:14726   */\n      0x08\n        /* \"#utility.yul\":14721:14734   */\n      mul\n        /* \"#utility.yul\":14692:14743   */\n      tag_169\n      jump\t// in\n    tag_317:\n        /* \"#utility.yul\":14688:14744   */\n      not\n        /* \"#utility.yul\":14773:14777   */\n      dup1\n        /* \"#utility.yul\":14767:14771   */\n      dup4\n        /* \"#utility.yul\":14763:14778   */\n      and\n        /* \"#utility.yul\":14753:14778   */\n      swap2\n      pop\n        /* \"#utility.yul\":14666:14784   */\n      pop\n        /* \"#utility.yul\":14615:14784   */\n      swap3\n      swap2\n      pop\n      pop\n      jump\t// out\n        /* \"#utility.yul\":14789:15084   */\n    tag_171:\n        /* \"#utility.yul\":14865:14869   */\n      0x00\n        /* \"#utility.yul\":15011:15040   */\n      tag_319\n        /* \"#utility.yul\":15036:15039   */\n      dup4\n        /* \"#utility.yul\":15030:15034   */\n      dup4\n        /* \"#utility.yul\":15011:15040   */\n      tag_170\n      jump\t// in\n    tag_319:\n        /* \"#utility.yul\":15003:15040   */\n      swap2\n      pop\n        /* \"#utility.yul\":15073:15076   */\n      dup3\n        /* \"#utility.yul\":15070:15071   */\n      0x02\n        /* \"#utility.yul\":15066:15077   */\n      mul\n        /* \"#utility.yul\":15060:15064   */\n      dup3\n        /* \"#utility.yul\":15057:15078   */\n      or\n        /* \"#utility.yul\":15049:15078   */\n      swap1\n      pop\n        /* \"#utility.yul\":14789:15084   */\n      swap3\n      swap2\n      pop\n      pop\n      jump\t// out\n        /* \"#utility.yul\":15089:16484   */\n    tag_80:\n        /* \"#utility.yul\":15206:15243   */\n      tag_321\n        /* \"#utility.yul\":15239:15242   */\n      dup3\n        /* \"#utility.yul\":15206:15243   */\n      tag_125\n      jump\t// in\n    tag_321:\n        /* \"#utility.yul\":15308:15326   */\n      0xffffffffffffffff\n        /* \"#utility.yul\":15300:15306   */\n      dup2\n        /* \"#utility.yul\":15297:15327   */\n      gt\n        /* \"#utility.yul\":15294:15350   */\n      iszero\n      tag_322\n      jumpi\n        /* \"#utility.yul\":15330:15348   */\n      tag_323\n      tag_138\n      jump\t// in\n    tag_323:\n        /* \"#utility.yul\":15294:15350   */\n    tag_322:\n        /* \"#utility.yul\":15374:15412   */\n      tag_324\n        /* \"#utility.yul\":15406:15410   */\n      dup3\n        /* \"#utility.yul\":15400:15411   */\n      sload\n        /* \"#utility.yul\":15374:15412   */\n      tag_57\n      jump\t// in\n    tag_324:\n        /* \"#utility.yul\":15459:15526   */\n      tag_325\n        /* \"#utility.yul\":15519:15525   */\n      dup3\n        /* \"#utility.yul\":15511:15517   */\n      dup3\n        /* \"#utility.yul\":15505:15509   */\n      dup6\n        /* \"#utility.yul\":15459:15526   */\n      tag_168\n      jump\t// in\n    tag_325:\n        /* \"#utility.yul\":15553:15554   */\n      0x00\n        /* \"#utility.yul\":15577:15581   */\n      0x20\n        /* \"#utility.yul\":15564:15581   */\n      swap1\n      pop\n        /* \"#utility.yul\":15609:15611   */\n      0x1f\n        /* \"#utility.yul\":15601:15607   */\n      dup4\n        /* \"#utility.yul\":15598:15612   */\n      gt\n        /* \"#utility.yul\":15626:15627   */\n      0x01\n        /* \"#utility.yul\":15621:16239   */\n      dup2\n      eq\n      tag_327\n      jumpi\n        /* \"#utility.yul\":16283:16284   */\n      0x00\n        /* \"#utility.yul\":16300:16306   */\n      dup5\n        /* \"#utility.yul\":16297:16374   */\n      iszero\n      tag_328\n      jumpi\n        /* \"#utility.yul\":16349:16358   */\n      dup3\n        /* \"#utility.yul\":16344:16347   */\n      dup8\n        /* \"#utility.yul\":16340:16359   */\n      add\n        /* \"#utility.yul\":16334:16360   */\n      mload\n        /* \"#utility.yul\":16325:16360   */\n      swap1\n      pop\n        /* \"#utility.yul\":16297:16374   */\n    tag_328:\n        /* \"#utility.yul\":16400:16467   */\n      tag_329\n        /* \"#utility.yul\":16460:16466   */\n      dup6\n        /* \"#utility.yul\":16453:16458   */\n      dup3\n        /* \"#utility.yul\":16400:16467   */\n      tag_171\n      jump\t// in\n    tag_329:\n        /* \"#utility.yul\":16394:16398   */\n      dup7\n        /* \"#utility.yul\":16387:16468   */\n      sstore\n        /* \"#utility.yul\":16256:16478   */\n      pop\n        /* \"#utility.yul\":15591:16478   */\n      jump(tag_326)\n        /* \"#utility.yul\":15621:16239   */\n    tag_327:\n        /* \"#utility.yul\":15673:15677   */\n      0x1f\n        /* \"#utility.yul\":15669:15678   */\n      not\n        /* \"#utility.yul\":15661:15667   */\n      dup5\n        /* \"#utility.yul\":15657:15679   */\n      and\n        /* \"#utility.yul\":15707:15744   */\n      tag_330\n        /* \"#utility.yul\":15739:15743   */\n      dup7\n        /* \"#utility.yul\":15707:15744   */\n      tag_157\n      jump\t// in\n    tag_330:\n        /* \"#utility.yul\":15766:15767   */\n      0x00\n        /* \"#utility.yul\":15780:15988   */\n    tag_331:\n        /* \"#utility.yul\":15794:15801   */\n      dup3\n        /* \"#utility.yul\":15791:15792   */\n      dup2\n        /* \"#utility.yul\":15788:15802   */\n      lt\n        /* \"#utility.yul\":15780:15988   */\n      iszero\n      tag_333\n      jumpi\n        /* \"#utility.yul\":15873:15882   */\n      dup5\n        /* \"#utility.yul\":15868:15871   */\n      dup10\n        /* \"#utility.yul\":15864:15883   */\n      add\n        /* \"#utility.yul\":15858:15884   */\n      mload\n        /* \"#utility.yul\":15850:15856   */\n      dup3\n        /* \"#utility.yul\":15843:15885   */\n      sstore\n        /* \"#utility.yul\":15924:15925   */\n      0x01\n        /* \"#utility.yul\":15916:15922   */\n      dup3\n        /* \"#utility.yul\":15912:15926   */\n      add\n        /* \"#utility.yul\":15902:15926   */\n      swap2\n      pop\n        /* \"#utility.yul\":15971:15973   */\n      0x20\n        /* \"#utility.yul\":15960:15969   */\n      dup6\n        /* \"#utility.yul\":15956:15974   */\n      add\n        /* \"#utility.yul\":15943:15974   */\n      swap5\n      pop\n        /* \"#utility.yul\":15817:15821   */\n      0x20\n        /* \"#utility.yul\":15814:15815   */\n      dup2\n        /* \"#utility.yul\":15810:15822   */\n      add\n        /* \"#utility.yul\":15805:15822   */\n      swap1\n      pop\n        /* \"#utility.yul\":15780:15988   */\n      jump(tag_331)\n    tag_333:\n        /* \"#utility.yul\":16016:16022   */\n      dup7\n        /* \"#utility.yul\":16007:16014   */\n      dup4\n        /* \"#utility.yul\":16004:16023   */\n      lt\n        /* \"#utility.yul\":16001:16180   */\n      iszero\n      tag_334\n      jumpi\n        /* \"#utility.yul\":16074:16083   */\n      dup5\n        /* \"#utility.yul\":16069:16072   */\n      dup10\n        /* \"#utility.yul\":16065:16084   */\n      add\n        /* \"#utility.yul\":16059:16085   */\n      mload\n        /* \"#utility.yul\":16117:16165   */\n      tag_335\n        /* \"#utility.yul\":16159:16163   */\n      0x1f\n        /* \"#utility.yul\":16151:16157   */\n      dup10\n        /* \"#utility.yul\":16147:16164   */\n      and\n        /* \"#utility.yul\":16136:16145   */\n      dup3\n        /* \"#utility.yul\":16117:16165   */\n      tag_170\n      jump\t// in\n    tag_335:\n        /* \"#utility.yul\":16109:16115   */\n      dup4\n        /* \"#utility.yul\":16102:16166   */\n      sstore\n        /* \"#utility.yul\":16024:16180   */\n      pop\n        /* \"#utility.yul\":16001:16180   */\n    tag_334:\n        /* \"#utility.yul\":16226:16227   */\n      0x01\n        /* \"#utility.yul\":16222:16223   */\n      0x02\n        /* \"#utility.yul\":16214:16220   */\n      dup9\n        /* \"#utility.yul\":16210:16224   */\n      mul\n        /* \"#utility.yul\":16206:16228   */\n      add\n        /* \"#utility.yul\":16200:16204   */\n      dup9\n        /* \"#utility.yul\":16193:16229   */\n      sstore\n        /* \"#utility.yul\":15628:16239   */\n      pop\n      pop\n      pop\n        /* \"#utility.yul\":15591:16478   */\n    tag_326:\n      pop\n        /* \"#utility.yul\":15181:16484   */\n      pop\n      pop\n      pop\n        /* \"#utility.yul\":15089:16484   */\n      pop\n      pop\n      jump\t// out\n        /* \"#utility.yul\":16490:16657   */\n    tag_172:\n        /* \"#utility.yul\":16630:16649   */\n      0x53747564656e74206e6f7420666f756e64000000000000000000000000000000\n        /* \"#utility.yul\":16626:16627   */\n      0x00\n        /* \"#utility.yul\":16618:16624   */\n      dup3\n        /* \"#utility.yul\":16614:16628   */\n      add\n        /* \"#utility.yul\":16607:16650   */\n      mstore\n        /* \"#utility.yul\":16490:16657   */\n      pop\n      jump\t// out\n        /* \"#utility.yul\":16663:17029   */\n    tag_173:\n        /* \"#utility.yul\":16805:16808   */\n      0x00\n        /* \"#utility.yul\":16826:16893   */\n      tag_338\n        /* \"#utility.yul\":16890:16892   */\n      0x11\n        /* \"#utility.yul\":16885:16888   */\n      dup4\n        /* \"#utility.yul\":16826:16893   */\n      tag_152\n      jump\t// in\n    tag_338:\n        /* \"#utility.yul\":16819:16893   */\n      swap2\n      pop\n        /* \"#utility.yul\":16902:16995   */\n      tag_339\n        /* \"#utility.yul\":16991:16994   */\n      dup3\n        /* \"#utility.yul\":16902:16995   */\n      tag_172\n      jump\t// in\n    tag_339:\n        /* \"#utility.yul\":17020:17022   */\n      0x20\n        /* \"#utility.yul\":17015:17018   */\n      dup3\n        /* \"#utility.yul\":17011:17023   */\n      add\n        /* \"#utility.yul\":17004:17023   */\n      swap1\n      pop\n        /* \"#utility.yul\":16663:17029   */\n      swap2\n      swap1\n      pop\n      jump\t// out\n        /* \"#utility.yul\":17035:17454   */\n    tag_102:\n        /* \"#utility.yul\":17201:17205   */\n      0x00\n        /* \"#utility.yul\":17239:17241   */\n      0x20\n        /* \"#utility.yul\":17228:17237   */\n      dup3\n        /* \"#utility.yul\":17224:17242   */\n      add\n        /* \"#utility.yul\":17216:17242   */\n      swap1\n      pop\n        /* \"#utility.yul\":17288:17297   */\n      dup2\n        /* \"#utility.yul\":17282:17286   */\n      dup2\n        /* \"#utility.yul\":17278:17298   */\n      sub\n        /* \"#utility.yul\":17274:17275   */\n      0x00\n        /* \"#utility.yul\":17263:17272   */\n      dup4\n        /* \"#utility.yul\":17259:17276   */\n      add\n        /* \"#utility.yul\":17252:17299   */\n      mstore\n        /* \"#utility.yul\":17316:17447   */\n      tag_341\n        /* \"#utility.yul\":17442:17446   */\n      dup2\n        /* \"#utility.yul\":17316:17447   */\n      tag_173\n      jump\t// in\n    tag_341:\n        /* \"#utility.yul\":17308:17447   */\n      swap1\n      pop\n        /* \"#utility.yul\":17035:17454   */\n      swap2\n      swap1\n      pop\n      jump\t// out\n        /* \"#utility.yul\":17460:17640   */\n    tag_174:\n        /* \"#utility.yul\":17508:17585   */\n      0x4e487b7100000000000000000000000000000000000000000000000000000000\n        /* \"#utility.yul\":17505:17506   */\n      0x00\n        /* \"#utility.yul\":17498:17586   */\n      mstore\n        /* \"#utility.yul\":17605:17609   */\n      0x12\n        /* \"#utility.yul\":17602:17603   */\n      0x04\n        /* \"#utility.yul\":17595:17610   */\n      mstore\n        /* \"#utility.yul\":17629:17633   */\n      0x24\n        /* \"#utility.yul\":17626:17627   */\n      0x00\n        /* \"#utility.yul\":17619:17634   */\n      revert\n        /* \"#utility.yul\":17646:17831   */\n    tag_109:\n        /* \"#utility.yul\":17686:17687   */\n      0x00\n        /* \"#utility.yul\":17703:17723   */\n      tag_344\n        /* \"#utility.yul\":17721:17722   */\n      dup3\n        /* \"#utility.yul\":17703:17723   */\n      tag_122\n      jump\t// in\n    tag_344:\n        /* \"#utility.yul\":17698:17723   */\n      swap2\n      pop\n        /* \"#utility.yul\":17737:17757   */\n      tag_345\n        /* \"#utility.yul\":17755:17756   */\n      dup4\n        /* \"#utility.yul\":17737:17757   */\n      tag_122\n      jump\t// in\n    tag_345:\n        /* \"#utility.yul\":17732:17757   */\n      swap3\n      pop\n        /* \"#utility.yul\":17776:17777   */\n      dup3\n        /* \"#utility.yul\":17766:17801   */\n      tag_346\n      jumpi\n        /* \"#utility.yul\":17781:17799   */\n      tag_347\n      tag_174\n      jump\t// in\n    tag_347:\n        /* \"#utility.yul\":17766:17801   */\n    tag_346:\n        /* \"#utility.yul\":17823:17824   */\n      dup3\n        /* \"#utility.yul\":17820:17821   */\n      dup3\n        /* \"#utility.yul\":17816:17825   */\n      div\n        /* \"#utility.yul\":17811:17825   */\n      swap1\n      pop\n        /* \"#utility.yul\":17646:17831   */\n      swap3\n      swap2\n      pop\n      pop\n      jump\t// out\n\n    auxdata: 0xa26469706673582212208c953bf631c517f4479d5f2cfcf8e76f07ffc8ae235e136b6d428e6f32e2aa9164736f6c634300081a0033\n}\n",
				"bytecode": {
					"linkReferences": {},
					"object": "6080604052348015600e575f80fd5b506110f08061001c5f395ff3fe608060405234801561000f575f80fd5b5060043610610060575f3560e01c80632011cdae1461006457806377dfe54e14610082578063c1bea1db146100a0578063c8fb0793146100bc578063df72cdbf146100ec578063e9e309271461010a575b5f80fd5b61006c610128565b60405161007991906107fc565b60405180910390f35b61008a6101c3565b60405161009791906108e1565b60405180910390f35b6100ba60048036038101906100b59190610a68565b610406565b005b6100d660048036038101906100d19190610ad4565b610477565b6040516100e391906108e1565b60405180910390f35b6100f461061e565b60405161010191906107fc565b60405180910390f35b610112610681565b60405161011f9190610c07565b60405180910390f35b5f805f805490501161016f576040517f08c379a000000000000000000000000000000000000000000000000000000000815260040161016690610c81565b60405180910390fd5b5f805b5f805490508110156101bb575f818154811061019157610190610c9f565b5b905f5260205f20906003020160020154826101ac9190610cf9565b91508080600101915050610172565b508091505090565b6101cb6107c5565b5f808054905011610211576040517f08c379a000000000000000000000000000000000000000000000000000000000815260040161020890610c81565b60405180910390fd5b5f805f8154811061022557610224610c9f565b5b905f5260205f2090600302016040518060600160405290815f820154815260200160018201805461025590610d59565b80601f016020809104026020016040519081016040528092919081815260200182805461028190610d59565b80156102cc5780601f106102a3576101008083540402835291602001916102cc565b820191905f5260205f20905b8154815290600101906020018083116102af57829003601f168201915b5050505050815260200160028201548152505090505f600190505b5f805490508110156103fe5781604001515f828154811061030b5761030a610c9f565b5b905f5260205f2090600302016002015410156103f1575f818154811061033457610333610c9f565b5b905f5260205f2090600302016040518060600160405290815f820154815260200160018201805461036490610d59565b80601f016020809104026020016040519081016040528092919081815260200182805461039090610d59565b80156103db5780601f106103b2576101008083540402835291602001916103db565b820191905f5260205f20905b8154815290600101906020018083116103be57829003601f168201915b5050505050815260200160028201548152505091505b80806001019150506102e7565b508091505090565b5f604051806060016040528085815260200184815260200183815250908060018154018082558091505060019003905f5260205f2090600302015f909190919091505f820151815f015560208201518160010190816104659190610f26565b50604082015181600201555050505050565b61047f6107c5565b5f8080549050116104c5576040517f08c379a00000000000000000000000000000000000000000000000000000000081526004016104bc90610c81565b60405180910390fd5b5f5b5f805490508110156105dd57825f82815481106104e7576104e6610c9f565b5b905f5260205f2090600302015f0154036105d0575f818154811061050e5761050d610c9f565b5b905f5260205f2090600302016040518060600160405290815f820154815260200160018201805461053e90610d59565b80601f016020809104026020016040519081016040528092919081815260200182805461056a90610d59565b80156105b55780601f1061058c576101008083540402835291602001916105b5565b820191905f5260205f20905b81548152906001019060200180831161059857829003601f168201915b50505050508152602001600282015481525050915050610619565b80806001019150506104c7565b506040517f08c379a00000000000000000000000000000000000000000000000000000000081526004016106109061103f565b60405180910390fd5b919050565b5f805f8054905011610665576040517f08c379a000000000000000000000000000000000000000000000000000000000815260040161065c90610c81565b60405180910390fd5b5f80549050610672610128565b61067c919061108a565b905090565b60605f8080549050116106c9576040517f08c379a00000000000000000000000000000000000000000000000000000000081526004016106c090610c81565b60405180910390fd5b5f805480602002602001604051908101604052809291908181526020015f905b828210156107bc578382905f5260205f2090600302016040518060600160405290815f820154815260200160018201805461072390610d59565b80601f016020809104026020016040519081016040528092919081815260200182805461074f90610d59565b801561079a5780601f106107715761010080835404028352916020019161079a565b820191905f5260205f20905b81548152906001019060200180831161077d57829003601f168201915b50505050508152602001600282015481525050815260200190600101906106e9565b50505050905090565b60405180606001604052805f8152602001606081526020015f81525090565b5f819050919050565b6107f6816107e4565b82525050565b5f60208201905061080f5f8301846107ed565b92915050565b61081e816107e4565b82525050565b5f81519050919050565b5f82825260208201905092915050565b8281835e5f83830152505050565b5f601f19601f8301169050919050565b5f61086682610824565b610870818561082e565b935061088081856020860161083e565b6108898161084c565b840191505092915050565b5f606083015f8301516108a95f860182610815565b50602083015184820360208601526108c1828261085c565b91505060408301516108d66040860182610815565b508091505092915050565b5f6020820190508181035f8301526108f98184610894565b905092915050565b5f604051905090565b5f80fd5b5f80fd5b61091b816107e4565b8114610925575f80fd5b50565b5f8135905061093681610912565b92915050565b5f80fd5b5f80fd5b7f4e487b71000000000000000000000000000000000000000000000000000000005f52604160045260245ffd5b61097a8261084c565b810181811067ffffffffffffffff8211171561099957610998610944565b5b80604052505050565b5f6109ab610901565b90506109b78282610971565b919050565b5f67ffffffffffffffff8211156109d6576109d5610944565b5b6109df8261084c565b9050602081019050919050565b828183375f83830152505050565b5f610a0c610a07846109bc565b6109a2565b905082815260208101848484011115610a2857610a27610940565b5b610a338482856109ec565b509392505050565b5f82601f830112610a4f57610a4e61093c565b5b8135610a5f8482602086016109fa565b91505092915050565b5f805f60608486031215610a7f57610a7e61090a565b5b5f610a8c86828701610928565b935050602084013567ffffffffffffffff811115610aad57610aac61090e565b5b610ab986828701610a3b565b9250506040610aca86828701610928565b9150509250925092565b5f60208284031215610ae957610ae861090a565b5b5f610af684828501610928565b91505092915050565b5f81519050919050565b5f82825260208201905092915050565b5f819050602082019050919050565b5f606083015f830151610b3d5f860182610815565b5060208301518482036020860152610b55828261085c565b9150506040830151610b6a6040860182610815565b508091505092915050565b5f610b808383610b28565b905092915050565b5f602082019050919050565b5f610b9e82610aff565b610ba88185610b09565b935083602082028501610bba85610b19565b805f5b85811015610bf55784840389528151610bd68582610b75565b9450610be183610b88565b925060208a01995050600181019050610bbd565b50829750879550505050505092915050565b5f6020820190508181035f830152610c1f8184610b94565b905092915050565b5f82825260208201905092915050565b7f4e6f2073747564656e747320617661696c61626c6500000000000000000000005f82015250565b5f610c6b601583610c27565b9150610c7682610c37565b602082019050919050565b5f6020820190508181035f830152610c9881610c5f565b9050919050565b7f4e487b71000000000000000000000000000000000000000000000000000000005f52603260045260245ffd5b7f4e487b71000000000000000000000000000000000000000000000000000000005f52601160045260245ffd5b5f610d03826107e4565b9150610d0e836107e4565b9250828201905080821115610d2657610d25610ccc565b5b92915050565b7f4e487b71000000000000000000000000000000000000000000000000000000005f52602260045260245ffd5b5f6002820490506001821680610d7057607f821691505b602082108103610d8357610d82610d2c565b5b50919050565b5f819050815f5260205f209050919050565b5f6020601f8301049050919050565b5f82821b905092915050565b5f60088302610de57fffffffffffffffffffffffffffffffffffffffffffffffffffffffffffffffff82610daa565b610def8683610daa565b95508019841693508086168417925050509392505050565b5f819050919050565b5f610e2a610e25610e20846107e4565b610e07565b6107e4565b9050919050565b5f819050919050565b610e4383610e10565b610e57610e4f82610e31565b848454610db6565b825550505050565b5f90565b610e6b610e5f565b610e76818484610e3a565b505050565b5b81811015610e9957610e8e5f82610e63565b600181019050610e7c565b5050565b601f821115610ede57610eaf81610d89565b610eb884610d9b565b81016020851015610ec7578190505b610edb610ed385610d9b565b830182610e7b565b50505b505050565b5f82821c905092915050565b5f610efe5f1984600802610ee3565b1980831691505092915050565b5f610f168383610eef565b9150826002028217905092915050565b610f2f82610824565b67ffffffffffffffff811115610f4857610f47610944565b5b610f528254610d59565b610f5d828285610e9d565b5f60209050601f831160018114610f8e575f8415610f7c578287015190505b610f868582610f0b565b865550610fed565b601f198416610f9c86610d89565b5f5b82811015610fc357848901518255600182019150602085019450602081019050610f9e565b86831015610fe05784890151610fdc601f891682610eef565b8355505b6001600288020188555050505b505050505050565b7f53747564656e74206e6f7420666f756e640000000000000000000000000000005f82015250565b5f611029601183610c27565b915061103482610ff5565b602082019050919050565b5f6020820190508181035f8301526110568161101d565b9050919050565b7f4e487b71000000000000000000000000000000000000000000000000000000005f52601260045260245ffd5b5f611094826107e4565b915061109f836107e4565b9250826110af576110ae61105d565b5b82820490509291505056fea26469706673582212208c953bf631c517f4479d5f2cfcf8e76f07ffc8ae235e136b6d428e6f32e2aa9164736f6c634300081a0033",
					"opcodes": "PUSH1 0x80 PUSH1 0x40 MSTORE CALLVALUE DUP1 ISZERO PUSH1 0xE JUMPI PUSH0 DUP1 REVERT JUMPDEST POP PUSH2 0x10F0 DUP1 PUSH2 0x1C PUSH0 CODECOPY PUSH0 RETURN INVALID PUSH1 0x80 PUSH1 0x40 MSTORE CALLVALUE DUP1 ISZERO PUSH2 0xF JUMPI PUSH0 DUP1 REVERT JUMPDEST POP PUSH1 0x4 CALLDATASIZE LT PUSH2 0x60 JUMPI PUSH0 CALLDATALOAD PUSH1 0xE0 SHR DUP1 PUSH4 0x2011CDAE EQ PUSH2 0x64 JUMPI DUP1 PUSH4 0x77DFE54E EQ PUSH2 0x82 JUMPI DUP1 PUSH4 0xC1BEA1DB EQ PUSH2 0xA0 JUMPI DUP1 PUSH4 0xC8FB0793 EQ PUSH2 0xBC JUMPI DUP1 PUSH4 0xDF72CDBF EQ PUSH2 0xEC JUMPI DUP1 PUSH4 0xE9E30927 EQ PUSH2 0x10A JUMPI JUMPDEST PUSH0 DUP1 REVERT JUMPDEST PUSH2 0x6C PUSH2 0x128 JUMP JUMPDEST PUSH1 0x40 MLOAD PUSH2 0x79 SWAP2 SWAP1 PUSH2 0x7FC JUMP JUMPDEST PUSH1 0x40 MLOAD DUP1 SWAP2 SUB SWAP1 RETURN JUMPDEST PUSH2 0x8A PUSH2 0x1C3 JUMP JUMPDEST PUSH1 0x40 MLOAD PUSH2 0x97 SWAP2 SWAP1 PUSH2 0x8E1 JUMP JUMPDEST PUSH1 0x40 MLOAD DUP1 SWAP2 SUB SWAP1 RETURN JUMPDEST PUSH2 0xBA PUSH1 0x4 DUP1 CALLDATASIZE SUB DUP2 ADD SWAP1 PUSH2 0xB5 SWAP2 SWAP1 PUSH2 0xA68 JUMP JUMPDEST PUSH2 0x406 JUMP JUMPDEST STOP JUMPDEST PUSH2 0xD6 PUSH1 0x4 DUP1 CALLDATASIZE SUB DUP2 ADD SWAP1 PUSH2 0xD1 SWAP2 SWAP1 PUSH2 0xAD4 JUMP JUMPDEST PUSH2 0x477 JUMP JUMPDEST PUSH1 0x40 MLOAD PUSH2 0xE3 SWAP2 SWAP1 PUSH2 0x8E1 JUMP JUMPDEST PUSH1 0x40 MLOAD DUP1 SWAP2 SUB SWAP1 RETURN JUMPDEST PUSH2 0xF4 PUSH2 0x61E JUMP JUMPDEST PUSH1 0x40 MLOAD PUSH2 0x101 SWAP2 SWAP1 PUSH2 0x7FC JUMP JUMPDEST PUSH1 0x40 MLOAD DUP1 SWAP2 SUB SWAP1 RETURN JUMPDEST PUSH2 0x112 PUSH2 0x681 JUMP JUMPDEST PUSH1 0x40 MLOAD PUSH2 0x11F SWAP2 SWAP1 PUSH2 0xC07 JUMP JUMPDEST PUSH1 0x40 MLOAD DUP1 SWAP2 SUB SWAP1 RETURN JUMPDEST PUSH0 DUP1 PUSH0 DUP1 SLOAD SWAP1 POP GT PUSH2 0x16F JUMPI PUSH1 0x40 MLOAD PUSH32 0x8C379A000000000000000000000000000000000000000000000000000000000 DUP2 MSTORE PUSH1 0x4 ADD PUSH2 0x166 SWAP1 PUSH2 0xC81 JUMP JUMPDEST PUSH1 0x40 MLOAD DUP1 SWAP2 SUB SWAP1 REVERT JUMPDEST PUSH0 DUP1 JUMPDEST PUSH0 DUP1 SLOAD SWAP1 POP DUP2 LT ISZERO PUSH2 0x1BB JUMPI PUSH0 DUP2 DUP2 SLOAD DUP2 LT PUSH2 0x191 JUMPI PUSH2 0x190 PUSH2 0xC9F JUMP JUMPDEST JUMPDEST SWAP1 PUSH0 MSTORE PUSH1 0x20 PUSH0 KECCAK256 SWAP1 PUSH1 0x3 MUL ADD PUSH1 0x2 ADD SLOAD DUP3 PUSH2 0x1AC SWAP2 SWAP1 PUSH2 0xCF9 JUMP JUMPDEST SWAP2 POP DUP1 DUP1 PUSH1 0x1 ADD SWAP2 POP POP PUSH2 0x172 JUMP JUMPDEST POP DUP1 SWAP2 POP POP SWAP1 JUMP JUMPDEST PUSH2 0x1CB PUSH2 0x7C5 JUMP JUMPDEST PUSH0 DUP1 DUP1 SLOAD SWAP1 POP GT PUSH2 0x211 JUMPI PUSH1 0x40 MLOAD PUSH32 0x8C379A000000000000000000000000000000000000000000000000000000000 DUP2 MSTORE PUSH1 0x4 ADD PUSH2 0x208 SWAP1 PUSH2 0xC81 JUMP JUMPDEST PUSH1 0x40 MLOAD DUP1 SWAP2 SUB SWAP1 REVERT JUMPDEST PUSH0 DUP1 PUSH0 DUP2 SLOAD DUP2 LT PUSH2 0x225 JUMPI PUSH2 0x224 PUSH2 0xC9F JUMP JUMPDEST JUMPDEST SWAP1 PUSH0 MSTORE PUSH1 0x20 PUSH0 KECCAK256 SWAP1 PUSH1 0x3 MUL ADD PUSH1 0x40 MLOAD DUP1 PUSH1 0x60 ADD PUSH1 0x40 MSTORE SWAP1 DUP2 PUSH0 DUP3 ADD SLOAD DUP2 MSTORE PUSH1 0x20 ADD PUSH1 0x1 DUP3 ADD DUP1 SLOAD PUSH2 0x255 SWAP1 PUSH2 0xD59 JUMP JUMPDEST DUP1 PUSH1 0x1F ADD PUSH1 0x20 DUP1 SWAP2 DIV MUL PUSH1 0x20 ADD PUSH1 0x40 MLOAD SWAP1 DUP2 ADD PUSH1 0x40 MSTORE DUP1 SWAP3 SWAP2 SWAP1 DUP2 DUP2 MSTORE PUSH1 0x20 ADD DUP3 DUP1 SLOAD PUSH2 0x281 SWAP1 PUSH2 0xD59 JUMP JUMPDEST DUP1 ISZERO PUSH2 0x2CC JUMPI DUP1 PUSH1 0x1F LT PUSH2 0x2A3 JUMPI PUSH2 0x100 DUP1 DUP4 SLOAD DIV MUL DUP4 MSTORE SWAP2 PUSH1 0x20 ADD SWAP2 PUSH2 0x2CC JUMP JUMPDEST DUP3 ADD SWAP2 SWAP1 PUSH0 MSTORE PUSH1 0x20 PUSH0 KECCAK256 SWAP1 JUMPDEST DUP2 SLOAD DUP2 MSTORE SWAP1 PUSH1 0x1 ADD SWAP1 PUSH1 0x20 ADD DUP1 DUP4 GT PUSH2 0x2AF JUMPI DUP3 SWAP1 SUB PUSH1 0x1F AND DUP3 ADD SWAP2 JUMPDEST POP POP POP POP POP DUP2 MSTORE PUSH1 0x20 ADD PUSH1 0x2 DUP3 ADD SLOAD DUP2 MSTORE POP POP SWAP1 POP PUSH0 PUSH1 0x1 SWAP1 POP JUMPDEST PUSH0 DUP1 SLOAD SWAP1 POP DUP2 LT ISZERO PUSH2 0x3FE JUMPI DUP2 PUSH1 0x40 ADD MLOAD PUSH0 DUP3 DUP2 SLOAD DUP2 LT PUSH2 0x30B JUMPI PUSH2 0x30A PUSH2 0xC9F JUMP JUMPDEST JUMPDEST SWAP1 PUSH0 MSTORE PUSH1 0x20 PUSH0 KECCAK256 SWAP1 PUSH1 0x3 MUL ADD PUSH1 0x2 ADD SLOAD LT ISZERO PUSH2 0x3F1 JUMPI PUSH0 DUP2 DUP2 SLOAD DUP2 LT PUSH2 0x334 JUMPI PUSH2 0x333 PUSH2 0xC9F JUMP JUMPDEST JUMPDEST SWAP1 PUSH0 MSTORE PUSH1 0x20 PUSH0 KECCAK256 SWAP1 PUSH1 0x3 MUL ADD PUSH1 0x40 MLOAD DUP1 PUSH1 0x60 ADD PUSH1 0x40 MSTORE SWAP1 DUP2 PUSH0 DUP3 ADD SLOAD DUP2 MSTORE PUSH1 0x20 ADD PUSH1 0x1 DUP3 ADD DUP1 SLOAD PUSH2 0x364 SWAP1 PUSH2 0xD59 JUMP JUMPDEST DUP1 PUSH1 0x1F ADD PUSH1 0x20 DUP1 SWAP2 DIV MUL PUSH1 0x20 ADD PUSH1 0x40 MLOAD SWAP1 DUP2 ADD PUSH1 0x40 MSTORE DUP1 SWAP3 SWAP2 SWAP1 DUP2 DUP2 MSTORE PUSH1 0x20 ADD DUP3 DUP1 SLOAD PUSH2 0x390 SWAP1 PUSH2 0xD59 JUMP JUMPDEST DUP1 ISZERO PUSH2 0x3DB JUMPI DUP1 PUSH1 0x1F LT PUSH2 0x3B2 JUMPI PUSH2 0x100 DUP1 DUP4 SLOAD DIV MUL DUP4 MSTORE SWAP2 PUSH1 0x20 ADD SWAP2 PUSH2 0x3DB JUMP JUMPDEST DUP3 ADD SWAP2 SWAP1 PUSH0 MSTORE PUSH1 0x20 PUSH0 KECCAK256 SWAP1 JUMPDEST DUP2 SLOAD DUP2 MSTORE SWAP1 PUSH1 0x1 ADD SWAP1 PUSH1 0x20 ADD DUP1 DUP4 GT PUSH2 0x3BE JUMPI DUP3 SWAP1 SUB PUSH1 0x1F AND DUP3 ADD SWAP2 JUMPDEST POP POP POP POP POP DUP2 MSTORE PUSH1 0x20 ADD PUSH1 0x2 DUP3 ADD SLOAD DUP2 MSTORE POP POP SWAP2 POP JUMPDEST DUP1 DUP1 PUSH1 0x1 ADD SWAP2 POP POP PUSH2 0x2E7 JUMP JUMPDEST POP DUP1 SWAP2 POP POP SWAP1 JUMP JUMPDEST PUSH0 PUSH1 0x40 MLOAD DUP1 PUSH1 0x60 ADD PUSH1 0x40 MSTORE DUP1 DUP6 DUP2 MSTORE PUSH1 0x20 ADD DUP5 DUP2 MSTORE PUSH1 0x20 ADD DUP4 DUP2 MSTORE POP SWAP1 DUP1 PUSH1 0x1 DUP2 SLOAD ADD DUP1 DUP3 SSTORE DUP1 SWAP2 POP POP PUSH1 0x1 SWAP1 SUB SWAP1 PUSH0 MSTORE PUSH1 0x20 PUSH0 KECCAK256 SWAP1 PUSH1 0x3 MUL ADD PUSH0 SWAP1 SWAP2 SWAP1 SWAP2 SWAP1 SWAP2 POP PUSH0 DUP3 ADD MLOAD DUP2 PUSH0 ADD SSTORE PUSH1 0x20 DUP3 ADD MLOAD DUP2 PUSH1 0x1 ADD SWAP1 DUP2 PUSH2 0x465 SWAP2 SWAP1 PUSH2 0xF26 JUMP JUMPDEST POP PUSH1 0x40 DUP3 ADD MLOAD DUP2 PUSH1 0x2 ADD SSTORE POP POP POP POP POP JUMP JUMPDEST PUSH2 0x47F PUSH2 0x7C5 JUMP JUMPDEST PUSH0 DUP1 DUP1 SLOAD SWAP1 POP GT PUSH2 0x4C5 JUMPI PUSH1 0x40 MLOAD PUSH32 0x8C379A000000000000000000000000000000000000000000000000000000000 DUP2 MSTORE PUSH1 0x4 ADD PUSH2 0x4BC SWAP1 PUSH2 0xC81 JUMP JUMPDEST PUSH1 0x40 MLOAD DUP1 SWAP2 SUB SWAP1 REVERT JUMPDEST PUSH0 JUMPDEST PUSH0 DUP1 SLOAD SWAP1 POP DUP2 LT ISZERO PUSH2 0x5DD JUMPI DUP3 PUSH0 DUP3 DUP2 SLOAD DUP2 LT PUSH2 0x4E7 JUMPI PUSH2 0x4E6 PUSH2 0xC9F JUMP JUMPDEST JUMPDEST SWAP1 PUSH0 MSTORE PUSH1 0x20 PUSH0 KECCAK256 SWAP1 PUSH1 0x3 MUL ADD PUSH0 ADD SLOAD SUB PUSH2 0x5D0 JUMPI PUSH0 DUP2 DUP2 SLOAD DUP2 LT PUSH2 0x50E JUMPI PUSH2 0x50D PUSH2 0xC9F JUMP JUMPDEST JUMPDEST SWAP1 PUSH0 MSTORE PUSH1 0x20 PUSH0 KECCAK256 SWAP1 PUSH1 0x3 MUL ADD PUSH1 0x40 MLOAD DUP1 PUSH1 0x60 ADD PUSH1 0x40 MSTORE SWAP1 DUP2 PUSH0 DUP3 ADD SLOAD DUP2 MSTORE PUSH1 0x20 ADD PUSH1 0x1 DUP3 ADD DUP1 SLOAD PUSH2 0x53E SWAP1 PUSH2 0xD59 JUMP JUMPDEST DUP1 PUSH1 0x1F ADD PUSH1 0x20 DUP1 SWAP2 DIV MUL PUSH1 0x20 ADD PUSH1 0x40 MLOAD SWAP1 DUP2 ADD PUSH1 0x40 MSTORE DUP1 SWAP3 SWAP2 SWAP1 DUP2 DUP2 MSTORE PUSH1 0x20 ADD DUP3 DUP1 SLOAD PUSH2 0x56A SWAP1 PUSH2 0xD59 JUMP JUMPDEST DUP1 ISZERO PUSH2 0x5B5 JUMPI DUP1 PUSH1 0x1F LT PUSH2 0x58C JUMPI PUSH2 0x100 DUP1 DUP4 SLOAD DIV MUL DUP4 MSTORE SWAP2 PUSH1 0x20 ADD SWAP2 PUSH2 0x5B5 JUMP JUMPDEST DUP3 ADD SWAP2 SWAP1 PUSH0 MSTORE PUSH1 0x20 PUSH0 KECCAK256 SWAP1 JUMPDEST DUP2 SLOAD DUP2 MSTORE SWAP1 PUSH1 0x1 ADD SWAP1 PUSH1 0x20 ADD DUP1 DUP4 GT PUSH2 0x598 JUMPI DUP3 SWAP1 SUB PUSH1 0x1F AND DUP3 ADD SWAP2 JUMPDEST POP POP POP POP POP DUP2 MSTORE PUSH1 0x20 ADD PUSH1 0x2 DUP3 ADD SLOAD DUP2 MSTORE POP POP SWAP2 POP POP PUSH2 0x619 JUMP JUMPDEST DUP1 DUP1 PUSH1 0x1 ADD SWAP2 POP POP PUSH2 0x4C7 JUMP JUMPDEST POP PUSH1 0x40 MLOAD PUSH32 0x8C379A000000000000000000000000000000000000000000000000000000000 DUP2 MSTORE PUSH1 0x4 ADD PUSH2 0x610 SWAP1 PUSH2 0x103F JUMP JUMPDEST PUSH1 0x40 MLOAD DUP1 SWAP2 SUB SWAP1 REVERT JUMPDEST SWAP2 SWAP1 POP JUMP JUMPDEST PUSH0 DUP1 PUSH0 DUP1 SLOAD SWAP1 POP GT PUSH2 0x665 JUMPI PUSH1 0x40 MLOAD PUSH32 0x8C379A000000000000000000000000000000000000000000000000000000000 DUP2 MSTORE PUSH1 0x4 ADD PUSH2 0x65C SWAP1 PUSH2 0xC81 JUMP JUMPDEST PUSH1 0x40 MLOAD DUP1 SWAP2 SUB SWAP1 REVERT JUMPDEST PUSH0 DUP1 SLOAD SWAP1 POP PUSH2 0x672 PUSH2 0x128 JUMP JUMPDEST PUSH2 0x67C SWAP2 SWAP1 PUSH2 0x108A JUMP JUMPDEST SWAP1 POP SWAP1 JUMP JUMPDEST PUSH1 0x60 PUSH0 DUP1 DUP1 SLOAD SWAP1 POP GT PUSH2 0x6C9 JUMPI PUSH1 0x40 MLOAD PUSH32 0x8C379A000000000000000000000000000000000000000000000000000000000 DUP2 MSTORE PUSH1 0x4 ADD PUSH2 0x6C0 SWAP1 PUSH2 0xC81 JUMP JUMPDEST PUSH1 0x40 MLOAD DUP1 SWAP2 SUB SWAP1 REVERT JUMPDEST PUSH0 DUP1 SLOAD DUP1 PUSH1 0x20 MUL PUSH1 0x20 ADD PUSH1 0x40 MLOAD SWAP1 DUP2 ADD PUSH1 0x40 MSTORE DUP1 SWAP3 SWAP2 SWAP1 DUP2 DUP2 MSTORE PUSH1 0x20 ADD PUSH0 SWAP1 JUMPDEST DUP3 DUP3 LT ISZERO PUSH2 0x7BC JUMPI DUP4 DUP3 SWAP1 PUSH0 MSTORE PUSH1 0x20 PUSH0 KECCAK256 SWAP1 PUSH1 0x3 MUL ADD PUSH1 0x40 MLOAD DUP1 PUSH1 0x60 ADD PUSH1 0x40 MSTORE SWAP1 DUP2 PUSH0 DUP3 ADD SLOAD DUP2 MSTORE PUSH1 0x20 ADD PUSH1 0x1 DUP3 ADD DUP1 SLOAD PUSH2 0x723 SWAP1 PUSH2 0xD59 JUMP JUMPDEST DUP1 PUSH1 0x1F ADD PUSH1 0x20 DUP1 SWAP2 DIV MUL PUSH1 0x20 ADD PUSH1 0x40 MLOAD SWAP1 DUP2 ADD PUSH1 0x40 MSTORE DUP1 SWAP3 SWAP2 SWAP1 DUP2 DUP2 MSTORE PUSH1 0x20 ADD DUP3 DUP1 SLOAD PUSH2 0x74F SWAP1 PUSH2 0xD59 JUMP JUMPDEST DUP1 ISZERO PUSH2 0x79A JUMPI DUP1 PUSH1 0x1F LT PUSH2 0x771 JUMPI PUSH2 0x100 DUP1 DUP4 SLOAD DIV MUL DUP4 MSTORE SWAP2 PUSH1 0x20 ADD SWAP2 PUSH2 0x79A JUMP JUMPDEST DUP3 ADD SWAP2 SWAP1 PUSH0 MSTORE PUSH1 0x20 PUSH0 KECCAK256 SWAP1 JUMPDEST DUP2 SLOAD DUP2 MSTORE SWAP1 PUSH1 0x1 ADD SWAP1 PUSH1 0x20 ADD DUP1 DUP4 GT PUSH2 0x77D JUMPI DUP3 SWAP1 SUB PUSH1 0x1F AND DUP3 ADD SWAP2 JUMPDEST POP POP POP POP POP DUP2 MSTORE PUSH1 0x20 ADD PUSH1 0x2 DUP3 ADD SLOAD DUP2 MSTORE POP POP DUP2 MSTORE PUSH1 0x20 ADD SWAP1 PUSH1 0x1 ADD SWAP1 PUSH2 0x6E9 JUMP JUMPDEST POP POP POP POP SWAP1 POP SWAP1 JUMP JUMPDEST PUSH1 0x40 MLOAD DUP1 PUSH1 0x60 ADD PUSH1 0x40 MSTORE DUP1 PUSH0 DUP2 MSTORE PUSH1 0x20 ADD PUSH1 0x60 DUP2 MSTORE PUSH1 0x20 ADD PUSH0 DUP2 MSTORE POP SWAP1 JUMP JUMPDEST PUSH0 DUP2 SWAP1 POP SWAP2 SWAP1 POP JUMP JUMPDEST PUSH2 0x7F6 DUP2 PUSH2 0x7E4 JUMP JUMPDEST DUP3 MSTORE POP POP JUMP JUMPDEST PUSH0 PUSH1 0x20 DUP3 ADD SWAP1 POP PUSH2 0x80F PUSH0 DUP4 ADD DUP5 PUSH2 0x7ED JUMP JUMPDEST SWAP3 SWAP2 POP POP JUMP JUMPDEST PUSH2 0x81E DUP2 PUSH2 0x7E4 JUMP JUMPDEST DUP3 MSTORE POP POP JUMP JUMPDEST PUSH0 DUP2 MLOAD SWAP1 POP SWAP2 SWAP1 POP JUMP JUMPDEST PUSH0 DUP3 DUP3 MSTORE PUSH1 0x20 DUP3 ADD SWAP1 POP SWAP3 SWAP2 POP POP JUMP JUMPDEST DUP3 DUP2 DUP4 MCOPY PUSH0 DUP4 DUP4 ADD MSTORE POP POP POP JUMP JUMPDEST PUSH0 PUSH1 0x1F NOT PUSH1 0x1F DUP4 ADD AND SWAP1 POP SWAP2 SWAP1 POP JUMP JUMPDEST PUSH0 PUSH2 0x866 DUP3 PUSH2 0x824 JUMP JUMPDEST PUSH2 0x870 DUP2 DUP6 PUSH2 0x82E JUMP JUMPDEST SWAP4 POP PUSH2 0x880 DUP2 DUP6 PUSH1 0x20 DUP7 ADD PUSH2 0x83E JUMP JUMPDEST PUSH2 0x889 DUP2 PUSH2 0x84C JUMP JUMPDEST DUP5 ADD SWAP2 POP POP SWAP3 SWAP2 POP POP JUMP JUMPDEST PUSH0 PUSH1 0x60 DUP4 ADD PUSH0 DUP4 ADD MLOAD PUSH2 0x8A9 PUSH0 DUP7 ADD DUP3 PUSH2 0x815 JUMP JUMPDEST POP PUSH1 0x20 DUP4 ADD MLOAD DUP5 DUP3 SUB PUSH1 0x20 DUP7 ADD MSTORE PUSH2 0x8C1 DUP3 DUP3 PUSH2 0x85C JUMP JUMPDEST SWAP2 POP POP PUSH1 0x40 DUP4 ADD MLOAD PUSH2 0x8D6 PUSH1 0x40 DUP7 ADD DUP3 PUSH2 0x815 JUMP JUMPDEST POP DUP1 SWAP2 POP POP SWAP3 SWAP2 POP POP JUMP JUMPDEST PUSH0 PUSH1 0x20 DUP3 ADD SWAP1 POP DUP2 DUP2 SUB PUSH0 DUP4 ADD MSTORE PUSH2 0x8F9 DUP2 DUP5 PUSH2 0x894 JUMP JUMPDEST SWAP1 POP SWAP3 SWAP2 POP POP JUMP JUMPDEST PUSH0 PUSH1 0x40 MLOAD SWAP1 POP SWAP1 JUMP JUMPDEST PUSH0 DUP1 REVERT JUMPDEST PUSH0 DUP1 REVERT JUMPDEST PUSH2 0x91B DUP2 PUSH2 0x7E4 JUMP JUMPDEST DUP2 EQ PUSH2 0x925 JUMPI PUSH0 DUP1 REVERT JUMPDEST POP JUMP JUMPDEST PUSH0 DUP2 CALLDATALOAD SWAP1 POP PUSH2 0x936 DUP2 PUSH2 0x912 JUMP JUMPDEST SWAP3 SWAP2 POP POP JUMP JUMPDEST PUSH0 DUP1 REVERT JUMPDEST PUSH0 DUP1 REVERT JUMPDEST PUSH32 0x4E487B7100000000000000000000000000000000000000000000000000000000 PUSH0 MSTORE PUSH1 0x41 PUSH1 0x4 MSTORE PUSH1 0x24 PUSH0 REVERT JUMPDEST PUSH2 0x97A DUP3 PUSH2 0x84C JUMP JUMPDEST DUP2 ADD DUP2 DUP2 LT PUSH8 0xFFFFFFFFFFFFFFFF DUP3 GT OR ISZERO PUSH2 0x999 JUMPI PUSH2 0x998 PUSH2 0x944 JUMP JUMPDEST JUMPDEST DUP1 PUSH1 0x40 MSTORE POP POP POP JUMP JUMPDEST PUSH0 PUSH2 0x9AB PUSH2 0x901 JUMP JUMPDEST SWAP1 POP PUSH2 0x9B7 DUP3 DUP3 PUSH2 0x971 JUMP JUMPDEST SWAP2 SWAP1 POP JUMP JUMPDEST PUSH0 PUSH8 0xFFFFFFFFFFFFFFFF DUP3 GT ISZERO PUSH2 0x9D6 JUMPI PUSH2 0x9D5 PUSH2 0x944 JUMP JUMPDEST JUMPDEST PUSH2 0x9DF DUP3 PUSH2 0x84C JUMP JUMPDEST SWAP1 POP PUSH1 0x20 DUP2 ADD SWAP1 POP SWAP2 SWAP1 POP JUMP JUMPDEST DUP3 DUP2 DUP4 CALLDATACOPY PUSH0 DUP4 DUP4 ADD MSTORE POP POP POP JUMP JUMPDEST PUSH0 PUSH2 0xA0C PUSH2 0xA07 DUP5 PUSH2 0x9BC JUMP JUMPDEST PUSH2 0x9A2 JUMP JUMPDEST SWAP1 POP DUP3 DUP2 MSTORE PUSH1 0x20 DUP2 ADD DUP5 DUP5 DUP5 ADD GT ISZERO PUSH2 0xA28 JUMPI PUSH2 0xA27 PUSH2 0x940 JUMP JUMPDEST JUMPDEST PUSH2 0xA33 DUP5 DUP3 DUP6 PUSH2 0x9EC JUMP JUMPDEST POP SWAP4 SWAP3 POP POP POP JUMP JUMPDEST PUSH0 DUP3 PUSH1 0x1F DUP4 ADD SLT PUSH2 0xA4F JUMPI PUSH2 0xA4E PUSH2 0x93C JUMP JUMPDEST JUMPDEST DUP2 CALLDATALOAD PUSH2 0xA5F DUP5 DUP3 PUSH1 0x20 DUP7 ADD PUSH2 0x9FA JUMP JUMPDEST SWAP2 POP POP SWAP3 SWAP2 POP POP JUMP JUMPDEST PUSH0 DUP1 PUSH0 PUSH1 0x60 DUP5 DUP7 SUB SLT ISZERO PUSH2 0xA7F JUMPI PUSH2 0xA7E PUSH2 0x90A JUMP JUMPDEST JUMPDEST PUSH0 PUSH2 0xA8C DUP7 DUP3 DUP8 ADD PUSH2 0x928 JUMP JUMPDEST SWAP4 POP POP PUSH1 0x20 DUP5 ADD CALLDATALOAD PUSH8 0xFFFFFFFFFFFFFFFF DUP2 GT ISZERO PUSH2 0xAAD JUMPI PUSH2 0xAAC PUSH2 0x90E JUMP JUMPDEST JUMPDEST PUSH2 0xAB9 DUP7 DUP3 DUP8 ADD PUSH2 0xA3B JUMP JUMPDEST SWAP3 POP POP PUSH1 0x40 PUSH2 0xACA DUP7 DUP3 DUP8 ADD PUSH2 0x928 JUMP JUMPDEST SWAP2 POP POP SWAP3 POP SWAP3 POP SWAP3 JUMP JUMPDEST PUSH0 PUSH1 0x20 DUP3 DUP5 SUB SLT ISZERO PUSH2 0xAE9 JUMPI PUSH2 0xAE8 PUSH2 0x90A JUMP JUMPDEST JUMPDEST PUSH0 PUSH2 0xAF6 DUP5 DUP3 DUP6 ADD PUSH2 0x928 JUMP JUMPDEST SWAP2 POP POP SWAP3 SWAP2 POP POP JUMP JUMPDEST PUSH0 DUP2 MLOAD SWAP1 POP SWAP2 SWAP1 POP JUMP JUMPDEST PUSH0 DUP3 DUP3 MSTORE PUSH1 0x20 DUP3 ADD SWAP1 POP SWAP3 SWAP2 POP POP JUMP JUMPDEST PUSH0 DUP2 SWAP1 POP PUSH1 0x20 DUP3 ADD SWAP1 POP SWAP2 SWAP1 POP JUMP JUMPDEST PUSH0 PUSH1 0x60 DUP4 ADD PUSH0 DUP4 ADD MLOAD PUSH2 0xB3D PUSH0 DUP7 ADD DUP3 PUSH2 0x815 JUMP JUMPDEST POP PUSH1 0x20 DUP4 ADD MLOAD DUP5 DUP3 SUB PUSH1 0x20 DUP7 ADD MSTORE PUSH2 0xB55 DUP3 DUP3 PUSH2 0x85C JUMP JUMPDEST SWAP2 POP POP PUSH1 0x40 DUP4 ADD MLOAD PUSH2 0xB6A PUSH1 0x40 DUP7 ADD DUP3 PUSH2 0x815 JUMP JUMPDEST POP DUP1 SWAP2 POP POP SWAP3 SWAP2 POP POP JUMP JUMPDEST PUSH0 PUSH2 0xB80 DUP4 DUP4 PUSH2 0xB28 JUMP JUMPDEST SWAP1 POP SWAP3 SWAP2 POP POP JUMP JUMPDEST PUSH0 PUSH1 0x20 DUP3 ADD SWAP1 POP SWAP2 SWAP1 POP JUMP JUMPDEST PUSH0 PUSH2 0xB9E DUP3 PUSH2 0xAFF JUMP JUMPDEST PUSH2 0xBA8 DUP2 DUP6 PUSH2 0xB09 JUMP JUMPDEST SWAP4 POP DUP4 PUSH1 0x20 DUP3 MUL DUP6 ADD PUSH2 0xBBA DUP6 PUSH2 0xB19 JUMP JUMPDEST DUP1 PUSH0 JUMPDEST DUP6 DUP2 LT ISZERO PUSH2 0xBF5 JUMPI DUP5 DUP5 SUB DUP10 MSTORE DUP2 MLOAD PUSH2 0xBD6 DUP6 DUP3 PUSH2 0xB75 JUMP JUMPDEST SWAP5 POP PUSH2 0xBE1 DUP4 PUSH2 0xB88 JUMP JUMPDEST SWAP3 POP PUSH1 0x20 DUP11 ADD SWAP10 POP POP PUSH1 0x1 DUP2 ADD SWAP1 POP PUSH2 0xBBD JUMP JUMPDEST POP DUP3 SWAP8 POP DUP8 SWAP6 POP POP POP POP POP POP SWAP3 SWAP2 POP POP JUMP JUMPDEST PUSH0 PUSH1 0x20 DUP3 ADD SWAP1 POP DUP2 DUP2 SUB PUSH0 DUP4 ADD MSTORE PUSH2 0xC1F DUP2 DUP5 PUSH2 0xB94 JUMP JUMPDEST SWAP1 POP SWAP3 SWAP2 POP POP JUMP JUMPDEST PUSH0 DUP3 DUP3 MSTORE PUSH1 0x20 DUP3 ADD SWAP1 POP SWAP3 SWAP2 POP POP JUMP JUMPDEST PUSH32 0x4E6F2073747564656E747320617661696C61626C650000000000000000000000 PUSH0 DUP3 ADD MSTORE POP JUMP JUMPDEST PUSH0 PUSH2 0xC6B PUSH1 0x15 DUP4 PUSH2 0xC27 JUMP JUMPDEST SWAP2 POP PUSH2 0xC76 DUP3 PUSH2 0xC37 JUMP JUMPDEST PUSH1 0x20 DUP3 ADD SWAP1 POP SWAP2 SWAP1 POP JUMP JUMPDEST PUSH0 PUSH1 0x20 DUP3 ADD SWAP1 POP DUP2 DUP2 SUB PUSH0 DUP4 ADD MSTORE PUSH2 0xC98 DUP2 PUSH2 0xC5F JUMP JUMPDEST SWAP1 POP SWAP2 SWAP1 POP JUMP JUMPDEST PUSH32 0x4E487B7100000000000000000000000000000000000000000000000000000000 PUSH0 MSTORE PUSH1 0x32 PUSH1 0x4 MSTORE PUSH1 0x24 PUSH0 REVERT JUMPDEST PUSH32 0x4E487B7100000000000000000000000000000000000000000000000000000000 PUSH0 MSTORE PUSH1 0x11 PUSH1 0x4 MSTORE PUSH1 0x24 PUSH0 REVERT JUMPDEST PUSH0 PUSH2 0xD03 DUP3 PUSH2 0x7E4 JUMP JUMPDEST SWAP2 POP PUSH2 0xD0E DUP4 PUSH2 0x7E4 JUMP JUMPDEST SWAP3 POP DUP3 DUP3 ADD SWAP1 POP DUP1 DUP3 GT ISZERO PUSH2 0xD26 JUMPI PUSH2 0xD25 PUSH2 0xCCC JUMP JUMPDEST JUMPDEST SWAP3 SWAP2 POP POP JUMP JUMPDEST PUSH32 0x4E487B7100000000000000000000000000000000000000000000000000000000 PUSH0 MSTORE PUSH1 0x22 PUSH1 0x4 MSTORE PUSH1 0x24 PUSH0 REVERT JUMPDEST PUSH0 PUSH1 0x2 DUP3 DIV SWAP1 POP PUSH1 0x1 DUP3 AND DUP1 PUSH2 0xD70 JUMPI PUSH1 0x7F DUP3 AND SWAP2 POP JUMPDEST PUSH1 0x20 DUP3 LT DUP2 SUB PUSH2 0xD83 JUMPI PUSH2 0xD82 PUSH2 0xD2C JUMP JUMPDEST JUMPDEST POP SWAP2 SWAP1 POP JUMP JUMPDEST PUSH0 DUP2 SWAP1 POP DUP2 PUSH0 MSTORE PUSH1 0x20 PUSH0 KECCAK256 SWAP1 POP SWAP2 SWAP1 POP JUMP JUMPDEST PUSH0 PUSH1 0x20 PUSH1 0x1F DUP4 ADD DIV SWAP1 POP SWAP2 SWAP1 POP JUMP JUMPDEST PUSH0 DUP3 DUP3 SHL SWAP1 POP SWAP3 SWAP2 POP POP JUMP JUMPDEST PUSH0 PUSH1 0x8 DUP4 MUL PUSH2 0xDE5 PUSH32 0xFFFFFFFFFFFFFFFFFFFFFFFFFFFFFFFFFFFFFFFFFFFFFFFFFFFFFFFFFFFFFFFF DUP3 PUSH2 0xDAA JUMP JUMPDEST PUSH2 0xDEF DUP7 DUP4 PUSH2 0xDAA JUMP JUMPDEST SWAP6 POP DUP1 NOT DUP5 AND SWAP4 POP DUP1 DUP7 AND DUP5 OR SWAP3 POP POP POP SWAP4 SWAP3 POP POP POP JUMP JUMPDEST PUSH0 DUP2 SWAP1 POP SWAP2 SWAP1 POP JUMP JUMPDEST PUSH0 PUSH2 0xE2A PUSH2 0xE25 PUSH2 0xE20 DUP5 PUSH2 0x7E4 JUMP JUMPDEST PUSH2 0xE07 JUMP JUMPDEST PUSH2 0x7E4 JUMP JUMPDEST SWAP1 POP SWAP2 SWAP1 POP JUMP JUMPDEST PUSH0 DUP2 SWAP1 POP SWAP2 SWAP1 POP JUMP JUMPDEST PUSH2 0xE43 DUP4 PUSH2 0xE10 JUMP JUMPDEST PUSH2 0xE57 PUSH2 0xE4F DUP3 PUSH2 0xE31 JUMP JUMPDEST DUP5 DUP5 SLOAD PUSH2 0xDB6 JUMP JUMPDEST DUP3 SSTORE POP POP POP POP JUMP JUMPDEST PUSH0 SWAP1 JUMP JUMPDEST PUSH2 0xE6B PUSH2 0xE5F JUMP JUMPDEST PUSH2 0xE76 DUP2 DUP5 DUP5 PUSH2 0xE3A JUMP JUMPDEST POP POP POP JUMP JUMPDEST JUMPDEST DUP2 DUP2 LT ISZERO PUSH2 0xE99 JUMPI PUSH2 0xE8E PUSH0 DUP3 PUSH2 0xE63 JUMP JUMPDEST PUSH1 0x1 DUP2 ADD SWAP1 POP PUSH2 0xE7C JUMP JUMPDEST POP POP JUMP JUMPDEST PUSH1 0x1F DUP3 GT ISZERO PUSH2 0xEDE JUMPI PUSH2 0xEAF DUP2 PUSH2 0xD89 JUMP JUMPDEST PUSH2 0xEB8 DUP5 PUSH2 0xD9B JUMP JUMPDEST DUP2 ADD PUSH1 0x20 DUP6 LT ISZERO PUSH2 0xEC7 JUMPI DUP2 SWAP1 POP JUMPDEST PUSH2 0xEDB PUSH2 0xED3 DUP6 PUSH2 0xD9B JUMP JUMPDEST DUP4 ADD DUP3 PUSH2 0xE7B JUMP JUMPDEST POP POP JUMPDEST POP POP POP JUMP JUMPDEST PUSH0 DUP3 DUP3 SHR SWAP1 POP SWAP3 SWAP2 POP POP JUMP JUMPDEST PUSH0 PUSH2 0xEFE PUSH0 NOT DUP5 PUSH1 0x8 MUL PUSH2 0xEE3 JUMP JUMPDEST NOT DUP1 DUP4 AND SWAP2 POP POP SWAP3 SWAP2 POP POP JUMP JUMPDEST PUSH0 PUSH2 0xF16 DUP4 DUP4 PUSH2 0xEEF JUMP JUMPDEST SWAP2 POP DUP3 PUSH1 0x2 MUL DUP3 OR SWAP1 POP SWAP3 SWAP2 POP POP JUMP JUMPDEST PUSH2 0xF2F DUP3 PUSH2 0x824 JUMP JUMPDEST PUSH8 0xFFFFFFFFFFFFFFFF DUP2 GT ISZERO PUSH2 0xF48 JUMPI PUSH2 0xF47 PUSH2 0x944 JUMP JUMPDEST JUMPDEST PUSH2 0xF52 DUP3 SLOAD PUSH2 0xD59 JUMP JUMPDEST PUSH2 0xF5D DUP3 DUP3 DUP6 PUSH2 0xE9D JUMP JUMPDEST PUSH0 PUSH1 0x20 SWAP1 POP PUSH1 0x1F DUP4 GT PUSH1 0x1 DUP2 EQ PUSH2 0xF8E JUMPI PUSH0 DUP5 ISZERO PUSH2 0xF7C JUMPI DUP3 DUP8 ADD MLOAD SWAP1 POP JUMPDEST PUSH2 0xF86 DUP6 DUP3 PUSH2 0xF0B JUMP JUMPDEST DUP7 SSTORE POP PUSH2 0xFED JUMP JUMPDEST PUSH1 0x1F NOT DUP5 AND PUSH2 0xF9C DUP7 PUSH2 0xD89 JUMP JUMPDEST PUSH0 JUMPDEST DUP3 DUP2 LT ISZERO PUSH2 0xFC3 JUMPI DUP5 DUP10 ADD MLOAD DUP3 SSTORE PUSH1 0x1 DUP3 ADD SWAP2 POP PUSH1 0x20 DUP6 ADD SWAP5 POP PUSH1 0x20 DUP2 ADD SWAP1 POP PUSH2 0xF9E JUMP JUMPDEST DUP7 DUP4 LT ISZERO PUSH2 0xFE0 JUMPI DUP5 DUP10 ADD MLOAD PUSH2 0xFDC PUSH1 0x1F DUP10 AND DUP3 PUSH2 0xEEF JUMP JUMPDEST DUP4 SSTORE POP JUMPDEST PUSH1 0x1 PUSH1 0x2 DUP9 MUL ADD DUP9 SSTORE POP POP POP JUMPDEST POP POP POP POP POP POP JUMP JUMPDEST PUSH32 0x53747564656E74206E6F7420666F756E64000000000000000000000000000000 PUSH0 DUP3 ADD MSTORE POP JUMP JUMPDEST PUSH0 PUSH2 0x1029 PUSH1 0x11 DUP4 PUSH2 0xC27 JUMP JUMPDEST SWAP2 POP PUSH2 0x1034 DUP3 PUSH2 0xFF5 JUMP JUMPDEST PUSH1 0x20 DUP3 ADD SWAP1 POP SWAP2 SWAP1 POP JUMP JUMPDEST PUSH0 PUSH1 0x20 DUP3 ADD SWAP1 POP DUP2 DUP2 SUB PUSH0 DUP4 ADD MSTORE PUSH2 0x1056 DUP2 PUSH2 0x101D JUMP JUMPDEST SWAP1 POP SWAP2 SWAP1 POP JUMP JUMPDEST PUSH32 0x4E487B7100000000000000000000000000000000000000000000000000000000 PUSH0 MSTORE PUSH1 0x12 PUSH1 0x4 MSTORE PUSH1 0x24 PUSH0 REVERT JUMPDEST PUSH0 PUSH2 0x1094 DUP3 PUSH2 0x7E4 JUMP JUMPDEST SWAP2 POP PUSH2 0x109F DUP4 PUSH2 0x7E4 JUMP JUMPDEST SWAP3 POP DUP3 PUSH2 0x10AF JUMPI PUSH2 0x10AE PUSH2 0x105D JUMP JUMPDEST JUMPDEST DUP3 DUP3 DIV SWAP1 POP SWAP3 SWAP2 POP POP JUMP INVALID LOG2 PUSH5 0x6970667358 0x22 SLT KECCAK256 DUP13 SWAP6 EXTCODESIZE 0xF6 BALANCE 0xC5 OR DELEGATECALL SELFBALANCE SWAP14 PUSH0 0x2C 0xFC 0xF8 0xE7 PUSH16 0x7FFC8AE235E136B6D428E6F32E2AA91 PUSH5 0x736F6C6343 STOP ADDMOD BYTE STOP CALLER "
				},
				"gasEstimates": {
					"creation": {
						"codeDepositCost": "867200",
						"executionCost": "901",
						"totalCost": "868101"
					},
					"external": {
						"addStudent(uint256,string,uint256)": "infinite",
						"getAllStudents()": "infinite",
						"getAverageScore()": "infinite",
						"getLowestScoreStudent()": "infinite",
						"getStudentById(uint256)": "infinite",
						"getTotalScore()": "infinite"
					}
				},
				"methodIdentifiers": {
					"addStudent(uint256,string,uint256)": "c1bea1db",
					"getAllStudents()": "e9e30927",
					"getAverageScore()": "df72cdbf",
					"getLowestScoreStudent()": "77dfe54e",
					"getStudentById(uint256)": "c8fb0793",
					"getTotalScore()": "2011cdae"
				}
			},
			"storageLayout": {
				"storage": [
					{
						"astId": 12,
						"contract": "codingtest/codingtest_250102.sol:StudentScoreManager",
						"label": "students",
						"offset": 0,
						"slot": "0",
						"type": "t_array(t_struct(Student)8_storage)dyn_storage"
					}
				],
				"types": {
					"t_array(t_struct(Student)8_storage)dyn_storage": {
						"base": "t_struct(Student)8_storage",
						"encoding": "dynamic_array",
						"label": "struct StudentScoreManager.Student[]",
						"numberOfBytes": "32"
					},
					"t_string_storage": {
						"encoding": "bytes",
						"label": "string",
						"numberOfBytes": "32"
					},
					"t_struct(Student)8_storage": {
						"encoding": "inplace",
						"label": "struct StudentScoreManager.Student",
						"members": [
							{
								"astId": 3,
								"contract": "codingtest/codingtest_250102.sol:StudentScoreManager",
								"label": "id",
								"offset": 0,
								"slot": "0",
								"type": "t_uint256"
							},
							{
								"astId": 5,
								"contract": "codingtest/codingtest_250102.sol:StudentScoreManager",
								"label": "name",
								"offset": 0,
								"slot": "1",
								"type": "t_string_storage"
							},
							{
								"astId": 7,
								"contract": "codingtest/codingtest_250102.sol:StudentScoreManager",
								"label": "score",
								"offset": 0,
								"slot": "2",
								"type": "t_uint256"
							}
						],
						"numberOfBytes": "96"
					},
					"t_uint256": {
						"encoding": "inplace",
						"label": "uint256",
						"numberOfBytes": "32"
					}
				}
			},
			"userdoc": {
				"kind": "user",
				"methods": {},
				"version": 1
			}
		}
	}
}