{
	"codingtest/codingtest_241231.sol": {
		"TEACHER": {
			"abi": [
				{
					"inputs": [
						{
							"internalType": "string",
							"name": "name",
							"type": "string"
						},
						{
							"internalType": "uint256",
							"name": "number",
							"type": "uint256"
						},
						{
							"internalType": "uint256",
							"name": "score",
							"type": "uint256"
						},
						{
							"internalType": "string[]",
							"name": "classes",
							"type": "string[]"
						}
					],
					"name": "addStudent",
					"outputs": [],
					"stateMutability": "nonpayable",
					"type": "function"
				},
				{
					"inputs": [],
					"name": "evaluateTeacher",
					"outputs": [
						{
							"internalType": "bool",
							"name": "",
							"type": "bool"
						}
					],
					"stateMutability": "view",
					"type": "function"
				},
				{
					"inputs": [
						{
							"internalType": "string",
							"name": "_name",
							"type": "string"
						}
					],
					"name": "findStudentByName",
					"outputs": [
						{
							"components": [
								{
									"internalType": "string",
									"name": "name",
									"type": "string"
								},
								{
									"internalType": "uint256",
									"name": "number",
									"type": "uint256"
								},
								{
									"internalType": "uint256",
									"name": "score",
									"type": "uint256"
								},
								{
									"internalType": "string",
									"name": "grade",
									"type": "string"
								},
								{
									"internalType": "string[]",
									"name": "classes",
									"type": "string[]"
								}
							],
							"internalType": "struct TEACHER.STUDENT",
							"name": "",
							"type": "tuple"
						}
					],
					"stateMutability": "view",
					"type": "function"
				},
				{
					"inputs": [
						{
							"internalType": "uint256",
							"name": "_number",
							"type": "uint256"
						}
					],
					"name": "findStudentByNumber",
					"outputs": [
						{
							"components": [
								{
									"internalType": "string",
									"name": "name",
									"type": "string"
								},
								{
									"internalType": "uint256",
									"name": "number",
									"type": "uint256"
								},
								{
									"internalType": "uint256",
									"name": "score",
									"type": "uint256"
								},
								{
									"internalType": "string",
									"name": "grade",
									"type": "string"
								},
								{
									"internalType": "string[]",
									"name": "classes",
									"type": "string[]"
								}
							],
							"internalType": "struct TEACHER.STUDENT",
							"name": "",
							"type": "tuple"
						}
					],
					"stateMutability": "view",
					"type": "function"
				},
				{
					"inputs": [
						{
							"internalType": "string",
							"name": "_name",
							"type": "string"
						}
					],
					"name": "findStudentScoerByName",
					"outputs": [
						{
							"internalType": "uint256",
							"name": "",
							"type": "uint256"
						}
					],
					"stateMutability": "view",
					"type": "function"
				},
				{
					"inputs": [],
					"name": "getAllStudents",
					"outputs": [
						{
							"components": [
								{
									"internalType": "string",
									"name": "name",
									"type": "string"
								},
								{
									"internalType": "uint256",
									"name": "number",
									"type": "uint256"
								},
								{
									"internalType": "uint256",
									"name": "score",
									"type": "uint256"
								},
								{
									"internalType": "string",
									"name": "grade",
									"type": "string"
								},
								{
									"internalType": "string[]",
									"name": "classes",
									"type": "string[]"
								}
							],
							"internalType": "struct TEACHER.STUDENT[]",
							"name": "",
							"type": "tuple[]"
						}
					],
					"stateMutability": "view",
					"type": "function"
				},
				{
					"inputs": [],
					"name": "getAllStudentsNumber",
					"outputs": [
						{
							"internalType": "uint256[]",
							"name": "",
							"type": "uint256[]"
						}
					],
					"stateMutability": "view",
					"type": "function"
				},
				{
					"inputs": [],
					"name": "getFStudents",
					"outputs": [
						{
							"components": [
								{
									"internalType": "string",
									"name": "name",
									"type": "string"
								},
								{
									"internalType": "uint256",
									"name": "number",
									"type": "uint256"
								},
								{
									"internalType": "uint256",
									"name": "score",
									"type": "uint256"
								},
								{
									"internalType": "string",
									"name": "grade",
									"type": "string"
								},
								{
									"internalType": "string[]",
									"name": "classes",
									"type": "string[]"
								}
							],
							"internalType": "struct TEACHER.STUDENT[]",
							"name": "",
							"type": "tuple[]"
						}
					],
					"stateMutability": "view",
					"type": "function"
				},
				{
					"inputs": [],
					"name": "getSStudents",
					"outputs": [
						{
							"components": [
								{
									"internalType": "string",
									"name": "name",
									"type": "string"
								},
								{
									"internalType": "uint256",
									"name": "number",
									"type": "uint256"
								},
								{
									"internalType": "uint256",
									"name": "score",
									"type": "uint256"
								},
								{
									"internalType": "string",
									"name": "grade",
									"type": "string"
								},
								{
									"internalType": "string[]",
									"name": "classes",
									"type": "string[]"
								}
							],
							"internalType": "struct TEACHER.STUDENT[]",
							"name": "",
							"type": "tuple[]"
						}
					],
					"stateMutability": "view",
					"type": "function"
				},
				{
					"inputs": [],
					"name": "getScoreAVG",
					"outputs": [
						{
							"internalType": "uint256",
							"name": "",
							"type": "uint256"
						}
					],
					"stateMutability": "view",
					"type": "function"
				},
				{
					"inputs": [
						{
							"internalType": "uint256",
							"name": "",
							"type": "uint256"
						}
					],
					"name": "students",
					"outputs": [
						{
							"internalType": "string",
							"name": "name",
							"type": "string"
						},
						{
							"internalType": "uint256",
							"name": "number",
							"type": "uint256"
						},
						{
							"internalType": "uint256",
							"name": "score",
							"type": "uint256"
						},
						{
							"internalType": "string",
							"name": "grade",
							"type": "string"
						}
					],
					"stateMutability": "view",
					"type": "function"
				}
			],
			"devdoc": {
				"kind": "dev",
				"methods": {},
				"version": 1
			},
			"evm": {
				"assembly": "    /* \"codingtest/codingtest_241231.sol\":70:5178  contract TEACHER {... */\n  mstore(0x40, 0x80)\n  callvalue\n  dup1\n  iszero\n  tag_1\n  jumpi\n  0x00\n  dup1\n  revert\ntag_1:\n  pop\n  dataSize(sub_0)\n  dup1\n  dataOffset(sub_0)\n  0x00\n  codecopy\n  0x00\n  return\nstop\n\nsub_0: assembly {\n        /* \"codingtest/codingtest_241231.sol\":70:5178  contract TEACHER {... */\n      mstore(0x40, 0x80)\n      callvalue\n      dup1\n      iszero\n      tag_1\n      jumpi\n      0x00\n      dup1\n      revert\n    tag_1:\n      pop\n      jumpi(tag_2, lt(calldatasize, 0x04))\n      shr(0xe0, calldataload(0x00))\n      dup1\n      0xa13a1c13\n      gt\n      tag_14\n      jumpi\n      dup1\n      0xa13a1c13\n      eq\n      tag_8\n      jumpi\n      dup1\n      0xa4545c0d\n      eq\n      tag_9\n      jumpi\n      dup1\n      0xd73ce6c1\n      eq\n      tag_10\n      jumpi\n      dup1\n      0xe9e30927\n      eq\n      tag_11\n      jumpi\n      dup1\n      0xec08df36\n      eq\n      tag_12\n      jumpi\n      dup1\n      0xf8c8dee8\n      eq\n      tag_13\n      jumpi\n      jump(tag_2)\n    tag_14:\n      dup1\n      0x06ead22e\n      eq\n      tag_3\n      jumpi\n      dup1\n      0x27f7c259\n      eq\n      tag_4\n      jumpi\n      dup1\n      0x3a0202ab\n      eq\n      tag_5\n      jumpi\n      dup1\n      0x3c51cdca\n      eq\n      tag_6\n      jumpi\n      dup1\n      0x98463c74\n      eq\n      tag_7\n      jumpi\n    tag_2:\n      0x00\n      dup1\n      revert\n        /* \"codingtest/codingtest_241231.sol\":237:262  STUDENT[] public students */\n    tag_3:\n      tag_15\n      0x04\n      dup1\n      calldatasize\n      sub\n      dup2\n      add\n      swap1\n      tag_16\n      swap2\n      swap1\n      tag_17\n      jump\t// in\n    tag_16:\n      tag_18\n      jump\t// in\n    tag_15:\n      mload(0x40)\n      tag_19\n      swap5\n      swap4\n      swap3\n      swap2\n      swap1\n      tag_20\n      jump\t// in\n    tag_19:\n      mload(0x40)\n      dup1\n      swap2\n      sub\n      swap1\n      return\n        /* \"codingtest/codingtest_241231.sol\":3059:3233  function evaluateTeacher() public view returns (bool) {... */\n    tag_4:\n      tag_21\n      tag_22\n      jump\t// in\n    tag_21:\n      mload(0x40)\n      tag_23\n      swap2\n      swap1\n      tag_24\n      jump\t// in\n    tag_23:\n      mload(0x40)\n      dup1\n      swap2\n      sub\n      swap1\n      return\n        /* \"codingtest/codingtest_241231.sol\":1787:2263  function findStudentScoerByName(string memory _name)... */\n    tag_5:\n      tag_25\n      0x04\n      dup1\n      calldatasize\n      sub\n      dup2\n      add\n      swap1\n      tag_26\n      swap2\n      swap1\n      tag_27\n      jump\t// in\n    tag_26:\n      tag_28\n      jump\t// in\n    tag_25:\n      mload(0x40)\n      tag_29\n      swap2\n      swap1\n      tag_30\n      jump\t// in\n    tag_29:\n      mload(0x40)\n      dup1\n      swap2\n      sub\n      swap1\n      return\n        /* \"codingtest/codingtest_241231.sol\":4628:5176  function getSStudents() public view returns (STUDENT[] memory) {... */\n    tag_6:\n      tag_31\n      tag_32\n      jump\t// in\n    tag_31:\n      mload(0x40)\n      tag_33\n      swap2\n      swap1\n      tag_34\n      jump\t// in\n    tag_33:\n      mload(0x40)\n      dup1\n      swap2\n      sub\n      swap1\n      return\n        /* \"codingtest/codingtest_241231.sol\":3620:4061  function getFStudents() public view returns (STUDENT[] memory) {... */\n    tag_7:\n      tag_35\n      tag_36\n      jump\t// in\n    tag_35:\n      mload(0x40)\n      tag_37\n      swap2\n      swap1\n      tag_34\n      jump\t// in\n    tag_37:\n      mload(0x40)\n      dup1\n      swap2\n      sub\n      swap1\n      return\n        /* \"codingtest/codingtest_241231.sol\":939:1303  function findStudentByNumber(uint256 _number)... */\n    tag_8:\n      tag_38\n      0x04\n      dup1\n      calldatasize\n      sub\n      dup2\n      add\n      swap1\n      tag_39\n      swap2\n      swap1\n      tag_17\n      jump\t// in\n    tag_39:\n      tag_40\n      jump\t// in\n    tag_38:\n      mload(0x40)\n      tag_41\n      swap2\n      swap1\n      tag_42\n      jump\t// in\n    tag_41:\n      mload(0x40)\n      dup1\n      swap2\n      sub\n      swap1\n      return\n        /* \"codingtest/codingtest_241231.sol\":663:933  function addStudent(... */\n    tag_9:\n      tag_43\n      0x04\n      dup1\n      calldatasize\n      sub\n      dup2\n      add\n      swap1\n      tag_44\n      swap2\n      swap1\n      tag_45\n      jump\t// in\n    tag_44:\n      tag_46\n      jump\t// in\n    tag_43:\n      stop\n        /* \"codingtest/codingtest_241231.sol\":1309:1781  function findStudentByName(string memory _name)... */\n    tag_10:\n      tag_47\n      0x04\n      dup1\n      calldatasize\n      sub\n      dup2\n      add\n      swap1\n      tag_48\n      swap2\n      swap1\n      tag_27\n      jump\t// in\n    tag_48:\n      tag_49\n      jump\t// in\n    tag_47:\n      mload(0x40)\n      tag_50\n      swap2\n      swap1\n      tag_42\n      jump\t// in\n    tag_50:\n      mload(0x40)\n      dup1\n      swap2\n      sub\n      swap1\n      return\n        /* \"codingtest/codingtest_241231.sol\":2552:2816  function getAllStudents() public view returns (STUDENT[] memory) {... */\n    tag_11:\n      tag_51\n      tag_52\n      jump\t// in\n    tag_51:\n      mload(0x40)\n      tag_53\n      swap2\n      swap1\n      tag_34\n      jump\t// in\n    tag_53:\n      mload(0x40)\n      dup1\n      swap2\n      sub\n      swap1\n      return\n        /* \"codingtest/codingtest_241231.sol\":2269:2546  function getAllStudentsNumber() public view returns (uint256[] memory) {... */\n    tag_12:\n      tag_54\n      tag_55\n      jump\t// in\n    tag_54:\n      mload(0x40)\n      tag_56\n      swap2\n      swap1\n      tag_57\n      jump\t// in\n    tag_56:\n      mload(0x40)\n      dup1\n      swap2\n      sub\n      swap1\n      return\n        /* \"codingtest/codingtest_241231.sol\":2822:3053  function getScoreAVG() public view returns (uint256) {... */\n    tag_13:\n      tag_58\n      tag_59\n      jump\t// in\n    tag_58:\n      mload(0x40)\n      tag_60\n      swap2\n      swap1\n      tag_30\n      jump\t// in\n    tag_60:\n      mload(0x40)\n      dup1\n      swap2\n      sub\n      swap1\n      return\n        /* \"codingtest/codingtest_241231.sol\":237:262  STUDENT[] public students */\n    tag_18:\n      0x00\n      dup2\n      dup2\n      sload\n      dup2\n      lt\n      tag_61\n      jumpi\n      0x00\n      dup1\n      revert\n    tag_61:\n      swap1\n      0x00\n      mstore\n      keccak256(0x00, 0x20)\n      swap1\n      0x05\n      mul\n      add\n      0x00\n      swap2\n      pop\n      swap1\n      pop\n      dup1\n      0x00\n      add\n      dup1\n      sload\n      tag_63\n      swap1\n      tag_64\n      jump\t// in\n    tag_63:\n      dup1\n      0x1f\n      add\n      0x20\n      dup1\n      swap2\n      div\n      mul\n      0x20\n      add\n      mload(0x40)\n      swap1\n      dup2\n      add\n      0x40\n      mstore\n      dup1\n      swap3\n      swap2\n      swap1\n      dup2\n      dup2\n      mstore\n      0x20\n      add\n      dup3\n      dup1\n      sload\n      tag_65\n      swap1\n      tag_64\n      jump\t// in\n    tag_65:\n      dup1\n      iszero\n      tag_66\n      jumpi\n      dup1\n      0x1f\n      lt\n      tag_67\n      jumpi\n      0x0100\n      dup1\n      dup4\n      sload\n      div\n      mul\n      dup4\n      mstore\n      swap2\n      0x20\n      add\n      swap2\n      jump(tag_66)\n    tag_67:\n      dup3\n      add\n      swap2\n      swap1\n      0x00\n      mstore\n      keccak256(0x00, 0x20)\n      swap1\n    tag_68:\n      dup2\n      sload\n      dup2\n      mstore\n      swap1\n      0x01\n      add\n      swap1\n      0x20\n      add\n      dup1\n      dup4\n      gt\n      tag_68\n      jumpi\n      dup3\n      swap1\n      sub\n      0x1f\n      and\n      dup3\n      add\n      swap2\n    tag_66:\n      pop\n      pop\n      pop\n      pop\n      pop\n      swap1\n      dup1\n      0x01\n      add\n      sload\n      swap1\n      dup1\n      0x02\n      add\n      sload\n      swap1\n      dup1\n      0x03\n      add\n      dup1\n      sload\n      tag_69\n      swap1\n      tag_64\n      jump\t// in\n    tag_69:\n      dup1\n      0x1f\n      add\n      0x20\n      dup1\n      swap2\n      div\n      mul\n      0x20\n      add\n      mload(0x40)\n      swap1\n      dup2\n      add\n      0x40\n      mstore\n      dup1\n      swap3\n      swap2\n      swap1\n      dup2\n      dup2\n      mstore\n      0x20\n      add\n      dup3\n      dup1\n      sload\n      tag_70\n      swap1\n      tag_64\n      jump\t// in\n    tag_70:\n      dup1\n      iszero\n      tag_71\n      jumpi\n      dup1\n      0x1f\n      lt\n      tag_72\n      jumpi\n      0x0100\n      dup1\n      dup4\n      sload\n      div\n      mul\n      dup4\n      mstore\n      swap2\n      0x20\n      add\n      swap2\n      jump(tag_71)\n    tag_72:\n      dup3\n      add\n      swap2\n      swap1\n      0x00\n      mstore\n      keccak256(0x00, 0x20)\n      swap1\n    tag_73:\n      dup2\n      sload\n      dup2\n      mstore\n      swap1\n      0x01\n      add\n      swap1\n      0x20\n      add\n      dup1\n      dup4\n      gt\n      tag_73\n      jumpi\n      dup3\n      swap1\n      sub\n      0x1f\n      and\n      dup3\n      add\n      swap2\n    tag_71:\n      pop\n      pop\n      pop\n      pop\n      pop\n      swap1\n      pop\n      dup5\n      jump\t// out\n        /* \"codingtest/codingtest_241231.sol\":3059:3233  function evaluateTeacher() public view returns (bool) {... */\n    tag_22:\n        /* \"codingtest/codingtest_241231.sol\":3107:3111  bool */\n      0x00\n        /* \"codingtest/codingtest_241231.sol\":3144:3146  70 */\n      0x46\n        /* \"codingtest/codingtest_241231.sol\":3127:3140  getScoreAVG() */\n      tag_75\n        /* \"codingtest/codingtest_241231.sol\":3127:3138  getScoreAVG */\n      tag_59\n        /* \"codingtest/codingtest_241231.sol\":3127:3140  getScoreAVG() */\n      jump\t// in\n    tag_75:\n        /* \"codingtest/codingtest_241231.sol\":3127:3146  getScoreAVG() >= 70 */\n      lt\n        /* \"codingtest/codingtest_241231.sol\":3123:3227  if (getScoreAVG() >= 70) {... */\n      tag_76\n      jumpi\n        /* \"codingtest/codingtest_241231.sol\":3169:3173  true */\n      0x01\n        /* \"codingtest/codingtest_241231.sol\":3162:3173  return true */\n      swap1\n      pop\n      jump(tag_74)\n        /* \"codingtest/codingtest_241231.sol\":3123:3227  if (getScoreAVG() >= 70) {... */\n    tag_76:\n        /* \"codingtest/codingtest_241231.sol\":3211:3216  false */\n      0x00\n        /* \"codingtest/codingtest_241231.sol\":3204:3216  return false */\n      swap1\n      pop\n        /* \"codingtest/codingtest_241231.sol\":3059:3233  function evaluateTeacher() public view returns (bool) {... */\n    tag_74:\n      swap1\n      jump\t// out\n        /* \"codingtest/codingtest_241231.sol\":1787:2263  function findStudentScoerByName(string memory _name)... */\n    tag_28:\n        /* \"codingtest/codingtest_241231.sol\":1885:1892  uint256 */\n      0x00\n        /* \"codingtest/codingtest_241231.sol\":1913:1922  uint256 i */\n      dup1\n        /* \"codingtest/codingtest_241231.sol\":1925:1926  0 */\n      0x00\n        /* \"codingtest/codingtest_241231.sol\":1913:1926  uint256 i = 0 */\n      swap1\n      pop\n        /* \"codingtest/codingtest_241231.sol\":1932:1940  students */\n      0x00\n        /* \"codingtest/codingtest_241231.sol\":1932:1947  students.length */\n      dup1\n      sload\n      swap1\n      pop\n        /* \"codingtest/codingtest_241231.sol\":1928:1929  i */\n      dup2\n        /* \"codingtest/codingtest_241231.sol\":1928:1947  i < students.length */\n      lt\n        /* \"codingtest/codingtest_241231.sol\":1908:2257  for (uint256 i = 0; i < students.length; i++) {... */\n      iszero\n      tag_80\n      jumpi\n        /* \"codingtest/codingtest_241231.sol\":2087:2092  _name */\n      dup3\n        /* \"codingtest/codingtest_241231.sol\":2069:2094  abi.encodePacked((_name)) */\n      add(0x20, mload(0x40))\n      tag_82\n      swap2\n      swap1\n      tag_83\n      jump\t// in\n    tag_82:\n      mload(0x40)\n      0x20\n      dup2\n      dup4\n      sub\n      sub\n      dup2\n      mstore\n      swap1\n      0x40\n      mstore\n        /* \"codingtest/codingtest_241231.sol\":2058:2096  keccak256((abi.encodePacked((_name)))) */\n      dup1\n      mload\n      swap1\n      0x20\n      add\n      keccak256\n        /* \"codingtest/codingtest_241231.sol\":2018:2026  students */\n      0x00\n        /* \"codingtest/codingtest_241231.sol\":2027:2028  i */\n      dup3\n        /* \"codingtest/codingtest_241231.sol\":2018:2029  students[i] */\n      dup2\n      sload\n      dup2\n      lt\n      tag_84\n      jumpi\n      tag_85\n      tag_86\n      jump\t// in\n    tag_85:\n    tag_84:\n      swap1\n      0x00\n      mstore\n      keccak256(0x00, 0x20)\n      swap1\n      0x05\n      mul\n      add\n        /* \"codingtest/codingtest_241231.sol\":2018:2034  students[i].name */\n      0x00\n      add\n        /* \"codingtest/codingtest_241231.sol\":2000:2036  abi.encodePacked((students[i].name)) */\n      add(0x20, mload(0x40))\n      tag_88\n      swap2\n      swap1\n      tag_89\n      jump\t// in\n    tag_88:\n      mload(0x40)\n      0x20\n      dup2\n      dup4\n      sub\n      sub\n      dup2\n      mstore\n      swap1\n      0x40\n      mstore\n        /* \"codingtest/codingtest_241231.sol\":1989:2038  keccak256((abi.encodePacked((students[i].name)))) */\n      dup1\n      mload\n      swap1\n      0x20\n      add\n      keccak256\n        /* \"codingtest/codingtest_241231.sol\":1989:2096  keccak256((abi.encodePacked((students[i].name)))) ==... */\n      sub\n        /* \"codingtest/codingtest_241231.sol\":1968:2247  if (... */\n      tag_90\n      jumpi\n        /* \"codingtest/codingtest_241231.sol\":2136:2144  students */\n      0x00\n        /* \"codingtest/codingtest_241231.sol\":2145:2146  i */\n      dup2\n        /* \"codingtest/codingtest_241231.sol\":2136:2147  students[i] */\n      dup2\n      sload\n      dup2\n      lt\n      tag_91\n      jumpi\n      tag_92\n      tag_86\n      jump\t// in\n    tag_92:\n    tag_91:\n      swap1\n      0x00\n      mstore\n      keccak256(0x00, 0x20)\n      swap1\n      0x05\n      mul\n      add\n        /* \"codingtest/codingtest_241231.sol\":2136:2153  students[i].score */\n      0x02\n      add\n      sload\n        /* \"codingtest/codingtest_241231.sol\":2129:2153  return students[i].score */\n      swap2\n      pop\n      pop\n      jump(tag_78)\n        /* \"codingtest/codingtest_241231.sol\":1968:2247  if (... */\n    tag_90:\n        /* \"codingtest/codingtest_241231.sol\":2192:2232  revert(\"No student with the given name\") */\n      mload(0x40)\n      0x08c379a000000000000000000000000000000000000000000000000000000000\n      dup2\n      mstore\n      0x04\n      add\n      tag_95\n      swap1\n      tag_96\n      jump\t// in\n    tag_95:\n      mload(0x40)\n      dup1\n      swap2\n      sub\n      swap1\n      revert\n        /* \"codingtest/codingtest_241231.sol\":1908:2257  for (uint256 i = 0; i < students.length; i++) {... */\n    tag_80:\n      pop\n        /* \"codingtest/codingtest_241231.sol\":1787:2263  function findStudentScoerByName(string memory _name)... */\n    tag_78:\n      swap2\n      swap1\n      pop\n      jump\t// out\n        /* \"codingtest/codingtest_241231.sol\":4628:5176  function getSStudents() public view returns (STUDENT[] memory) {... */\n    tag_32:\n        /* \"codingtest/codingtest_241231.sol\":4673:4689  STUDENT[] memory */\n      0x60\n        /* \"codingtest/codingtest_241231.sol\":4701:4717  uint256 topCount */\n      0x00\n        /* \"codingtest/codingtest_241231.sol\":4738:4739  4 */\n      0x04\n        /* \"codingtest/codingtest_241231.sol\":4720:4728  students */\n      0x00\n        /* \"codingtest/codingtest_241231.sol\":4720:4735  students.length */\n      dup1\n      sload\n      swap1\n      pop\n        /* \"codingtest/codingtest_241231.sol\":4720:4739  students.length < 4 */\n      lt\n        /* \"codingtest/codingtest_241231.sol\":4720:4761  students.length < 4 ? students.length : 4 */\n      tag_98\n      jumpi\n        /* \"codingtest/codingtest_241231.sol\":4760:4761  4 */\n      0x04\n        /* \"codingtest/codingtest_241231.sol\":4720:4761  students.length < 4 ? students.length : 4 */\n      jump(tag_99)\n    tag_98:\n        /* \"codingtest/codingtest_241231.sol\":4742:4750  students */\n      0x00\n        /* \"codingtest/codingtest_241231.sol\":4742:4757  students.length */\n      dup1\n      sload\n      swap1\n      pop\n        /* \"codingtest/codingtest_241231.sol\":4720:4761  students.length < 4 ? students.length : 4 */\n    tag_99:\n        /* \"codingtest/codingtest_241231.sol\":4701:4761  uint256 topCount = students.length < 4 ? students.length : 4 */\n      swap1\n      pop\n        /* \"codingtest/codingtest_241231.sol\":4772:4798  STUDENT[] memory _students */\n      0x00\n        /* \"codingtest/codingtest_241231.sol\":4815:4823  students */\n      dup1\n        /* \"codingtest/codingtest_241231.sol\":4815:4830  students.length */\n      dup1\n      sload\n      swap1\n      pop\n        /* \"codingtest/codingtest_241231.sol\":4801:4831  new STUDENT[](students.length) */\n      0xffffffffffffffff\n      dup2\n      gt\n      iszero\n      tag_100\n      jumpi\n      tag_101\n      tag_102\n      jump\t// in\n    tag_101:\n    tag_100:\n      mload(0x40)\n      swap1\n      dup1\n      dup3\n      mstore\n      dup1\n      0x20\n      mul\n      0x20\n      add\n      dup3\n      add\n      0x40\n      mstore\n      dup1\n      iszero\n      tag_103\n      jumpi\n      dup2\n      0x20\n      add\n    tag_104:\n      tag_105\n      tag_106\n      jump\t// in\n    tag_105:\n      dup2\n      mstore\n      0x20\n      add\n      swap1\n      0x01\n      swap1\n      sub\n      swap1\n      dup2\n      tag_104\n      jumpi\n      swap1\n      pop\n    tag_103:\n      pop\n        /* \"codingtest/codingtest_241231.sol\":4772:4831  STUDENT[] memory _students = new STUDENT[](students.length) */\n      swap1\n      pop\n        /* \"codingtest/codingtest_241231.sol\":4846:4855  uint256 i */\n      0x00\n        /* \"codingtest/codingtest_241231.sol\":4841:4938  for (uint256 i = 0; i < students.length; i++) {... */\n    tag_107:\n        /* \"codingtest/codingtest_241231.sol\":4865:4873  students */\n      0x00\n        /* \"codingtest/codingtest_241231.sol\":4865:4880  students.length */\n      dup1\n      sload\n      swap1\n      pop\n        /* \"codingtest/codingtest_241231.sol\":4861:4862  i */\n      dup2\n        /* \"codingtest/codingtest_241231.sol\":4861:4880  i < students.length */\n      lt\n        /* \"codingtest/codingtest_241231.sol\":4841:4938  for (uint256 i = 0; i < students.length; i++) {... */\n      iszero\n      tag_108\n      jumpi\n        /* \"codingtest/codingtest_241231.sol\":4916:4924  students */\n      0x00\n        /* \"codingtest/codingtest_241231.sol\":4925:4926  i */\n      dup2\n        /* \"codingtest/codingtest_241231.sol\":4916:4927  students[i] */\n      dup2\n      sload\n      dup2\n      lt\n      tag_110\n      jumpi\n      tag_111\n      tag_86\n      jump\t// in\n    tag_111:\n    tag_110:\n      swap1\n      0x00\n      mstore\n      keccak256(0x00, 0x20)\n      swap1\n      0x05\n      mul\n      add\n        /* \"codingtest/codingtest_241231.sol\":4901:4927  _students[i] = students[i] */\n      mload(0x40)\n      dup1\n      0xa0\n      add\n      0x40\n      mstore\n      swap1\n      dup2\n      0x00\n      dup3\n      add\n      dup1\n      sload\n      tag_113\n      swap1\n      tag_64\n      jump\t// in\n    tag_113:\n      dup1\n      0x1f\n      add\n      0x20\n      dup1\n      swap2\n      div\n      mul\n      0x20\n      add\n      mload(0x40)\n      swap1\n      dup2\n      add\n      0x40\n      mstore\n      dup1\n      swap3\n      swap2\n      swap1\n      dup2\n      dup2\n      mstore\n      0x20\n      add\n      dup3\n      dup1\n      sload\n      tag_114\n      swap1\n      tag_64\n      jump\t// in\n    tag_114:\n      dup1\n      iszero\n      tag_115\n      jumpi\n      dup1\n      0x1f\n      lt\n      tag_116\n      jumpi\n      0x0100\n      dup1\n      dup4\n      sload\n      div\n      mul\n      dup4\n      mstore\n      swap2\n      0x20\n      add\n      swap2\n      jump(tag_115)\n    tag_116:\n      dup3\n      add\n      swap2\n      swap1\n      0x00\n      mstore\n      keccak256(0x00, 0x20)\n      swap1\n    tag_117:\n      dup2\n      sload\n      dup2\n      mstore\n      swap1\n      0x01\n      add\n      swap1\n      0x20\n      add\n      dup1\n      dup4\n      gt\n      tag_117\n      jumpi\n      dup3\n      swap1\n      sub\n      0x1f\n      and\n      dup3\n      add\n      swap2\n    tag_115:\n      pop\n      pop\n      pop\n      pop\n      pop\n      dup2\n      mstore\n      0x20\n      add\n      0x01\n      dup3\n      add\n      sload\n      dup2\n      mstore\n      0x20\n      add\n      0x02\n      dup3\n      add\n      sload\n      dup2\n      mstore\n      0x20\n      add\n      0x03\n      dup3\n      add\n      dup1\n      sload\n      tag_118\n      swap1\n      tag_64\n      jump\t// in\n    tag_118:\n      dup1\n      0x1f\n      add\n      0x20\n      dup1\n      swap2\n      div\n      mul\n      0x20\n      add\n      mload(0x40)\n      swap1\n      dup2\n      add\n      0x40\n      mstore\n      dup1\n      swap3\n      swap2\n      swap1\n      dup2\n      dup2\n      mstore\n      0x20\n      add\n      dup3\n      dup1\n      sload\n      tag_119\n      swap1\n      tag_64\n      jump\t// in\n    tag_119:\n      dup1\n      iszero\n      tag_120\n      jumpi\n      dup1\n      0x1f\n      lt\n      tag_121\n      jumpi\n      0x0100\n      dup1\n      dup4\n      sload\n      div\n      mul\n      dup4\n      mstore\n      swap2\n      0x20\n      add\n      swap2\n      jump(tag_120)\n    tag_121:\n      dup3\n      add\n      swap2\n      swap1\n      0x00\n      mstore\n      keccak256(0x00, 0x20)\n      swap1\n    tag_122:\n      dup2\n      sload\n      dup2\n      mstore\n      swap1\n      0x01\n      add\n      swap1\n      0x20\n      add\n      dup1\n      dup4\n      gt\n      tag_122\n      jumpi\n      dup3\n      swap1\n      sub\n      0x1f\n      and\n      dup3\n      add\n      swap2\n    tag_120:\n      pop\n      pop\n      pop\n      pop\n      pop\n      dup2\n      mstore\n      0x20\n      add\n      0x04\n      dup3\n      add\n      dup1\n      sload\n      dup1\n      0x20\n      mul\n      0x20\n      add\n      mload(0x40)\n      swap1\n      dup2\n      add\n      0x40\n      mstore\n      dup1\n      swap3\n      swap2\n      swap1\n      dup2\n      dup2\n      mstore\n      0x20\n      add\n      0x00\n      swap1\n    tag_123:\n      dup3\n      dup3\n      lt\n      iszero\n      tag_124\n      jumpi\n      dup4\n      dup3\n      swap1\n      0x00\n      mstore\n      keccak256(0x00, 0x20)\n      add\n      dup1\n      sload\n      tag_126\n      swap1\n      tag_64\n      jump\t// in\n    tag_126:\n      dup1\n      0x1f\n      add\n      0x20\n      dup1\n      swap2\n      div\n      mul\n      0x20\n      add\n      mload(0x40)\n      swap1\n      dup2\n      add\n      0x40\n      mstore\n      dup1\n      swap3\n      swap2\n      swap1\n      dup2\n      dup2\n      mstore\n      0x20\n      add\n      dup3\n      dup1\n      sload\n      tag_127\n      swap1\n      tag_64\n      jump\t// in\n    tag_127:\n      dup1\n      iszero\n      tag_128\n      jumpi\n      dup1\n      0x1f\n      lt\n      tag_129\n      jumpi\n      0x0100\n      dup1\n      dup4\n      sload\n      div\n      mul\n      dup4\n      mstore\n      swap2\n      0x20\n      add\n      swap2\n      jump(tag_128)\n    tag_129:\n      dup3\n      add\n      swap2\n      swap1\n      0x00\n      mstore\n      keccak256(0x00, 0x20)\n      swap1\n    tag_130:\n      dup2\n      sload\n      dup2\n      mstore\n      swap1\n      0x01\n      add\n      swap1\n      0x20\n      add\n      dup1\n      dup4\n      gt\n      tag_130\n      jumpi\n      dup3\n      swap1\n      sub\n      0x1f\n      and\n      dup3\n      add\n      swap2\n    tag_128:\n      pop\n      pop\n      pop\n      pop\n      pop\n      dup2\n      mstore\n      0x20\n      add\n      swap1\n      0x01\n      add\n      swap1\n      jump(tag_123)\n    tag_124:\n      pop\n      pop\n      pop\n      pop\n      dup2\n      mstore\n      pop\n      pop\n        /* \"codingtest/codingtest_241231.sol\":4901:4910  _students */\n      dup3\n        /* \"codingtest/codingtest_241231.sol\":4911:4912  i */\n      dup3\n        /* \"codingtest/codingtest_241231.sol\":4901:4913  _students[i] */\n      dup2\n      mload\n      dup2\n      lt\n      tag_131\n      jumpi\n      tag_132\n      tag_86\n      jump\t// in\n    tag_132:\n    tag_131:\n      0x20\n      mul\n      0x20\n      add\n      add\n        /* \"codingtest/codingtest_241231.sol\":4901:4927  _students[i] = students[i] */\n      dup2\n      swap1\n      mstore\n      pop\n        /* \"codingtest/codingtest_241231.sol\":4882:4885  i++ */\n      dup1\n      dup1\n      0x01\n      add\n      swap2\n      pop\n      pop\n        /* \"codingtest/codingtest_241231.sol\":4841:4938  for (uint256 i = 0; i < students.length; i++) {... */\n      jump(tag_107)\n    tag_108:\n      pop\n        /* \"codingtest/codingtest_241231.sol\":4959:4989  sortStudentsByScore(_students) */\n      tag_133\n        /* \"codingtest/codingtest_241231.sol\":4979:4988  _students */\n      dup2\n        /* \"codingtest/codingtest_241231.sol\":4959:4978  sortStudentsByScore */\n      tag_134\n        /* \"codingtest/codingtest_241231.sol\":4959:4989  sortStudentsByScore(_students) */\n      jump\t// in\n    tag_133:\n        /* \"codingtest/codingtest_241231.sol\":4947:4989  _students = sortStudentsByScore(_students) */\n      swap1\n      pop\n        /* \"codingtest/codingtest_241231.sol\":4999:5022  STUDENT[] memory result */\n      0x00\n        /* \"codingtest/codingtest_241231.sol\":5039:5047  topCount */\n      dup3\n        /* \"codingtest/codingtest_241231.sol\":5025:5048  new STUDENT[](topCount) */\n      0xffffffffffffffff\n      dup2\n      gt\n      iszero\n      tag_135\n      jumpi\n      tag_136\n      tag_102\n      jump\t// in\n    tag_136:\n    tag_135:\n      mload(0x40)\n      swap1\n      dup1\n      dup3\n      mstore\n      dup1\n      0x20\n      mul\n      0x20\n      add\n      dup3\n      add\n      0x40\n      mstore\n      dup1\n      iszero\n      tag_137\n      jumpi\n      dup2\n      0x20\n      add\n    tag_138:\n      tag_139\n      tag_106\n      jump\t// in\n    tag_139:\n      dup2\n      mstore\n      0x20\n      add\n      swap1\n      0x01\n      swap1\n      sub\n      swap1\n      dup2\n      tag_138\n      jumpi\n      swap1\n      pop\n    tag_137:\n      pop\n        /* \"codingtest/codingtest_241231.sol\":4999:5048  STUDENT[] memory result = new STUDENT[](topCount) */\n      swap1\n      pop\n        /* \"codingtest/codingtest_241231.sol\":5063:5072  uint256 i */\n      0x00\n        /* \"codingtest/codingtest_241231.sol\":5058:5146  for (uint256 i = 0; i < topCount; i++) {... */\n    tag_140:\n        /* \"codingtest/codingtest_241231.sol\":5082:5090  topCount */\n      dup4\n        /* \"codingtest/codingtest_241231.sol\":5078:5079  i */\n      dup2\n        /* \"codingtest/codingtest_241231.sol\":5078:5090  i < topCount */\n      lt\n        /* \"codingtest/codingtest_241231.sol\":5058:5146  for (uint256 i = 0; i < topCount; i++) {... */\n      iszero\n      tag_141\n      jumpi\n        /* \"codingtest/codingtest_241231.sol\":5123:5132  _students */\n      dup3\n        /* \"codingtest/codingtest_241231.sol\":5133:5134  i */\n      dup2\n        /* \"codingtest/codingtest_241231.sol\":5123:5135  _students[i] */\n      dup2\n      mload\n      dup2\n      lt\n      tag_143\n      jumpi\n      tag_144\n      tag_86\n      jump\t// in\n    tag_144:\n    tag_143:\n      0x20\n      mul\n      0x20\n      add\n      add\n      mload\n        /* \"codingtest/codingtest_241231.sol\":5111:5117  result */\n      dup3\n        /* \"codingtest/codingtest_241231.sol\":5118:5119  i */\n      dup3\n        /* \"codingtest/codingtest_241231.sol\":5111:5120  result[i] */\n      dup2\n      mload\n      dup2\n      lt\n      tag_145\n      jumpi\n      tag_146\n      tag_86\n      jump\t// in\n    tag_146:\n    tag_145:\n      0x20\n      mul\n      0x20\n      add\n      add\n        /* \"codingtest/codingtest_241231.sol\":5111:5135  result[i] = _students[i] */\n      dup2\n      swap1\n      mstore\n      pop\n        /* \"codingtest/codingtest_241231.sol\":5092:5095  i++ */\n      dup1\n      dup1\n      0x01\n      add\n      swap2\n      pop\n      pop\n        /* \"codingtest/codingtest_241231.sol\":5058:5146  for (uint256 i = 0; i < topCount; i++) {... */\n      jump(tag_140)\n    tag_141:\n      pop\n        /* \"codingtest/codingtest_241231.sol\":5163:5169  result */\n      dup1\n        /* \"codingtest/codingtest_241231.sol\":5156:5169  return result */\n      swap4\n      pop\n      pop\n      pop\n      pop\n        /* \"codingtest/codingtest_241231.sol\":4628:5176  function getSStudents() public view returns (STUDENT[] memory) {... */\n      swap1\n      jump\t// out\n        /* \"codingtest/codingtest_241231.sol\":3620:4061  function getFStudents() public view returns (STUDENT[] memory) {... */\n    tag_36:\n        /* \"codingtest/codingtest_241231.sol\":3665:3681  STUDENT[] memory */\n      0x60\n        /* \"codingtest/codingtest_241231.sol\":3693:3716  STUDENT[] memory result */\n      0x00\n        /* \"codingtest/codingtest_241231.sol\":3733:3753  findFStudnetsTotal() */\n      tag_148\n        /* \"codingtest/codingtest_241231.sol\":3733:3751  findFStudnetsTotal */\n      tag_149\n        /* \"codingtest/codingtest_241231.sol\":3733:3753  findFStudnetsTotal() */\n      jump\t// in\n    tag_148:\n        /* \"codingtest/codingtest_241231.sol\":3719:3754  new STUDENT[](findFStudnetsTotal()) */\n      0xffffffffffffffff\n      dup2\n      gt\n      iszero\n      tag_150\n      jumpi\n      tag_151\n      tag_102\n      jump\t// in\n    tag_151:\n    tag_150:\n      mload(0x40)\n      swap1\n      dup1\n      dup3\n      mstore\n      dup1\n      0x20\n      mul\n      0x20\n      add\n      dup3\n      add\n      0x40\n      mstore\n      dup1\n      iszero\n      tag_152\n      jumpi\n      dup2\n      0x20\n      add\n    tag_153:\n      tag_154\n      tag_106\n      jump\t// in\n    tag_154:\n      dup2\n      mstore\n      0x20\n      add\n      swap1\n      0x01\n      swap1\n      sub\n      swap1\n      dup2\n      tag_153\n      jumpi\n      swap1\n      pop\n    tag_152:\n      pop\n        /* \"codingtest/codingtest_241231.sol\":3693:3754  STUDENT[] memory result = new STUDENT[](findFStudnetsTotal()) */\n      swap1\n      pop\n        /* \"codingtest/codingtest_241231.sol\":3769:3778  uint256 i */\n      0x00\n        /* \"codingtest/codingtest_241231.sol\":3764:4032  for (uint256 i = 0; i < students.length; i++) {... */\n    tag_155:\n        /* \"codingtest/codingtest_241231.sol\":3788:3796  students */\n      0x00\n        /* \"codingtest/codingtest_241231.sol\":3788:3803  students.length */\n      dup1\n      sload\n      swap1\n      pop\n        /* \"codingtest/codingtest_241231.sol\":3784:3785  i */\n      dup2\n        /* \"codingtest/codingtest_241231.sol\":3784:3803  i < students.length */\n      lt\n        /* \"codingtest/codingtest_241231.sol\":3764:4032  for (uint256 i = 0; i < students.length; i++) {... */\n      iszero\n      tag_156\n      jumpi\n        /* \"codingtest/codingtest_241231.sol\":3926:3949  abi.encodePacked((\"F\")) */\n      add(0x20, mload(0x40))\n      tag_158\n      swap1\n      tag_159\n      jump\t// in\n    tag_158:\n      mload(0x40)\n      0x20\n      dup2\n      dup4\n      sub\n      sub\n      dup2\n      mstore\n      swap1\n      0x40\n      mstore\n        /* \"codingtest/codingtest_241231.sol\":3915:3951  keccak256((abi.encodePacked((\"F\")))) */\n      dup1\n      mload\n      swap1\n      0x20\n      add\n      keccak256\n        /* \"codingtest/codingtest_241231.sol\":3874:3882  students */\n      0x00\n        /* \"codingtest/codingtest_241231.sol\":3883:3884  i */\n      dup3\n        /* \"codingtest/codingtest_241231.sol\":3874:3885  students[i] */\n      dup2\n      sload\n      dup2\n      lt\n      tag_160\n      jumpi\n      tag_161\n      tag_86\n      jump\t// in\n    tag_161:\n    tag_160:\n      swap1\n      0x00\n      mstore\n      keccak256(0x00, 0x20)\n      swap1\n      0x05\n      mul\n      add\n        /* \"codingtest/codingtest_241231.sol\":3874:3891  students[i].grade */\n      0x03\n      add\n        /* \"codingtest/codingtest_241231.sol\":3856:3893  abi.encodePacked((students[i].grade)) */\n      add(0x20, mload(0x40))\n      tag_163\n      swap2\n      swap1\n      tag_89\n      jump\t// in\n    tag_163:\n      mload(0x40)\n      0x20\n      dup2\n      dup4\n      sub\n      sub\n      dup2\n      mstore\n      swap1\n      0x40\n      mstore\n        /* \"codingtest/codingtest_241231.sol\":3845:3895  keccak256((abi.encodePacked((students[i].grade)))) */\n      dup1\n      mload\n      swap1\n      0x20\n      add\n      keccak256\n        /* \"codingtest/codingtest_241231.sol\":3845:3951  keccak256((abi.encodePacked((students[i].grade)))) ==... */\n      sub\n        /* \"codingtest/codingtest_241231.sol\":3824:4022  if (... */\n      tag_164\n      jumpi\n        /* \"codingtest/codingtest_241231.sol\":3996:4004  students */\n      0x00\n        /* \"codingtest/codingtest_241231.sol\":4005:4006  i */\n      dup2\n        /* \"codingtest/codingtest_241231.sol\":3996:4007  students[i] */\n      dup2\n      sload\n      dup2\n      lt\n      tag_165\n      jumpi\n      tag_166\n      tag_86\n      jump\t// in\n    tag_166:\n    tag_165:\n      swap1\n      0x00\n      mstore\n      keccak256(0x00, 0x20)\n      swap1\n      0x05\n      mul\n      add\n        /* \"codingtest/codingtest_241231.sol\":3984:4007  result[i] = students[i] */\n      mload(0x40)\n      dup1\n      0xa0\n      add\n      0x40\n      mstore\n      swap1\n      dup2\n      0x00\n      dup3\n      add\n      dup1\n      sload\n      tag_168\n      swap1\n      tag_64\n      jump\t// in\n    tag_168:\n      dup1\n      0x1f\n      add\n      0x20\n      dup1\n      swap2\n      div\n      mul\n      0x20\n      add\n      mload(0x40)\n      swap1\n      dup2\n      add\n      0x40\n      mstore\n      dup1\n      swap3\n      swap2\n      swap1\n      dup2\n      dup2\n      mstore\n      0x20\n      add\n      dup3\n      dup1\n      sload\n      tag_169\n      swap1\n      tag_64\n      jump\t// in\n    tag_169:\n      dup1\n      iszero\n      tag_170\n      jumpi\n      dup1\n      0x1f\n      lt\n      tag_171\n      jumpi\n      0x0100\n      dup1\n      dup4\n      sload\n      div\n      mul\n      dup4\n      mstore\n      swap2\n      0x20\n      add\n      swap2\n      jump(tag_170)\n    tag_171:\n      dup3\n      add\n      swap2\n      swap1\n      0x00\n      mstore\n      keccak256(0x00, 0x20)\n      swap1\n    tag_172:\n      dup2\n      sload\n      dup2\n      mstore\n      swap1\n      0x01\n      add\n      swap1\n      0x20\n      add\n      dup1\n      dup4\n      gt\n      tag_172\n      jumpi\n      dup3\n      swap1\n      sub\n      0x1f\n      and\n      dup3\n      add\n      swap2\n    tag_170:\n      pop\n      pop\n      pop\n      pop\n      pop\n      dup2\n      mstore\n      0x20\n      add\n      0x01\n      dup3\n      add\n      sload\n      dup2\n      mstore\n      0x20\n      add\n      0x02\n      dup3\n      add\n      sload\n      dup2\n      mstore\n      0x20\n      add\n      0x03\n      dup3\n      add\n      dup1\n      sload\n      tag_173\n      swap1\n      tag_64\n      jump\t// in\n    tag_173:\n      dup1\n      0x1f\n      add\n      0x20\n      dup1\n      swap2\n      div\n      mul\n      0x20\n      add\n      mload(0x40)\n      swap1\n      dup2\n      add\n      0x40\n      mstore\n      dup1\n      swap3\n      swap2\n      swap1\n      dup2\n      dup2\n      mstore\n      0x20\n      add\n      dup3\n      dup1\n      sload\n      tag_174\n      swap1\n      tag_64\n      jump\t// in\n    tag_174:\n      dup1\n      iszero\n      tag_175\n      jumpi\n      dup1\n      0x1f\n      lt\n      tag_176\n      jumpi\n      0x0100\n      dup1\n      dup4\n      sload\n      div\n      mul\n      dup4\n      mstore\n      swap2\n      0x20\n      add\n      swap2\n      jump(tag_175)\n    tag_176:\n      dup3\n      add\n      swap2\n      swap1\n      0x00\n      mstore\n      keccak256(0x00, 0x20)\n      swap1\n    tag_177:\n      dup2\n      sload\n      dup2\n      mstore\n      swap1\n      0x01\n      add\n      swap1\n      0x20\n      add\n      dup1\n      dup4\n      gt\n      tag_177\n      jumpi\n      dup3\n      swap1\n      sub\n      0x1f\n      and\n      dup3\n      add\n      swap2\n    tag_175:\n      pop\n      pop\n      pop\n      pop\n      pop\n      dup2\n      mstore\n      0x20\n      add\n      0x04\n      dup3\n      add\n      dup1\n      sload\n      dup1\n      0x20\n      mul\n      0x20\n      add\n      mload(0x40)\n      swap1\n      dup2\n      add\n      0x40\n      mstore\n      dup1\n      swap3\n      swap2\n      swap1\n      dup2\n      dup2\n      mstore\n      0x20\n      add\n      0x00\n      swap1\n    tag_178:\n      dup3\n      dup3\n      lt\n      iszero\n      tag_179\n      jumpi\n      dup4\n      dup3\n      swap1\n      0x00\n      mstore\n      keccak256(0x00, 0x20)\n      add\n      dup1\n      sload\n      tag_181\n      swap1\n      tag_64\n      jump\t// in\n    tag_181:\n      dup1\n      0x1f\n      add\n      0x20\n      dup1\n      swap2\n      div\n      mul\n      0x20\n      add\n      mload(0x40)\n      swap1\n      dup2\n      add\n      0x40\n      mstore\n      dup1\n      swap3\n      swap2\n      swap1\n      dup2\n      dup2\n      mstore\n      0x20\n      add\n      dup3\n      dup1\n      sload\n      tag_182\n      swap1\n      tag_64\n      jump\t// in\n    tag_182:\n      dup1\n      iszero\n      tag_183\n      jumpi\n      dup1\n      0x1f\n      lt\n      tag_184\n      jumpi\n      0x0100\n      dup1\n      dup4\n      sload\n      div\n      mul\n      dup4\n      mstore\n      swap2\n      0x20\n      add\n      swap2\n      jump(tag_183)\n    tag_184:\n      dup3\n      add\n      swap2\n      swap1\n      0x00\n      mstore\n      keccak256(0x00, 0x20)\n      swap1\n    tag_185:\n      dup2\n      sload\n      dup2\n      mstore\n      swap1\n      0x01\n      add\n      swap1\n      0x20\n      add\n      dup1\n      dup4\n      gt\n      tag_185\n      jumpi\n      dup3\n      swap1\n      sub\n      0x1f\n      and\n      dup3\n      add\n      swap2\n    tag_183:\n      pop\n      pop\n      pop\n      pop\n      pop\n      dup2\n      mstore\n      0x20\n      add\n      swap1\n      0x01\n      add\n      swap1\n      jump(tag_178)\n    tag_179:\n      pop\n      pop\n      pop\n      pop\n      dup2\n      mstore\n      pop\n      pop\n        /* \"codingtest/codingtest_241231.sol\":3984:3990  result */\n      dup3\n        /* \"codingtest/codingtest_241231.sol\":3991:3992  i */\n      dup3\n        /* \"codingtest/codingtest_241231.sol\":3984:3993  result[i] */\n      dup2\n      mload\n      dup2\n      lt\n      tag_186\n      jumpi\n      tag_187\n      tag_86\n      jump\t// in\n    tag_187:\n    tag_186:\n      0x20\n      mul\n      0x20\n      add\n      add\n        /* \"codingtest/codingtest_241231.sol\":3984:4007  result[i] = students[i] */\n      dup2\n      swap1\n      mstore\n      pop\n        /* \"codingtest/codingtest_241231.sol\":3824:4022  if (... */\n    tag_164:\n        /* \"codingtest/codingtest_241231.sol\":3805:3808  i++ */\n      dup1\n      dup1\n      0x01\n      add\n      swap2\n      pop\n      pop\n        /* \"codingtest/codingtest_241231.sol\":3764:4032  for (uint256 i = 0; i < students.length; i++) {... */\n      jump(tag_155)\n    tag_156:\n      pop\n        /* \"codingtest/codingtest_241231.sol\":4048:4054  result */\n      dup1\n        /* \"codingtest/codingtest_241231.sol\":4041:4054  return result */\n      swap2\n      pop\n      pop\n        /* \"codingtest/codingtest_241231.sol\":3620:4061  function getFStudents() public view returns (STUDENT[] memory) {... */\n      swap1\n      jump\t// out\n        /* \"codingtest/codingtest_241231.sol\":939:1303  function findStudentByNumber(uint256 _number)... */\n    tag_40:\n        /* \"codingtest/codingtest_241231.sol\":1030:1044  STUDENT memory */\n      tag_188\n      tag_106\n      jump\t// in\n    tag_188:\n        /* \"codingtest/codingtest_241231.sol\":1065:1074  uint256 i */\n      0x00\n        /* \"codingtest/codingtest_241231.sol\":1084:1092  students */\n      dup1\n        /* \"codingtest/codingtest_241231.sol\":1084:1099  students.length */\n      dup1\n      sload\n      swap1\n      pop\n        /* \"codingtest/codingtest_241231.sol\":1080:1081  i */\n      dup2\n        /* \"codingtest/codingtest_241231.sol\":1080:1099  i < students.length */\n      lt\n        /* \"codingtest/codingtest_241231.sol\":1060:1297  for (uint256 i = 0; i < students.length; i++) {... */\n      iszero\n      tag_191\n      jumpi\n        /* \"codingtest/codingtest_241231.sol\":1146:1153  _number */\n      dup3\n        /* \"codingtest/codingtest_241231.sol\":1124:1132  students */\n      0x00\n        /* \"codingtest/codingtest_241231.sol\":1133:1134  i */\n      dup3\n        /* \"codingtest/codingtest_241231.sol\":1124:1135  students[i] */\n      dup2\n      sload\n      dup2\n      lt\n      tag_193\n      jumpi\n      tag_194\n      tag_86\n      jump\t// in\n    tag_194:\n    tag_193:\n      swap1\n      0x00\n      mstore\n      keccak256(0x00, 0x20)\n      swap1\n      0x05\n      mul\n      add\n        /* \"codingtest/codingtest_241231.sol\":1124:1142  students[i].number */\n      0x01\n      add\n      sload\n        /* \"codingtest/codingtest_241231.sol\":1124:1153  students[i].number == _number */\n      sub\n        /* \"codingtest/codingtest_241231.sol\":1120:1287  if (students[i].number == _number) {... */\n      tag_196\n      jumpi\n        /* \"codingtest/codingtest_241231.sol\":1180:1188  students */\n      0x00\n        /* \"codingtest/codingtest_241231.sol\":1189:1190  i */\n      dup2\n        /* \"codingtest/codingtest_241231.sol\":1180:1191  students[i] */\n      dup2\n      sload\n      dup2\n      lt\n      tag_197\n      jumpi\n      tag_198\n      tag_86\n      jump\t// in\n    tag_198:\n    tag_197:\n      swap1\n      0x00\n      mstore\n      keccak256(0x00, 0x20)\n      swap1\n      0x05\n      mul\n      add\n        /* \"codingtest/codingtest_241231.sol\":1173:1191  return students[i] */\n      mload(0x40)\n      dup1\n      0xa0\n      add\n      0x40\n      mstore\n      swap1\n      dup2\n      0x00\n      dup3\n      add\n      dup1\n      sload\n      tag_200\n      swap1\n      tag_64\n      jump\t// in\n    tag_200:\n      dup1\n      0x1f\n      add\n      0x20\n      dup1\n      swap2\n      div\n      mul\n      0x20\n      add\n      mload(0x40)\n      swap1\n      dup2\n      add\n      0x40\n      mstore\n      dup1\n      swap3\n      swap2\n      swap1\n      dup2\n      dup2\n      mstore\n      0x20\n      add\n      dup3\n      dup1\n      sload\n      tag_201\n      swap1\n      tag_64\n      jump\t// in\n    tag_201:\n      dup1\n      iszero\n      tag_202\n      jumpi\n      dup1\n      0x1f\n      lt\n      tag_203\n      jumpi\n      0x0100\n      dup1\n      dup4\n      sload\n      div\n      mul\n      dup4\n      mstore\n      swap2\n      0x20\n      add\n      swap2\n      jump(tag_202)\n    tag_203:\n      dup3\n      add\n      swap2\n      swap1\n      0x00\n      mstore\n      keccak256(0x00, 0x20)\n      swap1\n    tag_204:\n      dup2\n      sload\n      dup2\n      mstore\n      swap1\n      0x01\n      add\n      swap1\n      0x20\n      add\n      dup1\n      dup4\n      gt\n      tag_204\n      jumpi\n      dup3\n      swap1\n      sub\n      0x1f\n      and\n      dup3\n      add\n      swap2\n    tag_202:\n      pop\n      pop\n      pop\n      pop\n      pop\n      dup2\n      mstore\n      0x20\n      add\n      0x01\n      dup3\n      add\n      sload\n      dup2\n      mstore\n      0x20\n      add\n      0x02\n      dup3\n      add\n      sload\n      dup2\n      mstore\n      0x20\n      add\n      0x03\n      dup3\n      add\n      dup1\n      sload\n      tag_205\n      swap1\n      tag_64\n      jump\t// in\n    tag_205:\n      dup1\n      0x1f\n      add\n      0x20\n      dup1\n      swap2\n      div\n      mul\n      0x20\n      add\n      mload(0x40)\n      swap1\n      dup2\n      add\n      0x40\n      mstore\n      dup1\n      swap3\n      swap2\n      swap1\n      dup2\n      dup2\n      mstore\n      0x20\n      add\n      dup3\n      dup1\n      sload\n      tag_206\n      swap1\n      tag_64\n      jump\t// in\n    tag_206:\n      dup1\n      iszero\n      tag_207\n      jumpi\n      dup1\n      0x1f\n      lt\n      tag_208\n      jumpi\n      0x0100\n      dup1\n      dup4\n      sload\n      div\n      mul\n      dup4\n      mstore\n      swap2\n      0x20\n      add\n      swap2\n      jump(tag_207)\n    tag_208:\n      dup3\n      add\n      swap2\n      swap1\n      0x00\n      mstore\n      keccak256(0x00, 0x20)\n      swap1\n    tag_209:\n      dup2\n      sload\n      dup2\n      mstore\n      swap1\n      0x01\n      add\n      swap1\n      0x20\n      add\n      dup1\n      dup4\n      gt\n      tag_209\n      jumpi\n      dup3\n      swap1\n      sub\n      0x1f\n      and\n      dup3\n      add\n      swap2\n    tag_207:\n      pop\n      pop\n      pop\n      pop\n      pop\n      dup2\n      mstore\n      0x20\n      add\n      0x04\n      dup3\n      add\n      dup1\n      sload\n      dup1\n      0x20\n      mul\n      0x20\n      add\n      mload(0x40)\n      swap1\n      dup2\n      add\n      0x40\n      mstore\n      dup1\n      swap3\n      swap2\n      swap1\n      dup2\n      dup2\n      mstore\n      0x20\n      add\n      0x00\n      swap1\n    tag_210:\n      dup3\n      dup3\n      lt\n      iszero\n      tag_211\n      jumpi\n      dup4\n      dup3\n      swap1\n      0x00\n      mstore\n      keccak256(0x00, 0x20)\n      add\n      dup1\n      sload\n      tag_213\n      swap1\n      tag_64\n      jump\t// in\n    tag_213:\n      dup1\n      0x1f\n      add\n      0x20\n      dup1\n      swap2\n      div\n      mul\n      0x20\n      add\n      mload(0x40)\n      swap1\n      dup2\n      add\n      0x40\n      mstore\n      dup1\n      swap3\n      swap2\n      swap1\n      dup2\n      dup2\n      mstore\n      0x20\n      add\n      dup3\n      dup1\n      sload\n      tag_214\n      swap1\n      tag_64\n      jump\t// in\n    tag_214:\n      dup1\n      iszero\n      tag_215\n      jumpi\n      dup1\n      0x1f\n      lt\n      tag_216\n      jumpi\n      0x0100\n      dup1\n      dup4\n      sload\n      div\n      mul\n      dup4\n      mstore\n      swap2\n      0x20\n      add\n      swap2\n      jump(tag_215)\n    tag_216:\n      dup3\n      add\n      swap2\n      swap1\n      0x00\n      mstore\n      keccak256(0x00, 0x20)\n      swap1\n    tag_217:\n      dup2\n      sload\n      dup2\n      mstore\n      swap1\n      0x01\n      add\n      swap1\n      0x20\n      add\n      dup1\n      dup4\n      gt\n      tag_217\n      jumpi\n      dup3\n      swap1\n      sub\n      0x1f\n      and\n      dup3\n      add\n      swap2\n    tag_215:\n      pop\n      pop\n      pop\n      pop\n      pop\n      dup2\n      mstore\n      0x20\n      add\n      swap1\n      0x01\n      add\n      swap1\n      jump(tag_210)\n    tag_211:\n      pop\n      pop\n      pop\n      pop\n      dup2\n      mstore\n      pop\n      pop\n      swap2\n      pop\n      pop\n      jump(tag_189)\n        /* \"codingtest/codingtest_241231.sol\":1120:1287  if (students[i].number == _number) {... */\n    tag_196:\n        /* \"codingtest/codingtest_241231.sol\":1230:1272  revert(\"No student with the given number\") */\n      mload(0x40)\n      0x08c379a000000000000000000000000000000000000000000000000000000000\n      dup2\n      mstore\n      0x04\n      add\n      tag_219\n      swap1\n      tag_220\n      jump\t// in\n    tag_219:\n      mload(0x40)\n      dup1\n      swap2\n      sub\n      swap1\n      revert\n        /* \"codingtest/codingtest_241231.sol\":1060:1297  for (uint256 i = 0; i < students.length; i++) {... */\n    tag_191:\n      pop\n        /* \"codingtest/codingtest_241231.sol\":939:1303  function findStudentByNumber(uint256 _number)... */\n    tag_189:\n      swap2\n      swap1\n      pop\n      jump\t// out\n        /* \"codingtest/codingtest_241231.sol\":663:933  function addStudent(... */\n    tag_46:\n        /* \"codingtest/codingtest_241231.sol\":814:833  string memory grade */\n      0x00\n        /* \"codingtest/codingtest_241231.sol\":836:857  calculateGrade(score) */\n      tag_222\n        /* \"codingtest/codingtest_241231.sol\":851:856  score */\n      dup4\n        /* \"codingtest/codingtest_241231.sol\":836:850  calculateGrade */\n      tag_223\n        /* \"codingtest/codingtest_241231.sol\":836:857  calculateGrade(score) */\n      jump\t// in\n    tag_222:\n        /* \"codingtest/codingtest_241231.sol\":814:857  string memory grade = calculateGrade(score) */\n      swap1\n      pop\n        /* \"codingtest/codingtest_241231.sol\":867:875  students */\n      0x00\n        /* \"codingtest/codingtest_241231.sol\":881:925  STUDENT(name, number, score, grade, classes) */\n      mload(0x40)\n      dup1\n      0xa0\n      add\n      0x40\n      mstore\n      dup1\n        /* \"codingtest/codingtest_241231.sol\":889:893  name */\n      dup8\n        /* \"codingtest/codingtest_241231.sol\":881:925  STUDENT(name, number, score, grade, classes) */\n      dup2\n      mstore\n      0x20\n      add\n        /* \"codingtest/codingtest_241231.sol\":895:901  number */\n      dup7\n        /* \"codingtest/codingtest_241231.sol\":881:925  STUDENT(name, number, score, grade, classes) */\n      dup2\n      mstore\n      0x20\n      add\n        /* \"codingtest/codingtest_241231.sol\":903:908  score */\n      dup6\n        /* \"codingtest/codingtest_241231.sol\":881:925  STUDENT(name, number, score, grade, classes) */\n      dup2\n      mstore\n      0x20\n      add\n        /* \"codingtest/codingtest_241231.sol\":910:915  grade */\n      dup4\n        /* \"codingtest/codingtest_241231.sol\":881:925  STUDENT(name, number, score, grade, classes) */\n      dup2\n      mstore\n      0x20\n      add\n        /* \"codingtest/codingtest_241231.sol\":917:924  classes */\n      dup5\n        /* \"codingtest/codingtest_241231.sol\":881:925  STUDENT(name, number, score, grade, classes) */\n      dup2\n      mstore\n      pop\n        /* \"codingtest/codingtest_241231.sol\":867:926  students.push(STUDENT(name, number, score, grade, classes)) */\n      swap1\n      dup1\n      0x01\n      dup2\n      sload\n      add\n      dup1\n      dup3\n      sstore\n      dup1\n      swap2\n      pop\n      pop\n      0x01\n      swap1\n      sub\n      swap1\n      0x00\n      mstore\n      keccak256(0x00, 0x20)\n      swap1\n      0x05\n      mul\n      add\n      0x00\n      swap1\n      swap2\n      swap1\n      swap2\n      swap1\n      swap2\n      pop\n      0x00\n      dup3\n      add\n      mload\n      dup2\n      0x00\n      add\n      swap1\n      dup2\n      tag_225\n      swap2\n      swap1\n      tag_226\n      jump\t// in\n    tag_225:\n      pop\n      0x20\n      dup3\n      add\n      mload\n      dup2\n      0x01\n      add\n      sstore\n      0x40\n      dup3\n      add\n      mload\n      dup2\n      0x02\n      add\n      sstore\n      0x60\n      dup3\n      add\n      mload\n      dup2\n      0x03\n      add\n      swap1\n      dup2\n      tag_227\n      swap2\n      swap1\n      tag_226\n      jump\t// in\n    tag_227:\n      pop\n      0x80\n      dup3\n      add\n      mload\n      dup2\n      0x04\n      add\n      swap1\n      dup1\n      mload\n      swap1\n      0x20\n      add\n      swap1\n      tag_228\n      swap3\n      swap2\n      swap1\n      tag_229\n      jump\t// in\n    tag_228:\n      pop\n      pop\n      pop\n        /* \"codingtest/codingtest_241231.sol\":804:933  {... */\n      pop\n        /* \"codingtest/codingtest_241231.sol\":663:933  function addStudent(... */\n      pop\n      pop\n      pop\n      pop\n      jump\t// out\n        /* \"codingtest/codingtest_241231.sol\":1309:1781  function findStudentByName(string memory _name)... */\n    tag_49:\n        /* \"codingtest/codingtest_241231.sol\":1402:1416  STUDENT memory */\n      tag_230\n      tag_106\n      jump\t// in\n    tag_230:\n        /* \"codingtest/codingtest_241231.sol\":1437:1446  uint256 i */\n      0x00\n        /* \"codingtest/codingtest_241231.sol\":1456:1464  students */\n      dup1\n        /* \"codingtest/codingtest_241231.sol\":1456:1471  students.length */\n      dup1\n      sload\n      swap1\n      pop\n        /* \"codingtest/codingtest_241231.sol\":1452:1453  i */\n      dup2\n        /* \"codingtest/codingtest_241231.sol\":1452:1471  i < students.length */\n      lt\n        /* \"codingtest/codingtest_241231.sol\":1432:1775  for (uint256 i = 0; i < students.length; i++) {... */\n      iszero\n      tag_233\n      jumpi\n        /* \"codingtest/codingtest_241231.sol\":1611:1616  _name */\n      dup3\n        /* \"codingtest/codingtest_241231.sol\":1593:1618  abi.encodePacked((_name)) */\n      add(0x20, mload(0x40))\n      tag_235\n      swap2\n      swap1\n      tag_83\n      jump\t// in\n    tag_235:\n      mload(0x40)\n      0x20\n      dup2\n      dup4\n      sub\n      sub\n      dup2\n      mstore\n      swap1\n      0x40\n      mstore\n        /* \"codingtest/codingtest_241231.sol\":1582:1620  keccak256((abi.encodePacked((_name)))) */\n      dup1\n      mload\n      swap1\n      0x20\n      add\n      keccak256\n        /* \"codingtest/codingtest_241231.sol\":1542:1550  students */\n      0x00\n        /* \"codingtest/codingtest_241231.sol\":1551:1552  i */\n      dup3\n        /* \"codingtest/codingtest_241231.sol\":1542:1553  students[i] */\n      dup2\n      sload\n      dup2\n      lt\n      tag_236\n      jumpi\n      tag_237\n      tag_86\n      jump\t// in\n    tag_237:\n    tag_236:\n      swap1\n      0x00\n      mstore\n      keccak256(0x00, 0x20)\n      swap1\n      0x05\n      mul\n      add\n        /* \"codingtest/codingtest_241231.sol\":1542:1558  students[i].name */\n      0x00\n      add\n        /* \"codingtest/codingtest_241231.sol\":1524:1560  abi.encodePacked((students[i].name)) */\n      add(0x20, mload(0x40))\n      tag_239\n      swap2\n      swap1\n      tag_89\n      jump\t// in\n    tag_239:\n      mload(0x40)\n      0x20\n      dup2\n      dup4\n      sub\n      sub\n      dup2\n      mstore\n      swap1\n      0x40\n      mstore\n        /* \"codingtest/codingtest_241231.sol\":1513:1562  keccak256((abi.encodePacked((students[i].name)))) */\n      dup1\n      mload\n      swap1\n      0x20\n      add\n      keccak256\n        /* \"codingtest/codingtest_241231.sol\":1513:1620  keccak256((abi.encodePacked((students[i].name)))) ==... */\n      sub\n        /* \"codingtest/codingtest_241231.sol\":1492:1765  if (... */\n      tag_240\n      jumpi\n        /* \"codingtest/codingtest_241231.sol\":1660:1668  students */\n      0x00\n        /* \"codingtest/codingtest_241231.sol\":1669:1670  i */\n      dup2\n        /* \"codingtest/codingtest_241231.sol\":1660:1671  students[i] */\n      dup2\n      sload\n      dup2\n      lt\n      tag_241\n      jumpi\n      tag_242\n      tag_86\n      jump\t// in\n    tag_242:\n    tag_241:\n      swap1\n      0x00\n      mstore\n      keccak256(0x00, 0x20)\n      swap1\n      0x05\n      mul\n      add\n        /* \"codingtest/codingtest_241231.sol\":1653:1671  return students[i] */\n      mload(0x40)\n      dup1\n      0xa0\n      add\n      0x40\n      mstore\n      swap1\n      dup2\n      0x00\n      dup3\n      add\n      dup1\n      sload\n      tag_244\n      swap1\n      tag_64\n      jump\t// in\n    tag_244:\n      dup1\n      0x1f\n      add\n      0x20\n      dup1\n      swap2\n      div\n      mul\n      0x20\n      add\n      mload(0x40)\n      swap1\n      dup2\n      add\n      0x40\n      mstore\n      dup1\n      swap3\n      swap2\n      swap1\n      dup2\n      dup2\n      mstore\n      0x20\n      add\n      dup3\n      dup1\n      sload\n      tag_245\n      swap1\n      tag_64\n      jump\t// in\n    tag_245:\n      dup1\n      iszero\n      tag_246\n      jumpi\n      dup1\n      0x1f\n      lt\n      tag_247\n      jumpi\n      0x0100\n      dup1\n      dup4\n      sload\n      div\n      mul\n      dup4\n      mstore\n      swap2\n      0x20\n      add\n      swap2\n      jump(tag_246)\n    tag_247:\n      dup3\n      add\n      swap2\n      swap1\n      0x00\n      mstore\n      keccak256(0x00, 0x20)\n      swap1\n    tag_248:\n      dup2\n      sload\n      dup2\n      mstore\n      swap1\n      0x01\n      add\n      swap1\n      0x20\n      add\n      dup1\n      dup4\n      gt\n      tag_248\n      jumpi\n      dup3\n      swap1\n      sub\n      0x1f\n      and\n      dup3\n      add\n      swap2\n    tag_246:\n      pop\n      pop\n      pop\n      pop\n      pop\n      dup2\n      mstore\n      0x20\n      add\n      0x01\n      dup3\n      add\n      sload\n      dup2\n      mstore\n      0x20\n      add\n      0x02\n      dup3\n      add\n      sload\n      dup2\n      mstore\n      0x20\n      add\n      0x03\n      dup3\n      add\n      dup1\n      sload\n      tag_249\n      swap1\n      tag_64\n      jump\t// in\n    tag_249:\n      dup1\n      0x1f\n      add\n      0x20\n      dup1\n      swap2\n      div\n      mul\n      0x20\n      add\n      mload(0x40)\n      swap1\n      dup2\n      add\n      0x40\n      mstore\n      dup1\n      swap3\n      swap2\n      swap1\n      dup2\n      dup2\n      mstore\n      0x20\n      add\n      dup3\n      dup1\n      sload\n      tag_250\n      swap1\n      tag_64\n      jump\t// in\n    tag_250:\n      dup1\n      iszero\n      tag_251\n      jumpi\n      dup1\n      0x1f\n      lt\n      tag_252\n      jumpi\n      0x0100\n      dup1\n      dup4\n      sload\n      div\n      mul\n      dup4\n      mstore\n      swap2\n      0x20\n      add\n      swap2\n      jump(tag_251)\n    tag_252:\n      dup3\n      add\n      swap2\n      swap1\n      0x00\n      mstore\n      keccak256(0x00, 0x20)\n      swap1\n    tag_253:\n      dup2\n      sload\n      dup2\n      mstore\n      swap1\n      0x01\n      add\n      swap1\n      0x20\n      add\n      dup1\n      dup4\n      gt\n      tag_253\n      jumpi\n      dup3\n      swap1\n      sub\n      0x1f\n      and\n      dup3\n      add\n      swap2\n    tag_251:\n      pop\n      pop\n      pop\n      pop\n      pop\n      dup2\n      mstore\n      0x20\n      add\n      0x04\n      dup3\n      add\n      dup1\n      sload\n      dup1\n      0x20\n      mul\n      0x20\n      add\n      mload(0x40)\n      swap1\n      dup2\n      add\n      0x40\n      mstore\n      dup1\n      swap3\n      swap2\n      swap1\n      dup2\n      dup2\n      mstore\n      0x20\n      add\n      0x00\n      swap1\n    tag_254:\n      dup3\n      dup3\n      lt\n      iszero\n      tag_255\n      jumpi\n      dup4\n      dup3\n      swap1\n      0x00\n      mstore\n      keccak256(0x00, 0x20)\n      add\n      dup1\n      sload\n      tag_257\n      swap1\n      tag_64\n      jump\t// in\n    tag_257:\n      dup1\n      0x1f\n      add\n      0x20\n      dup1\n      swap2\n      div\n      mul\n      0x20\n      add\n      mload(0x40)\n      swap1\n      dup2\n      add\n      0x40\n      mstore\n      dup1\n      swap3\n      swap2\n      swap1\n      dup2\n      dup2\n      mstore\n      0x20\n      add\n      dup3\n      dup1\n      sload\n      tag_258\n      swap1\n      tag_64\n      jump\t// in\n    tag_258:\n      dup1\n      iszero\n      tag_259\n      jumpi\n      dup1\n      0x1f\n      lt\n      tag_260\n      jumpi\n      0x0100\n      dup1\n      dup4\n      sload\n      div\n      mul\n      dup4\n      mstore\n      swap2\n      0x20\n      add\n      swap2\n      jump(tag_259)\n    tag_260:\n      dup3\n      add\n      swap2\n      swap1\n      0x00\n      mstore\n      keccak256(0x00, 0x20)\n      swap1\n    tag_261:\n      dup2\n      sload\n      dup2\n      mstore\n      swap1\n      0x01\n      add\n      swap1\n      0x20\n      add\n      dup1\n      dup4\n      gt\n      tag_261\n      jumpi\n      dup3\n      swap1\n      sub\n      0x1f\n      and\n      dup3\n      add\n      swap2\n    tag_259:\n      pop\n      pop\n      pop\n      pop\n      pop\n      dup2\n      mstore\n      0x20\n      add\n      swap1\n      0x01\n      add\n      swap1\n      jump(tag_254)\n    tag_255:\n      pop\n      pop\n      pop\n      pop\n      dup2\n      mstore\n      pop\n      pop\n      swap2\n      pop\n      pop\n      jump(tag_231)\n        /* \"codingtest/codingtest_241231.sol\":1492:1765  if (... */\n    tag_240:\n        /* \"codingtest/codingtest_241231.sol\":1710:1750  revert(\"No student with the given name\") */\n      mload(0x40)\n      0x08c379a000000000000000000000000000000000000000000000000000000000\n      dup2\n      mstore\n      0x04\n      add\n      tag_263\n      swap1\n      tag_96\n      jump\t// in\n    tag_263:\n      mload(0x40)\n      dup1\n      swap2\n      sub\n      swap1\n      revert\n        /* \"codingtest/codingtest_241231.sol\":1432:1775  for (uint256 i = 0; i < students.length; i++) {... */\n    tag_233:\n      pop\n        /* \"codingtest/codingtest_241231.sol\":1309:1781  function findStudentByName(string memory _name)... */\n    tag_231:\n      swap2\n      swap1\n      pop\n      jump\t// out\n        /* \"codingtest/codingtest_241231.sol\":2552:2816  function getAllStudents() public view returns (STUDENT[] memory) {... */\n    tag_52:\n        /* \"codingtest/codingtest_241231.sol\":2599:2615  STUDENT[] memory */\n      0x60\n        /* \"codingtest/codingtest_241231.sol\":2627:2650  STUDENT[] memory result */\n      0x00\n        /* \"codingtest/codingtest_241231.sol\":2667:2675  students */\n      dup1\n        /* \"codingtest/codingtest_241231.sol\":2667:2682  students.length */\n      dup1\n      sload\n      swap1\n      pop\n        /* \"codingtest/codingtest_241231.sol\":2653:2683  new STUDENT[](students.length) */\n      0xffffffffffffffff\n      dup2\n      gt\n      iszero\n      tag_265\n      jumpi\n      tag_266\n      tag_102\n      jump\t// in\n    tag_266:\n    tag_265:\n      mload(0x40)\n      swap1\n      dup1\n      dup3\n      mstore\n      dup1\n      0x20\n      mul\n      0x20\n      add\n      dup3\n      add\n      0x40\n      mstore\n      dup1\n      iszero\n      tag_267\n      jumpi\n      dup2\n      0x20\n      add\n    tag_268:\n      tag_269\n      tag_106\n      jump\t// in\n    tag_269:\n      dup2\n      mstore\n      0x20\n      add\n      swap1\n      0x01\n      swap1\n      sub\n      swap1\n      dup2\n      tag_268\n      jumpi\n      swap1\n      pop\n    tag_267:\n      pop\n        /* \"codingtest/codingtest_241231.sol\":2627:2683  STUDENT[] memory result = new STUDENT[](students.length) */\n      swap1\n      pop\n        /* \"codingtest/codingtest_241231.sol\":2698:2707  uint256 i */\n      0x00\n        /* \"codingtest/codingtest_241231.sol\":2693:2787  for (uint256 i = 0; i < students.length; i++) {... */\n    tag_270:\n        /* \"codingtest/codingtest_241231.sol\":2717:2725  students */\n      0x00\n        /* \"codingtest/codingtest_241231.sol\":2717:2732  students.length */\n      dup1\n      sload\n      swap1\n      pop\n        /* \"codingtest/codingtest_241231.sol\":2713:2714  i */\n      dup2\n        /* \"codingtest/codingtest_241231.sol\":2713:2732  i < students.length */\n      lt\n        /* \"codingtest/codingtest_241231.sol\":2693:2787  for (uint256 i = 0; i < students.length; i++) {... */\n      iszero\n      tag_271\n      jumpi\n        /* \"codingtest/codingtest_241231.sol\":2765:2773  students */\n      0x00\n        /* \"codingtest/codingtest_241231.sol\":2774:2775  i */\n      dup2\n        /* \"codingtest/codingtest_241231.sol\":2765:2776  students[i] */\n      dup2\n      sload\n      dup2\n      lt\n      tag_273\n      jumpi\n      tag_274\n      tag_86\n      jump\t// in\n    tag_274:\n    tag_273:\n      swap1\n      0x00\n      mstore\n      keccak256(0x00, 0x20)\n      swap1\n      0x05\n      mul\n      add\n        /* \"codingtest/codingtest_241231.sol\":2753:2776  result[i] = students[i] */\n      mload(0x40)\n      dup1\n      0xa0\n      add\n      0x40\n      mstore\n      swap1\n      dup2\n      0x00\n      dup3\n      add\n      dup1\n      sload\n      tag_276\n      swap1\n      tag_64\n      jump\t// in\n    tag_276:\n      dup1\n      0x1f\n      add\n      0x20\n      dup1\n      swap2\n      div\n      mul\n      0x20\n      add\n      mload(0x40)\n      swap1\n      dup2\n      add\n      0x40\n      mstore\n      dup1\n      swap3\n      swap2\n      swap1\n      dup2\n      dup2\n      mstore\n      0x20\n      add\n      dup3\n      dup1\n      sload\n      tag_277\n      swap1\n      tag_64\n      jump\t// in\n    tag_277:\n      dup1\n      iszero\n      tag_278\n      jumpi\n      dup1\n      0x1f\n      lt\n      tag_279\n      jumpi\n      0x0100\n      dup1\n      dup4\n      sload\n      div\n      mul\n      dup4\n      mstore\n      swap2\n      0x20\n      add\n      swap2\n      jump(tag_278)\n    tag_279:\n      dup3\n      add\n      swap2\n      swap1\n      0x00\n      mstore\n      keccak256(0x00, 0x20)\n      swap1\n    tag_280:\n      dup2\n      sload\n      dup2\n      mstore\n      swap1\n      0x01\n      add\n      swap1\n      0x20\n      add\n      dup1\n      dup4\n      gt\n      tag_280\n      jumpi\n      dup3\n      swap1\n      sub\n      0x1f\n      and\n      dup3\n      add\n      swap2\n    tag_278:\n      pop\n      pop\n      pop\n      pop\n      pop\n      dup2\n      mstore\n      0x20\n      add\n      0x01\n      dup3\n      add\n      sload\n      dup2\n      mstore\n      0x20\n      add\n      0x02\n      dup3\n      add\n      sload\n      dup2\n      mstore\n      0x20\n      add\n      0x03\n      dup3\n      add\n      dup1\n      sload\n      tag_281\n      swap1\n      tag_64\n      jump\t// in\n    tag_281:\n      dup1\n      0x1f\n      add\n      0x20\n      dup1\n      swap2\n      div\n      mul\n      0x20\n      add\n      mload(0x40)\n      swap1\n      dup2\n      add\n      0x40\n      mstore\n      dup1\n      swap3\n      swap2\n      swap1\n      dup2\n      dup2\n      mstore\n      0x20\n      add\n      dup3\n      dup1\n      sload\n      tag_282\n      swap1\n      tag_64\n      jump\t// in\n    tag_282:\n      dup1\n      iszero\n      tag_283\n      jumpi\n      dup1\n      0x1f\n      lt\n      tag_284\n      jumpi\n      0x0100\n      dup1\n      dup4\n      sload\n      div\n      mul\n      dup4\n      mstore\n      swap2\n      0x20\n      add\n      swap2\n      jump(tag_283)\n    tag_284:\n      dup3\n      add\n      swap2\n      swap1\n      0x00\n      mstore\n      keccak256(0x00, 0x20)\n      swap1\n    tag_285:\n      dup2\n      sload\n      dup2\n      mstore\n      swap1\n      0x01\n      add\n      swap1\n      0x20\n      add\n      dup1\n      dup4\n      gt\n      tag_285\n      jumpi\n      dup3\n      swap1\n      sub\n      0x1f\n      and\n      dup3\n      add\n      swap2\n    tag_283:\n      pop\n      pop\n      pop\n      pop\n      pop\n      dup2\n      mstore\n      0x20\n      add\n      0x04\n      dup3\n      add\n      dup1\n      sload\n      dup1\n      0x20\n      mul\n      0x20\n      add\n      mload(0x40)\n      swap1\n      dup2\n      add\n      0x40\n      mstore\n      dup1\n      swap3\n      swap2\n      swap1\n      dup2\n      dup2\n      mstore\n      0x20\n      add\n      0x00\n      swap1\n    tag_286:\n      dup3\n      dup3\n      lt\n      iszero\n      tag_287\n      jumpi\n      dup4\n      dup3\n      swap1\n      0x00\n      mstore\n      keccak256(0x00, 0x20)\n      add\n      dup1\n      sload\n      tag_289\n      swap1\n      tag_64\n      jump\t// in\n    tag_289:\n      dup1\n      0x1f\n      add\n      0x20\n      dup1\n      swap2\n      div\n      mul\n      0x20\n      add\n      mload(0x40)\n      swap1\n      dup2\n      add\n      0x40\n      mstore\n      dup1\n      swap3\n      swap2\n      swap1\n      dup2\n      dup2\n      mstore\n      0x20\n      add\n      dup3\n      dup1\n      sload\n      tag_290\n      swap1\n      tag_64\n      jump\t// in\n    tag_290:\n      dup1\n      iszero\n      tag_291\n      jumpi\n      dup1\n      0x1f\n      lt\n      tag_292\n      jumpi\n      0x0100\n      dup1\n      dup4\n      sload\n      div\n      mul\n      dup4\n      mstore\n      swap2\n      0x20\n      add\n      swap2\n      jump(tag_291)\n    tag_292:\n      dup3\n      add\n      swap2\n      swap1\n      0x00\n      mstore\n      keccak256(0x00, 0x20)\n      swap1\n    tag_293:\n      dup2\n      sload\n      dup2\n      mstore\n      swap1\n      0x01\n      add\n      swap1\n      0x20\n      add\n      dup1\n      dup4\n      gt\n      tag_293\n      jumpi\n      dup3\n      swap1\n      sub\n      0x1f\n      and\n      dup3\n      add\n      swap2\n    tag_291:\n      pop\n      pop\n      pop\n      pop\n      pop\n      dup2\n      mstore\n      0x20\n      add\n      swap1\n      0x01\n      add\n      swap1\n      jump(tag_286)\n    tag_287:\n      pop\n      pop\n      pop\n      pop\n      dup2\n      mstore\n      pop\n      pop\n        /* \"codingtest/codingtest_241231.sol\":2753:2759  result */\n      dup3\n        /* \"codingtest/codingtest_241231.sol\":2760:2761  i */\n      dup3\n        /* \"codingtest/codingtest_241231.sol\":2753:2762  result[i] */\n      dup2\n      mload\n      dup2\n      lt\n      tag_294\n      jumpi\n      tag_295\n      tag_86\n      jump\t// in\n    tag_295:\n    tag_294:\n      0x20\n      mul\n      0x20\n      add\n      add\n        /* \"codingtest/codingtest_241231.sol\":2753:2776  result[i] = students[i] */\n      dup2\n      swap1\n      mstore\n      pop\n        /* \"codingtest/codingtest_241231.sol\":2734:2737  i++ */\n      dup1\n      dup1\n      0x01\n      add\n      swap2\n      pop\n      pop\n        /* \"codingtest/codingtest_241231.sol\":2693:2787  for (uint256 i = 0; i < students.length; i++) {... */\n      jump(tag_270)\n    tag_271:\n      pop\n        /* \"codingtest/codingtest_241231.sol\":2803:2809  result */\n      dup1\n        /* \"codingtest/codingtest_241231.sol\":2796:2809  return result */\n      swap2\n      pop\n      pop\n        /* \"codingtest/codingtest_241231.sol\":2552:2816  function getAllStudents() public view returns (STUDENT[] memory) {... */\n      swap1\n      jump\t// out\n        /* \"codingtest/codingtest_241231.sol\":2269:2546  function getAllStudentsNumber() public view returns (uint256[] memory) {... */\n    tag_55:\n        /* \"codingtest/codingtest_241231.sol\":2322:2338  uint256[] memory */\n      0x60\n        /* \"codingtest/codingtest_241231.sol\":2350:2373  uint256[] memory result */\n      0x00\n        /* \"codingtest/codingtest_241231.sol\":2390:2398  students */\n      dup1\n        /* \"codingtest/codingtest_241231.sol\":2390:2405  students.length */\n      dup1\n      sload\n      swap1\n      pop\n        /* \"codingtest/codingtest_241231.sol\":2376:2406  new uint256[](students.length) */\n      0xffffffffffffffff\n      dup2\n      gt\n      iszero\n      tag_297\n      jumpi\n      tag_298\n      tag_102\n      jump\t// in\n    tag_298:\n    tag_297:\n      mload(0x40)\n      swap1\n      dup1\n      dup3\n      mstore\n      dup1\n      0x20\n      mul\n      0x20\n      add\n      dup3\n      add\n      0x40\n      mstore\n      dup1\n      iszero\n      tag_299\n      jumpi\n      dup2\n      0x20\n      add\n      0x20\n      dup3\n      mul\n      dup1\n      calldatasize\n      dup4\n      calldatacopy\n      dup1\n      dup3\n      add\n      swap2\n      pop\n      pop\n      swap1\n      pop\n    tag_299:\n      pop\n        /* \"codingtest/codingtest_241231.sol\":2350:2406  uint256[] memory result = new uint256[](students.length) */\n      swap1\n      pop\n        /* \"codingtest/codingtest_241231.sol\":2421:2430  uint256 i */\n      0x00\n        /* \"codingtest/codingtest_241231.sol\":2416:2517  for (uint256 i = 0; i < students.length; i++) {... */\n    tag_300:\n        /* \"codingtest/codingtest_241231.sol\":2440:2448  students */\n      0x00\n        /* \"codingtest/codingtest_241231.sol\":2440:2455  students.length */\n      dup1\n      sload\n      swap1\n      pop\n        /* \"codingtest/codingtest_241231.sol\":2436:2437  i */\n      dup2\n        /* \"codingtest/codingtest_241231.sol\":2436:2455  i < students.length */\n      lt\n        /* \"codingtest/codingtest_241231.sol\":2416:2517  for (uint256 i = 0; i < students.length; i++) {... */\n      iszero\n      tag_301\n      jumpi\n        /* \"codingtest/codingtest_241231.sol\":2488:2496  students */\n      0x00\n        /* \"codingtest/codingtest_241231.sol\":2497:2498  i */\n      dup2\n        /* \"codingtest/codingtest_241231.sol\":2488:2499  students[i] */\n      dup2\n      sload\n      dup2\n      lt\n      tag_303\n      jumpi\n      tag_304\n      tag_86\n      jump\t// in\n    tag_304:\n    tag_303:\n      swap1\n      0x00\n      mstore\n      keccak256(0x00, 0x20)\n      swap1\n      0x05\n      mul\n      add\n        /* \"codingtest/codingtest_241231.sol\":2488:2506  students[i].number */\n      0x01\n      add\n      sload\n        /* \"codingtest/codingtest_241231.sol\":2476:2482  result */\n      dup3\n        /* \"codingtest/codingtest_241231.sol\":2483:2484  i */\n      dup3\n        /* \"codingtest/codingtest_241231.sol\":2476:2485  result[i] */\n      dup2\n      mload\n      dup2\n      lt\n      tag_306\n      jumpi\n      tag_307\n      tag_86\n      jump\t// in\n    tag_307:\n    tag_306:\n      0x20\n      mul\n      0x20\n      add\n      add\n        /* \"codingtest/codingtest_241231.sol\":2476:2506  result[i] = students[i].number */\n      dup2\n      dup2\n      mstore\n      pop\n      pop\n        /* \"codingtest/codingtest_241231.sol\":2457:2460  i++ */\n      dup1\n      dup1\n      0x01\n      add\n      swap2\n      pop\n      pop\n        /* \"codingtest/codingtest_241231.sol\":2416:2517  for (uint256 i = 0; i < students.length; i++) {... */\n      jump(tag_300)\n    tag_301:\n      pop\n        /* \"codingtest/codingtest_241231.sol\":2533:2539  result */\n      dup1\n        /* \"codingtest/codingtest_241231.sol\":2526:2539  return result */\n      swap2\n      pop\n      pop\n        /* \"codingtest/codingtest_241231.sol\":2269:2546  function getAllStudentsNumber() public view returns (uint256[] memory) {... */\n      swap1\n      jump\t// out\n        /* \"codingtest/codingtest_241231.sol\":2822:3053  function getScoreAVG() public view returns (uint256) {... */\n    tag_59:\n        /* \"codingtest/codingtest_241231.sol\":2866:2873  uint256 */\n      0x00\n        /* \"codingtest/codingtest_241231.sol\":2885:2898  uint256 total */\n      dup1\n        /* \"codingtest/codingtest_241231.sol\":2913:2922  uint256 i */\n      0x00\n        /* \"codingtest/codingtest_241231.sol\":2908:3005  for (uint256 i = 0; i < students.length; i++) {... */\n    tag_309:\n        /* \"codingtest/codingtest_241231.sol\":2932:2940  students */\n      0x00\n        /* \"codingtest/codingtest_241231.sol\":2932:2947  students.length */\n      dup1\n      sload\n      swap1\n      pop\n        /* \"codingtest/codingtest_241231.sol\":2928:2929  i */\n      dup2\n        /* \"codingtest/codingtest_241231.sol\":2928:2947  i < students.length */\n      lt\n        /* \"codingtest/codingtest_241231.sol\":2908:3005  for (uint256 i = 0; i < students.length; i++) {... */\n      iszero\n      tag_310\n      jumpi\n        /* \"codingtest/codingtest_241231.sol\":2977:2985  students */\n      0x00\n        /* \"codingtest/codingtest_241231.sol\":2986:2987  i */\n      dup2\n        /* \"codingtest/codingtest_241231.sol\":2977:2988  students[i] */\n      dup2\n      sload\n      dup2\n      lt\n      tag_312\n      jumpi\n      tag_313\n      tag_86\n      jump\t// in\n    tag_313:\n    tag_312:\n      swap1\n      0x00\n      mstore\n      keccak256(0x00, 0x20)\n      swap1\n      0x05\n      mul\n      add\n        /* \"codingtest/codingtest_241231.sol\":2977:2994  students[i].score */\n      0x02\n      add\n      sload\n        /* \"codingtest/codingtest_241231.sol\":2968:2994  total += students[i].score */\n      dup3\n      tag_315\n      swap2\n      swap1\n      tag_316\n      jump\t// in\n    tag_315:\n      swap2\n      pop\n        /* \"codingtest/codingtest_241231.sol\":2949:2952  i++ */\n      dup1\n      dup1\n      0x01\n      add\n      swap2\n      pop\n      pop\n        /* \"codingtest/codingtest_241231.sol\":2908:3005  for (uint256 i = 0; i < students.length; i++) {... */\n      jump(tag_309)\n    tag_310:\n      pop\n        /* \"codingtest/codingtest_241231.sol\":3030:3038  students */\n      0x00\n        /* \"codingtest/codingtest_241231.sol\":3030:3045  students.length */\n      dup1\n      sload\n      swap1\n      pop\n        /* \"codingtest/codingtest_241231.sol\":3022:3027  total */\n      dup2\n        /* \"codingtest/codingtest_241231.sol\":3022:3045  total / students.length */\n      tag_317\n      swap2\n      swap1\n      tag_318\n      jump\t// in\n    tag_317:\n        /* \"codingtest/codingtest_241231.sol\":3014:3046  return (total / students.length) */\n      swap2\n      pop\n      pop\n        /* \"codingtest/codingtest_241231.sol\":2822:3053  function getScoreAVG() public view returns (uint256) {... */\n      swap1\n      jump\t// out\n        /* \"codingtest/codingtest_241231.sol\":4067:4622  function sortStudentsByScore(STUDENT[] memory _students)... */\n    tag_134:\n        /* \"codingtest/codingtest_241231.sol\":4171:4187  STUDENT[] memory */\n      0x60\n        /* \"codingtest/codingtest_241231.sol\":4203:4217  uint256 length */\n      0x00\n        /* \"codingtest/codingtest_241231.sol\":4220:4229  _students */\n      dup3\n        /* \"codingtest/codingtest_241231.sol\":4220:4236  _students.length */\n      mload\n        /* \"codingtest/codingtest_241231.sol\":4203:4236  uint256 length = _students.length */\n      swap1\n      pop\n        /* \"codingtest/codingtest_241231.sol\":4251:4260  uint256 i */\n      0x00\n        /* \"codingtest/codingtest_241231.sol\":4246:4590  for (uint256 i = 0; i < length; i++) {... */\n    tag_320:\n        /* \"codingtest/codingtest_241231.sol\":4270:4276  length */\n      dup2\n        /* \"codingtest/codingtest_241231.sol\":4266:4267  i */\n      dup2\n        /* \"codingtest/codingtest_241231.sol\":4266:4276  i < length */\n      lt\n        /* \"codingtest/codingtest_241231.sol\":4246:4590  for (uint256 i = 0; i < length; i++) {... */\n      iszero\n      tag_321\n      jumpi\n        /* \"codingtest/codingtest_241231.sol\":4302:4311  uint256 j */\n      0x00\n        /* \"codingtest/codingtest_241231.sol\":4318:4319  1 */\n      0x01\n        /* \"codingtest/codingtest_241231.sol\":4314:4315  i */\n      dup3\n        /* \"codingtest/codingtest_241231.sol\":4314:4319  i + 1 */\n      tag_326\n      swap2\n      swap1\n      tag_316\n      jump\t// in\n    tag_326:\n        /* \"codingtest/codingtest_241231.sol\":4302:4319  uint256 j = i + 1 */\n      swap1\n      pop\n        /* \"codingtest/codingtest_241231.sol\":4297:4580  for (uint256 j = i + 1; j < length; j++) {... */\n    tag_323:\n        /* \"codingtest/codingtest_241231.sol\":4325:4331  length */\n      dup3\n        /* \"codingtest/codingtest_241231.sol\":4321:4322  j */\n      dup2\n        /* \"codingtest/codingtest_241231.sol\":4321:4331  j < length */\n      lt\n        /* \"codingtest/codingtest_241231.sol\":4297:4580  for (uint256 j = i + 1; j < length; j++) {... */\n      iszero\n      tag_324\n      jumpi\n        /* \"codingtest/codingtest_241231.sol\":4381:4390  _students */\n      dup5\n        /* \"codingtest/codingtest_241231.sol\":4391:4392  j */\n      dup2\n        /* \"codingtest/codingtest_241231.sol\":4381:4393  _students[j] */\n      dup2\n      mload\n      dup2\n      lt\n      tag_327\n      jumpi\n      tag_328\n      tag_86\n      jump\t// in\n    tag_328:\n    tag_327:\n      0x20\n      mul\n      0x20\n      add\n      add\n      mload\n        /* \"codingtest/codingtest_241231.sol\":4381:4399  _students[j].score */\n      0x40\n      add\n      mload\n        /* \"codingtest/codingtest_241231.sol\":4360:4369  _students */\n      dup6\n        /* \"codingtest/codingtest_241231.sol\":4370:4371  i */\n      dup4\n        /* \"codingtest/codingtest_241231.sol\":4360:4372  _students[i] */\n      dup2\n      mload\n      dup2\n      lt\n      tag_329\n      jumpi\n      tag_330\n      tag_86\n      jump\t// in\n    tag_330:\n    tag_329:\n      0x20\n      mul\n      0x20\n      add\n      add\n      mload\n        /* \"codingtest/codingtest_241231.sol\":4360:4378  _students[i].score */\n      0x40\n      add\n      mload\n        /* \"codingtest/codingtest_241231.sol\":4360:4399  _students[i].score < _students[j].score */\n      lt\n        /* \"codingtest/codingtest_241231.sol\":4356:4566  if (_students[i].score < _students[j].score) {... */\n      iszero\n      tag_331\n      jumpi\n        /* \"codingtest/codingtest_241231.sol\":4423:4442  STUDENT memory temp */\n      0x00\n        /* \"codingtest/codingtest_241231.sol\":4445:4454  _students */\n      dup6\n        /* \"codingtest/codingtest_241231.sol\":4455:4456  i */\n      dup4\n        /* \"codingtest/codingtest_241231.sol\":4445:4457  _students[i] */\n      dup2\n      mload\n      dup2\n      lt\n      tag_332\n      jumpi\n      tag_333\n      tag_86\n      jump\t// in\n    tag_333:\n    tag_332:\n      0x20\n      mul\n      0x20\n      add\n      add\n      mload\n        /* \"codingtest/codingtest_241231.sol\":4423:4457  STUDENT memory temp = _students[i] */\n      swap1\n      pop\n        /* \"codingtest/codingtest_241231.sol\":4494:4503  _students */\n      dup6\n        /* \"codingtest/codingtest_241231.sol\":4504:4505  j */\n      dup3\n        /* \"codingtest/codingtest_241231.sol\":4494:4506  _students[j] */\n      dup2\n      mload\n      dup2\n      lt\n      tag_334\n      jumpi\n      tag_335\n      tag_86\n      jump\t// in\n    tag_335:\n    tag_334:\n      0x20\n      mul\n      0x20\n      add\n      add\n      mload\n        /* \"codingtest/codingtest_241231.sol\":4479:4488  _students */\n      dup7\n        /* \"codingtest/codingtest_241231.sol\":4489:4490  i */\n      dup5\n        /* \"codingtest/codingtest_241231.sol\":4479:4491  _students[i] */\n      dup2\n      mload\n      dup2\n      lt\n      tag_336\n      jumpi\n      tag_337\n      tag_86\n      jump\t// in\n    tag_337:\n    tag_336:\n      0x20\n      mul\n      0x20\n      add\n      add\n        /* \"codingtest/codingtest_241231.sol\":4479:4506  _students[i] = _students[j] */\n      dup2\n      swap1\n      mstore\n      pop\n        /* \"codingtest/codingtest_241231.sol\":4543:4547  temp */\n      dup1\n        /* \"codingtest/codingtest_241231.sol\":4528:4537  _students */\n      dup7\n        /* \"codingtest/codingtest_241231.sol\":4538:4539  j */\n      dup4\n        /* \"codingtest/codingtest_241231.sol\":4528:4540  _students[j] */\n      dup2\n      mload\n      dup2\n      lt\n      tag_338\n      jumpi\n      tag_339\n      tag_86\n      jump\t// in\n    tag_339:\n    tag_338:\n      0x20\n      mul\n      0x20\n      add\n      add\n        /* \"codingtest/codingtest_241231.sol\":4528:4547  _students[j] = temp */\n      dup2\n      swap1\n      mstore\n      pop\n        /* \"codingtest/codingtest_241231.sol\":4401:4566  {... */\n      pop\n        /* \"codingtest/codingtest_241231.sol\":4356:4566  if (_students[i].score < _students[j].score) {... */\n    tag_331:\n        /* \"codingtest/codingtest_241231.sol\":4333:4336  j++ */\n      dup1\n      dup1\n      0x01\n      add\n      swap2\n      pop\n      pop\n        /* \"codingtest/codingtest_241231.sol\":4297:4580  for (uint256 j = i + 1; j < length; j++) {... */\n      jump(tag_323)\n    tag_324:\n      pop\n        /* \"codingtest/codingtest_241231.sol\":4278:4281  i++ */\n      dup1\n      dup1\n      0x01\n      add\n      swap2\n      pop\n      pop\n        /* \"codingtest/codingtest_241231.sol\":4246:4590  for (uint256 i = 0; i < length; i++) {... */\n      jump(tag_320)\n    tag_321:\n      pop\n        /* \"codingtest/codingtest_241231.sol\":4606:4615  _students */\n      dup3\n        /* \"codingtest/codingtest_241231.sol\":4599:4615  return _students */\n      swap2\n      pop\n      pop\n        /* \"codingtest/codingtest_241231.sol\":4067:4622  function sortStudentsByScore(STUDENT[] memory _students)... */\n      swap2\n      swap1\n      pop\n      jump\t// out\n        /* \"codingtest/codingtest_241231.sol\":3239:3614  function findFStudnetsTotal() internal view returns (uint256) {... */\n    tag_149:\n        /* \"codingtest/codingtest_241231.sol\":3292:3299  uint256 */\n      0x00\n        /* \"codingtest/codingtest_241231.sol\":3311:3324  uint256 total */\n      dup1\n        /* \"codingtest/codingtest_241231.sol\":3339:3348  uint256 i */\n      0x00\n        /* \"codingtest/codingtest_241231.sol\":3334:3586  for (uint256 i = 0; i < students.length; i++) {... */\n    tag_341:\n        /* \"codingtest/codingtest_241231.sol\":3358:3366  students */\n      0x00\n        /* \"codingtest/codingtest_241231.sol\":3358:3373  students.length */\n      dup1\n      sload\n      swap1\n      pop\n        /* \"codingtest/codingtest_241231.sol\":3354:3355  i */\n      dup2\n        /* \"codingtest/codingtest_241231.sol\":3354:3373  i < students.length */\n      lt\n        /* \"codingtest/codingtest_241231.sol\":3334:3586  for (uint256 i = 0; i < students.length; i++) {... */\n      iszero\n      tag_342\n      jumpi\n        /* \"codingtest/codingtest_241231.sol\":3496:3519  abi.encodePacked((\"F\")) */\n      add(0x20, mload(0x40))\n      tag_344\n      swap1\n      tag_159\n      jump\t// in\n    tag_344:\n      mload(0x40)\n      0x20\n      dup2\n      dup4\n      sub\n      sub\n      dup2\n      mstore\n      swap1\n      0x40\n      mstore\n        /* \"codingtest/codingtest_241231.sol\":3485:3521  keccak256((abi.encodePacked((\"F\")))) */\n      dup1\n      mload\n      swap1\n      0x20\n      add\n      keccak256\n        /* \"codingtest/codingtest_241231.sol\":3444:3452  students */\n      0x00\n        /* \"codingtest/codingtest_241231.sol\":3453:3454  i */\n      dup3\n        /* \"codingtest/codingtest_241231.sol\":3444:3455  students[i] */\n      dup2\n      sload\n      dup2\n      lt\n      tag_345\n      jumpi\n      tag_346\n      tag_86\n      jump\t// in\n    tag_346:\n    tag_345:\n      swap1\n      0x00\n      mstore\n      keccak256(0x00, 0x20)\n      swap1\n      0x05\n      mul\n      add\n        /* \"codingtest/codingtest_241231.sol\":3444:3461  students[i].grade */\n      0x03\n      add\n        /* \"codingtest/codingtest_241231.sol\":3426:3463  abi.encodePacked((students[i].grade)) */\n      add(0x20, mload(0x40))\n      tag_348\n      swap2\n      swap1\n      tag_89\n      jump\t// in\n    tag_348:\n      mload(0x40)\n      0x20\n      dup2\n      dup4\n      sub\n      sub\n      dup2\n      mstore\n      swap1\n      0x40\n      mstore\n        /* \"codingtest/codingtest_241231.sol\":3415:3465  keccak256((abi.encodePacked((students[i].grade)))) */\n      dup1\n      mload\n      swap1\n      0x20\n      add\n      keccak256\n        /* \"codingtest/codingtest_241231.sol\":3415:3521  keccak256((abi.encodePacked((students[i].grade)))) ==... */\n      sub\n        /* \"codingtest/codingtest_241231.sol\":3394:3576  if (... */\n      tag_349\n      jumpi\n        /* \"codingtest/codingtest_241231.sol\":3554:3561  total++ */\n      dup2\n      dup1\n      tag_350\n      swap1\n      tag_351\n      jump\t// in\n    tag_350:\n      swap3\n      pop\n      pop\n        /* \"codingtest/codingtest_241231.sol\":3394:3576  if (... */\n    tag_349:\n        /* \"codingtest/codingtest_241231.sol\":3375:3378  i++ */\n      dup1\n      dup1\n      0x01\n      add\n      swap2\n      pop\n      pop\n        /* \"codingtest/codingtest_241231.sol\":3334:3586  for (uint256 i = 0; i < students.length; i++) {... */\n      jump(tag_341)\n    tag_342:\n      pop\n        /* \"codingtest/codingtest_241231.sol\":3602:3607  total */\n      dup1\n        /* \"codingtest/codingtest_241231.sol\":3595:3607  return total */\n      swap2\n      pop\n      pop\n        /* \"codingtest/codingtest_241231.sol\":3239:3614  function findFStudnetsTotal() internal view returns (uint256) {... */\n      swap1\n      jump\t// out\n        /* \"codingtest/codingtest_241231.sol\":269:657  function calculateGrade(uint256 score)... */\n    tag_223:\n        /* \"codingtest/codingtest_241231.sol\":355:368  string memory */\n      0x60\n        /* \"codingtest/codingtest_241231.sol\":397:399  90 */\n      0x5a\n        /* \"codingtest/codingtest_241231.sol\":388:393  score */\n      dup3\n        /* \"codingtest/codingtest_241231.sol\":388:399  score >= 90 */\n      lt\n        /* \"codingtest/codingtest_241231.sol\":384:651  if (score >= 90) {... */\n      tag_353\n      jumpi\n        /* \"codingtest/codingtest_241231.sol\":415:425  return \"A\" */\n      mload(0x40)\n      dup1\n      0x40\n      add\n      0x40\n      mstore\n      dup1\n      0x01\n      dup2\n      mstore\n      0x20\n      add\n      0x4100000000000000000000000000000000000000000000000000000000000000\n      dup2\n      mstore\n      pop\n      swap1\n      pop\n      jump(tag_352)\n        /* \"codingtest/codingtest_241231.sol\":384:651  if (score >= 90) {... */\n    tag_353:\n        /* \"codingtest/codingtest_241231.sol\":455:457  80 */\n      0x50\n        /* \"codingtest/codingtest_241231.sol\":446:451  score */\n      dup3\n        /* \"codingtest/codingtest_241231.sol\":446:457  score >= 80 */\n      lt\n        /* \"codingtest/codingtest_241231.sol\":442:651  if (score >= 80) {... */\n      tag_355\n      jumpi\n        /* \"codingtest/codingtest_241231.sol\":473:483  return \"B\" */\n      mload(0x40)\n      dup1\n      0x40\n      add\n      0x40\n      mstore\n      dup1\n      0x01\n      dup2\n      mstore\n      0x20\n      add\n      0x4200000000000000000000000000000000000000000000000000000000000000\n      dup2\n      mstore\n      pop\n      swap1\n      pop\n      jump(tag_352)\n        /* \"codingtest/codingtest_241231.sol\":442:651  if (score >= 80) {... */\n    tag_355:\n        /* \"codingtest/codingtest_241231.sol\":513:515  70 */\n      0x46\n        /* \"codingtest/codingtest_241231.sol\":504:509  score */\n      dup3\n        /* \"codingtest/codingtest_241231.sol\":504:515  score >= 70 */\n      lt\n        /* \"codingtest/codingtest_241231.sol\":500:651  if (score >= 70) {... */\n      tag_357\n      jumpi\n        /* \"codingtest/codingtest_241231.sol\":531:541  return \"C\" */\n      mload(0x40)\n      dup1\n      0x40\n      add\n      0x40\n      mstore\n      dup1\n      0x01\n      dup2\n      mstore\n      0x20\n      add\n      0x4300000000000000000000000000000000000000000000000000000000000000\n      dup2\n      mstore\n      pop\n      swap1\n      pop\n      jump(tag_352)\n        /* \"codingtest/codingtest_241231.sol\":500:651  if (score >= 70) {... */\n    tag_357:\n        /* \"codingtest/codingtest_241231.sol\":571:573  60 */\n      0x3c\n        /* \"codingtest/codingtest_241231.sol\":562:567  score */\n      dup3\n        /* \"codingtest/codingtest_241231.sol\":562:573  score >= 60 */\n      lt\n        /* \"codingtest/codingtest_241231.sol\":558:651  if (score >= 60) {... */\n      tag_359\n      jumpi\n        /* \"codingtest/codingtest_241231.sol\":589:599  return \"D\" */\n      mload(0x40)\n      dup1\n      0x40\n      add\n      0x40\n      mstore\n      dup1\n      0x01\n      dup2\n      mstore\n      0x20\n      add\n      0x4400000000000000000000000000000000000000000000000000000000000000\n      dup2\n      mstore\n      pop\n      swap1\n      pop\n      jump(tag_352)\n        /* \"codingtest/codingtest_241231.sol\":558:651  if (score >= 60) {... */\n    tag_359:\n        /* \"codingtest/codingtest_241231.sol\":630:640  return \"F\" */\n      mload(0x40)\n      dup1\n      0x40\n      add\n      0x40\n      mstore\n      dup1\n      0x01\n      dup2\n      mstore\n      0x20\n      add\n      0x4600000000000000000000000000000000000000000000000000000000000000\n      dup2\n      mstore\n      pop\n      swap1\n      pop\n        /* \"codingtest/codingtest_241231.sol\":269:657  function calculateGrade(uint256 score)... */\n    tag_352:\n      swap2\n      swap1\n      pop\n      jump\t// out\n    tag_106:\n      mload(0x40)\n      dup1\n      0xa0\n      add\n      0x40\n      mstore\n      dup1\n      0x60\n      dup2\n      mstore\n      0x20\n      add\n      0x00\n      dup2\n      mstore\n      0x20\n      add\n      0x00\n      dup2\n      mstore\n      0x20\n      add\n      0x60\n      dup2\n      mstore\n      0x20\n      add\n      0x60\n      dup2\n      mstore\n      pop\n      swap1\n      jump\t// out\n    tag_229:\n      dup3\n      dup1\n      sload\n      dup3\n      dup3\n      sstore\n      swap1\n      0x00\n      mstore\n      keccak256(0x00, 0x20)\n      swap1\n      dup2\n      add\n      swap3\n      dup3\n      iszero\n      tag_361\n      jumpi\n      swap2\n      0x20\n      mul\n      dup3\n      add\n    tag_362:\n      dup3\n      dup2\n      gt\n      iszero\n      tag_363\n      jumpi\n      dup3\n      mload\n      dup3\n      swap1\n      dup2\n      tag_364\n      swap2\n      swap1\n      tag_226\n      jump\t// in\n    tag_364:\n      pop\n      swap2\n      0x20\n      add\n      swap2\n      swap1\n      0x01\n      add\n      swap1\n      jump(tag_362)\n    tag_363:\n    tag_361:\n      pop\n      swap1\n      pop\n      tag_365\n      swap2\n      swap1\n      tag_366\n      jump\t// in\n    tag_365:\n      pop\n      swap1\n      jump\t// out\n    tag_366:\n    tag_367:\n      dup1\n      dup3\n      gt\n      iszero\n      tag_368\n      jumpi\n      0x00\n      dup2\n      dup2\n      tag_369\n      swap2\n      swap1\n      tag_370\n      jump\t// in\n    tag_369:\n      pop\n      0x01\n      add\n      jump(tag_367)\n    tag_368:\n      pop\n      swap1\n      jump\t// out\n    tag_370:\n      pop\n      dup1\n      sload\n      tag_371\n      swap1\n      tag_64\n      jump\t// in\n    tag_371:\n      0x00\n      dup3\n      sstore\n      dup1\n      0x1f\n      lt\n      tag_373\n      jumpi\n      pop\n      jump(tag_372)\n    tag_373:\n      0x1f\n      add\n      0x20\n      swap1\n      div\n      swap1\n      0x00\n      mstore\n      keccak256(0x00, 0x20)\n      swap1\n      dup2\n      add\n      swap1\n      tag_374\n      swap2\n      swap1\n      tag_375\n      jump\t// in\n    tag_374:\n    tag_372:\n      pop\n      jump\t// out\n    tag_375:\n    tag_376:\n      dup1\n      dup3\n      gt\n      iszero\n      tag_377\n      jumpi\n      0x00\n      dup2\n      0x00\n      swap1\n      sstore\n      pop\n      0x01\n      add\n      jump(tag_376)\n    tag_377:\n      pop\n      swap1\n      jump\t// out\n        /* \"#utility.yul\":7:82   */\n    tag_378:\n        /* \"#utility.yul\":40:46   */\n      0x00\n        /* \"#utility.yul\":73:75   */\n      0x40\n        /* \"#utility.yul\":67:76   */\n      mload\n        /* \"#utility.yul\":57:76   */\n      swap1\n      pop\n        /* \"#utility.yul\":7:82   */\n      swap1\n      jump\t// out\n        /* \"#utility.yul\":88:205   */\n    tag_379:\n        /* \"#utility.yul\":197:198   */\n      0x00\n        /* \"#utility.yul\":194:195   */\n      dup1\n        /* \"#utility.yul\":187:199   */\n      revert\n        /* \"#utility.yul\":211:328   */\n    tag_380:\n        /* \"#utility.yul\":320:321   */\n      0x00\n        /* \"#utility.yul\":317:318   */\n      dup1\n        /* \"#utility.yul\":310:322   */\n      revert\n        /* \"#utility.yul\":334:411   */\n    tag_381:\n        /* \"#utility.yul\":371:378   */\n      0x00\n        /* \"#utility.yul\":400:405   */\n      dup2\n        /* \"#utility.yul\":389:405   */\n      swap1\n      pop\n        /* \"#utility.yul\":334:411   */\n      swap2\n      swap1\n      pop\n      jump\t// out\n        /* \"#utility.yul\":417:539   */\n    tag_382:\n        /* \"#utility.yul\":490:514   */\n      tag_460\n        /* \"#utility.yul\":508:513   */\n      dup2\n        /* \"#utility.yul\":490:514   */\n      tag_381\n      jump\t// in\n    tag_460:\n        /* \"#utility.yul\":483:488   */\n      dup2\n        /* \"#utility.yul\":480:515   */\n      eq\n        /* \"#utility.yul\":470:533   */\n      tag_461\n      jumpi\n        /* \"#utility.yul\":529:530   */\n      0x00\n        /* \"#utility.yul\":526:527   */\n      dup1\n        /* \"#utility.yul\":519:531   */\n      revert\n        /* \"#utility.yul\":470:533   */\n    tag_461:\n        /* \"#utility.yul\":417:539   */\n      pop\n      jump\t// out\n        /* \"#utility.yul\":545:684   */\n    tag_383:\n        /* \"#utility.yul\":591:596   */\n      0x00\n        /* \"#utility.yul\":629:635   */\n      dup2\n        /* \"#utility.yul\":616:636   */\n      calldataload\n        /* \"#utility.yul\":607:636   */\n      swap1\n      pop\n        /* \"#utility.yul\":645:678   */\n      tag_463\n        /* \"#utility.yul\":672:677   */\n      dup2\n        /* \"#utility.yul\":645:678   */\n      tag_382\n      jump\t// in\n    tag_463:\n        /* \"#utility.yul\":545:684   */\n      swap3\n      swap2\n      pop\n      pop\n      jump\t// out\n        /* \"#utility.yul\":690:1019   */\n    tag_17:\n        /* \"#utility.yul\":749:755   */\n      0x00\n        /* \"#utility.yul\":798:800   */\n      0x20\n        /* \"#utility.yul\":786:795   */\n      dup3\n        /* \"#utility.yul\":777:784   */\n      dup5\n        /* \"#utility.yul\":773:796   */\n      sub\n        /* \"#utility.yul\":769:801   */\n      slt\n        /* \"#utility.yul\":766:885   */\n      iszero\n      tag_465\n      jumpi\n        /* \"#utility.yul\":804:883   */\n      tag_466\n      tag_379\n      jump\t// in\n    tag_466:\n        /* \"#utility.yul\":766:885   */\n    tag_465:\n        /* \"#utility.yul\":924:925   */\n      0x00\n        /* \"#utility.yul\":949:1002   */\n      tag_467\n        /* \"#utility.yul\":994:1001   */\n      dup5\n        /* \"#utility.yul\":985:991   */\n      dup3\n        /* \"#utility.yul\":974:983   */\n      dup6\n        /* \"#utility.yul\":970:992   */\n      add\n        /* \"#utility.yul\":949:1002   */\n      tag_383\n      jump\t// in\n    tag_467:\n        /* \"#utility.yul\":939:1002   */\n      swap2\n      pop\n        /* \"#utility.yul\":895:1012   */\n      pop\n        /* \"#utility.yul\":690:1019   */\n      swap3\n      swap2\n      pop\n      pop\n      jump\t// out\n        /* \"#utility.yul\":1025:1124   */\n    tag_384:\n        /* \"#utility.yul\":1077:1083   */\n      0x00\n        /* \"#utility.yul\":1111:1116   */\n      dup2\n        /* \"#utility.yul\":1105:1117   */\n      mload\n        /* \"#utility.yul\":1095:1117   */\n      swap1\n      pop\n        /* \"#utility.yul\":1025:1124   */\n      swap2\n      swap1\n      pop\n      jump\t// out\n        /* \"#utility.yul\":1130:1299   */\n    tag_385:\n        /* \"#utility.yul\":1214:1225   */\n      0x00\n        /* \"#utility.yul\":1248:1254   */\n      dup3\n        /* \"#utility.yul\":1243:1246   */\n      dup3\n        /* \"#utility.yul\":1236:1255   */\n      mstore\n        /* \"#utility.yul\":1288:1292   */\n      0x20\n        /* \"#utility.yul\":1283:1286   */\n      dup3\n        /* \"#utility.yul\":1279:1293   */\n      add\n        /* \"#utility.yul\":1264:1293   */\n      swap1\n      pop\n        /* \"#utility.yul\":1130:1299   */\n      swap3\n      swap2\n      pop\n      pop\n      jump\t// out\n        /* \"#utility.yul\":1305:1444   */\n    tag_386:\n        /* \"#utility.yul\":1394:1400   */\n      dup3\n        /* \"#utility.yul\":1389:1392   */\n      dup2\n        /* \"#utility.yul\":1384:1387   */\n      dup4\n        /* \"#utility.yul\":1378:1401   */\n      mcopy\n        /* \"#utility.yul\":1435:1436   */\n      0x00\n        /* \"#utility.yul\":1426:1432   */\n      dup4\n        /* \"#utility.yul\":1421:1424   */\n      dup4\n        /* \"#utility.yul\":1417:1433   */\n      add\n        /* \"#utility.yul\":1410:1437   */\n      mstore\n        /* \"#utility.yul\":1305:1444   */\n      pop\n      pop\n      pop\n      jump\t// out\n        /* \"#utility.yul\":1450:1552   */\n    tag_387:\n        /* \"#utility.yul\":1491:1497   */\n      0x00\n        /* \"#utility.yul\":1542:1544   */\n      0x1f\n        /* \"#utility.yul\":1538:1545   */\n      not\n        /* \"#utility.yul\":1533:1535   */\n      0x1f\n        /* \"#utility.yul\":1526:1531   */\n      dup4\n        /* \"#utility.yul\":1522:1536   */\n      add\n        /* \"#utility.yul\":1518:1546   */\n      and\n        /* \"#utility.yul\":1508:1546   */\n      swap1\n      pop\n        /* \"#utility.yul\":1450:1552   */\n      swap2\n      swap1\n      pop\n      jump\t// out\n        /* \"#utility.yul\":1558:1935   */\n    tag_388:\n        /* \"#utility.yul\":1646:1649   */\n      0x00\n        /* \"#utility.yul\":1674:1713   */\n      tag_473\n        /* \"#utility.yul\":1707:1712   */\n      dup3\n        /* \"#utility.yul\":1674:1713   */\n      tag_384\n      jump\t// in\n    tag_473:\n        /* \"#utility.yul\":1729:1800   */\n      tag_474\n        /* \"#utility.yul\":1793:1799   */\n      dup2\n        /* \"#utility.yul\":1788:1791   */\n      dup6\n        /* \"#utility.yul\":1729:1800   */\n      tag_385\n      jump\t// in\n    tag_474:\n        /* \"#utility.yul\":1722:1800   */\n      swap4\n      pop\n        /* \"#utility.yul\":1809:1874   */\n      tag_475\n        /* \"#utility.yul\":1867:1873   */\n      dup2\n        /* \"#utility.yul\":1862:1865   */\n      dup6\n        /* \"#utility.yul\":1855:1859   */\n      0x20\n        /* \"#utility.yul\":1848:1853   */\n      dup7\n        /* \"#utility.yul\":1844:1860   */\n      add\n        /* \"#utility.yul\":1809:1874   */\n      tag_386\n      jump\t// in\n    tag_475:\n        /* \"#utility.yul\":1899:1928   */\n      tag_476\n        /* \"#utility.yul\":1921:1927   */\n      dup2\n        /* \"#utility.yul\":1899:1928   */\n      tag_387\n      jump\t// in\n    tag_476:\n        /* \"#utility.yul\":1894:1897   */\n      dup5\n        /* \"#utility.yul\":1890:1929   */\n      add\n        /* \"#utility.yul\":1883:1929   */\n      swap2\n      pop\n        /* \"#utility.yul\":1650:1935   */\n      pop\n        /* \"#utility.yul\":1558:1935   */\n      swap3\n      swap2\n      pop\n      pop\n      jump\t// out\n        /* \"#utility.yul\":1941:2059   */\n    tag_389:\n        /* \"#utility.yul\":2028:2052   */\n      tag_478\n        /* \"#utility.yul\":2046:2051   */\n      dup2\n        /* \"#utility.yul\":2028:2052   */\n      tag_381\n      jump\t// in\n    tag_478:\n        /* \"#utility.yul\":2023:2026   */\n      dup3\n        /* \"#utility.yul\":2016:2053   */\n      mstore\n        /* \"#utility.yul\":1941:2059   */\n      pop\n      pop\n      jump\t// out\n        /* \"#utility.yul\":2065:2800   */\n    tag_20:\n        /* \"#utility.yul\":2282:2286   */\n      0x00\n        /* \"#utility.yul\":2320:2323   */\n      0x80\n        /* \"#utility.yul\":2309:2318   */\n      dup3\n        /* \"#utility.yul\":2305:2324   */\n      add\n        /* \"#utility.yul\":2297:2324   */\n      swap1\n      pop\n        /* \"#utility.yul\":2370:2379   */\n      dup2\n        /* \"#utility.yul\":2364:2368   */\n      dup2\n        /* \"#utility.yul\":2360:2380   */\n      sub\n        /* \"#utility.yul\":2356:2357   */\n      0x00\n        /* \"#utility.yul\":2345:2354   */\n      dup4\n        /* \"#utility.yul\":2341:2358   */\n      add\n        /* \"#utility.yul\":2334:2381   */\n      mstore\n        /* \"#utility.yul\":2398:2476   */\n      tag_480\n        /* \"#utility.yul\":2471:2475   */\n      dup2\n        /* \"#utility.yul\":2462:2468   */\n      dup8\n        /* \"#utility.yul\":2398:2476   */\n      tag_388\n      jump\t// in\n    tag_480:\n        /* \"#utility.yul\":2390:2476   */\n      swap1\n      pop\n        /* \"#utility.yul\":2486:2558   */\n      tag_481\n        /* \"#utility.yul\":2554:2556   */\n      0x20\n        /* \"#utility.yul\":2543:2552   */\n      dup4\n        /* \"#utility.yul\":2539:2557   */\n      add\n        /* \"#utility.yul\":2530:2536   */\n      dup7\n        /* \"#utility.yul\":2486:2558   */\n      tag_389\n      jump\t// in\n    tag_481:\n        /* \"#utility.yul\":2568:2640   */\n      tag_482\n        /* \"#utility.yul\":2636:2638   */\n      0x40\n        /* \"#utility.yul\":2625:2634   */\n      dup4\n        /* \"#utility.yul\":2621:2639   */\n      add\n        /* \"#utility.yul\":2612:2618   */\n      dup6\n        /* \"#utility.yul\":2568:2640   */\n      tag_389\n      jump\t// in\n    tag_482:\n        /* \"#utility.yul\":2687:2696   */\n      dup2\n        /* \"#utility.yul\":2681:2685   */\n      dup2\n        /* \"#utility.yul\":2677:2697   */\n      sub\n        /* \"#utility.yul\":2672:2674   */\n      0x60\n        /* \"#utility.yul\":2661:2670   */\n      dup4\n        /* \"#utility.yul\":2657:2675   */\n      add\n        /* \"#utility.yul\":2650:2698   */\n      mstore\n        /* \"#utility.yul\":2715:2793   */\n      tag_483\n        /* \"#utility.yul\":2788:2792   */\n      dup2\n        /* \"#utility.yul\":2779:2785   */\n      dup5\n        /* \"#utility.yul\":2715:2793   */\n      tag_388\n      jump\t// in\n    tag_483:\n        /* \"#utility.yul\":2707:2793   */\n      swap1\n      pop\n        /* \"#utility.yul\":2065:2800   */\n      swap6\n      swap5\n      pop\n      pop\n      pop\n      pop\n      pop\n      jump\t// out\n        /* \"#utility.yul\":2806:2896   */\n    tag_390:\n        /* \"#utility.yul\":2840:2847   */\n      0x00\n        /* \"#utility.yul\":2883:2888   */\n      dup2\n        /* \"#utility.yul\":2876:2889   */\n      iszero\n        /* \"#utility.yul\":2869:2890   */\n      iszero\n        /* \"#utility.yul\":2858:2890   */\n      swap1\n      pop\n        /* \"#utility.yul\":2806:2896   */\n      swap2\n      swap1\n      pop\n      jump\t// out\n        /* \"#utility.yul\":2902:3011   */\n    tag_391:\n        /* \"#utility.yul\":2983:3004   */\n      tag_486\n        /* \"#utility.yul\":2998:3003   */\n      dup2\n        /* \"#utility.yul\":2983:3004   */\n      tag_390\n      jump\t// in\n    tag_486:\n        /* \"#utility.yul\":2978:2981   */\n      dup3\n        /* \"#utility.yul\":2971:3005   */\n      mstore\n        /* \"#utility.yul\":2902:3011   */\n      pop\n      pop\n      jump\t// out\n        /* \"#utility.yul\":3017:3227   */\n    tag_24:\n        /* \"#utility.yul\":3104:3108   */\n      0x00\n        /* \"#utility.yul\":3142:3144   */\n      0x20\n        /* \"#utility.yul\":3131:3140   */\n      dup3\n        /* \"#utility.yul\":3127:3145   */\n      add\n        /* \"#utility.yul\":3119:3145   */\n      swap1\n      pop\n        /* \"#utility.yul\":3155:3220   */\n      tag_488\n        /* \"#utility.yul\":3217:3218   */\n      0x00\n        /* \"#utility.yul\":3206:3215   */\n      dup4\n        /* \"#utility.yul\":3202:3219   */\n      add\n        /* \"#utility.yul\":3193:3199   */\n      dup5\n        /* \"#utility.yul\":3155:3220   */\n      tag_391\n      jump\t// in\n    tag_488:\n        /* \"#utility.yul\":3017:3227   */\n      swap3\n      swap2\n      pop\n      pop\n      jump\t// out\n        /* \"#utility.yul\":3233:3350   */\n    tag_392:\n        /* \"#utility.yul\":3342:3343   */\n      0x00\n        /* \"#utility.yul\":3339:3340   */\n      dup1\n        /* \"#utility.yul\":3332:3344   */\n      revert\n        /* \"#utility.yul\":3356:3473   */\n    tag_393:\n        /* \"#utility.yul\":3465:3466   */\n      0x00\n        /* \"#utility.yul\":3462:3463   */\n      dup1\n        /* \"#utility.yul\":3455:3467   */\n      revert\n        /* \"#utility.yul\":3479:3659   */\n    tag_102:\n        /* \"#utility.yul\":3527:3604   */\n      0x4e487b7100000000000000000000000000000000000000000000000000000000\n        /* \"#utility.yul\":3524:3525   */\n      0x00\n        /* \"#utility.yul\":3517:3605   */\n      mstore\n        /* \"#utility.yul\":3624:3628   */\n      0x41\n        /* \"#utility.yul\":3621:3622   */\n      0x04\n        /* \"#utility.yul\":3614:3629   */\n      mstore\n        /* \"#utility.yul\":3648:3652   */\n      0x24\n        /* \"#utility.yul\":3645:3646   */\n      0x00\n        /* \"#utility.yul\":3638:3653   */\n      revert\n        /* \"#utility.yul\":3665:3946   */\n    tag_394:\n        /* \"#utility.yul\":3748:3775   */\n      tag_493\n        /* \"#utility.yul\":3770:3774   */\n      dup3\n        /* \"#utility.yul\":3748:3775   */\n      tag_387\n      jump\t// in\n    tag_493:\n        /* \"#utility.yul\":3740:3746   */\n      dup2\n        /* \"#utility.yul\":3736:3776   */\n      add\n        /* \"#utility.yul\":3878:3884   */\n      dup2\n        /* \"#utility.yul\":3866:3876   */\n      dup2\n        /* \"#utility.yul\":3863:3885   */\n      lt\n        /* \"#utility.yul\":3842:3860   */\n      0xffffffffffffffff\n        /* \"#utility.yul\":3830:3840   */\n      dup3\n        /* \"#utility.yul\":3827:3861   */\n      gt\n        /* \"#utility.yul\":3824:3886   */\n      or\n        /* \"#utility.yul\":3821:3909   */\n      iszero\n      tag_494\n      jumpi\n        /* \"#utility.yul\":3889:3907   */\n      tag_495\n      tag_102\n      jump\t// in\n    tag_495:\n        /* \"#utility.yul\":3821:3909   */\n    tag_494:\n        /* \"#utility.yul\":3929:3939   */\n      dup1\n        /* \"#utility.yul\":3925:3927   */\n      0x40\n        /* \"#utility.yul\":3918:3940   */\n      mstore\n        /* \"#utility.yul\":3708:3946   */\n      pop\n        /* \"#utility.yul\":3665:3946   */\n      pop\n      pop\n      jump\t// out\n        /* \"#utility.yul\":3952:4081   */\n    tag_395:\n        /* \"#utility.yul\":3986:3992   */\n      0x00\n        /* \"#utility.yul\":4013:4033   */\n      tag_497\n      tag_378\n      jump\t// in\n    tag_497:\n        /* \"#utility.yul\":4003:4033   */\n      swap1\n      pop\n        /* \"#utility.yul\":4042:4075   */\n      tag_498\n        /* \"#utility.yul\":4070:4074   */\n      dup3\n        /* \"#utility.yul\":4062:4068   */\n      dup3\n        /* \"#utility.yul\":4042:4075   */\n      tag_394\n      jump\t// in\n    tag_498:\n        /* \"#utility.yul\":3952:4081   */\n      swap2\n      swap1\n      pop\n      jump\t// out\n        /* \"#utility.yul\":4087:4395   */\n    tag_396:\n        /* \"#utility.yul\":4149:4153   */\n      0x00\n        /* \"#utility.yul\":4239:4257   */\n      0xffffffffffffffff\n        /* \"#utility.yul\":4231:4237   */\n      dup3\n        /* \"#utility.yul\":4228:4258   */\n      gt\n        /* \"#utility.yul\":4225:4281   */\n      iszero\n      tag_500\n      jumpi\n        /* \"#utility.yul\":4261:4279   */\n      tag_501\n      tag_102\n      jump\t// in\n    tag_501:\n        /* \"#utility.yul\":4225:4281   */\n    tag_500:\n        /* \"#utility.yul\":4299:4328   */\n      tag_502\n        /* \"#utility.yul\":4321:4327   */\n      dup3\n        /* \"#utility.yul\":4299:4328   */\n      tag_387\n      jump\t// in\n    tag_502:\n        /* \"#utility.yul\":4291:4328   */\n      swap1\n      pop\n        /* \"#utility.yul\":4383:4387   */\n      0x20\n        /* \"#utility.yul\":4377:4381   */\n      dup2\n        /* \"#utility.yul\":4373:4388   */\n      add\n        /* \"#utility.yul\":4365:4388   */\n      swap1\n      pop\n        /* \"#utility.yul\":4087:4395   */\n      swap2\n      swap1\n      pop\n      jump\t// out\n        /* \"#utility.yul\":4401:4549   */\n    tag_397:\n        /* \"#utility.yul\":4499:4505   */\n      dup3\n        /* \"#utility.yul\":4494:4497   */\n      dup2\n        /* \"#utility.yul\":4489:4492   */\n      dup4\n        /* \"#utility.yul\":4476:4506   */\n      calldatacopy\n        /* \"#utility.yul\":4540:4541   */\n      0x00\n        /* \"#utility.yul\":4531:4537   */\n      dup4\n        /* \"#utility.yul\":4526:4529   */\n      dup4\n        /* \"#utility.yul\":4522:4538   */\n      add\n        /* \"#utility.yul\":4515:4542   */\n      mstore\n        /* \"#utility.yul\":4401:4549   */\n      pop\n      pop\n      pop\n      jump\t// out\n        /* \"#utility.yul\":4555:4980   */\n    tag_398:\n        /* \"#utility.yul\":4633:4638   */\n      0x00\n        /* \"#utility.yul\":4658:4724   */\n      tag_505\n        /* \"#utility.yul\":4674:4723   */\n      tag_506\n        /* \"#utility.yul\":4716:4722   */\n      dup5\n        /* \"#utility.yul\":4674:4723   */\n      tag_396\n      jump\t// in\n    tag_506:\n        /* \"#utility.yul\":4658:4724   */\n      tag_395\n      jump\t// in\n    tag_505:\n        /* \"#utility.yul\":4649:4724   */\n      swap1\n      pop\n        /* \"#utility.yul\":4747:4753   */\n      dup3\n        /* \"#utility.yul\":4740:4745   */\n      dup2\n        /* \"#utility.yul\":4733:4754   */\n      mstore\n        /* \"#utility.yul\":4785:4789   */\n      0x20\n        /* \"#utility.yul\":4778:4783   */\n      dup2\n        /* \"#utility.yul\":4774:4790   */\n      add\n        /* \"#utility.yul\":4823:4826   */\n      dup5\n        /* \"#utility.yul\":4814:4820   */\n      dup5\n        /* \"#utility.yul\":4809:4812   */\n      dup5\n        /* \"#utility.yul\":4805:4821   */\n      add\n        /* \"#utility.yul\":4802:4827   */\n      gt\n        /* \"#utility.yul\":4799:4911   */\n      iszero\n      tag_507\n      jumpi\n        /* \"#utility.yul\":4830:4909   */\n      tag_508\n      tag_393\n      jump\t// in\n    tag_508:\n        /* \"#utility.yul\":4799:4911   */\n    tag_507:\n        /* \"#utility.yul\":4920:4974   */\n      tag_509\n        /* \"#utility.yul\":4967:4973   */\n      dup5\n        /* \"#utility.yul\":4962:4965   */\n      dup3\n        /* \"#utility.yul\":4957:4960   */\n      dup6\n        /* \"#utility.yul\":4920:4974   */\n      tag_397\n      jump\t// in\n    tag_509:\n        /* \"#utility.yul\":4639:4980   */\n      pop\n        /* \"#utility.yul\":4555:4980   */\n      swap4\n      swap3\n      pop\n      pop\n      pop\n      jump\t// out\n        /* \"#utility.yul\":5000:5340   */\n    tag_399:\n        /* \"#utility.yul\":5056:5061   */\n      0x00\n        /* \"#utility.yul\":5105:5108   */\n      dup3\n        /* \"#utility.yul\":5098:5102   */\n      0x1f\n        /* \"#utility.yul\":5090:5096   */\n      dup4\n        /* \"#utility.yul\":5086:5103   */\n      add\n        /* \"#utility.yul\":5082:5109   */\n      slt\n        /* \"#utility.yul\":5072:5194   */\n      tag_511\n      jumpi\n        /* \"#utility.yul\":5113:5192   */\n      tag_512\n      tag_392\n      jump\t// in\n    tag_512:\n        /* \"#utility.yul\":5072:5194   */\n    tag_511:\n        /* \"#utility.yul\":5230:5236   */\n      dup2\n        /* \"#utility.yul\":5217:5237   */\n      calldataload\n        /* \"#utility.yul\":5255:5334   */\n      tag_513\n        /* \"#utility.yul\":5330:5333   */\n      dup5\n        /* \"#utility.yul\":5322:5328   */\n      dup3\n        /* \"#utility.yul\":5315:5319   */\n      0x20\n        /* \"#utility.yul\":5307:5313   */\n      dup7\n        /* \"#utility.yul\":5303:5320   */\n      add\n        /* \"#utility.yul\":5255:5334   */\n      tag_398\n      jump\t// in\n    tag_513:\n        /* \"#utility.yul\":5246:5334   */\n      swap2\n      pop\n        /* \"#utility.yul\":5062:5340   */\n      pop\n        /* \"#utility.yul\":5000:5340   */\n      swap3\n      swap2\n      pop\n      pop\n      jump\t// out\n        /* \"#utility.yul\":5346:5855   */\n    tag_27:\n        /* \"#utility.yul\":5415:5421   */\n      0x00\n        /* \"#utility.yul\":5464:5466   */\n      0x20\n        /* \"#utility.yul\":5452:5461   */\n      dup3\n        /* \"#utility.yul\":5443:5450   */\n      dup5\n        /* \"#utility.yul\":5439:5462   */\n      sub\n        /* \"#utility.yul\":5435:5467   */\n      slt\n        /* \"#utility.yul\":5432:5551   */\n      iszero\n      tag_515\n      jumpi\n        /* \"#utility.yul\":5470:5549   */\n      tag_516\n      tag_379\n      jump\t// in\n    tag_516:\n        /* \"#utility.yul\":5432:5551   */\n    tag_515:\n        /* \"#utility.yul\":5618:5619   */\n      0x00\n        /* \"#utility.yul\":5607:5616   */\n      dup3\n        /* \"#utility.yul\":5603:5620   */\n      add\n        /* \"#utility.yul\":5590:5621   */\n      calldataload\n        /* \"#utility.yul\":5648:5666   */\n      0xffffffffffffffff\n        /* \"#utility.yul\":5640:5646   */\n      dup2\n        /* \"#utility.yul\":5637:5667   */\n      gt\n        /* \"#utility.yul\":5634:5751   */\n      iszero\n      tag_517\n      jumpi\n        /* \"#utility.yul\":5670:5749   */\n      tag_518\n      tag_380\n      jump\t// in\n    tag_518:\n        /* \"#utility.yul\":5634:5751   */\n    tag_517:\n        /* \"#utility.yul\":5775:5838   */\n      tag_519\n        /* \"#utility.yul\":5830:5837   */\n      dup5\n        /* \"#utility.yul\":5821:5827   */\n      dup3\n        /* \"#utility.yul\":5810:5819   */\n      dup6\n        /* \"#utility.yul\":5806:5828   */\n      add\n        /* \"#utility.yul\":5775:5838   */\n      tag_399\n      jump\t// in\n    tag_519:\n        /* \"#utility.yul\":5765:5838   */\n      swap2\n      pop\n        /* \"#utility.yul\":5561:5848   */\n      pop\n        /* \"#utility.yul\":5346:5855   */\n      swap3\n      swap2\n      pop\n      pop\n      jump\t// out\n        /* \"#utility.yul\":5861:6083   */\n    tag_30:\n        /* \"#utility.yul\":5954:5958   */\n      0x00\n        /* \"#utility.yul\":5992:5994   */\n      0x20\n        /* \"#utility.yul\":5981:5990   */\n      dup3\n        /* \"#utility.yul\":5977:5995   */\n      add\n        /* \"#utility.yul\":5969:5995   */\n      swap1\n      pop\n        /* \"#utility.yul\":6005:6076   */\n      tag_521\n        /* \"#utility.yul\":6073:6074   */\n      0x00\n        /* \"#utility.yul\":6062:6071   */\n      dup4\n        /* \"#utility.yul\":6058:6075   */\n      add\n        /* \"#utility.yul\":6049:6055   */\n      dup5\n        /* \"#utility.yul\":6005:6076   */\n      tag_389\n      jump\t// in\n    tag_521:\n        /* \"#utility.yul\":5861:6083   */\n      swap3\n      swap2\n      pop\n      pop\n      jump\t// out\n        /* \"#utility.yul\":6089:6226   */\n    tag_400:\n        /* \"#utility.yul\":6179:6185   */\n      0x00\n        /* \"#utility.yul\":6213:6218   */\n      dup2\n        /* \"#utility.yul\":6207:6219   */\n      mload\n        /* \"#utility.yul\":6197:6219   */\n      swap1\n      pop\n        /* \"#utility.yul\":6089:6226   */\n      swap2\n      swap1\n      pop\n      jump\t// out\n        /* \"#utility.yul\":6232:6439   */\n    tag_401:\n        /* \"#utility.yul\":6354:6365   */\n      0x00\n        /* \"#utility.yul\":6388:6394   */\n      dup3\n        /* \"#utility.yul\":6383:6386   */\n      dup3\n        /* \"#utility.yul\":6376:6395   */\n      mstore\n        /* \"#utility.yul\":6428:6432   */\n      0x20\n        /* \"#utility.yul\":6423:6426   */\n      dup3\n        /* \"#utility.yul\":6419:6433   */\n      add\n        /* \"#utility.yul\":6404:6433   */\n      swap1\n      pop\n        /* \"#utility.yul\":6232:6439   */\n      swap3\n      swap2\n      pop\n      pop\n      jump\t// out\n        /* \"#utility.yul\":6445:6600   */\n    tag_402:\n        /* \"#utility.yul\":6535:6539   */\n      0x00\n        /* \"#utility.yul\":6558:6561   */\n      dup2\n        /* \"#utility.yul\":6550:6561   */\n      swap1\n      pop\n        /* \"#utility.yul\":6588:6592   */\n      0x20\n        /* \"#utility.yul\":6583:6586   */\n      dup3\n        /* \"#utility.yul\":6579:6593   */\n      add\n        /* \"#utility.yul\":6571:6593   */\n      swap1\n      pop\n        /* \"#utility.yul\":6445:6600   */\n      swap2\n      swap1\n      pop\n      jump\t// out\n        /* \"#utility.yul\":6606:6765   */\n    tag_403:\n        /* \"#utility.yul\":6680:6691   */\n      0x00\n        /* \"#utility.yul\":6714:6720   */\n      dup3\n        /* \"#utility.yul\":6709:6712   */\n      dup3\n        /* \"#utility.yul\":6702:6721   */\n      mstore\n        /* \"#utility.yul\":6754:6758   */\n      0x20\n        /* \"#utility.yul\":6749:6752   */\n      dup3\n        /* \"#utility.yul\":6745:6759   */\n      add\n        /* \"#utility.yul\":6730:6759   */\n      swap1\n      pop\n        /* \"#utility.yul\":6606:6765   */\n      swap3\n      swap2\n      pop\n      pop\n      jump\t// out\n        /* \"#utility.yul\":6771:7128   */\n    tag_404:\n        /* \"#utility.yul\":6849:6852   */\n      0x00\n        /* \"#utility.yul\":6877:6916   */\n      tag_527\n        /* \"#utility.yul\":6910:6915   */\n      dup3\n        /* \"#utility.yul\":6877:6916   */\n      tag_384\n      jump\t// in\n    tag_527:\n        /* \"#utility.yul\":6932:6993   */\n      tag_528\n        /* \"#utility.yul\":6986:6992   */\n      dup2\n        /* \"#utility.yul\":6981:6984   */\n      dup6\n        /* \"#utility.yul\":6932:6993   */\n      tag_403\n      jump\t// in\n    tag_528:\n        /* \"#utility.yul\":6925:6993   */\n      swap4\n      pop\n        /* \"#utility.yul\":7002:7067   */\n      tag_529\n        /* \"#utility.yul\":7060:7066   */\n      dup2\n        /* \"#utility.yul\":7055:7058   */\n      dup6\n        /* \"#utility.yul\":7048:7052   */\n      0x20\n        /* \"#utility.yul\":7041:7046   */\n      dup7\n        /* \"#utility.yul\":7037:7053   */\n      add\n        /* \"#utility.yul\":7002:7067   */\n      tag_386\n      jump\t// in\n    tag_529:\n        /* \"#utility.yul\":7092:7121   */\n      tag_530\n        /* \"#utility.yul\":7114:7120   */\n      dup2\n        /* \"#utility.yul\":7092:7121   */\n      tag_387\n      jump\t// in\n    tag_530:\n        /* \"#utility.yul\":7087:7090   */\n      dup5\n        /* \"#utility.yul\":7083:7122   */\n      add\n        /* \"#utility.yul\":7076:7122   */\n      swap2\n      pop\n        /* \"#utility.yul\":6853:7128   */\n      pop\n        /* \"#utility.yul\":6771:7128   */\n      swap3\n      swap2\n      pop\n      pop\n      jump\t// out\n        /* \"#utility.yul\":7134:7242   */\n    tag_405:\n        /* \"#utility.yul\":7211:7235   */\n      tag_532\n        /* \"#utility.yul\":7229:7234   */\n      dup2\n        /* \"#utility.yul\":7211:7235   */\n      tag_381\n      jump\t// in\n    tag_532:\n        /* \"#utility.yul\":7206:7209   */\n      dup3\n        /* \"#utility.yul\":7199:7236   */\n      mstore\n        /* \"#utility.yul\":7134:7242   */\n      pop\n      pop\n      jump\t// out\n        /* \"#utility.yul\":7248:7372   */\n    tag_406:\n        /* \"#utility.yul\":7325:7331   */\n      0x00\n        /* \"#utility.yul\":7359:7364   */\n      dup2\n        /* \"#utility.yul\":7353:7365   */\n      mload\n        /* \"#utility.yul\":7343:7365   */\n      swap1\n      pop\n        /* \"#utility.yul\":7248:7372   */\n      swap2\n      swap1\n      pop\n      jump\t// out\n        /* \"#utility.yul\":7378:7562   */\n    tag_407:\n        /* \"#utility.yul\":7477:7488   */\n      0x00\n        /* \"#utility.yul\":7511:7517   */\n      dup3\n        /* \"#utility.yul\":7506:7509   */\n      dup3\n        /* \"#utility.yul\":7499:7518   */\n      mstore\n        /* \"#utility.yul\":7551:7555   */\n      0x20\n        /* \"#utility.yul\":7546:7549   */\n      dup3\n        /* \"#utility.yul\":7542:7556   */\n      add\n        /* \"#utility.yul\":7527:7556   */\n      swap1\n      pop\n        /* \"#utility.yul\":7378:7562   */\n      swap3\n      swap2\n      pop\n      pop\n      jump\t// out\n        /* \"#utility.yul\":7568:7710   */\n    tag_408:\n        /* \"#utility.yul\":7645:7649   */\n      0x00\n        /* \"#utility.yul\":7668:7671   */\n      dup2\n        /* \"#utility.yul\":7660:7671   */\n      swap1\n      pop\n        /* \"#utility.yul\":7698:7702   */\n      0x20\n        /* \"#utility.yul\":7693:7696   */\n      dup3\n        /* \"#utility.yul\":7689:7703   */\n      add\n        /* \"#utility.yul\":7681:7703   */\n      swap1\n      pop\n        /* \"#utility.yul\":7568:7710   */\n      swap2\n      swap1\n      pop\n      jump\t// out\n        /* \"#utility.yul\":7716:7912   */\n    tag_409:\n        /* \"#utility.yul\":7805:7815   */\n      0x00\n        /* \"#utility.yul\":7840:7906   */\n      tag_537\n        /* \"#utility.yul\":7902:7905   */\n      dup4\n        /* \"#utility.yul\":7894:7900   */\n      dup4\n        /* \"#utility.yul\":7840:7906   */\n      tag_404\n      jump\t// in\n    tag_537:\n        /* \"#utility.yul\":7826:7906   */\n      swap1\n      pop\n        /* \"#utility.yul\":7716:7912   */\n      swap3\n      swap2\n      pop\n      pop\n      jump\t// out\n        /* \"#utility.yul\":7918:8041   */\n    tag_410:\n        /* \"#utility.yul\":7998:8002   */\n      0x00\n        /* \"#utility.yul\":8030:8034   */\n      0x20\n        /* \"#utility.yul\":8025:8028   */\n      dup3\n        /* \"#utility.yul\":8021:8035   */\n      add\n        /* \"#utility.yul\":8013:8035   */\n      swap1\n      pop\n        /* \"#utility.yul\":7918:8041   */\n      swap2\n      swap1\n      pop\n      jump\t// out\n        /* \"#utility.yul\":8075:9046   */\n    tag_411:\n        /* \"#utility.yul\":8204:8207   */\n      0x00\n        /* \"#utility.yul\":8233:8297   */\n      tag_540\n        /* \"#utility.yul\":8291:8296   */\n      dup3\n        /* \"#utility.yul\":8233:8297   */\n      tag_406\n      jump\t// in\n    tag_540:\n        /* \"#utility.yul\":8313:8399   */\n      tag_541\n        /* \"#utility.yul\":8392:8398   */\n      dup2\n        /* \"#utility.yul\":8387:8390   */\n      dup6\n        /* \"#utility.yul\":8313:8399   */\n      tag_407\n      jump\t// in\n    tag_541:\n        /* \"#utility.yul\":8306:8399   */\n      swap4\n      pop\n        /* \"#utility.yul\":8425:8428   */\n      dup4\n        /* \"#utility.yul\":8470:8474   */\n      0x20\n        /* \"#utility.yul\":8462:8468   */\n      dup3\n        /* \"#utility.yul\":8458:8475   */\n      mul\n        /* \"#utility.yul\":8453:8456   */\n      dup6\n        /* \"#utility.yul\":8449:8476   */\n      add\n        /* \"#utility.yul\":8500:8566   */\n      tag_542\n        /* \"#utility.yul\":8560:8565   */\n      dup6\n        /* \"#utility.yul\":8500:8566   */\n      tag_408\n      jump\t// in\n    tag_542:\n        /* \"#utility.yul\":8589:8596   */\n      dup1\n        /* \"#utility.yul\":8620:8621   */\n      0x00\n        /* \"#utility.yul\":8605:9001   */\n    tag_543:\n        /* \"#utility.yul\":8630:8636   */\n      dup6\n        /* \"#utility.yul\":8627:8628   */\n      dup2\n        /* \"#utility.yul\":8624:8637   */\n      lt\n        /* \"#utility.yul\":8605:9001   */\n      iszero\n      tag_545\n      jumpi\n        /* \"#utility.yul\":8701:8710   */\n      dup5\n        /* \"#utility.yul\":8695:8699   */\n      dup5\n        /* \"#utility.yul\":8691:8711   */\n      sub\n        /* \"#utility.yul\":8686:8689   */\n      dup10\n        /* \"#utility.yul\":8679:8712   */\n      mstore\n        /* \"#utility.yul\":8752:8758   */\n      dup2\n        /* \"#utility.yul\":8746:8759   */\n      mload\n        /* \"#utility.yul\":8780:8864   */\n      tag_546\n        /* \"#utility.yul\":8859:8863   */\n      dup6\n        /* \"#utility.yul\":8844:8857   */\n      dup3\n        /* \"#utility.yul\":8780:8864   */\n      tag_409\n      jump\t// in\n    tag_546:\n        /* \"#utility.yul\":8772:8864   */\n      swap5\n      pop\n        /* \"#utility.yul\":8887:8957   */\n      tag_547\n        /* \"#utility.yul\":8950:8956   */\n      dup4\n        /* \"#utility.yul\":8887:8957   */\n      tag_410\n      jump\t// in\n    tag_547:\n        /* \"#utility.yul\":8877:8957   */\n      swap3\n      pop\n        /* \"#utility.yul\":8986:8990   */\n      0x20\n        /* \"#utility.yul\":8981:8984   */\n      dup11\n        /* \"#utility.yul\":8977:8991   */\n      add\n        /* \"#utility.yul\":8970:8991   */\n      swap10\n      pop\n        /* \"#utility.yul\":8665:9001   */\n      pop\n        /* \"#utility.yul\":8652:8653   */\n      0x01\n        /* \"#utility.yul\":8649:8650   */\n      dup2\n        /* \"#utility.yul\":8645:8654   */\n      add\n        /* \"#utility.yul\":8640:8654   */\n      swap1\n      pop\n        /* \"#utility.yul\":8605:9001   */\n      jump(tag_543)\n    tag_545:\n        /* \"#utility.yul\":8609:8623   */\n      pop\n        /* \"#utility.yul\":9017:9021   */\n      dup3\n        /* \"#utility.yul\":9010:9021   */\n      swap8\n      pop\n        /* \"#utility.yul\":9037:9040   */\n      dup8\n        /* \"#utility.yul\":9030:9040   */\n      swap6\n      pop\n        /* \"#utility.yul\":8209:9046   */\n      pop\n      pop\n      pop\n      pop\n      pop\n        /* \"#utility.yul\":8075:9046   */\n      swap3\n      swap2\n      pop\n      pop\n      jump\t// out\n        /* \"#utility.yul\":9108:10421   */\n    tag_412:\n        /* \"#utility.yul\":9213:9216   */\n      0x00\n        /* \"#utility.yul\":9249:9253   */\n      0xa0\n        /* \"#utility.yul\":9244:9247   */\n      dup4\n        /* \"#utility.yul\":9240:9254   */\n      add\n        /* \"#utility.yul\":9336:9340   */\n      0x00\n        /* \"#utility.yul\":9329:9334   */\n      dup4\n        /* \"#utility.yul\":9325:9341   */\n      add\n        /* \"#utility.yul\":9319:9342   */\n      mload\n        /* \"#utility.yul\":9389:9392   */\n      dup5\n        /* \"#utility.yul\":9383:9387   */\n      dup3\n        /* \"#utility.yul\":9379:9393   */\n      sub\n        /* \"#utility.yul\":9372:9376   */\n      0x00\n        /* \"#utility.yul\":9367:9370   */\n      dup7\n        /* \"#utility.yul\":9363:9377   */\n      add\n        /* \"#utility.yul\":9356:9394   */\n      mstore\n        /* \"#utility.yul\":9415:9488   */\n      tag_549\n        /* \"#utility.yul\":9483:9487   */\n      dup3\n        /* \"#utility.yul\":9469:9481   */\n      dup3\n        /* \"#utility.yul\":9415:9488   */\n      tag_404\n      jump\t// in\n    tag_549:\n        /* \"#utility.yul\":9407:9488   */\n      swap2\n      pop\n        /* \"#utility.yul\":9264:9499   */\n      pop\n        /* \"#utility.yul\":9583:9587   */\n      0x20\n        /* \"#utility.yul\":9576:9581   */\n      dup4\n        /* \"#utility.yul\":9572:9588   */\n      add\n        /* \"#utility.yul\":9566:9589   */\n      mload\n        /* \"#utility.yul\":9602:9665   */\n      tag_550\n        /* \"#utility.yul\":9659:9663   */\n      0x20\n        /* \"#utility.yul\":9654:9657   */\n      dup7\n        /* \"#utility.yul\":9650:9664   */\n      add\n        /* \"#utility.yul\":9636:9648   */\n      dup3\n        /* \"#utility.yul\":9602:9665   */\n      tag_405\n      jump\t// in\n    tag_550:\n        /* \"#utility.yul\":9509:9675   */\n      pop\n        /* \"#utility.yul\":9758:9762   */\n      0x40\n        /* \"#utility.yul\":9751:9756   */\n      dup4\n        /* \"#utility.yul\":9747:9763   */\n      add\n        /* \"#utility.yul\":9741:9764   */\n      mload\n        /* \"#utility.yul\":9777:9840   */\n      tag_551\n        /* \"#utility.yul\":9834:9838   */\n      0x40\n        /* \"#utility.yul\":9829:9832   */\n      dup7\n        /* \"#utility.yul\":9825:9839   */\n      add\n        /* \"#utility.yul\":9811:9823   */\n      dup3\n        /* \"#utility.yul\":9777:9840   */\n      tag_405\n      jump\t// in\n    tag_551:\n        /* \"#utility.yul\":9685:9850   */\n      pop\n        /* \"#utility.yul\":9933:9937   */\n      0x60\n        /* \"#utility.yul\":9926:9931   */\n      dup4\n        /* \"#utility.yul\":9922:9938   */\n      add\n        /* \"#utility.yul\":9916:9939   */\n      mload\n        /* \"#utility.yul\":9986:9989   */\n      dup5\n        /* \"#utility.yul\":9980:9984   */\n      dup3\n        /* \"#utility.yul\":9976:9990   */\n      sub\n        /* \"#utility.yul\":9969:9973   */\n      0x60\n        /* \"#utility.yul\":9964:9967   */\n      dup7\n        /* \"#utility.yul\":9960:9974   */\n      add\n        /* \"#utility.yul\":9953:9991   */\n      mstore\n        /* \"#utility.yul\":10012:10085   */\n      tag_552\n        /* \"#utility.yul\":10080:10084   */\n      dup3\n        /* \"#utility.yul\":10066:10078   */\n      dup3\n        /* \"#utility.yul\":10012:10085   */\n      tag_404\n      jump\t// in\n    tag_552:\n        /* \"#utility.yul\":10004:10085   */\n      swap2\n      pop\n        /* \"#utility.yul\":9860:10096   */\n      pop\n        /* \"#utility.yul\":10181:10185   */\n      0x80\n        /* \"#utility.yul\":10174:10179   */\n      dup4\n        /* \"#utility.yul\":10170:10186   */\n      add\n        /* \"#utility.yul\":10164:10187   */\n      mload\n        /* \"#utility.yul\":10234:10237   */\n      dup5\n        /* \"#utility.yul\":10228:10232   */\n      dup3\n        /* \"#utility.yul\":10224:10238   */\n      sub\n        /* \"#utility.yul\":10217:10221   */\n      0x80\n        /* \"#utility.yul\":10212:10215   */\n      dup7\n        /* \"#utility.yul\":10208:10222   */\n      add\n        /* \"#utility.yul\":10201:10239   */\n      mstore\n        /* \"#utility.yul\":10260:10383   */\n      tag_553\n        /* \"#utility.yul\":10378:10382   */\n      dup3\n        /* \"#utility.yul\":10364:10376   */\n      dup3\n        /* \"#utility.yul\":10260:10383   */\n      tag_411\n      jump\t// in\n    tag_553:\n        /* \"#utility.yul\":10252:10383   */\n      swap2\n      pop\n        /* \"#utility.yul\":10106:10394   */\n      pop\n        /* \"#utility.yul\":10411:10415   */\n      dup1\n        /* \"#utility.yul\":10404:10415   */\n      swap2\n      pop\n        /* \"#utility.yul\":9218:10421   */\n      pop\n        /* \"#utility.yul\":9108:10421   */\n      swap3\n      swap2\n      pop\n      pop\n      jump\t// out\n        /* \"#utility.yul\":10427:10675   */\n    tag_413:\n        /* \"#utility.yul\":10542:10552   */\n      0x00\n        /* \"#utility.yul\":10577:10669   */\n      tag_555\n        /* \"#utility.yul\":10665:10668   */\n      dup4\n        /* \"#utility.yul\":10657:10663   */\n      dup4\n        /* \"#utility.yul\":10577:10669   */\n      tag_412\n      jump\t// in\n    tag_555:\n        /* \"#utility.yul\":10563:10669   */\n      swap1\n      pop\n        /* \"#utility.yul\":10427:10675   */\n      swap3\n      swap2\n      pop\n      pop\n      jump\t// out\n        /* \"#utility.yul\":10681:10817   */\n    tag_414:\n        /* \"#utility.yul\":10774:10778   */\n      0x00\n        /* \"#utility.yul\":10806:10810   */\n      0x20\n        /* \"#utility.yul\":10801:10804   */\n      dup3\n        /* \"#utility.yul\":10797:10811   */\n      add\n        /* \"#utility.yul\":10789:10811   */\n      swap1\n      pop\n        /* \"#utility.yul\":10681:10817   */\n      swap2\n      swap1\n      pop\n      jump\t// out\n        /* \"#utility.yul\":10883:11978   */\n    tag_415:\n        /* \"#utility.yul\":11048:11051   */\n      0x00\n        /* \"#utility.yul\":11077:11154   */\n      tag_558\n        /* \"#utility.yul\":11148:11153   */\n      dup3\n        /* \"#utility.yul\":11077:11154   */\n      tag_400\n      jump\t// in\n    tag_558:\n        /* \"#utility.yul\":11170:11279   */\n      tag_559\n        /* \"#utility.yul\":11272:11278   */\n      dup2\n        /* \"#utility.yul\":11267:11270   */\n      dup6\n        /* \"#utility.yul\":11170:11279   */\n      tag_401\n      jump\t// in\n    tag_559:\n        /* \"#utility.yul\":11163:11279   */\n      swap4\n      pop\n        /* \"#utility.yul\":11305:11308   */\n      dup4\n        /* \"#utility.yul\":11350:11354   */\n      0x20\n        /* \"#utility.yul\":11342:11348   */\n      dup3\n        /* \"#utility.yul\":11338:11355   */\n      mul\n        /* \"#utility.yul\":11333:11336   */\n      dup6\n        /* \"#utility.yul\":11329:11356   */\n      add\n        /* \"#utility.yul\":11380:11459   */\n      tag_560\n        /* \"#utility.yul\":11453:11458   */\n      dup6\n        /* \"#utility.yul\":11380:11459   */\n      tag_402\n      jump\t// in\n    tag_560:\n        /* \"#utility.yul\":11482:11489   */\n      dup1\n        /* \"#utility.yul\":11513:11514   */\n      0x00\n        /* \"#utility.yul\":11498:11933   */\n    tag_561:\n        /* \"#utility.yul\":11523:11529   */\n      dup6\n        /* \"#utility.yul\":11520:11521   */\n      dup2\n        /* \"#utility.yul\":11517:11530   */\n      lt\n        /* \"#utility.yul\":11498:11933   */\n      iszero\n      tag_563\n      jumpi\n        /* \"#utility.yul\":11594:11603   */\n      dup5\n        /* \"#utility.yul\":11588:11592   */\n      dup5\n        /* \"#utility.yul\":11584:11604   */\n      sub\n        /* \"#utility.yul\":11579:11582   */\n      dup10\n        /* \"#utility.yul\":11572:11605   */\n      mstore\n        /* \"#utility.yul\":11645:11651   */\n      dup2\n        /* \"#utility.yul\":11639:11652   */\n      mload\n        /* \"#utility.yul\":11673:11783   */\n      tag_564\n        /* \"#utility.yul\":11778:11782   */\n      dup6\n        /* \"#utility.yul\":11763:11776   */\n      dup3\n        /* \"#utility.yul\":11673:11783   */\n      tag_413\n      jump\t// in\n    tag_564:\n        /* \"#utility.yul\":11665:11783   */\n      swap5\n      pop\n        /* \"#utility.yul\":11806:11889   */\n      tag_565\n        /* \"#utility.yul\":11882:11888   */\n      dup4\n        /* \"#utility.yul\":11806:11889   */\n      tag_414\n      jump\t// in\n    tag_565:\n        /* \"#utility.yul\":11796:11889   */\n      swap3\n      pop\n        /* \"#utility.yul\":11918:11922   */\n      0x20\n        /* \"#utility.yul\":11913:11916   */\n      dup11\n        /* \"#utility.yul\":11909:11923   */\n      add\n        /* \"#utility.yul\":11902:11923   */\n      swap10\n      pop\n        /* \"#utility.yul\":11558:11933   */\n      pop\n        /* \"#utility.yul\":11545:11546   */\n      0x01\n        /* \"#utility.yul\":11542:11543   */\n      dup2\n        /* \"#utility.yul\":11538:11547   */\n      add\n        /* \"#utility.yul\":11533:11547   */\n      swap1\n      pop\n        /* \"#utility.yul\":11498:11933   */\n      jump(tag_561)\n    tag_563:\n        /* \"#utility.yul\":11502:11516   */\n      pop\n        /* \"#utility.yul\":11949:11953   */\n      dup3\n        /* \"#utility.yul\":11942:11953   */\n      swap8\n      pop\n        /* \"#utility.yul\":11969:11972   */\n      dup8\n        /* \"#utility.yul\":11962:11972   */\n      swap6\n      pop\n        /* \"#utility.yul\":11053:11978   */\n      pop\n      pop\n      pop\n      pop\n      pop\n        /* \"#utility.yul\":10883:11978   */\n      swap3\n      swap2\n      pop\n      pop\n      jump\t// out\n        /* \"#utility.yul\":11984:12449   */\n    tag_34:\n        /* \"#utility.yul\":12173:12177   */\n      0x00\n        /* \"#utility.yul\":12211:12213   */\n      0x20\n        /* \"#utility.yul\":12200:12209   */\n      dup3\n        /* \"#utility.yul\":12196:12214   */\n      add\n        /* \"#utility.yul\":12188:12214   */\n      swap1\n      pop\n        /* \"#utility.yul\":12260:12269   */\n      dup2\n        /* \"#utility.yul\":12254:12258   */\n      dup2\n        /* \"#utility.yul\":12250:12270   */\n      sub\n        /* \"#utility.yul\":12246:12247   */\n      0x00\n        /* \"#utility.yul\":12235:12244   */\n      dup4\n        /* \"#utility.yul\":12231:12248   */\n      add\n        /* \"#utility.yul\":12224:12271   */\n      mstore\n        /* \"#utility.yul\":12288:12442   */\n      tag_567\n        /* \"#utility.yul\":12437:12441   */\n      dup2\n        /* \"#utility.yul\":12428:12434   */\n      dup5\n        /* \"#utility.yul\":12288:12442   */\n      tag_415\n      jump\t// in\n    tag_567:\n        /* \"#utility.yul\":12280:12442   */\n      swap1\n      pop\n        /* \"#utility.yul\":11984:12449   */\n      swap3\n      swap2\n      pop\n      pop\n      jump\t// out\n        /* \"#utility.yul\":12511:13834   */\n    tag_416:\n        /* \"#utility.yul\":12626:12629   */\n      0x00\n        /* \"#utility.yul\":12662:12666   */\n      0xa0\n        /* \"#utility.yul\":12657:12660   */\n      dup4\n        /* \"#utility.yul\":12653:12667   */\n      add\n        /* \"#utility.yul\":12749:12753   */\n      0x00\n        /* \"#utility.yul\":12742:12747   */\n      dup4\n        /* \"#utility.yul\":12738:12754   */\n      add\n        /* \"#utility.yul\":12732:12755   */\n      mload\n        /* \"#utility.yul\":12802:12805   */\n      dup5\n        /* \"#utility.yul\":12796:12800   */\n      dup3\n        /* \"#utility.yul\":12792:12806   */\n      sub\n        /* \"#utility.yul\":12785:12789   */\n      0x00\n        /* \"#utility.yul\":12780:12783   */\n      dup7\n        /* \"#utility.yul\":12776:12790   */\n      add\n        /* \"#utility.yul\":12769:12807   */\n      mstore\n        /* \"#utility.yul\":12828:12901   */\n      tag_569\n        /* \"#utility.yul\":12896:12900   */\n      dup3\n        /* \"#utility.yul\":12882:12894   */\n      dup3\n        /* \"#utility.yul\":12828:12901   */\n      tag_404\n      jump\t// in\n    tag_569:\n        /* \"#utility.yul\":12820:12901   */\n      swap2\n      pop\n        /* \"#utility.yul\":12677:12912   */\n      pop\n        /* \"#utility.yul\":12996:13000   */\n      0x20\n        /* \"#utility.yul\":12989:12994   */\n      dup4\n        /* \"#utility.yul\":12985:13001   */\n      add\n        /* \"#utility.yul\":12979:13002   */\n      mload\n        /* \"#utility.yul\":13015:13078   */\n      tag_570\n        /* \"#utility.yul\":13072:13076   */\n      0x20\n        /* \"#utility.yul\":13067:13070   */\n      dup7\n        /* \"#utility.yul\":13063:13077   */\n      add\n        /* \"#utility.yul\":13049:13061   */\n      dup3\n        /* \"#utility.yul\":13015:13078   */\n      tag_405\n      jump\t// in\n    tag_570:\n        /* \"#utility.yul\":12922:13088   */\n      pop\n        /* \"#utility.yul\":13171:13175   */\n      0x40\n        /* \"#utility.yul\":13164:13169   */\n      dup4\n        /* \"#utility.yul\":13160:13176   */\n      add\n        /* \"#utility.yul\":13154:13177   */\n      mload\n        /* \"#utility.yul\":13190:13253   */\n      tag_571\n        /* \"#utility.yul\":13247:13251   */\n      0x40\n        /* \"#utility.yul\":13242:13245   */\n      dup7\n        /* \"#utility.yul\":13238:13252   */\n      add\n        /* \"#utility.yul\":13224:13236   */\n      dup3\n        /* \"#utility.yul\":13190:13253   */\n      tag_405\n      jump\t// in\n    tag_571:\n        /* \"#utility.yul\":13098:13263   */\n      pop\n        /* \"#utility.yul\":13346:13350   */\n      0x60\n        /* \"#utility.yul\":13339:13344   */\n      dup4\n        /* \"#utility.yul\":13335:13351   */\n      add\n        /* \"#utility.yul\":13329:13352   */\n      mload\n        /* \"#utility.yul\":13399:13402   */\n      dup5\n        /* \"#utility.yul\":13393:13397   */\n      dup3\n        /* \"#utility.yul\":13389:13403   */\n      sub\n        /* \"#utility.yul\":13382:13386   */\n      0x60\n        /* \"#utility.yul\":13377:13380   */\n      dup7\n        /* \"#utility.yul\":13373:13387   */\n      add\n        /* \"#utility.yul\":13366:13404   */\n      mstore\n        /* \"#utility.yul\":13425:13498   */\n      tag_572\n        /* \"#utility.yul\":13493:13497   */\n      dup3\n        /* \"#utility.yul\":13479:13491   */\n      dup3\n        /* \"#utility.yul\":13425:13498   */\n      tag_404\n      jump\t// in\n    tag_572:\n        /* \"#utility.yul\":13417:13498   */\n      swap2\n      pop\n        /* \"#utility.yul\":13273:13509   */\n      pop\n        /* \"#utility.yul\":13594:13598   */\n      0x80\n        /* \"#utility.yul\":13587:13592   */\n      dup4\n        /* \"#utility.yul\":13583:13599   */\n      add\n        /* \"#utility.yul\":13577:13600   */\n      mload\n        /* \"#utility.yul\":13647:13650   */\n      dup5\n        /* \"#utility.yul\":13641:13645   */\n      dup3\n        /* \"#utility.yul\":13637:13651   */\n      sub\n        /* \"#utility.yul\":13630:13634   */\n      0x80\n        /* \"#utility.yul\":13625:13628   */\n      dup7\n        /* \"#utility.yul\":13621:13635   */\n      add\n        /* \"#utility.yul\":13614:13652   */\n      mstore\n        /* \"#utility.yul\":13673:13796   */\n      tag_573\n        /* \"#utility.yul\":13791:13795   */\n      dup3\n        /* \"#utility.yul\":13777:13789   */\n      dup3\n        /* \"#utility.yul\":13673:13796   */\n      tag_411\n      jump\t// in\n    tag_573:\n        /* \"#utility.yul\":13665:13796   */\n      swap2\n      pop\n        /* \"#utility.yul\":13519:13807   */\n      pop\n        /* \"#utility.yul\":13824:13828   */\n      dup1\n        /* \"#utility.yul\":13817:13828   */\n      swap2\n      pop\n        /* \"#utility.yul\":12631:13834   */\n      pop\n        /* \"#utility.yul\":12511:13834   */\n      swap3\n      swap2\n      pop\n      pop\n      jump\t// out\n        /* \"#utility.yul\":13840:14205   */\n    tag_42:\n        /* \"#utility.yul\":13979:13983   */\n      0x00\n        /* \"#utility.yul\":14017:14019   */\n      0x20\n        /* \"#utility.yul\":14006:14015   */\n      dup3\n        /* \"#utility.yul\":14002:14020   */\n      add\n        /* \"#utility.yul\":13994:14020   */\n      swap1\n      pop\n        /* \"#utility.yul\":14066:14075   */\n      dup2\n        /* \"#utility.yul\":14060:14064   */\n      dup2\n        /* \"#utility.yul\":14056:14076   */\n      sub\n        /* \"#utility.yul\":14052:14053   */\n      0x00\n        /* \"#utility.yul\":14041:14050   */\n      dup4\n        /* \"#utility.yul\":14037:14054   */\n      add\n        /* \"#utility.yul\":14030:14077   */\n      mstore\n        /* \"#utility.yul\":14094:14198   */\n      tag_575\n        /* \"#utility.yul\":14193:14197   */\n      dup2\n        /* \"#utility.yul\":14184:14190   */\n      dup5\n        /* \"#utility.yul\":14094:14198   */\n      tag_416\n      jump\t// in\n    tag_575:\n        /* \"#utility.yul\":14086:14198   */\n      swap1\n      pop\n        /* \"#utility.yul\":13840:14205   */\n      swap3\n      swap2\n      pop\n      pop\n      jump\t// out\n        /* \"#utility.yul\":14211:14532   */\n    tag_417:\n        /* \"#utility.yul\":14298:14302   */\n      0x00\n        /* \"#utility.yul\":14388:14406   */\n      0xffffffffffffffff\n        /* \"#utility.yul\":14380:14386   */\n      dup3\n        /* \"#utility.yul\":14377:14407   */\n      gt\n        /* \"#utility.yul\":14374:14430   */\n      iszero\n      tag_577\n      jumpi\n        /* \"#utility.yul\":14410:14428   */\n      tag_578\n      tag_102\n      jump\t// in\n    tag_578:\n        /* \"#utility.yul\":14374:14430   */\n    tag_577:\n        /* \"#utility.yul\":14460:14464   */\n      0x20\n        /* \"#utility.yul\":14452:14458   */\n      dup3\n        /* \"#utility.yul\":14448:14465   */\n      mul\n        /* \"#utility.yul\":14440:14465   */\n      swap1\n      pop\n        /* \"#utility.yul\":14520:14524   */\n      0x20\n        /* \"#utility.yul\":14514:14518   */\n      dup2\n        /* \"#utility.yul\":14510:14525   */\n      add\n        /* \"#utility.yul\":14502:14525   */\n      swap1\n      pop\n        /* \"#utility.yul\":14211:14532   */\n      swap2\n      swap1\n      pop\n      jump\t// out\n        /* \"#utility.yul\":14538:14655   */\n    tag_418:\n        /* \"#utility.yul\":14647:14648   */\n      0x00\n        /* \"#utility.yul\":14644:14645   */\n      dup1\n        /* \"#utility.yul\":14637:14649   */\n      revert\n        /* \"#utility.yul\":14677:15622   */\n    tag_419:\n        /* \"#utility.yul\":14783:14788   */\n      0x00\n        /* \"#utility.yul\":14808:14899   */\n      tag_581\n        /* \"#utility.yul\":14824:14898   */\n      tag_582\n        /* \"#utility.yul\":14891:14897   */\n      dup5\n        /* \"#utility.yul\":14824:14898   */\n      tag_417\n      jump\t// in\n    tag_582:\n        /* \"#utility.yul\":14808:14899   */\n      tag_395\n      jump\t// in\n    tag_581:\n        /* \"#utility.yul\":14799:14899   */\n      swap1\n      pop\n        /* \"#utility.yul\":14919:14924   */\n      dup1\n        /* \"#utility.yul\":14948:14954   */\n      dup4\n        /* \"#utility.yul\":14941:14946   */\n      dup3\n        /* \"#utility.yul\":14934:14955   */\n      mstore\n        /* \"#utility.yul\":14982:14986   */\n      0x20\n        /* \"#utility.yul\":14975:14980   */\n      dup3\n        /* \"#utility.yul\":14971:14987   */\n      add\n        /* \"#utility.yul\":14964:14987   */\n      swap1\n      pop\n        /* \"#utility.yul\":15035:15039   */\n      0x20\n        /* \"#utility.yul\":15027:15033   */\n      dup5\n        /* \"#utility.yul\":15023:15040   */\n      mul\n        /* \"#utility.yul\":15015:15021   */\n      dup4\n        /* \"#utility.yul\":15011:15041   */\n      add\n        /* \"#utility.yul\":15064:15067   */\n      dup6\n        /* \"#utility.yul\":15056:15062   */\n      dup2\n        /* \"#utility.yul\":15053:15068   */\n      gt\n        /* \"#utility.yul\":15050:15172   */\n      iszero\n      tag_583\n      jumpi\n        /* \"#utility.yul\":15083:15162   */\n      tag_584\n      tag_418\n      jump\t// in\n    tag_584:\n        /* \"#utility.yul\":15050:15172   */\n    tag_583:\n        /* \"#utility.yul\":15198:15204   */\n      dup4\n        /* \"#utility.yul\":15181:15616   */\n    tag_585:\n        /* \"#utility.yul\":15215:15221   */\n      dup2\n        /* \"#utility.yul\":15210:15213   */\n      dup2\n        /* \"#utility.yul\":15207:15222   */\n      lt\n        /* \"#utility.yul\":15181:15616   */\n      iszero\n      tag_587\n      jumpi\n        /* \"#utility.yul\":15304:15307   */\n      dup1\n        /* \"#utility.yul\":15291:15308   */\n      calldataload\n        /* \"#utility.yul\":15340:15358   */\n      0xffffffffffffffff\n        /* \"#utility.yul\":15327:15338   */\n      dup2\n        /* \"#utility.yul\":15324:15359   */\n      gt\n        /* \"#utility.yul\":15321:15443   */\n      iszero\n      tag_588\n      jumpi\n        /* \"#utility.yul\":15362:15441   */\n      tag_589\n      tag_392\n      jump\t// in\n    tag_589:\n        /* \"#utility.yul\":15321:15443   */\n    tag_588:\n        /* \"#utility.yul\":15486:15497   */\n      dup1\n        /* \"#utility.yul\":15478:15484   */\n      dup7\n        /* \"#utility.yul\":15474:15498   */\n      add\n        /* \"#utility.yul\":15524:15571   */\n      tag_590\n        /* \"#utility.yul\":15567:15570   */\n      dup10\n        /* \"#utility.yul\":15555:15565   */\n      dup3\n        /* \"#utility.yul\":15524:15571   */\n      tag_399\n      jump\t// in\n    tag_590:\n        /* \"#utility.yul\":15519:15522   */\n      dup6\n        /* \"#utility.yul\":15512:15572   */\n      mstore\n        /* \"#utility.yul\":15601:15605   */\n      0x20\n        /* \"#utility.yul\":15596:15599   */\n      dup6\n        /* \"#utility.yul\":15592:15606   */\n      add\n        /* \"#utility.yul\":15585:15606   */\n      swap5\n      pop\n        /* \"#utility.yul\":15257:15616   */\n      pop\n      pop\n        /* \"#utility.yul\":15241:15245   */\n      0x20\n        /* \"#utility.yul\":15236:15239   */\n      dup2\n        /* \"#utility.yul\":15232:15246   */\n      add\n        /* \"#utility.yul\":15225:15246   */\n      swap1\n      pop\n        /* \"#utility.yul\":15181:15616   */\n      jump(tag_585)\n    tag_587:\n        /* \"#utility.yul\":15185:15206   */\n      pop\n        /* \"#utility.yul\":14789:15622   */\n      pop\n      pop\n        /* \"#utility.yul\":14677:15622   */\n      swap4\n      swap3\n      pop\n      pop\n      pop\n      jump\t// out\n        /* \"#utility.yul\":15644:16034   */\n    tag_420:\n        /* \"#utility.yul\":15725:15730   */\n      0x00\n        /* \"#utility.yul\":15774:15777   */\n      dup3\n        /* \"#utility.yul\":15767:15771   */\n      0x1f\n        /* \"#utility.yul\":15759:15765   */\n      dup4\n        /* \"#utility.yul\":15755:15772   */\n      add\n        /* \"#utility.yul\":15751:15778   */\n      slt\n        /* \"#utility.yul\":15741:15863   */\n      tag_592\n      jumpi\n        /* \"#utility.yul\":15782:15861   */\n      tag_593\n      tag_392\n      jump\t// in\n    tag_593:\n        /* \"#utility.yul\":15741:15863   */\n    tag_592:\n        /* \"#utility.yul\":15899:15905   */\n      dup2\n        /* \"#utility.yul\":15886:15906   */\n      calldataload\n        /* \"#utility.yul\":15924:16028   */\n      tag_594\n        /* \"#utility.yul\":16024:16027   */\n      dup5\n        /* \"#utility.yul\":16016:16022   */\n      dup3\n        /* \"#utility.yul\":16009:16013   */\n      0x20\n        /* \"#utility.yul\":16001:16007   */\n      dup7\n        /* \"#utility.yul\":15997:16014   */\n      add\n        /* \"#utility.yul\":15924:16028   */\n      tag_419\n      jump\t// in\n    tag_594:\n        /* \"#utility.yul\":15915:16028   */\n      swap2\n      pop\n        /* \"#utility.yul\":15731:16034   */\n      pop\n        /* \"#utility.yul\":15644:16034   */\n      swap3\n      swap2\n      pop\n      pop\n      jump\t// out\n        /* \"#utility.yul\":16040:17215   */\n    tag_45:\n        /* \"#utility.yul\":16171:16177   */\n      0x00\n        /* \"#utility.yul\":16179:16185   */\n      dup1\n        /* \"#utility.yul\":16187:16193   */\n      0x00\n        /* \"#utility.yul\":16195:16201   */\n      dup1\n        /* \"#utility.yul\":16244:16247   */\n      0x80\n        /* \"#utility.yul\":16232:16241   */\n      dup6\n        /* \"#utility.yul\":16223:16230   */\n      dup8\n        /* \"#utility.yul\":16219:16242   */\n      sub\n        /* \"#utility.yul\":16215:16248   */\n      slt\n        /* \"#utility.yul\":16212:16332   */\n      iszero\n      tag_596\n      jumpi\n        /* \"#utility.yul\":16251:16330   */\n      tag_597\n      tag_379\n      jump\t// in\n    tag_597:\n        /* \"#utility.yul\":16212:16332   */\n    tag_596:\n        /* \"#utility.yul\":16399:16400   */\n      0x00\n        /* \"#utility.yul\":16388:16397   */\n      dup6\n        /* \"#utility.yul\":16384:16401   */\n      add\n        /* \"#utility.yul\":16371:16402   */\n      calldataload\n        /* \"#utility.yul\":16429:16447   */\n      0xffffffffffffffff\n        /* \"#utility.yul\":16421:16427   */\n      dup2\n        /* \"#utility.yul\":16418:16448   */\n      gt\n        /* \"#utility.yul\":16415:16532   */\n      iszero\n      tag_598\n      jumpi\n        /* \"#utility.yul\":16451:16530   */\n      tag_599\n      tag_380\n      jump\t// in\n    tag_599:\n        /* \"#utility.yul\":16415:16532   */\n    tag_598:\n        /* \"#utility.yul\":16556:16619   */\n      tag_600\n        /* \"#utility.yul\":16611:16618   */\n      dup8\n        /* \"#utility.yul\":16602:16608   */\n      dup3\n        /* \"#utility.yul\":16591:16600   */\n      dup9\n        /* \"#utility.yul\":16587:16609   */\n      add\n        /* \"#utility.yul\":16556:16619   */\n      tag_399\n      jump\t// in\n    tag_600:\n        /* \"#utility.yul\":16546:16619   */\n      swap5\n      pop\n        /* \"#utility.yul\":16342:16629   */\n      pop\n        /* \"#utility.yul\":16668:16670   */\n      0x20\n        /* \"#utility.yul\":16694:16747   */\n      tag_601\n        /* \"#utility.yul\":16739:16746   */\n      dup8\n        /* \"#utility.yul\":16730:16736   */\n      dup3\n        /* \"#utility.yul\":16719:16728   */\n      dup9\n        /* \"#utility.yul\":16715:16737   */\n      add\n        /* \"#utility.yul\":16694:16747   */\n      tag_383\n      jump\t// in\n    tag_601:\n        /* \"#utility.yul\":16684:16747   */\n      swap4\n      pop\n        /* \"#utility.yul\":16639:16757   */\n      pop\n        /* \"#utility.yul\":16796:16798   */\n      0x40\n        /* \"#utility.yul\":16822:16875   */\n      tag_602\n        /* \"#utility.yul\":16867:16874   */\n      dup8\n        /* \"#utility.yul\":16858:16864   */\n      dup3\n        /* \"#utility.yul\":16847:16856   */\n      dup9\n        /* \"#utility.yul\":16843:16865   */\n      add\n        /* \"#utility.yul\":16822:16875   */\n      tag_383\n      jump\t// in\n    tag_602:\n        /* \"#utility.yul\":16812:16875   */\n      swap3\n      pop\n        /* \"#utility.yul\":16767:16885   */\n      pop\n        /* \"#utility.yul\":16952:16954   */\n      0x60\n        /* \"#utility.yul\":16941:16950   */\n      dup6\n        /* \"#utility.yul\":16937:16955   */\n      add\n        /* \"#utility.yul\":16924:16956   */\n      calldataload\n        /* \"#utility.yul\":16983:17001   */\n      0xffffffffffffffff\n        /* \"#utility.yul\":16975:16981   */\n      dup2\n        /* \"#utility.yul\":16972:17002   */\n      gt\n        /* \"#utility.yul\":16969:17086   */\n      iszero\n      tag_603\n      jumpi\n        /* \"#utility.yul\":17005:17084   */\n      tag_604\n      tag_380\n      jump\t// in\n    tag_604:\n        /* \"#utility.yul\":16969:17086   */\n    tag_603:\n        /* \"#utility.yul\":17110:17198   */\n      tag_605\n        /* \"#utility.yul\":17190:17197   */\n      dup8\n        /* \"#utility.yul\":17181:17187   */\n      dup3\n        /* \"#utility.yul\":17170:17179   */\n      dup9\n        /* \"#utility.yul\":17166:17188   */\n      add\n        /* \"#utility.yul\":17110:17198   */\n      tag_420\n      jump\t// in\n    tag_605:\n        /* \"#utility.yul\":17100:17198   */\n      swap2\n      pop\n        /* \"#utility.yul\":16895:17208   */\n      pop\n        /* \"#utility.yul\":16040:17215   */\n      swap3\n      swap6\n      swap2\n      swap5\n      pop\n      swap3\n      pop\n      jump\t// out\n        /* \"#utility.yul\":17221:17335   */\n    tag_421:\n        /* \"#utility.yul\":17288:17294   */\n      0x00\n        /* \"#utility.yul\":17322:17327   */\n      dup2\n        /* \"#utility.yul\":17316:17328   */\n      mload\n        /* \"#utility.yul\":17306:17328   */\n      swap1\n      pop\n        /* \"#utility.yul\":17221:17335   */\n      swap2\n      swap1\n      pop\n      jump\t// out\n        /* \"#utility.yul\":17341:17525   */\n    tag_422:\n        /* \"#utility.yul\":17440:17451   */\n      0x00\n        /* \"#utility.yul\":17474:17480   */\n      dup3\n        /* \"#utility.yul\":17469:17472   */\n      dup3\n        /* \"#utility.yul\":17462:17481   */\n      mstore\n        /* \"#utility.yul\":17514:17518   */\n      0x20\n        /* \"#utility.yul\":17509:17512   */\n      dup3\n        /* \"#utility.yul\":17505:17519   */\n      add\n        /* \"#utility.yul\":17490:17519   */\n      swap1\n      pop\n        /* \"#utility.yul\":17341:17525   */\n      swap3\n      swap2\n      pop\n      pop\n      jump\t// out\n        /* \"#utility.yul\":17531:17663   */\n    tag_423:\n        /* \"#utility.yul\":17598:17602   */\n      0x00\n        /* \"#utility.yul\":17621:17624   */\n      dup2\n        /* \"#utility.yul\":17613:17624   */\n      swap1\n      pop\n        /* \"#utility.yul\":17651:17655   */\n      0x20\n        /* \"#utility.yul\":17646:17649   */\n      dup3\n        /* \"#utility.yul\":17642:17656   */\n      add\n        /* \"#utility.yul\":17634:17656   */\n      swap1\n      pop\n        /* \"#utility.yul\":17531:17663   */\n      swap2\n      swap1\n      pop\n      jump\t// out\n        /* \"#utility.yul\":17669:17848   */\n    tag_424:\n        /* \"#utility.yul\":17738:17748   */\n      0x00\n        /* \"#utility.yul\":17759:17805   */\n      tag_610\n        /* \"#utility.yul\":17801:17804   */\n      dup4\n        /* \"#utility.yul\":17793:17799   */\n      dup4\n        /* \"#utility.yul\":17759:17805   */\n      tag_405\n      jump\t// in\n    tag_610:\n        /* \"#utility.yul\":17837:17841   */\n      0x20\n        /* \"#utility.yul\":17832:17835   */\n      dup4\n        /* \"#utility.yul\":17828:17842   */\n      add\n        /* \"#utility.yul\":17814:17842   */\n      swap1\n      pop\n        /* \"#utility.yul\":17669:17848   */\n      swap3\n      swap2\n      pop\n      pop\n      jump\t// out\n        /* \"#utility.yul\":17854:17967   */\n    tag_425:\n        /* \"#utility.yul\":17924:17928   */\n      0x00\n        /* \"#utility.yul\":17956:17960   */\n      0x20\n        /* \"#utility.yul\":17951:17954   */\n      dup3\n        /* \"#utility.yul\":17947:17961   */\n      add\n        /* \"#utility.yul\":17939:17961   */\n      swap1\n      pop\n        /* \"#utility.yul\":17854:17967   */\n      swap2\n      swap1\n      pop\n      jump\t// out\n        /* \"#utility.yul\":18003:18735   */\n    tag_426:\n        /* \"#utility.yul\":18122:18125   */\n      0x00\n        /* \"#utility.yul\":18151:18205   */\n      tag_613\n        /* \"#utility.yul\":18199:18204   */\n      dup3\n        /* \"#utility.yul\":18151:18205   */\n      tag_421\n      jump\t// in\n    tag_613:\n        /* \"#utility.yul\":18221:18307   */\n      tag_614\n        /* \"#utility.yul\":18300:18306   */\n      dup2\n        /* \"#utility.yul\":18295:18298   */\n      dup6\n        /* \"#utility.yul\":18221:18307   */\n      tag_422\n      jump\t// in\n    tag_614:\n        /* \"#utility.yul\":18214:18307   */\n      swap4\n      pop\n        /* \"#utility.yul\":18331:18387   */\n      tag_615\n        /* \"#utility.yul\":18381:18386   */\n      dup4\n        /* \"#utility.yul\":18331:18387   */\n      tag_423\n      jump\t// in\n    tag_615:\n        /* \"#utility.yul\":18410:18417   */\n      dup1\n        /* \"#utility.yul\":18441:18442   */\n      0x00\n        /* \"#utility.yul\":18426:18710   */\n    tag_616:\n        /* \"#utility.yul\":18451:18457   */\n      dup4\n        /* \"#utility.yul\":18448:18449   */\n      dup2\n        /* \"#utility.yul\":18445:18458   */\n      lt\n        /* \"#utility.yul\":18426:18710   */\n      iszero\n      tag_618\n      jumpi\n        /* \"#utility.yul\":18527:18533   */\n      dup2\n        /* \"#utility.yul\":18521:18534   */\n      mload\n        /* \"#utility.yul\":18554:18617   */\n      tag_619\n        /* \"#utility.yul\":18613:18616   */\n      dup9\n        /* \"#utility.yul\":18598:18611   */\n      dup3\n        /* \"#utility.yul\":18554:18617   */\n      tag_424\n      jump\t// in\n    tag_619:\n        /* \"#utility.yul\":18547:18617   */\n      swap8\n      pop\n        /* \"#utility.yul\":18640:18700   */\n      tag_620\n        /* \"#utility.yul\":18693:18699   */\n      dup4\n        /* \"#utility.yul\":18640:18700   */\n      tag_425\n      jump\t// in\n    tag_620:\n        /* \"#utility.yul\":18630:18700   */\n      swap3\n      pop\n        /* \"#utility.yul\":18486:18710   */\n      pop\n        /* \"#utility.yul\":18473:18474   */\n      0x01\n        /* \"#utility.yul\":18470:18471   */\n      dup2\n        /* \"#utility.yul\":18466:18475   */\n      add\n        /* \"#utility.yul\":18461:18475   */\n      swap1\n      pop\n        /* \"#utility.yul\":18426:18710   */\n      jump(tag_616)\n    tag_618:\n        /* \"#utility.yul\":18430:18444   */\n      pop\n        /* \"#utility.yul\":18726:18729   */\n      dup6\n        /* \"#utility.yul\":18719:18729   */\n      swap4\n      pop\n        /* \"#utility.yul\":18127:18735   */\n      pop\n      pop\n      pop\n        /* \"#utility.yul\":18003:18735   */\n      swap3\n      swap2\n      pop\n      pop\n      jump\t// out\n        /* \"#utility.yul\":18741:19114   */\n    tag_57:\n        /* \"#utility.yul\":18884:18888   */\n      0x00\n        /* \"#utility.yul\":18922:18924   */\n      0x20\n        /* \"#utility.yul\":18911:18920   */\n      dup3\n        /* \"#utility.yul\":18907:18925   */\n      add\n        /* \"#utility.yul\":18899:18925   */\n      swap1\n      pop\n        /* \"#utility.yul\":18971:18980   */\n      dup2\n        /* \"#utility.yul\":18965:18969   */\n      dup2\n        /* \"#utility.yul\":18961:18981   */\n      sub\n        /* \"#utility.yul\":18957:18958   */\n      0x00\n        /* \"#utility.yul\":18946:18955   */\n      dup4\n        /* \"#utility.yul\":18942:18959   */\n      add\n        /* \"#utility.yul\":18935:18982   */\n      mstore\n        /* \"#utility.yul\":18999:19107   */\n      tag_622\n        /* \"#utility.yul\":19102:19106   */\n      dup2\n        /* \"#utility.yul\":19093:19099   */\n      dup5\n        /* \"#utility.yul\":18999:19107   */\n      tag_426\n      jump\t// in\n    tag_622:\n        /* \"#utility.yul\":18991:19107   */\n      swap1\n      pop\n        /* \"#utility.yul\":18741:19114   */\n      swap3\n      swap2\n      pop\n      pop\n      jump\t// out\n        /* \"#utility.yul\":19120:19300   */\n    tag_427:\n        /* \"#utility.yul\":19168:19245   */\n      0x4e487b7100000000000000000000000000000000000000000000000000000000\n        /* \"#utility.yul\":19165:19166   */\n      0x00\n        /* \"#utility.yul\":19158:19246   */\n      mstore\n        /* \"#utility.yul\":19265:19269   */\n      0x22\n        /* \"#utility.yul\":19262:19263   */\n      0x04\n        /* \"#utility.yul\":19255:19270   */\n      mstore\n        /* \"#utility.yul\":19289:19293   */\n      0x24\n        /* \"#utility.yul\":19286:19287   */\n      0x00\n        /* \"#utility.yul\":19279:19294   */\n      revert\n        /* \"#utility.yul\":19306:19626   */\n    tag_64:\n        /* \"#utility.yul\":19350:19356   */\n      0x00\n        /* \"#utility.yul\":19387:19388   */\n      0x02\n        /* \"#utility.yul\":19381:19385   */\n      dup3\n        /* \"#utility.yul\":19377:19389   */\n      div\n        /* \"#utility.yul\":19367:19389   */\n      swap1\n      pop\n        /* \"#utility.yul\":19434:19435   */\n      0x01\n        /* \"#utility.yul\":19428:19432   */\n      dup3\n        /* \"#utility.yul\":19424:19436   */\n      and\n        /* \"#utility.yul\":19455:19473   */\n      dup1\n        /* \"#utility.yul\":19445:19526   */\n      tag_625\n      jumpi\n        /* \"#utility.yul\":19511:19515   */\n      0x7f\n        /* \"#utility.yul\":19503:19509   */\n      dup3\n        /* \"#utility.yul\":19499:19516   */\n      and\n        /* \"#utility.yul\":19489:19516   */\n      swap2\n      pop\n        /* \"#utility.yul\":19445:19526   */\n    tag_625:\n        /* \"#utility.yul\":19573:19575   */\n      0x20\n        /* \"#utility.yul\":19565:19571   */\n      dup3\n        /* \"#utility.yul\":19562:19576   */\n      lt\n        /* \"#utility.yul\":19542:19560   */\n      dup2\n        /* \"#utility.yul\":19539:19577   */\n      sub\n        /* \"#utility.yul\":19536:19620   */\n      tag_626\n      jumpi\n        /* \"#utility.yul\":19592:19610   */\n      tag_627\n      tag_427\n      jump\t// in\n    tag_627:\n        /* \"#utility.yul\":19536:19620   */\n    tag_626:\n        /* \"#utility.yul\":19357:19626   */\n      pop\n        /* \"#utility.yul\":19306:19626   */\n      swap2\n      swap1\n      pop\n      jump\t// out\n        /* \"#utility.yul\":19632:19780   */\n    tag_428:\n        /* \"#utility.yul\":19734:19745   */\n      0x00\n        /* \"#utility.yul\":19771:19774   */\n      dup2\n        /* \"#utility.yul\":19756:19774   */\n      swap1\n      pop\n        /* \"#utility.yul\":19632:19780   */\n      swap3\n      swap2\n      pop\n      pop\n      jump\t// out\n        /* \"#utility.yul\":19786:20176   */\n    tag_429:\n        /* \"#utility.yul\":19892:19895   */\n      0x00\n        /* \"#utility.yul\":19920:19959   */\n      tag_630\n        /* \"#utility.yul\":19953:19958   */\n      dup3\n        /* \"#utility.yul\":19920:19959   */\n      tag_384\n      jump\t// in\n    tag_630:\n        /* \"#utility.yul\":19975:20064   */\n      tag_631\n        /* \"#utility.yul\":20057:20063   */\n      dup2\n        /* \"#utility.yul\":20052:20055   */\n      dup6\n        /* \"#utility.yul\":19975:20064   */\n      tag_428\n      jump\t// in\n    tag_631:\n        /* \"#utility.yul\":19968:20064   */\n      swap4\n      pop\n        /* \"#utility.yul\":20073:20138   */\n      tag_632\n        /* \"#utility.yul\":20131:20137   */\n      dup2\n        /* \"#utility.yul\":20126:20129   */\n      dup6\n        /* \"#utility.yul\":20119:20123   */\n      0x20\n        /* \"#utility.yul\":20112:20117   */\n      dup7\n        /* \"#utility.yul\":20108:20124   */\n      add\n        /* \"#utility.yul\":20073:20138   */\n      tag_386\n      jump\t// in\n    tag_632:\n        /* \"#utility.yul\":20163:20169   */\n      dup1\n        /* \"#utility.yul\":20158:20161   */\n      dup5\n        /* \"#utility.yul\":20154:20170   */\n      add\n        /* \"#utility.yul\":20147:20170   */\n      swap2\n      pop\n        /* \"#utility.yul\":19896:20176   */\n      pop\n        /* \"#utility.yul\":19786:20176   */\n      swap3\n      swap2\n      pop\n      pop\n      jump\t// out\n        /* \"#utility.yul\":20182:20457   */\n    tag_83:\n        /* \"#utility.yul\":20314:20317   */\n      0x00\n        /* \"#utility.yul\":20336:20431   */\n      tag_634\n        /* \"#utility.yul\":20427:20430   */\n      dup3\n        /* \"#utility.yul\":20418:20424   */\n      dup5\n        /* \"#utility.yul\":20336:20431   */\n      tag_429\n      jump\t// in\n    tag_634:\n        /* \"#utility.yul\":20329:20431   */\n      swap2\n      pop\n        /* \"#utility.yul\":20448:20451   */\n      dup2\n        /* \"#utility.yul\":20441:20451   */\n      swap1\n      pop\n        /* \"#utility.yul\":20182:20457   */\n      swap3\n      swap2\n      pop\n      pop\n      jump\t// out\n        /* \"#utility.yul\":20463:20643   */\n    tag_86:\n        /* \"#utility.yul\":20511:20588   */\n      0x4e487b7100000000000000000000000000000000000000000000000000000000\n        /* \"#utility.yul\":20508:20509   */\n      0x00\n        /* \"#utility.yul\":20501:20589   */\n      mstore\n        /* \"#utility.yul\":20608:20612   */\n      0x32\n        /* \"#utility.yul\":20605:20606   */\n      0x04\n        /* \"#utility.yul\":20598:20613   */\n      mstore\n        /* \"#utility.yul\":20632:20636   */\n      0x24\n        /* \"#utility.yul\":20629:20630   */\n      0x00\n        /* \"#utility.yul\":20622:20637   */\n      revert\n        /* \"#utility.yul\":20649:20790   */\n    tag_430:\n        /* \"#utility.yul\":20698:20702   */\n      0x00\n        /* \"#utility.yul\":20721:20724   */\n      dup2\n        /* \"#utility.yul\":20713:20724   */\n      swap1\n      pop\n        /* \"#utility.yul\":20744:20747   */\n      dup2\n        /* \"#utility.yul\":20741:20742   */\n      0x00\n        /* \"#utility.yul\":20734:20748   */\n      mstore\n        /* \"#utility.yul\":20778:20782   */\n      0x20\n        /* \"#utility.yul\":20775:20776   */\n      0x00\n        /* \"#utility.yul\":20765:20783   */\n      keccak256\n        /* \"#utility.yul\":20757:20783   */\n      swap1\n      pop\n        /* \"#utility.yul\":20649:20790   */\n      swap2\n      swap1\n      pop\n      jump\t// out\n        /* \"#utility.yul\":20820:21694   */\n    tag_431:\n        /* \"#utility.yul\":20923:20926   */\n      0x00\n        /* \"#utility.yul\":20960:20965   */\n      dup2\n        /* \"#utility.yul\":20954:20966   */\n      sload\n        /* \"#utility.yul\":20989:21025   */\n      tag_638\n        /* \"#utility.yul\":21015:21024   */\n      dup2\n        /* \"#utility.yul\":20989:21025   */\n      tag_64\n      jump\t// in\n    tag_638:\n        /* \"#utility.yul\":21041:21130   */\n      tag_639\n        /* \"#utility.yul\":21123:21129   */\n      dup2\n        /* \"#utility.yul\":21118:21121   */\n      dup7\n        /* \"#utility.yul\":21041:21130   */\n      tag_428\n      jump\t// in\n    tag_639:\n        /* \"#utility.yul\":21034:21130   */\n      swap5\n      pop\n        /* \"#utility.yul\":21161:21162   */\n      0x01\n        /* \"#utility.yul\":21150:21159   */\n      dup3\n        /* \"#utility.yul\":21146:21163   */\n      and\n        /* \"#utility.yul\":21177:21178   */\n      0x00\n        /* \"#utility.yul\":21172:21338   */\n      dup2\n      eq\n      tag_641\n      jumpi\n        /* \"#utility.yul\":21352:21353   */\n      0x01\n        /* \"#utility.yul\":21347:21688   */\n      dup2\n      eq\n      tag_642\n      jumpi\n        /* \"#utility.yul\":21139:21688   */\n      jump(tag_640)\n        /* \"#utility.yul\":21172:21338   */\n    tag_641:\n        /* \"#utility.yul\":21256:21260   */\n      0xff\n        /* \"#utility.yul\":21252:21261   */\n      not\n        /* \"#utility.yul\":21241:21250   */\n      dup4\n        /* \"#utility.yul\":21237:21262   */\n      and\n        /* \"#utility.yul\":21232:21235   */\n      dup7\n        /* \"#utility.yul\":21225:21263   */\n      mstore\n        /* \"#utility.yul\":21318:21324   */\n      dup2\n        /* \"#utility.yul\":21311:21325   */\n      iszero\n        /* \"#utility.yul\":21304:21326   */\n      iszero\n        /* \"#utility.yul\":21296:21302   */\n      dup3\n        /* \"#utility.yul\":21292:21327   */\n      mul\n        /* \"#utility.yul\":21287:21290   */\n      dup7\n        /* \"#utility.yul\":21283:21328   */\n      add\n        /* \"#utility.yul\":21276:21328   */\n      swap4\n      pop\n        /* \"#utility.yul\":21172:21338   */\n      jump(tag_640)\n        /* \"#utility.yul\":21347:21688   */\n    tag_642:\n        /* \"#utility.yul\":21414:21452   */\n      tag_643\n        /* \"#utility.yul\":21446:21451   */\n      dup6\n        /* \"#utility.yul\":21414:21452   */\n      tag_430\n      jump\t// in\n    tag_643:\n        /* \"#utility.yul\":21474:21475   */\n      0x00\n        /* \"#utility.yul\":21488:21642   */\n    tag_644:\n        /* \"#utility.yul\":21502:21508   */\n      dup4\n        /* \"#utility.yul\":21499:21500   */\n      dup2\n        /* \"#utility.yul\":21496:21509   */\n      lt\n        /* \"#utility.yul\":21488:21642   */\n      iszero\n      tag_646\n      jumpi\n        /* \"#utility.yul\":21576:21583   */\n      dup2\n        /* \"#utility.yul\":21570:21584   */\n      sload\n        /* \"#utility.yul\":21566:21567   */\n      dup2\n        /* \"#utility.yul\":21561:21564   */\n      dup10\n        /* \"#utility.yul\":21557:21568   */\n      add\n        /* \"#utility.yul\":21550:21585   */\n      mstore\n        /* \"#utility.yul\":21626:21627   */\n      0x01\n        /* \"#utility.yul\":21617:21624   */\n      dup3\n        /* \"#utility.yul\":21613:21628   */\n      add\n        /* \"#utility.yul\":21602:21628   */\n      swap2\n      pop\n        /* \"#utility.yul\":21524:21528   */\n      0x20\n        /* \"#utility.yul\":21521:21522   */\n      dup2\n        /* \"#utility.yul\":21517:21529   */\n      add\n        /* \"#utility.yul\":21512:21529   */\n      swap1\n      pop\n        /* \"#utility.yul\":21488:21642   */\n      jump(tag_644)\n    tag_646:\n        /* \"#utility.yul\":21671:21677   */\n      dup4\n        /* \"#utility.yul\":21666:21669   */\n      dup9\n        /* \"#utility.yul\":21662:21678   */\n      add\n        /* \"#utility.yul\":21655:21678   */\n      swap6\n      pop\n        /* \"#utility.yul\":21354:21688   */\n      pop\n      pop\n        /* \"#utility.yul\":21139:21688   */\n    tag_640:\n      pop\n        /* \"#utility.yul\":20927:21694   */\n      pop\n      pop\n        /* \"#utility.yul\":20820:21694   */\n      swap3\n      swap2\n      pop\n      pop\n      jump\t// out\n        /* \"#utility.yul\":21700:21969   */\n    tag_89:\n        /* \"#utility.yul\":21829:21832   */\n      0x00\n        /* \"#utility.yul\":21851:21943   */\n      tag_648\n        /* \"#utility.yul\":21939:21942   */\n      dup3\n        /* \"#utility.yul\":21930:21936   */\n      dup5\n        /* \"#utility.yul\":21851:21943   */\n      tag_431\n      jump\t// in\n    tag_648:\n        /* \"#utility.yul\":21844:21943   */\n      swap2\n      pop\n        /* \"#utility.yul\":21960:21963   */\n      dup2\n        /* \"#utility.yul\":21953:21963   */\n      swap1\n      pop\n        /* \"#utility.yul\":21700:21969   */\n      swap3\n      swap2\n      pop\n      pop\n      jump\t// out\n        /* \"#utility.yul\":21975:22155   */\n    tag_432:\n        /* \"#utility.yul\":22115:22147   */\n      0x4e6f2073747564656e7420776974682074686520676976656e206e616d650000\n        /* \"#utility.yul\":22111:22112   */\n      0x00\n        /* \"#utility.yul\":22103:22109   */\n      dup3\n        /* \"#utility.yul\":22099:22113   */\n      add\n        /* \"#utility.yul\":22092:22148   */\n      mstore\n        /* \"#utility.yul\":21975:22155   */\n      pop\n      jump\t// out\n        /* \"#utility.yul\":22161:22527   */\n    tag_433:\n        /* \"#utility.yul\":22303:22306   */\n      0x00\n        /* \"#utility.yul\":22324:22391   */\n      tag_651\n        /* \"#utility.yul\":22388:22390   */\n      0x1e\n        /* \"#utility.yul\":22383:22386   */\n      dup4\n        /* \"#utility.yul\":22324:22391   */\n      tag_385\n      jump\t// in\n    tag_651:\n        /* \"#utility.yul\":22317:22391   */\n      swap2\n      pop\n        /* \"#utility.yul\":22400:22493   */\n      tag_652\n        /* \"#utility.yul\":22489:22492   */\n      dup3\n        /* \"#utility.yul\":22400:22493   */\n      tag_432\n      jump\t// in\n    tag_652:\n        /* \"#utility.yul\":22518:22520   */\n      0x20\n        /* \"#utility.yul\":22513:22516   */\n      dup3\n        /* \"#utility.yul\":22509:22521   */\n      add\n        /* \"#utility.yul\":22502:22521   */\n      swap1\n      pop\n        /* \"#utility.yul\":22161:22527   */\n      swap2\n      swap1\n      pop\n      jump\t// out\n        /* \"#utility.yul\":22533:22952   */\n    tag_96:\n        /* \"#utility.yul\":22699:22703   */\n      0x00\n        /* \"#utility.yul\":22737:22739   */\n      0x20\n        /* \"#utility.yul\":22726:22735   */\n      dup3\n        /* \"#utility.yul\":22722:22740   */\n      add\n        /* \"#utility.yul\":22714:22740   */\n      swap1\n      pop\n        /* \"#utility.yul\":22786:22795   */\n      dup2\n        /* \"#utility.yul\":22780:22784   */\n      dup2\n        /* \"#utility.yul\":22776:22796   */\n      sub\n        /* \"#utility.yul\":22772:22773   */\n      0x00\n        /* \"#utility.yul\":22761:22770   */\n      dup4\n        /* \"#utility.yul\":22757:22774   */\n      add\n        /* \"#utility.yul\":22750:22797   */\n      mstore\n        /* \"#utility.yul\":22814:22945   */\n      tag_654\n        /* \"#utility.yul\":22940:22944   */\n      dup2\n        /* \"#utility.yul\":22814:22945   */\n      tag_433\n      jump\t// in\n    tag_654:\n        /* \"#utility.yul\":22806:22945   */\n      swap1\n      pop\n        /* \"#utility.yul\":22533:22952   */\n      swap2\n      swap1\n      pop\n      jump\t// out\n        /* \"#utility.yul\":22958:23109   */\n    tag_434:\n        /* \"#utility.yul\":23098:23101   */\n      0x4600000000000000000000000000000000000000000000000000000000000000\n        /* \"#utility.yul\":23094:23095   */\n      0x00\n        /* \"#utility.yul\":23086:23092   */\n      dup3\n        /* \"#utility.yul\":23082:23096   */\n      add\n        /* \"#utility.yul\":23075:23102   */\n      mstore\n        /* \"#utility.yul\":22958:23109   */\n      pop\n      jump\t// out\n        /* \"#utility.yul\":23115:23515   */\n    tag_435:\n        /* \"#utility.yul\":23275:23278   */\n      0x00\n        /* \"#utility.yul\":23296:23380   */\n      tag_657\n        /* \"#utility.yul\":23378:23379   */\n      0x01\n        /* \"#utility.yul\":23373:23376   */\n      dup4\n        /* \"#utility.yul\":23296:23380   */\n      tag_428\n      jump\t// in\n    tag_657:\n        /* \"#utility.yul\":23289:23380   */\n      swap2\n      pop\n        /* \"#utility.yul\":23389:23482   */\n      tag_658\n        /* \"#utility.yul\":23478:23481   */\n      dup3\n        /* \"#utility.yul\":23389:23482   */\n      tag_434\n      jump\t// in\n    tag_658:\n        /* \"#utility.yul\":23507:23508   */\n      0x01\n        /* \"#utility.yul\":23502:23505   */\n      dup3\n        /* \"#utility.yul\":23498:23509   */\n      add\n        /* \"#utility.yul\":23491:23509   */\n      swap1\n      pop\n        /* \"#utility.yul\":23115:23515   */\n      swap2\n      swap1\n      pop\n      jump\t// out\n        /* \"#utility.yul\":23521:23902   */\n    tag_159:\n        /* \"#utility.yul\":23706:23709   */\n      0x00\n        /* \"#utility.yul\":23728:23876   */\n      tag_660\n        /* \"#utility.yul\":23872:23875   */\n      dup3\n        /* \"#utility.yul\":23728:23876   */\n      tag_435\n      jump\t// in\n    tag_660:\n        /* \"#utility.yul\":23721:23876   */\n      swap2\n      pop\n        /* \"#utility.yul\":23893:23896   */\n      dup2\n        /* \"#utility.yul\":23886:23896   */\n      swap1\n      pop\n        /* \"#utility.yul\":23521:23902   */\n      swap2\n      swap1\n      pop\n      jump\t// out\n        /* \"#utility.yul\":23908:24090   */\n    tag_436:\n        /* \"#utility.yul\":24048:24082   */\n      0x4e6f2073747564656e7420776974682074686520676976656e206e756d626572\n        /* \"#utility.yul\":24044:24045   */\n      0x00\n        /* \"#utility.yul\":24036:24042   */\n      dup3\n        /* \"#utility.yul\":24032:24046   */\n      add\n        /* \"#utility.yul\":24025:24083   */\n      mstore\n        /* \"#utility.yul\":23908:24090   */\n      pop\n      jump\t// out\n        /* \"#utility.yul\":24096:24462   */\n    tag_437:\n        /* \"#utility.yul\":24238:24241   */\n      0x00\n        /* \"#utility.yul\":24259:24326   */\n      tag_663\n        /* \"#utility.yul\":24323:24325   */\n      0x20\n        /* \"#utility.yul\":24318:24321   */\n      dup4\n        /* \"#utility.yul\":24259:24326   */\n      tag_385\n      jump\t// in\n    tag_663:\n        /* \"#utility.yul\":24252:24326   */\n      swap2\n      pop\n        /* \"#utility.yul\":24335:24428   */\n      tag_664\n        /* \"#utility.yul\":24424:24427   */\n      dup3\n        /* \"#utility.yul\":24335:24428   */\n      tag_436\n      jump\t// in\n    tag_664:\n        /* \"#utility.yul\":24453:24455   */\n      0x20\n        /* \"#utility.yul\":24448:24451   */\n      dup3\n        /* \"#utility.yul\":24444:24456   */\n      add\n        /* \"#utility.yul\":24437:24456   */\n      swap1\n      pop\n        /* \"#utility.yul\":24096:24462   */\n      swap2\n      swap1\n      pop\n      jump\t// out\n        /* \"#utility.yul\":24468:24887   */\n    tag_220:\n        /* \"#utility.yul\":24634:24638   */\n      0x00\n        /* \"#utility.yul\":24672:24674   */\n      0x20\n        /* \"#utility.yul\":24661:24670   */\n      dup3\n        /* \"#utility.yul\":24657:24675   */\n      add\n        /* \"#utility.yul\":24649:24675   */\n      swap1\n      pop\n        /* \"#utility.yul\":24721:24730   */\n      dup2\n        /* \"#utility.yul\":24715:24719   */\n      dup2\n        /* \"#utility.yul\":24711:24731   */\n      sub\n        /* \"#utility.yul\":24707:24708   */\n      0x00\n        /* \"#utility.yul\":24696:24705   */\n      dup4\n        /* \"#utility.yul\":24692:24709   */\n      add\n        /* \"#utility.yul\":24685:24732   */\n      mstore\n        /* \"#utility.yul\":24749:24880   */\n      tag_666\n        /* \"#utility.yul\":24875:24879   */\n      dup2\n        /* \"#utility.yul\":24749:24880   */\n      tag_437\n      jump\t// in\n    tag_666:\n        /* \"#utility.yul\":24741:24880   */\n      swap1\n      pop\n        /* \"#utility.yul\":24468:24887   */\n      swap2\n      swap1\n      pop\n      jump\t// out\n        /* \"#utility.yul\":24893:24986   */\n    tag_438:\n        /* \"#utility.yul\":24930:24936   */\n      0x00\n        /* \"#utility.yul\":24977:24979   */\n      0x20\n        /* \"#utility.yul\":24972:24974   */\n      0x1f\n        /* \"#utility.yul\":24965:24970   */\n      dup4\n        /* \"#utility.yul\":24961:24975   */\n      add\n        /* \"#utility.yul\":24957:24980   */\n      div\n        /* \"#utility.yul\":24947:24980   */\n      swap1\n      pop\n        /* \"#utility.yul\":24893:24986   */\n      swap2\n      swap1\n      pop\n      jump\t// out\n        /* \"#utility.yul\":24992:25099   */\n    tag_439:\n        /* \"#utility.yul\":25036:25044   */\n      0x00\n        /* \"#utility.yul\":25086:25091   */\n      dup3\n        /* \"#utility.yul\":25080:25084   */\n      dup3\n        /* \"#utility.yul\":25076:25092   */\n      shl\n        /* \"#utility.yul\":25055:25092   */\n      swap1\n      pop\n        /* \"#utility.yul\":24992:25099   */\n      swap3\n      swap2\n      pop\n      pop\n      jump\t// out\n        /* \"#utility.yul\":25105:25498   */\n    tag_440:\n        /* \"#utility.yul\":25174:25180   */\n      0x00\n        /* \"#utility.yul\":25224:25225   */\n      0x08\n        /* \"#utility.yul\":25212:25222   */\n      dup4\n        /* \"#utility.yul\":25208:25226   */\n      mul\n        /* \"#utility.yul\":25247:25344   */\n      tag_670\n        /* \"#utility.yul\":25277:25343   */\n      0xffffffffffffffffffffffffffffffffffffffffffffffffffffffffffffffff\n        /* \"#utility.yul\":25266:25275   */\n      dup3\n        /* \"#utility.yul\":25247:25344   */\n      tag_439\n      jump\t// in\n    tag_670:\n        /* \"#utility.yul\":25365:25404   */\n      tag_671\n        /* \"#utility.yul\":25395:25403   */\n      dup7\n        /* \"#utility.yul\":25384:25393   */\n      dup4\n        /* \"#utility.yul\":25365:25404   */\n      tag_439\n      jump\t// in\n    tag_671:\n        /* \"#utility.yul\":25353:25404   */\n      swap6\n      pop\n        /* \"#utility.yul\":25437:25441   */\n      dup1\n        /* \"#utility.yul\":25433:25442   */\n      not\n        /* \"#utility.yul\":25426:25431   */\n      dup5\n        /* \"#utility.yul\":25422:25443   */\n      and\n        /* \"#utility.yul\":25413:25443   */\n      swap4\n      pop\n        /* \"#utility.yul\":25486:25490   */\n      dup1\n        /* \"#utility.yul\":25476:25484   */\n      dup7\n        /* \"#utility.yul\":25472:25491   */\n      and\n        /* \"#utility.yul\":25465:25470   */\n      dup5\n        /* \"#utility.yul\":25462:25492   */\n      or\n        /* \"#utility.yul\":25452:25492   */\n      swap3\n      pop\n        /* \"#utility.yul\":25181:25498   */\n      pop\n      pop\n        /* \"#utility.yul\":25105:25498   */\n      swap4\n      swap3\n      pop\n      pop\n      pop\n      jump\t// out\n        /* \"#utility.yul\":25504:25564   */\n    tag_441:\n        /* \"#utility.yul\":25532:25535   */\n      0x00\n        /* \"#utility.yul\":25553:25558   */\n      dup2\n        /* \"#utility.yul\":25546:25558   */\n      swap1\n      pop\n        /* \"#utility.yul\":25504:25564   */\n      swap2\n      swap1\n      pop\n      jump\t// out\n        /* \"#utility.yul\":25570:25712   */\n    tag_442:\n        /* \"#utility.yul\":25620:25629   */\n      0x00\n        /* \"#utility.yul\":25653:25706   */\n      tag_674\n        /* \"#utility.yul\":25671:25705   */\n      tag_675\n        /* \"#utility.yul\":25680:25704   */\n      tag_676\n        /* \"#utility.yul\":25698:25703   */\n      dup5\n        /* \"#utility.yul\":25680:25704   */\n      tag_381\n      jump\t// in\n    tag_676:\n        /* \"#utility.yul\":25671:25705   */\n      tag_441\n      jump\t// in\n    tag_675:\n        /* \"#utility.yul\":25653:25706   */\n      tag_381\n      jump\t// in\n    tag_674:\n        /* \"#utility.yul\":25640:25706   */\n      swap1\n      pop\n        /* \"#utility.yul\":25570:25712   */\n      swap2\n      swap1\n      pop\n      jump\t// out\n        /* \"#utility.yul\":25718:25793   */\n    tag_443:\n        /* \"#utility.yul\":25761:25764   */\n      0x00\n        /* \"#utility.yul\":25782:25787   */\n      dup2\n        /* \"#utility.yul\":25775:25787   */\n      swap1\n      pop\n        /* \"#utility.yul\":25718:25793   */\n      swap2\n      swap1\n      pop\n      jump\t// out\n        /* \"#utility.yul\":25799:26068   */\n    tag_444:\n        /* \"#utility.yul\":25909:25948   */\n      tag_679\n        /* \"#utility.yul\":25940:25947   */\n      dup4\n        /* \"#utility.yul\":25909:25948   */\n      tag_442\n      jump\t// in\n    tag_679:\n        /* \"#utility.yul\":25970:26061   */\n      tag_680\n        /* \"#utility.yul\":26019:26060   */\n      tag_681\n        /* \"#utility.yul\":26043:26059   */\n      dup3\n        /* \"#utility.yul\":26019:26060   */\n      tag_443\n      jump\t// in\n    tag_681:\n        /* \"#utility.yul\":26011:26017   */\n      dup5\n        /* \"#utility.yul\":26004:26008   */\n      dup5\n        /* \"#utility.yul\":25998:26009   */\n      sload\n        /* \"#utility.yul\":25970:26061   */\n      tag_440\n      jump\t// in\n    tag_680:\n        /* \"#utility.yul\":25964:25968   */\n      dup3\n        /* \"#utility.yul\":25957:26062   */\n      sstore\n        /* \"#utility.yul\":25875:26068   */\n      pop\n        /* \"#utility.yul\":25799:26068   */\n      pop\n      pop\n      pop\n      jump\t// out\n        /* \"#utility.yul\":26074:26147   */\n    tag_445:\n        /* \"#utility.yul\":26119:26122   */\n      0x00\n        /* \"#utility.yul\":26074:26147   */\n      swap1\n      jump\t// out\n        /* \"#utility.yul\":26153:26342   */\n    tag_446:\n        /* \"#utility.yul\":26230:26262   */\n      tag_684\n      tag_445\n      jump\t// in\n    tag_684:\n        /* \"#utility.yul\":26271:26336   */\n      tag_685\n        /* \"#utility.yul\":26329:26335   */\n      dup2\n        /* \"#utility.yul\":26321:26327   */\n      dup5\n        /* \"#utility.yul\":26315:26319   */\n      dup5\n        /* \"#utility.yul\":26271:26336   */\n      tag_444\n      jump\t// in\n    tag_685:\n        /* \"#utility.yul\":26206:26342   */\n      pop\n        /* \"#utility.yul\":26153:26342   */\n      pop\n      pop\n      jump\t// out\n        /* \"#utility.yul\":26348:26534   */\n    tag_447:\n        /* \"#utility.yul\":26408:26528   */\n    tag_687:\n        /* \"#utility.yul\":26425:26428   */\n      dup2\n        /* \"#utility.yul\":26418:26423   */\n      dup2\n        /* \"#utility.yul\":26415:26429   */\n      lt\n        /* \"#utility.yul\":26408:26528   */\n      iszero\n      tag_689\n      jumpi\n        /* \"#utility.yul\":26479:26518   */\n      tag_690\n        /* \"#utility.yul\":26516:26517   */\n      0x00\n        /* \"#utility.yul\":26509:26514   */\n      dup3\n        /* \"#utility.yul\":26479:26518   */\n      tag_446\n      jump\t// in\n    tag_690:\n        /* \"#utility.yul\":26452:26453   */\n      0x01\n        /* \"#utility.yul\":26445:26450   */\n      dup2\n        /* \"#utility.yul\":26441:26454   */\n      add\n        /* \"#utility.yul\":26432:26454   */\n      swap1\n      pop\n        /* \"#utility.yul\":26408:26528   */\n      jump(tag_687)\n    tag_689:\n        /* \"#utility.yul\":26348:26534   */\n      pop\n      pop\n      jump\t// out\n        /* \"#utility.yul\":26540:27083   */\n    tag_448:\n        /* \"#utility.yul\":26641:26643   */\n      0x1f\n        /* \"#utility.yul\":26636:26639   */\n      dup3\n        /* \"#utility.yul\":26633:26644   */\n      gt\n        /* \"#utility.yul\":26630:27076   */\n      iszero\n      tag_692\n      jumpi\n        /* \"#utility.yul\":26675:26713   */\n      tag_693\n        /* \"#utility.yul\":26707:26712   */\n      dup2\n        /* \"#utility.yul\":26675:26713   */\n      tag_430\n      jump\t// in\n    tag_693:\n        /* \"#utility.yul\":26759:26788   */\n      tag_694\n        /* \"#utility.yul\":26777:26787   */\n      dup5\n        /* \"#utility.yul\":26759:26788   */\n      tag_438\n      jump\t// in\n    tag_694:\n        /* \"#utility.yul\":26749:26757   */\n      dup2\n        /* \"#utility.yul\":26745:26789   */\n      add\n        /* \"#utility.yul\":26942:26944   */\n      0x20\n        /* \"#utility.yul\":26930:26940   */\n      dup6\n        /* \"#utility.yul\":26927:26945   */\n      lt\n        /* \"#utility.yul\":26924:26973   */\n      iszero\n      tag_695\n      jumpi\n        /* \"#utility.yul\":26963:26971   */\n      dup2\n        /* \"#utility.yul\":26948:26971   */\n      swap1\n      pop\n        /* \"#utility.yul\":26924:26973   */\n    tag_695:\n        /* \"#utility.yul\":26986:27066   */\n      tag_696\n        /* \"#utility.yul\":27042:27064   */\n      tag_697\n        /* \"#utility.yul\":27060:27063   */\n      dup6\n        /* \"#utility.yul\":27042:27064   */\n      tag_438\n      jump\t// in\n    tag_697:\n        /* \"#utility.yul\":27032:27040   */\n      dup4\n        /* \"#utility.yul\":27028:27065   */\n      add\n        /* \"#utility.yul\":27015:27026   */\n      dup3\n        /* \"#utility.yul\":26986:27066   */\n      tag_447\n      jump\t// in\n    tag_696:\n        /* \"#utility.yul\":26645:27076   */\n      pop\n      pop\n        /* \"#utility.yul\":26630:27076   */\n    tag_692:\n        /* \"#utility.yul\":26540:27083   */\n      pop\n      pop\n      pop\n      jump\t// out\n        /* \"#utility.yul\":27089:27206   */\n    tag_449:\n        /* \"#utility.yul\":27143:27151   */\n      0x00\n        /* \"#utility.yul\":27193:27198   */\n      dup3\n        /* \"#utility.yul\":27187:27191   */\n      dup3\n        /* \"#utility.yul\":27183:27199   */\n      shr\n        /* \"#utility.yul\":27162:27199   */\n      swap1\n      pop\n        /* \"#utility.yul\":27089:27206   */\n      swap3\n      swap2\n      pop\n      pop\n      jump\t// out\n        /* \"#utility.yul\":27212:27381   */\n    tag_450:\n        /* \"#utility.yul\":27256:27262   */\n      0x00\n        /* \"#utility.yul\":27289:27340   */\n      tag_700\n        /* \"#utility.yul\":27337:27338   */\n      0x00\n        /* \"#utility.yul\":27333:27339   */\n      not\n        /* \"#utility.yul\":27325:27330   */\n      dup5\n        /* \"#utility.yul\":27322:27323   */\n      0x08\n        /* \"#utility.yul\":27318:27331   */\n      mul\n        /* \"#utility.yul\":27289:27340   */\n      tag_449\n      jump\t// in\n    tag_700:\n        /* \"#utility.yul\":27285:27341   */\n      not\n        /* \"#utility.yul\":27370:27374   */\n      dup1\n        /* \"#utility.yul\":27364:27368   */\n      dup4\n        /* \"#utility.yul\":27360:27375   */\n      and\n        /* \"#utility.yul\":27350:27375   */\n      swap2\n      pop\n        /* \"#utility.yul\":27263:27381   */\n      pop\n        /* \"#utility.yul\":27212:27381   */\n      swap3\n      swap2\n      pop\n      pop\n      jump\t// out\n        /* \"#utility.yul\":27386:27681   */\n    tag_451:\n        /* \"#utility.yul\":27462:27466   */\n      0x00\n        /* \"#utility.yul\":27608:27637   */\n      tag_702\n        /* \"#utility.yul\":27633:27636   */\n      dup4\n        /* \"#utility.yul\":27627:27631   */\n      dup4\n        /* \"#utility.yul\":27608:27637   */\n      tag_450\n      jump\t// in\n    tag_702:\n        /* \"#utility.yul\":27600:27637   */\n      swap2\n      pop\n        /* \"#utility.yul\":27670:27673   */\n      dup3\n        /* \"#utility.yul\":27667:27668   */\n      0x02\n        /* \"#utility.yul\":27663:27674   */\n      mul\n        /* \"#utility.yul\":27657:27661   */\n      dup3\n        /* \"#utility.yul\":27654:27675   */\n      or\n        /* \"#utility.yul\":27646:27675   */\n      swap1\n      pop\n        /* \"#utility.yul\":27386:27681   */\n      swap3\n      swap2\n      pop\n      pop\n      jump\t// out\n        /* \"#utility.yul\":27686:29081   */\n    tag_226:\n        /* \"#utility.yul\":27803:27840   */\n      tag_704\n        /* \"#utility.yul\":27836:27839   */\n      dup3\n        /* \"#utility.yul\":27803:27840   */\n      tag_384\n      jump\t// in\n    tag_704:\n        /* \"#utility.yul\":27905:27923   */\n      0xffffffffffffffff\n        /* \"#utility.yul\":27897:27903   */\n      dup2\n        /* \"#utility.yul\":27894:27924   */\n      gt\n        /* \"#utility.yul\":27891:27947   */\n      iszero\n      tag_705\n      jumpi\n        /* \"#utility.yul\":27927:27945   */\n      tag_706\n      tag_102\n      jump\t// in\n    tag_706:\n        /* \"#utility.yul\":27891:27947   */\n    tag_705:\n        /* \"#utility.yul\":27971:28009   */\n      tag_707\n        /* \"#utility.yul\":28003:28007   */\n      dup3\n        /* \"#utility.yul\":27997:28008   */\n      sload\n        /* \"#utility.yul\":27971:28009   */\n      tag_64\n      jump\t// in\n    tag_707:\n        /* \"#utility.yul\":28056:28123   */\n      tag_708\n        /* \"#utility.yul\":28116:28122   */\n      dup3\n        /* \"#utility.yul\":28108:28114   */\n      dup3\n        /* \"#utility.yul\":28102:28106   */\n      dup6\n        /* \"#utility.yul\":28056:28123   */\n      tag_448\n      jump\t// in\n    tag_708:\n        /* \"#utility.yul\":28150:28151   */\n      0x00\n        /* \"#utility.yul\":28174:28178   */\n      0x20\n        /* \"#utility.yul\":28161:28178   */\n      swap1\n      pop\n        /* \"#utility.yul\":28206:28208   */\n      0x1f\n        /* \"#utility.yul\":28198:28204   */\n      dup4\n        /* \"#utility.yul\":28195:28209   */\n      gt\n        /* \"#utility.yul\":28223:28224   */\n      0x01\n        /* \"#utility.yul\":28218:28836   */\n      dup2\n      eq\n      tag_710\n      jumpi\n        /* \"#utility.yul\":28880:28881   */\n      0x00\n        /* \"#utility.yul\":28897:28903   */\n      dup5\n        /* \"#utility.yul\":28894:28971   */\n      iszero\n      tag_711\n      jumpi\n        /* \"#utility.yul\":28946:28955   */\n      dup3\n        /* \"#utility.yul\":28941:28944   */\n      dup8\n        /* \"#utility.yul\":28937:28956   */\n      add\n        /* \"#utility.yul\":28931:28957   */\n      mload\n        /* \"#utility.yul\":28922:28957   */\n      swap1\n      pop\n        /* \"#utility.yul\":28894:28971   */\n    tag_711:\n        /* \"#utility.yul\":28997:29064   */\n      tag_712\n        /* \"#utility.yul\":29057:29063   */\n      dup6\n        /* \"#utility.yul\":29050:29055   */\n      dup3\n        /* \"#utility.yul\":28997:29064   */\n      tag_451\n      jump\t// in\n    tag_712:\n        /* \"#utility.yul\":28991:28995   */\n      dup7\n        /* \"#utility.yul\":28984:29065   */\n      sstore\n        /* \"#utility.yul\":28853:29075   */\n      pop\n        /* \"#utility.yul\":28188:29075   */\n      jump(tag_709)\n        /* \"#utility.yul\":28218:28836   */\n    tag_710:\n        /* \"#utility.yul\":28270:28274   */\n      0x1f\n        /* \"#utility.yul\":28266:28275   */\n      not\n        /* \"#utility.yul\":28258:28264   */\n      dup5\n        /* \"#utility.yul\":28254:28276   */\n      and\n        /* \"#utility.yul\":28304:28341   */\n      tag_713\n        /* \"#utility.yul\":28336:28340   */\n      dup7\n        /* \"#utility.yul\":28304:28341   */\n      tag_430\n      jump\t// in\n    tag_713:\n        /* \"#utility.yul\":28363:28364   */\n      0x00\n        /* \"#utility.yul\":28377:28585   */\n    tag_714:\n        /* \"#utility.yul\":28391:28398   */\n      dup3\n        /* \"#utility.yul\":28388:28389   */\n      dup2\n        /* \"#utility.yul\":28385:28399   */\n      lt\n        /* \"#utility.yul\":28377:28585   */\n      iszero\n      tag_716\n      jumpi\n        /* \"#utility.yul\":28470:28479   */\n      dup5\n        /* \"#utility.yul\":28465:28468   */\n      dup10\n        /* \"#utility.yul\":28461:28480   */\n      add\n        /* \"#utility.yul\":28455:28481   */\n      mload\n        /* \"#utility.yul\":28447:28453   */\n      dup3\n        /* \"#utility.yul\":28440:28482   */\n      sstore\n        /* \"#utility.yul\":28521:28522   */\n      0x01\n        /* \"#utility.yul\":28513:28519   */\n      dup3\n        /* \"#utility.yul\":28509:28523   */\n      add\n        /* \"#utility.yul\":28499:28523   */\n      swap2\n      pop\n        /* \"#utility.yul\":28568:28570   */\n      0x20\n        /* \"#utility.yul\":28557:28566   */\n      dup6\n        /* \"#utility.yul\":28553:28571   */\n      add\n        /* \"#utility.yul\":28540:28571   */\n      swap5\n      pop\n        /* \"#utility.yul\":28414:28418   */\n      0x20\n        /* \"#utility.yul\":28411:28412   */\n      dup2\n        /* \"#utility.yul\":28407:28419   */\n      add\n        /* \"#utility.yul\":28402:28419   */\n      swap1\n      pop\n        /* \"#utility.yul\":28377:28585   */\n      jump(tag_714)\n    tag_716:\n        /* \"#utility.yul\":28613:28619   */\n      dup7\n        /* \"#utility.yul\":28604:28611   */\n      dup4\n        /* \"#utility.yul\":28601:28620   */\n      lt\n        /* \"#utility.yul\":28598:28777   */\n      iszero\n      tag_717\n      jumpi\n        /* \"#utility.yul\":28671:28680   */\n      dup5\n        /* \"#utility.yul\":28666:28669   */\n      dup10\n        /* \"#utility.yul\":28662:28681   */\n      add\n        /* \"#utility.yul\":28656:28682   */\n      mload\n        /* \"#utility.yul\":28714:28762   */\n      tag_718\n        /* \"#utility.yul\":28756:28760   */\n      0x1f\n        /* \"#utility.yul\":28748:28754   */\n      dup10\n        /* \"#utility.yul\":28744:28761   */\n      and\n        /* \"#utility.yul\":28733:28742   */\n      dup3\n        /* \"#utility.yul\":28714:28762   */\n      tag_450\n      jump\t// in\n    tag_718:\n        /* \"#utility.yul\":28706:28712   */\n      dup4\n        /* \"#utility.yul\":28699:28763   */\n      sstore\n        /* \"#utility.yul\":28621:28777   */\n      pop\n        /* \"#utility.yul\":28598:28777   */\n    tag_717:\n        /* \"#utility.yul\":28823:28824   */\n      0x01\n        /* \"#utility.yul\":28819:28820   */\n      0x02\n        /* \"#utility.yul\":28811:28817   */\n      dup9\n        /* \"#utility.yul\":28807:28821   */\n      mul\n        /* \"#utility.yul\":28803:28825   */\n      add\n        /* \"#utility.yul\":28797:28801   */\n      dup9\n        /* \"#utility.yul\":28790:28826   */\n      sstore\n        /* \"#utility.yul\":28225:28836   */\n      pop\n      pop\n      pop\n        /* \"#utility.yul\":28188:29075   */\n    tag_709:\n      pop\n        /* \"#utility.yul\":27778:29081   */\n      pop\n      pop\n      pop\n        /* \"#utility.yul\":27686:29081   */\n      pop\n      pop\n      jump\t// out\n        /* \"#utility.yul\":29087:29267   */\n    tag_452:\n        /* \"#utility.yul\":29135:29212   */\n      0x4e487b7100000000000000000000000000000000000000000000000000000000\n        /* \"#utility.yul\":29132:29133   */\n      0x00\n        /* \"#utility.yul\":29125:29213   */\n      mstore\n        /* \"#utility.yul\":29232:29236   */\n      0x11\n        /* \"#utility.yul\":29229:29230   */\n      0x04\n        /* \"#utility.yul\":29222:29237   */\n      mstore\n        /* \"#utility.yul\":29256:29260   */\n      0x24\n        /* \"#utility.yul\":29253:29254   */\n      0x00\n        /* \"#utility.yul\":29246:29261   */\n      revert\n        /* \"#utility.yul\":29273:29464   */\n    tag_316:\n        /* \"#utility.yul\":29313:29316   */\n      0x00\n        /* \"#utility.yul\":29332:29352   */\n      tag_721\n        /* \"#utility.yul\":29350:29351   */\n      dup3\n        /* \"#utility.yul\":29332:29352   */\n      tag_381\n      jump\t// in\n    tag_721:\n        /* \"#utility.yul\":29327:29352   */\n      swap2\n      pop\n        /* \"#utility.yul\":29366:29386   */\n      tag_722\n        /* \"#utility.yul\":29384:29385   */\n      dup4\n        /* \"#utility.yul\":29366:29386   */\n      tag_381\n      jump\t// in\n    tag_722:\n        /* \"#utility.yul\":29361:29386   */\n      swap3\n      pop\n        /* \"#utility.yul\":29409:29410   */\n      dup3\n        /* \"#utility.yul\":29406:29407   */\n      dup3\n        /* \"#utility.yul\":29402:29411   */\n      add\n        /* \"#utility.yul\":29395:29411   */\n      swap1\n      pop\n        /* \"#utility.yul\":29430:29433   */\n      dup1\n        /* \"#utility.yul\":29427:29428   */\n      dup3\n        /* \"#utility.yul\":29424:29434   */\n      gt\n        /* \"#utility.yul\":29421:29457   */\n      iszero\n      tag_723\n      jumpi\n        /* \"#utility.yul\":29437:29455   */\n      tag_724\n      tag_452\n      jump\t// in\n    tag_724:\n        /* \"#utility.yul\":29421:29457   */\n    tag_723:\n        /* \"#utility.yul\":29273:29464   */\n      swap3\n      swap2\n      pop\n      pop\n      jump\t// out\n        /* \"#utility.yul\":29470:29650   */\n    tag_453:\n        /* \"#utility.yul\":29518:29595   */\n      0x4e487b7100000000000000000000000000000000000000000000000000000000\n        /* \"#utility.yul\":29515:29516   */\n      0x00\n        /* \"#utility.yul\":29508:29596   */\n      mstore\n        /* \"#utility.yul\":29615:29619   */\n      0x12\n        /* \"#utility.yul\":29612:29613   */\n      0x04\n        /* \"#utility.yul\":29605:29620   */\n      mstore\n        /* \"#utility.yul\":29639:29643   */\n      0x24\n        /* \"#utility.yul\":29636:29637   */\n      0x00\n        /* \"#utility.yul\":29629:29644   */\n      revert\n        /* \"#utility.yul\":29656:29841   */\n    tag_318:\n        /* \"#utility.yul\":29696:29697   */\n      0x00\n        /* \"#utility.yul\":29713:29733   */\n      tag_727\n        /* \"#utility.yul\":29731:29732   */\n      dup3\n        /* \"#utility.yul\":29713:29733   */\n      tag_381\n      jump\t// in\n    tag_727:\n        /* \"#utility.yul\":29708:29733   */\n      swap2\n      pop\n        /* \"#utility.yul\":29747:29767   */\n      tag_728\n        /* \"#utility.yul\":29765:29766   */\n      dup4\n        /* \"#utility.yul\":29747:29767   */\n      tag_381\n      jump\t// in\n    tag_728:\n        /* \"#utility.yul\":29742:29767   */\n      swap3\n      pop\n        /* \"#utility.yul\":29786:29787   */\n      dup3\n        /* \"#utility.yul\":29776:29811   */\n      tag_729\n      jumpi\n        /* \"#utility.yul\":29791:29809   */\n      tag_730\n      tag_453\n      jump\t// in\n    tag_730:\n        /* \"#utility.yul\":29776:29811   */\n    tag_729:\n        /* \"#utility.yul\":29833:29834   */\n      dup3\n        /* \"#utility.yul\":29830:29831   */\n      dup3\n        /* \"#utility.yul\":29826:29835   */\n      div\n        /* \"#utility.yul\":29821:29835   */\n      swap1\n      pop\n        /* \"#utility.yul\":29656:29841   */\n      swap3\n      swap2\n      pop\n      pop\n      jump\t// out\n        /* \"#utility.yul\":29847:30080   */\n    tag_351:\n        /* \"#utility.yul\":29886:29889   */\n      0x00\n        /* \"#utility.yul\":29909:29933   */\n      tag_732\n        /* \"#utility.yul\":29927:29932   */\n      dup3\n        /* \"#utility.yul\":29909:29933   */\n      tag_381\n      jump\t// in\n    tag_732:\n        /* \"#utility.yul\":29900:29933   */\n      swap2\n      pop\n        /* \"#utility.yul\":29955:30021   */\n      0xffffffffffffffffffffffffffffffffffffffffffffffffffffffffffffffff\n        /* \"#utility.yul\":29948:29953   */\n      dup3\n        /* \"#utility.yul\":29945:30022   */\n      sub\n        /* \"#utility.yul\":29942:30045   */\n      tag_733\n      jumpi\n        /* \"#utility.yul\":30025:30043   */\n      tag_734\n      tag_452\n      jump\t// in\n    tag_734:\n        /* \"#utility.yul\":29942:30045   */\n    tag_733:\n        /* \"#utility.yul\":30072:30073   */\n      0x01\n        /* \"#utility.yul\":30065:30070   */\n      dup3\n        /* \"#utility.yul\":30061:30074   */\n      add\n        /* \"#utility.yul\":30054:30074   */\n      swap1\n      pop\n        /* \"#utility.yul\":29847:30080   */\n      swap2\n      swap1\n      pop\n      jump\t// out\n\n    auxdata: 0xa2646970667358221220762f6494166dc6e3d0a807f950f3cb0df05b0dc7fd18719d0c3deb9b02f3fda164736f6c634300081a0033\n}\n",
				"bytecode": {
					"linkReferences": {},
					"object": "6080604052348015600e575f80fd5b506128798061001c5f395ff3fe608060405234801561000f575f80fd5b50600436106100a7575f3560e01c8063a13a1c131161006f578063a13a1c1314610168578063a4545c0d14610198578063d73ce6c1146101b4578063e9e30927146101e4578063ec08df3614610202578063f8c8dee814610220576100a7565b806306ead22e146100ab57806327f7c259146100de5780633a0202ab146100fc5780633c51cdca1461012c57806398463c741461014a575b5f80fd5b6100c560048036038101906100c09190611a26565b61023e565b6040516100d59493929190611ad0565b60405180910390f35b6100e6610384565b6040516100f39190611b3b565b60405180910390f35b61011660048036038101906101119190611c80565b6103a4565b6040516101239190611cc7565b60405180910390f35b610134610495565b6040516101419190611f2e565b60405180910390f35b610152610835565b60405161015f9190611f2e565b60405180910390f35b610182600480360381019061017d9190611a26565b610b7a565b60405161018f9190611fcf565b60405180910390f35b6101b260048036038101906101ad91906120d1565b610e33565b005b6101ce60048036038101906101c99190611c80565b610ef1565b6040516101db9190611fcf565b60405180910390f35b6101ec6111f4565b6040516101f99190611f2e565b60405180910390f35b61020a6114c3565b6040516102179190612215565b60405180910390f35b61022861157a565b6040516102359190611cc7565b60405180910390f35b5f818154811061024c575f80fd5b905f5260205f2090600502015f91509050805f01805461026b90612262565b80601f016020809104026020016040519081016040528092919081815260200182805461029790612262565b80156102e25780601f106102b9576101008083540402835291602001916102e2565b820191905f5260205f20905b8154815290600101906020018083116102c557829003601f168201915b50505050509080600101549080600201549080600301805461030390612262565b80601f016020809104026020016040519081016040528092919081815260200182805461032f90612262565b801561037a5780601f106103515761010080835404028352916020019161037a565b820191905f5260205f20905b81548152906001019060200180831161035d57829003601f168201915b5050505050905084565b5f604661038f61157a565b1061039d57600190506103a1565b5f90505b90565b5f805f90505f8054905081101561048e57826040516020016103c691906122cc565b604051602081830303815290604052805190602001205f82815481106103ef576103ee6122e2565b5b905f5260205f2090600502015f0160405160200161040d91906123a1565b6040516020818303038152906040528051906020012003610453575f818154811061043b5761043a6122e2565b5b905f5260205f20906005020160020154915050610490565b6040517f08c379a000000000000000000000000000000000000000000000000000000000815260040161048590612401565b60405180910390fd5b505b919050565b60605f60045f80549050106104ab5760046104b1565b5f805490505b90505f808054905067ffffffffffffffff8111156104d2576104d1611b5c565b5b60405190808252806020026020018201604052801561050b57816020015b6104f86118e3565b8152602001906001900390816104f05790505b5090505f5b5f80549050811015610778575f818154811061052f5761052e6122e2565b5b905f5260205f2090600502016040518060a00160405290815f8201805461055590612262565b80601f016020809104026020016040519081016040528092919081815260200182805461058190612262565b80156105cc5780601f106105a3576101008083540402835291602001916105cc565b820191905f5260205f20905b8154815290600101906020018083116105af57829003601f168201915b5050505050815260200160018201548152602001600282015481526020016003820180546105f990612262565b80601f016020809104026020016040519081016040528092919081815260200182805461062590612262565b80156106705780601f1061064757610100808354040283529160200191610670565b820191905f5260205f20905b81548152906001019060200180831161065357829003601f168201915b5050505050815260200160048201805480602002602001604051908101604052809291908181526020015f905b82821015610745578382905f5260205f200180546106ba90612262565b80601f01602080910402602001604051908101604052809291908181526020018280546106e690612262565b80156107315780601f1061070857610100808354040283529160200191610731565b820191905f5260205f20905b81548152906001019060200180831161071457829003601f168201915b50505050508152602001906001019061069d565b50505050815250508282815181106107605761075f6122e2565b5b60200260200101819052508080600101915050610510565b50610782816115de565b90505f8267ffffffffffffffff81111561079f5761079e611b5c565b5b6040519080825280602002602001820160405280156107d857816020015b6107c56118e3565b8152602001906001900390816107bd5790505b5090505f5b8381101561082b578281815181106107f8576107f76122e2565b5b6020026020010151828281518110610813576108126122e2565b5b602002602001018190525080806001019150506107dd565b5080935050505090565b60605f6108406116e9565b67ffffffffffffffff81111561085957610858611b5c565b5b60405190808252806020026020018201604052801561089257816020015b61087f6118e3565b8152602001906001900390816108775790505b5090505f5b5f80549050811015610b72576040516020016108b290612469565b604051602081830303815290604052805190602001205f82815481106108db576108da6122e2565b5b905f5260205f2090600502016003016040516020016108fa91906123a1565b6040516020818303038152906040528051906020012003610b65575f8181548110610928576109276122e2565b5b905f5260205f2090600502016040518060a00160405290815f8201805461094e90612262565b80601f016020809104026020016040519081016040528092919081815260200182805461097a90612262565b80156109c55780601f1061099c576101008083540402835291602001916109c5565b820191905f5260205f20905b8154815290600101906020018083116109a857829003601f168201915b5050505050815260200160018201548152602001600282015481526020016003820180546109f290612262565b80601f0160208091040260200160405190810160405280929190818152602001828054610a1e90612262565b8015610a695780601f10610a4057610100808354040283529160200191610a69565b820191905f5260205f20905b815481529060010190602001808311610a4c57829003601f168201915b5050505050815260200160048201805480602002602001604051908101604052809291908181526020015f905b82821015610b3e578382905f5260205f20018054610ab390612262565b80601f0160208091040260200160405190810160405280929190818152602001828054610adf90612262565b8015610b2a5780601f10610b0157610100808354040283529160200191610b2a565b820191905f5260205f20905b815481529060010190602001808311610b0d57829003601f168201915b505050505081526020019060010190610a96565b5050505081525050828281518110610b5957610b586122e2565b5b60200260200101819052505b8080600101915050610897565b508091505090565b610b826118e3565b5f8080549050811015610e2c57825f8281548110610ba357610ba26122e2565b5b905f5260205f2090600502016001015403610df1575f8181548110610bcb57610bca6122e2565b5b905f5260205f2090600502016040518060a00160405290815f82018054610bf190612262565b80601f0160208091040260200160405190810160405280929190818152602001828054610c1d90612262565b8015610c685780601f10610c3f57610100808354040283529160200191610c68565b820191905f5260205f20905b815481529060010190602001808311610c4b57829003601f168201915b505050505081526020016001820154815260200160028201548152602001600382018054610c9590612262565b80601f0160208091040260200160405190810160405280929190818152602001828054610cc190612262565b8015610d0c5780601f10610ce357610100808354040283529160200191610d0c565b820191905f5260205f20905b815481529060010190602001808311610cef57829003601f168201915b5050505050815260200160048201805480602002602001604051908101604052809291908181526020015f905b82821015610de1578382905f5260205f20018054610d5690612262565b80601f0160208091040260200160405190810160405280929190818152602001828054610d8290612262565b8015610dcd5780601f10610da457610100808354040283529160200191610dcd565b820191905f5260205f20905b815481529060010190602001808311610db057829003601f168201915b505050505081526020019060010190610d39565b5050505081525050915050610e2e565b6040517f08c379a0000000000000000000000000000000000000000000000000000000008152600401610e23906124c7565b60405180910390fd5b505b919050565b5f610e3d8361178f565b90505f6040518060a0016040528087815260200186815260200185815260200183815260200184815250908060018154018082558091505060019003905f5260205f2090600502015f909190919091505f820151815f019081610ea09190612670565b5060208201518160010155604082015181600201556060820151816003019081610eca9190612670565b506080820151816004019080519060200190610ee7929190611910565b5050505050505050565b610ef96118e3565b5f80805490508110156111ed5782604051602001610f1791906122cc565b604051602081830303815290604052805190602001205f8281548110610f4057610f3f6122e2565b5b905f5260205f2090600502015f01604051602001610f5e91906123a1565b60405160208183030381529060405280519060200120036111b2575f8181548110610f8c57610f8b6122e2565b5b905f5260205f2090600502016040518060a00160405290815f82018054610fb290612262565b80601f0160208091040260200160405190810160405280929190818152602001828054610fde90612262565b80156110295780601f1061100057610100808354040283529160200191611029565b820191905f5260205f20905b81548152906001019060200180831161100c57829003601f168201915b50505050508152602001600182015481526020016002820154815260200160038201805461105690612262565b80601f016020809104026020016040519081016040528092919081815260200182805461108290612262565b80156110cd5780601f106110a4576101008083540402835291602001916110cd565b820191905f5260205f20905b8154815290600101906020018083116110b057829003601f168201915b5050505050815260200160048201805480602002602001604051908101604052809291908181526020015f905b828210156111a2578382905f5260205f2001805461111790612262565b80601f016020809104026020016040519081016040528092919081815260200182805461114390612262565b801561118e5780601f106111655761010080835404028352916020019161118e565b820191905f5260205f20905b81548152906001019060200180831161117157829003601f168201915b5050505050815260200190600101906110fa565b50505050815250509150506111ef565b6040517f08c379a00000000000000000000000000000000000000000000000000000000081526004016111e490612401565b60405180910390fd5b505b919050565b60605f808054905067ffffffffffffffff81111561121557611214611b5c565b5b60405190808252806020026020018201604052801561124e57816020015b61123b6118e3565b8152602001906001900390816112335790505b5090505f5b5f805490508110156114bb575f8181548110611272576112716122e2565b5b905f5260205f2090600502016040518060a00160405290815f8201805461129890612262565b80601f01602080910402602001604051908101604052809291908181526020018280546112c490612262565b801561130f5780601f106112e65761010080835404028352916020019161130f565b820191905f5260205f20905b8154815290600101906020018083116112f257829003601f168201915b50505050508152602001600182015481526020016002820154815260200160038201805461133c90612262565b80601f016020809104026020016040519081016040528092919081815260200182805461136890612262565b80156113b35780601f1061138a576101008083540402835291602001916113b3565b820191905f5260205f20905b81548152906001019060200180831161139657829003601f168201915b5050505050815260200160048201805480602002602001604051908101604052809291908181526020015f905b82821015611488578382905f5260205f200180546113fd90612262565b80601f016020809104026020016040519081016040528092919081815260200182805461142990612262565b80156114745780601f1061144b57610100808354040283529160200191611474565b820191905f5260205f20905b81548152906001019060200180831161145757829003601f168201915b5050505050815260200190600101906113e0565b50505050815250508282815181106114a3576114a26122e2565b5b60200260200101819052508080600101915050611253565b508091505090565b60605f808054905067ffffffffffffffff8111156114e4576114e3611b5c565b5b6040519080825280602002602001820160405280156115125781602001602082028036833780820191505090505b5090505f5b5f80549050811015611572575f8181548110611536576115356122e2565b5b905f5260205f20906005020160010154828281518110611559576115586122e2565b5b6020026020010181815250508080600101915050611517565b508091505090565b5f805f5b5f805490508110156115c7575f818154811061159d5761159c6122e2565b5b905f5260205f20906005020160020154826115b8919061276c565b9150808060010191505061157e565b505f80549050816115d891906127cc565b91505090565b60605f825190505f5b818110156116df575f6001826115fd919061276c565b90505b828110156116d15784818151811061161b5761161a6122e2565b5b60200260200101516040015185838151811061163a576116396122e2565b5b60200260200101516040015110156116c4575f8583815181106116605761165f6122e2565b5b6020026020010151905085828151811061167d5761167c6122e2565b5b6020026020010151868481518110611698576116976122e2565b5b6020026020010181905250808683815181106116b7576116b66122e2565b5b6020026020010181905250505b8080600101915050611600565b5080806001019150506115e7565b5082915050919050565b5f805f5b5f805490508110156117875760405160200161170890612469565b604051602081830303815290604052805190602001205f8281548110611731576117306122e2565b5b905f5260205f20906005020160030160405160200161175091906123a1565b604051602081830303815290604052805190602001200361177a578180611776906127fc565b9250505b80806001019150506116ed565b508091505090565b6060605a82106117d6576040518060400160405280600181526020017f410000000000000000000000000000000000000000000000000000000000000081525090506118de565b6050821061181b576040518060400160405280600181526020017f420000000000000000000000000000000000000000000000000000000000000081525090506118de565b60468210611860576040518060400160405280600181526020017f430000000000000000000000000000000000000000000000000000000000000081525090506118de565b603c82106118a5576040518060400160405280600181526020017f440000000000000000000000000000000000000000000000000000000000000081525090506118de565b6040518060400160405280600181526020017f460000000000000000000000000000000000000000000000000000000000000081525090505b919050565b6040518060a00160405280606081526020015f81526020015f815260200160608152602001606081525090565b828054828255905f5260205f20908101928215611956579160200282015b828111156119555782518290816119459190612670565b509160200191906001019061192e565b5b5090506119639190611967565b5090565b5b80821115611986575f818161197d919061198a565b50600101611968565b5090565b50805461199690612262565b5f825580601f106119a757506119c4565b601f0160209004905f5260205f20908101906119c391906119c7565b5b50565b5b808211156119de575f815f9055506001016119c8565b5090565b5f604051905090565b5f80fd5b5f80fd5b5f819050919050565b611a05816119f3565b8114611a0f575f80fd5b50565b5f81359050611a20816119fc565b92915050565b5f60208284031215611a3b57611a3a6119eb565b5b5f611a4884828501611a12565b91505092915050565b5f81519050919050565b5f82825260208201905092915050565b8281835e5f83830152505050565b5f601f19601f8301169050919050565b5f611a9382611a51565b611a9d8185611a5b565b9350611aad818560208601611a6b565b611ab681611a79565b840191505092915050565b611aca816119f3565b82525050565b5f6080820190508181035f830152611ae88187611a89565b9050611af76020830186611ac1565b611b046040830185611ac1565b8181036060830152611b168184611a89565b905095945050505050565b5f8115159050919050565b611b3581611b21565b82525050565b5f602082019050611b4e5f830184611b2c565b92915050565b5f80fd5b5f80fd5b7f4e487b71000000000000000000000000000000000000000000000000000000005f52604160045260245ffd5b611b9282611a79565b810181811067ffffffffffffffff82111715611bb157611bb0611b5c565b5b80604052505050565b5f611bc36119e2565b9050611bcf8282611b89565b919050565b5f67ffffffffffffffff821115611bee57611bed611b5c565b5b611bf782611a79565b9050602081019050919050565b828183375f83830152505050565b5f611c24611c1f84611bd4565b611bba565b905082815260208101848484011115611c4057611c3f611b58565b5b611c4b848285611c04565b509392505050565b5f82601f830112611c6757611c66611b54565b5b8135611c77848260208601611c12565b91505092915050565b5f60208284031215611c9557611c946119eb565b5b5f82013567ffffffffffffffff811115611cb257611cb16119ef565b5b611cbe84828501611c53565b91505092915050565b5f602082019050611cda5f830184611ac1565b92915050565b5f81519050919050565b5f82825260208201905092915050565b5f819050602082019050919050565b5f82825260208201905092915050565b5f611d2382611a51565b611d2d8185611d09565b9350611d3d818560208601611a6b565b611d4681611a79565b840191505092915050565b611d5a816119f3565b82525050565b5f81519050919050565b5f82825260208201905092915050565b5f819050602082019050919050565b5f611d948383611d19565b905092915050565b5f602082019050919050565b5f611db282611d60565b611dbc8185611d6a565b935083602082028501611dce85611d7a565b805f5b85811015611e095784840389528151611dea8582611d89565b9450611df583611d9c565b925060208a01995050600181019050611dd1565b50829750879550505050505092915050565b5f60a083015f8301518482035f860152611e358282611d19565b9150506020830151611e4a6020860182611d51565b506040830151611e5d6040860182611d51565b5060608301518482036060860152611e758282611d19565b91505060808301518482036080860152611e8f8282611da8565b9150508091505092915050565b5f611ea78383611e1b565b905092915050565b5f602082019050919050565b5f611ec582611ce0565b611ecf8185611cea565b935083602082028501611ee185611cfa565b805f5b85811015611f1c5784840389528151611efd8582611e9c565b9450611f0883611eaf565b925060208a01995050600181019050611ee4565b50829750879550505050505092915050565b5f6020820190508181035f830152611f468184611ebb565b905092915050565b5f60a083015f8301518482035f860152611f688282611d19565b9150506020830151611f7d6020860182611d51565b506040830151611f906040860182611d51565b5060608301518482036060860152611fa88282611d19565b91505060808301518482036080860152611fc28282611da8565b9150508091505092915050565b5f6020820190508181035f830152611fe78184611f4e565b905092915050565b5f67ffffffffffffffff82111561200957612008611b5c565b5b602082029050602081019050919050565b5f80fd5b5f61203061202b84611fef565b611bba565b905080838252602082019050602084028301858111156120535761205261201a565b5b835b8181101561209a57803567ffffffffffffffff81111561207857612077611b54565b5b8086016120858982611c53565b85526020850194505050602081019050612055565b5050509392505050565b5f82601f8301126120b8576120b7611b54565b5b81356120c884826020860161201e565b91505092915050565b5f805f80608085870312156120e9576120e86119eb565b5b5f85013567ffffffffffffffff811115612106576121056119ef565b5b61211287828801611c53565b945050602061212387828801611a12565b935050604061213487828801611a12565b925050606085013567ffffffffffffffff811115612155576121546119ef565b5b612161878288016120a4565b91505092959194509250565b5f81519050919050565b5f82825260208201905092915050565b5f819050602082019050919050565b5f6121a18383611d51565b60208301905092915050565b5f602082019050919050565b5f6121c38261216d565b6121cd8185612177565b93506121d883612187565b805f5b838110156122085781516121ef8882612196565b97506121fa836121ad565b9250506001810190506121db565b5085935050505092915050565b5f6020820190508181035f83015261222d81846121b9565b905092915050565b7f4e487b71000000000000000000000000000000000000000000000000000000005f52602260045260245ffd5b5f600282049050600182168061227957607f821691505b60208210810361228c5761228b612235565b5b50919050565b5f81905092915050565b5f6122a682611a51565b6122b08185612292565b93506122c0818560208601611a6b565b80840191505092915050565b5f6122d7828461229c565b915081905092915050565b7f4e487b71000000000000000000000000000000000000000000000000000000005f52603260045260245ffd5b5f819050815f5260205f209050919050565b5f815461232d81612262565b6123378186612292565b9450600182165f8114612351576001811461236657612398565b60ff1983168652811515820286019350612398565b61236f8561230f565b5f5b8381101561239057815481890152600182019150602081019050612371565b838801955050505b50505092915050565b5f6123ac8284612321565b915081905092915050565b7f4e6f2073747564656e7420776974682074686520676976656e206e616d6500005f82015250565b5f6123eb601e83611a5b565b91506123f6826123b7565b602082019050919050565b5f6020820190508181035f830152612418816123df565b9050919050565b7f46000000000000000000000000000000000000000000000000000000000000005f82015250565b5f612453600183612292565b915061245e8261241f565b600182019050919050565b5f61247382612447565b9150819050919050565b7f4e6f2073747564656e7420776974682074686520676976656e206e756d6265725f82015250565b5f6124b1602083611a5b565b91506124bc8261247d565b602082019050919050565b5f6020820190508181035f8301526124de816124a5565b9050919050565b5f6020601f8301049050919050565b5f82821b905092915050565b5f6008830261252f7fffffffffffffffffffffffffffffffffffffffffffffffffffffffffffffffff826124f4565b61253986836124f4565b95508019841693508086168417925050509392505050565b5f819050919050565b5f61257461256f61256a846119f3565b612551565b6119f3565b9050919050565b5f819050919050565b61258d8361255a565b6125a16125998261257b565b848454612500565b825550505050565b5f90565b6125b56125a9565b6125c0818484612584565b505050565b5b818110156125e3576125d85f826125ad565b6001810190506125c6565b5050565b601f821115612628576125f98161230f565b612602846124e5565b81016020851015612611578190505b61262561261d856124e5565b8301826125c5565b50505b505050565b5f82821c905092915050565b5f6126485f198460080261262d565b1980831691505092915050565b5f6126608383612639565b9150826002028217905092915050565b61267982611a51565b67ffffffffffffffff81111561269257612691611b5c565b5b61269c8254612262565b6126a78282856125e7565b5f60209050601f8311600181146126d8575f84156126c6578287015190505b6126d08582612655565b865550612737565b601f1984166126e68661230f565b5f5b8281101561270d578489015182556001820191506020850194506020810190506126e8565b8683101561272a5784890151612726601f891682612639565b8355505b6001600288020188555050505b505050505050565b7f4e487b71000000000000000000000000000000000000000000000000000000005f52601160045260245ffd5b5f612776826119f3565b9150612781836119f3565b92508282019050808211156127995761279861273f565b5b92915050565b7f4e487b71000000000000000000000000000000000000000000000000000000005f52601260045260245ffd5b5f6127d6826119f3565b91506127e1836119f3565b9250826127f1576127f061279f565b5b828204905092915050565b5f612806826119f3565b91507fffffffffffffffffffffffffffffffffffffffffffffffffffffffffffffffff82036128385761283761273f565b5b60018201905091905056fea2646970667358221220762f6494166dc6e3d0a807f950f3cb0df05b0dc7fd18719d0c3deb9b02f3fda164736f6c634300081a0033",
					"opcodes": "PUSH1 0x80 PUSH1 0x40 MSTORE CALLVALUE DUP1 ISZERO PUSH1 0xE JUMPI PUSH0 DUP1 REVERT JUMPDEST POP PUSH2 0x2879 DUP1 PUSH2 0x1C PUSH0 CODECOPY PUSH0 RETURN INVALID PUSH1 0x80 PUSH1 0x40 MSTORE CALLVALUE DUP1 ISZERO PUSH2 0xF JUMPI PUSH0 DUP1 REVERT JUMPDEST POP PUSH1 0x4 CALLDATASIZE LT PUSH2 0xA7 JUMPI PUSH0 CALLDATALOAD PUSH1 0xE0 SHR DUP1 PUSH4 0xA13A1C13 GT PUSH2 0x6F JUMPI DUP1 PUSH4 0xA13A1C13 EQ PUSH2 0x168 JUMPI DUP1 PUSH4 0xA4545C0D EQ PUSH2 0x198 JUMPI DUP1 PUSH4 0xD73CE6C1 EQ PUSH2 0x1B4 JUMPI DUP1 PUSH4 0xE9E30927 EQ PUSH2 0x1E4 JUMPI DUP1 PUSH4 0xEC08DF36 EQ PUSH2 0x202 JUMPI DUP1 PUSH4 0xF8C8DEE8 EQ PUSH2 0x220 JUMPI PUSH2 0xA7 JUMP JUMPDEST DUP1 PUSH4 0x6EAD22E EQ PUSH2 0xAB JUMPI DUP1 PUSH4 0x27F7C259 EQ PUSH2 0xDE JUMPI DUP1 PUSH4 0x3A0202AB EQ PUSH2 0xFC JUMPI DUP1 PUSH4 0x3C51CDCA EQ PUSH2 0x12C JUMPI DUP1 PUSH4 0x98463C74 EQ PUSH2 0x14A JUMPI JUMPDEST PUSH0 DUP1 REVERT JUMPDEST PUSH2 0xC5 PUSH1 0x4 DUP1 CALLDATASIZE SUB DUP2 ADD SWAP1 PUSH2 0xC0 SWAP2 SWAP1 PUSH2 0x1A26 JUMP JUMPDEST PUSH2 0x23E JUMP JUMPDEST PUSH1 0x40 MLOAD PUSH2 0xD5 SWAP5 SWAP4 SWAP3 SWAP2 SWAP1 PUSH2 0x1AD0 JUMP JUMPDEST PUSH1 0x40 MLOAD DUP1 SWAP2 SUB SWAP1 RETURN JUMPDEST PUSH2 0xE6 PUSH2 0x384 JUMP JUMPDEST PUSH1 0x40 MLOAD PUSH2 0xF3 SWAP2 SWAP1 PUSH2 0x1B3B JUMP JUMPDEST PUSH1 0x40 MLOAD DUP1 SWAP2 SUB SWAP1 RETURN JUMPDEST PUSH2 0x116 PUSH1 0x4 DUP1 CALLDATASIZE SUB DUP2 ADD SWAP1 PUSH2 0x111 SWAP2 SWAP1 PUSH2 0x1C80 JUMP JUMPDEST PUSH2 0x3A4 JUMP JUMPDEST PUSH1 0x40 MLOAD PUSH2 0x123 SWAP2 SWAP1 PUSH2 0x1CC7 JUMP JUMPDEST PUSH1 0x40 MLOAD DUP1 SWAP2 SUB SWAP1 RETURN JUMPDEST PUSH2 0x134 PUSH2 0x495 JUMP JUMPDEST PUSH1 0x40 MLOAD PUSH2 0x141 SWAP2 SWAP1 PUSH2 0x1F2E JUMP JUMPDEST PUSH1 0x40 MLOAD DUP1 SWAP2 SUB SWAP1 RETURN JUMPDEST PUSH2 0x152 PUSH2 0x835 JUMP JUMPDEST PUSH1 0x40 MLOAD PUSH2 0x15F SWAP2 SWAP1 PUSH2 0x1F2E JUMP JUMPDEST PUSH1 0x40 MLOAD DUP1 SWAP2 SUB SWAP1 RETURN JUMPDEST PUSH2 0x182 PUSH1 0x4 DUP1 CALLDATASIZE SUB DUP2 ADD SWAP1 PUSH2 0x17D SWAP2 SWAP1 PUSH2 0x1A26 JUMP JUMPDEST PUSH2 0xB7A JUMP JUMPDEST PUSH1 0x40 MLOAD PUSH2 0x18F SWAP2 SWAP1 PUSH2 0x1FCF JUMP JUMPDEST PUSH1 0x40 MLOAD DUP1 SWAP2 SUB SWAP1 RETURN JUMPDEST PUSH2 0x1B2 PUSH1 0x4 DUP1 CALLDATASIZE SUB DUP2 ADD SWAP1 PUSH2 0x1AD SWAP2 SWAP1 PUSH2 0x20D1 JUMP JUMPDEST PUSH2 0xE33 JUMP JUMPDEST STOP JUMPDEST PUSH2 0x1CE PUSH1 0x4 DUP1 CALLDATASIZE SUB DUP2 ADD SWAP1 PUSH2 0x1C9 SWAP2 SWAP1 PUSH2 0x1C80 JUMP JUMPDEST PUSH2 0xEF1 JUMP JUMPDEST PUSH1 0x40 MLOAD PUSH2 0x1DB SWAP2 SWAP1 PUSH2 0x1FCF JUMP JUMPDEST PUSH1 0x40 MLOAD DUP1 SWAP2 SUB SWAP1 RETURN JUMPDEST PUSH2 0x1EC PUSH2 0x11F4 JUMP JUMPDEST PUSH1 0x40 MLOAD PUSH2 0x1F9 SWAP2 SWAP1 PUSH2 0x1F2E JUMP JUMPDEST PUSH1 0x40 MLOAD DUP1 SWAP2 SUB SWAP1 RETURN JUMPDEST PUSH2 0x20A PUSH2 0x14C3 JUMP JUMPDEST PUSH1 0x40 MLOAD PUSH2 0x217 SWAP2 SWAP1 PUSH2 0x2215 JUMP JUMPDEST PUSH1 0x40 MLOAD DUP1 SWAP2 SUB SWAP1 RETURN JUMPDEST PUSH2 0x228 PUSH2 0x157A JUMP JUMPDEST PUSH1 0x40 MLOAD PUSH2 0x235 SWAP2 SWAP1 PUSH2 0x1CC7 JUMP JUMPDEST PUSH1 0x40 MLOAD DUP1 SWAP2 SUB SWAP1 RETURN JUMPDEST PUSH0 DUP2 DUP2 SLOAD DUP2 LT PUSH2 0x24C JUMPI PUSH0 DUP1 REVERT JUMPDEST SWAP1 PUSH0 MSTORE PUSH1 0x20 PUSH0 KECCAK256 SWAP1 PUSH1 0x5 MUL ADD PUSH0 SWAP2 POP SWAP1 POP DUP1 PUSH0 ADD DUP1 SLOAD PUSH2 0x26B SWAP1 PUSH2 0x2262 JUMP JUMPDEST DUP1 PUSH1 0x1F ADD PUSH1 0x20 DUP1 SWAP2 DIV MUL PUSH1 0x20 ADD PUSH1 0x40 MLOAD SWAP1 DUP2 ADD PUSH1 0x40 MSTORE DUP1 SWAP3 SWAP2 SWAP1 DUP2 DUP2 MSTORE PUSH1 0x20 ADD DUP3 DUP1 SLOAD PUSH2 0x297 SWAP1 PUSH2 0x2262 JUMP JUMPDEST DUP1 ISZERO PUSH2 0x2E2 JUMPI DUP1 PUSH1 0x1F LT PUSH2 0x2B9 JUMPI PUSH2 0x100 DUP1 DUP4 SLOAD DIV MUL DUP4 MSTORE SWAP2 PUSH1 0x20 ADD SWAP2 PUSH2 0x2E2 JUMP JUMPDEST DUP3 ADD SWAP2 SWAP1 PUSH0 MSTORE PUSH1 0x20 PUSH0 KECCAK256 SWAP1 JUMPDEST DUP2 SLOAD DUP2 MSTORE SWAP1 PUSH1 0x1 ADD SWAP1 PUSH1 0x20 ADD DUP1 DUP4 GT PUSH2 0x2C5 JUMPI DUP3 SWAP1 SUB PUSH1 0x1F AND DUP3 ADD SWAP2 JUMPDEST POP POP POP POP POP SWAP1 DUP1 PUSH1 0x1 ADD SLOAD SWAP1 DUP1 PUSH1 0x2 ADD SLOAD SWAP1 DUP1 PUSH1 0x3 ADD DUP1 SLOAD PUSH2 0x303 SWAP1 PUSH2 0x2262 JUMP JUMPDEST DUP1 PUSH1 0x1F ADD PUSH1 0x20 DUP1 SWAP2 DIV MUL PUSH1 0x20 ADD PUSH1 0x40 MLOAD SWAP1 DUP2 ADD PUSH1 0x40 MSTORE DUP1 SWAP3 SWAP2 SWAP1 DUP2 DUP2 MSTORE PUSH1 0x20 ADD DUP3 DUP1 SLOAD PUSH2 0x32F SWAP1 PUSH2 0x2262 JUMP JUMPDEST DUP1 ISZERO PUSH2 0x37A JUMPI DUP1 PUSH1 0x1F LT PUSH2 0x351 JUMPI PUSH2 0x100 DUP1 DUP4 SLOAD DIV MUL DUP4 MSTORE SWAP2 PUSH1 0x20 ADD SWAP2 PUSH2 0x37A JUMP JUMPDEST DUP3 ADD SWAP2 SWAP1 PUSH0 MSTORE PUSH1 0x20 PUSH0 KECCAK256 SWAP1 JUMPDEST DUP2 SLOAD DUP2 MSTORE SWAP1 PUSH1 0x1 ADD SWAP1 PUSH1 0x20 ADD DUP1 DUP4 GT PUSH2 0x35D JUMPI DUP3 SWAP1 SUB PUSH1 0x1F AND DUP3 ADD SWAP2 JUMPDEST POP POP POP POP POP SWAP1 POP DUP5 JUMP JUMPDEST PUSH0 PUSH1 0x46 PUSH2 0x38F PUSH2 0x157A JUMP JUMPDEST LT PUSH2 0x39D JUMPI PUSH1 0x1 SWAP1 POP PUSH2 0x3A1 JUMP JUMPDEST PUSH0 SWAP1 POP JUMPDEST SWAP1 JUMP JUMPDEST PUSH0 DUP1 PUSH0 SWAP1 POP PUSH0 DUP1 SLOAD SWAP1 POP DUP2 LT ISZERO PUSH2 0x48E JUMPI DUP3 PUSH1 0x40 MLOAD PUSH1 0x20 ADD PUSH2 0x3C6 SWAP2 SWAP1 PUSH2 0x22CC JUMP JUMPDEST PUSH1 0x40 MLOAD PUSH1 0x20 DUP2 DUP4 SUB SUB DUP2 MSTORE SWAP1 PUSH1 0x40 MSTORE DUP1 MLOAD SWAP1 PUSH1 0x20 ADD KECCAK256 PUSH0 DUP3 DUP2 SLOAD DUP2 LT PUSH2 0x3EF JUMPI PUSH2 0x3EE PUSH2 0x22E2 JUMP JUMPDEST JUMPDEST SWAP1 PUSH0 MSTORE PUSH1 0x20 PUSH0 KECCAK256 SWAP1 PUSH1 0x5 MUL ADD PUSH0 ADD PUSH1 0x40 MLOAD PUSH1 0x20 ADD PUSH2 0x40D SWAP2 SWAP1 PUSH2 0x23A1 JUMP JUMPDEST PUSH1 0x40 MLOAD PUSH1 0x20 DUP2 DUP4 SUB SUB DUP2 MSTORE SWAP1 PUSH1 0x40 MSTORE DUP1 MLOAD SWAP1 PUSH1 0x20 ADD KECCAK256 SUB PUSH2 0x453 JUMPI PUSH0 DUP2 DUP2 SLOAD DUP2 LT PUSH2 0x43B JUMPI PUSH2 0x43A PUSH2 0x22E2 JUMP JUMPDEST JUMPDEST SWAP1 PUSH0 MSTORE PUSH1 0x20 PUSH0 KECCAK256 SWAP1 PUSH1 0x5 MUL ADD PUSH1 0x2 ADD SLOAD SWAP2 POP POP PUSH2 0x490 JUMP JUMPDEST PUSH1 0x40 MLOAD PUSH32 0x8C379A000000000000000000000000000000000000000000000000000000000 DUP2 MSTORE PUSH1 0x4 ADD PUSH2 0x485 SWAP1 PUSH2 0x2401 JUMP JUMPDEST PUSH1 0x40 MLOAD DUP1 SWAP2 SUB SWAP1 REVERT JUMPDEST POP JUMPDEST SWAP2 SWAP1 POP JUMP JUMPDEST PUSH1 0x60 PUSH0 PUSH1 0x4 PUSH0 DUP1 SLOAD SWAP1 POP LT PUSH2 0x4AB JUMPI PUSH1 0x4 PUSH2 0x4B1 JUMP JUMPDEST PUSH0 DUP1 SLOAD SWAP1 POP JUMPDEST SWAP1 POP PUSH0 DUP1 DUP1 SLOAD SWAP1 POP PUSH8 0xFFFFFFFFFFFFFFFF DUP2 GT ISZERO PUSH2 0x4D2 JUMPI PUSH2 0x4D1 PUSH2 0x1B5C JUMP JUMPDEST JUMPDEST PUSH1 0x40 MLOAD SWAP1 DUP1 DUP3 MSTORE DUP1 PUSH1 0x20 MUL PUSH1 0x20 ADD DUP3 ADD PUSH1 0x40 MSTORE DUP1 ISZERO PUSH2 0x50B JUMPI DUP2 PUSH1 0x20 ADD JUMPDEST PUSH2 0x4F8 PUSH2 0x18E3 JUMP JUMPDEST DUP2 MSTORE PUSH1 0x20 ADD SWAP1 PUSH1 0x1 SWAP1 SUB SWAP1 DUP2 PUSH2 0x4F0 JUMPI SWAP1 POP JUMPDEST POP SWAP1 POP PUSH0 JUMPDEST PUSH0 DUP1 SLOAD SWAP1 POP DUP2 LT ISZERO PUSH2 0x778 JUMPI PUSH0 DUP2 DUP2 SLOAD DUP2 LT PUSH2 0x52F JUMPI PUSH2 0x52E PUSH2 0x22E2 JUMP JUMPDEST JUMPDEST SWAP1 PUSH0 MSTORE PUSH1 0x20 PUSH0 KECCAK256 SWAP1 PUSH1 0x5 MUL ADD PUSH1 0x40 MLOAD DUP1 PUSH1 0xA0 ADD PUSH1 0x40 MSTORE SWAP1 DUP2 PUSH0 DUP3 ADD DUP1 SLOAD PUSH2 0x555 SWAP1 PUSH2 0x2262 JUMP JUMPDEST DUP1 PUSH1 0x1F ADD PUSH1 0x20 DUP1 SWAP2 DIV MUL PUSH1 0x20 ADD PUSH1 0x40 MLOAD SWAP1 DUP2 ADD PUSH1 0x40 MSTORE DUP1 SWAP3 SWAP2 SWAP1 DUP2 DUP2 MSTORE PUSH1 0x20 ADD DUP3 DUP1 SLOAD PUSH2 0x581 SWAP1 PUSH2 0x2262 JUMP JUMPDEST DUP1 ISZERO PUSH2 0x5CC JUMPI DUP1 PUSH1 0x1F LT PUSH2 0x5A3 JUMPI PUSH2 0x100 DUP1 DUP4 SLOAD DIV MUL DUP4 MSTORE SWAP2 PUSH1 0x20 ADD SWAP2 PUSH2 0x5CC JUMP JUMPDEST DUP3 ADD SWAP2 SWAP1 PUSH0 MSTORE PUSH1 0x20 PUSH0 KECCAK256 SWAP1 JUMPDEST DUP2 SLOAD DUP2 MSTORE SWAP1 PUSH1 0x1 ADD SWAP1 PUSH1 0x20 ADD DUP1 DUP4 GT PUSH2 0x5AF JUMPI DUP3 SWAP1 SUB PUSH1 0x1F AND DUP3 ADD SWAP2 JUMPDEST POP POP POP POP POP DUP2 MSTORE PUSH1 0x20 ADD PUSH1 0x1 DUP3 ADD SLOAD DUP2 MSTORE PUSH1 0x20 ADD PUSH1 0x2 DUP3 ADD SLOAD DUP2 MSTORE PUSH1 0x20 ADD PUSH1 0x3 DUP3 ADD DUP1 SLOAD PUSH2 0x5F9 SWAP1 PUSH2 0x2262 JUMP JUMPDEST DUP1 PUSH1 0x1F ADD PUSH1 0x20 DUP1 SWAP2 DIV MUL PUSH1 0x20 ADD PUSH1 0x40 MLOAD SWAP1 DUP2 ADD PUSH1 0x40 MSTORE DUP1 SWAP3 SWAP2 SWAP1 DUP2 DUP2 MSTORE PUSH1 0x20 ADD DUP3 DUP1 SLOAD PUSH2 0x625 SWAP1 PUSH2 0x2262 JUMP JUMPDEST DUP1 ISZERO PUSH2 0x670 JUMPI DUP1 PUSH1 0x1F LT PUSH2 0x647 JUMPI PUSH2 0x100 DUP1 DUP4 SLOAD DIV MUL DUP4 MSTORE SWAP2 PUSH1 0x20 ADD SWAP2 PUSH2 0x670 JUMP JUMPDEST DUP3 ADD SWAP2 SWAP1 PUSH0 MSTORE PUSH1 0x20 PUSH0 KECCAK256 SWAP1 JUMPDEST DUP2 SLOAD DUP2 MSTORE SWAP1 PUSH1 0x1 ADD SWAP1 PUSH1 0x20 ADD DUP1 DUP4 GT PUSH2 0x653 JUMPI DUP3 SWAP1 SUB PUSH1 0x1F AND DUP3 ADD SWAP2 JUMPDEST POP POP POP POP POP DUP2 MSTORE PUSH1 0x20 ADD PUSH1 0x4 DUP3 ADD DUP1 SLOAD DUP1 PUSH1 0x20 MUL PUSH1 0x20 ADD PUSH1 0x40 MLOAD SWAP1 DUP2 ADD PUSH1 0x40 MSTORE DUP1 SWAP3 SWAP2 SWAP1 DUP2 DUP2 MSTORE PUSH1 0x20 ADD PUSH0 SWAP1 JUMPDEST DUP3 DUP3 LT ISZERO PUSH2 0x745 JUMPI DUP4 DUP3 SWAP1 PUSH0 MSTORE PUSH1 0x20 PUSH0 KECCAK256 ADD DUP1 SLOAD PUSH2 0x6BA SWAP1 PUSH2 0x2262 JUMP JUMPDEST DUP1 PUSH1 0x1F ADD PUSH1 0x20 DUP1 SWAP2 DIV MUL PUSH1 0x20 ADD PUSH1 0x40 MLOAD SWAP1 DUP2 ADD PUSH1 0x40 MSTORE DUP1 SWAP3 SWAP2 SWAP1 DUP2 DUP2 MSTORE PUSH1 0x20 ADD DUP3 DUP1 SLOAD PUSH2 0x6E6 SWAP1 PUSH2 0x2262 JUMP JUMPDEST DUP1 ISZERO PUSH2 0x731 JUMPI DUP1 PUSH1 0x1F LT PUSH2 0x708 JUMPI PUSH2 0x100 DUP1 DUP4 SLOAD DIV MUL DUP4 MSTORE SWAP2 PUSH1 0x20 ADD SWAP2 PUSH2 0x731 JUMP JUMPDEST DUP3 ADD SWAP2 SWAP1 PUSH0 MSTORE PUSH1 0x20 PUSH0 KECCAK256 SWAP1 JUMPDEST DUP2 SLOAD DUP2 MSTORE SWAP1 PUSH1 0x1 ADD SWAP1 PUSH1 0x20 ADD DUP1 DUP4 GT PUSH2 0x714 JUMPI DUP3 SWAP1 SUB PUSH1 0x1F AND DUP3 ADD SWAP2 JUMPDEST POP POP POP POP POP DUP2 MSTORE PUSH1 0x20 ADD SWAP1 PUSH1 0x1 ADD SWAP1 PUSH2 0x69D JUMP JUMPDEST POP POP POP POP DUP2 MSTORE POP POP DUP3 DUP3 DUP2 MLOAD DUP2 LT PUSH2 0x760 JUMPI PUSH2 0x75F PUSH2 0x22E2 JUMP JUMPDEST JUMPDEST PUSH1 0x20 MUL PUSH1 0x20 ADD ADD DUP2 SWAP1 MSTORE POP DUP1 DUP1 PUSH1 0x1 ADD SWAP2 POP POP PUSH2 0x510 JUMP JUMPDEST POP PUSH2 0x782 DUP2 PUSH2 0x15DE JUMP JUMPDEST SWAP1 POP PUSH0 DUP3 PUSH8 0xFFFFFFFFFFFFFFFF DUP2 GT ISZERO PUSH2 0x79F JUMPI PUSH2 0x79E PUSH2 0x1B5C JUMP JUMPDEST JUMPDEST PUSH1 0x40 MLOAD SWAP1 DUP1 DUP3 MSTORE DUP1 PUSH1 0x20 MUL PUSH1 0x20 ADD DUP3 ADD PUSH1 0x40 MSTORE DUP1 ISZERO PUSH2 0x7D8 JUMPI DUP2 PUSH1 0x20 ADD JUMPDEST PUSH2 0x7C5 PUSH2 0x18E3 JUMP JUMPDEST DUP2 MSTORE PUSH1 0x20 ADD SWAP1 PUSH1 0x1 SWAP1 SUB SWAP1 DUP2 PUSH2 0x7BD JUMPI SWAP1 POP JUMPDEST POP SWAP1 POP PUSH0 JUMPDEST DUP4 DUP2 LT ISZERO PUSH2 0x82B JUMPI DUP3 DUP2 DUP2 MLOAD DUP2 LT PUSH2 0x7F8 JUMPI PUSH2 0x7F7 PUSH2 0x22E2 JUMP JUMPDEST JUMPDEST PUSH1 0x20 MUL PUSH1 0x20 ADD ADD MLOAD DUP3 DUP3 DUP2 MLOAD DUP2 LT PUSH2 0x813 JUMPI PUSH2 0x812 PUSH2 0x22E2 JUMP JUMPDEST JUMPDEST PUSH1 0x20 MUL PUSH1 0x20 ADD ADD DUP2 SWAP1 MSTORE POP DUP1 DUP1 PUSH1 0x1 ADD SWAP2 POP POP PUSH2 0x7DD JUMP JUMPDEST POP DUP1 SWAP4 POP POP POP POP SWAP1 JUMP JUMPDEST PUSH1 0x60 PUSH0 PUSH2 0x840 PUSH2 0x16E9 JUMP JUMPDEST PUSH8 0xFFFFFFFFFFFFFFFF DUP2 GT ISZERO PUSH2 0x859 JUMPI PUSH2 0x858 PUSH2 0x1B5C JUMP JUMPDEST JUMPDEST PUSH1 0x40 MLOAD SWAP1 DUP1 DUP3 MSTORE DUP1 PUSH1 0x20 MUL PUSH1 0x20 ADD DUP3 ADD PUSH1 0x40 MSTORE DUP1 ISZERO PUSH2 0x892 JUMPI DUP2 PUSH1 0x20 ADD JUMPDEST PUSH2 0x87F PUSH2 0x18E3 JUMP JUMPDEST DUP2 MSTORE PUSH1 0x20 ADD SWAP1 PUSH1 0x1 SWAP1 SUB SWAP1 DUP2 PUSH2 0x877 JUMPI SWAP1 POP JUMPDEST POP SWAP1 POP PUSH0 JUMPDEST PUSH0 DUP1 SLOAD SWAP1 POP DUP2 LT ISZERO PUSH2 0xB72 JUMPI PUSH1 0x40 MLOAD PUSH1 0x20 ADD PUSH2 0x8B2 SWAP1 PUSH2 0x2469 JUMP JUMPDEST PUSH1 0x40 MLOAD PUSH1 0x20 DUP2 DUP4 SUB SUB DUP2 MSTORE SWAP1 PUSH1 0x40 MSTORE DUP1 MLOAD SWAP1 PUSH1 0x20 ADD KECCAK256 PUSH0 DUP3 DUP2 SLOAD DUP2 LT PUSH2 0x8DB JUMPI PUSH2 0x8DA PUSH2 0x22E2 JUMP JUMPDEST JUMPDEST SWAP1 PUSH0 MSTORE PUSH1 0x20 PUSH0 KECCAK256 SWAP1 PUSH1 0x5 MUL ADD PUSH1 0x3 ADD PUSH1 0x40 MLOAD PUSH1 0x20 ADD PUSH2 0x8FA SWAP2 SWAP1 PUSH2 0x23A1 JUMP JUMPDEST PUSH1 0x40 MLOAD PUSH1 0x20 DUP2 DUP4 SUB SUB DUP2 MSTORE SWAP1 PUSH1 0x40 MSTORE DUP1 MLOAD SWAP1 PUSH1 0x20 ADD KECCAK256 SUB PUSH2 0xB65 JUMPI PUSH0 DUP2 DUP2 SLOAD DUP2 LT PUSH2 0x928 JUMPI PUSH2 0x927 PUSH2 0x22E2 JUMP JUMPDEST JUMPDEST SWAP1 PUSH0 MSTORE PUSH1 0x20 PUSH0 KECCAK256 SWAP1 PUSH1 0x5 MUL ADD PUSH1 0x40 MLOAD DUP1 PUSH1 0xA0 ADD PUSH1 0x40 MSTORE SWAP1 DUP2 PUSH0 DUP3 ADD DUP1 SLOAD PUSH2 0x94E SWAP1 PUSH2 0x2262 JUMP JUMPDEST DUP1 PUSH1 0x1F ADD PUSH1 0x20 DUP1 SWAP2 DIV MUL PUSH1 0x20 ADD PUSH1 0x40 MLOAD SWAP1 DUP2 ADD PUSH1 0x40 MSTORE DUP1 SWAP3 SWAP2 SWAP1 DUP2 DUP2 MSTORE PUSH1 0x20 ADD DUP3 DUP1 SLOAD PUSH2 0x97A SWAP1 PUSH2 0x2262 JUMP JUMPDEST DUP1 ISZERO PUSH2 0x9C5 JUMPI DUP1 PUSH1 0x1F LT PUSH2 0x99C JUMPI PUSH2 0x100 DUP1 DUP4 SLOAD DIV MUL DUP4 MSTORE SWAP2 PUSH1 0x20 ADD SWAP2 PUSH2 0x9C5 JUMP JUMPDEST DUP3 ADD SWAP2 SWAP1 PUSH0 MSTORE PUSH1 0x20 PUSH0 KECCAK256 SWAP1 JUMPDEST DUP2 SLOAD DUP2 MSTORE SWAP1 PUSH1 0x1 ADD SWAP1 PUSH1 0x20 ADD DUP1 DUP4 GT PUSH2 0x9A8 JUMPI DUP3 SWAP1 SUB PUSH1 0x1F AND DUP3 ADD SWAP2 JUMPDEST POP POP POP POP POP DUP2 MSTORE PUSH1 0x20 ADD PUSH1 0x1 DUP3 ADD SLOAD DUP2 MSTORE PUSH1 0x20 ADD PUSH1 0x2 DUP3 ADD SLOAD DUP2 MSTORE PUSH1 0x20 ADD PUSH1 0x3 DUP3 ADD DUP1 SLOAD PUSH2 0x9F2 SWAP1 PUSH2 0x2262 JUMP JUMPDEST DUP1 PUSH1 0x1F ADD PUSH1 0x20 DUP1 SWAP2 DIV MUL PUSH1 0x20 ADD PUSH1 0x40 MLOAD SWAP1 DUP2 ADD PUSH1 0x40 MSTORE DUP1 SWAP3 SWAP2 SWAP1 DUP2 DUP2 MSTORE PUSH1 0x20 ADD DUP3 DUP1 SLOAD PUSH2 0xA1E SWAP1 PUSH2 0x2262 JUMP JUMPDEST DUP1 ISZERO PUSH2 0xA69 JUMPI DUP1 PUSH1 0x1F LT PUSH2 0xA40 JUMPI PUSH2 0x100 DUP1 DUP4 SLOAD DIV MUL DUP4 MSTORE SWAP2 PUSH1 0x20 ADD SWAP2 PUSH2 0xA69 JUMP JUMPDEST DUP3 ADD SWAP2 SWAP1 PUSH0 MSTORE PUSH1 0x20 PUSH0 KECCAK256 SWAP1 JUMPDEST DUP2 SLOAD DUP2 MSTORE SWAP1 PUSH1 0x1 ADD SWAP1 PUSH1 0x20 ADD DUP1 DUP4 GT PUSH2 0xA4C JUMPI DUP3 SWAP1 SUB PUSH1 0x1F AND DUP3 ADD SWAP2 JUMPDEST POP POP POP POP POP DUP2 MSTORE PUSH1 0x20 ADD PUSH1 0x4 DUP3 ADD DUP1 SLOAD DUP1 PUSH1 0x20 MUL PUSH1 0x20 ADD PUSH1 0x40 MLOAD SWAP1 DUP2 ADD PUSH1 0x40 MSTORE DUP1 SWAP3 SWAP2 SWAP1 DUP2 DUP2 MSTORE PUSH1 0x20 ADD PUSH0 SWAP1 JUMPDEST DUP3 DUP3 LT ISZERO PUSH2 0xB3E JUMPI DUP4 DUP3 SWAP1 PUSH0 MSTORE PUSH1 0x20 PUSH0 KECCAK256 ADD DUP1 SLOAD PUSH2 0xAB3 SWAP1 PUSH2 0x2262 JUMP JUMPDEST DUP1 PUSH1 0x1F ADD PUSH1 0x20 DUP1 SWAP2 DIV MUL PUSH1 0x20 ADD PUSH1 0x40 MLOAD SWAP1 DUP2 ADD PUSH1 0x40 MSTORE DUP1 SWAP3 SWAP2 SWAP1 DUP2 DUP2 MSTORE PUSH1 0x20 ADD DUP3 DUP1 SLOAD PUSH2 0xADF SWAP1 PUSH2 0x2262 JUMP JUMPDEST DUP1 ISZERO PUSH2 0xB2A JUMPI DUP1 PUSH1 0x1F LT PUSH2 0xB01 JUMPI PUSH2 0x100 DUP1 DUP4 SLOAD DIV MUL DUP4 MSTORE SWAP2 PUSH1 0x20 ADD SWAP2 PUSH2 0xB2A JUMP JUMPDEST DUP3 ADD SWAP2 SWAP1 PUSH0 MSTORE PUSH1 0x20 PUSH0 KECCAK256 SWAP1 JUMPDEST DUP2 SLOAD DUP2 MSTORE SWAP1 PUSH1 0x1 ADD SWAP1 PUSH1 0x20 ADD DUP1 DUP4 GT PUSH2 0xB0D JUMPI DUP3 SWAP1 SUB PUSH1 0x1F AND DUP3 ADD SWAP2 JUMPDEST POP POP POP POP POP DUP2 MSTORE PUSH1 0x20 ADD SWAP1 PUSH1 0x1 ADD SWAP1 PUSH2 0xA96 JUMP JUMPDEST POP POP POP POP DUP2 MSTORE POP POP DUP3 DUP3 DUP2 MLOAD DUP2 LT PUSH2 0xB59 JUMPI PUSH2 0xB58 PUSH2 0x22E2 JUMP JUMPDEST JUMPDEST PUSH1 0x20 MUL PUSH1 0x20 ADD ADD DUP2 SWAP1 MSTORE POP JUMPDEST DUP1 DUP1 PUSH1 0x1 ADD SWAP2 POP POP PUSH2 0x897 JUMP JUMPDEST POP DUP1 SWAP2 POP POP SWAP1 JUMP JUMPDEST PUSH2 0xB82 PUSH2 0x18E3 JUMP JUMPDEST PUSH0 DUP1 DUP1 SLOAD SWAP1 POP DUP2 LT ISZERO PUSH2 0xE2C JUMPI DUP3 PUSH0 DUP3 DUP2 SLOAD DUP2 LT PUSH2 0xBA3 JUMPI PUSH2 0xBA2 PUSH2 0x22E2 JUMP JUMPDEST JUMPDEST SWAP1 PUSH0 MSTORE PUSH1 0x20 PUSH0 KECCAK256 SWAP1 PUSH1 0x5 MUL ADD PUSH1 0x1 ADD SLOAD SUB PUSH2 0xDF1 JUMPI PUSH0 DUP2 DUP2 SLOAD DUP2 LT PUSH2 0xBCB JUMPI PUSH2 0xBCA PUSH2 0x22E2 JUMP JUMPDEST JUMPDEST SWAP1 PUSH0 MSTORE PUSH1 0x20 PUSH0 KECCAK256 SWAP1 PUSH1 0x5 MUL ADD PUSH1 0x40 MLOAD DUP1 PUSH1 0xA0 ADD PUSH1 0x40 MSTORE SWAP1 DUP2 PUSH0 DUP3 ADD DUP1 SLOAD PUSH2 0xBF1 SWAP1 PUSH2 0x2262 JUMP JUMPDEST DUP1 PUSH1 0x1F ADD PUSH1 0x20 DUP1 SWAP2 DIV MUL PUSH1 0x20 ADD PUSH1 0x40 MLOAD SWAP1 DUP2 ADD PUSH1 0x40 MSTORE DUP1 SWAP3 SWAP2 SWAP1 DUP2 DUP2 MSTORE PUSH1 0x20 ADD DUP3 DUP1 SLOAD PUSH2 0xC1D SWAP1 PUSH2 0x2262 JUMP JUMPDEST DUP1 ISZERO PUSH2 0xC68 JUMPI DUP1 PUSH1 0x1F LT PUSH2 0xC3F JUMPI PUSH2 0x100 DUP1 DUP4 SLOAD DIV MUL DUP4 MSTORE SWAP2 PUSH1 0x20 ADD SWAP2 PUSH2 0xC68 JUMP JUMPDEST DUP3 ADD SWAP2 SWAP1 PUSH0 MSTORE PUSH1 0x20 PUSH0 KECCAK256 SWAP1 JUMPDEST DUP2 SLOAD DUP2 MSTORE SWAP1 PUSH1 0x1 ADD SWAP1 PUSH1 0x20 ADD DUP1 DUP4 GT PUSH2 0xC4B JUMPI DUP3 SWAP1 SUB PUSH1 0x1F AND DUP3 ADD SWAP2 JUMPDEST POP POP POP POP POP DUP2 MSTORE PUSH1 0x20 ADD PUSH1 0x1 DUP3 ADD SLOAD DUP2 MSTORE PUSH1 0x20 ADD PUSH1 0x2 DUP3 ADD SLOAD DUP2 MSTORE PUSH1 0x20 ADD PUSH1 0x3 DUP3 ADD DUP1 SLOAD PUSH2 0xC95 SWAP1 PUSH2 0x2262 JUMP JUMPDEST DUP1 PUSH1 0x1F ADD PUSH1 0x20 DUP1 SWAP2 DIV MUL PUSH1 0x20 ADD PUSH1 0x40 MLOAD SWAP1 DUP2 ADD PUSH1 0x40 MSTORE DUP1 SWAP3 SWAP2 SWAP1 DUP2 DUP2 MSTORE PUSH1 0x20 ADD DUP3 DUP1 SLOAD PUSH2 0xCC1 SWAP1 PUSH2 0x2262 JUMP JUMPDEST DUP1 ISZERO PUSH2 0xD0C JUMPI DUP1 PUSH1 0x1F LT PUSH2 0xCE3 JUMPI PUSH2 0x100 DUP1 DUP4 SLOAD DIV MUL DUP4 MSTORE SWAP2 PUSH1 0x20 ADD SWAP2 PUSH2 0xD0C JUMP JUMPDEST DUP3 ADD SWAP2 SWAP1 PUSH0 MSTORE PUSH1 0x20 PUSH0 KECCAK256 SWAP1 JUMPDEST DUP2 SLOAD DUP2 MSTORE SWAP1 PUSH1 0x1 ADD SWAP1 PUSH1 0x20 ADD DUP1 DUP4 GT PUSH2 0xCEF JUMPI DUP3 SWAP1 SUB PUSH1 0x1F AND DUP3 ADD SWAP2 JUMPDEST POP POP POP POP POP DUP2 MSTORE PUSH1 0x20 ADD PUSH1 0x4 DUP3 ADD DUP1 SLOAD DUP1 PUSH1 0x20 MUL PUSH1 0x20 ADD PUSH1 0x40 MLOAD SWAP1 DUP2 ADD PUSH1 0x40 MSTORE DUP1 SWAP3 SWAP2 SWAP1 DUP2 DUP2 MSTORE PUSH1 0x20 ADD PUSH0 SWAP1 JUMPDEST DUP3 DUP3 LT ISZERO PUSH2 0xDE1 JUMPI DUP4 DUP3 SWAP1 PUSH0 MSTORE PUSH1 0x20 PUSH0 KECCAK256 ADD DUP1 SLOAD PUSH2 0xD56 SWAP1 PUSH2 0x2262 JUMP JUMPDEST DUP1 PUSH1 0x1F ADD PUSH1 0x20 DUP1 SWAP2 DIV MUL PUSH1 0x20 ADD PUSH1 0x40 MLOAD SWAP1 DUP2 ADD PUSH1 0x40 MSTORE DUP1 SWAP3 SWAP2 SWAP1 DUP2 DUP2 MSTORE PUSH1 0x20 ADD DUP3 DUP1 SLOAD PUSH2 0xD82 SWAP1 PUSH2 0x2262 JUMP JUMPDEST DUP1 ISZERO PUSH2 0xDCD JUMPI DUP1 PUSH1 0x1F LT PUSH2 0xDA4 JUMPI PUSH2 0x100 DUP1 DUP4 SLOAD DIV MUL DUP4 MSTORE SWAP2 PUSH1 0x20 ADD SWAP2 PUSH2 0xDCD JUMP JUMPDEST DUP3 ADD SWAP2 SWAP1 PUSH0 MSTORE PUSH1 0x20 PUSH0 KECCAK256 SWAP1 JUMPDEST DUP2 SLOAD DUP2 MSTORE SWAP1 PUSH1 0x1 ADD SWAP1 PUSH1 0x20 ADD DUP1 DUP4 GT PUSH2 0xDB0 JUMPI DUP3 SWAP1 SUB PUSH1 0x1F AND DUP3 ADD SWAP2 JUMPDEST POP POP POP POP POP DUP2 MSTORE PUSH1 0x20 ADD SWAP1 PUSH1 0x1 ADD SWAP1 PUSH2 0xD39 JUMP JUMPDEST POP POP POP POP DUP2 MSTORE POP POP SWAP2 POP POP PUSH2 0xE2E JUMP JUMPDEST PUSH1 0x40 MLOAD PUSH32 0x8C379A000000000000000000000000000000000000000000000000000000000 DUP2 MSTORE PUSH1 0x4 ADD PUSH2 0xE23 SWAP1 PUSH2 0x24C7 JUMP JUMPDEST PUSH1 0x40 MLOAD DUP1 SWAP2 SUB SWAP1 REVERT JUMPDEST POP JUMPDEST SWAP2 SWAP1 POP JUMP JUMPDEST PUSH0 PUSH2 0xE3D DUP4 PUSH2 0x178F JUMP JUMPDEST SWAP1 POP PUSH0 PUSH1 0x40 MLOAD DUP1 PUSH1 0xA0 ADD PUSH1 0x40 MSTORE DUP1 DUP8 DUP2 MSTORE PUSH1 0x20 ADD DUP7 DUP2 MSTORE PUSH1 0x20 ADD DUP6 DUP2 MSTORE PUSH1 0x20 ADD DUP4 DUP2 MSTORE PUSH1 0x20 ADD DUP5 DUP2 MSTORE POP SWAP1 DUP1 PUSH1 0x1 DUP2 SLOAD ADD DUP1 DUP3 SSTORE DUP1 SWAP2 POP POP PUSH1 0x1 SWAP1 SUB SWAP1 PUSH0 MSTORE PUSH1 0x20 PUSH0 KECCAK256 SWAP1 PUSH1 0x5 MUL ADD PUSH0 SWAP1 SWAP2 SWAP1 SWAP2 SWAP1 SWAP2 POP PUSH0 DUP3 ADD MLOAD DUP2 PUSH0 ADD SWAP1 DUP2 PUSH2 0xEA0 SWAP2 SWAP1 PUSH2 0x2670 JUMP JUMPDEST POP PUSH1 0x20 DUP3 ADD MLOAD DUP2 PUSH1 0x1 ADD SSTORE PUSH1 0x40 DUP3 ADD MLOAD DUP2 PUSH1 0x2 ADD SSTORE PUSH1 0x60 DUP3 ADD MLOAD DUP2 PUSH1 0x3 ADD SWAP1 DUP2 PUSH2 0xECA SWAP2 SWAP1 PUSH2 0x2670 JUMP JUMPDEST POP PUSH1 0x80 DUP3 ADD MLOAD DUP2 PUSH1 0x4 ADD SWAP1 DUP1 MLOAD SWAP1 PUSH1 0x20 ADD SWAP1 PUSH2 0xEE7 SWAP3 SWAP2 SWAP1 PUSH2 0x1910 JUMP JUMPDEST POP POP POP POP POP POP POP POP JUMP JUMPDEST PUSH2 0xEF9 PUSH2 0x18E3 JUMP JUMPDEST PUSH0 DUP1 DUP1 SLOAD SWAP1 POP DUP2 LT ISZERO PUSH2 0x11ED JUMPI DUP3 PUSH1 0x40 MLOAD PUSH1 0x20 ADD PUSH2 0xF17 SWAP2 SWAP1 PUSH2 0x22CC JUMP JUMPDEST PUSH1 0x40 MLOAD PUSH1 0x20 DUP2 DUP4 SUB SUB DUP2 MSTORE SWAP1 PUSH1 0x40 MSTORE DUP1 MLOAD SWAP1 PUSH1 0x20 ADD KECCAK256 PUSH0 DUP3 DUP2 SLOAD DUP2 LT PUSH2 0xF40 JUMPI PUSH2 0xF3F PUSH2 0x22E2 JUMP JUMPDEST JUMPDEST SWAP1 PUSH0 MSTORE PUSH1 0x20 PUSH0 KECCAK256 SWAP1 PUSH1 0x5 MUL ADD PUSH0 ADD PUSH1 0x40 MLOAD PUSH1 0x20 ADD PUSH2 0xF5E SWAP2 SWAP1 PUSH2 0x23A1 JUMP JUMPDEST PUSH1 0x40 MLOAD PUSH1 0x20 DUP2 DUP4 SUB SUB DUP2 MSTORE SWAP1 PUSH1 0x40 MSTORE DUP1 MLOAD SWAP1 PUSH1 0x20 ADD KECCAK256 SUB PUSH2 0x11B2 JUMPI PUSH0 DUP2 DUP2 SLOAD DUP2 LT PUSH2 0xF8C JUMPI PUSH2 0xF8B PUSH2 0x22E2 JUMP JUMPDEST JUMPDEST SWAP1 PUSH0 MSTORE PUSH1 0x20 PUSH0 KECCAK256 SWAP1 PUSH1 0x5 MUL ADD PUSH1 0x40 MLOAD DUP1 PUSH1 0xA0 ADD PUSH1 0x40 MSTORE SWAP1 DUP2 PUSH0 DUP3 ADD DUP1 SLOAD PUSH2 0xFB2 SWAP1 PUSH2 0x2262 JUMP JUMPDEST DUP1 PUSH1 0x1F ADD PUSH1 0x20 DUP1 SWAP2 DIV MUL PUSH1 0x20 ADD PUSH1 0x40 MLOAD SWAP1 DUP2 ADD PUSH1 0x40 MSTORE DUP1 SWAP3 SWAP2 SWAP1 DUP2 DUP2 MSTORE PUSH1 0x20 ADD DUP3 DUP1 SLOAD PUSH2 0xFDE SWAP1 PUSH2 0x2262 JUMP JUMPDEST DUP1 ISZERO PUSH2 0x1029 JUMPI DUP1 PUSH1 0x1F LT PUSH2 0x1000 JUMPI PUSH2 0x100 DUP1 DUP4 SLOAD DIV MUL DUP4 MSTORE SWAP2 PUSH1 0x20 ADD SWAP2 PUSH2 0x1029 JUMP JUMPDEST DUP3 ADD SWAP2 SWAP1 PUSH0 MSTORE PUSH1 0x20 PUSH0 KECCAK256 SWAP1 JUMPDEST DUP2 SLOAD DUP2 MSTORE SWAP1 PUSH1 0x1 ADD SWAP1 PUSH1 0x20 ADD DUP1 DUP4 GT PUSH2 0x100C JUMPI DUP3 SWAP1 SUB PUSH1 0x1F AND DUP3 ADD SWAP2 JUMPDEST POP POP POP POP POP DUP2 MSTORE PUSH1 0x20 ADD PUSH1 0x1 DUP3 ADD SLOAD DUP2 MSTORE PUSH1 0x20 ADD PUSH1 0x2 DUP3 ADD SLOAD DUP2 MSTORE PUSH1 0x20 ADD PUSH1 0x3 DUP3 ADD DUP1 SLOAD PUSH2 0x1056 SWAP1 PUSH2 0x2262 JUMP JUMPDEST DUP1 PUSH1 0x1F ADD PUSH1 0x20 DUP1 SWAP2 DIV MUL PUSH1 0x20 ADD PUSH1 0x40 MLOAD SWAP1 DUP2 ADD PUSH1 0x40 MSTORE DUP1 SWAP3 SWAP2 SWAP1 DUP2 DUP2 MSTORE PUSH1 0x20 ADD DUP3 DUP1 SLOAD PUSH2 0x1082 SWAP1 PUSH2 0x2262 JUMP JUMPDEST DUP1 ISZERO PUSH2 0x10CD JUMPI DUP1 PUSH1 0x1F LT PUSH2 0x10A4 JUMPI PUSH2 0x100 DUP1 DUP4 SLOAD DIV MUL DUP4 MSTORE SWAP2 PUSH1 0x20 ADD SWAP2 PUSH2 0x10CD JUMP JUMPDEST DUP3 ADD SWAP2 SWAP1 PUSH0 MSTORE PUSH1 0x20 PUSH0 KECCAK256 SWAP1 JUMPDEST DUP2 SLOAD DUP2 MSTORE SWAP1 PUSH1 0x1 ADD SWAP1 PUSH1 0x20 ADD DUP1 DUP4 GT PUSH2 0x10B0 JUMPI DUP3 SWAP1 SUB PUSH1 0x1F AND DUP3 ADD SWAP2 JUMPDEST POP POP POP POP POP DUP2 MSTORE PUSH1 0x20 ADD PUSH1 0x4 DUP3 ADD DUP1 SLOAD DUP1 PUSH1 0x20 MUL PUSH1 0x20 ADD PUSH1 0x40 MLOAD SWAP1 DUP2 ADD PUSH1 0x40 MSTORE DUP1 SWAP3 SWAP2 SWAP1 DUP2 DUP2 MSTORE PUSH1 0x20 ADD PUSH0 SWAP1 JUMPDEST DUP3 DUP3 LT ISZERO PUSH2 0x11A2 JUMPI DUP4 DUP3 SWAP1 PUSH0 MSTORE PUSH1 0x20 PUSH0 KECCAK256 ADD DUP1 SLOAD PUSH2 0x1117 SWAP1 PUSH2 0x2262 JUMP JUMPDEST DUP1 PUSH1 0x1F ADD PUSH1 0x20 DUP1 SWAP2 DIV MUL PUSH1 0x20 ADD PUSH1 0x40 MLOAD SWAP1 DUP2 ADD PUSH1 0x40 MSTORE DUP1 SWAP3 SWAP2 SWAP1 DUP2 DUP2 MSTORE PUSH1 0x20 ADD DUP3 DUP1 SLOAD PUSH2 0x1143 SWAP1 PUSH2 0x2262 JUMP JUMPDEST DUP1 ISZERO PUSH2 0x118E JUMPI DUP1 PUSH1 0x1F LT PUSH2 0x1165 JUMPI PUSH2 0x100 DUP1 DUP4 SLOAD DIV MUL DUP4 MSTORE SWAP2 PUSH1 0x20 ADD SWAP2 PUSH2 0x118E JUMP JUMPDEST DUP3 ADD SWAP2 SWAP1 PUSH0 MSTORE PUSH1 0x20 PUSH0 KECCAK256 SWAP1 JUMPDEST DUP2 SLOAD DUP2 MSTORE SWAP1 PUSH1 0x1 ADD SWAP1 PUSH1 0x20 ADD DUP1 DUP4 GT PUSH2 0x1171 JUMPI DUP3 SWAP1 SUB PUSH1 0x1F AND DUP3 ADD SWAP2 JUMPDEST POP POP POP POP POP DUP2 MSTORE PUSH1 0x20 ADD SWAP1 PUSH1 0x1 ADD SWAP1 PUSH2 0x10FA JUMP JUMPDEST POP POP POP POP DUP2 MSTORE POP POP SWAP2 POP POP PUSH2 0x11EF JUMP JUMPDEST PUSH1 0x40 MLOAD PUSH32 0x8C379A000000000000000000000000000000000000000000000000000000000 DUP2 MSTORE PUSH1 0x4 ADD PUSH2 0x11E4 SWAP1 PUSH2 0x2401 JUMP JUMPDEST PUSH1 0x40 MLOAD DUP1 SWAP2 SUB SWAP1 REVERT JUMPDEST POP JUMPDEST SWAP2 SWAP1 POP JUMP JUMPDEST PUSH1 0x60 PUSH0 DUP1 DUP1 SLOAD SWAP1 POP PUSH8 0xFFFFFFFFFFFFFFFF DUP2 GT ISZERO PUSH2 0x1215 JUMPI PUSH2 0x1214 PUSH2 0x1B5C JUMP JUMPDEST JUMPDEST PUSH1 0x40 MLOAD SWAP1 DUP1 DUP3 MSTORE DUP1 PUSH1 0x20 MUL PUSH1 0x20 ADD DUP3 ADD PUSH1 0x40 MSTORE DUP1 ISZERO PUSH2 0x124E JUMPI DUP2 PUSH1 0x20 ADD JUMPDEST PUSH2 0x123B PUSH2 0x18E3 JUMP JUMPDEST DUP2 MSTORE PUSH1 0x20 ADD SWAP1 PUSH1 0x1 SWAP1 SUB SWAP1 DUP2 PUSH2 0x1233 JUMPI SWAP1 POP JUMPDEST POP SWAP1 POP PUSH0 JUMPDEST PUSH0 DUP1 SLOAD SWAP1 POP DUP2 LT ISZERO PUSH2 0x14BB JUMPI PUSH0 DUP2 DUP2 SLOAD DUP2 LT PUSH2 0x1272 JUMPI PUSH2 0x1271 PUSH2 0x22E2 JUMP JUMPDEST JUMPDEST SWAP1 PUSH0 MSTORE PUSH1 0x20 PUSH0 KECCAK256 SWAP1 PUSH1 0x5 MUL ADD PUSH1 0x40 MLOAD DUP1 PUSH1 0xA0 ADD PUSH1 0x40 MSTORE SWAP1 DUP2 PUSH0 DUP3 ADD DUP1 SLOAD PUSH2 0x1298 SWAP1 PUSH2 0x2262 JUMP JUMPDEST DUP1 PUSH1 0x1F ADD PUSH1 0x20 DUP1 SWAP2 DIV MUL PUSH1 0x20 ADD PUSH1 0x40 MLOAD SWAP1 DUP2 ADD PUSH1 0x40 MSTORE DUP1 SWAP3 SWAP2 SWAP1 DUP2 DUP2 MSTORE PUSH1 0x20 ADD DUP3 DUP1 SLOAD PUSH2 0x12C4 SWAP1 PUSH2 0x2262 JUMP JUMPDEST DUP1 ISZERO PUSH2 0x130F JUMPI DUP1 PUSH1 0x1F LT PUSH2 0x12E6 JUMPI PUSH2 0x100 DUP1 DUP4 SLOAD DIV MUL DUP4 MSTORE SWAP2 PUSH1 0x20 ADD SWAP2 PUSH2 0x130F JUMP JUMPDEST DUP3 ADD SWAP2 SWAP1 PUSH0 MSTORE PUSH1 0x20 PUSH0 KECCAK256 SWAP1 JUMPDEST DUP2 SLOAD DUP2 MSTORE SWAP1 PUSH1 0x1 ADD SWAP1 PUSH1 0x20 ADD DUP1 DUP4 GT PUSH2 0x12F2 JUMPI DUP3 SWAP1 SUB PUSH1 0x1F AND DUP3 ADD SWAP2 JUMPDEST POP POP POP POP POP DUP2 MSTORE PUSH1 0x20 ADD PUSH1 0x1 DUP3 ADD SLOAD DUP2 MSTORE PUSH1 0x20 ADD PUSH1 0x2 DUP3 ADD SLOAD DUP2 MSTORE PUSH1 0x20 ADD PUSH1 0x3 DUP3 ADD DUP1 SLOAD PUSH2 0x133C SWAP1 PUSH2 0x2262 JUMP JUMPDEST DUP1 PUSH1 0x1F ADD PUSH1 0x20 DUP1 SWAP2 DIV MUL PUSH1 0x20 ADD PUSH1 0x40 MLOAD SWAP1 DUP2 ADD PUSH1 0x40 MSTORE DUP1 SWAP3 SWAP2 SWAP1 DUP2 DUP2 MSTORE PUSH1 0x20 ADD DUP3 DUP1 SLOAD PUSH2 0x1368 SWAP1 PUSH2 0x2262 JUMP JUMPDEST DUP1 ISZERO PUSH2 0x13B3 JUMPI DUP1 PUSH1 0x1F LT PUSH2 0x138A JUMPI PUSH2 0x100 DUP1 DUP4 SLOAD DIV MUL DUP4 MSTORE SWAP2 PUSH1 0x20 ADD SWAP2 PUSH2 0x13B3 JUMP JUMPDEST DUP3 ADD SWAP2 SWAP1 PUSH0 MSTORE PUSH1 0x20 PUSH0 KECCAK256 SWAP1 JUMPDEST DUP2 SLOAD DUP2 MSTORE SWAP1 PUSH1 0x1 ADD SWAP1 PUSH1 0x20 ADD DUP1 DUP4 GT PUSH2 0x1396 JUMPI DUP3 SWAP1 SUB PUSH1 0x1F AND DUP3 ADD SWAP2 JUMPDEST POP POP POP POP POP DUP2 MSTORE PUSH1 0x20 ADD PUSH1 0x4 DUP3 ADD DUP1 SLOAD DUP1 PUSH1 0x20 MUL PUSH1 0x20 ADD PUSH1 0x40 MLOAD SWAP1 DUP2 ADD PUSH1 0x40 MSTORE DUP1 SWAP3 SWAP2 SWAP1 DUP2 DUP2 MSTORE PUSH1 0x20 ADD PUSH0 SWAP1 JUMPDEST DUP3 DUP3 LT ISZERO PUSH2 0x1488 JUMPI DUP4 DUP3 SWAP1 PUSH0 MSTORE PUSH1 0x20 PUSH0 KECCAK256 ADD DUP1 SLOAD PUSH2 0x13FD SWAP1 PUSH2 0x2262 JUMP JUMPDEST DUP1 PUSH1 0x1F ADD PUSH1 0x20 DUP1 SWAP2 DIV MUL PUSH1 0x20 ADD PUSH1 0x40 MLOAD SWAP1 DUP2 ADD PUSH1 0x40 MSTORE DUP1 SWAP3 SWAP2 SWAP1 DUP2 DUP2 MSTORE PUSH1 0x20 ADD DUP3 DUP1 SLOAD PUSH2 0x1429 SWAP1 PUSH2 0x2262 JUMP JUMPDEST DUP1 ISZERO PUSH2 0x1474 JUMPI DUP1 PUSH1 0x1F LT PUSH2 0x144B JUMPI PUSH2 0x100 DUP1 DUP4 SLOAD DIV MUL DUP4 MSTORE SWAP2 PUSH1 0x20 ADD SWAP2 PUSH2 0x1474 JUMP JUMPDEST DUP3 ADD SWAP2 SWAP1 PUSH0 MSTORE PUSH1 0x20 PUSH0 KECCAK256 SWAP1 JUMPDEST DUP2 SLOAD DUP2 MSTORE SWAP1 PUSH1 0x1 ADD SWAP1 PUSH1 0x20 ADD DUP1 DUP4 GT PUSH2 0x1457 JUMPI DUP3 SWAP1 SUB PUSH1 0x1F AND DUP3 ADD SWAP2 JUMPDEST POP POP POP POP POP DUP2 MSTORE PUSH1 0x20 ADD SWAP1 PUSH1 0x1 ADD SWAP1 PUSH2 0x13E0 JUMP JUMPDEST POP POP POP POP DUP2 MSTORE POP POP DUP3 DUP3 DUP2 MLOAD DUP2 LT PUSH2 0x14A3 JUMPI PUSH2 0x14A2 PUSH2 0x22E2 JUMP JUMPDEST JUMPDEST PUSH1 0x20 MUL PUSH1 0x20 ADD ADD DUP2 SWAP1 MSTORE POP DUP1 DUP1 PUSH1 0x1 ADD SWAP2 POP POP PUSH2 0x1253 JUMP JUMPDEST POP DUP1 SWAP2 POP POP SWAP1 JUMP JUMPDEST PUSH1 0x60 PUSH0 DUP1 DUP1 SLOAD SWAP1 POP PUSH8 0xFFFFFFFFFFFFFFFF DUP2 GT ISZERO PUSH2 0x14E4 JUMPI PUSH2 0x14E3 PUSH2 0x1B5C JUMP JUMPDEST JUMPDEST PUSH1 0x40 MLOAD SWAP1 DUP1 DUP3 MSTORE DUP1 PUSH1 0x20 MUL PUSH1 0x20 ADD DUP3 ADD PUSH1 0x40 MSTORE DUP1 ISZERO PUSH2 0x1512 JUMPI DUP2 PUSH1 0x20 ADD PUSH1 0x20 DUP3 MUL DUP1 CALLDATASIZE DUP4 CALLDATACOPY DUP1 DUP3 ADD SWAP2 POP POP SWAP1 POP JUMPDEST POP SWAP1 POP PUSH0 JUMPDEST PUSH0 DUP1 SLOAD SWAP1 POP DUP2 LT ISZERO PUSH2 0x1572 JUMPI PUSH0 DUP2 DUP2 SLOAD DUP2 LT PUSH2 0x1536 JUMPI PUSH2 0x1535 PUSH2 0x22E2 JUMP JUMPDEST JUMPDEST SWAP1 PUSH0 MSTORE PUSH1 0x20 PUSH0 KECCAK256 SWAP1 PUSH1 0x5 MUL ADD PUSH1 0x1 ADD SLOAD DUP3 DUP3 DUP2 MLOAD DUP2 LT PUSH2 0x1559 JUMPI PUSH2 0x1558 PUSH2 0x22E2 JUMP JUMPDEST JUMPDEST PUSH1 0x20 MUL PUSH1 0x20 ADD ADD DUP2 DUP2 MSTORE POP POP DUP1 DUP1 PUSH1 0x1 ADD SWAP2 POP POP PUSH2 0x1517 JUMP JUMPDEST POP DUP1 SWAP2 POP POP SWAP1 JUMP JUMPDEST PUSH0 DUP1 PUSH0 JUMPDEST PUSH0 DUP1 SLOAD SWAP1 POP DUP2 LT ISZERO PUSH2 0x15C7 JUMPI PUSH0 DUP2 DUP2 SLOAD DUP2 LT PUSH2 0x159D JUMPI PUSH2 0x159C PUSH2 0x22E2 JUMP JUMPDEST JUMPDEST SWAP1 PUSH0 MSTORE PUSH1 0x20 PUSH0 KECCAK256 SWAP1 PUSH1 0x5 MUL ADD PUSH1 0x2 ADD SLOAD DUP3 PUSH2 0x15B8 SWAP2 SWAP1 PUSH2 0x276C JUMP JUMPDEST SWAP2 POP DUP1 DUP1 PUSH1 0x1 ADD SWAP2 POP POP PUSH2 0x157E JUMP JUMPDEST POP PUSH0 DUP1 SLOAD SWAP1 POP DUP2 PUSH2 0x15D8 SWAP2 SWAP1 PUSH2 0x27CC JUMP JUMPDEST SWAP2 POP POP SWAP1 JUMP JUMPDEST PUSH1 0x60 PUSH0 DUP3 MLOAD SWAP1 POP PUSH0 JUMPDEST DUP2 DUP2 LT ISZERO PUSH2 0x16DF JUMPI PUSH0 PUSH1 0x1 DUP3 PUSH2 0x15FD SWAP2 SWAP1 PUSH2 0x276C JUMP JUMPDEST SWAP1 POP JUMPDEST DUP3 DUP2 LT ISZERO PUSH2 0x16D1 JUMPI DUP5 DUP2 DUP2 MLOAD DUP2 LT PUSH2 0x161B JUMPI PUSH2 0x161A PUSH2 0x22E2 JUMP JUMPDEST JUMPDEST PUSH1 0x20 MUL PUSH1 0x20 ADD ADD MLOAD PUSH1 0x40 ADD MLOAD DUP6 DUP4 DUP2 MLOAD DUP2 LT PUSH2 0x163A JUMPI PUSH2 0x1639 PUSH2 0x22E2 JUMP JUMPDEST JUMPDEST PUSH1 0x20 MUL PUSH1 0x20 ADD ADD MLOAD PUSH1 0x40 ADD MLOAD LT ISZERO PUSH2 0x16C4 JUMPI PUSH0 DUP6 DUP4 DUP2 MLOAD DUP2 LT PUSH2 0x1660 JUMPI PUSH2 0x165F PUSH2 0x22E2 JUMP JUMPDEST JUMPDEST PUSH1 0x20 MUL PUSH1 0x20 ADD ADD MLOAD SWAP1 POP DUP6 DUP3 DUP2 MLOAD DUP2 LT PUSH2 0x167D JUMPI PUSH2 0x167C PUSH2 0x22E2 JUMP JUMPDEST JUMPDEST PUSH1 0x20 MUL PUSH1 0x20 ADD ADD MLOAD DUP7 DUP5 DUP2 MLOAD DUP2 LT PUSH2 0x1698 JUMPI PUSH2 0x1697 PUSH2 0x22E2 JUMP JUMPDEST JUMPDEST PUSH1 0x20 MUL PUSH1 0x20 ADD ADD DUP2 SWAP1 MSTORE POP DUP1 DUP7 DUP4 DUP2 MLOAD DUP2 LT PUSH2 0x16B7 JUMPI PUSH2 0x16B6 PUSH2 0x22E2 JUMP JUMPDEST JUMPDEST PUSH1 0x20 MUL PUSH1 0x20 ADD ADD DUP2 SWAP1 MSTORE POP POP JUMPDEST DUP1 DUP1 PUSH1 0x1 ADD SWAP2 POP POP PUSH2 0x1600 JUMP JUMPDEST POP DUP1 DUP1 PUSH1 0x1 ADD SWAP2 POP POP PUSH2 0x15E7 JUMP JUMPDEST POP DUP3 SWAP2 POP POP SWAP2 SWAP1 POP JUMP JUMPDEST PUSH0 DUP1 PUSH0 JUMPDEST PUSH0 DUP1 SLOAD SWAP1 POP DUP2 LT ISZERO PUSH2 0x1787 JUMPI PUSH1 0x40 MLOAD PUSH1 0x20 ADD PUSH2 0x1708 SWAP1 PUSH2 0x2469 JUMP JUMPDEST PUSH1 0x40 MLOAD PUSH1 0x20 DUP2 DUP4 SUB SUB DUP2 MSTORE SWAP1 PUSH1 0x40 MSTORE DUP1 MLOAD SWAP1 PUSH1 0x20 ADD KECCAK256 PUSH0 DUP3 DUP2 SLOAD DUP2 LT PUSH2 0x1731 JUMPI PUSH2 0x1730 PUSH2 0x22E2 JUMP JUMPDEST JUMPDEST SWAP1 PUSH0 MSTORE PUSH1 0x20 PUSH0 KECCAK256 SWAP1 PUSH1 0x5 MUL ADD PUSH1 0x3 ADD PUSH1 0x40 MLOAD PUSH1 0x20 ADD PUSH2 0x1750 SWAP2 SWAP1 PUSH2 0x23A1 JUMP JUMPDEST PUSH1 0x40 MLOAD PUSH1 0x20 DUP2 DUP4 SUB SUB DUP2 MSTORE SWAP1 PUSH1 0x40 MSTORE DUP1 MLOAD SWAP1 PUSH1 0x20 ADD KECCAK256 SUB PUSH2 0x177A JUMPI DUP2 DUP1 PUSH2 0x1776 SWAP1 PUSH2 0x27FC JUMP JUMPDEST SWAP3 POP POP JUMPDEST DUP1 DUP1 PUSH1 0x1 ADD SWAP2 POP POP PUSH2 0x16ED JUMP JUMPDEST POP DUP1 SWAP2 POP POP SWAP1 JUMP JUMPDEST PUSH1 0x60 PUSH1 0x5A DUP3 LT PUSH2 0x17D6 JUMPI PUSH1 0x40 MLOAD DUP1 PUSH1 0x40 ADD PUSH1 0x40 MSTORE DUP1 PUSH1 0x1 DUP2 MSTORE PUSH1 0x20 ADD PUSH32 0x4100000000000000000000000000000000000000000000000000000000000000 DUP2 MSTORE POP SWAP1 POP PUSH2 0x18DE JUMP JUMPDEST PUSH1 0x50 DUP3 LT PUSH2 0x181B JUMPI PUSH1 0x40 MLOAD DUP1 PUSH1 0x40 ADD PUSH1 0x40 MSTORE DUP1 PUSH1 0x1 DUP2 MSTORE PUSH1 0x20 ADD PUSH32 0x4200000000000000000000000000000000000000000000000000000000000000 DUP2 MSTORE POP SWAP1 POP PUSH2 0x18DE JUMP JUMPDEST PUSH1 0x46 DUP3 LT PUSH2 0x1860 JUMPI PUSH1 0x40 MLOAD DUP1 PUSH1 0x40 ADD PUSH1 0x40 MSTORE DUP1 PUSH1 0x1 DUP2 MSTORE PUSH1 0x20 ADD PUSH32 0x4300000000000000000000000000000000000000000000000000000000000000 DUP2 MSTORE POP SWAP1 POP PUSH2 0x18DE JUMP JUMPDEST PUSH1 0x3C DUP3 LT PUSH2 0x18A5 JUMPI PUSH1 0x40 MLOAD DUP1 PUSH1 0x40 ADD PUSH1 0x40 MSTORE DUP1 PUSH1 0x1 DUP2 MSTORE PUSH1 0x20 ADD PUSH32 0x4400000000000000000000000000000000000000000000000000000000000000 DUP2 MSTORE POP SWAP1 POP PUSH2 0x18DE JUMP JUMPDEST PUSH1 0x40 MLOAD DUP1 PUSH1 0x40 ADD PUSH1 0x40 MSTORE DUP1 PUSH1 0x1 DUP2 MSTORE PUSH1 0x20 ADD PUSH32 0x4600000000000000000000000000000000000000000000000000000000000000 DUP2 MSTORE POP SWAP1 POP JUMPDEST SWAP2 SWAP1 POP JUMP JUMPDEST PUSH1 0x40 MLOAD DUP1 PUSH1 0xA0 ADD PUSH1 0x40 MSTORE DUP1 PUSH1 0x60 DUP2 MSTORE PUSH1 0x20 ADD PUSH0 DUP2 MSTORE PUSH1 0x20 ADD PUSH0 DUP2 MSTORE PUSH1 0x20 ADD PUSH1 0x60 DUP2 MSTORE PUSH1 0x20 ADD PUSH1 0x60 DUP2 MSTORE POP SWAP1 JUMP JUMPDEST DUP3 DUP1 SLOAD DUP3 DUP3 SSTORE SWAP1 PUSH0 MSTORE PUSH1 0x20 PUSH0 KECCAK256 SWAP1 DUP2 ADD SWAP3 DUP3 ISZERO PUSH2 0x1956 JUMPI SWAP2 PUSH1 0x20 MUL DUP3 ADD JUMPDEST DUP3 DUP2 GT ISZERO PUSH2 0x1955 JUMPI DUP3 MLOAD DUP3 SWAP1 DUP2 PUSH2 0x1945 SWAP2 SWAP1 PUSH2 0x2670 JUMP JUMPDEST POP SWAP2 PUSH1 0x20 ADD SWAP2 SWAP1 PUSH1 0x1 ADD SWAP1 PUSH2 0x192E JUMP JUMPDEST JUMPDEST POP SWAP1 POP PUSH2 0x1963 SWAP2 SWAP1 PUSH2 0x1967 JUMP JUMPDEST POP SWAP1 JUMP JUMPDEST JUMPDEST DUP1 DUP3 GT ISZERO PUSH2 0x1986 JUMPI PUSH0 DUP2 DUP2 PUSH2 0x197D SWAP2 SWAP1 PUSH2 0x198A JUMP JUMPDEST POP PUSH1 0x1 ADD PUSH2 0x1968 JUMP JUMPDEST POP SWAP1 JUMP JUMPDEST POP DUP1 SLOAD PUSH2 0x1996 SWAP1 PUSH2 0x2262 JUMP JUMPDEST PUSH0 DUP3 SSTORE DUP1 PUSH1 0x1F LT PUSH2 0x19A7 JUMPI POP PUSH2 0x19C4 JUMP JUMPDEST PUSH1 0x1F ADD PUSH1 0x20 SWAP1 DIV SWAP1 PUSH0 MSTORE PUSH1 0x20 PUSH0 KECCAK256 SWAP1 DUP2 ADD SWAP1 PUSH2 0x19C3 SWAP2 SWAP1 PUSH2 0x19C7 JUMP JUMPDEST JUMPDEST POP JUMP JUMPDEST JUMPDEST DUP1 DUP3 GT ISZERO PUSH2 0x19DE JUMPI PUSH0 DUP2 PUSH0 SWAP1 SSTORE POP PUSH1 0x1 ADD PUSH2 0x19C8 JUMP JUMPDEST POP SWAP1 JUMP JUMPDEST PUSH0 PUSH1 0x40 MLOAD SWAP1 POP SWAP1 JUMP JUMPDEST PUSH0 DUP1 REVERT JUMPDEST PUSH0 DUP1 REVERT JUMPDEST PUSH0 DUP2 SWAP1 POP SWAP2 SWAP1 POP JUMP JUMPDEST PUSH2 0x1A05 DUP2 PUSH2 0x19F3 JUMP JUMPDEST DUP2 EQ PUSH2 0x1A0F JUMPI PUSH0 DUP1 REVERT JUMPDEST POP JUMP JUMPDEST PUSH0 DUP2 CALLDATALOAD SWAP1 POP PUSH2 0x1A20 DUP2 PUSH2 0x19FC JUMP JUMPDEST SWAP3 SWAP2 POP POP JUMP JUMPDEST PUSH0 PUSH1 0x20 DUP3 DUP5 SUB SLT ISZERO PUSH2 0x1A3B JUMPI PUSH2 0x1A3A PUSH2 0x19EB JUMP JUMPDEST JUMPDEST PUSH0 PUSH2 0x1A48 DUP5 DUP3 DUP6 ADD PUSH2 0x1A12 JUMP JUMPDEST SWAP2 POP POP SWAP3 SWAP2 POP POP JUMP JUMPDEST PUSH0 DUP2 MLOAD SWAP1 POP SWAP2 SWAP1 POP JUMP JUMPDEST PUSH0 DUP3 DUP3 MSTORE PUSH1 0x20 DUP3 ADD SWAP1 POP SWAP3 SWAP2 POP POP JUMP JUMPDEST DUP3 DUP2 DUP4 MCOPY PUSH0 DUP4 DUP4 ADD MSTORE POP POP POP JUMP JUMPDEST PUSH0 PUSH1 0x1F NOT PUSH1 0x1F DUP4 ADD AND SWAP1 POP SWAP2 SWAP1 POP JUMP JUMPDEST PUSH0 PUSH2 0x1A93 DUP3 PUSH2 0x1A51 JUMP JUMPDEST PUSH2 0x1A9D DUP2 DUP6 PUSH2 0x1A5B JUMP JUMPDEST SWAP4 POP PUSH2 0x1AAD DUP2 DUP6 PUSH1 0x20 DUP7 ADD PUSH2 0x1A6B JUMP JUMPDEST PUSH2 0x1AB6 DUP2 PUSH2 0x1A79 JUMP JUMPDEST DUP5 ADD SWAP2 POP POP SWAP3 SWAP2 POP POP JUMP JUMPDEST PUSH2 0x1ACA DUP2 PUSH2 0x19F3 JUMP JUMPDEST DUP3 MSTORE POP POP JUMP JUMPDEST PUSH0 PUSH1 0x80 DUP3 ADD SWAP1 POP DUP2 DUP2 SUB PUSH0 DUP4 ADD MSTORE PUSH2 0x1AE8 DUP2 DUP8 PUSH2 0x1A89 JUMP JUMPDEST SWAP1 POP PUSH2 0x1AF7 PUSH1 0x20 DUP4 ADD DUP7 PUSH2 0x1AC1 JUMP JUMPDEST PUSH2 0x1B04 PUSH1 0x40 DUP4 ADD DUP6 PUSH2 0x1AC1 JUMP JUMPDEST DUP2 DUP2 SUB PUSH1 0x60 DUP4 ADD MSTORE PUSH2 0x1B16 DUP2 DUP5 PUSH2 0x1A89 JUMP JUMPDEST SWAP1 POP SWAP6 SWAP5 POP POP POP POP POP JUMP JUMPDEST PUSH0 DUP2 ISZERO ISZERO SWAP1 POP SWAP2 SWAP1 POP JUMP JUMPDEST PUSH2 0x1B35 DUP2 PUSH2 0x1B21 JUMP JUMPDEST DUP3 MSTORE POP POP JUMP JUMPDEST PUSH0 PUSH1 0x20 DUP3 ADD SWAP1 POP PUSH2 0x1B4E PUSH0 DUP4 ADD DUP5 PUSH2 0x1B2C JUMP JUMPDEST SWAP3 SWAP2 POP POP JUMP JUMPDEST PUSH0 DUP1 REVERT JUMPDEST PUSH0 DUP1 REVERT JUMPDEST PUSH32 0x4E487B7100000000000000000000000000000000000000000000000000000000 PUSH0 MSTORE PUSH1 0x41 PUSH1 0x4 MSTORE PUSH1 0x24 PUSH0 REVERT JUMPDEST PUSH2 0x1B92 DUP3 PUSH2 0x1A79 JUMP JUMPDEST DUP2 ADD DUP2 DUP2 LT PUSH8 0xFFFFFFFFFFFFFFFF DUP3 GT OR ISZERO PUSH2 0x1BB1 JUMPI PUSH2 0x1BB0 PUSH2 0x1B5C JUMP JUMPDEST JUMPDEST DUP1 PUSH1 0x40 MSTORE POP POP POP JUMP JUMPDEST PUSH0 PUSH2 0x1BC3 PUSH2 0x19E2 JUMP JUMPDEST SWAP1 POP PUSH2 0x1BCF DUP3 DUP3 PUSH2 0x1B89 JUMP JUMPDEST SWAP2 SWAP1 POP JUMP JUMPDEST PUSH0 PUSH8 0xFFFFFFFFFFFFFFFF DUP3 GT ISZERO PUSH2 0x1BEE JUMPI PUSH2 0x1BED PUSH2 0x1B5C JUMP JUMPDEST JUMPDEST PUSH2 0x1BF7 DUP3 PUSH2 0x1A79 JUMP JUMPDEST SWAP1 POP PUSH1 0x20 DUP2 ADD SWAP1 POP SWAP2 SWAP1 POP JUMP JUMPDEST DUP3 DUP2 DUP4 CALLDATACOPY PUSH0 DUP4 DUP4 ADD MSTORE POP POP POP JUMP JUMPDEST PUSH0 PUSH2 0x1C24 PUSH2 0x1C1F DUP5 PUSH2 0x1BD4 JUMP JUMPDEST PUSH2 0x1BBA JUMP JUMPDEST SWAP1 POP DUP3 DUP2 MSTORE PUSH1 0x20 DUP2 ADD DUP5 DUP5 DUP5 ADD GT ISZERO PUSH2 0x1C40 JUMPI PUSH2 0x1C3F PUSH2 0x1B58 JUMP JUMPDEST JUMPDEST PUSH2 0x1C4B DUP5 DUP3 DUP6 PUSH2 0x1C04 JUMP JUMPDEST POP SWAP4 SWAP3 POP POP POP JUMP JUMPDEST PUSH0 DUP3 PUSH1 0x1F DUP4 ADD SLT PUSH2 0x1C67 JUMPI PUSH2 0x1C66 PUSH2 0x1B54 JUMP JUMPDEST JUMPDEST DUP2 CALLDATALOAD PUSH2 0x1C77 DUP5 DUP3 PUSH1 0x20 DUP7 ADD PUSH2 0x1C12 JUMP JUMPDEST SWAP2 POP POP SWAP3 SWAP2 POP POP JUMP JUMPDEST PUSH0 PUSH1 0x20 DUP3 DUP5 SUB SLT ISZERO PUSH2 0x1C95 JUMPI PUSH2 0x1C94 PUSH2 0x19EB JUMP JUMPDEST JUMPDEST PUSH0 DUP3 ADD CALLDATALOAD PUSH8 0xFFFFFFFFFFFFFFFF DUP2 GT ISZERO PUSH2 0x1CB2 JUMPI PUSH2 0x1CB1 PUSH2 0x19EF JUMP JUMPDEST JUMPDEST PUSH2 0x1CBE DUP5 DUP3 DUP6 ADD PUSH2 0x1C53 JUMP JUMPDEST SWAP2 POP POP SWAP3 SWAP2 POP POP JUMP JUMPDEST PUSH0 PUSH1 0x20 DUP3 ADD SWAP1 POP PUSH2 0x1CDA PUSH0 DUP4 ADD DUP5 PUSH2 0x1AC1 JUMP JUMPDEST SWAP3 SWAP2 POP POP JUMP JUMPDEST PUSH0 DUP2 MLOAD SWAP1 POP SWAP2 SWAP1 POP JUMP JUMPDEST PUSH0 DUP3 DUP3 MSTORE PUSH1 0x20 DUP3 ADD SWAP1 POP SWAP3 SWAP2 POP POP JUMP JUMPDEST PUSH0 DUP2 SWAP1 POP PUSH1 0x20 DUP3 ADD SWAP1 POP SWAP2 SWAP1 POP JUMP JUMPDEST PUSH0 DUP3 DUP3 MSTORE PUSH1 0x20 DUP3 ADD SWAP1 POP SWAP3 SWAP2 POP POP JUMP JUMPDEST PUSH0 PUSH2 0x1D23 DUP3 PUSH2 0x1A51 JUMP JUMPDEST PUSH2 0x1D2D DUP2 DUP6 PUSH2 0x1D09 JUMP JUMPDEST SWAP4 POP PUSH2 0x1D3D DUP2 DUP6 PUSH1 0x20 DUP7 ADD PUSH2 0x1A6B JUMP JUMPDEST PUSH2 0x1D46 DUP2 PUSH2 0x1A79 JUMP JUMPDEST DUP5 ADD SWAP2 POP POP SWAP3 SWAP2 POP POP JUMP JUMPDEST PUSH2 0x1D5A DUP2 PUSH2 0x19F3 JUMP JUMPDEST DUP3 MSTORE POP POP JUMP JUMPDEST PUSH0 DUP2 MLOAD SWAP1 POP SWAP2 SWAP1 POP JUMP JUMPDEST PUSH0 DUP3 DUP3 MSTORE PUSH1 0x20 DUP3 ADD SWAP1 POP SWAP3 SWAP2 POP POP JUMP JUMPDEST PUSH0 DUP2 SWAP1 POP PUSH1 0x20 DUP3 ADD SWAP1 POP SWAP2 SWAP1 POP JUMP JUMPDEST PUSH0 PUSH2 0x1D94 DUP4 DUP4 PUSH2 0x1D19 JUMP JUMPDEST SWAP1 POP SWAP3 SWAP2 POP POP JUMP JUMPDEST PUSH0 PUSH1 0x20 DUP3 ADD SWAP1 POP SWAP2 SWAP1 POP JUMP JUMPDEST PUSH0 PUSH2 0x1DB2 DUP3 PUSH2 0x1D60 JUMP JUMPDEST PUSH2 0x1DBC DUP2 DUP6 PUSH2 0x1D6A JUMP JUMPDEST SWAP4 POP DUP4 PUSH1 0x20 DUP3 MUL DUP6 ADD PUSH2 0x1DCE DUP6 PUSH2 0x1D7A JUMP JUMPDEST DUP1 PUSH0 JUMPDEST DUP6 DUP2 LT ISZERO PUSH2 0x1E09 JUMPI DUP5 DUP5 SUB DUP10 MSTORE DUP2 MLOAD PUSH2 0x1DEA DUP6 DUP3 PUSH2 0x1D89 JUMP JUMPDEST SWAP5 POP PUSH2 0x1DF5 DUP4 PUSH2 0x1D9C JUMP JUMPDEST SWAP3 POP PUSH1 0x20 DUP11 ADD SWAP10 POP POP PUSH1 0x1 DUP2 ADD SWAP1 POP PUSH2 0x1DD1 JUMP JUMPDEST POP DUP3 SWAP8 POP DUP8 SWAP6 POP POP POP POP POP POP SWAP3 SWAP2 POP POP JUMP JUMPDEST PUSH0 PUSH1 0xA0 DUP4 ADD PUSH0 DUP4 ADD MLOAD DUP5 DUP3 SUB PUSH0 DUP7 ADD MSTORE PUSH2 0x1E35 DUP3 DUP3 PUSH2 0x1D19 JUMP JUMPDEST SWAP2 POP POP PUSH1 0x20 DUP4 ADD MLOAD PUSH2 0x1E4A PUSH1 0x20 DUP7 ADD DUP3 PUSH2 0x1D51 JUMP JUMPDEST POP PUSH1 0x40 DUP4 ADD MLOAD PUSH2 0x1E5D PUSH1 0x40 DUP7 ADD DUP3 PUSH2 0x1D51 JUMP JUMPDEST POP PUSH1 0x60 DUP4 ADD MLOAD DUP5 DUP3 SUB PUSH1 0x60 DUP7 ADD MSTORE PUSH2 0x1E75 DUP3 DUP3 PUSH2 0x1D19 JUMP JUMPDEST SWAP2 POP POP PUSH1 0x80 DUP4 ADD MLOAD DUP5 DUP3 SUB PUSH1 0x80 DUP7 ADD MSTORE PUSH2 0x1E8F DUP3 DUP3 PUSH2 0x1DA8 JUMP JUMPDEST SWAP2 POP POP DUP1 SWAP2 POP POP SWAP3 SWAP2 POP POP JUMP JUMPDEST PUSH0 PUSH2 0x1EA7 DUP4 DUP4 PUSH2 0x1E1B JUMP JUMPDEST SWAP1 POP SWAP3 SWAP2 POP POP JUMP JUMPDEST PUSH0 PUSH1 0x20 DUP3 ADD SWAP1 POP SWAP2 SWAP1 POP JUMP JUMPDEST PUSH0 PUSH2 0x1EC5 DUP3 PUSH2 0x1CE0 JUMP JUMPDEST PUSH2 0x1ECF DUP2 DUP6 PUSH2 0x1CEA JUMP JUMPDEST SWAP4 POP DUP4 PUSH1 0x20 DUP3 MUL DUP6 ADD PUSH2 0x1EE1 DUP6 PUSH2 0x1CFA JUMP JUMPDEST DUP1 PUSH0 JUMPDEST DUP6 DUP2 LT ISZERO PUSH2 0x1F1C JUMPI DUP5 DUP5 SUB DUP10 MSTORE DUP2 MLOAD PUSH2 0x1EFD DUP6 DUP3 PUSH2 0x1E9C JUMP JUMPDEST SWAP5 POP PUSH2 0x1F08 DUP4 PUSH2 0x1EAF JUMP JUMPDEST SWAP3 POP PUSH1 0x20 DUP11 ADD SWAP10 POP POP PUSH1 0x1 DUP2 ADD SWAP1 POP PUSH2 0x1EE4 JUMP JUMPDEST POP DUP3 SWAP8 POP DUP8 SWAP6 POP POP POP POP POP POP SWAP3 SWAP2 POP POP JUMP JUMPDEST PUSH0 PUSH1 0x20 DUP3 ADD SWAP1 POP DUP2 DUP2 SUB PUSH0 DUP4 ADD MSTORE PUSH2 0x1F46 DUP2 DUP5 PUSH2 0x1EBB JUMP JUMPDEST SWAP1 POP SWAP3 SWAP2 POP POP JUMP JUMPDEST PUSH0 PUSH1 0xA0 DUP4 ADD PUSH0 DUP4 ADD MLOAD DUP5 DUP3 SUB PUSH0 DUP7 ADD MSTORE PUSH2 0x1F68 DUP3 DUP3 PUSH2 0x1D19 JUMP JUMPDEST SWAP2 POP POP PUSH1 0x20 DUP4 ADD MLOAD PUSH2 0x1F7D PUSH1 0x20 DUP7 ADD DUP3 PUSH2 0x1D51 JUMP JUMPDEST POP PUSH1 0x40 DUP4 ADD MLOAD PUSH2 0x1F90 PUSH1 0x40 DUP7 ADD DUP3 PUSH2 0x1D51 JUMP JUMPDEST POP PUSH1 0x60 DUP4 ADD MLOAD DUP5 DUP3 SUB PUSH1 0x60 DUP7 ADD MSTORE PUSH2 0x1FA8 DUP3 DUP3 PUSH2 0x1D19 JUMP JUMPDEST SWAP2 POP POP PUSH1 0x80 DUP4 ADD MLOAD DUP5 DUP3 SUB PUSH1 0x80 DUP7 ADD MSTORE PUSH2 0x1FC2 DUP3 DUP3 PUSH2 0x1DA8 JUMP JUMPDEST SWAP2 POP POP DUP1 SWAP2 POP POP SWAP3 SWAP2 POP POP JUMP JUMPDEST PUSH0 PUSH1 0x20 DUP3 ADD SWAP1 POP DUP2 DUP2 SUB PUSH0 DUP4 ADD MSTORE PUSH2 0x1FE7 DUP2 DUP5 PUSH2 0x1F4E JUMP JUMPDEST SWAP1 POP SWAP3 SWAP2 POP POP JUMP JUMPDEST PUSH0 PUSH8 0xFFFFFFFFFFFFFFFF DUP3 GT ISZERO PUSH2 0x2009 JUMPI PUSH2 0x2008 PUSH2 0x1B5C JUMP JUMPDEST JUMPDEST PUSH1 0x20 DUP3 MUL SWAP1 POP PUSH1 0x20 DUP2 ADD SWAP1 POP SWAP2 SWAP1 POP JUMP JUMPDEST PUSH0 DUP1 REVERT JUMPDEST PUSH0 PUSH2 0x2030 PUSH2 0x202B DUP5 PUSH2 0x1FEF JUMP JUMPDEST PUSH2 0x1BBA JUMP JUMPDEST SWAP1 POP DUP1 DUP4 DUP3 MSTORE PUSH1 0x20 DUP3 ADD SWAP1 POP PUSH1 0x20 DUP5 MUL DUP4 ADD DUP6 DUP2 GT ISZERO PUSH2 0x2053 JUMPI PUSH2 0x2052 PUSH2 0x201A JUMP JUMPDEST JUMPDEST DUP4 JUMPDEST DUP2 DUP2 LT ISZERO PUSH2 0x209A JUMPI DUP1 CALLDATALOAD PUSH8 0xFFFFFFFFFFFFFFFF DUP2 GT ISZERO PUSH2 0x2078 JUMPI PUSH2 0x2077 PUSH2 0x1B54 JUMP JUMPDEST JUMPDEST DUP1 DUP7 ADD PUSH2 0x2085 DUP10 DUP3 PUSH2 0x1C53 JUMP JUMPDEST DUP6 MSTORE PUSH1 0x20 DUP6 ADD SWAP5 POP POP POP PUSH1 0x20 DUP2 ADD SWAP1 POP PUSH2 0x2055 JUMP JUMPDEST POP POP POP SWAP4 SWAP3 POP POP POP JUMP JUMPDEST PUSH0 DUP3 PUSH1 0x1F DUP4 ADD SLT PUSH2 0x20B8 JUMPI PUSH2 0x20B7 PUSH2 0x1B54 JUMP JUMPDEST JUMPDEST DUP2 CALLDATALOAD PUSH2 0x20C8 DUP5 DUP3 PUSH1 0x20 DUP7 ADD PUSH2 0x201E JUMP JUMPDEST SWAP2 POP POP SWAP3 SWAP2 POP POP JUMP JUMPDEST PUSH0 DUP1 PUSH0 DUP1 PUSH1 0x80 DUP6 DUP8 SUB SLT ISZERO PUSH2 0x20E9 JUMPI PUSH2 0x20E8 PUSH2 0x19EB JUMP JUMPDEST JUMPDEST PUSH0 DUP6 ADD CALLDATALOAD PUSH8 0xFFFFFFFFFFFFFFFF DUP2 GT ISZERO PUSH2 0x2106 JUMPI PUSH2 0x2105 PUSH2 0x19EF JUMP JUMPDEST JUMPDEST PUSH2 0x2112 DUP8 DUP3 DUP9 ADD PUSH2 0x1C53 JUMP JUMPDEST SWAP5 POP POP PUSH1 0x20 PUSH2 0x2123 DUP8 DUP3 DUP9 ADD PUSH2 0x1A12 JUMP JUMPDEST SWAP4 POP POP PUSH1 0x40 PUSH2 0x2134 DUP8 DUP3 DUP9 ADD PUSH2 0x1A12 JUMP JUMPDEST SWAP3 POP POP PUSH1 0x60 DUP6 ADD CALLDATALOAD PUSH8 0xFFFFFFFFFFFFFFFF DUP2 GT ISZERO PUSH2 0x2155 JUMPI PUSH2 0x2154 PUSH2 0x19EF JUMP JUMPDEST JUMPDEST PUSH2 0x2161 DUP8 DUP3 DUP9 ADD PUSH2 0x20A4 JUMP JUMPDEST SWAP2 POP POP SWAP3 SWAP6 SWAP2 SWAP5 POP SWAP3 POP JUMP JUMPDEST PUSH0 DUP2 MLOAD SWAP1 POP SWAP2 SWAP1 POP JUMP JUMPDEST PUSH0 DUP3 DUP3 MSTORE PUSH1 0x20 DUP3 ADD SWAP1 POP SWAP3 SWAP2 POP POP JUMP JUMPDEST PUSH0 DUP2 SWAP1 POP PUSH1 0x20 DUP3 ADD SWAP1 POP SWAP2 SWAP1 POP JUMP JUMPDEST PUSH0 PUSH2 0x21A1 DUP4 DUP4 PUSH2 0x1D51 JUMP JUMPDEST PUSH1 0x20 DUP4 ADD SWAP1 POP SWAP3 SWAP2 POP POP JUMP JUMPDEST PUSH0 PUSH1 0x20 DUP3 ADD SWAP1 POP SWAP2 SWAP1 POP JUMP JUMPDEST PUSH0 PUSH2 0x21C3 DUP3 PUSH2 0x216D JUMP JUMPDEST PUSH2 0x21CD DUP2 DUP6 PUSH2 0x2177 JUMP JUMPDEST SWAP4 POP PUSH2 0x21D8 DUP4 PUSH2 0x2187 JUMP JUMPDEST DUP1 PUSH0 JUMPDEST DUP4 DUP2 LT ISZERO PUSH2 0x2208 JUMPI DUP2 MLOAD PUSH2 0x21EF DUP9 DUP3 PUSH2 0x2196 JUMP JUMPDEST SWAP8 POP PUSH2 0x21FA DUP4 PUSH2 0x21AD JUMP JUMPDEST SWAP3 POP POP PUSH1 0x1 DUP2 ADD SWAP1 POP PUSH2 0x21DB JUMP JUMPDEST POP DUP6 SWAP4 POP POP POP POP SWAP3 SWAP2 POP POP JUMP JUMPDEST PUSH0 PUSH1 0x20 DUP3 ADD SWAP1 POP DUP2 DUP2 SUB PUSH0 DUP4 ADD MSTORE PUSH2 0x222D DUP2 DUP5 PUSH2 0x21B9 JUMP JUMPDEST SWAP1 POP SWAP3 SWAP2 POP POP JUMP JUMPDEST PUSH32 0x4E487B7100000000000000000000000000000000000000000000000000000000 PUSH0 MSTORE PUSH1 0x22 PUSH1 0x4 MSTORE PUSH1 0x24 PUSH0 REVERT JUMPDEST PUSH0 PUSH1 0x2 DUP3 DIV SWAP1 POP PUSH1 0x1 DUP3 AND DUP1 PUSH2 0x2279 JUMPI PUSH1 0x7F DUP3 AND SWAP2 POP JUMPDEST PUSH1 0x20 DUP3 LT DUP2 SUB PUSH2 0x228C JUMPI PUSH2 0x228B PUSH2 0x2235 JUMP JUMPDEST JUMPDEST POP SWAP2 SWAP1 POP JUMP JUMPDEST PUSH0 DUP2 SWAP1 POP SWAP3 SWAP2 POP POP JUMP JUMPDEST PUSH0 PUSH2 0x22A6 DUP3 PUSH2 0x1A51 JUMP JUMPDEST PUSH2 0x22B0 DUP2 DUP6 PUSH2 0x2292 JUMP JUMPDEST SWAP4 POP PUSH2 0x22C0 DUP2 DUP6 PUSH1 0x20 DUP7 ADD PUSH2 0x1A6B JUMP JUMPDEST DUP1 DUP5 ADD SWAP2 POP POP SWAP3 SWAP2 POP POP JUMP JUMPDEST PUSH0 PUSH2 0x22D7 DUP3 DUP5 PUSH2 0x229C JUMP JUMPDEST SWAP2 POP DUP2 SWAP1 POP SWAP3 SWAP2 POP POP JUMP JUMPDEST PUSH32 0x4E487B7100000000000000000000000000000000000000000000000000000000 PUSH0 MSTORE PUSH1 0x32 PUSH1 0x4 MSTORE PUSH1 0x24 PUSH0 REVERT JUMPDEST PUSH0 DUP2 SWAP1 POP DUP2 PUSH0 MSTORE PUSH1 0x20 PUSH0 KECCAK256 SWAP1 POP SWAP2 SWAP1 POP JUMP JUMPDEST PUSH0 DUP2 SLOAD PUSH2 0x232D DUP2 PUSH2 0x2262 JUMP JUMPDEST PUSH2 0x2337 DUP2 DUP7 PUSH2 0x2292 JUMP JUMPDEST SWAP5 POP PUSH1 0x1 DUP3 AND PUSH0 DUP2 EQ PUSH2 0x2351 JUMPI PUSH1 0x1 DUP2 EQ PUSH2 0x2366 JUMPI PUSH2 0x2398 JUMP JUMPDEST PUSH1 0xFF NOT DUP4 AND DUP7 MSTORE DUP2 ISZERO ISZERO DUP3 MUL DUP7 ADD SWAP4 POP PUSH2 0x2398 JUMP JUMPDEST PUSH2 0x236F DUP6 PUSH2 0x230F JUMP JUMPDEST PUSH0 JUMPDEST DUP4 DUP2 LT ISZERO PUSH2 0x2390 JUMPI DUP2 SLOAD DUP2 DUP10 ADD MSTORE PUSH1 0x1 DUP3 ADD SWAP2 POP PUSH1 0x20 DUP2 ADD SWAP1 POP PUSH2 0x2371 JUMP JUMPDEST DUP4 DUP9 ADD SWAP6 POP POP POP JUMPDEST POP POP POP SWAP3 SWAP2 POP POP JUMP JUMPDEST PUSH0 PUSH2 0x23AC DUP3 DUP5 PUSH2 0x2321 JUMP JUMPDEST SWAP2 POP DUP2 SWAP1 POP SWAP3 SWAP2 POP POP JUMP JUMPDEST PUSH32 0x4E6F2073747564656E7420776974682074686520676976656E206E616D650000 PUSH0 DUP3 ADD MSTORE POP JUMP JUMPDEST PUSH0 PUSH2 0x23EB PUSH1 0x1E DUP4 PUSH2 0x1A5B JUMP JUMPDEST SWAP2 POP PUSH2 0x23F6 DUP3 PUSH2 0x23B7 JUMP JUMPDEST PUSH1 0x20 DUP3 ADD SWAP1 POP SWAP2 SWAP1 POP JUMP JUMPDEST PUSH0 PUSH1 0x20 DUP3 ADD SWAP1 POP DUP2 DUP2 SUB PUSH0 DUP4 ADD MSTORE PUSH2 0x2418 DUP2 PUSH2 0x23DF JUMP JUMPDEST SWAP1 POP SWAP2 SWAP1 POP JUMP JUMPDEST PUSH32 0x4600000000000000000000000000000000000000000000000000000000000000 PUSH0 DUP3 ADD MSTORE POP JUMP JUMPDEST PUSH0 PUSH2 0x2453 PUSH1 0x1 DUP4 PUSH2 0x2292 JUMP JUMPDEST SWAP2 POP PUSH2 0x245E DUP3 PUSH2 0x241F JUMP JUMPDEST PUSH1 0x1 DUP3 ADD SWAP1 POP SWAP2 SWAP1 POP JUMP JUMPDEST PUSH0 PUSH2 0x2473 DUP3 PUSH2 0x2447 JUMP JUMPDEST SWAP2 POP DUP2 SWAP1 POP SWAP2 SWAP1 POP JUMP JUMPDEST PUSH32 0x4E6F2073747564656E7420776974682074686520676976656E206E756D626572 PUSH0 DUP3 ADD MSTORE POP JUMP JUMPDEST PUSH0 PUSH2 0x24B1 PUSH1 0x20 DUP4 PUSH2 0x1A5B JUMP JUMPDEST SWAP2 POP PUSH2 0x24BC DUP3 PUSH2 0x247D JUMP JUMPDEST PUSH1 0x20 DUP3 ADD SWAP1 POP SWAP2 SWAP1 POP JUMP JUMPDEST PUSH0 PUSH1 0x20 DUP3 ADD SWAP1 POP DUP2 DUP2 SUB PUSH0 DUP4 ADD MSTORE PUSH2 0x24DE DUP2 PUSH2 0x24A5 JUMP JUMPDEST SWAP1 POP SWAP2 SWAP1 POP JUMP JUMPDEST PUSH0 PUSH1 0x20 PUSH1 0x1F DUP4 ADD DIV SWAP1 POP SWAP2 SWAP1 POP JUMP JUMPDEST PUSH0 DUP3 DUP3 SHL SWAP1 POP SWAP3 SWAP2 POP POP JUMP JUMPDEST PUSH0 PUSH1 0x8 DUP4 MUL PUSH2 0x252F PUSH32 0xFFFFFFFFFFFFFFFFFFFFFFFFFFFFFFFFFFFFFFFFFFFFFFFFFFFFFFFFFFFFFFFF DUP3 PUSH2 0x24F4 JUMP JUMPDEST PUSH2 0x2539 DUP7 DUP4 PUSH2 0x24F4 JUMP JUMPDEST SWAP6 POP DUP1 NOT DUP5 AND SWAP4 POP DUP1 DUP7 AND DUP5 OR SWAP3 POP POP POP SWAP4 SWAP3 POP POP POP JUMP JUMPDEST PUSH0 DUP2 SWAP1 POP SWAP2 SWAP1 POP JUMP JUMPDEST PUSH0 PUSH2 0x2574 PUSH2 0x256F PUSH2 0x256A DUP5 PUSH2 0x19F3 JUMP JUMPDEST PUSH2 0x2551 JUMP JUMPDEST PUSH2 0x19F3 JUMP JUMPDEST SWAP1 POP SWAP2 SWAP1 POP JUMP JUMPDEST PUSH0 DUP2 SWAP1 POP SWAP2 SWAP1 POP JUMP JUMPDEST PUSH2 0x258D DUP4 PUSH2 0x255A JUMP JUMPDEST PUSH2 0x25A1 PUSH2 0x2599 DUP3 PUSH2 0x257B JUMP JUMPDEST DUP5 DUP5 SLOAD PUSH2 0x2500 JUMP JUMPDEST DUP3 SSTORE POP POP POP POP JUMP JUMPDEST PUSH0 SWAP1 JUMP JUMPDEST PUSH2 0x25B5 PUSH2 0x25A9 JUMP JUMPDEST PUSH2 0x25C0 DUP2 DUP5 DUP5 PUSH2 0x2584 JUMP JUMPDEST POP POP POP JUMP JUMPDEST JUMPDEST DUP2 DUP2 LT ISZERO PUSH2 0x25E3 JUMPI PUSH2 0x25D8 PUSH0 DUP3 PUSH2 0x25AD JUMP JUMPDEST PUSH1 0x1 DUP2 ADD SWAP1 POP PUSH2 0x25C6 JUMP JUMPDEST POP POP JUMP JUMPDEST PUSH1 0x1F DUP3 GT ISZERO PUSH2 0x2628 JUMPI PUSH2 0x25F9 DUP2 PUSH2 0x230F JUMP JUMPDEST PUSH2 0x2602 DUP5 PUSH2 0x24E5 JUMP JUMPDEST DUP2 ADD PUSH1 0x20 DUP6 LT ISZERO PUSH2 0x2611 JUMPI DUP2 SWAP1 POP JUMPDEST PUSH2 0x2625 PUSH2 0x261D DUP6 PUSH2 0x24E5 JUMP JUMPDEST DUP4 ADD DUP3 PUSH2 0x25C5 JUMP JUMPDEST POP POP JUMPDEST POP POP POP JUMP JUMPDEST PUSH0 DUP3 DUP3 SHR SWAP1 POP SWAP3 SWAP2 POP POP JUMP JUMPDEST PUSH0 PUSH2 0x2648 PUSH0 NOT DUP5 PUSH1 0x8 MUL PUSH2 0x262D JUMP JUMPDEST NOT DUP1 DUP4 AND SWAP2 POP POP SWAP3 SWAP2 POP POP JUMP JUMPDEST PUSH0 PUSH2 0x2660 DUP4 DUP4 PUSH2 0x2639 JUMP JUMPDEST SWAP2 POP DUP3 PUSH1 0x2 MUL DUP3 OR SWAP1 POP SWAP3 SWAP2 POP POP JUMP JUMPDEST PUSH2 0x2679 DUP3 PUSH2 0x1A51 JUMP JUMPDEST PUSH8 0xFFFFFFFFFFFFFFFF DUP2 GT ISZERO PUSH2 0x2692 JUMPI PUSH2 0x2691 PUSH2 0x1B5C JUMP JUMPDEST JUMPDEST PUSH2 0x269C DUP3 SLOAD PUSH2 0x2262 JUMP JUMPDEST PUSH2 0x26A7 DUP3 DUP3 DUP6 PUSH2 0x25E7 JUMP JUMPDEST PUSH0 PUSH1 0x20 SWAP1 POP PUSH1 0x1F DUP4 GT PUSH1 0x1 DUP2 EQ PUSH2 0x26D8 JUMPI PUSH0 DUP5 ISZERO PUSH2 0x26C6 JUMPI DUP3 DUP8 ADD MLOAD SWAP1 POP JUMPDEST PUSH2 0x26D0 DUP6 DUP3 PUSH2 0x2655 JUMP JUMPDEST DUP7 SSTORE POP PUSH2 0x2737 JUMP JUMPDEST PUSH1 0x1F NOT DUP5 AND PUSH2 0x26E6 DUP7 PUSH2 0x230F JUMP JUMPDEST PUSH0 JUMPDEST DUP3 DUP2 LT ISZERO PUSH2 0x270D JUMPI DUP5 DUP10 ADD MLOAD DUP3 SSTORE PUSH1 0x1 DUP3 ADD SWAP2 POP PUSH1 0x20 DUP6 ADD SWAP5 POP PUSH1 0x20 DUP2 ADD SWAP1 POP PUSH2 0x26E8 JUMP JUMPDEST DUP7 DUP4 LT ISZERO PUSH2 0x272A JUMPI DUP5 DUP10 ADD MLOAD PUSH2 0x2726 PUSH1 0x1F DUP10 AND DUP3 PUSH2 0x2639 JUMP JUMPDEST DUP4 SSTORE POP JUMPDEST PUSH1 0x1 PUSH1 0x2 DUP9 MUL ADD DUP9 SSTORE POP POP POP JUMPDEST POP POP POP POP POP POP JUMP JUMPDEST PUSH32 0x4E487B7100000000000000000000000000000000000000000000000000000000 PUSH0 MSTORE PUSH1 0x11 PUSH1 0x4 MSTORE PUSH1 0x24 PUSH0 REVERT JUMPDEST PUSH0 PUSH2 0x2776 DUP3 PUSH2 0x19F3 JUMP JUMPDEST SWAP2 POP PUSH2 0x2781 DUP4 PUSH2 0x19F3 JUMP JUMPDEST SWAP3 POP DUP3 DUP3 ADD SWAP1 POP DUP1 DUP3 GT ISZERO PUSH2 0x2799 JUMPI PUSH2 0x2798 PUSH2 0x273F JUMP JUMPDEST JUMPDEST SWAP3 SWAP2 POP POP JUMP JUMPDEST PUSH32 0x4E487B7100000000000000000000000000000000000000000000000000000000 PUSH0 MSTORE PUSH1 0x12 PUSH1 0x4 MSTORE PUSH1 0x24 PUSH0 REVERT JUMPDEST PUSH0 PUSH2 0x27D6 DUP3 PUSH2 0x19F3 JUMP JUMPDEST SWAP2 POP PUSH2 0x27E1 DUP4 PUSH2 0x19F3 JUMP JUMPDEST SWAP3 POP DUP3 PUSH2 0x27F1 JUMPI PUSH2 0x27F0 PUSH2 0x279F JUMP JUMPDEST JUMPDEST DUP3 DUP3 DIV SWAP1 POP SWAP3 SWAP2 POP POP JUMP JUMPDEST PUSH0 PUSH2 0x2806 DUP3 PUSH2 0x19F3 JUMP JUMPDEST SWAP2 POP PUSH32 0xFFFFFFFFFFFFFFFFFFFFFFFFFFFFFFFFFFFFFFFFFFFFFFFFFFFFFFFFFFFFFFFF DUP3 SUB PUSH2 0x2838 JUMPI PUSH2 0x2837 PUSH2 0x273F JUMP JUMPDEST JUMPDEST PUSH1 0x1 DUP3 ADD SWAP1 POP SWAP2 SWAP1 POP JUMP INVALID LOG2 PUSH5 0x6970667358 0x22 SLT KECCAK256 PUSH23 0x2F6494166DC6E3D0A807F950F3CB0DF05B0DC7FD18719D 0xC RETURNDATASIZE 0xEB SWAP12 MUL RETURN REVERT LOG1 PUSH5 0x736F6C6343 STOP ADDMOD BYTE STOP CALLER "
				},
				"gasEstimates": {
					"creation": {
						"codeDepositCost": "2072200",
						"executionCost": "2198",
						"totalCost": "2074398"
					},
					"external": {
						"addStudent(string,uint256,uint256,string[])": "infinite",
						"evaluateTeacher()": "infinite",
						"findStudentByName(string)": "infinite",
						"findStudentByNumber(uint256)": "infinite",
						"findStudentScoerByName(string)": "infinite",
						"getAllStudents()": "infinite",
						"getAllStudentsNumber()": "infinite",
						"getFStudents()": "infinite",
						"getSStudents()": "infinite",
						"getScoreAVG()": "infinite",
						"students(uint256)": "infinite"
					},
					"internal": {
						"calculateGrade(uint256)": "infinite",
						"findFStudnetsTotal()": "infinite",
						"sortStudentsByScore(struct TEACHER.STUDENT memory[] memory)": "infinite"
					}
				},
				"methodIdentifiers": {
					"addStudent(string,uint256,uint256,string[])": "a4545c0d",
					"evaluateTeacher()": "27f7c259",
					"findStudentByName(string)": "d73ce6c1",
					"findStudentByNumber(uint256)": "a13a1c13",
					"findStudentScoerByName(string)": "3a0202ab",
					"getAllStudents()": "e9e30927",
					"getAllStudentsNumber()": "ec08df36",
					"getFStudents()": "98463c74",
					"getSStudents()": "3c51cdca",
					"getScoreAVG()": "f8c8dee8",
					"students(uint256)": "06ead22e"
				}
			},
			"storageLayout": {
				"storage": [
					{
						"astId": 17,
						"contract": "codingtest/codingtest_241231.sol:TEACHER",
						"label": "students",
						"offset": 0,
						"slot": "0",
						"type": "t_array(t_struct(STUDENT)13_storage)dyn_storage"
					}
				],
				"types": {
					"t_array(t_string_storage)dyn_storage": {
						"base": "t_string_storage",
						"encoding": "dynamic_array",
						"label": "string[]",
						"numberOfBytes": "32"
					},
					"t_array(t_struct(STUDENT)13_storage)dyn_storage": {
						"base": "t_struct(STUDENT)13_storage",
						"encoding": "dynamic_array",
						"label": "struct TEACHER.STUDENT[]",
						"numberOfBytes": "32"
					},
					"t_string_storage": {
						"encoding": "bytes",
						"label": "string",
						"numberOfBytes": "32"
					},
					"t_struct(STUDENT)13_storage": {
						"encoding": "inplace",
						"label": "struct TEACHER.STUDENT",
						"members": [
							{
								"astId": 3,
								"contract": "codingtest/codingtest_241231.sol:TEACHER",
								"label": "name",
								"offset": 0,
								"slot": "0",
								"type": "t_string_storage"
							},
							{
								"astId": 5,
								"contract": "codingtest/codingtest_241231.sol:TEACHER",
								"label": "number",
								"offset": 0,
								"slot": "1",
								"type": "t_uint256"
							},
							{
								"astId": 7,
								"contract": "codingtest/codingtest_241231.sol:TEACHER",
								"label": "score",
								"offset": 0,
								"slot": "2",
								"type": "t_uint256"
							},
							{
								"astId": 9,
								"contract": "codingtest/codingtest_241231.sol:TEACHER",
								"label": "grade",
								"offset": 0,
								"slot": "3",
								"type": "t_string_storage"
							},
							{
								"astId": 12,
								"contract": "codingtest/codingtest_241231.sol:TEACHER",
								"label": "classes",
								"offset": 0,
								"slot": "4",
								"type": "t_array(t_string_storage)dyn_storage"
							}
						],
						"numberOfBytes": "160"
					},
					"t_uint256": {
						"encoding": "inplace",
						"label": "uint256",
						"numberOfBytes": "32"
					}
				}
			},
			"userdoc": {
				"kind": "user",
				"methods": {},
				"version": 1
			}
		}
	}
}